{
	"LessonExternalLibrary.sol": {
		"myLib1": {
			"abi": [
				{
					"inputs": [
						{
							"internalType": "uint256",
							"name": "a",
							"type": "uint256"
						},
						{
							"internalType": "uint256",
							"name": "b",
							"type": "uint256"
						}
					],
					"name": "substract",
					"outputs": [
						{
							"internalType": "uint256",
							"name": "",
							"type": "uint256"
						}
					],
					"stateMutability": "pure",
					"type": "function"
				}
			],
			"devdoc": {
				"kind": "dev",
				"methods": {},
				"version": 1
			},
			"evm": {
				"assembly": "    /* \"LessonExternalLibrary.sol\":60:221  library myLib1 {... */\n  dataSize(sub_0)\n  dataOffset(sub_0)\n  0x0b\n  dup3\n  dup3\n  dup3\n  codecopy\n  dup1\n  mload\n  0x00\n  byte\n  0x73\n  eq\n  tag_1\n  jumpi\n  mstore(0x00, 0x4e487b7100000000000000000000000000000000000000000000000000000000)\n  mstore(0x04, 0x00)\n  revert(0x00, 0x24)\ntag_1:\n  mstore(0x00, address)\n  0x73\n  dup2\n  mstore8\n  dup3\n  dup2\n  return\nstop\n\nsub_0: assembly {\n        /* \"LessonExternalLibrary.sol\":60:221  library myLib1 {... */\n      eq(address, deployTimeAddress())\n      mstore(0x40, 0x80)\n      jumpi(tag_1, lt(calldatasize, 0x04))\n      shr(0xe0, calldataload(0x00))\n      dup1\n      0x5d4e1e5c\n      eq\n      tag_2\n      jumpi\n    tag_1:\n      0x00\n      dup1\n      revert\n        /* \"LessonExternalLibrary.sol\":82:218  function substract(uint a, uint b) external pure returns (uint) {... */\n    tag_2:\n      tag_3\n      0x04\n      dup1\n      calldatasize\n      sub\n      dup2\n      add\n      swap1\n      tag_4\n      swap2\n      swap1\n      tag_5\n      jump\t// in\n    tag_4:\n      tag_6\n      jump\t// in\n    tag_3:\n      mload(0x40)\n      tag_7\n      swap2\n      swap1\n      tag_8\n      jump\t// in\n    tag_7:\n      mload(0x40)\n      dup1\n      swap2\n      sub\n      swap1\n      return\n    tag_6:\n        /* \"LessonExternalLibrary.sol\":140:144  uint */\n      0x00\n        /* \"LessonExternalLibrary.sol\":169:170  b */\n      dup2\n        /* \"LessonExternalLibrary.sol\":165:166  a */\n      dup4\n        /* \"LessonExternalLibrary.sol\":165:170  a > b */\n      gt\n        /* \"LessonExternalLibrary.sol\":157:187  require(a > b, \"wrong value!\") */\n      tag_10\n      jumpi\n      mload(0x40)\n      0x08c379a000000000000000000000000000000000000000000000000000000000\n      dup2\n      mstore\n      0x04\n      add\n      tag_11\n      swap1\n      tag_12\n      jump\t// in\n    tag_11:\n      mload(0x40)\n      dup1\n      swap2\n      sub\n      swap1\n      revert\n    tag_10:\n        /* \"LessonExternalLibrary.sol\":209:210  b */\n      dup2\n        /* \"LessonExternalLibrary.sol\":205:206  a */\n      dup4\n        /* \"LessonExternalLibrary.sol\":205:210  a - b */\n      tag_13\n      swap2\n      swap1\n      tag_14\n      jump\t// in\n    tag_13:\n        /* \"LessonExternalLibrary.sol\":198:210  return a - b */\n      swap1\n      pop\n        /* \"LessonExternalLibrary.sol\":82:218  function substract(uint a, uint b) external pure returns (uint) {... */\n      swap3\n      swap2\n      pop\n      pop\n      jump\t// out\n        /* \"#utility.yul\":88:205   */\n    tag_16:\n        /* \"#utility.yul\":197:198   */\n      0x00\n        /* \"#utility.yul\":194:195   */\n      dup1\n        /* \"#utility.yul\":187:199   */\n      revert\n        /* \"#utility.yul\":334:411   */\n    tag_18:\n        /* \"#utility.yul\":371:378   */\n      0x00\n        /* \"#utility.yul\":400:405   */\n      dup2\n        /* \"#utility.yul\":389:405   */\n      swap1\n      pop\n        /* \"#utility.yul\":334:411   */\n      swap2\n      swap1\n      pop\n      jump\t// out\n        /* \"#utility.yul\":417:539   */\n    tag_19:\n        /* \"#utility.yul\":490:514   */\n      tag_32\n        /* \"#utility.yul\":508:513   */\n      dup2\n        /* \"#utility.yul\":490:514   */\n      tag_18\n      jump\t// in\n    tag_32:\n        /* \"#utility.yul\":483:488   */\n      dup2\n        /* \"#utility.yul\":480:515   */\n      eq\n        /* \"#utility.yul\":470:533   */\n      tag_33\n      jumpi\n        /* \"#utility.yul\":529:530   */\n      0x00\n        /* \"#utility.yul\":526:527   */\n      dup1\n        /* \"#utility.yul\":519:531   */\n      revert\n        /* \"#utility.yul\":470:533   */\n    tag_33:\n        /* \"#utility.yul\":417:539   */\n      pop\n      jump\t// out\n        /* \"#utility.yul\":545:684   */\n    tag_20:\n        /* \"#utility.yul\":591:596   */\n      0x00\n        /* \"#utility.yul\":629:635   */\n      dup2\n        /* \"#utility.yul\":616:636   */\n      calldataload\n        /* \"#utility.yul\":607:636   */\n      swap1\n      pop\n        /* \"#utility.yul\":645:678   */\n      tag_35\n        /* \"#utility.yul\":672:677   */\n      dup2\n        /* \"#utility.yul\":645:678   */\n      tag_19\n      jump\t// in\n    tag_35:\n        /* \"#utility.yul\":545:684   */\n      swap3\n      swap2\n      pop\n      pop\n      jump\t// out\n        /* \"#utility.yul\":690:1164   */\n    tag_5:\n        /* \"#utility.yul\":758:764   */\n      0x00\n        /* \"#utility.yul\":766:772   */\n      dup1\n        /* \"#utility.yul\":815:817   */\n      0x40\n        /* \"#utility.yul\":803:812   */\n      dup4\n        /* \"#utility.yul\":794:801   */\n      dup6\n        /* \"#utility.yul\":790:813   */\n      sub\n        /* \"#utility.yul\":786:818   */\n      slt\n        /* \"#utility.yul\":783:902   */\n      iszero\n      tag_37\n      jumpi\n        /* \"#utility.yul\":821:900   */\n      tag_38\n      tag_16\n      jump\t// in\n    tag_38:\n        /* \"#utility.yul\":783:902   */\n    tag_37:\n        /* \"#utility.yul\":941:942   */\n      0x00\n        /* \"#utility.yul\":966:1019   */\n      tag_39\n        /* \"#utility.yul\":1011:1018   */\n      dup6\n        /* \"#utility.yul\":1002:1008   */\n      dup3\n        /* \"#utility.yul\":991:1000   */\n      dup7\n        /* \"#utility.yul\":987:1009   */\n      add\n        /* \"#utility.yul\":966:1019   */\n      tag_20\n      jump\t// in\n    tag_39:\n        /* \"#utility.yul\":956:1019   */\n      swap3\n      pop\n        /* \"#utility.yul\":912:1029   */\n      pop\n        /* \"#utility.yul\":1068:1070   */\n      0x20\n        /* \"#utility.yul\":1094:1147   */\n      tag_40\n        /* \"#utility.yul\":1139:1146   */\n      dup6\n        /* \"#utility.yul\":1130:1136   */\n      dup3\n        /* \"#utility.yul\":1119:1128   */\n      dup7\n        /* \"#utility.yul\":1115:1137   */\n      add\n        /* \"#utility.yul\":1094:1147   */\n      tag_20\n      jump\t// in\n    tag_40:\n        /* \"#utility.yul\":1084:1147   */\n      swap2\n      pop\n        /* \"#utility.yul\":1039:1157   */\n      pop\n        /* \"#utility.yul\":690:1164   */\n      swap3\n      pop\n      swap3\n      swap1\n      pop\n      jump\t// out\n        /* \"#utility.yul\":1170:1296   */\n    tag_21:\n        /* \"#utility.yul\":1265:1289   */\n      tag_42\n        /* \"#utility.yul\":1283:1288   */\n      dup2\n        /* \"#utility.yul\":1265:1289   */\n      tag_18\n      jump\t// in\n    tag_42:\n        /* \"#utility.yul\":1260:1263   */\n      dup3\n        /* \"#utility.yul\":1253:1290   */\n      mstore\n        /* \"#utility.yul\":1170:1296   */\n      pop\n      pop\n      jump\t// out\n        /* \"#utility.yul\":1302:1540   */\n    tag_8:\n        /* \"#utility.yul\":1403:1407   */\n      0x00\n        /* \"#utility.yul\":1441:1443   */\n      0x20\n        /* \"#utility.yul\":1430:1439   */\n      dup3\n        /* \"#utility.yul\":1426:1444   */\n      add\n        /* \"#utility.yul\":1418:1444   */\n      swap1\n      pop\n        /* \"#utility.yul\":1454:1533   */\n      tag_44\n        /* \"#utility.yul\":1530:1531   */\n      0x00\n        /* \"#utility.yul\":1519:1528   */\n      dup4\n        /* \"#utility.yul\":1515:1532   */\n      add\n        /* \"#utility.yul\":1506:1512   */\n      dup5\n        /* \"#utility.yul\":1454:1533   */\n      tag_21\n      jump\t// in\n    tag_44:\n        /* \"#utility.yul\":1302:1540   */\n      swap3\n      swap2\n      pop\n      pop\n      jump\t// out\n        /* \"#utility.yul\":1546:1715   */\n    tag_22:\n        /* \"#utility.yul\":1630:1641   */\n      0x00\n        /* \"#utility.yul\":1664:1670   */\n      dup3\n        /* \"#utility.yul\":1659:1662   */\n      dup3\n        /* \"#utility.yul\":1652:1671   */\n      mstore\n        /* \"#utility.yul\":1704:1708   */\n      0x20\n        /* \"#utility.yul\":1699:1702   */\n      dup3\n        /* \"#utility.yul\":1695:1709   */\n      add\n        /* \"#utility.yul\":1680:1709   */\n      swap1\n      pop\n        /* \"#utility.yul\":1546:1715   */\n      swap3\n      swap2\n      pop\n      pop\n      jump\t// out\n        /* \"#utility.yul\":1721:1883   */\n    tag_23:\n        /* \"#utility.yul\":1861:1875   */\n      0x77726f6e672076616c7565210000000000000000000000000000000000000000\n        /* \"#utility.yul\":1857:1858   */\n      0x00\n        /* \"#utility.yul\":1849:1855   */\n      dup3\n        /* \"#utility.yul\":1845:1859   */\n      add\n        /* \"#utility.yul\":1838:1876   */\n      mstore\n        /* \"#utility.yul\":1721:1883   */\n      pop\n      jump\t// out\n        /* \"#utility.yul\":1889:2255   */\n    tag_24:\n        /* \"#utility.yul\":2031:2034   */\n      0x00\n        /* \"#utility.yul\":2052:2119   */\n      tag_48\n        /* \"#utility.yul\":2116:2118   */\n      0x0c\n        /* \"#utility.yul\":2111:2114   */\n      dup4\n        /* \"#utility.yul\":2052:2119   */\n      tag_22\n      jump\t// in\n    tag_48:\n        /* \"#utility.yul\":2045:2119   */\n      swap2\n      pop\n        /* \"#utility.yul\":2128:2221   */\n      tag_49\n        /* \"#utility.yul\":2217:2220   */\n      dup3\n        /* \"#utility.yul\":2128:2221   */\n      tag_23\n      jump\t// in\n    tag_49:\n        /* \"#utility.yul\":2246:2248   */\n      0x20\n        /* \"#utility.yul\":2241:2244   */\n      dup3\n        /* \"#utility.yul\":2237:2249   */\n      add\n        /* \"#utility.yul\":2230:2249   */\n      swap1\n      pop\n        /* \"#utility.yul\":1889:2255   */\n      swap2\n      swap1\n      pop\n      jump\t// out\n        /* \"#utility.yul\":2261:2680   */\n    tag_12:\n        /* \"#utility.yul\":2427:2431   */\n      0x00\n        /* \"#utility.yul\":2465:2467   */\n      0x20\n        /* \"#utility.yul\":2454:2463   */\n      dup3\n        /* \"#utility.yul\":2450:2468   */\n      add\n        /* \"#utility.yul\":2442:2468   */\n      swap1\n      pop\n        /* \"#utility.yul\":2514:2523   */\n      dup2\n        /* \"#utility.yul\":2508:2512   */\n      dup2\n        /* \"#utility.yul\":2504:2524   */\n      sub\n        /* \"#utility.yul\":2500:2501   */\n      0x00\n        /* \"#utility.yul\":2489:2498   */\n      dup4\n        /* \"#utility.yul\":2485:2502   */\n      add\n        /* \"#utility.yul\":2478:2525   */\n      mstore\n        /* \"#utility.yul\":2542:2673   */\n      tag_51\n        /* \"#utility.yul\":2668:2672   */\n      dup2\n        /* \"#utility.yul\":2542:2673   */\n      tag_24\n      jump\t// in\n    tag_51:\n        /* \"#utility.yul\":2534:2673   */\n      swap1\n      pop\n        /* \"#utility.yul\":2261:2680   */\n      swap2\n      swap1\n      pop\n      jump\t// out\n        /* \"#utility.yul\":2686:2866   */\n    tag_25:\n        /* \"#utility.yul\":2734:2811   */\n      0x4e487b7100000000000000000000000000000000000000000000000000000000\n        /* \"#utility.yul\":2731:2732   */\n      0x00\n        /* \"#utility.yul\":2724:2812   */\n      mstore\n        /* \"#utility.yul\":2831:2835   */\n      0x11\n        /* \"#utility.yul\":2828:2829   */\n      0x04\n        /* \"#utility.yul\":2821:2836   */\n      mstore\n        /* \"#utility.yul\":2855:2859   */\n      0x24\n        /* \"#utility.yul\":2852:2853   */\n      0x00\n        /* \"#utility.yul\":2845:2860   */\n      revert\n        /* \"#utility.yul\":2872:3066   */\n    tag_14:\n        /* \"#utility.yul\":2912:2916   */\n      0x00\n        /* \"#utility.yul\":2932:2952   */\n      tag_54\n        /* \"#utility.yul\":2950:2951   */\n      dup3\n        /* \"#utility.yul\":2932:2952   */\n      tag_18\n      jump\t// in\n    tag_54:\n        /* \"#utility.yul\":2927:2952   */\n      swap2\n      pop\n        /* \"#utility.yul\":2966:2986   */\n      tag_55\n        /* \"#utility.yul\":2984:2985   */\n      dup4\n        /* \"#utility.yul\":2966:2986   */\n      tag_18\n      jump\t// in\n    tag_55:\n        /* \"#utility.yul\":2961:2986   */\n      swap3\n      pop\n        /* \"#utility.yul\":3010:3011   */\n      dup3\n        /* \"#utility.yul\":3007:3008   */\n      dup3\n        /* \"#utility.yul\":3003:3012   */\n      sub\n        /* \"#utility.yul\":2995:3012   */\n      swap1\n      pop\n        /* \"#utility.yul\":3034:3035   */\n      dup2\n        /* \"#utility.yul\":3028:3032   */\n      dup2\n        /* \"#utility.yul\":3025:3036   */\n      gt\n        /* \"#utility.yul\":3022:3059   */\n      iszero\n      tag_56\n      jumpi\n        /* \"#utility.yul\":3039:3057   */\n      tag_57\n      tag_25\n      jump\t// in\n    tag_57:\n        /* \"#utility.yul\":3022:3059   */\n    tag_56:\n        /* \"#utility.yul\":2872:3066   */\n      swap3\n      swap2\n      pop\n      pop\n      jump\t// out\n\n    auxdata: 0xa2646970667358221220f3b12a09daf2165f2b261708a7d5ea3d0deea3cdd17d7ce177b5ab47bc39346164736f6c63430008160033\n}\n",
				"bytecode": {
					"linkReferences": {},
					"object": "61026a61004e600b8282823980515f1a607314610042577f4e487b71000000000000000000000000000000000000000000000000000000005f525f60045260245ffd5b305f52607381538281f3fe7300000000000000000000000000000000000000003014608060405260043610610034575f3560e01c80635d4e1e5c14610038575b5f80fd5b610052600480360381019061004d91906100f6565b610068565b60405161005f9190610143565b60405180910390f35b5f8183116100ab576040517f08c379a00000000000000000000000000000000000000000000000000000000081526004016100a2906101b6565b60405180910390fd5b81836100b79190610201565b905092915050565b5f80fd5b5f819050919050565b6100d5816100c3565b81146100df575f80fd5b50565b5f813590506100f0816100cc565b92915050565b5f806040838503121561010c5761010b6100bf565b5b5f610119858286016100e2565b925050602061012a858286016100e2565b9150509250929050565b61013d816100c3565b82525050565b5f6020820190506101565f830184610134565b92915050565b5f82825260208201905092915050565b7f77726f6e672076616c75652100000000000000000000000000000000000000005f82015250565b5f6101a0600c8361015c565b91506101ab8261016c565b602082019050919050565b5f6020820190508181035f8301526101cd81610194565b9050919050565b7f4e487b71000000000000000000000000000000000000000000000000000000005f52601160045260245ffd5b5f61020b826100c3565b9150610216836100c3565b925082820390508181111561022e5761022d6101d4565b5b9291505056fea2646970667358221220f3b12a09daf2165f2b261708a7d5ea3d0deea3cdd17d7ce177b5ab47bc39346164736f6c63430008160033",
					"opcodes": "PUSH2 0x26A PUSH2 0x4E PUSH1 0xB DUP3 DUP3 DUP3 CODECOPY DUP1 MLOAD PUSH0 BYTE PUSH1 0x73 EQ PUSH2 0x42 JUMPI PUSH32 0x4E487B7100000000000000000000000000000000000000000000000000000000 PUSH0 MSTORE PUSH0 PUSH1 0x4 MSTORE PUSH1 0x24 PUSH0 REVERT JUMPDEST ADDRESS PUSH0 MSTORE PUSH1 0x73 DUP2 MSTORE8 DUP3 DUP2 RETURN INVALID PUSH20 0x0 ADDRESS EQ PUSH1 0x80 PUSH1 0x40 MSTORE PUSH1 0x4 CALLDATASIZE LT PUSH2 0x34 JUMPI PUSH0 CALLDATALOAD PUSH1 0xE0 SHR DUP1 PUSH4 0x5D4E1E5C EQ PUSH2 0x38 JUMPI JUMPDEST PUSH0 DUP1 REVERT JUMPDEST PUSH2 0x52 PUSH1 0x4 DUP1 CALLDATASIZE SUB DUP2 ADD SWAP1 PUSH2 0x4D SWAP2 SWAP1 PUSH2 0xF6 JUMP JUMPDEST PUSH2 0x68 JUMP JUMPDEST PUSH1 0x40 MLOAD PUSH2 0x5F SWAP2 SWAP1 PUSH2 0x143 JUMP JUMPDEST PUSH1 0x40 MLOAD DUP1 SWAP2 SUB SWAP1 RETURN JUMPDEST PUSH0 DUP2 DUP4 GT PUSH2 0xAB JUMPI PUSH1 0x40 MLOAD PUSH32 0x8C379A000000000000000000000000000000000000000000000000000000000 DUP2 MSTORE PUSH1 0x4 ADD PUSH2 0xA2 SWAP1 PUSH2 0x1B6 JUMP JUMPDEST PUSH1 0x40 MLOAD DUP1 SWAP2 SUB SWAP1 REVERT JUMPDEST DUP2 DUP4 PUSH2 0xB7 SWAP2 SWAP1 PUSH2 0x201 JUMP JUMPDEST SWAP1 POP SWAP3 SWAP2 POP POP JUMP JUMPDEST PUSH0 DUP1 REVERT JUMPDEST PUSH0 DUP2 SWAP1 POP SWAP2 SWAP1 POP JUMP JUMPDEST PUSH2 0xD5 DUP2 PUSH2 0xC3 JUMP JUMPDEST DUP2 EQ PUSH2 0xDF JUMPI PUSH0 DUP1 REVERT JUMPDEST POP JUMP JUMPDEST PUSH0 DUP2 CALLDATALOAD SWAP1 POP PUSH2 0xF0 DUP2 PUSH2 0xCC JUMP JUMPDEST SWAP3 SWAP2 POP POP JUMP JUMPDEST PUSH0 DUP1 PUSH1 0x40 DUP4 DUP6 SUB SLT ISZERO PUSH2 0x10C JUMPI PUSH2 0x10B PUSH2 0xBF JUMP JUMPDEST JUMPDEST PUSH0 PUSH2 0x119 DUP6 DUP3 DUP7 ADD PUSH2 0xE2 JUMP JUMPDEST SWAP3 POP POP PUSH1 0x20 PUSH2 0x12A DUP6 DUP3 DUP7 ADD PUSH2 0xE2 JUMP JUMPDEST SWAP2 POP POP SWAP3 POP SWAP3 SWAP1 POP JUMP JUMPDEST PUSH2 0x13D DUP2 PUSH2 0xC3 JUMP JUMPDEST DUP3 MSTORE POP POP JUMP JUMPDEST PUSH0 PUSH1 0x20 DUP3 ADD SWAP1 POP PUSH2 0x156 PUSH0 DUP4 ADD DUP5 PUSH2 0x134 JUMP JUMPDEST SWAP3 SWAP2 POP POP JUMP JUMPDEST PUSH0 DUP3 DUP3 MSTORE PUSH1 0x20 DUP3 ADD SWAP1 POP SWAP3 SWAP2 POP POP JUMP JUMPDEST PUSH32 0x77726F6E672076616C7565210000000000000000000000000000000000000000 PUSH0 DUP3 ADD MSTORE POP JUMP JUMPDEST PUSH0 PUSH2 0x1A0 PUSH1 0xC DUP4 PUSH2 0x15C JUMP JUMPDEST SWAP2 POP PUSH2 0x1AB DUP3 PUSH2 0x16C JUMP JUMPDEST PUSH1 0x20 DUP3 ADD SWAP1 POP SWAP2 SWAP1 POP JUMP JUMPDEST PUSH0 PUSH1 0x20 DUP3 ADD SWAP1 POP DUP2 DUP2 SUB PUSH0 DUP4 ADD MSTORE PUSH2 0x1CD DUP2 PUSH2 0x194 JUMP JUMPDEST SWAP1 POP SWAP2 SWAP1 POP JUMP JUMPDEST PUSH32 0x4E487B7100000000000000000000000000000000000000000000000000000000 PUSH0 MSTORE PUSH1 0x11 PUSH1 0x4 MSTORE PUSH1 0x24 PUSH0 REVERT JUMPDEST PUSH0 PUSH2 0x20B DUP3 PUSH2 0xC3 JUMP JUMPDEST SWAP2 POP PUSH2 0x216 DUP4 PUSH2 0xC3 JUMP JUMPDEST SWAP3 POP DUP3 DUP3 SUB SWAP1 POP DUP2 DUP2 GT ISZERO PUSH2 0x22E JUMPI PUSH2 0x22D PUSH2 0x1D4 JUMP JUMPDEST JUMPDEST SWAP3 SWAP2 POP POP JUMP INVALID LOG2 PUSH5 0x6970667358 0x22 SLT KECCAK256 RETURN 0xB1 0x2A MULMOD 0xDA CALLCODE AND PUSH0 0x2B 0x26 OR ADDMOD 0xA7 0xD5 0xEA RETURNDATASIZE 0xD 0xEE LOG3 0xCD 0xD1 PUSH30 0x7CE177B5AB47BC39346164736F6C63430008160033000000000000000000 "
				},
				"gasEstimates": {
					"creation": {
						"codeDepositCost": "123600",
						"executionCost": "194",
						"totalCost": "123794"
					},
					"external": {
						"substract(uint256,uint256)": "infinite"
					}
				},
				"methodIdentifiers": {
					"substract(uint256,uint256)": "5d4e1e5c"
				}
			},
			"storageLayout": {
				"storage": [],
				"types": null
			},
			"userdoc": {
				"kind": "user",
				"methods": {},
				"version": 1
			}
		}
	}
}