{
	"LessonCall.sol": {
		"Sender": {
			"abi": [
				{
					"inputs": [],
					"stateMutability": "nonpayable",
					"type": "constructor"
				},
				{
					"inputs": [
						{
							"internalType": "address",
							"name": "owner",
							"type": "address"
						}
					],
					"name": "OwnableInvalidOwner",
					"type": "error"
				},
				{
					"inputs": [
						{
							"internalType": "address",
							"name": "account",
							"type": "address"
						}
					],
					"name": "OwnableUnauthorizedAccount",
					"type": "error"
				},
				{
					"anonymous": false,
					"inputs": [
						{
							"indexed": true,
							"internalType": "address",
							"name": "previousOwner",
							"type": "address"
						},
						{
							"indexed": true,
							"internalType": "address",
							"name": "newOwner",
							"type": "address"
						}
					],
					"name": "OwnershipTransferred",
					"type": "event"
				},
				{
					"inputs": [
						{
							"internalType": "address",
							"name": "target",
							"type": "address"
						},
						{
							"internalType": "uint256",
							"name": "method",
							"type": "uint256"
						}
					],
					"name": "callOtherContract",
					"outputs": [],
					"stateMutability": "payable",
					"type": "function"
				},
				{
					"inputs": [],
					"name": "owner",
					"outputs": [
						{
							"internalType": "address",
							"name": "",
							"type": "address"
						}
					],
					"stateMutability": "view",
					"type": "function"
				},
				{
					"inputs": [],
					"name": "renounceOwnership",
					"outputs": [],
					"stateMutability": "nonpayable",
					"type": "function"
				},
				{
					"inputs": [
						{
							"internalType": "address payable",
							"name": "recipient",
							"type": "address"
						},
						{
							"internalType": "uint256",
							"name": "amount",
							"type": "uint256"
						}
					],
					"name": "sendEther",
					"outputs": [],
					"stateMutability": "nonpayable",
					"type": "function"
				},
				{
					"inputs": [
						{
							"internalType": "address",
							"name": "newOwner",
							"type": "address"
						}
					],
					"name": "transferOwnership",
					"outputs": [],
					"stateMutability": "nonpayable",
					"type": "function"
				},
				{
					"stateMutability": "payable",
					"type": "receive"
				}
			],
			"devdoc": {
				"errors": {
					"OwnableInvalidOwner(address)": [
						{
							"details": "The owner is not a valid owner account. (eg. `address(0)`)"
						}
					],
					"OwnableUnauthorizedAccount(address)": [
						{
							"details": "The caller account is not authorized to perform an operation."
						}
					]
				},
				"kind": "dev",
				"methods": {
					"owner()": {
						"details": "Returns the address of the current owner."
					},
					"renounceOwnership()": {
						"details": "Leaves the contract without owner. It will not be possible to call `onlyOwner` functions. Can only be called by the current owner. NOTE: Renouncing ownership will leave the contract without an owner, thereby disabling any functionality that is only available to the owner."
					},
					"transferOwnership(address)": {
						"details": "Transfers ownership of the contract to a new account (`newOwner`). Can only be called by the current owner."
					}
				},
				"version": 1
			},
			"evm": {
				"assembly": "    /* \"LessonCall.sol\":116:2140  contract Sender is Ownable {... */\n  mstore(0x40, 0x80)\n    /* \"LessonCall.sol\":278:314  constructor() Ownable(msg.sender) {} */\n  callvalue\n  dup1\n  iszero\n  tag_1\n  jumpi\n  0x00\n  dup1\n  revert\ntag_1:\n  pop\n    /* \"LessonCall.sol\":300:310  msg.sender */\n  caller\n    /* \"@openzeppelin/contracts/access/Ownable.sol\":1297:1298  0 */\n  0x00\n    /* \"@openzeppelin/contracts/access/Ownable.sol\":1273:1299  initialOwner == address(0) */\n  0xffffffffffffffffffffffffffffffffffffffff\n  and\n    /* \"@openzeppelin/contracts/access/Ownable.sol\":1273:1285  initialOwner */\n  dup2\n    /* \"@openzeppelin/contracts/access/Ownable.sol\":1273:1299  initialOwner == address(0) */\n  0xffffffffffffffffffffffffffffffffffffffff\n  and\n  sub\n    /* \"@openzeppelin/contracts/access/Ownable.sol\":1269:1364  if (initialOwner == address(0)) {... */\n  tag_5\n  jumpi\n    /* \"@openzeppelin/contracts/access/Ownable.sol\":1350:1351  0 */\n  0x00\n    /* \"@openzeppelin/contracts/access/Ownable.sol\":1322:1353  OwnableInvalidOwner(address(0)) */\n  mload(0x40)\n  0x1e4fbdf700000000000000000000000000000000000000000000000000000000\n  dup2\n  mstore\n  0x04\n  add\n  tag_6\n  swap2\n  swap1\n  tag_7\n  jump\t// in\ntag_6:\n  mload(0x40)\n  dup1\n  swap2\n  sub\n  swap1\n  revert\n    /* \"@openzeppelin/contracts/access/Ownable.sol\":1269:1364  if (initialOwner == address(0)) {... */\ntag_5:\n    /* \"@openzeppelin/contracts/access/Ownable.sol\":1373:1405  _transferOwnership(initialOwner) */\n  tag_8\n    /* \"@openzeppelin/contracts/access/Ownable.sol\":1392:1404  initialOwner */\n  dup2\n    /* \"@openzeppelin/contracts/access/Ownable.sol\":1373:1391  _transferOwnership */\n  shl(0x20, tag_9)\n    /* \"@openzeppelin/contracts/access/Ownable.sol\":1373:1405  _transferOwnership(initialOwner) */\n  0x20\n  shr\n  jump\t// in\ntag_8:\n    /* \"@openzeppelin/contracts/access/Ownable.sol\":1225:1412  constructor(address initialOwner) {... */\n  pop\n    /* \"LessonCall.sol\":116:2140  contract Sender is Ownable {... */\n  jump(tag_11)\n    /* \"@openzeppelin/contracts/access/Ownable.sol\":2912:3099  function _transferOwnership(address newOwner) internal virtual {... */\ntag_9:\n    /* \"@openzeppelin/contracts/access/Ownable.sol\":2985:3001  address oldOwner */\n  0x00\n    /* \"@openzeppelin/contracts/access/Ownable.sol\":3004:3010  _owner */\n  dup1\n  0x00\n  swap1\n  sload\n  swap1\n  0x0100\n  exp\n  swap1\n  div\n  0xffffffffffffffffffffffffffffffffffffffff\n  and\n    /* \"@openzeppelin/contracts/access/Ownable.sol\":2985:3010  address oldOwner = _owner */\n  swap1\n  pop\n    /* \"@openzeppelin/contracts/access/Ownable.sol\":3029:3037  newOwner */\n  dup2\n    /* \"@openzeppelin/contracts/access/Ownable.sol\":3020:3026  _owner */\n  0x00\n  dup1\n    /* \"@openzeppelin/contracts/access/Ownable.sol\":3020:3037  _owner = newOwner */\n  0x0100\n  exp\n  dup2\n  sload\n  dup2\n  0xffffffffffffffffffffffffffffffffffffffff\n  mul\n  not\n  and\n  swap1\n  dup4\n  0xffffffffffffffffffffffffffffffffffffffff\n  and\n  mul\n  or\n  swap1\n  sstore\n  pop\n    /* \"@openzeppelin/contracts/access/Ownable.sol\":3083:3091  newOwner */\n  dup2\n    /* \"@openzeppelin/contracts/access/Ownable.sol\":3052:3092  OwnershipTransferred(oldOwner, newOwner) */\n  0xffffffffffffffffffffffffffffffffffffffff\n  and\n    /* \"@openzeppelin/contracts/access/Ownable.sol\":3073:3081  oldOwner */\n  dup2\n    /* \"@openzeppelin/contracts/access/Ownable.sol\":3052:3092  OwnershipTransferred(oldOwner, newOwner) */\n  0xffffffffffffffffffffffffffffffffffffffff\n  and\n  0x8be0079c531659141344cd1fd0a4f28419497f9722a3daafe3b4186f6b6457e0\n  mload(0x40)\n  mload(0x40)\n  dup1\n  swap2\n  sub\n  swap1\n  log3\n    /* \"@openzeppelin/contracts/access/Ownable.sol\":2975:3099  {... */\n  pop\n    /* \"@openzeppelin/contracts/access/Ownable.sol\":2912:3099  function _transferOwnership(address newOwner) internal virtual {... */\n  pop\n  jump\t// out\n    /* \"#utility.yul\":7:133   */\ntag_13:\n    /* \"#utility.yul\":44:51   */\n  0x00\n    /* \"#utility.yul\":84:126   */\n  0xffffffffffffffffffffffffffffffffffffffff\n    /* \"#utility.yul\":77:82   */\n  dup3\n    /* \"#utility.yul\":73:127   */\n  and\n    /* \"#utility.yul\":62:127   */\n  swap1\n  pop\n    /* \"#utility.yul\":7:133   */\n  swap2\n  swap1\n  pop\n  jump\t// out\n    /* \"#utility.yul\":139:235   */\ntag_14:\n    /* \"#utility.yul\":176:183   */\n  0x00\n    /* \"#utility.yul\":205:229   */\n  tag_19\n    /* \"#utility.yul\":223:228   */\n  dup3\n    /* \"#utility.yul\":205:229   */\n  tag_13\n  jump\t// in\ntag_19:\n    /* \"#utility.yul\":194:229   */\n  swap1\n  pop\n    /* \"#utility.yul\":139:235   */\n  swap2\n  swap1\n  pop\n  jump\t// out\n    /* \"#utility.yul\":241:359   */\ntag_15:\n    /* \"#utility.yul\":328:352   */\n  tag_21\n    /* \"#utility.yul\":346:351   */\n  dup2\n    /* \"#utility.yul\":328:352   */\n  tag_14\n  jump\t// in\ntag_21:\n    /* \"#utility.yul\":323:326   */\n  dup3\n    /* \"#utility.yul\":316:353   */\n  mstore\n    /* \"#utility.yul\":241:359   */\n  pop\n  pop\n  jump\t// out\n    /* \"#utility.yul\":365:587   */\ntag_7:\n    /* \"#utility.yul\":458:462   */\n  0x00\n    /* \"#utility.yul\":496:498   */\n  0x20\n    /* \"#utility.yul\":485:494   */\n  dup3\n    /* \"#utility.yul\":481:499   */\n  add\n    /* \"#utility.yul\":473:499   */\n  swap1\n  pop\n    /* \"#utility.yul\":509:580   */\n  tag_23\n    /* \"#utility.yul\":577:578   */\n  0x00\n    /* \"#utility.yul\":566:575   */\n  dup4\n    /* \"#utility.yul\":562:579   */\n  add\n    /* \"#utility.yul\":553:559   */\n  dup5\n    /* \"#utility.yul\":509:580   */\n  tag_15\n  jump\t// in\ntag_23:\n    /* \"#utility.yul\":365:587   */\n  swap3\n  swap2\n  pop\n  pop\n  jump\t// out\n    /* \"LessonCall.sol\":116:2140  contract Sender is Ownable {... */\ntag_11:\n  dataSize(sub_0)\n  dup1\n  dataOffset(sub_0)\n  0x00\n  codecopy\n  0x00\n  return\nstop\n\nsub_0: assembly {\n        /* \"LessonCall.sol\":116:2140  contract Sender is Ownable {... */\n      mstore(0x40, 0x80)\n      jumpi(tag_1, lt(calldatasize, 0x04))\n      shr(0xe0, calldataload(0x00))\n      dup1\n      0x3b111c25\n      eq\n      tag_3\n      jumpi\n      dup1\n      0x715018a6\n      eq\n      tag_4\n      jumpi\n      dup1\n      0x8da5cb5b\n      eq\n      tag_5\n      jumpi\n      dup1\n      0xc1756a2c\n      eq\n      tag_6\n      jumpi\n      dup1\n      0xf2fde38b\n      eq\n      tag_7\n      jumpi\n      jump(tag_2)\n    tag_1:\n      jumpi(tag_2, calldatasize)\n      stop\n    tag_2:\n      0x00\n      dup1\n      revert\n        /* \"LessonCall.sol\":851:2127  function callOtherContract(address target, uint method) external payable {... */\n    tag_3:\n      tag_10\n      0x04\n      dup1\n      calldatasize\n      sub\n      dup2\n      add\n      swap1\n      tag_11\n      swap2\n      swap1\n      tag_12\n      jump\t// in\n    tag_11:\n      tag_13\n      jump\t// in\n    tag_10:\n      stop\n        /* \"@openzeppelin/contracts/access/Ownable.sol\":2293:2394  function renounceOwnership() public virtual onlyOwner {... */\n    tag_4:\n      callvalue\n      dup1\n      iszero\n      tag_14\n      jumpi\n      0x00\n      dup1\n      revert\n    tag_14:\n      pop\n      tag_15\n      tag_16\n      jump\t// in\n    tag_15:\n      stop\n        /* \"@openzeppelin/contracts/access/Ownable.sol\":1638:1723  function owner() public view virtual returns (address) {... */\n    tag_5:\n      callvalue\n      dup1\n      iszero\n      tag_17\n      jumpi\n      0x00\n      dup1\n      revert\n    tag_17:\n      pop\n      tag_18\n      tag_19\n      jump\t// in\n    tag_18:\n      mload(0x40)\n      tag_20\n      swap2\n      swap1\n      tag_21\n      jump\t// in\n    tag_20:\n      mload(0x40)\n      dup1\n      swap2\n      sub\n      swap1\n      return\n        /* \"LessonCall.sol\":516:714  function sendEther(address payable recipient, uint amount) external onlyOwner {... */\n    tag_6:\n      callvalue\n      dup1\n      iszero\n      tag_22\n      jumpi\n      0x00\n      dup1\n      revert\n    tag_22:\n      pop\n      tag_23\n      0x04\n      dup1\n      calldatasize\n      sub\n      dup2\n      add\n      swap1\n      tag_24\n      swap2\n      swap1\n      tag_25\n      jump\t// in\n    tag_24:\n      tag_26\n      jump\t// in\n    tag_23:\n      stop\n        /* \"@openzeppelin/contracts/access/Ownable.sol\":2543:2758  function transferOwnership(address newOwner) public virtual onlyOwner {... */\n    tag_7:\n      callvalue\n      dup1\n      iszero\n      tag_27\n      jumpi\n      0x00\n      dup1\n      revert\n    tag_27:\n      pop\n      tag_28\n      0x04\n      dup1\n      calldatasize\n      sub\n      dup2\n      add\n      swap1\n      tag_29\n      swap2\n      swap1\n      tag_30\n      jump\t// in\n    tag_29:\n      tag_31\n      jump\t// in\n    tag_28:\n      stop\n        /* \"LessonCall.sol\":851:2127  function callOtherContract(address target, uint method) external payable {... */\n    tag_13:\n        /* \"LessonCall.sol\":968:977  msg.value */\n      callvalue\n        /* \"LessonCall.sol\":943:964  address(this).balance */\n      selfbalance\n        /* \"LessonCall.sol\":943:977  address(this).balance >= msg.value */\n      lt\n      iszero\n        /* \"LessonCall.sol\":935:1010  require(address(this).balance >= msg.value, \"Insufficient balance to send\") */\n      tag_33\n      jumpi\n      mload(0x40)\n      0x08c379a000000000000000000000000000000000000000000000000000000000\n      dup2\n      mstore\n      0x04\n      add\n      tag_34\n      swap1\n      tag_35\n      jump\t// in\n    tag_34:\n      mload(0x40)\n      dup1\n      swap2\n      sub\n      swap1\n      revert\n    tag_33:\n        /* \"LessonCall.sol\":1037:1038  1 */\n      0x01\n        /* \"LessonCall.sol\":1027:1033  method */\n      dup2\n        /* \"LessonCall.sol\":1027:1038  method == 1 */\n      sub\n        /* \"LessonCall.sol\":1023:2120  if (method == 1) {... */\n      tag_36\n      jumpi\n        /* \"LessonCall.sol\":1186:1198  bool success */\n      0x00\n        /* \"LessonCall.sol\":1204:1210  target */\n      dup3\n        /* \"LessonCall.sol\":1204:1215  target.call */\n      0xffffffffffffffffffffffffffffffffffffffff\n      and\n        /* \"LessonCall.sol\":1223:1232  msg.value */\n      callvalue\n        /* \"LessonCall.sol\":1234:1276  abi.encodeWithSignature(\"receiveEther1()\") */\n      add(0x24, mload(0x40))\n      mload(0x40)\n      0x20\n      dup2\n      dup4\n      sub\n      sub\n      dup2\n      mstore\n      swap1\n      0x40\n      mstore\n      and(not(0xffffffffffffffffffffffffffffffffffffffffffffffffffffffff), 0x391bf32d00000000000000000000000000000000000000000000000000000000)\n      0x20\n      dup3\n      add\n      dup1\n      mload\n      0xffffffffffffffffffffffffffffffffffffffffffffffffffffffff\n      dup4\n      dup2\n      dup4\n      and\n      or\n      dup4\n      mstore\n      pop\n      pop\n      pop\n      pop\n        /* \"LessonCall.sol\":1204:1277  target.call{value: msg.value}(abi.encodeWithSignature(\"receiveEther1()\")) */\n      mload(0x40)\n      tag_37\n      swap2\n      swap1\n      tag_38\n      jump\t// in\n    tag_37:\n      0x00\n      mload(0x40)\n      dup1\n      dup4\n      sub\n      dup2\n      dup6\n      dup8\n      gas\n      call\n      swap3\n      pop\n      pop\n      pop\n      returndatasize\n      dup1\n      0x00\n      dup2\n      eq\n      tag_41\n      jumpi\n      mload(0x40)\n      swap2\n      pop\n      and(add(returndatasize, 0x3f), not(0x1f))\n      dup3\n      add\n      0x40\n      mstore\n      returndatasize\n      dup3\n      mstore\n      returndatasize\n      0x00\n      0x20\n      dup5\n      add\n      returndatacopy\n      jump(tag_40)\n    tag_41:\n      0x60\n      swap2\n      pop\n    tag_40:\n      pop\n        /* \"LessonCall.sol\":1185:1277  (bool success, ) = target.call{value: msg.value}(abi.encodeWithSignature(\"receiveEther1()\")) */\n      pop\n      swap1\n      pop\n        /* \"LessonCall.sol\":1300:1307  success */\n      dup1\n        /* \"LessonCall.sol\":1292:1340  require(success, \"Call to receiveEther1 failed\") */\n      tag_42\n      jumpi\n      mload(0x40)\n      0x08c379a000000000000000000000000000000000000000000000000000000000\n      dup2\n      mstore\n      0x04\n      add\n      tag_43\n      swap1\n      tag_44\n      jump\t// in\n    tag_43:\n      mload(0x40)\n      dup1\n      swap2\n      sub\n      swap1\n      revert\n    tag_42:\n        /* \"LessonCall.sol\":1040:1352  {... */\n      pop\n        /* \"LessonCall.sol\":1023:2120  if (method == 1) {... */\n      jump(tag_45)\n    tag_36:\n        /* \"LessonCall.sol\":1372:1373  2 */\n      0x02\n        /* \"LessonCall.sol\":1362:1368  method */\n      dup2\n        /* \"LessonCall.sol\":1362:1373  method == 2 */\n      sub\n        /* \"LessonCall.sol\":1358:2120  if (method == 2) {... */\n      tag_46\n      jumpi\n        /* \"LessonCall.sol\":1521:1533  bool success */\n      0x00\n        /* \"LessonCall.sol\":1538:1544  target */\n      dup3\n        /* \"LessonCall.sol\":1538:1549  target.call */\n      0xffffffffffffffffffffffffffffffffffffffff\n      and\n        /* \"LessonCall.sol\":1557:1566  msg.value */\n      callvalue\n        /* \"LessonCall.sol\":1598:1626  keccak256(\"receiveEther2()\") */\n      0xf37cd2e57aabddc42a27be5c99bc7c36e5e23e510633e23f608c8e8b6c9e7e64\n        /* \"LessonCall.sol\":1568:1628  abi.encodeWithSelector(bytes4(keccak256(\"receiveEther2()\"))) */\n      add(0x24, mload(0x40))\n      mload(0x40)\n      0x20\n      dup2\n      dup4\n      sub\n      sub\n      dup2\n      mstore\n      swap1\n      0x40\n      mstore\n      swap1\n      not(0xffffffffffffffffffffffffffffffffffffffffffffffffffffffff)\n      and\n      0x20\n      dup3\n      add\n      dup1\n      mload\n      0xffffffffffffffffffffffffffffffffffffffffffffffffffffffff\n      dup4\n      dup2\n      dup4\n      and\n      or\n      dup4\n      mstore\n      pop\n      pop\n      pop\n      pop\n        /* \"LessonCall.sol\":1538:1629  target.call{value: msg.value}(abi.encodeWithSelector(bytes4(keccak256(\"receiveEther2()\")))) */\n      mload(0x40)\n      tag_47\n      swap2\n      swap1\n      tag_38\n      jump\t// in\n    tag_47:\n      0x00\n      mload(0x40)\n      dup1\n      dup4\n      sub\n      dup2\n      dup6\n      dup8\n      gas\n      call\n      swap3\n      pop\n      pop\n      pop\n      returndatasize\n      dup1\n      0x00\n      dup2\n      eq\n      tag_50\n      jumpi\n      mload(0x40)\n      swap2\n      pop\n      and(add(returndatasize, 0x3f), not(0x1f))\n      dup3\n      add\n      0x40\n      mstore\n      returndatasize\n      dup3\n      mstore\n      returndatasize\n      0x00\n      0x20\n      dup5\n      add\n      returndatacopy\n      jump(tag_49)\n    tag_50:\n      0x60\n      swap2\n      pop\n    tag_49:\n      pop\n        /* \"LessonCall.sol\":1520:1629  (bool success,) = target.call{value: msg.value}(abi.encodeWithSelector(bytes4(keccak256(\"receiveEther2()\")))) */\n      pop\n      swap1\n      pop\n        /* \"LessonCall.sol\":1652:1659  success */\n      dup1\n        /* \"LessonCall.sol\":1644:1692  require(success, \"Call to receiveEther2 failed\") */\n      tag_51\n      jumpi\n      mload(0x40)\n      0x08c379a000000000000000000000000000000000000000000000000000000000\n      dup2\n      mstore\n      0x04\n      add\n      tag_52\n      swap1\n      tag_53\n      jump\t// in\n    tag_52:\n      mload(0x40)\n      dup1\n      swap2\n      sub\n      swap1\n      revert\n    tag_51:\n        /* \"LessonCall.sol\":1375:1704  {... */\n      pop\n        /* \"LessonCall.sol\":1358:2120  if (method == 2) {... */\n      jump(tag_54)\n    tag_46:\n        /* \"LessonCall.sol\":1724:1725  3 */\n      0x03\n        /* \"LessonCall.sol\":1714:1720  method */\n      dup2\n        /* \"LessonCall.sol\":1714:1725  method == 3 */\n      sub\n        /* \"LessonCall.sol\":1710:2120  if (method == 3) {... */\n      tag_55\n      jumpi\n        /* \"LessonCall.sol\":1879:1899  bytes memory payload */\n      0x00\n        /* \"LessonCall.sol\":1932:1967  keccak256(\"receiveEther3(uint256)\") */\n      0x82d5dacdc965c32dcc864fe75a033c91e3bb8154283d71508e27a48c8960e831\n        /* \"LessonCall.sol\":1970:1973  123 */\n      0x7b\n        /* \"LessonCall.sol\":1902:1974  abi.encodeWithSelector(bytes4(keccak256(\"receiveEther3(uint256)\")), 123) */\n      add(0x24, mload(0x40))\n      tag_56\n      swap2\n      swap1\n      tag_57\n      jump\t// in\n    tag_56:\n      mload(0x40)\n      0x20\n      dup2\n      dup4\n      sub\n      sub\n      dup2\n      mstore\n      swap1\n      0x40\n      mstore\n      swap1\n      not(0xffffffffffffffffffffffffffffffffffffffffffffffffffffffff)\n      and\n      0x20\n      dup3\n      add\n      dup1\n      mload\n      0xffffffffffffffffffffffffffffffffffffffffffffffffffffffff\n      dup4\n      dup2\n      dup4\n      and\n      or\n      dup4\n      mstore\n      pop\n      pop\n      pop\n      pop\n        /* \"LessonCall.sol\":1879:1974  bytes memory payload = abi.encodeWithSelector(bytes4(keccak256(\"receiveEther3(uint256)\")), 123) */\n      swap1\n      pop\n        /* \"LessonCall.sol\":1990:2002  bool success */\n      0x00\n        /* \"LessonCall.sol\":2007:2013  target */\n      dup4\n        /* \"LessonCall.sol\":2007:2018  target.call */\n      0xffffffffffffffffffffffffffffffffffffffff\n      and\n        /* \"LessonCall.sol\":2026:2035  msg.value */\n      callvalue\n        /* \"LessonCall.sol\":2037:2044  payload */\n      dup4\n        /* \"LessonCall.sol\":2007:2045  target.call{value: msg.value}(payload) */\n      mload(0x40)\n      tag_58\n      swap2\n      swap1\n      tag_38\n      jump\t// in\n    tag_58:\n      0x00\n      mload(0x40)\n      dup1\n      dup4\n      sub\n      dup2\n      dup6\n      dup8\n      gas\n      call\n      swap3\n      pop\n      pop\n      pop\n      returndatasize\n      dup1\n      0x00\n      dup2\n      eq\n      tag_61\n      jumpi\n      mload(0x40)\n      swap2\n      pop\n      and(add(returndatasize, 0x3f), not(0x1f))\n      dup3\n      add\n      0x40\n      mstore\n      returndatasize\n      dup3\n      mstore\n      returndatasize\n      0x00\n      0x20\n      dup5\n      add\n      returndatacopy\n      jump(tag_60)\n    tag_61:\n      0x60\n      swap2\n      pop\n    tag_60:\n      pop\n        /* \"LessonCall.sol\":1989:2045  (bool success,) = target.call{value: msg.value}(payload) */\n      pop\n      swap1\n      pop\n        /* \"LessonCall.sol\":2068:2075  success */\n      dup1\n        /* \"LessonCall.sol\":2060:2108  require(success, \"Call to receiveEther3 failed\") */\n      tag_62\n      jumpi\n      mload(0x40)\n      0x08c379a000000000000000000000000000000000000000000000000000000000\n      dup2\n      mstore\n      0x04\n      add\n      tag_63\n      swap1\n      tag_64\n      jump\t// in\n    tag_63:\n      mload(0x40)\n      dup1\n      swap2\n      sub\n      swap1\n      revert\n    tag_62:\n        /* \"LessonCall.sol\":1727:2120  {... */\n      pop\n      pop\n        /* \"LessonCall.sol\":1710:2120  if (method == 3) {... */\n    tag_55:\n        /* \"LessonCall.sol\":1358:2120  if (method == 2) {... */\n    tag_54:\n        /* \"LessonCall.sol\":1023:2120  if (method == 1) {... */\n    tag_45:\n        /* \"LessonCall.sol\":851:2127  function callOtherContract(address target, uint method) external payable {... */\n      pop\n      pop\n      jump\t// out\n        /* \"@openzeppelin/contracts/access/Ownable.sol\":2293:2394  function renounceOwnership() public virtual onlyOwner {... */\n    tag_16:\n        /* \"@openzeppelin/contracts/access/Ownable.sol\":1531:1544  _checkOwner() */\n      tag_66\n        /* \"@openzeppelin/contracts/access/Ownable.sol\":1531:1542  _checkOwner */\n      tag_67\n        /* \"@openzeppelin/contracts/access/Ownable.sol\":1531:1544  _checkOwner() */\n      jump\t// in\n    tag_66:\n        /* \"@openzeppelin/contracts/access/Ownable.sol\":2357:2387  _transferOwnership(address(0)) */\n      tag_69\n        /* \"@openzeppelin/contracts/access/Ownable.sol\":2384:2385  0 */\n      0x00\n        /* \"@openzeppelin/contracts/access/Ownable.sol\":2357:2375  _transferOwnership */\n      tag_70\n        /* \"@openzeppelin/contracts/access/Ownable.sol\":2357:2387  _transferOwnership(address(0)) */\n      jump\t// in\n    tag_69:\n        /* \"@openzeppelin/contracts/access/Ownable.sol\":2293:2394  function renounceOwnership() public virtual onlyOwner {... */\n      jump\t// out\n        /* \"@openzeppelin/contracts/access/Ownable.sol\":1638:1723  function owner() public view virtual returns (address) {... */\n    tag_19:\n        /* \"@openzeppelin/contracts/access/Ownable.sol\":1684:1691  address */\n      0x00\n        /* \"@openzeppelin/contracts/access/Ownable.sol\":1710:1716  _owner */\n      dup1\n      0x00\n      swap1\n      sload\n      swap1\n      0x0100\n      exp\n      swap1\n      div\n      0xffffffffffffffffffffffffffffffffffffffff\n      and\n        /* \"@openzeppelin/contracts/access/Ownable.sol\":1703:1716  return _owner */\n      swap1\n      pop\n        /* \"@openzeppelin/contracts/access/Ownable.sol\":1638:1723  function owner() public view virtual returns (address) {... */\n      swap1\n      jump\t// out\n        /* \"LessonCall.sol\":516:714  function sendEther(address payable recipient, uint amount) external onlyOwner {... */\n    tag_26:\n        /* \"@openzeppelin/contracts/access/Ownable.sol\":1531:1544  _checkOwner() */\n      tag_73\n        /* \"@openzeppelin/contracts/access/Ownable.sol\":1531:1542  _checkOwner */\n      tag_67\n        /* \"@openzeppelin/contracts/access/Ownable.sol\":1531:1544  _checkOwner() */\n      jump\t// in\n    tag_73:\n        /* \"LessonCall.sol\":638:644  amount */\n      dup1\n        /* \"LessonCall.sol\":613:634  address(this).balance */\n      selfbalance\n        /* \"LessonCall.sol\":613:644  address(this).balance >= amount */\n      lt\n      iszero\n        /* \"LessonCall.sol\":605:669  require(address(this).balance >= amount, \"Insufficient balance\") */\n      tag_75\n      jumpi\n      mload(0x40)\n      0x08c379a000000000000000000000000000000000000000000000000000000000\n      dup2\n      mstore\n      0x04\n      add\n      tag_76\n      swap1\n      tag_77\n      jump\t// in\n    tag_76:\n      mload(0x40)\n      dup1\n      swap2\n      sub\n      swap1\n      revert\n    tag_75:\n        /* \"LessonCall.sol\":680:689  recipient */\n      dup2\n        /* \"LessonCall.sol\":680:698  recipient.transfer */\n      0xffffffffffffffffffffffffffffffffffffffff\n      and\n        /* \"LessonCall.sol\":680:706  recipient.transfer(amount) */\n      0x08fc\n        /* \"LessonCall.sol\":699:705  amount */\n      dup3\n        /* \"LessonCall.sol\":680:706  recipient.transfer(amount) */\n      swap1\n      dup2\n      iszero\n      mul\n      swap1\n      mload(0x40)\n      0x00\n      mload(0x40)\n      dup1\n      dup4\n      sub\n      dup2\n      dup6\n      dup9\n      dup9\n      call\n      swap4\n      pop\n      pop\n      pop\n      pop\n      iszero\n      dup1\n      iszero\n      tag_79\n      jumpi\n      returndatasize\n      0x00\n      dup1\n      returndatacopy\n      revert(0x00, returndatasize)\n    tag_79:\n      pop\n        /* \"LessonCall.sol\":516:714  function sendEther(address payable recipient, uint amount) external onlyOwner {... */\n      pop\n      pop\n      jump\t// out\n        /* \"@openzeppelin/contracts/access/Ownable.sol\":2543:2758  function transferOwnership(address newOwner) public virtual onlyOwner {... */\n    tag_31:\n        /* \"@openzeppelin/contracts/access/Ownable.sol\":1531:1544  _checkOwner() */\n      tag_81\n        /* \"@openzeppelin/contracts/access/Ownable.sol\":1531:1542  _checkOwner */\n      tag_67\n        /* \"@openzeppelin/contracts/access/Ownable.sol\":1531:1544  _checkOwner() */\n      jump\t// in\n    tag_81:\n        /* \"@openzeppelin/contracts/access/Ownable.sol\":2647:2648  0 */\n      0x00\n        /* \"@openzeppelin/contracts/access/Ownable.sol\":2627:2649  newOwner == address(0) */\n      0xffffffffffffffffffffffffffffffffffffffff\n      and\n        /* \"@openzeppelin/contracts/access/Ownable.sol\":2627:2635  newOwner */\n      dup2\n        /* \"@openzeppelin/contracts/access/Ownable.sol\":2627:2649  newOwner == address(0) */\n      0xffffffffffffffffffffffffffffffffffffffff\n      and\n      sub\n        /* \"@openzeppelin/contracts/access/Ownable.sol\":2623:2714  if (newOwner == address(0)) {... */\n      tag_83\n      jumpi\n        /* \"@openzeppelin/contracts/access/Ownable.sol\":2700:2701  0 */\n      0x00\n        /* \"@openzeppelin/contracts/access/Ownable.sol\":2672:2703  OwnableInvalidOwner(address(0)) */\n      mload(0x40)\n      0x1e4fbdf700000000000000000000000000000000000000000000000000000000\n      dup2\n      mstore\n      0x04\n      add\n      tag_84\n      swap2\n      swap1\n      tag_21\n      jump\t// in\n    tag_84:\n      mload(0x40)\n      dup1\n      swap2\n      sub\n      swap1\n      revert\n        /* \"@openzeppelin/contracts/access/Ownable.sol\":2623:2714  if (newOwner == address(0)) {... */\n    tag_83:\n        /* \"@openzeppelin/contracts/access/Ownable.sol\":2723:2751  _transferOwnership(newOwner) */\n      tag_85\n        /* \"@openzeppelin/contracts/access/Ownable.sol\":2742:2750  newOwner */\n      dup2\n        /* \"@openzeppelin/contracts/access/Ownable.sol\":2723:2741  _transferOwnership */\n      tag_70\n        /* \"@openzeppelin/contracts/access/Ownable.sol\":2723:2751  _transferOwnership(newOwner) */\n      jump\t// in\n    tag_85:\n        /* \"@openzeppelin/contracts/access/Ownable.sol\":2543:2758  function transferOwnership(address newOwner) public virtual onlyOwner {... */\n      pop\n      jump\t// out\n        /* \"@openzeppelin/contracts/access/Ownable.sol\":1796:1958  function _checkOwner() internal view virtual {... */\n    tag_67:\n        /* \"@openzeppelin/contracts/access/Ownable.sol\":1866:1878  _msgSender() */\n      tag_87\n        /* \"@openzeppelin/contracts/access/Ownable.sol\":1866:1876  _msgSender */\n      tag_88\n        /* \"@openzeppelin/contracts/access/Ownable.sol\":1866:1878  _msgSender() */\n      jump\t// in\n    tag_87:\n        /* \"@openzeppelin/contracts/access/Ownable.sol\":1855:1878  owner() != _msgSender() */\n      0xffffffffffffffffffffffffffffffffffffffff\n      and\n        /* \"@openzeppelin/contracts/access/Ownable.sol\":1855:1862  owner() */\n      tag_89\n        /* \"@openzeppelin/contracts/access/Ownable.sol\":1855:1860  owner */\n      tag_19\n        /* \"@openzeppelin/contracts/access/Ownable.sol\":1855:1862  owner() */\n      jump\t// in\n    tag_89:\n        /* \"@openzeppelin/contracts/access/Ownable.sol\":1855:1878  owner() != _msgSender() */\n      0xffffffffffffffffffffffffffffffffffffffff\n      and\n      eq\n        /* \"@openzeppelin/contracts/access/Ownable.sol\":1851:1952  if (owner() != _msgSender()) {... */\n      tag_90\n      jumpi\n        /* \"@openzeppelin/contracts/access/Ownable.sol\":1928:1940  _msgSender() */\n      tag_91\n        /* \"@openzeppelin/contracts/access/Ownable.sol\":1928:1938  _msgSender */\n      tag_88\n        /* \"@openzeppelin/contracts/access/Ownable.sol\":1928:1940  _msgSender() */\n      jump\t// in\n    tag_91:\n        /* \"@openzeppelin/contracts/access/Ownable.sol\":1901:1941  OwnableUnauthorizedAccount(_msgSender()) */\n      mload(0x40)\n      0x118cdaa700000000000000000000000000000000000000000000000000000000\n      dup2\n      mstore\n      0x04\n      add\n      tag_92\n      swap2\n      swap1\n      tag_21\n      jump\t// in\n    tag_92:\n      mload(0x40)\n      dup1\n      swap2\n      sub\n      swap1\n      revert\n        /* \"@openzeppelin/contracts/access/Ownable.sol\":1851:1952  if (owner() != _msgSender()) {... */\n    tag_90:\n        /* \"@openzeppelin/contracts/access/Ownable.sol\":1796:1958  function _checkOwner() internal view virtual {... */\n      jump\t// out\n        /* \"@openzeppelin/contracts/access/Ownable.sol\":2912:3099  function _transferOwnership(address newOwner) internal virtual {... */\n    tag_70:\n        /* \"@openzeppelin/contracts/access/Ownable.sol\":2985:3001  address oldOwner */\n      0x00\n        /* \"@openzeppelin/contracts/access/Ownable.sol\":3004:3010  _owner */\n      dup1\n      0x00\n      swap1\n      sload\n      swap1\n      0x0100\n      exp\n      swap1\n      div\n      0xffffffffffffffffffffffffffffffffffffffff\n      and\n        /* \"@openzeppelin/contracts/access/Ownable.sol\":2985:3010  address oldOwner = _owner */\n      swap1\n      pop\n        /* \"@openzeppelin/contracts/access/Ownable.sol\":3029:3037  newOwner */\n      dup2\n        /* \"@openzeppelin/contracts/access/Ownable.sol\":3020:3026  _owner */\n      0x00\n      dup1\n        /* \"@openzeppelin/contracts/access/Ownable.sol\":3020:3037  _owner = newOwner */\n      0x0100\n      exp\n      dup2\n      sload\n      dup2\n      0xffffffffffffffffffffffffffffffffffffffff\n      mul\n      not\n      and\n      swap1\n      dup4\n      0xffffffffffffffffffffffffffffffffffffffff\n      and\n      mul\n      or\n      swap1\n      sstore\n      pop\n        /* \"@openzeppelin/contracts/access/Ownable.sol\":3083:3091  newOwner */\n      dup2\n        /* \"@openzeppelin/contracts/access/Ownable.sol\":3052:3092  OwnershipTransferred(oldOwner, newOwner) */\n      0xffffffffffffffffffffffffffffffffffffffff\n      and\n        /* \"@openzeppelin/contracts/access/Ownable.sol\":3073:3081  oldOwner */\n      dup2\n        /* \"@openzeppelin/contracts/access/Ownable.sol\":3052:3092  OwnershipTransferred(oldOwner, newOwner) */\n      0xffffffffffffffffffffffffffffffffffffffff\n      and\n      0x8be0079c531659141344cd1fd0a4f28419497f9722a3daafe3b4186f6b6457e0\n      mload(0x40)\n      mload(0x40)\n      dup1\n      swap2\n      sub\n      swap1\n      log3\n        /* \"@openzeppelin/contracts/access/Ownable.sol\":2975:3099  {... */\n      pop\n        /* \"@openzeppelin/contracts/access/Ownable.sol\":2912:3099  function _transferOwnership(address newOwner) internal virtual {... */\n      pop\n      jump\t// out\n        /* \"@openzeppelin/contracts/utils/Context.sol\":656:752  function _msgSender() internal view virtual returns (address) {... */\n    tag_88:\n        /* \"@openzeppelin/contracts/utils/Context.sol\":709:716  address */\n      0x00\n        /* \"@openzeppelin/contracts/utils/Context.sol\":735:745  msg.sender */\n      caller\n        /* \"@openzeppelin/contracts/utils/Context.sol\":728:745  return msg.sender */\n      swap1\n      pop\n        /* \"@openzeppelin/contracts/utils/Context.sol\":656:752  function _msgSender() internal view virtual returns (address) {... */\n      swap1\n      jump\t// out\n        /* \"#utility.yul\":88:205   */\n    tag_96:\n        /* \"#utility.yul\":197:198   */\n      0x00\n        /* \"#utility.yul\":194:195   */\n      dup1\n        /* \"#utility.yul\":187:199   */\n      revert\n        /* \"#utility.yul\":334:460   */\n    tag_98:\n        /* \"#utility.yul\":371:378   */\n      0x00\n        /* \"#utility.yul\":411:453   */\n      0xffffffffffffffffffffffffffffffffffffffff\n        /* \"#utility.yul\":404:409   */\n      dup3\n        /* \"#utility.yul\":400:454   */\n      and\n        /* \"#utility.yul\":389:454   */\n      swap1\n      pop\n        /* \"#utility.yul\":334:460   */\n      swap2\n      swap1\n      pop\n      jump\t// out\n        /* \"#utility.yul\":466:562   */\n    tag_99:\n        /* \"#utility.yul\":503:510   */\n      0x00\n        /* \"#utility.yul\":532:556   */\n      tag_135\n        /* \"#utility.yul\":550:555   */\n      dup3\n        /* \"#utility.yul\":532:556   */\n      tag_98\n      jump\t// in\n    tag_135:\n        /* \"#utility.yul\":521:556   */\n      swap1\n      pop\n        /* \"#utility.yul\":466:562   */\n      swap2\n      swap1\n      pop\n      jump\t// out\n        /* \"#utility.yul\":568:690   */\n    tag_100:\n        /* \"#utility.yul\":641:665   */\n      tag_137\n        /* \"#utility.yul\":659:664   */\n      dup2\n        /* \"#utility.yul\":641:665   */\n      tag_99\n      jump\t// in\n    tag_137:\n        /* \"#utility.yul\":634:639   */\n      dup2\n        /* \"#utility.yul\":631:666   */\n      eq\n        /* \"#utility.yul\":621:684   */\n      tag_138\n      jumpi\n        /* \"#utility.yul\":680:681   */\n      0x00\n        /* \"#utility.yul\":677:678   */\n      dup1\n        /* \"#utility.yul\":670:682   */\n      revert\n        /* \"#utility.yul\":621:684   */\n    tag_138:\n        /* \"#utility.yul\":568:690   */\n      pop\n      jump\t// out\n        /* \"#utility.yul\":696:835   */\n    tag_101:\n        /* \"#utility.yul\":742:747   */\n      0x00\n        /* \"#utility.yul\":780:786   */\n      dup2\n        /* \"#utility.yul\":767:787   */\n      calldataload\n        /* \"#utility.yul\":758:787   */\n      swap1\n      pop\n        /* \"#utility.yul\":796:829   */\n      tag_140\n        /* \"#utility.yul\":823:828   */\n      dup2\n        /* \"#utility.yul\":796:829   */\n      tag_100\n      jump\t// in\n    tag_140:\n        /* \"#utility.yul\":696:835   */\n      swap3\n      swap2\n      pop\n      pop\n      jump\t// out\n        /* \"#utility.yul\":841:918   */\n    tag_102:\n        /* \"#utility.yul\":878:885   */\n      0x00\n        /* \"#utility.yul\":907:912   */\n      dup2\n        /* \"#utility.yul\":896:912   */\n      swap1\n      pop\n        /* \"#utility.yul\":841:918   */\n      swap2\n      swap1\n      pop\n      jump\t// out\n        /* \"#utility.yul\":924:1046   */\n    tag_103:\n        /* \"#utility.yul\":997:1021   */\n      tag_143\n        /* \"#utility.yul\":1015:1020   */\n      dup2\n        /* \"#utility.yul\":997:1021   */\n      tag_102\n      jump\t// in\n    tag_143:\n        /* \"#utility.yul\":990:995   */\n      dup2\n        /* \"#utility.yul\":987:1022   */\n      eq\n        /* \"#utility.yul\":977:1040   */\n      tag_144\n      jumpi\n        /* \"#utility.yul\":1036:1037   */\n      0x00\n        /* \"#utility.yul\":1033:1034   */\n      dup1\n        /* \"#utility.yul\":1026:1038   */\n      revert\n        /* \"#utility.yul\":977:1040   */\n    tag_144:\n        /* \"#utility.yul\":924:1046   */\n      pop\n      jump\t// out\n        /* \"#utility.yul\":1052:1191   */\n    tag_104:\n        /* \"#utility.yul\":1098:1103   */\n      0x00\n        /* \"#utility.yul\":1136:1142   */\n      dup2\n        /* \"#utility.yul\":1123:1143   */\n      calldataload\n        /* \"#utility.yul\":1114:1143   */\n      swap1\n      pop\n        /* \"#utility.yul\":1152:1185   */\n      tag_146\n        /* \"#utility.yul\":1179:1184   */\n      dup2\n        /* \"#utility.yul\":1152:1185   */\n      tag_103\n      jump\t// in\n    tag_146:\n        /* \"#utility.yul\":1052:1191   */\n      swap3\n      swap2\n      pop\n      pop\n      jump\t// out\n        /* \"#utility.yul\":1197:1671   */\n    tag_12:\n        /* \"#utility.yul\":1265:1271   */\n      0x00\n        /* \"#utility.yul\":1273:1279   */\n      dup1\n        /* \"#utility.yul\":1322:1324   */\n      0x40\n        /* \"#utility.yul\":1310:1319   */\n      dup4\n        /* \"#utility.yul\":1301:1308   */\n      dup6\n        /* \"#utility.yul\":1297:1320   */\n      sub\n        /* \"#utility.yul\":1293:1325   */\n      slt\n        /* \"#utility.yul\":1290:1409   */\n      iszero\n      tag_148\n      jumpi\n        /* \"#utility.yul\":1328:1407   */\n      tag_149\n      tag_96\n      jump\t// in\n    tag_149:\n        /* \"#utility.yul\":1290:1409   */\n    tag_148:\n        /* \"#utility.yul\":1448:1449   */\n      0x00\n        /* \"#utility.yul\":1473:1526   */\n      tag_150\n        /* \"#utility.yul\":1518:1525   */\n      dup6\n        /* \"#utility.yul\":1509:1515   */\n      dup3\n        /* \"#utility.yul\":1498:1507   */\n      dup7\n        /* \"#utility.yul\":1494:1516   */\n      add\n        /* \"#utility.yul\":1473:1526   */\n      tag_101\n      jump\t// in\n    tag_150:\n        /* \"#utility.yul\":1463:1526   */\n      swap3\n      pop\n        /* \"#utility.yul\":1419:1536   */\n      pop\n        /* \"#utility.yul\":1575:1577   */\n      0x20\n        /* \"#utility.yul\":1601:1654   */\n      tag_151\n        /* \"#utility.yul\":1646:1653   */\n      dup6\n        /* \"#utility.yul\":1637:1643   */\n      dup3\n        /* \"#utility.yul\":1626:1635   */\n      dup7\n        /* \"#utility.yul\":1622:1644   */\n      add\n        /* \"#utility.yul\":1601:1654   */\n      tag_104\n      jump\t// in\n    tag_151:\n        /* \"#utility.yul\":1591:1654   */\n      swap2\n      pop\n        /* \"#utility.yul\":1546:1664   */\n      pop\n        /* \"#utility.yul\":1197:1671   */\n      swap3\n      pop\n      swap3\n      swap1\n      pop\n      jump\t// out\n        /* \"#utility.yul\":1677:1795   */\n    tag_105:\n        /* \"#utility.yul\":1764:1788   */\n      tag_153\n        /* \"#utility.yul\":1782:1787   */\n      dup2\n        /* \"#utility.yul\":1764:1788   */\n      tag_99\n      jump\t// in\n    tag_153:\n        /* \"#utility.yul\":1759:1762   */\n      dup3\n        /* \"#utility.yul\":1752:1789   */\n      mstore\n        /* \"#utility.yul\":1677:1795   */\n      pop\n      pop\n      jump\t// out\n        /* \"#utility.yul\":1801:2023   */\n    tag_21:\n        /* \"#utility.yul\":1894:1898   */\n      0x00\n        /* \"#utility.yul\":1932:1934   */\n      0x20\n        /* \"#utility.yul\":1921:1930   */\n      dup3\n        /* \"#utility.yul\":1917:1935   */\n      add\n        /* \"#utility.yul\":1909:1935   */\n      swap1\n      pop\n        /* \"#utility.yul\":1945:2016   */\n      tag_155\n        /* \"#utility.yul\":2013:2014   */\n      0x00\n        /* \"#utility.yul\":2002:2011   */\n      dup4\n        /* \"#utility.yul\":1998:2015   */\n      add\n        /* \"#utility.yul\":1989:1995   */\n      dup5\n        /* \"#utility.yul\":1945:2016   */\n      tag_105\n      jump\t// in\n    tag_155:\n        /* \"#utility.yul\":1801:2023   */\n      swap3\n      swap2\n      pop\n      pop\n      jump\t// out\n        /* \"#utility.yul\":2029:2133   */\n    tag_106:\n        /* \"#utility.yul\":2074:2081   */\n      0x00\n        /* \"#utility.yul\":2103:2127   */\n      tag_157\n        /* \"#utility.yul\":2121:2126   */\n      dup3\n        /* \"#utility.yul\":2103:2127   */\n      tag_98\n      jump\t// in\n    tag_157:\n        /* \"#utility.yul\":2092:2127   */\n      swap1\n      pop\n        /* \"#utility.yul\":2029:2133   */\n      swap2\n      swap1\n      pop\n      jump\t// out\n        /* \"#utility.yul\":2139:2277   */\n    tag_107:\n        /* \"#utility.yul\":2220:2252   */\n      tag_159\n        /* \"#utility.yul\":2246:2251   */\n      dup2\n        /* \"#utility.yul\":2220:2252   */\n      tag_106\n      jump\t// in\n    tag_159:\n        /* \"#utility.yul\":2213:2218   */\n      dup2\n        /* \"#utility.yul\":2210:2253   */\n      eq\n        /* \"#utility.yul\":2200:2271   */\n      tag_160\n      jumpi\n        /* \"#utility.yul\":2267:2268   */\n      0x00\n        /* \"#utility.yul\":2264:2265   */\n      dup1\n        /* \"#utility.yul\":2257:2269   */\n      revert\n        /* \"#utility.yul\":2200:2271   */\n    tag_160:\n        /* \"#utility.yul\":2139:2277   */\n      pop\n      jump\t// out\n        /* \"#utility.yul\":2283:2438   */\n    tag_108:\n        /* \"#utility.yul\":2337:2342   */\n      0x00\n        /* \"#utility.yul\":2375:2381   */\n      dup2\n        /* \"#utility.yul\":2362:2382   */\n      calldataload\n        /* \"#utility.yul\":2353:2382   */\n      swap1\n      pop\n        /* \"#utility.yul\":2391:2432   */\n      tag_162\n        /* \"#utility.yul\":2426:2431   */\n      dup2\n        /* \"#utility.yul\":2391:2432   */\n      tag_107\n      jump\t// in\n    tag_162:\n        /* \"#utility.yul\":2283:2438   */\n      swap3\n      swap2\n      pop\n      pop\n      jump\t// out\n        /* \"#utility.yul\":2444:2934   */\n    tag_25:\n        /* \"#utility.yul\":2520:2526   */\n      0x00\n        /* \"#utility.yul\":2528:2534   */\n      dup1\n        /* \"#utility.yul\":2577:2579   */\n      0x40\n        /* \"#utility.yul\":2565:2574   */\n      dup4\n        /* \"#utility.yul\":2556:2563   */\n      dup6\n        /* \"#utility.yul\":2552:2575   */\n      sub\n        /* \"#utility.yul\":2548:2580   */\n      slt\n        /* \"#utility.yul\":2545:2664   */\n      iszero\n      tag_164\n      jumpi\n        /* \"#utility.yul\":2583:2662   */\n      tag_165\n      tag_96\n      jump\t// in\n    tag_165:\n        /* \"#utility.yul\":2545:2664   */\n    tag_164:\n        /* \"#utility.yul\":2703:2704   */\n      0x00\n        /* \"#utility.yul\":2728:2789   */\n      tag_166\n        /* \"#utility.yul\":2781:2788   */\n      dup6\n        /* \"#utility.yul\":2772:2778   */\n      dup3\n        /* \"#utility.yul\":2761:2770   */\n      dup7\n        /* \"#utility.yul\":2757:2779   */\n      add\n        /* \"#utility.yul\":2728:2789   */\n      tag_108\n      jump\t// in\n    tag_166:\n        /* \"#utility.yul\":2718:2789   */\n      swap3\n      pop\n        /* \"#utility.yul\":2674:2799   */\n      pop\n        /* \"#utility.yul\":2838:2840   */\n      0x20\n        /* \"#utility.yul\":2864:2917   */\n      tag_167\n        /* \"#utility.yul\":2909:2916   */\n      dup6\n        /* \"#utility.yul\":2900:2906   */\n      dup3\n        /* \"#utility.yul\":2889:2898   */\n      dup7\n        /* \"#utility.yul\":2885:2907   */\n      add\n        /* \"#utility.yul\":2864:2917   */\n      tag_104\n      jump\t// in\n    tag_167:\n        /* \"#utility.yul\":2854:2917   */\n      swap2\n      pop\n        /* \"#utility.yul\":2809:2927   */\n      pop\n        /* \"#utility.yul\":2444:2934   */\n      swap3\n      pop\n      swap3\n      swap1\n      pop\n      jump\t// out\n        /* \"#utility.yul\":2940:3269   */\n    tag_30:\n        /* \"#utility.yul\":2999:3005   */\n      0x00\n        /* \"#utility.yul\":3048:3050   */\n      0x20\n        /* \"#utility.yul\":3036:3045   */\n      dup3\n        /* \"#utility.yul\":3027:3034   */\n      dup5\n        /* \"#utility.yul\":3023:3046   */\n      sub\n        /* \"#utility.yul\":3019:3051   */\n      slt\n        /* \"#utility.yul\":3016:3135   */\n      iszero\n      tag_169\n      jumpi\n        /* \"#utility.yul\":3054:3133   */\n      tag_170\n      tag_96\n      jump\t// in\n    tag_170:\n        /* \"#utility.yul\":3016:3135   */\n    tag_169:\n        /* \"#utility.yul\":3174:3175   */\n      0x00\n        /* \"#utility.yul\":3199:3252   */\n      tag_171\n        /* \"#utility.yul\":3244:3251   */\n      dup5\n        /* \"#utility.yul\":3235:3241   */\n      dup3\n        /* \"#utility.yul\":3224:3233   */\n      dup6\n        /* \"#utility.yul\":3220:3242   */\n      add\n        /* \"#utility.yul\":3199:3252   */\n      tag_101\n      jump\t// in\n    tag_171:\n        /* \"#utility.yul\":3189:3252   */\n      swap2\n      pop\n        /* \"#utility.yul\":3145:3262   */\n      pop\n        /* \"#utility.yul\":2940:3269   */\n      swap3\n      swap2\n      pop\n      pop\n      jump\t// out\n        /* \"#utility.yul\":3275:3444   */\n    tag_109:\n        /* \"#utility.yul\":3359:3370   */\n      0x00\n        /* \"#utility.yul\":3393:3399   */\n      dup3\n        /* \"#utility.yul\":3388:3391   */\n      dup3\n        /* \"#utility.yul\":3381:3400   */\n      mstore\n        /* \"#utility.yul\":3433:3437   */\n      0x20\n        /* \"#utility.yul\":3428:3431   */\n      dup3\n        /* \"#utility.yul\":3424:3438   */\n      add\n        /* \"#utility.yul\":3409:3438   */\n      swap1\n      pop\n        /* \"#utility.yul\":3275:3444   */\n      swap3\n      swap2\n      pop\n      pop\n      jump\t// out\n        /* \"#utility.yul\":3450:3628   */\n    tag_110:\n        /* \"#utility.yul\":3590:3620   */\n      0x496e73756666696369656e742062616c616e636520746f2073656e6400000000\n        /* \"#utility.yul\":3586:3587   */\n      0x00\n        /* \"#utility.yul\":3578:3584   */\n      dup3\n        /* \"#utility.yul\":3574:3588   */\n      add\n        /* \"#utility.yul\":3567:3621   */\n      mstore\n        /* \"#utility.yul\":3450:3628   */\n      pop\n      jump\t// out\n        /* \"#utility.yul\":3634:4000   */\n    tag_111:\n        /* \"#utility.yul\":3776:3779   */\n      0x00\n        /* \"#utility.yul\":3797:3864   */\n      tag_175\n        /* \"#utility.yul\":3861:3863   */\n      0x1c\n        /* \"#utility.yul\":3856:3859   */\n      dup4\n        /* \"#utility.yul\":3797:3864   */\n      tag_109\n      jump\t// in\n    tag_175:\n        /* \"#utility.yul\":3790:3864   */\n      swap2\n      pop\n        /* \"#utility.yul\":3873:3966   */\n      tag_176\n        /* \"#utility.yul\":3962:3965   */\n      dup3\n        /* \"#utility.yul\":3873:3966   */\n      tag_110\n      jump\t// in\n    tag_176:\n        /* \"#utility.yul\":3991:3993   */\n      0x20\n        /* \"#utility.yul\":3986:3989   */\n      dup3\n        /* \"#utility.yul\":3982:3994   */\n      add\n        /* \"#utility.yul\":3975:3994   */\n      swap1\n      pop\n        /* \"#utility.yul\":3634:4000   */\n      swap2\n      swap1\n      pop\n      jump\t// out\n        /* \"#utility.yul\":4006:4425   */\n    tag_35:\n        /* \"#utility.yul\":4172:4176   */\n      0x00\n        /* \"#utility.yul\":4210:4212   */\n      0x20\n        /* \"#utility.yul\":4199:4208   */\n      dup3\n        /* \"#utility.yul\":4195:4213   */\n      add\n        /* \"#utility.yul\":4187:4213   */\n      swap1\n      pop\n        /* \"#utility.yul\":4259:4268   */\n      dup2\n        /* \"#utility.yul\":4253:4257   */\n      dup2\n        /* \"#utility.yul\":4249:4269   */\n      sub\n        /* \"#utility.yul\":4245:4246   */\n      0x00\n        /* \"#utility.yul\":4234:4243   */\n      dup4\n        /* \"#utility.yul\":4230:4247   */\n      add\n        /* \"#utility.yul\":4223:4270   */\n      mstore\n        /* \"#utility.yul\":4287:4418   */\n      tag_178\n        /* \"#utility.yul\":4413:4417   */\n      dup2\n        /* \"#utility.yul\":4287:4418   */\n      tag_111\n      jump\t// in\n    tag_178:\n        /* \"#utility.yul\":4279:4418   */\n      swap1\n      pop\n        /* \"#utility.yul\":4006:4425   */\n      swap2\n      swap1\n      pop\n      jump\t// out\n        /* \"#utility.yul\":4431:4529   */\n    tag_112:\n        /* \"#utility.yul\":4482:4488   */\n      0x00\n        /* \"#utility.yul\":4516:4521   */\n      dup2\n        /* \"#utility.yul\":4510:4522   */\n      mload\n        /* \"#utility.yul\":4500:4522   */\n      swap1\n      pop\n        /* \"#utility.yul\":4431:4529   */\n      swap2\n      swap1\n      pop\n      jump\t// out\n        /* \"#utility.yul\":4535:4682   */\n    tag_113:\n        /* \"#utility.yul\":4636:4647   */\n      0x00\n        /* \"#utility.yul\":4673:4676   */\n      dup2\n        /* \"#utility.yul\":4658:4676   */\n      swap1\n      pop\n        /* \"#utility.yul\":4535:4682   */\n      swap3\n      swap2\n      pop\n      pop\n      jump\t// out\n        /* \"#utility.yul\":4688:4934   */\n    tag_114:\n        /* \"#utility.yul\":4769:4770   */\n      0x00\n        /* \"#utility.yul\":4779:4892   */\n    tag_182:\n        /* \"#utility.yul\":4793:4799   */\n      dup4\n        /* \"#utility.yul\":4790:4791   */\n      dup2\n        /* \"#utility.yul\":4787:4800   */\n      lt\n        /* \"#utility.yul\":4779:4892   */\n      iszero\n      tag_184\n      jumpi\n        /* \"#utility.yul\":4878:4879   */\n      dup1\n        /* \"#utility.yul\":4873:4876   */\n      dup3\n        /* \"#utility.yul\":4869:4880   */\n      add\n        /* \"#utility.yul\":4863:4881   */\n      mload\n        /* \"#utility.yul\":4859:4860   */\n      dup2\n        /* \"#utility.yul\":4854:4857   */\n      dup5\n        /* \"#utility.yul\":4850:4861   */\n      add\n        /* \"#utility.yul\":4843:4882   */\n      mstore\n        /* \"#utility.yul\":4815:4817   */\n      0x20\n        /* \"#utility.yul\":4812:4813   */\n      dup2\n        /* \"#utility.yul\":4808:4818   */\n      add\n        /* \"#utility.yul\":4803:4818   */\n      swap1\n      pop\n        /* \"#utility.yul\":4779:4892   */\n      jump(tag_182)\n    tag_184:\n        /* \"#utility.yul\":4926:4927   */\n      0x00\n        /* \"#utility.yul\":4917:4923   */\n      dup5\n        /* \"#utility.yul\":4912:4915   */\n      dup5\n        /* \"#utility.yul\":4908:4924   */\n      add\n        /* \"#utility.yul\":4901:4928   */\n      mstore\n        /* \"#utility.yul\":4750:4934   */\n      pop\n        /* \"#utility.yul\":4688:4934   */\n      pop\n      pop\n      pop\n      jump\t// out\n        /* \"#utility.yul\":4940:5326   */\n    tag_115:\n        /* \"#utility.yul\":5044:5047   */\n      0x00\n        /* \"#utility.yul\":5072:5110   */\n      tag_186\n        /* \"#utility.yul\":5104:5109   */\n      dup3\n        /* \"#utility.yul\":5072:5110   */\n      tag_112\n      jump\t// in\n    tag_186:\n        /* \"#utility.yul\":5126:5214   */\n      tag_187\n        /* \"#utility.yul\":5207:5213   */\n      dup2\n        /* \"#utility.yul\":5202:5205   */\n      dup6\n        /* \"#utility.yul\":5126:5214   */\n      tag_113\n      jump\t// in\n    tag_187:\n        /* \"#utility.yul\":5119:5214   */\n      swap4\n      pop\n        /* \"#utility.yul\":5223:5288   */\n      tag_188\n        /* \"#utility.yul\":5281:5287   */\n      dup2\n        /* \"#utility.yul\":5276:5279   */\n      dup6\n        /* \"#utility.yul\":5269:5273   */\n      0x20\n        /* \"#utility.yul\":5262:5267   */\n      dup7\n        /* \"#utility.yul\":5258:5274   */\n      add\n        /* \"#utility.yul\":5223:5288   */\n      tag_114\n      jump\t// in\n    tag_188:\n        /* \"#utility.yul\":5313:5319   */\n      dup1\n        /* \"#utility.yul\":5308:5311   */\n      dup5\n        /* \"#utility.yul\":5304:5320   */\n      add\n        /* \"#utility.yul\":5297:5320   */\n      swap2\n      pop\n        /* \"#utility.yul\":5048:5326   */\n      pop\n        /* \"#utility.yul\":4940:5326   */\n      swap3\n      swap2\n      pop\n      pop\n      jump\t// out\n        /* \"#utility.yul\":5332:5603   */\n    tag_38:\n        /* \"#utility.yul\":5462:5465   */\n      0x00\n        /* \"#utility.yul\":5484:5577   */\n      tag_190\n        /* \"#utility.yul\":5573:5576   */\n      dup3\n        /* \"#utility.yul\":5564:5570   */\n      dup5\n        /* \"#utility.yul\":5484:5577   */\n      tag_115\n      jump\t// in\n    tag_190:\n        /* \"#utility.yul\":5477:5577   */\n      swap2\n      pop\n        /* \"#utility.yul\":5594:5597   */\n      dup2\n        /* \"#utility.yul\":5587:5597   */\n      swap1\n      pop\n        /* \"#utility.yul\":5332:5603   */\n      swap3\n      swap2\n      pop\n      pop\n      jump\t// out\n        /* \"#utility.yul\":5609:5787   */\n    tag_116:\n        /* \"#utility.yul\":5749:5779   */\n      0x43616c6c20746f2072656365697665457468657231206661696c656400000000\n        /* \"#utility.yul\":5745:5746   */\n      0x00\n        /* \"#utility.yul\":5737:5743   */\n      dup3\n        /* \"#utility.yul\":5733:5747   */\n      add\n        /* \"#utility.yul\":5726:5780   */\n      mstore\n        /* \"#utility.yul\":5609:5787   */\n      pop\n      jump\t// out\n        /* \"#utility.yul\":5793:6159   */\n    tag_117:\n        /* \"#utility.yul\":5935:5938   */\n      0x00\n        /* \"#utility.yul\":5956:6023   */\n      tag_193\n        /* \"#utility.yul\":6020:6022   */\n      0x1c\n        /* \"#utility.yul\":6015:6018   */\n      dup4\n        /* \"#utility.yul\":5956:6023   */\n      tag_109\n      jump\t// in\n    tag_193:\n        /* \"#utility.yul\":5949:6023   */\n      swap2\n      pop\n        /* \"#utility.yul\":6032:6125   */\n      tag_194\n        /* \"#utility.yul\":6121:6124   */\n      dup3\n        /* \"#utility.yul\":6032:6125   */\n      tag_116\n      jump\t// in\n    tag_194:\n        /* \"#utility.yul\":6150:6152   */\n      0x20\n        /* \"#utility.yul\":6145:6148   */\n      dup3\n        /* \"#utility.yul\":6141:6153   */\n      add\n        /* \"#utility.yul\":6134:6153   */\n      swap1\n      pop\n        /* \"#utility.yul\":5793:6159   */\n      swap2\n      swap1\n      pop\n      jump\t// out\n        /* \"#utility.yul\":6165:6584   */\n    tag_44:\n        /* \"#utility.yul\":6331:6335   */\n      0x00\n        /* \"#utility.yul\":6369:6371   */\n      0x20\n        /* \"#utility.yul\":6358:6367   */\n      dup3\n        /* \"#utility.yul\":6354:6372   */\n      add\n        /* \"#utility.yul\":6346:6372   */\n      swap1\n      pop\n        /* \"#utility.yul\":6418:6427   */\n      dup2\n        /* \"#utility.yul\":6412:6416   */\n      dup2\n        /* \"#utility.yul\":6408:6428   */\n      sub\n        /* \"#utility.yul\":6404:6405   */\n      0x00\n        /* \"#utility.yul\":6393:6402   */\n      dup4\n        /* \"#utility.yul\":6389:6406   */\n      add\n        /* \"#utility.yul\":6382:6429   */\n      mstore\n        /* \"#utility.yul\":6446:6577   */\n      tag_196\n        /* \"#utility.yul\":6572:6576   */\n      dup2\n        /* \"#utility.yul\":6446:6577   */\n      tag_117\n      jump\t// in\n    tag_196:\n        /* \"#utility.yul\":6438:6577   */\n      swap1\n      pop\n        /* \"#utility.yul\":6165:6584   */\n      swap2\n      swap1\n      pop\n      jump\t// out\n        /* \"#utility.yul\":6590:6768   */\n    tag_118:\n        /* \"#utility.yul\":6730:6760   */\n      0x43616c6c20746f2072656365697665457468657232206661696c656400000000\n        /* \"#utility.yul\":6726:6727   */\n      0x00\n        /* \"#utility.yul\":6718:6724   */\n      dup3\n        /* \"#utility.yul\":6714:6728   */\n      add\n        /* \"#utility.yul\":6707:6761   */\n      mstore\n        /* \"#utility.yul\":6590:6768   */\n      pop\n      jump\t// out\n        /* \"#utility.yul\":6774:7140   */\n    tag_119:\n        /* \"#utility.yul\":6916:6919   */\n      0x00\n        /* \"#utility.yul\":6937:7004   */\n      tag_199\n        /* \"#utility.yul\":7001:7003   */\n      0x1c\n        /* \"#utility.yul\":6996:6999   */\n      dup4\n        /* \"#utility.yul\":6937:7004   */\n      tag_109\n      jump\t// in\n    tag_199:\n        /* \"#utility.yul\":6930:7004   */\n      swap2\n      pop\n        /* \"#utility.yul\":7013:7106   */\n      tag_200\n        /* \"#utility.yul\":7102:7105   */\n      dup3\n        /* \"#utility.yul\":7013:7106   */\n      tag_118\n      jump\t// in\n    tag_200:\n        /* \"#utility.yul\":7131:7133   */\n      0x20\n        /* \"#utility.yul\":7126:7129   */\n      dup3\n        /* \"#utility.yul\":7122:7134   */\n      add\n        /* \"#utility.yul\":7115:7134   */\n      swap1\n      pop\n        /* \"#utility.yul\":6774:7140   */\n      swap2\n      swap1\n      pop\n      jump\t// out\n        /* \"#utility.yul\":7146:7565   */\n    tag_53:\n        /* \"#utility.yul\":7312:7316   */\n      0x00\n        /* \"#utility.yul\":7350:7352   */\n      0x20\n        /* \"#utility.yul\":7339:7348   */\n      dup3\n        /* \"#utility.yul\":7335:7353   */\n      add\n        /* \"#utility.yul\":7327:7353   */\n      swap1\n      pop\n        /* \"#utility.yul\":7399:7408   */\n      dup2\n        /* \"#utility.yul\":7393:7397   */\n      dup2\n        /* \"#utility.yul\":7389:7409   */\n      sub\n        /* \"#utility.yul\":7385:7386   */\n      0x00\n        /* \"#utility.yul\":7374:7383   */\n      dup4\n        /* \"#utility.yul\":7370:7387   */\n      add\n        /* \"#utility.yul\":7363:7410   */\n      mstore\n        /* \"#utility.yul\":7427:7558   */\n      tag_202\n        /* \"#utility.yul\":7553:7557   */\n      dup2\n        /* \"#utility.yul\":7427:7558   */\n      tag_119\n      jump\t// in\n    tag_202:\n        /* \"#utility.yul\":7419:7558   */\n      swap1\n      pop\n        /* \"#utility.yul\":7146:7565   */\n      swap2\n      swap1\n      pop\n      jump\t// out\n        /* \"#utility.yul\":7571:7658   */\n    tag_120:\n        /* \"#utility.yul\":7618:7625   */\n      0x00\n        /* \"#utility.yul\":7647:7652   */\n      dup2\n        /* \"#utility.yul\":7636:7652   */\n      swap1\n      pop\n        /* \"#utility.yul\":7571:7658   */\n      swap2\n      swap1\n      pop\n      jump\t// out\n        /* \"#utility.yul\":7664:7750   */\n    tag_121:\n        /* \"#utility.yul\":7699:7706   */\n      0x00\n        /* \"#utility.yul\":7739:7743   */\n      0xff\n        /* \"#utility.yul\":7732:7737   */\n      dup3\n        /* \"#utility.yul\":7728:7744   */\n      and\n        /* \"#utility.yul\":7717:7744   */\n      swap1\n      pop\n        /* \"#utility.yul\":7664:7750   */\n      swap2\n      swap1\n      pop\n      jump\t// out\n        /* \"#utility.yul\":7756:7816   */\n    tag_122:\n        /* \"#utility.yul\":7784:7787   */\n      0x00\n        /* \"#utility.yul\":7805:7810   */\n      dup2\n        /* \"#utility.yul\":7798:7810   */\n      swap1\n      pop\n        /* \"#utility.yul\":7756:7816   */\n      swap2\n      swap1\n      pop\n      jump\t// out\n        /* \"#utility.yul\":7822:7980   */\n    tag_123:\n        /* \"#utility.yul\":7880:7889   */\n      0x00\n        /* \"#utility.yul\":7913:7974   */\n      tag_207\n        /* \"#utility.yul\":7929:7973   */\n      tag_208\n        /* \"#utility.yul\":7938:7972   */\n      tag_209\n        /* \"#utility.yul\":7966:7971   */\n      dup5\n        /* \"#utility.yul\":7938:7972   */\n      tag_120\n      jump\t// in\n    tag_209:\n        /* \"#utility.yul\":7929:7973   */\n      tag_122\n      jump\t// in\n    tag_208:\n        /* \"#utility.yul\":7913:7974   */\n      tag_121\n      jump\t// in\n    tag_207:\n        /* \"#utility.yul\":7900:7974   */\n      swap1\n      pop\n        /* \"#utility.yul\":7822:7980   */\n      swap2\n      swap1\n      pop\n      jump\t// out\n        /* \"#utility.yul\":7986:8133   */\n    tag_124:\n        /* \"#utility.yul\":8081:8126   */\n      tag_211\n        /* \"#utility.yul\":8120:8125   */\n      dup2\n        /* \"#utility.yul\":8081:8126   */\n      tag_123\n      jump\t// in\n    tag_211:\n        /* \"#utility.yul\":8076:8079   */\n      dup3\n        /* \"#utility.yul\":8069:8127   */\n      mstore\n        /* \"#utility.yul\":7986:8133   */\n      pop\n      pop\n      jump\t// out\n        /* \"#utility.yul\":8139:8377   */\n    tag_57:\n        /* \"#utility.yul\":8240:8244   */\n      0x00\n        /* \"#utility.yul\":8278:8280   */\n      0x20\n        /* \"#utility.yul\":8267:8276   */\n      dup3\n        /* \"#utility.yul\":8263:8281   */\n      add\n        /* \"#utility.yul\":8255:8281   */\n      swap1\n      pop\n        /* \"#utility.yul\":8291:8370   */\n      tag_213\n        /* \"#utility.yul\":8367:8368   */\n      0x00\n        /* \"#utility.yul\":8356:8365   */\n      dup4\n        /* \"#utility.yul\":8352:8369   */\n      add\n        /* \"#utility.yul\":8343:8349   */\n      dup5\n        /* \"#utility.yul\":8291:8370   */\n      tag_124\n      jump\t// in\n    tag_213:\n        /* \"#utility.yul\":8139:8377   */\n      swap3\n      swap2\n      pop\n      pop\n      jump\t// out\n        /* \"#utility.yul\":8383:8561   */\n    tag_125:\n        /* \"#utility.yul\":8523:8553   */\n      0x43616c6c20746f2072656365697665457468657233206661696c656400000000\n        /* \"#utility.yul\":8519:8520   */\n      0x00\n        /* \"#utility.yul\":8511:8517   */\n      dup3\n        /* \"#utility.yul\":8507:8521   */\n      add\n        /* \"#utility.yul\":8500:8554   */\n      mstore\n        /* \"#utility.yul\":8383:8561   */\n      pop\n      jump\t// out\n        /* \"#utility.yul\":8567:8933   */\n    tag_126:\n        /* \"#utility.yul\":8709:8712   */\n      0x00\n        /* \"#utility.yul\":8730:8797   */\n      tag_216\n        /* \"#utility.yul\":8794:8796   */\n      0x1c\n        /* \"#utility.yul\":8789:8792   */\n      dup4\n        /* \"#utility.yul\":8730:8797   */\n      tag_109\n      jump\t// in\n    tag_216:\n        /* \"#utility.yul\":8723:8797   */\n      swap2\n      pop\n        /* \"#utility.yul\":8806:8899   */\n      tag_217\n        /* \"#utility.yul\":8895:8898   */\n      dup3\n        /* \"#utility.yul\":8806:8899   */\n      tag_125\n      jump\t// in\n    tag_217:\n        /* \"#utility.yul\":8924:8926   */\n      0x20\n        /* \"#utility.yul\":8919:8922   */\n      dup3\n        /* \"#utility.yul\":8915:8927   */\n      add\n        /* \"#utility.yul\":8908:8927   */\n      swap1\n      pop\n        /* \"#utility.yul\":8567:8933   */\n      swap2\n      swap1\n      pop\n      jump\t// out\n        /* \"#utility.yul\":8939:9358   */\n    tag_64:\n        /* \"#utility.yul\":9105:9109   */\n      0x00\n        /* \"#utility.yul\":9143:9145   */\n      0x20\n        /* \"#utility.yul\":9132:9141   */\n      dup3\n        /* \"#utility.yul\":9128:9146   */\n      add\n        /* \"#utility.yul\":9120:9146   */\n      swap1\n      pop\n        /* \"#utility.yul\":9192:9201   */\n      dup2\n        /* \"#utility.yul\":9186:9190   */\n      dup2\n        /* \"#utility.yul\":9182:9202   */\n      sub\n        /* \"#utility.yul\":9178:9179   */\n      0x00\n        /* \"#utility.yul\":9167:9176   */\n      dup4\n        /* \"#utility.yul\":9163:9180   */\n      add\n        /* \"#utility.yul\":9156:9203   */\n      mstore\n        /* \"#utility.yul\":9220:9351   */\n      tag_219\n        /* \"#utility.yul\":9346:9350   */\n      dup2\n        /* \"#utility.yul\":9220:9351   */\n      tag_126\n      jump\t// in\n    tag_219:\n        /* \"#utility.yul\":9212:9351   */\n      swap1\n      pop\n        /* \"#utility.yul\":8939:9358   */\n      swap2\n      swap1\n      pop\n      jump\t// out\n        /* \"#utility.yul\":9364:9534   */\n    tag_127:\n        /* \"#utility.yul\":9504:9526   */\n      0x496e73756666696369656e742062616c616e6365000000000000000000000000\n        /* \"#utility.yul\":9500:9501   */\n      0x00\n        /* \"#utility.yul\":9492:9498   */\n      dup3\n        /* \"#utility.yul\":9488:9502   */\n      add\n        /* \"#utility.yul\":9481:9527   */\n      mstore\n        /* \"#utility.yul\":9364:9534   */\n      pop\n      jump\t// out\n        /* \"#utility.yul\":9540:9906   */\n    tag_128:\n        /* \"#utility.yul\":9682:9685   */\n      0x00\n        /* \"#utility.yul\":9703:9770   */\n      tag_222\n        /* \"#utility.yul\":9767:9769   */\n      0x14\n        /* \"#utility.yul\":9762:9765   */\n      dup4\n        /* \"#utility.yul\":9703:9770   */\n      tag_109\n      jump\t// in\n    tag_222:\n        /* \"#utility.yul\":9696:9770   */\n      swap2\n      pop\n        /* \"#utility.yul\":9779:9872   */\n      tag_223\n        /* \"#utility.yul\":9868:9871   */\n      dup3\n        /* \"#utility.yul\":9779:9872   */\n      tag_127\n      jump\t// in\n    tag_223:\n        /* \"#utility.yul\":9897:9899   */\n      0x20\n        /* \"#utility.yul\":9892:9895   */\n      dup3\n        /* \"#utility.yul\":9888:9900   */\n      add\n        /* \"#utility.yul\":9881:9900   */\n      swap1\n      pop\n        /* \"#utility.yul\":9540:9906   */\n      swap2\n      swap1\n      pop\n      jump\t// out\n        /* \"#utility.yul\":9912:10331   */\n    tag_77:\n        /* \"#utility.yul\":10078:10082   */\n      0x00\n        /* \"#utility.yul\":10116:10118   */\n      0x20\n        /* \"#utility.yul\":10105:10114   */\n      dup3\n        /* \"#utility.yul\":10101:10119   */\n      add\n        /* \"#utility.yul\":10093:10119   */\n      swap1\n      pop\n        /* \"#utility.yul\":10165:10174   */\n      dup2\n        /* \"#utility.yul\":10159:10163   */\n      dup2\n        /* \"#utility.yul\":10155:10175   */\n      sub\n        /* \"#utility.yul\":10151:10152   */\n      0x00\n        /* \"#utility.yul\":10140:10149   */\n      dup4\n        /* \"#utility.yul\":10136:10153   */\n      add\n        /* \"#utility.yul\":10129:10176   */\n      mstore\n        /* \"#utility.yul\":10193:10324   */\n      tag_225\n        /* \"#utility.yul\":10319:10323   */\n      dup2\n        /* \"#utility.yul\":10193:10324   */\n      tag_128\n      jump\t// in\n    tag_225:\n        /* \"#utility.yul\":10185:10324   */\n      swap1\n      pop\n        /* \"#utility.yul\":9912:10331   */\n      swap2\n      swap1\n      pop\n      jump\t// out\n\n    auxdata: 0xa2646970667358221220ed56129c328c07890876334805303f4fb8f467b23726f622c20cab819d5f8b1364736f6c63430008160033\n}\n",
				"bytecode": {
					"linkReferences": {},
					"object": "608060405234801561000f575f80fd5b50335f73ffffffffffffffffffffffffffffffffffffffff168173ffffffffffffffffffffffffffffffffffffffff1603610081575f6040517f1e4fbdf70000000000000000000000000000000000000000000000000000000081526004016100789190610196565b60405180910390fd5b6100908161009660201b60201c565b506101af565b5f805f9054906101000a900473ffffffffffffffffffffffffffffffffffffffff169050815f806101000a81548173ffffffffffffffffffffffffffffffffffffffff021916908373ffffffffffffffffffffffffffffffffffffffff1602179055508173ffffffffffffffffffffffffffffffffffffffff168173ffffffffffffffffffffffffffffffffffffffff167f8be0079c531659141344cd1fd0a4f28419497f9722a3daafe3b4186f6b6457e060405160405180910390a35050565b5f73ffffffffffffffffffffffffffffffffffffffff82169050919050565b5f61018082610157565b9050919050565b61019081610176565b82525050565b5f6020820190506101a95f830184610187565b92915050565b610c7c806101bc5f395ff3fe60806040526004361061004d575f3560e01c80633b111c2514610058578063715018a6146100745780638da5cb5b1461008a578063c1756a2c146100b4578063f2fde38b146100dc57610054565b3661005457005b5f80fd5b610072600480360381019061006d919061083b565b610104565b005b34801561007f575f80fd5b5061008861050a565b005b348015610095575f80fd5b5061009e61051d565b6040516100ab9190610888565b60405180910390f35b3480156100bf575f80fd5b506100da60048036038101906100d591906108dc565b610544565b005b3480156100e7575f80fd5b5061010260048036038101906100fd919061091a565b6105d7565b005b34471015610147576040517f08c379a000000000000000000000000000000000000000000000000000000000815260040161013e9061099f565b60405180910390fd5b60018103610281575f8273ffffffffffffffffffffffffffffffffffffffff16346040516024016040516020818303038152906040527f391bf32d000000000000000000000000000000000000000000000000000000007bffffffffffffffffffffffffffffffffffffffffffffffffffffffff19166020820180517bffffffffffffffffffffffffffffffffffffffffffffffffffffffff83818316178352505050506040516101f89190610a29565b5f6040518083038185875af1925050503d805f8114610232576040519150601f19603f3d011682016040523d82523d5f602084013e610237565b606091505b505090508061027b576040517f08c379a000000000000000000000000000000000000000000000000000000000815260040161027290610a89565b60405180910390fd5b50610506565b600281036103bc575f8273ffffffffffffffffffffffffffffffffffffffff16347ff37cd2e57aabddc42a27be5c99bc7c36e5e23e510633e23f608c8e8b6c9e7e64604051602401604051602081830303815290604052907bffffffffffffffffffffffffffffffffffffffffffffffffffffffff19166020820180517bffffffffffffffffffffffffffffffffffffffffffffffffffffffff83818316178352505050506040516103339190610a29565b5f6040518083038185875af1925050503d805f811461036d576040519150601f19603f3d011682016040523d82523d5f602084013e610372565b606091505b50509050806103b6576040517f08c379a00000000000000000000000000000000000000000000000000000000081526004016103ad90610af1565b60405180910390fd5b50610505565b60038103610504575f7f82d5dacdc965c32dcc864fe75a033c91e3bb8154283d71508e27a48c8960e831607b6040516024016103f89190610b5d565b604051602081830303815290604052907bffffffffffffffffffffffffffffffffffffffffffffffffffffffff19166020820180517bffffffffffffffffffffffffffffffffffffffffffffffffffffffff838183161783525050505090505f8373ffffffffffffffffffffffffffffffffffffffff16348360405161047e9190610a29565b5f6040518083038185875af1925050503d805f81146104b8576040519150601f19603f3d011682016040523d82523d5f602084013e6104bd565b606091505b5050905080610501576040517f08c379a00000000000000000000000000000000000000000000000000000000081526004016104f890610bc0565b60405180910390fd5b50505b5b5b5050565b61051261065b565b61051b5f6106e2565b565b5f805f9054906101000a900473ffffffffffffffffffffffffffffffffffffffff16905090565b61054c61065b565b8047101561058f576040517f08c379a000000000000000000000000000000000000000000000000000000000815260040161058690610c28565b60405180910390fd5b8173ffffffffffffffffffffffffffffffffffffffff166108fc8290811502906040515f60405180830381858888f193505050501580156105d2573d5f803e3d5ffd5b505050565b6105df61065b565b5f73ffffffffffffffffffffffffffffffffffffffff168173ffffffffffffffffffffffffffffffffffffffff160361064f575f6040517f1e4fbdf70000000000000000000000000000000000000000000000000000000081526004016106469190610888565b60405180910390fd5b610658816106e2565b50565b6106636107a3565b73ffffffffffffffffffffffffffffffffffffffff1661068161051d565b73ffffffffffffffffffffffffffffffffffffffff16146106e0576106a46107a3565b6040517f118cdaa70000000000000000000000000000000000000000000000000000000081526004016106d79190610888565b60405180910390fd5b565b5f805f9054906101000a900473ffffffffffffffffffffffffffffffffffffffff169050815f806101000a81548173ffffffffffffffffffffffffffffffffffffffff021916908373ffffffffffffffffffffffffffffffffffffffff1602179055508173ffffffffffffffffffffffffffffffffffffffff168173ffffffffffffffffffffffffffffffffffffffff167f8be0079c531659141344cd1fd0a4f28419497f9722a3daafe3b4186f6b6457e060405160405180910390a35050565b5f33905090565b5f80fd5b5f73ffffffffffffffffffffffffffffffffffffffff82169050919050565b5f6107d7826107ae565b9050919050565b6107e7816107cd565b81146107f1575f80fd5b50565b5f81359050610802816107de565b92915050565b5f819050919050565b61081a81610808565b8114610824575f80fd5b50565b5f8135905061083581610811565b92915050565b5f8060408385031215610851576108506107aa565b5b5f61085e858286016107f4565b925050602061086f85828601610827565b9150509250929050565b610882816107cd565b82525050565b5f60208201905061089b5f830184610879565b92915050565b5f6108ab826107ae565b9050919050565b6108bb816108a1565b81146108c5575f80fd5b50565b5f813590506108d6816108b2565b92915050565b5f80604083850312156108f2576108f16107aa565b5b5f6108ff858286016108c8565b925050602061091085828601610827565b9150509250929050565b5f6020828403121561092f5761092e6107aa565b5b5f61093c848285016107f4565b91505092915050565b5f82825260208201905092915050565b7f496e73756666696369656e742062616c616e636520746f2073656e64000000005f82015250565b5f610989601c83610945565b915061099482610955565b602082019050919050565b5f6020820190508181035f8301526109b68161097d565b9050919050565b5f81519050919050565b5f81905092915050565b5f5b838110156109ee5780820151818401526020810190506109d3565b5f8484015250505050565b5f610a03826109bd565b610a0d81856109c7565b9350610a1d8185602086016109d1565b80840191505092915050565b5f610a3482846109f9565b915081905092915050565b7f43616c6c20746f2072656365697665457468657231206661696c6564000000005f82015250565b5f610a73601c83610945565b9150610a7e82610a3f565b602082019050919050565b5f6020820190508181035f830152610aa081610a67565b9050919050565b7f43616c6c20746f2072656365697665457468657232206661696c6564000000005f82015250565b5f610adb601c83610945565b9150610ae682610aa7565b602082019050919050565b5f6020820190508181035f830152610b0881610acf565b9050919050565b5f819050919050565b5f60ff82169050919050565b5f819050919050565b5f610b47610b42610b3d84610b0f565b610b24565b610b18565b9050919050565b610b5781610b2d565b82525050565b5f602082019050610b705f830184610b4e565b92915050565b7f43616c6c20746f2072656365697665457468657233206661696c6564000000005f82015250565b5f610baa601c83610945565b9150610bb582610b76565b602082019050919050565b5f6020820190508181035f830152610bd781610b9e565b9050919050565b7f496e73756666696369656e742062616c616e63650000000000000000000000005f82015250565b5f610c12601483610945565b9150610c1d82610bde565b602082019050919050565b5f6020820190508181035f830152610c3f81610c06565b905091905056fea2646970667358221220ed56129c328c07890876334805303f4fb8f467b23726f622c20cab819d5f8b1364736f6c63430008160033",
					"opcodes": "PUSH1 0x80 PUSH1 0x40 MSTORE CALLVALUE DUP1 ISZERO PUSH2 0xF JUMPI PUSH0 DUP1 REVERT JUMPDEST POP CALLER PUSH0 PUSH20 0xFFFFFFFFFFFFFFFFFFFFFFFFFFFFFFFFFFFFFFFF AND DUP2 PUSH20 0xFFFFFFFFFFFFFFFFFFFFFFFFFFFFFFFFFFFFFFFF AND SUB PUSH2 0x81 JUMPI PUSH0 PUSH1 0x40 MLOAD PUSH32 0x1E4FBDF700000000000000000000000000000000000000000000000000000000 DUP2 MSTORE PUSH1 0x4 ADD PUSH2 0x78 SWAP2 SWAP1 PUSH2 0x196 JUMP JUMPDEST PUSH1 0x40 MLOAD DUP1 SWAP2 SUB SWAP1 REVERT JUMPDEST PUSH2 0x90 DUP2 PUSH2 0x96 PUSH1 0x20 SHL PUSH1 0x20 SHR JUMP JUMPDEST POP PUSH2 0x1AF JUMP JUMPDEST PUSH0 DUP1 PUSH0 SWAP1 SLOAD SWAP1 PUSH2 0x100 EXP SWAP1 DIV PUSH20 0xFFFFFFFFFFFFFFFFFFFFFFFFFFFFFFFFFFFFFFFF AND SWAP1 POP DUP2 PUSH0 DUP1 PUSH2 0x100 EXP DUP2 SLOAD DUP2 PUSH20 0xFFFFFFFFFFFFFFFFFFFFFFFFFFFFFFFFFFFFFFFF MUL NOT AND SWAP1 DUP4 PUSH20 0xFFFFFFFFFFFFFFFFFFFFFFFFFFFFFFFFFFFFFFFF AND MUL OR SWAP1 SSTORE POP DUP2 PUSH20 0xFFFFFFFFFFFFFFFFFFFFFFFFFFFFFFFFFFFFFFFF AND DUP2 PUSH20 0xFFFFFFFFFFFFFFFFFFFFFFFFFFFFFFFFFFFFFFFF AND PUSH32 0x8BE0079C531659141344CD1FD0A4F28419497F9722A3DAAFE3B4186F6B6457E0 PUSH1 0x40 MLOAD PUSH1 0x40 MLOAD DUP1 SWAP2 SUB SWAP1 LOG3 POP POP JUMP JUMPDEST PUSH0 PUSH20 0xFFFFFFFFFFFFFFFFFFFFFFFFFFFFFFFFFFFFFFFF DUP3 AND SWAP1 POP SWAP2 SWAP1 POP JUMP JUMPDEST PUSH0 PUSH2 0x180 DUP3 PUSH2 0x157 JUMP JUMPDEST SWAP1 POP SWAP2 SWAP1 POP JUMP JUMPDEST PUSH2 0x190 DUP2 PUSH2 0x176 JUMP JUMPDEST DUP3 MSTORE POP POP JUMP JUMPDEST PUSH0 PUSH1 0x20 DUP3 ADD SWAP1 POP PUSH2 0x1A9 PUSH0 DUP4 ADD DUP5 PUSH2 0x187 JUMP JUMPDEST SWAP3 SWAP2 POP POP JUMP JUMPDEST PUSH2 0xC7C DUP1 PUSH2 0x1BC PUSH0 CODECOPY PUSH0 RETURN INVALID PUSH1 0x80 PUSH1 0x40 MSTORE PUSH1 0x4 CALLDATASIZE LT PUSH2 0x4D JUMPI PUSH0 CALLDATALOAD PUSH1 0xE0 SHR DUP1 PUSH4 0x3B111C25 EQ PUSH2 0x58 JUMPI DUP1 PUSH4 0x715018A6 EQ PUSH2 0x74 JUMPI DUP1 PUSH4 0x8DA5CB5B EQ PUSH2 0x8A JUMPI DUP1 PUSH4 0xC1756A2C EQ PUSH2 0xB4 JUMPI DUP1 PUSH4 0xF2FDE38B EQ PUSH2 0xDC JUMPI PUSH2 0x54 JUMP JUMPDEST CALLDATASIZE PUSH2 0x54 JUMPI STOP JUMPDEST PUSH0 DUP1 REVERT JUMPDEST PUSH2 0x72 PUSH1 0x4 DUP1 CALLDATASIZE SUB DUP2 ADD SWAP1 PUSH2 0x6D SWAP2 SWAP1 PUSH2 0x83B JUMP JUMPDEST PUSH2 0x104 JUMP JUMPDEST STOP JUMPDEST CALLVALUE DUP1 ISZERO PUSH2 0x7F JUMPI PUSH0 DUP1 REVERT JUMPDEST POP PUSH2 0x88 PUSH2 0x50A JUMP JUMPDEST STOP JUMPDEST CALLVALUE DUP1 ISZERO PUSH2 0x95 JUMPI PUSH0 DUP1 REVERT JUMPDEST POP PUSH2 0x9E PUSH2 0x51D JUMP JUMPDEST PUSH1 0x40 MLOAD PUSH2 0xAB SWAP2 SWAP1 PUSH2 0x888 JUMP JUMPDEST PUSH1 0x40 MLOAD DUP1 SWAP2 SUB SWAP1 RETURN JUMPDEST CALLVALUE DUP1 ISZERO PUSH2 0xBF JUMPI PUSH0 DUP1 REVERT JUMPDEST POP PUSH2 0xDA PUSH1 0x4 DUP1 CALLDATASIZE SUB DUP2 ADD SWAP1 PUSH2 0xD5 SWAP2 SWAP1 PUSH2 0x8DC JUMP JUMPDEST PUSH2 0x544 JUMP JUMPDEST STOP JUMPDEST CALLVALUE DUP1 ISZERO PUSH2 0xE7 JUMPI PUSH0 DUP1 REVERT JUMPDEST POP PUSH2 0x102 PUSH1 0x4 DUP1 CALLDATASIZE SUB DUP2 ADD SWAP1 PUSH2 0xFD SWAP2 SWAP1 PUSH2 0x91A JUMP JUMPDEST PUSH2 0x5D7 JUMP JUMPDEST STOP JUMPDEST CALLVALUE SELFBALANCE LT ISZERO PUSH2 0x147 JUMPI PUSH1 0x40 MLOAD PUSH32 0x8C379A000000000000000000000000000000000000000000000000000000000 DUP2 MSTORE PUSH1 0x4 ADD PUSH2 0x13E SWAP1 PUSH2 0x99F JUMP JUMPDEST PUSH1 0x40 MLOAD DUP1 SWAP2 SUB SWAP1 REVERT JUMPDEST PUSH1 0x1 DUP2 SUB PUSH2 0x281 JUMPI PUSH0 DUP3 PUSH20 0xFFFFFFFFFFFFFFFFFFFFFFFFFFFFFFFFFFFFFFFF AND CALLVALUE PUSH1 0x40 MLOAD PUSH1 0x24 ADD PUSH1 0x40 MLOAD PUSH1 0x20 DUP2 DUP4 SUB SUB DUP2 MSTORE SWAP1 PUSH1 0x40 MSTORE PUSH32 0x391BF32D00000000000000000000000000000000000000000000000000000000 PUSH28 0xFFFFFFFFFFFFFFFFFFFFFFFFFFFFFFFFFFFFFFFFFFFFFFFFFFFFFFFF NOT AND PUSH1 0x20 DUP3 ADD DUP1 MLOAD PUSH28 0xFFFFFFFFFFFFFFFFFFFFFFFFFFFFFFFFFFFFFFFFFFFFFFFFFFFFFFFF DUP4 DUP2 DUP4 AND OR DUP4 MSTORE POP POP POP POP PUSH1 0x40 MLOAD PUSH2 0x1F8 SWAP2 SWAP1 PUSH2 0xA29 JUMP JUMPDEST PUSH0 PUSH1 0x40 MLOAD DUP1 DUP4 SUB DUP2 DUP6 DUP8 GAS CALL SWAP3 POP POP POP RETURNDATASIZE DUP1 PUSH0 DUP2 EQ PUSH2 0x232 JUMPI PUSH1 0x40 MLOAD SWAP2 POP PUSH1 0x1F NOT PUSH1 0x3F RETURNDATASIZE ADD AND DUP3 ADD PUSH1 0x40 MSTORE RETURNDATASIZE DUP3 MSTORE RETURNDATASIZE PUSH0 PUSH1 0x20 DUP5 ADD RETURNDATACOPY PUSH2 0x237 JUMP JUMPDEST PUSH1 0x60 SWAP2 POP JUMPDEST POP POP SWAP1 POP DUP1 PUSH2 0x27B JUMPI PUSH1 0x40 MLOAD PUSH32 0x8C379A000000000000000000000000000000000000000000000000000000000 DUP2 MSTORE PUSH1 0x4 ADD PUSH2 0x272 SWAP1 PUSH2 0xA89 JUMP JUMPDEST PUSH1 0x40 MLOAD DUP1 SWAP2 SUB SWAP1 REVERT JUMPDEST POP PUSH2 0x506 JUMP JUMPDEST PUSH1 0x2 DUP2 SUB PUSH2 0x3BC JUMPI PUSH0 DUP3 PUSH20 0xFFFFFFFFFFFFFFFFFFFFFFFFFFFFFFFFFFFFFFFF AND CALLVALUE PUSH32 0xF37CD2E57AABDDC42A27BE5C99BC7C36E5E23E510633E23F608C8E8B6C9E7E64 PUSH1 0x40 MLOAD PUSH1 0x24 ADD PUSH1 0x40 MLOAD PUSH1 0x20 DUP2 DUP4 SUB SUB DUP2 MSTORE SWAP1 PUSH1 0x40 MSTORE SWAP1 PUSH28 0xFFFFFFFFFFFFFFFFFFFFFFFFFFFFFFFFFFFFFFFFFFFFFFFFFFFFFFFF NOT AND PUSH1 0x20 DUP3 ADD DUP1 MLOAD PUSH28 0xFFFFFFFFFFFFFFFFFFFFFFFFFFFFFFFFFFFFFFFFFFFFFFFFFFFFFFFF DUP4 DUP2 DUP4 AND OR DUP4 MSTORE POP POP POP POP PUSH1 0x40 MLOAD PUSH2 0x333 SWAP2 SWAP1 PUSH2 0xA29 JUMP JUMPDEST PUSH0 PUSH1 0x40 MLOAD DUP1 DUP4 SUB DUP2 DUP6 DUP8 GAS CALL SWAP3 POP POP POP RETURNDATASIZE DUP1 PUSH0 DUP2 EQ PUSH2 0x36D JUMPI PUSH1 0x40 MLOAD SWAP2 POP PUSH1 0x1F NOT PUSH1 0x3F RETURNDATASIZE ADD AND DUP3 ADD PUSH1 0x40 MSTORE RETURNDATASIZE DUP3 MSTORE RETURNDATASIZE PUSH0 PUSH1 0x20 DUP5 ADD RETURNDATACOPY PUSH2 0x372 JUMP JUMPDEST PUSH1 0x60 SWAP2 POP JUMPDEST POP POP SWAP1 POP DUP1 PUSH2 0x3B6 JUMPI PUSH1 0x40 MLOAD PUSH32 0x8C379A000000000000000000000000000000000000000000000000000000000 DUP2 MSTORE PUSH1 0x4 ADD PUSH2 0x3AD SWAP1 PUSH2 0xAF1 JUMP JUMPDEST PUSH1 0x40 MLOAD DUP1 SWAP2 SUB SWAP1 REVERT JUMPDEST POP PUSH2 0x505 JUMP JUMPDEST PUSH1 0x3 DUP2 SUB PUSH2 0x504 JUMPI PUSH0 PUSH32 0x82D5DACDC965C32DCC864FE75A033C91E3BB8154283D71508E27A48C8960E831 PUSH1 0x7B PUSH1 0x40 MLOAD PUSH1 0x24 ADD PUSH2 0x3F8 SWAP2 SWAP1 PUSH2 0xB5D JUMP JUMPDEST PUSH1 0x40 MLOAD PUSH1 0x20 DUP2 DUP4 SUB SUB DUP2 MSTORE SWAP1 PUSH1 0x40 MSTORE SWAP1 PUSH28 0xFFFFFFFFFFFFFFFFFFFFFFFFFFFFFFFFFFFFFFFFFFFFFFFFFFFFFFFF NOT AND PUSH1 0x20 DUP3 ADD DUP1 MLOAD PUSH28 0xFFFFFFFFFFFFFFFFFFFFFFFFFFFFFFFFFFFFFFFFFFFFFFFFFFFFFFFF DUP4 DUP2 DUP4 AND OR DUP4 MSTORE POP POP POP POP SWAP1 POP PUSH0 DUP4 PUSH20 0xFFFFFFFFFFFFFFFFFFFFFFFFFFFFFFFFFFFFFFFF AND CALLVALUE DUP4 PUSH1 0x40 MLOAD PUSH2 0x47E SWAP2 SWAP1 PUSH2 0xA29 JUMP JUMPDEST PUSH0 PUSH1 0x40 MLOAD DUP1 DUP4 SUB DUP2 DUP6 DUP8 GAS CALL SWAP3 POP POP POP RETURNDATASIZE DUP1 PUSH0 DUP2 EQ PUSH2 0x4B8 JUMPI PUSH1 0x40 MLOAD SWAP2 POP PUSH1 0x1F NOT PUSH1 0x3F RETURNDATASIZE ADD AND DUP3 ADD PUSH1 0x40 MSTORE RETURNDATASIZE DUP3 MSTORE RETURNDATASIZE PUSH0 PUSH1 0x20 DUP5 ADD RETURNDATACOPY PUSH2 0x4BD JUMP JUMPDEST PUSH1 0x60 SWAP2 POP JUMPDEST POP POP SWAP1 POP DUP1 PUSH2 0x501 JUMPI PUSH1 0x40 MLOAD PUSH32 0x8C379A000000000000000000000000000000000000000000000000000000000 DUP2 MSTORE PUSH1 0x4 ADD PUSH2 0x4F8 SWAP1 PUSH2 0xBC0 JUMP JUMPDEST PUSH1 0x40 MLOAD DUP1 SWAP2 SUB SWAP1 REVERT JUMPDEST POP POP JUMPDEST JUMPDEST JUMPDEST POP POP JUMP JUMPDEST PUSH2 0x512 PUSH2 0x65B JUMP JUMPDEST PUSH2 0x51B PUSH0 PUSH2 0x6E2 JUMP JUMPDEST JUMP JUMPDEST PUSH0 DUP1 PUSH0 SWAP1 SLOAD SWAP1 PUSH2 0x100 EXP SWAP1 DIV PUSH20 0xFFFFFFFFFFFFFFFFFFFFFFFFFFFFFFFFFFFFFFFF AND SWAP1 POP SWAP1 JUMP JUMPDEST PUSH2 0x54C PUSH2 0x65B JUMP JUMPDEST DUP1 SELFBALANCE LT ISZERO PUSH2 0x58F JUMPI PUSH1 0x40 MLOAD PUSH32 0x8C379A000000000000000000000000000000000000000000000000000000000 DUP2 MSTORE PUSH1 0x4 ADD PUSH2 0x586 SWAP1 PUSH2 0xC28 JUMP JUMPDEST PUSH1 0x40 MLOAD DUP1 SWAP2 SUB SWAP1 REVERT JUMPDEST DUP2 PUSH20 0xFFFFFFFFFFFFFFFFFFFFFFFFFFFFFFFFFFFFFFFF AND PUSH2 0x8FC DUP3 SWAP1 DUP2 ISZERO MUL SWAP1 PUSH1 0x40 MLOAD PUSH0 PUSH1 0x40 MLOAD DUP1 DUP4 SUB DUP2 DUP6 DUP9 DUP9 CALL SWAP4 POP POP POP POP ISZERO DUP1 ISZERO PUSH2 0x5D2 JUMPI RETURNDATASIZE PUSH0 DUP1 RETURNDATACOPY RETURNDATASIZE PUSH0 REVERT JUMPDEST POP POP POP JUMP JUMPDEST PUSH2 0x5DF PUSH2 0x65B JUMP JUMPDEST PUSH0 PUSH20 0xFFFFFFFFFFFFFFFFFFFFFFFFFFFFFFFFFFFFFFFF AND DUP2 PUSH20 0xFFFFFFFFFFFFFFFFFFFFFFFFFFFFFFFFFFFFFFFF AND SUB PUSH2 0x64F JUMPI PUSH0 PUSH1 0x40 MLOAD PUSH32 0x1E4FBDF700000000000000000000000000000000000000000000000000000000 DUP2 MSTORE PUSH1 0x4 ADD PUSH2 0x646 SWAP2 SWAP1 PUSH2 0x888 JUMP JUMPDEST PUSH1 0x40 MLOAD DUP1 SWAP2 SUB SWAP1 REVERT JUMPDEST PUSH2 0x658 DUP2 PUSH2 0x6E2 JUMP JUMPDEST POP JUMP JUMPDEST PUSH2 0x663 PUSH2 0x7A3 JUMP JUMPDEST PUSH20 0xFFFFFFFFFFFFFFFFFFFFFFFFFFFFFFFFFFFFFFFF AND PUSH2 0x681 PUSH2 0x51D JUMP JUMPDEST PUSH20 0xFFFFFFFFFFFFFFFFFFFFFFFFFFFFFFFFFFFFFFFF AND EQ PUSH2 0x6E0 JUMPI PUSH2 0x6A4 PUSH2 0x7A3 JUMP JUMPDEST PUSH1 0x40 MLOAD PUSH32 0x118CDAA700000000000000000000000000000000000000000000000000000000 DUP2 MSTORE PUSH1 0x4 ADD PUSH2 0x6D7 SWAP2 SWAP1 PUSH2 0x888 JUMP JUMPDEST PUSH1 0x40 MLOAD DUP1 SWAP2 SUB SWAP1 REVERT JUMPDEST JUMP JUMPDEST PUSH0 DUP1 PUSH0 SWAP1 SLOAD SWAP1 PUSH2 0x100 EXP SWAP1 DIV PUSH20 0xFFFFFFFFFFFFFFFFFFFFFFFFFFFFFFFFFFFFFFFF AND SWAP1 POP DUP2 PUSH0 DUP1 PUSH2 0x100 EXP DUP2 SLOAD DUP2 PUSH20 0xFFFFFFFFFFFFFFFFFFFFFFFFFFFFFFFFFFFFFFFF MUL NOT AND SWAP1 DUP4 PUSH20 0xFFFFFFFFFFFFFFFFFFFFFFFFFFFFFFFFFFFFFFFF AND MUL OR SWAP1 SSTORE POP DUP2 PUSH20 0xFFFFFFFFFFFFFFFFFFFFFFFFFFFFFFFFFFFFFFFF AND DUP2 PUSH20 0xFFFFFFFFFFFFFFFFFFFFFFFFFFFFFFFFFFFFFFFF AND PUSH32 0x8BE0079C531659141344CD1FD0A4F28419497F9722A3DAAFE3B4186F6B6457E0 PUSH1 0x40 MLOAD PUSH1 0x40 MLOAD DUP1 SWAP2 SUB SWAP1 LOG3 POP POP JUMP JUMPDEST PUSH0 CALLER SWAP1 POP SWAP1 JUMP JUMPDEST PUSH0 DUP1 REVERT JUMPDEST PUSH0 PUSH20 0xFFFFFFFFFFFFFFFFFFFFFFFFFFFFFFFFFFFFFFFF DUP3 AND SWAP1 POP SWAP2 SWAP1 POP JUMP JUMPDEST PUSH0 PUSH2 0x7D7 DUP3 PUSH2 0x7AE JUMP JUMPDEST SWAP1 POP SWAP2 SWAP1 POP JUMP JUMPDEST PUSH2 0x7E7 DUP2 PUSH2 0x7CD JUMP JUMPDEST DUP2 EQ PUSH2 0x7F1 JUMPI PUSH0 DUP1 REVERT JUMPDEST POP JUMP JUMPDEST PUSH0 DUP2 CALLDATALOAD SWAP1 POP PUSH2 0x802 DUP2 PUSH2 0x7DE JUMP JUMPDEST SWAP3 SWAP2 POP POP JUMP JUMPDEST PUSH0 DUP2 SWAP1 POP SWAP2 SWAP1 POP JUMP JUMPDEST PUSH2 0x81A DUP2 PUSH2 0x808 JUMP JUMPDEST DUP2 EQ PUSH2 0x824 JUMPI PUSH0 DUP1 REVERT JUMPDEST POP JUMP JUMPDEST PUSH0 DUP2 CALLDATALOAD SWAP1 POP PUSH2 0x835 DUP2 PUSH2 0x811 JUMP JUMPDEST SWAP3 SWAP2 POP POP JUMP JUMPDEST PUSH0 DUP1 PUSH1 0x40 DUP4 DUP6 SUB SLT ISZERO PUSH2 0x851 JUMPI PUSH2 0x850 PUSH2 0x7AA JUMP JUMPDEST JUMPDEST PUSH0 PUSH2 0x85E DUP6 DUP3 DUP7 ADD PUSH2 0x7F4 JUMP JUMPDEST SWAP3 POP POP PUSH1 0x20 PUSH2 0x86F DUP6 DUP3 DUP7 ADD PUSH2 0x827 JUMP JUMPDEST SWAP2 POP POP SWAP3 POP SWAP3 SWAP1 POP JUMP JUMPDEST PUSH2 0x882 DUP2 PUSH2 0x7CD JUMP JUMPDEST DUP3 MSTORE POP POP JUMP JUMPDEST PUSH0 PUSH1 0x20 DUP3 ADD SWAP1 POP PUSH2 0x89B PUSH0 DUP4 ADD DUP5 PUSH2 0x879 JUMP JUMPDEST SWAP3 SWAP2 POP POP JUMP JUMPDEST PUSH0 PUSH2 0x8AB DUP3 PUSH2 0x7AE JUMP JUMPDEST SWAP1 POP SWAP2 SWAP1 POP JUMP JUMPDEST PUSH2 0x8BB DUP2 PUSH2 0x8A1 JUMP JUMPDEST DUP2 EQ PUSH2 0x8C5 JUMPI PUSH0 DUP1 REVERT JUMPDEST POP JUMP JUMPDEST PUSH0 DUP2 CALLDATALOAD SWAP1 POP PUSH2 0x8D6 DUP2 PUSH2 0x8B2 JUMP JUMPDEST SWAP3 SWAP2 POP POP JUMP JUMPDEST PUSH0 DUP1 PUSH1 0x40 DUP4 DUP6 SUB SLT ISZERO PUSH2 0x8F2 JUMPI PUSH2 0x8F1 PUSH2 0x7AA JUMP JUMPDEST JUMPDEST PUSH0 PUSH2 0x8FF DUP6 DUP3 DUP7 ADD PUSH2 0x8C8 JUMP JUMPDEST SWAP3 POP POP PUSH1 0x20 PUSH2 0x910 DUP6 DUP3 DUP7 ADD PUSH2 0x827 JUMP JUMPDEST SWAP2 POP POP SWAP3 POP SWAP3 SWAP1 POP JUMP JUMPDEST PUSH0 PUSH1 0x20 DUP3 DUP5 SUB SLT ISZERO PUSH2 0x92F JUMPI PUSH2 0x92E PUSH2 0x7AA JUMP JUMPDEST JUMPDEST PUSH0 PUSH2 0x93C DUP5 DUP3 DUP6 ADD PUSH2 0x7F4 JUMP JUMPDEST SWAP2 POP POP SWAP3 SWAP2 POP POP JUMP JUMPDEST PUSH0 DUP3 DUP3 MSTORE PUSH1 0x20 DUP3 ADD SWAP1 POP SWAP3 SWAP2 POP POP JUMP JUMPDEST PUSH32 0x496E73756666696369656E742062616C616E636520746F2073656E6400000000 PUSH0 DUP3 ADD MSTORE POP JUMP JUMPDEST PUSH0 PUSH2 0x989 PUSH1 0x1C DUP4 PUSH2 0x945 JUMP JUMPDEST SWAP2 POP PUSH2 0x994 DUP3 PUSH2 0x955 JUMP JUMPDEST PUSH1 0x20 DUP3 ADD SWAP1 POP SWAP2 SWAP1 POP JUMP JUMPDEST PUSH0 PUSH1 0x20 DUP3 ADD SWAP1 POP DUP2 DUP2 SUB PUSH0 DUP4 ADD MSTORE PUSH2 0x9B6 DUP2 PUSH2 0x97D JUMP JUMPDEST SWAP1 POP SWAP2 SWAP1 POP JUMP JUMPDEST PUSH0 DUP2 MLOAD SWAP1 POP SWAP2 SWAP1 POP JUMP JUMPDEST PUSH0 DUP2 SWAP1 POP SWAP3 SWAP2 POP POP JUMP JUMPDEST PUSH0 JUMPDEST DUP4 DUP2 LT ISZERO PUSH2 0x9EE JUMPI DUP1 DUP3 ADD MLOAD DUP2 DUP5 ADD MSTORE PUSH1 0x20 DUP2 ADD SWAP1 POP PUSH2 0x9D3 JUMP JUMPDEST PUSH0 DUP5 DUP5 ADD MSTORE POP POP POP POP JUMP JUMPDEST PUSH0 PUSH2 0xA03 DUP3 PUSH2 0x9BD JUMP JUMPDEST PUSH2 0xA0D DUP2 DUP6 PUSH2 0x9C7 JUMP JUMPDEST SWAP4 POP PUSH2 0xA1D DUP2 DUP6 PUSH1 0x20 DUP7 ADD PUSH2 0x9D1 JUMP JUMPDEST DUP1 DUP5 ADD SWAP2 POP POP SWAP3 SWAP2 POP POP JUMP JUMPDEST PUSH0 PUSH2 0xA34 DUP3 DUP5 PUSH2 0x9F9 JUMP JUMPDEST SWAP2 POP DUP2 SWAP1 POP SWAP3 SWAP2 POP POP JUMP JUMPDEST PUSH32 0x43616C6C20746F2072656365697665457468657231206661696C656400000000 PUSH0 DUP3 ADD MSTORE POP JUMP JUMPDEST PUSH0 PUSH2 0xA73 PUSH1 0x1C DUP4 PUSH2 0x945 JUMP JUMPDEST SWAP2 POP PUSH2 0xA7E DUP3 PUSH2 0xA3F JUMP JUMPDEST PUSH1 0x20 DUP3 ADD SWAP1 POP SWAP2 SWAP1 POP JUMP JUMPDEST PUSH0 PUSH1 0x20 DUP3 ADD SWAP1 POP DUP2 DUP2 SUB PUSH0 DUP4 ADD MSTORE PUSH2 0xAA0 DUP2 PUSH2 0xA67 JUMP JUMPDEST SWAP1 POP SWAP2 SWAP1 POP JUMP JUMPDEST PUSH32 0x43616C6C20746F2072656365697665457468657232206661696C656400000000 PUSH0 DUP3 ADD MSTORE POP JUMP JUMPDEST PUSH0 PUSH2 0xADB PUSH1 0x1C DUP4 PUSH2 0x945 JUMP JUMPDEST SWAP2 POP PUSH2 0xAE6 DUP3 PUSH2 0xAA7 JUMP JUMPDEST PUSH1 0x20 DUP3 ADD SWAP1 POP SWAP2 SWAP1 POP JUMP JUMPDEST PUSH0 PUSH1 0x20 DUP3 ADD SWAP1 POP DUP2 DUP2 SUB PUSH0 DUP4 ADD MSTORE PUSH2 0xB08 DUP2 PUSH2 0xACF JUMP JUMPDEST SWAP1 POP SWAP2 SWAP1 POP JUMP JUMPDEST PUSH0 DUP2 SWAP1 POP SWAP2 SWAP1 POP JUMP JUMPDEST PUSH0 PUSH1 0xFF DUP3 AND SWAP1 POP SWAP2 SWAP1 POP JUMP JUMPDEST PUSH0 DUP2 SWAP1 POP SWAP2 SWAP1 POP JUMP JUMPDEST PUSH0 PUSH2 0xB47 PUSH2 0xB42 PUSH2 0xB3D DUP5 PUSH2 0xB0F JUMP JUMPDEST PUSH2 0xB24 JUMP JUMPDEST PUSH2 0xB18 JUMP JUMPDEST SWAP1 POP SWAP2 SWAP1 POP JUMP JUMPDEST PUSH2 0xB57 DUP2 PUSH2 0xB2D JUMP JUMPDEST DUP3 MSTORE POP POP JUMP JUMPDEST PUSH0 PUSH1 0x20 DUP3 ADD SWAP1 POP PUSH2 0xB70 PUSH0 DUP4 ADD DUP5 PUSH2 0xB4E JUMP JUMPDEST SWAP3 SWAP2 POP POP JUMP JUMPDEST PUSH32 0x43616C6C20746F2072656365697665457468657233206661696C656400000000 PUSH0 DUP3 ADD MSTORE POP JUMP JUMPDEST PUSH0 PUSH2 0xBAA PUSH1 0x1C DUP4 PUSH2 0x945 JUMP JUMPDEST SWAP2 POP PUSH2 0xBB5 DUP3 PUSH2 0xB76 JUMP JUMPDEST PUSH1 0x20 DUP3 ADD SWAP1 POP SWAP2 SWAP1 POP JUMP JUMPDEST PUSH0 PUSH1 0x20 DUP3 ADD SWAP1 POP DUP2 DUP2 SUB PUSH0 DUP4 ADD MSTORE PUSH2 0xBD7 DUP2 PUSH2 0xB9E JUMP JUMPDEST SWAP1 POP SWAP2 SWAP1 POP JUMP JUMPDEST PUSH32 0x496E73756666696369656E742062616C616E6365000000000000000000000000 PUSH0 DUP3 ADD MSTORE POP JUMP JUMPDEST PUSH0 PUSH2 0xC12 PUSH1 0x14 DUP4 PUSH2 0x945 JUMP JUMPDEST SWAP2 POP PUSH2 0xC1D DUP3 PUSH2 0xBDE JUMP JUMPDEST PUSH1 0x20 DUP3 ADD SWAP1 POP SWAP2 SWAP1 POP JUMP JUMPDEST PUSH0 PUSH1 0x20 DUP3 ADD SWAP1 POP DUP2 DUP2 SUB PUSH0 DUP4 ADD MSTORE PUSH2 0xC3F DUP2 PUSH2 0xC06 JUMP JUMPDEST SWAP1 POP SWAP2 SWAP1 POP JUMP INVALID LOG2 PUSH5 0x6970667358 0x22 SLT KECCAK256 0xED JUMP SLT SWAP13 ORIGIN DUP13 SMOD DUP10 ADDMOD PUSH23 0x334805303F4FB8F467B23726F622C20CAB819D5F8B1364 PUSH20 0x6F6C634300081600330000000000000000000000 "
				},
				"gasEstimates": {
					"creation": {
						"codeDepositCost": "639200",
						"executionCost": "infinite",
						"totalCost": "infinite"
					},
					"external": {
						"callOtherContract(address,uint256)": "infinite",
						"owner()": "2537",
						"renounceOwnership()": "infinite",
						"sendEther(address,uint256)": "infinite",
						"transferOwnership(address)": "infinite"
					}
				},
				"methodIdentifiers": {
					"callOtherContract(address,uint256)": "3b111c25",
					"owner()": "8da5cb5b",
					"renounceOwnership()": "715018a6",
					"sendEther(address,uint256)": "c1756a2c",
					"transferOwnership(address)": "f2fde38b"
				}
			},
			"storageLayout": {
				"storage": [
					{
						"astId": 8,
						"contract": "LessonCall.sol:Sender",
						"label": "_owner",
						"offset": 0,
						"slot": "0",
						"type": "t_address"
					}
				],
				"types": {
					"t_address": {
						"encoding": "inplace",
						"label": "address",
						"numberOfBytes": "20"
					}
				}
			},
			"userdoc": {
				"kind": "user",
				"methods": {},
				"version": 1
			}
		}
	}
}