{
  "_format": "hh-sol-artifact-1",
  "contractName": "StringStorage",
  "sourceName": "contracts/practice-junior/StringStorage.sol",
  "abi": [
    {
      "inputs": [],
      "name": "get",
      "outputs": [
        {
          "internalType": "string",
          "name": "",
          "type": "string"
        }
      ],
      "stateMutability": "view",
      "type": "function"
    },
    {
      "inputs": [
        {
          "internalType": "string",
          "name": "newString",
          "type": "string"
        }
      ],
      "name": "set",
      "outputs": [],
      "stateMutability": "nonpayable",
      "type": "function"
    },
    {
      "inputs": [],
      "name": "storedString",
      "outputs": [
        {
          "internalType": "string",
          "name": "",
          "type": "string"
        }
      ],
      "stateMutability": "view",
      "type": "function"
    }
  ],
  "bytecode": "0x6080604052348015600e575f80fd5b5061044b8061001c5f395ff3fe608060405234801561000f575f80fd5b506004361061003f575f3560e01c806302dd56d0146100435780634ed3885e146100615780636d4ce63c14610076575b5f80fd5b61004b61007e565b60405161005891906101a7565b60405180910390f35b61007461006f366004610209565b610109565b005b61004b610118565b5f805461008a906102bd565b80601f01602080910402602001604051908101604052809291908181526020018280546100b6906102bd565b80156101015780601f106100d857610100808354040283529160200191610101565b820191905f5260205f20905b8154815290600101906020018083116100e457829003601f168201915b505050505081565b5f610114828261035a565b5050565b60605f8054610126906102bd565b80601f0160208091040260200160405190810160405280929190818152602001828054610152906102bd565b801561019d5780601f106101745761010080835404028352916020019161019d565b820191905f5260205f20905b81548152906001019060200180831161018057829003601f168201915b5050505050905090565b602081525f82518060208401528060208501604085015e5f604082850101526040601f19601f83011684010191505092915050565b7f4e487b71000000000000000000000000000000000000000000000000000000005f52604160045260245ffd5b5f60208284031215610219575f80fd5b813567ffffffffffffffff81111561022f575f80fd5b8201601f8101841361023f575f80fd5b803567ffffffffffffffff811115610259576102596101dc565b604051601f19603f601f19601f8501160116810181811067ffffffffffffffff82111715610289576102896101dc565b6040528181528282016020018610156102a0575f80fd5b816020840160208301375f91810160200191909152949350505050565b600181811c908216806102d157607f821691505b602082108103610308577f4e487b71000000000000000000000000000000000000000000000000000000005f52602260045260245ffd5b50919050565b601f82111561035557805f5260205f20601f840160051c810160208510156103335750805b601f840160051c820191505b81811015610352575f815560010161033f565b50505b505050565b815167ffffffffffffffff811115610374576103746101dc565b6103888161038284546102bd565b8461030e565b6020601f8211600181146103ba575f83156103a35750848201515b5f19600385901b1c1916600184901b178455610352565b5f84815260208120601f198516915b828110156103e957878501518255602094850194600190920191016103c9565b508482101561040657868401515f19600387901b60f8161c191681555b50505050600190811b0190555056fea2646970667358221220d5e35c0a6d1ebef38f72231d79fce6bf3ff3e54bcc000200b2c2d9473594474b64736f6c634300081a0033",
  "linkReferences": {},
  "deployedLinkReferences": {}
}