{
  "_format": "hh-sol-artifact-1",
  "contractName": "FeedbackContract",
  "sourceName": "contracts/practice-junior/FeedbackContract.sol",
  "abi": [
    {
      "anonymous": false,
      "inputs": [
        {
          "indexed": false,
          "internalType": "address",
          "name": "user",
          "type": "address"
        },
        {
          "indexed": false,
          "internalType": "string",
          "name": "message",
          "type": "string"
        },
        {
          "indexed": false,
          "internalType": "bool",
          "name": "success",
          "type": "bool"
        }
      ],
      "name": "FeedbackGenerated",
      "type": "event"
    },
    {
      "inputs": [
        {
          "internalType": "string",
          "name": "_input",
          "type": "string"
        }
      ],
      "name": "perfomAction",
      "outputs": [
        {
          "internalType": "bool",
          "name": "",
          "type": "bool"
        }
      ],
      "stateMutability": "nonpayable",
      "type": "function"
    }
  ],
  "bytecode": "0x6080604052348015600e575f80fd5b506101ef8061001c5f395ff3fe608060405234801561000f575f80fd5b5060043610610029575f3560e01c8063cfbd4e561461002d575b5f80fd5b61004061003b366004610105565b610054565b604051901515815260200160405180910390f35b80515f90819015610063575060015b604080513381526060602082018190526019908201527f416374696f6e20686173206265656e20706572666f726d65640000000000000060808201528215158183015290517fba5ed9b44d417522673288f1542f96d8ecb9477cd4c2d046a05c05f39447301f9181900360a00190a192915050565b7f4e487b71000000000000000000000000000000000000000000000000000000005f52604160045260245ffd5b5f60208284031215610115575f80fd5b813567ffffffffffffffff81111561012b575f80fd5b8201601f8101841361013b575f80fd5b803567ffffffffffffffff811115610155576101556100d8565b604051601f19603f601f19601f8501160116810181811067ffffffffffffffff82111715610185576101856100d8565b60405281815282820160200186101561019c575f80fd5b816020840160208301375f9181016020019190915294935050505056fea26469706673582212208b218abd21a70bc36aaa94ad836384c58b586e1963b4ed4e6acb12efcbf4c64964736f6c634300081a0033",
  "linkReferences": {},
  "deployedLinkReferences": {}
}