{
	"data": {
		"bytecode": {
			"linkReferences": {},
			"object": "608060405260405162000c7738038062000c77833981810160405281019062000029919062000114565b808262000037919062000186565b3410156200007c576040517f08c379a000000000000000000000000000000000000000000000000000000000815260040162000073906200022e565b60405180910390fd5b335f806101000a81548173ffffffffffffffffffffffffffffffffffffffff021916908373ffffffffffffffffffffffffffffffffffffffff16021790555081600181905550806003819055505f60028190555050506200024e565b5f80fd5b5f819050919050565b620000f081620000dc565b8114620000fb575f80fd5b50565b5f815190506200010e81620000e5565b92915050565b5f80604083850312156200012d576200012c620000d8565b5b5f6200013c85828601620000fe565b92505060206200014f85828601620000fe565b9150509250929050565b7f4e487b71000000000000000000000000000000000000000000000000000000005f52601160045260245ffd5b5f6200019282620000dc565b91506200019f83620000dc565b9250828202620001af81620000dc565b91508282048414831517620001c957620001c862000159565b5b5092915050565b5f82825260208201905092915050565b7f4e6f7420656e6f7567682065746865722073656e7400000000000000000000005f82015250565b5f62000216601583620001d0565b91506200022382620001e0565b602082019050919050565b5f6020820190508181035f830152620002478162000208565b9050919050565b610a1b806200025c5f395ff3fe608060405260043610610090575f3560e01c8063ce80958711610058578063ce80958714610130578063d0e30db014610158578063dbdf7fce14610162578063df8d05d714610178578063f7b2a7be146101a257610090565b806315c2ba14146100945780633ccfd60b146100bc5780634b28f9a2146100c6578063838c0eb6146100f05780638da5cb5b14610106575b5f80fd5b34801561009f575f80fd5b506100ba60048036038101906100b59190610716565b6101cc565b005b6100c46102b3565b005b3480156100d1575f80fd5b506100da6103a5565b6040516100e79190610750565b60405180910390f35b3480156100fb575f80fd5b506101046103ab565b005b348015610111575f80fd5b5061011a6104a4565b60405161012791906107a8565b60405180910390f35b34801561013b575f80fd5b5061015660048036038101906101519190610716565b6104c7565b005b6101606105ae565b005b34801561016d575f80fd5b5061017661063d565b005b348015610183575f80fd5b5061018c6106d3565b6040516101999190610750565b60405180910390f35b3480156101ad575f80fd5b506101b66106d9565b6040516101c39190610750565b60405180910390f35b3373ffffffffffffffffffffffffffffffffffffffff165f8054906101000a900473ffffffffffffffffffffffffffffffffffffffff1673ffffffffffffffffffffffffffffffffffffffff1614610259576040517f08c379a00000000000000000000000000000000000000000000000000000000081526004016102509061081b565b60405180910390fd5b600154816102679190610866565b4710156102a9576040517f08c379a00000000000000000000000000000000000000000000000000000000081526004016102a0906108f1565b60405180910390fd5b8060038190555050565b3373ffffffffffffffffffffffffffffffffffffffff165f8054906101000a900473ffffffffffffffffffffffffffffffffffffffff1673ffffffffffffffffffffffffffffffffffffffff1614610340576040517f08c379a00000000000000000000000000000000000000000000000000000000081526004016103379061081b565b60405180910390fd5b5f8054906101000a900473ffffffffffffffffffffffffffffffffffffffff1673ffffffffffffffffffffffffffffffffffffffff166108fc4790811502906040515f60405180830381858888f193505050501580156103a2573d5f803e3d5ffd5b50565b60025481565b600154600254106103f1576040517f08c379a00000000000000000000000000000000000000000000000000000000081526004016103e890610959565b60405180910390fd5b60025f81548092919061040390610977565b91905055503373ffffffffffffffffffffffffffffffffffffffff166108fc60035490811502906040515f60405180830381858888f1935050505015801561044d573d5f803e3d5ffd5b503373ffffffffffffffffffffffffffffffffffffffff167f4f5f2eb1d2a2542d1a60e6cae01db7a7687e4ff1933126391eab1f6cdd3037c760025460035460405161049a9291906109be565b60405180910390a2565b5f8054906101000a900473ffffffffffffffffffffffffffffffffffffffff1681565b3373ffffffffffffffffffffffffffffffffffffffff165f8054906101000a900473ffffffffffffffffffffffffffffffffffffffff1673ffffffffffffffffffffffffffffffffffffffff1614610554576040517f08c379a000000000000000000000000000000000000000000000000000000000815260040161054b9061081b565b60405180910390fd5b600354816105629190610866565b4710156105a4576040517f08c379a000000000000000000000000000000000000000000000000000000000815260040161059b906108f1565b60405180910390fd5b8060018190555050565b3373ffffffffffffffffffffffffffffffffffffffff165f8054906101000a900473ffffffffffffffffffffffffffffffffffffffff1673ffffffffffffffffffffffffffffffffffffffff161461063b576040517f08c379a00000000000000000000000000000000000000000000000000000000081526004016106329061081b565b60405180910390fd5b565b3373ffffffffffffffffffffffffffffffffffffffff165f8054906101000a900473ffffffffffffffffffffffffffffffffffffffff1673ffffffffffffffffffffffffffffffffffffffff16146106ca576040517f08c379a00000000000000000000000000000000000000000000000000000000081526004016106c19061081b565b60405180910390fd5b5f600281905550565b60015481565b60035481565b5f80fd5b5f819050919050565b6106f5816106e3565b81146106ff575f80fd5b50565b5f81359050610710816106ec565b92915050565b5f6020828403121561072b5761072a6106df565b5b5f61073884828501610702565b91505092915050565b61074a816106e3565b82525050565b5f6020820190506107635f830184610741565b92915050565b5f73ffffffffffffffffffffffffffffffffffffffff82169050919050565b5f61079282610769565b9050919050565b6107a281610788565b82525050565b5f6020820190506107bb5f830184610799565b92915050565b5f82825260208201905092915050565b7f4e6f742074686520636f6e7472616374206f776e6572000000000000000000005f82015250565b5f6108056016836107c1565b9150610810826107d1565b602082019050919050565b5f6020820190508181035f830152610832816107f9565b9050919050565b7f4e487b71000000000000000000000000000000000000000000000000000000005f52601160045260245ffd5b5f610870826106e3565b915061087b836106e3565b9250828202610889816106e3565b915082820484148315176108a05761089f610839565b5b5092915050565b7f4e6f7420656e6f75676820657468657220696e20636f6e7472616374000000005f82015250565b5f6108db601c836107c1565b91506108e6826108a7565b602082019050919050565b5f6020820190508181035f830152610908816108cf565b9050919050565b7f43616c6c206c696d6974206578636565646564000000000000000000000000005f82015250565b5f6109436013836107c1565b915061094e8261090f565b602082019050919050565b5f6020820190508181035f83015261097081610937565b9050919050565b5f610981826106e3565b91507fffffffffffffffffffffffffffffffffffffffffffffffffffffffffffffffff82036109b3576109b2610839565b5b600182019050919050565b5f6040820190506109d15f830185610741565b6109de6020830184610741565b939250505056fea2646970667358221220652d7d9e5bdadd6368138d694fead741d8d160b6c893e95abcbe5d1fc3542ea564736f6c63430008160033",
			"opcodes": "PUSH1 0x80 PUSH1 0x40 MSTORE PUSH1 0x40 MLOAD PUSH3 0xC77 CODESIZE SUB DUP1 PUSH3 0xC77 DUP4 CODECOPY DUP2 DUP2 ADD PUSH1 0x40 MSTORE DUP2 ADD SWAP1 PUSH3 0x29 SWAP2 SWAP1 PUSH3 0x114 JUMP JUMPDEST DUP1 DUP3 PUSH3 0x37 SWAP2 SWAP1 PUSH3 0x186 JUMP JUMPDEST CALLVALUE LT ISZERO PUSH3 0x7C JUMPI PUSH1 0x40 MLOAD PUSH32 0x8C379A000000000000000000000000000000000000000000000000000000000 DUP2 MSTORE PUSH1 0x4 ADD PUSH3 0x73 SWAP1 PUSH3 0x22E JUMP JUMPDEST PUSH1 0x40 MLOAD DUP1 SWAP2 SUB SWAP1 REVERT JUMPDEST CALLER PUSH0 DUP1 PUSH2 0x100 EXP DUP2 SLOAD DUP2 PUSH20 0xFFFFFFFFFFFFFFFFFFFFFFFFFFFFFFFFFFFFFFFF MUL NOT AND SWAP1 DUP4 PUSH20 0xFFFFFFFFFFFFFFFFFFFFFFFFFFFFFFFFFFFFFFFF AND MUL OR SWAP1 SSTORE POP DUP2 PUSH1 0x1 DUP2 SWAP1 SSTORE POP DUP1 PUSH1 0x3 DUP2 SWAP1 SSTORE POP PUSH0 PUSH1 0x2 DUP2 SWAP1 SSTORE POP POP POP PUSH3 0x24E JUMP JUMPDEST PUSH0 DUP1 REVERT JUMPDEST PUSH0 DUP2 SWAP1 POP SWAP2 SWAP1 POP JUMP JUMPDEST PUSH3 0xF0 DUP2 PUSH3 0xDC JUMP JUMPDEST DUP2 EQ PUSH3 0xFB JUMPI PUSH0 DUP1 REVERT JUMPDEST POP JUMP JUMPDEST PUSH0 DUP2 MLOAD SWAP1 POP PUSH3 0x10E DUP2 PUSH3 0xE5 JUMP JUMPDEST SWAP3 SWAP2 POP POP JUMP JUMPDEST PUSH0 DUP1 PUSH1 0x40 DUP4 DUP6 SUB SLT ISZERO PUSH3 0x12D JUMPI PUSH3 0x12C PUSH3 0xD8 JUMP JUMPDEST JUMPDEST PUSH0 PUSH3 0x13C DUP6 DUP3 DUP7 ADD PUSH3 0xFE JUMP JUMPDEST SWAP3 POP POP PUSH1 0x20 PUSH3 0x14F DUP6 DUP3 DUP7 ADD PUSH3 0xFE JUMP JUMPDEST SWAP2 POP POP SWAP3 POP SWAP3 SWAP1 POP JUMP JUMPDEST PUSH32 0x4E487B7100000000000000000000000000000000000000000000000000000000 PUSH0 MSTORE PUSH1 0x11 PUSH1 0x4 MSTORE PUSH1 0x24 PUSH0 REVERT JUMPDEST PUSH0 PUSH3 0x192 DUP3 PUSH3 0xDC JUMP JUMPDEST SWAP2 POP PUSH3 0x19F DUP4 PUSH3 0xDC JUMP JUMPDEST SWAP3 POP DUP3 DUP3 MUL PUSH3 0x1AF DUP2 PUSH3 0xDC JUMP JUMPDEST SWAP2 POP DUP3 DUP3 DIV DUP5 EQ DUP4 ISZERO OR PUSH3 0x1C9 JUMPI PUSH3 0x1C8 PUSH3 0x159 JUMP JUMPDEST JUMPDEST POP SWAP3 SWAP2 POP POP JUMP JUMPDEST PUSH0 DUP3 DUP3 MSTORE PUSH1 0x20 DUP3 ADD SWAP1 POP SWAP3 SWAP2 POP POP JUMP JUMPDEST PUSH32 0x4E6F7420656E6F7567682065746865722073656E740000000000000000000000 PUSH0 DUP3 ADD MSTORE POP JUMP JUMPDEST PUSH0 PUSH3 0x216 PUSH1 0x15 DUP4 PUSH3 0x1D0 JUMP JUMPDEST SWAP2 POP PUSH3 0x223 DUP3 PUSH3 0x1E0 JUMP JUMPDEST PUSH1 0x20 DUP3 ADD SWAP1 POP SWAP2 SWAP1 POP JUMP JUMPDEST PUSH0 PUSH1 0x20 DUP3 ADD SWAP1 POP DUP2 DUP2 SUB PUSH0 DUP4 ADD MSTORE PUSH3 0x247 DUP2 PUSH3 0x208 JUMP JUMPDEST SWAP1 POP SWAP2 SWAP1 POP JUMP JUMPDEST PUSH2 0xA1B DUP1 PUSH3 0x25C PUSH0 CODECOPY PUSH0 RETURN INVALID PUSH1 0x80 PUSH1 0x40 MSTORE PUSH1 0x4 CALLDATASIZE LT PUSH2 0x90 JUMPI PUSH0 CALLDATALOAD PUSH1 0xE0 SHR DUP1 PUSH4 0xCE809587 GT PUSH2 0x58 JUMPI DUP1 PUSH4 0xCE809587 EQ PUSH2 0x130 JUMPI DUP1 PUSH4 0xD0E30DB0 EQ PUSH2 0x158 JUMPI DUP1 PUSH4 0xDBDF7FCE EQ PUSH2 0x162 JUMPI DUP1 PUSH4 0xDF8D05D7 EQ PUSH2 0x178 JUMPI DUP1 PUSH4 0xF7B2A7BE EQ PUSH2 0x1A2 JUMPI PUSH2 0x90 JUMP JUMPDEST DUP1 PUSH4 0x15C2BA14 EQ PUSH2 0x94 JUMPI DUP1 PUSH4 0x3CCFD60B EQ PUSH2 0xBC JUMPI DUP1 PUSH4 0x4B28F9A2 EQ PUSH2 0xC6 JUMPI DUP1 PUSH4 0x838C0EB6 EQ PUSH2 0xF0 JUMPI DUP1 PUSH4 0x8DA5CB5B EQ PUSH2 0x106 JUMPI JUMPDEST PUSH0 DUP1 REVERT JUMPDEST CALLVALUE DUP1 ISZERO PUSH2 0x9F JUMPI PUSH0 DUP1 REVERT JUMPDEST POP PUSH2 0xBA PUSH1 0x4 DUP1 CALLDATASIZE SUB DUP2 ADD SWAP1 PUSH2 0xB5 SWAP2 SWAP1 PUSH2 0x716 JUMP JUMPDEST PUSH2 0x1CC JUMP JUMPDEST STOP JUMPDEST PUSH2 0xC4 PUSH2 0x2B3 JUMP JUMPDEST STOP JUMPDEST CALLVALUE DUP1 ISZERO PUSH2 0xD1 JUMPI PUSH0 DUP1 REVERT JUMPDEST POP PUSH2 0xDA PUSH2 0x3A5 JUMP JUMPDEST PUSH1 0x40 MLOAD PUSH2 0xE7 SWAP2 SWAP1 PUSH2 0x750 JUMP JUMPDEST PUSH1 0x40 MLOAD DUP1 SWAP2 SUB SWAP1 RETURN JUMPDEST CALLVALUE DUP1 ISZERO PUSH2 0xFB JUMPI PUSH0 DUP1 REVERT JUMPDEST POP PUSH2 0x104 PUSH2 0x3AB JUMP JUMPDEST STOP JUMPDEST CALLVALUE DUP1 ISZERO PUSH2 0x111 JUMPI PUSH0 DUP1 REVERT JUMPDEST POP PUSH2 0x11A PUSH2 0x4A4 JUMP JUMPDEST PUSH1 0x40 MLOAD PUSH2 0x127 SWAP2 SWAP1 PUSH2 0x7A8 JUMP JUMPDEST PUSH1 0x40 MLOAD DUP1 SWAP2 SUB SWAP1 RETURN JUMPDEST CALLVALUE DUP1 ISZERO PUSH2 0x13B JUMPI PUSH0 DUP1 REVERT JUMPDEST POP PUSH2 0x156 PUSH1 0x4 DUP1 CALLDATASIZE SUB DUP2 ADD SWAP1 PUSH2 0x151 SWAP2 SWAP1 PUSH2 0x716 JUMP JUMPDEST PUSH2 0x4C7 JUMP JUMPDEST STOP JUMPDEST PUSH2 0x160 PUSH2 0x5AE JUMP JUMPDEST STOP JUMPDEST CALLVALUE DUP1 ISZERO PUSH2 0x16D JUMPI PUSH0 DUP1 REVERT JUMPDEST POP PUSH2 0x176 PUSH2 0x63D JUMP JUMPDEST STOP JUMPDEST CALLVALUE DUP1 ISZERO PUSH2 0x183 JUMPI PUSH0 DUP1 REVERT JUMPDEST POP PUSH2 0x18C PUSH2 0x6D3 JUMP JUMPDEST PUSH1 0x40 MLOAD PUSH2 0x199 SWAP2 SWAP1 PUSH2 0x750 JUMP JUMPDEST PUSH1 0x40 MLOAD DUP1 SWAP2 SUB SWAP1 RETURN JUMPDEST CALLVALUE DUP1 ISZERO PUSH2 0x1AD JUMPI PUSH0 DUP1 REVERT JUMPDEST POP PUSH2 0x1B6 PUSH2 0x6D9 JUMP JUMPDEST PUSH1 0x40 MLOAD PUSH2 0x1C3 SWAP2 SWAP1 PUSH2 0x750 JUMP JUMPDEST PUSH1 0x40 MLOAD DUP1 SWAP2 SUB SWAP1 RETURN JUMPDEST CALLER PUSH20 0xFFFFFFFFFFFFFFFFFFFFFFFFFFFFFFFFFFFFFFFF AND PUSH0 DUP1 SLOAD SWAP1 PUSH2 0x100 EXP SWAP1 DIV PUSH20 0xFFFFFFFFFFFFFFFFFFFFFFFFFFFFFFFFFFFFFFFF AND PUSH20 0xFFFFFFFFFFFFFFFFFFFFFFFFFFFFFFFFFFFFFFFF AND EQ PUSH2 0x259 JUMPI PUSH1 0x40 MLOAD PUSH32 0x8C379A000000000000000000000000000000000000000000000000000000000 DUP2 MSTORE PUSH1 0x4 ADD PUSH2 0x250 SWAP1 PUSH2 0x81B JUMP JUMPDEST PUSH1 0x40 MLOAD DUP1 SWAP2 SUB SWAP1 REVERT JUMPDEST PUSH1 0x1 SLOAD DUP2 PUSH2 0x267 SWAP2 SWAP1 PUSH2 0x866 JUMP JUMPDEST SELFBALANCE LT ISZERO PUSH2 0x2A9 JUMPI PUSH1 0x40 MLOAD PUSH32 0x8C379A000000000000000000000000000000000000000000000000000000000 DUP2 MSTORE PUSH1 0x4 ADD PUSH2 0x2A0 SWAP1 PUSH2 0x8F1 JUMP JUMPDEST PUSH1 0x40 MLOAD DUP1 SWAP2 SUB SWAP1 REVERT JUMPDEST DUP1 PUSH1 0x3 DUP2 SWAP1 SSTORE POP POP JUMP JUMPDEST CALLER PUSH20 0xFFFFFFFFFFFFFFFFFFFFFFFFFFFFFFFFFFFFFFFF AND PUSH0 DUP1 SLOAD SWAP1 PUSH2 0x100 EXP SWAP1 DIV PUSH20 0xFFFFFFFFFFFFFFFFFFFFFFFFFFFFFFFFFFFFFFFF AND PUSH20 0xFFFFFFFFFFFFFFFFFFFFFFFFFFFFFFFFFFFFFFFF AND EQ PUSH2 0x340 JUMPI PUSH1 0x40 MLOAD PUSH32 0x8C379A000000000000000000000000000000000000000000000000000000000 DUP2 MSTORE PUSH1 0x4 ADD PUSH2 0x337 SWAP1 PUSH2 0x81B JUMP JUMPDEST PUSH1 0x40 MLOAD DUP1 SWAP2 SUB SWAP1 REVERT JUMPDEST PUSH0 DUP1 SLOAD SWAP1 PUSH2 0x100 EXP SWAP1 DIV PUSH20 0xFFFFFFFFFFFFFFFFFFFFFFFFFFFFFFFFFFFFFFFF AND PUSH20 0xFFFFFFFFFFFFFFFFFFFFFFFFFFFFFFFFFFFFFFFF AND PUSH2 0x8FC SELFBALANCE SWAP1 DUP2 ISZERO MUL SWAP1 PUSH1 0x40 MLOAD PUSH0 PUSH1 0x40 MLOAD DUP1 DUP4 SUB DUP2 DUP6 DUP9 DUP9 CALL SWAP4 POP POP POP POP ISZERO DUP1 ISZERO PUSH2 0x3A2 JUMPI RETURNDATASIZE PUSH0 DUP1 RETURNDATACOPY RETURNDATASIZE PUSH0 REVERT JUMPDEST POP JUMP JUMPDEST PUSH1 0x2 SLOAD DUP2 JUMP JUMPDEST PUSH1 0x1 SLOAD PUSH1 0x2 SLOAD LT PUSH2 0x3F1 JUMPI PUSH1 0x40 MLOAD PUSH32 0x8C379A000000000000000000000000000000000000000000000000000000000 DUP2 MSTORE PUSH1 0x4 ADD PUSH2 0x3E8 SWAP1 PUSH2 0x959 JUMP JUMPDEST PUSH1 0x40 MLOAD DUP1 SWAP2 SUB SWAP1 REVERT JUMPDEST PUSH1 0x2 PUSH0 DUP2 SLOAD DUP1 SWAP3 SWAP2 SWAP1 PUSH2 0x403 SWAP1 PUSH2 0x977 JUMP JUMPDEST SWAP2 SWAP1 POP SSTORE POP CALLER PUSH20 0xFFFFFFFFFFFFFFFFFFFFFFFFFFFFFFFFFFFFFFFF AND PUSH2 0x8FC PUSH1 0x3 SLOAD SWAP1 DUP2 ISZERO MUL SWAP1 PUSH1 0x40 MLOAD PUSH0 PUSH1 0x40 MLOAD DUP1 DUP4 SUB DUP2 DUP6 DUP9 DUP9 CALL SWAP4 POP POP POP POP ISZERO DUP1 ISZERO PUSH2 0x44D JUMPI RETURNDATASIZE PUSH0 DUP1 RETURNDATACOPY RETURNDATASIZE PUSH0 REVERT JUMPDEST POP CALLER PUSH20 0xFFFFFFFFFFFFFFFFFFFFFFFFFFFFFFFFFFFFFFFF AND PUSH32 0x4F5F2EB1D2A2542D1A60E6CAE01DB7A7687E4FF1933126391EAB1F6CDD3037C7 PUSH1 0x2 SLOAD PUSH1 0x3 SLOAD PUSH1 0x40 MLOAD PUSH2 0x49A SWAP3 SWAP2 SWAP1 PUSH2 0x9BE JUMP JUMPDEST PUSH1 0x40 MLOAD DUP1 SWAP2 SUB SWAP1 LOG2 JUMP JUMPDEST PUSH0 DUP1 SLOAD SWAP1 PUSH2 0x100 EXP SWAP1 DIV PUSH20 0xFFFFFFFFFFFFFFFFFFFFFFFFFFFFFFFFFFFFFFFF AND DUP2 JUMP JUMPDEST CALLER PUSH20 0xFFFFFFFFFFFFFFFFFFFFFFFFFFFFFFFFFFFFFFFF AND PUSH0 DUP1 SLOAD SWAP1 PUSH2 0x100 EXP SWAP1 DIV PUSH20 0xFFFFFFFFFFFFFFFFFFFFFFFFFFFFFFFFFFFFFFFF AND PUSH20 0xFFFFFFFFFFFFFFFFFFFFFFFFFFFFFFFFFFFFFFFF AND EQ PUSH2 0x554 JUMPI PUSH1 0x40 MLOAD PUSH32 0x8C379A000000000000000000000000000000000000000000000000000000000 DUP2 MSTORE PUSH1 0x4 ADD PUSH2 0x54B SWAP1 PUSH2 0x81B JUMP JUMPDEST PUSH1 0x40 MLOAD DUP1 SWAP2 SUB SWAP1 REVERT JUMPDEST PUSH1 0x3 SLOAD DUP2 PUSH2 0x562 SWAP2 SWAP1 PUSH2 0x866 JUMP JUMPDEST SELFBALANCE LT ISZERO PUSH2 0x5A4 JUMPI PUSH1 0x40 MLOAD PUSH32 0x8C379A000000000000000000000000000000000000000000000000000000000 DUP2 MSTORE PUSH1 0x4 ADD PUSH2 0x59B SWAP1 PUSH2 0x8F1 JUMP JUMPDEST PUSH1 0x40 MLOAD DUP1 SWAP2 SUB SWAP1 REVERT JUMPDEST DUP1 PUSH1 0x1 DUP2 SWAP1 SSTORE POP POP JUMP JUMPDEST CALLER PUSH20 0xFFFFFFFFFFFFFFFFFFFFFFFFFFFFFFFFFFFFFFFF AND PUSH0 DUP1 SLOAD SWAP1 PUSH2 0x100 EXP SWAP1 DIV PUSH20 0xFFFFFFFFFFFFFFFFFFFFFFFFFFFFFFFFFFFFFFFF AND PUSH20 0xFFFFFFFFFFFFFFFFFFFFFFFFFFFFFFFFFFFFFFFF AND EQ PUSH2 0x63B JUMPI PUSH1 0x40 MLOAD PUSH32 0x8C379A000000000000000000000000000000000000000000000000000000000 DUP2 MSTORE PUSH1 0x4 ADD PUSH2 0x632 SWAP1 PUSH2 0x81B JUMP JUMPDEST PUSH1 0x40 MLOAD DUP1 SWAP2 SUB SWAP1 REVERT JUMPDEST JUMP JUMPDEST CALLER PUSH20 0xFFFFFFFFFFFFFFFFFFFFFFFFFFFFFFFFFFFFFFFF AND PUSH0 DUP1 SLOAD SWAP1 PUSH2 0x100 EXP SWAP1 DIV PUSH20 0xFFFFFFFFFFFFFFFFFFFFFFFFFFFFFFFFFFFFFFFF AND PUSH20 0xFFFFFFFFFFFFFFFFFFFFFFFFFFFFFFFFFFFFFFFF AND EQ PUSH2 0x6CA JUMPI PUSH1 0x40 MLOAD PUSH32 0x8C379A000000000000000000000000000000000000000000000000000000000 DUP2 MSTORE PUSH1 0x4 ADD PUSH2 0x6C1 SWAP1 PUSH2 0x81B JUMP JUMPDEST PUSH1 0x40 MLOAD DUP1 SWAP2 SUB SWAP1 REVERT JUMPDEST PUSH0 PUSH1 0x2 DUP2 SWAP1 SSTORE POP JUMP JUMPDEST PUSH1 0x1 SLOAD DUP2 JUMP JUMPDEST PUSH1 0x3 SLOAD DUP2 JUMP JUMPDEST PUSH0 DUP1 REVERT JUMPDEST PUSH0 DUP2 SWAP1 POP SWAP2 SWAP1 POP JUMP JUMPDEST PUSH2 0x6F5 DUP2 PUSH2 0x6E3 JUMP JUMPDEST DUP2 EQ PUSH2 0x6FF JUMPI PUSH0 DUP1 REVERT JUMPDEST POP JUMP JUMPDEST PUSH0 DUP2 CALLDATALOAD SWAP1 POP PUSH2 0x710 DUP2 PUSH2 0x6EC JUMP JUMPDEST SWAP3 SWAP2 POP POP JUMP JUMPDEST PUSH0 PUSH1 0x20 DUP3 DUP5 SUB SLT ISZERO PUSH2 0x72B JUMPI PUSH2 0x72A PUSH2 0x6DF JUMP JUMPDEST JUMPDEST PUSH0 PUSH2 0x738 DUP5 DUP3 DUP6 ADD PUSH2 0x702 JUMP JUMPDEST SWAP2 POP POP SWAP3 SWAP2 POP POP JUMP JUMPDEST PUSH2 0x74A DUP2 PUSH2 0x6E3 JUMP JUMPDEST DUP3 MSTORE POP POP JUMP JUMPDEST PUSH0 PUSH1 0x20 DUP3 ADD SWAP1 POP PUSH2 0x763 PUSH0 DUP4 ADD DUP5 PUSH2 0x741 JUMP JUMPDEST SWAP3 SWAP2 POP POP JUMP JUMPDEST PUSH0 PUSH20 0xFFFFFFFFFFFFFFFFFFFFFFFFFFFFFFFFFFFFFFFF DUP3 AND SWAP1 POP SWAP2 SWAP1 POP JUMP JUMPDEST PUSH0 PUSH2 0x792 DUP3 PUSH2 0x769 JUMP JUMPDEST SWAP1 POP SWAP2 SWAP1 POP JUMP JUMPDEST PUSH2 0x7A2 DUP2 PUSH2 0x788 JUMP JUMPDEST DUP3 MSTORE POP POP JUMP JUMPDEST PUSH0 PUSH1 0x20 DUP3 ADD SWAP1 POP PUSH2 0x7BB PUSH0 DUP4 ADD DUP5 PUSH2 0x799 JUMP JUMPDEST SWAP3 SWAP2 POP POP JUMP JUMPDEST PUSH0 DUP3 DUP3 MSTORE PUSH1 0x20 DUP3 ADD SWAP1 POP SWAP3 SWAP2 POP POP JUMP JUMPDEST PUSH32 0x4E6F742074686520636F6E7472616374206F776E657200000000000000000000 PUSH0 DUP3 ADD MSTORE POP JUMP JUMPDEST PUSH0 PUSH2 0x805 PUSH1 0x16 DUP4 PUSH2 0x7C1 JUMP JUMPDEST SWAP2 POP PUSH2 0x810 DUP3 PUSH2 0x7D1 JUMP JUMPDEST PUSH1 0x20 DUP3 ADD SWAP1 POP SWAP2 SWAP1 POP JUMP JUMPDEST PUSH0 PUSH1 0x20 DUP3 ADD SWAP1 POP DUP2 DUP2 SUB PUSH0 DUP4 ADD MSTORE PUSH2 0x832 DUP2 PUSH2 0x7F9 JUMP JUMPDEST SWAP1 POP SWAP2 SWAP1 POP JUMP JUMPDEST PUSH32 0x4E487B7100000000000000000000000000000000000000000000000000000000 PUSH0 MSTORE PUSH1 0x11 PUSH1 0x4 MSTORE PUSH1 0x24 PUSH0 REVERT JUMPDEST PUSH0 PUSH2 0x870 DUP3 PUSH2 0x6E3 JUMP JUMPDEST SWAP2 POP PUSH2 0x87B DUP4 PUSH2 0x6E3 JUMP JUMPDEST SWAP3 POP DUP3 DUP3 MUL PUSH2 0x889 DUP2 PUSH2 0x6E3 JUMP JUMPDEST SWAP2 POP DUP3 DUP3 DIV DUP5 EQ DUP4 ISZERO OR PUSH2 0x8A0 JUMPI PUSH2 0x89F PUSH2 0x839 JUMP JUMPDEST JUMPDEST POP SWAP3 SWAP2 POP POP JUMP JUMPDEST PUSH32 0x4E6F7420656E6F75676820657468657220696E20636F6E747261637400000000 PUSH0 DUP3 ADD MSTORE POP JUMP JUMPDEST PUSH0 PUSH2 0x8DB PUSH1 0x1C DUP4 PUSH2 0x7C1 JUMP JUMPDEST SWAP2 POP PUSH2 0x8E6 DUP3 PUSH2 0x8A7 JUMP JUMPDEST PUSH1 0x20 DUP3 ADD SWAP1 POP SWAP2 SWAP1 POP JUMP JUMPDEST PUSH0 PUSH1 0x20 DUP3 ADD SWAP1 POP DUP2 DUP2 SUB PUSH0 DUP4 ADD MSTORE PUSH2 0x908 DUP2 PUSH2 0x8CF JUMP JUMPDEST SWAP1 POP SWAP2 SWAP1 POP JUMP JUMPDEST PUSH32 0x43616C6C206C696D697420657863656564656400000000000000000000000000 PUSH0 DUP3 ADD MSTORE POP JUMP JUMPDEST PUSH0 PUSH2 0x943 PUSH1 0x13 DUP4 PUSH2 0x7C1 JUMP JUMPDEST SWAP2 POP PUSH2 0x94E DUP3 PUSH2 0x90F JUMP JUMPDEST PUSH1 0x20 DUP3 ADD SWAP1 POP SWAP2 SWAP1 POP JUMP JUMPDEST PUSH0 PUSH1 0x20 DUP3 ADD SWAP1 POP DUP2 DUP2 SUB PUSH0 DUP4 ADD MSTORE PUSH2 0x970 DUP2 PUSH2 0x937 JUMP JUMPDEST SWAP1 POP SWAP2 SWAP1 POP JUMP JUMPDEST PUSH0 PUSH2 0x981 DUP3 PUSH2 0x6E3 JUMP JUMPDEST SWAP2 POP PUSH32 0xFFFFFFFFFFFFFFFFFFFFFFFFFFFFFFFFFFFFFFFFFFFFFFFFFFFFFFFFFFFFFFFF DUP3 SUB PUSH2 0x9B3 JUMPI PUSH2 0x9B2 PUSH2 0x839 JUMP JUMPDEST JUMPDEST PUSH1 0x1 DUP3 ADD SWAP1 POP SWAP2 SWAP1 POP JUMP JUMPDEST PUSH0 PUSH1 0x40 DUP3 ADD SWAP1 POP PUSH2 0x9D1 PUSH0 DUP4 ADD DUP6 PUSH2 0x741 JUMP JUMPDEST PUSH2 0x9DE PUSH1 0x20 DUP4 ADD DUP5 PUSH2 0x741 JUMP JUMPDEST SWAP4 SWAP3 POP POP POP JUMP INVALID LOG2 PUSH5 0x6970667358 0x22 SLT KECCAK256 PUSH6 0x2D7D9E5BDADD PUSH4 0x68138D69 0x4F 0xEA 0xD7 COINBASE 0xD8 0xD1 PUSH1 0xB6 0xC8 SWAP4 0xE9 GAS 0xBC 0xBE 0x5D 0x1F 0xC3 SLOAD 0x2E 0xA5 PUSH5 0x736F6C6343 STOP ADDMOD AND STOP CALLER "
		},
		"gasEstimates": {
			"creation": {
				"codeDepositCost": "517400",
				"executionCost": "infinite",
				"totalCost": "infinite"
			},
			"external": {
				"callCount()": "2470",
				"deposit()": "2591",
				"limitedFunction()": "infinite",
				"maxCalls()": "2491",
				"owner()": "2594",
				"resetCounter()": "7366",
				"rewardAmount()": "2513",
				"updateMaxCalls(uint256)": "infinite",
				"updateRewardAmount(uint256)": "infinite",
				"withdraw()": "infinite"
			}
		},
		"methodIdentifiers": {
			"callCount()": "4b28f9a2",
			"deposit()": "d0e30db0",
			"limitedFunction()": "838c0eb6",
			"maxCalls()": "df8d05d7",
			"owner()": "8da5cb5b",
			"resetCounter()": "dbdf7fce",
			"rewardAmount()": "f7b2a7be",
			"updateMaxCalls(uint256)": "ce809587",
			"updateRewardAmount(uint256)": "15c2ba14",
			"withdraw()": "3ccfd60b"
		}
	},
	"abi": [
		{
			"inputs": [
				{
					"internalType": "uint256",
					"name": "_maxCalls",
					"type": "uint256"
				},
				{
					"internalType": "uint256",
					"name": "_rewardAmount",
					"type": "uint256"
				}
			],
			"stateMutability": "payable",
			"type": "constructor"
		},
		{
			"anonymous": false,
			"inputs": [
				{
					"indexed": true,
					"internalType": "address",
					"name": "caller",
					"type": "address"
				},
				{
					"indexed": false,
					"internalType": "uint256",
					"name": "callNumber",
					"type": "uint256"
				},
				{
					"indexed": false,
					"internalType": "uint256",
					"name": "reward",
					"type": "uint256"
				}
			],
			"name": "FunctionCalled",
			"type": "event"
		},
		{
			"inputs": [],
			"name": "callCount",
			"outputs": [
				{
					"internalType": "uint256",
					"name": "",
					"type": "uint256"
				}
			],
			"stateMutability": "view",
			"type": "function"
		},
		{
			"inputs": [],
			"name": "deposit",
			"outputs": [],
			"stateMutability": "payable",
			"type": "function"
		},
		{
			"inputs": [],
			"name": "limitedFunction",
			"outputs": [],
			"stateMutability": "nonpayable",
			"type": "function"
		},
		{
			"inputs": [],
			"name": "maxCalls",
			"outputs": [
				{
					"internalType": "uint256",
					"name": "",
					"type": "uint256"
				}
			],
			"stateMutability": "view",
			"type": "function"
		},
		{
			"inputs": [],
			"name": "owner",
			"outputs": [
				{
					"internalType": "address",
					"name": "",
					"type": "address"
				}
			],
			"stateMutability": "view",
			"type": "function"
		},
		{
			"inputs": [],
			"name": "resetCounter",
			"outputs": [],
			"stateMutability": "nonpayable",
			"type": "function"
		},
		{
			"inputs": [],
			"name": "rewardAmount",
			"outputs": [
				{
					"internalType": "uint256",
					"name": "",
					"type": "uint256"
				}
			],
			"stateMutability": "view",
			"type": "function"
		},
		{
			"inputs": [
				{
					"internalType": "uint256",
					"name": "_maxCalls",
					"type": "uint256"
				}
			],
			"name": "updateMaxCalls",
			"outputs": [],
			"stateMutability": "nonpayable",
			"type": "function"
		},
		{
			"inputs": [
				{
					"internalType": "uint256",
					"name": "_rewardAmount",
					"type": "uint256"
				}
			],
			"name": "updateRewardAmount",
			"outputs": [],
			"stateMutability": "nonpayable",
			"type": "function"
		},
		{
			"inputs": [],
			"name": "withdraw",
			"outputs": [],
			"stateMutability": "payable",
			"type": "function"
		}
	]
}