{
  "_format": "hh-sol-artifact-1",
  "contractName": "NestedMappings",
  "sourceName": "contracts/PracticeMiddle/NestedMappings.sol",
  "abi": [
    {
      "inputs": [
        {
          "internalType": "address",
          "name": "",
          "type": "address"
        },
        {
          "internalType": "string",
          "name": "",
          "type": "string"
        }
      ],
      "name": "data",
      "outputs": [
        {
          "internalType": "uint256",
          "name": "",
          "type": "uint256"
        }
      ],
      "stateMutability": "view",
      "type": "function"
    },
    {
      "inputs": [
        {
          "internalType": "address",
          "name": "_user",
          "type": "address"
        },
        {
          "internalType": "string",
          "name": "_key",
          "type": "string"
        }
      ],
      "name": "getValue",
      "outputs": [
        {
          "internalType": "uint256",
          "name": "",
          "type": "uint256"
        }
      ],
      "stateMutability": "view",
      "type": "function"
    },
    {
      "inputs": [
        {
          "internalType": "address",
          "name": "_user",
          "type": "address"
        },
        {
          "internalType": "string",
          "name": "_key",
          "type": "string"
        },
        {
          "internalType": "uint256",
          "name": "_value",
          "type": "uint256"
        }
      ],
      "name": "setValue",
      "outputs": [],
      "stateMutability": "nonpayable",
      "type": "function"
    }
  ],
  "bytecode": "0x608060405234801561001057600080fd5b50610372806100206000396000f3fe608060405234801561001057600080fd5b50600436106100415760003560e01c80637ba0e76114610046578063ae80c67a14610091578063de0cb0ad146100a6575b600080fd5b61007f610054366004610268565b6000602081815292815260409020815180830184018051928152908401929093019190912091525481565b60405190815260200160405180910390f35b6100a461009f3660046102b6565b6100b9565b005b61007f6100b4366004610268565b61011b565b806000808573ffffffffffffffffffffffffffffffffffffffff1673ffffffffffffffffffffffffffffffffffffffff16815260200190815260200160002083604051610106919061030d565b90815260405190819003602001902055505050565b73ffffffffffffffffffffffffffffffffffffffff8216600090815260208190526040808220905161014e90849061030d565b908152602001604051809103902054905092915050565b803573ffffffffffffffffffffffffffffffffffffffff8116811461018957600080fd5b919050565b7f4e487b7100000000000000000000000000000000000000000000000000000000600052604160045260246000fd5b600082601f8301126101ce57600080fd5b813567ffffffffffffffff808211156101e9576101e961018e565b604051601f83017fffffffffffffffffffffffffffffffffffffffffffffffffffffffffffffffe0908116603f0116810190828211818310171561022f5761022f61018e565b8160405283815286602085880101111561024857600080fd5b836020870160208301376000602085830101528094505050505092915050565b6000806040838503121561027b57600080fd5b61028483610165565b9150602083013567ffffffffffffffff8111156102a057600080fd5b6102ac858286016101bd565b9150509250929050565b6000806000606084860312156102cb57600080fd5b6102d484610165565b9250602084013567ffffffffffffffff8111156102f057600080fd5b6102fc868287016101bd565b925050604084013590509250925092565b6000825160005b8181101561032e5760208186018101518583015201610314565b50600092019182525091905056fea2646970667358221220a476ccaaf55f0e6abec709a2c73180a8d2aed8b801c778f7b2dc801b464b1b3264736f6c63430008140033",
  "linkReferences": {},
  "deployedLinkReferences": {}
}