{
  "_format": "hh-sol-artifact-1",
  "contractName": "MyShop",
  "sourceName": "contracts/PracticeGuideDAO/MyShop.sol",
  "abi": [
    {
      "inputs": [],
      "stateMutability": "nonpayable",
      "type": "constructor"
    },
    {
      "inputs": [],
      "name": "owner",
      "outputs": [
        {
          "internalType": "address",
          "name": "",
          "type": "address"
        }
      ],
      "stateMutability": "view",
      "type": "function"
    },
    {
      "inputs": [],
      "name": "payForItem",
      "outputs": [],
      "stateMutability": "payable",
      "type": "function"
    },
    {
      "inputs": [
        {
          "internalType": "address",
          "name": "",
          "type": "address"
        }
      ],
      "name": "payments",
      "outputs": [
        {
          "internalType": "uint256",
          "name": "",
          "type": "uint256"
        }
      ],
      "stateMutability": "view",
      "type": "function"
    },
    {
      "inputs": [],
      "name": "withdrawAll",
      "outputs": [],
      "stateMutability": "nonpayable",
      "type": "function"
    }
  ],
  "bytecode": "0x608060405234801561001057600080fd5b50600080546001600160a01b031916331790556101c8806100326000396000f3fe60806040526004361061003f5760003560e01c806313bea46014610044578063853828b61461005d5780638da5cb5b14610072578063e2982c21146100c9575b600080fd5b61005b336000908152600160205260409020349055565b005b34801561006957600080fd5b5061005b610104565b34801561007e57600080fd5b5060005461009f9073ffffffffffffffffffffffffffffffffffffffff1681565b60405173ffffffffffffffffffffffffffffffffffffffff90911681526020015b60405180910390f35b3480156100d557600080fd5b506100f66100e4366004610155565b60016020526000908152604090205481565b6040519081526020016100c0565b6000805460405173ffffffffffffffffffffffffffffffffffffffff9091169130918391833180156108fc02929091818181858888f19350505050158015610150573d6000803e3d6000fd5b505050565b60006020828403121561016757600080fd5b813573ffffffffffffffffffffffffffffffffffffffff8116811461018b57600080fd5b939250505056fea2646970667358221220fafe06d08ad946f6514b56ed6ed4b4c83e9a7d3b8dbd47b6b916529785448c0664736f6c63430008140033",
  "linkReferences": {},
  "deployedLinkReferences": {}
}