{
  "_format": "hh-sol-artifact-1",
  "contractName": "Wallet",
  "sourceName": "contracts/PracticeGuideDAO/Wallet.sol",
  "abi": [
    {
      "inputs": [
        {
          "internalType": "address",
          "name": "_owner",
          "type": "address"
        }
      ],
      "stateMutability": "nonpayable",
      "type": "constructor"
    },
    {
      "inputs": [
        {
          "internalType": "address",
          "name": "owner",
          "type": "address"
        }
      ],
      "name": "OwnableInvalidOwner",
      "type": "error"
    },
    {
      "inputs": [
        {
          "internalType": "address",
          "name": "account",
          "type": "address"
        }
      ],
      "name": "OwnableUnauthorizedAccount",
      "type": "error"
    },
    {
      "anonymous": false,
      "inputs": [
        {
          "indexed": true,
          "internalType": "address",
          "name": "member",
          "type": "address"
        }
      ],
      "name": "AdminAdded",
      "type": "event"
    },
    {
      "anonymous": false,
      "inputs": [
        {
          "indexed": true,
          "internalType": "address",
          "name": "member",
          "type": "address"
        }
      ],
      "name": "AdminRevoked",
      "type": "event"
    },
    {
      "anonymous": false,
      "inputs": [
        {
          "indexed": true,
          "internalType": "address",
          "name": "member",
          "type": "address"
        },
        {
          "indexed": false,
          "internalType": "uint256",
          "name": "oldLimit",
          "type": "uint256"
        },
        {
          "indexed": false,
          "internalType": "uint256",
          "name": "newLimit",
          "type": "uint256"
        }
      ],
      "name": "LimitChanged",
      "type": "event"
    },
    {
      "anonymous": false,
      "inputs": [
        {
          "indexed": true,
          "internalType": "address",
          "name": "_from",
          "type": "address"
        },
        {
          "indexed": false,
          "internalType": "uint256",
          "name": "_amount",
          "type": "uint256"
        }
      ],
      "name": "MoneyReceived",
      "type": "event"
    },
    {
      "anonymous": false,
      "inputs": [
        {
          "indexed": true,
          "internalType": "address",
          "name": "_to",
          "type": "address"
        },
        {
          "indexed": false,
          "internalType": "uint256",
          "name": "_amount",
          "type": "uint256"
        }
      ],
      "name": "MoneyWithdrawn",
      "type": "event"
    },
    {
      "anonymous": false,
      "inputs": [
        {
          "indexed": true,
          "internalType": "address",
          "name": "previousOwner",
          "type": "address"
        },
        {
          "indexed": true,
          "internalType": "address",
          "name": "newOwner",
          "type": "address"
        }
      ],
      "name": "OwnershipTransferred",
      "type": "event"
    },
    {
      "stateMutability": "payable",
      "type": "fallback"
    },
    {
      "inputs": [
        {
          "internalType": "address",
          "name": "memberAddress",
          "type": "address"
        },
        {
          "internalType": "string",
          "name": "name",
          "type": "string"
        },
        {
          "internalType": "uint256",
          "name": "limit",
          "type": "uint256"
        },
        {
          "internalType": "bool",
          "name": "isAdmin",
          "type": "bool"
        }
      ],
      "name": "addMember",
      "outputs": [],
      "stateMutability": "nonpayable",
      "type": "function"
    },
    {
      "inputs": [],
      "name": "getBalance",
      "outputs": [
        {
          "internalType": "uint256",
          "name": "",
          "type": "uint256"
        }
      ],
      "stateMutability": "view",
      "type": "function"
    },
    {
      "inputs": [
        {
          "internalType": "address",
          "name": "memberAddress",
          "type": "address"
        }
      ],
      "name": "makeAdmin",
      "outputs": [],
      "stateMutability": "nonpayable",
      "type": "function"
    },
    {
      "inputs": [
        {
          "internalType": "address",
          "name": "",
          "type": "address"
        }
      ],
      "name": "members",
      "outputs": [
        {
          "internalType": "string",
          "name": "name",
          "type": "string"
        },
        {
          "internalType": "uint256",
          "name": "limit",
          "type": "uint256"
        },
        {
          "internalType": "bool",
          "name": "is_admin",
          "type": "bool"
        }
      ],
      "stateMutability": "view",
      "type": "function"
    },
    {
      "inputs": [],
      "name": "owner",
      "outputs": [
        {
          "internalType": "address",
          "name": "",
          "type": "address"
        }
      ],
      "stateMutability": "view",
      "type": "function"
    },
    {
      "inputs": [],
      "name": "renounceOwnership",
      "outputs": [],
      "stateMutability": "view",
      "type": "function"
    },
    {
      "inputs": [
        {
          "internalType": "address",
          "name": "memberAddress",
          "type": "address"
        }
      ],
      "name": "revokeAdmin",
      "outputs": [],
      "stateMutability": "nonpayable",
      "type": "function"
    },
    {
      "inputs": [
        {
          "internalType": "address",
          "name": "_to",
          "type": "address"
        }
      ],
      "name": "sendToContract",
      "outputs": [],
      "stateMutability": "payable",
      "type": "function"
    },
    {
      "inputs": [
        {
          "internalType": "address",
          "name": "memberAddress",
          "type": "address"
        },
        {
          "internalType": "uint256",
          "name": "limit",
          "type": "uint256"
        }
      ],
      "name": "setLimit",
      "outputs": [],
      "stateMutability": "nonpayable",
      "type": "function"
    },
    {
      "inputs": [
        {
          "internalType": "address",
          "name": "newOwner",
          "type": "address"
        }
      ],
      "name": "transferOwnership",
      "outputs": [],
      "stateMutability": "nonpayable",
      "type": "function"
    },
    {
      "inputs": [
        {
          "internalType": "uint256",
          "name": "_amount",
          "type": "uint256"
        }
      ],
      "name": "withdrawMoney",
      "outputs": [],
      "stateMutability": "nonpayable",
      "type": "function"
    },
    {
      "stateMutability": "payable",
      "type": "receive"
    }
  ],
  "bytecode": "0x608060405234801561000f575f80fd5b50604051610f42380380610f4283398101604081905261002e9161012e565b80806001600160a01b03811661005d57604051631e4fbdf760e01b81525f600482015260240160405180910390fd5b610066816100df565b506040805160a0810182526005606082019081526427bbb732b960d91b608083015281525f60208083018290526001838501819052338352905291909120815181906100b290826101f3565b50602082015160018201556040909101516002909101805460ff1916911515919091179055506102ad9050565b5f80546001600160a01b038381166001600160a01b0319831681178455604051919092169283917f8be0079c531659141344cd1fd0a4f28419497f9722a3daafe3b4186f6b6457e09190a35050565b5f6020828403121561013e575f80fd5b81516001600160a01b0381168114610154575f80fd5b9392505050565b634e487b7160e01b5f52604160045260245ffd5b600181811c9082168061018357607f821691505b6020821081036101a157634e487b7160e01b5f52602260045260245ffd5b50919050565b601f8211156101ee57805f5260205f20601f840160051c810160208510156101cc5750805b601f840160051c820191505b818110156101eb575f81556001016101d8565b50505b505050565b81516001600160401b0381111561020c5761020c61015b565b6102208161021a845461016f565b846101a7565b6020601f821160018114610252575f831561023b5750848201515b5f19600385901b1c1916600184901b1784556101eb565b5f84815260208120601f198516915b828110156102815787850151825560209485019460019092019101610261565b508482101561029e57868401515f19600387901b60f8161c191681555b50505050600190811b01905550565b610c88806102ba5f395ff3fe6080604052600436106100b3575f3560e01c806336db43b51161006d578063715018a61161004a578063715018a6146101f05780638da5cb5b14610204578063f2fde38b1461022a57005b806336db43b514610193578063472905ca146101b257806354876921146101d157005b8063123b883e1161009b578063123b883e146101425780631a597ba1146101615780632d3456701461017457005b806308ae4b0c146100f157806312065fe01461012857005b366100ef5760405134815233907f27b15ed4cf832749ed39f33a64e4707ed60a761485e41ffec7343ecaddc0c02a9060200160405180910390a2005b005b3480156100fc575f80fd5b5061011061010b366004610949565b610249565b60405161011f93929190610969565b60405180910390f35b348015610133575f80fd5b5060405147815260200161011f565b34801561014d575f80fd5b506100ef61015c3660046109d1565b6102f4565b6100ef61016f366004610949565b6103bd565b34801561017f575f80fd5b506100ef61018e366004610949565b61042b565b34801561019e575f80fd5b506100ef6101ad366004610aaf565b61047e565b3480156101bd575f80fd5b506100ef6101cc366004610949565b6104e7565b3480156101dc575f80fd5b506100ef6101eb366004610ad7565b610540565b3480156101fb575f80fd5b506100ef6107a7565b34801561020f575f80fd5b505f546040516001600160a01b03909116815260200161011f565b348015610235575f80fd5b506100ef610244366004610949565b6107f7565b60016020525f908152604090208054819061026390610aee565b80601f016020809104026020016040519081016040528092919081815260200182805461028f90610aee565b80156102da5780601f106102b1576101008083540402835291602001916102da565b820191905f5260205f20905b8154815290600101906020018083116102bd57829003601f168201915b50505050600183015460029093015491929160ff16905083565b6102fc61084d565b6001600160a01b0384165f8181526001602081815260408084208084015482516060810184528a81528085018a905288151593810193909352959094529190528051909190819061034d9082610b72565b5060208281015160018301556040928301516002909201805460ff19169215159290921790915581518381529081018590526001600160a01b038716917fa6d91b9da806ef5c961905320a650cef8e6caf5eaef0bc5441b85c0b5d66291091015b60405180910390a25050505050565b60405181906001600160a01b038216903480156108fc02915f818181858888f193505050501580156103f1573d5f803e3d5ffd5b5060405134815233907f27b15ed4cf832749ed39f33a64e4707ed60a761485e41ffec7343ecaddc0c02a9060200160405180910390a25050565b61043361084d565b6001600160a01b0381165f81815260016020526040808220600201805460ff19169055517f631ff1c4e1a02c54b480a34b810e03bcee61fe38efcb243930a7f820914923e29190a250565b61048661084d565b6001600160a01b0382165f81815260016020818152604092839020909101805490859055825181815291820185905292917fa6d91b9da806ef5c961905320a650cef8e6caf5eaef0bc5441b85c0b5d662910910160405180910390a2505050565b6104ef61084d565b6001600160a01b0381165f818152600160208190526040808320600201805460ff1916909217909155517f44d6d25963f097ad14f29f06854a01f575648a1ef82f30e562ccd3889717e3399190a250565b335f90815260016020526040808220815160608101909252805484939291908290829061056c90610aee565b80601f016020809104026020016040519081016040528092919081815260200182805461059890610aee565b80156105e35780601f106105ba576101008083540402835291602001916105e3565b820191905f5260205f20905b8154815290600101906020018083116105c657829003601f168201915b50505091835250506001820154602082015260029091015460ff161515604090910152905061061b5f546001600160a01b0316331490565b80610627575080604001515b80610636575081816020015110155b6106ad5760405162461bcd60e51b815260206004820152602e60248201527f596f7520617265206e6f7420616c6c6f77656420746f20706572666f726d207460448201527f686973206f7065726174696f6e2100000000000000000000000000000000000060648201526084015b60405180910390fd5b478311156106fd5760405162461bcd60e51b815260206004820152601d60248201527f4e6f7420656e6f7567682066756e647320746f2077697468647261772100000060448201526064016106a4565b335f90815260016020526040902061071e5f546001600160a01b0316331490565b1580156107305750600281015460ff16155b1561073f5761073f3385610894565b604051339081906108fc8715029087905f818181858888f1935050505015801561076b573d5f803e3d5ffd5b50806001600160a01b03167fe020566b3b7b0c11a72c9a01a70122b5bb1e70d24128480342bad5367fbf54e2866040516103ae91815260200190565b6107af61084d565b60405162461bcd60e51b815260206004820152600f60248201527f43616e27742072656e6f756e636521000000000000000000000000000000000060448201526064016106a4565b6107ff61084d565b6001600160a01b038116610841576040517f1e4fbdf70000000000000000000000000000000000000000000000000000000081525f60048201526024016106a4565b61084a816108c7565b50565b5f546001600160a01b03163314610892576040517f118cdaa70000000000000000000000000000000000000000000000000000000081523360048201526024016106a4565b565b6001600160a01b0382165f90815260016020819052604082200180548392906108be908490610c2d565b90915550505050565b5f80546001600160a01b038381167fffffffffffffffffffffffff0000000000000000000000000000000000000000831681178455604051919092169283917f8be0079c531659141344cd1fd0a4f28419497f9722a3daafe3b4186f6b6457e09190a35050565b80356001600160a01b0381168114610944575f80fd5b919050565b5f60208284031215610959575f80fd5b6109628261092e565b9392505050565b606081525f84518060608401528060208701608085015e5f608082850101526080601f19601f8301168401019150508360208301528215156040830152949350505050565b634e487b7160e01b5f52604160045260245ffd5b80358015158114610944575f80fd5b5f805f80608085870312156109e4575f80fd5b6109ed8561092e565b9350602085013567ffffffffffffffff811115610a08575f80fd5b8501601f81018713610a18575f80fd5b803567ffffffffffffffff811115610a3257610a326109ae565b604051601f19603f601f19601f8501160116810181811067ffffffffffffffff82111715610a6257610a626109ae565b604052818152828201602001891015610a79575f80fd5b816020840160208301375f9181016020019190915293505060408501359150610aa4606086016109c2565b905092959194509250565b5f8060408385031215610ac0575f80fd5b610ac98361092e565b946020939093013593505050565b5f60208284031215610ae7575f80fd5b5035919050565b600181811c90821680610b0257607f821691505b602082108103610b2057634e487b7160e01b5f52602260045260245ffd5b50919050565b601f821115610b6d57805f5260205f20601f840160051c81016020851015610b4b5750805b601f840160051c820191505b81811015610b6a575f8155600101610b57565b50505b505050565b815167ffffffffffffffff811115610b8c57610b8c6109ae565b610ba081610b9a8454610aee565b84610b26565b6020601f821160018114610bd2575f8315610bbb5750848201515b5f19600385901b1c1916600184901b178455610b6a565b5f84815260208120601f198516915b82811015610c015787850151825560209485019460019092019101610be1565b5084821015610c1e57868401515f19600387901b60f8161c191681555b50505050600190811b01905550565b81810381811115610c4c57634e487b7160e01b5f52601160045260245ffd5b9291505056fea26469706673582212201176944216a9969686bbc4c29d913d3ffcf5dded6cea7d8bfa3736822b9a4e7964736f6c634300081a0033",
  "linkReferences": {},
  "deployedLinkReferences": {}
}