{
  "_format": "hh-sol-artifact-1",
  "contractName": "Factory",
  "sourceName": "contracts/PracticeGuideDAO/Factory.sol",
  "abi": [
    {
      "inputs": [
        {
          "internalType": "uint256",
          "name": "_delay",
          "type": "uint256"
        }
      ],
      "name": "createVoting",
      "outputs": [],
      "stateMutability": "nonpayable",
      "type": "function"
    }
  ],
  "bytecode": "0x6080604052348015600e575f80fd5b50608680601a5f395ff3fe6080604052348015600e575f80fd5b50600436106026575f3560e01c80633655c87d14602a575b5f80fd5b60386035366004603a565b50565b005b5f602082840312156049575f80fd5b503591905056fea2646970667358221220f36e8223443e057fbab5aacffa4fc6bfef96d36ece40333d40433176c0967e4d64736f6c634300081a0033",
  "linkReferences": {},
  "deployedLinkReferences": {}
}