{
  "_format": "hh-sol-artifact-1",
  "contractName": "Demo",
  "sourceName": "contracts/PracticeGuideDAO/Demo.sol",
  "abi": [
    {
      "inputs": [
        {
          "internalType": "address",
          "name": "_owner",
          "type": "address"
        }
      ],
      "stateMutability": "nonpayable",
      "type": "constructor"
    },
    {
      "inputs": [],
      "name": "a",
      "outputs": [
        {
          "internalType": "uint256",
          "name": "",
          "type": "uint256"
        }
      ],
      "stateMutability": "view",
      "type": "function"
    },
    {
      "inputs": [],
      "name": "owner",
      "outputs": [
        {
          "internalType": "address",
          "name": "",
          "type": "address"
        }
      ],
      "stateMutability": "view",
      "type": "function"
    },
    {
      "inputs": [
        {
          "internalType": "uint256",
          "name": "_a",
          "type": "uint256"
        }
      ],
      "name": "run",
      "outputs": [],
      "stateMutability": "payable",
      "type": "function"
    }
  ],
  "bytecode": "0x608060405234801561001057600080fd5b5060405161023538038061023583398101604081905261002f91610054565b600180546001600160a01b0319166001600160a01b0392909216919091179055610084565b60006020828403121561006657600080fd5b81516001600160a01b038116811461007d57600080fd5b9392505050565b6101a2806100936000396000f3fe6080604052600436106100345760003560e01c80630dbe671f146100395780638da5cb5b14610062578063a444f5e9146100b4575b600080fd5b34801561004557600080fd5b5061004f60005481565b6040519081526020015b60405180910390f35b34801561006e57600080fd5b5060015461008f9073ffffffffffffffffffffffffffffffffffffffff1681565b60405173ffffffffffffffffffffffffffffffffffffffff9091168152602001610059565b6100c76100c2366004610153565b6100c9565b005b60015473ffffffffffffffffffffffffffffffffffffffff16331461014e576040517f08c379a000000000000000000000000000000000000000000000000000000000815260206004820152600d60248201527f6e6f74206174206f776e65722100000000000000000000000000000000000000604482015260640160405180910390fd5b600055565b60006020828403121561016557600080fd5b503591905056fea26469706673582212200ae11768d71582ea83bda314f053185c3ab59039dbd4d30c8dd5268bf7316de964736f6c63430008140033",
  "linkReferences": {},
  "deployedLinkReferences": {}
}