{"contracts/PracticeMiddle/Power.sol":{"Power":{"abi":[{"inputs":[{"internalType":"uint256","name":"base","type":"uint256"},{"internalType":"uint256","name":"exponent","type":"uint256"}],"name":"pow","outputs":[{"internalType":"uint256","name":"result","type":"uint256"}],"stateMutability":"pure","type":"function"}],"evm":{"bytecode":{"linkReferences":{},"object":"6080604052348015600e575f80fd5b5061010e8061001c5f395ff3fe6080604052348015600e575f80fd5b50600436106026575f3560e01c80632e4c697f14602a575b5f80fd5b60396035366004607e565b604b565b60405190815260200160405180910390f35b5f815f036059575060016078565b5060015f5b82811015607657606d8483609d565b9150600101605e565b505b92915050565b5f8060408385031215608e575f80fd5b50508035926020909101359150565b80820281158282048414176078577f4e487b71000000000000000000000000000000000000000000000000000000005f52601160045260245ffdfea26469706673582212202c964816bbe7db0d17eac67e560a9eb6abb6e67d902cddf389ed4e05a2b9683e64736f6c634300081a0033","opcodes":"PUSH1 0x80 PUSH1 0x40 MSTORE CALLVALUE DUP1 ISZERO PUSH1 0xE JUMPI PUSH0 DUP1 REVERT JUMPDEST POP PUSH2 0x10E DUP1 PUSH2 0x1C PUSH0 CODECOPY PUSH0 RETURN INVALID PUSH1 0x80 PUSH1 0x40 MSTORE CALLVALUE DUP1 ISZERO PUSH1 0xE JUMPI PUSH0 DUP1 REVERT JUMPDEST POP PUSH1 0x4 CALLDATASIZE LT PUSH1 0x26 JUMPI PUSH0 CALLDATALOAD PUSH1 0xE0 SHR DUP1 PUSH4 0x2E4C697F EQ PUSH1 0x2A JUMPI JUMPDEST PUSH0 DUP1 REVERT JUMPDEST PUSH1 0x39 PUSH1 0x35 CALLDATASIZE PUSH1 0x4 PUSH1 0x7E JUMP JUMPDEST PUSH1 0x4B JUMP JUMPDEST PUSH1 0x40 MLOAD SWAP1 DUP2 MSTORE PUSH1 0x20 ADD PUSH1 0x40 MLOAD DUP1 SWAP2 SUB SWAP1 RETURN JUMPDEST PUSH0 DUP2 PUSH0 SUB PUSH1 0x59 JUMPI POP PUSH1 0x1 PUSH1 0x78 JUMP JUMPDEST POP PUSH1 0x1 PUSH0 JUMPDEST DUP3 DUP2 LT ISZERO PUSH1 0x76 JUMPI PUSH1 0x6D DUP5 DUP4 PUSH1 0x9D JUMP JUMPDEST SWAP2 POP PUSH1 0x1 ADD PUSH1 0x5E JUMP JUMPDEST POP JUMPDEST SWAP3 SWAP2 POP POP JUMP JUMPDEST PUSH0 DUP1 PUSH1 0x40 DUP4 DUP6 SUB SLT ISZERO PUSH1 0x8E JUMPI PUSH0 DUP1 REVERT JUMPDEST POP POP DUP1 CALLDATALOAD SWAP3 PUSH1 0x20 SWAP1 SWAP2 ADD CALLDATALOAD SWAP2 POP JUMP JUMPDEST DUP1 DUP3 MUL DUP2 ISZERO DUP3 DUP3 DIV DUP5 EQ OR PUSH1 0x78 JUMPI PUSH32 0x4E487B7100000000000000000000000000000000000000000000000000000000 PUSH0 MSTORE PUSH1 0x11 PUSH1 0x4 MSTORE PUSH1 0x24 PUSH0 REVERT INVALID LOG2 PUSH5 0x6970667358 0x22 SLT KECCAK256 0x2C SWAP7 BASEFEE AND 0xBB 0xE7 0xDB 0xD OR 0xEA 0xC6 PUSH31 0x560A9EB6ABB6E67D902CDDF389ED4E05A2B9683E64736F6C634300081A0033 "},"methodIdentifiers":{"pow(uint256,uint256)":"2e4c697f"}}}}}