{"contracts/PracticeMiddle/UserRegistry.sol":{"UserRegistry":{"abi":[{"inputs":[{"internalType":"uint8","name":"_flagIndex","type":"uint8"}],"name":"getFlag","outputs":[{"internalType":"bool","name":"","type":"bool"}],"stateMutability":"view","type":"function"},{"inputs":[{"internalType":"address","name":"_userAddress","type":"address"}],"name":"getUser","outputs":[{"components":[{"internalType":"string","name":"name","type":"string"},{"internalType":"uint8","name":"age","type":"uint8"},{"internalType":"bool","name":"isActive","type":"bool"},{"internalType":"uint256","name":"flags","type":"uint256"}],"internalType":"struct UserRegistry.User","name":"user","type":"tuple"}],"stateMutability":"view","type":"function"},{"inputs":[{"internalType":"string","name":"_name","type":"string"},{"internalType":"uint8","name":"_age","type":"uint8"}],"name":"registerUser","outputs":[],"stateMutability":"nonpayable","type":"function"},{"inputs":[{"internalType":"uint8","name":"_flagIndex","type":"uint8"},{"internalType":"bool","name":"_value","type":"bool"}],"name":"setFlag","outputs":[],"stateMutability":"nonpayable","type":"function"},{"inputs":[{"internalType":"address","name":"","type":"address"}],"name":"users","outputs":[{"internalType":"string","name":"name","type":"string"},{"internalType":"uint8","name":"age","type":"uint8"},{"internalType":"bool","name":"isActive","type":"bool"},{"internalType":"uint256","name":"flags","type":"uint256"}],"stateMutability":"view","type":"function"}],"evm":{"bytecode":{"linkReferences":{},"object":"6080604052348015600e575f80fd5b5061078e8061001c5f395ff3fe608060405234801561000f575f80fd5b5060043610610064575f3560e01c806387e637421161004d57806387e63742146100a6578063a87430ba146100e7578063fb9e3a3b1461010a575f80fd5b8063338e12eb146100685780636f77926b1461007d575b5f80fd5b61007b610076366004610406565b61011d565b005b61009061008b3660046104cb565b6101b8565b60405161009d9190610533565b60405180910390f35b6100d76100b436600461057d565b335f90815260208190526040902060020154600160ff9092169190911b16151590565b604051901515815260200161009d565b6100fa6100f53660046104cb565b6102c7565b60405161009d9493929190610596565b61007b6101183660046105c7565b61037b565b6040805160808101825283815260ff83166020808301919091525f8284018190526060830181905233815290819052919091208151819061015e908261069d565b50602082015160018201805460408501511515610100027fffffffffffffffffffffffffffffffffffffffffffffffffffffffffffff000090911660ff909316929092179190911790556060909101516002909101555050565b6040805160808101825260608082525f6020830181905292820183905281019190915273ffffffffffffffffffffffffffffffffffffffff82165f908152602081905260409081902081516080810190925280548290829061021990610600565b80601f016020809104026020016040519081016040528092919081815260200182805461024590610600565b80156102905780601f1061026757610100808354040283529160200191610290565b820191905f5260205f20905b81548152906001019060200180831161027357829003601f168201915b5050509183525050600182015460ff8082166020840152610100909104161515604082015260029091015460609091015292915050565b5f602081905290815260409020805481906102e190610600565b80601f016020809104026020016040519081016040528092919081815260200182805461030d90610600565b80156103585780601f1061032f57610100808354040283529160200191610358565b820191905f5260205f20905b81548152906001019060200180831161033b57829003601f168201915b505050506001830154600290930154919260ff8082169361010090920416915084565b80156103a257335f9081526020819052604090206002018054600160ff85161b1790555050565b335f9081526020819052604090206002018054600160ff85161b191690555050565b7f4e487b71000000000000000000000000000000000000000000000000000000005f52604160045260245ffd5b803560ff81168114610401575f80fd5b919050565b5f8060408385031215610417575f80fd5b823567ffffffffffffffff81111561042d575f80fd5b8301601f8101851361043d575f80fd5b803567ffffffffffffffff811115610457576104576103c4565b604051601f19603f601f19601f8501160116810181811067ffffffffffffffff82111715610487576104876103c4565b60405281815282820160200187101561049e575f80fd5b816020840160208301375f602083830101528094505050506104c2602084016103f1565b90509250929050565b5f602082840312156104db575f80fd5b813573ffffffffffffffffffffffffffffffffffffffff811681146104fe575f80fd5b9392505050565b5f81518084528060208401602086015e5f602082860101526020601f19601f83011685010191505092915050565b602081525f82516080602084015261054e60a0840182610505565b905060ff6020850151166040840152604084015115156060840152606084015160808401528091505092915050565b5f6020828403121561058d575f80fd5b6104fe826103f1565b608081525f6105a86080830187610505565b60ff959095166020830152509115156040830152606090910152919050565b5f80604083850312156105d8575f80fd5b6105e1836103f1565b9150602083013580151581146105f5575f80fd5b809150509250929050565b600181811c9082168061061457607f821691505b60208210810361064b577f4e487b71000000000000000000000000000000000000000000000000000000005f52602260045260245ffd5b50919050565b601f82111561069857805f5260205f20601f840160051c810160208510156106765750805b601f840160051c820191505b81811015610695575f8155600101610682565b50505b505050565b815167ffffffffffffffff8111156106b7576106b76103c4565b6106cb816106c58454610600565b84610651565b6020601f8211600181146106fd575f83156106e65750848201515b5f19600385901b1c1916600184901b178455610695565b5f84815260208120601f198516915b8281101561072c578785015182556020948501946001909201910161070c565b508482101561074957868401515f19600387901b60f8161c191681555b50505050600190811b0190555056fea26469706673582212207baf138420203d1fb0f920cb98985ecc11bc683ae3139fd93d6c73d8ef7b8a2864736f6c634300081a0033","opcodes":"PUSH1 0x80 PUSH1 0x40 MSTORE CALLVALUE DUP1 ISZERO PUSH1 0xE JUMPI PUSH0 DUP1 REVERT JUMPDEST POP PUSH2 0x78E DUP1 PUSH2 0x1C PUSH0 CODECOPY PUSH0 RETURN INVALID PUSH1 0x80 PUSH1 0x40 MSTORE CALLVALUE DUP1 ISZERO PUSH2 0xF JUMPI PUSH0 DUP1 REVERT JUMPDEST POP PUSH1 0x4 CALLDATASIZE LT PUSH2 0x64 JUMPI PUSH0 CALLDATALOAD PUSH1 0xE0 SHR DUP1 PUSH4 0x87E63742 GT PUSH2 0x4D JUMPI DUP1 PUSH4 0x87E63742 EQ PUSH2 0xA6 JUMPI DUP1 PUSH4 0xA87430BA EQ PUSH2 0xE7 JUMPI DUP1 PUSH4 0xFB9E3A3B EQ PUSH2 0x10A JUMPI PUSH0 DUP1 REVERT JUMPDEST DUP1 PUSH4 0x338E12EB EQ PUSH2 0x68 JUMPI DUP1 PUSH4 0x6F77926B EQ PUSH2 0x7D JUMPI JUMPDEST PUSH0 DUP1 REVERT JUMPDEST PUSH2 0x7B PUSH2 0x76 CALLDATASIZE PUSH1 0x4 PUSH2 0x406 JUMP JUMPDEST PUSH2 0x11D JUMP JUMPDEST STOP JUMPDEST PUSH2 0x90 PUSH2 0x8B CALLDATASIZE PUSH1 0x4 PUSH2 0x4CB JUMP JUMPDEST PUSH2 0x1B8 JUMP JUMPDEST PUSH1 0x40 MLOAD PUSH2 0x9D SWAP2 SWAP1 PUSH2 0x533 JUMP JUMPDEST PUSH1 0x40 MLOAD DUP1 SWAP2 SUB SWAP1 RETURN JUMPDEST PUSH2 0xD7 PUSH2 0xB4 CALLDATASIZE PUSH1 0x4 PUSH2 0x57D JUMP JUMPDEST CALLER PUSH0 SWAP1 DUP2 MSTORE PUSH1 0x20 DUP2 SWAP1 MSTORE PUSH1 0x40 SWAP1 KECCAK256 PUSH1 0x2 ADD SLOAD PUSH1 0x1 PUSH1 0xFF SWAP1 SWAP3 AND SWAP2 SWAP1 SWAP2 SHL AND ISZERO ISZERO SWAP1 JUMP JUMPDEST PUSH1 0x40 MLOAD SWAP1 ISZERO ISZERO DUP2 MSTORE PUSH1 0x20 ADD PUSH2 0x9D JUMP JUMPDEST PUSH2 0xFA PUSH2 0xF5 CALLDATASIZE PUSH1 0x4 PUSH2 0x4CB JUMP JUMPDEST PUSH2 0x2C7 JUMP JUMPDEST PUSH1 0x40 MLOAD PUSH2 0x9D SWAP5 SWAP4 SWAP3 SWAP2 SWAP1 PUSH2 0x596 JUMP JUMPDEST PUSH2 0x7B PUSH2 0x118 CALLDATASIZE PUSH1 0x4 PUSH2 0x5C7 JUMP JUMPDEST PUSH2 0x37B JUMP JUMPDEST PUSH1 0x40 DUP1 MLOAD PUSH1 0x80 DUP2 ADD DUP3 MSTORE DUP4 DUP2 MSTORE PUSH1 0xFF DUP4 AND PUSH1 0x20 DUP1 DUP4 ADD SWAP2 SWAP1 SWAP2 MSTORE PUSH0 DUP3 DUP5 ADD DUP2 SWAP1 MSTORE PUSH1 0x60 DUP4 ADD DUP2 SWAP1 MSTORE CALLER DUP2 MSTORE SWAP1 DUP2 SWAP1 MSTORE SWAP2 SWAP1 SWAP2 KECCAK256 DUP2 MLOAD DUP2 SWAP1 PUSH2 0x15E SWAP1 DUP3 PUSH2 0x69D JUMP JUMPDEST POP PUSH1 0x20 DUP3 ADD MLOAD PUSH1 0x1 DUP3 ADD DUP1 SLOAD PUSH1 0x40 DUP6 ADD MLOAD ISZERO ISZERO PUSH2 0x100 MUL PUSH32 0xFFFFFFFFFFFFFFFFFFFFFFFFFFFFFFFFFFFFFFFFFFFFFFFFFFFFFFFFFFFF0000 SWAP1 SWAP2 AND PUSH1 0xFF SWAP1 SWAP4 AND SWAP3 SWAP1 SWAP3 OR SWAP2 SWAP1 SWAP2 OR SWAP1 SSTORE PUSH1 0x60 SWAP1 SWAP2 ADD MLOAD PUSH1 0x2 SWAP1 SWAP2 ADD SSTORE POP POP JUMP JUMPDEST PUSH1 0x40 DUP1 MLOAD PUSH1 0x80 DUP2 ADD DUP3 MSTORE PUSH1 0x60 DUP1 DUP3 MSTORE PUSH0 PUSH1 0x20 DUP4 ADD DUP2 SWAP1 MSTORE SWAP3 DUP3 ADD DUP4 SWAP1 MSTORE DUP2 ADD SWAP2 SWAP1 SWAP2 MSTORE PUSH20 0xFFFFFFFFFFFFFFFFFFFFFFFFFFFFFFFFFFFFFFFF DUP3 AND PUSH0 SWAP1 DUP2 MSTORE PUSH1 0x20 DUP2 SWAP1 MSTORE PUSH1 0x40 SWAP1 DUP2 SWAP1 KECCAK256 DUP2 MLOAD PUSH1 0x80 DUP2 ADD SWAP1 SWAP3 MSTORE DUP1 SLOAD DUP3 SWAP1 DUP3 SWAP1 PUSH2 0x219 SWAP1 PUSH2 0x600 JUMP JUMPDEST DUP1 PUSH1 0x1F ADD PUSH1 0x20 DUP1 SWAP2 DIV MUL PUSH1 0x20 ADD PUSH1 0x40 MLOAD SWAP1 DUP2 ADD PUSH1 0x40 MSTORE DUP1 SWAP3 SWAP2 SWAP1 DUP2 DUP2 MSTORE PUSH1 0x20 ADD DUP3 DUP1 SLOAD PUSH2 0x245 SWAP1 PUSH2 0x600 JUMP JUMPDEST DUP1 ISZERO PUSH2 0x290 JUMPI DUP1 PUSH1 0x1F LT PUSH2 0x267 JUMPI PUSH2 0x100 DUP1 DUP4 SLOAD DIV MUL DUP4 MSTORE SWAP2 PUSH1 0x20 ADD SWAP2 PUSH2 0x290 JUMP JUMPDEST DUP3 ADD SWAP2 SWAP1 PUSH0 MSTORE PUSH1 0x20 PUSH0 KECCAK256 SWAP1 JUMPDEST DUP2 SLOAD DUP2 MSTORE SWAP1 PUSH1 0x1 ADD SWAP1 PUSH1 0x20 ADD DUP1 DUP4 GT PUSH2 0x273 JUMPI DUP3 SWAP1 SUB PUSH1 0x1F AND DUP3 ADD SWAP2 JUMPDEST POP POP POP SWAP2 DUP4 MSTORE POP POP PUSH1 0x1 DUP3 ADD SLOAD PUSH1 0xFF DUP1 DUP3 AND PUSH1 0x20 DUP5 ADD MSTORE PUSH2 0x100 SWAP1 SWAP2 DIV AND ISZERO ISZERO PUSH1 0x40 DUP3 ADD MSTORE PUSH1 0x2 SWAP1 SWAP2 ADD SLOAD PUSH1 0x60 SWAP1 SWAP2 ADD MSTORE SWAP3 SWAP2 POP POP JUMP JUMPDEST PUSH0 PUSH1 0x20 DUP2 SWAP1 MSTORE SWAP1 DUP2 MSTORE PUSH1 0x40 SWAP1 KECCAK256 DUP1 SLOAD DUP2 SWAP1 PUSH2 0x2E1 SWAP1 PUSH2 0x600 JUMP JUMPDEST DUP1 PUSH1 0x1F ADD PUSH1 0x20 DUP1 SWAP2 DIV MUL PUSH1 0x20 ADD PUSH1 0x40 MLOAD SWAP1 DUP2 ADD PUSH1 0x40 MSTORE DUP1 SWAP3 SWAP2 SWAP1 DUP2 DUP2 MSTORE PUSH1 0x20 ADD DUP3 DUP1 SLOAD PUSH2 0x30D SWAP1 PUSH2 0x600 JUMP JUMPDEST DUP1 ISZERO PUSH2 0x358 JUMPI DUP1 PUSH1 0x1F LT PUSH2 0x32F JUMPI PUSH2 0x100 DUP1 DUP4 SLOAD DIV MUL DUP4 MSTORE SWAP2 PUSH1 0x20 ADD SWAP2 PUSH2 0x358 JUMP JUMPDEST DUP3 ADD SWAP2 SWAP1 PUSH0 MSTORE PUSH1 0x20 PUSH0 KECCAK256 SWAP1 JUMPDEST DUP2 SLOAD DUP2 MSTORE SWAP1 PUSH1 0x1 ADD SWAP1 PUSH1 0x20 ADD DUP1 DUP4 GT PUSH2 0x33B JUMPI DUP3 SWAP1 SUB PUSH1 0x1F AND DUP3 ADD SWAP2 JUMPDEST POP POP POP POP PUSH1 0x1 DUP4 ADD SLOAD PUSH1 0x2 SWAP1 SWAP4 ADD SLOAD SWAP2 SWAP3 PUSH1 0xFF DUP1 DUP3 AND SWAP4 PUSH2 0x100 SWAP1 SWAP3 DIV AND SWAP2 POP DUP5 JUMP JUMPDEST DUP1 ISZERO PUSH2 0x3A2 JUMPI CALLER PUSH0 SWAP1 DUP2 MSTORE PUSH1 0x20 DUP2 SWAP1 MSTORE PUSH1 0x40 SWAP1 KECCAK256 PUSH1 0x2 ADD DUP1 SLOAD PUSH1 0x1 PUSH1 0xFF DUP6 AND SHL OR SWAP1 SSTORE POP POP JUMP JUMPDEST CALLER PUSH0 SWAP1 DUP2 MSTORE PUSH1 0x20 DUP2 SWAP1 MSTORE PUSH1 0x40 SWAP1 KECCAK256 PUSH1 0x2 ADD DUP1 SLOAD PUSH1 0x1 PUSH1 0xFF DUP6 AND SHL NOT AND SWAP1 SSTORE POP POP JUMP JUMPDEST PUSH32 0x4E487B7100000000000000000000000000000000000000000000000000000000 PUSH0 MSTORE PUSH1 0x41 PUSH1 0x4 MSTORE PUSH1 0x24 PUSH0 REVERT JUMPDEST DUP1 CALLDATALOAD PUSH1 0xFF DUP2 AND DUP2 EQ PUSH2 0x401 JUMPI PUSH0 DUP1 REVERT JUMPDEST SWAP2 SWAP1 POP JUMP JUMPDEST PUSH0 DUP1 PUSH1 0x40 DUP4 DUP6 SUB SLT ISZERO PUSH2 0x417 JUMPI PUSH0 DUP1 REVERT JUMPDEST DUP3 CALLDATALOAD PUSH8 0xFFFFFFFFFFFFFFFF DUP2 GT ISZERO PUSH2 0x42D JUMPI PUSH0 DUP1 REVERT JUMPDEST DUP4 ADD PUSH1 0x1F DUP2 ADD DUP6 SGT PUSH2 0x43D JUMPI PUSH0 DUP1 REVERT JUMPDEST DUP1 CALLDATALOAD PUSH8 0xFFFFFFFFFFFFFFFF DUP2 GT ISZERO PUSH2 0x457 JUMPI PUSH2 0x457 PUSH2 0x3C4 JUMP JUMPDEST PUSH1 0x40 MLOAD PUSH1 0x1F NOT PUSH1 0x3F PUSH1 0x1F NOT PUSH1 0x1F DUP6 ADD AND ADD AND DUP2 ADD DUP2 DUP2 LT PUSH8 0xFFFFFFFFFFFFFFFF DUP3 GT OR ISZERO PUSH2 0x487 JUMPI PUSH2 0x487 PUSH2 0x3C4 JUMP JUMPDEST PUSH1 0x40 MSTORE DUP2 DUP2 MSTORE DUP3 DUP3 ADD PUSH1 0x20 ADD DUP8 LT ISZERO PUSH2 0x49E JUMPI PUSH0 DUP1 REVERT JUMPDEST DUP2 PUSH1 0x20 DUP5 ADD PUSH1 0x20 DUP4 ADD CALLDATACOPY PUSH0 PUSH1 0x20 DUP4 DUP4 ADD ADD MSTORE DUP1 SWAP5 POP POP POP POP PUSH2 0x4C2 PUSH1 0x20 DUP5 ADD PUSH2 0x3F1 JUMP JUMPDEST SWAP1 POP SWAP3 POP SWAP3 SWAP1 POP JUMP JUMPDEST PUSH0 PUSH1 0x20 DUP3 DUP5 SUB SLT ISZERO PUSH2 0x4DB JUMPI PUSH0 DUP1 REVERT JUMPDEST DUP2 CALLDATALOAD PUSH20 0xFFFFFFFFFFFFFFFFFFFFFFFFFFFFFFFFFFFFFFFF DUP2 AND DUP2 EQ PUSH2 0x4FE JUMPI PUSH0 DUP1 REVERT JUMPDEST SWAP4 SWAP3 POP POP POP JUMP JUMPDEST PUSH0 DUP2 MLOAD DUP1 DUP5 MSTORE DUP1 PUSH1 0x20 DUP5 ADD PUSH1 0x20 DUP7 ADD MCOPY PUSH0 PUSH1 0x20 DUP3 DUP7 ADD ADD MSTORE PUSH1 0x20 PUSH1 0x1F NOT PUSH1 0x1F DUP4 ADD AND DUP6 ADD ADD SWAP2 POP POP SWAP3 SWAP2 POP POP JUMP JUMPDEST PUSH1 0x20 DUP2 MSTORE PUSH0 DUP3 MLOAD PUSH1 0x80 PUSH1 0x20 DUP5 ADD MSTORE PUSH2 0x54E PUSH1 0xA0 DUP5 ADD DUP3 PUSH2 0x505 JUMP JUMPDEST SWAP1 POP PUSH1 0xFF PUSH1 0x20 DUP6 ADD MLOAD AND PUSH1 0x40 DUP5 ADD MSTORE PUSH1 0x40 DUP5 ADD MLOAD ISZERO ISZERO PUSH1 0x60 DUP5 ADD MSTORE PUSH1 0x60 DUP5 ADD MLOAD PUSH1 0x80 DUP5 ADD MSTORE DUP1 SWAP2 POP POP SWAP3 SWAP2 POP POP JUMP JUMPDEST PUSH0 PUSH1 0x20 DUP3 DUP5 SUB SLT ISZERO PUSH2 0x58D JUMPI PUSH0 DUP1 REVERT JUMPDEST PUSH2 0x4FE DUP3 PUSH2 0x3F1 JUMP JUMPDEST PUSH1 0x80 DUP2 MSTORE PUSH0 PUSH2 0x5A8 PUSH1 0x80 DUP4 ADD DUP8 PUSH2 0x505 JUMP JUMPDEST PUSH1 0xFF SWAP6 SWAP1 SWAP6 AND PUSH1 0x20 DUP4 ADD MSTORE POP SWAP2 ISZERO ISZERO PUSH1 0x40 DUP4 ADD MSTORE PUSH1 0x60 SWAP1 SWAP2 ADD MSTORE SWAP2 SWAP1 POP JUMP JUMPDEST PUSH0 DUP1 PUSH1 0x40 DUP4 DUP6 SUB SLT ISZERO PUSH2 0x5D8 JUMPI PUSH0 DUP1 REVERT JUMPDEST PUSH2 0x5E1 DUP4 PUSH2 0x3F1 JUMP JUMPDEST SWAP2 POP PUSH1 0x20 DUP4 ADD CALLDATALOAD DUP1 ISZERO ISZERO DUP2 EQ PUSH2 0x5F5 JUMPI PUSH0 DUP1 REVERT JUMPDEST DUP1 SWAP2 POP POP SWAP3 POP SWAP3 SWAP1 POP JUMP JUMPDEST PUSH1 0x1 DUP2 DUP2 SHR SWAP1 DUP3 AND DUP1 PUSH2 0x614 JUMPI PUSH1 0x7F DUP3 AND SWAP2 POP JUMPDEST PUSH1 0x20 DUP3 LT DUP2 SUB PUSH2 0x64B JUMPI PUSH32 0x4E487B7100000000000000000000000000000000000000000000000000000000 PUSH0 MSTORE PUSH1 0x22 PUSH1 0x4 MSTORE PUSH1 0x24 PUSH0 REVERT JUMPDEST POP SWAP2 SWAP1 POP JUMP JUMPDEST PUSH1 0x1F DUP3 GT ISZERO PUSH2 0x698 JUMPI DUP1 PUSH0 MSTORE PUSH1 0x20 PUSH0 KECCAK256 PUSH1 0x1F DUP5 ADD PUSH1 0x5 SHR DUP2 ADD PUSH1 0x20 DUP6 LT ISZERO PUSH2 0x676 JUMPI POP DUP1 JUMPDEST PUSH1 0x1F DUP5 ADD PUSH1 0x5 SHR DUP3 ADD SWAP2 POP JUMPDEST DUP2 DUP2 LT ISZERO PUSH2 0x695 JUMPI PUSH0 DUP2 SSTORE PUSH1 0x1 ADD PUSH2 0x682 JUMP JUMPDEST POP POP JUMPDEST POP POP POP JUMP JUMPDEST DUP2 MLOAD PUSH8 0xFFFFFFFFFFFFFFFF DUP2 GT ISZERO PUSH2 0x6B7 JUMPI PUSH2 0x6B7 PUSH2 0x3C4 JUMP JUMPDEST PUSH2 0x6CB DUP2 PUSH2 0x6C5 DUP5 SLOAD PUSH2 0x600 JUMP JUMPDEST DUP5 PUSH2 0x651 JUMP JUMPDEST PUSH1 0x20 PUSH1 0x1F DUP3 GT PUSH1 0x1 DUP2 EQ PUSH2 0x6FD JUMPI PUSH0 DUP4 ISZERO PUSH2 0x6E6 JUMPI POP DUP5 DUP3 ADD MLOAD JUMPDEST PUSH0 NOT PUSH1 0x3 DUP6 SWAP1 SHL SHR NOT AND PUSH1 0x1 DUP5 SWAP1 SHL OR DUP5 SSTORE PUSH2 0x695 JUMP JUMPDEST PUSH0 DUP5 DUP2 MSTORE PUSH1 0x20 DUP2 KECCAK256 PUSH1 0x1F NOT DUP6 AND SWAP2 JUMPDEST DUP3 DUP2 LT ISZERO PUSH2 0x72C JUMPI DUP8 DUP6 ADD MLOAD DUP3 SSTORE PUSH1 0x20 SWAP5 DUP6 ADD SWAP5 PUSH1 0x1 SWAP1 SWAP3 ADD SWAP2 ADD PUSH2 0x70C JUMP JUMPDEST POP DUP5 DUP3 LT ISZERO PUSH2 0x749 JUMPI DUP7 DUP5 ADD MLOAD PUSH0 NOT PUSH1 0x3 DUP8 SWAP1 SHL PUSH1 0xF8 AND SHR NOT AND DUP2 SSTORE JUMPDEST POP POP POP POP PUSH1 0x1 SWAP1 DUP2 SHL ADD SWAP1 SSTORE POP JUMP INVALID LOG2 PUSH5 0x6970667358 0x22 SLT KECCAK256 PUSH28 0xAF138420203D1FB0F920CB98985ECC11BC683AE3139FD93D6C73D8EF PUSH28 0x8A2864736F6C634300081A0033000000000000000000000000000000 "},"methodIdentifiers":{"getFlag(uint8)":"87e63742","getUser(address)":"6f77926b","registerUser(string,uint8)":"338e12eb","setFlag(uint8,bool)":"fb9e3a3b","users(address)":"a87430ba"}}}}}