{
  "_format": "hh-sol-artifact-1",
  "contractName": "BaseContract",
  "sourceName": "contracts/PracticeMiddle/BaseContract.sol",
  "abi": [
    {
      "inputs": [
        {
          "internalType": "uint256",
          "name": "_initialValue",
          "type": "uint256"
        }
      ],
      "stateMutability": "nonpayable",
      "type": "constructor"
    },
    {
      "inputs": [],
      "name": "getValue",
      "outputs": [
        {
          "internalType": "uint256",
          "name": "",
          "type": "uint256"
        }
      ],
      "stateMutability": "view",
      "type": "function"
    },
    {
      "inputs": [
        {
          "internalType": "uint256",
          "name": "_newValue",
          "type": "uint256"
        }
      ],
      "name": "setValue",
      "outputs": [],
      "stateMutability": "nonpayable",
      "type": "function"
    },
    {
      "inputs": [],
      "name": "value",
      "outputs": [
        {
          "internalType": "uint256",
          "name": "",
          "type": "uint256"
        }
      ],
      "stateMutability": "view",
      "type": "function"
    }
  ],
  "bytecode": "0x608060405234801561001057600080fd5b5060405161011d38038061011d83398101604081905261002f91610037565b600055610050565b60006020828403121561004957600080fd5b5051919050565b60bf8061005e6000396000f3fe6080604052348015600f57600080fd5b5060043610603c5760003560e01c8063209652551460415780633fa4f2451460575780635524107714605f575b600080fd5b6000545b60405190815260200160405180910390f35b604560005481565b606f606a3660046071565b600055565b005b600060208284031215608257600080fd5b503591905056fea2646970667358221220beb198154959c7092e9b4ae6b2c505d75431ce33956899341284759e8e50987b64736f6c63430008140033",
  "linkReferences": {},
  "deployedLinkReferences": {}
}