{
  "_format": "hh-sol-artifact-1",
  "contractName": "UserOwnable",
  "sourceName": "contracts/PracticeModule1/LessonOpenZeppelin.sol",
  "abi": [
    {
      "inputs": [],
      "stateMutability": "nonpayable",
      "type": "constructor"
    },
    {
      "inputs": [
        {
          "internalType": "address",
          "name": "owner",
          "type": "address"
        }
      ],
      "name": "OwnableInvalidOwner",
      "type": "error"
    },
    {
      "inputs": [
        {
          "internalType": "address",
          "name": "account",
          "type": "address"
        }
      ],
      "name": "OwnableUnauthorizedAccount",
      "type": "error"
    },
    {
      "anonymous": false,
      "inputs": [
        {
          "indexed": true,
          "internalType": "address",
          "name": "previousOwner",
          "type": "address"
        },
        {
          "indexed": true,
          "internalType": "address",
          "name": "newOwner",
          "type": "address"
        }
      ],
      "name": "OwnershipTransferred",
      "type": "event"
    },
    {
      "inputs": [
        {
          "internalType": "address",
          "name": "_user",
          "type": "address"
        }
      ],
      "name": "deleteUser",
      "outputs": [],
      "stateMutability": "nonpayable",
      "type": "function"
    },
    {
      "inputs": [
        {
          "internalType": "address",
          "name": "_user",
          "type": "address"
        }
      ],
      "name": "getUser",
      "outputs": [
        {
          "internalType": "string",
          "name": "",
          "type": "string"
        },
        {
          "internalType": "uint256",
          "name": "",
          "type": "uint256"
        }
      ],
      "stateMutability": "view",
      "type": "function"
    },
    {
      "inputs": [],
      "name": "owner",
      "outputs": [
        {
          "internalType": "address",
          "name": "",
          "type": "address"
        }
      ],
      "stateMutability": "view",
      "type": "function"
    },
    {
      "inputs": [],
      "name": "renounceOwnership",
      "outputs": [],
      "stateMutability": "nonpayable",
      "type": "function"
    },
    {
      "inputs": [
        {
          "internalType": "string",
          "name": "_name",
          "type": "string"
        },
        {
          "internalType": "uint256",
          "name": "_age",
          "type": "uint256"
        }
      ],
      "name": "setUser",
      "outputs": [],
      "stateMutability": "nonpayable",
      "type": "function"
    },
    {
      "inputs": [
        {
          "internalType": "address",
          "name": "newOwner",
          "type": "address"
        }
      ],
      "name": "transferOwnership",
      "outputs": [],
      "stateMutability": "nonpayable",
      "type": "function"
    }
  ],
  "bytecode": "0x608060405234801561001057600080fd5b50338061003757604051631e4fbdf760e01b81526000600482015260240160405180910390fd5b61004081610046565b50610096565b600080546001600160a01b038381166001600160a01b0319831681178455604051919092169283917f8be0079c531659141344cd1fd0a4f28419497f9722a3daafe3b4186f6b6457e09190a35050565b610732806100a56000396000f3fe608060405234801561001057600080fd5b50600436106100725760003560e01c80638da5cb5b116100505780638da5cb5b146100be578063d3bddc2b146100e6578063f2fde38b146100f957600080fd5b80635c60f226146100775780636f77926b1461008c578063715018a6146100b6575b600080fd5b61008a610085366004610424565b61010c565b005b61009f61009a366004610424565b610151565b6040516100ad929190610461565b60405180910390f35b61008a61024e565b60005460405173ffffffffffffffffffffffffffffffffffffffff90911681526020016100ad565b61008a6100f43660046104e5565b610262565b61008a610107366004610424565b6102a5565b61011461030e565b73ffffffffffffffffffffffffffffffffffffffff811660009081526001602052604081209061014482826103d6565b6001820160009055505050565b6060600080600160008573ffffffffffffffffffffffffffffffffffffffff1673ffffffffffffffffffffffffffffffffffffffff1681526020019081526020016000206040518060400160405290816000820180546101b09061059a565b80601f01602080910402602001604051908101604052809291908181526020018280546101dc9061059a565b80156102295780601f106101fe57610100808354040283529160200191610229565b820191906000526020600020905b81548152906001019060200180831161020c57829003601f168201915b5050509183525050600191909101546020918201528151910151909590945092505050565b61025661030e565b6102606000610361565b565b604080518082018252838152602080820184905233600090815260019091529190912081518190610293908261063c565b50602082015181600101559050505050565b6102ad61030e565b73ffffffffffffffffffffffffffffffffffffffff8116610302576040517f1e4fbdf7000000000000000000000000000000000000000000000000000000008152600060048201526024015b60405180910390fd5b61030b81610361565b50565b60005473ffffffffffffffffffffffffffffffffffffffff163314610260576040517f118cdaa70000000000000000000000000000000000000000000000000000000081523360048201526024016102f9565b6000805473ffffffffffffffffffffffffffffffffffffffff8381167fffffffffffffffffffffffff0000000000000000000000000000000000000000831681178455604051919092169283917f8be0079c531659141344cd1fd0a4f28419497f9722a3daafe3b4186f6b6457e09190a35050565b5080546103e29061059a565b6000825580601f106103f2575050565b601f01602090049060005260206000209081019061030b91905b80821115610420576000815560010161040c565b5090565b60006020828403121561043657600080fd5b813573ffffffffffffffffffffffffffffffffffffffff8116811461045a57600080fd5b9392505050565b604081526000835180604084015260005b8181101561048f5760208187018101516060868401015201610472565b506000606082850101526060601f19601f8301168401019150508260208301529392505050565b7f4e487b7100000000000000000000000000000000000000000000000000000000600052604160045260246000fd5b600080604083850312156104f857600080fd5b823567ffffffffffffffff8082111561051057600080fd5b818501915085601f83011261052457600080fd5b813581811115610536576105366104b6565b604051601f8201601f19908116603f0116810190838211818310171561055e5761055e6104b6565b8160405282815288602084870101111561057757600080fd5b826020860160208301376000602093820184015298969091013596505050505050565b600181811c908216806105ae57607f821691505b6020821081036105e7577f4e487b7100000000000000000000000000000000000000000000000000000000600052602260045260246000fd5b50919050565b601f82111561063757600081815260208120601f850160051c810160208610156106145750805b601f850160051c820191505b8181101561063357828155600101610620565b5050505b505050565b815167ffffffffffffffff811115610656576106566104b6565b61066a81610664845461059a565b846105ed565b602080601f83116001811461069f57600084156106875750858301515b600019600386901b1c1916600185901b178555610633565b600085815260208120601f198616915b828110156106ce578886015182559484019460019091019084016106af565b50858210156106ec5787850151600019600388901b60f8161c191681555b5050505050600190811b0190555056fea264697066735822122092ddadbd8d9a26f6b5cdc4a987e18dedbadfc8e58f7574355cd0f7ff3fdcee0e64736f6c63430008140033",
  "linkReferences": {},
  "deployedLinkReferences": {}
}