{
  "_format": "hh-sol-artifact-1",
  "contractName": "BooleanStorage",
  "sourceName": "contracts/PracticeJunior/BooleanStorage.sol",
  "abi": [
    {
      "inputs": [],
      "name": "get",
      "outputs": [
        {
          "internalType": "bool",
          "name": "",
          "type": "bool"
        }
      ],
      "stateMutability": "view",
      "type": "function"
    },
    {
      "inputs": [
        {
          "internalType": "bool",
          "name": "x",
          "type": "bool"
        }
      ],
      "name": "set",
      "outputs": [],
      "stateMutability": "nonpayable",
      "type": "function"
    },
    {
      "inputs": [],
      "name": "storedBoolean",
      "outputs": [
        {
          "internalType": "bool",
          "name": "",
          "type": "bool"
        }
      ],
      "stateMutability": "view",
      "type": "function"
    }
  ],
  "bytecode": "0x608060405234801561001057600080fd5b50610106806100206000396000f3fe6080604052348015600f57600080fd5b5060043610603c5760003560e01c80635c7ad8461460415780635f76f6ab1460615780636d4ce63c14609f575b600080fd5b600054604d9060ff1681565b604051901515815260200160405180910390f35b609d606c36600460a9565b600080547fffffffffffffffffffffffffffffffffffffffffffffffffffffffffffffff0016911515919091179055565b005b60005460ff16604d565b60006020828403121560ba57600080fd5b8135801515811460c957600080fd5b939250505056fea2646970667358221220d66f19adf233d365aea395a7c84cd2ba07942a5640fe1af4081e8a37d4c8bfc364736f6c63430008140033",
  "linkReferences": {},
  "deployedLinkReferences": {}
}