{
  "_format": "hh-sol-artifact-1",
  "contractName": "MultiReturnExample",
  "sourceName": "contracts/PracticeJunior/MultiReturnExample.sol",
  "abi": [
    {
      "inputs": [],
      "name": "getValues",
      "outputs": [
        {
          "internalType": "uint256",
          "name": "",
          "type": "uint256"
        },
        {
          "internalType": "bool",
          "name": "",
          "type": "bool"
        },
        {
          "internalType": "string",
          "name": "",
          "type": "string"
        }
      ],
      "stateMutability": "pure",
      "type": "function"
    }
  ],
  "bytecode": "0x608060405234801561001057600080fd5b5061012a806100206000396000f3fe6080604052348015600f57600080fd5b506004361060285760003560e01c806319eb4a9014602d575b600080fd5b604080518082018252601081527f48656c6c6f2c20536f6c6964697479210000000000000000000000000000000060208201529051607091602a91600191906079565b60405180910390f35b838152600060208415158184015260606040840152835180606085015260005b8181101560b3578581018301518582016080015282016099565b5060006080828601015260807fffffffffffffffffffffffffffffffffffffffffffffffffffffffffffffffe0601f8301168501019250505094935050505056fea26469706673582212202f7497675e0b6a1975c6c55429e451a653f26b192528cdf7828d046bce65588664736f6c63430008140033",
  "linkReferences": {},
  "deployedLinkReferences": {}
}