{
  "_format": "hh-sol-artifact-1",
  "contractName": "ConditionChecker",
  "sourceName": "contracts/PracticeJunior/ConditionChecker.sol",
  "abi": [
    {
      "anonymous": false,
      "inputs": [
        {
          "indexed": true,
          "internalType": "address",
          "name": "sender",
          "type": "address"
        },
        {
          "indexed": false,
          "internalType": "uint256",
          "name": "value",
          "type": "uint256"
        }
      ],
      "name": "FunctionExecuted",
      "type": "event"
    },
    {
      "inputs": [
        {
          "internalType": "uint256",
          "name": "value",
          "type": "uint256"
        }
      ],
      "name": "executeIfPositive",
      "outputs": [],
      "stateMutability": "nonpayable",
      "type": "function"
    }
  ],
  "bytecode": "0x6080604052348015600e575f80fd5b5061012b8061001c5f395ff3fe6080604052348015600e575f80fd5b50600436106026575f3560e01c80636627180514602a575b5f80fd5b6039603536600460df565b603b565b005b5f811160a7576040517f08c379a000000000000000000000000000000000000000000000000000000000815260206004820152601f60248201527f56616c7565206d7573742062652067726561746572207468616e207a65726f00604482015260640160405180910390fd5b60405181815233907f5d0ebe2ee823646f37a59fbe26913ca4110b524164b913affe4c3c8862e6f4a39060200160405180910390a250565b5f6020828403121560ee575f80fd5b503591905056fea26469706673582212201d7d4fd8c8193c6818685e0e0305c0068a60cb4cbf70f58a9606b85a6f30aa4864736f6c634300081a0033",
  "linkReferences": {},
  "deployedLinkReferences": {}
}