{
  "_format": "hh-sol-artifact-1",
  "contractName": "PowerCalculator",
  "sourceName": "contracts/PracticeMiddle/PowerCalculator.sol",
  "abi": [
    {
      "inputs": [
        {
          "internalType": "uint256",
          "name": "base",
          "type": "uint256"
        },
        {
          "internalType": "uint256",
          "name": "exponent",
          "type": "uint256"
        }
      ],
      "name": "calculatePower",
      "outputs": [
        {
          "internalType": "uint256",
          "name": "result",
          "type": "uint256"
        }
      ],
      "stateMutability": "pure",
      "type": "function"
    }
  ],
  "bytecode": "0x6080604052348015600e575f80fd5b506101658061001c5f395ff3fe608060405234801561000f575f80fd5b5060043610610029575f3560e01c8063f979f2691461002d575b5f80fd5b61004061003b366004610094565b610052565b60405190815260200160405180910390f35b5f815f036100625750600161008e565b5060015f5b82811161008c5761007884836100e1565b915080610084816100f8565b915050610067565b505b92915050565b5f80604083850312156100a5575f80fd5b50508035926020909101359150565b7f4e487b71000000000000000000000000000000000000000000000000000000005f52601160045260245ffd5b808202811582820484141761008e5761008e6100b4565b5f7fffffffffffffffffffffffffffffffffffffffffffffffffffffffffffffffff8203610128576101286100b4565b506001019056fea2646970667358221220c27d554f113d4aa5cacd626faf3f76e212add67300828e3daccd98efe14c3abf64736f6c634300081a0033",
  "linkReferences": {},
  "deployedLinkReferences": {}
}