{
  "_format": "hh-sol-artifact-1",
  "contractName": "NestedMappings",
  "sourceName": "contracts/practice-middle/NestedMappings.sol",
  "abi": [
    {
      "inputs": [
        {
          "internalType": "address",
          "name": "",
          "type": "address"
        },
        {
          "internalType": "string",
          "name": "",
          "type": "string"
        }
      ],
      "name": "data",
      "outputs": [
        {
          "internalType": "uint256",
          "name": "",
          "type": "uint256"
        }
      ],
      "stateMutability": "view",
      "type": "function"
    },
    {
      "inputs": [
        {
          "internalType": "address",
          "name": "_user",
          "type": "address"
        },
        {
          "internalType": "string",
          "name": "_key",
          "type": "string"
        }
      ],
      "name": "getValue",
      "outputs": [
        {
          "internalType": "uint256",
          "name": "",
          "type": "uint256"
        }
      ],
      "stateMutability": "view",
      "type": "function"
    },
    {
      "inputs": [
        {
          "internalType": "address",
          "name": "_user",
          "type": "address"
        },
        {
          "internalType": "string",
          "name": "_key",
          "type": "string"
        },
        {
          "internalType": "uint256",
          "name": "_value",
          "type": "uint256"
        }
      ],
      "name": "setValue",
      "outputs": [],
      "stateMutability": "nonpayable",
      "type": "function"
    }
  ],
  "bytecode": "0x6080604052348015600e575f80fd5b506103298061001c5f395ff3fe608060405234801561000f575f80fd5b506004361061003f575f3560e01c80637ba0e76114610043578063ae80c67a1461008d578063de0cb0ad146100a2575b5f80fd5b61007b61005136600461023f565b5f602081815292815260409020815180830184018051928152908401929093019190912091525481565b60405190815260200160405180910390f35b6100a061009b36600461028a565b6100b5565b005b61007b6100b036600461023f565b610115565b805f808573ffffffffffffffffffffffffffffffffffffffff1673ffffffffffffffffffffffffffffffffffffffff1681526020019081526020015f208360405161010091906102dd565b90815260405190819003602001902055505050565b73ffffffffffffffffffffffffffffffffffffffff82165f9081526020819052604080822090516101479084906102dd565b908152602001604051809103902054905092915050565b803573ffffffffffffffffffffffffffffffffffffffff81168114610181575f80fd5b919050565b7f4e487b71000000000000000000000000000000000000000000000000000000005f52604160045260245ffd5b5f82601f8301126101c2575f80fd5b813567ffffffffffffffff8111156101dc576101dc610186565b604051601f19603f601f19601f8501160116810181811067ffffffffffffffff8211171561020c5761020c610186565b604052818152838201602001851015610223575f80fd5b816020850160208301375f918101602001919091529392505050565b5f8060408385031215610250575f80fd5b6102598361015e565b9150602083013567ffffffffffffffff811115610274575f80fd5b610280858286016101b3565b9150509250929050565b5f805f6060848603121561029c575f80fd5b6102a58461015e565b9250602084013567ffffffffffffffff8111156102c0575f80fd5b6102cc868287016101b3565b925050604084013590509250925092565b5f82518060208501845e5f92019182525091905056fea26469706673582212207645e2d70b33c2b9e1554d15bbbae054f9113d25dfe837014edb95c0b07b01ab64736f6c634300081a0033",
  "linkReferences": {},
  "deployedLinkReferences": {}
}