{
  "_format": "hh-sol-artifact-1",
  "contractName": "Album",
  "sourceName": "contracts/PracticeGuideDAO/Album.sol",
  "abi": [
    {
      "inputs": [
        {
          "internalType": "uint256",
          "name": "_price",
          "type": "uint256"
        },
        {
          "internalType": "string",
          "name": "_title",
          "type": "string"
        },
        {
          "internalType": "uint256",
          "name": "_index",
          "type": "uint256"
        },
        {
          "internalType": "contract AlbumTracker",
          "name": "_tracker",
          "type": "address"
        }
      ],
      "stateMutability": "nonpayable",
      "type": "constructor"
    },
    {
      "inputs": [],
      "name": "index",
      "outputs": [
        {
          "internalType": "uint256",
          "name": "",
          "type": "uint256"
        }
      ],
      "stateMutability": "view",
      "type": "function"
    },
    {
      "inputs": [],
      "name": "price",
      "outputs": [
        {
          "internalType": "uint256",
          "name": "",
          "type": "uint256"
        }
      ],
      "stateMutability": "view",
      "type": "function"
    },
    {
      "inputs": [],
      "name": "purchased",
      "outputs": [
        {
          "internalType": "bool",
          "name": "",
          "type": "bool"
        }
      ],
      "stateMutability": "view",
      "type": "function"
    },
    {
      "inputs": [],
      "name": "title",
      "outputs": [
        {
          "internalType": "string",
          "name": "",
          "type": "string"
        }
      ],
      "stateMutability": "view",
      "type": "function"
    },
    {
      "stateMutability": "payable",
      "type": "receive"
    }
  ],
  "bytecode": "0x608060405234801561001057600080fd5b5060405161076c38038061076c83398101604081905261002f916100a0565b600084905560016100408482610217565b50600391909155600480546001600160a01b0319166001600160a01b03909216919091179055506102d69050565b634e487b7160e01b600052604160045260246000fd5b80516001600160a01b038116811461009b57600080fd5b919050565b600080600080608085870312156100b657600080fd5b8451602080870151919550906001600160401b03808211156100d757600080fd5b818801915088601f8301126100eb57600080fd5b8151818111156100fd576100fd61006e565b604051601f8201601f19908116603f011681019083821181831017156101255761012561006e565b816040528281528b8684870101111561013d57600080fd5b600093505b8284101561015f5784840186015181850187015292850192610142565b60008684830101528098505050505050506040850151915061018360608601610084565b905092959194509250565b600181811c908216806101a257607f821691505b6020821081036101c257634e487b7160e01b600052602260045260246000fd5b50919050565b601f82111561021257600081815260208120601f850160051c810160208610156101ef5750805b601f850160051c820191505b8181101561020e578281556001016101fb565b5050505b505050565b81516001600160401b038111156102305761023061006e565b6102448161023e845461018e565b846101c8565b602080601f83116001811461027957600084156102615750858301515b600019600386901b1c1916600185901b17855561020e565b600085815260208120601f198616915b828110156102a857888601518255948401946001909101908401610289565b50858210156102c65787850151600019600388901b60f8161c191681555b5050505050600190811b01905550565b610487806102e56000396000f3fe6080604052600436106100435760003560e01c80632986c0e5146102725780634a79d50c1461029b578063879f9c96146102bd578063a035b1fe146102e757600080fd5b3661026d5760025460ff16156100a05760405162461bcd60e51b815260206004820181905260248201527f5468697320616c62756d20697320616c7265616479207075726368617365642160448201526064015b60405180910390fd5b34600054146100f15760405162461bcd60e51b815260206004820152601d60248201527f576520616363657074206f6e6c792066756c6c207061796d656e7473210000006044820152606401610097565b600454600354604051602481019190915260009173ffffffffffffffffffffffffffffffffffffffff1690349060440160408051601f198184030181529181526020820180517bffffffffffffffffffffffffffffffffffffffffffffffffffffffff167f800fb83f000000000000000000000000000000000000000000000000000000001790525161018491906103af565b60006040518083038185875af1925050503d80600081146101c1576040519150601f19603f3d011682016040523d82523d6000602084013e6101c6565b606091505b505090508061023d5760405162461bcd60e51b815260206004820152602d60248201527f536f7272792c20776520636f756c64206e6f742070726f6365737320796f757260448201527f207472616e73616374696f6e2e000000000000000000000000000000000000006064820152608401610097565b600280547fffffffffffffffffffffffffffffffffffffffffffffffffffffffffffffff00166001908117909155005b600080fd5b34801561027e57600080fd5b5061028860035481565b6040519081526020015b60405180910390f35b3480156102a757600080fd5b506102b06102fd565b60405161029291906103cb565b3480156102c957600080fd5b506002546102d79060ff1681565b6040519015158152602001610292565b3480156102f357600080fd5b5061028860005481565b6001805461030a906103fe565b80601f0160208091040260200160405190810160405280929190818152602001828054610336906103fe565b80156103835780601f1061035857610100808354040283529160200191610383565b820191906000526020600020905b81548152906001019060200180831161036657829003601f168201915b505050505081565b60005b838110156103a657818101518382015260200161038e565b50506000910152565b600082516103c181846020870161038b565b9190910192915050565b60208152600082518060208401526103ea81604085016020870161038b565b601f01601f19169190910160400192915050565b600181811c9082168061041257607f821691505b60208210810361044b577f4e487b7100000000000000000000000000000000000000000000000000000000600052602260045260246000fd5b5091905056fea264697066735822122067725dcc09e205ad4eca3703a4dcc92e879fd0b71090b483172d61d11bbc270e64736f6c63430008140033",
  "linkReferences": {},
  "deployedLinkReferences": {}
}