{
  "_format": "hh-sol-artifact-1",
  "contractName": "Module1Lesson2",
  "sourceName": "contracts/PracticeModule1/Module1Lesson2.sol",
  "abi": [
    {
      "inputs": [
        {
          "internalType": "address",
          "name": "targetAddr",
          "type": "address"
        }
      ],
      "name": "getBalance",
      "outputs": [
        {
          "internalType": "uint256",
          "name": "",
          "type": "uint256"
        }
      ],
      "stateMutability": "view",
      "type": "function"
    },
    {
      "inputs": [],
      "name": "myAddr",
      "outputs": [
        {
          "internalType": "address",
          "name": "",
          "type": "address"
        }
      ],
      "stateMutability": "view",
      "type": "function"
    },
    {
      "inputs": [
        {
          "internalType": "address",
          "name": "",
          "type": "address"
        }
      ],
      "name": "payments",
      "outputs": [
        {
          "internalType": "uint256",
          "name": "",
          "type": "uint256"
        }
      ],
      "stateMutability": "view",
      "type": "function"
    },
    {
      "inputs": [],
      "name": "reciveFunds",
      "outputs": [],
      "stateMutability": "payable",
      "type": "function"
    },
    {
      "inputs": [
        {
          "internalType": "address",
          "name": "targetAddr",
          "type": "address"
        },
        {
          "internalType": "uint256",
          "name": "amount",
          "type": "uint256"
        }
      ],
      "name": "transferTo",
      "outputs": [],
      "stateMutability": "nonpayable",
      "type": "function"
    }
  ],
  "bytecode": "0x6080604052600180546001600160a01b031916735b38da6a701c568545dcfcb03fcb875f56beddc417905534801561003657600080fd5b50610255806100466000396000f3fe60806040526004361061005a5760003560e01c8063e2982c2111610043578063e2982c2114610098578063e665b266146100d8578063f8b2cb4f1461012a57600080fd5b8063063ae7b61461005f5780632ccb1b3014610078575b600080fd5b610076336000908152602081905260409020349055565b005b34801561008457600080fd5b506100766100933660046101d3565b61015f565b3480156100a457600080fd5b506100c56100b33660046101fd565b60006020819052908152604090205481565b6040519081526020015b60405180910390f35b3480156100e457600080fd5b506001546101059073ffffffffffffffffffffffffffffffffffffffff1681565b60405173ffffffffffffffffffffffffffffffffffffffff90911681526020016100cf565b34801561013657600080fd5b506100c56101453660046101fd565b73ffffffffffffffffffffffffffffffffffffffff163190565b604051829073ffffffffffffffffffffffffffffffffffffffff82169083156108fc029084906000818181858888f193505050501580156101a4573d6000803e3d6000fd5b50505050565b803573ffffffffffffffffffffffffffffffffffffffff811681146101ce57600080fd5b919050565b600080604083850312156101e657600080fd5b6101ef836101aa565b946020939093013593505050565b60006020828403121561020f57600080fd5b610218826101aa565b939250505056fea2646970667358221220e44599966c26e65ce4a9ae53d0c30ec7a2a2ca9174e84a5ffd882988a642d5e464736f6c63430008140033",
  "linkReferences": {},
  "deployedLinkReferences": {}
}