{
  "_format": "hh-sol-artifact-1",
  "contractName": "StringStorage",
  "sourceName": "contracts/PracticeJunior/StringStorage.sol",
  "abi": [
    {
      "inputs": [],
      "name": "get",
      "outputs": [
        {
          "internalType": "string",
          "name": "",
          "type": "string"
        }
      ],
      "stateMutability": "view",
      "type": "function"
    },
    {
      "inputs": [
        {
          "internalType": "string",
          "name": "newString",
          "type": "string"
        }
      ],
      "name": "set",
      "outputs": [],
      "stateMutability": "nonpayable",
      "type": "function"
    },
    {
      "inputs": [],
      "name": "storedString",
      "outputs": [
        {
          "internalType": "string",
          "name": "",
          "type": "string"
        }
      ],
      "stateMutability": "view",
      "type": "function"
    }
  ],
  "bytecode": "0x608060405234801561001057600080fd5b50610477806100206000396000f3fe608060405234801561001057600080fd5b50600436106100415760003560e01c806302dd56d0146100465780634ed3885e146100645780636d4ce63c14610079575b600080fd5b61004e610081565b60405161005b91906101b1565b60405180910390f35b61007761007236600461022e565b61010f565b005b61004e61011f565b6000805461008e906102df565b80601f01602080910402602001604051908101604052809291908181526020018280546100ba906102df565b80156101075780601f106100dc57610100808354040283529160200191610107565b820191906000526020600020905b8154815290600101906020018083116100ea57829003601f168201915b505050505081565b600061011b8282610381565b5050565b60606000805461012e906102df565b80601f016020809104026020016040519081016040528092919081815260200182805461015a906102df565b80156101a75780601f1061017c576101008083540402835291602001916101a7565b820191906000526020600020905b81548152906001019060200180831161018a57829003601f168201915b5050505050905090565b600060208083528351808285015260005b818110156101de578581018301518582016040015282016101c2565b506000604082860101526040601f19601f8301168501019250505092915050565b7f4e487b7100000000000000000000000000000000000000000000000000000000600052604160045260246000fd5b60006020828403121561024057600080fd5b813567ffffffffffffffff8082111561025857600080fd5b818401915084601f83011261026c57600080fd5b81358181111561027e5761027e6101ff565b604051601f8201601f19908116603f011681019083821181831017156102a6576102a66101ff565b816040528281528760208487010111156102bf57600080fd5b826020860160208301376000928101602001929092525095945050505050565b600181811c908216806102f357607f821691505b60208210810361032c577f4e487b7100000000000000000000000000000000000000000000000000000000600052602260045260246000fd5b50919050565b601f82111561037c57600081815260208120601f850160051c810160208610156103595750805b601f850160051c820191505b8181101561037857828155600101610365565b5050505b505050565b815167ffffffffffffffff81111561039b5761039b6101ff565b6103af816103a984546102df565b84610332565b602080601f8311600181146103e457600084156103cc5750858301515b600019600386901b1c1916600185901b178555610378565b600085815260208120601f198616915b82811015610413578886015182559484019460019091019084016103f4565b50858210156104315787850151600019600388901b60f8161c191681555b5050505050600190811b0190555056fea26469706673582212204a6bb71466e52f809cc82f6d7b5dad51c567967b3c5af473a4833bb3c6af06be64736f6c63430008140033",
  "linkReferences": {},
  "deployedLinkReferences": {}
}