{
  "_format": "hh-sol-artifact-1",
  "contractName": "FunctionModifier",
  "sourceName": "contracts/PracticeModule1/LessonModifier.sol",
  "abi": [
    {
      "inputs": [],
      "stateMutability": "nonpayable",
      "type": "constructor"
    },
    {
      "inputs": [
        {
          "internalType": "address",
          "name": "_newOwner",
          "type": "address"
        }
      ],
      "name": "changeOwner",
      "outputs": [],
      "stateMutability": "nonpayable",
      "type": "function"
    },
    {
      "inputs": [],
      "name": "locked",
      "outputs": [
        {
          "internalType": "bool",
          "name": "",
          "type": "bool"
        }
      ],
      "stateMutability": "view",
      "type": "function"
    },
    {
      "inputs": [],
      "name": "owner",
      "outputs": [
        {
          "internalType": "address",
          "name": "",
          "type": "address"
        }
      ],
      "stateMutability": "view",
      "type": "function"
    },
    {
      "inputs": [],
      "name": "x",
      "outputs": [
        {
          "internalType": "uint256",
          "name": "",
          "type": "uint256"
        }
      ],
      "stateMutability": "view",
      "type": "function"
    }
  ],
  "bytecode": "0x6080604052600a6001553480156013575f80fd5b505f80546001600160a01b0319163317905561029a806100325f395ff3fe608060405234801561000f575f80fd5b506004361061004a575f3560e01c80630c55699c1461004e5780638da5cb5b1461006a578063a6f9dae1146100ae578063cf309012146100c3575b5f80fd5b61005760015481565b6040519081526020015b60405180910390f35b5f546100899073ffffffffffffffffffffffffffffffffffffffff1681565b60405173ffffffffffffffffffffffffffffffffffffffff9091168152602001610061565b6100c16100bc36600461022a565b6100e0565b005b6002546100d09060ff1681565b6040519015158152602001610061565b5f5473ffffffffffffffffffffffffffffffffffffffff163314610165576040517f08c379a000000000000000000000000000000000000000000000000000000000815260206004820152600960248201527f4e6f74206f776e6572000000000000000000000000000000000000000000000060448201526064015b60405180910390fd5b8073ffffffffffffffffffffffffffffffffffffffff81166101e3576040517f08c379a000000000000000000000000000000000000000000000000000000000815260206004820152601160248201527f4e6f742076616c69642061646472657373000000000000000000000000000000604482015260640161015c565b505f80547fffffffffffffffffffffffff00000000000000000000000000000000000000001673ffffffffffffffffffffffffffffffffffffffff92909216919091179055565b5f6020828403121561023a575f80fd5b813573ffffffffffffffffffffffffffffffffffffffff8116811461025d575f80fd5b939250505056fea26469706673582212201fdd6acd9107e29a38760f8e5e8b1b9d6d5057ed68b39e369bcc970aaed0126264736f6c634300081a0033",
  "linkReferences": {},
  "deployedLinkReferences": {}
}