{
  "_format": "hh-sol-artifact-1",
  "contractName": "FunctionModifier",
  "sourceName": "contracts/PracticeModule1/LessonModifier.sol",
  "abi": [
    {
      "inputs": [],
      "stateMutability": "nonpayable",
      "type": "constructor"
    },
    {
      "inputs": [
        {
          "internalType": "address",
          "name": "_newOwner",
          "type": "address"
        }
      ],
      "name": "changeOwner",
      "outputs": [],
      "stateMutability": "nonpayable",
      "type": "function"
    },
    {
      "inputs": [],
      "name": "locked",
      "outputs": [
        {
          "internalType": "bool",
          "name": "",
          "type": "bool"
        }
      ],
      "stateMutability": "view",
      "type": "function"
    },
    {
      "inputs": [],
      "name": "owner",
      "outputs": [
        {
          "internalType": "address",
          "name": "",
          "type": "address"
        }
      ],
      "stateMutability": "view",
      "type": "function"
    },
    {
      "inputs": [],
      "name": "x",
      "outputs": [
        {
          "internalType": "uint256",
          "name": "",
          "type": "uint256"
        }
      ],
      "stateMutability": "view",
      "type": "function"
    }
  ],
  "bytecode": "0x6080604052600a60015534801561001557600080fd5b50600080546001600160a01b031916331790556102a3806100376000396000f3fe608060405234801561001057600080fd5b506004361061004c5760003560e01c80630c55699c146100515780638da5cb5b1461006d578063a6f9dae1146100b2578063cf309012146100c7575b600080fd5b61005a60015481565b6040519081526020015b60405180910390f35b60005461008d9073ffffffffffffffffffffffffffffffffffffffff1681565b60405173ffffffffffffffffffffffffffffffffffffffff9091168152602001610064565b6100c56100c0366004610230565b6100e4565b005b6002546100d49060ff1681565b6040519015158152602001610064565b60005473ffffffffffffffffffffffffffffffffffffffff16331461016a576040517f08c379a000000000000000000000000000000000000000000000000000000000815260206004820152600960248201527f4e6f74206f776e6572000000000000000000000000000000000000000000000060448201526064015b60405180910390fd5b8073ffffffffffffffffffffffffffffffffffffffff81166101e8576040517f08c379a000000000000000000000000000000000000000000000000000000000815260206004820152601160248201527f4e6f742076616c696420616464726573730000000000000000000000000000006044820152606401610161565b50600080547fffffffffffffffffffffffff00000000000000000000000000000000000000001673ffffffffffffffffffffffffffffffffffffffff92909216919091179055565b60006020828403121561024257600080fd5b813573ffffffffffffffffffffffffffffffffffffffff8116811461026657600080fd5b939250505056fea2646970667358221220a53caa397c72c795630a5b5c35afe191f854a6c4b0f7eed22290e4c25910bd3f64736f6c63430008140033",
  "linkReferences": {},
  "deployedLinkReferences": {}
}