{
  "_format": "hh-sol-artifact-1",
  "contractName": "ProductStore",
  "sourceName": "contracts/practice-middle/ProductStore.sol",
  "abi": [
    {
      "anonymous": false,
      "inputs": [
        {
          "indexed": false,
          "internalType": "uint256",
          "name": "productID",
          "type": "uint256"
        },
        {
          "indexed": false,
          "internalType": "string",
          "name": "name",
          "type": "string"
        }
      ],
      "name": "ProductAdded",
      "type": "event"
    },
    {
      "inputs": [
        {
          "internalType": "string",
          "name": "_name",
          "type": "string"
        },
        {
          "internalType": "uint256",
          "name": "_price",
          "type": "uint256"
        },
        {
          "internalType": "uint256",
          "name": "_quantity",
          "type": "uint256"
        }
      ],
      "name": "addProduct",
      "outputs": [],
      "stateMutability": "nonpayable",
      "type": "function"
    },
    {
      "inputs": [
        {
          "internalType": "uint256",
          "name": "_productID",
          "type": "uint256"
        }
      ],
      "name": "getProductInfo",
      "outputs": [
        {
          "internalType": "string",
          "name": "name",
          "type": "string"
        },
        {
          "internalType": "uint256",
          "name": "price",
          "type": "uint256"
        },
        {
          "internalType": "uint256",
          "name": "quantity",
          "type": "uint256"
        }
      ],
      "stateMutability": "view",
      "type": "function"
    },
    {
      "inputs": [],
      "name": "nextProductID",
      "outputs": [
        {
          "internalType": "uint256",
          "name": "",
          "type": "uint256"
        }
      ],
      "stateMutability": "view",
      "type": "function"
    },
    {
      "inputs": [
        {
          "internalType": "uint256",
          "name": "",
          "type": "uint256"
        }
      ],
      "name": "products",
      "outputs": [
        {
          "internalType": "string",
          "name": "name",
          "type": "string"
        },
        {
          "internalType": "uint256",
          "name": "price",
          "type": "uint256"
        },
        {
          "internalType": "uint256",
          "name": "quantity",
          "type": "uint256"
        }
      ],
      "stateMutability": "view",
      "type": "function"
    }
  ],
  "bytecode": "0x6080604052600180553480156012575f80fd5b506105d4806100205f395ff3fe608060405234801561000f575f80fd5b506004361061004a575f3560e01c8063125b0b341461004e5780636f090bcf1461006357806379a85e6c1461007f5780637acc0b20146100a1575b5f80fd5b61006161005c3660046102f1565b6100b4565b005b61006c60015481565b6040519081526020015b60405180910390f35b61009261008d3660046103b2565b610158565b604051610076939291906103f7565b6100926100af3660046103b2565b610236565b6040805160608101825284815260208082018590528183018490526001545f9081529081905291909120815181906100ec908261049f565b5060208201518160010155604082015181600201559050507f259101de1f87b04b9ee0332ce5e3cc508014004bf283424aead6cd8692f5cf986001548460405161013792919061055a565b60405180910390a160018054905f61014e8361057a565b9190505550505050565b60605f805f805f8681526020019081526020015f206040518060600160405290815f820180546101879061041b565b80601f01602080910402602001604051908101604052809291908181526020018280546101b39061041b565b80156101fe5780601f106101d5576101008083540402835291602001916101fe565b820191905f5260205f20905b8154815290600101906020018083116101e157829003601f168201915b505050918352505060018201546020808301919091526002909201546040918201528251918301519201519097919650945092505050565b5f602081905290815260409020805481906102509061041b565b80601f016020809104026020016040519081016040528092919081815260200182805461027c9061041b565b80156102c75780601f1061029e576101008083540402835291602001916102c7565b820191905f5260205f20905b8154815290600101906020018083116102aa57829003601f168201915b5050505050908060010154908060020154905083565b634e487b7160e01b5f52604160045260245ffd5b5f805f60608486031215610303575f80fd5b833567ffffffffffffffff811115610319575f80fd5b8401601f81018613610329575f80fd5b803567ffffffffffffffff811115610343576103436102dd565b604051601f19603f601f19601f8501160116810181811067ffffffffffffffff82111715610373576103736102dd565b60405281815282820160200188101561038a575f80fd5b816020840160208301375f602092820183015297908601359650604090950135949350505050565b5f602082840312156103c2575f80fd5b5035919050565b5f81518084528060208401602086015e5f602082860101526020601f19601f83011685010191505092915050565b606081525f61040960608301866103c9565b60208301949094525060400152919050565b600181811c9082168061042f57607f821691505b60208210810361044d57634e487b7160e01b5f52602260045260245ffd5b50919050565b601f82111561049a57805f5260205f20601f840160051c810160208510156104785750805b601f840160051c820191505b81811015610497575f8155600101610484565b50505b505050565b815167ffffffffffffffff8111156104b9576104b96102dd565b6104cd816104c7845461041b565b84610453565b6020601f8211600181146104ff575f83156104e85750848201515b5f19600385901b1c1916600184901b178455610497565b5f84815260208120601f198516915b8281101561052e578785015182556020948501946001909201910161050e565b508482101561054b57868401515f19600387901b60f8161c191681555b50505050600190811b01905550565b828152604060208201525f61057260408301846103c9565b949350505050565b5f5f19820361059757634e487b7160e01b5f52601160045260245ffd5b506001019056fea264697066735822122067362b8de4e538ac6211c042be7f9907349846a2c5efae769131281db4b1838264736f6c634300081a0033",
  "linkReferences": {},
  "deployedLinkReferences": {}
}