{
  "_format": "hh-sol-artifact-1",
  "contractName": "Receive",
  "sourceName": "contracts/PracticeMiddle/ReceiveEther.sol",
  "abi": [
    {
      "anonymous": false,
      "inputs": [
        {
          "indexed": false,
          "internalType": "address",
          "name": "sender",
          "type": "address"
        },
        {
          "indexed": false,
          "internalType": "uint256",
          "name": "amount",
          "type": "uint256"
        }
      ],
      "name": "LogReceivedEther",
      "type": "event"
    },
    {
      "inputs": [],
      "name": "contractBalance",
      "outputs": [
        {
          "internalType": "uint256",
          "name": "",
          "type": "uint256"
        }
      ],
      "stateMutability": "view",
      "type": "function"
    },
    {
      "inputs": [],
      "name": "getBalance",
      "outputs": [
        {
          "internalType": "uint256",
          "name": "",
          "type": "uint256"
        }
      ],
      "stateMutability": "view",
      "type": "function"
    },
    {
      "stateMutability": "payable",
      "type": "receive"
    }
  ],
  "bytecode": "0x6080604052348015600e575f80fd5b506101228061001c5f395ff3fe6080604052600436106028575f3560e01c806312065fe014607d5780638b7afe2e14609d575f80fd5b36607957345f80828254603a919060af565b9091555050604080513381523460208201527f3317af6e3247959c45cb6051f9153437a9072683e21eda1f9b52c5bcec0e89c2910160405180910390a1005b5f80fd5b3480156087575f80fd5b505f545b60405190815260200160405180910390f35b34801560a7575f80fd5b50608b5f5481565b8082018082111560e6577f4e487b71000000000000000000000000000000000000000000000000000000005f52601160045260245ffd5b9291505056fea2646970667358221220e3145bc817700df6493c8830be86abf3653bdde02823b880273f53ebf74eb61e64736f6c634300081a0033",
  "linkReferences": {},
  "deployedLinkReferences": {}
}