{
  "_format": "hh-sol-artifact-1",
  "contractName": "Enum",
  "sourceName": "contracts/PracticeModule1/LessonEnum.sol",
  "abi": [
    {
      "inputs": [],
      "name": "cancel",
      "outputs": [],
      "stateMutability": "nonpayable",
      "type": "function"
    },
    {
      "inputs": [],
      "name": "get",
      "outputs": [
        {
          "internalType": "enum Enum.Status",
          "name": "",
          "type": "uint8"
        }
      ],
      "stateMutability": "view",
      "type": "function"
    },
    {
      "inputs": [],
      "name": "order",
      "outputs": [
        {
          "internalType": "enum Enum.Order",
          "name": "",
          "type": "uint8"
        }
      ],
      "stateMutability": "view",
      "type": "function"
    },
    {
      "inputs": [],
      "name": "reset",
      "outputs": [],
      "stateMutability": "nonpayable",
      "type": "function"
    },
    {
      "inputs": [
        {
          "internalType": "enum Enum.Status",
          "name": "_status",
          "type": "uint8"
        }
      ],
      "name": "set",
      "outputs": [],
      "stateMutability": "nonpayable",
      "type": "function"
    },
    {
      "inputs": [],
      "name": "status",
      "outputs": [
        {
          "internalType": "enum Enum.Status",
          "name": "",
          "type": "uint8"
        }
      ],
      "stateMutability": "view",
      "type": "function"
    }
  ],
  "bytecode": "0x608060405234801561001057600080fd5b506101e3806100206000396000f3fe608060405234801561001057600080fd5b50600436106100725760003560e01c8063bf15071d11610050578063bf15071d146100c4578063d826f88f146100de578063ea8a1af0146100ee57600080fd5b8063200d2ed21461007757806324b8ba5f1461009f5780636d4ce63c146100b4575b600080fd5b60005461008990610100900460ff1681565b6040516100969190610157565b60405180910390f35b6100b26100ad366004610171565b6100ff565b005b600054610100900460ff16610089565b6000546100d19060ff1681565b6040516100969190610199565b6100b26000805461ff0019169055565b6000805461ff001916610400179055005b6000805482919061ff00191661010083600481111561012057610120610128565b021790555050565b7f4e487b7100000000000000000000000000000000000000000000000000000000600052602160045260246000fd5b602081016005831061016b5761016b610128565b91905290565b60006020828403121561018357600080fd5b81356005811061019257600080fd5b9392505050565b602081016003831061016b5761016b61012856fea2646970667358221220cac9bc93f2a21855e0918684e3f574fca4c3e7d19b9cf804dac9a7f1f6d84b9464736f6c63430008140033",
  "linkReferences": {},
  "deployedLinkReferences": {}
}