{
	"AlbumTracker.sol": {
		"AlbumTracker": {
			"abi": [
				{
					"inputs": [],
					"stateMutability": "nonpayable",
					"type": "constructor"
				},
				{
					"inputs": [
						{
							"internalType": "address",
							"name": "owner",
							"type": "address"
						}
					],
					"name": "OwnableInvalidOwner",
					"type": "error"
				},
				{
					"inputs": [
						{
							"internalType": "address",
							"name": "account",
							"type": "address"
						}
					],
					"name": "OwnableUnauthorizedAccount",
					"type": "error"
				},
				{
					"anonymous": false,
					"inputs": [
						{
							"indexed": true,
							"internalType": "address",
							"name": "previousOwner",
							"type": "address"
						},
						{
							"indexed": true,
							"internalType": "address",
							"name": "newOwner",
							"type": "address"
						}
					],
					"name": "OwnershipTransferred",
					"type": "event"
				},
				{
					"inputs": [
						{
							"internalType": "uint256",
							"name": "",
							"type": "uint256"
						}
					],
					"name": "albums",
					"outputs": [
						{
							"internalType": "contract Album",
							"name": "album",
							"type": "address"
						},
						{
							"internalType": "enum AlbumTracker.AlbumState",
							"name": "state",
							"type": "uint8"
						},
						{
							"internalType": "uint256",
							"name": "price",
							"type": "uint256"
						},
						{
							"internalType": "string",
							"name": "title",
							"type": "string"
						}
					],
					"stateMutability": "view",
					"type": "function"
				},
				{
					"inputs": [
						{
							"internalType": "uint256",
							"name": "_price",
							"type": "uint256"
						},
						{
							"internalType": "string",
							"name": "_title",
							"type": "string"
						}
					],
					"name": "creatAlbum",
					"outputs": [],
					"stateMutability": "nonpayable",
					"type": "function"
				},
				{
					"inputs": [],
					"name": "owner",
					"outputs": [
						{
							"internalType": "address",
							"name": "",
							"type": "address"
						}
					],
					"stateMutability": "view",
					"type": "function"
				},
				{
					"inputs": [],
					"name": "renounceOwnership",
					"outputs": [],
					"stateMutability": "nonpayable",
					"type": "function"
				},
				{
					"inputs": [
						{
							"internalType": "address",
							"name": "newOwner",
							"type": "address"
						}
					],
					"name": "transferOwnership",
					"outputs": [],
					"stateMutability": "nonpayable",
					"type": "function"
				}
			],
			"devdoc": {
				"errors": {
					"OwnableInvalidOwner(address)": [
						{
							"details": "The owner is not a valid owner account. (eg. `address(0)`)"
						}
					],
					"OwnableUnauthorizedAccount(address)": [
						{
							"details": "The caller account is not authorized to perform an operation."
						}
					]
				},
				"kind": "dev",
				"methods": {
					"owner()": {
						"details": "Returns the address of the current owner."
					},
					"renounceOwnership()": {
						"details": "Leaves the contract without owner. It will not be possible to call `onlyOwner` functions. Can only be called by the current owner. NOTE: Renouncing ownership will leave the contract without an owner, thereby disabling any functionality that is only available to the owner."
					},
					"transferOwnership(address)": {
						"details": "Transfers ownership of the contract to a new account (`newOwner`). Can only be called by the current owner."
					}
				},
				"version": 1
			},
			"evm": {
				"assembly": "    /* \"AlbumTracker.sol\":139:859  contract AlbumTracker is Ownable{... */\n  mstore(0x40, 0x80)\n    /* \"AlbumTracker.sol\":180:216  constructor() Ownable(msg.sender) {} */\n  callvalue\n  dup1\n  iszero\n  tag_1\n  jumpi\n  0x00\n  dup1\n  revert\ntag_1:\n  pop\n    /* \"AlbumTracker.sol\":202:212  msg.sender */\n  caller\n    /* \"@openzeppelin/contracts/access/Ownable.sol\":1297:1298  0 */\n  0x00\n    /* \"@openzeppelin/contracts/access/Ownable.sol\":1273:1299  initialOwner == address(0) */\n  0xffffffffffffffffffffffffffffffffffffffff\n  and\n    /* \"@openzeppelin/contracts/access/Ownable.sol\":1273:1285  initialOwner */\n  dup2\n    /* \"@openzeppelin/contracts/access/Ownable.sol\":1273:1299  initialOwner == address(0) */\n  0xffffffffffffffffffffffffffffffffffffffff\n  and\n  sub\n    /* \"@openzeppelin/contracts/access/Ownable.sol\":1269:1364  if (initialOwner == address(0)) {... */\n  tag_5\n  jumpi\n    /* \"@openzeppelin/contracts/access/Ownable.sol\":1350:1351  0 */\n  0x00\n    /* \"@openzeppelin/contracts/access/Ownable.sol\":1322:1353  OwnableInvalidOwner(address(0)) */\n  mload(0x40)\n  0x1e4fbdf700000000000000000000000000000000000000000000000000000000\n  dup2\n  mstore\n  0x04\n  add\n  tag_6\n  swap2\n  swap1\n  tag_7\n  jump\t// in\ntag_6:\n  mload(0x40)\n  dup1\n  swap2\n  sub\n  swap1\n  revert\n    /* \"@openzeppelin/contracts/access/Ownable.sol\":1269:1364  if (initialOwner == address(0)) {... */\ntag_5:\n    /* \"@openzeppelin/contracts/access/Ownable.sol\":1373:1405  _transferOwnership(initialOwner) */\n  tag_8\n    /* \"@openzeppelin/contracts/access/Ownable.sol\":1392:1404  initialOwner */\n  dup2\n    /* \"@openzeppelin/contracts/access/Ownable.sol\":1373:1391  _transferOwnership */\n  shl(0x20, tag_9)\n    /* \"@openzeppelin/contracts/access/Ownable.sol\":1373:1405  _transferOwnership(initialOwner) */\n  0x20\n  shr\n  jump\t// in\ntag_8:\n    /* \"@openzeppelin/contracts/access/Ownable.sol\":1225:1412  constructor(address initialOwner) {... */\n  pop\n    /* \"AlbumTracker.sol\":139:859  contract AlbumTracker is Ownable{... */\n  jump(tag_11)\n    /* \"@openzeppelin/contracts/access/Ownable.sol\":2912:3099  function _transferOwnership(address newOwner) internal virtual {... */\ntag_9:\n    /* \"@openzeppelin/contracts/access/Ownable.sol\":2985:3001  address oldOwner */\n  0x00\n    /* \"@openzeppelin/contracts/access/Ownable.sol\":3004:3010  _owner */\n  dup1\n  0x00\n  swap1\n  sload\n  swap1\n  0x0100\n  exp\n  swap1\n  div\n  0xffffffffffffffffffffffffffffffffffffffff\n  and\n    /* \"@openzeppelin/contracts/access/Ownable.sol\":2985:3010  address oldOwner = _owner */\n  swap1\n  pop\n    /* \"@openzeppelin/contracts/access/Ownable.sol\":3029:3037  newOwner */\n  dup2\n    /* \"@openzeppelin/contracts/access/Ownable.sol\":3020:3026  _owner */\n  0x00\n  dup1\n    /* \"@openzeppelin/contracts/access/Ownable.sol\":3020:3037  _owner = newOwner */\n  0x0100\n  exp\n  dup2\n  sload\n  dup2\n  0xffffffffffffffffffffffffffffffffffffffff\n  mul\n  not\n  and\n  swap1\n  dup4\n  0xffffffffffffffffffffffffffffffffffffffff\n  and\n  mul\n  or\n  swap1\n  sstore\n  pop\n    /* \"@openzeppelin/contracts/access/Ownable.sol\":3083:3091  newOwner */\n  dup2\n    /* \"@openzeppelin/contracts/access/Ownable.sol\":3052:3092  OwnershipTransferred(oldOwner, newOwner) */\n  0xffffffffffffffffffffffffffffffffffffffff\n  and\n    /* \"@openzeppelin/contracts/access/Ownable.sol\":3073:3081  oldOwner */\n  dup2\n    /* \"@openzeppelin/contracts/access/Ownable.sol\":3052:3092  OwnershipTransferred(oldOwner, newOwner) */\n  0xffffffffffffffffffffffffffffffffffffffff\n  and\n  0x8be0079c531659141344cd1fd0a4f28419497f9722a3daafe3b4186f6b6457e0\n  mload(0x40)\n  mload(0x40)\n  dup1\n  swap2\n  sub\n  swap1\n  log3\n    /* \"@openzeppelin/contracts/access/Ownable.sol\":2975:3099  {... */\n  pop\n    /* \"@openzeppelin/contracts/access/Ownable.sol\":2912:3099  function _transferOwnership(address newOwner) internal virtual {... */\n  pop\n  jump\t// out\n    /* \"#utility.yul\":7:133   */\ntag_13:\n    /* \"#utility.yul\":44:51   */\n  0x00\n    /* \"#utility.yul\":84:126   */\n  0xffffffffffffffffffffffffffffffffffffffff\n    /* \"#utility.yul\":77:82   */\n  dup3\n    /* \"#utility.yul\":73:127   */\n  and\n    /* \"#utility.yul\":62:127   */\n  swap1\n  pop\n    /* \"#utility.yul\":7:133   */\n  swap2\n  swap1\n  pop\n  jump\t// out\n    /* \"#utility.yul\":139:235   */\ntag_14:\n    /* \"#utility.yul\":176:183   */\n  0x00\n    /* \"#utility.yul\":205:229   */\n  tag_19\n    /* \"#utility.yul\":223:228   */\n  dup3\n    /* \"#utility.yul\":205:229   */\n  tag_13\n  jump\t// in\ntag_19:\n    /* \"#utility.yul\":194:229   */\n  swap1\n  pop\n    /* \"#utility.yul\":139:235   */\n  swap2\n  swap1\n  pop\n  jump\t// out\n    /* \"#utility.yul\":241:359   */\ntag_15:\n    /* \"#utility.yul\":328:352   */\n  tag_21\n    /* \"#utility.yul\":346:351   */\n  dup2\n    /* \"#utility.yul\":328:352   */\n  tag_14\n  jump\t// in\ntag_21:\n    /* \"#utility.yul\":323:326   */\n  dup3\n    /* \"#utility.yul\":316:353   */\n  mstore\n    /* \"#utility.yul\":241:359   */\n  pop\n  pop\n  jump\t// out\n    /* \"#utility.yul\":365:587   */\ntag_7:\n    /* \"#utility.yul\":458:462   */\n  0x00\n    /* \"#utility.yul\":496:498   */\n  0x20\n    /* \"#utility.yul\":485:494   */\n  dup3\n    /* \"#utility.yul\":481:499   */\n  add\n    /* \"#utility.yul\":473:499   */\n  swap1\n  pop\n    /* \"#utility.yul\":509:580   */\n  tag_23\n    /* \"#utility.yul\":577:578   */\n  0x00\n    /* \"#utility.yul\":566:575   */\n  dup4\n    /* \"#utility.yul\":562:579   */\n  add\n    /* \"#utility.yul\":553:559   */\n  dup5\n    /* \"#utility.yul\":509:580   */\n  tag_15\n  jump\t// in\ntag_23:\n    /* \"#utility.yul\":365:587   */\n  swap3\n  swap2\n  pop\n  pop\n  jump\t// out\n    /* \"AlbumTracker.sol\":139:859  contract AlbumTracker is Ownable{... */\ntag_11:\n  dataSize(sub_0)\n  dup1\n  dataOffset(sub_0)\n  0x00\n  codecopy\n  0x00\n  return\nstop\n\nsub_0: assembly {\n        /* \"AlbumTracker.sol\":139:859  contract AlbumTracker is Ownable{... */\n      mstore(0x40, 0x80)\n      callvalue\n      dup1\n      iszero\n      tag_1\n      jumpi\n      0x00\n      dup1\n      revert\n    tag_1:\n      pop\n      jumpi(tag_2, lt(calldatasize, 0x04))\n      shr(0xe0, calldataload(0x00))\n      dup1\n      0x1106ff55\n      eq\n      tag_3\n      jumpi\n      dup1\n      0x715018a6\n      eq\n      tag_4\n      jumpi\n      dup1\n      0x8da5cb5b\n      eq\n      tag_5\n      jumpi\n      dup1\n      0xea5df059\n      eq\n      tag_6\n      jumpi\n      dup1\n      0xf2fde38b\n      eq\n      tag_7\n      jumpi\n    tag_2:\n      0x00\n      dup1\n      revert\n        /* \"AlbumTracker.sol\":496:856  function creatAlbum(uint _price, string memory _title) public onlyOwner {... */\n    tag_3:\n      tag_8\n      0x04\n      dup1\n      calldatasize\n      sub\n      dup2\n      add\n      swap1\n      tag_9\n      swap2\n      swap1\n      tag_10\n      jump\t// in\n    tag_9:\n      tag_11\n      jump\t// in\n    tag_8:\n      stop\n        /* \"@openzeppelin/contracts/access/Ownable.sol\":2293:2394  function renounceOwnership() public virtual onlyOwner {... */\n    tag_4:\n      tag_12\n      tag_13\n      jump\t// in\n    tag_12:\n      stop\n        /* \"@openzeppelin/contracts/access/Ownable.sol\":1638:1723  function owner() public view virtual returns (address) {... */\n    tag_5:\n      tag_14\n      tag_15\n      jump\t// in\n    tag_14:\n      mload(0x40)\n      tag_16\n      swap2\n      swap1\n      tag_17\n      jump\t// in\n    tag_16:\n      mload(0x40)\n      dup1\n      swap2\n      sub\n      swap1\n      return\n        /* \"AlbumTracker.sol\":419:463  mapping (uint => AlbumProduct) public albums */\n    tag_6:\n      tag_18\n      0x04\n      dup1\n      calldatasize\n      sub\n      dup2\n      add\n      swap1\n      tag_19\n      swap2\n      swap1\n      tag_20\n      jump\t// in\n    tag_19:\n      tag_21\n      jump\t// in\n    tag_18:\n      mload(0x40)\n      tag_22\n      swap5\n      swap4\n      swap3\n      swap2\n      swap1\n      tag_23\n      jump\t// in\n    tag_22:\n      mload(0x40)\n      dup1\n      swap2\n      sub\n      swap1\n      return\n        /* \"@openzeppelin/contracts/access/Ownable.sol\":2543:2758  function transferOwnership(address newOwner) public virtual onlyOwner {... */\n    tag_7:\n      tag_24\n      0x04\n      dup1\n      calldatasize\n      sub\n      dup2\n      add\n      swap1\n      tag_25\n      swap2\n      swap1\n      tag_26\n      jump\t// in\n    tag_25:\n      tag_27\n      jump\t// in\n    tag_24:\n      stop\n        /* \"AlbumTracker.sol\":496:856  function creatAlbum(uint _price, string memory _title) public onlyOwner {... */\n    tag_11:\n        /* \"@openzeppelin/contracts/access/Ownable.sol\":1531:1544  _checkOwner() */\n      tag_29\n        /* \"@openzeppelin/contracts/access/Ownable.sol\":1531:1542  _checkOwner */\n      tag_30\n        /* \"@openzeppelin/contracts/access/Ownable.sol\":1531:1544  _checkOwner() */\n      jump\t// in\n    tag_29:\n        /* \"AlbumTracker.sol\":579:593  Album newAlbum */\n      0x00\n        /* \"AlbumTracker.sol\":606:612  _price */\n      dup3\n        /* \"AlbumTracker.sol\":614:620  _title */\n      dup3\n        /* \"AlbumTracker.sol\":596:621  new Album(_price, _title) */\n      mload(0x40)\n      tag_32\n      swap1\n      tag_33\n      jump\t// in\n    tag_32:\n      tag_34\n      swap3\n      swap2\n      swap1\n      tag_35\n      jump\t// in\n    tag_34:\n      mload(0x40)\n      dup1\n      swap2\n      sub\n      swap1\n      0x00\n      create\n      dup1\n      iszero\n      dup1\n      iszero\n      tag_36\n      jumpi\n      returndatasize\n      0x00\n      dup1\n      returndatacopy\n      revert(0x00, returndatasize)\n    tag_36:\n      pop\n        /* \"AlbumTracker.sol\":579:621  Album newAlbum = new Album(_price, _title) */\n      swap1\n      pop\n        /* \"AlbumTracker.sol\":663:671  newAlbum */\n      dup1\n        /* \"AlbumTracker.sol\":634:640  albums */\n      0x01\n        /* \"AlbumTracker.sol\":634:654  albums[currentIndex] */\n      0x00\n        /* \"AlbumTracker.sol\":641:653  currentIndex */\n      sload(0x02)\n        /* \"AlbumTracker.sol\":634:654  albums[currentIndex] */\n      dup2\n      mstore\n      0x20\n      add\n      swap1\n      dup2\n      mstore\n      0x20\n      add\n      0x00\n      keccak256\n        /* \"AlbumTracker.sol\":634:660  albums[currentIndex].album */\n      0x00\n      add\n      0x00\n        /* \"AlbumTracker.sol\":634:671  albums[currentIndex].album = newAlbum */\n      0x0100\n      exp\n      dup2\n      sload\n      dup2\n      0xffffffffffffffffffffffffffffffffffffffff\n      mul\n      not\n      and\n      swap1\n      dup4\n      0xffffffffffffffffffffffffffffffffffffffff\n      and\n      mul\n      or\n      swap1\n      sstore\n      pop\n        /* \"AlbumTracker.sol\":711:729  AlbumState.Created */\n      0x00\n        /* \"AlbumTracker.sol\":682:688  albums */\n      0x01\n        /* \"AlbumTracker.sol\":682:702  albums[currentIndex] */\n      0x00\n        /* \"AlbumTracker.sol\":689:701  currentIndex */\n      sload(0x02)\n        /* \"AlbumTracker.sol\":682:702  albums[currentIndex] */\n      dup2\n      mstore\n      0x20\n      add\n      swap1\n      dup2\n      mstore\n      0x20\n      add\n      0x00\n      keccak256\n        /* \"AlbumTracker.sol\":682:708  albums[currentIndex].state */\n      0x00\n      add\n      0x14\n        /* \"AlbumTracker.sol\":682:729  albums[currentIndex].state = AlbumState.Created */\n      0x0100\n      exp\n      dup2\n      sload\n      dup2\n      0xff\n      mul\n      not\n      and\n      swap1\n      dup4\n      0x02\n      dup2\n      gt\n      iszero\n      tag_37\n      jumpi\n      tag_38\n      tag_39\n      jump\t// in\n    tag_38:\n    tag_37:\n      mul\n      or\n      swap1\n      sstore\n      pop\n        /* \"AlbumTracker.sol\":769:775  _price */\n      dup3\n        /* \"AlbumTracker.sol\":740:746  albums */\n      0x01\n        /* \"AlbumTracker.sol\":740:760  albums[currentIndex] */\n      0x00\n        /* \"AlbumTracker.sol\":747:759  currentIndex */\n      sload(0x02)\n        /* \"AlbumTracker.sol\":740:760  albums[currentIndex] */\n      dup2\n      mstore\n      0x20\n      add\n      swap1\n      dup2\n      mstore\n      0x20\n      add\n      0x00\n      keccak256\n        /* \"AlbumTracker.sol\":740:766  albums[currentIndex].price */\n      0x01\n      add\n        /* \"AlbumTracker.sol\":740:775  albums[currentIndex].price = _price */\n      dup2\n      swap1\n      sstore\n      pop\n        /* \"AlbumTracker.sol\":815:821  _title */\n      dup2\n        /* \"AlbumTracker.sol\":786:792  albums */\n      0x01\n        /* \"AlbumTracker.sol\":786:806  albums[currentIndex] */\n      0x00\n        /* \"AlbumTracker.sol\":793:805  currentIndex */\n      sload(0x02)\n        /* \"AlbumTracker.sol\":786:806  albums[currentIndex] */\n      dup2\n      mstore\n      0x20\n      add\n      swap1\n      dup2\n      mstore\n      0x20\n      add\n      0x00\n      keccak256\n        /* \"AlbumTracker.sol\":786:812  albums[currentIndex].title */\n      0x02\n      add\n        /* \"AlbumTracker.sol\":786:821  albums[currentIndex].title = _title */\n      swap1\n      dup2\n      tag_40\n      swap2\n      swap1\n      tag_41\n      jump\t// in\n    tag_40:\n      pop\n        /* \"AlbumTracker.sol\":834:846  currentIndex */\n      0x02\n      0x00\n        /* \"AlbumTracker.sol\":834:848  currentIndex++ */\n      dup2\n      sload\n      dup1\n      swap3\n      swap2\n      swap1\n      tag_42\n      swap1\n      tag_43\n      jump\t// in\n    tag_42:\n      swap2\n      swap1\n      pop\n      sstore\n      pop\n        /* \"AlbumTracker.sol\":568:856  {... */\n      pop\n        /* \"AlbumTracker.sol\":496:856  function creatAlbum(uint _price, string memory _title) public onlyOwner {... */\n      pop\n      pop\n      jump\t// out\n        /* \"@openzeppelin/contracts/access/Ownable.sol\":2293:2394  function renounceOwnership() public virtual onlyOwner {... */\n    tag_13:\n        /* \"@openzeppelin/contracts/access/Ownable.sol\":1531:1544  _checkOwner() */\n      tag_45\n        /* \"@openzeppelin/contracts/access/Ownable.sol\":1531:1542  _checkOwner */\n      tag_30\n        /* \"@openzeppelin/contracts/access/Ownable.sol\":1531:1544  _checkOwner() */\n      jump\t// in\n    tag_45:\n        /* \"@openzeppelin/contracts/access/Ownable.sol\":2357:2387  _transferOwnership(address(0)) */\n      tag_47\n        /* \"@openzeppelin/contracts/access/Ownable.sol\":2384:2385  0 */\n      0x00\n        /* \"@openzeppelin/contracts/access/Ownable.sol\":2357:2375  _transferOwnership */\n      tag_48\n        /* \"@openzeppelin/contracts/access/Ownable.sol\":2357:2387  _transferOwnership(address(0)) */\n      jump\t// in\n    tag_47:\n        /* \"@openzeppelin/contracts/access/Ownable.sol\":2293:2394  function renounceOwnership() public virtual onlyOwner {... */\n      jump\t// out\n        /* \"@openzeppelin/contracts/access/Ownable.sol\":1638:1723  function owner() public view virtual returns (address) {... */\n    tag_15:\n        /* \"@openzeppelin/contracts/access/Ownable.sol\":1684:1691  address */\n      0x00\n        /* \"@openzeppelin/contracts/access/Ownable.sol\":1710:1716  _owner */\n      dup1\n      0x00\n      swap1\n      sload\n      swap1\n      0x0100\n      exp\n      swap1\n      div\n      0xffffffffffffffffffffffffffffffffffffffff\n      and\n        /* \"@openzeppelin/contracts/access/Ownable.sol\":1703:1716  return _owner */\n      swap1\n      pop\n        /* \"@openzeppelin/contracts/access/Ownable.sol\":1638:1723  function owner() public view virtual returns (address) {... */\n      swap1\n      jump\t// out\n        /* \"AlbumTracker.sol\":419:463  mapping (uint => AlbumProduct) public albums */\n    tag_21:\n      mstore(0x20, 0x01)\n      dup1\n      0x00\n      mstore\n      keccak256(0x00, 0x40)\n      0x00\n      swap2\n      pop\n      swap1\n      pop\n      dup1\n      0x00\n      add\n      0x00\n      swap1\n      sload\n      swap1\n      0x0100\n      exp\n      swap1\n      div\n      0xffffffffffffffffffffffffffffffffffffffff\n      and\n      swap1\n      dup1\n      0x00\n      add\n      0x14\n      swap1\n      sload\n      swap1\n      0x0100\n      exp\n      swap1\n      div\n      0xff\n      and\n      swap1\n      dup1\n      0x01\n      add\n      sload\n      swap1\n      dup1\n      0x02\n      add\n      dup1\n      sload\n      tag_50\n      swap1\n      tag_51\n      jump\t// in\n    tag_50:\n      dup1\n      0x1f\n      add\n      0x20\n      dup1\n      swap2\n      div\n      mul\n      0x20\n      add\n      mload(0x40)\n      swap1\n      dup2\n      add\n      0x40\n      mstore\n      dup1\n      swap3\n      swap2\n      swap1\n      dup2\n      dup2\n      mstore\n      0x20\n      add\n      dup3\n      dup1\n      sload\n      tag_52\n      swap1\n      tag_51\n      jump\t// in\n    tag_52:\n      dup1\n      iszero\n      tag_53\n      jumpi\n      dup1\n      0x1f\n      lt\n      tag_54\n      jumpi\n      0x0100\n      dup1\n      dup4\n      sload\n      div\n      mul\n      dup4\n      mstore\n      swap2\n      0x20\n      add\n      swap2\n      jump(tag_53)\n    tag_54:\n      dup3\n      add\n      swap2\n      swap1\n      0x00\n      mstore\n      keccak256(0x00, 0x20)\n      swap1\n    tag_55:\n      dup2\n      sload\n      dup2\n      mstore\n      swap1\n      0x01\n      add\n      swap1\n      0x20\n      add\n      dup1\n      dup4\n      gt\n      tag_55\n      jumpi\n      dup3\n      swap1\n      sub\n      0x1f\n      and\n      dup3\n      add\n      swap2\n    tag_53:\n      pop\n      pop\n      pop\n      pop\n      pop\n      swap1\n      pop\n      dup5\n      jump\t// out\n        /* \"@openzeppelin/contracts/access/Ownable.sol\":2543:2758  function transferOwnership(address newOwner) public virtual onlyOwner {... */\n    tag_27:\n        /* \"@openzeppelin/contracts/access/Ownable.sol\":1531:1544  _checkOwner() */\n      tag_57\n        /* \"@openzeppelin/contracts/access/Ownable.sol\":1531:1542  _checkOwner */\n      tag_30\n        /* \"@openzeppelin/contracts/access/Ownable.sol\":1531:1544  _checkOwner() */\n      jump\t// in\n    tag_57:\n        /* \"@openzeppelin/contracts/access/Ownable.sol\":2647:2648  0 */\n      0x00\n        /* \"@openzeppelin/contracts/access/Ownable.sol\":2627:2649  newOwner == address(0) */\n      0xffffffffffffffffffffffffffffffffffffffff\n      and\n        /* \"@openzeppelin/contracts/access/Ownable.sol\":2627:2635  newOwner */\n      dup2\n        /* \"@openzeppelin/contracts/access/Ownable.sol\":2627:2649  newOwner == address(0) */\n      0xffffffffffffffffffffffffffffffffffffffff\n      and\n      sub\n        /* \"@openzeppelin/contracts/access/Ownable.sol\":2623:2714  if (newOwner == address(0)) {... */\n      tag_59\n      jumpi\n        /* \"@openzeppelin/contracts/access/Ownable.sol\":2700:2701  0 */\n      0x00\n        /* \"@openzeppelin/contracts/access/Ownable.sol\":2672:2703  OwnableInvalidOwner(address(0)) */\n      mload(0x40)\n      0x1e4fbdf700000000000000000000000000000000000000000000000000000000\n      dup2\n      mstore\n      0x04\n      add\n      tag_60\n      swap2\n      swap1\n      tag_17\n      jump\t// in\n    tag_60:\n      mload(0x40)\n      dup1\n      swap2\n      sub\n      swap1\n      revert\n        /* \"@openzeppelin/contracts/access/Ownable.sol\":2623:2714  if (newOwner == address(0)) {... */\n    tag_59:\n        /* \"@openzeppelin/contracts/access/Ownable.sol\":2723:2751  _transferOwnership(newOwner) */\n      tag_61\n        /* \"@openzeppelin/contracts/access/Ownable.sol\":2742:2750  newOwner */\n      dup2\n        /* \"@openzeppelin/contracts/access/Ownable.sol\":2723:2741  _transferOwnership */\n      tag_48\n        /* \"@openzeppelin/contracts/access/Ownable.sol\":2723:2751  _transferOwnership(newOwner) */\n      jump\t// in\n    tag_61:\n        /* \"@openzeppelin/contracts/access/Ownable.sol\":2543:2758  function transferOwnership(address newOwner) public virtual onlyOwner {... */\n      pop\n      jump\t// out\n        /* \"@openzeppelin/contracts/access/Ownable.sol\":1796:1958  function _checkOwner() internal view virtual {... */\n    tag_30:\n        /* \"@openzeppelin/contracts/access/Ownable.sol\":1866:1878  _msgSender() */\n      tag_63\n        /* \"@openzeppelin/contracts/access/Ownable.sol\":1866:1876  _msgSender */\n      tag_64\n        /* \"@openzeppelin/contracts/access/Ownable.sol\":1866:1878  _msgSender() */\n      jump\t// in\n    tag_63:\n        /* \"@openzeppelin/contracts/access/Ownable.sol\":1855:1878  owner() != _msgSender() */\n      0xffffffffffffffffffffffffffffffffffffffff\n      and\n        /* \"@openzeppelin/contracts/access/Ownable.sol\":1855:1862  owner() */\n      tag_65\n        /* \"@openzeppelin/contracts/access/Ownable.sol\":1855:1860  owner */\n      tag_15\n        /* \"@openzeppelin/contracts/access/Ownable.sol\":1855:1862  owner() */\n      jump\t// in\n    tag_65:\n        /* \"@openzeppelin/contracts/access/Ownable.sol\":1855:1878  owner() != _msgSender() */\n      0xffffffffffffffffffffffffffffffffffffffff\n      and\n      eq\n        /* \"@openzeppelin/contracts/access/Ownable.sol\":1851:1952  if (owner() != _msgSender()) {... */\n      tag_66\n      jumpi\n        /* \"@openzeppelin/contracts/access/Ownable.sol\":1928:1940  _msgSender() */\n      tag_67\n        /* \"@openzeppelin/contracts/access/Ownable.sol\":1928:1938  _msgSender */\n      tag_64\n        /* \"@openzeppelin/contracts/access/Ownable.sol\":1928:1940  _msgSender() */\n      jump\t// in\n    tag_67:\n        /* \"@openzeppelin/contracts/access/Ownable.sol\":1901:1941  OwnableUnauthorizedAccount(_msgSender()) */\n      mload(0x40)\n      0x118cdaa700000000000000000000000000000000000000000000000000000000\n      dup2\n      mstore\n      0x04\n      add\n      tag_68\n      swap2\n      swap1\n      tag_17\n      jump\t// in\n    tag_68:\n      mload(0x40)\n      dup1\n      swap2\n      sub\n      swap1\n      revert\n        /* \"@openzeppelin/contracts/access/Ownable.sol\":1851:1952  if (owner() != _msgSender()) {... */\n    tag_66:\n        /* \"@openzeppelin/contracts/access/Ownable.sol\":1796:1958  function _checkOwner() internal view virtual {... */\n      jump\t// out\n        /* \"@openzeppelin/contracts/access/Ownable.sol\":2912:3099  function _transferOwnership(address newOwner) internal virtual {... */\n    tag_48:\n        /* \"@openzeppelin/contracts/access/Ownable.sol\":2985:3001  address oldOwner */\n      0x00\n        /* \"@openzeppelin/contracts/access/Ownable.sol\":3004:3010  _owner */\n      dup1\n      0x00\n      swap1\n      sload\n      swap1\n      0x0100\n      exp\n      swap1\n      div\n      0xffffffffffffffffffffffffffffffffffffffff\n      and\n        /* \"@openzeppelin/contracts/access/Ownable.sol\":2985:3010  address oldOwner = _owner */\n      swap1\n      pop\n        /* \"@openzeppelin/contracts/access/Ownable.sol\":3029:3037  newOwner */\n      dup2\n        /* \"@openzeppelin/contracts/access/Ownable.sol\":3020:3026  _owner */\n      0x00\n      dup1\n        /* \"@openzeppelin/contracts/access/Ownable.sol\":3020:3037  _owner = newOwner */\n      0x0100\n      exp\n      dup2\n      sload\n      dup2\n      0xffffffffffffffffffffffffffffffffffffffff\n      mul\n      not\n      and\n      swap1\n      dup4\n      0xffffffffffffffffffffffffffffffffffffffff\n      and\n      mul\n      or\n      swap1\n      sstore\n      pop\n        /* \"@openzeppelin/contracts/access/Ownable.sol\":3083:3091  newOwner */\n      dup2\n        /* \"@openzeppelin/contracts/access/Ownable.sol\":3052:3092  OwnershipTransferred(oldOwner, newOwner) */\n      0xffffffffffffffffffffffffffffffffffffffff\n      and\n        /* \"@openzeppelin/contracts/access/Ownable.sol\":3073:3081  oldOwner */\n      dup2\n        /* \"@openzeppelin/contracts/access/Ownable.sol\":3052:3092  OwnershipTransferred(oldOwner, newOwner) */\n      0xffffffffffffffffffffffffffffffffffffffff\n      and\n      0x8be0079c531659141344cd1fd0a4f28419497f9722a3daafe3b4186f6b6457e0\n      mload(0x40)\n      mload(0x40)\n      dup1\n      swap2\n      sub\n      swap1\n      log3\n        /* \"@openzeppelin/contracts/access/Ownable.sol\":2975:3099  {... */\n      pop\n        /* \"@openzeppelin/contracts/access/Ownable.sol\":2912:3099  function _transferOwnership(address newOwner) internal virtual {... */\n      pop\n      jump\t// out\n        /* \"@openzeppelin/contracts/utils/Context.sol\":656:752  function _msgSender() internal view virtual returns (address) {... */\n    tag_64:\n        /* \"@openzeppelin/contracts/utils/Context.sol\":709:716  address */\n      0x00\n        /* \"@openzeppelin/contracts/utils/Context.sol\":735:745  msg.sender */\n      caller\n        /* \"@openzeppelin/contracts/utils/Context.sol\":728:745  return msg.sender */\n      swap1\n      pop\n        /* \"@openzeppelin/contracts/utils/Context.sol\":656:752  function _msgSender() internal view virtual returns (address) {... */\n      swap1\n      jump\t// out\n    tag_33:\n      dataSize(sub_0)\n      dup1\n      dataOffset(sub_0)\n      dup4\n      codecopy\n      add\n      swap1\n      jump\t// out\n        /* \"#utility.yul\":7:82   */\n    tag_71:\n        /* \"#utility.yul\":40:46   */\n      0x00\n        /* \"#utility.yul\":73:75   */\n      0x40\n        /* \"#utility.yul\":67:76   */\n      mload\n        /* \"#utility.yul\":57:76   */\n      swap1\n      pop\n        /* \"#utility.yul\":7:82   */\n      swap1\n      jump\t// out\n        /* \"#utility.yul\":88:205   */\n    tag_72:\n        /* \"#utility.yul\":197:198   */\n      0x00\n        /* \"#utility.yul\":194:195   */\n      dup1\n        /* \"#utility.yul\":187:199   */\n      revert\n        /* \"#utility.yul\":211:328   */\n    tag_73:\n        /* \"#utility.yul\":320:321   */\n      0x00\n        /* \"#utility.yul\":317:318   */\n      dup1\n        /* \"#utility.yul\":310:322   */\n      revert\n        /* \"#utility.yul\":334:411   */\n    tag_74:\n        /* \"#utility.yul\":371:378   */\n      0x00\n        /* \"#utility.yul\":400:405   */\n      dup2\n        /* \"#utility.yul\":389:405   */\n      swap1\n      pop\n        /* \"#utility.yul\":334:411   */\n      swap2\n      swap1\n      pop\n      jump\t// out\n        /* \"#utility.yul\":417:539   */\n    tag_75:\n        /* \"#utility.yul\":490:514   */\n      tag_128\n        /* \"#utility.yul\":508:513   */\n      dup2\n        /* \"#utility.yul\":490:514   */\n      tag_74\n      jump\t// in\n    tag_128:\n        /* \"#utility.yul\":483:488   */\n      dup2\n        /* \"#utility.yul\":480:515   */\n      eq\n        /* \"#utility.yul\":470:533   */\n      tag_129\n      jumpi\n        /* \"#utility.yul\":529:530   */\n      0x00\n        /* \"#utility.yul\":526:527   */\n      dup1\n        /* \"#utility.yul\":519:531   */\n      revert\n        /* \"#utility.yul\":470:533   */\n    tag_129:\n        /* \"#utility.yul\":417:539   */\n      pop\n      jump\t// out\n        /* \"#utility.yul\":545:684   */\n    tag_76:\n        /* \"#utility.yul\":591:596   */\n      0x00\n        /* \"#utility.yul\":629:635   */\n      dup2\n        /* \"#utility.yul\":616:636   */\n      calldataload\n        /* \"#utility.yul\":607:636   */\n      swap1\n      pop\n        /* \"#utility.yul\":645:678   */\n      tag_131\n        /* \"#utility.yul\":672:677   */\n      dup2\n        /* \"#utility.yul\":645:678   */\n      tag_75\n      jump\t// in\n    tag_131:\n        /* \"#utility.yul\":545:684   */\n      swap3\n      swap2\n      pop\n      pop\n      jump\t// out\n        /* \"#utility.yul\":690:807   */\n    tag_77:\n        /* \"#utility.yul\":799:800   */\n      0x00\n        /* \"#utility.yul\":796:797   */\n      dup1\n        /* \"#utility.yul\":789:801   */\n      revert\n        /* \"#utility.yul\":813:930   */\n    tag_78:\n        /* \"#utility.yul\":922:923   */\n      0x00\n        /* \"#utility.yul\":919:920   */\n      dup1\n        /* \"#utility.yul\":912:924   */\n      revert\n        /* \"#utility.yul\":936:1038   */\n    tag_79:\n        /* \"#utility.yul\":977:983   */\n      0x00\n        /* \"#utility.yul\":1028:1030   */\n      0x1f\n        /* \"#utility.yul\":1024:1031   */\n      not\n        /* \"#utility.yul\":1019:1021   */\n      0x1f\n        /* \"#utility.yul\":1012:1017   */\n      dup4\n        /* \"#utility.yul\":1008:1022   */\n      add\n        /* \"#utility.yul\":1004:1032   */\n      and\n        /* \"#utility.yul\":994:1032   */\n      swap1\n      pop\n        /* \"#utility.yul\":936:1038   */\n      swap2\n      swap1\n      pop\n      jump\t// out\n        /* \"#utility.yul\":1044:1224   */\n    tag_80:\n        /* \"#utility.yul\":1092:1169   */\n      0x4e487b7100000000000000000000000000000000000000000000000000000000\n        /* \"#utility.yul\":1089:1090   */\n      0x00\n        /* \"#utility.yul\":1082:1170   */\n      mstore\n        /* \"#utility.yul\":1189:1193   */\n      0x41\n        /* \"#utility.yul\":1186:1187   */\n      0x04\n        /* \"#utility.yul\":1179:1194   */\n      mstore\n        /* \"#utility.yul\":1213:1217   */\n      0x24\n        /* \"#utility.yul\":1210:1211   */\n      0x00\n        /* \"#utility.yul\":1203:1218   */\n      revert\n        /* \"#utility.yul\":1230:1511   */\n    tag_81:\n        /* \"#utility.yul\":1313:1340   */\n      tag_137\n        /* \"#utility.yul\":1335:1339   */\n      dup3\n        /* \"#utility.yul\":1313:1340   */\n      tag_79\n      jump\t// in\n    tag_137:\n        /* \"#utility.yul\":1305:1311   */\n      dup2\n        /* \"#utility.yul\":1301:1341   */\n      add\n        /* \"#utility.yul\":1443:1449   */\n      dup2\n        /* \"#utility.yul\":1431:1441   */\n      dup2\n        /* \"#utility.yul\":1428:1450   */\n      lt\n        /* \"#utility.yul\":1407:1425   */\n      0xffffffffffffffff\n        /* \"#utility.yul\":1395:1405   */\n      dup3\n        /* \"#utility.yul\":1392:1426   */\n      gt\n        /* \"#utility.yul\":1389:1451   */\n      or\n        /* \"#utility.yul\":1386:1474   */\n      iszero\n      tag_138\n      jumpi\n        /* \"#utility.yul\":1454:1472   */\n      tag_139\n      tag_80\n      jump\t// in\n    tag_139:\n        /* \"#utility.yul\":1386:1474   */\n    tag_138:\n        /* \"#utility.yul\":1494:1504   */\n      dup1\n        /* \"#utility.yul\":1490:1492   */\n      0x40\n        /* \"#utility.yul\":1483:1505   */\n      mstore\n        /* \"#utility.yul\":1273:1511   */\n      pop\n        /* \"#utility.yul\":1230:1511   */\n      pop\n      pop\n      jump\t// out\n        /* \"#utility.yul\":1517:1646   */\n    tag_82:\n        /* \"#utility.yul\":1551:1557   */\n      0x00\n        /* \"#utility.yul\":1578:1598   */\n      tag_141\n      tag_71\n      jump\t// in\n    tag_141:\n        /* \"#utility.yul\":1568:1598   */\n      swap1\n      pop\n        /* \"#utility.yul\":1607:1640   */\n      tag_142\n        /* \"#utility.yul\":1635:1639   */\n      dup3\n        /* \"#utility.yul\":1627:1633   */\n      dup3\n        /* \"#utility.yul\":1607:1640   */\n      tag_81\n      jump\t// in\n    tag_142:\n        /* \"#utility.yul\":1517:1646   */\n      swap2\n      swap1\n      pop\n      jump\t// out\n        /* \"#utility.yul\":1652:1960   */\n    tag_83:\n        /* \"#utility.yul\":1714:1718   */\n      0x00\n        /* \"#utility.yul\":1804:1822   */\n      0xffffffffffffffff\n        /* \"#utility.yul\":1796:1802   */\n      dup3\n        /* \"#utility.yul\":1793:1823   */\n      gt\n        /* \"#utility.yul\":1790:1846   */\n      iszero\n      tag_144\n      jumpi\n        /* \"#utility.yul\":1826:1844   */\n      tag_145\n      tag_80\n      jump\t// in\n    tag_145:\n        /* \"#utility.yul\":1790:1846   */\n    tag_144:\n        /* \"#utility.yul\":1864:1893   */\n      tag_146\n        /* \"#utility.yul\":1886:1892   */\n      dup3\n        /* \"#utility.yul\":1864:1893   */\n      tag_79\n      jump\t// in\n    tag_146:\n        /* \"#utility.yul\":1856:1893   */\n      swap1\n      pop\n        /* \"#utility.yul\":1948:1952   */\n      0x20\n        /* \"#utility.yul\":1942:1946   */\n      dup2\n        /* \"#utility.yul\":1938:1953   */\n      add\n        /* \"#utility.yul\":1930:1953   */\n      swap1\n      pop\n        /* \"#utility.yul\":1652:1960   */\n      swap2\n      swap1\n      pop\n      jump\t// out\n        /* \"#utility.yul\":1966:2112   */\n    tag_84:\n        /* \"#utility.yul\":2063:2069   */\n      dup3\n        /* \"#utility.yul\":2058:2061   */\n      dup2\n        /* \"#utility.yul\":2053:2056   */\n      dup4\n        /* \"#utility.yul\":2040:2070   */\n      calldatacopy\n        /* \"#utility.yul\":2104:2105   */\n      0x00\n        /* \"#utility.yul\":2095:2101   */\n      dup4\n        /* \"#utility.yul\":2090:2093   */\n      dup4\n        /* \"#utility.yul\":2086:2102   */\n      add\n        /* \"#utility.yul\":2079:2106   */\n      mstore\n        /* \"#utility.yul\":1966:2112   */\n      pop\n      pop\n      pop\n      jump\t// out\n        /* \"#utility.yul\":2118:2543   */\n    tag_85:\n        /* \"#utility.yul\":2196:2201   */\n      0x00\n        /* \"#utility.yul\":2221:2287   */\n      tag_149\n        /* \"#utility.yul\":2237:2286   */\n      tag_150\n        /* \"#utility.yul\":2279:2285   */\n      dup5\n        /* \"#utility.yul\":2237:2286   */\n      tag_83\n      jump\t// in\n    tag_150:\n        /* \"#utility.yul\":2221:2287   */\n      tag_82\n      jump\t// in\n    tag_149:\n        /* \"#utility.yul\":2212:2287   */\n      swap1\n      pop\n        /* \"#utility.yul\":2310:2316   */\n      dup3\n        /* \"#utility.yul\":2303:2308   */\n      dup2\n        /* \"#utility.yul\":2296:2317   */\n      mstore\n        /* \"#utility.yul\":2348:2352   */\n      0x20\n        /* \"#utility.yul\":2341:2346   */\n      dup2\n        /* \"#utility.yul\":2337:2353   */\n      add\n        /* \"#utility.yul\":2386:2389   */\n      dup5\n        /* \"#utility.yul\":2377:2383   */\n      dup5\n        /* \"#utility.yul\":2372:2375   */\n      dup5\n        /* \"#utility.yul\":2368:2384   */\n      add\n        /* \"#utility.yul\":2365:2390   */\n      gt\n        /* \"#utility.yul\":2362:2474   */\n      iszero\n      tag_151\n      jumpi\n        /* \"#utility.yul\":2393:2472   */\n      tag_152\n      tag_78\n      jump\t// in\n    tag_152:\n        /* \"#utility.yul\":2362:2474   */\n    tag_151:\n        /* \"#utility.yul\":2483:2537   */\n      tag_153\n        /* \"#utility.yul\":2530:2536   */\n      dup5\n        /* \"#utility.yul\":2525:2528   */\n      dup3\n        /* \"#utility.yul\":2520:2523   */\n      dup6\n        /* \"#utility.yul\":2483:2537   */\n      tag_84\n      jump\t// in\n    tag_153:\n        /* \"#utility.yul\":2202:2543   */\n      pop\n        /* \"#utility.yul\":2118:2543   */\n      swap4\n      swap3\n      pop\n      pop\n      pop\n      jump\t// out\n        /* \"#utility.yul\":2563:2903   */\n    tag_86:\n        /* \"#utility.yul\":2619:2624   */\n      0x00\n        /* \"#utility.yul\":2668:2671   */\n      dup3\n        /* \"#utility.yul\":2661:2665   */\n      0x1f\n        /* \"#utility.yul\":2653:2659   */\n      dup4\n        /* \"#utility.yul\":2649:2666   */\n      add\n        /* \"#utility.yul\":2645:2672   */\n      slt\n        /* \"#utility.yul\":2635:2757   */\n      tag_155\n      jumpi\n        /* \"#utility.yul\":2676:2755   */\n      tag_156\n      tag_77\n      jump\t// in\n    tag_156:\n        /* \"#utility.yul\":2635:2757   */\n    tag_155:\n        /* \"#utility.yul\":2793:2799   */\n      dup2\n        /* \"#utility.yul\":2780:2800   */\n      calldataload\n        /* \"#utility.yul\":2818:2897   */\n      tag_157\n        /* \"#utility.yul\":2893:2896   */\n      dup5\n        /* \"#utility.yul\":2885:2891   */\n      dup3\n        /* \"#utility.yul\":2878:2882   */\n      0x20\n        /* \"#utility.yul\":2870:2876   */\n      dup7\n        /* \"#utility.yul\":2866:2883   */\n      add\n        /* \"#utility.yul\":2818:2897   */\n      tag_85\n      jump\t// in\n    tag_157:\n        /* \"#utility.yul\":2809:2897   */\n      swap2\n      pop\n        /* \"#utility.yul\":2625:2903   */\n      pop\n        /* \"#utility.yul\":2563:2903   */\n      swap3\n      swap2\n      pop\n      pop\n      jump\t// out\n        /* \"#utility.yul\":2909:3563   */\n    tag_10:\n        /* \"#utility.yul\":2987:2993   */\n      0x00\n        /* \"#utility.yul\":2995:3001   */\n      dup1\n        /* \"#utility.yul\":3044:3046   */\n      0x40\n        /* \"#utility.yul\":3032:3041   */\n      dup4\n        /* \"#utility.yul\":3023:3030   */\n      dup6\n        /* \"#utility.yul\":3019:3042   */\n      sub\n        /* \"#utility.yul\":3015:3047   */\n      slt\n        /* \"#utility.yul\":3012:3131   */\n      iszero\n      tag_159\n      jumpi\n        /* \"#utility.yul\":3050:3129   */\n      tag_160\n      tag_72\n      jump\t// in\n    tag_160:\n        /* \"#utility.yul\":3012:3131   */\n    tag_159:\n        /* \"#utility.yul\":3170:3171   */\n      0x00\n        /* \"#utility.yul\":3195:3248   */\n      tag_161\n        /* \"#utility.yul\":3240:3247   */\n      dup6\n        /* \"#utility.yul\":3231:3237   */\n      dup3\n        /* \"#utility.yul\":3220:3229   */\n      dup7\n        /* \"#utility.yul\":3216:3238   */\n      add\n        /* \"#utility.yul\":3195:3248   */\n      tag_76\n      jump\t// in\n    tag_161:\n        /* \"#utility.yul\":3185:3248   */\n      swap3\n      pop\n        /* \"#utility.yul\":3141:3258   */\n      pop\n        /* \"#utility.yul\":3325:3327   */\n      0x20\n        /* \"#utility.yul\":3314:3323   */\n      dup4\n        /* \"#utility.yul\":3310:3328   */\n      add\n        /* \"#utility.yul\":3297:3329   */\n      calldataload\n        /* \"#utility.yul\":3356:3374   */\n      0xffffffffffffffff\n        /* \"#utility.yul\":3348:3354   */\n      dup2\n        /* \"#utility.yul\":3345:3375   */\n      gt\n        /* \"#utility.yul\":3342:3459   */\n      iszero\n      tag_162\n      jumpi\n        /* \"#utility.yul\":3378:3457   */\n      tag_163\n      tag_73\n      jump\t// in\n    tag_163:\n        /* \"#utility.yul\":3342:3459   */\n    tag_162:\n        /* \"#utility.yul\":3483:3546   */\n      tag_164\n        /* \"#utility.yul\":3538:3545   */\n      dup6\n        /* \"#utility.yul\":3529:3535   */\n      dup3\n        /* \"#utility.yul\":3518:3527   */\n      dup7\n        /* \"#utility.yul\":3514:3536   */\n      add\n        /* \"#utility.yul\":3483:3546   */\n      tag_86\n      jump\t// in\n    tag_164:\n        /* \"#utility.yul\":3473:3546   */\n      swap2\n      pop\n        /* \"#utility.yul\":3268:3556   */\n      pop\n        /* \"#utility.yul\":2909:3563   */\n      swap3\n      pop\n      swap3\n      swap1\n      pop\n      jump\t// out\n        /* \"#utility.yul\":3569:3695   */\n    tag_87:\n        /* \"#utility.yul\":3606:3613   */\n      0x00\n        /* \"#utility.yul\":3646:3688   */\n      0xffffffffffffffffffffffffffffffffffffffff\n        /* \"#utility.yul\":3639:3644   */\n      dup3\n        /* \"#utility.yul\":3635:3689   */\n      and\n        /* \"#utility.yul\":3624:3689   */\n      swap1\n      pop\n        /* \"#utility.yul\":3569:3695   */\n      swap2\n      swap1\n      pop\n      jump\t// out\n        /* \"#utility.yul\":3701:3797   */\n    tag_88:\n        /* \"#utility.yul\":3738:3745   */\n      0x00\n        /* \"#utility.yul\":3767:3791   */\n      tag_167\n        /* \"#utility.yul\":3785:3790   */\n      dup3\n        /* \"#utility.yul\":3767:3791   */\n      tag_87\n      jump\t// in\n    tag_167:\n        /* \"#utility.yul\":3756:3791   */\n      swap1\n      pop\n        /* \"#utility.yul\":3701:3797   */\n      swap2\n      swap1\n      pop\n      jump\t// out\n        /* \"#utility.yul\":3803:3921   */\n    tag_89:\n        /* \"#utility.yul\":3890:3914   */\n      tag_169\n        /* \"#utility.yul\":3908:3913   */\n      dup2\n        /* \"#utility.yul\":3890:3914   */\n      tag_88\n      jump\t// in\n    tag_169:\n        /* \"#utility.yul\":3885:3888   */\n      dup3\n        /* \"#utility.yul\":3878:3915   */\n      mstore\n        /* \"#utility.yul\":3803:3921   */\n      pop\n      pop\n      jump\t// out\n        /* \"#utility.yul\":3927:4149   */\n    tag_17:\n        /* \"#utility.yul\":4020:4024   */\n      0x00\n        /* \"#utility.yul\":4058:4060   */\n      0x20\n        /* \"#utility.yul\":4047:4056   */\n      dup3\n        /* \"#utility.yul\":4043:4061   */\n      add\n        /* \"#utility.yul\":4035:4061   */\n      swap1\n      pop\n        /* \"#utility.yul\":4071:4142   */\n      tag_171\n        /* \"#utility.yul\":4139:4140   */\n      0x00\n        /* \"#utility.yul\":4128:4137   */\n      dup4\n        /* \"#utility.yul\":4124:4141   */\n      add\n        /* \"#utility.yul\":4115:4121   */\n      dup5\n        /* \"#utility.yul\":4071:4142   */\n      tag_89\n      jump\t// in\n    tag_171:\n        /* \"#utility.yul\":3927:4149   */\n      swap3\n      swap2\n      pop\n      pop\n      jump\t// out\n        /* \"#utility.yul\":4155:4484   */\n    tag_20:\n        /* \"#utility.yul\":4214:4220   */\n      0x00\n        /* \"#utility.yul\":4263:4265   */\n      0x20\n        /* \"#utility.yul\":4251:4260   */\n      dup3\n        /* \"#utility.yul\":4242:4249   */\n      dup5\n        /* \"#utility.yul\":4238:4261   */\n      sub\n        /* \"#utility.yul\":4234:4266   */\n      slt\n        /* \"#utility.yul\":4231:4350   */\n      iszero\n      tag_173\n      jumpi\n        /* \"#utility.yul\":4269:4348   */\n      tag_174\n      tag_72\n      jump\t// in\n    tag_174:\n        /* \"#utility.yul\":4231:4350   */\n    tag_173:\n        /* \"#utility.yul\":4389:4390   */\n      0x00\n        /* \"#utility.yul\":4414:4467   */\n      tag_175\n        /* \"#utility.yul\":4459:4466   */\n      dup5\n        /* \"#utility.yul\":4450:4456   */\n      dup3\n        /* \"#utility.yul\":4439:4448   */\n      dup6\n        /* \"#utility.yul\":4435:4457   */\n      add\n        /* \"#utility.yul\":4414:4467   */\n      tag_76\n      jump\t// in\n    tag_175:\n        /* \"#utility.yul\":4404:4467   */\n      swap2\n      pop\n        /* \"#utility.yul\":4360:4477   */\n      pop\n        /* \"#utility.yul\":4155:4484   */\n      swap3\n      swap2\n      pop\n      pop\n      jump\t// out\n        /* \"#utility.yul\":4490:4550   */\n    tag_90:\n        /* \"#utility.yul\":4518:4521   */\n      0x00\n        /* \"#utility.yul\":4539:4544   */\n      dup2\n        /* \"#utility.yul\":4532:4544   */\n      swap1\n      pop\n        /* \"#utility.yul\":4490:4550   */\n      swap2\n      swap1\n      pop\n      jump\t// out\n        /* \"#utility.yul\":4556:4698   */\n    tag_91:\n        /* \"#utility.yul\":4606:4615   */\n      0x00\n        /* \"#utility.yul\":4639:4692   */\n      tag_178\n        /* \"#utility.yul\":4657:4691   */\n      tag_179\n        /* \"#utility.yul\":4666:4690   */\n      tag_180\n        /* \"#utility.yul\":4684:4689   */\n      dup5\n        /* \"#utility.yul\":4666:4690   */\n      tag_87\n      jump\t// in\n    tag_180:\n        /* \"#utility.yul\":4657:4691   */\n      tag_90\n      jump\t// in\n    tag_179:\n        /* \"#utility.yul\":4639:4692   */\n      tag_87\n      jump\t// in\n    tag_178:\n        /* \"#utility.yul\":4626:4692   */\n      swap1\n      pop\n        /* \"#utility.yul\":4556:4698   */\n      swap2\n      swap1\n      pop\n      jump\t// out\n        /* \"#utility.yul\":4704:4830   */\n    tag_92:\n        /* \"#utility.yul\":4754:4763   */\n      0x00\n        /* \"#utility.yul\":4787:4824   */\n      tag_182\n        /* \"#utility.yul\":4818:4823   */\n      dup3\n        /* \"#utility.yul\":4787:4824   */\n      tag_91\n      jump\t// in\n    tag_182:\n        /* \"#utility.yul\":4774:4824   */\n      swap1\n      pop\n        /* \"#utility.yul\":4704:4830   */\n      swap2\n      swap1\n      pop\n      jump\t// out\n        /* \"#utility.yul\":4836:4975   */\n    tag_93:\n        /* \"#utility.yul\":4899:4908   */\n      0x00\n        /* \"#utility.yul\":4932:4969   */\n      tag_184\n        /* \"#utility.yul\":4963:4968   */\n      dup3\n        /* \"#utility.yul\":4932:4969   */\n      tag_92\n      jump\t// in\n    tag_184:\n        /* \"#utility.yul\":4919:4969   */\n      swap1\n      pop\n        /* \"#utility.yul\":4836:4975   */\n      swap2\n      swap1\n      pop\n      jump\t// out\n        /* \"#utility.yul\":4981:5138   */\n    tag_94:\n        /* \"#utility.yul\":5081:5131   */\n      tag_186\n        /* \"#utility.yul\":5125:5130   */\n      dup2\n        /* \"#utility.yul\":5081:5131   */\n      tag_93\n      jump\t// in\n    tag_186:\n        /* \"#utility.yul\":5076:5079   */\n      dup3\n        /* \"#utility.yul\":5069:5132   */\n      mstore\n        /* \"#utility.yul\":4981:5138   */\n      pop\n      pop\n      jump\t// out\n        /* \"#utility.yul\":5144:5324   */\n    tag_39:\n        /* \"#utility.yul\":5192:5269   */\n      0x4e487b7100000000000000000000000000000000000000000000000000000000\n        /* \"#utility.yul\":5189:5190   */\n      0x00\n        /* \"#utility.yul\":5182:5270   */\n      mstore\n        /* \"#utility.yul\":5289:5293   */\n      0x21\n        /* \"#utility.yul\":5286:5287   */\n      0x04\n        /* \"#utility.yul\":5279:5294   */\n      mstore\n        /* \"#utility.yul\":5313:5317   */\n      0x24\n        /* \"#utility.yul\":5310:5311   */\n      0x00\n        /* \"#utility.yul\":5303:5318   */\n      revert\n        /* \"#utility.yul\":5330:5449   */\n    tag_95:\n        /* \"#utility.yul\":5417:5418   */\n      0x03\n        /* \"#utility.yul\":5410:5415   */\n      dup2\n        /* \"#utility.yul\":5407:5419   */\n      lt\n        /* \"#utility.yul\":5397:5443   */\n      tag_189\n      jumpi\n        /* \"#utility.yul\":5423:5441   */\n      tag_190\n      tag_39\n      jump\t// in\n    tag_190:\n        /* \"#utility.yul\":5397:5443   */\n    tag_189:\n        /* \"#utility.yul\":5330:5449   */\n      pop\n      jump\t// out\n        /* \"#utility.yul\":5455:5594   */\n    tag_96:\n        /* \"#utility.yul\":5506:5513   */\n      0x00\n        /* \"#utility.yul\":5535:5540   */\n      dup2\n        /* \"#utility.yul\":5524:5540   */\n      swap1\n      pop\n        /* \"#utility.yul\":5541:5588   */\n      tag_192\n        /* \"#utility.yul\":5582:5587   */\n      dup3\n        /* \"#utility.yul\":5541:5588   */\n      tag_95\n      jump\t// in\n    tag_192:\n        /* \"#utility.yul\":5455:5594   */\n      swap2\n      swap1\n      pop\n      jump\t// out\n        /* \"#utility.yul\":5600:5739   */\n    tag_97:\n        /* \"#utility.yul\":5662:5671   */\n      0x00\n        /* \"#utility.yul\":5695:5733   */\n      tag_194\n        /* \"#utility.yul\":5727:5732   */\n      dup3\n        /* \"#utility.yul\":5695:5733   */\n      tag_96\n      jump\t// in\n    tag_194:\n        /* \"#utility.yul\":5682:5733   */\n      swap1\n      pop\n        /* \"#utility.yul\":5600:5739   */\n      swap2\n      swap1\n      pop\n      jump\t// out\n        /* \"#utility.yul\":5745:5900   */\n    tag_98:\n        /* \"#utility.yul\":5844:5893   */\n      tag_196\n        /* \"#utility.yul\":5887:5892   */\n      dup2\n        /* \"#utility.yul\":5844:5893   */\n      tag_97\n      jump\t// in\n    tag_196:\n        /* \"#utility.yul\":5839:5842   */\n      dup3\n        /* \"#utility.yul\":5832:5894   */\n      mstore\n        /* \"#utility.yul\":5745:5900   */\n      pop\n      pop\n      jump\t// out\n        /* \"#utility.yul\":5906:6024   */\n    tag_99:\n        /* \"#utility.yul\":5993:6017   */\n      tag_198\n        /* \"#utility.yul\":6011:6016   */\n      dup2\n        /* \"#utility.yul\":5993:6017   */\n      tag_74\n      jump\t// in\n    tag_198:\n        /* \"#utility.yul\":5988:5991   */\n      dup3\n        /* \"#utility.yul\":5981:6018   */\n      mstore\n        /* \"#utility.yul\":5906:6024   */\n      pop\n      pop\n      jump\t// out\n        /* \"#utility.yul\":6030:6129   */\n    tag_100:\n        /* \"#utility.yul\":6082:6088   */\n      0x00\n        /* \"#utility.yul\":6116:6121   */\n      dup2\n        /* \"#utility.yul\":6110:6122   */\n      mload\n        /* \"#utility.yul\":6100:6122   */\n      swap1\n      pop\n        /* \"#utility.yul\":6030:6129   */\n      swap2\n      swap1\n      pop\n      jump\t// out\n        /* \"#utility.yul\":6135:6304   */\n    tag_101:\n        /* \"#utility.yul\":6219:6230   */\n      0x00\n        /* \"#utility.yul\":6253:6259   */\n      dup3\n        /* \"#utility.yul\":6248:6251   */\n      dup3\n        /* \"#utility.yul\":6241:6260   */\n      mstore\n        /* \"#utility.yul\":6293:6297   */\n      0x20\n        /* \"#utility.yul\":6288:6291   */\n      dup3\n        /* \"#utility.yul\":6284:6298   */\n      add\n        /* \"#utility.yul\":6269:6298   */\n      swap1\n      pop\n        /* \"#utility.yul\":6135:6304   */\n      swap3\n      swap2\n      pop\n      pop\n      jump\t// out\n        /* \"#utility.yul\":6310:6556   */\n    tag_102:\n        /* \"#utility.yul\":6391:6392   */\n      0x00\n        /* \"#utility.yul\":6401:6514   */\n    tag_202:\n        /* \"#utility.yul\":6415:6421   */\n      dup4\n        /* \"#utility.yul\":6412:6413   */\n      dup2\n        /* \"#utility.yul\":6409:6422   */\n      lt\n        /* \"#utility.yul\":6401:6514   */\n      iszero\n      tag_204\n      jumpi\n        /* \"#utility.yul\":6500:6501   */\n      dup1\n        /* \"#utility.yul\":6495:6498   */\n      dup3\n        /* \"#utility.yul\":6491:6502   */\n      add\n        /* \"#utility.yul\":6485:6503   */\n      mload\n        /* \"#utility.yul\":6481:6482   */\n      dup2\n        /* \"#utility.yul\":6476:6479   */\n      dup5\n        /* \"#utility.yul\":6472:6483   */\n      add\n        /* \"#utility.yul\":6465:6504   */\n      mstore\n        /* \"#utility.yul\":6437:6439   */\n      0x20\n        /* \"#utility.yul\":6434:6435   */\n      dup2\n        /* \"#utility.yul\":6430:6440   */\n      add\n        /* \"#utility.yul\":6425:6440   */\n      swap1\n      pop\n        /* \"#utility.yul\":6401:6514   */\n      jump(tag_202)\n    tag_204:\n        /* \"#utility.yul\":6548:6549   */\n      0x00\n        /* \"#utility.yul\":6539:6545   */\n      dup5\n        /* \"#utility.yul\":6534:6537   */\n      dup5\n        /* \"#utility.yul\":6530:6546   */\n      add\n        /* \"#utility.yul\":6523:6550   */\n      mstore\n        /* \"#utility.yul\":6372:6556   */\n      pop\n        /* \"#utility.yul\":6310:6556   */\n      pop\n      pop\n      pop\n      jump\t// out\n        /* \"#utility.yul\":6562:6939   */\n    tag_103:\n        /* \"#utility.yul\":6650:6653   */\n      0x00\n        /* \"#utility.yul\":6678:6717   */\n      tag_206\n        /* \"#utility.yul\":6711:6716   */\n      dup3\n        /* \"#utility.yul\":6678:6717   */\n      tag_100\n      jump\t// in\n    tag_206:\n        /* \"#utility.yul\":6733:6804   */\n      tag_207\n        /* \"#utility.yul\":6797:6803   */\n      dup2\n        /* \"#utility.yul\":6792:6795   */\n      dup6\n        /* \"#utility.yul\":6733:6804   */\n      tag_101\n      jump\t// in\n    tag_207:\n        /* \"#utility.yul\":6726:6804   */\n      swap4\n      pop\n        /* \"#utility.yul\":6813:6878   */\n      tag_208\n        /* \"#utility.yul\":6871:6877   */\n      dup2\n        /* \"#utility.yul\":6866:6869   */\n      dup6\n        /* \"#utility.yul\":6859:6863   */\n      0x20\n        /* \"#utility.yul\":6852:6857   */\n      dup7\n        /* \"#utility.yul\":6848:6864   */\n      add\n        /* \"#utility.yul\":6813:6878   */\n      tag_102\n      jump\t// in\n    tag_208:\n        /* \"#utility.yul\":6903:6932   */\n      tag_209\n        /* \"#utility.yul\":6925:6931   */\n      dup2\n        /* \"#utility.yul\":6903:6932   */\n      tag_79\n      jump\t// in\n    tag_209:\n        /* \"#utility.yul\":6898:6901   */\n      dup5\n        /* \"#utility.yul\":6894:6933   */\n      add\n        /* \"#utility.yul\":6887:6933   */\n      swap2\n      pop\n        /* \"#utility.yul\":6654:6939   */\n      pop\n        /* \"#utility.yul\":6562:6939   */\n      swap3\n      swap2\n      pop\n      pop\n      jump\t// out\n        /* \"#utility.yul\":6945:7639   */\n    tag_23:\n        /* \"#utility.yul\":7167:7171   */\n      0x00\n        /* \"#utility.yul\":7205:7208   */\n      0x80\n        /* \"#utility.yul\":7194:7203   */\n      dup3\n        /* \"#utility.yul\":7190:7209   */\n      add\n        /* \"#utility.yul\":7182:7209   */\n      swap1\n      pop\n        /* \"#utility.yul\":7219:7303   */\n      tag_211\n        /* \"#utility.yul\":7300:7301   */\n      0x00\n        /* \"#utility.yul\":7289:7298   */\n      dup4\n        /* \"#utility.yul\":7285:7302   */\n      add\n        /* \"#utility.yul\":7276:7282   */\n      dup8\n        /* \"#utility.yul\":7219:7303   */\n      tag_94\n      jump\t// in\n    tag_211:\n        /* \"#utility.yul\":7313:7397   */\n      tag_212\n        /* \"#utility.yul\":7393:7395   */\n      0x20\n        /* \"#utility.yul\":7382:7391   */\n      dup4\n        /* \"#utility.yul\":7378:7396   */\n      add\n        /* \"#utility.yul\":7369:7375   */\n      dup7\n        /* \"#utility.yul\":7313:7397   */\n      tag_98\n      jump\t// in\n    tag_212:\n        /* \"#utility.yul\":7407:7479   */\n      tag_213\n        /* \"#utility.yul\":7475:7477   */\n      0x40\n        /* \"#utility.yul\":7464:7473   */\n      dup4\n        /* \"#utility.yul\":7460:7478   */\n      add\n        /* \"#utility.yul\":7451:7457   */\n      dup6\n        /* \"#utility.yul\":7407:7479   */\n      tag_99\n      jump\t// in\n    tag_213:\n        /* \"#utility.yul\":7526:7535   */\n      dup2\n        /* \"#utility.yul\":7520:7524   */\n      dup2\n        /* \"#utility.yul\":7516:7536   */\n      sub\n        /* \"#utility.yul\":7511:7513   */\n      0x60\n        /* \"#utility.yul\":7500:7509   */\n      dup4\n        /* \"#utility.yul\":7496:7514   */\n      add\n        /* \"#utility.yul\":7489:7537   */\n      mstore\n        /* \"#utility.yul\":7554:7632   */\n      tag_214\n        /* \"#utility.yul\":7627:7631   */\n      dup2\n        /* \"#utility.yul\":7618:7624   */\n      dup5\n        /* \"#utility.yul\":7554:7632   */\n      tag_103\n      jump\t// in\n    tag_214:\n        /* \"#utility.yul\":7546:7632   */\n      swap1\n      pop\n        /* \"#utility.yul\":6945:7639   */\n      swap6\n      swap5\n      pop\n      pop\n      pop\n      pop\n      pop\n      jump\t// out\n        /* \"#utility.yul\":7645:7767   */\n    tag_104:\n        /* \"#utility.yul\":7718:7742   */\n      tag_216\n        /* \"#utility.yul\":7736:7741   */\n      dup2\n        /* \"#utility.yul\":7718:7742   */\n      tag_88\n      jump\t// in\n    tag_216:\n        /* \"#utility.yul\":7711:7716   */\n      dup2\n        /* \"#utility.yul\":7708:7743   */\n      eq\n        /* \"#utility.yul\":7698:7761   */\n      tag_217\n      jumpi\n        /* \"#utility.yul\":7757:7758   */\n      0x00\n        /* \"#utility.yul\":7754:7755   */\n      dup1\n        /* \"#utility.yul\":7747:7759   */\n      revert\n        /* \"#utility.yul\":7698:7761   */\n    tag_217:\n        /* \"#utility.yul\":7645:7767   */\n      pop\n      jump\t// out\n        /* \"#utility.yul\":7773:7912   */\n    tag_105:\n        /* \"#utility.yul\":7819:7824   */\n      0x00\n        /* \"#utility.yul\":7857:7863   */\n      dup2\n        /* \"#utility.yul\":7844:7864   */\n      calldataload\n        /* \"#utility.yul\":7835:7864   */\n      swap1\n      pop\n        /* \"#utility.yul\":7873:7906   */\n      tag_219\n        /* \"#utility.yul\":7900:7905   */\n      dup2\n        /* \"#utility.yul\":7873:7906   */\n      tag_104\n      jump\t// in\n    tag_219:\n        /* \"#utility.yul\":7773:7912   */\n      swap3\n      swap2\n      pop\n      pop\n      jump\t// out\n        /* \"#utility.yul\":7918:8247   */\n    tag_26:\n        /* \"#utility.yul\":7977:7983   */\n      0x00\n        /* \"#utility.yul\":8026:8028   */\n      0x20\n        /* \"#utility.yul\":8014:8023   */\n      dup3\n        /* \"#utility.yul\":8005:8012   */\n      dup5\n        /* \"#utility.yul\":8001:8024   */\n      sub\n        /* \"#utility.yul\":7997:8029   */\n      slt\n        /* \"#utility.yul\":7994:8113   */\n      iszero\n      tag_221\n      jumpi\n        /* \"#utility.yul\":8032:8111   */\n      tag_222\n      tag_72\n      jump\t// in\n    tag_222:\n        /* \"#utility.yul\":7994:8113   */\n    tag_221:\n        /* \"#utility.yul\":8152:8153   */\n      0x00\n        /* \"#utility.yul\":8177:8230   */\n      tag_223\n        /* \"#utility.yul\":8222:8229   */\n      dup5\n        /* \"#utility.yul\":8213:8219   */\n      dup3\n        /* \"#utility.yul\":8202:8211   */\n      dup6\n        /* \"#utility.yul\":8198:8220   */\n      add\n        /* \"#utility.yul\":8177:8230   */\n      tag_105\n      jump\t// in\n    tag_223:\n        /* \"#utility.yul\":8167:8230   */\n      swap2\n      pop\n        /* \"#utility.yul\":8123:8240   */\n      pop\n        /* \"#utility.yul\":7918:8247   */\n      swap3\n      swap2\n      pop\n      pop\n      jump\t// out\n        /* \"#utility.yul\":8253:8676   */\n    tag_35:\n        /* \"#utility.yul\":8394:8398   */\n      0x00\n        /* \"#utility.yul\":8432:8434   */\n      0x40\n        /* \"#utility.yul\":8421:8430   */\n      dup3\n        /* \"#utility.yul\":8417:8435   */\n      add\n        /* \"#utility.yul\":8409:8435   */\n      swap1\n      pop\n        /* \"#utility.yul\":8445:8516   */\n      tag_225\n        /* \"#utility.yul\":8513:8514   */\n      0x00\n        /* \"#utility.yul\":8502:8511   */\n      dup4\n        /* \"#utility.yul\":8498:8515   */\n      add\n        /* \"#utility.yul\":8489:8495   */\n      dup6\n        /* \"#utility.yul\":8445:8516   */\n      tag_99\n      jump\t// in\n    tag_225:\n        /* \"#utility.yul\":8563:8572   */\n      dup2\n        /* \"#utility.yul\":8557:8561   */\n      dup2\n        /* \"#utility.yul\":8553:8573   */\n      sub\n        /* \"#utility.yul\":8548:8550   */\n      0x20\n        /* \"#utility.yul\":8537:8546   */\n      dup4\n        /* \"#utility.yul\":8533:8551   */\n      add\n        /* \"#utility.yul\":8526:8574   */\n      mstore\n        /* \"#utility.yul\":8591:8669   */\n      tag_226\n        /* \"#utility.yul\":8664:8668   */\n      dup2\n        /* \"#utility.yul\":8655:8661   */\n      dup5\n        /* \"#utility.yul\":8591:8669   */\n      tag_103\n      jump\t// in\n    tag_226:\n        /* \"#utility.yul\":8583:8669   */\n      swap1\n      pop\n        /* \"#utility.yul\":8253:8676   */\n      swap4\n      swap3\n      pop\n      pop\n      pop\n      jump\t// out\n        /* \"#utility.yul\":8682:8862   */\n    tag_106:\n        /* \"#utility.yul\":8730:8807   */\n      0x4e487b7100000000000000000000000000000000000000000000000000000000\n        /* \"#utility.yul\":8727:8728   */\n      0x00\n        /* \"#utility.yul\":8720:8808   */\n      mstore\n        /* \"#utility.yul\":8827:8831   */\n      0x22\n        /* \"#utility.yul\":8824:8825   */\n      0x04\n        /* \"#utility.yul\":8817:8832   */\n      mstore\n        /* \"#utility.yul\":8851:8855   */\n      0x24\n        /* \"#utility.yul\":8848:8849   */\n      0x00\n        /* \"#utility.yul\":8841:8856   */\n      revert\n        /* \"#utility.yul\":8868:9188   */\n    tag_51:\n        /* \"#utility.yul\":8912:8918   */\n      0x00\n        /* \"#utility.yul\":8949:8950   */\n      0x02\n        /* \"#utility.yul\":8943:8947   */\n      dup3\n        /* \"#utility.yul\":8939:8951   */\n      div\n        /* \"#utility.yul\":8929:8951   */\n      swap1\n      pop\n        /* \"#utility.yul\":8996:8997   */\n      0x01\n        /* \"#utility.yul\":8990:8994   */\n      dup3\n        /* \"#utility.yul\":8986:8998   */\n      and\n        /* \"#utility.yul\":9017:9035   */\n      dup1\n        /* \"#utility.yul\":9007:9088   */\n      tag_229\n      jumpi\n        /* \"#utility.yul\":9073:9077   */\n      0x7f\n        /* \"#utility.yul\":9065:9071   */\n      dup3\n        /* \"#utility.yul\":9061:9078   */\n      and\n        /* \"#utility.yul\":9051:9078   */\n      swap2\n      pop\n        /* \"#utility.yul\":9007:9088   */\n    tag_229:\n        /* \"#utility.yul\":9135:9137   */\n      0x20\n        /* \"#utility.yul\":9127:9133   */\n      dup3\n        /* \"#utility.yul\":9124:9138   */\n      lt\n        /* \"#utility.yul\":9104:9122   */\n      dup2\n        /* \"#utility.yul\":9101:9139   */\n      sub\n        /* \"#utility.yul\":9098:9182   */\n      tag_230\n      jumpi\n        /* \"#utility.yul\":9154:9172   */\n      tag_231\n      tag_106\n      jump\t// in\n    tag_231:\n        /* \"#utility.yul\":9098:9182   */\n    tag_230:\n        /* \"#utility.yul\":8919:9188   */\n      pop\n        /* \"#utility.yul\":8868:9188   */\n      swap2\n      swap1\n      pop\n      jump\t// out\n        /* \"#utility.yul\":9194:9335   */\n    tag_107:\n        /* \"#utility.yul\":9243:9247   */\n      0x00\n        /* \"#utility.yul\":9266:9269   */\n      dup2\n        /* \"#utility.yul\":9258:9269   */\n      swap1\n      pop\n        /* \"#utility.yul\":9289:9292   */\n      dup2\n        /* \"#utility.yul\":9286:9287   */\n      0x00\n        /* \"#utility.yul\":9279:9293   */\n      mstore\n        /* \"#utility.yul\":9323:9327   */\n      0x20\n        /* \"#utility.yul\":9320:9321   */\n      0x00\n        /* \"#utility.yul\":9310:9328   */\n      keccak256\n        /* \"#utility.yul\":9302:9328   */\n      swap1\n      pop\n        /* \"#utility.yul\":9194:9335   */\n      swap2\n      swap1\n      pop\n      jump\t// out\n        /* \"#utility.yul\":9341:9434   */\n    tag_108:\n        /* \"#utility.yul\":9378:9384   */\n      0x00\n        /* \"#utility.yul\":9425:9427   */\n      0x20\n        /* \"#utility.yul\":9420:9422   */\n      0x1f\n        /* \"#utility.yul\":9413:9418   */\n      dup4\n        /* \"#utility.yul\":9409:9423   */\n      add\n        /* \"#utility.yul\":9405:9428   */\n      div\n        /* \"#utility.yul\":9395:9428   */\n      swap1\n      pop\n        /* \"#utility.yul\":9341:9434   */\n      swap2\n      swap1\n      pop\n      jump\t// out\n        /* \"#utility.yul\":9440:9547   */\n    tag_109:\n        /* \"#utility.yul\":9484:9492   */\n      0x00\n        /* \"#utility.yul\":9534:9539   */\n      dup3\n        /* \"#utility.yul\":9528:9532   */\n      dup3\n        /* \"#utility.yul\":9524:9540   */\n      shl\n        /* \"#utility.yul\":9503:9540   */\n      swap1\n      pop\n        /* \"#utility.yul\":9440:9547   */\n      swap3\n      swap2\n      pop\n      pop\n      jump\t// out\n        /* \"#utility.yul\":9553:9946   */\n    tag_110:\n        /* \"#utility.yul\":9622:9628   */\n      0x00\n        /* \"#utility.yul\":9672:9673   */\n      0x08\n        /* \"#utility.yul\":9660:9670   */\n      dup4\n        /* \"#utility.yul\":9656:9674   */\n      mul\n        /* \"#utility.yul\":9695:9792   */\n      tag_236\n        /* \"#utility.yul\":9725:9791   */\n      0xffffffffffffffffffffffffffffffffffffffffffffffffffffffffffffffff\n        /* \"#utility.yul\":9714:9723   */\n      dup3\n        /* \"#utility.yul\":9695:9792   */\n      tag_109\n      jump\t// in\n    tag_236:\n        /* \"#utility.yul\":9813:9852   */\n      tag_237\n        /* \"#utility.yul\":9843:9851   */\n      dup7\n        /* \"#utility.yul\":9832:9841   */\n      dup4\n        /* \"#utility.yul\":9813:9852   */\n      tag_109\n      jump\t// in\n    tag_237:\n        /* \"#utility.yul\":9801:9852   */\n      swap6\n      pop\n        /* \"#utility.yul\":9885:9889   */\n      dup1\n        /* \"#utility.yul\":9881:9890   */\n      not\n        /* \"#utility.yul\":9874:9879   */\n      dup5\n        /* \"#utility.yul\":9870:9891   */\n      and\n        /* \"#utility.yul\":9861:9891   */\n      swap4\n      pop\n        /* \"#utility.yul\":9934:9938   */\n      dup1\n        /* \"#utility.yul\":9924:9932   */\n      dup7\n        /* \"#utility.yul\":9920:9939   */\n      and\n        /* \"#utility.yul\":9913:9918   */\n      dup5\n        /* \"#utility.yul\":9910:9940   */\n      or\n        /* \"#utility.yul\":9900:9940   */\n      swap3\n      pop\n        /* \"#utility.yul\":9629:9946   */\n      pop\n      pop\n        /* \"#utility.yul\":9553:9946   */\n      swap4\n      swap3\n      pop\n      pop\n      pop\n      jump\t// out\n        /* \"#utility.yul\":9952:10094   */\n    tag_111:\n        /* \"#utility.yul\":10002:10011   */\n      0x00\n        /* \"#utility.yul\":10035:10088   */\n      tag_239\n        /* \"#utility.yul\":10053:10087   */\n      tag_240\n        /* \"#utility.yul\":10062:10086   */\n      tag_241\n        /* \"#utility.yul\":10080:10085   */\n      dup5\n        /* \"#utility.yul\":10062:10086   */\n      tag_74\n      jump\t// in\n    tag_241:\n        /* \"#utility.yul\":10053:10087   */\n      tag_90\n      jump\t// in\n    tag_240:\n        /* \"#utility.yul\":10035:10088   */\n      tag_74\n      jump\t// in\n    tag_239:\n        /* \"#utility.yul\":10022:10088   */\n      swap1\n      pop\n        /* \"#utility.yul\":9952:10094   */\n      swap2\n      swap1\n      pop\n      jump\t// out\n        /* \"#utility.yul\":10100:10175   */\n    tag_112:\n        /* \"#utility.yul\":10143:10146   */\n      0x00\n        /* \"#utility.yul\":10164:10169   */\n      dup2\n        /* \"#utility.yul\":10157:10169   */\n      swap1\n      pop\n        /* \"#utility.yul\":10100:10175   */\n      swap2\n      swap1\n      pop\n      jump\t// out\n        /* \"#utility.yul\":10181:10450   */\n    tag_113:\n        /* \"#utility.yul\":10291:10330   */\n      tag_244\n        /* \"#utility.yul\":10322:10329   */\n      dup4\n        /* \"#utility.yul\":10291:10330   */\n      tag_111\n      jump\t// in\n    tag_244:\n        /* \"#utility.yul\":10352:10443   */\n      tag_245\n        /* \"#utility.yul\":10401:10442   */\n      tag_246\n        /* \"#utility.yul\":10425:10441   */\n      dup3\n        /* \"#utility.yul\":10401:10442   */\n      tag_112\n      jump\t// in\n    tag_246:\n        /* \"#utility.yul\":10393:10399   */\n      dup5\n        /* \"#utility.yul\":10386:10390   */\n      dup5\n        /* \"#utility.yul\":10380:10391   */\n      sload\n        /* \"#utility.yul\":10352:10443   */\n      tag_110\n      jump\t// in\n    tag_245:\n        /* \"#utility.yul\":10346:10350   */\n      dup3\n        /* \"#utility.yul\":10339:10444   */\n      sstore\n        /* \"#utility.yul\":10257:10450   */\n      pop\n        /* \"#utility.yul\":10181:10450   */\n      pop\n      pop\n      pop\n      jump\t// out\n        /* \"#utility.yul\":10456:10529   */\n    tag_114:\n        /* \"#utility.yul\":10501:10504   */\n      0x00\n        /* \"#utility.yul\":10456:10529   */\n      swap1\n      jump\t// out\n        /* \"#utility.yul\":10535:10724   */\n    tag_115:\n        /* \"#utility.yul\":10612:10644   */\n      tag_249\n      tag_114\n      jump\t// in\n    tag_249:\n        /* \"#utility.yul\":10653:10718   */\n      tag_250\n        /* \"#utility.yul\":10711:10717   */\n      dup2\n        /* \"#utility.yul\":10703:10709   */\n      dup5\n        /* \"#utility.yul\":10697:10701   */\n      dup5\n        /* \"#utility.yul\":10653:10718   */\n      tag_113\n      jump\t// in\n    tag_250:\n        /* \"#utility.yul\":10588:10724   */\n      pop\n        /* \"#utility.yul\":10535:10724   */\n      pop\n      pop\n      jump\t// out\n        /* \"#utility.yul\":10730:10916   */\n    tag_116:\n        /* \"#utility.yul\":10790:10910   */\n    tag_252:\n        /* \"#utility.yul\":10807:10810   */\n      dup2\n        /* \"#utility.yul\":10800:10805   */\n      dup2\n        /* \"#utility.yul\":10797:10811   */\n      lt\n        /* \"#utility.yul\":10790:10910   */\n      iszero\n      tag_254\n      jumpi\n        /* \"#utility.yul\":10861:10900   */\n      tag_255\n        /* \"#utility.yul\":10898:10899   */\n      0x00\n        /* \"#utility.yul\":10891:10896   */\n      dup3\n        /* \"#utility.yul\":10861:10900   */\n      tag_115\n      jump\t// in\n    tag_255:\n        /* \"#utility.yul\":10834:10835   */\n      0x01\n        /* \"#utility.yul\":10827:10832   */\n      dup2\n        /* \"#utility.yul\":10823:10836   */\n      add\n        /* \"#utility.yul\":10814:10836   */\n      swap1\n      pop\n        /* \"#utility.yul\":10790:10910   */\n      jump(tag_252)\n    tag_254:\n        /* \"#utility.yul\":10730:10916   */\n      pop\n      pop\n      jump\t// out\n        /* \"#utility.yul\":10922:11465   */\n    tag_117:\n        /* \"#utility.yul\":11023:11025   */\n      0x1f\n        /* \"#utility.yul\":11018:11021   */\n      dup3\n        /* \"#utility.yul\":11015:11026   */\n      gt\n        /* \"#utility.yul\":11012:11458   */\n      iszero\n      tag_257\n      jumpi\n        /* \"#utility.yul\":11057:11095   */\n      tag_258\n        /* \"#utility.yul\":11089:11094   */\n      dup2\n        /* \"#utility.yul\":11057:11095   */\n      tag_107\n      jump\t// in\n    tag_258:\n        /* \"#utility.yul\":11141:11170   */\n      tag_259\n        /* \"#utility.yul\":11159:11169   */\n      dup5\n        /* \"#utility.yul\":11141:11170   */\n      tag_108\n      jump\t// in\n    tag_259:\n        /* \"#utility.yul\":11131:11139   */\n      dup2\n        /* \"#utility.yul\":11127:11171   */\n      add\n        /* \"#utility.yul\":11324:11326   */\n      0x20\n        /* \"#utility.yul\":11312:11322   */\n      dup6\n        /* \"#utility.yul\":11309:11327   */\n      lt\n        /* \"#utility.yul\":11306:11355   */\n      iszero\n      tag_260\n      jumpi\n        /* \"#utility.yul\":11345:11353   */\n      dup2\n        /* \"#utility.yul\":11330:11353   */\n      swap1\n      pop\n        /* \"#utility.yul\":11306:11355   */\n    tag_260:\n        /* \"#utility.yul\":11368:11448   */\n      tag_261\n        /* \"#utility.yul\":11424:11446   */\n      tag_262\n        /* \"#utility.yul\":11442:11445   */\n      dup6\n        /* \"#utility.yul\":11424:11446   */\n      tag_108\n      jump\t// in\n    tag_262:\n        /* \"#utility.yul\":11414:11422   */\n      dup4\n        /* \"#utility.yul\":11410:11447   */\n      add\n        /* \"#utility.yul\":11397:11408   */\n      dup3\n        /* \"#utility.yul\":11368:11448   */\n      tag_116\n      jump\t// in\n    tag_261:\n        /* \"#utility.yul\":11027:11458   */\n      pop\n      pop\n        /* \"#utility.yul\":11012:11458   */\n    tag_257:\n        /* \"#utility.yul\":10922:11465   */\n      pop\n      pop\n      pop\n      jump\t// out\n        /* \"#utility.yul\":11471:11588   */\n    tag_118:\n        /* \"#utility.yul\":11525:11533   */\n      0x00\n        /* \"#utility.yul\":11575:11580   */\n      dup3\n        /* \"#utility.yul\":11569:11573   */\n      dup3\n        /* \"#utility.yul\":11565:11581   */\n      shr\n        /* \"#utility.yul\":11544:11581   */\n      swap1\n      pop\n        /* \"#utility.yul\":11471:11588   */\n      swap3\n      swap2\n      pop\n      pop\n      jump\t// out\n        /* \"#utility.yul\":11594:11763   */\n    tag_119:\n        /* \"#utility.yul\":11638:11644   */\n      0x00\n        /* \"#utility.yul\":11671:11722   */\n      tag_265\n        /* \"#utility.yul\":11719:11720   */\n      0x00\n        /* \"#utility.yul\":11715:11721   */\n      not\n        /* \"#utility.yul\":11707:11712   */\n      dup5\n        /* \"#utility.yul\":11704:11705   */\n      0x08\n        /* \"#utility.yul\":11700:11713   */\n      mul\n        /* \"#utility.yul\":11671:11722   */\n      tag_118\n      jump\t// in\n    tag_265:\n        /* \"#utility.yul\":11667:11723   */\n      not\n        /* \"#utility.yul\":11752:11756   */\n      dup1\n        /* \"#utility.yul\":11746:11750   */\n      dup4\n        /* \"#utility.yul\":11742:11757   */\n      and\n        /* \"#utility.yul\":11732:11757   */\n      swap2\n      pop\n        /* \"#utility.yul\":11645:11763   */\n      pop\n        /* \"#utility.yul\":11594:11763   */\n      swap3\n      swap2\n      pop\n      pop\n      jump\t// out\n        /* \"#utility.yul\":11768:12063   */\n    tag_120:\n        /* \"#utility.yul\":11844:11848   */\n      0x00\n        /* \"#utility.yul\":11990:12019   */\n      tag_267\n        /* \"#utility.yul\":12015:12018   */\n      dup4\n        /* \"#utility.yul\":12009:12013   */\n      dup4\n        /* \"#utility.yul\":11990:12019   */\n      tag_119\n      jump\t// in\n    tag_267:\n        /* \"#utility.yul\":11982:12019   */\n      swap2\n      pop\n        /* \"#utility.yul\":12052:12055   */\n      dup3\n        /* \"#utility.yul\":12049:12050   */\n      0x02\n        /* \"#utility.yul\":12045:12056   */\n      mul\n        /* \"#utility.yul\":12039:12043   */\n      dup3\n        /* \"#utility.yul\":12036:12057   */\n      or\n        /* \"#utility.yul\":12028:12057   */\n      swap1\n      pop\n        /* \"#utility.yul\":11768:12063   */\n      swap3\n      swap2\n      pop\n      pop\n      jump\t// out\n        /* \"#utility.yul\":12068:13463   */\n    tag_41:\n        /* \"#utility.yul\":12185:12222   */\n      tag_269\n        /* \"#utility.yul\":12218:12221   */\n      dup3\n        /* \"#utility.yul\":12185:12222   */\n      tag_100\n      jump\t// in\n    tag_269:\n        /* \"#utility.yul\":12287:12305   */\n      0xffffffffffffffff\n        /* \"#utility.yul\":12279:12285   */\n      dup2\n        /* \"#utility.yul\":12276:12306   */\n      gt\n        /* \"#utility.yul\":12273:12329   */\n      iszero\n      tag_270\n      jumpi\n        /* \"#utility.yul\":12309:12327   */\n      tag_271\n      tag_80\n      jump\t// in\n    tag_271:\n        /* \"#utility.yul\":12273:12329   */\n    tag_270:\n        /* \"#utility.yul\":12353:12391   */\n      tag_272\n        /* \"#utility.yul\":12385:12389   */\n      dup3\n        /* \"#utility.yul\":12379:12390   */\n      sload\n        /* \"#utility.yul\":12353:12391   */\n      tag_51\n      jump\t// in\n    tag_272:\n        /* \"#utility.yul\":12438:12505   */\n      tag_273\n        /* \"#utility.yul\":12498:12504   */\n      dup3\n        /* \"#utility.yul\":12490:12496   */\n      dup3\n        /* \"#utility.yul\":12484:12488   */\n      dup6\n        /* \"#utility.yul\":12438:12505   */\n      tag_117\n      jump\t// in\n    tag_273:\n        /* \"#utility.yul\":12532:12533   */\n      0x00\n        /* \"#utility.yul\":12556:12560   */\n      0x20\n        /* \"#utility.yul\":12543:12560   */\n      swap1\n      pop\n        /* \"#utility.yul\":12588:12590   */\n      0x1f\n        /* \"#utility.yul\":12580:12586   */\n      dup4\n        /* \"#utility.yul\":12577:12591   */\n      gt\n        /* \"#utility.yul\":12605:12606   */\n      0x01\n        /* \"#utility.yul\":12600:13218   */\n      dup2\n      eq\n      tag_275\n      jumpi\n        /* \"#utility.yul\":13262:13263   */\n      0x00\n        /* \"#utility.yul\":13279:13285   */\n      dup5\n        /* \"#utility.yul\":13276:13353   */\n      iszero\n      tag_276\n      jumpi\n        /* \"#utility.yul\":13328:13337   */\n      dup3\n        /* \"#utility.yul\":13323:13326   */\n      dup8\n        /* \"#utility.yul\":13319:13338   */\n      add\n        /* \"#utility.yul\":13313:13339   */\n      mload\n        /* \"#utility.yul\":13304:13339   */\n      swap1\n      pop\n        /* \"#utility.yul\":13276:13353   */\n    tag_276:\n        /* \"#utility.yul\":13379:13446   */\n      tag_277\n        /* \"#utility.yul\":13439:13445   */\n      dup6\n        /* \"#utility.yul\":13432:13437   */\n      dup3\n        /* \"#utility.yul\":13379:13446   */\n      tag_120\n      jump\t// in\n    tag_277:\n        /* \"#utility.yul\":13373:13377   */\n      dup7\n        /* \"#utility.yul\":13366:13447   */\n      sstore\n        /* \"#utility.yul\":13235:13457   */\n      pop\n        /* \"#utility.yul\":12570:13457   */\n      jump(tag_274)\n        /* \"#utility.yul\":12600:13218   */\n    tag_275:\n        /* \"#utility.yul\":12652:12656   */\n      0x1f\n        /* \"#utility.yul\":12648:12657   */\n      not\n        /* \"#utility.yul\":12640:12646   */\n      dup5\n        /* \"#utility.yul\":12636:12658   */\n      and\n        /* \"#utility.yul\":12686:12723   */\n      tag_278\n        /* \"#utility.yul\":12718:12722   */\n      dup7\n        /* \"#utility.yul\":12686:12723   */\n      tag_107\n      jump\t// in\n    tag_278:\n        /* \"#utility.yul\":12745:12746   */\n      0x00\n        /* \"#utility.yul\":12759:12967   */\n    tag_279:\n        /* \"#utility.yul\":12773:12780   */\n      dup3\n        /* \"#utility.yul\":12770:12771   */\n      dup2\n        /* \"#utility.yul\":12767:12781   */\n      lt\n        /* \"#utility.yul\":12759:12967   */\n      iszero\n      tag_281\n      jumpi\n        /* \"#utility.yul\":12852:12861   */\n      dup5\n        /* \"#utility.yul\":12847:12850   */\n      dup10\n        /* \"#utility.yul\":12843:12862   */\n      add\n        /* \"#utility.yul\":12837:12863   */\n      mload\n        /* \"#utility.yul\":12829:12835   */\n      dup3\n        /* \"#utility.yul\":12822:12864   */\n      sstore\n        /* \"#utility.yul\":12903:12904   */\n      0x01\n        /* \"#utility.yul\":12895:12901   */\n      dup3\n        /* \"#utility.yul\":12891:12905   */\n      add\n        /* \"#utility.yul\":12881:12905   */\n      swap2\n      pop\n        /* \"#utility.yul\":12950:12952   */\n      0x20\n        /* \"#utility.yul\":12939:12948   */\n      dup6\n        /* \"#utility.yul\":12935:12953   */\n      add\n        /* \"#utility.yul\":12922:12953   */\n      swap5\n      pop\n        /* \"#utility.yul\":12796:12800   */\n      0x20\n        /* \"#utility.yul\":12793:12794   */\n      dup2\n        /* \"#utility.yul\":12789:12801   */\n      add\n        /* \"#utility.yul\":12784:12801   */\n      swap1\n      pop\n        /* \"#utility.yul\":12759:12967   */\n      jump(tag_279)\n    tag_281:\n        /* \"#utility.yul\":12995:13001   */\n      dup7\n        /* \"#utility.yul\":12986:12993   */\n      dup4\n        /* \"#utility.yul\":12983:13002   */\n      lt\n        /* \"#utility.yul\":12980:13159   */\n      iszero\n      tag_282\n      jumpi\n        /* \"#utility.yul\":13053:13062   */\n      dup5\n        /* \"#utility.yul\":13048:13051   */\n      dup10\n        /* \"#utility.yul\":13044:13063   */\n      add\n        /* \"#utility.yul\":13038:13064   */\n      mload\n        /* \"#utility.yul\":13096:13144   */\n      tag_283\n        /* \"#utility.yul\":13138:13142   */\n      0x1f\n        /* \"#utility.yul\":13130:13136   */\n      dup10\n        /* \"#utility.yul\":13126:13143   */\n      and\n        /* \"#utility.yul\":13115:13124   */\n      dup3\n        /* \"#utility.yul\":13096:13144   */\n      tag_119\n      jump\t// in\n    tag_283:\n        /* \"#utility.yul\":13088:13094   */\n      dup4\n        /* \"#utility.yul\":13081:13145   */\n      sstore\n        /* \"#utility.yul\":13003:13159   */\n      pop\n        /* \"#utility.yul\":12980:13159   */\n    tag_282:\n        /* \"#utility.yul\":13205:13206   */\n      0x01\n        /* \"#utility.yul\":13201:13202   */\n      0x02\n        /* \"#utility.yul\":13193:13199   */\n      dup9\n        /* \"#utility.yul\":13189:13203   */\n      mul\n        /* \"#utility.yul\":13185:13207   */\n      add\n        /* \"#utility.yul\":13179:13183   */\n      dup9\n        /* \"#utility.yul\":13172:13208   */\n      sstore\n        /* \"#utility.yul\":12607:13218   */\n      pop\n      pop\n      pop\n        /* \"#utility.yul\":12570:13457   */\n    tag_274:\n      pop\n        /* \"#utility.yul\":12160:13463   */\n      pop\n      pop\n      pop\n        /* \"#utility.yul\":12068:13463   */\n      pop\n      pop\n      jump\t// out\n        /* \"#utility.yul\":13469:13649   */\n    tag_121:\n        /* \"#utility.yul\":13517:13594   */\n      0x4e487b7100000000000000000000000000000000000000000000000000000000\n        /* \"#utility.yul\":13514:13515   */\n      0x00\n        /* \"#utility.yul\":13507:13595   */\n      mstore\n        /* \"#utility.yul\":13614:13618   */\n      0x11\n        /* \"#utility.yul\":13611:13612   */\n      0x04\n        /* \"#utility.yul\":13604:13619   */\n      mstore\n        /* \"#utility.yul\":13638:13642   */\n      0x24\n        /* \"#utility.yul\":13635:13636   */\n      0x00\n        /* \"#utility.yul\":13628:13643   */\n      revert\n        /* \"#utility.yul\":13655:13888   */\n    tag_43:\n        /* \"#utility.yul\":13694:13697   */\n      0x00\n        /* \"#utility.yul\":13717:13741   */\n      tag_286\n        /* \"#utility.yul\":13735:13740   */\n      dup3\n        /* \"#utility.yul\":13717:13741   */\n      tag_74\n      jump\t// in\n    tag_286:\n        /* \"#utility.yul\":13708:13741   */\n      swap2\n      pop\n        /* \"#utility.yul\":13763:13829   */\n      0xffffffffffffffffffffffffffffffffffffffffffffffffffffffffffffffff\n        /* \"#utility.yul\":13756:13761   */\n      dup3\n        /* \"#utility.yul\":13753:13830   */\n      sub\n        /* \"#utility.yul\":13750:13853   */\n      tag_287\n      jumpi\n        /* \"#utility.yul\":13833:13851   */\n      tag_288\n      tag_121\n      jump\t// in\n    tag_288:\n        /* \"#utility.yul\":13750:13853   */\n    tag_287:\n        /* \"#utility.yul\":13880:13881   */\n      0x01\n        /* \"#utility.yul\":13873:13878   */\n      dup3\n        /* \"#utility.yul\":13869:13882   */\n      add\n        /* \"#utility.yul\":13862:13882   */\n      swap1\n      pop\n        /* \"#utility.yul\":13655:13888   */\n      swap2\n      swap1\n      pop\n      jump\t// out\n    stop\n\n    sub_0: assembly {\n            /* \"Album.sol\":60:242  contract Album {... */\n          mstore(0x40, 0x80)\n            /* \"Album.sol\":134:239  constructor(uint _price, string memory _title) {... */\n          callvalue\n          dup1\n          iszero\n          tag_1\n          jumpi\n          0x00\n          dup1\n          revert\n        tag_1:\n          pop\n          mload(0x40)\n          sub(codesize, bytecodeSize)\n          dup1\n          bytecodeSize\n          dup4\n          codecopy\n          dup2\n          dup2\n          add\n          0x40\n          mstore\n          dup2\n          add\n          swap1\n          tag_2\n          swap2\n          swap1\n          tag_3\n          jump\t// in\n        tag_2:\n            /* \"Album.sol\":200:206  _price */\n          dup2\n            /* \"Album.sol\":192:197  price */\n          0x00\n            /* \"Album.sol\":192:206  price = _price */\n          dup2\n          swap1\n          sstore\n          pop\n            /* \"Album.sol\":225:231  _title */\n          dup1\n            /* \"Album.sol\":217:222  title */\n          0x01\n            /* \"Album.sol\":217:231  title = _title */\n          swap1\n          dup2\n          tag_6\n          swap2\n          swap1\n          tag_7\n          jump\t// in\n        tag_6:\n          pop\n            /* \"Album.sol\":134:239  constructor(uint _price, string memory _title) {... */\n          pop\n          pop\n            /* \"Album.sol\":60:242  contract Album {... */\n          jump(tag_8)\n            /* \"#utility.yul\":7:82   */\n        tag_9:\n            /* \"#utility.yul\":40:46   */\n          0x00\n            /* \"#utility.yul\":73:75   */\n          0x40\n            /* \"#utility.yul\":67:76   */\n          mload\n            /* \"#utility.yul\":57:76   */\n          swap1\n          pop\n            /* \"#utility.yul\":7:82   */\n          swap1\n          jump\t// out\n            /* \"#utility.yul\":88:205   */\n        tag_10:\n            /* \"#utility.yul\":197:198   */\n          0x00\n            /* \"#utility.yul\":194:195   */\n          dup1\n            /* \"#utility.yul\":187:199   */\n          revert\n            /* \"#utility.yul\":211:328   */\n        tag_11:\n            /* \"#utility.yul\":320:321   */\n          0x00\n            /* \"#utility.yul\":317:318   */\n          dup1\n            /* \"#utility.yul\":310:322   */\n          revert\n            /* \"#utility.yul\":334:411   */\n        tag_12:\n            /* \"#utility.yul\":371:378   */\n          0x00\n            /* \"#utility.yul\":400:405   */\n          dup2\n            /* \"#utility.yul\":389:405   */\n          swap1\n          pop\n            /* \"#utility.yul\":334:411   */\n          swap2\n          swap1\n          pop\n          jump\t// out\n            /* \"#utility.yul\":417:539   */\n        tag_13:\n            /* \"#utility.yul\":490:514   */\n          tag_49\n            /* \"#utility.yul\":508:513   */\n          dup2\n            /* \"#utility.yul\":490:514   */\n          tag_12\n          jump\t// in\n        tag_49:\n            /* \"#utility.yul\":483:488   */\n          dup2\n            /* \"#utility.yul\":480:515   */\n          eq\n            /* \"#utility.yul\":470:533   */\n          tag_50\n          jumpi\n            /* \"#utility.yul\":529:530   */\n          0x00\n            /* \"#utility.yul\":526:527   */\n          dup1\n            /* \"#utility.yul\":519:531   */\n          revert\n            /* \"#utility.yul\":470:533   */\n        tag_50:\n            /* \"#utility.yul\":417:539   */\n          pop\n          jump\t// out\n            /* \"#utility.yul\":545:688   */\n        tag_14:\n            /* \"#utility.yul\":602:607   */\n          0x00\n            /* \"#utility.yul\":633:639   */\n          dup2\n            /* \"#utility.yul\":627:640   */\n          mload\n            /* \"#utility.yul\":618:640   */\n          swap1\n          pop\n            /* \"#utility.yul\":649:682   */\n          tag_52\n            /* \"#utility.yul\":676:681   */\n          dup2\n            /* \"#utility.yul\":649:682   */\n          tag_13\n          jump\t// in\n        tag_52:\n            /* \"#utility.yul\":545:688   */\n          swap3\n          swap2\n          pop\n          pop\n          jump\t// out\n            /* \"#utility.yul\":694:811   */\n        tag_15:\n            /* \"#utility.yul\":803:804   */\n          0x00\n            /* \"#utility.yul\":800:801   */\n          dup1\n            /* \"#utility.yul\":793:805   */\n          revert\n            /* \"#utility.yul\":817:934   */\n        tag_16:\n            /* \"#utility.yul\":926:927   */\n          0x00\n            /* \"#utility.yul\":923:924   */\n          dup1\n            /* \"#utility.yul\":916:928   */\n          revert\n            /* \"#utility.yul\":940:1042   */\n        tag_17:\n            /* \"#utility.yul\":981:987   */\n          0x00\n            /* \"#utility.yul\":1032:1034   */\n          0x1f\n            /* \"#utility.yul\":1028:1035   */\n          not\n            /* \"#utility.yul\":1023:1025   */\n          0x1f\n            /* \"#utility.yul\":1016:1021   */\n          dup4\n            /* \"#utility.yul\":1012:1026   */\n          add\n            /* \"#utility.yul\":1008:1036   */\n          and\n            /* \"#utility.yul\":998:1036   */\n          swap1\n          pop\n            /* \"#utility.yul\":940:1042   */\n          swap2\n          swap1\n          pop\n          jump\t// out\n            /* \"#utility.yul\":1048:1228   */\n        tag_18:\n            /* \"#utility.yul\":1096:1173   */\n          0x4e487b7100000000000000000000000000000000000000000000000000000000\n            /* \"#utility.yul\":1093:1094   */\n          0x00\n            /* \"#utility.yul\":1086:1174   */\n          mstore\n            /* \"#utility.yul\":1193:1197   */\n          0x41\n            /* \"#utility.yul\":1190:1191   */\n          0x04\n            /* \"#utility.yul\":1183:1198   */\n          mstore\n            /* \"#utility.yul\":1217:1221   */\n          0x24\n            /* \"#utility.yul\":1214:1215   */\n          0x00\n            /* \"#utility.yul\":1207:1222   */\n          revert\n            /* \"#utility.yul\":1234:1515   */\n        tag_19:\n            /* \"#utility.yul\":1317:1344   */\n          tag_58\n            /* \"#utility.yul\":1339:1343   */\n          dup3\n            /* \"#utility.yul\":1317:1344   */\n          tag_17\n          jump\t// in\n        tag_58:\n            /* \"#utility.yul\":1309:1315   */\n          dup2\n            /* \"#utility.yul\":1305:1345   */\n          add\n            /* \"#utility.yul\":1447:1453   */\n          dup2\n            /* \"#utility.yul\":1435:1445   */\n          dup2\n            /* \"#utility.yul\":1432:1454   */\n          lt\n            /* \"#utility.yul\":1411:1429   */\n          0xffffffffffffffff\n            /* \"#utility.yul\":1399:1409   */\n          dup3\n            /* \"#utility.yul\":1396:1430   */\n          gt\n            /* \"#utility.yul\":1393:1455   */\n          or\n            /* \"#utility.yul\":1390:1478   */\n          iszero\n          tag_59\n          jumpi\n            /* \"#utility.yul\":1458:1476   */\n          tag_60\n          tag_18\n          jump\t// in\n        tag_60:\n            /* \"#utility.yul\":1390:1478   */\n        tag_59:\n            /* \"#utility.yul\":1498:1508   */\n          dup1\n            /* \"#utility.yul\":1494:1496   */\n          0x40\n            /* \"#utility.yul\":1487:1509   */\n          mstore\n            /* \"#utility.yul\":1277:1515   */\n          pop\n            /* \"#utility.yul\":1234:1515   */\n          pop\n          pop\n          jump\t// out\n            /* \"#utility.yul\":1521:1650   */\n        tag_20:\n            /* \"#utility.yul\":1555:1561   */\n          0x00\n            /* \"#utility.yul\":1582:1602   */\n          tag_62\n          tag_9\n          jump\t// in\n        tag_62:\n            /* \"#utility.yul\":1572:1602   */\n          swap1\n          pop\n            /* \"#utility.yul\":1611:1644   */\n          tag_63\n            /* \"#utility.yul\":1639:1643   */\n          dup3\n            /* \"#utility.yul\":1631:1637   */\n          dup3\n            /* \"#utility.yul\":1611:1644   */\n          tag_19\n          jump\t// in\n        tag_63:\n            /* \"#utility.yul\":1521:1650   */\n          swap2\n          swap1\n          pop\n          jump\t// out\n            /* \"#utility.yul\":1656:1964   */\n        tag_21:\n            /* \"#utility.yul\":1718:1722   */\n          0x00\n            /* \"#utility.yul\":1808:1826   */\n          0xffffffffffffffff\n            /* \"#utility.yul\":1800:1806   */\n          dup3\n            /* \"#utility.yul\":1797:1827   */\n          gt\n            /* \"#utility.yul\":1794:1850   */\n          iszero\n          tag_65\n          jumpi\n            /* \"#utility.yul\":1830:1848   */\n          tag_66\n          tag_18\n          jump\t// in\n        tag_66:\n            /* \"#utility.yul\":1794:1850   */\n        tag_65:\n            /* \"#utility.yul\":1868:1897   */\n          tag_67\n            /* \"#utility.yul\":1890:1896   */\n          dup3\n            /* \"#utility.yul\":1868:1897   */\n          tag_17\n          jump\t// in\n        tag_67:\n            /* \"#utility.yul\":1860:1897   */\n          swap1\n          pop\n            /* \"#utility.yul\":1952:1956   */\n          0x20\n            /* \"#utility.yul\":1946:1950   */\n          dup2\n            /* \"#utility.yul\":1942:1957   */\n          add\n            /* \"#utility.yul\":1934:1957   */\n          swap1\n          pop\n            /* \"#utility.yul\":1656:1964   */\n          swap2\n          swap1\n          pop\n          jump\t// out\n            /* \"#utility.yul\":1970:2216   */\n        tag_22:\n            /* \"#utility.yul\":2051:2052   */\n          0x00\n            /* \"#utility.yul\":2061:2174   */\n        tag_69:\n            /* \"#utility.yul\":2075:2081   */\n          dup4\n            /* \"#utility.yul\":2072:2073   */\n          dup2\n            /* \"#utility.yul\":2069:2082   */\n          lt\n            /* \"#utility.yul\":2061:2174   */\n          iszero\n          tag_71\n          jumpi\n            /* \"#utility.yul\":2160:2161   */\n          dup1\n            /* \"#utility.yul\":2155:2158   */\n          dup3\n            /* \"#utility.yul\":2151:2162   */\n          add\n            /* \"#utility.yul\":2145:2163   */\n          mload\n            /* \"#utility.yul\":2141:2142   */\n          dup2\n            /* \"#utility.yul\":2136:2139   */\n          dup5\n            /* \"#utility.yul\":2132:2143   */\n          add\n            /* \"#utility.yul\":2125:2164   */\n          mstore\n            /* \"#utility.yul\":2097:2099   */\n          0x20\n            /* \"#utility.yul\":2094:2095   */\n          dup2\n            /* \"#utility.yul\":2090:2100   */\n          add\n            /* \"#utility.yul\":2085:2100   */\n          swap1\n          pop\n            /* \"#utility.yul\":2061:2174   */\n          jump(tag_69)\n        tag_71:\n            /* \"#utility.yul\":2208:2209   */\n          0x00\n            /* \"#utility.yul\":2199:2205   */\n          dup5\n            /* \"#utility.yul\":2194:2197   */\n          dup5\n            /* \"#utility.yul\":2190:2206   */\n          add\n            /* \"#utility.yul\":2183:2210   */\n          mstore\n            /* \"#utility.yul\":2032:2216   */\n          pop\n            /* \"#utility.yul\":1970:2216   */\n          pop\n          pop\n          pop\n          jump\t// out\n            /* \"#utility.yul\":2222:2656   */\n        tag_23:\n            /* \"#utility.yul\":2311:2316   */\n          0x00\n            /* \"#utility.yul\":2336:2402   */\n          tag_73\n            /* \"#utility.yul\":2352:2401   */\n          tag_74\n            /* \"#utility.yul\":2394:2400   */\n          dup5\n            /* \"#utility.yul\":2352:2401   */\n          tag_21\n          jump\t// in\n        tag_74:\n            /* \"#utility.yul\":2336:2402   */\n          tag_20\n          jump\t// in\n        tag_73:\n            /* \"#utility.yul\":2327:2402   */\n          swap1\n          pop\n            /* \"#utility.yul\":2425:2431   */\n          dup3\n            /* \"#utility.yul\":2418:2423   */\n          dup2\n            /* \"#utility.yul\":2411:2432   */\n          mstore\n            /* \"#utility.yul\":2463:2467   */\n          0x20\n            /* \"#utility.yul\":2456:2461   */\n          dup2\n            /* \"#utility.yul\":2452:2468   */\n          add\n            /* \"#utility.yul\":2501:2504   */\n          dup5\n            /* \"#utility.yul\":2492:2498   */\n          dup5\n            /* \"#utility.yul\":2487:2490   */\n          dup5\n            /* \"#utility.yul\":2483:2499   */\n          add\n            /* \"#utility.yul\":2480:2505   */\n          gt\n            /* \"#utility.yul\":2477:2589   */\n          iszero\n          tag_75\n          jumpi\n            /* \"#utility.yul\":2508:2587   */\n          tag_76\n          tag_16\n          jump\t// in\n        tag_76:\n            /* \"#utility.yul\":2477:2589   */\n        tag_75:\n            /* \"#utility.yul\":2598:2650   */\n          tag_77\n            /* \"#utility.yul\":2643:2649   */\n          dup5\n            /* \"#utility.yul\":2638:2641   */\n          dup3\n            /* \"#utility.yul\":2633:2636   */\n          dup6\n            /* \"#utility.yul\":2598:2650   */\n          tag_22\n          jump\t// in\n        tag_77:\n            /* \"#utility.yul\":2317:2656   */\n          pop\n            /* \"#utility.yul\":2222:2656   */\n          swap4\n          swap3\n          pop\n          pop\n          pop\n          jump\t// out\n            /* \"#utility.yul\":2676:3031   */\n        tag_24:\n            /* \"#utility.yul\":2743:2748   */\n          0x00\n            /* \"#utility.yul\":2792:2795   */\n          dup3\n            /* \"#utility.yul\":2785:2789   */\n          0x1f\n            /* \"#utility.yul\":2777:2783   */\n          dup4\n            /* \"#utility.yul\":2773:2790   */\n          add\n            /* \"#utility.yul\":2769:2796   */\n          slt\n            /* \"#utility.yul\":2759:2881   */\n          tag_79\n          jumpi\n            /* \"#utility.yul\":2800:2879   */\n          tag_80\n          tag_15\n          jump\t// in\n        tag_80:\n            /* \"#utility.yul\":2759:2881   */\n        tag_79:\n            /* \"#utility.yul\":2910:2916   */\n          dup2\n            /* \"#utility.yul\":2904:2917   */\n          mload\n            /* \"#utility.yul\":2935:3025   */\n          tag_81\n            /* \"#utility.yul\":3021:3024   */\n          dup5\n            /* \"#utility.yul\":3013:3019   */\n          dup3\n            /* \"#utility.yul\":3006:3010   */\n          0x20\n            /* \"#utility.yul\":2998:3004   */\n          dup7\n            /* \"#utility.yul\":2994:3011   */\n          add\n            /* \"#utility.yul\":2935:3025   */\n          tag_23\n          jump\t// in\n        tag_81:\n            /* \"#utility.yul\":2926:3025   */\n          swap2\n          pop\n            /* \"#utility.yul\":2749:3031   */\n          pop\n            /* \"#utility.yul\":2676:3031   */\n          swap3\n          swap2\n          pop\n          pop\n          jump\t// out\n            /* \"#utility.yul\":3037:3717   */\n        tag_3:\n            /* \"#utility.yul\":3126:3132   */\n          0x00\n            /* \"#utility.yul\":3134:3140   */\n          dup1\n            /* \"#utility.yul\":3183:3185   */\n          0x40\n            /* \"#utility.yul\":3171:3180   */\n          dup4\n            /* \"#utility.yul\":3162:3169   */\n          dup6\n            /* \"#utility.yul\":3158:3181   */\n          sub\n            /* \"#utility.yul\":3154:3186   */\n          slt\n            /* \"#utility.yul\":3151:3270   */\n          iszero\n          tag_83\n          jumpi\n            /* \"#utility.yul\":3189:3268   */\n          tag_84\n          tag_10\n          jump\t// in\n        tag_84:\n            /* \"#utility.yul\":3151:3270   */\n        tag_83:\n            /* \"#utility.yul\":3309:3310   */\n          0x00\n            /* \"#utility.yul\":3334:3398   */\n          tag_85\n            /* \"#utility.yul\":3390:3397   */\n          dup6\n            /* \"#utility.yul\":3381:3387   */\n          dup3\n            /* \"#utility.yul\":3370:3379   */\n          dup7\n            /* \"#utility.yul\":3366:3388   */\n          add\n            /* \"#utility.yul\":3334:3398   */\n          tag_14\n          jump\t// in\n        tag_85:\n            /* \"#utility.yul\":3324:3398   */\n          swap3\n          pop\n            /* \"#utility.yul\":3280:3408   */\n          pop\n            /* \"#utility.yul\":3468:3470   */\n          0x20\n            /* \"#utility.yul\":3457:3466   */\n          dup4\n            /* \"#utility.yul\":3453:3471   */\n          add\n            /* \"#utility.yul\":3447:3472   */\n          mload\n            /* \"#utility.yul\":3499:3517   */\n          0xffffffffffffffff\n            /* \"#utility.yul\":3491:3497   */\n          dup2\n            /* \"#utility.yul\":3488:3518   */\n          gt\n            /* \"#utility.yul\":3485:3602   */\n          iszero\n          tag_86\n          jumpi\n            /* \"#utility.yul\":3521:3600   */\n          tag_87\n          tag_11\n          jump\t// in\n        tag_87:\n            /* \"#utility.yul\":3485:3602   */\n        tag_86:\n            /* \"#utility.yul\":3626:3700   */\n          tag_88\n            /* \"#utility.yul\":3692:3699   */\n          dup6\n            /* \"#utility.yul\":3683:3689   */\n          dup3\n            /* \"#utility.yul\":3672:3681   */\n          dup7\n            /* \"#utility.yul\":3668:3690   */\n          add\n            /* \"#utility.yul\":3626:3700   */\n          tag_24\n          jump\t// in\n        tag_88:\n            /* \"#utility.yul\":3616:3700   */\n          swap2\n          pop\n            /* \"#utility.yul\":3418:3710   */\n          pop\n            /* \"#utility.yul\":3037:3717   */\n          swap3\n          pop\n          swap3\n          swap1\n          pop\n          jump\t// out\n            /* \"#utility.yul\":3723:3822   */\n        tag_25:\n            /* \"#utility.yul\":3775:3781   */\n          0x00\n            /* \"#utility.yul\":3809:3814   */\n          dup2\n            /* \"#utility.yul\":3803:3815   */\n          mload\n            /* \"#utility.yul\":3793:3815   */\n          swap1\n          pop\n            /* \"#utility.yul\":3723:3822   */\n          swap2\n          swap1\n          pop\n          jump\t// out\n            /* \"#utility.yul\":3828:4008   */\n        tag_26:\n            /* \"#utility.yul\":3876:3953   */\n          0x4e487b7100000000000000000000000000000000000000000000000000000000\n            /* \"#utility.yul\":3873:3874   */\n          0x00\n            /* \"#utility.yul\":3866:3954   */\n          mstore\n            /* \"#utility.yul\":3973:3977   */\n          0x22\n            /* \"#utility.yul\":3970:3971   */\n          0x04\n            /* \"#utility.yul\":3963:3978   */\n          mstore\n            /* \"#utility.yul\":3997:4001   */\n          0x24\n            /* \"#utility.yul\":3994:3995   */\n          0x00\n            /* \"#utility.yul\":3987:4002   */\n          revert\n            /* \"#utility.yul\":4014:4334   */\n        tag_27:\n            /* \"#utility.yul\":4058:4064   */\n          0x00\n            /* \"#utility.yul\":4095:4096   */\n          0x02\n            /* \"#utility.yul\":4089:4093   */\n          dup3\n            /* \"#utility.yul\":4085:4097   */\n          div\n            /* \"#utility.yul\":4075:4097   */\n          swap1\n          pop\n            /* \"#utility.yul\":4142:4143   */\n          0x01\n            /* \"#utility.yul\":4136:4140   */\n          dup3\n            /* \"#utility.yul\":4132:4144   */\n          and\n            /* \"#utility.yul\":4163:4181   */\n          dup1\n            /* \"#utility.yul\":4153:4234   */\n          tag_92\n          jumpi\n            /* \"#utility.yul\":4219:4223   */\n          0x7f\n            /* \"#utility.yul\":4211:4217   */\n          dup3\n            /* \"#utility.yul\":4207:4224   */\n          and\n            /* \"#utility.yul\":4197:4224   */\n          swap2\n          pop\n            /* \"#utility.yul\":4153:4234   */\n        tag_92:\n            /* \"#utility.yul\":4281:4283   */\n          0x20\n            /* \"#utility.yul\":4273:4279   */\n          dup3\n            /* \"#utility.yul\":4270:4284   */\n          lt\n            /* \"#utility.yul\":4250:4268   */\n          dup2\n            /* \"#utility.yul\":4247:4285   */\n          sub\n            /* \"#utility.yul\":4244:4328   */\n          tag_93\n          jumpi\n            /* \"#utility.yul\":4300:4318   */\n          tag_94\n          tag_26\n          jump\t// in\n        tag_94:\n            /* \"#utility.yul\":4244:4328   */\n        tag_93:\n            /* \"#utility.yul\":4065:4334   */\n          pop\n            /* \"#utility.yul\":4014:4334   */\n          swap2\n          swap1\n          pop\n          jump\t// out\n            /* \"#utility.yul\":4340:4481   */\n        tag_28:\n            /* \"#utility.yul\":4389:4393   */\n          0x00\n            /* \"#utility.yul\":4412:4415   */\n          dup2\n            /* \"#utility.yul\":4404:4415   */\n          swap1\n          pop\n            /* \"#utility.yul\":4435:4438   */\n          dup2\n            /* \"#utility.yul\":4432:4433   */\n          0x00\n            /* \"#utility.yul\":4425:4439   */\n          mstore\n            /* \"#utility.yul\":4469:4473   */\n          0x20\n            /* \"#utility.yul\":4466:4467   */\n          0x00\n            /* \"#utility.yul\":4456:4474   */\n          keccak256\n            /* \"#utility.yul\":4448:4474   */\n          swap1\n          pop\n            /* \"#utility.yul\":4340:4481   */\n          swap2\n          swap1\n          pop\n          jump\t// out\n            /* \"#utility.yul\":4487:4580   */\n        tag_29:\n            /* \"#utility.yul\":4524:4530   */\n          0x00\n            /* \"#utility.yul\":4571:4573   */\n          0x20\n            /* \"#utility.yul\":4566:4568   */\n          0x1f\n            /* \"#utility.yul\":4559:4564   */\n          dup4\n            /* \"#utility.yul\":4555:4569   */\n          add\n            /* \"#utility.yul\":4551:4574   */\n          div\n            /* \"#utility.yul\":4541:4574   */\n          swap1\n          pop\n            /* \"#utility.yul\":4487:4580   */\n          swap2\n          swap1\n          pop\n          jump\t// out\n            /* \"#utility.yul\":4586:4693   */\n        tag_30:\n            /* \"#utility.yul\":4630:4638   */\n          0x00\n            /* \"#utility.yul\":4680:4685   */\n          dup3\n            /* \"#utility.yul\":4674:4678   */\n          dup3\n            /* \"#utility.yul\":4670:4686   */\n          shl\n            /* \"#utility.yul\":4649:4686   */\n          swap1\n          pop\n            /* \"#utility.yul\":4586:4693   */\n          swap3\n          swap2\n          pop\n          pop\n          jump\t// out\n            /* \"#utility.yul\":4699:5092   */\n        tag_31:\n            /* \"#utility.yul\":4768:4774   */\n          0x00\n            /* \"#utility.yul\":4818:4819   */\n          0x08\n            /* \"#utility.yul\":4806:4816   */\n          dup4\n            /* \"#utility.yul\":4802:4820   */\n          mul\n            /* \"#utility.yul\":4841:4938   */\n          tag_99\n            /* \"#utility.yul\":4871:4937   */\n          0xffffffffffffffffffffffffffffffffffffffffffffffffffffffffffffffff\n            /* \"#utility.yul\":4860:4869   */\n          dup3\n            /* \"#utility.yul\":4841:4938   */\n          tag_30\n          jump\t// in\n        tag_99:\n            /* \"#utility.yul\":4959:4998   */\n          tag_100\n            /* \"#utility.yul\":4989:4997   */\n          dup7\n            /* \"#utility.yul\":4978:4987   */\n          dup4\n            /* \"#utility.yul\":4959:4998   */\n          tag_30\n          jump\t// in\n        tag_100:\n            /* \"#utility.yul\":4947:4998   */\n          swap6\n          pop\n            /* \"#utility.yul\":5031:5035   */\n          dup1\n            /* \"#utility.yul\":5027:5036   */\n          not\n            /* \"#utility.yul\":5020:5025   */\n          dup5\n            /* \"#utility.yul\":5016:5037   */\n          and\n            /* \"#utility.yul\":5007:5037   */\n          swap4\n          pop\n            /* \"#utility.yul\":5080:5084   */\n          dup1\n            /* \"#utility.yul\":5070:5078   */\n          dup7\n            /* \"#utility.yul\":5066:5085   */\n          and\n            /* \"#utility.yul\":5059:5064   */\n          dup5\n            /* \"#utility.yul\":5056:5086   */\n          or\n            /* \"#utility.yul\":5046:5086   */\n          swap3\n          pop\n            /* \"#utility.yul\":4775:5092   */\n          pop\n          pop\n            /* \"#utility.yul\":4699:5092   */\n          swap4\n          swap3\n          pop\n          pop\n          pop\n          jump\t// out\n            /* \"#utility.yul\":5098:5158   */\n        tag_32:\n            /* \"#utility.yul\":5126:5129   */\n          0x00\n            /* \"#utility.yul\":5147:5152   */\n          dup2\n            /* \"#utility.yul\":5140:5152   */\n          swap1\n          pop\n            /* \"#utility.yul\":5098:5158   */\n          swap2\n          swap1\n          pop\n          jump\t// out\n            /* \"#utility.yul\":5164:5306   */\n        tag_33:\n            /* \"#utility.yul\":5214:5223   */\n          0x00\n            /* \"#utility.yul\":5247:5300   */\n          tag_103\n            /* \"#utility.yul\":5265:5299   */\n          tag_104\n            /* \"#utility.yul\":5274:5298   */\n          tag_105\n            /* \"#utility.yul\":5292:5297   */\n          dup5\n            /* \"#utility.yul\":5274:5298   */\n          tag_12\n          jump\t// in\n        tag_105:\n            /* \"#utility.yul\":5265:5299   */\n          tag_32\n          jump\t// in\n        tag_104:\n            /* \"#utility.yul\":5247:5300   */\n          tag_12\n          jump\t// in\n        tag_103:\n            /* \"#utility.yul\":5234:5300   */\n          swap1\n          pop\n            /* \"#utility.yul\":5164:5306   */\n          swap2\n          swap1\n          pop\n          jump\t// out\n            /* \"#utility.yul\":5312:5387   */\n        tag_34:\n            /* \"#utility.yul\":5355:5358   */\n          0x00\n            /* \"#utility.yul\":5376:5381   */\n          dup2\n            /* \"#utility.yul\":5369:5381   */\n          swap1\n          pop\n            /* \"#utility.yul\":5312:5387   */\n          swap2\n          swap1\n          pop\n          jump\t// out\n            /* \"#utility.yul\":5393:5662   */\n        tag_35:\n            /* \"#utility.yul\":5503:5542   */\n          tag_108\n            /* \"#utility.yul\":5534:5541   */\n          dup4\n            /* \"#utility.yul\":5503:5542   */\n          tag_33\n          jump\t// in\n        tag_108:\n            /* \"#utility.yul\":5564:5655   */\n          tag_109\n            /* \"#utility.yul\":5613:5654   */\n          tag_110\n            /* \"#utility.yul\":5637:5653   */\n          dup3\n            /* \"#utility.yul\":5613:5654   */\n          tag_34\n          jump\t// in\n        tag_110:\n            /* \"#utility.yul\":5605:5611   */\n          dup5\n            /* \"#utility.yul\":5598:5602   */\n          dup5\n            /* \"#utility.yul\":5592:5603   */\n          sload\n            /* \"#utility.yul\":5564:5655   */\n          tag_31\n          jump\t// in\n        tag_109:\n            /* \"#utility.yul\":5558:5562   */\n          dup3\n            /* \"#utility.yul\":5551:5656   */\n          sstore\n            /* \"#utility.yul\":5469:5662   */\n          pop\n            /* \"#utility.yul\":5393:5662   */\n          pop\n          pop\n          pop\n          jump\t// out\n            /* \"#utility.yul\":5668:5741   */\n        tag_36:\n            /* \"#utility.yul\":5713:5716   */\n          0x00\n            /* \"#utility.yul\":5668:5741   */\n          swap1\n          jump\t// out\n            /* \"#utility.yul\":5747:5936   */\n        tag_37:\n            /* \"#utility.yul\":5824:5856   */\n          tag_113\n          tag_36\n          jump\t// in\n        tag_113:\n            /* \"#utility.yul\":5865:5930   */\n          tag_114\n            /* \"#utility.yul\":5923:5929   */\n          dup2\n            /* \"#utility.yul\":5915:5921   */\n          dup5\n            /* \"#utility.yul\":5909:5913   */\n          dup5\n            /* \"#utility.yul\":5865:5930   */\n          tag_35\n          jump\t// in\n        tag_114:\n            /* \"#utility.yul\":5800:5936   */\n          pop\n            /* \"#utility.yul\":5747:5936   */\n          pop\n          pop\n          jump\t// out\n            /* \"#utility.yul\":5942:6128   */\n        tag_38:\n            /* \"#utility.yul\":6002:6122   */\n        tag_116:\n            /* \"#utility.yul\":6019:6022   */\n          dup2\n            /* \"#utility.yul\":6012:6017   */\n          dup2\n            /* \"#utility.yul\":6009:6023   */\n          lt\n            /* \"#utility.yul\":6002:6122   */\n          iszero\n          tag_118\n          jumpi\n            /* \"#utility.yul\":6073:6112   */\n          tag_119\n            /* \"#utility.yul\":6110:6111   */\n          0x00\n            /* \"#utility.yul\":6103:6108   */\n          dup3\n            /* \"#utility.yul\":6073:6112   */\n          tag_37\n          jump\t// in\n        tag_119:\n            /* \"#utility.yul\":6046:6047   */\n          0x01\n            /* \"#utility.yul\":6039:6044   */\n          dup2\n            /* \"#utility.yul\":6035:6048   */\n          add\n            /* \"#utility.yul\":6026:6048   */\n          swap1\n          pop\n            /* \"#utility.yul\":6002:6122   */\n          jump(tag_116)\n        tag_118:\n            /* \"#utility.yul\":5942:6128   */\n          pop\n          pop\n          jump\t// out\n            /* \"#utility.yul\":6134:6677   */\n        tag_39:\n            /* \"#utility.yul\":6235:6237   */\n          0x1f\n            /* \"#utility.yul\":6230:6233   */\n          dup3\n            /* \"#utility.yul\":6227:6238   */\n          gt\n            /* \"#utility.yul\":6224:6670   */\n          iszero\n          tag_121\n          jumpi\n            /* \"#utility.yul\":6269:6307   */\n          tag_122\n            /* \"#utility.yul\":6301:6306   */\n          dup2\n            /* \"#utility.yul\":6269:6307   */\n          tag_28\n          jump\t// in\n        tag_122:\n            /* \"#utility.yul\":6353:6382   */\n          tag_123\n            /* \"#utility.yul\":6371:6381   */\n          dup5\n            /* \"#utility.yul\":6353:6382   */\n          tag_29\n          jump\t// in\n        tag_123:\n            /* \"#utility.yul\":6343:6351   */\n          dup2\n            /* \"#utility.yul\":6339:6383   */\n          add\n            /* \"#utility.yul\":6536:6538   */\n          0x20\n            /* \"#utility.yul\":6524:6534   */\n          dup6\n            /* \"#utility.yul\":6521:6539   */\n          lt\n            /* \"#utility.yul\":6518:6567   */\n          iszero\n          tag_124\n          jumpi\n            /* \"#utility.yul\":6557:6565   */\n          dup2\n            /* \"#utility.yul\":6542:6565   */\n          swap1\n          pop\n            /* \"#utility.yul\":6518:6567   */\n        tag_124:\n            /* \"#utility.yul\":6580:6660   */\n          tag_125\n            /* \"#utility.yul\":6636:6658   */\n          tag_126\n            /* \"#utility.yul\":6654:6657   */\n          dup6\n            /* \"#utility.yul\":6636:6658   */\n          tag_29\n          jump\t// in\n        tag_126:\n            /* \"#utility.yul\":6626:6634   */\n          dup4\n            /* \"#utility.yul\":6622:6659   */\n          add\n            /* \"#utility.yul\":6609:6620   */\n          dup3\n            /* \"#utility.yul\":6580:6660   */\n          tag_38\n          jump\t// in\n        tag_125:\n            /* \"#utility.yul\":6239:6670   */\n          pop\n          pop\n            /* \"#utility.yul\":6224:6670   */\n        tag_121:\n            /* \"#utility.yul\":6134:6677   */\n          pop\n          pop\n          pop\n          jump\t// out\n            /* \"#utility.yul\":6683:6800   */\n        tag_40:\n            /* \"#utility.yul\":6737:6745   */\n          0x00\n            /* \"#utility.yul\":6787:6792   */\n          dup3\n            /* \"#utility.yul\":6781:6785   */\n          dup3\n            /* \"#utility.yul\":6777:6793   */\n          shr\n            /* \"#utility.yul\":6756:6793   */\n          swap1\n          pop\n            /* \"#utility.yul\":6683:6800   */\n          swap3\n          swap2\n          pop\n          pop\n          jump\t// out\n            /* \"#utility.yul\":6806:6975   */\n        tag_41:\n            /* \"#utility.yul\":6850:6856   */\n          0x00\n            /* \"#utility.yul\":6883:6934   */\n          tag_129\n            /* \"#utility.yul\":6931:6932   */\n          0x00\n            /* \"#utility.yul\":6927:6933   */\n          not\n            /* \"#utility.yul\":6919:6924   */\n          dup5\n            /* \"#utility.yul\":6916:6917   */\n          0x08\n            /* \"#utility.yul\":6912:6925   */\n          mul\n            /* \"#utility.yul\":6883:6934   */\n          tag_40\n          jump\t// in\n        tag_129:\n            /* \"#utility.yul\":6879:6935   */\n          not\n            /* \"#utility.yul\":6964:6968   */\n          dup1\n            /* \"#utility.yul\":6958:6962   */\n          dup4\n            /* \"#utility.yul\":6954:6969   */\n          and\n            /* \"#utility.yul\":6944:6969   */\n          swap2\n          pop\n            /* \"#utility.yul\":6857:6975   */\n          pop\n            /* \"#utility.yul\":6806:6975   */\n          swap3\n          swap2\n          pop\n          pop\n          jump\t// out\n            /* \"#utility.yul\":6980:7275   */\n        tag_42:\n            /* \"#utility.yul\":7056:7060   */\n          0x00\n            /* \"#utility.yul\":7202:7231   */\n          tag_131\n            /* \"#utility.yul\":7227:7230   */\n          dup4\n            /* \"#utility.yul\":7221:7225   */\n          dup4\n            /* \"#utility.yul\":7202:7231   */\n          tag_41\n          jump\t// in\n        tag_131:\n            /* \"#utility.yul\":7194:7231   */\n          swap2\n          pop\n            /* \"#utility.yul\":7264:7267   */\n          dup3\n            /* \"#utility.yul\":7261:7262   */\n          0x02\n            /* \"#utility.yul\":7257:7268   */\n          mul\n            /* \"#utility.yul\":7251:7255   */\n          dup3\n            /* \"#utility.yul\":7248:7269   */\n          or\n            /* \"#utility.yul\":7240:7269   */\n          swap1\n          pop\n            /* \"#utility.yul\":6980:7275   */\n          swap3\n          swap2\n          pop\n          pop\n          jump\t// out\n            /* \"#utility.yul\":7280:8675   */\n        tag_7:\n            /* \"#utility.yul\":7397:7434   */\n          tag_133\n            /* \"#utility.yul\":7430:7433   */\n          dup3\n            /* \"#utility.yul\":7397:7434   */\n          tag_25\n          jump\t// in\n        tag_133:\n            /* \"#utility.yul\":7499:7517   */\n          0xffffffffffffffff\n            /* \"#utility.yul\":7491:7497   */\n          dup2\n            /* \"#utility.yul\":7488:7518   */\n          gt\n            /* \"#utility.yul\":7485:7541   */\n          iszero\n          tag_134\n          jumpi\n            /* \"#utility.yul\":7521:7539   */\n          tag_135\n          tag_18\n          jump\t// in\n        tag_135:\n            /* \"#utility.yul\":7485:7541   */\n        tag_134:\n            /* \"#utility.yul\":7565:7603   */\n          tag_136\n            /* \"#utility.yul\":7597:7601   */\n          dup3\n            /* \"#utility.yul\":7591:7602   */\n          sload\n            /* \"#utility.yul\":7565:7603   */\n          tag_27\n          jump\t// in\n        tag_136:\n            /* \"#utility.yul\":7650:7717   */\n          tag_137\n            /* \"#utility.yul\":7710:7716   */\n          dup3\n            /* \"#utility.yul\":7702:7708   */\n          dup3\n            /* \"#utility.yul\":7696:7700   */\n          dup6\n            /* \"#utility.yul\":7650:7717   */\n          tag_39\n          jump\t// in\n        tag_137:\n            /* \"#utility.yul\":7744:7745   */\n          0x00\n            /* \"#utility.yul\":7768:7772   */\n          0x20\n            /* \"#utility.yul\":7755:7772   */\n          swap1\n          pop\n            /* \"#utility.yul\":7800:7802   */\n          0x1f\n            /* \"#utility.yul\":7792:7798   */\n          dup4\n            /* \"#utility.yul\":7789:7803   */\n          gt\n            /* \"#utility.yul\":7817:7818   */\n          0x01\n            /* \"#utility.yul\":7812:8430   */\n          dup2\n          eq\n          tag_139\n          jumpi\n            /* \"#utility.yul\":8474:8475   */\n          0x00\n            /* \"#utility.yul\":8491:8497   */\n          dup5\n            /* \"#utility.yul\":8488:8565   */\n          iszero\n          tag_140\n          jumpi\n            /* \"#utility.yul\":8540:8549   */\n          dup3\n            /* \"#utility.yul\":8535:8538   */\n          dup8\n            /* \"#utility.yul\":8531:8550   */\n          add\n            /* \"#utility.yul\":8525:8551   */\n          mload\n            /* \"#utility.yul\":8516:8551   */\n          swap1\n          pop\n            /* \"#utility.yul\":8488:8565   */\n        tag_140:\n            /* \"#utility.yul\":8591:8658   */\n          tag_141\n            /* \"#utility.yul\":8651:8657   */\n          dup6\n            /* \"#utility.yul\":8644:8649   */\n          dup3\n            /* \"#utility.yul\":8591:8658   */\n          tag_42\n          jump\t// in\n        tag_141:\n            /* \"#utility.yul\":8585:8589   */\n          dup7\n            /* \"#utility.yul\":8578:8659   */\n          sstore\n            /* \"#utility.yul\":8447:8669   */\n          pop\n            /* \"#utility.yul\":7782:8669   */\n          jump(tag_138)\n            /* \"#utility.yul\":7812:8430   */\n        tag_139:\n            /* \"#utility.yul\":7864:7868   */\n          0x1f\n            /* \"#utility.yul\":7860:7869   */\n          not\n            /* \"#utility.yul\":7852:7858   */\n          dup5\n            /* \"#utility.yul\":7848:7870   */\n          and\n            /* \"#utility.yul\":7898:7935   */\n          tag_142\n            /* \"#utility.yul\":7930:7934   */\n          dup7\n            /* \"#utility.yul\":7898:7935   */\n          tag_28\n          jump\t// in\n        tag_142:\n            /* \"#utility.yul\":7957:7958   */\n          0x00\n            /* \"#utility.yul\":7971:8179   */\n        tag_143:\n            /* \"#utility.yul\":7985:7992   */\n          dup3\n            /* \"#utility.yul\":7982:7983   */\n          dup2\n            /* \"#utility.yul\":7979:7993   */\n          lt\n            /* \"#utility.yul\":7971:8179   */\n          iszero\n          tag_145\n          jumpi\n            /* \"#utility.yul\":8064:8073   */\n          dup5\n            /* \"#utility.yul\":8059:8062   */\n          dup10\n            /* \"#utility.yul\":8055:8074   */\n          add\n            /* \"#utility.yul\":8049:8075   */\n          mload\n            /* \"#utility.yul\":8041:8047   */\n          dup3\n            /* \"#utility.yul\":8034:8076   */\n          sstore\n            /* \"#utility.yul\":8115:8116   */\n          0x01\n            /* \"#utility.yul\":8107:8113   */\n          dup3\n            /* \"#utility.yul\":8103:8117   */\n          add\n            /* \"#utility.yul\":8093:8117   */\n          swap2\n          pop\n            /* \"#utility.yul\":8162:8164   */\n          0x20\n            /* \"#utility.yul\":8151:8160   */\n          dup6\n            /* \"#utility.yul\":8147:8165   */\n          add\n            /* \"#utility.yul\":8134:8165   */\n          swap5\n          pop\n            /* \"#utility.yul\":8008:8012   */\n          0x20\n            /* \"#utility.yul\":8005:8006   */\n          dup2\n            /* \"#utility.yul\":8001:8013   */\n          add\n            /* \"#utility.yul\":7996:8013   */\n          swap1\n          pop\n            /* \"#utility.yul\":7971:8179   */\n          jump(tag_143)\n        tag_145:\n            /* \"#utility.yul\":8207:8213   */\n          dup7\n            /* \"#utility.yul\":8198:8205   */\n          dup4\n            /* \"#utility.yul\":8195:8214   */\n          lt\n            /* \"#utility.yul\":8192:8371   */\n          iszero\n          tag_146\n          jumpi\n            /* \"#utility.yul\":8265:8274   */\n          dup5\n            /* \"#utility.yul\":8260:8263   */\n          dup10\n            /* \"#utility.yul\":8256:8275   */\n          add\n            /* \"#utility.yul\":8250:8276   */\n          mload\n            /* \"#utility.yul\":8308:8356   */\n          tag_147\n            /* \"#utility.yul\":8350:8354   */\n          0x1f\n            /* \"#utility.yul\":8342:8348   */\n          dup10\n            /* \"#utility.yul\":8338:8355   */\n          and\n            /* \"#utility.yul\":8327:8336   */\n          dup3\n            /* \"#utility.yul\":8308:8356   */\n          tag_41\n          jump\t// in\n        tag_147:\n            /* \"#utility.yul\":8300:8306   */\n          dup4\n            /* \"#utility.yul\":8293:8357   */\n          sstore\n            /* \"#utility.yul\":8215:8371   */\n          pop\n            /* \"#utility.yul\":8192:8371   */\n        tag_146:\n            /* \"#utility.yul\":8417:8418   */\n          0x01\n            /* \"#utility.yul\":8413:8414   */\n          0x02\n            /* \"#utility.yul\":8405:8411   */\n          dup9\n            /* \"#utility.yul\":8401:8415   */\n          mul\n            /* \"#utility.yul\":8397:8419   */\n          add\n            /* \"#utility.yul\":8391:8395   */\n          dup9\n            /* \"#utility.yul\":8384:8420   */\n          sstore\n            /* \"#utility.yul\":7819:8430   */\n          pop\n          pop\n          pop\n            /* \"#utility.yul\":7782:8669   */\n        tag_138:\n          pop\n            /* \"#utility.yul\":7372:8675   */\n          pop\n          pop\n          pop\n            /* \"#utility.yul\":7280:8675   */\n          pop\n          pop\n          jump\t// out\n            /* \"Album.sol\":60:242  contract Album {... */\n        tag_8:\n          dataSize(sub_0)\n          dup1\n          dataOffset(sub_0)\n          0x00\n          codecopy\n          0x00\n          return\n        stop\n\n        sub_0: assembly {\n                /* \"Album.sol\":60:242  contract Album {... */\n              mstore(0x40, 0x80)\n              callvalue\n              dup1\n              iszero\n              tag_1\n              jumpi\n              0x00\n              dup1\n              revert\n            tag_1:\n              pop\n              jumpi(tag_2, lt(calldatasize, 0x04))\n              shr(0xe0, calldataload(0x00))\n              dup1\n              0x4a79d50c\n              eq\n              tag_3\n              jumpi\n              dup1\n              0xa035b1fe\n              eq\n              tag_4\n              jumpi\n            tag_2:\n              0x00\n              dup1\n              revert\n                /* \"Album.sol\":106:125  string public title */\n            tag_3:\n              tag_5\n              tag_6\n              jump\t// in\n            tag_5:\n              mload(0x40)\n              tag_7\n              swap2\n              swap1\n              tag_8\n              jump\t// in\n            tag_7:\n              mload(0x40)\n              dup1\n              swap2\n              sub\n              swap1\n              return\n                /* \"Album.sol\":82:99  uint public price */\n            tag_4:\n              tag_9\n              tag_10\n              jump\t// in\n            tag_9:\n              mload(0x40)\n              tag_11\n              swap2\n              swap1\n              tag_12\n              jump\t// in\n            tag_11:\n              mload(0x40)\n              dup1\n              swap2\n              sub\n              swap1\n              return\n                /* \"Album.sol\":106:125  string public title */\n            tag_6:\n              0x01\n              dup1\n              sload\n              tag_13\n              swap1\n              tag_14\n              jump\t// in\n            tag_13:\n              dup1\n              0x1f\n              add\n              0x20\n              dup1\n              swap2\n              div\n              mul\n              0x20\n              add\n              mload(0x40)\n              swap1\n              dup2\n              add\n              0x40\n              mstore\n              dup1\n              swap3\n              swap2\n              swap1\n              dup2\n              dup2\n              mstore\n              0x20\n              add\n              dup3\n              dup1\n              sload\n              tag_15\n              swap1\n              tag_14\n              jump\t// in\n            tag_15:\n              dup1\n              iszero\n              tag_16\n              jumpi\n              dup1\n              0x1f\n              lt\n              tag_17\n              jumpi\n              0x0100\n              dup1\n              dup4\n              sload\n              div\n              mul\n              dup4\n              mstore\n              swap2\n              0x20\n              add\n              swap2\n              jump(tag_16)\n            tag_17:\n              dup3\n              add\n              swap2\n              swap1\n              0x00\n              mstore\n              keccak256(0x00, 0x20)\n              swap1\n            tag_18:\n              dup2\n              sload\n              dup2\n              mstore\n              swap1\n              0x01\n              add\n              swap1\n              0x20\n              add\n              dup1\n              dup4\n              gt\n              tag_18\n              jumpi\n              dup3\n              swap1\n              sub\n              0x1f\n              and\n              dup3\n              add\n              swap2\n            tag_16:\n              pop\n              pop\n              pop\n              pop\n              pop\n              dup2\n              jump\t// out\n                /* \"Album.sol\":82:99  uint public price */\n            tag_10:\n              sload(0x00)\n              dup2\n              jump\t// out\n                /* \"#utility.yul\":7:106   */\n            tag_19:\n                /* \"#utility.yul\":59:65   */\n              0x00\n                /* \"#utility.yul\":93:98   */\n              dup2\n                /* \"#utility.yul\":87:99   */\n              mload\n                /* \"#utility.yul\":77:99   */\n              swap1\n              pop\n                /* \"#utility.yul\":7:106   */\n              swap2\n              swap1\n              pop\n              jump\t// out\n                /* \"#utility.yul\":112:281   */\n            tag_20:\n                /* \"#utility.yul\":196:207   */\n              0x00\n                /* \"#utility.yul\":230:236   */\n              dup3\n                /* \"#utility.yul\":225:228   */\n              dup3\n                /* \"#utility.yul\":218:237   */\n              mstore\n                /* \"#utility.yul\":270:274   */\n              0x20\n                /* \"#utility.yul\":265:268   */\n              dup3\n                /* \"#utility.yul\":261:275   */\n              add\n                /* \"#utility.yul\":246:275   */\n              swap1\n              pop\n                /* \"#utility.yul\":112:281   */\n              swap3\n              swap2\n              pop\n              pop\n              jump\t// out\n                /* \"#utility.yul\":287:533   */\n            tag_21:\n                /* \"#utility.yul\":368:369   */\n              0x00\n                /* \"#utility.yul\":378:491   */\n            tag_31:\n                /* \"#utility.yul\":392:398   */\n              dup4\n                /* \"#utility.yul\":389:390   */\n              dup2\n                /* \"#utility.yul\":386:399   */\n              lt\n                /* \"#utility.yul\":378:491   */\n              iszero\n              tag_33\n              jumpi\n                /* \"#utility.yul\":477:478   */\n              dup1\n                /* \"#utility.yul\":472:475   */\n              dup3\n                /* \"#utility.yul\":468:479   */\n              add\n                /* \"#utility.yul\":462:480   */\n              mload\n                /* \"#utility.yul\":458:459   */\n              dup2\n                /* \"#utility.yul\":453:456   */\n              dup5\n                /* \"#utility.yul\":449:460   */\n              add\n                /* \"#utility.yul\":442:481   */\n              mstore\n                /* \"#utility.yul\":414:416   */\n              0x20\n                /* \"#utility.yul\":411:412   */\n              dup2\n                /* \"#utility.yul\":407:417   */\n              add\n                /* \"#utility.yul\":402:417   */\n              swap1\n              pop\n                /* \"#utility.yul\":378:491   */\n              jump(tag_31)\n            tag_33:\n                /* \"#utility.yul\":525:526   */\n              0x00\n                /* \"#utility.yul\":516:522   */\n              dup5\n                /* \"#utility.yul\":511:514   */\n              dup5\n                /* \"#utility.yul\":507:523   */\n              add\n                /* \"#utility.yul\":500:527   */\n              mstore\n                /* \"#utility.yul\":349:533   */\n              pop\n                /* \"#utility.yul\":287:533   */\n              pop\n              pop\n              pop\n              jump\t// out\n                /* \"#utility.yul\":539:641   */\n            tag_22:\n                /* \"#utility.yul\":580:586   */\n              0x00\n                /* \"#utility.yul\":631:633   */\n              0x1f\n                /* \"#utility.yul\":627:634   */\n              not\n                /* \"#utility.yul\":622:624   */\n              0x1f\n                /* \"#utility.yul\":615:620   */\n              dup4\n                /* \"#utility.yul\":611:625   */\n              add\n                /* \"#utility.yul\":607:635   */\n              and\n                /* \"#utility.yul\":597:635   */\n              swap1\n              pop\n                /* \"#utility.yul\":539:641   */\n              swap2\n              swap1\n              pop\n              jump\t// out\n                /* \"#utility.yul\":647:1024   */\n            tag_23:\n                /* \"#utility.yul\":735:738   */\n              0x00\n                /* \"#utility.yul\":763:802   */\n              tag_36\n                /* \"#utility.yul\":796:801   */\n              dup3\n                /* \"#utility.yul\":763:802   */\n              tag_19\n              jump\t// in\n            tag_36:\n                /* \"#utility.yul\":818:889   */\n              tag_37\n                /* \"#utility.yul\":882:888   */\n              dup2\n                /* \"#utility.yul\":877:880   */\n              dup6\n                /* \"#utility.yul\":818:889   */\n              tag_20\n              jump\t// in\n            tag_37:\n                /* \"#utility.yul\":811:889   */\n              swap4\n              pop\n                /* \"#utility.yul\":898:963   */\n              tag_38\n                /* \"#utility.yul\":956:962   */\n              dup2\n                /* \"#utility.yul\":951:954   */\n              dup6\n                /* \"#utility.yul\":944:948   */\n              0x20\n                /* \"#utility.yul\":937:942   */\n              dup7\n                /* \"#utility.yul\":933:949   */\n              add\n                /* \"#utility.yul\":898:963   */\n              tag_21\n              jump\t// in\n            tag_38:\n                /* \"#utility.yul\":988:1017   */\n              tag_39\n                /* \"#utility.yul\":1010:1016   */\n              dup2\n                /* \"#utility.yul\":988:1017   */\n              tag_22\n              jump\t// in\n            tag_39:\n                /* \"#utility.yul\":983:986   */\n              dup5\n                /* \"#utility.yul\":979:1018   */\n              add\n                /* \"#utility.yul\":972:1018   */\n              swap2\n              pop\n                /* \"#utility.yul\":739:1024   */\n              pop\n                /* \"#utility.yul\":647:1024   */\n              swap3\n              swap2\n              pop\n              pop\n              jump\t// out\n                /* \"#utility.yul\":1030:1343   */\n            tag_8:\n                /* \"#utility.yul\":1143:1147   */\n              0x00\n                /* \"#utility.yul\":1181:1183   */\n              0x20\n                /* \"#utility.yul\":1170:1179   */\n              dup3\n                /* \"#utility.yul\":1166:1184   */\n              add\n                /* \"#utility.yul\":1158:1184   */\n              swap1\n              pop\n                /* \"#utility.yul\":1230:1239   */\n              dup2\n                /* \"#utility.yul\":1224:1228   */\n              dup2\n                /* \"#utility.yul\":1220:1240   */\n              sub\n                /* \"#utility.yul\":1216:1217   */\n              0x00\n                /* \"#utility.yul\":1205:1214   */\n              dup4\n                /* \"#utility.yul\":1201:1218   */\n              add\n                /* \"#utility.yul\":1194:1241   */\n              mstore\n                /* \"#utility.yul\":1258:1336   */\n              tag_41\n                /* \"#utility.yul\":1331:1335   */\n              dup2\n                /* \"#utility.yul\":1322:1328   */\n              dup5\n                /* \"#utility.yul\":1258:1336   */\n              tag_23\n              jump\t// in\n            tag_41:\n                /* \"#utility.yul\":1250:1336   */\n              swap1\n              pop\n                /* \"#utility.yul\":1030:1343   */\n              swap3\n              swap2\n              pop\n              pop\n              jump\t// out\n                /* \"#utility.yul\":1349:1426   */\n            tag_24:\n                /* \"#utility.yul\":1386:1393   */\n              0x00\n                /* \"#utility.yul\":1415:1420   */\n              dup2\n                /* \"#utility.yul\":1404:1420   */\n              swap1\n              pop\n                /* \"#utility.yul\":1349:1426   */\n              swap2\n              swap1\n              pop\n              jump\t// out\n                /* \"#utility.yul\":1432:1550   */\n            tag_25:\n                /* \"#utility.yul\":1519:1543   */\n              tag_44\n                /* \"#utility.yul\":1537:1542   */\n              dup2\n                /* \"#utility.yul\":1519:1543   */\n              tag_24\n              jump\t// in\n            tag_44:\n                /* \"#utility.yul\":1514:1517   */\n              dup3\n                /* \"#utility.yul\":1507:1544   */\n              mstore\n                /* \"#utility.yul\":1432:1550   */\n              pop\n              pop\n              jump\t// out\n                /* \"#utility.yul\":1556:1778   */\n            tag_12:\n                /* \"#utility.yul\":1649:1653   */\n              0x00\n                /* \"#utility.yul\":1687:1689   */\n              0x20\n                /* \"#utility.yul\":1676:1685   */\n              dup3\n                /* \"#utility.yul\":1672:1690   */\n              add\n                /* \"#utility.yul\":1664:1690   */\n              swap1\n              pop\n                /* \"#utility.yul\":1700:1771   */\n              tag_46\n                /* \"#utility.yul\":1768:1769   */\n              0x00\n                /* \"#utility.yul\":1757:1766   */\n              dup4\n                /* \"#utility.yul\":1753:1770   */\n              add\n                /* \"#utility.yul\":1744:1750   */\n              dup5\n                /* \"#utility.yul\":1700:1771   */\n              tag_25\n              jump\t// in\n            tag_46:\n                /* \"#utility.yul\":1556:1778   */\n              swap3\n              swap2\n              pop\n              pop\n              jump\t// out\n                /* \"#utility.yul\":1784:1964   */\n            tag_26:\n                /* \"#utility.yul\":1832:1909   */\n              0x4e487b7100000000000000000000000000000000000000000000000000000000\n                /* \"#utility.yul\":1829:1830   */\n              0x00\n                /* \"#utility.yul\":1822:1910   */\n              mstore\n                /* \"#utility.yul\":1929:1933   */\n              0x22\n                /* \"#utility.yul\":1926:1927   */\n              0x04\n                /* \"#utility.yul\":1919:1934   */\n              mstore\n                /* \"#utility.yul\":1953:1957   */\n              0x24\n                /* \"#utility.yul\":1950:1951   */\n              0x00\n                /* \"#utility.yul\":1943:1958   */\n              revert\n                /* \"#utility.yul\":1970:2290   */\n            tag_14:\n                /* \"#utility.yul\":2014:2020   */\n              0x00\n                /* \"#utility.yul\":2051:2052   */\n              0x02\n                /* \"#utility.yul\":2045:2049   */\n              dup3\n                /* \"#utility.yul\":2041:2053   */\n              div\n                /* \"#utility.yul\":2031:2053   */\n              swap1\n              pop\n                /* \"#utility.yul\":2098:2099   */\n              0x01\n                /* \"#utility.yul\":2092:2096   */\n              dup3\n                /* \"#utility.yul\":2088:2100   */\n              and\n                /* \"#utility.yul\":2119:2137   */\n              dup1\n                /* \"#utility.yul\":2109:2190   */\n              tag_49\n              jumpi\n                /* \"#utility.yul\":2175:2179   */\n              0x7f\n                /* \"#utility.yul\":2167:2173   */\n              dup3\n                /* \"#utility.yul\":2163:2180   */\n              and\n                /* \"#utility.yul\":2153:2180   */\n              swap2\n              pop\n                /* \"#utility.yul\":2109:2190   */\n            tag_49:\n                /* \"#utility.yul\":2237:2239   */\n              0x20\n                /* \"#utility.yul\":2229:2235   */\n              dup3\n                /* \"#utility.yul\":2226:2240   */\n              lt\n                /* \"#utility.yul\":2206:2224   */\n              dup2\n                /* \"#utility.yul\":2203:2241   */\n              sub\n                /* \"#utility.yul\":2200:2284   */\n              tag_50\n              jumpi\n                /* \"#utility.yul\":2256:2274   */\n              tag_51\n              tag_26\n              jump\t// in\n            tag_51:\n                /* \"#utility.yul\":2200:2284   */\n            tag_50:\n                /* \"#utility.yul\":2021:2290   */\n              pop\n                /* \"#utility.yul\":1970:2290   */\n              swap2\n              swap1\n              pop\n              jump\t// out\n\n            auxdata: 0xa2646970667358221220b1b0577c7e95c1fc31ea84fd59b1065db07ee425e3f7a3a60fa13f2771fe551064736f6c63430008160033\n        }\n    }\n\n    auxdata: 0xa2646970667358221220731cdfff62bc169034a3817c40ced3123dd176d4415d0f283c28fe1441481bb564736f6c63430008160033\n}\n",
				"bytecode": {
					"linkReferences": {},
					"object": "608060405234801561000f575f80fd5b50335f73ffffffffffffffffffffffffffffffffffffffff168173ffffffffffffffffffffffffffffffffffffffff1603610081575f6040517f1e4fbdf70000000000000000000000000000000000000000000000000000000081526004016100789190610196565b60405180910390fd5b6100908161009660201b60201c565b506101af565b5f805f9054906101000a900473ffffffffffffffffffffffffffffffffffffffff169050815f806101000a81548173ffffffffffffffffffffffffffffffffffffffff021916908373ffffffffffffffffffffffffffffffffffffffff1602179055508173ffffffffffffffffffffffffffffffffffffffff168173ffffffffffffffffffffffffffffffffffffffff167f8be0079c531659141344cd1fd0a4f28419497f9722a3daafe3b4186f6b6457e060405160405180910390a35050565b5f73ffffffffffffffffffffffffffffffffffffffff82169050919050565b5f61018082610157565b9050919050565b61019081610176565b82525050565b5f6020820190506101a95f830184610187565b92915050565b6115f8806101bc5f395ff3fe608060405234801562000010575f80fd5b50600436106200005c575f3560e01c80631106ff551462000060578063715018a614620000805780638da5cb5b146200008c578063ea5df05914620000ae578063f2fde38b14620000e7575b5f80fd5b6200007e6004803603810190620000789190620006f3565b62000107565b005b6200008a6200023e565b005b6200009662000255565b604051620000a591906200079a565b60405180910390f35b620000cc6004803603810190620000c69190620007b5565b6200027c565b604051620000de94939291906200095d565b60405180910390f35b620001056004803603810190620000ff9190620009de565b62000361565b005b62000111620003ec565b5f8282604051620001229062000544565b6200012f92919062000a0e565b604051809103905ff08015801562000149573d5f803e3d5ffd5b5090508060015f60025481526020019081526020015f205f015f6101000a81548173ffffffffffffffffffffffffffffffffffffffff021916908373ffffffffffffffffffffffffffffffffffffffff1602179055505f60015f60025481526020019081526020015f205f0160146101000a81548160ff02191690836002811115620001da57620001d96200084c565b5b02179055508260015f60025481526020019081526020015f20600101819055508160015f60025481526020019081526020015f2060020190816200021f919062000c5b565b5060025f815480929190620002349062000d6c565b9190505550505050565b62000248620003ec565b620002535f6200047c565b565b5f805f9054906101000a900473ffffffffffffffffffffffffffffffffffffffff16905090565b6001602052805f5260405f205f91509050805f015f9054906101000a900473ffffffffffffffffffffffffffffffffffffffff1690805f0160149054906101000a900460ff1690806001015490806002018054620002da9062000a6d565b80601f0160208091040260200160405190810160405280929190818152602001828054620003089062000a6d565b8015620003575780601f106200032d5761010080835404028352916020019162000357565b820191905f5260205f20905b8154815290600101906020018083116200033957829003601f168201915b5050505050905084565b6200036b620003ec565b5f73ffffffffffffffffffffffffffffffffffffffff168173ffffffffffffffffffffffffffffffffffffffff1603620003de575f6040517f1e4fbdf7000000000000000000000000000000000000000000000000000000008152600401620003d591906200079a565b60405180910390fd5b620003e9816200047c565b50565b620003f66200053d565b73ffffffffffffffffffffffffffffffffffffffff166200041662000255565b73ffffffffffffffffffffffffffffffffffffffff16146200047a576200043c6200053d565b6040517f118cdaa70000000000000000000000000000000000000000000000000000000081526004016200047191906200079a565b60405180910390fd5b565b5f805f9054906101000a900473ffffffffffffffffffffffffffffffffffffffff169050815f806101000a81548173ffffffffffffffffffffffffffffffffffffffff021916908373ffffffffffffffffffffffffffffffffffffffff1602179055508173ffffffffffffffffffffffffffffffffffffffff168173ffffffffffffffffffffffffffffffffffffffff167f8be0079c531659141344cd1fd0a4f28419497f9722a3daafe3b4186f6b6457e060405160405180910390a35050565b5f33905090565b61080a8062000db983390190565b5f604051905090565b5f80fd5b5f80fd5b5f819050919050565b620005778162000563565b811462000582575f80fd5b50565b5f8135905062000595816200056c565b92915050565b5f80fd5b5f80fd5b5f601f19601f8301169050919050565b7f4e487b71000000000000000000000000000000000000000000000000000000005f52604160045260245ffd5b620005eb82620005a3565b810181811067ffffffffffffffff821117156200060d576200060c620005b3565b5b80604052505050565b5f6200062162000552565b90506200062f8282620005e0565b919050565b5f67ffffffffffffffff821115620006515762000650620005b3565b5b6200065c82620005a3565b9050602081019050919050565b828183375f83830152505050565b5f6200068d620006878462000634565b62000616565b905082815260208101848484011115620006ac57620006ab6200059f565b5b620006b984828562000669565b509392505050565b5f82601f830112620006d857620006d76200059b565b5b8135620006ea84826020860162000677565b91505092915050565b5f80604083850312156200070c576200070b6200055b565b5b5f6200071b8582860162000585565b925050602083013567ffffffffffffffff8111156200073f576200073e6200055f565b5b6200074d85828601620006c1565b9150509250929050565b5f73ffffffffffffffffffffffffffffffffffffffff82169050919050565b5f620007828262000757565b9050919050565b620007948162000776565b82525050565b5f602082019050620007af5f83018462000789565b92915050565b5f60208284031215620007cd57620007cc6200055b565b5b5f620007dc8482850162000585565b91505092915050565b5f819050919050565b5f6200080e62000808620008028462000757565b620007e5565b62000757565b9050919050565b5f6200082182620007ee565b9050919050565b5f620008348262000815565b9050919050565b620008468162000828565b82525050565b7f4e487b71000000000000000000000000000000000000000000000000000000005f52602160045260245ffd5b600381106200088d576200088c6200084c565b5b50565b5f8190506200089f8262000879565b919050565b5f620008b08262000890565b9050919050565b620008c281620008a4565b82525050565b620008d38162000563565b82525050565b5f81519050919050565b5f82825260208201905092915050565b5f5b8381101562000912578082015181840152602081019050620008f5565b5f8484015250505050565b5f6200092982620008d9565b620009358185620008e3565b935062000947818560208601620008f3565b6200095281620005a3565b840191505092915050565b5f608082019050620009725f8301876200083b565b620009816020830186620008b7565b620009906040830185620008c8565b8181036060830152620009a481846200091d565b905095945050505050565b620009ba8162000776565b8114620009c5575f80fd5b50565b5f81359050620009d881620009af565b92915050565b5f60208284031215620009f657620009f56200055b565b5b5f62000a0584828501620009c8565b91505092915050565b5f60408201905062000a235f830185620008c8565b818103602083015262000a3781846200091d565b90509392505050565b7f4e487b71000000000000000000000000000000000000000000000000000000005f52602260045260245ffd5b5f600282049050600182168062000a8557607f821691505b60208210810362000a9b5762000a9a62000a40565b5b50919050565b5f819050815f5260205f209050919050565b5f6020601f8301049050919050565b5f82821b905092915050565b5f6008830262000aff7fffffffffffffffffffffffffffffffffffffffffffffffffffffffffffffffff8262000ac2565b62000b0b868362000ac2565b95508019841693508086168417925050509392505050565b5f62000b4362000b3d62000b378462000563565b620007e5565b62000563565b9050919050565b5f819050919050565b62000b5e8362000b23565b62000b7662000b6d8262000b4a565b84845462000ace565b825550505050565b5f90565b62000b8c62000b7e565b62000b9981848462000b53565b505050565b5b8181101562000bc05762000bb45f8262000b82565b60018101905062000b9f565b5050565b601f82111562000c0f5762000bd98162000aa1565b62000be48462000ab3565b8101602085101562000bf4578190505b62000c0c62000c038562000ab3565b83018262000b9e565b50505b505050565b5f82821c905092915050565b5f62000c315f198460080262000c14565b1980831691505092915050565b5f62000c4b838362000c20565b9150826002028217905092915050565b62000c6682620008d9565b67ffffffffffffffff81111562000c825762000c81620005b3565b5b62000c8e825462000a6d565b62000c9b82828562000bc4565b5f60209050601f83116001811462000cd1575f841562000cbc578287015190505b62000cc8858262000c3e565b86555062000d37565b601f19841662000ce18662000aa1565b5f5b8281101562000d0a5784890151825560018201915060208501945060208101905062000ce3565b8683101562000d2a578489015162000d26601f89168262000c20565b8355505b6001600288020188555050505b505050505050565b7f4e487b71000000000000000000000000000000000000000000000000000000005f52601160045260245ffd5b5f62000d788262000563565b91507fffffffffffffffffffffffffffffffffffffffffffffffffffffffffffffffff820362000dad5762000dac62000d3f565b5b60018201905091905056fe608060405234801562000010575f80fd5b506040516200080a3803806200080a833981810160405281019062000036919062000213565b815f8190555080600190816200004d9190620004a5565b50505062000589565b5f604051905090565b5f80fd5b5f80fd5b5f819050919050565b6200007b8162000067565b811462000086575f80fd5b50565b5f81519050620000998162000070565b92915050565b5f80fd5b5f80fd5b5f601f19601f8301169050919050565b7f4e487b71000000000000000000000000000000000000000000000000000000005f52604160045260245ffd5b620000ef82620000a7565b810181811067ffffffffffffffff82111715620001115762000110620000b7565b5b80604052505050565b5f6200012562000056565b9050620001338282620000e4565b919050565b5f67ffffffffffffffff821115620001555762000154620000b7565b5b6200016082620000a7565b9050602081019050919050565b5f5b838110156200018c5780820151818401526020810190506200016f565b5f8484015250505050565b5f620001ad620001a78462000138565b6200011a565b905082815260208101848484011115620001cc57620001cb620000a3565b5b620001d98482856200016d565b509392505050565b5f82601f830112620001f857620001f76200009f565b5b81516200020a84826020860162000197565b91505092915050565b5f80604083850312156200022c576200022b6200005f565b5b5f6200023b8582860162000089565b925050602083015167ffffffffffffffff8111156200025f576200025e62000063565b5b6200026d85828601620001e1565b9150509250929050565b5f81519050919050565b7f4e487b71000000000000000000000000000000000000000000000000000000005f52602260045260245ffd5b5f6002820490506001821680620002c657607f821691505b602082108103620002dc57620002db62000281565b5b50919050565b5f819050815f5260205f209050919050565b5f6020601f8301049050919050565b5f82821b905092915050565b5f60088302620003407fffffffffffffffffffffffffffffffffffffffffffffffffffffffffffffffff8262000303565b6200034c868362000303565b95508019841693508086168417925050509392505050565b5f819050919050565b5f6200038d62000387620003818462000067565b62000364565b62000067565b9050919050565b5f819050919050565b620003a8836200036d565b620003c0620003b78262000394565b8484546200030f565b825550505050565b5f90565b620003d6620003c8565b620003e38184846200039d565b505050565b5b818110156200040a57620003fe5f82620003cc565b600181019050620003e9565b5050565b601f82111562000459576200042381620002e2565b6200042e84620002f4565b810160208510156200043e578190505b620004566200044d85620002f4565b830182620003e8565b50505b505050565b5f82821c905092915050565b5f6200047b5f19846008026200045e565b1980831691505092915050565b5f6200049583836200046a565b9150826002028217905092915050565b620004b08262000277565b67ffffffffffffffff811115620004cc57620004cb620000b7565b5b620004d88254620002ae565b620004e58282856200040e565b5f60209050601f8311600181146200051b575f841562000506578287015190505b62000512858262000488565b86555062000581565b601f1984166200052b86620002e2565b5f5b8281101562000554578489015182556001820191506020850194506020810190506200052d565b8683101562000574578489015162000570601f8916826200046a565b8355505b6001600288020188555050505b505050505050565b61027380620005975f395ff3fe608060405234801561000f575f80fd5b5060043610610034575f3560e01c80634a79d50c14610038578063a035b1fe14610056575b5f80fd5b610040610074565b60405161004d919061018f565b60405180910390f35b61005e610100565b60405161006b91906101c7565b60405180910390f35b600180546100819061020d565b80601f01602080910402602001604051908101604052809291908181526020018280546100ad9061020d565b80156100f85780601f106100cf576101008083540402835291602001916100f8565b820191905f5260205f20905b8154815290600101906020018083116100db57829003601f168201915b505050505081565b5f5481565b5f81519050919050565b5f82825260208201905092915050565b5f5b8381101561013c578082015181840152602081019050610121565b5f8484015250505050565b5f601f19601f8301169050919050565b5f61016182610105565b61016b818561010f565b935061017b81856020860161011f565b61018481610147565b840191505092915050565b5f6020820190508181035f8301526101a78184610157565b905092915050565b5f819050919050565b6101c1816101af565b82525050565b5f6020820190506101da5f8301846101b8565b92915050565b7f4e487b71000000000000000000000000000000000000000000000000000000005f52602260045260245ffd5b5f600282049050600182168061022457607f821691505b602082108103610237576102366101e0565b5b5091905056fea2646970667358221220b1b0577c7e95c1fc31ea84fd59b1065db07ee425e3f7a3a60fa13f2771fe551064736f6c63430008160033a2646970667358221220731cdfff62bc169034a3817c40ced3123dd176d4415d0f283c28fe1441481bb564736f6c63430008160033",
					"opcodes": "PUSH1 0x80 PUSH1 0x40 MSTORE CALLVALUE DUP1 ISZERO PUSH2 0xF JUMPI PUSH0 DUP1 REVERT JUMPDEST POP CALLER PUSH0 PUSH20 0xFFFFFFFFFFFFFFFFFFFFFFFFFFFFFFFFFFFFFFFF AND DUP2 PUSH20 0xFFFFFFFFFFFFFFFFFFFFFFFFFFFFFFFFFFFFFFFF AND SUB PUSH2 0x81 JUMPI PUSH0 PUSH1 0x40 MLOAD PUSH32 0x1E4FBDF700000000000000000000000000000000000000000000000000000000 DUP2 MSTORE PUSH1 0x4 ADD PUSH2 0x78 SWAP2 SWAP1 PUSH2 0x196 JUMP JUMPDEST PUSH1 0x40 MLOAD DUP1 SWAP2 SUB SWAP1 REVERT JUMPDEST PUSH2 0x90 DUP2 PUSH2 0x96 PUSH1 0x20 SHL PUSH1 0x20 SHR JUMP JUMPDEST POP PUSH2 0x1AF JUMP JUMPDEST PUSH0 DUP1 PUSH0 SWAP1 SLOAD SWAP1 PUSH2 0x100 EXP SWAP1 DIV PUSH20 0xFFFFFFFFFFFFFFFFFFFFFFFFFFFFFFFFFFFFFFFF AND SWAP1 POP DUP2 PUSH0 DUP1 PUSH2 0x100 EXP DUP2 SLOAD DUP2 PUSH20 0xFFFFFFFFFFFFFFFFFFFFFFFFFFFFFFFFFFFFFFFF MUL NOT AND SWAP1 DUP4 PUSH20 0xFFFFFFFFFFFFFFFFFFFFFFFFFFFFFFFFFFFFFFFF AND MUL OR SWAP1 SSTORE POP DUP2 PUSH20 0xFFFFFFFFFFFFFFFFFFFFFFFFFFFFFFFFFFFFFFFF AND DUP2 PUSH20 0xFFFFFFFFFFFFFFFFFFFFFFFFFFFFFFFFFFFFFFFF AND PUSH32 0x8BE0079C531659141344CD1FD0A4F28419497F9722A3DAAFE3B4186F6B6457E0 PUSH1 0x40 MLOAD PUSH1 0x40 MLOAD DUP1 SWAP2 SUB SWAP1 LOG3 POP POP JUMP JUMPDEST PUSH0 PUSH20 0xFFFFFFFFFFFFFFFFFFFFFFFFFFFFFFFFFFFFFFFF DUP3 AND SWAP1 POP SWAP2 SWAP1 POP JUMP JUMPDEST PUSH0 PUSH2 0x180 DUP3 PUSH2 0x157 JUMP JUMPDEST SWAP1 POP SWAP2 SWAP1 POP JUMP JUMPDEST PUSH2 0x190 DUP2 PUSH2 0x176 JUMP JUMPDEST DUP3 MSTORE POP POP JUMP JUMPDEST PUSH0 PUSH1 0x20 DUP3 ADD SWAP1 POP PUSH2 0x1A9 PUSH0 DUP4 ADD DUP5 PUSH2 0x187 JUMP JUMPDEST SWAP3 SWAP2 POP POP JUMP JUMPDEST PUSH2 0x15F8 DUP1 PUSH2 0x1BC PUSH0 CODECOPY PUSH0 RETURN INVALID PUSH1 0x80 PUSH1 0x40 MSTORE CALLVALUE DUP1 ISZERO PUSH3 0x10 JUMPI PUSH0 DUP1 REVERT JUMPDEST POP PUSH1 0x4 CALLDATASIZE LT PUSH3 0x5C JUMPI PUSH0 CALLDATALOAD PUSH1 0xE0 SHR DUP1 PUSH4 0x1106FF55 EQ PUSH3 0x60 JUMPI DUP1 PUSH4 0x715018A6 EQ PUSH3 0x80 JUMPI DUP1 PUSH4 0x8DA5CB5B EQ PUSH3 0x8C JUMPI DUP1 PUSH4 0xEA5DF059 EQ PUSH3 0xAE JUMPI DUP1 PUSH4 0xF2FDE38B EQ PUSH3 0xE7 JUMPI JUMPDEST PUSH0 DUP1 REVERT JUMPDEST PUSH3 0x7E PUSH1 0x4 DUP1 CALLDATASIZE SUB DUP2 ADD SWAP1 PUSH3 0x78 SWAP2 SWAP1 PUSH3 0x6F3 JUMP JUMPDEST PUSH3 0x107 JUMP JUMPDEST STOP JUMPDEST PUSH3 0x8A PUSH3 0x23E JUMP JUMPDEST STOP JUMPDEST PUSH3 0x96 PUSH3 0x255 JUMP JUMPDEST PUSH1 0x40 MLOAD PUSH3 0xA5 SWAP2 SWAP1 PUSH3 0x79A JUMP JUMPDEST PUSH1 0x40 MLOAD DUP1 SWAP2 SUB SWAP1 RETURN JUMPDEST PUSH3 0xCC PUSH1 0x4 DUP1 CALLDATASIZE SUB DUP2 ADD SWAP1 PUSH3 0xC6 SWAP2 SWAP1 PUSH3 0x7B5 JUMP JUMPDEST PUSH3 0x27C JUMP JUMPDEST PUSH1 0x40 MLOAD PUSH3 0xDE SWAP5 SWAP4 SWAP3 SWAP2 SWAP1 PUSH3 0x95D JUMP JUMPDEST PUSH1 0x40 MLOAD DUP1 SWAP2 SUB SWAP1 RETURN JUMPDEST PUSH3 0x105 PUSH1 0x4 DUP1 CALLDATASIZE SUB DUP2 ADD SWAP1 PUSH3 0xFF SWAP2 SWAP1 PUSH3 0x9DE JUMP JUMPDEST PUSH3 0x361 JUMP JUMPDEST STOP JUMPDEST PUSH3 0x111 PUSH3 0x3EC JUMP JUMPDEST PUSH0 DUP3 DUP3 PUSH1 0x40 MLOAD PUSH3 0x122 SWAP1 PUSH3 0x544 JUMP JUMPDEST PUSH3 0x12F SWAP3 SWAP2 SWAP1 PUSH3 0xA0E JUMP JUMPDEST PUSH1 0x40 MLOAD DUP1 SWAP2 SUB SWAP1 PUSH0 CREATE DUP1 ISZERO DUP1 ISZERO PUSH3 0x149 JUMPI RETURNDATASIZE PUSH0 DUP1 RETURNDATACOPY RETURNDATASIZE PUSH0 REVERT JUMPDEST POP SWAP1 POP DUP1 PUSH1 0x1 PUSH0 PUSH1 0x2 SLOAD DUP2 MSTORE PUSH1 0x20 ADD SWAP1 DUP2 MSTORE PUSH1 0x20 ADD PUSH0 KECCAK256 PUSH0 ADD PUSH0 PUSH2 0x100 EXP DUP2 SLOAD DUP2 PUSH20 0xFFFFFFFFFFFFFFFFFFFFFFFFFFFFFFFFFFFFFFFF MUL NOT AND SWAP1 DUP4 PUSH20 0xFFFFFFFFFFFFFFFFFFFFFFFFFFFFFFFFFFFFFFFF AND MUL OR SWAP1 SSTORE POP PUSH0 PUSH1 0x1 PUSH0 PUSH1 0x2 SLOAD DUP2 MSTORE PUSH1 0x20 ADD SWAP1 DUP2 MSTORE PUSH1 0x20 ADD PUSH0 KECCAK256 PUSH0 ADD PUSH1 0x14 PUSH2 0x100 EXP DUP2 SLOAD DUP2 PUSH1 0xFF MUL NOT AND SWAP1 DUP4 PUSH1 0x2 DUP2 GT ISZERO PUSH3 0x1DA JUMPI PUSH3 0x1D9 PUSH3 0x84C JUMP JUMPDEST JUMPDEST MUL OR SWAP1 SSTORE POP DUP3 PUSH1 0x1 PUSH0 PUSH1 0x2 SLOAD DUP2 MSTORE PUSH1 0x20 ADD SWAP1 DUP2 MSTORE PUSH1 0x20 ADD PUSH0 KECCAK256 PUSH1 0x1 ADD DUP2 SWAP1 SSTORE POP DUP2 PUSH1 0x1 PUSH0 PUSH1 0x2 SLOAD DUP2 MSTORE PUSH1 0x20 ADD SWAP1 DUP2 MSTORE PUSH1 0x20 ADD PUSH0 KECCAK256 PUSH1 0x2 ADD SWAP1 DUP2 PUSH3 0x21F SWAP2 SWAP1 PUSH3 0xC5B JUMP JUMPDEST POP PUSH1 0x2 PUSH0 DUP2 SLOAD DUP1 SWAP3 SWAP2 SWAP1 PUSH3 0x234 SWAP1 PUSH3 0xD6C JUMP JUMPDEST SWAP2 SWAP1 POP SSTORE POP POP POP POP JUMP JUMPDEST PUSH3 0x248 PUSH3 0x3EC JUMP JUMPDEST PUSH3 0x253 PUSH0 PUSH3 0x47C JUMP JUMPDEST JUMP JUMPDEST PUSH0 DUP1 PUSH0 SWAP1 SLOAD SWAP1 PUSH2 0x100 EXP SWAP1 DIV PUSH20 0xFFFFFFFFFFFFFFFFFFFFFFFFFFFFFFFFFFFFFFFF AND SWAP1 POP SWAP1 JUMP JUMPDEST PUSH1 0x1 PUSH1 0x20 MSTORE DUP1 PUSH0 MSTORE PUSH1 0x40 PUSH0 KECCAK256 PUSH0 SWAP2 POP SWAP1 POP DUP1 PUSH0 ADD PUSH0 SWAP1 SLOAD SWAP1 PUSH2 0x100 EXP SWAP1 DIV PUSH20 0xFFFFFFFFFFFFFFFFFFFFFFFFFFFFFFFFFFFFFFFF AND SWAP1 DUP1 PUSH0 ADD PUSH1 0x14 SWAP1 SLOAD SWAP1 PUSH2 0x100 EXP SWAP1 DIV PUSH1 0xFF AND SWAP1 DUP1 PUSH1 0x1 ADD SLOAD SWAP1 DUP1 PUSH1 0x2 ADD DUP1 SLOAD PUSH3 0x2DA SWAP1 PUSH3 0xA6D JUMP JUMPDEST DUP1 PUSH1 0x1F ADD PUSH1 0x20 DUP1 SWAP2 DIV MUL PUSH1 0x20 ADD PUSH1 0x40 MLOAD SWAP1 DUP2 ADD PUSH1 0x40 MSTORE DUP1 SWAP3 SWAP2 SWAP1 DUP2 DUP2 MSTORE PUSH1 0x20 ADD DUP3 DUP1 SLOAD PUSH3 0x308 SWAP1 PUSH3 0xA6D JUMP JUMPDEST DUP1 ISZERO PUSH3 0x357 JUMPI DUP1 PUSH1 0x1F LT PUSH3 0x32D JUMPI PUSH2 0x100 DUP1 DUP4 SLOAD DIV MUL DUP4 MSTORE SWAP2 PUSH1 0x20 ADD SWAP2 PUSH3 0x357 JUMP JUMPDEST DUP3 ADD SWAP2 SWAP1 PUSH0 MSTORE PUSH1 0x20 PUSH0 KECCAK256 SWAP1 JUMPDEST DUP2 SLOAD DUP2 MSTORE SWAP1 PUSH1 0x1 ADD SWAP1 PUSH1 0x20 ADD DUP1 DUP4 GT PUSH3 0x339 JUMPI DUP3 SWAP1 SUB PUSH1 0x1F AND DUP3 ADD SWAP2 JUMPDEST POP POP POP POP POP SWAP1 POP DUP5 JUMP JUMPDEST PUSH3 0x36B PUSH3 0x3EC JUMP JUMPDEST PUSH0 PUSH20 0xFFFFFFFFFFFFFFFFFFFFFFFFFFFFFFFFFFFFFFFF AND DUP2 PUSH20 0xFFFFFFFFFFFFFFFFFFFFFFFFFFFFFFFFFFFFFFFF AND SUB PUSH3 0x3DE JUMPI PUSH0 PUSH1 0x40 MLOAD PUSH32 0x1E4FBDF700000000000000000000000000000000000000000000000000000000 DUP2 MSTORE PUSH1 0x4 ADD PUSH3 0x3D5 SWAP2 SWAP1 PUSH3 0x79A JUMP JUMPDEST PUSH1 0x40 MLOAD DUP1 SWAP2 SUB SWAP1 REVERT JUMPDEST PUSH3 0x3E9 DUP2 PUSH3 0x47C JUMP JUMPDEST POP JUMP JUMPDEST PUSH3 0x3F6 PUSH3 0x53D JUMP JUMPDEST PUSH20 0xFFFFFFFFFFFFFFFFFFFFFFFFFFFFFFFFFFFFFFFF AND PUSH3 0x416 PUSH3 0x255 JUMP JUMPDEST PUSH20 0xFFFFFFFFFFFFFFFFFFFFFFFFFFFFFFFFFFFFFFFF AND EQ PUSH3 0x47A JUMPI PUSH3 0x43C PUSH3 0x53D JUMP JUMPDEST PUSH1 0x40 MLOAD PUSH32 0x118CDAA700000000000000000000000000000000000000000000000000000000 DUP2 MSTORE PUSH1 0x4 ADD PUSH3 0x471 SWAP2 SWAP1 PUSH3 0x79A JUMP JUMPDEST PUSH1 0x40 MLOAD DUP1 SWAP2 SUB SWAP1 REVERT JUMPDEST JUMP JUMPDEST PUSH0 DUP1 PUSH0 SWAP1 SLOAD SWAP1 PUSH2 0x100 EXP SWAP1 DIV PUSH20 0xFFFFFFFFFFFFFFFFFFFFFFFFFFFFFFFFFFFFFFFF AND SWAP1 POP DUP2 PUSH0 DUP1 PUSH2 0x100 EXP DUP2 SLOAD DUP2 PUSH20 0xFFFFFFFFFFFFFFFFFFFFFFFFFFFFFFFFFFFFFFFF MUL NOT AND SWAP1 DUP4 PUSH20 0xFFFFFFFFFFFFFFFFFFFFFFFFFFFFFFFFFFFFFFFF AND MUL OR SWAP1 SSTORE POP DUP2 PUSH20 0xFFFFFFFFFFFFFFFFFFFFFFFFFFFFFFFFFFFFFFFF AND DUP2 PUSH20 0xFFFFFFFFFFFFFFFFFFFFFFFFFFFFFFFFFFFFFFFF AND PUSH32 0x8BE0079C531659141344CD1FD0A4F28419497F9722A3DAAFE3B4186F6B6457E0 PUSH1 0x40 MLOAD PUSH1 0x40 MLOAD DUP1 SWAP2 SUB SWAP1 LOG3 POP POP JUMP JUMPDEST PUSH0 CALLER SWAP1 POP SWAP1 JUMP JUMPDEST PUSH2 0x80A DUP1 PUSH3 0xDB9 DUP4 CODECOPY ADD SWAP1 JUMP JUMPDEST PUSH0 PUSH1 0x40 MLOAD SWAP1 POP SWAP1 JUMP JUMPDEST PUSH0 DUP1 REVERT JUMPDEST PUSH0 DUP1 REVERT JUMPDEST PUSH0 DUP2 SWAP1 POP SWAP2 SWAP1 POP JUMP JUMPDEST PUSH3 0x577 DUP2 PUSH3 0x563 JUMP JUMPDEST DUP2 EQ PUSH3 0x582 JUMPI PUSH0 DUP1 REVERT JUMPDEST POP JUMP JUMPDEST PUSH0 DUP2 CALLDATALOAD SWAP1 POP PUSH3 0x595 DUP2 PUSH3 0x56C JUMP JUMPDEST SWAP3 SWAP2 POP POP JUMP JUMPDEST PUSH0 DUP1 REVERT JUMPDEST PUSH0 DUP1 REVERT JUMPDEST PUSH0 PUSH1 0x1F NOT PUSH1 0x1F DUP4 ADD AND SWAP1 POP SWAP2 SWAP1 POP JUMP JUMPDEST PUSH32 0x4E487B7100000000000000000000000000000000000000000000000000000000 PUSH0 MSTORE PUSH1 0x41 PUSH1 0x4 MSTORE PUSH1 0x24 PUSH0 REVERT JUMPDEST PUSH3 0x5EB DUP3 PUSH3 0x5A3 JUMP JUMPDEST DUP2 ADD DUP2 DUP2 LT PUSH8 0xFFFFFFFFFFFFFFFF DUP3 GT OR ISZERO PUSH3 0x60D JUMPI PUSH3 0x60C PUSH3 0x5B3 JUMP JUMPDEST JUMPDEST DUP1 PUSH1 0x40 MSTORE POP POP POP JUMP JUMPDEST PUSH0 PUSH3 0x621 PUSH3 0x552 JUMP JUMPDEST SWAP1 POP PUSH3 0x62F DUP3 DUP3 PUSH3 0x5E0 JUMP JUMPDEST SWAP2 SWAP1 POP JUMP JUMPDEST PUSH0 PUSH8 0xFFFFFFFFFFFFFFFF DUP3 GT ISZERO PUSH3 0x651 JUMPI PUSH3 0x650 PUSH3 0x5B3 JUMP JUMPDEST JUMPDEST PUSH3 0x65C DUP3 PUSH3 0x5A3 JUMP JUMPDEST SWAP1 POP PUSH1 0x20 DUP2 ADD SWAP1 POP SWAP2 SWAP1 POP JUMP JUMPDEST DUP3 DUP2 DUP4 CALLDATACOPY PUSH0 DUP4 DUP4 ADD MSTORE POP POP POP JUMP JUMPDEST PUSH0 PUSH3 0x68D PUSH3 0x687 DUP5 PUSH3 0x634 JUMP JUMPDEST PUSH3 0x616 JUMP JUMPDEST SWAP1 POP DUP3 DUP2 MSTORE PUSH1 0x20 DUP2 ADD DUP5 DUP5 DUP5 ADD GT ISZERO PUSH3 0x6AC JUMPI PUSH3 0x6AB PUSH3 0x59F JUMP JUMPDEST JUMPDEST PUSH3 0x6B9 DUP5 DUP3 DUP6 PUSH3 0x669 JUMP JUMPDEST POP SWAP4 SWAP3 POP POP POP JUMP JUMPDEST PUSH0 DUP3 PUSH1 0x1F DUP4 ADD SLT PUSH3 0x6D8 JUMPI PUSH3 0x6D7 PUSH3 0x59B JUMP JUMPDEST JUMPDEST DUP2 CALLDATALOAD PUSH3 0x6EA DUP5 DUP3 PUSH1 0x20 DUP7 ADD PUSH3 0x677 JUMP JUMPDEST SWAP2 POP POP SWAP3 SWAP2 POP POP JUMP JUMPDEST PUSH0 DUP1 PUSH1 0x40 DUP4 DUP6 SUB SLT ISZERO PUSH3 0x70C JUMPI PUSH3 0x70B PUSH3 0x55B JUMP JUMPDEST JUMPDEST PUSH0 PUSH3 0x71B DUP6 DUP3 DUP7 ADD PUSH3 0x585 JUMP JUMPDEST SWAP3 POP POP PUSH1 0x20 DUP4 ADD CALLDATALOAD PUSH8 0xFFFFFFFFFFFFFFFF DUP2 GT ISZERO PUSH3 0x73F JUMPI PUSH3 0x73E PUSH3 0x55F JUMP JUMPDEST JUMPDEST PUSH3 0x74D DUP6 DUP3 DUP7 ADD PUSH3 0x6C1 JUMP JUMPDEST SWAP2 POP POP SWAP3 POP SWAP3 SWAP1 POP JUMP JUMPDEST PUSH0 PUSH20 0xFFFFFFFFFFFFFFFFFFFFFFFFFFFFFFFFFFFFFFFF DUP3 AND SWAP1 POP SWAP2 SWAP1 POP JUMP JUMPDEST PUSH0 PUSH3 0x782 DUP3 PUSH3 0x757 JUMP JUMPDEST SWAP1 POP SWAP2 SWAP1 POP JUMP JUMPDEST PUSH3 0x794 DUP2 PUSH3 0x776 JUMP JUMPDEST DUP3 MSTORE POP POP JUMP JUMPDEST PUSH0 PUSH1 0x20 DUP3 ADD SWAP1 POP PUSH3 0x7AF PUSH0 DUP4 ADD DUP5 PUSH3 0x789 JUMP JUMPDEST SWAP3 SWAP2 POP POP JUMP JUMPDEST PUSH0 PUSH1 0x20 DUP3 DUP5 SUB SLT ISZERO PUSH3 0x7CD JUMPI PUSH3 0x7CC PUSH3 0x55B JUMP JUMPDEST JUMPDEST PUSH0 PUSH3 0x7DC DUP5 DUP3 DUP6 ADD PUSH3 0x585 JUMP JUMPDEST SWAP2 POP POP SWAP3 SWAP2 POP POP JUMP JUMPDEST PUSH0 DUP2 SWAP1 POP SWAP2 SWAP1 POP JUMP JUMPDEST PUSH0 PUSH3 0x80E PUSH3 0x808 PUSH3 0x802 DUP5 PUSH3 0x757 JUMP JUMPDEST PUSH3 0x7E5 JUMP JUMPDEST PUSH3 0x757 JUMP JUMPDEST SWAP1 POP SWAP2 SWAP1 POP JUMP JUMPDEST PUSH0 PUSH3 0x821 DUP3 PUSH3 0x7EE JUMP JUMPDEST SWAP1 POP SWAP2 SWAP1 POP JUMP JUMPDEST PUSH0 PUSH3 0x834 DUP3 PUSH3 0x815 JUMP JUMPDEST SWAP1 POP SWAP2 SWAP1 POP JUMP JUMPDEST PUSH3 0x846 DUP2 PUSH3 0x828 JUMP JUMPDEST DUP3 MSTORE POP POP JUMP JUMPDEST PUSH32 0x4E487B7100000000000000000000000000000000000000000000000000000000 PUSH0 MSTORE PUSH1 0x21 PUSH1 0x4 MSTORE PUSH1 0x24 PUSH0 REVERT JUMPDEST PUSH1 0x3 DUP2 LT PUSH3 0x88D JUMPI PUSH3 0x88C PUSH3 0x84C JUMP JUMPDEST JUMPDEST POP JUMP JUMPDEST PUSH0 DUP2 SWAP1 POP PUSH3 0x89F DUP3 PUSH3 0x879 JUMP JUMPDEST SWAP2 SWAP1 POP JUMP JUMPDEST PUSH0 PUSH3 0x8B0 DUP3 PUSH3 0x890 JUMP JUMPDEST SWAP1 POP SWAP2 SWAP1 POP JUMP JUMPDEST PUSH3 0x8C2 DUP2 PUSH3 0x8A4 JUMP JUMPDEST DUP3 MSTORE POP POP JUMP JUMPDEST PUSH3 0x8D3 DUP2 PUSH3 0x563 JUMP JUMPDEST DUP3 MSTORE POP POP JUMP JUMPDEST PUSH0 DUP2 MLOAD SWAP1 POP SWAP2 SWAP1 POP JUMP JUMPDEST PUSH0 DUP3 DUP3 MSTORE PUSH1 0x20 DUP3 ADD SWAP1 POP SWAP3 SWAP2 POP POP JUMP JUMPDEST PUSH0 JUMPDEST DUP4 DUP2 LT ISZERO PUSH3 0x912 JUMPI DUP1 DUP3 ADD MLOAD DUP2 DUP5 ADD MSTORE PUSH1 0x20 DUP2 ADD SWAP1 POP PUSH3 0x8F5 JUMP JUMPDEST PUSH0 DUP5 DUP5 ADD MSTORE POP POP POP POP JUMP JUMPDEST PUSH0 PUSH3 0x929 DUP3 PUSH3 0x8D9 JUMP JUMPDEST PUSH3 0x935 DUP2 DUP6 PUSH3 0x8E3 JUMP JUMPDEST SWAP4 POP PUSH3 0x947 DUP2 DUP6 PUSH1 0x20 DUP7 ADD PUSH3 0x8F3 JUMP JUMPDEST PUSH3 0x952 DUP2 PUSH3 0x5A3 JUMP JUMPDEST DUP5 ADD SWAP2 POP POP SWAP3 SWAP2 POP POP JUMP JUMPDEST PUSH0 PUSH1 0x80 DUP3 ADD SWAP1 POP PUSH3 0x972 PUSH0 DUP4 ADD DUP8 PUSH3 0x83B JUMP JUMPDEST PUSH3 0x981 PUSH1 0x20 DUP4 ADD DUP7 PUSH3 0x8B7 JUMP JUMPDEST PUSH3 0x990 PUSH1 0x40 DUP4 ADD DUP6 PUSH3 0x8C8 JUMP JUMPDEST DUP2 DUP2 SUB PUSH1 0x60 DUP4 ADD MSTORE PUSH3 0x9A4 DUP2 DUP5 PUSH3 0x91D JUMP JUMPDEST SWAP1 POP SWAP6 SWAP5 POP POP POP POP POP JUMP JUMPDEST PUSH3 0x9BA DUP2 PUSH3 0x776 JUMP JUMPDEST DUP2 EQ PUSH3 0x9C5 JUMPI PUSH0 DUP1 REVERT JUMPDEST POP JUMP JUMPDEST PUSH0 DUP2 CALLDATALOAD SWAP1 POP PUSH3 0x9D8 DUP2 PUSH3 0x9AF JUMP JUMPDEST SWAP3 SWAP2 POP POP JUMP JUMPDEST PUSH0 PUSH1 0x20 DUP3 DUP5 SUB SLT ISZERO PUSH3 0x9F6 JUMPI PUSH3 0x9F5 PUSH3 0x55B JUMP JUMPDEST JUMPDEST PUSH0 PUSH3 0xA05 DUP5 DUP3 DUP6 ADD PUSH3 0x9C8 JUMP JUMPDEST SWAP2 POP POP SWAP3 SWAP2 POP POP JUMP JUMPDEST PUSH0 PUSH1 0x40 DUP3 ADD SWAP1 POP PUSH3 0xA23 PUSH0 DUP4 ADD DUP6 PUSH3 0x8C8 JUMP JUMPDEST DUP2 DUP2 SUB PUSH1 0x20 DUP4 ADD MSTORE PUSH3 0xA37 DUP2 DUP5 PUSH3 0x91D JUMP JUMPDEST SWAP1 POP SWAP4 SWAP3 POP POP POP JUMP JUMPDEST PUSH32 0x4E487B7100000000000000000000000000000000000000000000000000000000 PUSH0 MSTORE PUSH1 0x22 PUSH1 0x4 MSTORE PUSH1 0x24 PUSH0 REVERT JUMPDEST PUSH0 PUSH1 0x2 DUP3 DIV SWAP1 POP PUSH1 0x1 DUP3 AND DUP1 PUSH3 0xA85 JUMPI PUSH1 0x7F DUP3 AND SWAP2 POP JUMPDEST PUSH1 0x20 DUP3 LT DUP2 SUB PUSH3 0xA9B JUMPI PUSH3 0xA9A PUSH3 0xA40 JUMP JUMPDEST JUMPDEST POP SWAP2 SWAP1 POP JUMP JUMPDEST PUSH0 DUP2 SWAP1 POP DUP2 PUSH0 MSTORE PUSH1 0x20 PUSH0 KECCAK256 SWAP1 POP SWAP2 SWAP1 POP JUMP JUMPDEST PUSH0 PUSH1 0x20 PUSH1 0x1F DUP4 ADD DIV SWAP1 POP SWAP2 SWAP1 POP JUMP JUMPDEST PUSH0 DUP3 DUP3 SHL SWAP1 POP SWAP3 SWAP2 POP POP JUMP JUMPDEST PUSH0 PUSH1 0x8 DUP4 MUL PUSH3 0xAFF PUSH32 0xFFFFFFFFFFFFFFFFFFFFFFFFFFFFFFFFFFFFFFFFFFFFFFFFFFFFFFFFFFFFFFFF DUP3 PUSH3 0xAC2 JUMP JUMPDEST PUSH3 0xB0B DUP7 DUP4 PUSH3 0xAC2 JUMP JUMPDEST SWAP6 POP DUP1 NOT DUP5 AND SWAP4 POP DUP1 DUP7 AND DUP5 OR SWAP3 POP POP POP SWAP4 SWAP3 POP POP POP JUMP JUMPDEST PUSH0 PUSH3 0xB43 PUSH3 0xB3D PUSH3 0xB37 DUP5 PUSH3 0x563 JUMP JUMPDEST PUSH3 0x7E5 JUMP JUMPDEST PUSH3 0x563 JUMP JUMPDEST SWAP1 POP SWAP2 SWAP1 POP JUMP JUMPDEST PUSH0 DUP2 SWAP1 POP SWAP2 SWAP1 POP JUMP JUMPDEST PUSH3 0xB5E DUP4 PUSH3 0xB23 JUMP JUMPDEST PUSH3 0xB76 PUSH3 0xB6D DUP3 PUSH3 0xB4A JUMP JUMPDEST DUP5 DUP5 SLOAD PUSH3 0xACE JUMP JUMPDEST DUP3 SSTORE POP POP POP POP JUMP JUMPDEST PUSH0 SWAP1 JUMP JUMPDEST PUSH3 0xB8C PUSH3 0xB7E JUMP JUMPDEST PUSH3 0xB99 DUP2 DUP5 DUP5 PUSH3 0xB53 JUMP JUMPDEST POP POP POP JUMP JUMPDEST JUMPDEST DUP2 DUP2 LT ISZERO PUSH3 0xBC0 JUMPI PUSH3 0xBB4 PUSH0 DUP3 PUSH3 0xB82 JUMP JUMPDEST PUSH1 0x1 DUP2 ADD SWAP1 POP PUSH3 0xB9F JUMP JUMPDEST POP POP JUMP JUMPDEST PUSH1 0x1F DUP3 GT ISZERO PUSH3 0xC0F JUMPI PUSH3 0xBD9 DUP2 PUSH3 0xAA1 JUMP JUMPDEST PUSH3 0xBE4 DUP5 PUSH3 0xAB3 JUMP JUMPDEST DUP2 ADD PUSH1 0x20 DUP6 LT ISZERO PUSH3 0xBF4 JUMPI DUP2 SWAP1 POP JUMPDEST PUSH3 0xC0C PUSH3 0xC03 DUP6 PUSH3 0xAB3 JUMP JUMPDEST DUP4 ADD DUP3 PUSH3 0xB9E JUMP JUMPDEST POP POP JUMPDEST POP POP POP JUMP JUMPDEST PUSH0 DUP3 DUP3 SHR SWAP1 POP SWAP3 SWAP2 POP POP JUMP JUMPDEST PUSH0 PUSH3 0xC31 PUSH0 NOT DUP5 PUSH1 0x8 MUL PUSH3 0xC14 JUMP JUMPDEST NOT DUP1 DUP4 AND SWAP2 POP POP SWAP3 SWAP2 POP POP JUMP JUMPDEST PUSH0 PUSH3 0xC4B DUP4 DUP4 PUSH3 0xC20 JUMP JUMPDEST SWAP2 POP DUP3 PUSH1 0x2 MUL DUP3 OR SWAP1 POP SWAP3 SWAP2 POP POP JUMP JUMPDEST PUSH3 0xC66 DUP3 PUSH3 0x8D9 JUMP JUMPDEST PUSH8 0xFFFFFFFFFFFFFFFF DUP2 GT ISZERO PUSH3 0xC82 JUMPI PUSH3 0xC81 PUSH3 0x5B3 JUMP JUMPDEST JUMPDEST PUSH3 0xC8E DUP3 SLOAD PUSH3 0xA6D JUMP JUMPDEST PUSH3 0xC9B DUP3 DUP3 DUP6 PUSH3 0xBC4 JUMP JUMPDEST PUSH0 PUSH1 0x20 SWAP1 POP PUSH1 0x1F DUP4 GT PUSH1 0x1 DUP2 EQ PUSH3 0xCD1 JUMPI PUSH0 DUP5 ISZERO PUSH3 0xCBC JUMPI DUP3 DUP8 ADD MLOAD SWAP1 POP JUMPDEST PUSH3 0xCC8 DUP6 DUP3 PUSH3 0xC3E JUMP JUMPDEST DUP7 SSTORE POP PUSH3 0xD37 JUMP JUMPDEST PUSH1 0x1F NOT DUP5 AND PUSH3 0xCE1 DUP7 PUSH3 0xAA1 JUMP JUMPDEST PUSH0 JUMPDEST DUP3 DUP2 LT ISZERO PUSH3 0xD0A JUMPI DUP5 DUP10 ADD MLOAD DUP3 SSTORE PUSH1 0x1 DUP3 ADD SWAP2 POP PUSH1 0x20 DUP6 ADD SWAP5 POP PUSH1 0x20 DUP2 ADD SWAP1 POP PUSH3 0xCE3 JUMP JUMPDEST DUP7 DUP4 LT ISZERO PUSH3 0xD2A JUMPI DUP5 DUP10 ADD MLOAD PUSH3 0xD26 PUSH1 0x1F DUP10 AND DUP3 PUSH3 0xC20 JUMP JUMPDEST DUP4 SSTORE POP JUMPDEST PUSH1 0x1 PUSH1 0x2 DUP9 MUL ADD DUP9 SSTORE POP POP POP JUMPDEST POP POP POP POP POP POP JUMP JUMPDEST PUSH32 0x4E487B7100000000000000000000000000000000000000000000000000000000 PUSH0 MSTORE PUSH1 0x11 PUSH1 0x4 MSTORE PUSH1 0x24 PUSH0 REVERT JUMPDEST PUSH0 PUSH3 0xD78 DUP3 PUSH3 0x563 JUMP JUMPDEST SWAP2 POP PUSH32 0xFFFFFFFFFFFFFFFFFFFFFFFFFFFFFFFFFFFFFFFFFFFFFFFFFFFFFFFFFFFFFFFF DUP3 SUB PUSH3 0xDAD JUMPI PUSH3 0xDAC PUSH3 0xD3F JUMP JUMPDEST JUMPDEST PUSH1 0x1 DUP3 ADD SWAP1 POP SWAP2 SWAP1 POP JUMP INVALID PUSH1 0x80 PUSH1 0x40 MSTORE CALLVALUE DUP1 ISZERO PUSH3 0x10 JUMPI PUSH0 DUP1 REVERT JUMPDEST POP PUSH1 0x40 MLOAD PUSH3 0x80A CODESIZE SUB DUP1 PUSH3 0x80A DUP4 CODECOPY DUP2 DUP2 ADD PUSH1 0x40 MSTORE DUP2 ADD SWAP1 PUSH3 0x36 SWAP2 SWAP1 PUSH3 0x213 JUMP JUMPDEST DUP2 PUSH0 DUP2 SWAP1 SSTORE POP DUP1 PUSH1 0x1 SWAP1 DUP2 PUSH3 0x4D SWAP2 SWAP1 PUSH3 0x4A5 JUMP JUMPDEST POP POP POP PUSH3 0x589 JUMP JUMPDEST PUSH0 PUSH1 0x40 MLOAD SWAP1 POP SWAP1 JUMP JUMPDEST PUSH0 DUP1 REVERT JUMPDEST PUSH0 DUP1 REVERT JUMPDEST PUSH0 DUP2 SWAP1 POP SWAP2 SWAP1 POP JUMP JUMPDEST PUSH3 0x7B DUP2 PUSH3 0x67 JUMP JUMPDEST DUP2 EQ PUSH3 0x86 JUMPI PUSH0 DUP1 REVERT JUMPDEST POP JUMP JUMPDEST PUSH0 DUP2 MLOAD SWAP1 POP PUSH3 0x99 DUP2 PUSH3 0x70 JUMP JUMPDEST SWAP3 SWAP2 POP POP JUMP JUMPDEST PUSH0 DUP1 REVERT JUMPDEST PUSH0 DUP1 REVERT JUMPDEST PUSH0 PUSH1 0x1F NOT PUSH1 0x1F DUP4 ADD AND SWAP1 POP SWAP2 SWAP1 POP JUMP JUMPDEST PUSH32 0x4E487B7100000000000000000000000000000000000000000000000000000000 PUSH0 MSTORE PUSH1 0x41 PUSH1 0x4 MSTORE PUSH1 0x24 PUSH0 REVERT JUMPDEST PUSH3 0xEF DUP3 PUSH3 0xA7 JUMP JUMPDEST DUP2 ADD DUP2 DUP2 LT PUSH8 0xFFFFFFFFFFFFFFFF DUP3 GT OR ISZERO PUSH3 0x111 JUMPI PUSH3 0x110 PUSH3 0xB7 JUMP JUMPDEST JUMPDEST DUP1 PUSH1 0x40 MSTORE POP POP POP JUMP JUMPDEST PUSH0 PUSH3 0x125 PUSH3 0x56 JUMP JUMPDEST SWAP1 POP PUSH3 0x133 DUP3 DUP3 PUSH3 0xE4 JUMP JUMPDEST SWAP2 SWAP1 POP JUMP JUMPDEST PUSH0 PUSH8 0xFFFFFFFFFFFFFFFF DUP3 GT ISZERO PUSH3 0x155 JUMPI PUSH3 0x154 PUSH3 0xB7 JUMP JUMPDEST JUMPDEST PUSH3 0x160 DUP3 PUSH3 0xA7 JUMP JUMPDEST SWAP1 POP PUSH1 0x20 DUP2 ADD SWAP1 POP SWAP2 SWAP1 POP JUMP JUMPDEST PUSH0 JUMPDEST DUP4 DUP2 LT ISZERO PUSH3 0x18C JUMPI DUP1 DUP3 ADD MLOAD DUP2 DUP5 ADD MSTORE PUSH1 0x20 DUP2 ADD SWAP1 POP PUSH3 0x16F JUMP JUMPDEST PUSH0 DUP5 DUP5 ADD MSTORE POP POP POP POP JUMP JUMPDEST PUSH0 PUSH3 0x1AD PUSH3 0x1A7 DUP5 PUSH3 0x138 JUMP JUMPDEST PUSH3 0x11A JUMP JUMPDEST SWAP1 POP DUP3 DUP2 MSTORE PUSH1 0x20 DUP2 ADD DUP5 DUP5 DUP5 ADD GT ISZERO PUSH3 0x1CC JUMPI PUSH3 0x1CB PUSH3 0xA3 JUMP JUMPDEST JUMPDEST PUSH3 0x1D9 DUP5 DUP3 DUP6 PUSH3 0x16D JUMP JUMPDEST POP SWAP4 SWAP3 POP POP POP JUMP JUMPDEST PUSH0 DUP3 PUSH1 0x1F DUP4 ADD SLT PUSH3 0x1F8 JUMPI PUSH3 0x1F7 PUSH3 0x9F JUMP JUMPDEST JUMPDEST DUP2 MLOAD PUSH3 0x20A DUP5 DUP3 PUSH1 0x20 DUP7 ADD PUSH3 0x197 JUMP JUMPDEST SWAP2 POP POP SWAP3 SWAP2 POP POP JUMP JUMPDEST PUSH0 DUP1 PUSH1 0x40 DUP4 DUP6 SUB SLT ISZERO PUSH3 0x22C JUMPI PUSH3 0x22B PUSH3 0x5F JUMP JUMPDEST JUMPDEST PUSH0 PUSH3 0x23B DUP6 DUP3 DUP7 ADD PUSH3 0x89 JUMP JUMPDEST SWAP3 POP POP PUSH1 0x20 DUP4 ADD MLOAD PUSH8 0xFFFFFFFFFFFFFFFF DUP2 GT ISZERO PUSH3 0x25F JUMPI PUSH3 0x25E PUSH3 0x63 JUMP JUMPDEST JUMPDEST PUSH3 0x26D DUP6 DUP3 DUP7 ADD PUSH3 0x1E1 JUMP JUMPDEST SWAP2 POP POP SWAP3 POP SWAP3 SWAP1 POP JUMP JUMPDEST PUSH0 DUP2 MLOAD SWAP1 POP SWAP2 SWAP1 POP JUMP JUMPDEST PUSH32 0x4E487B7100000000000000000000000000000000000000000000000000000000 PUSH0 MSTORE PUSH1 0x22 PUSH1 0x4 MSTORE PUSH1 0x24 PUSH0 REVERT JUMPDEST PUSH0 PUSH1 0x2 DUP3 DIV SWAP1 POP PUSH1 0x1 DUP3 AND DUP1 PUSH3 0x2C6 JUMPI PUSH1 0x7F DUP3 AND SWAP2 POP JUMPDEST PUSH1 0x20 DUP3 LT DUP2 SUB PUSH3 0x2DC JUMPI PUSH3 0x2DB PUSH3 0x281 JUMP JUMPDEST JUMPDEST POP SWAP2 SWAP1 POP JUMP JUMPDEST PUSH0 DUP2 SWAP1 POP DUP2 PUSH0 MSTORE PUSH1 0x20 PUSH0 KECCAK256 SWAP1 POP SWAP2 SWAP1 POP JUMP JUMPDEST PUSH0 PUSH1 0x20 PUSH1 0x1F DUP4 ADD DIV SWAP1 POP SWAP2 SWAP1 POP JUMP JUMPDEST PUSH0 DUP3 DUP3 SHL SWAP1 POP SWAP3 SWAP2 POP POP JUMP JUMPDEST PUSH0 PUSH1 0x8 DUP4 MUL PUSH3 0x340 PUSH32 0xFFFFFFFFFFFFFFFFFFFFFFFFFFFFFFFFFFFFFFFFFFFFFFFFFFFFFFFFFFFFFFFF DUP3 PUSH3 0x303 JUMP JUMPDEST PUSH3 0x34C DUP7 DUP4 PUSH3 0x303 JUMP JUMPDEST SWAP6 POP DUP1 NOT DUP5 AND SWAP4 POP DUP1 DUP7 AND DUP5 OR SWAP3 POP POP POP SWAP4 SWAP3 POP POP POP JUMP JUMPDEST PUSH0 DUP2 SWAP1 POP SWAP2 SWAP1 POP JUMP JUMPDEST PUSH0 PUSH3 0x38D PUSH3 0x387 PUSH3 0x381 DUP5 PUSH3 0x67 JUMP JUMPDEST PUSH3 0x364 JUMP JUMPDEST PUSH3 0x67 JUMP JUMPDEST SWAP1 POP SWAP2 SWAP1 POP JUMP JUMPDEST PUSH0 DUP2 SWAP1 POP SWAP2 SWAP1 POP JUMP JUMPDEST PUSH3 0x3A8 DUP4 PUSH3 0x36D JUMP JUMPDEST PUSH3 0x3C0 PUSH3 0x3B7 DUP3 PUSH3 0x394 JUMP JUMPDEST DUP5 DUP5 SLOAD PUSH3 0x30F JUMP JUMPDEST DUP3 SSTORE POP POP POP POP JUMP JUMPDEST PUSH0 SWAP1 JUMP JUMPDEST PUSH3 0x3D6 PUSH3 0x3C8 JUMP JUMPDEST PUSH3 0x3E3 DUP2 DUP5 DUP5 PUSH3 0x39D JUMP JUMPDEST POP POP POP JUMP JUMPDEST JUMPDEST DUP2 DUP2 LT ISZERO PUSH3 0x40A JUMPI PUSH3 0x3FE PUSH0 DUP3 PUSH3 0x3CC JUMP JUMPDEST PUSH1 0x1 DUP2 ADD SWAP1 POP PUSH3 0x3E9 JUMP JUMPDEST POP POP JUMP JUMPDEST PUSH1 0x1F DUP3 GT ISZERO PUSH3 0x459 JUMPI PUSH3 0x423 DUP2 PUSH3 0x2E2 JUMP JUMPDEST PUSH3 0x42E DUP5 PUSH3 0x2F4 JUMP JUMPDEST DUP2 ADD PUSH1 0x20 DUP6 LT ISZERO PUSH3 0x43E JUMPI DUP2 SWAP1 POP JUMPDEST PUSH3 0x456 PUSH3 0x44D DUP6 PUSH3 0x2F4 JUMP JUMPDEST DUP4 ADD DUP3 PUSH3 0x3E8 JUMP JUMPDEST POP POP JUMPDEST POP POP POP JUMP JUMPDEST PUSH0 DUP3 DUP3 SHR SWAP1 POP SWAP3 SWAP2 POP POP JUMP JUMPDEST PUSH0 PUSH3 0x47B PUSH0 NOT DUP5 PUSH1 0x8 MUL PUSH3 0x45E JUMP JUMPDEST NOT DUP1 DUP4 AND SWAP2 POP POP SWAP3 SWAP2 POP POP JUMP JUMPDEST PUSH0 PUSH3 0x495 DUP4 DUP4 PUSH3 0x46A JUMP JUMPDEST SWAP2 POP DUP3 PUSH1 0x2 MUL DUP3 OR SWAP1 POP SWAP3 SWAP2 POP POP JUMP JUMPDEST PUSH3 0x4B0 DUP3 PUSH3 0x277 JUMP JUMPDEST PUSH8 0xFFFFFFFFFFFFFFFF DUP2 GT ISZERO PUSH3 0x4CC JUMPI PUSH3 0x4CB PUSH3 0xB7 JUMP JUMPDEST JUMPDEST PUSH3 0x4D8 DUP3 SLOAD PUSH3 0x2AE JUMP JUMPDEST PUSH3 0x4E5 DUP3 DUP3 DUP6 PUSH3 0x40E JUMP JUMPDEST PUSH0 PUSH1 0x20 SWAP1 POP PUSH1 0x1F DUP4 GT PUSH1 0x1 DUP2 EQ PUSH3 0x51B JUMPI PUSH0 DUP5 ISZERO PUSH3 0x506 JUMPI DUP3 DUP8 ADD MLOAD SWAP1 POP JUMPDEST PUSH3 0x512 DUP6 DUP3 PUSH3 0x488 JUMP JUMPDEST DUP7 SSTORE POP PUSH3 0x581 JUMP JUMPDEST PUSH1 0x1F NOT DUP5 AND PUSH3 0x52B DUP7 PUSH3 0x2E2 JUMP JUMPDEST PUSH0 JUMPDEST DUP3 DUP2 LT ISZERO PUSH3 0x554 JUMPI DUP5 DUP10 ADD MLOAD DUP3 SSTORE PUSH1 0x1 DUP3 ADD SWAP2 POP PUSH1 0x20 DUP6 ADD SWAP5 POP PUSH1 0x20 DUP2 ADD SWAP1 POP PUSH3 0x52D JUMP JUMPDEST DUP7 DUP4 LT ISZERO PUSH3 0x574 JUMPI DUP5 DUP10 ADD MLOAD PUSH3 0x570 PUSH1 0x1F DUP10 AND DUP3 PUSH3 0x46A JUMP JUMPDEST DUP4 SSTORE POP JUMPDEST PUSH1 0x1 PUSH1 0x2 DUP9 MUL ADD DUP9 SSTORE POP POP POP JUMPDEST POP POP POP POP POP POP JUMP JUMPDEST PUSH2 0x273 DUP1 PUSH3 0x597 PUSH0 CODECOPY PUSH0 RETURN INVALID PUSH1 0x80 PUSH1 0x40 MSTORE CALLVALUE DUP1 ISZERO PUSH2 0xF JUMPI PUSH0 DUP1 REVERT JUMPDEST POP PUSH1 0x4 CALLDATASIZE LT PUSH2 0x34 JUMPI PUSH0 CALLDATALOAD PUSH1 0xE0 SHR DUP1 PUSH4 0x4A79D50C EQ PUSH2 0x38 JUMPI DUP1 PUSH4 0xA035B1FE EQ PUSH2 0x56 JUMPI JUMPDEST PUSH0 DUP1 REVERT JUMPDEST PUSH2 0x40 PUSH2 0x74 JUMP JUMPDEST PUSH1 0x40 MLOAD PUSH2 0x4D SWAP2 SWAP1 PUSH2 0x18F JUMP JUMPDEST PUSH1 0x40 MLOAD DUP1 SWAP2 SUB SWAP1 RETURN JUMPDEST PUSH2 0x5E PUSH2 0x100 JUMP JUMPDEST PUSH1 0x40 MLOAD PUSH2 0x6B SWAP2 SWAP1 PUSH2 0x1C7 JUMP JUMPDEST PUSH1 0x40 MLOAD DUP1 SWAP2 SUB SWAP1 RETURN JUMPDEST PUSH1 0x1 DUP1 SLOAD PUSH2 0x81 SWAP1 PUSH2 0x20D JUMP JUMPDEST DUP1 PUSH1 0x1F ADD PUSH1 0x20 DUP1 SWAP2 DIV MUL PUSH1 0x20 ADD PUSH1 0x40 MLOAD SWAP1 DUP2 ADD PUSH1 0x40 MSTORE DUP1 SWAP3 SWAP2 SWAP1 DUP2 DUP2 MSTORE PUSH1 0x20 ADD DUP3 DUP1 SLOAD PUSH2 0xAD SWAP1 PUSH2 0x20D JUMP JUMPDEST DUP1 ISZERO PUSH2 0xF8 JUMPI DUP1 PUSH1 0x1F LT PUSH2 0xCF JUMPI PUSH2 0x100 DUP1 DUP4 SLOAD DIV MUL DUP4 MSTORE SWAP2 PUSH1 0x20 ADD SWAP2 PUSH2 0xF8 JUMP JUMPDEST DUP3 ADD SWAP2 SWAP1 PUSH0 MSTORE PUSH1 0x20 PUSH0 KECCAK256 SWAP1 JUMPDEST DUP2 SLOAD DUP2 MSTORE SWAP1 PUSH1 0x1 ADD SWAP1 PUSH1 0x20 ADD DUP1 DUP4 GT PUSH2 0xDB JUMPI DUP3 SWAP1 SUB PUSH1 0x1F AND DUP3 ADD SWAP2 JUMPDEST POP POP POP POP POP DUP2 JUMP JUMPDEST PUSH0 SLOAD DUP2 JUMP JUMPDEST PUSH0 DUP2 MLOAD SWAP1 POP SWAP2 SWAP1 POP JUMP JUMPDEST PUSH0 DUP3 DUP3 MSTORE PUSH1 0x20 DUP3 ADD SWAP1 POP SWAP3 SWAP2 POP POP JUMP JUMPDEST PUSH0 JUMPDEST DUP4 DUP2 LT ISZERO PUSH2 0x13C JUMPI DUP1 DUP3 ADD MLOAD DUP2 DUP5 ADD MSTORE PUSH1 0x20 DUP2 ADD SWAP1 POP PUSH2 0x121 JUMP JUMPDEST PUSH0 DUP5 DUP5 ADD MSTORE POP POP POP POP JUMP JUMPDEST PUSH0 PUSH1 0x1F NOT PUSH1 0x1F DUP4 ADD AND SWAP1 POP SWAP2 SWAP1 POP JUMP JUMPDEST PUSH0 PUSH2 0x161 DUP3 PUSH2 0x105 JUMP JUMPDEST PUSH2 0x16B DUP2 DUP6 PUSH2 0x10F JUMP JUMPDEST SWAP4 POP PUSH2 0x17B DUP2 DUP6 PUSH1 0x20 DUP7 ADD PUSH2 0x11F JUMP JUMPDEST PUSH2 0x184 DUP2 PUSH2 0x147 JUMP JUMPDEST DUP5 ADD SWAP2 POP POP SWAP3 SWAP2 POP POP JUMP JUMPDEST PUSH0 PUSH1 0x20 DUP3 ADD SWAP1 POP DUP2 DUP2 SUB PUSH0 DUP4 ADD MSTORE PUSH2 0x1A7 DUP2 DUP5 PUSH2 0x157 JUMP JUMPDEST SWAP1 POP SWAP3 SWAP2 POP POP JUMP JUMPDEST PUSH0 DUP2 SWAP1 POP SWAP2 SWAP1 POP JUMP JUMPDEST PUSH2 0x1C1 DUP2 PUSH2 0x1AF JUMP JUMPDEST DUP3 MSTORE POP POP JUMP JUMPDEST PUSH0 PUSH1 0x20 DUP3 ADD SWAP1 POP PUSH2 0x1DA PUSH0 DUP4 ADD DUP5 PUSH2 0x1B8 JUMP JUMPDEST SWAP3 SWAP2 POP POP JUMP JUMPDEST PUSH32 0x4E487B7100000000000000000000000000000000000000000000000000000000 PUSH0 MSTORE PUSH1 0x22 PUSH1 0x4 MSTORE PUSH1 0x24 PUSH0 REVERT JUMPDEST PUSH0 PUSH1 0x2 DUP3 DIV SWAP1 POP PUSH1 0x1 DUP3 AND DUP1 PUSH2 0x224 JUMPI PUSH1 0x7F DUP3 AND SWAP2 POP JUMPDEST PUSH1 0x20 DUP3 LT DUP2 SUB PUSH2 0x237 JUMPI PUSH2 0x236 PUSH2 0x1E0 JUMP JUMPDEST JUMPDEST POP SWAP2 SWAP1 POP JUMP INVALID LOG2 PUSH5 0x6970667358 0x22 SLT KECCAK256 0xB1 0xB0 JUMPI PUSH29 0x7E95C1FC31EA84FD59B1065DB07EE425E3F7A3A60FA13F2771FE551064 PUSH20 0x6F6C63430008160033A264697066735822122073 SHR 0xDF SELFDESTRUCT PUSH3 0xBC1690 CALLVALUE LOG3 DUP2 PUSH29 0x40CED3123DD176D4415D0F283C28FE1441481BB564736F6C6343000816 STOP CALLER "
				},
				"gasEstimates": {
					"creation": {
						"codeDepositCost": "1124800",
						"executionCost": "infinite",
						"totalCost": "infinite"
					},
					"external": {
						"albums(uint256)": "infinite",
						"creatAlbum(uint256,string)": "infinite",
						"owner()": "2537",
						"renounceOwnership()": "infinite",
						"transferOwnership(address)": "infinite"
					}
				},
				"methodIdentifiers": {
					"albums(uint256)": "ea5df059",
					"creatAlbum(uint256,string)": "1106ff55",
					"owner()": "8da5cb5b",
					"renounceOwnership()": "715018a6",
					"transferOwnership(address)": "f2fde38b"
				}
			},
			"storageLayout": {
				"storage": [
					{
						"astId": 8,
						"contract": "AlbumTracker.sol:AlbumTracker",
						"label": "_owner",
						"offset": 0,
						"slot": "0",
						"type": "t_address"
					},
					{
						"astId": 234,
						"contract": "AlbumTracker.sol:AlbumTracker",
						"label": "albums",
						"offset": 0,
						"slot": "1",
						"type": "t_mapping(t_uint256,t_struct(AlbumProduct)229_storage)"
					},
					{
						"astId": 236,
						"contract": "AlbumTracker.sol:AlbumTracker",
						"label": "currentIndex",
						"offset": 0,
						"slot": "2",
						"type": "t_uint256"
					}
				],
				"types": {
					"t_address": {
						"encoding": "inplace",
						"label": "address",
						"numberOfBytes": "20"
					},
					"t_contract(Album)200": {
						"encoding": "inplace",
						"label": "contract Album",
						"numberOfBytes": "20"
					},
					"t_enum(AlbumState)218": {
						"encoding": "inplace",
						"label": "enum AlbumTracker.AlbumState",
						"numberOfBytes": "1"
					},
					"t_mapping(t_uint256,t_struct(AlbumProduct)229_storage)": {
						"encoding": "mapping",
						"key": "t_uint256",
						"label": "mapping(uint256 => struct AlbumTracker.AlbumProduct)",
						"numberOfBytes": "32",
						"value": "t_struct(AlbumProduct)229_storage"
					},
					"t_string_storage": {
						"encoding": "bytes",
						"label": "string",
						"numberOfBytes": "32"
					},
					"t_struct(AlbumProduct)229_storage": {
						"encoding": "inplace",
						"label": "struct AlbumTracker.AlbumProduct",
						"members": [
							{
								"astId": 221,
								"contract": "AlbumTracker.sol:AlbumTracker",
								"label": "album",
								"offset": 0,
								"slot": "0",
								"type": "t_contract(Album)200"
							},
							{
								"astId": 224,
								"contract": "AlbumTracker.sol:AlbumTracker",
								"label": "state",
								"offset": 20,
								"slot": "0",
								"type": "t_enum(AlbumState)218"
							},
							{
								"astId": 226,
								"contract": "AlbumTracker.sol:AlbumTracker",
								"label": "price",
								"offset": 0,
								"slot": "1",
								"type": "t_uint256"
							},
							{
								"astId": 228,
								"contract": "AlbumTracker.sol:AlbumTracker",
								"label": "title",
								"offset": 0,
								"slot": "2",
								"type": "t_string_storage"
							}
						],
						"numberOfBytes": "96"
					},
					"t_uint256": {
						"encoding": "inplace",
						"label": "uint256",
						"numberOfBytes": "32"
					}
				}
			},
			"userdoc": {
				"kind": "user",
				"methods": {},
				"version": 1
			}
		}
	}
}