{
	"Solidity/my-hardhat-project/contracts/ENSRegistrar.sol": {
		"ENSRegistrar": {
			"abi": [
				{
					"inputs": [
						{
							"internalType": "uint256",
							"name": "_registrationPricePerYear",
							"type": "uint256"
						},
						{
							"internalType": "uint256",
							"name": "_renewalCoefficient",
							"type": "uint256"
						}
					],
					"stateMutability": "nonpayable",
					"type": "constructor"
				},
				{
					"anonymous": false,
					"inputs": [
						{
							"indexed": false,
							"internalType": "string",
							"name": "domain",
							"type": "string"
						},
						{
							"indexed": false,
							"internalType": "address",
							"name": "owner",
							"type": "address"
						},
						{
							"indexed": false,
							"internalType": "uint256",
							"name": "priceReg",
							"type": "uint256"
						},
						{
							"indexed": false,
							"internalType": "uint256",
							"name": "timestamp",
							"type": "uint256"
						},
						{
							"indexed": false,
							"internalType": "uint256",
							"name": "registrationYears",
							"type": "uint256"
						}
					],
					"name": "DomainRegistred",
					"type": "event"
				},
				{
					"inputs": [],
					"name": "MAX_REGISTRATION_YEARS",
					"outputs": [
						{
							"internalType": "uint256",
							"name": "",
							"type": "uint256"
						}
					],
					"stateMutability": "view",
					"type": "function"
				},
				{
					"inputs": [],
					"name": "MIN_REGISTRATION_YEARS",
					"outputs": [
						{
							"internalType": "uint256",
							"name": "",
							"type": "uint256"
						}
					],
					"stateMutability": "view",
					"type": "function"
				},
				{
					"inputs": [
						{
							"internalType": "string",
							"name": "",
							"type": "string"
						}
					],
					"name": "domains",
					"outputs": [
						{
							"internalType": "address",
							"name": "owner",
							"type": "address"
						},
						{
							"internalType": "uint256",
							"name": "priceReg",
							"type": "uint256"
						},
						{
							"internalType": "uint256",
							"name": "timestamp",
							"type": "uint256"
						},
						{
							"internalType": "uint256",
							"name": "registrationYears",
							"type": "uint256"
						}
					],
					"stateMutability": "view",
					"type": "function"
				},
				{
					"inputs": [],
					"name": "ensAddress",
					"outputs": [
						{
							"internalType": "address",
							"name": "",
							"type": "address"
						}
					],
					"stateMutability": "view",
					"type": "function"
				},
				{
					"inputs": [
						{
							"internalType": "string",
							"name": "domain",
							"type": "string"
						}
					],
					"name": "getDomainOwner",
					"outputs": [
						{
							"internalType": "address",
							"name": "",
							"type": "address"
						}
					],
					"stateMutability": "view",
					"type": "function"
				},
				{
					"inputs": [],
					"name": "owner",
					"outputs": [
						{
							"internalType": "address",
							"name": "",
							"type": "address"
						}
					],
					"stateMutability": "view",
					"type": "function"
				},
				{
					"inputs": [
						{
							"internalType": "string",
							"name": "domain",
							"type": "string"
						},
						{
							"internalType": "uint256",
							"name": "registrationYears",
							"type": "uint256"
						}
					],
					"name": "registerDomain",
					"outputs": [],
					"stateMutability": "payable",
					"type": "function"
				},
				{
					"inputs": [],
					"name": "registrationPricePerYear",
					"outputs": [
						{
							"internalType": "uint256",
							"name": "",
							"type": "uint256"
						}
					],
					"stateMutability": "view",
					"type": "function"
				},
				{
					"inputs": [
						{
							"internalType": "string",
							"name": "domain",
							"type": "string"
						},
						{
							"internalType": "uint256",
							"name": "renewalYears",
							"type": "uint256"
						}
					],
					"name": "renewDomain",
					"outputs": [],
					"stateMutability": "payable",
					"type": "function"
				},
				{
					"inputs": [],
					"name": "renewalCoefficient",
					"outputs": [
						{
							"internalType": "uint256",
							"name": "",
							"type": "uint256"
						}
					],
					"stateMutability": "view",
					"type": "function"
				},
				{
					"inputs": [
						{
							"internalType": "uint256",
							"name": "_registrationPricePerYear",
							"type": "uint256"
						}
					],
					"name": "setRegistrationPricePerYear",
					"outputs": [],
					"stateMutability": "nonpayable",
					"type": "function"
				},
				{
					"inputs": [
						{
							"internalType": "uint256",
							"name": "_renewalCoefficient",
							"type": "uint256"
						}
					],
					"name": "setRenewalCoefficient",
					"outputs": [],
					"stateMutability": "nonpayable",
					"type": "function"
				},
				{
					"inputs": [],
					"name": "withdraw",
					"outputs": [],
					"stateMutability": "nonpayable",
					"type": "function"
				}
			],
			"devdoc": {
				"kind": "dev",
				"methods": {},
				"version": 1
			},
			"evm": {
				"assembly": "    /* \"Solidity/my-hardhat-project/contracts/ENSRegistrar.sol\":108:5691  contract ENSRegistrar {... */\n  mstore(0x40, 0x80)\n    /* \"Solidity/my-hardhat-project/contracts/ENSRegistrar.sol\":1486:1707  constructor(uint _registrationPricePerYear, uint _renewalCoefficient) {... */\n  callvalue\n  dup1\n  iszero\n  tag_1\n  jumpi\n  0x00\n  dup1\n  revert\ntag_1:\n  pop\n  mload(0x40)\n  sub(codesize, bytecodeSize)\n  dup1\n  bytecodeSize\n  dup4\n  codecopy\n  dup2\n  dup2\n  add\n  0x40\n  mstore\n  dup2\n  add\n  swap1\n  tag_2\n  swap2\n  swap1\n  tag_3\n  jump\t// in\ntag_2:\n    /* \"Solidity/my-hardhat-project/contracts/ENSRegistrar.sol\":1575:1585  msg.sender */\n  caller\n    /* \"Solidity/my-hardhat-project/contracts/ENSRegistrar.sol\":1567:1572  owner */\n  0x04\n  0x00\n    /* \"Solidity/my-hardhat-project/contracts/ENSRegistrar.sol\":1567:1585  owner = msg.sender */\n  0x0100\n  exp\n  dup2\n  sload\n  dup2\n  0xffffffffffffffffffffffffffffffffffffffff\n  mul\n  not\n  and\n  swap1\n  dup4\n  0xffffffffffffffffffffffffffffffffffffffff\n  and\n  mul\n  or\n  swap1\n  sstore\n  pop\n    /* \"Solidity/my-hardhat-project/contracts/ENSRegistrar.sol\":1623:1648  _registrationPricePerYear */\n  dup2\n    /* \"Solidity/my-hardhat-project/contracts/ENSRegistrar.sol\":1596:1620  registrationPricePerYear */\n  0x02\n    /* \"Solidity/my-hardhat-project/contracts/ENSRegistrar.sol\":1596:1648  registrationPricePerYear = _registrationPricePerYear */\n  dup2\n  swap1\n  sstore\n  pop\n    /* \"Solidity/my-hardhat-project/contracts/ENSRegistrar.sol\":1680:1699  _renewalCoefficient */\n  dup1\n    /* \"Solidity/my-hardhat-project/contracts/ENSRegistrar.sol\":1659:1677  renewalCoefficient */\n  0x03\n    /* \"Solidity/my-hardhat-project/contracts/ENSRegistrar.sol\":1659:1699  renewalCoefficient = _renewalCoefficient */\n  dup2\n  swap1\n  sstore\n  pop\n    /* \"Solidity/my-hardhat-project/contracts/ENSRegistrar.sol\":1486:1707  constructor(uint _registrationPricePerYear, uint _renewalCoefficient) {... */\n  pop\n  pop\n    /* \"Solidity/my-hardhat-project/contracts/ENSRegistrar.sol\":108:5691  contract ENSRegistrar {... */\n  jump(tag_6)\n    /* \"#utility.yul\":88:205   */\ntag_8:\n    /* \"#utility.yul\":197:198   */\n  0x00\n    /* \"#utility.yul\":194:195   */\n  dup1\n    /* \"#utility.yul\":187:199   */\n  revert\n    /* \"#utility.yul\":334:411   */\ntag_10:\n    /* \"#utility.yul\":371:378   */\n  0x00\n    /* \"#utility.yul\":400:405   */\n  dup2\n    /* \"#utility.yul\":389:405   */\n  swap1\n  pop\n    /* \"#utility.yul\":334:411   */\n  swap2\n  swap1\n  pop\n  jump\t// out\n    /* \"#utility.yul\":417:539   */\ntag_11:\n    /* \"#utility.yul\":490:514   */\n  tag_19\n    /* \"#utility.yul\":508:513   */\n  dup2\n    /* \"#utility.yul\":490:514   */\n  tag_10\n  jump\t// in\ntag_19:\n    /* \"#utility.yul\":483:488   */\n  dup2\n    /* \"#utility.yul\":480:515   */\n  eq\n    /* \"#utility.yul\":470:533   */\n  tag_20\n  jumpi\n    /* \"#utility.yul\":529:530   */\n  0x00\n    /* \"#utility.yul\":526:527   */\n  dup1\n    /* \"#utility.yul\":519:531   */\n  revert\n    /* \"#utility.yul\":470:533   */\ntag_20:\n    /* \"#utility.yul\":417:539   */\n  pop\n  jump\t// out\n    /* \"#utility.yul\":545:688   */\ntag_12:\n    /* \"#utility.yul\":602:607   */\n  0x00\n    /* \"#utility.yul\":633:639   */\n  dup2\n    /* \"#utility.yul\":627:640   */\n  mload\n    /* \"#utility.yul\":618:640   */\n  swap1\n  pop\n    /* \"#utility.yul\":649:682   */\n  tag_22\n    /* \"#utility.yul\":676:681   */\n  dup2\n    /* \"#utility.yul\":649:682   */\n  tag_11\n  jump\t// in\ntag_22:\n    /* \"#utility.yul\":545:688   */\n  swap3\n  swap2\n  pop\n  pop\n  jump\t// out\n    /* \"#utility.yul\":694:1201   */\ntag_3:\n    /* \"#utility.yul\":773:779   */\n  0x00\n    /* \"#utility.yul\":781:787   */\n  dup1\n    /* \"#utility.yul\":830:832   */\n  0x40\n    /* \"#utility.yul\":818:827   */\n  dup4\n    /* \"#utility.yul\":809:816   */\n  dup6\n    /* \"#utility.yul\":805:828   */\n  sub\n    /* \"#utility.yul\":801:833   */\n  slt\n    /* \"#utility.yul\":798:917   */\n  iszero\n  tag_24\n  jumpi\n    /* \"#utility.yul\":836:915   */\n  tag_25\n  tag_8\n  jump\t// in\ntag_25:\n    /* \"#utility.yul\":798:917   */\ntag_24:\n    /* \"#utility.yul\":956:957   */\n  0x00\n    /* \"#utility.yul\":981:1045   */\n  tag_26\n    /* \"#utility.yul\":1037:1044   */\n  dup6\n    /* \"#utility.yul\":1028:1034   */\n  dup3\n    /* \"#utility.yul\":1017:1026   */\n  dup7\n    /* \"#utility.yul\":1013:1035   */\n  add\n    /* \"#utility.yul\":981:1045   */\n  tag_12\n  jump\t// in\ntag_26:\n    /* \"#utility.yul\":971:1045   */\n  swap3\n  pop\n    /* \"#utility.yul\":927:1055   */\n  pop\n    /* \"#utility.yul\":1094:1096   */\n  0x20\n    /* \"#utility.yul\":1120:1184   */\n  tag_27\n    /* \"#utility.yul\":1176:1183   */\n  dup6\n    /* \"#utility.yul\":1167:1173   */\n  dup3\n    /* \"#utility.yul\":1156:1165   */\n  dup7\n    /* \"#utility.yul\":1152:1174   */\n  add\n    /* \"#utility.yul\":1120:1184   */\n  tag_12\n  jump\t// in\ntag_27:\n    /* \"#utility.yul\":1110:1184   */\n  swap2\n  pop\n    /* \"#utility.yul\":1065:1194   */\n  pop\n    /* \"#utility.yul\":694:1201   */\n  swap3\n  pop\n  swap3\n  swap1\n  pop\n  jump\t// out\n    /* \"Solidity/my-hardhat-project/contracts/ENSRegistrar.sol\":108:5691  contract ENSRegistrar {... */\ntag_6:\n  dataSize(sub_0)\n  dup1\n  dataOffset(sub_0)\n  0x00\n  codecopy\n  0x00\n  return\nstop\n\nsub_0: assembly {\n        /* \"Solidity/my-hardhat-project/contracts/ENSRegistrar.sol\":108:5691  contract ENSRegistrar {... */\n      mstore(0x40, 0x80)\n      jumpi(tag_1, lt(calldatasize, 0x04))\n      shr(0xe0, calldataload(0x00))\n      dup1\n      0x65a4dd91\n      gt\n      tag_15\n      jumpi\n      dup1\n      0x9094c266\n      gt\n      tag_16\n      jumpi\n      dup1\n      0x9094c266\n      eq\n      tag_11\n      jumpi\n      dup1\n      0xa6b694f2\n      eq\n      tag_12\n      jumpi\n      dup1\n      0xd6b495bd\n      eq\n      tag_13\n      jumpi\n      dup1\n      0xee5d8210\n      eq\n      tag_14\n      jumpi\n      jump(tag_1)\n    tag_16:\n      dup1\n      0x65a4dd91\n      eq\n      tag_8\n      jumpi\n      dup1\n      0x85e486c8\n      eq\n      tag_9\n      jumpi\n      dup1\n      0x8da5cb5b\n      eq\n      tag_10\n      jumpi\n      jump(tag_1)\n    tag_15:\n      dup1\n      0x1a83fd8f\n      eq\n      tag_2\n      jumpi\n      dup1\n      0x25970115\n      eq\n      tag_3\n      jumpi\n      dup1\n      0x26449235\n      eq\n      tag_4\n      jumpi\n      dup1\n      0x3ccfd60b\n      eq\n      tag_5\n      jumpi\n      dup1\n      0x3f414c19\n      eq\n      tag_6\n      jumpi\n      dup1\n      0x64e0d87b\n      eq\n      tag_7\n      jumpi\n    tag_1:\n      0x00\n      dup1\n      revert\n        /* \"Solidity/my-hardhat-project/contracts/ENSRegistrar.sol\":4066:5013  function renewDomain(string memory domain, uint renewalYears) external payable {... */\n    tag_2:\n      tag_17\n      0x04\n      dup1\n      calldatasize\n      sub\n      dup2\n      add\n      swap1\n      tag_18\n      swap2\n      swap1\n      tag_19\n      jump\t// in\n    tag_18:\n      tag_20\n      jump\t// in\n    tag_17:\n      stop\n        /* \"Solidity/my-hardhat-project/contracts/ENSRegistrar.sol\":5115:5240  function getDomainOwner(string memory domain) external view returns (address) {... */\n    tag_3:\n      callvalue\n      dup1\n      iszero\n      tag_21\n      jumpi\n      0x00\n      dup1\n      revert\n    tag_21:\n      pop\n      tag_22\n      0x04\n      dup1\n      calldatasize\n      sub\n      dup2\n      add\n      swap1\n      tag_23\n      swap2\n      swap1\n      tag_24\n      jump\t// in\n    tag_23:\n      tag_25\n      jump\t// in\n    tag_22:\n      mload(0x40)\n      tag_26\n      swap2\n      swap1\n      tag_27\n      jump\t// in\n    tag_26:\n      mload(0x40)\n      dup1\n      swap2\n      sub\n      swap1\n      return\n        /* \"Solidity/my-hardhat-project/contracts/ENSRegistrar.sol\":635:679  mapping(string => DomainInfo) public domains */\n    tag_4:\n      callvalue\n      dup1\n      iszero\n      tag_28\n      jumpi\n      0x00\n      dup1\n      revert\n    tag_28:\n      pop\n      tag_29\n      0x04\n      dup1\n      calldatasize\n      sub\n      dup2\n      add\n      swap1\n      tag_30\n      swap2\n      swap1\n      tag_24\n      jump\t// in\n    tag_30:\n      tag_31\n      jump\t// in\n    tag_29:\n      mload(0x40)\n      tag_32\n      swap5\n      swap4\n      swap3\n      swap2\n      swap1\n      tag_33\n      jump\t// in\n    tag_32:\n      mload(0x40)\n      dup1\n      swap2\n      sub\n      swap1\n      return\n        /* \"Solidity/my-hardhat-project/contracts/ENSRegistrar.sol\":5328:5688  function withdraw() external onlyOwner {... */\n    tag_5:\n      callvalue\n      dup1\n      iszero\n      tag_34\n      jumpi\n      0x00\n      dup1\n      revert\n    tag_34:\n      pop\n      tag_35\n      tag_36\n      jump\t// in\n    tag_35:\n      stop\n        /* \"Solidity/my-hardhat-project/contracts/ENSRegistrar.sol\":981:1028  uint constant public MIN_REGISTRATION_YEARS = 1 */\n    tag_6:\n      callvalue\n      dup1\n      iszero\n      tag_37\n      jumpi\n      0x00\n      dup1\n      revert\n    tag_37:\n      pop\n      tag_38\n      tag_39\n      jump\t// in\n    tag_38:\n      mload(0x40)\n      tag_40\n      swap2\n      swap1\n      tag_41\n      jump\t// in\n    tag_40:\n      mload(0x40)\n      dup1\n      swap2\n      sub\n      swap1\n      return\n        /* \"Solidity/my-hardhat-project/contracts/ENSRegistrar.sol\":944:974  uint public renewalCoefficient */\n    tag_7:\n      callvalue\n      dup1\n      iszero\n      tag_42\n      jumpi\n      0x00\n      dup1\n      revert\n    tag_42:\n      pop\n      tag_43\n      tag_44\n      jump\t// in\n    tag_43:\n      mload(0x40)\n      tag_45\n      swap2\n      swap1\n      tag_41\n      jump\t// in\n    tag_45:\n      mload(0x40)\n      dup1\n      swap2\n      sub\n      swap1\n      return\n        /* \"Solidity/my-hardhat-project/contracts/ENSRegistrar.sol\":901:937  uint public registrationPricePerYear */\n    tag_8:\n      callvalue\n      dup1\n      iszero\n      tag_46\n      jumpi\n      0x00\n      dup1\n      revert\n    tag_46:\n      pop\n      tag_47\n      tag_48\n      jump\t// in\n    tag_47:\n      mload(0x40)\n      tag_49\n      swap2\n      swap1\n      tag_41\n      jump\t// in\n    tag_49:\n      mload(0x40)\n      dup1\n      swap2\n      sub\n      swap1\n      return\n        /* \"Solidity/my-hardhat-project/contracts/ENSRegistrar.sol\":1035:1083  uint constant public MAX_REGISTRATION_YEARS = 10 */\n    tag_9:\n      callvalue\n      dup1\n      iszero\n      tag_50\n      jumpi\n      0x00\n      dup1\n      revert\n    tag_50:\n      pop\n      tag_51\n      tag_52\n      jump\t// in\n    tag_51:\n      mload(0x40)\n      tag_53\n      swap2\n      swap1\n      tag_41\n      jump\t// in\n    tag_53:\n      mload(0x40)\n      dup1\n      swap2\n      sub\n      swap1\n      return\n        /* \"Solidity/my-hardhat-project/contracts/ENSRegistrar.sol\":1183:1203  address public owner */\n    tag_10:\n      callvalue\n      dup1\n      iszero\n      tag_54\n      jumpi\n      0x00\n      dup1\n      revert\n    tag_54:\n      pop\n      tag_55\n      tag_56\n      jump\t// in\n    tag_55:\n      mload(0x40)\n      tag_57\n      swap2\n      swap1\n      tag_27\n      jump\t// in\n    tag_57:\n      mload(0x40)\n      dup1\n      swap2\n      sub\n      swap1\n      return\n        /* \"Solidity/my-hardhat-project/contracts/ENSRegistrar.sol\":2521:3996  function registerDomain(string memory domain, uint registrationYears) external payable {... */\n    tag_11:\n      tag_58\n      0x04\n      dup1\n      calldatasize\n      sub\n      dup2\n      add\n      swap1\n      tag_59\n      swap2\n      swap1\n      tag_19\n      jump\t// in\n    tag_59:\n      tag_60\n      jump\t// in\n    tag_58:\n      stop\n        /* \"Solidity/my-hardhat-project/contracts/ENSRegistrar.sol\":869:894  address public ensAddress */\n    tag_12:\n      callvalue\n      dup1\n      iszero\n      tag_61\n      jumpi\n      0x00\n      dup1\n      revert\n    tag_61:\n      pop\n      tag_62\n      tag_63\n      jump\t// in\n    tag_62:\n      mload(0x40)\n      tag_64\n      swap2\n      swap1\n      tag_27\n      jump\t// in\n    tag_64:\n      mload(0x40)\n      dup1\n      swap2\n      sub\n      swap1\n      return\n        /* \"Solidity/my-hardhat-project/contracts/ENSRegistrar.sol\":2312:2447  function setRenewalCoefficient(uint _renewalCoefficient) external onlyOwner {... */\n    tag_13:\n      callvalue\n      dup1\n      iszero\n      tag_65\n      jumpi\n      0x00\n      dup1\n      revert\n    tag_65:\n      pop\n      tag_66\n      0x04\n      dup1\n      calldatasize\n      sub\n      dup2\n      add\n      swap1\n      tag_67\n      swap2\n      swap1\n      tag_68\n      jump\t// in\n    tag_67:\n      tag_69\n      jump\t// in\n    tag_66:\n      stop\n        /* \"Solidity/my-hardhat-project/contracts/ENSRegistrar.sol\":2073:2232  function setRegistrationPricePerYear(uint _registrationPricePerYear) external onlyOwner {... */\n    tag_14:\n      callvalue\n      dup1\n      iszero\n      tag_70\n      jumpi\n      0x00\n      dup1\n      revert\n    tag_70:\n      pop\n      tag_71\n      0x04\n      dup1\n      calldatasize\n      sub\n      dup2\n      add\n      swap1\n      tag_72\n      swap2\n      swap1\n      tag_68\n      jump\t// in\n    tag_72:\n      tag_73\n      jump\t// in\n    tag_71:\n      stop\n        /* \"Solidity/my-hardhat-project/contracts/ENSRegistrar.sol\":4066:5013  function renewDomain(string memory domain, uint renewalYears) external payable {... */\n    tag_20:\n        /* \"Solidity/my-hardhat-project/contracts/ENSRegistrar.sol\":4285:4295  msg.sender */\n      caller\n        /* \"Solidity/my-hardhat-project/contracts/ENSRegistrar.sol\":4260:4295  domains[domain].owner == msg.sender */\n      0xffffffffffffffffffffffffffffffffffffffff\n      and\n        /* \"Solidity/my-hardhat-project/contracts/ENSRegistrar.sol\":4260:4267  domains */\n      0x00\n        /* \"Solidity/my-hardhat-project/contracts/ENSRegistrar.sol\":4268:4274  domain */\n      dup4\n        /* \"Solidity/my-hardhat-project/contracts/ENSRegistrar.sol\":4260:4275  domains[domain] */\n      mload(0x40)\n      tag_75\n      swap2\n      swap1\n      tag_76\n      jump\t// in\n    tag_75:\n      swap1\n      dup2\n      mstore\n      0x20\n      add\n      mload(0x40)\n      dup1\n      swap2\n      sub\n      swap1\n      keccak256\n        /* \"Solidity/my-hardhat-project/contracts/ENSRegistrar.sol\":4260:4281  domains[domain].owner */\n      0x00\n      add\n      0x00\n      swap1\n      sload\n      swap1\n      0x0100\n      exp\n      swap1\n      div\n      0xffffffffffffffffffffffffffffffffffffffff\n      and\n        /* \"Solidity/my-hardhat-project/contracts/ENSRegistrar.sol\":4260:4295  domains[domain].owner == msg.sender */\n      0xffffffffffffffffffffffffffffffffffffffff\n      and\n      eq\n        /* \"Solidity/my-hardhat-project/contracts/ENSRegistrar.sol\":4252:4336  require(domains[domain].owner == msg.sender, \"You are not the owner of this domain\") */\n      tag_77\n      jumpi\n      mload(0x40)\n      0x08c379a000000000000000000000000000000000000000000000000000000000\n      dup2\n      mstore\n      0x04\n      add\n      tag_78\n      swap1\n      tag_79\n      jump\t// in\n    tag_78:\n      mload(0x40)\n      dup1\n      swap2\n      sub\n      swap1\n      revert\n    tag_77:\n        /* \"Solidity/my-hardhat-project/contracts/ENSRegistrar.sol\":4422:4439  uint renewalPrice */\n      0x00\n        /* \"Solidity/my-hardhat-project/contracts/ENSRegistrar.sol\":4490:4502  renewalYears */\n      dup2\n        /* \"Solidity/my-hardhat-project/contracts/ENSRegistrar.sol\":4469:4487  renewalCoefficient */\n      sload(0x03)\n        /* \"Solidity/my-hardhat-project/contracts/ENSRegistrar.sol\":4442:4449  domains */\n      0x00\n        /* \"Solidity/my-hardhat-project/contracts/ENSRegistrar.sol\":4450:4456  domain */\n      dup6\n        /* \"Solidity/my-hardhat-project/contracts/ENSRegistrar.sol\":4442:4457  domains[domain] */\n      mload(0x40)\n      tag_80\n      swap2\n      swap1\n      tag_76\n      jump\t// in\n    tag_80:\n      swap1\n      dup2\n      mstore\n      0x20\n      add\n      mload(0x40)\n      dup1\n      swap2\n      sub\n      swap1\n      keccak256\n        /* \"Solidity/my-hardhat-project/contracts/ENSRegistrar.sol\":4442:4466  domains[domain].priceReg */\n      0x01\n      add\n      sload\n        /* \"Solidity/my-hardhat-project/contracts/ENSRegistrar.sol\":4442:4487  domains[domain].priceReg * renewalCoefficient */\n      tag_81\n      swap2\n      swap1\n      tag_82\n      jump\t// in\n    tag_81:\n        /* \"Solidity/my-hardhat-project/contracts/ENSRegistrar.sol\":4442:4502  domains[domain].priceReg * renewalCoefficient * renewalYears */\n      tag_83\n      swap2\n      swap1\n      tag_82\n      jump\t// in\n    tag_83:\n        /* \"Solidity/my-hardhat-project/contracts/ENSRegistrar.sol\":4422:4502  uint renewalPrice = domains[domain].priceReg * renewalCoefficient * renewalYears */\n      swap1\n      pop\n        /* \"Solidity/my-hardhat-project/contracts/ENSRegistrar.sol\":4534:4546  renewalPrice */\n      dup1\n        /* \"Solidity/my-hardhat-project/contracts/ENSRegistrar.sol\":4521:4530  msg.value */\n      callvalue\n        /* \"Solidity/my-hardhat-project/contracts/ENSRegistrar.sol\":4521:4546  msg.value >= renewalPrice */\n      lt\n      iszero\n        /* \"Solidity/my-hardhat-project/contracts/ENSRegistrar.sol\":4513:4569  require(msg.value >= renewalPrice, \"Insufficient funds\") */\n      tag_84\n      jumpi\n      mload(0x40)\n      0x08c379a000000000000000000000000000000000000000000000000000000000\n      dup2\n      mstore\n      0x04\n      add\n      tag_85\n      swap1\n      tag_86\n      jump\t// in\n    tag_85:\n      mload(0x40)\n      dup1\n      swap2\n      sub\n      swap1\n      revert\n    tag_84:\n        /* \"Solidity/my-hardhat-project/contracts/ENSRegistrar.sol\":4677:4689  renewalPrice */\n      dup1\n        /* \"Solidity/my-hardhat-project/contracts/ENSRegistrar.sol\":4650:4657  domains */\n      0x00\n        /* \"Solidity/my-hardhat-project/contracts/ENSRegistrar.sol\":4658:4664  domain */\n      dup5\n        /* \"Solidity/my-hardhat-project/contracts/ENSRegistrar.sol\":4650:4665  domains[domain] */\n      mload(0x40)\n      tag_87\n      swap2\n      swap1\n      tag_76\n      jump\t// in\n    tag_87:\n      swap1\n      dup2\n      mstore\n      0x20\n      add\n      mload(0x40)\n      dup1\n      swap2\n      sub\n      swap1\n      keccak256\n        /* \"Solidity/my-hardhat-project/contracts/ENSRegistrar.sol\":4650:4674  domains[domain].priceReg */\n      0x01\n      add\n        /* \"Solidity/my-hardhat-project/contracts/ENSRegistrar.sol\":4650:4689  domains[domain].priceReg = renewalPrice */\n      dup2\n      swap1\n      sstore\n      pop\n        /* \"Solidity/my-hardhat-project/contracts/ENSRegistrar.sol\":4728:4743  block.timestamp */\n      timestamp\n        /* \"Solidity/my-hardhat-project/contracts/ENSRegistrar.sol\":4700:4707  domains */\n      0x00\n        /* \"Solidity/my-hardhat-project/contracts/ENSRegistrar.sol\":4708:4714  domain */\n      dup5\n        /* \"Solidity/my-hardhat-project/contracts/ENSRegistrar.sol\":4700:4715  domains[domain] */\n      mload(0x40)\n      tag_88\n      swap2\n      swap1\n      tag_76\n      jump\t// in\n    tag_88:\n      swap1\n      dup2\n      mstore\n      0x20\n      add\n      mload(0x40)\n      dup1\n      swap2\n      sub\n      swap1\n      keccak256\n        /* \"Solidity/my-hardhat-project/contracts/ENSRegistrar.sol\":4700:4725  domains[domain].timestamp */\n      0x02\n      add\n        /* \"Solidity/my-hardhat-project/contracts/ENSRegistrar.sol\":4700:4743  domains[domain].timestamp = block.timestamp */\n      dup2\n      swap1\n      sstore\n      pop\n        /* \"Solidity/my-hardhat-project/contracts/ENSRegistrar.sol\":4791:4803  renewalYears */\n      dup2\n        /* \"Solidity/my-hardhat-project/contracts/ENSRegistrar.sol\":4754:4761  domains */\n      0x00\n        /* \"Solidity/my-hardhat-project/contracts/ENSRegistrar.sol\":4762:4768  domain */\n      dup5\n        /* \"Solidity/my-hardhat-project/contracts/ENSRegistrar.sol\":4754:4769  domains[domain] */\n      mload(0x40)\n      tag_89\n      swap2\n      swap1\n      tag_76\n      jump\t// in\n    tag_89:\n      swap1\n      dup2\n      mstore\n      0x20\n      add\n      mload(0x40)\n      dup1\n      swap2\n      sub\n      swap1\n      keccak256\n        /* \"Solidity/my-hardhat-project/contracts/ENSRegistrar.sol\":4754:4787  domains[domain].registrationYears */\n      0x03\n      add\n      0x00\n        /* \"Solidity/my-hardhat-project/contracts/ENSRegistrar.sol\":4754:4803  domains[domain].registrationYears += renewalYears */\n      dup3\n      dup3\n      sload\n      tag_90\n      swap2\n      swap1\n      tag_91\n      jump\t// in\n    tag_90:\n      swap3\n      pop\n      pop\n      dup2\n      swap1\n      sstore\n      pop\n        /* \"Solidity/my-hardhat-project/contracts/ENSRegistrar.sol\":4904:5005  DomainRegistred(domain, msg.sender, renewalPrice, block.timestamp, domains[domain].registrationYears) */\n      0xb268f54076718b9cb441aa108681f7ca5e1afc502ef4b8e8c094216ede0280f0\n        /* \"Solidity/my-hardhat-project/contracts/ENSRegistrar.sol\":4920:4926  domain */\n      dup4\n        /* \"Solidity/my-hardhat-project/contracts/ENSRegistrar.sol\":4928:4938  msg.sender */\n      caller\n        /* \"Solidity/my-hardhat-project/contracts/ENSRegistrar.sol\":4940:4952  renewalPrice */\n      dup4\n        /* \"Solidity/my-hardhat-project/contracts/ENSRegistrar.sol\":4954:4969  block.timestamp */\n      timestamp\n        /* \"Solidity/my-hardhat-project/contracts/ENSRegistrar.sol\":4971:4978  domains */\n      0x00\n        /* \"Solidity/my-hardhat-project/contracts/ENSRegistrar.sol\":4979:4985  domain */\n      dup9\n        /* \"Solidity/my-hardhat-project/contracts/ENSRegistrar.sol\":4971:4986  domains[domain] */\n      mload(0x40)\n      tag_92\n      swap2\n      swap1\n      tag_76\n      jump\t// in\n    tag_92:\n      swap1\n      dup2\n      mstore\n      0x20\n      add\n      mload(0x40)\n      dup1\n      swap2\n      sub\n      swap1\n      keccak256\n        /* \"Solidity/my-hardhat-project/contracts/ENSRegistrar.sol\":4971:5004  domains[domain].registrationYears */\n      0x03\n      add\n      sload\n        /* \"Solidity/my-hardhat-project/contracts/ENSRegistrar.sol\":4904:5005  DomainRegistred(domain, msg.sender, renewalPrice, block.timestamp, domains[domain].registrationYears) */\n      mload(0x40)\n      tag_93\n      swap6\n      swap5\n      swap4\n      swap3\n      swap2\n      swap1\n      tag_94\n      jump\t// in\n    tag_93:\n      mload(0x40)\n      dup1\n      swap2\n      sub\n      swap1\n      log1\n        /* \"Solidity/my-hardhat-project/contracts/ENSRegistrar.sol\":4145:5013  {... */\n      pop\n        /* \"Solidity/my-hardhat-project/contracts/ENSRegistrar.sol\":4066:5013  function renewDomain(string memory domain, uint renewalYears) external payable {... */\n      pop\n      pop\n      jump\t// out\n        /* \"Solidity/my-hardhat-project/contracts/ENSRegistrar.sol\":5115:5240  function getDomainOwner(string memory domain) external view returns (address) {... */\n    tag_25:\n        /* \"Solidity/my-hardhat-project/contracts/ENSRegistrar.sol\":5184:5191  address */\n      0x00\n        /* \"Solidity/my-hardhat-project/contracts/ENSRegistrar.sol\":5211:5218  domains */\n      dup1\n        /* \"Solidity/my-hardhat-project/contracts/ENSRegistrar.sol\":5219:5225  domain */\n      dup3\n        /* \"Solidity/my-hardhat-project/contracts/ENSRegistrar.sol\":5211:5226  domains[domain] */\n      mload(0x40)\n      tag_96\n      swap2\n      swap1\n      tag_76\n      jump\t// in\n    tag_96:\n      swap1\n      dup2\n      mstore\n      0x20\n      add\n      mload(0x40)\n      dup1\n      swap2\n      sub\n      swap1\n      keccak256\n        /* \"Solidity/my-hardhat-project/contracts/ENSRegistrar.sol\":5211:5232  domains[domain].owner */\n      0x00\n      add\n      0x00\n      swap1\n      sload\n      swap1\n      0x0100\n      exp\n      swap1\n      div\n      0xffffffffffffffffffffffffffffffffffffffff\n      and\n        /* \"Solidity/my-hardhat-project/contracts/ENSRegistrar.sol\":5204:5232  return domains[domain].owner */\n      swap1\n      pop\n        /* \"Solidity/my-hardhat-project/contracts/ENSRegistrar.sol\":5115:5240  function getDomainOwner(string memory domain) external view returns (address) {... */\n      swap2\n      swap1\n      pop\n      jump\t// out\n        /* \"Solidity/my-hardhat-project/contracts/ENSRegistrar.sol\":635:679  mapping(string => DomainInfo) public domains */\n    tag_31:\n      0x00\n      dup2\n      dup1\n      mload\n      0x20\n      dup2\n      add\n      dup3\n      add\n      dup1\n      mload\n      dup5\n      dup3\n      mstore\n      0x20\n      dup4\n      add\n      0x20\n      dup6\n      add\n      keccak256\n      dup2\n      dup4\n      mstore\n      dup1\n      swap6\n      pop\n      pop\n      pop\n      pop\n      pop\n      pop\n      0x00\n      swap2\n      pop\n      swap1\n      pop\n      dup1\n      0x00\n      add\n      0x00\n      swap1\n      sload\n      swap1\n      0x0100\n      exp\n      swap1\n      div\n      0xffffffffffffffffffffffffffffffffffffffff\n      and\n      swap1\n      dup1\n      0x01\n      add\n      sload\n      swap1\n      dup1\n      0x02\n      add\n      sload\n      swap1\n      dup1\n      0x03\n      add\n      sload\n      swap1\n      pop\n      dup5\n      jump\t// out\n        /* \"Solidity/my-hardhat-project/contracts/ENSRegistrar.sol\":5328:5688  function withdraw() external onlyOwner {... */\n    tag_36:\n        /* \"Solidity/my-hardhat-project/contracts/ENSRegistrar.sol\":1921:1926  owner */\n      0x04\n      0x00\n      swap1\n      sload\n      swap1\n      0x0100\n      exp\n      swap1\n      div\n      0xffffffffffffffffffffffffffffffffffffffff\n      and\n        /* \"Solidity/my-hardhat-project/contracts/ENSRegistrar.sol\":1907:1926  msg.sender == owner */\n      0xffffffffffffffffffffffffffffffffffffffff\n      and\n        /* \"Solidity/my-hardhat-project/contracts/ENSRegistrar.sol\":1907:1917  msg.sender */\n      caller\n        /* \"Solidity/my-hardhat-project/contracts/ENSRegistrar.sol\":1907:1926  msg.sender == owner */\n      0xffffffffffffffffffffffffffffffffffffffff\n      and\n      eq\n        /* \"Solidity/my-hardhat-project/contracts/ENSRegistrar.sol\":1899:1973  require(msg.sender == owner, \"Only contract owner can call this function\") */\n      tag_98\n      jumpi\n      mload(0x40)\n      0x08c379a000000000000000000000000000000000000000000000000000000000\n      dup2\n      mstore\n      0x04\n      add\n      tag_99\n      swap1\n      tag_100\n      jump\t// in\n    tag_99:\n      mload(0x40)\n      dup1\n      swap2\n      sub\n      swap1\n      revert\n    tag_98:\n        /* \"Solidity/my-hardhat-project/contracts/ENSRegistrar.sol\":5454:5474  uint contractBalance */\n      0x00\n        /* \"Solidity/my-hardhat-project/contracts/ENSRegistrar.sol\":5477:5498  address(this).balance */\n      selfbalance\n        /* \"Solidity/my-hardhat-project/contracts/ENSRegistrar.sol\":5454:5498  uint contractBalance = address(this).balance */\n      swap1\n      pop\n        /* \"Solidity/my-hardhat-project/contracts/ENSRegistrar.sol\":5648:5653  owner */\n      0x04\n      0x00\n      swap1\n      sload\n      swap1\n      0x0100\n      exp\n      swap1\n      div\n      0xffffffffffffffffffffffffffffffffffffffff\n      and\n        /* \"Solidity/my-hardhat-project/contracts/ENSRegistrar.sol\":5640:5663  payable(owner).transfer */\n      0xffffffffffffffffffffffffffffffffffffffff\n      and\n        /* \"Solidity/my-hardhat-project/contracts/ENSRegistrar.sol\":5640:5680  payable(owner).transfer(contractBalance) */\n      0x08fc\n        /* \"Solidity/my-hardhat-project/contracts/ENSRegistrar.sol\":5664:5679  contractBalance */\n      dup3\n        /* \"Solidity/my-hardhat-project/contracts/ENSRegistrar.sol\":5640:5680  payable(owner).transfer(contractBalance) */\n      swap1\n      dup2\n      iszero\n      mul\n      swap1\n      mload(0x40)\n      0x00\n      mload(0x40)\n      dup1\n      dup4\n      sub\n      dup2\n      dup6\n      dup9\n      dup9\n      call\n      swap4\n      pop\n      pop\n      pop\n      pop\n      iszero\n      dup1\n      iszero\n      tag_103\n      jumpi\n      returndatasize\n      0x00\n      dup1\n      returndatacopy\n      revert(0x00, returndatasize)\n    tag_103:\n      pop\n        /* \"Solidity/my-hardhat-project/contracts/ENSRegistrar.sol\":5367:5688  {... */\n      pop\n        /* \"Solidity/my-hardhat-project/contracts/ENSRegistrar.sol\":5328:5688  function withdraw() external onlyOwner {... */\n      jump\t// out\n        /* \"Solidity/my-hardhat-project/contracts/ENSRegistrar.sol\":981:1028  uint constant public MIN_REGISTRATION_YEARS = 1 */\n    tag_39:\n        /* \"Solidity/my-hardhat-project/contracts/ENSRegistrar.sol\":1027:1028  1 */\n      0x01\n        /* \"Solidity/my-hardhat-project/contracts/ENSRegistrar.sol\":981:1028  uint constant public MIN_REGISTRATION_YEARS = 1 */\n      dup2\n      jump\t// out\n        /* \"Solidity/my-hardhat-project/contracts/ENSRegistrar.sol\":944:974  uint public renewalCoefficient */\n    tag_44:\n      sload(0x03)\n      dup2\n      jump\t// out\n        /* \"Solidity/my-hardhat-project/contracts/ENSRegistrar.sol\":901:937  uint public registrationPricePerYear */\n    tag_48:\n      sload(0x02)\n      dup2\n      jump\t// out\n        /* \"Solidity/my-hardhat-project/contracts/ENSRegistrar.sol\":1035:1083  uint constant public MAX_REGISTRATION_YEARS = 10 */\n    tag_52:\n        /* \"Solidity/my-hardhat-project/contracts/ENSRegistrar.sol\":1081:1083  10 */\n      0x0a\n        /* \"Solidity/my-hardhat-project/contracts/ENSRegistrar.sol\":1035:1083  uint constant public MAX_REGISTRATION_YEARS = 10 */\n      dup2\n      jump\t// out\n        /* \"Solidity/my-hardhat-project/contracts/ENSRegistrar.sol\":1183:1203  address public owner */\n    tag_56:\n      0x04\n      0x00\n      swap1\n      sload\n      swap1\n      0x0100\n      exp\n      swap1\n      div\n      0xffffffffffffffffffffffffffffffffffffffff\n      and\n      dup2\n      jump\t// out\n        /* \"Solidity/my-hardhat-project/contracts/ENSRegistrar.sol\":2521:3996  function registerDomain(string memory domain, uint registrationYears) external payable {... */\n    tag_60:\n        /* \"Solidity/my-hardhat-project/contracts/ENSRegistrar.sol\":2764:2791  uint totalRegistrationPrice */\n      0x00\n        /* \"Solidity/my-hardhat-project/contracts/ENSRegistrar.sol\":2821:2838  registrationYears */\n      dup2\n        /* \"Solidity/my-hardhat-project/contracts/ENSRegistrar.sol\":2794:2818  registrationPricePerYear */\n      sload(0x02)\n        /* \"Solidity/my-hardhat-project/contracts/ENSRegistrar.sol\":2794:2838  registrationPricePerYear * registrationYears */\n      tag_105\n      swap2\n      swap1\n      tag_82\n      jump\t// in\n    tag_105:\n        /* \"Solidity/my-hardhat-project/contracts/ENSRegistrar.sol\":2764:2838  uint totalRegistrationPrice = registrationPricePerYear * registrationYears */\n      swap1\n      pop\n        /* \"Solidity/my-hardhat-project/contracts/ENSRegistrar.sol\":2870:2892  totalRegistrationPrice */\n      dup1\n        /* \"Solidity/my-hardhat-project/contracts/ENSRegistrar.sol\":2857:2866  msg.value */\n      callvalue\n        /* \"Solidity/my-hardhat-project/contracts/ENSRegistrar.sol\":2857:2892  msg.value >= totalRegistrationPrice */\n      lt\n      iszero\n        /* \"Solidity/my-hardhat-project/contracts/ENSRegistrar.sol\":2849:2915  require(msg.value >= totalRegistrationPrice, \"Insufficient funds\") */\n      tag_106\n      jumpi\n      mload(0x40)\n      0x08c379a000000000000000000000000000000000000000000000000000000000\n      dup2\n      mstore\n      0x04\n      add\n      tag_107\n      swap1\n      tag_86\n      jump\t// in\n    tag_107:\n      mload(0x40)\n      dup1\n      swap2\n      sub\n      swap1\n      revert\n    tag_106:\n        /* \"Solidity/my-hardhat-project/contracts/ENSRegistrar.sol\":1027:1028  1 */\n      0x01\n        /* \"Solidity/my-hardhat-project/contracts/ENSRegistrar.sol\":3099:3116  registrationYears */\n      dup3\n        /* \"Solidity/my-hardhat-project/contracts/ENSRegistrar.sol\":3099:3142  registrationYears >= MIN_REGISTRATION_YEARS */\n      lt\n      iszero\n        /* \"Solidity/my-hardhat-project/contracts/ENSRegistrar.sol\":3099:3189  registrationYears >= MIN_REGISTRATION_YEARS && registrationYears <= MAX_REGISTRATION_YEARS */\n      dup1\n      iszero\n      tag_108\n      jumpi\n      pop\n        /* \"Solidity/my-hardhat-project/contracts/ENSRegistrar.sol\":1081:1083  10 */\n      0x0a\n        /* \"Solidity/my-hardhat-project/contracts/ENSRegistrar.sol\":3146:3163  registrationYears */\n      dup3\n        /* \"Solidity/my-hardhat-project/contracts/ENSRegistrar.sol\":3146:3189  registrationYears <= MAX_REGISTRATION_YEARS */\n      gt\n      iszero\n        /* \"Solidity/my-hardhat-project/contracts/ENSRegistrar.sol\":3099:3189  registrationYears >= MIN_REGISTRATION_YEARS && registrationYears <= MAX_REGISTRATION_YEARS */\n    tag_108:\n        /* \"Solidity/my-hardhat-project/contracts/ENSRegistrar.sol\":3091:3220  require(registrationYears >= MIN_REGISTRATION_YEARS && registrationYears <= MAX_REGISTRATION_YEARS, \"Invalid registration years\") */\n      tag_109\n      jumpi\n      mload(0x40)\n      0x08c379a000000000000000000000000000000000000000000000000000000000\n      dup2\n      mstore\n      0x04\n      add\n      tag_110\n      swap1\n      tag_111\n      jump\t// in\n    tag_110:\n      mload(0x40)\n      dup1\n      swap2\n      sub\n      swap1\n      revert\n    tag_109:\n        /* \"Solidity/my-hardhat-project/contracts/ENSRegistrar.sol\":3341:3342  0 */\n      0x00\n        /* \"Solidity/my-hardhat-project/contracts/ENSRegistrar.sol\":3308:3343  domains[domain].owner == address(0) */\n      0xffffffffffffffffffffffffffffffffffffffff\n      and\n        /* \"Solidity/my-hardhat-project/contracts/ENSRegistrar.sol\":3308:3315  domains */\n      0x00\n        /* \"Solidity/my-hardhat-project/contracts/ENSRegistrar.sol\":3316:3322  domain */\n      dup5\n        /* \"Solidity/my-hardhat-project/contracts/ENSRegistrar.sol\":3308:3323  domains[domain] */\n      mload(0x40)\n      tag_112\n      swap2\n      swap1\n      tag_76\n      jump\t// in\n    tag_112:\n      swap1\n      dup2\n      mstore\n      0x20\n      add\n      mload(0x40)\n      dup1\n      swap2\n      sub\n      swap1\n      keccak256\n        /* \"Solidity/my-hardhat-project/contracts/ENSRegistrar.sol\":3308:3329  domains[domain].owner */\n      0x00\n      add\n      0x00\n      swap1\n      sload\n      swap1\n      0x0100\n      exp\n      swap1\n      div\n      0xffffffffffffffffffffffffffffffffffffffff\n      and\n        /* \"Solidity/my-hardhat-project/contracts/ENSRegistrar.sol\":3308:3343  domains[domain].owner == address(0) */\n      0xffffffffffffffffffffffffffffffffffffffff\n      and\n      eq\n        /* \"Solidity/my-hardhat-project/contracts/ENSRegistrar.sol\":3308:3438  domains[domain].owner == address(0) || block.timestamp >= domains[domain].timestamp + domains[domain].registrationYears * 365 days */\n      dup1\n      tag_113\n      jumpi\n      pop\n        /* \"Solidity/my-hardhat-project/contracts/ENSRegistrar.sol\":3430:3438  365 days */\n      0x01e13380\n        /* \"Solidity/my-hardhat-project/contracts/ENSRegistrar.sol\":3394:3401  domains */\n      0x00\n        /* \"Solidity/my-hardhat-project/contracts/ENSRegistrar.sol\":3402:3408  domain */\n      dup5\n        /* \"Solidity/my-hardhat-project/contracts/ENSRegistrar.sol\":3394:3409  domains[domain] */\n      mload(0x40)\n      tag_114\n      swap2\n      swap1\n      tag_76\n      jump\t// in\n    tag_114:\n      swap1\n      dup2\n      mstore\n      0x20\n      add\n      mload(0x40)\n      dup1\n      swap2\n      sub\n      swap1\n      keccak256\n        /* \"Solidity/my-hardhat-project/contracts/ENSRegistrar.sol\":3394:3427  domains[domain].registrationYears */\n      0x03\n      add\n      sload\n        /* \"Solidity/my-hardhat-project/contracts/ENSRegistrar.sol\":3394:3438  domains[domain].registrationYears * 365 days */\n      tag_115\n      swap2\n      swap1\n      tag_82\n      jump\t// in\n    tag_115:\n        /* \"Solidity/my-hardhat-project/contracts/ENSRegistrar.sol\":3366:3373  domains */\n      0x00\n        /* \"Solidity/my-hardhat-project/contracts/ENSRegistrar.sol\":3374:3380  domain */\n      dup5\n        /* \"Solidity/my-hardhat-project/contracts/ENSRegistrar.sol\":3366:3381  domains[domain] */\n      mload(0x40)\n      tag_116\n      swap2\n      swap1\n      tag_76\n      jump\t// in\n    tag_116:\n      swap1\n      dup2\n      mstore\n      0x20\n      add\n      mload(0x40)\n      dup1\n      swap2\n      sub\n      swap1\n      keccak256\n        /* \"Solidity/my-hardhat-project/contracts/ENSRegistrar.sol\":3366:3391  domains[domain].timestamp */\n      0x02\n      add\n      sload\n        /* \"Solidity/my-hardhat-project/contracts/ENSRegistrar.sol\":3366:3438  domains[domain].timestamp + domains[domain].registrationYears * 365 days */\n      tag_117\n      swap2\n      swap1\n      tag_91\n      jump\t// in\n    tag_117:\n        /* \"Solidity/my-hardhat-project/contracts/ENSRegistrar.sol\":3347:3362  block.timestamp */\n      timestamp\n        /* \"Solidity/my-hardhat-project/contracts/ENSRegistrar.sol\":3347:3438  block.timestamp >= domains[domain].timestamp + domains[domain].registrationYears * 365 days */\n      lt\n      iszero\n        /* \"Solidity/my-hardhat-project/contracts/ENSRegistrar.sol\":3308:3438  domains[domain].owner == address(0) || block.timestamp >= domains[domain].timestamp + domains[domain].registrationYears * 365 days */\n    tag_113:\n        /* \"Solidity/my-hardhat-project/contracts/ENSRegistrar.sol\":3300:3468  require(domains[domain].owner == address(0) || block.timestamp >= domains[domain].timestamp + domains[domain].registrationYears * 365 days, \"Domain already registered\") */\n      tag_118\n      jumpi\n      mload(0x40)\n      0x08c379a000000000000000000000000000000000000000000000000000000000\n      dup2\n      mstore\n      0x04\n      add\n      tag_119\n      swap1\n      tag_120\n      jump\t// in\n    tag_119:\n      mload(0x40)\n      dup1\n      swap2\n      sub\n      swap1\n      revert\n    tag_118:\n        /* \"Solidity/my-hardhat-project/contracts/ENSRegistrar.sol\":3589:3783  DomainInfo({... */\n      mload(0x40)\n      dup1\n      0x80\n      add\n      0x40\n      mstore\n      dup1\n        /* \"Solidity/my-hardhat-project/contracts/ENSRegistrar.sol\":3622:3632  msg.sender */\n      caller\n        /* \"Solidity/my-hardhat-project/contracts/ENSRegistrar.sol\":3589:3783  DomainInfo({... */\n      0xffffffffffffffffffffffffffffffffffffffff\n      and\n      dup2\n      mstore\n      0x20\n      add\n        /* \"Solidity/my-hardhat-project/contracts/ENSRegistrar.sol\":3657:3679  totalRegistrationPrice */\n      dup3\n        /* \"Solidity/my-hardhat-project/contracts/ENSRegistrar.sol\":3589:3783  DomainInfo({... */\n      dup2\n      mstore\n      0x20\n      add\n        /* \"Solidity/my-hardhat-project/contracts/ENSRegistrar.sol\":3705:3720  block.timestamp */\n      timestamp\n        /* \"Solidity/my-hardhat-project/contracts/ENSRegistrar.sol\":3589:3783  DomainInfo({... */\n      dup2\n      mstore\n      0x20\n      add\n        /* \"Solidity/my-hardhat-project/contracts/ENSRegistrar.sol\":3754:3771  registrationYears */\n      dup4\n        /* \"Solidity/my-hardhat-project/contracts/ENSRegistrar.sol\":3589:3783  DomainInfo({... */\n      dup2\n      mstore\n      pop\n        /* \"Solidity/my-hardhat-project/contracts/ENSRegistrar.sol\":3571:3578  domains */\n      0x00\n        /* \"Solidity/my-hardhat-project/contracts/ENSRegistrar.sol\":3579:3585  domain */\n      dup5\n        /* \"Solidity/my-hardhat-project/contracts/ENSRegistrar.sol\":3571:3586  domains[domain] */\n      mload(0x40)\n      tag_121\n      swap2\n      swap1\n      tag_76\n      jump\t// in\n    tag_121:\n      swap1\n      dup2\n      mstore\n      0x20\n      add\n      mload(0x40)\n      dup1\n      swap2\n      sub\n      swap1\n      keccak256\n        /* \"Solidity/my-hardhat-project/contracts/ENSRegistrar.sol\":3571:3783  domains[domain] = DomainInfo({... */\n      0x00\n      dup3\n      add\n      mload\n      dup2\n      0x00\n      add\n      exp(0x0100, 0x00)\n      dup2\n      sload\n      dup2\n      0xffffffffffffffffffffffffffffffffffffffff\n      mul\n      not\n      and\n      swap1\n      dup4\n      0xffffffffffffffffffffffffffffffffffffffff\n      and\n      mul\n      or\n      swap1\n      sstore\n      pop\n      0x20\n      dup3\n      add\n      mload\n      dup2\n      0x01\n      add\n      sstore\n      0x40\n      dup3\n      add\n      mload\n      dup2\n      0x02\n      add\n      sstore\n      0x60\n      dup3\n      add\n      mload\n      dup2\n      0x03\n      add\n      sstore\n      swap1\n      pop\n      pop\n        /* \"Solidity/my-hardhat-project/contracts/ENSRegistrar.sol\":3893:3988  DomainRegistred(domain, msg.sender, totalRegistrationPrice, block.timestamp, registrationYears) */\n      0xb268f54076718b9cb441aa108681f7ca5e1afc502ef4b8e8c094216ede0280f0\n        /* \"Solidity/my-hardhat-project/contracts/ENSRegistrar.sol\":3909:3915  domain */\n      dup4\n        /* \"Solidity/my-hardhat-project/contracts/ENSRegistrar.sol\":3917:3927  msg.sender */\n      caller\n        /* \"Solidity/my-hardhat-project/contracts/ENSRegistrar.sol\":3929:3951  totalRegistrationPrice */\n      dup4\n        /* \"Solidity/my-hardhat-project/contracts/ENSRegistrar.sol\":3953:3968  block.timestamp */\n      timestamp\n        /* \"Solidity/my-hardhat-project/contracts/ENSRegistrar.sol\":3970:3987  registrationYears */\n      dup7\n        /* \"Solidity/my-hardhat-project/contracts/ENSRegistrar.sol\":3893:3988  DomainRegistred(domain, msg.sender, totalRegistrationPrice, block.timestamp, registrationYears) */\n      mload(0x40)\n      tag_122\n      swap6\n      swap5\n      swap4\n      swap3\n      swap2\n      swap1\n      tag_94\n      jump\t// in\n    tag_122:\n      mload(0x40)\n      dup1\n      swap2\n      sub\n      swap1\n      log1\n        /* \"Solidity/my-hardhat-project/contracts/ENSRegistrar.sol\":2608:3996  {... */\n      pop\n        /* \"Solidity/my-hardhat-project/contracts/ENSRegistrar.sol\":2521:3996  function registerDomain(string memory domain, uint registrationYears) external payable {... */\n      pop\n      pop\n      jump\t// out\n        /* \"Solidity/my-hardhat-project/contracts/ENSRegistrar.sol\":869:894  address public ensAddress */\n    tag_63:\n      0x01\n      0x00\n      swap1\n      sload\n      swap1\n      0x0100\n      exp\n      swap1\n      div\n      0xffffffffffffffffffffffffffffffffffffffff\n      and\n      dup2\n      jump\t// out\n        /* \"Solidity/my-hardhat-project/contracts/ENSRegistrar.sol\":2312:2447  function setRenewalCoefficient(uint _renewalCoefficient) external onlyOwner {... */\n    tag_69:\n        /* \"Solidity/my-hardhat-project/contracts/ENSRegistrar.sol\":1921:1926  owner */\n      0x04\n      0x00\n      swap1\n      sload\n      swap1\n      0x0100\n      exp\n      swap1\n      div\n      0xffffffffffffffffffffffffffffffffffffffff\n      and\n        /* \"Solidity/my-hardhat-project/contracts/ENSRegistrar.sol\":1907:1926  msg.sender == owner */\n      0xffffffffffffffffffffffffffffffffffffffff\n      and\n        /* \"Solidity/my-hardhat-project/contracts/ENSRegistrar.sol\":1907:1917  msg.sender */\n      caller\n        /* \"Solidity/my-hardhat-project/contracts/ENSRegistrar.sol\":1907:1926  msg.sender == owner */\n      0xffffffffffffffffffffffffffffffffffffffff\n      and\n      eq\n        /* \"Solidity/my-hardhat-project/contracts/ENSRegistrar.sol\":1899:1973  require(msg.sender == owner, \"Only contract owner can call this function\") */\n      tag_124\n      jumpi\n      mload(0x40)\n      0x08c379a000000000000000000000000000000000000000000000000000000000\n      dup2\n      mstore\n      0x04\n      add\n      tag_125\n      swap1\n      tag_100\n      jump\t// in\n    tag_125:\n      mload(0x40)\n      dup1\n      swap2\n      sub\n      swap1\n      revert\n    tag_124:\n        /* \"Solidity/my-hardhat-project/contracts/ENSRegistrar.sol\":2420:2439  _renewalCoefficient */\n      dup1\n        /* \"Solidity/my-hardhat-project/contracts/ENSRegistrar.sol\":2399:2417  renewalCoefficient */\n      0x03\n        /* \"Solidity/my-hardhat-project/contracts/ENSRegistrar.sol\":2399:2439  renewalCoefficient = _renewalCoefficient */\n      dup2\n      swap1\n      sstore\n      pop\n        /* \"Solidity/my-hardhat-project/contracts/ENSRegistrar.sol\":2312:2447  function setRenewalCoefficient(uint _renewalCoefficient) external onlyOwner {... */\n      pop\n      jump\t// out\n        /* \"Solidity/my-hardhat-project/contracts/ENSRegistrar.sol\":2073:2232  function setRegistrationPricePerYear(uint _registrationPricePerYear) external onlyOwner {... */\n    tag_73:\n        /* \"Solidity/my-hardhat-project/contracts/ENSRegistrar.sol\":1921:1926  owner */\n      0x04\n      0x00\n      swap1\n      sload\n      swap1\n      0x0100\n      exp\n      swap1\n      div\n      0xffffffffffffffffffffffffffffffffffffffff\n      and\n        /* \"Solidity/my-hardhat-project/contracts/ENSRegistrar.sol\":1907:1926  msg.sender == owner */\n      0xffffffffffffffffffffffffffffffffffffffff\n      and\n        /* \"Solidity/my-hardhat-project/contracts/ENSRegistrar.sol\":1907:1917  msg.sender */\n      caller\n        /* \"Solidity/my-hardhat-project/contracts/ENSRegistrar.sol\":1907:1926  msg.sender == owner */\n      0xffffffffffffffffffffffffffffffffffffffff\n      and\n      eq\n        /* \"Solidity/my-hardhat-project/contracts/ENSRegistrar.sol\":1899:1973  require(msg.sender == owner, \"Only contract owner can call this function\") */\n      tag_128\n      jumpi\n      mload(0x40)\n      0x08c379a000000000000000000000000000000000000000000000000000000000\n      dup2\n      mstore\n      0x04\n      add\n      tag_129\n      swap1\n      tag_100\n      jump\t// in\n    tag_129:\n      mload(0x40)\n      dup1\n      swap2\n      sub\n      swap1\n      revert\n    tag_128:\n        /* \"Solidity/my-hardhat-project/contracts/ENSRegistrar.sol\":2199:2224  _registrationPricePerYear */\n      dup1\n        /* \"Solidity/my-hardhat-project/contracts/ENSRegistrar.sol\":2172:2196  registrationPricePerYear */\n      0x02\n        /* \"Solidity/my-hardhat-project/contracts/ENSRegistrar.sol\":2172:2224  registrationPricePerYear = _registrationPricePerYear */\n      dup2\n      swap1\n      sstore\n      pop\n        /* \"Solidity/my-hardhat-project/contracts/ENSRegistrar.sol\":2073:2232  function setRegistrationPricePerYear(uint _registrationPricePerYear) external onlyOwner {... */\n      pop\n      jump\t// out\n        /* \"#utility.yul\":7:82   */\n    tag_131:\n        /* \"#utility.yul\":40:46   */\n      0x00\n        /* \"#utility.yul\":73:75   */\n      0x40\n        /* \"#utility.yul\":67:76   */\n      mload\n        /* \"#utility.yul\":57:76   */\n      swap1\n      pop\n        /* \"#utility.yul\":7:82   */\n      swap1\n      jump\t// out\n        /* \"#utility.yul\":88:205   */\n    tag_132:\n        /* \"#utility.yul\":197:198   */\n      0x00\n        /* \"#utility.yul\":194:195   */\n      dup1\n        /* \"#utility.yul\":187:199   */\n      revert\n        /* \"#utility.yul\":211:328   */\n    tag_133:\n        /* \"#utility.yul\":320:321   */\n      0x00\n        /* \"#utility.yul\":317:318   */\n      dup1\n        /* \"#utility.yul\":310:322   */\n      revert\n        /* \"#utility.yul\":334:451   */\n    tag_134:\n        /* \"#utility.yul\":443:444   */\n      0x00\n        /* \"#utility.yul\":440:441   */\n      dup1\n        /* \"#utility.yul\":433:445   */\n      revert\n        /* \"#utility.yul\":457:574   */\n    tag_135:\n        /* \"#utility.yul\":566:567   */\n      0x00\n        /* \"#utility.yul\":563:564   */\n      dup1\n        /* \"#utility.yul\":556:568   */\n      revert\n        /* \"#utility.yul\":580:682   */\n    tag_136:\n        /* \"#utility.yul\":621:627   */\n      0x00\n        /* \"#utility.yul\":672:674   */\n      0x1f\n        /* \"#utility.yul\":668:675   */\n      not\n        /* \"#utility.yul\":663:665   */\n      0x1f\n        /* \"#utility.yul\":656:661   */\n      dup4\n        /* \"#utility.yul\":652:666   */\n      add\n        /* \"#utility.yul\":648:676   */\n      and\n        /* \"#utility.yul\":638:676   */\n      swap1\n      pop\n        /* \"#utility.yul\":580:682   */\n      swap2\n      swap1\n      pop\n      jump\t// out\n        /* \"#utility.yul\":688:868   */\n    tag_137:\n        /* \"#utility.yul\":736:813   */\n      0x4e487b7100000000000000000000000000000000000000000000000000000000\n        /* \"#utility.yul\":733:734   */\n      0x00\n        /* \"#utility.yul\":726:814   */\n      mstore\n        /* \"#utility.yul\":833:837   */\n      0x41\n        /* \"#utility.yul\":830:831   */\n      0x04\n        /* \"#utility.yul\":823:838   */\n      mstore\n        /* \"#utility.yul\":857:861   */\n      0x24\n        /* \"#utility.yul\":854:855   */\n      0x00\n        /* \"#utility.yul\":847:862   */\n      revert\n        /* \"#utility.yul\":874:1155   */\n    tag_138:\n        /* \"#utility.yul\":957:984   */\n      tag_177\n        /* \"#utility.yul\":979:983   */\n      dup3\n        /* \"#utility.yul\":957:984   */\n      tag_136\n      jump\t// in\n    tag_177:\n        /* \"#utility.yul\":949:955   */\n      dup2\n        /* \"#utility.yul\":945:985   */\n      add\n        /* \"#utility.yul\":1087:1093   */\n      dup2\n        /* \"#utility.yul\":1075:1085   */\n      dup2\n        /* \"#utility.yul\":1072:1094   */\n      lt\n        /* \"#utility.yul\":1051:1069   */\n      0xffffffffffffffff\n        /* \"#utility.yul\":1039:1049   */\n      dup3\n        /* \"#utility.yul\":1036:1070   */\n      gt\n        /* \"#utility.yul\":1033:1095   */\n      or\n        /* \"#utility.yul\":1030:1118   */\n      iszero\n      tag_178\n      jumpi\n        /* \"#utility.yul\":1098:1116   */\n      tag_179\n      tag_137\n      jump\t// in\n    tag_179:\n        /* \"#utility.yul\":1030:1118   */\n    tag_178:\n        /* \"#utility.yul\":1138:1148   */\n      dup1\n        /* \"#utility.yul\":1134:1136   */\n      0x40\n        /* \"#utility.yul\":1127:1149   */\n      mstore\n        /* \"#utility.yul\":917:1155   */\n      pop\n        /* \"#utility.yul\":874:1155   */\n      pop\n      pop\n      jump\t// out\n        /* \"#utility.yul\":1161:1290   */\n    tag_139:\n        /* \"#utility.yul\":1195:1201   */\n      0x00\n        /* \"#utility.yul\":1222:1242   */\n      tag_181\n      tag_131\n      jump\t// in\n    tag_181:\n        /* \"#utility.yul\":1212:1242   */\n      swap1\n      pop\n        /* \"#utility.yul\":1251:1284   */\n      tag_182\n        /* \"#utility.yul\":1279:1283   */\n      dup3\n        /* \"#utility.yul\":1271:1277   */\n      dup3\n        /* \"#utility.yul\":1251:1284   */\n      tag_138\n      jump\t// in\n    tag_182:\n        /* \"#utility.yul\":1161:1290   */\n      swap2\n      swap1\n      pop\n      jump\t// out\n        /* \"#utility.yul\":1296:1604   */\n    tag_140:\n        /* \"#utility.yul\":1358:1362   */\n      0x00\n        /* \"#utility.yul\":1448:1466   */\n      0xffffffffffffffff\n        /* \"#utility.yul\":1440:1446   */\n      dup3\n        /* \"#utility.yul\":1437:1467   */\n      gt\n        /* \"#utility.yul\":1434:1490   */\n      iszero\n      tag_184\n      jumpi\n        /* \"#utility.yul\":1470:1488   */\n      tag_185\n      tag_137\n      jump\t// in\n    tag_185:\n        /* \"#utility.yul\":1434:1490   */\n    tag_184:\n        /* \"#utility.yul\":1508:1537   */\n      tag_186\n        /* \"#utility.yul\":1530:1536   */\n      dup3\n        /* \"#utility.yul\":1508:1537   */\n      tag_136\n      jump\t// in\n    tag_186:\n        /* \"#utility.yul\":1500:1537   */\n      swap1\n      pop\n        /* \"#utility.yul\":1592:1596   */\n      0x20\n        /* \"#utility.yul\":1586:1590   */\n      dup2\n        /* \"#utility.yul\":1582:1597   */\n      add\n        /* \"#utility.yul\":1574:1597   */\n      swap1\n      pop\n        /* \"#utility.yul\":1296:1604   */\n      swap2\n      swap1\n      pop\n      jump\t// out\n        /* \"#utility.yul\":1610:1756   */\n    tag_141:\n        /* \"#utility.yul\":1707:1713   */\n      dup3\n        /* \"#utility.yul\":1702:1705   */\n      dup2\n        /* \"#utility.yul\":1697:1700   */\n      dup4\n        /* \"#utility.yul\":1684:1714   */\n      calldatacopy\n        /* \"#utility.yul\":1748:1749   */\n      0x00\n        /* \"#utility.yul\":1739:1745   */\n      dup4\n        /* \"#utility.yul\":1734:1737   */\n      dup4\n        /* \"#utility.yul\":1730:1746   */\n      add\n        /* \"#utility.yul\":1723:1750   */\n      mstore\n        /* \"#utility.yul\":1610:1756   */\n      pop\n      pop\n      pop\n      jump\t// out\n        /* \"#utility.yul\":1762:2187   */\n    tag_142:\n        /* \"#utility.yul\":1840:1845   */\n      0x00\n        /* \"#utility.yul\":1865:1931   */\n      tag_189\n        /* \"#utility.yul\":1881:1930   */\n      tag_190\n        /* \"#utility.yul\":1923:1929   */\n      dup5\n        /* \"#utility.yul\":1881:1930   */\n      tag_140\n      jump\t// in\n    tag_190:\n        /* \"#utility.yul\":1865:1931   */\n      tag_139\n      jump\t// in\n    tag_189:\n        /* \"#utility.yul\":1856:1931   */\n      swap1\n      pop\n        /* \"#utility.yul\":1954:1960   */\n      dup3\n        /* \"#utility.yul\":1947:1952   */\n      dup2\n        /* \"#utility.yul\":1940:1961   */\n      mstore\n        /* \"#utility.yul\":1992:1996   */\n      0x20\n        /* \"#utility.yul\":1985:1990   */\n      dup2\n        /* \"#utility.yul\":1981:1997   */\n      add\n        /* \"#utility.yul\":2030:2033   */\n      dup5\n        /* \"#utility.yul\":2021:2027   */\n      dup5\n        /* \"#utility.yul\":2016:2019   */\n      dup5\n        /* \"#utility.yul\":2012:2028   */\n      add\n        /* \"#utility.yul\":2009:2034   */\n      gt\n        /* \"#utility.yul\":2006:2118   */\n      iszero\n      tag_191\n      jumpi\n        /* \"#utility.yul\":2037:2116   */\n      tag_192\n      tag_135\n      jump\t// in\n    tag_192:\n        /* \"#utility.yul\":2006:2118   */\n    tag_191:\n        /* \"#utility.yul\":2127:2181   */\n      tag_193\n        /* \"#utility.yul\":2174:2180   */\n      dup5\n        /* \"#utility.yul\":2169:2172   */\n      dup3\n        /* \"#utility.yul\":2164:2167   */\n      dup6\n        /* \"#utility.yul\":2127:2181   */\n      tag_141\n      jump\t// in\n    tag_193:\n        /* \"#utility.yul\":1846:2187   */\n      pop\n        /* \"#utility.yul\":1762:2187   */\n      swap4\n      swap3\n      pop\n      pop\n      pop\n      jump\t// out\n        /* \"#utility.yul\":2207:2547   */\n    tag_143:\n        /* \"#utility.yul\":2263:2268   */\n      0x00\n        /* \"#utility.yul\":2312:2315   */\n      dup3\n        /* \"#utility.yul\":2305:2309   */\n      0x1f\n        /* \"#utility.yul\":2297:2303   */\n      dup4\n        /* \"#utility.yul\":2293:2310   */\n      add\n        /* \"#utility.yul\":2289:2316   */\n      slt\n        /* \"#utility.yul\":2279:2401   */\n      tag_195\n      jumpi\n        /* \"#utility.yul\":2320:2399   */\n      tag_196\n      tag_134\n      jump\t// in\n    tag_196:\n        /* \"#utility.yul\":2279:2401   */\n    tag_195:\n        /* \"#utility.yul\":2437:2443   */\n      dup2\n        /* \"#utility.yul\":2424:2444   */\n      calldataload\n        /* \"#utility.yul\":2462:2541   */\n      tag_197\n        /* \"#utility.yul\":2537:2540   */\n      dup5\n        /* \"#utility.yul\":2529:2535   */\n      dup3\n        /* \"#utility.yul\":2522:2526   */\n      0x20\n        /* \"#utility.yul\":2514:2520   */\n      dup7\n        /* \"#utility.yul\":2510:2527   */\n      add\n        /* \"#utility.yul\":2462:2541   */\n      tag_142\n      jump\t// in\n    tag_197:\n        /* \"#utility.yul\":2453:2541   */\n      swap2\n      pop\n        /* \"#utility.yul\":2269:2547   */\n      pop\n        /* \"#utility.yul\":2207:2547   */\n      swap3\n      swap2\n      pop\n      pop\n      jump\t// out\n        /* \"#utility.yul\":2553:2630   */\n    tag_144:\n        /* \"#utility.yul\":2590:2597   */\n      0x00\n        /* \"#utility.yul\":2619:2624   */\n      dup2\n        /* \"#utility.yul\":2608:2624   */\n      swap1\n      pop\n        /* \"#utility.yul\":2553:2630   */\n      swap2\n      swap1\n      pop\n      jump\t// out\n        /* \"#utility.yul\":2636:2758   */\n    tag_145:\n        /* \"#utility.yul\":2709:2733   */\n      tag_200\n        /* \"#utility.yul\":2727:2732   */\n      dup2\n        /* \"#utility.yul\":2709:2733   */\n      tag_144\n      jump\t// in\n    tag_200:\n        /* \"#utility.yul\":2702:2707   */\n      dup2\n        /* \"#utility.yul\":2699:2734   */\n      eq\n        /* \"#utility.yul\":2689:2752   */\n      tag_201\n      jumpi\n        /* \"#utility.yul\":2748:2749   */\n      0x00\n        /* \"#utility.yul\":2745:2746   */\n      dup1\n        /* \"#utility.yul\":2738:2750   */\n      revert\n        /* \"#utility.yul\":2689:2752   */\n    tag_201:\n        /* \"#utility.yul\":2636:2758   */\n      pop\n      jump\t// out\n        /* \"#utility.yul\":2764:2903   */\n    tag_146:\n        /* \"#utility.yul\":2810:2815   */\n      0x00\n        /* \"#utility.yul\":2848:2854   */\n      dup2\n        /* \"#utility.yul\":2835:2855   */\n      calldataload\n        /* \"#utility.yul\":2826:2855   */\n      swap1\n      pop\n        /* \"#utility.yul\":2864:2897   */\n      tag_203\n        /* \"#utility.yul\":2891:2896   */\n      dup2\n        /* \"#utility.yul\":2864:2897   */\n      tag_145\n      jump\t// in\n    tag_203:\n        /* \"#utility.yul\":2764:2903   */\n      swap3\n      swap2\n      pop\n      pop\n      jump\t// out\n        /* \"#utility.yul\":2909:3563   */\n    tag_19:\n        /* \"#utility.yul\":2987:2993   */\n      0x00\n        /* \"#utility.yul\":2995:3001   */\n      dup1\n        /* \"#utility.yul\":3044:3046   */\n      0x40\n        /* \"#utility.yul\":3032:3041   */\n      dup4\n        /* \"#utility.yul\":3023:3030   */\n      dup6\n        /* \"#utility.yul\":3019:3042   */\n      sub\n        /* \"#utility.yul\":3015:3047   */\n      slt\n        /* \"#utility.yul\":3012:3131   */\n      iszero\n      tag_205\n      jumpi\n        /* \"#utility.yul\":3050:3129   */\n      tag_206\n      tag_132\n      jump\t// in\n    tag_206:\n        /* \"#utility.yul\":3012:3131   */\n    tag_205:\n        /* \"#utility.yul\":3198:3199   */\n      0x00\n        /* \"#utility.yul\":3187:3196   */\n      dup4\n        /* \"#utility.yul\":3183:3200   */\n      add\n        /* \"#utility.yul\":3170:3201   */\n      calldataload\n        /* \"#utility.yul\":3228:3246   */\n      0xffffffffffffffff\n        /* \"#utility.yul\":3220:3226   */\n      dup2\n        /* \"#utility.yul\":3217:3247   */\n      gt\n        /* \"#utility.yul\":3214:3331   */\n      iszero\n      tag_207\n      jumpi\n        /* \"#utility.yul\":3250:3329   */\n      tag_208\n      tag_133\n      jump\t// in\n    tag_208:\n        /* \"#utility.yul\":3214:3331   */\n    tag_207:\n        /* \"#utility.yul\":3355:3418   */\n      tag_209\n        /* \"#utility.yul\":3410:3417   */\n      dup6\n        /* \"#utility.yul\":3401:3407   */\n      dup3\n        /* \"#utility.yul\":3390:3399   */\n      dup7\n        /* \"#utility.yul\":3386:3408   */\n      add\n        /* \"#utility.yul\":3355:3418   */\n      tag_143\n      jump\t// in\n    tag_209:\n        /* \"#utility.yul\":3345:3418   */\n      swap3\n      pop\n        /* \"#utility.yul\":3141:3428   */\n      pop\n        /* \"#utility.yul\":3467:3469   */\n      0x20\n        /* \"#utility.yul\":3493:3546   */\n      tag_210\n        /* \"#utility.yul\":3538:3545   */\n      dup6\n        /* \"#utility.yul\":3529:3535   */\n      dup3\n        /* \"#utility.yul\":3518:3527   */\n      dup7\n        /* \"#utility.yul\":3514:3536   */\n      add\n        /* \"#utility.yul\":3493:3546   */\n      tag_146\n      jump\t// in\n    tag_210:\n        /* \"#utility.yul\":3483:3546   */\n      swap2\n      pop\n        /* \"#utility.yul\":3438:3556   */\n      pop\n        /* \"#utility.yul\":2909:3563   */\n      swap3\n      pop\n      swap3\n      swap1\n      pop\n      jump\t// out\n        /* \"#utility.yul\":3569:4078   */\n    tag_24:\n        /* \"#utility.yul\":3638:3644   */\n      0x00\n        /* \"#utility.yul\":3687:3689   */\n      0x20\n        /* \"#utility.yul\":3675:3684   */\n      dup3\n        /* \"#utility.yul\":3666:3673   */\n      dup5\n        /* \"#utility.yul\":3662:3685   */\n      sub\n        /* \"#utility.yul\":3658:3690   */\n      slt\n        /* \"#utility.yul\":3655:3774   */\n      iszero\n      tag_212\n      jumpi\n        /* \"#utility.yul\":3693:3772   */\n      tag_213\n      tag_132\n      jump\t// in\n    tag_213:\n        /* \"#utility.yul\":3655:3774   */\n    tag_212:\n        /* \"#utility.yul\":3841:3842   */\n      0x00\n        /* \"#utility.yul\":3830:3839   */\n      dup3\n        /* \"#utility.yul\":3826:3843   */\n      add\n        /* \"#utility.yul\":3813:3844   */\n      calldataload\n        /* \"#utility.yul\":3871:3889   */\n      0xffffffffffffffff\n        /* \"#utility.yul\":3863:3869   */\n      dup2\n        /* \"#utility.yul\":3860:3890   */\n      gt\n        /* \"#utility.yul\":3857:3974   */\n      iszero\n      tag_214\n      jumpi\n        /* \"#utility.yul\":3893:3972   */\n      tag_215\n      tag_133\n      jump\t// in\n    tag_215:\n        /* \"#utility.yul\":3857:3974   */\n    tag_214:\n        /* \"#utility.yul\":3998:4061   */\n      tag_216\n        /* \"#utility.yul\":4053:4060   */\n      dup5\n        /* \"#utility.yul\":4044:4050   */\n      dup3\n        /* \"#utility.yul\":4033:4042   */\n      dup6\n        /* \"#utility.yul\":4029:4051   */\n      add\n        /* \"#utility.yul\":3998:4061   */\n      tag_143\n      jump\t// in\n    tag_216:\n        /* \"#utility.yul\":3988:4061   */\n      swap2\n      pop\n        /* \"#utility.yul\":3784:4071   */\n      pop\n        /* \"#utility.yul\":3569:4078   */\n      swap3\n      swap2\n      pop\n      pop\n      jump\t// out\n        /* \"#utility.yul\":4084:4210   */\n    tag_147:\n        /* \"#utility.yul\":4121:4128   */\n      0x00\n        /* \"#utility.yul\":4161:4203   */\n      0xffffffffffffffffffffffffffffffffffffffff\n        /* \"#utility.yul\":4154:4159   */\n      dup3\n        /* \"#utility.yul\":4150:4204   */\n      and\n        /* \"#utility.yul\":4139:4204   */\n      swap1\n      pop\n        /* \"#utility.yul\":4084:4210   */\n      swap2\n      swap1\n      pop\n      jump\t// out\n        /* \"#utility.yul\":4216:4312   */\n    tag_148:\n        /* \"#utility.yul\":4253:4260   */\n      0x00\n        /* \"#utility.yul\":4282:4306   */\n      tag_219\n        /* \"#utility.yul\":4300:4305   */\n      dup3\n        /* \"#utility.yul\":4282:4306   */\n      tag_147\n      jump\t// in\n    tag_219:\n        /* \"#utility.yul\":4271:4306   */\n      swap1\n      pop\n        /* \"#utility.yul\":4216:4312   */\n      swap2\n      swap1\n      pop\n      jump\t// out\n        /* \"#utility.yul\":4318:4436   */\n    tag_149:\n        /* \"#utility.yul\":4405:4429   */\n      tag_221\n        /* \"#utility.yul\":4423:4428   */\n      dup2\n        /* \"#utility.yul\":4405:4429   */\n      tag_148\n      jump\t// in\n    tag_221:\n        /* \"#utility.yul\":4400:4403   */\n      dup3\n        /* \"#utility.yul\":4393:4430   */\n      mstore\n        /* \"#utility.yul\":4318:4436   */\n      pop\n      pop\n      jump\t// out\n        /* \"#utility.yul\":4442:4664   */\n    tag_27:\n        /* \"#utility.yul\":4535:4539   */\n      0x00\n        /* \"#utility.yul\":4573:4575   */\n      0x20\n        /* \"#utility.yul\":4562:4571   */\n      dup3\n        /* \"#utility.yul\":4558:4576   */\n      add\n        /* \"#utility.yul\":4550:4576   */\n      swap1\n      pop\n        /* \"#utility.yul\":4586:4657   */\n      tag_223\n        /* \"#utility.yul\":4654:4655   */\n      0x00\n        /* \"#utility.yul\":4643:4652   */\n      dup4\n        /* \"#utility.yul\":4639:4656   */\n      add\n        /* \"#utility.yul\":4630:4636   */\n      dup5\n        /* \"#utility.yul\":4586:4657   */\n      tag_149\n      jump\t// in\n    tag_223:\n        /* \"#utility.yul\":4442:4664   */\n      swap3\n      swap2\n      pop\n      pop\n      jump\t// out\n        /* \"#utility.yul\":4670:4788   */\n    tag_150:\n        /* \"#utility.yul\":4757:4781   */\n      tag_225\n        /* \"#utility.yul\":4775:4780   */\n      dup2\n        /* \"#utility.yul\":4757:4781   */\n      tag_144\n      jump\t// in\n    tag_225:\n        /* \"#utility.yul\":4752:4755   */\n      dup3\n        /* \"#utility.yul\":4745:4782   */\n      mstore\n        /* \"#utility.yul\":4670:4788   */\n      pop\n      pop\n      jump\t// out\n        /* \"#utility.yul\":4794:5347   */\n    tag_33:\n        /* \"#utility.yul\":4971:4975   */\n      0x00\n        /* \"#utility.yul\":5009:5012   */\n      0x80\n        /* \"#utility.yul\":4998:5007   */\n      dup3\n        /* \"#utility.yul\":4994:5013   */\n      add\n        /* \"#utility.yul\":4986:5013   */\n      swap1\n      pop\n        /* \"#utility.yul\":5023:5094   */\n      tag_227\n        /* \"#utility.yul\":5091:5092   */\n      0x00\n        /* \"#utility.yul\":5080:5089   */\n      dup4\n        /* \"#utility.yul\":5076:5093   */\n      add\n        /* \"#utility.yul\":5067:5073   */\n      dup8\n        /* \"#utility.yul\":5023:5094   */\n      tag_149\n      jump\t// in\n    tag_227:\n        /* \"#utility.yul\":5104:5176   */\n      tag_228\n        /* \"#utility.yul\":5172:5174   */\n      0x20\n        /* \"#utility.yul\":5161:5170   */\n      dup4\n        /* \"#utility.yul\":5157:5175   */\n      add\n        /* \"#utility.yul\":5148:5154   */\n      dup7\n        /* \"#utility.yul\":5104:5176   */\n      tag_150\n      jump\t// in\n    tag_228:\n        /* \"#utility.yul\":5186:5258   */\n      tag_229\n        /* \"#utility.yul\":5254:5256   */\n      0x40\n        /* \"#utility.yul\":5243:5252   */\n      dup4\n        /* \"#utility.yul\":5239:5257   */\n      add\n        /* \"#utility.yul\":5230:5236   */\n      dup6\n        /* \"#utility.yul\":5186:5258   */\n      tag_150\n      jump\t// in\n    tag_229:\n        /* \"#utility.yul\":5268:5340   */\n      tag_230\n        /* \"#utility.yul\":5336:5338   */\n      0x60\n        /* \"#utility.yul\":5325:5334   */\n      dup4\n        /* \"#utility.yul\":5321:5339   */\n      add\n        /* \"#utility.yul\":5312:5318   */\n      dup5\n        /* \"#utility.yul\":5268:5340   */\n      tag_150\n      jump\t// in\n    tag_230:\n        /* \"#utility.yul\":4794:5347   */\n      swap6\n      swap5\n      pop\n      pop\n      pop\n      pop\n      pop\n      jump\t// out\n        /* \"#utility.yul\":5353:5575   */\n    tag_41:\n        /* \"#utility.yul\":5446:5450   */\n      0x00\n        /* \"#utility.yul\":5484:5486   */\n      0x20\n        /* \"#utility.yul\":5473:5482   */\n      dup3\n        /* \"#utility.yul\":5469:5487   */\n      add\n        /* \"#utility.yul\":5461:5487   */\n      swap1\n      pop\n        /* \"#utility.yul\":5497:5568   */\n      tag_232\n        /* \"#utility.yul\":5565:5566   */\n      0x00\n        /* \"#utility.yul\":5554:5563   */\n      dup4\n        /* \"#utility.yul\":5550:5567   */\n      add\n        /* \"#utility.yul\":5541:5547   */\n      dup5\n        /* \"#utility.yul\":5497:5568   */\n      tag_150\n      jump\t// in\n    tag_232:\n        /* \"#utility.yul\":5353:5575   */\n      swap3\n      swap2\n      pop\n      pop\n      jump\t// out\n        /* \"#utility.yul\":5581:5910   */\n    tag_68:\n        /* \"#utility.yul\":5640:5646   */\n      0x00\n        /* \"#utility.yul\":5689:5691   */\n      0x20\n        /* \"#utility.yul\":5677:5686   */\n      dup3\n        /* \"#utility.yul\":5668:5675   */\n      dup5\n        /* \"#utility.yul\":5664:5687   */\n      sub\n        /* \"#utility.yul\":5660:5692   */\n      slt\n        /* \"#utility.yul\":5657:5776   */\n      iszero\n      tag_234\n      jumpi\n        /* \"#utility.yul\":5695:5774   */\n      tag_235\n      tag_132\n      jump\t// in\n    tag_235:\n        /* \"#utility.yul\":5657:5776   */\n    tag_234:\n        /* \"#utility.yul\":5815:5816   */\n      0x00\n        /* \"#utility.yul\":5840:5893   */\n      tag_236\n        /* \"#utility.yul\":5885:5892   */\n      dup5\n        /* \"#utility.yul\":5876:5882   */\n      dup3\n        /* \"#utility.yul\":5865:5874   */\n      dup6\n        /* \"#utility.yul\":5861:5883   */\n      add\n        /* \"#utility.yul\":5840:5893   */\n      tag_146\n      jump\t// in\n    tag_236:\n        /* \"#utility.yul\":5830:5893   */\n      swap2\n      pop\n        /* \"#utility.yul\":5786:5903   */\n      pop\n        /* \"#utility.yul\":5581:5910   */\n      swap3\n      swap2\n      pop\n      pop\n      jump\t// out\n        /* \"#utility.yul\":5916:6015   */\n    tag_151:\n        /* \"#utility.yul\":5968:5974   */\n      0x00\n        /* \"#utility.yul\":6002:6007   */\n      dup2\n        /* \"#utility.yul\":5996:6008   */\n      mload\n        /* \"#utility.yul\":5986:6008   */\n      swap1\n      pop\n        /* \"#utility.yul\":5916:6015   */\n      swap2\n      swap1\n      pop\n      jump\t// out\n        /* \"#utility.yul\":6021:6169   */\n    tag_152:\n        /* \"#utility.yul\":6123:6134   */\n      0x00\n        /* \"#utility.yul\":6160:6163   */\n      dup2\n        /* \"#utility.yul\":6145:6163   */\n      swap1\n      pop\n        /* \"#utility.yul\":6021:6169   */\n      swap3\n      swap2\n      pop\n      pop\n      jump\t// out\n        /* \"#utility.yul\":6175:6421   */\n    tag_153:\n        /* \"#utility.yul\":6256:6257   */\n      0x00\n        /* \"#utility.yul\":6266:6379   */\n    tag_240:\n        /* \"#utility.yul\":6280:6286   */\n      dup4\n        /* \"#utility.yul\":6277:6278   */\n      dup2\n        /* \"#utility.yul\":6274:6287   */\n      lt\n        /* \"#utility.yul\":6266:6379   */\n      iszero\n      tag_242\n      jumpi\n        /* \"#utility.yul\":6365:6366   */\n      dup1\n        /* \"#utility.yul\":6360:6363   */\n      dup3\n        /* \"#utility.yul\":6356:6367   */\n      add\n        /* \"#utility.yul\":6350:6368   */\n      mload\n        /* \"#utility.yul\":6346:6347   */\n      dup2\n        /* \"#utility.yul\":6341:6344   */\n      dup5\n        /* \"#utility.yul\":6337:6348   */\n      add\n        /* \"#utility.yul\":6330:6369   */\n      mstore\n        /* \"#utility.yul\":6302:6304   */\n      0x20\n        /* \"#utility.yul\":6299:6300   */\n      dup2\n        /* \"#utility.yul\":6295:6305   */\n      add\n        /* \"#utility.yul\":6290:6305   */\n      swap1\n      pop\n        /* \"#utility.yul\":6266:6379   */\n      jump(tag_240)\n    tag_242:\n        /* \"#utility.yul\":6413:6414   */\n      0x00\n        /* \"#utility.yul\":6404:6410   */\n      dup5\n        /* \"#utility.yul\":6399:6402   */\n      dup5\n        /* \"#utility.yul\":6395:6411   */\n      add\n        /* \"#utility.yul\":6388:6415   */\n      mstore\n        /* \"#utility.yul\":6237:6421   */\n      pop\n        /* \"#utility.yul\":6175:6421   */\n      pop\n      pop\n      pop\n      jump\t// out\n        /* \"#utility.yul\":6427:6817   */\n    tag_154:\n        /* \"#utility.yul\":6533:6536   */\n      0x00\n        /* \"#utility.yul\":6561:6600   */\n      tag_244\n        /* \"#utility.yul\":6594:6599   */\n      dup3\n        /* \"#utility.yul\":6561:6600   */\n      tag_151\n      jump\t// in\n    tag_244:\n        /* \"#utility.yul\":6616:6705   */\n      tag_245\n        /* \"#utility.yul\":6698:6704   */\n      dup2\n        /* \"#utility.yul\":6693:6696   */\n      dup6\n        /* \"#utility.yul\":6616:6705   */\n      tag_152\n      jump\t// in\n    tag_245:\n        /* \"#utility.yul\":6609:6705   */\n      swap4\n      pop\n        /* \"#utility.yul\":6714:6779   */\n      tag_246\n        /* \"#utility.yul\":6772:6778   */\n      dup2\n        /* \"#utility.yul\":6767:6770   */\n      dup6\n        /* \"#utility.yul\":6760:6764   */\n      0x20\n        /* \"#utility.yul\":6753:6758   */\n      dup7\n        /* \"#utility.yul\":6749:6765   */\n      add\n        /* \"#utility.yul\":6714:6779   */\n      tag_153\n      jump\t// in\n    tag_246:\n        /* \"#utility.yul\":6804:6810   */\n      dup1\n        /* \"#utility.yul\":6799:6802   */\n      dup5\n        /* \"#utility.yul\":6795:6811   */\n      add\n        /* \"#utility.yul\":6788:6811   */\n      swap2\n      pop\n        /* \"#utility.yul\":6537:6817   */\n      pop\n        /* \"#utility.yul\":6427:6817   */\n      swap3\n      swap2\n      pop\n      pop\n      jump\t// out\n        /* \"#utility.yul\":6823:7098   */\n    tag_76:\n        /* \"#utility.yul\":6955:6958   */\n      0x00\n        /* \"#utility.yul\":6977:7072   */\n      tag_248\n        /* \"#utility.yul\":7068:7071   */\n      dup3\n        /* \"#utility.yul\":7059:7065   */\n      dup5\n        /* \"#utility.yul\":6977:7072   */\n      tag_154\n      jump\t// in\n    tag_248:\n        /* \"#utility.yul\":6970:7072   */\n      swap2\n      pop\n        /* \"#utility.yul\":7089:7092   */\n      dup2\n        /* \"#utility.yul\":7082:7092   */\n      swap1\n      pop\n        /* \"#utility.yul\":6823:7098   */\n      swap3\n      swap2\n      pop\n      pop\n      jump\t// out\n        /* \"#utility.yul\":7104:7273   */\n    tag_155:\n        /* \"#utility.yul\":7188:7199   */\n      0x00\n        /* \"#utility.yul\":7222:7228   */\n      dup3\n        /* \"#utility.yul\":7217:7220   */\n      dup3\n        /* \"#utility.yul\":7210:7229   */\n      mstore\n        /* \"#utility.yul\":7262:7266   */\n      0x20\n        /* \"#utility.yul\":7257:7260   */\n      dup3\n        /* \"#utility.yul\":7253:7267   */\n      add\n        /* \"#utility.yul\":7238:7267   */\n      swap1\n      pop\n        /* \"#utility.yul\":7104:7273   */\n      swap3\n      swap2\n      pop\n      pop\n      jump\t// out\n        /* \"#utility.yul\":7279:7502   */\n    tag_156:\n        /* \"#utility.yul\":7419:7453   */\n      0x596f7520617265206e6f7420746865206f776e6572206f66207468697320646f\n        /* \"#utility.yul\":7415:7416   */\n      0x00\n        /* \"#utility.yul\":7407:7413   */\n      dup3\n        /* \"#utility.yul\":7403:7417   */\n      add\n        /* \"#utility.yul\":7396:7454   */\n      mstore\n        /* \"#utility.yul\":7488:7494   */\n      0x6d61696e00000000000000000000000000000000000000000000000000000000\n        /* \"#utility.yul\":7483:7485   */\n      0x20\n        /* \"#utility.yul\":7475:7481   */\n      dup3\n        /* \"#utility.yul\":7471:7486   */\n      add\n        /* \"#utility.yul\":7464:7495   */\n      mstore\n        /* \"#utility.yul\":7279:7502   */\n      pop\n      jump\t// out\n        /* \"#utility.yul\":7508:7874   */\n    tag_157:\n        /* \"#utility.yul\":7650:7653   */\n      0x00\n        /* \"#utility.yul\":7671:7738   */\n      tag_252\n        /* \"#utility.yul\":7735:7737   */\n      0x24\n        /* \"#utility.yul\":7730:7733   */\n      dup4\n        /* \"#utility.yul\":7671:7738   */\n      tag_155\n      jump\t// in\n    tag_252:\n        /* \"#utility.yul\":7664:7738   */\n      swap2\n      pop\n        /* \"#utility.yul\":7747:7840   */\n      tag_253\n        /* \"#utility.yul\":7836:7839   */\n      dup3\n        /* \"#utility.yul\":7747:7840   */\n      tag_156\n      jump\t// in\n    tag_253:\n        /* \"#utility.yul\":7865:7867   */\n      0x40\n        /* \"#utility.yul\":7860:7863   */\n      dup3\n        /* \"#utility.yul\":7856:7868   */\n      add\n        /* \"#utility.yul\":7849:7868   */\n      swap1\n      pop\n        /* \"#utility.yul\":7508:7874   */\n      swap2\n      swap1\n      pop\n      jump\t// out\n        /* \"#utility.yul\":7880:8299   */\n    tag_79:\n        /* \"#utility.yul\":8046:8050   */\n      0x00\n        /* \"#utility.yul\":8084:8086   */\n      0x20\n        /* \"#utility.yul\":8073:8082   */\n      dup3\n        /* \"#utility.yul\":8069:8087   */\n      add\n        /* \"#utility.yul\":8061:8087   */\n      swap1\n      pop\n        /* \"#utility.yul\":8133:8142   */\n      dup2\n        /* \"#utility.yul\":8127:8131   */\n      dup2\n        /* \"#utility.yul\":8123:8143   */\n      sub\n        /* \"#utility.yul\":8119:8120   */\n      0x00\n        /* \"#utility.yul\":8108:8117   */\n      dup4\n        /* \"#utility.yul\":8104:8121   */\n      add\n        /* \"#utility.yul\":8097:8144   */\n      mstore\n        /* \"#utility.yul\":8161:8292   */\n      tag_255\n        /* \"#utility.yul\":8287:8291   */\n      dup2\n        /* \"#utility.yul\":8161:8292   */\n      tag_157\n      jump\t// in\n    tag_255:\n        /* \"#utility.yul\":8153:8292   */\n      swap1\n      pop\n        /* \"#utility.yul\":7880:8299   */\n      swap2\n      swap1\n      pop\n      jump\t// out\n        /* \"#utility.yul\":8305:8485   */\n    tag_158:\n        /* \"#utility.yul\":8353:8430   */\n      0x4e487b7100000000000000000000000000000000000000000000000000000000\n        /* \"#utility.yul\":8350:8351   */\n      0x00\n        /* \"#utility.yul\":8343:8431   */\n      mstore\n        /* \"#utility.yul\":8450:8454   */\n      0x11\n        /* \"#utility.yul\":8447:8448   */\n      0x04\n        /* \"#utility.yul\":8440:8455   */\n      mstore\n        /* \"#utility.yul\":8474:8478   */\n      0x24\n        /* \"#utility.yul\":8471:8472   */\n      0x00\n        /* \"#utility.yul\":8464:8479   */\n      revert\n        /* \"#utility.yul\":8491:8901   */\n    tag_82:\n        /* \"#utility.yul\":8531:8538   */\n      0x00\n        /* \"#utility.yul\":8554:8574   */\n      tag_258\n        /* \"#utility.yul\":8572:8573   */\n      dup3\n        /* \"#utility.yul\":8554:8574   */\n      tag_144\n      jump\t// in\n    tag_258:\n        /* \"#utility.yul\":8549:8574   */\n      swap2\n      pop\n        /* \"#utility.yul\":8588:8608   */\n      tag_259\n        /* \"#utility.yul\":8606:8607   */\n      dup4\n        /* \"#utility.yul\":8588:8608   */\n      tag_144\n      jump\t// in\n    tag_259:\n        /* \"#utility.yul\":8583:8608   */\n      swap3\n      pop\n        /* \"#utility.yul\":8643:8644   */\n      dup3\n        /* \"#utility.yul\":8640:8641   */\n      dup3\n        /* \"#utility.yul\":8636:8645   */\n      mul\n        /* \"#utility.yul\":8665:8695   */\n      tag_260\n        /* \"#utility.yul\":8683:8694   */\n      dup2\n        /* \"#utility.yul\":8665:8695   */\n      tag_144\n      jump\t// in\n    tag_260:\n        /* \"#utility.yul\":8654:8695   */\n      swap2\n      pop\n        /* \"#utility.yul\":8844:8845   */\n      dup3\n        /* \"#utility.yul\":8835:8842   */\n      dup3\n        /* \"#utility.yul\":8831:8846   */\n      div\n        /* \"#utility.yul\":8828:8829   */\n      dup5\n        /* \"#utility.yul\":8825:8847   */\n      eq\n        /* \"#utility.yul\":8805:8806   */\n      dup4\n        /* \"#utility.yul\":8798:8807   */\n      iszero\n        /* \"#utility.yul\":8778:8861   */\n      or\n        /* \"#utility.yul\":8755:8894   */\n      tag_261\n      jumpi\n        /* \"#utility.yul\":8874:8892   */\n      tag_262\n      tag_158\n      jump\t// in\n    tag_262:\n        /* \"#utility.yul\":8755:8894   */\n    tag_261:\n        /* \"#utility.yul\":8539:8901   */\n      pop\n        /* \"#utility.yul\":8491:8901   */\n      swap3\n      swap2\n      pop\n      pop\n      jump\t// out\n        /* \"#utility.yul\":8907:9075   */\n    tag_159:\n        /* \"#utility.yul\":9047:9067   */\n      0x496e73756666696369656e742066756e64730000000000000000000000000000\n        /* \"#utility.yul\":9043:9044   */\n      0x00\n        /* \"#utility.yul\":9035:9041   */\n      dup3\n        /* \"#utility.yul\":9031:9045   */\n      add\n        /* \"#utility.yul\":9024:9068   */\n      mstore\n        /* \"#utility.yul\":8907:9075   */\n      pop\n      jump\t// out\n        /* \"#utility.yul\":9081:9447   */\n    tag_160:\n        /* \"#utility.yul\":9223:9226   */\n      0x00\n        /* \"#utility.yul\":9244:9311   */\n      tag_265\n        /* \"#utility.yul\":9308:9310   */\n      0x12\n        /* \"#utility.yul\":9303:9306   */\n      dup4\n        /* \"#utility.yul\":9244:9311   */\n      tag_155\n      jump\t// in\n    tag_265:\n        /* \"#utility.yul\":9237:9311   */\n      swap2\n      pop\n        /* \"#utility.yul\":9320:9413   */\n      tag_266\n        /* \"#utility.yul\":9409:9412   */\n      dup3\n        /* \"#utility.yul\":9320:9413   */\n      tag_159\n      jump\t// in\n    tag_266:\n        /* \"#utility.yul\":9438:9440   */\n      0x20\n        /* \"#utility.yul\":9433:9436   */\n      dup3\n        /* \"#utility.yul\":9429:9441   */\n      add\n        /* \"#utility.yul\":9422:9441   */\n      swap1\n      pop\n        /* \"#utility.yul\":9081:9447   */\n      swap2\n      swap1\n      pop\n      jump\t// out\n        /* \"#utility.yul\":9453:9872   */\n    tag_86:\n        /* \"#utility.yul\":9619:9623   */\n      0x00\n        /* \"#utility.yul\":9657:9659   */\n      0x20\n        /* \"#utility.yul\":9646:9655   */\n      dup3\n        /* \"#utility.yul\":9642:9660   */\n      add\n        /* \"#utility.yul\":9634:9660   */\n      swap1\n      pop\n        /* \"#utility.yul\":9706:9715   */\n      dup2\n        /* \"#utility.yul\":9700:9704   */\n      dup2\n        /* \"#utility.yul\":9696:9716   */\n      sub\n        /* \"#utility.yul\":9692:9693   */\n      0x00\n        /* \"#utility.yul\":9681:9690   */\n      dup4\n        /* \"#utility.yul\":9677:9694   */\n      add\n        /* \"#utility.yul\":9670:9717   */\n      mstore\n        /* \"#utility.yul\":9734:9865   */\n      tag_268\n        /* \"#utility.yul\":9860:9864   */\n      dup2\n        /* \"#utility.yul\":9734:9865   */\n      tag_160\n      jump\t// in\n    tag_268:\n        /* \"#utility.yul\":9726:9865   */\n      swap1\n      pop\n        /* \"#utility.yul\":9453:9872   */\n      swap2\n      swap1\n      pop\n      jump\t// out\n        /* \"#utility.yul\":9878:10069   */\n    tag_91:\n        /* \"#utility.yul\":9918:9921   */\n      0x00\n        /* \"#utility.yul\":9937:9957   */\n      tag_270\n        /* \"#utility.yul\":9955:9956   */\n      dup3\n        /* \"#utility.yul\":9937:9957   */\n      tag_144\n      jump\t// in\n    tag_270:\n        /* \"#utility.yul\":9932:9957   */\n      swap2\n      pop\n        /* \"#utility.yul\":9971:9991   */\n      tag_271\n        /* \"#utility.yul\":9989:9990   */\n      dup4\n        /* \"#utility.yul\":9971:9991   */\n      tag_144\n      jump\t// in\n    tag_271:\n        /* \"#utility.yul\":9966:9991   */\n      swap3\n      pop\n        /* \"#utility.yul\":10014:10015   */\n      dup3\n        /* \"#utility.yul\":10011:10012   */\n      dup3\n        /* \"#utility.yul\":10007:10016   */\n      add\n        /* \"#utility.yul\":10000:10016   */\n      swap1\n      pop\n        /* \"#utility.yul\":10035:10038   */\n      dup1\n        /* \"#utility.yul\":10032:10033   */\n      dup3\n        /* \"#utility.yul\":10029:10039   */\n      gt\n        /* \"#utility.yul\":10026:10062   */\n      iszero\n      tag_272\n      jumpi\n        /* \"#utility.yul\":10042:10060   */\n      tag_273\n      tag_158\n      jump\t// in\n    tag_273:\n        /* \"#utility.yul\":10026:10062   */\n    tag_272:\n        /* \"#utility.yul\":9878:10069   */\n      swap3\n      swap2\n      pop\n      pop\n      jump\t// out\n        /* \"#utility.yul\":10075:10452   */\n    tag_161:\n        /* \"#utility.yul\":10163:10166   */\n      0x00\n        /* \"#utility.yul\":10191:10230   */\n      tag_275\n        /* \"#utility.yul\":10224:10229   */\n      dup3\n        /* \"#utility.yul\":10191:10230   */\n      tag_151\n      jump\t// in\n    tag_275:\n        /* \"#utility.yul\":10246:10317   */\n      tag_276\n        /* \"#utility.yul\":10310:10316   */\n      dup2\n        /* \"#utility.yul\":10305:10308   */\n      dup6\n        /* \"#utility.yul\":10246:10317   */\n      tag_155\n      jump\t// in\n    tag_276:\n        /* \"#utility.yul\":10239:10317   */\n      swap4\n      pop\n        /* \"#utility.yul\":10326:10391   */\n      tag_277\n        /* \"#utility.yul\":10384:10390   */\n      dup2\n        /* \"#utility.yul\":10379:10382   */\n      dup6\n        /* \"#utility.yul\":10372:10376   */\n      0x20\n        /* \"#utility.yul\":10365:10370   */\n      dup7\n        /* \"#utility.yul\":10361:10377   */\n      add\n        /* \"#utility.yul\":10326:10391   */\n      tag_153\n      jump\t// in\n    tag_277:\n        /* \"#utility.yul\":10416:10445   */\n      tag_278\n        /* \"#utility.yul\":10438:10444   */\n      dup2\n        /* \"#utility.yul\":10416:10445   */\n      tag_136\n      jump\t// in\n    tag_278:\n        /* \"#utility.yul\":10411:10414   */\n      dup5\n        /* \"#utility.yul\":10407:10446   */\n      add\n        /* \"#utility.yul\":10400:10446   */\n      swap2\n      pop\n        /* \"#utility.yul\":10167:10452   */\n      pop\n        /* \"#utility.yul\":10075:10452   */\n      swap3\n      swap2\n      pop\n      pop\n      jump\t// out\n        /* \"#utility.yul\":10458:11213   */\n    tag_94:\n        /* \"#utility.yul\":10683:10687   */\n      0x00\n        /* \"#utility.yul\":10721:10724   */\n      0xa0\n        /* \"#utility.yul\":10710:10719   */\n      dup3\n        /* \"#utility.yul\":10706:10725   */\n      add\n        /* \"#utility.yul\":10698:10725   */\n      swap1\n      pop\n        /* \"#utility.yul\":10771:10780   */\n      dup2\n        /* \"#utility.yul\":10765:10769   */\n      dup2\n        /* \"#utility.yul\":10761:10781   */\n      sub\n        /* \"#utility.yul\":10757:10758   */\n      0x00\n        /* \"#utility.yul\":10746:10755   */\n      dup4\n        /* \"#utility.yul\":10742:10759   */\n      add\n        /* \"#utility.yul\":10735:10782   */\n      mstore\n        /* \"#utility.yul\":10799:10877   */\n      tag_280\n        /* \"#utility.yul\":10872:10876   */\n      dup2\n        /* \"#utility.yul\":10863:10869   */\n      dup9\n        /* \"#utility.yul\":10799:10877   */\n      tag_161\n      jump\t// in\n    tag_280:\n        /* \"#utility.yul\":10791:10877   */\n      swap1\n      pop\n        /* \"#utility.yul\":10887:10959   */\n      tag_281\n        /* \"#utility.yul\":10955:10957   */\n      0x20\n        /* \"#utility.yul\":10944:10953   */\n      dup4\n        /* \"#utility.yul\":10940:10958   */\n      add\n        /* \"#utility.yul\":10931:10937   */\n      dup8\n        /* \"#utility.yul\":10887:10959   */\n      tag_149\n      jump\t// in\n    tag_281:\n        /* \"#utility.yul\":10969:11041   */\n      tag_282\n        /* \"#utility.yul\":11037:11039   */\n      0x40\n        /* \"#utility.yul\":11026:11035   */\n      dup4\n        /* \"#utility.yul\":11022:11040   */\n      add\n        /* \"#utility.yul\":11013:11019   */\n      dup7\n        /* \"#utility.yul\":10969:11041   */\n      tag_150\n      jump\t// in\n    tag_282:\n        /* \"#utility.yul\":11051:11123   */\n      tag_283\n        /* \"#utility.yul\":11119:11121   */\n      0x60\n        /* \"#utility.yul\":11108:11117   */\n      dup4\n        /* \"#utility.yul\":11104:11122   */\n      add\n        /* \"#utility.yul\":11095:11101   */\n      dup6\n        /* \"#utility.yul\":11051:11123   */\n      tag_150\n      jump\t// in\n    tag_283:\n        /* \"#utility.yul\":11133:11206   */\n      tag_284\n        /* \"#utility.yul\":11201:11204   */\n      0x80\n        /* \"#utility.yul\":11190:11199   */\n      dup4\n        /* \"#utility.yul\":11186:11205   */\n      add\n        /* \"#utility.yul\":11177:11183   */\n      dup5\n        /* \"#utility.yul\":11133:11206   */\n      tag_150\n      jump\t// in\n    tag_284:\n        /* \"#utility.yul\":10458:11213   */\n      swap7\n      swap6\n      pop\n      pop\n      pop\n      pop\n      pop\n      pop\n      jump\t// out\n        /* \"#utility.yul\":11219:11448   */\n    tag_162:\n        /* \"#utility.yul\":11359:11393   */\n      0x4f6e6c7920636f6e7472616374206f776e65722063616e2063616c6c20746869\n        /* \"#utility.yul\":11355:11356   */\n      0x00\n        /* \"#utility.yul\":11347:11353   */\n      dup3\n        /* \"#utility.yul\":11343:11357   */\n      add\n        /* \"#utility.yul\":11336:11394   */\n      mstore\n        /* \"#utility.yul\":11428:11440   */\n      0x732066756e6374696f6e00000000000000000000000000000000000000000000\n        /* \"#utility.yul\":11423:11425   */\n      0x20\n        /* \"#utility.yul\":11415:11421   */\n      dup3\n        /* \"#utility.yul\":11411:11426   */\n      add\n        /* \"#utility.yul\":11404:11441   */\n      mstore\n        /* \"#utility.yul\":11219:11448   */\n      pop\n      jump\t// out\n        /* \"#utility.yul\":11454:11820   */\n    tag_163:\n        /* \"#utility.yul\":11596:11599   */\n      0x00\n        /* \"#utility.yul\":11617:11684   */\n      tag_287\n        /* \"#utility.yul\":11681:11683   */\n      0x2a\n        /* \"#utility.yul\":11676:11679   */\n      dup4\n        /* \"#utility.yul\":11617:11684   */\n      tag_155\n      jump\t// in\n    tag_287:\n        /* \"#utility.yul\":11610:11684   */\n      swap2\n      pop\n        /* \"#utility.yul\":11693:11786   */\n      tag_288\n        /* \"#utility.yul\":11782:11785   */\n      dup3\n        /* \"#utility.yul\":11693:11786   */\n      tag_162\n      jump\t// in\n    tag_288:\n        /* \"#utility.yul\":11811:11813   */\n      0x40\n        /* \"#utility.yul\":11806:11809   */\n      dup3\n        /* \"#utility.yul\":11802:11814   */\n      add\n        /* \"#utility.yul\":11795:11814   */\n      swap1\n      pop\n        /* \"#utility.yul\":11454:11820   */\n      swap2\n      swap1\n      pop\n      jump\t// out\n        /* \"#utility.yul\":11826:12245   */\n    tag_100:\n        /* \"#utility.yul\":11992:11996   */\n      0x00\n        /* \"#utility.yul\":12030:12032   */\n      0x20\n        /* \"#utility.yul\":12019:12028   */\n      dup3\n        /* \"#utility.yul\":12015:12033   */\n      add\n        /* \"#utility.yul\":12007:12033   */\n      swap1\n      pop\n        /* \"#utility.yul\":12079:12088   */\n      dup2\n        /* \"#utility.yul\":12073:12077   */\n      dup2\n        /* \"#utility.yul\":12069:12089   */\n      sub\n        /* \"#utility.yul\":12065:12066   */\n      0x00\n        /* \"#utility.yul\":12054:12063   */\n      dup4\n        /* \"#utility.yul\":12050:12067   */\n      add\n        /* \"#utility.yul\":12043:12090   */\n      mstore\n        /* \"#utility.yul\":12107:12238   */\n      tag_290\n        /* \"#utility.yul\":12233:12237   */\n      dup2\n        /* \"#utility.yul\":12107:12238   */\n      tag_163\n      jump\t// in\n    tag_290:\n        /* \"#utility.yul\":12099:12238   */\n      swap1\n      pop\n        /* \"#utility.yul\":11826:12245   */\n      swap2\n      swap1\n      pop\n      jump\t// out\n        /* \"#utility.yul\":12251:12427   */\n    tag_164:\n        /* \"#utility.yul\":12391:12419   */\n      0x496e76616c696420726567697374726174696f6e207965617273000000000000\n        /* \"#utility.yul\":12387:12388   */\n      0x00\n        /* \"#utility.yul\":12379:12385   */\n      dup3\n        /* \"#utility.yul\":12375:12389   */\n      add\n        /* \"#utility.yul\":12368:12420   */\n      mstore\n        /* \"#utility.yul\":12251:12427   */\n      pop\n      jump\t// out\n        /* \"#utility.yul\":12433:12799   */\n    tag_165:\n        /* \"#utility.yul\":12575:12578   */\n      0x00\n        /* \"#utility.yul\":12596:12663   */\n      tag_293\n        /* \"#utility.yul\":12660:12662   */\n      0x1a\n        /* \"#utility.yul\":12655:12658   */\n      dup4\n        /* \"#utility.yul\":12596:12663   */\n      tag_155\n      jump\t// in\n    tag_293:\n        /* \"#utility.yul\":12589:12663   */\n      swap2\n      pop\n        /* \"#utility.yul\":12672:12765   */\n      tag_294\n        /* \"#utility.yul\":12761:12764   */\n      dup3\n        /* \"#utility.yul\":12672:12765   */\n      tag_164\n      jump\t// in\n    tag_294:\n        /* \"#utility.yul\":12790:12792   */\n      0x20\n        /* \"#utility.yul\":12785:12788   */\n      dup3\n        /* \"#utility.yul\":12781:12793   */\n      add\n        /* \"#utility.yul\":12774:12793   */\n      swap1\n      pop\n        /* \"#utility.yul\":12433:12799   */\n      swap2\n      swap1\n      pop\n      jump\t// out\n        /* \"#utility.yul\":12805:13224   */\n    tag_111:\n        /* \"#utility.yul\":12971:12975   */\n      0x00\n        /* \"#utility.yul\":13009:13011   */\n      0x20\n        /* \"#utility.yul\":12998:13007   */\n      dup3\n        /* \"#utility.yul\":12994:13012   */\n      add\n        /* \"#utility.yul\":12986:13012   */\n      swap1\n      pop\n        /* \"#utility.yul\":13058:13067   */\n      dup2\n        /* \"#utility.yul\":13052:13056   */\n      dup2\n        /* \"#utility.yul\":13048:13068   */\n      sub\n        /* \"#utility.yul\":13044:13045   */\n      0x00\n        /* \"#utility.yul\":13033:13042   */\n      dup4\n        /* \"#utility.yul\":13029:13046   */\n      add\n        /* \"#utility.yul\":13022:13069   */\n      mstore\n        /* \"#utility.yul\":13086:13217   */\n      tag_296\n        /* \"#utility.yul\":13212:13216   */\n      dup2\n        /* \"#utility.yul\":13086:13217   */\n      tag_165\n      jump\t// in\n    tag_296:\n        /* \"#utility.yul\":13078:13217   */\n      swap1\n      pop\n        /* \"#utility.yul\":12805:13224   */\n      swap2\n      swap1\n      pop\n      jump\t// out\n        /* \"#utility.yul\":13230:13405   */\n    tag_166:\n        /* \"#utility.yul\":13370:13397   */\n      0x446f6d61696e20616c7265616479207265676973746572656400000000000000\n        /* \"#utility.yul\":13366:13367   */\n      0x00\n        /* \"#utility.yul\":13358:13364   */\n      dup3\n        /* \"#utility.yul\":13354:13368   */\n      add\n        /* \"#utility.yul\":13347:13398   */\n      mstore\n        /* \"#utility.yul\":13230:13405   */\n      pop\n      jump\t// out\n        /* \"#utility.yul\":13411:13777   */\n    tag_167:\n        /* \"#utility.yul\":13553:13556   */\n      0x00\n        /* \"#utility.yul\":13574:13641   */\n      tag_299\n        /* \"#utility.yul\":13638:13640   */\n      0x19\n        /* \"#utility.yul\":13633:13636   */\n      dup4\n        /* \"#utility.yul\":13574:13641   */\n      tag_155\n      jump\t// in\n    tag_299:\n        /* \"#utility.yul\":13567:13641   */\n      swap2\n      pop\n        /* \"#utility.yul\":13650:13743   */\n      tag_300\n        /* \"#utility.yul\":13739:13742   */\n      dup3\n        /* \"#utility.yul\":13650:13743   */\n      tag_166\n      jump\t// in\n    tag_300:\n        /* \"#utility.yul\":13768:13770   */\n      0x20\n        /* \"#utility.yul\":13763:13766   */\n      dup3\n        /* \"#utility.yul\":13759:13771   */\n      add\n        /* \"#utility.yul\":13752:13771   */\n      swap1\n      pop\n        /* \"#utility.yul\":13411:13777   */\n      swap2\n      swap1\n      pop\n      jump\t// out\n        /* \"#utility.yul\":13783:14202   */\n    tag_120:\n        /* \"#utility.yul\":13949:13953   */\n      0x00\n        /* \"#utility.yul\":13987:13989   */\n      0x20\n        /* \"#utility.yul\":13976:13985   */\n      dup3\n        /* \"#utility.yul\":13972:13990   */\n      add\n        /* \"#utility.yul\":13964:13990   */\n      swap1\n      pop\n        /* \"#utility.yul\":14036:14045   */\n      dup2\n        /* \"#utility.yul\":14030:14034   */\n      dup2\n        /* \"#utility.yul\":14026:14046   */\n      sub\n        /* \"#utility.yul\":14022:14023   */\n      0x00\n        /* \"#utility.yul\":14011:14020   */\n      dup4\n        /* \"#utility.yul\":14007:14024   */\n      add\n        /* \"#utility.yul\":14000:14047   */\n      mstore\n        /* \"#utility.yul\":14064:14195   */\n      tag_302\n        /* \"#utility.yul\":14190:14194   */\n      dup2\n        /* \"#utility.yul\":14064:14195   */\n      tag_167\n      jump\t// in\n    tag_302:\n        /* \"#utility.yul\":14056:14195   */\n      swap1\n      pop\n        /* \"#utility.yul\":13783:14202   */\n      swap2\n      swap1\n      pop\n      jump\t// out\n\n    auxdata: 0xa2646970667358221220a49c0f5dcff4bb5d901349d51065d5ee1ea7978af775a191b729c7756d68838264736f6c63430008160033\n}\n",
				"bytecode": {
					"linkReferences": {},
					"object": "608060405234801562000010575f80fd5b5060405162001349380380620013498339818101604052810190620000369190620000c8565b3360045f6101000a81548173ffffffffffffffffffffffffffffffffffffffff021916908373ffffffffffffffffffffffffffffffffffffffff160217905550816002819055508060038190555050506200010d565b5f80fd5b5f819050919050565b620000a48162000090565b8114620000af575f80fd5b50565b5f81519050620000c28162000099565b92915050565b5f8060408385031215620000e157620000e06200008c565b5b5f620000f085828601620000b2565b92505060206200010385828601620000b2565b9150509250929050565b61122e806200011b5f395ff3fe6080604052600436106100c1575f3560e01c806365a4dd911161007e5780639094c266116100585780639094c26614610244578063a6b694f214610260578063d6b495bd1461028a578063ee5d8210146102b2576100c1565b806365a4dd91146101c657806385e486c8146101f05780638da5cb5b1461021a576100c1565b80631a83fd8f146100c557806325970115146100e1578063264492351461011d5780633ccfd60b1461015c5780633f414c191461017257806364e0d87b1461019c575b5f80fd5b6100df60048036038101906100da9190610c52565b6102da565b005b3480156100ec575f80fd5b5061010760048036038101906101029190610cac565b6104e9565b6040516101149190610d32565b60405180910390f35b348015610128575f80fd5b50610143600480360381019061013e9190610cac565b610530565b6040516101539493929190610d5a565b60405180910390f35b348015610167575f80fd5b50610170610592565b005b34801561017d575f80fd5b5061018661068d565b6040516101939190610d9d565b60405180910390f35b3480156101a7575f80fd5b506101b0610692565b6040516101bd9190610d9d565b60405180910390f35b3480156101d1575f80fd5b506101da610698565b6040516101e79190610d9d565b60405180910390f35b3480156101fb575f80fd5b5061020461069e565b6040516102119190610d9d565b60405180910390f35b348015610225575f80fd5b5061022e6106a3565b60405161023b9190610d32565b60405180910390f35b61025e60048036038101906102599190610c52565b6106c8565b005b34801561026b575f80fd5b5061027461097b565b6040516102819190610d32565b60405180910390f35b348015610295575f80fd5b506102b060048036038101906102ab9190610db6565b6109a0565b005b3480156102bd575f80fd5b506102d860048036038101906102d39190610db6565b610a39565b005b3373ffffffffffffffffffffffffffffffffffffffff165f836040516103009190610e4d565b90815260200160405180910390205f015f9054906101000a900473ffffffffffffffffffffffffffffffffffffffff1673ffffffffffffffffffffffffffffffffffffffff1614610386576040517f08c379a000000000000000000000000000000000000000000000000000000000815260040161037d90610ee3565b60405180910390fd5b5f816003545f8560405161039a9190610e4d565b9081526020016040518091039020600101546103b69190610f2e565b6103c09190610f2e565b905080341015610405576040517f08c379a00000000000000000000000000000000000000000000000000000000081526004016103fc90610fb9565b60405180910390fd5b805f846040516104159190610e4d565b908152602001604051809103902060010181905550425f8460405161043a9190610e4d565b908152602001604051809103902060020181905550815f8460405161045f9190610e4d565b90815260200160405180910390206003015f82825461047e9190610fd7565b925050819055507fb268f54076718b9cb441aa108681f7ca5e1afc502ef4b8e8c094216ede0280f0833383425f886040516104b99190610e4d565b9081526020016040518091039020600301546040516104dc959493929190611042565b60405180910390a1505050565b5f80826040516104f99190610e4d565b90815260200160405180910390205f015f9054906101000a900473ffffffffffffffffffffffffffffffffffffffff169050919050565b5f818051602081018201805184825260208301602085012081835280955050505050505f91509050805f015f9054906101000a900473ffffffffffffffffffffffffffffffffffffffff16908060010154908060020154908060030154905084565b60045f9054906101000a900473ffffffffffffffffffffffffffffffffffffffff1673ffffffffffffffffffffffffffffffffffffffff163373ffffffffffffffffffffffffffffffffffffffff1614610621576040517f08c379a00000000000000000000000000000000000000000000000000000000081526004016106189061110a565b60405180910390fd5b5f47905060045f9054906101000a900473ffffffffffffffffffffffffffffffffffffffff1673ffffffffffffffffffffffffffffffffffffffff166108fc8290811502906040515f60405180830381858888f19350505050158015610689573d5f803e3d5ffd5b5050565b600181565b60035481565b60025481565b600a81565b60045f9054906101000a900473ffffffffffffffffffffffffffffffffffffffff1681565b5f816002546106d79190610f2e565b90508034101561071c576040517f08c379a000000000000000000000000000000000000000000000000000000000815260040161071390610fb9565b60405180910390fd5b6001821015801561072e5750600a8211155b61076d576040517f08c379a000000000000000000000000000000000000000000000000000000000815260040161076490611172565b60405180910390fd5b5f73ffffffffffffffffffffffffffffffffffffffff165f846040516107939190610e4d565b90815260200160405180910390205f015f9054906101000a900473ffffffffffffffffffffffffffffffffffffffff1673ffffffffffffffffffffffffffffffffffffffff16148061083f57506301e133805f846040516107f49190610e4d565b9081526020016040518091039020600301546108109190610f2e565b5f8460405161081f9190610e4d565b90815260200160405180910390206002015461083b9190610fd7565b4210155b61087e576040517f08c379a0000000000000000000000000000000000000000000000000000000008152600401610875906111da565b60405180910390fd5b60405180608001604052803373ffffffffffffffffffffffffffffffffffffffff168152602001828152602001428152602001838152505f846040516108c49190610e4d565b90815260200160405180910390205f820151815f015f6101000a81548173ffffffffffffffffffffffffffffffffffffffff021916908373ffffffffffffffffffffffffffffffffffffffff1602179055506020820151816001015560408201518160020155606082015181600301559050507fb268f54076718b9cb441aa108681f7ca5e1afc502ef4b8e8c094216ede0280f0833383428660405161096e959493929190611042565b60405180910390a1505050565b60015f9054906101000a900473ffffffffffffffffffffffffffffffffffffffff1681565b60045f9054906101000a900473ffffffffffffffffffffffffffffffffffffffff1673ffffffffffffffffffffffffffffffffffffffff163373ffffffffffffffffffffffffffffffffffffffff1614610a2f576040517f08c379a0000000000000000000000000000000000000000000000000000000008152600401610a269061110a565b60405180910390fd5b8060038190555050565b60045f9054906101000a900473ffffffffffffffffffffffffffffffffffffffff1673ffffffffffffffffffffffffffffffffffffffff163373ffffffffffffffffffffffffffffffffffffffff1614610ac8576040517f08c379a0000000000000000000000000000000000000000000000000000000008152600401610abf9061110a565b60405180910390fd5b8060028190555050565b5f604051905090565b5f80fd5b5f80fd5b5f80fd5b5f80fd5b5f601f19601f8301169050919050565b7f4e487b71000000000000000000000000000000000000000000000000000000005f52604160045260245ffd5b610b3182610aeb565b810181811067ffffffffffffffff82111715610b5057610b4f610afb565b5b80604052505050565b5f610b62610ad2565b9050610b6e8282610b28565b919050565b5f67ffffffffffffffff821115610b8d57610b8c610afb565b5b610b9682610aeb565b9050602081019050919050565b828183375f83830152505050565b5f610bc3610bbe84610b73565b610b59565b905082815260208101848484011115610bdf57610bde610ae7565b5b610bea848285610ba3565b509392505050565b5f82601f830112610c0657610c05610ae3565b5b8135610c16848260208601610bb1565b91505092915050565b5f819050919050565b610c3181610c1f565b8114610c3b575f80fd5b50565b5f81359050610c4c81610c28565b92915050565b5f8060408385031215610c6857610c67610adb565b5b5f83013567ffffffffffffffff811115610c8557610c84610adf565b5b610c9185828601610bf2565b9250506020610ca285828601610c3e565b9150509250929050565b5f60208284031215610cc157610cc0610adb565b5b5f82013567ffffffffffffffff811115610cde57610cdd610adf565b5b610cea84828501610bf2565b91505092915050565b5f73ffffffffffffffffffffffffffffffffffffffff82169050919050565b5f610d1c82610cf3565b9050919050565b610d2c81610d12565b82525050565b5f602082019050610d455f830184610d23565b92915050565b610d5481610c1f565b82525050565b5f608082019050610d6d5f830187610d23565b610d7a6020830186610d4b565b610d876040830185610d4b565b610d946060830184610d4b565b95945050505050565b5f602082019050610db05f830184610d4b565b92915050565b5f60208284031215610dcb57610dca610adb565b5b5f610dd884828501610c3e565b91505092915050565b5f81519050919050565b5f81905092915050565b5f5b83811015610e12578082015181840152602081019050610df7565b5f8484015250505050565b5f610e2782610de1565b610e318185610deb565b9350610e41818560208601610df5565b80840191505092915050565b5f610e588284610e1d565b915081905092915050565b5f82825260208201905092915050565b7f596f7520617265206e6f7420746865206f776e6572206f66207468697320646f5f8201527f6d61696e00000000000000000000000000000000000000000000000000000000602082015250565b5f610ecd602483610e63565b9150610ed882610e73565b604082019050919050565b5f6020820190508181035f830152610efa81610ec1565b9050919050565b7f4e487b71000000000000000000000000000000000000000000000000000000005f52601160045260245ffd5b5f610f3882610c1f565b9150610f4383610c1f565b9250828202610f5181610c1f565b91508282048414831517610f6857610f67610f01565b5b5092915050565b7f496e73756666696369656e742066756e647300000000000000000000000000005f82015250565b5f610fa3601283610e63565b9150610fae82610f6f565b602082019050919050565b5f6020820190508181035f830152610fd081610f97565b9050919050565b5f610fe182610c1f565b9150610fec83610c1f565b925082820190508082111561100457611003610f01565b5b92915050565b5f61101482610de1565b61101e8185610e63565b935061102e818560208601610df5565b61103781610aeb565b840191505092915050565b5f60a0820190508181035f83015261105a818861100a565b90506110696020830187610d23565b6110766040830186610d4b565b6110836060830185610d4b565b6110906080830184610d4b565b9695505050505050565b7f4f6e6c7920636f6e7472616374206f776e65722063616e2063616c6c207468695f8201527f732066756e6374696f6e00000000000000000000000000000000000000000000602082015250565b5f6110f4602a83610e63565b91506110ff8261109a565b604082019050919050565b5f6020820190508181035f830152611121816110e8565b9050919050565b7f496e76616c696420726567697374726174696f6e2079656172730000000000005f82015250565b5f61115c601a83610e63565b915061116782611128565b602082019050919050565b5f6020820190508181035f83015261118981611150565b9050919050565b7f446f6d61696e20616c72656164792072656769737465726564000000000000005f82015250565b5f6111c4601983610e63565b91506111cf82611190565b602082019050919050565b5f6020820190508181035f8301526111f1816111b8565b905091905056fea2646970667358221220a49c0f5dcff4bb5d901349d51065d5ee1ea7978af775a191b729c7756d68838264736f6c63430008160033",
					"opcodes": "PUSH1 0x80 PUSH1 0x40 MSTORE CALLVALUE DUP1 ISZERO PUSH3 0x10 JUMPI PUSH0 DUP1 REVERT JUMPDEST POP PUSH1 0x40 MLOAD PUSH3 0x1349 CODESIZE SUB DUP1 PUSH3 0x1349 DUP4 CODECOPY DUP2 DUP2 ADD PUSH1 0x40 MSTORE DUP2 ADD SWAP1 PUSH3 0x36 SWAP2 SWAP1 PUSH3 0xC8 JUMP JUMPDEST CALLER PUSH1 0x4 PUSH0 PUSH2 0x100 EXP DUP2 SLOAD DUP2 PUSH20 0xFFFFFFFFFFFFFFFFFFFFFFFFFFFFFFFFFFFFFFFF MUL NOT AND SWAP1 DUP4 PUSH20 0xFFFFFFFFFFFFFFFFFFFFFFFFFFFFFFFFFFFFFFFF AND MUL OR SWAP1 SSTORE POP DUP2 PUSH1 0x2 DUP2 SWAP1 SSTORE POP DUP1 PUSH1 0x3 DUP2 SWAP1 SSTORE POP POP POP PUSH3 0x10D JUMP JUMPDEST PUSH0 DUP1 REVERT JUMPDEST PUSH0 DUP2 SWAP1 POP SWAP2 SWAP1 POP JUMP JUMPDEST PUSH3 0xA4 DUP2 PUSH3 0x90 JUMP JUMPDEST DUP2 EQ PUSH3 0xAF JUMPI PUSH0 DUP1 REVERT JUMPDEST POP JUMP JUMPDEST PUSH0 DUP2 MLOAD SWAP1 POP PUSH3 0xC2 DUP2 PUSH3 0x99 JUMP JUMPDEST SWAP3 SWAP2 POP POP JUMP JUMPDEST PUSH0 DUP1 PUSH1 0x40 DUP4 DUP6 SUB SLT ISZERO PUSH3 0xE1 JUMPI PUSH3 0xE0 PUSH3 0x8C JUMP JUMPDEST JUMPDEST PUSH0 PUSH3 0xF0 DUP6 DUP3 DUP7 ADD PUSH3 0xB2 JUMP JUMPDEST SWAP3 POP POP PUSH1 0x20 PUSH3 0x103 DUP6 DUP3 DUP7 ADD PUSH3 0xB2 JUMP JUMPDEST SWAP2 POP POP SWAP3 POP SWAP3 SWAP1 POP JUMP JUMPDEST PUSH2 0x122E DUP1 PUSH3 0x11B PUSH0 CODECOPY PUSH0 RETURN INVALID PUSH1 0x80 PUSH1 0x40 MSTORE PUSH1 0x4 CALLDATASIZE LT PUSH2 0xC1 JUMPI PUSH0 CALLDATALOAD PUSH1 0xE0 SHR DUP1 PUSH4 0x65A4DD91 GT PUSH2 0x7E JUMPI DUP1 PUSH4 0x9094C266 GT PUSH2 0x58 JUMPI DUP1 PUSH4 0x9094C266 EQ PUSH2 0x244 JUMPI DUP1 PUSH4 0xA6B694F2 EQ PUSH2 0x260 JUMPI DUP1 PUSH4 0xD6B495BD EQ PUSH2 0x28A JUMPI DUP1 PUSH4 0xEE5D8210 EQ PUSH2 0x2B2 JUMPI PUSH2 0xC1 JUMP JUMPDEST DUP1 PUSH4 0x65A4DD91 EQ PUSH2 0x1C6 JUMPI DUP1 PUSH4 0x85E486C8 EQ PUSH2 0x1F0 JUMPI DUP1 PUSH4 0x8DA5CB5B EQ PUSH2 0x21A JUMPI PUSH2 0xC1 JUMP JUMPDEST DUP1 PUSH4 0x1A83FD8F EQ PUSH2 0xC5 JUMPI DUP1 PUSH4 0x25970115 EQ PUSH2 0xE1 JUMPI DUP1 PUSH4 0x26449235 EQ PUSH2 0x11D JUMPI DUP1 PUSH4 0x3CCFD60B EQ PUSH2 0x15C JUMPI DUP1 PUSH4 0x3F414C19 EQ PUSH2 0x172 JUMPI DUP1 PUSH4 0x64E0D87B EQ PUSH2 0x19C JUMPI JUMPDEST PUSH0 DUP1 REVERT JUMPDEST PUSH2 0xDF PUSH1 0x4 DUP1 CALLDATASIZE SUB DUP2 ADD SWAP1 PUSH2 0xDA SWAP2 SWAP1 PUSH2 0xC52 JUMP JUMPDEST PUSH2 0x2DA JUMP JUMPDEST STOP JUMPDEST CALLVALUE DUP1 ISZERO PUSH2 0xEC JUMPI PUSH0 DUP1 REVERT JUMPDEST POP PUSH2 0x107 PUSH1 0x4 DUP1 CALLDATASIZE SUB DUP2 ADD SWAP1 PUSH2 0x102 SWAP2 SWAP1 PUSH2 0xCAC JUMP JUMPDEST PUSH2 0x4E9 JUMP JUMPDEST PUSH1 0x40 MLOAD PUSH2 0x114 SWAP2 SWAP1 PUSH2 0xD32 JUMP JUMPDEST PUSH1 0x40 MLOAD DUP1 SWAP2 SUB SWAP1 RETURN JUMPDEST CALLVALUE DUP1 ISZERO PUSH2 0x128 JUMPI PUSH0 DUP1 REVERT JUMPDEST POP PUSH2 0x143 PUSH1 0x4 DUP1 CALLDATASIZE SUB DUP2 ADD SWAP1 PUSH2 0x13E SWAP2 SWAP1 PUSH2 0xCAC JUMP JUMPDEST PUSH2 0x530 JUMP JUMPDEST PUSH1 0x40 MLOAD PUSH2 0x153 SWAP5 SWAP4 SWAP3 SWAP2 SWAP1 PUSH2 0xD5A JUMP JUMPDEST PUSH1 0x40 MLOAD DUP1 SWAP2 SUB SWAP1 RETURN JUMPDEST CALLVALUE DUP1 ISZERO PUSH2 0x167 JUMPI PUSH0 DUP1 REVERT JUMPDEST POP PUSH2 0x170 PUSH2 0x592 JUMP JUMPDEST STOP JUMPDEST CALLVALUE DUP1 ISZERO PUSH2 0x17D JUMPI PUSH0 DUP1 REVERT JUMPDEST POP PUSH2 0x186 PUSH2 0x68D JUMP JUMPDEST PUSH1 0x40 MLOAD PUSH2 0x193 SWAP2 SWAP1 PUSH2 0xD9D JUMP JUMPDEST PUSH1 0x40 MLOAD DUP1 SWAP2 SUB SWAP1 RETURN JUMPDEST CALLVALUE DUP1 ISZERO PUSH2 0x1A7 JUMPI PUSH0 DUP1 REVERT JUMPDEST POP PUSH2 0x1B0 PUSH2 0x692 JUMP JUMPDEST PUSH1 0x40 MLOAD PUSH2 0x1BD SWAP2 SWAP1 PUSH2 0xD9D JUMP JUMPDEST PUSH1 0x40 MLOAD DUP1 SWAP2 SUB SWAP1 RETURN JUMPDEST CALLVALUE DUP1 ISZERO PUSH2 0x1D1 JUMPI PUSH0 DUP1 REVERT JUMPDEST POP PUSH2 0x1DA PUSH2 0x698 JUMP JUMPDEST PUSH1 0x40 MLOAD PUSH2 0x1E7 SWAP2 SWAP1 PUSH2 0xD9D JUMP JUMPDEST PUSH1 0x40 MLOAD DUP1 SWAP2 SUB SWAP1 RETURN JUMPDEST CALLVALUE DUP1 ISZERO PUSH2 0x1FB JUMPI PUSH0 DUP1 REVERT JUMPDEST POP PUSH2 0x204 PUSH2 0x69E JUMP JUMPDEST PUSH1 0x40 MLOAD PUSH2 0x211 SWAP2 SWAP1 PUSH2 0xD9D JUMP JUMPDEST PUSH1 0x40 MLOAD DUP1 SWAP2 SUB SWAP1 RETURN JUMPDEST CALLVALUE DUP1 ISZERO PUSH2 0x225 JUMPI PUSH0 DUP1 REVERT JUMPDEST POP PUSH2 0x22E PUSH2 0x6A3 JUMP JUMPDEST PUSH1 0x40 MLOAD PUSH2 0x23B SWAP2 SWAP1 PUSH2 0xD32 JUMP JUMPDEST PUSH1 0x40 MLOAD DUP1 SWAP2 SUB SWAP1 RETURN JUMPDEST PUSH2 0x25E PUSH1 0x4 DUP1 CALLDATASIZE SUB DUP2 ADD SWAP1 PUSH2 0x259 SWAP2 SWAP1 PUSH2 0xC52 JUMP JUMPDEST PUSH2 0x6C8 JUMP JUMPDEST STOP JUMPDEST CALLVALUE DUP1 ISZERO PUSH2 0x26B JUMPI PUSH0 DUP1 REVERT JUMPDEST POP PUSH2 0x274 PUSH2 0x97B JUMP JUMPDEST PUSH1 0x40 MLOAD PUSH2 0x281 SWAP2 SWAP1 PUSH2 0xD32 JUMP JUMPDEST PUSH1 0x40 MLOAD DUP1 SWAP2 SUB SWAP1 RETURN JUMPDEST CALLVALUE DUP1 ISZERO PUSH2 0x295 JUMPI PUSH0 DUP1 REVERT JUMPDEST POP PUSH2 0x2B0 PUSH1 0x4 DUP1 CALLDATASIZE SUB DUP2 ADD SWAP1 PUSH2 0x2AB SWAP2 SWAP1 PUSH2 0xDB6 JUMP JUMPDEST PUSH2 0x9A0 JUMP JUMPDEST STOP JUMPDEST CALLVALUE DUP1 ISZERO PUSH2 0x2BD JUMPI PUSH0 DUP1 REVERT JUMPDEST POP PUSH2 0x2D8 PUSH1 0x4 DUP1 CALLDATASIZE SUB DUP2 ADD SWAP1 PUSH2 0x2D3 SWAP2 SWAP1 PUSH2 0xDB6 JUMP JUMPDEST PUSH2 0xA39 JUMP JUMPDEST STOP JUMPDEST CALLER PUSH20 0xFFFFFFFFFFFFFFFFFFFFFFFFFFFFFFFFFFFFFFFF AND PUSH0 DUP4 PUSH1 0x40 MLOAD PUSH2 0x300 SWAP2 SWAP1 PUSH2 0xE4D JUMP JUMPDEST SWAP1 DUP2 MSTORE PUSH1 0x20 ADD PUSH1 0x40 MLOAD DUP1 SWAP2 SUB SWAP1 KECCAK256 PUSH0 ADD PUSH0 SWAP1 SLOAD SWAP1 PUSH2 0x100 EXP SWAP1 DIV PUSH20 0xFFFFFFFFFFFFFFFFFFFFFFFFFFFFFFFFFFFFFFFF AND PUSH20 0xFFFFFFFFFFFFFFFFFFFFFFFFFFFFFFFFFFFFFFFF AND EQ PUSH2 0x386 JUMPI PUSH1 0x40 MLOAD PUSH32 0x8C379A000000000000000000000000000000000000000000000000000000000 DUP2 MSTORE PUSH1 0x4 ADD PUSH2 0x37D SWAP1 PUSH2 0xEE3 JUMP JUMPDEST PUSH1 0x40 MLOAD DUP1 SWAP2 SUB SWAP1 REVERT JUMPDEST PUSH0 DUP2 PUSH1 0x3 SLOAD PUSH0 DUP6 PUSH1 0x40 MLOAD PUSH2 0x39A SWAP2 SWAP1 PUSH2 0xE4D JUMP JUMPDEST SWAP1 DUP2 MSTORE PUSH1 0x20 ADD PUSH1 0x40 MLOAD DUP1 SWAP2 SUB SWAP1 KECCAK256 PUSH1 0x1 ADD SLOAD PUSH2 0x3B6 SWAP2 SWAP1 PUSH2 0xF2E JUMP JUMPDEST PUSH2 0x3C0 SWAP2 SWAP1 PUSH2 0xF2E JUMP JUMPDEST SWAP1 POP DUP1 CALLVALUE LT ISZERO PUSH2 0x405 JUMPI PUSH1 0x40 MLOAD PUSH32 0x8C379A000000000000000000000000000000000000000000000000000000000 DUP2 MSTORE PUSH1 0x4 ADD PUSH2 0x3FC SWAP1 PUSH2 0xFB9 JUMP JUMPDEST PUSH1 0x40 MLOAD DUP1 SWAP2 SUB SWAP1 REVERT JUMPDEST DUP1 PUSH0 DUP5 PUSH1 0x40 MLOAD PUSH2 0x415 SWAP2 SWAP1 PUSH2 0xE4D JUMP JUMPDEST SWAP1 DUP2 MSTORE PUSH1 0x20 ADD PUSH1 0x40 MLOAD DUP1 SWAP2 SUB SWAP1 KECCAK256 PUSH1 0x1 ADD DUP2 SWAP1 SSTORE POP TIMESTAMP PUSH0 DUP5 PUSH1 0x40 MLOAD PUSH2 0x43A SWAP2 SWAP1 PUSH2 0xE4D JUMP JUMPDEST SWAP1 DUP2 MSTORE PUSH1 0x20 ADD PUSH1 0x40 MLOAD DUP1 SWAP2 SUB SWAP1 KECCAK256 PUSH1 0x2 ADD DUP2 SWAP1 SSTORE POP DUP2 PUSH0 DUP5 PUSH1 0x40 MLOAD PUSH2 0x45F SWAP2 SWAP1 PUSH2 0xE4D JUMP JUMPDEST SWAP1 DUP2 MSTORE PUSH1 0x20 ADD PUSH1 0x40 MLOAD DUP1 SWAP2 SUB SWAP1 KECCAK256 PUSH1 0x3 ADD PUSH0 DUP3 DUP3 SLOAD PUSH2 0x47E SWAP2 SWAP1 PUSH2 0xFD7 JUMP JUMPDEST SWAP3 POP POP DUP2 SWAP1 SSTORE POP PUSH32 0xB268F54076718B9CB441AA108681F7CA5E1AFC502EF4B8E8C094216EDE0280F0 DUP4 CALLER DUP4 TIMESTAMP PUSH0 DUP9 PUSH1 0x40 MLOAD PUSH2 0x4B9 SWAP2 SWAP1 PUSH2 0xE4D JUMP JUMPDEST SWAP1 DUP2 MSTORE PUSH1 0x20 ADD PUSH1 0x40 MLOAD DUP1 SWAP2 SUB SWAP1 KECCAK256 PUSH1 0x3 ADD SLOAD PUSH1 0x40 MLOAD PUSH2 0x4DC SWAP6 SWAP5 SWAP4 SWAP3 SWAP2 SWAP1 PUSH2 0x1042 JUMP JUMPDEST PUSH1 0x40 MLOAD DUP1 SWAP2 SUB SWAP1 LOG1 POP POP POP JUMP JUMPDEST PUSH0 DUP1 DUP3 PUSH1 0x40 MLOAD PUSH2 0x4F9 SWAP2 SWAP1 PUSH2 0xE4D JUMP JUMPDEST SWAP1 DUP2 MSTORE PUSH1 0x20 ADD PUSH1 0x40 MLOAD DUP1 SWAP2 SUB SWAP1 KECCAK256 PUSH0 ADD PUSH0 SWAP1 SLOAD SWAP1 PUSH2 0x100 EXP SWAP1 DIV PUSH20 0xFFFFFFFFFFFFFFFFFFFFFFFFFFFFFFFFFFFFFFFF AND SWAP1 POP SWAP2 SWAP1 POP JUMP JUMPDEST PUSH0 DUP2 DUP1 MLOAD PUSH1 0x20 DUP2 ADD DUP3 ADD DUP1 MLOAD DUP5 DUP3 MSTORE PUSH1 0x20 DUP4 ADD PUSH1 0x20 DUP6 ADD KECCAK256 DUP2 DUP4 MSTORE DUP1 SWAP6 POP POP POP POP POP POP PUSH0 SWAP2 POP SWAP1 POP DUP1 PUSH0 ADD PUSH0 SWAP1 SLOAD SWAP1 PUSH2 0x100 EXP SWAP1 DIV PUSH20 0xFFFFFFFFFFFFFFFFFFFFFFFFFFFFFFFFFFFFFFFF AND SWAP1 DUP1 PUSH1 0x1 ADD SLOAD SWAP1 DUP1 PUSH1 0x2 ADD SLOAD SWAP1 DUP1 PUSH1 0x3 ADD SLOAD SWAP1 POP DUP5 JUMP JUMPDEST PUSH1 0x4 PUSH0 SWAP1 SLOAD SWAP1 PUSH2 0x100 EXP SWAP1 DIV PUSH20 0xFFFFFFFFFFFFFFFFFFFFFFFFFFFFFFFFFFFFFFFF AND PUSH20 0xFFFFFFFFFFFFFFFFFFFFFFFFFFFFFFFFFFFFFFFF AND CALLER PUSH20 0xFFFFFFFFFFFFFFFFFFFFFFFFFFFFFFFFFFFFFFFF AND EQ PUSH2 0x621 JUMPI PUSH1 0x40 MLOAD PUSH32 0x8C379A000000000000000000000000000000000000000000000000000000000 DUP2 MSTORE PUSH1 0x4 ADD PUSH2 0x618 SWAP1 PUSH2 0x110A JUMP JUMPDEST PUSH1 0x40 MLOAD DUP1 SWAP2 SUB SWAP1 REVERT JUMPDEST PUSH0 SELFBALANCE SWAP1 POP PUSH1 0x4 PUSH0 SWAP1 SLOAD SWAP1 PUSH2 0x100 EXP SWAP1 DIV PUSH20 0xFFFFFFFFFFFFFFFFFFFFFFFFFFFFFFFFFFFFFFFF AND PUSH20 0xFFFFFFFFFFFFFFFFFFFFFFFFFFFFFFFFFFFFFFFF AND PUSH2 0x8FC DUP3 SWAP1 DUP2 ISZERO MUL SWAP1 PUSH1 0x40 MLOAD PUSH0 PUSH1 0x40 MLOAD DUP1 DUP4 SUB DUP2 DUP6 DUP9 DUP9 CALL SWAP4 POP POP POP POP ISZERO DUP1 ISZERO PUSH2 0x689 JUMPI RETURNDATASIZE PUSH0 DUP1 RETURNDATACOPY RETURNDATASIZE PUSH0 REVERT JUMPDEST POP POP JUMP JUMPDEST PUSH1 0x1 DUP2 JUMP JUMPDEST PUSH1 0x3 SLOAD DUP2 JUMP JUMPDEST PUSH1 0x2 SLOAD DUP2 JUMP JUMPDEST PUSH1 0xA DUP2 JUMP JUMPDEST PUSH1 0x4 PUSH0 SWAP1 SLOAD SWAP1 PUSH2 0x100 EXP SWAP1 DIV PUSH20 0xFFFFFFFFFFFFFFFFFFFFFFFFFFFFFFFFFFFFFFFF AND DUP2 JUMP JUMPDEST PUSH0 DUP2 PUSH1 0x2 SLOAD PUSH2 0x6D7 SWAP2 SWAP1 PUSH2 0xF2E JUMP JUMPDEST SWAP1 POP DUP1 CALLVALUE LT ISZERO PUSH2 0x71C JUMPI PUSH1 0x40 MLOAD PUSH32 0x8C379A000000000000000000000000000000000000000000000000000000000 DUP2 MSTORE PUSH1 0x4 ADD PUSH2 0x713 SWAP1 PUSH2 0xFB9 JUMP JUMPDEST PUSH1 0x40 MLOAD DUP1 SWAP2 SUB SWAP1 REVERT JUMPDEST PUSH1 0x1 DUP3 LT ISZERO DUP1 ISZERO PUSH2 0x72E JUMPI POP PUSH1 0xA DUP3 GT ISZERO JUMPDEST PUSH2 0x76D JUMPI PUSH1 0x40 MLOAD PUSH32 0x8C379A000000000000000000000000000000000000000000000000000000000 DUP2 MSTORE PUSH1 0x4 ADD PUSH2 0x764 SWAP1 PUSH2 0x1172 JUMP JUMPDEST PUSH1 0x40 MLOAD DUP1 SWAP2 SUB SWAP1 REVERT JUMPDEST PUSH0 PUSH20 0xFFFFFFFFFFFFFFFFFFFFFFFFFFFFFFFFFFFFFFFF AND PUSH0 DUP5 PUSH1 0x40 MLOAD PUSH2 0x793 SWAP2 SWAP1 PUSH2 0xE4D JUMP JUMPDEST SWAP1 DUP2 MSTORE PUSH1 0x20 ADD PUSH1 0x40 MLOAD DUP1 SWAP2 SUB SWAP1 KECCAK256 PUSH0 ADD PUSH0 SWAP1 SLOAD SWAP1 PUSH2 0x100 EXP SWAP1 DIV PUSH20 0xFFFFFFFFFFFFFFFFFFFFFFFFFFFFFFFFFFFFFFFF AND PUSH20 0xFFFFFFFFFFFFFFFFFFFFFFFFFFFFFFFFFFFFFFFF AND EQ DUP1 PUSH2 0x83F JUMPI POP PUSH4 0x1E13380 PUSH0 DUP5 PUSH1 0x40 MLOAD PUSH2 0x7F4 SWAP2 SWAP1 PUSH2 0xE4D JUMP JUMPDEST SWAP1 DUP2 MSTORE PUSH1 0x20 ADD PUSH1 0x40 MLOAD DUP1 SWAP2 SUB SWAP1 KECCAK256 PUSH1 0x3 ADD SLOAD PUSH2 0x810 SWAP2 SWAP1 PUSH2 0xF2E JUMP JUMPDEST PUSH0 DUP5 PUSH1 0x40 MLOAD PUSH2 0x81F SWAP2 SWAP1 PUSH2 0xE4D JUMP JUMPDEST SWAP1 DUP2 MSTORE PUSH1 0x20 ADD PUSH1 0x40 MLOAD DUP1 SWAP2 SUB SWAP1 KECCAK256 PUSH1 0x2 ADD SLOAD PUSH2 0x83B SWAP2 SWAP1 PUSH2 0xFD7 JUMP JUMPDEST TIMESTAMP LT ISZERO JUMPDEST PUSH2 0x87E JUMPI PUSH1 0x40 MLOAD PUSH32 0x8C379A000000000000000000000000000000000000000000000000000000000 DUP2 MSTORE PUSH1 0x4 ADD PUSH2 0x875 SWAP1 PUSH2 0x11DA JUMP JUMPDEST PUSH1 0x40 MLOAD DUP1 SWAP2 SUB SWAP1 REVERT JUMPDEST PUSH1 0x40 MLOAD DUP1 PUSH1 0x80 ADD PUSH1 0x40 MSTORE DUP1 CALLER PUSH20 0xFFFFFFFFFFFFFFFFFFFFFFFFFFFFFFFFFFFFFFFF AND DUP2 MSTORE PUSH1 0x20 ADD DUP3 DUP2 MSTORE PUSH1 0x20 ADD TIMESTAMP DUP2 MSTORE PUSH1 0x20 ADD DUP4 DUP2 MSTORE POP PUSH0 DUP5 PUSH1 0x40 MLOAD PUSH2 0x8C4 SWAP2 SWAP1 PUSH2 0xE4D JUMP JUMPDEST SWAP1 DUP2 MSTORE PUSH1 0x20 ADD PUSH1 0x40 MLOAD DUP1 SWAP2 SUB SWAP1 KECCAK256 PUSH0 DUP3 ADD MLOAD DUP2 PUSH0 ADD PUSH0 PUSH2 0x100 EXP DUP2 SLOAD DUP2 PUSH20 0xFFFFFFFFFFFFFFFFFFFFFFFFFFFFFFFFFFFFFFFF MUL NOT AND SWAP1 DUP4 PUSH20 0xFFFFFFFFFFFFFFFFFFFFFFFFFFFFFFFFFFFFFFFF AND MUL OR SWAP1 SSTORE POP PUSH1 0x20 DUP3 ADD MLOAD DUP2 PUSH1 0x1 ADD SSTORE PUSH1 0x40 DUP3 ADD MLOAD DUP2 PUSH1 0x2 ADD SSTORE PUSH1 0x60 DUP3 ADD MLOAD DUP2 PUSH1 0x3 ADD SSTORE SWAP1 POP POP PUSH32 0xB268F54076718B9CB441AA108681F7CA5E1AFC502EF4B8E8C094216EDE0280F0 DUP4 CALLER DUP4 TIMESTAMP DUP7 PUSH1 0x40 MLOAD PUSH2 0x96E SWAP6 SWAP5 SWAP4 SWAP3 SWAP2 SWAP1 PUSH2 0x1042 JUMP JUMPDEST PUSH1 0x40 MLOAD DUP1 SWAP2 SUB SWAP1 LOG1 POP POP POP JUMP JUMPDEST PUSH1 0x1 PUSH0 SWAP1 SLOAD SWAP1 PUSH2 0x100 EXP SWAP1 DIV PUSH20 0xFFFFFFFFFFFFFFFFFFFFFFFFFFFFFFFFFFFFFFFF AND DUP2 JUMP JUMPDEST PUSH1 0x4 PUSH0 SWAP1 SLOAD SWAP1 PUSH2 0x100 EXP SWAP1 DIV PUSH20 0xFFFFFFFFFFFFFFFFFFFFFFFFFFFFFFFFFFFFFFFF AND PUSH20 0xFFFFFFFFFFFFFFFFFFFFFFFFFFFFFFFFFFFFFFFF AND CALLER PUSH20 0xFFFFFFFFFFFFFFFFFFFFFFFFFFFFFFFFFFFFFFFF AND EQ PUSH2 0xA2F JUMPI PUSH1 0x40 MLOAD PUSH32 0x8C379A000000000000000000000000000000000000000000000000000000000 DUP2 MSTORE PUSH1 0x4 ADD PUSH2 0xA26 SWAP1 PUSH2 0x110A JUMP JUMPDEST PUSH1 0x40 MLOAD DUP1 SWAP2 SUB SWAP1 REVERT JUMPDEST DUP1 PUSH1 0x3 DUP2 SWAP1 SSTORE POP POP JUMP JUMPDEST PUSH1 0x4 PUSH0 SWAP1 SLOAD SWAP1 PUSH2 0x100 EXP SWAP1 DIV PUSH20 0xFFFFFFFFFFFFFFFFFFFFFFFFFFFFFFFFFFFFFFFF AND PUSH20 0xFFFFFFFFFFFFFFFFFFFFFFFFFFFFFFFFFFFFFFFF AND CALLER PUSH20 0xFFFFFFFFFFFFFFFFFFFFFFFFFFFFFFFFFFFFFFFF AND EQ PUSH2 0xAC8 JUMPI PUSH1 0x40 MLOAD PUSH32 0x8C379A000000000000000000000000000000000000000000000000000000000 DUP2 MSTORE PUSH1 0x4 ADD PUSH2 0xABF SWAP1 PUSH2 0x110A JUMP JUMPDEST PUSH1 0x40 MLOAD DUP1 SWAP2 SUB SWAP1 REVERT JUMPDEST DUP1 PUSH1 0x2 DUP2 SWAP1 SSTORE POP POP JUMP JUMPDEST PUSH0 PUSH1 0x40 MLOAD SWAP1 POP SWAP1 JUMP JUMPDEST PUSH0 DUP1 REVERT JUMPDEST PUSH0 DUP1 REVERT JUMPDEST PUSH0 DUP1 REVERT JUMPDEST PUSH0 DUP1 REVERT JUMPDEST PUSH0 PUSH1 0x1F NOT PUSH1 0x1F DUP4 ADD AND SWAP1 POP SWAP2 SWAP1 POP JUMP JUMPDEST PUSH32 0x4E487B7100000000000000000000000000000000000000000000000000000000 PUSH0 MSTORE PUSH1 0x41 PUSH1 0x4 MSTORE PUSH1 0x24 PUSH0 REVERT JUMPDEST PUSH2 0xB31 DUP3 PUSH2 0xAEB JUMP JUMPDEST DUP2 ADD DUP2 DUP2 LT PUSH8 0xFFFFFFFFFFFFFFFF DUP3 GT OR ISZERO PUSH2 0xB50 JUMPI PUSH2 0xB4F PUSH2 0xAFB JUMP JUMPDEST JUMPDEST DUP1 PUSH1 0x40 MSTORE POP POP POP JUMP JUMPDEST PUSH0 PUSH2 0xB62 PUSH2 0xAD2 JUMP JUMPDEST SWAP1 POP PUSH2 0xB6E DUP3 DUP3 PUSH2 0xB28 JUMP JUMPDEST SWAP2 SWAP1 POP JUMP JUMPDEST PUSH0 PUSH8 0xFFFFFFFFFFFFFFFF DUP3 GT ISZERO PUSH2 0xB8D JUMPI PUSH2 0xB8C PUSH2 0xAFB JUMP JUMPDEST JUMPDEST PUSH2 0xB96 DUP3 PUSH2 0xAEB JUMP JUMPDEST SWAP1 POP PUSH1 0x20 DUP2 ADD SWAP1 POP SWAP2 SWAP1 POP JUMP JUMPDEST DUP3 DUP2 DUP4 CALLDATACOPY PUSH0 DUP4 DUP4 ADD MSTORE POP POP POP JUMP JUMPDEST PUSH0 PUSH2 0xBC3 PUSH2 0xBBE DUP5 PUSH2 0xB73 JUMP JUMPDEST PUSH2 0xB59 JUMP JUMPDEST SWAP1 POP DUP3 DUP2 MSTORE PUSH1 0x20 DUP2 ADD DUP5 DUP5 DUP5 ADD GT ISZERO PUSH2 0xBDF JUMPI PUSH2 0xBDE PUSH2 0xAE7 JUMP JUMPDEST JUMPDEST PUSH2 0xBEA DUP5 DUP3 DUP6 PUSH2 0xBA3 JUMP JUMPDEST POP SWAP4 SWAP3 POP POP POP JUMP JUMPDEST PUSH0 DUP3 PUSH1 0x1F DUP4 ADD SLT PUSH2 0xC06 JUMPI PUSH2 0xC05 PUSH2 0xAE3 JUMP JUMPDEST JUMPDEST DUP2 CALLDATALOAD PUSH2 0xC16 DUP5 DUP3 PUSH1 0x20 DUP7 ADD PUSH2 0xBB1 JUMP JUMPDEST SWAP2 POP POP SWAP3 SWAP2 POP POP JUMP JUMPDEST PUSH0 DUP2 SWAP1 POP SWAP2 SWAP1 POP JUMP JUMPDEST PUSH2 0xC31 DUP2 PUSH2 0xC1F JUMP JUMPDEST DUP2 EQ PUSH2 0xC3B JUMPI PUSH0 DUP1 REVERT JUMPDEST POP JUMP JUMPDEST PUSH0 DUP2 CALLDATALOAD SWAP1 POP PUSH2 0xC4C DUP2 PUSH2 0xC28 JUMP JUMPDEST SWAP3 SWAP2 POP POP JUMP JUMPDEST PUSH0 DUP1 PUSH1 0x40 DUP4 DUP6 SUB SLT ISZERO PUSH2 0xC68 JUMPI PUSH2 0xC67 PUSH2 0xADB JUMP JUMPDEST JUMPDEST PUSH0 DUP4 ADD CALLDATALOAD PUSH8 0xFFFFFFFFFFFFFFFF DUP2 GT ISZERO PUSH2 0xC85 JUMPI PUSH2 0xC84 PUSH2 0xADF JUMP JUMPDEST JUMPDEST PUSH2 0xC91 DUP6 DUP3 DUP7 ADD PUSH2 0xBF2 JUMP JUMPDEST SWAP3 POP POP PUSH1 0x20 PUSH2 0xCA2 DUP6 DUP3 DUP7 ADD PUSH2 0xC3E JUMP JUMPDEST SWAP2 POP POP SWAP3 POP SWAP3 SWAP1 POP JUMP JUMPDEST PUSH0 PUSH1 0x20 DUP3 DUP5 SUB SLT ISZERO PUSH2 0xCC1 JUMPI PUSH2 0xCC0 PUSH2 0xADB JUMP JUMPDEST JUMPDEST PUSH0 DUP3 ADD CALLDATALOAD PUSH8 0xFFFFFFFFFFFFFFFF DUP2 GT ISZERO PUSH2 0xCDE JUMPI PUSH2 0xCDD PUSH2 0xADF JUMP JUMPDEST JUMPDEST PUSH2 0xCEA DUP5 DUP3 DUP6 ADD PUSH2 0xBF2 JUMP JUMPDEST SWAP2 POP POP SWAP3 SWAP2 POP POP JUMP JUMPDEST PUSH0 PUSH20 0xFFFFFFFFFFFFFFFFFFFFFFFFFFFFFFFFFFFFFFFF DUP3 AND SWAP1 POP SWAP2 SWAP1 POP JUMP JUMPDEST PUSH0 PUSH2 0xD1C DUP3 PUSH2 0xCF3 JUMP JUMPDEST SWAP1 POP SWAP2 SWAP1 POP JUMP JUMPDEST PUSH2 0xD2C DUP2 PUSH2 0xD12 JUMP JUMPDEST DUP3 MSTORE POP POP JUMP JUMPDEST PUSH0 PUSH1 0x20 DUP3 ADD SWAP1 POP PUSH2 0xD45 PUSH0 DUP4 ADD DUP5 PUSH2 0xD23 JUMP JUMPDEST SWAP3 SWAP2 POP POP JUMP JUMPDEST PUSH2 0xD54 DUP2 PUSH2 0xC1F JUMP JUMPDEST DUP3 MSTORE POP POP JUMP JUMPDEST PUSH0 PUSH1 0x80 DUP3 ADD SWAP1 POP PUSH2 0xD6D PUSH0 DUP4 ADD DUP8 PUSH2 0xD23 JUMP JUMPDEST PUSH2 0xD7A PUSH1 0x20 DUP4 ADD DUP7 PUSH2 0xD4B JUMP JUMPDEST PUSH2 0xD87 PUSH1 0x40 DUP4 ADD DUP6 PUSH2 0xD4B JUMP JUMPDEST PUSH2 0xD94 PUSH1 0x60 DUP4 ADD DUP5 PUSH2 0xD4B JUMP JUMPDEST SWAP6 SWAP5 POP POP POP POP POP JUMP JUMPDEST PUSH0 PUSH1 0x20 DUP3 ADD SWAP1 POP PUSH2 0xDB0 PUSH0 DUP4 ADD DUP5 PUSH2 0xD4B JUMP JUMPDEST SWAP3 SWAP2 POP POP JUMP JUMPDEST PUSH0 PUSH1 0x20 DUP3 DUP5 SUB SLT ISZERO PUSH2 0xDCB JUMPI PUSH2 0xDCA PUSH2 0xADB JUMP JUMPDEST JUMPDEST PUSH0 PUSH2 0xDD8 DUP5 DUP3 DUP6 ADD PUSH2 0xC3E JUMP JUMPDEST SWAP2 POP POP SWAP3 SWAP2 POP POP JUMP JUMPDEST PUSH0 DUP2 MLOAD SWAP1 POP SWAP2 SWAP1 POP JUMP JUMPDEST PUSH0 DUP2 SWAP1 POP SWAP3 SWAP2 POP POP JUMP JUMPDEST PUSH0 JUMPDEST DUP4 DUP2 LT ISZERO PUSH2 0xE12 JUMPI DUP1 DUP3 ADD MLOAD DUP2 DUP5 ADD MSTORE PUSH1 0x20 DUP2 ADD SWAP1 POP PUSH2 0xDF7 JUMP JUMPDEST PUSH0 DUP5 DUP5 ADD MSTORE POP POP POP POP JUMP JUMPDEST PUSH0 PUSH2 0xE27 DUP3 PUSH2 0xDE1 JUMP JUMPDEST PUSH2 0xE31 DUP2 DUP6 PUSH2 0xDEB JUMP JUMPDEST SWAP4 POP PUSH2 0xE41 DUP2 DUP6 PUSH1 0x20 DUP7 ADD PUSH2 0xDF5 JUMP JUMPDEST DUP1 DUP5 ADD SWAP2 POP POP SWAP3 SWAP2 POP POP JUMP JUMPDEST PUSH0 PUSH2 0xE58 DUP3 DUP5 PUSH2 0xE1D JUMP JUMPDEST SWAP2 POP DUP2 SWAP1 POP SWAP3 SWAP2 POP POP JUMP JUMPDEST PUSH0 DUP3 DUP3 MSTORE PUSH1 0x20 DUP3 ADD SWAP1 POP SWAP3 SWAP2 POP POP JUMP JUMPDEST PUSH32 0x596F7520617265206E6F7420746865206F776E6572206F66207468697320646F PUSH0 DUP3 ADD MSTORE PUSH32 0x6D61696E00000000000000000000000000000000000000000000000000000000 PUSH1 0x20 DUP3 ADD MSTORE POP JUMP JUMPDEST PUSH0 PUSH2 0xECD PUSH1 0x24 DUP4 PUSH2 0xE63 JUMP JUMPDEST SWAP2 POP PUSH2 0xED8 DUP3 PUSH2 0xE73 JUMP JUMPDEST PUSH1 0x40 DUP3 ADD SWAP1 POP SWAP2 SWAP1 POP JUMP JUMPDEST PUSH0 PUSH1 0x20 DUP3 ADD SWAP1 POP DUP2 DUP2 SUB PUSH0 DUP4 ADD MSTORE PUSH2 0xEFA DUP2 PUSH2 0xEC1 JUMP JUMPDEST SWAP1 POP SWAP2 SWAP1 POP JUMP JUMPDEST PUSH32 0x4E487B7100000000000000000000000000000000000000000000000000000000 PUSH0 MSTORE PUSH1 0x11 PUSH1 0x4 MSTORE PUSH1 0x24 PUSH0 REVERT JUMPDEST PUSH0 PUSH2 0xF38 DUP3 PUSH2 0xC1F JUMP JUMPDEST SWAP2 POP PUSH2 0xF43 DUP4 PUSH2 0xC1F JUMP JUMPDEST SWAP3 POP DUP3 DUP3 MUL PUSH2 0xF51 DUP2 PUSH2 0xC1F JUMP JUMPDEST SWAP2 POP DUP3 DUP3 DIV DUP5 EQ DUP4 ISZERO OR PUSH2 0xF68 JUMPI PUSH2 0xF67 PUSH2 0xF01 JUMP JUMPDEST JUMPDEST POP SWAP3 SWAP2 POP POP JUMP JUMPDEST PUSH32 0x496E73756666696369656E742066756E64730000000000000000000000000000 PUSH0 DUP3 ADD MSTORE POP JUMP JUMPDEST PUSH0 PUSH2 0xFA3 PUSH1 0x12 DUP4 PUSH2 0xE63 JUMP JUMPDEST SWAP2 POP PUSH2 0xFAE DUP3 PUSH2 0xF6F JUMP JUMPDEST PUSH1 0x20 DUP3 ADD SWAP1 POP SWAP2 SWAP1 POP JUMP JUMPDEST PUSH0 PUSH1 0x20 DUP3 ADD SWAP1 POP DUP2 DUP2 SUB PUSH0 DUP4 ADD MSTORE PUSH2 0xFD0 DUP2 PUSH2 0xF97 JUMP JUMPDEST SWAP1 POP SWAP2 SWAP1 POP JUMP JUMPDEST PUSH0 PUSH2 0xFE1 DUP3 PUSH2 0xC1F JUMP JUMPDEST SWAP2 POP PUSH2 0xFEC DUP4 PUSH2 0xC1F JUMP JUMPDEST SWAP3 POP DUP3 DUP3 ADD SWAP1 POP DUP1 DUP3 GT ISZERO PUSH2 0x1004 JUMPI PUSH2 0x1003 PUSH2 0xF01 JUMP JUMPDEST JUMPDEST SWAP3 SWAP2 POP POP JUMP JUMPDEST PUSH0 PUSH2 0x1014 DUP3 PUSH2 0xDE1 JUMP JUMPDEST PUSH2 0x101E DUP2 DUP6 PUSH2 0xE63 JUMP JUMPDEST SWAP4 POP PUSH2 0x102E DUP2 DUP6 PUSH1 0x20 DUP7 ADD PUSH2 0xDF5 JUMP JUMPDEST PUSH2 0x1037 DUP2 PUSH2 0xAEB JUMP JUMPDEST DUP5 ADD SWAP2 POP POP SWAP3 SWAP2 POP POP JUMP JUMPDEST PUSH0 PUSH1 0xA0 DUP3 ADD SWAP1 POP DUP2 DUP2 SUB PUSH0 DUP4 ADD MSTORE PUSH2 0x105A DUP2 DUP9 PUSH2 0x100A JUMP JUMPDEST SWAP1 POP PUSH2 0x1069 PUSH1 0x20 DUP4 ADD DUP8 PUSH2 0xD23 JUMP JUMPDEST PUSH2 0x1076 PUSH1 0x40 DUP4 ADD DUP7 PUSH2 0xD4B JUMP JUMPDEST PUSH2 0x1083 PUSH1 0x60 DUP4 ADD DUP6 PUSH2 0xD4B JUMP JUMPDEST PUSH2 0x1090 PUSH1 0x80 DUP4 ADD DUP5 PUSH2 0xD4B JUMP JUMPDEST SWAP7 SWAP6 POP POP POP POP POP POP JUMP JUMPDEST PUSH32 0x4F6E6C7920636F6E7472616374206F776E65722063616E2063616C6C20746869 PUSH0 DUP3 ADD MSTORE PUSH32 0x732066756E6374696F6E00000000000000000000000000000000000000000000 PUSH1 0x20 DUP3 ADD MSTORE POP JUMP JUMPDEST PUSH0 PUSH2 0x10F4 PUSH1 0x2A DUP4 PUSH2 0xE63 JUMP JUMPDEST SWAP2 POP PUSH2 0x10FF DUP3 PUSH2 0x109A JUMP JUMPDEST PUSH1 0x40 DUP3 ADD SWAP1 POP SWAP2 SWAP1 POP JUMP JUMPDEST PUSH0 PUSH1 0x20 DUP3 ADD SWAP1 POP DUP2 DUP2 SUB PUSH0 DUP4 ADD MSTORE PUSH2 0x1121 DUP2 PUSH2 0x10E8 JUMP JUMPDEST SWAP1 POP SWAP2 SWAP1 POP JUMP JUMPDEST PUSH32 0x496E76616C696420726567697374726174696F6E207965617273000000000000 PUSH0 DUP3 ADD MSTORE POP JUMP JUMPDEST PUSH0 PUSH2 0x115C PUSH1 0x1A DUP4 PUSH2 0xE63 JUMP JUMPDEST SWAP2 POP PUSH2 0x1167 DUP3 PUSH2 0x1128 JUMP JUMPDEST PUSH1 0x20 DUP3 ADD SWAP1 POP SWAP2 SWAP1 POP JUMP JUMPDEST PUSH0 PUSH1 0x20 DUP3 ADD SWAP1 POP DUP2 DUP2 SUB PUSH0 DUP4 ADD MSTORE PUSH2 0x1189 DUP2 PUSH2 0x1150 JUMP JUMPDEST SWAP1 POP SWAP2 SWAP1 POP JUMP JUMPDEST PUSH32 0x446F6D61696E20616C7265616479207265676973746572656400000000000000 PUSH0 DUP3 ADD MSTORE POP JUMP JUMPDEST PUSH0 PUSH2 0x11C4 PUSH1 0x19 DUP4 PUSH2 0xE63 JUMP JUMPDEST SWAP2 POP PUSH2 0x11CF DUP3 PUSH2 0x1190 JUMP JUMPDEST PUSH1 0x20 DUP3 ADD SWAP1 POP SWAP2 SWAP1 POP JUMP JUMPDEST PUSH0 PUSH1 0x20 DUP3 ADD SWAP1 POP DUP2 DUP2 SUB PUSH0 DUP4 ADD MSTORE PUSH2 0x11F1 DUP2 PUSH2 0x11B8 JUMP JUMPDEST SWAP1 POP SWAP2 SWAP1 POP JUMP INVALID LOG2 PUSH5 0x6970667358 0x22 SLT KECCAK256 LOG4 SWAP13 0xF 0x5D 0xCF DELEGATECALL 0xBB 0x5D SWAP1 SGT 0x49 0xD5 LT PUSH6 0xD5EE1EA7978A 0xF7 PUSH22 0xA191B729C7756D68838264736F6C6343000816003300 "
				},
				"gasEstimates": {
					"creation": {
						"codeDepositCost": "930800",
						"executionCost": "infinite",
						"totalCost": "infinite"
					},
					"external": {
						"MAX_REGISTRATION_YEARS()": "370",
						"MIN_REGISTRATION_YEARS()": "414",
						"domains(string)": "infinite",
						"ensAddress()": "2552",
						"getDomainOwner(string)": "infinite",
						"owner()": "2575",
						"registerDomain(string,uint256)": "infinite",
						"registrationPricePerYear()": "2448",
						"renewDomain(string,uint256)": "infinite",
						"renewalCoefficient()": "2536",
						"setRegistrationPricePerYear(uint256)": "24772",
						"setRenewalCoefficient(uint256)": "24750",
						"withdraw()": "infinite"
					}
				},
				"methodIdentifiers": {
					"MAX_REGISTRATION_YEARS()": "85e486c8",
					"MIN_REGISTRATION_YEARS()": "3f414c19",
					"domains(string)": "26449235",
					"ensAddress()": "a6b694f2",
					"getDomainOwner(string)": "25970115",
					"owner()": "8da5cb5b",
					"registerDomain(string,uint256)": "9094c266",
					"registrationPricePerYear()": "65a4dd91",
					"renewDomain(string,uint256)": "1a83fd8f",
					"renewalCoefficient()": "64e0d87b",
					"setRegistrationPricePerYear(uint256)": "ee5d8210",
					"setRenewalCoefficient(uint256)": "d6b495bd",
					"withdraw()": "3ccfd60b"
				}
			},
			"storageLayout": {
				"storage": [
					{
						"astId": 15,
						"contract": "Solidity/my-hardhat-project/contracts/ENSRegistrar.sol:ENSRegistrar",
						"label": "domains",
						"offset": 0,
						"slot": "0",
						"type": "t_mapping(t_string_memory_ptr,t_struct(DomainInfo)10_storage)"
					},
					{
						"astId": 17,
						"contract": "Solidity/my-hardhat-project/contracts/ENSRegistrar.sol:ENSRegistrar",
						"label": "ensAddress",
						"offset": 0,
						"slot": "1",
						"type": "t_address"
					},
					{
						"astId": 19,
						"contract": "Solidity/my-hardhat-project/contracts/ENSRegistrar.sol:ENSRegistrar",
						"label": "registrationPricePerYear",
						"offset": 0,
						"slot": "2",
						"type": "t_uint256"
					},
					{
						"astId": 21,
						"contract": "Solidity/my-hardhat-project/contracts/ENSRegistrar.sol:ENSRegistrar",
						"label": "renewalCoefficient",
						"offset": 0,
						"slot": "3",
						"type": "t_uint256"
					},
					{
						"astId": 29,
						"contract": "Solidity/my-hardhat-project/contracts/ENSRegistrar.sol:ENSRegistrar",
						"label": "owner",
						"offset": 0,
						"slot": "4",
						"type": "t_address"
					}
				],
				"types": {
					"t_address": {
						"encoding": "inplace",
						"label": "address",
						"numberOfBytes": "20"
					},
					"t_mapping(t_string_memory_ptr,t_struct(DomainInfo)10_storage)": {
						"encoding": "mapping",
						"key": "t_string_memory_ptr",
						"label": "mapping(string => struct ENSRegistrar.DomainInfo)",
						"numberOfBytes": "32",
						"value": "t_struct(DomainInfo)10_storage"
					},
					"t_string_memory_ptr": {
						"encoding": "bytes",
						"label": "string",
						"numberOfBytes": "32"
					},
					"t_struct(DomainInfo)10_storage": {
						"encoding": "inplace",
						"label": "struct ENSRegistrar.DomainInfo",
						"members": [
							{
								"astId": 3,
								"contract": "Solidity/my-hardhat-project/contracts/ENSRegistrar.sol:ENSRegistrar",
								"label": "owner",
								"offset": 0,
								"slot": "0",
								"type": "t_address"
							},
							{
								"astId": 5,
								"contract": "Solidity/my-hardhat-project/contracts/ENSRegistrar.sol:ENSRegistrar",
								"label": "priceReg",
								"offset": 0,
								"slot": "1",
								"type": "t_uint256"
							},
							{
								"astId": 7,
								"contract": "Solidity/my-hardhat-project/contracts/ENSRegistrar.sol:ENSRegistrar",
								"label": "timestamp",
								"offset": 0,
								"slot": "2",
								"type": "t_uint256"
							},
							{
								"astId": 9,
								"contract": "Solidity/my-hardhat-project/contracts/ENSRegistrar.sol:ENSRegistrar",
								"label": "registrationYears",
								"offset": 0,
								"slot": "3",
								"type": "t_uint256"
							}
						],
						"numberOfBytes": "128"
					},
					"t_uint256": {
						"encoding": "inplace",
						"label": "uint256",
						"numberOfBytes": "32"
					}
				}
			},
			"userdoc": {
				"kind": "user",
				"methods": {},
				"version": 1
			}
		}
	}
}