{
  "_format": "hh-sol-artifact-1",
  "contractName": "DataConsumer",
  "sourceName": "contracts/PracticeMiddle/DataConsumer.sol",
  "abi": [
    {
      "inputs": [
        {
          "internalType": "address",
          "name": "dataProviderAddress",
          "type": "address"
        }
      ],
      "name": "fetchData",
      "outputs": [
        {
          "internalType": "uint256",
          "name": "",
          "type": "uint256"
        }
      ],
      "stateMutability": "view",
      "type": "function"
    },
    {
      "inputs": [
        {
          "internalType": "address",
          "name": "dataProviderAddress",
          "type": "address"
        },
        {
          "internalType": "uint256",
          "name": "_newData",
          "type": "uint256"
        }
      ],
      "name": "setData",
      "outputs": [],
      "stateMutability": "nonpayable",
      "type": "function"
    }
  ],
  "bytecode": "0x608060405234801561001057600080fd5b50610415806100206000396000f3fe608060405234801561001057600080fd5b50600436106100365760003560e01c8063813087211461003b578063c4bfd57d14610050575b600080fd5b61004e61004936600461034b565b610075565b005b61006361005e366004610375565b6101d9565b60405190815260200160405180910390f35b60008273ffffffffffffffffffffffffffffffffffffffff16826040516024016100a191815260200190565b604080517fffffffffffffffffffffffffffffffffffffffffffffffffffffffffffffffe08184030181529181526020820180517bffffffffffffffffffffffffffffffffffffffffffffffffffffffff167f5b4b73a900000000000000000000000000000000000000000000000000000000179052516101229190610397565b6000604051808303816000865af19150503d806000811461015f576040519150601f19603f3d011682016040523d82523d6000602084013e610164565b606091505b50509050806101d4576040517f08c379a000000000000000000000000000000000000000000000000000000000815260206004820152600b60248201527f43616c6c206661696c656400000000000000000000000000000000000000000060448201526064015b60405180910390fd5b505050565b60408051600481526024810182526020810180517bffffffffffffffffffffffffffffffffffffffffffffffffffffffff167f3bc5de300000000000000000000000000000000000000000000000000000000017905290516000918291829173ffffffffffffffffffffffffffffffffffffffff86169161025a9190610397565b600060405180830381855afa9150503d8060008114610295576040519150601f19603f3d011682016040523d82523d6000602084013e61029a565b606091505b509150915081610306576040517f08c379a000000000000000000000000000000000000000000000000000000000815260206004820152600b60248201527f43616c6c206661696c656400000000000000000000000000000000000000000060448201526064016101cb565b8080602001905181019061031a91906103c6565b949350505050565b803573ffffffffffffffffffffffffffffffffffffffff8116811461034657600080fd5b919050565b6000806040838503121561035e57600080fd5b61036783610322565b946020939093013593505050565b60006020828403121561038757600080fd5b61039082610322565b9392505050565b6000825160005b818110156103b8576020818601810151858301520161039e565b506000920191825250919050565b6000602082840312156103d857600080fd5b505191905056fea26469706673582212206c42347fcf6bdeeea7789036cb607ebebd2a82c941d4ae6acefb6a9161199a1e64736f6c63430008140033",
  "linkReferences": {},
  "deployedLinkReferences": {}
}