{
  "_format": "hh-sol-artifact-1",
  "contractName": "Multiplier",
  "sourceName": "contracts/PracticeJunior/Multiplier.sol",
  "abi": [
    {
      "inputs": [
        {
          "internalType": "uint256",
          "name": "a",
          "type": "uint256"
        },
        {
          "internalType": "uint256",
          "name": "b",
          "type": "uint256"
        }
      ],
      "name": "multiply",
      "outputs": [
        {
          "internalType": "uint256",
          "name": "",
          "type": "uint256"
        }
      ],
      "stateMutability": "pure",
      "type": "function"
    }
  ],
  "bytecode": "0x608060405234801561001057600080fd5b5060f58061001f6000396000f3fe6080604052348015600f57600080fd5b506004361060285760003560e01c8063165c4a1614602d575b600080fd5b603c60383660046061565b604e565b60405190815260200160405180910390f35b6000605882846082565b90505b92915050565b60008060408385031215607357600080fd5b50508035926020909101359150565b8082028115828204841417605b577f4e487b7100000000000000000000000000000000000000000000000000000000600052601160045260246000fdfea26469706673582212202039d7b4a0ed34dc547a27f6e17839045105acb4c6ab3c352fa3e4552076531c64736f6c63430008140033",
  "linkReferences": {},
  "deployedLinkReferences": {}
}