{
  "_format": "hh-sol-artifact-1",
  "contractName": "AddresDemo",
  "sourceName": "contracts/PracticeGuideDAO/AddressDemo.sol",
  "abi": [
    {
      "inputs": [],
      "name": "getBalance",
      "outputs": [
        {
          "internalType": "uint256",
          "name": "",
          "type": "uint256"
        }
      ],
      "stateMutability": "view",
      "type": "function"
    },
    {
      "inputs": [
        {
          "internalType": "address",
          "name": "_newAddress",
          "type": "address"
        }
      ],
      "name": "setAddress",
      "outputs": [],
      "stateMutability": "nonpayable",
      "type": "function"
    }
  ],
  "bytecode": "0x6080604052348015600e575f80fd5b506101208061001c5f395ff3fe6080604052348015600e575f80fd5b50600436106030575f3560e01c806312065fe0146034578063e30081a014605f575b5f80fd5b5f5473ffffffffffffffffffffffffffffffffffffffff163160405190815260200160405180910390f35b60b0606a36600460b2565b5f80547fffffffffffffffffffffffff00000000000000000000000000000000000000001673ffffffffffffffffffffffffffffffffffffffff92909216919091179055565b005b5f6020828403121560c1575f80fd5b813573ffffffffffffffffffffffffffffffffffffffff8116811460e3575f80fd5b939250505056fea26469706673582212206c161f33db4377e9d5367883cf770c6e129cad512edd5e670ffc61e6fda23efb64736f6c634300081a0033",
  "linkReferences": {},
  "deployedLinkReferences": {}
}