{
  "_format": "hh-sol-artifact-1",
  "contractName": "Facrtorial",
  "sourceName": "contracts/PracticeMiddle/Factorial.sol",
  "abi": [
    {
      "inputs": [
        {
          "internalType": "uint256",
          "name": "n",
          "type": "uint256"
        }
      ],
      "name": "factorial",
      "outputs": [
        {
          "internalType": "uint256",
          "name": "result",
          "type": "uint256"
        }
      ],
      "stateMutability": "pure",
      "type": "function"
    }
  ],
  "bytecode": "0x6080604052348015600e575f80fd5b5061010a8061001c5f395ff3fe6080604052348015600e575f80fd5b50600436106026575f3560e01c80638371483414602a575b5f80fd5b60396035366004607d565b604b565b60405190815260200160405180910390f35b5f815f03605a57506001919050565b506001805b82811015607757606e81836093565b9150600101605f565b50919050565b5f60208284031215608c575f80fd5b5035919050565b808202811582820484141760ce577f4e487b71000000000000000000000000000000000000000000000000000000005f52601160045260245ffd5b9291505056fea264697066735822122062cb89f5d68ac46ff71b94184cbc9c641ec0a8f9aa12bdfe961edf9bdbfd0e8a64736f6c634300081a0033",
  "linkReferences": {},
  "deployedLinkReferences": {}
}