{
  "_format": "hh-sol-artifact-1",
  "contractName": "ArrayCount",
  "sourceName": "contracts/PracticeJunior/ArrayCount.sol",
  "abi": [
    {
      "inputs": [
        {
          "internalType": "uint256",
          "name": "number",
          "type": "uint256"
        }
      ],
      "name": "addNumber",
      "outputs": [],
      "stateMutability": "nonpayable",
      "type": "function"
    },
    {
      "inputs": [],
      "name": "getCount",
      "outputs": [
        {
          "internalType": "uint256",
          "name": "",
          "type": "uint256"
        }
      ],
      "stateMutability": "view",
      "type": "function"
    },
    {
      "inputs": [
        {
          "internalType": "uint256",
          "name": "",
          "type": "uint256"
        }
      ],
      "name": "numbers",
      "outputs": [
        {
          "internalType": "uint256",
          "name": "",
          "type": "uint256"
        }
      ],
      "stateMutability": "view",
      "type": "function"
    }
  ],
  "bytecode": "0x608060405234801561001057600080fd5b50610113806100206000396000f3fe6080604052348015600f57600080fd5b5060043610603c5760003560e01c8063a87d942c146041578063d39fa233146057578063fce68023146066575b600080fd5b6000545b60405190815260200160405180910390f35b6045606236600460c5565b60a5565b60a3607136600460c5565b600080546001810182559080527f290decd9548b62a8d60345a988386fc84ba6bc95484008f6362f93160ef3e5630155565b005b6000818154811060b457600080fd5b600091825260209091200154905081565b60006020828403121560d657600080fd5b503591905056fea26469706673582212206935c0435cc58f7a2b680e9e0cc0a0c87751e644654a2806d501bb25a99390d164736f6c63430008140033",
  "linkReferences": {},
  "deployedLinkReferences": {}
}