{
	"data": {
		"bytecode": {
			"linkReferences": {},
			"object": "608060405234801561000f575f80fd5b50335f806101000a81548173ffffffffffffffffffffffffffffffffffffffff021916908373ffffffffffffffffffffffffffffffffffffffff16021790555042600181905550610505806100635f395ff3fe608060405234801561000f575f80fd5b5060043610610060575f3560e01c80638da5cb5b14610064578063934d1fa414610082578063a6f9dae1146100a0578063b80777ea146100bc578063be4e694e146100da578063c3cecf10146100f8575b5f80fd5b61006c610102565b60405161007991906102ec565b60405180910390f35b61008a610125565b604051610097919061031d565b60405180910390f35b6100ba60048036038101906100b59190610364565b61012c565b005b6100c461026b565b6040516100d1919061031d565b60405180910390f35b6100e2610271565b6040516100ef919061031d565b60405180910390f35b610100610278565b005b5f8054906101000a900473ffffffffffffffffffffffffffffffffffffffff1681565b6212750081565b805f73ffffffffffffffffffffffffffffffffffffffff168173ffffffffffffffffffffffffffffffffffffffff160361019b576040517f08c379a0000000000000000000000000000000000000000000000000000000008152600401610192906103e9565b60405180910390fd5b3373ffffffffffffffffffffffffffffffffffffffff165f8054906101000a900473ffffffffffffffffffffffffffffffffffffffff1673ffffffffffffffffffffffffffffffffffffffff1614610228576040517f08c379a000000000000000000000000000000000000000000000000000000000815260040161021f90610451565b60405180910390fd5b815f806101000a81548173ffffffffffffffffffffffffffffffffffffffff021916908373ffffffffffffffffffffffffffffffffffffffff1602179055505050565b60015481565b6203f48081565b6203f480600154610289919061049c565b42106102ab576212750060015f8282546102a3919061049c565b925050819055505b565b5f73ffffffffffffffffffffffffffffffffffffffff82169050919050565b5f6102d6826102ad565b9050919050565b6102e6816102cc565b82525050565b5f6020820190506102ff5f8301846102dd565b92915050565b5f819050919050565b61031781610305565b82525050565b5f6020820190506103305f83018461030e565b92915050565b5f80fd5b610343816102cc565b811461034d575f80fd5b50565b5f8135905061035e8161033a565b92915050565b5f6020828403121561037957610378610336565b5b5f61038684828501610350565b91505092915050565b5f82825260208201905092915050565b7f496e76616c6964206164647265737300000000000000000000000000000000005f82015250565b5f6103d3600f8361038f565b91506103de8261039f565b602082019050919050565b5f6020820190508181035f830152610400816103c7565b9050919050565b7f4e6f7420746865206f776e6572000000000000000000000000000000000000005f82015250565b5f61043b600d8361038f565b915061044682610407565b602082019050919050565b5f6020820190508181035f8301526104688161042f565b9050919050565b7f4e487b71000000000000000000000000000000000000000000000000000000005f52601160045260245ffd5b5f6104a682610305565b91506104b183610305565b92508282019050808211156104c9576104c861046f565b5b9291505056fea2646970667358221220c59a62e24692e72e306460e24a9f2d473f677bb722f55bd5d6ad13641bdfd2a464736f6c63430008160033",
			"opcodes": "PUSH1 0x80 PUSH1 0x40 MSTORE CALLVALUE DUP1 ISZERO PUSH2 0xF JUMPI PUSH0 DUP1 REVERT JUMPDEST POP CALLER PUSH0 DUP1 PUSH2 0x100 EXP DUP2 SLOAD DUP2 PUSH20 0xFFFFFFFFFFFFFFFFFFFFFFFFFFFFFFFFFFFFFFFF MUL NOT AND SWAP1 DUP4 PUSH20 0xFFFFFFFFFFFFFFFFFFFFFFFFFFFFFFFFFFFFFFFF AND MUL OR SWAP1 SSTORE POP TIMESTAMP PUSH1 0x1 DUP2 SWAP1 SSTORE POP PUSH2 0x505 DUP1 PUSH2 0x63 PUSH0 CODECOPY PUSH0 RETURN INVALID PUSH1 0x80 PUSH1 0x40 MSTORE CALLVALUE DUP1 ISZERO PUSH2 0xF JUMPI PUSH0 DUP1 REVERT JUMPDEST POP PUSH1 0x4 CALLDATASIZE LT PUSH2 0x60 JUMPI PUSH0 CALLDATALOAD PUSH1 0xE0 SHR DUP1 PUSH4 0x8DA5CB5B EQ PUSH2 0x64 JUMPI DUP1 PUSH4 0x934D1FA4 EQ PUSH2 0x82 JUMPI DUP1 PUSH4 0xA6F9DAE1 EQ PUSH2 0xA0 JUMPI DUP1 PUSH4 0xB80777EA EQ PUSH2 0xBC JUMPI DUP1 PUSH4 0xBE4E694E EQ PUSH2 0xDA JUMPI DUP1 PUSH4 0xC3CECF10 EQ PUSH2 0xF8 JUMPI JUMPDEST PUSH0 DUP1 REVERT JUMPDEST PUSH2 0x6C PUSH2 0x102 JUMP JUMPDEST PUSH1 0x40 MLOAD PUSH2 0x79 SWAP2 SWAP1 PUSH2 0x2EC JUMP JUMPDEST PUSH1 0x40 MLOAD DUP1 SWAP2 SUB SWAP1 RETURN JUMPDEST PUSH2 0x8A PUSH2 0x125 JUMP JUMPDEST PUSH1 0x40 MLOAD PUSH2 0x97 SWAP2 SWAP1 PUSH2 0x31D JUMP JUMPDEST PUSH1 0x40 MLOAD DUP1 SWAP2 SUB SWAP1 RETURN JUMPDEST PUSH2 0xBA PUSH1 0x4 DUP1 CALLDATASIZE SUB DUP2 ADD SWAP1 PUSH2 0xB5 SWAP2 SWAP1 PUSH2 0x364 JUMP JUMPDEST PUSH2 0x12C JUMP JUMPDEST STOP JUMPDEST PUSH2 0xC4 PUSH2 0x26B JUMP JUMPDEST PUSH1 0x40 MLOAD PUSH2 0xD1 SWAP2 SWAP1 PUSH2 0x31D JUMP JUMPDEST PUSH1 0x40 MLOAD DUP1 SWAP2 SUB SWAP1 RETURN JUMPDEST PUSH2 0xE2 PUSH2 0x271 JUMP JUMPDEST PUSH1 0x40 MLOAD PUSH2 0xEF SWAP2 SWAP1 PUSH2 0x31D JUMP JUMPDEST PUSH1 0x40 MLOAD DUP1 SWAP2 SUB SWAP1 RETURN JUMPDEST PUSH2 0x100 PUSH2 0x278 JUMP JUMPDEST STOP JUMPDEST PUSH0 DUP1 SLOAD SWAP1 PUSH2 0x100 EXP SWAP1 DIV PUSH20 0xFFFFFFFFFFFFFFFFFFFFFFFFFFFFFFFFFFFFFFFF AND DUP2 JUMP JUMPDEST PUSH3 0x127500 DUP2 JUMP JUMPDEST DUP1 PUSH0 PUSH20 0xFFFFFFFFFFFFFFFFFFFFFFFFFFFFFFFFFFFFFFFF AND DUP2 PUSH20 0xFFFFFFFFFFFFFFFFFFFFFFFFFFFFFFFFFFFFFFFF AND SUB PUSH2 0x19B JUMPI PUSH1 0x40 MLOAD PUSH32 0x8C379A000000000000000000000000000000000000000000000000000000000 DUP2 MSTORE PUSH1 0x4 ADD PUSH2 0x192 SWAP1 PUSH2 0x3E9 JUMP JUMPDEST PUSH1 0x40 MLOAD DUP1 SWAP2 SUB SWAP1 REVERT JUMPDEST CALLER PUSH20 0xFFFFFFFFFFFFFFFFFFFFFFFFFFFFFFFFFFFFFFFF AND PUSH0 DUP1 SLOAD SWAP1 PUSH2 0x100 EXP SWAP1 DIV PUSH20 0xFFFFFFFFFFFFFFFFFFFFFFFFFFFFFFFFFFFFFFFF AND PUSH20 0xFFFFFFFFFFFFFFFFFFFFFFFFFFFFFFFFFFFFFFFF AND EQ PUSH2 0x228 JUMPI PUSH1 0x40 MLOAD PUSH32 0x8C379A000000000000000000000000000000000000000000000000000000000 DUP2 MSTORE PUSH1 0x4 ADD PUSH2 0x21F SWAP1 PUSH2 0x451 JUMP JUMPDEST PUSH1 0x40 MLOAD DUP1 SWAP2 SUB SWAP1 REVERT JUMPDEST DUP2 PUSH0 DUP1 PUSH2 0x100 EXP DUP2 SLOAD DUP2 PUSH20 0xFFFFFFFFFFFFFFFFFFFFFFFFFFFFFFFFFFFFFFFF MUL NOT AND SWAP1 DUP4 PUSH20 0xFFFFFFFFFFFFFFFFFFFFFFFFFFFFFFFFFFFFFFFF AND MUL OR SWAP1 SSTORE POP POP POP JUMP JUMPDEST PUSH1 0x1 SLOAD DUP2 JUMP JUMPDEST PUSH3 0x3F480 DUP2 JUMP JUMPDEST PUSH3 0x3F480 PUSH1 0x1 SLOAD PUSH2 0x289 SWAP2 SWAP1 PUSH2 0x49C JUMP JUMPDEST TIMESTAMP LT PUSH2 0x2AB JUMPI PUSH3 0x127500 PUSH1 0x1 PUSH0 DUP3 DUP3 SLOAD PUSH2 0x2A3 SWAP2 SWAP1 PUSH2 0x49C JUMP JUMPDEST SWAP3 POP POP DUP2 SWAP1 SSTORE POP JUMPDEST JUMP JUMPDEST PUSH0 PUSH20 0xFFFFFFFFFFFFFFFFFFFFFFFFFFFFFFFFFFFFFFFF DUP3 AND SWAP1 POP SWAP2 SWAP1 POP JUMP JUMPDEST PUSH0 PUSH2 0x2D6 DUP3 PUSH2 0x2AD JUMP JUMPDEST SWAP1 POP SWAP2 SWAP1 POP JUMP JUMPDEST PUSH2 0x2E6 DUP2 PUSH2 0x2CC JUMP JUMPDEST DUP3 MSTORE POP POP JUMP JUMPDEST PUSH0 PUSH1 0x20 DUP3 ADD SWAP1 POP PUSH2 0x2FF PUSH0 DUP4 ADD DUP5 PUSH2 0x2DD JUMP JUMPDEST SWAP3 SWAP2 POP POP JUMP JUMPDEST PUSH0 DUP2 SWAP1 POP SWAP2 SWAP1 POP JUMP JUMPDEST PUSH2 0x317 DUP2 PUSH2 0x305 JUMP JUMPDEST DUP3 MSTORE POP POP JUMP JUMPDEST PUSH0 PUSH1 0x20 DUP3 ADD SWAP1 POP PUSH2 0x330 PUSH0 DUP4 ADD DUP5 PUSH2 0x30E JUMP JUMPDEST SWAP3 SWAP2 POP POP JUMP JUMPDEST PUSH0 DUP1 REVERT JUMPDEST PUSH2 0x343 DUP2 PUSH2 0x2CC JUMP JUMPDEST DUP2 EQ PUSH2 0x34D JUMPI PUSH0 DUP1 REVERT JUMPDEST POP JUMP JUMPDEST PUSH0 DUP2 CALLDATALOAD SWAP1 POP PUSH2 0x35E DUP2 PUSH2 0x33A JUMP JUMPDEST SWAP3 SWAP2 POP POP JUMP JUMPDEST PUSH0 PUSH1 0x20 DUP3 DUP5 SUB SLT ISZERO PUSH2 0x379 JUMPI PUSH2 0x378 PUSH2 0x336 JUMP JUMPDEST JUMPDEST PUSH0 PUSH2 0x386 DUP5 DUP3 DUP6 ADD PUSH2 0x350 JUMP JUMPDEST SWAP2 POP POP SWAP3 SWAP2 POP POP JUMP JUMPDEST PUSH0 DUP3 DUP3 MSTORE PUSH1 0x20 DUP3 ADD SWAP1 POP SWAP3 SWAP2 POP POP JUMP JUMPDEST PUSH32 0x496E76616C696420616464726573730000000000000000000000000000000000 PUSH0 DUP3 ADD MSTORE POP JUMP JUMPDEST PUSH0 PUSH2 0x3D3 PUSH1 0xF DUP4 PUSH2 0x38F JUMP JUMPDEST SWAP2 POP PUSH2 0x3DE DUP3 PUSH2 0x39F JUMP JUMPDEST PUSH1 0x20 DUP3 ADD SWAP1 POP SWAP2 SWAP1 POP JUMP JUMPDEST PUSH0 PUSH1 0x20 DUP3 ADD SWAP1 POP DUP2 DUP2 SUB PUSH0 DUP4 ADD MSTORE PUSH2 0x400 DUP2 PUSH2 0x3C7 JUMP JUMPDEST SWAP1 POP SWAP2 SWAP1 POP JUMP JUMPDEST PUSH32 0x4E6F7420746865206F776E657200000000000000000000000000000000000000 PUSH0 DUP3 ADD MSTORE POP JUMP JUMPDEST PUSH0 PUSH2 0x43B PUSH1 0xD DUP4 PUSH2 0x38F JUMP JUMPDEST SWAP2 POP PUSH2 0x446 DUP3 PUSH2 0x407 JUMP JUMPDEST PUSH1 0x20 DUP3 ADD SWAP1 POP SWAP2 SWAP1 POP JUMP JUMPDEST PUSH0 PUSH1 0x20 DUP3 ADD SWAP1 POP DUP2 DUP2 SUB PUSH0 DUP4 ADD MSTORE PUSH2 0x468 DUP2 PUSH2 0x42F JUMP JUMPDEST SWAP1 POP SWAP2 SWAP1 POP JUMP JUMPDEST PUSH32 0x4E487B7100000000000000000000000000000000000000000000000000000000 PUSH0 MSTORE PUSH1 0x11 PUSH1 0x4 MSTORE PUSH1 0x24 PUSH0 REVERT JUMPDEST PUSH0 PUSH2 0x4A6 DUP3 PUSH2 0x305 JUMP JUMPDEST SWAP2 POP PUSH2 0x4B1 DUP4 PUSH2 0x305 JUMP JUMPDEST SWAP3 POP DUP3 DUP3 ADD SWAP1 POP DUP1 DUP3 GT ISZERO PUSH2 0x4C9 JUMPI PUSH2 0x4C8 PUSH2 0x46F JUMP JUMPDEST JUMPDEST SWAP3 SWAP2 POP POP JUMP INVALID LOG2 PUSH5 0x6970667358 0x22 SLT KECCAK256 0xC5 SWAP11 PUSH3 0xE24692 0xE7 0x2E ADDRESS PUSH5 0x60E24A9F2D SELFBALANCE EXTCODEHASH PUSH8 0x7BB722F55BD5D6AD SGT PUSH5 0x1BDFD2A464 PUSH20 0x6F6C634300081600330000000000000000000000 "
		},
		"gasEstimates": {
			"creation": {
				"codeDepositCost": "257000",
				"executionCost": "46676",
				"totalCost": "303676"
			},
			"external": {
				"THREE_DAYS()": "391",
				"TWO_WEEKS()": "325",
				"changeOwner(address)": "26942",
				"checkAndUpdateTimestamp()": "infinite",
				"owner()": "2483",
				"timestamp()": "2469"
			}
		},
		"methodIdentifiers": {
			"THREE_DAYS()": "be4e694e",
			"TWO_WEEKS()": "934d1fa4",
			"changeOwner(address)": "a6f9dae1",
			"checkAndUpdateTimestamp()": "c3cecf10",
			"owner()": "8da5cb5b",
			"timestamp()": "b80777ea"
		}
	},
	"abi": [
		{
			"inputs": [],
			"stateMutability": "nonpayable",
			"type": "constructor"
		},
		{
			"inputs": [],
			"name": "THREE_DAYS",
			"outputs": [
				{
					"internalType": "uint256",
					"name": "",
					"type": "uint256"
				}
			],
			"stateMutability": "view",
			"type": "function"
		},
		{
			"inputs": [],
			"name": "TWO_WEEKS",
			"outputs": [
				{
					"internalType": "uint256",
					"name": "",
					"type": "uint256"
				}
			],
			"stateMutability": "view",
			"type": "function"
		},
		{
			"inputs": [
				{
					"internalType": "address",
					"name": "_newAddr",
					"type": "address"
				}
			],
			"name": "changeOwner",
			"outputs": [],
			"stateMutability": "nonpayable",
			"type": "function"
		},
		{
			"inputs": [],
			"name": "checkAndUpdateTimestamp",
			"outputs": [],
			"stateMutability": "nonpayable",
			"type": "function"
		},
		{
			"inputs": [],
			"name": "owner",
			"outputs": [
				{
					"internalType": "address",
					"name": "",
					"type": "address"
				}
			],
			"stateMutability": "view",
			"type": "function"
		},
		{
			"inputs": [],
			"name": "timestamp",
			"outputs": [
				{
					"internalType": "uint256",
					"name": "",
					"type": "uint256"
				}
			],
			"stateMutability": "view",
			"type": "function"
		}
	]
}