{
	"data": {
		"bytecode": {
			"linkReferences": {},
			"object": "608060405234801561000f575f80fd5b5061054f8061001d5f395ff3fe608060405260043610610037575f3560e01c8063391bf32d1461007b57806382d5dacd14610085578063f37cd2e5146100a157610077565b36610077577fa96d1d4035c8de267bed2a5d5ecb7c5bbf440670e6c7d9a912af1c5762a1f9bb333460405161006d92919061022f565b60405180910390a1005b5f80fd5b6100836100ab565b005b61009f600480360381019061009a9190610297565b6100e6565b005b6100a9610143565b005b7fa96d1d4035c8de267bed2a5d5ecb7c5bbf440670e6c7d9a912af1c5762a1f9bb33346040516100dc92919061030c565b60405180910390a1565b7fa96d1d4035c8de267bed2a5d5ecb7c5bbf440670e6c7d9a912af1c5762a1f9bb33348360405160200161011a91906103ba565b60405160208183030381529060405260405161013893929190610459565b60405180910390a150565b7fa96d1d4035c8de267bed2a5d5ecb7c5bbf440670e6c7d9a912af1c5762a1f9bb33346040516101749291906104df565b60405180910390a1565b5f73ffffffffffffffffffffffffffffffffffffffff82169050919050565b5f6101a78261017e565b9050919050565b6101b78161019d565b82525050565b5f819050919050565b6101cf816101bd565b82525050565b5f82825260208201905092915050565b7f66616c6c6261636b0000000000000000000000000000000000000000000000005f82015250565b5f6102196008836101d5565b9150610224826101e5565b602082019050919050565b5f6060820190506102425f8301856101ae565b61024f60208301846101c6565b81810360408301526102608161020d565b90509392505050565b5f80fd5b610276816101bd565b8114610280575f80fd5b50565b5f813590506102918161026d565b92915050565b5f602082840312156102ac576102ab610269565b5b5f6102b984828501610283565b91505092915050565b7f72656365697665457468657231000000000000000000000000000000000000005f82015250565b5f6102f6600d836101d5565b9150610301826102c2565b602082019050919050565b5f60608201905061031f5f8301856101ae565b61032c60208301846101c6565b818103604083015261033d816102ea565b90509392505050565b5f81905092915050565b7f726563656976654574686572333a2000000000000000000000000000000000005f82015250565b5f610384600f83610346565b915061038f82610350565b600f82019050919050565b5f819050919050565b6103b46103af826101bd565b61039a565b82525050565b5f6103c482610378565b91506103d082846103a3565b60208201915081905092915050565b5f81519050919050565b5f5b838110156104065780820151818401526020810190506103eb565b5f8484015250505050565b5f601f19601f8301169050919050565b5f61042b826103df565b61043581856101d5565b93506104458185602086016103e9565b61044e81610411565b840191505092915050565b5f60608201905061046c5f8301866101ae565b61047960208301856101c6565b818103604083015261048b8184610421565b9050949350505050565b7f72656365697665457468657232000000000000000000000000000000000000005f82015250565b5f6104c9600d836101d5565b91506104d482610495565b602082019050919050565b5f6060820190506104f25f8301856101ae565b6104ff60208301846101c6565b8181036040830152610510816104bd565b9050939250505056fea2646970667358221220f5f134327dd69617df8e616afeefdecb05725585c53d017502b856a48c1e696a64736f6c63430008160033",
			"opcodes": "PUSH1 0x80 PUSH1 0x40 MSTORE CALLVALUE DUP1 ISZERO PUSH2 0xF JUMPI PUSH0 DUP1 REVERT JUMPDEST POP PUSH2 0x54F DUP1 PUSH2 0x1D PUSH0 CODECOPY PUSH0 RETURN INVALID PUSH1 0x80 PUSH1 0x40 MSTORE PUSH1 0x4 CALLDATASIZE LT PUSH2 0x37 JUMPI PUSH0 CALLDATALOAD PUSH1 0xE0 SHR DUP1 PUSH4 0x391BF32D EQ PUSH2 0x7B JUMPI DUP1 PUSH4 0x82D5DACD EQ PUSH2 0x85 JUMPI DUP1 PUSH4 0xF37CD2E5 EQ PUSH2 0xA1 JUMPI PUSH2 0x77 JUMP JUMPDEST CALLDATASIZE PUSH2 0x77 JUMPI PUSH32 0xA96D1D4035C8DE267BED2A5D5ECB7C5BBF440670E6C7D9A912AF1C5762A1F9BB CALLER CALLVALUE PUSH1 0x40 MLOAD PUSH2 0x6D SWAP3 SWAP2 SWAP1 PUSH2 0x22F JUMP JUMPDEST PUSH1 0x40 MLOAD DUP1 SWAP2 SUB SWAP1 LOG1 STOP JUMPDEST PUSH0 DUP1 REVERT JUMPDEST PUSH2 0x83 PUSH2 0xAB JUMP JUMPDEST STOP JUMPDEST PUSH2 0x9F PUSH1 0x4 DUP1 CALLDATASIZE SUB DUP2 ADD SWAP1 PUSH2 0x9A SWAP2 SWAP1 PUSH2 0x297 JUMP JUMPDEST PUSH2 0xE6 JUMP JUMPDEST STOP JUMPDEST PUSH2 0xA9 PUSH2 0x143 JUMP JUMPDEST STOP JUMPDEST PUSH32 0xA96D1D4035C8DE267BED2A5D5ECB7C5BBF440670E6C7D9A912AF1C5762A1F9BB CALLER CALLVALUE PUSH1 0x40 MLOAD PUSH2 0xDC SWAP3 SWAP2 SWAP1 PUSH2 0x30C JUMP JUMPDEST PUSH1 0x40 MLOAD DUP1 SWAP2 SUB SWAP1 LOG1 JUMP JUMPDEST PUSH32 0xA96D1D4035C8DE267BED2A5D5ECB7C5BBF440670E6C7D9A912AF1C5762A1F9BB CALLER CALLVALUE DUP4 PUSH1 0x40 MLOAD PUSH1 0x20 ADD PUSH2 0x11A SWAP2 SWAP1 PUSH2 0x3BA JUMP JUMPDEST PUSH1 0x40 MLOAD PUSH1 0x20 DUP2 DUP4 SUB SUB DUP2 MSTORE SWAP1 PUSH1 0x40 MSTORE PUSH1 0x40 MLOAD PUSH2 0x138 SWAP4 SWAP3 SWAP2 SWAP1 PUSH2 0x459 JUMP JUMPDEST PUSH1 0x40 MLOAD DUP1 SWAP2 SUB SWAP1 LOG1 POP JUMP JUMPDEST PUSH32 0xA96D1D4035C8DE267BED2A5D5ECB7C5BBF440670E6C7D9A912AF1C5762A1F9BB CALLER CALLVALUE PUSH1 0x40 MLOAD PUSH2 0x174 SWAP3 SWAP2 SWAP1 PUSH2 0x4DF JUMP JUMPDEST PUSH1 0x40 MLOAD DUP1 SWAP2 SUB SWAP1 LOG1 JUMP JUMPDEST PUSH0 PUSH20 0xFFFFFFFFFFFFFFFFFFFFFFFFFFFFFFFFFFFFFFFF DUP3 AND SWAP1 POP SWAP2 SWAP1 POP JUMP JUMPDEST PUSH0 PUSH2 0x1A7 DUP3 PUSH2 0x17E JUMP JUMPDEST SWAP1 POP SWAP2 SWAP1 POP JUMP JUMPDEST PUSH2 0x1B7 DUP2 PUSH2 0x19D JUMP JUMPDEST DUP3 MSTORE POP POP JUMP JUMPDEST PUSH0 DUP2 SWAP1 POP SWAP2 SWAP1 POP JUMP JUMPDEST PUSH2 0x1CF DUP2 PUSH2 0x1BD JUMP JUMPDEST DUP3 MSTORE POP POP JUMP JUMPDEST PUSH0 DUP3 DUP3 MSTORE PUSH1 0x20 DUP3 ADD SWAP1 POP SWAP3 SWAP2 POP POP JUMP JUMPDEST PUSH32 0x66616C6C6261636B000000000000000000000000000000000000000000000000 PUSH0 DUP3 ADD MSTORE POP JUMP JUMPDEST PUSH0 PUSH2 0x219 PUSH1 0x8 DUP4 PUSH2 0x1D5 JUMP JUMPDEST SWAP2 POP PUSH2 0x224 DUP3 PUSH2 0x1E5 JUMP JUMPDEST PUSH1 0x20 DUP3 ADD SWAP1 POP SWAP2 SWAP1 POP JUMP JUMPDEST PUSH0 PUSH1 0x60 DUP3 ADD SWAP1 POP PUSH2 0x242 PUSH0 DUP4 ADD DUP6 PUSH2 0x1AE JUMP JUMPDEST PUSH2 0x24F PUSH1 0x20 DUP4 ADD DUP5 PUSH2 0x1C6 JUMP JUMPDEST DUP2 DUP2 SUB PUSH1 0x40 DUP4 ADD MSTORE PUSH2 0x260 DUP2 PUSH2 0x20D JUMP JUMPDEST SWAP1 POP SWAP4 SWAP3 POP POP POP JUMP JUMPDEST PUSH0 DUP1 REVERT JUMPDEST PUSH2 0x276 DUP2 PUSH2 0x1BD JUMP JUMPDEST DUP2 EQ PUSH2 0x280 JUMPI PUSH0 DUP1 REVERT JUMPDEST POP JUMP JUMPDEST PUSH0 DUP2 CALLDATALOAD SWAP1 POP PUSH2 0x291 DUP2 PUSH2 0x26D JUMP JUMPDEST SWAP3 SWAP2 POP POP JUMP JUMPDEST PUSH0 PUSH1 0x20 DUP3 DUP5 SUB SLT ISZERO PUSH2 0x2AC JUMPI PUSH2 0x2AB PUSH2 0x269 JUMP JUMPDEST JUMPDEST PUSH0 PUSH2 0x2B9 DUP5 DUP3 DUP6 ADD PUSH2 0x283 JUMP JUMPDEST SWAP2 POP POP SWAP3 SWAP2 POP POP JUMP JUMPDEST PUSH32 0x7265636569766545746865723100000000000000000000000000000000000000 PUSH0 DUP3 ADD MSTORE POP JUMP JUMPDEST PUSH0 PUSH2 0x2F6 PUSH1 0xD DUP4 PUSH2 0x1D5 JUMP JUMPDEST SWAP2 POP PUSH2 0x301 DUP3 PUSH2 0x2C2 JUMP JUMPDEST PUSH1 0x20 DUP3 ADD SWAP1 POP SWAP2 SWAP1 POP JUMP JUMPDEST PUSH0 PUSH1 0x60 DUP3 ADD SWAP1 POP PUSH2 0x31F PUSH0 DUP4 ADD DUP6 PUSH2 0x1AE JUMP JUMPDEST PUSH2 0x32C PUSH1 0x20 DUP4 ADD DUP5 PUSH2 0x1C6 JUMP JUMPDEST DUP2 DUP2 SUB PUSH1 0x40 DUP4 ADD MSTORE PUSH2 0x33D DUP2 PUSH2 0x2EA JUMP JUMPDEST SWAP1 POP SWAP4 SWAP3 POP POP POP JUMP JUMPDEST PUSH0 DUP2 SWAP1 POP SWAP3 SWAP2 POP POP JUMP JUMPDEST PUSH32 0x726563656976654574686572333A200000000000000000000000000000000000 PUSH0 DUP3 ADD MSTORE POP JUMP JUMPDEST PUSH0 PUSH2 0x384 PUSH1 0xF DUP4 PUSH2 0x346 JUMP JUMPDEST SWAP2 POP PUSH2 0x38F DUP3 PUSH2 0x350 JUMP JUMPDEST PUSH1 0xF DUP3 ADD SWAP1 POP SWAP2 SWAP1 POP JUMP JUMPDEST PUSH0 DUP2 SWAP1 POP SWAP2 SWAP1 POP JUMP JUMPDEST PUSH2 0x3B4 PUSH2 0x3AF DUP3 PUSH2 0x1BD JUMP JUMPDEST PUSH2 0x39A JUMP JUMPDEST DUP3 MSTORE POP POP JUMP JUMPDEST PUSH0 PUSH2 0x3C4 DUP3 PUSH2 0x378 JUMP JUMPDEST SWAP2 POP PUSH2 0x3D0 DUP3 DUP5 PUSH2 0x3A3 JUMP JUMPDEST PUSH1 0x20 DUP3 ADD SWAP2 POP DUP2 SWAP1 POP SWAP3 SWAP2 POP POP JUMP JUMPDEST PUSH0 DUP2 MLOAD SWAP1 POP SWAP2 SWAP1 POP JUMP JUMPDEST PUSH0 JUMPDEST DUP4 DUP2 LT ISZERO PUSH2 0x406 JUMPI DUP1 DUP3 ADD MLOAD DUP2 DUP5 ADD MSTORE PUSH1 0x20 DUP2 ADD SWAP1 POP PUSH2 0x3EB JUMP JUMPDEST PUSH0 DUP5 DUP5 ADD MSTORE POP POP POP POP JUMP JUMPDEST PUSH0 PUSH1 0x1F NOT PUSH1 0x1F DUP4 ADD AND SWAP1 POP SWAP2 SWAP1 POP JUMP JUMPDEST PUSH0 PUSH2 0x42B DUP3 PUSH2 0x3DF JUMP JUMPDEST PUSH2 0x435 DUP2 DUP6 PUSH2 0x1D5 JUMP JUMPDEST SWAP4 POP PUSH2 0x445 DUP2 DUP6 PUSH1 0x20 DUP7 ADD PUSH2 0x3E9 JUMP JUMPDEST PUSH2 0x44E DUP2 PUSH2 0x411 JUMP JUMPDEST DUP5 ADD SWAP2 POP POP SWAP3 SWAP2 POP POP JUMP JUMPDEST PUSH0 PUSH1 0x60 DUP3 ADD SWAP1 POP PUSH2 0x46C PUSH0 DUP4 ADD DUP7 PUSH2 0x1AE JUMP JUMPDEST PUSH2 0x479 PUSH1 0x20 DUP4 ADD DUP6 PUSH2 0x1C6 JUMP JUMPDEST DUP2 DUP2 SUB PUSH1 0x40 DUP4 ADD MSTORE PUSH2 0x48B DUP2 DUP5 PUSH2 0x421 JUMP JUMPDEST SWAP1 POP SWAP5 SWAP4 POP POP POP POP JUMP JUMPDEST PUSH32 0x7265636569766545746865723200000000000000000000000000000000000000 PUSH0 DUP3 ADD MSTORE POP JUMP JUMPDEST PUSH0 PUSH2 0x4C9 PUSH1 0xD DUP4 PUSH2 0x1D5 JUMP JUMPDEST SWAP2 POP PUSH2 0x4D4 DUP3 PUSH2 0x495 JUMP JUMPDEST PUSH1 0x20 DUP3 ADD SWAP1 POP SWAP2 SWAP1 POP JUMP JUMPDEST PUSH0 PUSH1 0x60 DUP3 ADD SWAP1 POP PUSH2 0x4F2 PUSH0 DUP4 ADD DUP6 PUSH2 0x1AE JUMP JUMPDEST PUSH2 0x4FF PUSH1 0x20 DUP4 ADD DUP5 PUSH2 0x1C6 JUMP JUMPDEST DUP2 DUP2 SUB PUSH1 0x40 DUP4 ADD MSTORE PUSH2 0x510 DUP2 PUSH2 0x4BD JUMP JUMPDEST SWAP1 POP SWAP4 SWAP3 POP POP POP JUMP INVALID LOG2 PUSH5 0x6970667358 0x22 SLT KECCAK256 CREATE2 CALL CALLVALUE ORIGIN PUSH30 0xD69617DF8E616AFEEFDECB05725585C53D017502B856A48C1E696A64736F PUSH13 0x63430008160033000000000000 "
		},
		"gasEstimates": {
			"creation": {
				"codeDepositCost": "271800",
				"executionCost": "310",
				"totalCost": "272110"
			},
			"external": {
				"receiveEther1()": "2656",
				"receiveEther2()": "2700",
				"receiveEther3(uint256)": "infinite"
			}
		},
		"methodIdentifiers": {
			"receiveEther1()": "391bf32d",
			"receiveEther2()": "f37cd2e5",
			"receiveEther3(uint256)": "82d5dacd"
		}
	},
	"abi": [
		{
			"anonymous": false,
			"inputs": [
				{
					"indexed": false,
					"internalType": "address",
					"name": "sender",
					"type": "address"
				},
				{
					"indexed": false,
					"internalType": "uint256",
					"name": "amount",
					"type": "uint256"
				},
				{
					"indexed": false,
					"internalType": "string",
					"name": "method",
					"type": "string"
				}
			],
			"name": "EtherReceived",
			"type": "event"
		},
		{
			"inputs": [],
			"name": "receiveEther1",
			"outputs": [],
			"stateMutability": "payable",
			"type": "function"
		},
		{
			"inputs": [],
			"name": "receiveEther2",
			"outputs": [],
			"stateMutability": "payable",
			"type": "function"
		},
		{
			"inputs": [
				{
					"internalType": "uint256",
					"name": "param",
					"type": "uint256"
				}
			],
			"name": "receiveEther3",
			"outputs": [],
			"stateMutability": "payable",
			"type": "function"
		},
		{
			"stateMutability": "payable",
			"type": "receive"
		}
	]
}