{
  "_format": "hh-sol-artifact-1",
  "contractName": "AuctionReentrancy",
  "sourceName": "contracts/PracticeGuideDAO/Security/AuctionReentrancy.sol",
  "abi": [
    {
      "inputs": [],
      "name": "bid",
      "outputs": [],
      "stateMutability": "payable",
      "type": "function"
    },
    {
      "inputs": [
        {
          "internalType": "address",
          "name": "bidder",
          "type": "address"
        }
      ],
      "name": "bids",
      "outputs": [
        {
          "internalType": "uint256",
          "name": "",
          "type": "uint256"
        }
      ],
      "stateMutability": "view",
      "type": "function"
    },
    {
      "inputs": [],
      "name": "refund",
      "outputs": [],
      "stateMutability": "nonpayable",
      "type": "function"
    }
  ],
  "bytecode": "0x6080604052348015600e575f80fd5b506102368061001c5f395ff3fe608060405260043610610033575f3560e01c80631998aeef14610037578063590e1ae31461004157806362ea82db14610055575b5f80fd5b61003f610092565b005b34801561004c575f80fd5b5061003f6100b7565b348015610060575f80fd5b5061008061006f366004610188565b5f6020819052908152604090205481565b60405190815260200160405180910390f35b335f90815260208190526040812080543492906100b09084906101c2565b9091555050565b335f90815260208190526040812080549190558015610185576040515f90339083908381818185875af1925050503d805f811461010f576040519150601f19603f3d011682016040523d82523d5f602084013e610114565b606091505b5050905080610183576040517f08c379a000000000000000000000000000000000000000000000000000000000815260206004820152600a60248201527f63616e60742073656e6400000000000000000000000000000000000000000000604482015260640160405180910390fd5b505b50565b5f60208284031215610198575f80fd5b813573ffffffffffffffffffffffffffffffffffffffff811681146101bb575f80fd5b9392505050565b808201808211156101fa577f4e487b71000000000000000000000000000000000000000000000000000000005f52601160045260245ffd5b9291505056fea2646970667358221220bbc11d9aafd52156c3646f765de5bc45fc1e689a856a8fe15d27694f6ad9f0b864736f6c634300081a0033",
  "linkReferences": {},
  "deployedLinkReferences": {}
}