{
  "_format": "hh-sol-artifact-1",
  "contractName": "UniqueArray",
  "sourceName": "contracts/PracticeJunior/UniqueArray.sol",
  "abi": [
    {
      "anonymous": false,
      "inputs": [
        {
          "indexed": false,
          "internalType": "uint256",
          "name": "_value",
          "type": "uint256"
        }
      ],
      "name": "AddedValue",
      "type": "event"
    },
    {
      "inputs": [
        {
          "internalType": "uint256",
          "name": "_value",
          "type": "uint256"
        }
      ],
      "name": "addUniqueValues",
      "outputs": [],
      "stateMutability": "nonpayable",
      "type": "function"
    },
    {
      "inputs": [
        {
          "internalType": "uint256",
          "name": "index",
          "type": "uint256"
        }
      ],
      "name": "getValue",
      "outputs": [
        {
          "internalType": "uint256",
          "name": "",
          "type": "uint256"
        }
      ],
      "stateMutability": "view",
      "type": "function"
    },
    {
      "inputs": [],
      "name": "getValues",
      "outputs": [
        {
          "internalType": "uint256[]",
          "name": "",
          "type": "uint256[]"
        }
      ],
      "stateMutability": "view",
      "type": "function"
    },
    {
      "inputs": [
        {
          "internalType": "uint256",
          "name": "",
          "type": "uint256"
        }
      ],
      "name": "uniqueValues",
      "outputs": [
        {
          "internalType": "uint256",
          "name": "",
          "type": "uint256"
        }
      ],
      "stateMutability": "view",
      "type": "function"
    }
  ],
  "bytecode": "0x608060405234801561001057600080fd5b506103f1806100206000396000f3fe608060405234801561001057600080fd5b506004361061004c5760003560e01c80630ff4c9161461005157806319eb4a901461007757806325b002e01461008c57806396d2f0511461009f575b600080fd5b61006461005f3660046102d0565b6100b4565b6040519081526020015b60405180910390f35b61007f61014a565b60405161006e91906102e9565b61006461009a3660046102d0565b6101a2565b6100b26100ad3660046102d0565b6101c3565b005b600080548210610125576040517f08c379a000000000000000000000000000000000000000000000000000000000815260206004820152601360248201527f496e646578206f7574206f6620626f756e64730000000000000000000000000060448201526064015b60405180910390fd5b600082815481106101385761013861032d565b90600052602060002001549050919050565b6060600080548060200260200160405190810160405280929190818152602001828054801561019857602002820191906000526020600020905b815481526020019060010190808311610184575b5050505050905090565b600081815481106101b257600080fd5b600091825260209091200154905081565b60005b60005481116102675781600082815481106101e3576101e361032d565b906000526020600020015403610255576040517f08c379a000000000000000000000000000000000000000000000000000000000815260206004820152601460248201527f56616c756520616c726561647920657869737473000000000000000000000000604482015260640161011c565b8061025f8161035c565b9150506101c6565b50600080546001810182559080527f290decd9548b62a8d60345a988386fc84ba6bc95484008f6362f93160ef3e563018190556040518181527f799ee159879d92435d70d0554642fdd27697ea7610aabc791a88ae28a4d853f29060200160405180910390a150565b6000602082840312156102e257600080fd5b5035919050565b6020808252825182820181905260009190848201906040850190845b8181101561032157835183529284019291840191600101610305565b50909695505050505050565b7f4e487b7100000000000000000000000000000000000000000000000000000000600052603260045260246000fd5b60007fffffffffffffffffffffffffffffffffffffffffffffffffffffffffffffffff82036103b4577f4e487b7100000000000000000000000000000000000000000000000000000000600052601160045260246000fd5b506001019056fea26469706673582212207dbc0d5e2b3014d0dd37a28efcba976dd53e70fcecba3a343fffeea3c4fbafb864736f6c63430008140033",
  "linkReferences": {},
  "deployedLinkReferences": {}
}