{
  "_format": "hh-sol-artifact-1",
  "contractName": "Hack",
  "sourceName": "contracts/practice-GuideDAO/security/AuctionReentrancy.sol",
  "abi": [
    {
      "inputs": [
        {
          "internalType": "address",
          "name": "_toHack",
          "type": "address"
        }
      ],
      "stateMutability": "payable",
      "type": "constructor"
    },
    {
      "inputs": [],
      "name": "hack",
      "outputs": [],
      "stateMutability": "nonpayable",
      "type": "function"
    },
    {
      "stateMutability": "payable",
      "type": "receive"
    }
  ],
  "bytecode": "0x60806040526040516101eb3803806101eb833981016040819052602091609e565b670de0b6b3a764000034146032575f80fd5b5f80546001600160a01b0319166001600160a01b038316908117825560408051631998aeef60e01b815290519192631998aeef923492600480820193929182900301818588803b1580156083575f80fd5b505af11580156094573d5f803e3d5ffd5b50505050505060c9565b5f6020828403121560ad575f80fd5b81516001600160a01b038116811460c2575f80fd5b9392505050565b610115806100d65f395ff3fe608060405260043610601e575f3560e01c80634de260a2146056575f80fd5b366052575f54670de0b6b3a764000073ffffffffffffffffffffffffffffffffffffffff909116311060505760506064565b005b5f80fd5b3480156060575f80fd5b5060505b5f8054604080517f590e1ae3000000000000000000000000000000000000000000000000000000008152905173ffffffffffffffffffffffffffffffffffffffff9092169263590e1ae39260048084019382900301818387803b15801560c8575f80fd5b505af115801560d9573d5f803e3d5ffd5b5050505056fea2646970667358221220620b40ad97da05ef89fea9e459f6cbfe6e761f159aba25f1539708ebdef63c1f64736f6c634300081a0033",
  "linkReferences": {},
  "deployedLinkReferences": {}
}