{
  "_format": "hh-sol-artifact-1",
  "contractName": "Logger",
  "sourceName": "contracts/practice-GuideDAO/security/BankHoneypot.sol",
  "abi": [
    {
      "anonymous": false,
      "inputs": [
        {
          "indexed": true,
          "internalType": "address",
          "name": "initiator",
          "type": "address"
        },
        {
          "indexed": true,
          "internalType": "uint256",
          "name": "eventCode",
          "type": "uint256"
        }
      ],
      "name": "Log",
      "type": "event"
    },
    {
      "inputs": [
        {
          "internalType": "address",
          "name": "initiator",
          "type": "address"
        },
        {
          "internalType": "uint256",
          "name": "eventCode",
          "type": "uint256"
        }
      ],
      "name": "log",
      "outputs": [],
      "stateMutability": "nonpayable",
      "type": "function"
    }
  ],
  "bytecode": "0x6080604052348015600e575f80fd5b5060f78061001b5f395ff3fe6080604052348015600e575f80fd5b50600436106026575f3560e01c80638309e8a814602a575b5f80fd5b603960353660046081565b603b565b005b604051819073ffffffffffffffffffffffffffffffffffffffff8416907ff950957d2407bed19dc99b718b46b4ce6090c05589006dfb86fd22c34865b23e905f90a35050565b5f80604083850312156091575f80fd5b823573ffffffffffffffffffffffffffffffffffffffff8116811460b3575f80fd5b94602093909301359350505056fea264697066735822122073927378d0596993af7734621960fa100c9993c17dbb1b8d478e0426181139e864736f6c634300081a0033",
  "linkReferences": {},
  "deployedLinkReferences": {}
}