{
  "_format": "hh-sol-artifact-1",
  "contractName": "Divider",
  "sourceName": "contracts/PracticeJunior/Divider.sol",
  "abi": [
    {
      "inputs": [
        {
          "internalType": "uint256",
          "name": "x",
          "type": "uint256"
        },
        {
          "internalType": "uint256",
          "name": "y",
          "type": "uint256"
        }
      ],
      "name": "divide",
      "outputs": [
        {
          "internalType": "uint256",
          "name": "",
          "type": "uint256"
        }
      ],
      "stateMutability": "pure",
      "type": "function"
    }
  ],
  "bytecode": "0x608060405234801561001057600080fd5b50610168806100206000396000f3fe608060405234801561001057600080fd5b506004361061002b5760003560e01c8063f88e9fbf14610030575b600080fd5b61004361003e3660046100d5565b610055565b60405190815260200160405180910390f35b60008082116100c4576040517f08c379a000000000000000000000000000000000000000000000000000000000815260206004820152601060248201527f4469766973696f6e206279207a65726f00000000000000000000000000000000604482015260640160405180910390fd5b6100ce82846100f7565b9392505050565b600080604083850312156100e857600080fd5b50508035926020909101359150565b60008261012d577f4e487b7100000000000000000000000000000000000000000000000000000000600052601260045260246000fd5b50049056fea2646970667358221220bca597771f4969cf84840f3ee7c686094c35627d2f95982dfb405f5e81e3f97764736f6c63430008140033",
  "linkReferences": {},
  "deployedLinkReferences": {}
}