{
	"Solidity/Hardhat/my-hardhat-project/contracts/RecordFactory.sol": {
		"AddressRecord": {
			"abi": [
				{
					"inputs": [
						{
							"internalType": "uint256",
							"name": "_timeOfCreation",
							"type": "uint256"
						},
						{
							"internalType": "address",
							"name": "_record",
							"type": "address"
						}
					],
					"stateMutability": "nonpayable",
					"type": "constructor"
				},
				{
					"inputs": [],
					"name": "getRecordType",
					"outputs": [
						{
							"internalType": "string",
							"name": "",
							"type": "string"
						}
					],
					"stateMutability": "pure",
					"type": "function"
				},
				{
					"inputs": [],
					"name": "record",
					"outputs": [
						{
							"internalType": "address",
							"name": "",
							"type": "address"
						}
					],
					"stateMutability": "view",
					"type": "function"
				},
				{
					"inputs": [
						{
							"internalType": "address",
							"name": "newRecord",
							"type": "address"
						}
					],
					"name": "setRecord",
					"outputs": [],
					"stateMutability": "nonpayable",
					"type": "function"
				},
				{
					"inputs": [],
					"name": "timeOfCreation",
					"outputs": [
						{
							"internalType": "uint256",
							"name": "",
							"type": "uint256"
						}
					],
					"stateMutability": "view",
					"type": "function"
				}
			],
			"devdoc": {
				"kind": "dev",
				"methods": {},
				"version": 1
			},
			"evm": {
				"assembly": "    /* \"Solidity/Hardhat/my-hardhat-project/contracts/RecordFactory.sol\":1265:1910  contract AddressRecord is Record {... */\n  mstore(0x40, 0x80)\n    /* \"Solidity/Hardhat/my-hardhat-project/contracts/RecordFactory.sol\":1450:1577  constructor(uint256 _timeOfCreation, address _record)... */\n  callvalue\n  dup1\n  iszero\n  tag_1\n  jumpi\n  0x00\n  dup1\n  revert\ntag_1:\n  pop\n  mload(0x40)\n  sub(codesize, bytecodeSize)\n  dup1\n  bytecodeSize\n  dup4\n  codecopy\n  dup2\n  dup2\n  add\n  0x40\n  mstore\n  dup2\n  add\n  swap1\n  tag_2\n  swap2\n  swap1\n  tag_3\n  jump\t// in\ntag_2:\n    /* \"Solidity/Hardhat/my-hardhat-project/contracts/RecordFactory.sol\":1520:1535  _timeOfCreation */\n  dup2\n    /* \"Solidity/Hardhat/my-hardhat-project/contracts/RecordFactory.sol\":295:310  _timeOfCreation */\n  dup1\n    /* \"Solidity/Hardhat/my-hardhat-project/contracts/RecordFactory.sol\":278:292  timeOfCreation */\n  0x00\n    /* \"Solidity/Hardhat/my-hardhat-project/contracts/RecordFactory.sol\":278:310  timeOfCreation = _timeOfCreation */\n  dup2\n  swap1\n  sstore\n  pop\n    /* \"Solidity/Hardhat/my-hardhat-project/contracts/RecordFactory.sol\":230:318  constructor(uint256 _timeOfCreation) {... */\n  pop\n    /* \"Solidity/Hardhat/my-hardhat-project/contracts/RecordFactory.sol\":1562:1569  _record */\n  dup1\n    /* \"Solidity/Hardhat/my-hardhat-project/contracts/RecordFactory.sol\":1553:1559  record */\n  0x01\n  0x00\n    /* \"Solidity/Hardhat/my-hardhat-project/contracts/RecordFactory.sol\":1553:1569  record = _record */\n  0x0100\n  exp\n  dup2\n  sload\n  dup2\n  0xffffffffffffffffffffffffffffffffffffffff\n  mul\n  not\n  and\n  swap1\n  dup4\n  0xffffffffffffffffffffffffffffffffffffffff\n  and\n  mul\n  or\n  swap1\n  sstore\n  pop\n    /* \"Solidity/Hardhat/my-hardhat-project/contracts/RecordFactory.sol\":1450:1577  constructor(uint256 _timeOfCreation, address _record)... */\n  pop\n  pop\n    /* \"Solidity/Hardhat/my-hardhat-project/contracts/RecordFactory.sol\":1265:1910  contract AddressRecord is Record {... */\n  jump(tag_8)\n    /* \"#utility.yul\":88:205   */\ntag_10:\n    /* \"#utility.yul\":197:198   */\n  0x00\n    /* \"#utility.yul\":194:195   */\n  dup1\n    /* \"#utility.yul\":187:199   */\n  revert\n    /* \"#utility.yul\":334:411   */\ntag_12:\n    /* \"#utility.yul\":371:378   */\n  0x00\n    /* \"#utility.yul\":400:405   */\n  dup2\n    /* \"#utility.yul\":389:405   */\n  swap1\n  pop\n    /* \"#utility.yul\":334:411   */\n  swap2\n  swap1\n  pop\n  jump\t// out\n    /* \"#utility.yul\":417:539   */\ntag_13:\n    /* \"#utility.yul\":490:514   */\n  tag_25\n    /* \"#utility.yul\":508:513   */\n  dup2\n    /* \"#utility.yul\":490:514   */\n  tag_12\n  jump\t// in\ntag_25:\n    /* \"#utility.yul\":483:488   */\n  dup2\n    /* \"#utility.yul\":480:515   */\n  eq\n    /* \"#utility.yul\":470:533   */\n  tag_26\n  jumpi\n    /* \"#utility.yul\":529:530   */\n  0x00\n    /* \"#utility.yul\":526:527   */\n  dup1\n    /* \"#utility.yul\":519:531   */\n  revert\n    /* \"#utility.yul\":470:533   */\ntag_26:\n    /* \"#utility.yul\":417:539   */\n  pop\n  jump\t// out\n    /* \"#utility.yul\":545:688   */\ntag_14:\n    /* \"#utility.yul\":602:607   */\n  0x00\n    /* \"#utility.yul\":633:639   */\n  dup2\n    /* \"#utility.yul\":627:640   */\n  mload\n    /* \"#utility.yul\":618:640   */\n  swap1\n  pop\n    /* \"#utility.yul\":649:682   */\n  tag_28\n    /* \"#utility.yul\":676:681   */\n  dup2\n    /* \"#utility.yul\":649:682   */\n  tag_13\n  jump\t// in\ntag_28:\n    /* \"#utility.yul\":545:688   */\n  swap3\n  swap2\n  pop\n  pop\n  jump\t// out\n    /* \"#utility.yul\":694:820   */\ntag_15:\n    /* \"#utility.yul\":731:738   */\n  0x00\n    /* \"#utility.yul\":771:813   */\n  0xffffffffffffffffffffffffffffffffffffffff\n    /* \"#utility.yul\":764:769   */\n  dup3\n    /* \"#utility.yul\":760:814   */\n  and\n    /* \"#utility.yul\":749:814   */\n  swap1\n  pop\n    /* \"#utility.yul\":694:820   */\n  swap2\n  swap1\n  pop\n  jump\t// out\n    /* \"#utility.yul\":826:922   */\ntag_16:\n    /* \"#utility.yul\":863:870   */\n  0x00\n    /* \"#utility.yul\":892:916   */\n  tag_31\n    /* \"#utility.yul\":910:915   */\n  dup3\n    /* \"#utility.yul\":892:916   */\n  tag_15\n  jump\t// in\ntag_31:\n    /* \"#utility.yul\":881:916   */\n  swap1\n  pop\n    /* \"#utility.yul\":826:922   */\n  swap2\n  swap1\n  pop\n  jump\t// out\n    /* \"#utility.yul\":928:1050   */\ntag_17:\n    /* \"#utility.yul\":1001:1025   */\n  tag_33\n    /* \"#utility.yul\":1019:1024   */\n  dup2\n    /* \"#utility.yul\":1001:1025   */\n  tag_16\n  jump\t// in\ntag_33:\n    /* \"#utility.yul\":994:999   */\n  dup2\n    /* \"#utility.yul\":991:1026   */\n  eq\n    /* \"#utility.yul\":981:1044   */\n  tag_34\n  jumpi\n    /* \"#utility.yul\":1040:1041   */\n  0x00\n    /* \"#utility.yul\":1037:1038   */\n  dup1\n    /* \"#utility.yul\":1030:1042   */\n  revert\n    /* \"#utility.yul\":981:1044   */\ntag_34:\n    /* \"#utility.yul\":928:1050   */\n  pop\n  jump\t// out\n    /* \"#utility.yul\":1056:1199   */\ntag_18:\n    /* \"#utility.yul\":1113:1118   */\n  0x00\n    /* \"#utility.yul\":1144:1150   */\n  dup2\n    /* \"#utility.yul\":1138:1151   */\n  mload\n    /* \"#utility.yul\":1129:1151   */\n  swap1\n  pop\n    /* \"#utility.yul\":1160:1193   */\n  tag_36\n    /* \"#utility.yul\":1187:1192   */\n  dup2\n    /* \"#utility.yul\":1160:1193   */\n  tag_17\n  jump\t// in\ntag_36:\n    /* \"#utility.yul\":1056:1199   */\n  swap3\n  swap2\n  pop\n  pop\n  jump\t// out\n    /* \"#utility.yul\":1205:1712   */\ntag_3:\n    /* \"#utility.yul\":1284:1290   */\n  0x00\n    /* \"#utility.yul\":1292:1298   */\n  dup1\n    /* \"#utility.yul\":1341:1343   */\n  0x40\n    /* \"#utility.yul\":1329:1338   */\n  dup4\n    /* \"#utility.yul\":1320:1327   */\n  dup6\n    /* \"#utility.yul\":1316:1339   */\n  sub\n    /* \"#utility.yul\":1312:1344   */\n  slt\n    /* \"#utility.yul\":1309:1428   */\n  iszero\n  tag_38\n  jumpi\n    /* \"#utility.yul\":1347:1426   */\n  tag_39\n  tag_10\n  jump\t// in\ntag_39:\n    /* \"#utility.yul\":1309:1428   */\ntag_38:\n    /* \"#utility.yul\":1467:1468   */\n  0x00\n    /* \"#utility.yul\":1492:1556   */\n  tag_40\n    /* \"#utility.yul\":1548:1555   */\n  dup6\n    /* \"#utility.yul\":1539:1545   */\n  dup3\n    /* \"#utility.yul\":1528:1537   */\n  dup7\n    /* \"#utility.yul\":1524:1546   */\n  add\n    /* \"#utility.yul\":1492:1556   */\n  tag_14\n  jump\t// in\ntag_40:\n    /* \"#utility.yul\":1482:1556   */\n  swap3\n  pop\n    /* \"#utility.yul\":1438:1566   */\n  pop\n    /* \"#utility.yul\":1605:1607   */\n  0x20\n    /* \"#utility.yul\":1631:1695   */\n  tag_41\n    /* \"#utility.yul\":1687:1694   */\n  dup6\n    /* \"#utility.yul\":1678:1684   */\n  dup3\n    /* \"#utility.yul\":1667:1676   */\n  dup7\n    /* \"#utility.yul\":1663:1685   */\n  add\n    /* \"#utility.yul\":1631:1695   */\n  tag_18\n  jump\t// in\ntag_41:\n    /* \"#utility.yul\":1621:1695   */\n  swap2\n  pop\n    /* \"#utility.yul\":1576:1705   */\n  pop\n    /* \"#utility.yul\":1205:1712   */\n  swap3\n  pop\n  swap3\n  swap1\n  pop\n  jump\t// out\n    /* \"Solidity/Hardhat/my-hardhat-project/contracts/RecordFactory.sol\":1265:1910  contract AddressRecord is Record {... */\ntag_8:\n  dataSize(sub_0)\n  dup1\n  dataOffset(sub_0)\n  0x00\n  codecopy\n  0x00\n  return\nstop\n\nsub_0: assembly {\n        /* \"Solidity/Hardhat/my-hardhat-project/contracts/RecordFactory.sol\":1265:1910  contract AddressRecord is Record {... */\n      mstore(0x40, 0x80)\n      callvalue\n      dup1\n      iszero\n      tag_1\n      jumpi\n      0x00\n      dup1\n      revert\n    tag_1:\n      pop\n      jumpi(tag_2, lt(calldatasize, 0x04))\n      shr(0xe0, calldataload(0x00))\n      dup1\n      0x0781f5c9\n      eq\n      tag_3\n      jumpi\n      dup1\n      0x1dcd69ec\n      eq\n      tag_4\n      jumpi\n      dup1\n      0x266cf109\n      eq\n      tag_5\n      jumpi\n      dup1\n      0xc37787d9\n      eq\n      tag_6\n      jumpi\n    tag_2:\n      0x00\n      dup1\n      revert\n        /* \"Solidity/Hardhat/my-hardhat-project/contracts/RecordFactory.sol\":1667:1772  function getRecordType() public pure override returns (string memory) {... */\n    tag_3:\n      tag_7\n      tag_8\n      jump\t// in\n    tag_7:\n      mload(0x40)\n      tag_9\n      swap2\n      swap1\n      tag_10\n      jump\t// in\n    tag_9:\n      mload(0x40)\n      dup1\n      swap2\n      sub\n      swap1\n      return\n        /* \"Solidity/Hardhat/my-hardhat-project/contracts/RecordFactory.sol\":94:123  uint256 public timeOfCreation */\n    tag_4:\n      tag_11\n      tag_12\n      jump\t// in\n    tag_11:\n      mload(0x40)\n      tag_13\n      swap2\n      swap1\n      tag_14\n      jump\t// in\n    tag_13:\n      mload(0x40)\n      dup1\n      swap2\n      sub\n      swap1\n      return\n        /* \"Solidity/Hardhat/my-hardhat-project/contracts/RecordFactory.sol\":1305:1326  address public record */\n    tag_5:\n      tag_15\n      tag_16\n      jump\t// in\n    tag_15:\n      mload(0x40)\n      tag_17\n      swap2\n      swap1\n      tag_18\n      jump\t// in\n    tag_17:\n      mload(0x40)\n      dup1\n      swap2\n      sub\n      swap1\n      return\n        /* \"Solidity/Hardhat/my-hardhat-project/contracts/RecordFactory.sol\":1825:1907  function setRecord(address newRecord) public {... */\n    tag_6:\n      tag_19\n      0x04\n      dup1\n      calldatasize\n      sub\n      dup2\n      add\n      swap1\n      tag_20\n      swap2\n      swap1\n      tag_21\n      jump\t// in\n    tag_20:\n      tag_22\n      jump\t// in\n    tag_19:\n      stop\n        /* \"Solidity/Hardhat/my-hardhat-project/contracts/RecordFactory.sol\":1667:1772  function getRecordType() public pure override returns (string memory) {... */\n    tag_8:\n        /* \"Solidity/Hardhat/my-hardhat-project/contracts/RecordFactory.sol\":1722:1735  string memory */\n      0x60\n        /* \"Solidity/Hardhat/my-hardhat-project/contracts/RecordFactory.sol\":1748:1764  return \"address\" */\n      mload(0x40)\n      dup1\n      0x40\n      add\n      0x40\n      mstore\n      dup1\n      0x07\n      dup2\n      mstore\n      0x20\n      add\n      0x6164647265737300000000000000000000000000000000000000000000000000\n      dup2\n      mstore\n      pop\n      swap1\n      pop\n        /* \"Solidity/Hardhat/my-hardhat-project/contracts/RecordFactory.sol\":1667:1772  function getRecordType() public pure override returns (string memory) {... */\n      swap1\n      jump\t// out\n        /* \"Solidity/Hardhat/my-hardhat-project/contracts/RecordFactory.sol\":94:123  uint256 public timeOfCreation */\n    tag_12:\n      sload(0x00)\n      dup2\n      jump\t// out\n        /* \"Solidity/Hardhat/my-hardhat-project/contracts/RecordFactory.sol\":1305:1326  address public record */\n    tag_16:\n      0x01\n      0x00\n      swap1\n      sload\n      swap1\n      0x0100\n      exp\n      swap1\n      div\n      0xffffffffffffffffffffffffffffffffffffffff\n      and\n      dup2\n      jump\t// out\n        /* \"Solidity/Hardhat/my-hardhat-project/contracts/RecordFactory.sol\":1825:1907  function setRecord(address newRecord) public {... */\n    tag_22:\n        /* \"Solidity/Hardhat/my-hardhat-project/contracts/RecordFactory.sol\":1890:1899  newRecord */\n      dup1\n        /* \"Solidity/Hardhat/my-hardhat-project/contracts/RecordFactory.sol\":1881:1887  record */\n      0x01\n      0x00\n        /* \"Solidity/Hardhat/my-hardhat-project/contracts/RecordFactory.sol\":1881:1899  record = newRecord */\n      0x0100\n      exp\n      dup2\n      sload\n      dup2\n      0xffffffffffffffffffffffffffffffffffffffff\n      mul\n      not\n      and\n      swap1\n      dup4\n      0xffffffffffffffffffffffffffffffffffffffff\n      and\n      mul\n      or\n      swap1\n      sstore\n      pop\n        /* \"Solidity/Hardhat/my-hardhat-project/contracts/RecordFactory.sol\":1825:1907  function setRecord(address newRecord) public {... */\n      pop\n      jump\t// out\n        /* \"#utility.yul\":7:106   */\n    tag_25:\n        /* \"#utility.yul\":59:65   */\n      0x00\n        /* \"#utility.yul\":93:98   */\n      dup2\n        /* \"#utility.yul\":87:99   */\n      mload\n        /* \"#utility.yul\":77:99   */\n      swap1\n      pop\n        /* \"#utility.yul\":7:106   */\n      swap2\n      swap1\n      pop\n      jump\t// out\n        /* \"#utility.yul\":112:281   */\n    tag_26:\n        /* \"#utility.yul\":196:207   */\n      0x00\n        /* \"#utility.yul\":230:236   */\n      dup3\n        /* \"#utility.yul\":225:228   */\n      dup3\n        /* \"#utility.yul\":218:237   */\n      mstore\n        /* \"#utility.yul\":270:274   */\n      0x20\n        /* \"#utility.yul\":265:268   */\n      dup3\n        /* \"#utility.yul\":261:275   */\n      add\n        /* \"#utility.yul\":246:275   */\n      swap1\n      pop\n        /* \"#utility.yul\":112:281   */\n      swap3\n      swap2\n      pop\n      pop\n      jump\t// out\n        /* \"#utility.yul\":287:533   */\n    tag_27:\n        /* \"#utility.yul\":368:369   */\n      0x00\n        /* \"#utility.yul\":378:491   */\n    tag_44:\n        /* \"#utility.yul\":392:398   */\n      dup4\n        /* \"#utility.yul\":389:390   */\n      dup2\n        /* \"#utility.yul\":386:399   */\n      lt\n        /* \"#utility.yul\":378:491   */\n      iszero\n      tag_46\n      jumpi\n        /* \"#utility.yul\":477:478   */\n      dup1\n        /* \"#utility.yul\":472:475   */\n      dup3\n        /* \"#utility.yul\":468:479   */\n      add\n        /* \"#utility.yul\":462:480   */\n      mload\n        /* \"#utility.yul\":458:459   */\n      dup2\n        /* \"#utility.yul\":453:456   */\n      dup5\n        /* \"#utility.yul\":449:460   */\n      add\n        /* \"#utility.yul\":442:481   */\n      mstore\n        /* \"#utility.yul\":414:416   */\n      0x20\n        /* \"#utility.yul\":411:412   */\n      dup2\n        /* \"#utility.yul\":407:417   */\n      add\n        /* \"#utility.yul\":402:417   */\n      swap1\n      pop\n        /* \"#utility.yul\":378:491   */\n      jump(tag_44)\n    tag_46:\n        /* \"#utility.yul\":525:526   */\n      0x00\n        /* \"#utility.yul\":516:522   */\n      dup5\n        /* \"#utility.yul\":511:514   */\n      dup5\n        /* \"#utility.yul\":507:523   */\n      add\n        /* \"#utility.yul\":500:527   */\n      mstore\n        /* \"#utility.yul\":349:533   */\n      pop\n        /* \"#utility.yul\":287:533   */\n      pop\n      pop\n      pop\n      jump\t// out\n        /* \"#utility.yul\":539:641   */\n    tag_28:\n        /* \"#utility.yul\":580:586   */\n      0x00\n        /* \"#utility.yul\":631:633   */\n      0x1f\n        /* \"#utility.yul\":627:634   */\n      not\n        /* \"#utility.yul\":622:624   */\n      0x1f\n        /* \"#utility.yul\":615:620   */\n      dup4\n        /* \"#utility.yul\":611:625   */\n      add\n        /* \"#utility.yul\":607:635   */\n      and\n        /* \"#utility.yul\":597:635   */\n      swap1\n      pop\n        /* \"#utility.yul\":539:641   */\n      swap2\n      swap1\n      pop\n      jump\t// out\n        /* \"#utility.yul\":647:1024   */\n    tag_29:\n        /* \"#utility.yul\":735:738   */\n      0x00\n        /* \"#utility.yul\":763:802   */\n      tag_49\n        /* \"#utility.yul\":796:801   */\n      dup3\n        /* \"#utility.yul\":763:802   */\n      tag_25\n      jump\t// in\n    tag_49:\n        /* \"#utility.yul\":818:889   */\n      tag_50\n        /* \"#utility.yul\":882:888   */\n      dup2\n        /* \"#utility.yul\":877:880   */\n      dup6\n        /* \"#utility.yul\":818:889   */\n      tag_26\n      jump\t// in\n    tag_50:\n        /* \"#utility.yul\":811:889   */\n      swap4\n      pop\n        /* \"#utility.yul\":898:963   */\n      tag_51\n        /* \"#utility.yul\":956:962   */\n      dup2\n        /* \"#utility.yul\":951:954   */\n      dup6\n        /* \"#utility.yul\":944:948   */\n      0x20\n        /* \"#utility.yul\":937:942   */\n      dup7\n        /* \"#utility.yul\":933:949   */\n      add\n        /* \"#utility.yul\":898:963   */\n      tag_27\n      jump\t// in\n    tag_51:\n        /* \"#utility.yul\":988:1017   */\n      tag_52\n        /* \"#utility.yul\":1010:1016   */\n      dup2\n        /* \"#utility.yul\":988:1017   */\n      tag_28\n      jump\t// in\n    tag_52:\n        /* \"#utility.yul\":983:986   */\n      dup5\n        /* \"#utility.yul\":979:1018   */\n      add\n        /* \"#utility.yul\":972:1018   */\n      swap2\n      pop\n        /* \"#utility.yul\":739:1024   */\n      pop\n        /* \"#utility.yul\":647:1024   */\n      swap3\n      swap2\n      pop\n      pop\n      jump\t// out\n        /* \"#utility.yul\":1030:1343   */\n    tag_10:\n        /* \"#utility.yul\":1143:1147   */\n      0x00\n        /* \"#utility.yul\":1181:1183   */\n      0x20\n        /* \"#utility.yul\":1170:1179   */\n      dup3\n        /* \"#utility.yul\":1166:1184   */\n      add\n        /* \"#utility.yul\":1158:1184   */\n      swap1\n      pop\n        /* \"#utility.yul\":1230:1239   */\n      dup2\n        /* \"#utility.yul\":1224:1228   */\n      dup2\n        /* \"#utility.yul\":1220:1240   */\n      sub\n        /* \"#utility.yul\":1216:1217   */\n      0x00\n        /* \"#utility.yul\":1205:1214   */\n      dup4\n        /* \"#utility.yul\":1201:1218   */\n      add\n        /* \"#utility.yul\":1194:1241   */\n      mstore\n        /* \"#utility.yul\":1258:1336   */\n      tag_54\n        /* \"#utility.yul\":1331:1335   */\n      dup2\n        /* \"#utility.yul\":1322:1328   */\n      dup5\n        /* \"#utility.yul\":1258:1336   */\n      tag_29\n      jump\t// in\n    tag_54:\n        /* \"#utility.yul\":1250:1336   */\n      swap1\n      pop\n        /* \"#utility.yul\":1030:1343   */\n      swap3\n      swap2\n      pop\n      pop\n      jump\t// out\n        /* \"#utility.yul\":1349:1426   */\n    tag_30:\n        /* \"#utility.yul\":1386:1393   */\n      0x00\n        /* \"#utility.yul\":1415:1420   */\n      dup2\n        /* \"#utility.yul\":1404:1420   */\n      swap1\n      pop\n        /* \"#utility.yul\":1349:1426   */\n      swap2\n      swap1\n      pop\n      jump\t// out\n        /* \"#utility.yul\":1432:1550   */\n    tag_31:\n        /* \"#utility.yul\":1519:1543   */\n      tag_57\n        /* \"#utility.yul\":1537:1542   */\n      dup2\n        /* \"#utility.yul\":1519:1543   */\n      tag_30\n      jump\t// in\n    tag_57:\n        /* \"#utility.yul\":1514:1517   */\n      dup3\n        /* \"#utility.yul\":1507:1544   */\n      mstore\n        /* \"#utility.yul\":1432:1550   */\n      pop\n      pop\n      jump\t// out\n        /* \"#utility.yul\":1556:1778   */\n    tag_14:\n        /* \"#utility.yul\":1649:1653   */\n      0x00\n        /* \"#utility.yul\":1687:1689   */\n      0x20\n        /* \"#utility.yul\":1676:1685   */\n      dup3\n        /* \"#utility.yul\":1672:1690   */\n      add\n        /* \"#utility.yul\":1664:1690   */\n      swap1\n      pop\n        /* \"#utility.yul\":1700:1771   */\n      tag_59\n        /* \"#utility.yul\":1768:1769   */\n      0x00\n        /* \"#utility.yul\":1757:1766   */\n      dup4\n        /* \"#utility.yul\":1753:1770   */\n      add\n        /* \"#utility.yul\":1744:1750   */\n      dup5\n        /* \"#utility.yul\":1700:1771   */\n      tag_31\n      jump\t// in\n    tag_59:\n        /* \"#utility.yul\":1556:1778   */\n      swap3\n      swap2\n      pop\n      pop\n      jump\t// out\n        /* \"#utility.yul\":1784:1910   */\n    tag_32:\n        /* \"#utility.yul\":1821:1828   */\n      0x00\n        /* \"#utility.yul\":1861:1903   */\n      0xffffffffffffffffffffffffffffffffffffffff\n        /* \"#utility.yul\":1854:1859   */\n      dup3\n        /* \"#utility.yul\":1850:1904   */\n      and\n        /* \"#utility.yul\":1839:1904   */\n      swap1\n      pop\n        /* \"#utility.yul\":1784:1910   */\n      swap2\n      swap1\n      pop\n      jump\t// out\n        /* \"#utility.yul\":1916:2012   */\n    tag_33:\n        /* \"#utility.yul\":1953:1960   */\n      0x00\n        /* \"#utility.yul\":1982:2006   */\n      tag_62\n        /* \"#utility.yul\":2000:2005   */\n      dup3\n        /* \"#utility.yul\":1982:2006   */\n      tag_32\n      jump\t// in\n    tag_62:\n        /* \"#utility.yul\":1971:2006   */\n      swap1\n      pop\n        /* \"#utility.yul\":1916:2012   */\n      swap2\n      swap1\n      pop\n      jump\t// out\n        /* \"#utility.yul\":2018:2136   */\n    tag_34:\n        /* \"#utility.yul\":2105:2129   */\n      tag_64\n        /* \"#utility.yul\":2123:2128   */\n      dup2\n        /* \"#utility.yul\":2105:2129   */\n      tag_33\n      jump\t// in\n    tag_64:\n        /* \"#utility.yul\":2100:2103   */\n      dup3\n        /* \"#utility.yul\":2093:2130   */\n      mstore\n        /* \"#utility.yul\":2018:2136   */\n      pop\n      pop\n      jump\t// out\n        /* \"#utility.yul\":2142:2364   */\n    tag_18:\n        /* \"#utility.yul\":2235:2239   */\n      0x00\n        /* \"#utility.yul\":2273:2275   */\n      0x20\n        /* \"#utility.yul\":2262:2271   */\n      dup3\n        /* \"#utility.yul\":2258:2276   */\n      add\n        /* \"#utility.yul\":2250:2276   */\n      swap1\n      pop\n        /* \"#utility.yul\":2286:2357   */\n      tag_66\n        /* \"#utility.yul\":2354:2355   */\n      0x00\n        /* \"#utility.yul\":2343:2352   */\n      dup4\n        /* \"#utility.yul\":2339:2356   */\n      add\n        /* \"#utility.yul\":2330:2336   */\n      dup5\n        /* \"#utility.yul\":2286:2357   */\n      tag_34\n      jump\t// in\n    tag_66:\n        /* \"#utility.yul\":2142:2364   */\n      swap3\n      swap2\n      pop\n      pop\n      jump\t// out\n        /* \"#utility.yul\":2451:2568   */\n    tag_36:\n        /* \"#utility.yul\":2560:2561   */\n      0x00\n        /* \"#utility.yul\":2557:2558   */\n      dup1\n        /* \"#utility.yul\":2550:2562   */\n      revert\n        /* \"#utility.yul\":2697:2819   */\n    tag_38:\n        /* \"#utility.yul\":2770:2794   */\n      tag_71\n        /* \"#utility.yul\":2788:2793   */\n      dup2\n        /* \"#utility.yul\":2770:2794   */\n      tag_33\n      jump\t// in\n    tag_71:\n        /* \"#utility.yul\":2763:2768   */\n      dup2\n        /* \"#utility.yul\":2760:2795   */\n      eq\n        /* \"#utility.yul\":2750:2813   */\n      tag_72\n      jumpi\n        /* \"#utility.yul\":2809:2810   */\n      0x00\n        /* \"#utility.yul\":2806:2807   */\n      dup1\n        /* \"#utility.yul\":2799:2811   */\n      revert\n        /* \"#utility.yul\":2750:2813   */\n    tag_72:\n        /* \"#utility.yul\":2697:2819   */\n      pop\n      jump\t// out\n        /* \"#utility.yul\":2825:2964   */\n    tag_39:\n        /* \"#utility.yul\":2871:2876   */\n      0x00\n        /* \"#utility.yul\":2909:2915   */\n      dup2\n        /* \"#utility.yul\":2896:2916   */\n      calldataload\n        /* \"#utility.yul\":2887:2916   */\n      swap1\n      pop\n        /* \"#utility.yul\":2925:2958   */\n      tag_74\n        /* \"#utility.yul\":2952:2957   */\n      dup2\n        /* \"#utility.yul\":2925:2958   */\n      tag_38\n      jump\t// in\n    tag_74:\n        /* \"#utility.yul\":2825:2964   */\n      swap3\n      swap2\n      pop\n      pop\n      jump\t// out\n        /* \"#utility.yul\":2970:3299   */\n    tag_21:\n        /* \"#utility.yul\":3029:3035   */\n      0x00\n        /* \"#utility.yul\":3078:3080   */\n      0x20\n        /* \"#utility.yul\":3066:3075   */\n      dup3\n        /* \"#utility.yul\":3057:3064   */\n      dup5\n        /* \"#utility.yul\":3053:3076   */\n      sub\n        /* \"#utility.yul\":3049:3081   */\n      slt\n        /* \"#utility.yul\":3046:3165   */\n      iszero\n      tag_76\n      jumpi\n        /* \"#utility.yul\":3084:3163   */\n      tag_77\n      tag_36\n      jump\t// in\n    tag_77:\n        /* \"#utility.yul\":3046:3165   */\n    tag_76:\n        /* \"#utility.yul\":3204:3205   */\n      0x00\n        /* \"#utility.yul\":3229:3282   */\n      tag_78\n        /* \"#utility.yul\":3274:3281   */\n      dup5\n        /* \"#utility.yul\":3265:3271   */\n      dup3\n        /* \"#utility.yul\":3254:3263   */\n      dup6\n        /* \"#utility.yul\":3250:3272   */\n      add\n        /* \"#utility.yul\":3229:3282   */\n      tag_39\n      jump\t// in\n    tag_78:\n        /* \"#utility.yul\":3219:3282   */\n      swap2\n      pop\n        /* \"#utility.yul\":3175:3292   */\n      pop\n        /* \"#utility.yul\":2970:3299   */\n      swap3\n      swap2\n      pop\n      pop\n      jump\t// out\n\n    auxdata: 0xa2646970667358221220474c132c1f908da689632d8bfcffda56e196f39bdd830530268710998d5eda4e64736f6c63430008160033\n}\n",
				"bytecode": {
					"linkReferences": {},
					"object": "608060405234801561000f575f80fd5b5060405161048c38038061048c83398181016040528101906100319190610111565b81805f81905550508060015f6101000a81548173ffffffffffffffffffffffffffffffffffffffff021916908373ffffffffffffffffffffffffffffffffffffffff160217905550505061014f565b5f80fd5b5f819050919050565b61009681610084565b81146100a0575f80fd5b50565b5f815190506100b18161008d565b92915050565b5f73ffffffffffffffffffffffffffffffffffffffff82169050919050565b5f6100e0826100b7565b9050919050565b6100f0816100d6565b81146100fa575f80fd5b50565b5f8151905061010b816100e7565b92915050565b5f806040838503121561012757610126610080565b5b5f610134858286016100a3565b9250506020610145858286016100fd565b9150509250929050565b6103308061015c5f395ff3fe608060405234801561000f575f80fd5b506004361061004a575f3560e01c80630781f5c91461004e5780631dcd69ec1461006c578063266cf1091461008a578063c37787d9146100a8575b5f80fd5b6100566100c4565b60405161006391906101f8565b60405180910390f35b610074610101565b6040516100819190610230565b60405180910390f35b610092610106565b60405161009f9190610288565b60405180910390f35b6100c260048036038101906100bd91906102cf565b61012b565b005b60606040518060400160405280600781526020017f6164647265737300000000000000000000000000000000000000000000000000815250905090565b5f5481565b60015f9054906101000a900473ffffffffffffffffffffffffffffffffffffffff1681565b8060015f6101000a81548173ffffffffffffffffffffffffffffffffffffffff021916908373ffffffffffffffffffffffffffffffffffffffff16021790555050565b5f81519050919050565b5f82825260208201905092915050565b5f5b838110156101a557808201518184015260208101905061018a565b5f8484015250505050565b5f601f19601f8301169050919050565b5f6101ca8261016e565b6101d48185610178565b93506101e4818560208601610188565b6101ed816101b0565b840191505092915050565b5f6020820190508181035f83015261021081846101c0565b905092915050565b5f819050919050565b61022a81610218565b82525050565b5f6020820190506102435f830184610221565b92915050565b5f73ffffffffffffffffffffffffffffffffffffffff82169050919050565b5f61027282610249565b9050919050565b61028281610268565b82525050565b5f60208201905061029b5f830184610279565b92915050565b5f80fd5b6102ae81610268565b81146102b8575f80fd5b50565b5f813590506102c9816102a5565b92915050565b5f602082840312156102e4576102e36102a1565b5b5f6102f1848285016102bb565b9150509291505056fea2646970667358221220474c132c1f908da689632d8bfcffda56e196f39bdd830530268710998d5eda4e64736f6c63430008160033",
					"opcodes": "PUSH1 0x80 PUSH1 0x40 MSTORE CALLVALUE DUP1 ISZERO PUSH2 0xF JUMPI PUSH0 DUP1 REVERT JUMPDEST POP PUSH1 0x40 MLOAD PUSH2 0x48C CODESIZE SUB DUP1 PUSH2 0x48C DUP4 CODECOPY DUP2 DUP2 ADD PUSH1 0x40 MSTORE DUP2 ADD SWAP1 PUSH2 0x31 SWAP2 SWAP1 PUSH2 0x111 JUMP JUMPDEST DUP2 DUP1 PUSH0 DUP2 SWAP1 SSTORE POP POP DUP1 PUSH1 0x1 PUSH0 PUSH2 0x100 EXP DUP2 SLOAD DUP2 PUSH20 0xFFFFFFFFFFFFFFFFFFFFFFFFFFFFFFFFFFFFFFFF MUL NOT AND SWAP1 DUP4 PUSH20 0xFFFFFFFFFFFFFFFFFFFFFFFFFFFFFFFFFFFFFFFF AND MUL OR SWAP1 SSTORE POP POP POP PUSH2 0x14F JUMP JUMPDEST PUSH0 DUP1 REVERT JUMPDEST PUSH0 DUP2 SWAP1 POP SWAP2 SWAP1 POP JUMP JUMPDEST PUSH2 0x96 DUP2 PUSH2 0x84 JUMP JUMPDEST DUP2 EQ PUSH2 0xA0 JUMPI PUSH0 DUP1 REVERT JUMPDEST POP JUMP JUMPDEST PUSH0 DUP2 MLOAD SWAP1 POP PUSH2 0xB1 DUP2 PUSH2 0x8D JUMP JUMPDEST SWAP3 SWAP2 POP POP JUMP JUMPDEST PUSH0 PUSH20 0xFFFFFFFFFFFFFFFFFFFFFFFFFFFFFFFFFFFFFFFF DUP3 AND SWAP1 POP SWAP2 SWAP1 POP JUMP JUMPDEST PUSH0 PUSH2 0xE0 DUP3 PUSH2 0xB7 JUMP JUMPDEST SWAP1 POP SWAP2 SWAP1 POP JUMP JUMPDEST PUSH2 0xF0 DUP2 PUSH2 0xD6 JUMP JUMPDEST DUP2 EQ PUSH2 0xFA JUMPI PUSH0 DUP1 REVERT JUMPDEST POP JUMP JUMPDEST PUSH0 DUP2 MLOAD SWAP1 POP PUSH2 0x10B DUP2 PUSH2 0xE7 JUMP JUMPDEST SWAP3 SWAP2 POP POP JUMP JUMPDEST PUSH0 DUP1 PUSH1 0x40 DUP4 DUP6 SUB SLT ISZERO PUSH2 0x127 JUMPI PUSH2 0x126 PUSH2 0x80 JUMP JUMPDEST JUMPDEST PUSH0 PUSH2 0x134 DUP6 DUP3 DUP7 ADD PUSH2 0xA3 JUMP JUMPDEST SWAP3 POP POP PUSH1 0x20 PUSH2 0x145 DUP6 DUP3 DUP7 ADD PUSH2 0xFD JUMP JUMPDEST SWAP2 POP POP SWAP3 POP SWAP3 SWAP1 POP JUMP JUMPDEST PUSH2 0x330 DUP1 PUSH2 0x15C PUSH0 CODECOPY PUSH0 RETURN INVALID PUSH1 0x80 PUSH1 0x40 MSTORE CALLVALUE DUP1 ISZERO PUSH2 0xF JUMPI PUSH0 DUP1 REVERT JUMPDEST POP PUSH1 0x4 CALLDATASIZE LT PUSH2 0x4A JUMPI PUSH0 CALLDATALOAD PUSH1 0xE0 SHR DUP1 PUSH4 0x781F5C9 EQ PUSH2 0x4E JUMPI DUP1 PUSH4 0x1DCD69EC EQ PUSH2 0x6C JUMPI DUP1 PUSH4 0x266CF109 EQ PUSH2 0x8A JUMPI DUP1 PUSH4 0xC37787D9 EQ PUSH2 0xA8 JUMPI JUMPDEST PUSH0 DUP1 REVERT JUMPDEST PUSH2 0x56 PUSH2 0xC4 JUMP JUMPDEST PUSH1 0x40 MLOAD PUSH2 0x63 SWAP2 SWAP1 PUSH2 0x1F8 JUMP JUMPDEST PUSH1 0x40 MLOAD DUP1 SWAP2 SUB SWAP1 RETURN JUMPDEST PUSH2 0x74 PUSH2 0x101 JUMP JUMPDEST PUSH1 0x40 MLOAD PUSH2 0x81 SWAP2 SWAP1 PUSH2 0x230 JUMP JUMPDEST PUSH1 0x40 MLOAD DUP1 SWAP2 SUB SWAP1 RETURN JUMPDEST PUSH2 0x92 PUSH2 0x106 JUMP JUMPDEST PUSH1 0x40 MLOAD PUSH2 0x9F SWAP2 SWAP1 PUSH2 0x288 JUMP JUMPDEST PUSH1 0x40 MLOAD DUP1 SWAP2 SUB SWAP1 RETURN JUMPDEST PUSH2 0xC2 PUSH1 0x4 DUP1 CALLDATASIZE SUB DUP2 ADD SWAP1 PUSH2 0xBD SWAP2 SWAP1 PUSH2 0x2CF JUMP JUMPDEST PUSH2 0x12B JUMP JUMPDEST STOP JUMPDEST PUSH1 0x60 PUSH1 0x40 MLOAD DUP1 PUSH1 0x40 ADD PUSH1 0x40 MSTORE DUP1 PUSH1 0x7 DUP2 MSTORE PUSH1 0x20 ADD PUSH32 0x6164647265737300000000000000000000000000000000000000000000000000 DUP2 MSTORE POP SWAP1 POP SWAP1 JUMP JUMPDEST PUSH0 SLOAD DUP2 JUMP JUMPDEST PUSH1 0x1 PUSH0 SWAP1 SLOAD SWAP1 PUSH2 0x100 EXP SWAP1 DIV PUSH20 0xFFFFFFFFFFFFFFFFFFFFFFFFFFFFFFFFFFFFFFFF AND DUP2 JUMP JUMPDEST DUP1 PUSH1 0x1 PUSH0 PUSH2 0x100 EXP DUP2 SLOAD DUP2 PUSH20 0xFFFFFFFFFFFFFFFFFFFFFFFFFFFFFFFFFFFFFFFF MUL NOT AND SWAP1 DUP4 PUSH20 0xFFFFFFFFFFFFFFFFFFFFFFFFFFFFFFFFFFFFFFFF AND MUL OR SWAP1 SSTORE POP POP JUMP JUMPDEST PUSH0 DUP2 MLOAD SWAP1 POP SWAP2 SWAP1 POP JUMP JUMPDEST PUSH0 DUP3 DUP3 MSTORE PUSH1 0x20 DUP3 ADD SWAP1 POP SWAP3 SWAP2 POP POP JUMP JUMPDEST PUSH0 JUMPDEST DUP4 DUP2 LT ISZERO PUSH2 0x1A5 JUMPI DUP1 DUP3 ADD MLOAD DUP2 DUP5 ADD MSTORE PUSH1 0x20 DUP2 ADD SWAP1 POP PUSH2 0x18A JUMP JUMPDEST PUSH0 DUP5 DUP5 ADD MSTORE POP POP POP POP JUMP JUMPDEST PUSH0 PUSH1 0x1F NOT PUSH1 0x1F DUP4 ADD AND SWAP1 POP SWAP2 SWAP1 POP JUMP JUMPDEST PUSH0 PUSH2 0x1CA DUP3 PUSH2 0x16E JUMP JUMPDEST PUSH2 0x1D4 DUP2 DUP6 PUSH2 0x178 JUMP JUMPDEST SWAP4 POP PUSH2 0x1E4 DUP2 DUP6 PUSH1 0x20 DUP7 ADD PUSH2 0x188 JUMP JUMPDEST PUSH2 0x1ED DUP2 PUSH2 0x1B0 JUMP JUMPDEST DUP5 ADD SWAP2 POP POP SWAP3 SWAP2 POP POP JUMP JUMPDEST PUSH0 PUSH1 0x20 DUP3 ADD SWAP1 POP DUP2 DUP2 SUB PUSH0 DUP4 ADD MSTORE PUSH2 0x210 DUP2 DUP5 PUSH2 0x1C0 JUMP JUMPDEST SWAP1 POP SWAP3 SWAP2 POP POP JUMP JUMPDEST PUSH0 DUP2 SWAP1 POP SWAP2 SWAP1 POP JUMP JUMPDEST PUSH2 0x22A DUP2 PUSH2 0x218 JUMP JUMPDEST DUP3 MSTORE POP POP JUMP JUMPDEST PUSH0 PUSH1 0x20 DUP3 ADD SWAP1 POP PUSH2 0x243 PUSH0 DUP4 ADD DUP5 PUSH2 0x221 JUMP JUMPDEST SWAP3 SWAP2 POP POP JUMP JUMPDEST PUSH0 PUSH20 0xFFFFFFFFFFFFFFFFFFFFFFFFFFFFFFFFFFFFFFFF DUP3 AND SWAP1 POP SWAP2 SWAP1 POP JUMP JUMPDEST PUSH0 PUSH2 0x272 DUP3 PUSH2 0x249 JUMP JUMPDEST SWAP1 POP SWAP2 SWAP1 POP JUMP JUMPDEST PUSH2 0x282 DUP2 PUSH2 0x268 JUMP JUMPDEST DUP3 MSTORE POP POP JUMP JUMPDEST PUSH0 PUSH1 0x20 DUP3 ADD SWAP1 POP PUSH2 0x29B PUSH0 DUP4 ADD DUP5 PUSH2 0x279 JUMP JUMPDEST SWAP3 SWAP2 POP POP JUMP JUMPDEST PUSH0 DUP1 REVERT JUMPDEST PUSH2 0x2AE DUP2 PUSH2 0x268 JUMP JUMPDEST DUP2 EQ PUSH2 0x2B8 JUMPI PUSH0 DUP1 REVERT JUMPDEST POP JUMP JUMPDEST PUSH0 DUP2 CALLDATALOAD SWAP1 POP PUSH2 0x2C9 DUP2 PUSH2 0x2A5 JUMP JUMPDEST SWAP3 SWAP2 POP POP JUMP JUMPDEST PUSH0 PUSH1 0x20 DUP3 DUP5 SUB SLT ISZERO PUSH2 0x2E4 JUMPI PUSH2 0x2E3 PUSH2 0x2A1 JUMP JUMPDEST JUMPDEST PUSH0 PUSH2 0x2F1 DUP5 DUP3 DUP6 ADD PUSH2 0x2BB JUMP JUMPDEST SWAP2 POP POP SWAP3 SWAP2 POP POP JUMP INVALID LOG2 PUSH5 0x6970667358 0x22 SLT KECCAK256 SELFBALANCE 0x4C SGT 0x2C 0x1F SWAP1 DUP14 0xA6 DUP10 PUSH4 0x2D8BFCFF 0xDA JUMP 0xE1 SWAP7 RETURN SWAP12 0xDD DUP4 SDIV ADDRESS 0x26 DUP8 LT SWAP10 DUP14 0x5E 0xDA 0x4E PUSH5 0x736F6C6343 STOP ADDMOD AND STOP CALLER "
				},
				"gasEstimates": {
					"creation": {
						"codeDepositCost": "163200",
						"executionCost": "infinite",
						"totalCost": "infinite"
					},
					"external": {
						"getRecordType()": "infinite",
						"record()": "2530",
						"setRecord(address)": "24759",
						"timeOfCreation()": "2424"
					}
				},
				"methodIdentifiers": {
					"getRecordType()": "0781f5c9",
					"record()": "266cf109",
					"setRecord(address)": "c37787d9",
					"timeOfCreation()": "1dcd69ec"
				}
			},
			"storageLayout": {
				"storage": [
					{
						"astId": 3,
						"contract": "Solidity/Hardhat/my-hardhat-project/contracts/RecordFactory.sol:AddressRecord",
						"label": "timeOfCreation",
						"offset": 0,
						"slot": "0",
						"type": "t_uint256"
					},
					{
						"astId": 62,
						"contract": "Solidity/Hardhat/my-hardhat-project/contracts/RecordFactory.sol:AddressRecord",
						"label": "record",
						"offset": 0,
						"slot": "1",
						"type": "t_address"
					}
				],
				"types": {
					"t_address": {
						"encoding": "inplace",
						"label": "address",
						"numberOfBytes": "20"
					},
					"t_uint256": {
						"encoding": "inplace",
						"label": "uint256",
						"numberOfBytes": "32"
					}
				}
			},
			"userdoc": {
				"kind": "user",
				"methods": {},
				"version": 1
			}
		}
	}
}