{
	"Solidity/Hardhat/my-hardhat-project/contracts/RecordFactory.sol": {
		"RecordFactory": {
			"abi": [
				{
					"anonymous": false,
					"inputs": [
						{
							"indexed": true,
							"internalType": "uint256",
							"name": "timeOfCreation",
							"type": "uint256"
						},
						{
							"indexed": true,
							"internalType": "address",
							"name": "recordAddress",
							"type": "address"
						},
						{
							"indexed": false,
							"internalType": "string",
							"name": "recordType",
							"type": "string"
						}
					],
					"name": "RecordAdded",
					"type": "event"
				},
				{
					"inputs": [
						{
							"internalType": "address",
							"name": "record",
							"type": "address"
						}
					],
					"name": "createAddressRecord",
					"outputs": [],
					"stateMutability": "nonpayable",
					"type": "function"
				},
				{
					"inputs": [
						{
							"internalType": "string",
							"name": "record",
							"type": "string"
						}
					],
					"name": "createStringRecord",
					"outputs": [],
					"stateMutability": "nonpayable",
					"type": "function"
				},
				{
					"inputs": [
						{
							"internalType": "uint256",
							"name": "index",
							"type": "uint256"
						}
					],
					"name": "getRecordAtIndex",
					"outputs": [
						{
							"internalType": "uint256",
							"name": "timeOfCreation",
							"type": "uint256"
						},
						{
							"internalType": "address",
							"name": "recordAddress",
							"type": "address"
						},
						{
							"internalType": "string",
							"name": "recordType",
							"type": "string"
						}
					],
					"stateMutability": "view",
					"type": "function"
				},
				{
					"inputs": [],
					"name": "getRecordsCount",
					"outputs": [
						{
							"internalType": "uint256",
							"name": "",
							"type": "uint256"
						}
					],
					"stateMutability": "view",
					"type": "function"
				},
				{
					"inputs": [
						{
							"internalType": "uint256",
							"name": "",
							"type": "uint256"
						}
					],
					"name": "records",
					"outputs": [
						{
							"internalType": "uint256",
							"name": "timeOfCreation",
							"type": "uint256"
						},
						{
							"internalType": "address",
							"name": "recordAddress",
							"type": "address"
						},
						{
							"internalType": "string",
							"name": "recordType",
							"type": "string"
						}
					],
					"stateMutability": "view",
					"type": "function"
				}
			],
			"devdoc": {
				"kind": "dev",
				"methods": {},
				"version": 1
			},
			"evm": {
				"assembly": "    /* \"Solidity/Hardhat/my-hardhat-project/contracts/RecordFactory.sol\":1914:3706  contract RecordFactory {... */\n  mstore(0x40, 0x80)\n  callvalue\n  dup1\n  iszero\n  tag_1\n  jumpi\n  0x00\n  dup1\n  revert\ntag_1:\n  pop\n  dataSize(sub_0)\n  dup1\n  dataOffset(sub_0)\n  0x00\n  codecopy\n  0x00\n  return\nstop\n\nsub_0: assembly {\n        /* \"Solidity/Hardhat/my-hardhat-project/contracts/RecordFactory.sol\":1914:3706  contract RecordFactory {... */\n      mstore(0x40, 0x80)\n      callvalue\n      dup1\n      iszero\n      tag_1\n      jumpi\n      0x00\n      dup1\n      revert\n    tag_1:\n      pop\n      jumpi(tag_2, lt(calldatasize, 0x04))\n      shr(0xe0, calldataload(0x00))\n      dup1\n      0x34461067\n      eq\n      tag_3\n      jumpi\n      dup1\n      0x505158bb\n      eq\n      tag_4\n      jumpi\n      dup1\n      0x7bcd7fad\n      eq\n      tag_5\n      jumpi\n      dup1\n      0x953d7e0c\n      eq\n      tag_6\n      jumpi\n      dup1\n      0xd05ce119\n      eq\n      tag_7\n      jumpi\n    tag_2:\n      0x00\n      dup1\n      revert\n        /* \"Solidity/Hardhat/my-hardhat-project/contracts/RecordFactory.sol\":2186:2214  RecordEntry[] public records */\n    tag_3:\n      tag_8\n      0x04\n      dup1\n      calldatasize\n      sub\n      dup2\n      add\n      swap1\n      tag_9\n      swap2\n      swap1\n      tag_10\n      jump\t// in\n    tag_9:\n      tag_11\n      jump\t// in\n    tag_8:\n      mload(0x40)\n      tag_12\n      swap4\n      swap3\n      swap2\n      swap1\n      tag_13\n      jump\t// in\n    tag_12:\n      mload(0x40)\n      dup1\n      swap2\n      sub\n      swap1\n      return\n        /* \"Solidity/Hardhat/my-hardhat-project/contracts/RecordFactory.sol\":3196:3293  function getRecordsCount() public view returns (uint256) {... */\n    tag_4:\n      tag_14\n      tag_15\n      jump\t// in\n    tag_14:\n      mload(0x40)\n      tag_16\n      swap2\n      swap1\n      tag_17\n      jump\t// in\n    tag_16:\n      mload(0x40)\n      dup1\n      swap2\n      sub\n      swap1\n      return\n        /* \"Solidity/Hardhat/my-hardhat-project/contracts/RecordFactory.sol\":3364:3703  function getRecordAtIndex(uint256 index) public view returns (uint256 timeOfCreation, address recordAddress, string memory recordType) {... */\n    tag_5:\n      tag_18\n      0x04\n      dup1\n      calldatasize\n      sub\n      dup2\n      add\n      swap1\n      tag_19\n      swap2\n      swap1\n      tag_10\n      jump\t// in\n    tag_19:\n      tag_20\n      jump\t// in\n    tag_18:\n      mload(0x40)\n      tag_21\n      swap4\n      swap3\n      swap2\n      swap1\n      tag_13\n      jump\t// in\n    tag_21:\n      mload(0x40)\n      dup1\n      swap2\n      sub\n      swap1\n      return\n        /* \"Solidity/Hardhat/my-hardhat-project/contracts/RecordFactory.sol\":2465:2770  function createStringRecord(string memory record) public {... */\n    tag_6:\n      tag_22\n      0x04\n      dup1\n      calldatasize\n      sub\n      dup2\n      add\n      swap1\n      tag_23\n      swap2\n      swap1\n      tag_24\n      jump\t// in\n    tag_23:\n      tag_25\n      jump\t// in\n    tag_22:\n      stop\n        /* \"Solidity/Hardhat/my-hardhat-project/contracts/RecordFactory.sol\":2826:3130  function createAddressRecord(address record) public {... */\n    tag_7:\n      tag_26\n      0x04\n      dup1\n      calldatasize\n      sub\n      dup2\n      add\n      swap1\n      tag_27\n      swap2\n      swap1\n      tag_28\n      jump\t// in\n    tag_27:\n      tag_29\n      jump\t// in\n    tag_26:\n      stop\n        /* \"Solidity/Hardhat/my-hardhat-project/contracts/RecordFactory.sol\":2186:2214  RecordEntry[] public records */\n    tag_11:\n      0x00\n      dup2\n      dup2\n      sload\n      dup2\n      lt\n      tag_30\n      jumpi\n      0x00\n      dup1\n      revert\n    tag_30:\n      swap1\n      0x00\n      mstore\n      keccak256(0x00, 0x20)\n      swap1\n      0x03\n      mul\n      add\n      0x00\n      swap2\n      pop\n      swap1\n      pop\n      dup1\n      0x00\n      add\n      sload\n      swap1\n      dup1\n      0x01\n      add\n      0x00\n      swap1\n      sload\n      swap1\n      0x0100\n      exp\n      swap1\n      div\n      0xffffffffffffffffffffffffffffffffffffffff\n      and\n      swap1\n      dup1\n      0x02\n      add\n      dup1\n      sload\n      tag_32\n      swap1\n      tag_33\n      jump\t// in\n    tag_32:\n      dup1\n      0x1f\n      add\n      0x20\n      dup1\n      swap2\n      div\n      mul\n      0x20\n      add\n      mload(0x40)\n      swap1\n      dup2\n      add\n      0x40\n      mstore\n      dup1\n      swap3\n      swap2\n      swap1\n      dup2\n      dup2\n      mstore\n      0x20\n      add\n      dup3\n      dup1\n      sload\n      tag_34\n      swap1\n      tag_33\n      jump\t// in\n    tag_34:\n      dup1\n      iszero\n      tag_35\n      jumpi\n      dup1\n      0x1f\n      lt\n      tag_36\n      jumpi\n      0x0100\n      dup1\n      dup4\n      sload\n      div\n      mul\n      dup4\n      mstore\n      swap2\n      0x20\n      add\n      swap2\n      jump(tag_35)\n    tag_36:\n      dup3\n      add\n      swap2\n      swap1\n      0x00\n      mstore\n      keccak256(0x00, 0x20)\n      swap1\n    tag_37:\n      dup2\n      sload\n      dup2\n      mstore\n      swap1\n      0x01\n      add\n      swap1\n      0x20\n      add\n      dup1\n      dup4\n      gt\n      tag_37\n      jumpi\n      dup3\n      swap1\n      sub\n      0x1f\n      and\n      dup3\n      add\n      swap2\n    tag_35:\n      pop\n      pop\n      pop\n      pop\n      pop\n      swap1\n      pop\n      dup4\n      jump\t// out\n        /* \"Solidity/Hardhat/my-hardhat-project/contracts/RecordFactory.sol\":3196:3293  function getRecordsCount() public view returns (uint256) {... */\n    tag_15:\n        /* \"Solidity/Hardhat/my-hardhat-project/contracts/RecordFactory.sol\":3244:3251  uint256 */\n      0x00\n        /* \"Solidity/Hardhat/my-hardhat-project/contracts/RecordFactory.sol\":3271:3278  records */\n      dup1\n        /* \"Solidity/Hardhat/my-hardhat-project/contracts/RecordFactory.sol\":3271:3285  records.length */\n      dup1\n      sload\n      swap1\n      pop\n        /* \"Solidity/Hardhat/my-hardhat-project/contracts/RecordFactory.sol\":3264:3285  return records.length */\n      swap1\n      pop\n        /* \"Solidity/Hardhat/my-hardhat-project/contracts/RecordFactory.sol\":3196:3293  function getRecordsCount() public view returns (uint256) {... */\n      swap1\n      jump\t// out\n        /* \"Solidity/Hardhat/my-hardhat-project/contracts/RecordFactory.sol\":3364:3703  function getRecordAtIndex(uint256 index) public view returns (uint256 timeOfCreation, address recordAddress, string memory recordType) {... */\n    tag_20:\n        /* \"Solidity/Hardhat/my-hardhat-project/contracts/RecordFactory.sol\":3426:3448  uint256 timeOfCreation */\n      0x00\n        /* \"Solidity/Hardhat/my-hardhat-project/contracts/RecordFactory.sol\":3450:3471  address recordAddress */\n      dup1\n        /* \"Solidity/Hardhat/my-hardhat-project/contracts/RecordFactory.sol\":3473:3497  string memory recordType */\n      0x60\n        /* \"Solidity/Hardhat/my-hardhat-project/contracts/RecordFactory.sol\":3526:3533  records */\n      0x00\n        /* \"Solidity/Hardhat/my-hardhat-project/contracts/RecordFactory.sol\":3526:3540  records.length */\n      dup1\n      sload\n      swap1\n      pop\n        /* \"Solidity/Hardhat/my-hardhat-project/contracts/RecordFactory.sol\":3518:3523  index */\n      dup5\n        /* \"Solidity/Hardhat/my-hardhat-project/contracts/RecordFactory.sol\":3518:3540  index < records.length */\n      lt\n        /* \"Solidity/Hardhat/my-hardhat-project/contracts/RecordFactory.sol\":3510:3564  require(index < records.length, \"Index out of bounds\") */\n      tag_40\n      jumpi\n      mload(0x40)\n      0x08c379a000000000000000000000000000000000000000000000000000000000\n      dup2\n      mstore\n      0x04\n      add\n      tag_41\n      swap1\n      tag_42\n      jump\t// in\n    tag_41:\n      mload(0x40)\n      dup1\n      swap2\n      sub\n      swap1\n      revert\n    tag_40:\n        /* \"Solidity/Hardhat/my-hardhat-project/contracts/RecordFactory.sol\":3575:3599  RecordEntry memory entry */\n      0x00\n        /* \"Solidity/Hardhat/my-hardhat-project/contracts/RecordFactory.sol\":3602:3609  records */\n      dup1\n        /* \"Solidity/Hardhat/my-hardhat-project/contracts/RecordFactory.sol\":3610:3615  index */\n      dup6\n        /* \"Solidity/Hardhat/my-hardhat-project/contracts/RecordFactory.sol\":3602:3616  records[index] */\n      dup2\n      sload\n      dup2\n      lt\n      tag_43\n      jumpi\n      tag_44\n      tag_45\n      jump\t// in\n    tag_44:\n    tag_43:\n      swap1\n      0x00\n      mstore\n      keccak256(0x00, 0x20)\n      swap1\n      0x03\n      mul\n      add\n        /* \"Solidity/Hardhat/my-hardhat-project/contracts/RecordFactory.sol\":3575:3616  RecordEntry memory entry = records[index] */\n      mload(0x40)\n      dup1\n      0x60\n      add\n      0x40\n      mstore\n      swap1\n      dup2\n      0x00\n      dup3\n      add\n      sload\n      dup2\n      mstore\n      0x20\n      add\n      0x01\n      dup3\n      add\n      0x00\n      swap1\n      sload\n      swap1\n      0x0100\n      exp\n      swap1\n      div\n      0xffffffffffffffffffffffffffffffffffffffff\n      and\n      0xffffffffffffffffffffffffffffffffffffffff\n      and\n      0xffffffffffffffffffffffffffffffffffffffff\n      and\n      dup2\n      mstore\n      0x20\n      add\n      0x02\n      dup3\n      add\n      dup1\n      sload\n      tag_47\n      swap1\n      tag_33\n      jump\t// in\n    tag_47:\n      dup1\n      0x1f\n      add\n      0x20\n      dup1\n      swap2\n      div\n      mul\n      0x20\n      add\n      mload(0x40)\n      swap1\n      dup2\n      add\n      0x40\n      mstore\n      dup1\n      swap3\n      swap2\n      swap1\n      dup2\n      dup2\n      mstore\n      0x20\n      add\n      dup3\n      dup1\n      sload\n      tag_48\n      swap1\n      tag_33\n      jump\t// in\n    tag_48:\n      dup1\n      iszero\n      tag_49\n      jumpi\n      dup1\n      0x1f\n      lt\n      tag_50\n      jumpi\n      0x0100\n      dup1\n      dup4\n      sload\n      div\n      mul\n      dup4\n      mstore\n      swap2\n      0x20\n      add\n      swap2\n      jump(tag_49)\n    tag_50:\n      dup3\n      add\n      swap2\n      swap1\n      0x00\n      mstore\n      keccak256(0x00, 0x20)\n      swap1\n    tag_51:\n      dup2\n      sload\n      dup2\n      mstore\n      swap1\n      0x01\n      add\n      swap1\n      0x20\n      add\n      dup1\n      dup4\n      gt\n      tag_51\n      jumpi\n      dup3\n      swap1\n      sub\n      0x1f\n      and\n      dup3\n      add\n      swap2\n    tag_49:\n      pop\n      pop\n      pop\n      pop\n      pop\n      dup2\n      mstore\n      pop\n      pop\n      swap1\n      pop\n        /* \"Solidity/Hardhat/my-hardhat-project/contracts/RecordFactory.sol\":3635:3640  entry */\n      dup1\n        /* \"Solidity/Hardhat/my-hardhat-project/contracts/RecordFactory.sol\":3635:3655  entry.timeOfCreation */\n      0x00\n      add\n      mload\n        /* \"Solidity/Hardhat/my-hardhat-project/contracts/RecordFactory.sol\":3657:3662  entry */\n      dup2\n        /* \"Solidity/Hardhat/my-hardhat-project/contracts/RecordFactory.sol\":3657:3676  entry.recordAddress */\n      0x20\n      add\n      mload\n        /* \"Solidity/Hardhat/my-hardhat-project/contracts/RecordFactory.sol\":3678:3683  entry */\n      dup3\n        /* \"Solidity/Hardhat/my-hardhat-project/contracts/RecordFactory.sol\":3678:3694  entry.recordType */\n      0x40\n      add\n      mload\n        /* \"Solidity/Hardhat/my-hardhat-project/contracts/RecordFactory.sol\":3627:3695  return (entry.timeOfCreation, entry.recordAddress, entry.recordType) */\n      swap4\n      pop\n      swap4\n      pop\n      swap4\n      pop\n      pop\n        /* \"Solidity/Hardhat/my-hardhat-project/contracts/RecordFactory.sol\":3364:3703  function getRecordAtIndex(uint256 index) public view returns (uint256 timeOfCreation, address recordAddress, string memory recordType) {... */\n      swap2\n      swap4\n      swap1\n      swap3\n      pop\n      jump\t// out\n        /* \"Solidity/Hardhat/my-hardhat-project/contracts/RecordFactory.sol\":2465:2770  function createStringRecord(string memory record) public {... */\n    tag_25:\n        /* \"Solidity/Hardhat/my-hardhat-project/contracts/RecordFactory.sol\":2533:2557  StringRecord newContract */\n      0x00\n        /* \"Solidity/Hardhat/my-hardhat-project/contracts/RecordFactory.sol\":2577:2592  block.timestamp */\n      timestamp\n        /* \"Solidity/Hardhat/my-hardhat-project/contracts/RecordFactory.sol\":2594:2600  record */\n      dup3\n        /* \"Solidity/Hardhat/my-hardhat-project/contracts/RecordFactory.sol\":2560:2601  new StringRecord(block.timestamp, record) */\n      mload(0x40)\n      tag_53\n      swap1\n      tag_54\n      jump\t// in\n    tag_53:\n      tag_55\n      swap3\n      swap2\n      swap1\n      tag_56\n      jump\t// in\n    tag_55:\n      mload(0x40)\n      dup1\n      swap2\n      sub\n      swap1\n      0x00\n      create\n      dup1\n      iszero\n      dup1\n      iszero\n      tag_57\n      jumpi\n      returndatasize\n      0x00\n      dup1\n      returndatacopy\n      revert(0x00, returndatasize)\n    tag_57:\n      pop\n        /* \"Solidity/Hardhat/my-hardhat-project/contracts/RecordFactory.sol\":2533:2601  StringRecord newContract = new StringRecord(block.timestamp, record) */\n      swap1\n      pop\n        /* \"Solidity/Hardhat/my-hardhat-project/contracts/RecordFactory.sol\":2612:2619  records */\n      0x00\n        /* \"Solidity/Hardhat/my-hardhat-project/contracts/RecordFactory.sol\":2625:2685  RecordEntry(block.timestamp, address(newContract), \"string\") */\n      mload(0x40)\n      dup1\n      0x60\n      add\n      0x40\n      mstore\n      dup1\n        /* \"Solidity/Hardhat/my-hardhat-project/contracts/RecordFactory.sol\":2637:2652  block.timestamp */\n      timestamp\n        /* \"Solidity/Hardhat/my-hardhat-project/contracts/RecordFactory.sol\":2625:2685  RecordEntry(block.timestamp, address(newContract), \"string\") */\n      dup2\n      mstore\n      0x20\n      add\n        /* \"Solidity/Hardhat/my-hardhat-project/contracts/RecordFactory.sol\":2662:2673  newContract */\n      dup4\n        /* \"Solidity/Hardhat/my-hardhat-project/contracts/RecordFactory.sol\":2625:2685  RecordEntry(block.timestamp, address(newContract), \"string\") */\n      0xffffffffffffffffffffffffffffffffffffffff\n      and\n      dup2\n      mstore\n      0x20\n      add\n      mload(0x40)\n      dup1\n      0x40\n      add\n      0x40\n      mstore\n      dup1\n      0x06\n      dup2\n      mstore\n      0x20\n      add\n      0x737472696e670000000000000000000000000000000000000000000000000000\n      dup2\n      mstore\n      pop\n      dup2\n      mstore\n      pop\n        /* \"Solidity/Hardhat/my-hardhat-project/contracts/RecordFactory.sol\":2612:2686  records.push(RecordEntry(block.timestamp, address(newContract), \"string\")) */\n      swap1\n      dup1\n      0x01\n      dup2\n      sload\n      add\n      dup1\n      dup3\n      sstore\n      dup1\n      swap2\n      pop\n      pop\n      0x01\n      swap1\n      sub\n      swap1\n      0x00\n      mstore\n      keccak256(0x00, 0x20)\n      swap1\n      0x03\n      mul\n      add\n      0x00\n      swap1\n      swap2\n      swap1\n      swap2\n      swap1\n      swap2\n      pop\n      0x00\n      dup3\n      add\n      mload\n      dup2\n      0x00\n      add\n      sstore\n      0x20\n      dup3\n      add\n      mload\n      dup2\n      0x01\n      add\n      exp(0x0100, 0x00)\n      dup2\n      sload\n      dup2\n      0xffffffffffffffffffffffffffffffffffffffff\n      mul\n      not\n      and\n      swap1\n      dup4\n      0xffffffffffffffffffffffffffffffffffffffff\n      and\n      mul\n      or\n      swap1\n      sstore\n      pop\n      0x40\n      dup3\n      add\n      mload\n      dup2\n      0x02\n      add\n      swap1\n      dup2\n      tag_59\n      swap2\n      swap1\n      tag_60\n      jump\t// in\n    tag_59:\n      pop\n      pop\n      pop\n        /* \"Solidity/Hardhat/my-hardhat-project/contracts/RecordFactory.sol\":2739:2750  newContract */\n      dup1\n        /* \"Solidity/Hardhat/my-hardhat-project/contracts/RecordFactory.sol\":2702:2762  RecordAdded(block.timestamp, address(newContract), \"string\") */\n      0xffffffffffffffffffffffffffffffffffffffff\n      and\n        /* \"Solidity/Hardhat/my-hardhat-project/contracts/RecordFactory.sol\":2714:2729  block.timestamp */\n      timestamp\n        /* \"Solidity/Hardhat/my-hardhat-project/contracts/RecordFactory.sol\":2702:2762  RecordAdded(block.timestamp, address(newContract), \"string\") */\n      0x4f1eea90beb2ccd16be5b37fc1e1272af00b7e01520eff654685171f4bab636a\n      mload(0x40)\n      tag_61\n      swap1\n      tag_62\n      jump\t// in\n    tag_61:\n      mload(0x40)\n      dup1\n      swap2\n      sub\n      swap1\n      log3\n        /* \"Solidity/Hardhat/my-hardhat-project/contracts/RecordFactory.sol\":2522:2770  {... */\n      pop\n        /* \"Solidity/Hardhat/my-hardhat-project/contracts/RecordFactory.sol\":2465:2770  function createStringRecord(string memory record) public {... */\n      pop\n      jump\t// out\n        /* \"Solidity/Hardhat/my-hardhat-project/contracts/RecordFactory.sol\":2826:3130  function createAddressRecord(address record) public {... */\n    tag_29:\n        /* \"Solidity/Hardhat/my-hardhat-project/contracts/RecordFactory.sol\":2889:2914  AddressRecord newContract */\n      0x00\n        /* \"Solidity/Hardhat/my-hardhat-project/contracts/RecordFactory.sol\":2935:2950  block.timestamp */\n      timestamp\n        /* \"Solidity/Hardhat/my-hardhat-project/contracts/RecordFactory.sol\":2952:2958  record */\n      dup3\n        /* \"Solidity/Hardhat/my-hardhat-project/contracts/RecordFactory.sol\":2917:2959  new AddressRecord(block.timestamp, record) */\n      mload(0x40)\n      tag_64\n      swap1\n      tag_65\n      jump\t// in\n    tag_64:\n      tag_66\n      swap3\n      swap2\n      swap1\n      tag_67\n      jump\t// in\n    tag_66:\n      mload(0x40)\n      dup1\n      swap2\n      sub\n      swap1\n      0x00\n      create\n      dup1\n      iszero\n      dup1\n      iszero\n      tag_68\n      jumpi\n      returndatasize\n      0x00\n      dup1\n      returndatacopy\n      revert(0x00, returndatasize)\n    tag_68:\n      pop\n        /* \"Solidity/Hardhat/my-hardhat-project/contracts/RecordFactory.sol\":2889:2959  AddressRecord newContract = new AddressRecord(block.timestamp, record) */\n      swap1\n      pop\n        /* \"Solidity/Hardhat/my-hardhat-project/contracts/RecordFactory.sol\":2970:2977  records */\n      0x00\n        /* \"Solidity/Hardhat/my-hardhat-project/contracts/RecordFactory.sol\":2983:3044  RecordEntry(block.timestamp, address(newContract), \"address\") */\n      mload(0x40)\n      dup1\n      0x60\n      add\n      0x40\n      mstore\n      dup1\n        /* \"Solidity/Hardhat/my-hardhat-project/contracts/RecordFactory.sol\":2995:3010  block.timestamp */\n      timestamp\n        /* \"Solidity/Hardhat/my-hardhat-project/contracts/RecordFactory.sol\":2983:3044  RecordEntry(block.timestamp, address(newContract), \"address\") */\n      dup2\n      mstore\n      0x20\n      add\n        /* \"Solidity/Hardhat/my-hardhat-project/contracts/RecordFactory.sol\":3020:3031  newContract */\n      dup4\n        /* \"Solidity/Hardhat/my-hardhat-project/contracts/RecordFactory.sol\":2983:3044  RecordEntry(block.timestamp, address(newContract), \"address\") */\n      0xffffffffffffffffffffffffffffffffffffffff\n      and\n      dup2\n      mstore\n      0x20\n      add\n      mload(0x40)\n      dup1\n      0x40\n      add\n      0x40\n      mstore\n      dup1\n      0x07\n      dup2\n      mstore\n      0x20\n      add\n      0x6164647265737300000000000000000000000000000000000000000000000000\n      dup2\n      mstore\n      pop\n      dup2\n      mstore\n      pop\n        /* \"Solidity/Hardhat/my-hardhat-project/contracts/RecordFactory.sol\":2970:3045  records.push(RecordEntry(block.timestamp, address(newContract), \"address\")) */\n      swap1\n      dup1\n      0x01\n      dup2\n      sload\n      add\n      dup1\n      dup3\n      sstore\n      dup1\n      swap2\n      pop\n      pop\n      0x01\n      swap1\n      sub\n      swap1\n      0x00\n      mstore\n      keccak256(0x00, 0x20)\n      swap1\n      0x03\n      mul\n      add\n      0x00\n      swap1\n      swap2\n      swap1\n      swap2\n      swap1\n      swap2\n      pop\n      0x00\n      dup3\n      add\n      mload\n      dup2\n      0x00\n      add\n      sstore\n      0x20\n      dup3\n      add\n      mload\n      dup2\n      0x01\n      add\n      exp(0x0100, 0x00)\n      dup2\n      sload\n      dup2\n      0xffffffffffffffffffffffffffffffffffffffff\n      mul\n      not\n      and\n      swap1\n      dup4\n      0xffffffffffffffffffffffffffffffffffffffff\n      and\n      mul\n      or\n      swap1\n      sstore\n      pop\n      0x40\n      dup3\n      add\n      mload\n      dup2\n      0x02\n      add\n      swap1\n      dup2\n      tag_70\n      swap2\n      swap1\n      tag_60\n      jump\t// in\n    tag_70:\n      pop\n      pop\n      pop\n        /* \"Solidity/Hardhat/my-hardhat-project/contracts/RecordFactory.sol\":3098:3109  newContract */\n      dup1\n        /* \"Solidity/Hardhat/my-hardhat-project/contracts/RecordFactory.sol\":3061:3122  RecordAdded(block.timestamp, address(newContract), \"address\") */\n      0xffffffffffffffffffffffffffffffffffffffff\n      and\n        /* \"Solidity/Hardhat/my-hardhat-project/contracts/RecordFactory.sol\":3073:3088  block.timestamp */\n      timestamp\n        /* \"Solidity/Hardhat/my-hardhat-project/contracts/RecordFactory.sol\":3061:3122  RecordAdded(block.timestamp, address(newContract), \"address\") */\n      0x4f1eea90beb2ccd16be5b37fc1e1272af00b7e01520eff654685171f4bab636a\n      mload(0x40)\n      tag_71\n      swap1\n      tag_72\n      jump\t// in\n    tag_71:\n      mload(0x40)\n      dup1\n      swap2\n      sub\n      swap1\n      log3\n        /* \"Solidity/Hardhat/my-hardhat-project/contracts/RecordFactory.sol\":2878:3130  {... */\n      pop\n        /* \"Solidity/Hardhat/my-hardhat-project/contracts/RecordFactory.sol\":2826:3130  function createAddressRecord(address record) public {... */\n      pop\n      jump\t// out\n    tag_54:\n      dataSize(sub_0)\n      dup1\n      dataOffset(sub_0)\n      dup4\n      codecopy\n      add\n      swap1\n      jump\t// out\n    tag_65:\n      dataSize(sub_1)\n      dup1\n      dataOffset(sub_1)\n      dup4\n      codecopy\n      add\n      swap1\n      jump\t// out\n        /* \"#utility.yul\":7:82   */\n    tag_73:\n        /* \"#utility.yul\":40:46   */\n      0x00\n        /* \"#utility.yul\":73:75   */\n      0x40\n        /* \"#utility.yul\":67:76   */\n      mload\n        /* \"#utility.yul\":57:76   */\n      swap1\n      pop\n        /* \"#utility.yul\":7:82   */\n      swap1\n      jump\t// out\n        /* \"#utility.yul\":88:205   */\n    tag_74:\n        /* \"#utility.yul\":197:198   */\n      0x00\n        /* \"#utility.yul\":194:195   */\n      dup1\n        /* \"#utility.yul\":187:199   */\n      revert\n        /* \"#utility.yul\":211:328   */\n    tag_75:\n        /* \"#utility.yul\":320:321   */\n      0x00\n        /* \"#utility.yul\":317:318   */\n      dup1\n        /* \"#utility.yul\":310:322   */\n      revert\n        /* \"#utility.yul\":334:411   */\n    tag_76:\n        /* \"#utility.yul\":371:378   */\n      0x00\n        /* \"#utility.yul\":400:405   */\n      dup2\n        /* \"#utility.yul\":389:405   */\n      swap1\n      pop\n        /* \"#utility.yul\":334:411   */\n      swap2\n      swap1\n      pop\n      jump\t// out\n        /* \"#utility.yul\":417:539   */\n    tag_77:\n        /* \"#utility.yul\":490:514   */\n      tag_127\n        /* \"#utility.yul\":508:513   */\n      dup2\n        /* \"#utility.yul\":490:514   */\n      tag_76\n      jump\t// in\n    tag_127:\n        /* \"#utility.yul\":483:488   */\n      dup2\n        /* \"#utility.yul\":480:515   */\n      eq\n        /* \"#utility.yul\":470:533   */\n      tag_128\n      jumpi\n        /* \"#utility.yul\":529:530   */\n      0x00\n        /* \"#utility.yul\":526:527   */\n      dup1\n        /* \"#utility.yul\":519:531   */\n      revert\n        /* \"#utility.yul\":470:533   */\n    tag_128:\n        /* \"#utility.yul\":417:539   */\n      pop\n      jump\t// out\n        /* \"#utility.yul\":545:684   */\n    tag_78:\n        /* \"#utility.yul\":591:596   */\n      0x00\n        /* \"#utility.yul\":629:635   */\n      dup2\n        /* \"#utility.yul\":616:636   */\n      calldataload\n        /* \"#utility.yul\":607:636   */\n      swap1\n      pop\n        /* \"#utility.yul\":645:678   */\n      tag_130\n        /* \"#utility.yul\":672:677   */\n      dup2\n        /* \"#utility.yul\":645:678   */\n      tag_77\n      jump\t// in\n    tag_130:\n        /* \"#utility.yul\":545:684   */\n      swap3\n      swap2\n      pop\n      pop\n      jump\t// out\n        /* \"#utility.yul\":690:1019   */\n    tag_10:\n        /* \"#utility.yul\":749:755   */\n      0x00\n        /* \"#utility.yul\":798:800   */\n      0x20\n        /* \"#utility.yul\":786:795   */\n      dup3\n        /* \"#utility.yul\":777:784   */\n      dup5\n        /* \"#utility.yul\":773:796   */\n      sub\n        /* \"#utility.yul\":769:801   */\n      slt\n        /* \"#utility.yul\":766:885   */\n      iszero\n      tag_132\n      jumpi\n        /* \"#utility.yul\":804:883   */\n      tag_133\n      tag_74\n      jump\t// in\n    tag_133:\n        /* \"#utility.yul\":766:885   */\n    tag_132:\n        /* \"#utility.yul\":924:925   */\n      0x00\n        /* \"#utility.yul\":949:1002   */\n      tag_134\n        /* \"#utility.yul\":994:1001   */\n      dup5\n        /* \"#utility.yul\":985:991   */\n      dup3\n        /* \"#utility.yul\":974:983   */\n      dup6\n        /* \"#utility.yul\":970:992   */\n      add\n        /* \"#utility.yul\":949:1002   */\n      tag_78\n      jump\t// in\n    tag_134:\n        /* \"#utility.yul\":939:1002   */\n      swap2\n      pop\n        /* \"#utility.yul\":895:1012   */\n      pop\n        /* \"#utility.yul\":690:1019   */\n      swap3\n      swap2\n      pop\n      pop\n      jump\t// out\n        /* \"#utility.yul\":1025:1143   */\n    tag_79:\n        /* \"#utility.yul\":1112:1136   */\n      tag_136\n        /* \"#utility.yul\":1130:1135   */\n      dup2\n        /* \"#utility.yul\":1112:1136   */\n      tag_76\n      jump\t// in\n    tag_136:\n        /* \"#utility.yul\":1107:1110   */\n      dup3\n        /* \"#utility.yul\":1100:1137   */\n      mstore\n        /* \"#utility.yul\":1025:1143   */\n      pop\n      pop\n      jump\t// out\n        /* \"#utility.yul\":1149:1275   */\n    tag_80:\n        /* \"#utility.yul\":1186:1193   */\n      0x00\n        /* \"#utility.yul\":1226:1268   */\n      0xffffffffffffffffffffffffffffffffffffffff\n        /* \"#utility.yul\":1219:1224   */\n      dup3\n        /* \"#utility.yul\":1215:1269   */\n      and\n        /* \"#utility.yul\":1204:1269   */\n      swap1\n      pop\n        /* \"#utility.yul\":1149:1275   */\n      swap2\n      swap1\n      pop\n      jump\t// out\n        /* \"#utility.yul\":1281:1377   */\n    tag_81:\n        /* \"#utility.yul\":1318:1325   */\n      0x00\n        /* \"#utility.yul\":1347:1371   */\n      tag_139\n        /* \"#utility.yul\":1365:1370   */\n      dup3\n        /* \"#utility.yul\":1347:1371   */\n      tag_80\n      jump\t// in\n    tag_139:\n        /* \"#utility.yul\":1336:1371   */\n      swap1\n      pop\n        /* \"#utility.yul\":1281:1377   */\n      swap2\n      swap1\n      pop\n      jump\t// out\n        /* \"#utility.yul\":1383:1501   */\n    tag_82:\n        /* \"#utility.yul\":1470:1494   */\n      tag_141\n        /* \"#utility.yul\":1488:1493   */\n      dup2\n        /* \"#utility.yul\":1470:1494   */\n      tag_81\n      jump\t// in\n    tag_141:\n        /* \"#utility.yul\":1465:1468   */\n      dup3\n        /* \"#utility.yul\":1458:1495   */\n      mstore\n        /* \"#utility.yul\":1383:1501   */\n      pop\n      pop\n      jump\t// out\n        /* \"#utility.yul\":1507:1606   */\n    tag_83:\n        /* \"#utility.yul\":1559:1565   */\n      0x00\n        /* \"#utility.yul\":1593:1598   */\n      dup2\n        /* \"#utility.yul\":1587:1599   */\n      mload\n        /* \"#utility.yul\":1577:1599   */\n      swap1\n      pop\n        /* \"#utility.yul\":1507:1606   */\n      swap2\n      swap1\n      pop\n      jump\t// out\n        /* \"#utility.yul\":1612:1781   */\n    tag_84:\n        /* \"#utility.yul\":1696:1707   */\n      0x00\n        /* \"#utility.yul\":1730:1736   */\n      dup3\n        /* \"#utility.yul\":1725:1728   */\n      dup3\n        /* \"#utility.yul\":1718:1737   */\n      mstore\n        /* \"#utility.yul\":1770:1774   */\n      0x20\n        /* \"#utility.yul\":1765:1768   */\n      dup3\n        /* \"#utility.yul\":1761:1775   */\n      add\n        /* \"#utility.yul\":1746:1775   */\n      swap1\n      pop\n        /* \"#utility.yul\":1612:1781   */\n      swap3\n      swap2\n      pop\n      pop\n      jump\t// out\n        /* \"#utility.yul\":1787:2033   */\n    tag_85:\n        /* \"#utility.yul\":1868:1869   */\n      0x00\n        /* \"#utility.yul\":1878:1991   */\n    tag_145:\n        /* \"#utility.yul\":1892:1898   */\n      dup4\n        /* \"#utility.yul\":1889:1890   */\n      dup2\n        /* \"#utility.yul\":1886:1899   */\n      lt\n        /* \"#utility.yul\":1878:1991   */\n      iszero\n      tag_147\n      jumpi\n        /* \"#utility.yul\":1977:1978   */\n      dup1\n        /* \"#utility.yul\":1972:1975   */\n      dup3\n        /* \"#utility.yul\":1968:1979   */\n      add\n        /* \"#utility.yul\":1962:1980   */\n      mload\n        /* \"#utility.yul\":1958:1959   */\n      dup2\n        /* \"#utility.yul\":1953:1956   */\n      dup5\n        /* \"#utility.yul\":1949:1960   */\n      add\n        /* \"#utility.yul\":1942:1981   */\n      mstore\n        /* \"#utility.yul\":1914:1916   */\n      0x20\n        /* \"#utility.yul\":1911:1912   */\n      dup2\n        /* \"#utility.yul\":1907:1917   */\n      add\n        /* \"#utility.yul\":1902:1917   */\n      swap1\n      pop\n        /* \"#utility.yul\":1878:1991   */\n      jump(tag_145)\n    tag_147:\n        /* \"#utility.yul\":2025:2026   */\n      0x00\n        /* \"#utility.yul\":2016:2022   */\n      dup5\n        /* \"#utility.yul\":2011:2014   */\n      dup5\n        /* \"#utility.yul\":2007:2023   */\n      add\n        /* \"#utility.yul\":2000:2027   */\n      mstore\n        /* \"#utility.yul\":1849:2033   */\n      pop\n        /* \"#utility.yul\":1787:2033   */\n      pop\n      pop\n      pop\n      jump\t// out\n        /* \"#utility.yul\":2039:2141   */\n    tag_86:\n        /* \"#utility.yul\":2080:2086   */\n      0x00\n        /* \"#utility.yul\":2131:2133   */\n      0x1f\n        /* \"#utility.yul\":2127:2134   */\n      not\n        /* \"#utility.yul\":2122:2124   */\n      0x1f\n        /* \"#utility.yul\":2115:2120   */\n      dup4\n        /* \"#utility.yul\":2111:2125   */\n      add\n        /* \"#utility.yul\":2107:2135   */\n      and\n        /* \"#utility.yul\":2097:2135   */\n      swap1\n      pop\n        /* \"#utility.yul\":2039:2141   */\n      swap2\n      swap1\n      pop\n      jump\t// out\n        /* \"#utility.yul\":2147:2524   */\n    tag_87:\n        /* \"#utility.yul\":2235:2238   */\n      0x00\n        /* \"#utility.yul\":2263:2302   */\n      tag_150\n        /* \"#utility.yul\":2296:2301   */\n      dup3\n        /* \"#utility.yul\":2263:2302   */\n      tag_83\n      jump\t// in\n    tag_150:\n        /* \"#utility.yul\":2318:2389   */\n      tag_151\n        /* \"#utility.yul\":2382:2388   */\n      dup2\n        /* \"#utility.yul\":2377:2380   */\n      dup6\n        /* \"#utility.yul\":2318:2389   */\n      tag_84\n      jump\t// in\n    tag_151:\n        /* \"#utility.yul\":2311:2389   */\n      swap4\n      pop\n        /* \"#utility.yul\":2398:2463   */\n      tag_152\n        /* \"#utility.yul\":2456:2462   */\n      dup2\n        /* \"#utility.yul\":2451:2454   */\n      dup6\n        /* \"#utility.yul\":2444:2448   */\n      0x20\n        /* \"#utility.yul\":2437:2442   */\n      dup7\n        /* \"#utility.yul\":2433:2449   */\n      add\n        /* \"#utility.yul\":2398:2463   */\n      tag_85\n      jump\t// in\n    tag_152:\n        /* \"#utility.yul\":2488:2517   */\n      tag_153\n        /* \"#utility.yul\":2510:2516   */\n      dup2\n        /* \"#utility.yul\":2488:2517   */\n      tag_86\n      jump\t// in\n    tag_153:\n        /* \"#utility.yul\":2483:2486   */\n      dup5\n        /* \"#utility.yul\":2479:2518   */\n      add\n        /* \"#utility.yul\":2472:2518   */\n      swap2\n      pop\n        /* \"#utility.yul\":2239:2524   */\n      pop\n        /* \"#utility.yul\":2147:2524   */\n      swap3\n      swap2\n      pop\n      pop\n      jump\t// out\n        /* \"#utility.yul\":2530:3063   */\n    tag_13:\n        /* \"#utility.yul\":2699:2703   */\n      0x00\n        /* \"#utility.yul\":2737:2739   */\n      0x60\n        /* \"#utility.yul\":2726:2735   */\n      dup3\n        /* \"#utility.yul\":2722:2740   */\n      add\n        /* \"#utility.yul\":2714:2740   */\n      swap1\n      pop\n        /* \"#utility.yul\":2750:2821   */\n      tag_155\n        /* \"#utility.yul\":2818:2819   */\n      0x00\n        /* \"#utility.yul\":2807:2816   */\n      dup4\n        /* \"#utility.yul\":2803:2820   */\n      add\n        /* \"#utility.yul\":2794:2800   */\n      dup7\n        /* \"#utility.yul\":2750:2821   */\n      tag_79\n      jump\t// in\n    tag_155:\n        /* \"#utility.yul\":2831:2903   */\n      tag_156\n        /* \"#utility.yul\":2899:2901   */\n      0x20\n        /* \"#utility.yul\":2888:2897   */\n      dup4\n        /* \"#utility.yul\":2884:2902   */\n      add\n        /* \"#utility.yul\":2875:2881   */\n      dup6\n        /* \"#utility.yul\":2831:2903   */\n      tag_82\n      jump\t// in\n    tag_156:\n        /* \"#utility.yul\":2950:2959   */\n      dup2\n        /* \"#utility.yul\":2944:2948   */\n      dup2\n        /* \"#utility.yul\":2940:2960   */\n      sub\n        /* \"#utility.yul\":2935:2937   */\n      0x40\n        /* \"#utility.yul\":2924:2933   */\n      dup4\n        /* \"#utility.yul\":2920:2938   */\n      add\n        /* \"#utility.yul\":2913:2961   */\n      mstore\n        /* \"#utility.yul\":2978:3056   */\n      tag_157\n        /* \"#utility.yul\":3051:3055   */\n      dup2\n        /* \"#utility.yul\":3042:3048   */\n      dup5\n        /* \"#utility.yul\":2978:3056   */\n      tag_87\n      jump\t// in\n    tag_157:\n        /* \"#utility.yul\":2970:3056   */\n      swap1\n      pop\n        /* \"#utility.yul\":2530:3063   */\n      swap5\n      swap4\n      pop\n      pop\n      pop\n      pop\n      jump\t// out\n        /* \"#utility.yul\":3069:3291   */\n    tag_17:\n        /* \"#utility.yul\":3162:3166   */\n      0x00\n        /* \"#utility.yul\":3200:3202   */\n      0x20\n        /* \"#utility.yul\":3189:3198   */\n      dup3\n        /* \"#utility.yul\":3185:3203   */\n      add\n        /* \"#utility.yul\":3177:3203   */\n      swap1\n      pop\n        /* \"#utility.yul\":3213:3284   */\n      tag_159\n        /* \"#utility.yul\":3281:3282   */\n      0x00\n        /* \"#utility.yul\":3270:3279   */\n      dup4\n        /* \"#utility.yul\":3266:3283   */\n      add\n        /* \"#utility.yul\":3257:3263   */\n      dup5\n        /* \"#utility.yul\":3213:3284   */\n      tag_79\n      jump\t// in\n    tag_159:\n        /* \"#utility.yul\":3069:3291   */\n      swap3\n      swap2\n      pop\n      pop\n      jump\t// out\n        /* \"#utility.yul\":3297:3414   */\n    tag_88:\n        /* \"#utility.yul\":3406:3407   */\n      0x00\n        /* \"#utility.yul\":3403:3404   */\n      dup1\n        /* \"#utility.yul\":3396:3408   */\n      revert\n        /* \"#utility.yul\":3420:3537   */\n    tag_89:\n        /* \"#utility.yul\":3529:3530   */\n      0x00\n        /* \"#utility.yul\":3526:3527   */\n      dup1\n        /* \"#utility.yul\":3519:3531   */\n      revert\n        /* \"#utility.yul\":3543:3723   */\n    tag_90:\n        /* \"#utility.yul\":3591:3668   */\n      0x4e487b7100000000000000000000000000000000000000000000000000000000\n        /* \"#utility.yul\":3588:3589   */\n      0x00\n        /* \"#utility.yul\":3581:3669   */\n      mstore\n        /* \"#utility.yul\":3688:3692   */\n      0x41\n        /* \"#utility.yul\":3685:3686   */\n      0x04\n        /* \"#utility.yul\":3678:3693   */\n      mstore\n        /* \"#utility.yul\":3712:3716   */\n      0x24\n        /* \"#utility.yul\":3709:3710   */\n      0x00\n        /* \"#utility.yul\":3702:3717   */\n      revert\n        /* \"#utility.yul\":3729:4010   */\n    tag_91:\n        /* \"#utility.yul\":3812:3839   */\n      tag_164\n        /* \"#utility.yul\":3834:3838   */\n      dup3\n        /* \"#utility.yul\":3812:3839   */\n      tag_86\n      jump\t// in\n    tag_164:\n        /* \"#utility.yul\":3804:3810   */\n      dup2\n        /* \"#utility.yul\":3800:3840   */\n      add\n        /* \"#utility.yul\":3942:3948   */\n      dup2\n        /* \"#utility.yul\":3930:3940   */\n      dup2\n        /* \"#utility.yul\":3927:3949   */\n      lt\n        /* \"#utility.yul\":3906:3924   */\n      0xffffffffffffffff\n        /* \"#utility.yul\":3894:3904   */\n      dup3\n        /* \"#utility.yul\":3891:3925   */\n      gt\n        /* \"#utility.yul\":3888:3950   */\n      or\n        /* \"#utility.yul\":3885:3973   */\n      iszero\n      tag_165\n      jumpi\n        /* \"#utility.yul\":3953:3971   */\n      tag_166\n      tag_90\n      jump\t// in\n    tag_166:\n        /* \"#utility.yul\":3885:3973   */\n    tag_165:\n        /* \"#utility.yul\":3993:4003   */\n      dup1\n        /* \"#utility.yul\":3989:3991   */\n      0x40\n        /* \"#utility.yul\":3982:4004   */\n      mstore\n        /* \"#utility.yul\":3772:4010   */\n      pop\n        /* \"#utility.yul\":3729:4010   */\n      pop\n      pop\n      jump\t// out\n        /* \"#utility.yul\":4016:4145   */\n    tag_92:\n        /* \"#utility.yul\":4050:4056   */\n      0x00\n        /* \"#utility.yul\":4077:4097   */\n      tag_168\n      tag_73\n      jump\t// in\n    tag_168:\n        /* \"#utility.yul\":4067:4097   */\n      swap1\n      pop\n        /* \"#utility.yul\":4106:4139   */\n      tag_169\n        /* \"#utility.yul\":4134:4138   */\n      dup3\n        /* \"#utility.yul\":4126:4132   */\n      dup3\n        /* \"#utility.yul\":4106:4139   */\n      tag_91\n      jump\t// in\n    tag_169:\n        /* \"#utility.yul\":4016:4145   */\n      swap2\n      swap1\n      pop\n      jump\t// out\n        /* \"#utility.yul\":4151:4459   */\n    tag_93:\n        /* \"#utility.yul\":4213:4217   */\n      0x00\n        /* \"#utility.yul\":4303:4321   */\n      0xffffffffffffffff\n        /* \"#utility.yul\":4295:4301   */\n      dup3\n        /* \"#utility.yul\":4292:4322   */\n      gt\n        /* \"#utility.yul\":4289:4345   */\n      iszero\n      tag_171\n      jumpi\n        /* \"#utility.yul\":4325:4343   */\n      tag_172\n      tag_90\n      jump\t// in\n    tag_172:\n        /* \"#utility.yul\":4289:4345   */\n    tag_171:\n        /* \"#utility.yul\":4363:4392   */\n      tag_173\n        /* \"#utility.yul\":4385:4391   */\n      dup3\n        /* \"#utility.yul\":4363:4392   */\n      tag_86\n      jump\t// in\n    tag_173:\n        /* \"#utility.yul\":4355:4392   */\n      swap1\n      pop\n        /* \"#utility.yul\":4447:4451   */\n      0x20\n        /* \"#utility.yul\":4441:4445   */\n      dup2\n        /* \"#utility.yul\":4437:4452   */\n      add\n        /* \"#utility.yul\":4429:4452   */\n      swap1\n      pop\n        /* \"#utility.yul\":4151:4459   */\n      swap2\n      swap1\n      pop\n      jump\t// out\n        /* \"#utility.yul\":4465:4611   */\n    tag_94:\n        /* \"#utility.yul\":4562:4568   */\n      dup3\n        /* \"#utility.yul\":4557:4560   */\n      dup2\n        /* \"#utility.yul\":4552:4555   */\n      dup4\n        /* \"#utility.yul\":4539:4569   */\n      calldatacopy\n        /* \"#utility.yul\":4603:4604   */\n      0x00\n        /* \"#utility.yul\":4594:4600   */\n      dup4\n        /* \"#utility.yul\":4589:4592   */\n      dup4\n        /* \"#utility.yul\":4585:4601   */\n      add\n        /* \"#utility.yul\":4578:4605   */\n      mstore\n        /* \"#utility.yul\":4465:4611   */\n      pop\n      pop\n      pop\n      jump\t// out\n        /* \"#utility.yul\":4617:5042   */\n    tag_95:\n        /* \"#utility.yul\":4695:4700   */\n      0x00\n        /* \"#utility.yul\":4720:4786   */\n      tag_176\n        /* \"#utility.yul\":4736:4785   */\n      tag_177\n        /* \"#utility.yul\":4778:4784   */\n      dup5\n        /* \"#utility.yul\":4736:4785   */\n      tag_93\n      jump\t// in\n    tag_177:\n        /* \"#utility.yul\":4720:4786   */\n      tag_92\n      jump\t// in\n    tag_176:\n        /* \"#utility.yul\":4711:4786   */\n      swap1\n      pop\n        /* \"#utility.yul\":4809:4815   */\n      dup3\n        /* \"#utility.yul\":4802:4807   */\n      dup2\n        /* \"#utility.yul\":4795:4816   */\n      mstore\n        /* \"#utility.yul\":4847:4851   */\n      0x20\n        /* \"#utility.yul\":4840:4845   */\n      dup2\n        /* \"#utility.yul\":4836:4852   */\n      add\n        /* \"#utility.yul\":4885:4888   */\n      dup5\n        /* \"#utility.yul\":4876:4882   */\n      dup5\n        /* \"#utility.yul\":4871:4874   */\n      dup5\n        /* \"#utility.yul\":4867:4883   */\n      add\n        /* \"#utility.yul\":4864:4889   */\n      gt\n        /* \"#utility.yul\":4861:4973   */\n      iszero\n      tag_178\n      jumpi\n        /* \"#utility.yul\":4892:4971   */\n      tag_179\n      tag_89\n      jump\t// in\n    tag_179:\n        /* \"#utility.yul\":4861:4973   */\n    tag_178:\n        /* \"#utility.yul\":4982:5036   */\n      tag_180\n        /* \"#utility.yul\":5029:5035   */\n      dup5\n        /* \"#utility.yul\":5024:5027   */\n      dup3\n        /* \"#utility.yul\":5019:5022   */\n      dup6\n        /* \"#utility.yul\":4982:5036   */\n      tag_94\n      jump\t// in\n    tag_180:\n        /* \"#utility.yul\":4701:5042   */\n      pop\n        /* \"#utility.yul\":4617:5042   */\n      swap4\n      swap3\n      pop\n      pop\n      pop\n      jump\t// out\n        /* \"#utility.yul\":5062:5402   */\n    tag_96:\n        /* \"#utility.yul\":5118:5123   */\n      0x00\n        /* \"#utility.yul\":5167:5170   */\n      dup3\n        /* \"#utility.yul\":5160:5164   */\n      0x1f\n        /* \"#utility.yul\":5152:5158   */\n      dup4\n        /* \"#utility.yul\":5148:5165   */\n      add\n        /* \"#utility.yul\":5144:5171   */\n      slt\n        /* \"#utility.yul\":5134:5256   */\n      tag_182\n      jumpi\n        /* \"#utility.yul\":5175:5254   */\n      tag_183\n      tag_88\n      jump\t// in\n    tag_183:\n        /* \"#utility.yul\":5134:5256   */\n    tag_182:\n        /* \"#utility.yul\":5292:5298   */\n      dup2\n        /* \"#utility.yul\":5279:5299   */\n      calldataload\n        /* \"#utility.yul\":5317:5396   */\n      tag_184\n        /* \"#utility.yul\":5392:5395   */\n      dup5\n        /* \"#utility.yul\":5384:5390   */\n      dup3\n        /* \"#utility.yul\":5377:5381   */\n      0x20\n        /* \"#utility.yul\":5369:5375   */\n      dup7\n        /* \"#utility.yul\":5365:5382   */\n      add\n        /* \"#utility.yul\":5317:5396   */\n      tag_95\n      jump\t// in\n    tag_184:\n        /* \"#utility.yul\":5308:5396   */\n      swap2\n      pop\n        /* \"#utility.yul\":5124:5402   */\n      pop\n        /* \"#utility.yul\":5062:5402   */\n      swap3\n      swap2\n      pop\n      pop\n      jump\t// out\n        /* \"#utility.yul\":5408:5917   */\n    tag_24:\n        /* \"#utility.yul\":5477:5483   */\n      0x00\n        /* \"#utility.yul\":5526:5528   */\n      0x20\n        /* \"#utility.yul\":5514:5523   */\n      dup3\n        /* \"#utility.yul\":5505:5512   */\n      dup5\n        /* \"#utility.yul\":5501:5524   */\n      sub\n        /* \"#utility.yul\":5497:5529   */\n      slt\n        /* \"#utility.yul\":5494:5613   */\n      iszero\n      tag_186\n      jumpi\n        /* \"#utility.yul\":5532:5611   */\n      tag_187\n      tag_74\n      jump\t// in\n    tag_187:\n        /* \"#utility.yul\":5494:5613   */\n    tag_186:\n        /* \"#utility.yul\":5680:5681   */\n      0x00\n        /* \"#utility.yul\":5669:5678   */\n      dup3\n        /* \"#utility.yul\":5665:5682   */\n      add\n        /* \"#utility.yul\":5652:5683   */\n      calldataload\n        /* \"#utility.yul\":5710:5728   */\n      0xffffffffffffffff\n        /* \"#utility.yul\":5702:5708   */\n      dup2\n        /* \"#utility.yul\":5699:5729   */\n      gt\n        /* \"#utility.yul\":5696:5813   */\n      iszero\n      tag_188\n      jumpi\n        /* \"#utility.yul\":5732:5811   */\n      tag_189\n      tag_75\n      jump\t// in\n    tag_189:\n        /* \"#utility.yul\":5696:5813   */\n    tag_188:\n        /* \"#utility.yul\":5837:5900   */\n      tag_190\n        /* \"#utility.yul\":5892:5899   */\n      dup5\n        /* \"#utility.yul\":5883:5889   */\n      dup3\n        /* \"#utility.yul\":5872:5881   */\n      dup6\n        /* \"#utility.yul\":5868:5890   */\n      add\n        /* \"#utility.yul\":5837:5900   */\n      tag_96\n      jump\t// in\n    tag_190:\n        /* \"#utility.yul\":5827:5900   */\n      swap2\n      pop\n        /* \"#utility.yul\":5623:5910   */\n      pop\n        /* \"#utility.yul\":5408:5917   */\n      swap3\n      swap2\n      pop\n      pop\n      jump\t// out\n        /* \"#utility.yul\":5923:6045   */\n    tag_97:\n        /* \"#utility.yul\":5996:6020   */\n      tag_192\n        /* \"#utility.yul\":6014:6019   */\n      dup2\n        /* \"#utility.yul\":5996:6020   */\n      tag_81\n      jump\t// in\n    tag_192:\n        /* \"#utility.yul\":5989:5994   */\n      dup2\n        /* \"#utility.yul\":5986:6021   */\n      eq\n        /* \"#utility.yul\":5976:6039   */\n      tag_193\n      jumpi\n        /* \"#utility.yul\":6035:6036   */\n      0x00\n        /* \"#utility.yul\":6032:6033   */\n      dup1\n        /* \"#utility.yul\":6025:6037   */\n      revert\n        /* \"#utility.yul\":5976:6039   */\n    tag_193:\n        /* \"#utility.yul\":5923:6045   */\n      pop\n      jump\t// out\n        /* \"#utility.yul\":6051:6190   */\n    tag_98:\n        /* \"#utility.yul\":6097:6102   */\n      0x00\n        /* \"#utility.yul\":6135:6141   */\n      dup2\n        /* \"#utility.yul\":6122:6142   */\n      calldataload\n        /* \"#utility.yul\":6113:6142   */\n      swap1\n      pop\n        /* \"#utility.yul\":6151:6184   */\n      tag_195\n        /* \"#utility.yul\":6178:6183   */\n      dup2\n        /* \"#utility.yul\":6151:6184   */\n      tag_97\n      jump\t// in\n    tag_195:\n        /* \"#utility.yul\":6051:6190   */\n      swap3\n      swap2\n      pop\n      pop\n      jump\t// out\n        /* \"#utility.yul\":6196:6525   */\n    tag_28:\n        /* \"#utility.yul\":6255:6261   */\n      0x00\n        /* \"#utility.yul\":6304:6306   */\n      0x20\n        /* \"#utility.yul\":6292:6301   */\n      dup3\n        /* \"#utility.yul\":6283:6290   */\n      dup5\n        /* \"#utility.yul\":6279:6302   */\n      sub\n        /* \"#utility.yul\":6275:6307   */\n      slt\n        /* \"#utility.yul\":6272:6391   */\n      iszero\n      tag_197\n      jumpi\n        /* \"#utility.yul\":6310:6389   */\n      tag_198\n      tag_74\n      jump\t// in\n    tag_198:\n        /* \"#utility.yul\":6272:6391   */\n    tag_197:\n        /* \"#utility.yul\":6430:6431   */\n      0x00\n        /* \"#utility.yul\":6455:6508   */\n      tag_199\n        /* \"#utility.yul\":6500:6507   */\n      dup5\n        /* \"#utility.yul\":6491:6497   */\n      dup3\n        /* \"#utility.yul\":6480:6489   */\n      dup6\n        /* \"#utility.yul\":6476:6498   */\n      add\n        /* \"#utility.yul\":6455:6508   */\n      tag_98\n      jump\t// in\n    tag_199:\n        /* \"#utility.yul\":6445:6508   */\n      swap2\n      pop\n        /* \"#utility.yul\":6401:6518   */\n      pop\n        /* \"#utility.yul\":6196:6525   */\n      swap3\n      swap2\n      pop\n      pop\n      jump\t// out\n        /* \"#utility.yul\":6531:6711   */\n    tag_99:\n        /* \"#utility.yul\":6579:6656   */\n      0x4e487b7100000000000000000000000000000000000000000000000000000000\n        /* \"#utility.yul\":6576:6577   */\n      0x00\n        /* \"#utility.yul\":6569:6657   */\n      mstore\n        /* \"#utility.yul\":6676:6680   */\n      0x22\n        /* \"#utility.yul\":6673:6674   */\n      0x04\n        /* \"#utility.yul\":6666:6681   */\n      mstore\n        /* \"#utility.yul\":6700:6704   */\n      0x24\n        /* \"#utility.yul\":6697:6698   */\n      0x00\n        /* \"#utility.yul\":6690:6705   */\n      revert\n        /* \"#utility.yul\":6717:7037   */\n    tag_33:\n        /* \"#utility.yul\":6761:6767   */\n      0x00\n        /* \"#utility.yul\":6798:6799   */\n      0x02\n        /* \"#utility.yul\":6792:6796   */\n      dup3\n        /* \"#utility.yul\":6788:6800   */\n      div\n        /* \"#utility.yul\":6778:6800   */\n      swap1\n      pop\n        /* \"#utility.yul\":6845:6846   */\n      0x01\n        /* \"#utility.yul\":6839:6843   */\n      dup3\n        /* \"#utility.yul\":6835:6847   */\n      and\n        /* \"#utility.yul\":6866:6884   */\n      dup1\n        /* \"#utility.yul\":6856:6937   */\n      tag_202\n      jumpi\n        /* \"#utility.yul\":6922:6926   */\n      0x7f\n        /* \"#utility.yul\":6914:6920   */\n      dup3\n        /* \"#utility.yul\":6910:6927   */\n      and\n        /* \"#utility.yul\":6900:6927   */\n      swap2\n      pop\n        /* \"#utility.yul\":6856:6937   */\n    tag_202:\n        /* \"#utility.yul\":6984:6986   */\n      0x20\n        /* \"#utility.yul\":6976:6982   */\n      dup3\n        /* \"#utility.yul\":6973:6987   */\n      lt\n        /* \"#utility.yul\":6953:6971   */\n      dup2\n        /* \"#utility.yul\":6950:6988   */\n      sub\n        /* \"#utility.yul\":6947:7031   */\n      tag_203\n      jumpi\n        /* \"#utility.yul\":7003:7021   */\n      tag_204\n      tag_99\n      jump\t// in\n    tag_204:\n        /* \"#utility.yul\":6947:7031   */\n    tag_203:\n        /* \"#utility.yul\":6768:7037   */\n      pop\n        /* \"#utility.yul\":6717:7037   */\n      swap2\n      swap1\n      pop\n      jump\t// out\n        /* \"#utility.yul\":7043:7212   */\n    tag_100:\n        /* \"#utility.yul\":7183:7204   */\n      0x496e646578206f7574206f6620626f756e647300000000000000000000000000\n        /* \"#utility.yul\":7179:7180   */\n      0x00\n        /* \"#utility.yul\":7171:7177   */\n      dup3\n        /* \"#utility.yul\":7167:7181   */\n      add\n        /* \"#utility.yul\":7160:7205   */\n      mstore\n        /* \"#utility.yul\":7043:7212   */\n      pop\n      jump\t// out\n        /* \"#utility.yul\":7218:7584   */\n    tag_101:\n        /* \"#utility.yul\":7360:7363   */\n      0x00\n        /* \"#utility.yul\":7381:7448   */\n      tag_207\n        /* \"#utility.yul\":7445:7447   */\n      0x13\n        /* \"#utility.yul\":7440:7443   */\n      dup4\n        /* \"#utility.yul\":7381:7448   */\n      tag_84\n      jump\t// in\n    tag_207:\n        /* \"#utility.yul\":7374:7448   */\n      swap2\n      pop\n        /* \"#utility.yul\":7457:7550   */\n      tag_208\n        /* \"#utility.yul\":7546:7549   */\n      dup3\n        /* \"#utility.yul\":7457:7550   */\n      tag_100\n      jump\t// in\n    tag_208:\n        /* \"#utility.yul\":7575:7577   */\n      0x20\n        /* \"#utility.yul\":7570:7573   */\n      dup3\n        /* \"#utility.yul\":7566:7578   */\n      add\n        /* \"#utility.yul\":7559:7578   */\n      swap1\n      pop\n        /* \"#utility.yul\":7218:7584   */\n      swap2\n      swap1\n      pop\n      jump\t// out\n        /* \"#utility.yul\":7590:8009   */\n    tag_42:\n        /* \"#utility.yul\":7756:7760   */\n      0x00\n        /* \"#utility.yul\":7794:7796   */\n      0x20\n        /* \"#utility.yul\":7783:7792   */\n      dup3\n        /* \"#utility.yul\":7779:7797   */\n      add\n        /* \"#utility.yul\":7771:7797   */\n      swap1\n      pop\n        /* \"#utility.yul\":7843:7852   */\n      dup2\n        /* \"#utility.yul\":7837:7841   */\n      dup2\n        /* \"#utility.yul\":7833:7853   */\n      sub\n        /* \"#utility.yul\":7829:7830   */\n      0x00\n        /* \"#utility.yul\":7818:7827   */\n      dup4\n        /* \"#utility.yul\":7814:7831   */\n      add\n        /* \"#utility.yul\":7807:7854   */\n      mstore\n        /* \"#utility.yul\":7871:8002   */\n      tag_210\n        /* \"#utility.yul\":7997:8001   */\n      dup2\n        /* \"#utility.yul\":7871:8002   */\n      tag_101\n      jump\t// in\n    tag_210:\n        /* \"#utility.yul\":7863:8002   */\n      swap1\n      pop\n        /* \"#utility.yul\":7590:8009   */\n      swap2\n      swap1\n      pop\n      jump\t// out\n        /* \"#utility.yul\":8015:8195   */\n    tag_45:\n        /* \"#utility.yul\":8063:8140   */\n      0x4e487b7100000000000000000000000000000000000000000000000000000000\n        /* \"#utility.yul\":8060:8061   */\n      0x00\n        /* \"#utility.yul\":8053:8141   */\n      mstore\n        /* \"#utility.yul\":8160:8164   */\n      0x32\n        /* \"#utility.yul\":8157:8158   */\n      0x04\n        /* \"#utility.yul\":8150:8165   */\n      mstore\n        /* \"#utility.yul\":8184:8188   */\n      0x24\n        /* \"#utility.yul\":8181:8182   */\n      0x00\n        /* \"#utility.yul\":8174:8189   */\n      revert\n        /* \"#utility.yul\":8201:8624   */\n    tag_56:\n        /* \"#utility.yul\":8342:8346   */\n      0x00\n        /* \"#utility.yul\":8380:8382   */\n      0x40\n        /* \"#utility.yul\":8369:8378   */\n      dup3\n        /* \"#utility.yul\":8365:8383   */\n      add\n        /* \"#utility.yul\":8357:8383   */\n      swap1\n      pop\n        /* \"#utility.yul\":8393:8464   */\n      tag_213\n        /* \"#utility.yul\":8461:8462   */\n      0x00\n        /* \"#utility.yul\":8450:8459   */\n      dup4\n        /* \"#utility.yul\":8446:8463   */\n      add\n        /* \"#utility.yul\":8437:8443   */\n      dup6\n        /* \"#utility.yul\":8393:8464   */\n      tag_79\n      jump\t// in\n    tag_213:\n        /* \"#utility.yul\":8511:8520   */\n      dup2\n        /* \"#utility.yul\":8505:8509   */\n      dup2\n        /* \"#utility.yul\":8501:8521   */\n      sub\n        /* \"#utility.yul\":8496:8498   */\n      0x20\n        /* \"#utility.yul\":8485:8494   */\n      dup4\n        /* \"#utility.yul\":8481:8499   */\n      add\n        /* \"#utility.yul\":8474:8522   */\n      mstore\n        /* \"#utility.yul\":8539:8617   */\n      tag_214\n        /* \"#utility.yul\":8612:8616   */\n      dup2\n        /* \"#utility.yul\":8603:8609   */\n      dup5\n        /* \"#utility.yul\":8539:8617   */\n      tag_87\n      jump\t// in\n    tag_214:\n        /* \"#utility.yul\":8531:8617   */\n      swap1\n      pop\n        /* \"#utility.yul\":8201:8624   */\n      swap4\n      swap3\n      pop\n      pop\n      pop\n      jump\t// out\n        /* \"#utility.yul\":8630:8771   */\n    tag_102:\n        /* \"#utility.yul\":8679:8683   */\n      0x00\n        /* \"#utility.yul\":8702:8705   */\n      dup2\n        /* \"#utility.yul\":8694:8705   */\n      swap1\n      pop\n        /* \"#utility.yul\":8725:8728   */\n      dup2\n        /* \"#utility.yul\":8722:8723   */\n      0x00\n        /* \"#utility.yul\":8715:8729   */\n      mstore\n        /* \"#utility.yul\":8759:8763   */\n      0x20\n        /* \"#utility.yul\":8756:8757   */\n      0x00\n        /* \"#utility.yul\":8746:8764   */\n      keccak256\n        /* \"#utility.yul\":8738:8764   */\n      swap1\n      pop\n        /* \"#utility.yul\":8630:8771   */\n      swap2\n      swap1\n      pop\n      jump\t// out\n        /* \"#utility.yul\":8777:8870   */\n    tag_103:\n        /* \"#utility.yul\":8814:8820   */\n      0x00\n        /* \"#utility.yul\":8861:8863   */\n      0x20\n        /* \"#utility.yul\":8856:8858   */\n      0x1f\n        /* \"#utility.yul\":8849:8854   */\n      dup4\n        /* \"#utility.yul\":8845:8859   */\n      add\n        /* \"#utility.yul\":8841:8864   */\n      div\n        /* \"#utility.yul\":8831:8864   */\n      swap1\n      pop\n        /* \"#utility.yul\":8777:8870   */\n      swap2\n      swap1\n      pop\n      jump\t// out\n        /* \"#utility.yul\":8876:8983   */\n    tag_104:\n        /* \"#utility.yul\":8920:8928   */\n      0x00\n        /* \"#utility.yul\":8970:8975   */\n      dup3\n        /* \"#utility.yul\":8964:8968   */\n      dup3\n        /* \"#utility.yul\":8960:8976   */\n      shl\n        /* \"#utility.yul\":8939:8976   */\n      swap1\n      pop\n        /* \"#utility.yul\":8876:8983   */\n      swap3\n      swap2\n      pop\n      pop\n      jump\t// out\n        /* \"#utility.yul\":8989:9382   */\n    tag_105:\n        /* \"#utility.yul\":9058:9064   */\n      0x00\n        /* \"#utility.yul\":9108:9109   */\n      0x08\n        /* \"#utility.yul\":9096:9106   */\n      dup4\n        /* \"#utility.yul\":9092:9110   */\n      mul\n        /* \"#utility.yul\":9131:9228   */\n      tag_219\n        /* \"#utility.yul\":9161:9227   */\n      0xffffffffffffffffffffffffffffffffffffffffffffffffffffffffffffffff\n        /* \"#utility.yul\":9150:9159   */\n      dup3\n        /* \"#utility.yul\":9131:9228   */\n      tag_104\n      jump\t// in\n    tag_219:\n        /* \"#utility.yul\":9249:9288   */\n      tag_220\n        /* \"#utility.yul\":9279:9287   */\n      dup7\n        /* \"#utility.yul\":9268:9277   */\n      dup4\n        /* \"#utility.yul\":9249:9288   */\n      tag_104\n      jump\t// in\n    tag_220:\n        /* \"#utility.yul\":9237:9288   */\n      swap6\n      pop\n        /* \"#utility.yul\":9321:9325   */\n      dup1\n        /* \"#utility.yul\":9317:9326   */\n      not\n        /* \"#utility.yul\":9310:9315   */\n      dup5\n        /* \"#utility.yul\":9306:9327   */\n      and\n        /* \"#utility.yul\":9297:9327   */\n      swap4\n      pop\n        /* \"#utility.yul\":9370:9374   */\n      dup1\n        /* \"#utility.yul\":9360:9368   */\n      dup7\n        /* \"#utility.yul\":9356:9375   */\n      and\n        /* \"#utility.yul\":9349:9354   */\n      dup5\n        /* \"#utility.yul\":9346:9376   */\n      or\n        /* \"#utility.yul\":9336:9376   */\n      swap3\n      pop\n        /* \"#utility.yul\":9065:9382   */\n      pop\n      pop\n        /* \"#utility.yul\":8989:9382   */\n      swap4\n      swap3\n      pop\n      pop\n      pop\n      jump\t// out\n        /* \"#utility.yul\":9388:9448   */\n    tag_106:\n        /* \"#utility.yul\":9416:9419   */\n      0x00\n        /* \"#utility.yul\":9437:9442   */\n      dup2\n        /* \"#utility.yul\":9430:9442   */\n      swap1\n      pop\n        /* \"#utility.yul\":9388:9448   */\n      swap2\n      swap1\n      pop\n      jump\t// out\n        /* \"#utility.yul\":9454:9596   */\n    tag_107:\n        /* \"#utility.yul\":9504:9513   */\n      0x00\n        /* \"#utility.yul\":9537:9590   */\n      tag_223\n        /* \"#utility.yul\":9555:9589   */\n      tag_224\n        /* \"#utility.yul\":9564:9588   */\n      tag_225\n        /* \"#utility.yul\":9582:9587   */\n      dup5\n        /* \"#utility.yul\":9564:9588   */\n      tag_76\n      jump\t// in\n    tag_225:\n        /* \"#utility.yul\":9555:9589   */\n      tag_106\n      jump\t// in\n    tag_224:\n        /* \"#utility.yul\":9537:9590   */\n      tag_76\n      jump\t// in\n    tag_223:\n        /* \"#utility.yul\":9524:9590   */\n      swap1\n      pop\n        /* \"#utility.yul\":9454:9596   */\n      swap2\n      swap1\n      pop\n      jump\t// out\n        /* \"#utility.yul\":9602:9677   */\n    tag_108:\n        /* \"#utility.yul\":9645:9648   */\n      0x00\n        /* \"#utility.yul\":9666:9671   */\n      dup2\n        /* \"#utility.yul\":9659:9671   */\n      swap1\n      pop\n        /* \"#utility.yul\":9602:9677   */\n      swap2\n      swap1\n      pop\n      jump\t// out\n        /* \"#utility.yul\":9683:9952   */\n    tag_109:\n        /* \"#utility.yul\":9793:9832   */\n      tag_228\n        /* \"#utility.yul\":9824:9831   */\n      dup4\n        /* \"#utility.yul\":9793:9832   */\n      tag_107\n      jump\t// in\n    tag_228:\n        /* \"#utility.yul\":9854:9945   */\n      tag_229\n        /* \"#utility.yul\":9903:9944   */\n      tag_230\n        /* \"#utility.yul\":9927:9943   */\n      dup3\n        /* \"#utility.yul\":9903:9944   */\n      tag_108\n      jump\t// in\n    tag_230:\n        /* \"#utility.yul\":9895:9901   */\n      dup5\n        /* \"#utility.yul\":9888:9892   */\n      dup5\n        /* \"#utility.yul\":9882:9893   */\n      sload\n        /* \"#utility.yul\":9854:9945   */\n      tag_105\n      jump\t// in\n    tag_229:\n        /* \"#utility.yul\":9848:9852   */\n      dup3\n        /* \"#utility.yul\":9841:9946   */\n      sstore\n        /* \"#utility.yul\":9759:9952   */\n      pop\n        /* \"#utility.yul\":9683:9952   */\n      pop\n      pop\n      pop\n      jump\t// out\n        /* \"#utility.yul\":9958:10031   */\n    tag_110:\n        /* \"#utility.yul\":10003:10006   */\n      0x00\n        /* \"#utility.yul\":9958:10031   */\n      swap1\n      jump\t// out\n        /* \"#utility.yul\":10037:10226   */\n    tag_111:\n        /* \"#utility.yul\":10114:10146   */\n      tag_233\n      tag_110\n      jump\t// in\n    tag_233:\n        /* \"#utility.yul\":10155:10220   */\n      tag_234\n        /* \"#utility.yul\":10213:10219   */\n      dup2\n        /* \"#utility.yul\":10205:10211   */\n      dup5\n        /* \"#utility.yul\":10199:10203   */\n      dup5\n        /* \"#utility.yul\":10155:10220   */\n      tag_109\n      jump\t// in\n    tag_234:\n        /* \"#utility.yul\":10090:10226   */\n      pop\n        /* \"#utility.yul\":10037:10226   */\n      pop\n      pop\n      jump\t// out\n        /* \"#utility.yul\":10232:10418   */\n    tag_112:\n        /* \"#utility.yul\":10292:10412   */\n    tag_236:\n        /* \"#utility.yul\":10309:10312   */\n      dup2\n        /* \"#utility.yul\":10302:10307   */\n      dup2\n        /* \"#utility.yul\":10299:10313   */\n      lt\n        /* \"#utility.yul\":10292:10412   */\n      iszero\n      tag_238\n      jumpi\n        /* \"#utility.yul\":10363:10402   */\n      tag_239\n        /* \"#utility.yul\":10400:10401   */\n      0x00\n        /* \"#utility.yul\":10393:10398   */\n      dup3\n        /* \"#utility.yul\":10363:10402   */\n      tag_111\n      jump\t// in\n    tag_239:\n        /* \"#utility.yul\":10336:10337   */\n      0x01\n        /* \"#utility.yul\":10329:10334   */\n      dup2\n        /* \"#utility.yul\":10325:10338   */\n      add\n        /* \"#utility.yul\":10316:10338   */\n      swap1\n      pop\n        /* \"#utility.yul\":10292:10412   */\n      jump(tag_236)\n    tag_238:\n        /* \"#utility.yul\":10232:10418   */\n      pop\n      pop\n      jump\t// out\n        /* \"#utility.yul\":10424:10967   */\n    tag_113:\n        /* \"#utility.yul\":10525:10527   */\n      0x1f\n        /* \"#utility.yul\":10520:10523   */\n      dup3\n        /* \"#utility.yul\":10517:10528   */\n      gt\n        /* \"#utility.yul\":10514:10960   */\n      iszero\n      tag_241\n      jumpi\n        /* \"#utility.yul\":10559:10597   */\n      tag_242\n        /* \"#utility.yul\":10591:10596   */\n      dup2\n        /* \"#utility.yul\":10559:10597   */\n      tag_102\n      jump\t// in\n    tag_242:\n        /* \"#utility.yul\":10643:10672   */\n      tag_243\n        /* \"#utility.yul\":10661:10671   */\n      dup5\n        /* \"#utility.yul\":10643:10672   */\n      tag_103\n      jump\t// in\n    tag_243:\n        /* \"#utility.yul\":10633:10641   */\n      dup2\n        /* \"#utility.yul\":10629:10673   */\n      add\n        /* \"#utility.yul\":10826:10828   */\n      0x20\n        /* \"#utility.yul\":10814:10824   */\n      dup6\n        /* \"#utility.yul\":10811:10829   */\n      lt\n        /* \"#utility.yul\":10808:10857   */\n      iszero\n      tag_244\n      jumpi\n        /* \"#utility.yul\":10847:10855   */\n      dup2\n        /* \"#utility.yul\":10832:10855   */\n      swap1\n      pop\n        /* \"#utility.yul\":10808:10857   */\n    tag_244:\n        /* \"#utility.yul\":10870:10950   */\n      tag_245\n        /* \"#utility.yul\":10926:10948   */\n      tag_246\n        /* \"#utility.yul\":10944:10947   */\n      dup6\n        /* \"#utility.yul\":10926:10948   */\n      tag_103\n      jump\t// in\n    tag_246:\n        /* \"#utility.yul\":10916:10924   */\n      dup4\n        /* \"#utility.yul\":10912:10949   */\n      add\n        /* \"#utility.yul\":10899:10910   */\n      dup3\n        /* \"#utility.yul\":10870:10950   */\n      tag_112\n      jump\t// in\n    tag_245:\n        /* \"#utility.yul\":10529:10960   */\n      pop\n      pop\n        /* \"#utility.yul\":10514:10960   */\n    tag_241:\n        /* \"#utility.yul\":10424:10967   */\n      pop\n      pop\n      pop\n      jump\t// out\n        /* \"#utility.yul\":10973:11090   */\n    tag_114:\n        /* \"#utility.yul\":11027:11035   */\n      0x00\n        /* \"#utility.yul\":11077:11082   */\n      dup3\n        /* \"#utility.yul\":11071:11075   */\n      dup3\n        /* \"#utility.yul\":11067:11083   */\n      shr\n        /* \"#utility.yul\":11046:11083   */\n      swap1\n      pop\n        /* \"#utility.yul\":10973:11090   */\n      swap3\n      swap2\n      pop\n      pop\n      jump\t// out\n        /* \"#utility.yul\":11096:11265   */\n    tag_115:\n        /* \"#utility.yul\":11140:11146   */\n      0x00\n        /* \"#utility.yul\":11173:11224   */\n      tag_249\n        /* \"#utility.yul\":11221:11222   */\n      0x00\n        /* \"#utility.yul\":11217:11223   */\n      not\n        /* \"#utility.yul\":11209:11214   */\n      dup5\n        /* \"#utility.yul\":11206:11207   */\n      0x08\n        /* \"#utility.yul\":11202:11215   */\n      mul\n        /* \"#utility.yul\":11173:11224   */\n      tag_114\n      jump\t// in\n    tag_249:\n        /* \"#utility.yul\":11169:11225   */\n      not\n        /* \"#utility.yul\":11254:11258   */\n      dup1\n        /* \"#utility.yul\":11248:11252   */\n      dup4\n        /* \"#utility.yul\":11244:11259   */\n      and\n        /* \"#utility.yul\":11234:11259   */\n      swap2\n      pop\n        /* \"#utility.yul\":11147:11265   */\n      pop\n        /* \"#utility.yul\":11096:11265   */\n      swap3\n      swap2\n      pop\n      pop\n      jump\t// out\n        /* \"#utility.yul\":11270:11565   */\n    tag_116:\n        /* \"#utility.yul\":11346:11350   */\n      0x00\n        /* \"#utility.yul\":11492:11521   */\n      tag_251\n        /* \"#utility.yul\":11517:11520   */\n      dup4\n        /* \"#utility.yul\":11511:11515   */\n      dup4\n        /* \"#utility.yul\":11492:11521   */\n      tag_115\n      jump\t// in\n    tag_251:\n        /* \"#utility.yul\":11484:11521   */\n      swap2\n      pop\n        /* \"#utility.yul\":11554:11557   */\n      dup3\n        /* \"#utility.yul\":11551:11552   */\n      0x02\n        /* \"#utility.yul\":11547:11558   */\n      mul\n        /* \"#utility.yul\":11541:11545   */\n      dup3\n        /* \"#utility.yul\":11538:11559   */\n      or\n        /* \"#utility.yul\":11530:11559   */\n      swap1\n      pop\n        /* \"#utility.yul\":11270:11565   */\n      swap3\n      swap2\n      pop\n      pop\n      jump\t// out\n        /* \"#utility.yul\":11570:12965   */\n    tag_60:\n        /* \"#utility.yul\":11687:11724   */\n      tag_253\n        /* \"#utility.yul\":11720:11723   */\n      dup3\n        /* \"#utility.yul\":11687:11724   */\n      tag_83\n      jump\t// in\n    tag_253:\n        /* \"#utility.yul\":11789:11807   */\n      0xffffffffffffffff\n        /* \"#utility.yul\":11781:11787   */\n      dup2\n        /* \"#utility.yul\":11778:11808   */\n      gt\n        /* \"#utility.yul\":11775:11831   */\n      iszero\n      tag_254\n      jumpi\n        /* \"#utility.yul\":11811:11829   */\n      tag_255\n      tag_90\n      jump\t// in\n    tag_255:\n        /* \"#utility.yul\":11775:11831   */\n    tag_254:\n        /* \"#utility.yul\":11855:11893   */\n      tag_256\n        /* \"#utility.yul\":11887:11891   */\n      dup3\n        /* \"#utility.yul\":11881:11892   */\n      sload\n        /* \"#utility.yul\":11855:11893   */\n      tag_33\n      jump\t// in\n    tag_256:\n        /* \"#utility.yul\":11940:12007   */\n      tag_257\n        /* \"#utility.yul\":12000:12006   */\n      dup3\n        /* \"#utility.yul\":11992:11998   */\n      dup3\n        /* \"#utility.yul\":11986:11990   */\n      dup6\n        /* \"#utility.yul\":11940:12007   */\n      tag_113\n      jump\t// in\n    tag_257:\n        /* \"#utility.yul\":12034:12035   */\n      0x00\n        /* \"#utility.yul\":12058:12062   */\n      0x20\n        /* \"#utility.yul\":12045:12062   */\n      swap1\n      pop\n        /* \"#utility.yul\":12090:12092   */\n      0x1f\n        /* \"#utility.yul\":12082:12088   */\n      dup4\n        /* \"#utility.yul\":12079:12093   */\n      gt\n        /* \"#utility.yul\":12107:12108   */\n      0x01\n        /* \"#utility.yul\":12102:12720   */\n      dup2\n      eq\n      tag_259\n      jumpi\n        /* \"#utility.yul\":12764:12765   */\n      0x00\n        /* \"#utility.yul\":12781:12787   */\n      dup5\n        /* \"#utility.yul\":12778:12855   */\n      iszero\n      tag_260\n      jumpi\n        /* \"#utility.yul\":12830:12839   */\n      dup3\n        /* \"#utility.yul\":12825:12828   */\n      dup8\n        /* \"#utility.yul\":12821:12840   */\n      add\n        /* \"#utility.yul\":12815:12841   */\n      mload\n        /* \"#utility.yul\":12806:12841   */\n      swap1\n      pop\n        /* \"#utility.yul\":12778:12855   */\n    tag_260:\n        /* \"#utility.yul\":12881:12948   */\n      tag_261\n        /* \"#utility.yul\":12941:12947   */\n      dup6\n        /* \"#utility.yul\":12934:12939   */\n      dup3\n        /* \"#utility.yul\":12881:12948   */\n      tag_116\n      jump\t// in\n    tag_261:\n        /* \"#utility.yul\":12875:12879   */\n      dup7\n        /* \"#utility.yul\":12868:12949   */\n      sstore\n        /* \"#utility.yul\":12737:12959   */\n      pop\n        /* \"#utility.yul\":12072:12959   */\n      jump(tag_258)\n        /* \"#utility.yul\":12102:12720   */\n    tag_259:\n        /* \"#utility.yul\":12154:12158   */\n      0x1f\n        /* \"#utility.yul\":12150:12159   */\n      not\n        /* \"#utility.yul\":12142:12148   */\n      dup5\n        /* \"#utility.yul\":12138:12160   */\n      and\n        /* \"#utility.yul\":12188:12225   */\n      tag_262\n        /* \"#utility.yul\":12220:12224   */\n      dup7\n        /* \"#utility.yul\":12188:12225   */\n      tag_102\n      jump\t// in\n    tag_262:\n        /* \"#utility.yul\":12247:12248   */\n      0x00\n        /* \"#utility.yul\":12261:12469   */\n    tag_263:\n        /* \"#utility.yul\":12275:12282   */\n      dup3\n        /* \"#utility.yul\":12272:12273   */\n      dup2\n        /* \"#utility.yul\":12269:12283   */\n      lt\n        /* \"#utility.yul\":12261:12469   */\n      iszero\n      tag_265\n      jumpi\n        /* \"#utility.yul\":12354:12363   */\n      dup5\n        /* \"#utility.yul\":12349:12352   */\n      dup10\n        /* \"#utility.yul\":12345:12364   */\n      add\n        /* \"#utility.yul\":12339:12365   */\n      mload\n        /* \"#utility.yul\":12331:12337   */\n      dup3\n        /* \"#utility.yul\":12324:12366   */\n      sstore\n        /* \"#utility.yul\":12405:12406   */\n      0x01\n        /* \"#utility.yul\":12397:12403   */\n      dup3\n        /* \"#utility.yul\":12393:12407   */\n      add\n        /* \"#utility.yul\":12383:12407   */\n      swap2\n      pop\n        /* \"#utility.yul\":12452:12454   */\n      0x20\n        /* \"#utility.yul\":12441:12450   */\n      dup6\n        /* \"#utility.yul\":12437:12455   */\n      add\n        /* \"#utility.yul\":12424:12455   */\n      swap5\n      pop\n        /* \"#utility.yul\":12298:12302   */\n      0x20\n        /* \"#utility.yul\":12295:12296   */\n      dup2\n        /* \"#utility.yul\":12291:12303   */\n      add\n        /* \"#utility.yul\":12286:12303   */\n      swap1\n      pop\n        /* \"#utility.yul\":12261:12469   */\n      jump(tag_263)\n    tag_265:\n        /* \"#utility.yul\":12497:12503   */\n      dup7\n        /* \"#utility.yul\":12488:12495   */\n      dup4\n        /* \"#utility.yul\":12485:12504   */\n      lt\n        /* \"#utility.yul\":12482:12661   */\n      iszero\n      tag_266\n      jumpi\n        /* \"#utility.yul\":12555:12564   */\n      dup5\n        /* \"#utility.yul\":12550:12553   */\n      dup10\n        /* \"#utility.yul\":12546:12565   */\n      add\n        /* \"#utility.yul\":12540:12566   */\n      mload\n        /* \"#utility.yul\":12598:12646   */\n      tag_267\n        /* \"#utility.yul\":12640:12644   */\n      0x1f\n        /* \"#utility.yul\":12632:12638   */\n      dup10\n        /* \"#utility.yul\":12628:12645   */\n      and\n        /* \"#utility.yul\":12617:12626   */\n      dup3\n        /* \"#utility.yul\":12598:12646   */\n      tag_115\n      jump\t// in\n    tag_267:\n        /* \"#utility.yul\":12590:12596   */\n      dup4\n        /* \"#utility.yul\":12583:12647   */\n      sstore\n        /* \"#utility.yul\":12505:12661   */\n      pop\n        /* \"#utility.yul\":12482:12661   */\n    tag_266:\n        /* \"#utility.yul\":12707:12708   */\n      0x01\n        /* \"#utility.yul\":12703:12704   */\n      0x02\n        /* \"#utility.yul\":12695:12701   */\n      dup9\n        /* \"#utility.yul\":12691:12705   */\n      mul\n        /* \"#utility.yul\":12687:12709   */\n      add\n        /* \"#utility.yul\":12681:12685   */\n      dup9\n        /* \"#utility.yul\":12674:12710   */\n      sstore\n        /* \"#utility.yul\":12109:12720   */\n      pop\n      pop\n      pop\n        /* \"#utility.yul\":12072:12959   */\n    tag_258:\n      pop\n        /* \"#utility.yul\":11662:12965   */\n      pop\n      pop\n      pop\n        /* \"#utility.yul\":11570:12965   */\n      pop\n      pop\n      jump\t// out\n        /* \"#utility.yul\":12971:13127   */\n    tag_117:\n        /* \"#utility.yul\":13111:13119   */\n      0x737472696e670000000000000000000000000000000000000000000000000000\n        /* \"#utility.yul\":13107:13108   */\n      0x00\n        /* \"#utility.yul\":13099:13105   */\n      dup3\n        /* \"#utility.yul\":13095:13109   */\n      add\n        /* \"#utility.yul\":13088:13120   */\n      mstore\n        /* \"#utility.yul\":12971:13127   */\n      pop\n      jump\t// out\n        /* \"#utility.yul\":13133:13498   */\n    tag_118:\n        /* \"#utility.yul\":13275:13278   */\n      0x00\n        /* \"#utility.yul\":13296:13362   */\n      tag_270\n        /* \"#utility.yul\":13360:13361   */\n      0x06\n        /* \"#utility.yul\":13355:13358   */\n      dup4\n        /* \"#utility.yul\":13296:13362   */\n      tag_84\n      jump\t// in\n    tag_270:\n        /* \"#utility.yul\":13289:13362   */\n      swap2\n      pop\n        /* \"#utility.yul\":13371:13464   */\n      tag_271\n        /* \"#utility.yul\":13460:13463   */\n      dup3\n        /* \"#utility.yul\":13371:13464   */\n      tag_117\n      jump\t// in\n    tag_271:\n        /* \"#utility.yul\":13489:13491   */\n      0x20\n        /* \"#utility.yul\":13484:13487   */\n      dup3\n        /* \"#utility.yul\":13480:13492   */\n      add\n        /* \"#utility.yul\":13473:13492   */\n      swap1\n      pop\n        /* \"#utility.yul\":13133:13498   */\n      swap2\n      swap1\n      pop\n      jump\t// out\n        /* \"#utility.yul\":13504:13923   */\n    tag_62:\n        /* \"#utility.yul\":13670:13674   */\n      0x00\n        /* \"#utility.yul\":13708:13710   */\n      0x20\n        /* \"#utility.yul\":13697:13706   */\n      dup3\n        /* \"#utility.yul\":13693:13711   */\n      add\n        /* \"#utility.yul\":13685:13711   */\n      swap1\n      pop\n        /* \"#utility.yul\":13757:13766   */\n      dup2\n        /* \"#utility.yul\":13751:13755   */\n      dup2\n        /* \"#utility.yul\":13747:13767   */\n      sub\n        /* \"#utility.yul\":13743:13744   */\n      0x00\n        /* \"#utility.yul\":13732:13741   */\n      dup4\n        /* \"#utility.yul\":13728:13745   */\n      add\n        /* \"#utility.yul\":13721:13768   */\n      mstore\n        /* \"#utility.yul\":13785:13916   */\n      tag_273\n        /* \"#utility.yul\":13911:13915   */\n      dup2\n        /* \"#utility.yul\":13785:13916   */\n      tag_118\n      jump\t// in\n    tag_273:\n        /* \"#utility.yul\":13777:13916   */\n      swap1\n      pop\n        /* \"#utility.yul\":13504:13923   */\n      swap2\n      swap1\n      pop\n      jump\t// out\n        /* \"#utility.yul\":13929:14261   */\n    tag_67:\n        /* \"#utility.yul\":14050:14054   */\n      0x00\n        /* \"#utility.yul\":14088:14090   */\n      0x40\n        /* \"#utility.yul\":14077:14086   */\n      dup3\n        /* \"#utility.yul\":14073:14091   */\n      add\n        /* \"#utility.yul\":14065:14091   */\n      swap1\n      pop\n        /* \"#utility.yul\":14101:14172   */\n      tag_275\n        /* \"#utility.yul\":14169:14170   */\n      0x00\n        /* \"#utility.yul\":14158:14167   */\n      dup4\n        /* \"#utility.yul\":14154:14171   */\n      add\n        /* \"#utility.yul\":14145:14151   */\n      dup6\n        /* \"#utility.yul\":14101:14172   */\n      tag_79\n      jump\t// in\n    tag_275:\n        /* \"#utility.yul\":14182:14254   */\n      tag_276\n        /* \"#utility.yul\":14250:14252   */\n      0x20\n        /* \"#utility.yul\":14239:14248   */\n      dup4\n        /* \"#utility.yul\":14235:14253   */\n      add\n        /* \"#utility.yul\":14226:14232   */\n      dup5\n        /* \"#utility.yul\":14182:14254   */\n      tag_82\n      jump\t// in\n    tag_276:\n        /* \"#utility.yul\":13929:14261   */\n      swap4\n      swap3\n      pop\n      pop\n      pop\n      jump\t// out\n        /* \"#utility.yul\":14267:14424   */\n    tag_119:\n        /* \"#utility.yul\":14407:14416   */\n      0x6164647265737300000000000000000000000000000000000000000000000000\n        /* \"#utility.yul\":14403:14404   */\n      0x00\n        /* \"#utility.yul\":14395:14401   */\n      dup3\n        /* \"#utility.yul\":14391:14405   */\n      add\n        /* \"#utility.yul\":14384:14417   */\n      mstore\n        /* \"#utility.yul\":14267:14424   */\n      pop\n      jump\t// out\n        /* \"#utility.yul\":14430:14795   */\n    tag_120:\n        /* \"#utility.yul\":14572:14575   */\n      0x00\n        /* \"#utility.yul\":14593:14659   */\n      tag_279\n        /* \"#utility.yul\":14657:14658   */\n      0x07\n        /* \"#utility.yul\":14652:14655   */\n      dup4\n        /* \"#utility.yul\":14593:14659   */\n      tag_84\n      jump\t// in\n    tag_279:\n        /* \"#utility.yul\":14586:14659   */\n      swap2\n      pop\n        /* \"#utility.yul\":14668:14761   */\n      tag_280\n        /* \"#utility.yul\":14757:14760   */\n      dup3\n        /* \"#utility.yul\":14668:14761   */\n      tag_119\n      jump\t// in\n    tag_280:\n        /* \"#utility.yul\":14786:14788   */\n      0x20\n        /* \"#utility.yul\":14781:14784   */\n      dup3\n        /* \"#utility.yul\":14777:14789   */\n      add\n        /* \"#utility.yul\":14770:14789   */\n      swap1\n      pop\n        /* \"#utility.yul\":14430:14795   */\n      swap2\n      swap1\n      pop\n      jump\t// out\n        /* \"#utility.yul\":14801:15220   */\n    tag_72:\n        /* \"#utility.yul\":14967:14971   */\n      0x00\n        /* \"#utility.yul\":15005:15007   */\n      0x20\n        /* \"#utility.yul\":14994:15003   */\n      dup3\n        /* \"#utility.yul\":14990:15008   */\n      add\n        /* \"#utility.yul\":14982:15008   */\n      swap1\n      pop\n        /* \"#utility.yul\":15054:15063   */\n      dup2\n        /* \"#utility.yul\":15048:15052   */\n      dup2\n        /* \"#utility.yul\":15044:15064   */\n      sub\n        /* \"#utility.yul\":15040:15041   */\n      0x00\n        /* \"#utility.yul\":15029:15038   */\n      dup4\n        /* \"#utility.yul\":15025:15042   */\n      add\n        /* \"#utility.yul\":15018:15065   */\n      mstore\n        /* \"#utility.yul\":15082:15213   */\n      tag_282\n        /* \"#utility.yul\":15208:15212   */\n      dup2\n        /* \"#utility.yul\":15082:15213   */\n      tag_120\n      jump\t// in\n    tag_282:\n        /* \"#utility.yul\":15074:15213   */\n      swap1\n      pop\n        /* \"#utility.yul\":14801:15220   */\n      swap2\n      swap1\n      pop\n      jump\t// out\n    stop\n\n    sub_0: assembly {\n            /* \"Solidity/Hardhat/my-hardhat-project/contracts/RecordFactory.sol\":611:1261  contract StringRecord is Record {... */\n          mstore(0x40, 0x80)\n            /* \"Solidity/Hardhat/my-hardhat-project/contracts/RecordFactory.sol\":792:925  constructor(uint256 _timeOfCreation, string memory _record)... */\n          callvalue\n          dup1\n          iszero\n          tag_1\n          jumpi\n          0x00\n          dup1\n          revert\n        tag_1:\n          pop\n          mload(0x40)\n          sub(codesize, bytecodeSize)\n          dup1\n          bytecodeSize\n          dup4\n          codecopy\n          dup2\n          dup2\n          add\n          0x40\n          mstore\n          dup2\n          add\n          swap1\n          tag_2\n          swap2\n          swap1\n          tag_3\n          jump\t// in\n        tag_2:\n            /* \"Solidity/Hardhat/my-hardhat-project/contracts/RecordFactory.sol\":868:883  _timeOfCreation */\n          dup2\n            /* \"Solidity/Hardhat/my-hardhat-project/contracts/RecordFactory.sol\":295:310  _timeOfCreation */\n          dup1\n            /* \"Solidity/Hardhat/my-hardhat-project/contracts/RecordFactory.sol\":278:292  timeOfCreation */\n          0x00\n            /* \"Solidity/Hardhat/my-hardhat-project/contracts/RecordFactory.sol\":278:310  timeOfCreation = _timeOfCreation */\n          dup2\n          swap1\n          sstore\n          pop\n            /* \"Solidity/Hardhat/my-hardhat-project/contracts/RecordFactory.sol\":230:318  constructor(uint256 _timeOfCreation) {... */\n          pop\n            /* \"Solidity/Hardhat/my-hardhat-project/contracts/RecordFactory.sol\":910:917  _record */\n          dup1\n            /* \"Solidity/Hardhat/my-hardhat-project/contracts/RecordFactory.sol\":901:907  record */\n          0x01\n            /* \"Solidity/Hardhat/my-hardhat-project/contracts/RecordFactory.sol\":901:917  record = _record */\n          swap1\n          dup2\n          tag_8\n          swap2\n          swap1\n          tag_9\n          jump\t// in\n        tag_8:\n          pop\n            /* \"Solidity/Hardhat/my-hardhat-project/contracts/RecordFactory.sol\":792:925  constructor(uint256 _timeOfCreation, string memory _record)... */\n          pop\n          pop\n            /* \"Solidity/Hardhat/my-hardhat-project/contracts/RecordFactory.sol\":611:1261  contract StringRecord is Record {... */\n          jump(tag_10)\n            /* \"#utility.yul\":7:82   */\n        tag_11:\n            /* \"#utility.yul\":40:46   */\n          0x00\n            /* \"#utility.yul\":73:75   */\n          0x40\n            /* \"#utility.yul\":67:76   */\n          mload\n            /* \"#utility.yul\":57:76   */\n          swap1\n          pop\n            /* \"#utility.yul\":7:82   */\n          swap1\n          jump\t// out\n            /* \"#utility.yul\":88:205   */\n        tag_12:\n            /* \"#utility.yul\":197:198   */\n          0x00\n            /* \"#utility.yul\":194:195   */\n          dup1\n            /* \"#utility.yul\":187:199   */\n          revert\n            /* \"#utility.yul\":211:328   */\n        tag_13:\n            /* \"#utility.yul\":320:321   */\n          0x00\n            /* \"#utility.yul\":317:318   */\n          dup1\n            /* \"#utility.yul\":310:322   */\n          revert\n            /* \"#utility.yul\":334:411   */\n        tag_14:\n            /* \"#utility.yul\":371:378   */\n          0x00\n            /* \"#utility.yul\":400:405   */\n          dup2\n            /* \"#utility.yul\":389:405   */\n          swap1\n          pop\n            /* \"#utility.yul\":334:411   */\n          swap2\n          swap1\n          pop\n          jump\t// out\n            /* \"#utility.yul\":417:539   */\n        tag_15:\n            /* \"#utility.yul\":490:514   */\n          tag_51\n            /* \"#utility.yul\":508:513   */\n          dup2\n            /* \"#utility.yul\":490:514   */\n          tag_14\n          jump\t// in\n        tag_51:\n            /* \"#utility.yul\":483:488   */\n          dup2\n            /* \"#utility.yul\":480:515   */\n          eq\n            /* \"#utility.yul\":470:533   */\n          tag_52\n          jumpi\n            /* \"#utility.yul\":529:530   */\n          0x00\n            /* \"#utility.yul\":526:527   */\n          dup1\n            /* \"#utility.yul\":519:531   */\n          revert\n            /* \"#utility.yul\":470:533   */\n        tag_52:\n            /* \"#utility.yul\":417:539   */\n          pop\n          jump\t// out\n            /* \"#utility.yul\":545:688   */\n        tag_16:\n            /* \"#utility.yul\":602:607   */\n          0x00\n            /* \"#utility.yul\":633:639   */\n          dup2\n            /* \"#utility.yul\":627:640   */\n          mload\n            /* \"#utility.yul\":618:640   */\n          swap1\n          pop\n            /* \"#utility.yul\":649:682   */\n          tag_54\n            /* \"#utility.yul\":676:681   */\n          dup2\n            /* \"#utility.yul\":649:682   */\n          tag_15\n          jump\t// in\n        tag_54:\n            /* \"#utility.yul\":545:688   */\n          swap3\n          swap2\n          pop\n          pop\n          jump\t// out\n            /* \"#utility.yul\":694:811   */\n        tag_17:\n            /* \"#utility.yul\":803:804   */\n          0x00\n            /* \"#utility.yul\":800:801   */\n          dup1\n            /* \"#utility.yul\":793:805   */\n          revert\n            /* \"#utility.yul\":817:934   */\n        tag_18:\n            /* \"#utility.yul\":926:927   */\n          0x00\n            /* \"#utility.yul\":923:924   */\n          dup1\n            /* \"#utility.yul\":916:928   */\n          revert\n            /* \"#utility.yul\":940:1042   */\n        tag_19:\n            /* \"#utility.yul\":981:987   */\n          0x00\n            /* \"#utility.yul\":1032:1034   */\n          0x1f\n            /* \"#utility.yul\":1028:1035   */\n          not\n            /* \"#utility.yul\":1023:1025   */\n          0x1f\n            /* \"#utility.yul\":1016:1021   */\n          dup4\n            /* \"#utility.yul\":1012:1026   */\n          add\n            /* \"#utility.yul\":1008:1036   */\n          and\n            /* \"#utility.yul\":998:1036   */\n          swap1\n          pop\n            /* \"#utility.yul\":940:1042   */\n          swap2\n          swap1\n          pop\n          jump\t// out\n            /* \"#utility.yul\":1048:1228   */\n        tag_20:\n            /* \"#utility.yul\":1096:1173   */\n          0x4e487b7100000000000000000000000000000000000000000000000000000000\n            /* \"#utility.yul\":1093:1094   */\n          0x00\n            /* \"#utility.yul\":1086:1174   */\n          mstore\n            /* \"#utility.yul\":1193:1197   */\n          0x41\n            /* \"#utility.yul\":1190:1191   */\n          0x04\n            /* \"#utility.yul\":1183:1198   */\n          mstore\n            /* \"#utility.yul\":1217:1221   */\n          0x24\n            /* \"#utility.yul\":1214:1215   */\n          0x00\n            /* \"#utility.yul\":1207:1222   */\n          revert\n            /* \"#utility.yul\":1234:1515   */\n        tag_21:\n            /* \"#utility.yul\":1317:1344   */\n          tag_60\n            /* \"#utility.yul\":1339:1343   */\n          dup3\n            /* \"#utility.yul\":1317:1344   */\n          tag_19\n          jump\t// in\n        tag_60:\n            /* \"#utility.yul\":1309:1315   */\n          dup2\n            /* \"#utility.yul\":1305:1345   */\n          add\n            /* \"#utility.yul\":1447:1453   */\n          dup2\n            /* \"#utility.yul\":1435:1445   */\n          dup2\n            /* \"#utility.yul\":1432:1454   */\n          lt\n            /* \"#utility.yul\":1411:1429   */\n          0xffffffffffffffff\n            /* \"#utility.yul\":1399:1409   */\n          dup3\n            /* \"#utility.yul\":1396:1430   */\n          gt\n            /* \"#utility.yul\":1393:1455   */\n          or\n            /* \"#utility.yul\":1390:1478   */\n          iszero\n          tag_61\n          jumpi\n            /* \"#utility.yul\":1458:1476   */\n          tag_62\n          tag_20\n          jump\t// in\n        tag_62:\n            /* \"#utility.yul\":1390:1478   */\n        tag_61:\n            /* \"#utility.yul\":1498:1508   */\n          dup1\n            /* \"#utility.yul\":1494:1496   */\n          0x40\n            /* \"#utility.yul\":1487:1509   */\n          mstore\n            /* \"#utility.yul\":1277:1515   */\n          pop\n            /* \"#utility.yul\":1234:1515   */\n          pop\n          pop\n          jump\t// out\n            /* \"#utility.yul\":1521:1650   */\n        tag_22:\n            /* \"#utility.yul\":1555:1561   */\n          0x00\n            /* \"#utility.yul\":1582:1602   */\n          tag_64\n          tag_11\n          jump\t// in\n        tag_64:\n            /* \"#utility.yul\":1572:1602   */\n          swap1\n          pop\n            /* \"#utility.yul\":1611:1644   */\n          tag_65\n            /* \"#utility.yul\":1639:1643   */\n          dup3\n            /* \"#utility.yul\":1631:1637   */\n          dup3\n            /* \"#utility.yul\":1611:1644   */\n          tag_21\n          jump\t// in\n        tag_65:\n            /* \"#utility.yul\":1521:1650   */\n          swap2\n          swap1\n          pop\n          jump\t// out\n            /* \"#utility.yul\":1656:1964   */\n        tag_23:\n            /* \"#utility.yul\":1718:1722   */\n          0x00\n            /* \"#utility.yul\":1808:1826   */\n          0xffffffffffffffff\n            /* \"#utility.yul\":1800:1806   */\n          dup3\n            /* \"#utility.yul\":1797:1827   */\n          gt\n            /* \"#utility.yul\":1794:1850   */\n          iszero\n          tag_67\n          jumpi\n            /* \"#utility.yul\":1830:1848   */\n          tag_68\n          tag_20\n          jump\t// in\n        tag_68:\n            /* \"#utility.yul\":1794:1850   */\n        tag_67:\n            /* \"#utility.yul\":1868:1897   */\n          tag_69\n            /* \"#utility.yul\":1890:1896   */\n          dup3\n            /* \"#utility.yul\":1868:1897   */\n          tag_19\n          jump\t// in\n        tag_69:\n            /* \"#utility.yul\":1860:1897   */\n          swap1\n          pop\n            /* \"#utility.yul\":1952:1956   */\n          0x20\n            /* \"#utility.yul\":1946:1950   */\n          dup2\n            /* \"#utility.yul\":1942:1957   */\n          add\n            /* \"#utility.yul\":1934:1957   */\n          swap1\n          pop\n            /* \"#utility.yul\":1656:1964   */\n          swap2\n          swap1\n          pop\n          jump\t// out\n            /* \"#utility.yul\":1970:2216   */\n        tag_24:\n            /* \"#utility.yul\":2051:2052   */\n          0x00\n            /* \"#utility.yul\":2061:2174   */\n        tag_71:\n            /* \"#utility.yul\":2075:2081   */\n          dup4\n            /* \"#utility.yul\":2072:2073   */\n          dup2\n            /* \"#utility.yul\":2069:2082   */\n          lt\n            /* \"#utility.yul\":2061:2174   */\n          iszero\n          tag_73\n          jumpi\n            /* \"#utility.yul\":2160:2161   */\n          dup1\n            /* \"#utility.yul\":2155:2158   */\n          dup3\n            /* \"#utility.yul\":2151:2162   */\n          add\n            /* \"#utility.yul\":2145:2163   */\n          mload\n            /* \"#utility.yul\":2141:2142   */\n          dup2\n            /* \"#utility.yul\":2136:2139   */\n          dup5\n            /* \"#utility.yul\":2132:2143   */\n          add\n            /* \"#utility.yul\":2125:2164   */\n          mstore\n            /* \"#utility.yul\":2097:2099   */\n          0x20\n            /* \"#utility.yul\":2094:2095   */\n          dup2\n            /* \"#utility.yul\":2090:2100   */\n          add\n            /* \"#utility.yul\":2085:2100   */\n          swap1\n          pop\n            /* \"#utility.yul\":2061:2174   */\n          jump(tag_71)\n        tag_73:\n            /* \"#utility.yul\":2208:2209   */\n          0x00\n            /* \"#utility.yul\":2199:2205   */\n          dup5\n            /* \"#utility.yul\":2194:2197   */\n          dup5\n            /* \"#utility.yul\":2190:2206   */\n          add\n            /* \"#utility.yul\":2183:2210   */\n          mstore\n            /* \"#utility.yul\":2032:2216   */\n          pop\n            /* \"#utility.yul\":1970:2216   */\n          pop\n          pop\n          pop\n          jump\t// out\n            /* \"#utility.yul\":2222:2656   */\n        tag_25:\n            /* \"#utility.yul\":2311:2316   */\n          0x00\n            /* \"#utility.yul\":2336:2402   */\n          tag_75\n            /* \"#utility.yul\":2352:2401   */\n          tag_76\n            /* \"#utility.yul\":2394:2400   */\n          dup5\n            /* \"#utility.yul\":2352:2401   */\n          tag_23\n          jump\t// in\n        tag_76:\n            /* \"#utility.yul\":2336:2402   */\n          tag_22\n          jump\t// in\n        tag_75:\n            /* \"#utility.yul\":2327:2402   */\n          swap1\n          pop\n            /* \"#utility.yul\":2425:2431   */\n          dup3\n            /* \"#utility.yul\":2418:2423   */\n          dup2\n            /* \"#utility.yul\":2411:2432   */\n          mstore\n            /* \"#utility.yul\":2463:2467   */\n          0x20\n            /* \"#utility.yul\":2456:2461   */\n          dup2\n            /* \"#utility.yul\":2452:2468   */\n          add\n            /* \"#utility.yul\":2501:2504   */\n          dup5\n            /* \"#utility.yul\":2492:2498   */\n          dup5\n            /* \"#utility.yul\":2487:2490   */\n          dup5\n            /* \"#utility.yul\":2483:2499   */\n          add\n            /* \"#utility.yul\":2480:2505   */\n          gt\n            /* \"#utility.yul\":2477:2589   */\n          iszero\n          tag_77\n          jumpi\n            /* \"#utility.yul\":2508:2587   */\n          tag_78\n          tag_18\n          jump\t// in\n        tag_78:\n            /* \"#utility.yul\":2477:2589   */\n        tag_77:\n            /* \"#utility.yul\":2598:2650   */\n          tag_79\n            /* \"#utility.yul\":2643:2649   */\n          dup5\n            /* \"#utility.yul\":2638:2641   */\n          dup3\n            /* \"#utility.yul\":2633:2636   */\n          dup6\n            /* \"#utility.yul\":2598:2650   */\n          tag_24\n          jump\t// in\n        tag_79:\n            /* \"#utility.yul\":2317:2656   */\n          pop\n            /* \"#utility.yul\":2222:2656   */\n          swap4\n          swap3\n          pop\n          pop\n          pop\n          jump\t// out\n            /* \"#utility.yul\":2676:3031   */\n        tag_26:\n            /* \"#utility.yul\":2743:2748   */\n          0x00\n            /* \"#utility.yul\":2792:2795   */\n          dup3\n            /* \"#utility.yul\":2785:2789   */\n          0x1f\n            /* \"#utility.yul\":2777:2783   */\n          dup4\n            /* \"#utility.yul\":2773:2790   */\n          add\n            /* \"#utility.yul\":2769:2796   */\n          slt\n            /* \"#utility.yul\":2759:2881   */\n          tag_81\n          jumpi\n            /* \"#utility.yul\":2800:2879   */\n          tag_82\n          tag_17\n          jump\t// in\n        tag_82:\n            /* \"#utility.yul\":2759:2881   */\n        tag_81:\n            /* \"#utility.yul\":2910:2916   */\n          dup2\n            /* \"#utility.yul\":2904:2917   */\n          mload\n            /* \"#utility.yul\":2935:3025   */\n          tag_83\n            /* \"#utility.yul\":3021:3024   */\n          dup5\n            /* \"#utility.yul\":3013:3019   */\n          dup3\n            /* \"#utility.yul\":3006:3010   */\n          0x20\n            /* \"#utility.yul\":2998:3004   */\n          dup7\n            /* \"#utility.yul\":2994:3011   */\n          add\n            /* \"#utility.yul\":2935:3025   */\n          tag_25\n          jump\t// in\n        tag_83:\n            /* \"#utility.yul\":2926:3025   */\n          swap2\n          pop\n            /* \"#utility.yul\":2749:3031   */\n          pop\n            /* \"#utility.yul\":2676:3031   */\n          swap3\n          swap2\n          pop\n          pop\n          jump\t// out\n            /* \"#utility.yul\":3037:3717   */\n        tag_3:\n            /* \"#utility.yul\":3126:3132   */\n          0x00\n            /* \"#utility.yul\":3134:3140   */\n          dup1\n            /* \"#utility.yul\":3183:3185   */\n          0x40\n            /* \"#utility.yul\":3171:3180   */\n          dup4\n            /* \"#utility.yul\":3162:3169   */\n          dup6\n            /* \"#utility.yul\":3158:3181   */\n          sub\n            /* \"#utility.yul\":3154:3186   */\n          slt\n            /* \"#utility.yul\":3151:3270   */\n          iszero\n          tag_85\n          jumpi\n            /* \"#utility.yul\":3189:3268   */\n          tag_86\n          tag_12\n          jump\t// in\n        tag_86:\n            /* \"#utility.yul\":3151:3270   */\n        tag_85:\n            /* \"#utility.yul\":3309:3310   */\n          0x00\n            /* \"#utility.yul\":3334:3398   */\n          tag_87\n            /* \"#utility.yul\":3390:3397   */\n          dup6\n            /* \"#utility.yul\":3381:3387   */\n          dup3\n            /* \"#utility.yul\":3370:3379   */\n          dup7\n            /* \"#utility.yul\":3366:3388   */\n          add\n            /* \"#utility.yul\":3334:3398   */\n          tag_16\n          jump\t// in\n        tag_87:\n            /* \"#utility.yul\":3324:3398   */\n          swap3\n          pop\n            /* \"#utility.yul\":3280:3408   */\n          pop\n            /* \"#utility.yul\":3468:3470   */\n          0x20\n            /* \"#utility.yul\":3457:3466   */\n          dup4\n            /* \"#utility.yul\":3453:3471   */\n          add\n            /* \"#utility.yul\":3447:3472   */\n          mload\n            /* \"#utility.yul\":3499:3517   */\n          0xffffffffffffffff\n            /* \"#utility.yul\":3491:3497   */\n          dup2\n            /* \"#utility.yul\":3488:3518   */\n          gt\n            /* \"#utility.yul\":3485:3602   */\n          iszero\n          tag_88\n          jumpi\n            /* \"#utility.yul\":3521:3600   */\n          tag_89\n          tag_13\n          jump\t// in\n        tag_89:\n            /* \"#utility.yul\":3485:3602   */\n        tag_88:\n            /* \"#utility.yul\":3626:3700   */\n          tag_90\n            /* \"#utility.yul\":3692:3699   */\n          dup6\n            /* \"#utility.yul\":3683:3689   */\n          dup3\n            /* \"#utility.yul\":3672:3681   */\n          dup7\n            /* \"#utility.yul\":3668:3690   */\n          add\n            /* \"#utility.yul\":3626:3700   */\n          tag_26\n          jump\t// in\n        tag_90:\n            /* \"#utility.yul\":3616:3700   */\n          swap2\n          pop\n            /* \"#utility.yul\":3418:3710   */\n          pop\n            /* \"#utility.yul\":3037:3717   */\n          swap3\n          pop\n          swap3\n          swap1\n          pop\n          jump\t// out\n            /* \"#utility.yul\":3723:3822   */\n        tag_27:\n            /* \"#utility.yul\":3775:3781   */\n          0x00\n            /* \"#utility.yul\":3809:3814   */\n          dup2\n            /* \"#utility.yul\":3803:3815   */\n          mload\n            /* \"#utility.yul\":3793:3815   */\n          swap1\n          pop\n            /* \"#utility.yul\":3723:3822   */\n          swap2\n          swap1\n          pop\n          jump\t// out\n            /* \"#utility.yul\":3828:4008   */\n        tag_28:\n            /* \"#utility.yul\":3876:3953   */\n          0x4e487b7100000000000000000000000000000000000000000000000000000000\n            /* \"#utility.yul\":3873:3874   */\n          0x00\n            /* \"#utility.yul\":3866:3954   */\n          mstore\n            /* \"#utility.yul\":3973:3977   */\n          0x22\n            /* \"#utility.yul\":3970:3971   */\n          0x04\n            /* \"#utility.yul\":3963:3978   */\n          mstore\n            /* \"#utility.yul\":3997:4001   */\n          0x24\n            /* \"#utility.yul\":3994:3995   */\n          0x00\n            /* \"#utility.yul\":3987:4002   */\n          revert\n            /* \"#utility.yul\":4014:4334   */\n        tag_29:\n            /* \"#utility.yul\":4058:4064   */\n          0x00\n            /* \"#utility.yul\":4095:4096   */\n          0x02\n            /* \"#utility.yul\":4089:4093   */\n          dup3\n            /* \"#utility.yul\":4085:4097   */\n          div\n            /* \"#utility.yul\":4075:4097   */\n          swap1\n          pop\n            /* \"#utility.yul\":4142:4143   */\n          0x01\n            /* \"#utility.yul\":4136:4140   */\n          dup3\n            /* \"#utility.yul\":4132:4144   */\n          and\n            /* \"#utility.yul\":4163:4181   */\n          dup1\n            /* \"#utility.yul\":4153:4234   */\n          tag_94\n          jumpi\n            /* \"#utility.yul\":4219:4223   */\n          0x7f\n            /* \"#utility.yul\":4211:4217   */\n          dup3\n            /* \"#utility.yul\":4207:4224   */\n          and\n            /* \"#utility.yul\":4197:4224   */\n          swap2\n          pop\n            /* \"#utility.yul\":4153:4234   */\n        tag_94:\n            /* \"#utility.yul\":4281:4283   */\n          0x20\n            /* \"#utility.yul\":4273:4279   */\n          dup3\n            /* \"#utility.yul\":4270:4284   */\n          lt\n            /* \"#utility.yul\":4250:4268   */\n          dup2\n            /* \"#utility.yul\":4247:4285   */\n          sub\n            /* \"#utility.yul\":4244:4328   */\n          tag_95\n          jumpi\n            /* \"#utility.yul\":4300:4318   */\n          tag_96\n          tag_28\n          jump\t// in\n        tag_96:\n            /* \"#utility.yul\":4244:4328   */\n        tag_95:\n            /* \"#utility.yul\":4065:4334   */\n          pop\n            /* \"#utility.yul\":4014:4334   */\n          swap2\n          swap1\n          pop\n          jump\t// out\n            /* \"#utility.yul\":4340:4481   */\n        tag_30:\n            /* \"#utility.yul\":4389:4393   */\n          0x00\n            /* \"#utility.yul\":4412:4415   */\n          dup2\n            /* \"#utility.yul\":4404:4415   */\n          swap1\n          pop\n            /* \"#utility.yul\":4435:4438   */\n          dup2\n            /* \"#utility.yul\":4432:4433   */\n          0x00\n            /* \"#utility.yul\":4425:4439   */\n          mstore\n            /* \"#utility.yul\":4469:4473   */\n          0x20\n            /* \"#utility.yul\":4466:4467   */\n          0x00\n            /* \"#utility.yul\":4456:4474   */\n          keccak256\n            /* \"#utility.yul\":4448:4474   */\n          swap1\n          pop\n            /* \"#utility.yul\":4340:4481   */\n          swap2\n          swap1\n          pop\n          jump\t// out\n            /* \"#utility.yul\":4487:4580   */\n        tag_31:\n            /* \"#utility.yul\":4524:4530   */\n          0x00\n            /* \"#utility.yul\":4571:4573   */\n          0x20\n            /* \"#utility.yul\":4566:4568   */\n          0x1f\n            /* \"#utility.yul\":4559:4564   */\n          dup4\n            /* \"#utility.yul\":4555:4569   */\n          add\n            /* \"#utility.yul\":4551:4574   */\n          div\n            /* \"#utility.yul\":4541:4574   */\n          swap1\n          pop\n            /* \"#utility.yul\":4487:4580   */\n          swap2\n          swap1\n          pop\n          jump\t// out\n            /* \"#utility.yul\":4586:4693   */\n        tag_32:\n            /* \"#utility.yul\":4630:4638   */\n          0x00\n            /* \"#utility.yul\":4680:4685   */\n          dup3\n            /* \"#utility.yul\":4674:4678   */\n          dup3\n            /* \"#utility.yul\":4670:4686   */\n          shl\n            /* \"#utility.yul\":4649:4686   */\n          swap1\n          pop\n            /* \"#utility.yul\":4586:4693   */\n          swap3\n          swap2\n          pop\n          pop\n          jump\t// out\n            /* \"#utility.yul\":4699:5092   */\n        tag_33:\n            /* \"#utility.yul\":4768:4774   */\n          0x00\n            /* \"#utility.yul\":4818:4819   */\n          0x08\n            /* \"#utility.yul\":4806:4816   */\n          dup4\n            /* \"#utility.yul\":4802:4820   */\n          mul\n            /* \"#utility.yul\":4841:4938   */\n          tag_101\n            /* \"#utility.yul\":4871:4937   */\n          0xffffffffffffffffffffffffffffffffffffffffffffffffffffffffffffffff\n            /* \"#utility.yul\":4860:4869   */\n          dup3\n            /* \"#utility.yul\":4841:4938   */\n          tag_32\n          jump\t// in\n        tag_101:\n            /* \"#utility.yul\":4959:4998   */\n          tag_102\n            /* \"#utility.yul\":4989:4997   */\n          dup7\n            /* \"#utility.yul\":4978:4987   */\n          dup4\n            /* \"#utility.yul\":4959:4998   */\n          tag_32\n          jump\t// in\n        tag_102:\n            /* \"#utility.yul\":4947:4998   */\n          swap6\n          pop\n            /* \"#utility.yul\":5031:5035   */\n          dup1\n            /* \"#utility.yul\":5027:5036   */\n          not\n            /* \"#utility.yul\":5020:5025   */\n          dup5\n            /* \"#utility.yul\":5016:5037   */\n          and\n            /* \"#utility.yul\":5007:5037   */\n          swap4\n          pop\n            /* \"#utility.yul\":5080:5084   */\n          dup1\n            /* \"#utility.yul\":5070:5078   */\n          dup7\n            /* \"#utility.yul\":5066:5085   */\n          and\n            /* \"#utility.yul\":5059:5064   */\n          dup5\n            /* \"#utility.yul\":5056:5086   */\n          or\n            /* \"#utility.yul\":5046:5086   */\n          swap3\n          pop\n            /* \"#utility.yul\":4775:5092   */\n          pop\n          pop\n            /* \"#utility.yul\":4699:5092   */\n          swap4\n          swap3\n          pop\n          pop\n          pop\n          jump\t// out\n            /* \"#utility.yul\":5098:5158   */\n        tag_34:\n            /* \"#utility.yul\":5126:5129   */\n          0x00\n            /* \"#utility.yul\":5147:5152   */\n          dup2\n            /* \"#utility.yul\":5140:5152   */\n          swap1\n          pop\n            /* \"#utility.yul\":5098:5158   */\n          swap2\n          swap1\n          pop\n          jump\t// out\n            /* \"#utility.yul\":5164:5306   */\n        tag_35:\n            /* \"#utility.yul\":5214:5223   */\n          0x00\n            /* \"#utility.yul\":5247:5300   */\n          tag_105\n            /* \"#utility.yul\":5265:5299   */\n          tag_106\n            /* \"#utility.yul\":5274:5298   */\n          tag_107\n            /* \"#utility.yul\":5292:5297   */\n          dup5\n            /* \"#utility.yul\":5274:5298   */\n          tag_14\n          jump\t// in\n        tag_107:\n            /* \"#utility.yul\":5265:5299   */\n          tag_34\n          jump\t// in\n        tag_106:\n            /* \"#utility.yul\":5247:5300   */\n          tag_14\n          jump\t// in\n        tag_105:\n            /* \"#utility.yul\":5234:5300   */\n          swap1\n          pop\n            /* \"#utility.yul\":5164:5306   */\n          swap2\n          swap1\n          pop\n          jump\t// out\n            /* \"#utility.yul\":5312:5387   */\n        tag_36:\n            /* \"#utility.yul\":5355:5358   */\n          0x00\n            /* \"#utility.yul\":5376:5381   */\n          dup2\n            /* \"#utility.yul\":5369:5381   */\n          swap1\n          pop\n            /* \"#utility.yul\":5312:5387   */\n          swap2\n          swap1\n          pop\n          jump\t// out\n            /* \"#utility.yul\":5393:5662   */\n        tag_37:\n            /* \"#utility.yul\":5503:5542   */\n          tag_110\n            /* \"#utility.yul\":5534:5541   */\n          dup4\n            /* \"#utility.yul\":5503:5542   */\n          tag_35\n          jump\t// in\n        tag_110:\n            /* \"#utility.yul\":5564:5655   */\n          tag_111\n            /* \"#utility.yul\":5613:5654   */\n          tag_112\n            /* \"#utility.yul\":5637:5653   */\n          dup3\n            /* \"#utility.yul\":5613:5654   */\n          tag_36\n          jump\t// in\n        tag_112:\n            /* \"#utility.yul\":5605:5611   */\n          dup5\n            /* \"#utility.yul\":5598:5602   */\n          dup5\n            /* \"#utility.yul\":5592:5603   */\n          sload\n            /* \"#utility.yul\":5564:5655   */\n          tag_33\n          jump\t// in\n        tag_111:\n            /* \"#utility.yul\":5558:5562   */\n          dup3\n            /* \"#utility.yul\":5551:5656   */\n          sstore\n            /* \"#utility.yul\":5469:5662   */\n          pop\n            /* \"#utility.yul\":5393:5662   */\n          pop\n          pop\n          pop\n          jump\t// out\n            /* \"#utility.yul\":5668:5741   */\n        tag_38:\n            /* \"#utility.yul\":5713:5716   */\n          0x00\n            /* \"#utility.yul\":5668:5741   */\n          swap1\n          jump\t// out\n            /* \"#utility.yul\":5747:5936   */\n        tag_39:\n            /* \"#utility.yul\":5824:5856   */\n          tag_115\n          tag_38\n          jump\t// in\n        tag_115:\n            /* \"#utility.yul\":5865:5930   */\n          tag_116\n            /* \"#utility.yul\":5923:5929   */\n          dup2\n            /* \"#utility.yul\":5915:5921   */\n          dup5\n            /* \"#utility.yul\":5909:5913   */\n          dup5\n            /* \"#utility.yul\":5865:5930   */\n          tag_37\n          jump\t// in\n        tag_116:\n            /* \"#utility.yul\":5800:5936   */\n          pop\n            /* \"#utility.yul\":5747:5936   */\n          pop\n          pop\n          jump\t// out\n            /* \"#utility.yul\":5942:6128   */\n        tag_40:\n            /* \"#utility.yul\":6002:6122   */\n        tag_118:\n            /* \"#utility.yul\":6019:6022   */\n          dup2\n            /* \"#utility.yul\":6012:6017   */\n          dup2\n            /* \"#utility.yul\":6009:6023   */\n          lt\n            /* \"#utility.yul\":6002:6122   */\n          iszero\n          tag_120\n          jumpi\n            /* \"#utility.yul\":6073:6112   */\n          tag_121\n            /* \"#utility.yul\":6110:6111   */\n          0x00\n            /* \"#utility.yul\":6103:6108   */\n          dup3\n            /* \"#utility.yul\":6073:6112   */\n          tag_39\n          jump\t// in\n        tag_121:\n            /* \"#utility.yul\":6046:6047   */\n          0x01\n            /* \"#utility.yul\":6039:6044   */\n          dup2\n            /* \"#utility.yul\":6035:6048   */\n          add\n            /* \"#utility.yul\":6026:6048   */\n          swap1\n          pop\n            /* \"#utility.yul\":6002:6122   */\n          jump(tag_118)\n        tag_120:\n            /* \"#utility.yul\":5942:6128   */\n          pop\n          pop\n          jump\t// out\n            /* \"#utility.yul\":6134:6677   */\n        tag_41:\n            /* \"#utility.yul\":6235:6237   */\n          0x1f\n            /* \"#utility.yul\":6230:6233   */\n          dup3\n            /* \"#utility.yul\":6227:6238   */\n          gt\n            /* \"#utility.yul\":6224:6670   */\n          iszero\n          tag_123\n          jumpi\n            /* \"#utility.yul\":6269:6307   */\n          tag_124\n            /* \"#utility.yul\":6301:6306   */\n          dup2\n            /* \"#utility.yul\":6269:6307   */\n          tag_30\n          jump\t// in\n        tag_124:\n            /* \"#utility.yul\":6353:6382   */\n          tag_125\n            /* \"#utility.yul\":6371:6381   */\n          dup5\n            /* \"#utility.yul\":6353:6382   */\n          tag_31\n          jump\t// in\n        tag_125:\n            /* \"#utility.yul\":6343:6351   */\n          dup2\n            /* \"#utility.yul\":6339:6383   */\n          add\n            /* \"#utility.yul\":6536:6538   */\n          0x20\n            /* \"#utility.yul\":6524:6534   */\n          dup6\n            /* \"#utility.yul\":6521:6539   */\n          lt\n            /* \"#utility.yul\":6518:6567   */\n          iszero\n          tag_126\n          jumpi\n            /* \"#utility.yul\":6557:6565   */\n          dup2\n            /* \"#utility.yul\":6542:6565   */\n          swap1\n          pop\n            /* \"#utility.yul\":6518:6567   */\n        tag_126:\n            /* \"#utility.yul\":6580:6660   */\n          tag_127\n            /* \"#utility.yul\":6636:6658   */\n          tag_128\n            /* \"#utility.yul\":6654:6657   */\n          dup6\n            /* \"#utility.yul\":6636:6658   */\n          tag_31\n          jump\t// in\n        tag_128:\n            /* \"#utility.yul\":6626:6634   */\n          dup4\n            /* \"#utility.yul\":6622:6659   */\n          add\n            /* \"#utility.yul\":6609:6620   */\n          dup3\n            /* \"#utility.yul\":6580:6660   */\n          tag_40\n          jump\t// in\n        tag_127:\n            /* \"#utility.yul\":6239:6670   */\n          pop\n          pop\n            /* \"#utility.yul\":6224:6670   */\n        tag_123:\n            /* \"#utility.yul\":6134:6677   */\n          pop\n          pop\n          pop\n          jump\t// out\n            /* \"#utility.yul\":6683:6800   */\n        tag_42:\n            /* \"#utility.yul\":6737:6745   */\n          0x00\n            /* \"#utility.yul\":6787:6792   */\n          dup3\n            /* \"#utility.yul\":6781:6785   */\n          dup3\n            /* \"#utility.yul\":6777:6793   */\n          shr\n            /* \"#utility.yul\":6756:6793   */\n          swap1\n          pop\n            /* \"#utility.yul\":6683:6800   */\n          swap3\n          swap2\n          pop\n          pop\n          jump\t// out\n            /* \"#utility.yul\":6806:6975   */\n        tag_43:\n            /* \"#utility.yul\":6850:6856   */\n          0x00\n            /* \"#utility.yul\":6883:6934   */\n          tag_131\n            /* \"#utility.yul\":6931:6932   */\n          0x00\n            /* \"#utility.yul\":6927:6933   */\n          not\n            /* \"#utility.yul\":6919:6924   */\n          dup5\n            /* \"#utility.yul\":6916:6917   */\n          0x08\n            /* \"#utility.yul\":6912:6925   */\n          mul\n            /* \"#utility.yul\":6883:6934   */\n          tag_42\n          jump\t// in\n        tag_131:\n            /* \"#utility.yul\":6879:6935   */\n          not\n            /* \"#utility.yul\":6964:6968   */\n          dup1\n            /* \"#utility.yul\":6958:6962   */\n          dup4\n            /* \"#utility.yul\":6954:6969   */\n          and\n            /* \"#utility.yul\":6944:6969   */\n          swap2\n          pop\n            /* \"#utility.yul\":6857:6975   */\n          pop\n            /* \"#utility.yul\":6806:6975   */\n          swap3\n          swap2\n          pop\n          pop\n          jump\t// out\n            /* \"#utility.yul\":6980:7275   */\n        tag_44:\n            /* \"#utility.yul\":7056:7060   */\n          0x00\n            /* \"#utility.yul\":7202:7231   */\n          tag_133\n            /* \"#utility.yul\":7227:7230   */\n          dup4\n            /* \"#utility.yul\":7221:7225   */\n          dup4\n            /* \"#utility.yul\":7202:7231   */\n          tag_43\n          jump\t// in\n        tag_133:\n            /* \"#utility.yul\":7194:7231   */\n          swap2\n          pop\n            /* \"#utility.yul\":7264:7267   */\n          dup3\n            /* \"#utility.yul\":7261:7262   */\n          0x02\n            /* \"#utility.yul\":7257:7268   */\n          mul\n            /* \"#utility.yul\":7251:7255   */\n          dup3\n            /* \"#utility.yul\":7248:7269   */\n          or\n            /* \"#utility.yul\":7240:7269   */\n          swap1\n          pop\n            /* \"#utility.yul\":6980:7275   */\n          swap3\n          swap2\n          pop\n          pop\n          jump\t// out\n            /* \"#utility.yul\":7280:8675   */\n        tag_9:\n            /* \"#utility.yul\":7397:7434   */\n          tag_135\n            /* \"#utility.yul\":7430:7433   */\n          dup3\n            /* \"#utility.yul\":7397:7434   */\n          tag_27\n          jump\t// in\n        tag_135:\n            /* \"#utility.yul\":7499:7517   */\n          0xffffffffffffffff\n            /* \"#utility.yul\":7491:7497   */\n          dup2\n            /* \"#utility.yul\":7488:7518   */\n          gt\n            /* \"#utility.yul\":7485:7541   */\n          iszero\n          tag_136\n          jumpi\n            /* \"#utility.yul\":7521:7539   */\n          tag_137\n          tag_20\n          jump\t// in\n        tag_137:\n            /* \"#utility.yul\":7485:7541   */\n        tag_136:\n            /* \"#utility.yul\":7565:7603   */\n          tag_138\n            /* \"#utility.yul\":7597:7601   */\n          dup3\n            /* \"#utility.yul\":7591:7602   */\n          sload\n            /* \"#utility.yul\":7565:7603   */\n          tag_29\n          jump\t// in\n        tag_138:\n            /* \"#utility.yul\":7650:7717   */\n          tag_139\n            /* \"#utility.yul\":7710:7716   */\n          dup3\n            /* \"#utility.yul\":7702:7708   */\n          dup3\n            /* \"#utility.yul\":7696:7700   */\n          dup6\n            /* \"#utility.yul\":7650:7717   */\n          tag_41\n          jump\t// in\n        tag_139:\n            /* \"#utility.yul\":7744:7745   */\n          0x00\n            /* \"#utility.yul\":7768:7772   */\n          0x20\n            /* \"#utility.yul\":7755:7772   */\n          swap1\n          pop\n            /* \"#utility.yul\":7800:7802   */\n          0x1f\n            /* \"#utility.yul\":7792:7798   */\n          dup4\n            /* \"#utility.yul\":7789:7803   */\n          gt\n            /* \"#utility.yul\":7817:7818   */\n          0x01\n            /* \"#utility.yul\":7812:8430   */\n          dup2\n          eq\n          tag_141\n          jumpi\n            /* \"#utility.yul\":8474:8475   */\n          0x00\n            /* \"#utility.yul\":8491:8497   */\n          dup5\n            /* \"#utility.yul\":8488:8565   */\n          iszero\n          tag_142\n          jumpi\n            /* \"#utility.yul\":8540:8549   */\n          dup3\n            /* \"#utility.yul\":8535:8538   */\n          dup8\n            /* \"#utility.yul\":8531:8550   */\n          add\n            /* \"#utility.yul\":8525:8551   */\n          mload\n            /* \"#utility.yul\":8516:8551   */\n          swap1\n          pop\n            /* \"#utility.yul\":8488:8565   */\n        tag_142:\n            /* \"#utility.yul\":8591:8658   */\n          tag_143\n            /* \"#utility.yul\":8651:8657   */\n          dup6\n            /* \"#utility.yul\":8644:8649   */\n          dup3\n            /* \"#utility.yul\":8591:8658   */\n          tag_44\n          jump\t// in\n        tag_143:\n            /* \"#utility.yul\":8585:8589   */\n          dup7\n            /* \"#utility.yul\":8578:8659   */\n          sstore\n            /* \"#utility.yul\":8447:8669   */\n          pop\n            /* \"#utility.yul\":7782:8669   */\n          jump(tag_140)\n            /* \"#utility.yul\":7812:8430   */\n        tag_141:\n            /* \"#utility.yul\":7864:7868   */\n          0x1f\n            /* \"#utility.yul\":7860:7869   */\n          not\n            /* \"#utility.yul\":7852:7858   */\n          dup5\n            /* \"#utility.yul\":7848:7870   */\n          and\n            /* \"#utility.yul\":7898:7935   */\n          tag_144\n            /* \"#utility.yul\":7930:7934   */\n          dup7\n            /* \"#utility.yul\":7898:7935   */\n          tag_30\n          jump\t// in\n        tag_144:\n            /* \"#utility.yul\":7957:7958   */\n          0x00\n            /* \"#utility.yul\":7971:8179   */\n        tag_145:\n            /* \"#utility.yul\":7985:7992   */\n          dup3\n            /* \"#utility.yul\":7982:7983   */\n          dup2\n            /* \"#utility.yul\":7979:7993   */\n          lt\n            /* \"#utility.yul\":7971:8179   */\n          iszero\n          tag_147\n          jumpi\n            /* \"#utility.yul\":8064:8073   */\n          dup5\n            /* \"#utility.yul\":8059:8062   */\n          dup10\n            /* \"#utility.yul\":8055:8074   */\n          add\n            /* \"#utility.yul\":8049:8075   */\n          mload\n            /* \"#utility.yul\":8041:8047   */\n          dup3\n            /* \"#utility.yul\":8034:8076   */\n          sstore\n            /* \"#utility.yul\":8115:8116   */\n          0x01\n            /* \"#utility.yul\":8107:8113   */\n          dup3\n            /* \"#utility.yul\":8103:8117   */\n          add\n            /* \"#utility.yul\":8093:8117   */\n          swap2\n          pop\n            /* \"#utility.yul\":8162:8164   */\n          0x20\n            /* \"#utility.yul\":8151:8160   */\n          dup6\n            /* \"#utility.yul\":8147:8165   */\n          add\n            /* \"#utility.yul\":8134:8165   */\n          swap5\n          pop\n            /* \"#utility.yul\":8008:8012   */\n          0x20\n            /* \"#utility.yul\":8005:8006   */\n          dup2\n            /* \"#utility.yul\":8001:8013   */\n          add\n            /* \"#utility.yul\":7996:8013   */\n          swap1\n          pop\n            /* \"#utility.yul\":7971:8179   */\n          jump(tag_145)\n        tag_147:\n            /* \"#utility.yul\":8207:8213   */\n          dup7\n            /* \"#utility.yul\":8198:8205   */\n          dup4\n            /* \"#utility.yul\":8195:8214   */\n          lt\n            /* \"#utility.yul\":8192:8371   */\n          iszero\n          tag_148\n          jumpi\n            /* \"#utility.yul\":8265:8274   */\n          dup5\n            /* \"#utility.yul\":8260:8263   */\n          dup10\n            /* \"#utility.yul\":8256:8275   */\n          add\n            /* \"#utility.yul\":8250:8276   */\n          mload\n            /* \"#utility.yul\":8308:8356   */\n          tag_149\n            /* \"#utility.yul\":8350:8354   */\n          0x1f\n            /* \"#utility.yul\":8342:8348   */\n          dup10\n            /* \"#utility.yul\":8338:8355   */\n          and\n            /* \"#utility.yul\":8327:8336   */\n          dup3\n            /* \"#utility.yul\":8308:8356   */\n          tag_43\n          jump\t// in\n        tag_149:\n            /* \"#utility.yul\":8300:8306   */\n          dup4\n            /* \"#utility.yul\":8293:8357   */\n          sstore\n            /* \"#utility.yul\":8215:8371   */\n          pop\n            /* \"#utility.yul\":8192:8371   */\n        tag_148:\n            /* \"#utility.yul\":8417:8418   */\n          0x01\n            /* \"#utility.yul\":8413:8414   */\n          0x02\n            /* \"#utility.yul\":8405:8411   */\n          dup9\n            /* \"#utility.yul\":8401:8415   */\n          mul\n            /* \"#utility.yul\":8397:8419   */\n          add\n            /* \"#utility.yul\":8391:8395   */\n          dup9\n            /* \"#utility.yul\":8384:8420   */\n          sstore\n            /* \"#utility.yul\":7819:8430   */\n          pop\n          pop\n          pop\n            /* \"#utility.yul\":7782:8669   */\n        tag_140:\n          pop\n            /* \"#utility.yul\":7372:8675   */\n          pop\n          pop\n          pop\n            /* \"#utility.yul\":7280:8675   */\n          pop\n          pop\n          jump\t// out\n            /* \"Solidity/Hardhat/my-hardhat-project/contracts/RecordFactory.sol\":611:1261  contract StringRecord is Record {... */\n        tag_10:\n          dataSize(sub_0)\n          dup1\n          dataOffset(sub_0)\n          0x00\n          codecopy\n          0x00\n          return\n        stop\n\n        sub_0: assembly {\n                /* \"Solidity/Hardhat/my-hardhat-project/contracts/RecordFactory.sol\":611:1261  contract StringRecord is Record {... */\n              mstore(0x40, 0x80)\n              callvalue\n              dup1\n              iszero\n              tag_1\n              jumpi\n              0x00\n              dup1\n              revert\n            tag_1:\n              pop\n              jumpi(tag_2, lt(calldatasize, 0x04))\n              shr(0xe0, calldataload(0x00))\n              dup1\n              0x0781f5c9\n              eq\n              tag_3\n              jumpi\n              dup1\n              0x1dcd69ec\n              eq\n              tag_4\n              jumpi\n              dup1\n              0x266cf109\n              eq\n              tag_5\n              jumpi\n              dup1\n              0x3e0a0099\n              eq\n              tag_6\n              jumpi\n            tag_2:\n              0x00\n              dup1\n              revert\n                /* \"Solidity/Hardhat/my-hardhat-project/contracts/RecordFactory.sol\":1014:1118  function getRecordType() public pure override returns (string memory) {... */\n            tag_3:\n              tag_7\n              tag_8\n              jump\t// in\n            tag_7:\n              mload(0x40)\n              tag_9\n              swap2\n              swap1\n              tag_10\n              jump\t// in\n            tag_9:\n              mload(0x40)\n              dup1\n              swap2\n              sub\n              swap1\n              return\n                /* \"Solidity/Hardhat/my-hardhat-project/contracts/RecordFactory.sol\":94:123  uint256 public timeOfCreation */\n            tag_4:\n              tag_11\n              tag_12\n              jump\t// in\n            tag_11:\n              mload(0x40)\n              tag_13\n              swap2\n              swap1\n              tag_14\n              jump\t// in\n            tag_13:\n              mload(0x40)\n              dup1\n              swap2\n              sub\n              swap1\n              return\n                /* \"Solidity/Hardhat/my-hardhat-project/contracts/RecordFactory.sol\":650:670  string public record */\n            tag_5:\n              tag_15\n              tag_16\n              jump\t// in\n            tag_15:\n              mload(0x40)\n              tag_17\n              swap2\n              swap1\n              tag_10\n              jump\t// in\n            tag_17:\n              mload(0x40)\n              dup1\n              swap2\n              sub\n              swap1\n              return\n                /* \"Solidity/Hardhat/my-hardhat-project/contracts/RecordFactory.sol\":1170:1258  function setRecord(string memory newRecord) public {... */\n            tag_6:\n              tag_18\n              0x04\n              dup1\n              calldatasize\n              sub\n              dup2\n              add\n              swap1\n              tag_19\n              swap2\n              swap1\n              tag_20\n              jump\t// in\n            tag_19:\n              tag_21\n              jump\t// in\n            tag_18:\n              stop\n                /* \"Solidity/Hardhat/my-hardhat-project/contracts/RecordFactory.sol\":1014:1118  function getRecordType() public pure override returns (string memory) {... */\n            tag_8:\n                /* \"Solidity/Hardhat/my-hardhat-project/contracts/RecordFactory.sol\":1069:1082  string memory */\n              0x60\n                /* \"Solidity/Hardhat/my-hardhat-project/contracts/RecordFactory.sol\":1095:1110  return \"string\" */\n              mload(0x40)\n              dup1\n              0x40\n              add\n              0x40\n              mstore\n              dup1\n              0x06\n              dup2\n              mstore\n              0x20\n              add\n              0x737472696e670000000000000000000000000000000000000000000000000000\n              dup2\n              mstore\n              pop\n              swap1\n              pop\n                /* \"Solidity/Hardhat/my-hardhat-project/contracts/RecordFactory.sol\":1014:1118  function getRecordType() public pure override returns (string memory) {... */\n              swap1\n              jump\t// out\n                /* \"Solidity/Hardhat/my-hardhat-project/contracts/RecordFactory.sol\":94:123  uint256 public timeOfCreation */\n            tag_12:\n              sload(0x00)\n              dup2\n              jump\t// out\n                /* \"Solidity/Hardhat/my-hardhat-project/contracts/RecordFactory.sol\":650:670  string public record */\n            tag_16:\n              0x01\n              dup1\n              sload\n              tag_23\n              swap1\n              tag_24\n              jump\t// in\n            tag_23:\n              dup1\n              0x1f\n              add\n              0x20\n              dup1\n              swap2\n              div\n              mul\n              0x20\n              add\n              mload(0x40)\n              swap1\n              dup2\n              add\n              0x40\n              mstore\n              dup1\n              swap3\n              swap2\n              swap1\n              dup2\n              dup2\n              mstore\n              0x20\n              add\n              dup3\n              dup1\n              sload\n              tag_25\n              swap1\n              tag_24\n              jump\t// in\n            tag_25:\n              dup1\n              iszero\n              tag_26\n              jumpi\n              dup1\n              0x1f\n              lt\n              tag_27\n              jumpi\n              0x0100\n              dup1\n              dup4\n              sload\n              div\n              mul\n              dup4\n              mstore\n              swap2\n              0x20\n              add\n              swap2\n              jump(tag_26)\n            tag_27:\n              dup3\n              add\n              swap2\n              swap1\n              0x00\n              mstore\n              keccak256(0x00, 0x20)\n              swap1\n            tag_28:\n              dup2\n              sload\n              dup2\n              mstore\n              swap1\n              0x01\n              add\n              swap1\n              0x20\n              add\n              dup1\n              dup4\n              gt\n              tag_28\n              jumpi\n              dup3\n              swap1\n              sub\n              0x1f\n              and\n              dup3\n              add\n              swap2\n            tag_26:\n              pop\n              pop\n              pop\n              pop\n              pop\n              dup2\n              jump\t// out\n                /* \"Solidity/Hardhat/my-hardhat-project/contracts/RecordFactory.sol\":1170:1258  function setRecord(string memory newRecord) public {... */\n            tag_21:\n                /* \"Solidity/Hardhat/my-hardhat-project/contracts/RecordFactory.sol\":1241:1250  newRecord */\n              dup1\n                /* \"Solidity/Hardhat/my-hardhat-project/contracts/RecordFactory.sol\":1232:1238  record */\n              0x01\n                /* \"Solidity/Hardhat/my-hardhat-project/contracts/RecordFactory.sol\":1232:1250  record = newRecord */\n              swap1\n              dup2\n              tag_30\n              swap2\n              swap1\n              tag_31\n              jump\t// in\n            tag_30:\n              pop\n                /* \"Solidity/Hardhat/my-hardhat-project/contracts/RecordFactory.sol\":1170:1258  function setRecord(string memory newRecord) public {... */\n              pop\n              jump\t// out\n                /* \"#utility.yul\":7:106   */\n            tag_32:\n                /* \"#utility.yul\":59:65   */\n              0x00\n                /* \"#utility.yul\":93:98   */\n              dup2\n                /* \"#utility.yul\":87:99   */\n              mload\n                /* \"#utility.yul\":77:99   */\n              swap1\n              pop\n                /* \"#utility.yul\":7:106   */\n              swap2\n              swap1\n              pop\n              jump\t// out\n                /* \"#utility.yul\":112:281   */\n            tag_33:\n                /* \"#utility.yul\":196:207   */\n              0x00\n                /* \"#utility.yul\":230:236   */\n              dup3\n                /* \"#utility.yul\":225:228   */\n              dup3\n                /* \"#utility.yul\":218:237   */\n              mstore\n                /* \"#utility.yul\":270:274   */\n              0x20\n                /* \"#utility.yul\":265:268   */\n              dup3\n                /* \"#utility.yul\":261:275   */\n              add\n                /* \"#utility.yul\":246:275   */\n              swap1\n              pop\n                /* \"#utility.yul\":112:281   */\n              swap3\n              swap2\n              pop\n              pop\n              jump\t// out\n                /* \"#utility.yul\":287:533   */\n            tag_34:\n                /* \"#utility.yul\":368:369   */\n              0x00\n                /* \"#utility.yul\":378:491   */\n            tag_71:\n                /* \"#utility.yul\":392:398   */\n              dup4\n                /* \"#utility.yul\":389:390   */\n              dup2\n                /* \"#utility.yul\":386:399   */\n              lt\n                /* \"#utility.yul\":378:491   */\n              iszero\n              tag_73\n              jumpi\n                /* \"#utility.yul\":477:478   */\n              dup1\n                /* \"#utility.yul\":472:475   */\n              dup3\n                /* \"#utility.yul\":468:479   */\n              add\n                /* \"#utility.yul\":462:480   */\n              mload\n                /* \"#utility.yul\":458:459   */\n              dup2\n                /* \"#utility.yul\":453:456   */\n              dup5\n                /* \"#utility.yul\":449:460   */\n              add\n                /* \"#utility.yul\":442:481   */\n              mstore\n                /* \"#utility.yul\":414:416   */\n              0x20\n                /* \"#utility.yul\":411:412   */\n              dup2\n                /* \"#utility.yul\":407:417   */\n              add\n                /* \"#utility.yul\":402:417   */\n              swap1\n              pop\n                /* \"#utility.yul\":378:491   */\n              jump(tag_71)\n            tag_73:\n                /* \"#utility.yul\":525:526   */\n              0x00\n                /* \"#utility.yul\":516:522   */\n              dup5\n                /* \"#utility.yul\":511:514   */\n              dup5\n                /* \"#utility.yul\":507:523   */\n              add\n                /* \"#utility.yul\":500:527   */\n              mstore\n                /* \"#utility.yul\":349:533   */\n              pop\n                /* \"#utility.yul\":287:533   */\n              pop\n              pop\n              pop\n              jump\t// out\n                /* \"#utility.yul\":539:641   */\n            tag_35:\n                /* \"#utility.yul\":580:586   */\n              0x00\n                /* \"#utility.yul\":631:633   */\n              0x1f\n                /* \"#utility.yul\":627:634   */\n              not\n                /* \"#utility.yul\":622:624   */\n              0x1f\n                /* \"#utility.yul\":615:620   */\n              dup4\n                /* \"#utility.yul\":611:625   */\n              add\n                /* \"#utility.yul\":607:635   */\n              and\n                /* \"#utility.yul\":597:635   */\n              swap1\n              pop\n                /* \"#utility.yul\":539:641   */\n              swap2\n              swap1\n              pop\n              jump\t// out\n                /* \"#utility.yul\":647:1024   */\n            tag_36:\n                /* \"#utility.yul\":735:738   */\n              0x00\n                /* \"#utility.yul\":763:802   */\n              tag_76\n                /* \"#utility.yul\":796:801   */\n              dup3\n                /* \"#utility.yul\":763:802   */\n              tag_32\n              jump\t// in\n            tag_76:\n                /* \"#utility.yul\":818:889   */\n              tag_77\n                /* \"#utility.yul\":882:888   */\n              dup2\n                /* \"#utility.yul\":877:880   */\n              dup6\n                /* \"#utility.yul\":818:889   */\n              tag_33\n              jump\t// in\n            tag_77:\n                /* \"#utility.yul\":811:889   */\n              swap4\n              pop\n                /* \"#utility.yul\":898:963   */\n              tag_78\n                /* \"#utility.yul\":956:962   */\n              dup2\n                /* \"#utility.yul\":951:954   */\n              dup6\n                /* \"#utility.yul\":944:948   */\n              0x20\n                /* \"#utility.yul\":937:942   */\n              dup7\n                /* \"#utility.yul\":933:949   */\n              add\n                /* \"#utility.yul\":898:963   */\n              tag_34\n              jump\t// in\n            tag_78:\n                /* \"#utility.yul\":988:1017   */\n              tag_79\n                /* \"#utility.yul\":1010:1016   */\n              dup2\n                /* \"#utility.yul\":988:1017   */\n              tag_35\n              jump\t// in\n            tag_79:\n                /* \"#utility.yul\":983:986   */\n              dup5\n                /* \"#utility.yul\":979:1018   */\n              add\n                /* \"#utility.yul\":972:1018   */\n              swap2\n              pop\n                /* \"#utility.yul\":739:1024   */\n              pop\n                /* \"#utility.yul\":647:1024   */\n              swap3\n              swap2\n              pop\n              pop\n              jump\t// out\n                /* \"#utility.yul\":1030:1343   */\n            tag_10:\n                /* \"#utility.yul\":1143:1147   */\n              0x00\n                /* \"#utility.yul\":1181:1183   */\n              0x20\n                /* \"#utility.yul\":1170:1179   */\n              dup3\n                /* \"#utility.yul\":1166:1184   */\n              add\n                /* \"#utility.yul\":1158:1184   */\n              swap1\n              pop\n                /* \"#utility.yul\":1230:1239   */\n              dup2\n                /* \"#utility.yul\":1224:1228   */\n              dup2\n                /* \"#utility.yul\":1220:1240   */\n              sub\n                /* \"#utility.yul\":1216:1217   */\n              0x00\n                /* \"#utility.yul\":1205:1214   */\n              dup4\n                /* \"#utility.yul\":1201:1218   */\n              add\n                /* \"#utility.yul\":1194:1241   */\n              mstore\n                /* \"#utility.yul\":1258:1336   */\n              tag_81\n                /* \"#utility.yul\":1331:1335   */\n              dup2\n                /* \"#utility.yul\":1322:1328   */\n              dup5\n                /* \"#utility.yul\":1258:1336   */\n              tag_36\n              jump\t// in\n            tag_81:\n                /* \"#utility.yul\":1250:1336   */\n              swap1\n              pop\n                /* \"#utility.yul\":1030:1343   */\n              swap3\n              swap2\n              pop\n              pop\n              jump\t// out\n                /* \"#utility.yul\":1349:1426   */\n            tag_37:\n                /* \"#utility.yul\":1386:1393   */\n              0x00\n                /* \"#utility.yul\":1415:1420   */\n              dup2\n                /* \"#utility.yul\":1404:1420   */\n              swap1\n              pop\n                /* \"#utility.yul\":1349:1426   */\n              swap2\n              swap1\n              pop\n              jump\t// out\n                /* \"#utility.yul\":1432:1550   */\n            tag_38:\n                /* \"#utility.yul\":1519:1543   */\n              tag_84\n                /* \"#utility.yul\":1537:1542   */\n              dup2\n                /* \"#utility.yul\":1519:1543   */\n              tag_37\n              jump\t// in\n            tag_84:\n                /* \"#utility.yul\":1514:1517   */\n              dup3\n                /* \"#utility.yul\":1507:1544   */\n              mstore\n                /* \"#utility.yul\":1432:1550   */\n              pop\n              pop\n              jump\t// out\n                /* \"#utility.yul\":1556:1778   */\n            tag_14:\n                /* \"#utility.yul\":1649:1653   */\n              0x00\n                /* \"#utility.yul\":1687:1689   */\n              0x20\n                /* \"#utility.yul\":1676:1685   */\n              dup3\n                /* \"#utility.yul\":1672:1690   */\n              add\n                /* \"#utility.yul\":1664:1690   */\n              swap1\n              pop\n                /* \"#utility.yul\":1700:1771   */\n              tag_86\n                /* \"#utility.yul\":1768:1769   */\n              0x00\n                /* \"#utility.yul\":1757:1766   */\n              dup4\n                /* \"#utility.yul\":1753:1770   */\n              add\n                /* \"#utility.yul\":1744:1750   */\n              dup5\n                /* \"#utility.yul\":1700:1771   */\n              tag_38\n              jump\t// in\n            tag_86:\n                /* \"#utility.yul\":1556:1778   */\n              swap3\n              swap2\n              pop\n              pop\n              jump\t// out\n                /* \"#utility.yul\":1784:1859   */\n            tag_39:\n                /* \"#utility.yul\":1817:1823   */\n              0x00\n                /* \"#utility.yul\":1850:1852   */\n              0x40\n                /* \"#utility.yul\":1844:1853   */\n              mload\n                /* \"#utility.yul\":1834:1853   */\n              swap1\n              pop\n                /* \"#utility.yul\":1784:1859   */\n              swap1\n              jump\t// out\n                /* \"#utility.yul\":1865:1982   */\n            tag_40:\n                /* \"#utility.yul\":1974:1975   */\n              0x00\n                /* \"#utility.yul\":1971:1972   */\n              dup1\n                /* \"#utility.yul\":1964:1976   */\n              revert\n                /* \"#utility.yul\":1988:2105   */\n            tag_41:\n                /* \"#utility.yul\":2097:2098   */\n              0x00\n                /* \"#utility.yul\":2094:2095   */\n              dup1\n                /* \"#utility.yul\":2087:2099   */\n              revert\n                /* \"#utility.yul\":2111:2228   */\n            tag_42:\n                /* \"#utility.yul\":2220:2221   */\n              0x00\n                /* \"#utility.yul\":2217:2218   */\n              dup1\n                /* \"#utility.yul\":2210:2222   */\n              revert\n                /* \"#utility.yul\":2234:2351   */\n            tag_43:\n                /* \"#utility.yul\":2343:2344   */\n              0x00\n                /* \"#utility.yul\":2340:2341   */\n              dup1\n                /* \"#utility.yul\":2333:2345   */\n              revert\n                /* \"#utility.yul\":2357:2537   */\n            tag_44:\n                /* \"#utility.yul\":2405:2482   */\n              0x4e487b7100000000000000000000000000000000000000000000000000000000\n                /* \"#utility.yul\":2402:2403   */\n              0x00\n                /* \"#utility.yul\":2395:2483   */\n              mstore\n                /* \"#utility.yul\":2502:2506   */\n              0x41\n                /* \"#utility.yul\":2499:2500   */\n              0x04\n                /* \"#utility.yul\":2492:2507   */\n              mstore\n                /* \"#utility.yul\":2526:2530   */\n              0x24\n                /* \"#utility.yul\":2523:2524   */\n              0x00\n                /* \"#utility.yul\":2516:2531   */\n              revert\n                /* \"#utility.yul\":2543:2824   */\n            tag_45:\n                /* \"#utility.yul\":2626:2653   */\n              tag_94\n                /* \"#utility.yul\":2648:2652   */\n              dup3\n                /* \"#utility.yul\":2626:2653   */\n              tag_35\n              jump\t// in\n            tag_94:\n                /* \"#utility.yul\":2618:2624   */\n              dup2\n                /* \"#utility.yul\":2614:2654   */\n              add\n                /* \"#utility.yul\":2756:2762   */\n              dup2\n                /* \"#utility.yul\":2744:2754   */\n              dup2\n                /* \"#utility.yul\":2741:2763   */\n              lt\n                /* \"#utility.yul\":2720:2738   */\n              0xffffffffffffffff\n                /* \"#utility.yul\":2708:2718   */\n              dup3\n                /* \"#utility.yul\":2705:2739   */\n              gt\n                /* \"#utility.yul\":2702:2764   */\n              or\n                /* \"#utility.yul\":2699:2787   */\n              iszero\n              tag_95\n              jumpi\n                /* \"#utility.yul\":2767:2785   */\n              tag_96\n              tag_44\n              jump\t// in\n            tag_96:\n                /* \"#utility.yul\":2699:2787   */\n            tag_95:\n                /* \"#utility.yul\":2807:2817   */\n              dup1\n                /* \"#utility.yul\":2803:2805   */\n              0x40\n                /* \"#utility.yul\":2796:2818   */\n              mstore\n                /* \"#utility.yul\":2586:2824   */\n              pop\n                /* \"#utility.yul\":2543:2824   */\n              pop\n              pop\n              jump\t// out\n                /* \"#utility.yul\":2830:2959   */\n            tag_46:\n                /* \"#utility.yul\":2864:2870   */\n              0x00\n                /* \"#utility.yul\":2891:2911   */\n              tag_98\n              tag_39\n              jump\t// in\n            tag_98:\n                /* \"#utility.yul\":2881:2911   */\n              swap1\n              pop\n                /* \"#utility.yul\":2920:2953   */\n              tag_99\n                /* \"#utility.yul\":2948:2952   */\n              dup3\n                /* \"#utility.yul\":2940:2946   */\n              dup3\n                /* \"#utility.yul\":2920:2953   */\n              tag_45\n              jump\t// in\n            tag_99:\n                /* \"#utility.yul\":2830:2959   */\n              swap2\n              swap1\n              pop\n              jump\t// out\n                /* \"#utility.yul\":2965:3273   */\n            tag_47:\n                /* \"#utility.yul\":3027:3031   */\n              0x00\n                /* \"#utility.yul\":3117:3135   */\n              0xffffffffffffffff\n                /* \"#utility.yul\":3109:3115   */\n              dup3\n                /* \"#utility.yul\":3106:3136   */\n              gt\n                /* \"#utility.yul\":3103:3159   */\n              iszero\n              tag_101\n              jumpi\n                /* \"#utility.yul\":3139:3157   */\n              tag_102\n              tag_44\n              jump\t// in\n            tag_102:\n                /* \"#utility.yul\":3103:3159   */\n            tag_101:\n                /* \"#utility.yul\":3177:3206   */\n              tag_103\n                /* \"#utility.yul\":3199:3205   */\n              dup3\n                /* \"#utility.yul\":3177:3206   */\n              tag_35\n              jump\t// in\n            tag_103:\n                /* \"#utility.yul\":3169:3206   */\n              swap1\n              pop\n                /* \"#utility.yul\":3261:3265   */\n              0x20\n                /* \"#utility.yul\":3255:3259   */\n              dup2\n                /* \"#utility.yul\":3251:3266   */\n              add\n                /* \"#utility.yul\":3243:3266   */\n              swap1\n              pop\n                /* \"#utility.yul\":2965:3273   */\n              swap2\n              swap1\n              pop\n              jump\t// out\n                /* \"#utility.yul\":3279:3425   */\n            tag_48:\n                /* \"#utility.yul\":3376:3382   */\n              dup3\n                /* \"#utility.yul\":3371:3374   */\n              dup2\n                /* \"#utility.yul\":3366:3369   */\n              dup4\n                /* \"#utility.yul\":3353:3383   */\n              calldatacopy\n                /* \"#utility.yul\":3417:3418   */\n              0x00\n                /* \"#utility.yul\":3408:3414   */\n              dup4\n                /* \"#utility.yul\":3403:3406   */\n              dup4\n                /* \"#utility.yul\":3399:3415   */\n              add\n                /* \"#utility.yul\":3392:3419   */\n              mstore\n                /* \"#utility.yul\":3279:3425   */\n              pop\n              pop\n              pop\n              jump\t// out\n                /* \"#utility.yul\":3431:3856   */\n            tag_49:\n                /* \"#utility.yul\":3509:3514   */\n              0x00\n                /* \"#utility.yul\":3534:3600   */\n              tag_106\n                /* \"#utility.yul\":3550:3599   */\n              tag_107\n                /* \"#utility.yul\":3592:3598   */\n              dup5\n                /* \"#utility.yul\":3550:3599   */\n              tag_47\n              jump\t// in\n            tag_107:\n                /* \"#utility.yul\":3534:3600   */\n              tag_46\n              jump\t// in\n            tag_106:\n                /* \"#utility.yul\":3525:3600   */\n              swap1\n              pop\n                /* \"#utility.yul\":3623:3629   */\n              dup3\n                /* \"#utility.yul\":3616:3621   */\n              dup2\n                /* \"#utility.yul\":3609:3630   */\n              mstore\n                /* \"#utility.yul\":3661:3665   */\n              0x20\n                /* \"#utility.yul\":3654:3659   */\n              dup2\n                /* \"#utility.yul\":3650:3666   */\n              add\n                /* \"#utility.yul\":3699:3702   */\n              dup5\n                /* \"#utility.yul\":3690:3696   */\n              dup5\n                /* \"#utility.yul\":3685:3688   */\n              dup5\n                /* \"#utility.yul\":3681:3697   */\n              add\n                /* \"#utility.yul\":3678:3703   */\n              gt\n                /* \"#utility.yul\":3675:3787   */\n              iszero\n              tag_108\n              jumpi\n                /* \"#utility.yul\":3706:3785   */\n              tag_109\n              tag_43\n              jump\t// in\n            tag_109:\n                /* \"#utility.yul\":3675:3787   */\n            tag_108:\n                /* \"#utility.yul\":3796:3850   */\n              tag_110\n                /* \"#utility.yul\":3843:3849   */\n              dup5\n                /* \"#utility.yul\":3838:3841   */\n              dup3\n                /* \"#utility.yul\":3833:3836   */\n              dup6\n                /* \"#utility.yul\":3796:3850   */\n              tag_48\n              jump\t// in\n            tag_110:\n                /* \"#utility.yul\":3515:3856   */\n              pop\n                /* \"#utility.yul\":3431:3856   */\n              swap4\n              swap3\n              pop\n              pop\n              pop\n              jump\t// out\n                /* \"#utility.yul\":3876:4216   */\n            tag_50:\n                /* \"#utility.yul\":3932:3937   */\n              0x00\n                /* \"#utility.yul\":3981:3984   */\n              dup3\n                /* \"#utility.yul\":3974:3978   */\n              0x1f\n                /* \"#utility.yul\":3966:3972   */\n              dup4\n                /* \"#utility.yul\":3962:3979   */\n              add\n                /* \"#utility.yul\":3958:3985   */\n              slt\n                /* \"#utility.yul\":3948:4070   */\n              tag_112\n              jumpi\n                /* \"#utility.yul\":3989:4068   */\n              tag_113\n              tag_42\n              jump\t// in\n            tag_113:\n                /* \"#utility.yul\":3948:4070   */\n            tag_112:\n                /* \"#utility.yul\":4106:4112   */\n              dup2\n                /* \"#utility.yul\":4093:4113   */\n              calldataload\n                /* \"#utility.yul\":4131:4210   */\n              tag_114\n                /* \"#utility.yul\":4206:4209   */\n              dup5\n                /* \"#utility.yul\":4198:4204   */\n              dup3\n                /* \"#utility.yul\":4191:4195   */\n              0x20\n                /* \"#utility.yul\":4183:4189   */\n              dup7\n                /* \"#utility.yul\":4179:4196   */\n              add\n                /* \"#utility.yul\":4131:4210   */\n              tag_49\n              jump\t// in\n            tag_114:\n                /* \"#utility.yul\":4122:4210   */\n              swap2\n              pop\n                /* \"#utility.yul\":3938:4216   */\n              pop\n                /* \"#utility.yul\":3876:4216   */\n              swap3\n              swap2\n              pop\n              pop\n              jump\t// out\n                /* \"#utility.yul\":4222:4731   */\n            tag_20:\n                /* \"#utility.yul\":4291:4297   */\n              0x00\n                /* \"#utility.yul\":4340:4342   */\n              0x20\n                /* \"#utility.yul\":4328:4337   */\n              dup3\n                /* \"#utility.yul\":4319:4326   */\n              dup5\n                /* \"#utility.yul\":4315:4338   */\n              sub\n                /* \"#utility.yul\":4311:4343   */\n              slt\n                /* \"#utility.yul\":4308:4427   */\n              iszero\n              tag_116\n              jumpi\n                /* \"#utility.yul\":4346:4425   */\n              tag_117\n              tag_40\n              jump\t// in\n            tag_117:\n                /* \"#utility.yul\":4308:4427   */\n            tag_116:\n                /* \"#utility.yul\":4494:4495   */\n              0x00\n                /* \"#utility.yul\":4483:4492   */\n              dup3\n                /* \"#utility.yul\":4479:4496   */\n              add\n                /* \"#utility.yul\":4466:4497   */\n              calldataload\n                /* \"#utility.yul\":4524:4542   */\n              0xffffffffffffffff\n                /* \"#utility.yul\":4516:4522   */\n              dup2\n                /* \"#utility.yul\":4513:4543   */\n              gt\n                /* \"#utility.yul\":4510:4627   */\n              iszero\n              tag_118\n              jumpi\n                /* \"#utility.yul\":4546:4625   */\n              tag_119\n              tag_41\n              jump\t// in\n            tag_119:\n                /* \"#utility.yul\":4510:4627   */\n            tag_118:\n                /* \"#utility.yul\":4651:4714   */\n              tag_120\n                /* \"#utility.yul\":4706:4713   */\n              dup5\n                /* \"#utility.yul\":4697:4703   */\n              dup3\n                /* \"#utility.yul\":4686:4695   */\n              dup6\n                /* \"#utility.yul\":4682:4704   */\n              add\n                /* \"#utility.yul\":4651:4714   */\n              tag_50\n              jump\t// in\n            tag_120:\n                /* \"#utility.yul\":4641:4714   */\n              swap2\n              pop\n                /* \"#utility.yul\":4437:4724   */\n              pop\n                /* \"#utility.yul\":4222:4731   */\n              swap3\n              swap2\n              pop\n              pop\n              jump\t// out\n                /* \"#utility.yul\":4737:4917   */\n            tag_51:\n                /* \"#utility.yul\":4785:4862   */\n              0x4e487b7100000000000000000000000000000000000000000000000000000000\n                /* \"#utility.yul\":4782:4783   */\n              0x00\n                /* \"#utility.yul\":4775:4863   */\n              mstore\n                /* \"#utility.yul\":4882:4886   */\n              0x22\n                /* \"#utility.yul\":4879:4880   */\n              0x04\n                /* \"#utility.yul\":4872:4887   */\n              mstore\n                /* \"#utility.yul\":4906:4910   */\n              0x24\n                /* \"#utility.yul\":4903:4904   */\n              0x00\n                /* \"#utility.yul\":4896:4911   */\n              revert\n                /* \"#utility.yul\":4923:5243   */\n            tag_24:\n                /* \"#utility.yul\":4967:4973   */\n              0x00\n                /* \"#utility.yul\":5004:5005   */\n              0x02\n                /* \"#utility.yul\":4998:5002   */\n              dup3\n                /* \"#utility.yul\":4994:5006   */\n              div\n                /* \"#utility.yul\":4984:5006   */\n              swap1\n              pop\n                /* \"#utility.yul\":5051:5052   */\n              0x01\n                /* \"#utility.yul\":5045:5049   */\n              dup3\n                /* \"#utility.yul\":5041:5053   */\n              and\n                /* \"#utility.yul\":5072:5090   */\n              dup1\n                /* \"#utility.yul\":5062:5143   */\n              tag_123\n              jumpi\n                /* \"#utility.yul\":5128:5132   */\n              0x7f\n                /* \"#utility.yul\":5120:5126   */\n              dup3\n                /* \"#utility.yul\":5116:5133   */\n              and\n                /* \"#utility.yul\":5106:5133   */\n              swap2\n              pop\n                /* \"#utility.yul\":5062:5143   */\n            tag_123:\n                /* \"#utility.yul\":5190:5192   */\n              0x20\n                /* \"#utility.yul\":5182:5188   */\n              dup3\n                /* \"#utility.yul\":5179:5193   */\n              lt\n                /* \"#utility.yul\":5159:5177   */\n              dup2\n                /* \"#utility.yul\":5156:5194   */\n              sub\n                /* \"#utility.yul\":5153:5237   */\n              tag_124\n              jumpi\n                /* \"#utility.yul\":5209:5227   */\n              tag_125\n              tag_51\n              jump\t// in\n            tag_125:\n                /* \"#utility.yul\":5153:5237   */\n            tag_124:\n                /* \"#utility.yul\":4974:5243   */\n              pop\n                /* \"#utility.yul\":4923:5243   */\n              swap2\n              swap1\n              pop\n              jump\t// out\n                /* \"#utility.yul\":5249:5390   */\n            tag_52:\n                /* \"#utility.yul\":5298:5302   */\n              0x00\n                /* \"#utility.yul\":5321:5324   */\n              dup2\n                /* \"#utility.yul\":5313:5324   */\n              swap1\n              pop\n                /* \"#utility.yul\":5344:5347   */\n              dup2\n                /* \"#utility.yul\":5341:5342   */\n              0x00\n                /* \"#utility.yul\":5334:5348   */\n              mstore\n                /* \"#utility.yul\":5378:5382   */\n              0x20\n                /* \"#utility.yul\":5375:5376   */\n              0x00\n                /* \"#utility.yul\":5365:5383   */\n              keccak256\n                /* \"#utility.yul\":5357:5383   */\n              swap1\n              pop\n                /* \"#utility.yul\":5249:5390   */\n              swap2\n              swap1\n              pop\n              jump\t// out\n                /* \"#utility.yul\":5396:5489   */\n            tag_53:\n                /* \"#utility.yul\":5433:5439   */\n              0x00\n                /* \"#utility.yul\":5480:5482   */\n              0x20\n                /* \"#utility.yul\":5475:5477   */\n              0x1f\n                /* \"#utility.yul\":5468:5473   */\n              dup4\n                /* \"#utility.yul\":5464:5478   */\n              add\n                /* \"#utility.yul\":5460:5483   */\n              div\n                /* \"#utility.yul\":5450:5483   */\n              swap1\n              pop\n                /* \"#utility.yul\":5396:5489   */\n              swap2\n              swap1\n              pop\n              jump\t// out\n                /* \"#utility.yul\":5495:5602   */\n            tag_54:\n                /* \"#utility.yul\":5539:5547   */\n              0x00\n                /* \"#utility.yul\":5589:5594   */\n              dup3\n                /* \"#utility.yul\":5583:5587   */\n              dup3\n                /* \"#utility.yul\":5579:5595   */\n              shl\n                /* \"#utility.yul\":5558:5595   */\n              swap1\n              pop\n                /* \"#utility.yul\":5495:5602   */\n              swap3\n              swap2\n              pop\n              pop\n              jump\t// out\n                /* \"#utility.yul\":5608:6001   */\n            tag_55:\n                /* \"#utility.yul\":5677:5683   */\n              0x00\n                /* \"#utility.yul\":5727:5728   */\n              0x08\n                /* \"#utility.yul\":5715:5725   */\n              dup4\n                /* \"#utility.yul\":5711:5729   */\n              mul\n                /* \"#utility.yul\":5750:5847   */\n              tag_130\n                /* \"#utility.yul\":5780:5846   */\n              0xffffffffffffffffffffffffffffffffffffffffffffffffffffffffffffffff\n                /* \"#utility.yul\":5769:5778   */\n              dup3\n                /* \"#utility.yul\":5750:5847   */\n              tag_54\n              jump\t// in\n            tag_130:\n                /* \"#utility.yul\":5868:5907   */\n              tag_131\n                /* \"#utility.yul\":5898:5906   */\n              dup7\n                /* \"#utility.yul\":5887:5896   */\n              dup4\n                /* \"#utility.yul\":5868:5907   */\n              tag_54\n              jump\t// in\n            tag_131:\n                /* \"#utility.yul\":5856:5907   */\n              swap6\n              pop\n                /* \"#utility.yul\":5940:5944   */\n              dup1\n                /* \"#utility.yul\":5936:5945   */\n              not\n                /* \"#utility.yul\":5929:5934   */\n              dup5\n                /* \"#utility.yul\":5925:5946   */\n              and\n                /* \"#utility.yul\":5916:5946   */\n              swap4\n              pop\n                /* \"#utility.yul\":5989:5993   */\n              dup1\n                /* \"#utility.yul\":5979:5987   */\n              dup7\n                /* \"#utility.yul\":5975:5994   */\n              and\n                /* \"#utility.yul\":5968:5973   */\n              dup5\n                /* \"#utility.yul\":5965:5995   */\n              or\n                /* \"#utility.yul\":5955:5995   */\n              swap3\n              pop\n                /* \"#utility.yul\":5684:6001   */\n              pop\n              pop\n                /* \"#utility.yul\":5608:6001   */\n              swap4\n              swap3\n              pop\n              pop\n              pop\n              jump\t// out\n                /* \"#utility.yul\":6007:6067   */\n            tag_56:\n                /* \"#utility.yul\":6035:6038   */\n              0x00\n                /* \"#utility.yul\":6056:6061   */\n              dup2\n                /* \"#utility.yul\":6049:6061   */\n              swap1\n              pop\n                /* \"#utility.yul\":6007:6067   */\n              swap2\n              swap1\n              pop\n              jump\t// out\n                /* \"#utility.yul\":6073:6215   */\n            tag_57:\n                /* \"#utility.yul\":6123:6132   */\n              0x00\n                /* \"#utility.yul\":6156:6209   */\n              tag_134\n                /* \"#utility.yul\":6174:6208   */\n              tag_135\n                /* \"#utility.yul\":6183:6207   */\n              tag_136\n                /* \"#utility.yul\":6201:6206   */\n              dup5\n                /* \"#utility.yul\":6183:6207   */\n              tag_37\n              jump\t// in\n            tag_136:\n                /* \"#utility.yul\":6174:6208   */\n              tag_56\n              jump\t// in\n            tag_135:\n                /* \"#utility.yul\":6156:6209   */\n              tag_37\n              jump\t// in\n            tag_134:\n                /* \"#utility.yul\":6143:6209   */\n              swap1\n              pop\n                /* \"#utility.yul\":6073:6215   */\n              swap2\n              swap1\n              pop\n              jump\t// out\n                /* \"#utility.yul\":6221:6296   */\n            tag_58:\n                /* \"#utility.yul\":6264:6267   */\n              0x00\n                /* \"#utility.yul\":6285:6290   */\n              dup2\n                /* \"#utility.yul\":6278:6290   */\n              swap1\n              pop\n                /* \"#utility.yul\":6221:6296   */\n              swap2\n              swap1\n              pop\n              jump\t// out\n                /* \"#utility.yul\":6302:6571   */\n            tag_59:\n                /* \"#utility.yul\":6412:6451   */\n              tag_139\n                /* \"#utility.yul\":6443:6450   */\n              dup4\n                /* \"#utility.yul\":6412:6451   */\n              tag_57\n              jump\t// in\n            tag_139:\n                /* \"#utility.yul\":6473:6564   */\n              tag_140\n                /* \"#utility.yul\":6522:6563   */\n              tag_141\n                /* \"#utility.yul\":6546:6562   */\n              dup3\n                /* \"#utility.yul\":6522:6563   */\n              tag_58\n              jump\t// in\n            tag_141:\n                /* \"#utility.yul\":6514:6520   */\n              dup5\n                /* \"#utility.yul\":6507:6511   */\n              dup5\n                /* \"#utility.yul\":6501:6512   */\n              sload\n                /* \"#utility.yul\":6473:6564   */\n              tag_55\n              jump\t// in\n            tag_140:\n                /* \"#utility.yul\":6467:6471   */\n              dup3\n                /* \"#utility.yul\":6460:6565   */\n              sstore\n                /* \"#utility.yul\":6378:6571   */\n              pop\n                /* \"#utility.yul\":6302:6571   */\n              pop\n              pop\n              pop\n              jump\t// out\n                /* \"#utility.yul\":6577:6650   */\n            tag_60:\n                /* \"#utility.yul\":6622:6625   */\n              0x00\n                /* \"#utility.yul\":6577:6650   */\n              swap1\n              jump\t// out\n                /* \"#utility.yul\":6656:6845   */\n            tag_61:\n                /* \"#utility.yul\":6733:6765   */\n              tag_144\n              tag_60\n              jump\t// in\n            tag_144:\n                /* \"#utility.yul\":6774:6839   */\n              tag_145\n                /* \"#utility.yul\":6832:6838   */\n              dup2\n                /* \"#utility.yul\":6824:6830   */\n              dup5\n                /* \"#utility.yul\":6818:6822   */\n              dup5\n                /* \"#utility.yul\":6774:6839   */\n              tag_59\n              jump\t// in\n            tag_145:\n                /* \"#utility.yul\":6709:6845   */\n              pop\n                /* \"#utility.yul\":6656:6845   */\n              pop\n              pop\n              jump\t// out\n                /* \"#utility.yul\":6851:7037   */\n            tag_62:\n                /* \"#utility.yul\":6911:7031   */\n            tag_147:\n                /* \"#utility.yul\":6928:6931   */\n              dup2\n                /* \"#utility.yul\":6921:6926   */\n              dup2\n                /* \"#utility.yul\":6918:6932   */\n              lt\n                /* \"#utility.yul\":6911:7031   */\n              iszero\n              tag_149\n              jumpi\n                /* \"#utility.yul\":6982:7021   */\n              tag_150\n                /* \"#utility.yul\":7019:7020   */\n              0x00\n                /* \"#utility.yul\":7012:7017   */\n              dup3\n                /* \"#utility.yul\":6982:7021   */\n              tag_61\n              jump\t// in\n            tag_150:\n                /* \"#utility.yul\":6955:6956   */\n              0x01\n                /* \"#utility.yul\":6948:6953   */\n              dup2\n                /* \"#utility.yul\":6944:6957   */\n              add\n                /* \"#utility.yul\":6935:6957   */\n              swap1\n              pop\n                /* \"#utility.yul\":6911:7031   */\n              jump(tag_147)\n            tag_149:\n                /* \"#utility.yul\":6851:7037   */\n              pop\n              pop\n              jump\t// out\n                /* \"#utility.yul\":7043:7586   */\n            tag_63:\n                /* \"#utility.yul\":7144:7146   */\n              0x1f\n                /* \"#utility.yul\":7139:7142   */\n              dup3\n                /* \"#utility.yul\":7136:7147   */\n              gt\n                /* \"#utility.yul\":7133:7579   */\n              iszero\n              tag_152\n              jumpi\n                /* \"#utility.yul\":7178:7216   */\n              tag_153\n                /* \"#utility.yul\":7210:7215   */\n              dup2\n                /* \"#utility.yul\":7178:7216   */\n              tag_52\n              jump\t// in\n            tag_153:\n                /* \"#utility.yul\":7262:7291   */\n              tag_154\n                /* \"#utility.yul\":7280:7290   */\n              dup5\n                /* \"#utility.yul\":7262:7291   */\n              tag_53\n              jump\t// in\n            tag_154:\n                /* \"#utility.yul\":7252:7260   */\n              dup2\n                /* \"#utility.yul\":7248:7292   */\n              add\n                /* \"#utility.yul\":7445:7447   */\n              0x20\n                /* \"#utility.yul\":7433:7443   */\n              dup6\n                /* \"#utility.yul\":7430:7448   */\n              lt\n                /* \"#utility.yul\":7427:7476   */\n              iszero\n              tag_155\n              jumpi\n                /* \"#utility.yul\":7466:7474   */\n              dup2\n                /* \"#utility.yul\":7451:7474   */\n              swap1\n              pop\n                /* \"#utility.yul\":7427:7476   */\n            tag_155:\n                /* \"#utility.yul\":7489:7569   */\n              tag_156\n                /* \"#utility.yul\":7545:7567   */\n              tag_157\n                /* \"#utility.yul\":7563:7566   */\n              dup6\n                /* \"#utility.yul\":7545:7567   */\n              tag_53\n              jump\t// in\n            tag_157:\n                /* \"#utility.yul\":7535:7543   */\n              dup4\n                /* \"#utility.yul\":7531:7568   */\n              add\n                /* \"#utility.yul\":7518:7529   */\n              dup3\n                /* \"#utility.yul\":7489:7569   */\n              tag_62\n              jump\t// in\n            tag_156:\n                /* \"#utility.yul\":7148:7579   */\n              pop\n              pop\n                /* \"#utility.yul\":7133:7579   */\n            tag_152:\n                /* \"#utility.yul\":7043:7586   */\n              pop\n              pop\n              pop\n              jump\t// out\n                /* \"#utility.yul\":7592:7709   */\n            tag_64:\n                /* \"#utility.yul\":7646:7654   */\n              0x00\n                /* \"#utility.yul\":7696:7701   */\n              dup3\n                /* \"#utility.yul\":7690:7694   */\n              dup3\n                /* \"#utility.yul\":7686:7702   */\n              shr\n                /* \"#utility.yul\":7665:7702   */\n              swap1\n              pop\n                /* \"#utility.yul\":7592:7709   */\n              swap3\n              swap2\n              pop\n              pop\n              jump\t// out\n                /* \"#utility.yul\":7715:7884   */\n            tag_65:\n                /* \"#utility.yul\":7759:7765   */\n              0x00\n                /* \"#utility.yul\":7792:7843   */\n              tag_160\n                /* \"#utility.yul\":7840:7841   */\n              0x00\n                /* \"#utility.yul\":7836:7842   */\n              not\n                /* \"#utility.yul\":7828:7833   */\n              dup5\n                /* \"#utility.yul\":7825:7826   */\n              0x08\n                /* \"#utility.yul\":7821:7834   */\n              mul\n                /* \"#utility.yul\":7792:7843   */\n              tag_64\n              jump\t// in\n            tag_160:\n                /* \"#utility.yul\":7788:7844   */\n              not\n                /* \"#utility.yul\":7873:7877   */\n              dup1\n                /* \"#utility.yul\":7867:7871   */\n              dup4\n                /* \"#utility.yul\":7863:7878   */\n              and\n                /* \"#utility.yul\":7853:7878   */\n              swap2\n              pop\n                /* \"#utility.yul\":7766:7884   */\n              pop\n                /* \"#utility.yul\":7715:7884   */\n              swap3\n              swap2\n              pop\n              pop\n              jump\t// out\n                /* \"#utility.yul\":7889:8184   */\n            tag_66:\n                /* \"#utility.yul\":7965:7969   */\n              0x00\n                /* \"#utility.yul\":8111:8140   */\n              tag_162\n                /* \"#utility.yul\":8136:8139   */\n              dup4\n                /* \"#utility.yul\":8130:8134   */\n              dup4\n                /* \"#utility.yul\":8111:8140   */\n              tag_65\n              jump\t// in\n            tag_162:\n                /* \"#utility.yul\":8103:8140   */\n              swap2\n              pop\n                /* \"#utility.yul\":8173:8176   */\n              dup3\n                /* \"#utility.yul\":8170:8171   */\n              0x02\n                /* \"#utility.yul\":8166:8177   */\n              mul\n                /* \"#utility.yul\":8160:8164   */\n              dup3\n                /* \"#utility.yul\":8157:8178   */\n              or\n                /* \"#utility.yul\":8149:8178   */\n              swap1\n              pop\n                /* \"#utility.yul\":7889:8184   */\n              swap3\n              swap2\n              pop\n              pop\n              jump\t// out\n                /* \"#utility.yul\":8189:9584   */\n            tag_31:\n                /* \"#utility.yul\":8306:8343   */\n              tag_164\n                /* \"#utility.yul\":8339:8342   */\n              dup3\n                /* \"#utility.yul\":8306:8343   */\n              tag_32\n              jump\t// in\n            tag_164:\n                /* \"#utility.yul\":8408:8426   */\n              0xffffffffffffffff\n                /* \"#utility.yul\":8400:8406   */\n              dup2\n                /* \"#utility.yul\":8397:8427   */\n              gt\n                /* \"#utility.yul\":8394:8450   */\n              iszero\n              tag_165\n              jumpi\n                /* \"#utility.yul\":8430:8448   */\n              tag_166\n              tag_44\n              jump\t// in\n            tag_166:\n                /* \"#utility.yul\":8394:8450   */\n            tag_165:\n                /* \"#utility.yul\":8474:8512   */\n              tag_167\n                /* \"#utility.yul\":8506:8510   */\n              dup3\n                /* \"#utility.yul\":8500:8511   */\n              sload\n                /* \"#utility.yul\":8474:8512   */\n              tag_24\n              jump\t// in\n            tag_167:\n                /* \"#utility.yul\":8559:8626   */\n              tag_168\n                /* \"#utility.yul\":8619:8625   */\n              dup3\n                /* \"#utility.yul\":8611:8617   */\n              dup3\n                /* \"#utility.yul\":8605:8609   */\n              dup6\n                /* \"#utility.yul\":8559:8626   */\n              tag_63\n              jump\t// in\n            tag_168:\n                /* \"#utility.yul\":8653:8654   */\n              0x00\n                /* \"#utility.yul\":8677:8681   */\n              0x20\n                /* \"#utility.yul\":8664:8681   */\n              swap1\n              pop\n                /* \"#utility.yul\":8709:8711   */\n              0x1f\n                /* \"#utility.yul\":8701:8707   */\n              dup4\n                /* \"#utility.yul\":8698:8712   */\n              gt\n                /* \"#utility.yul\":8726:8727   */\n              0x01\n                /* \"#utility.yul\":8721:9339   */\n              dup2\n              eq\n              tag_170\n              jumpi\n                /* \"#utility.yul\":9383:9384   */\n              0x00\n                /* \"#utility.yul\":9400:9406   */\n              dup5\n                /* \"#utility.yul\":9397:9474   */\n              iszero\n              tag_171\n              jumpi\n                /* \"#utility.yul\":9449:9458   */\n              dup3\n                /* \"#utility.yul\":9444:9447   */\n              dup8\n                /* \"#utility.yul\":9440:9459   */\n              add\n                /* \"#utility.yul\":9434:9460   */\n              mload\n                /* \"#utility.yul\":9425:9460   */\n              swap1\n              pop\n                /* \"#utility.yul\":9397:9474   */\n            tag_171:\n                /* \"#utility.yul\":9500:9567   */\n              tag_172\n                /* \"#utility.yul\":9560:9566   */\n              dup6\n                /* \"#utility.yul\":9553:9558   */\n              dup3\n                /* \"#utility.yul\":9500:9567   */\n              tag_66\n              jump\t// in\n            tag_172:\n                /* \"#utility.yul\":9494:9498   */\n              dup7\n                /* \"#utility.yul\":9487:9568   */\n              sstore\n                /* \"#utility.yul\":9356:9578   */\n              pop\n                /* \"#utility.yul\":8691:9578   */\n              jump(tag_169)\n                /* \"#utility.yul\":8721:9339   */\n            tag_170:\n                /* \"#utility.yul\":8773:8777   */\n              0x1f\n                /* \"#utility.yul\":8769:8778   */\n              not\n                /* \"#utility.yul\":8761:8767   */\n              dup5\n                /* \"#utility.yul\":8757:8779   */\n              and\n                /* \"#utility.yul\":8807:8844   */\n              tag_173\n                /* \"#utility.yul\":8839:8843   */\n              dup7\n                /* \"#utility.yul\":8807:8844   */\n              tag_52\n              jump\t// in\n            tag_173:\n                /* \"#utility.yul\":8866:8867   */\n              0x00\n                /* \"#utility.yul\":8880:9088   */\n            tag_174:\n                /* \"#utility.yul\":8894:8901   */\n              dup3\n                /* \"#utility.yul\":8891:8892   */\n              dup2\n                /* \"#utility.yul\":8888:8902   */\n              lt\n                /* \"#utility.yul\":8880:9088   */\n              iszero\n              tag_176\n              jumpi\n                /* \"#utility.yul\":8973:8982   */\n              dup5\n                /* \"#utility.yul\":8968:8971   */\n              dup10\n                /* \"#utility.yul\":8964:8983   */\n              add\n                /* \"#utility.yul\":8958:8984   */\n              mload\n                /* \"#utility.yul\":8950:8956   */\n              dup3\n                /* \"#utility.yul\":8943:8985   */\n              sstore\n                /* \"#utility.yul\":9024:9025   */\n              0x01\n                /* \"#utility.yul\":9016:9022   */\n              dup3\n                /* \"#utility.yul\":9012:9026   */\n              add\n                /* \"#utility.yul\":9002:9026   */\n              swap2\n              pop\n                /* \"#utility.yul\":9071:9073   */\n              0x20\n                /* \"#utility.yul\":9060:9069   */\n              dup6\n                /* \"#utility.yul\":9056:9074   */\n              add\n                /* \"#utility.yul\":9043:9074   */\n              swap5\n              pop\n                /* \"#utility.yul\":8917:8921   */\n              0x20\n                /* \"#utility.yul\":8914:8915   */\n              dup2\n                /* \"#utility.yul\":8910:8922   */\n              add\n                /* \"#utility.yul\":8905:8922   */\n              swap1\n              pop\n                /* \"#utility.yul\":8880:9088   */\n              jump(tag_174)\n            tag_176:\n                /* \"#utility.yul\":9116:9122   */\n              dup7\n                /* \"#utility.yul\":9107:9114   */\n              dup4\n                /* \"#utility.yul\":9104:9123   */\n              lt\n                /* \"#utility.yul\":9101:9280   */\n              iszero\n              tag_177\n              jumpi\n                /* \"#utility.yul\":9174:9183   */\n              dup5\n                /* \"#utility.yul\":9169:9172   */\n              dup10\n                /* \"#utility.yul\":9165:9184   */\n              add\n                /* \"#utility.yul\":9159:9185   */\n              mload\n                /* \"#utility.yul\":9217:9265   */\n              tag_178\n                /* \"#utility.yul\":9259:9263   */\n              0x1f\n                /* \"#utility.yul\":9251:9257   */\n              dup10\n                /* \"#utility.yul\":9247:9264   */\n              and\n                /* \"#utility.yul\":9236:9245   */\n              dup3\n                /* \"#utility.yul\":9217:9265   */\n              tag_65\n              jump\t// in\n            tag_178:\n                /* \"#utility.yul\":9209:9215   */\n              dup4\n                /* \"#utility.yul\":9202:9266   */\n              sstore\n                /* \"#utility.yul\":9124:9280   */\n              pop\n                /* \"#utility.yul\":9101:9280   */\n            tag_177:\n                /* \"#utility.yul\":9326:9327   */\n              0x01\n                /* \"#utility.yul\":9322:9323   */\n              0x02\n                /* \"#utility.yul\":9314:9320   */\n              dup9\n                /* \"#utility.yul\":9310:9324   */\n              mul\n                /* \"#utility.yul\":9306:9328   */\n              add\n                /* \"#utility.yul\":9300:9304   */\n              dup9\n                /* \"#utility.yul\":9293:9329   */\n              sstore\n                /* \"#utility.yul\":8728:9339   */\n              pop\n              pop\n              pop\n                /* \"#utility.yul\":8691:9578   */\n            tag_169:\n              pop\n                /* \"#utility.yul\":8281:9584   */\n              pop\n              pop\n              pop\n                /* \"#utility.yul\":8189:9584   */\n              pop\n              pop\n              jump\t// out\n\n            auxdata: 0xa264697066735822122017aee882c6e2b6cf8ce01d7cf6530a527ba278b97cef6aa88971527c65cdac6964736f6c63430008160033\n        }\n    }\n\n    sub_1: assembly {\n            /* \"Solidity/Hardhat/my-hardhat-project/contracts/RecordFactory.sol\":1265:1910  contract AddressRecord is Record {... */\n          mstore(0x40, 0x80)\n            /* \"Solidity/Hardhat/my-hardhat-project/contracts/RecordFactory.sol\":1450:1577  constructor(uint256 _timeOfCreation, address _record)... */\n          callvalue\n          dup1\n          iszero\n          tag_1\n          jumpi\n          0x00\n          dup1\n          revert\n        tag_1:\n          pop\n          mload(0x40)\n          sub(codesize, bytecodeSize)\n          dup1\n          bytecodeSize\n          dup4\n          codecopy\n          dup2\n          dup2\n          add\n          0x40\n          mstore\n          dup2\n          add\n          swap1\n          tag_2\n          swap2\n          swap1\n          tag_3\n          jump\t// in\n        tag_2:\n            /* \"Solidity/Hardhat/my-hardhat-project/contracts/RecordFactory.sol\":1520:1535  _timeOfCreation */\n          dup2\n            /* \"Solidity/Hardhat/my-hardhat-project/contracts/RecordFactory.sol\":295:310  _timeOfCreation */\n          dup1\n            /* \"Solidity/Hardhat/my-hardhat-project/contracts/RecordFactory.sol\":278:292  timeOfCreation */\n          0x00\n            /* \"Solidity/Hardhat/my-hardhat-project/contracts/RecordFactory.sol\":278:310  timeOfCreation = _timeOfCreation */\n          dup2\n          swap1\n          sstore\n          pop\n            /* \"Solidity/Hardhat/my-hardhat-project/contracts/RecordFactory.sol\":230:318  constructor(uint256 _timeOfCreation) {... */\n          pop\n            /* \"Solidity/Hardhat/my-hardhat-project/contracts/RecordFactory.sol\":1562:1569  _record */\n          dup1\n            /* \"Solidity/Hardhat/my-hardhat-project/contracts/RecordFactory.sol\":1553:1559  record */\n          0x01\n          0x00\n            /* \"Solidity/Hardhat/my-hardhat-project/contracts/RecordFactory.sol\":1553:1569  record = _record */\n          0x0100\n          exp\n          dup2\n          sload\n          dup2\n          0xffffffffffffffffffffffffffffffffffffffff\n          mul\n          not\n          and\n          swap1\n          dup4\n          0xffffffffffffffffffffffffffffffffffffffff\n          and\n          mul\n          or\n          swap1\n          sstore\n          pop\n            /* \"Solidity/Hardhat/my-hardhat-project/contracts/RecordFactory.sol\":1450:1577  constructor(uint256 _timeOfCreation, address _record)... */\n          pop\n          pop\n            /* \"Solidity/Hardhat/my-hardhat-project/contracts/RecordFactory.sol\":1265:1910  contract AddressRecord is Record {... */\n          jump(tag_8)\n            /* \"#utility.yul\":88:205   */\n        tag_10:\n            /* \"#utility.yul\":197:198   */\n          0x00\n            /* \"#utility.yul\":194:195   */\n          dup1\n            /* \"#utility.yul\":187:199   */\n          revert\n            /* \"#utility.yul\":334:411   */\n        tag_12:\n            /* \"#utility.yul\":371:378   */\n          0x00\n            /* \"#utility.yul\":400:405   */\n          dup2\n            /* \"#utility.yul\":389:405   */\n          swap1\n          pop\n            /* \"#utility.yul\":334:411   */\n          swap2\n          swap1\n          pop\n          jump\t// out\n            /* \"#utility.yul\":417:539   */\n        tag_13:\n            /* \"#utility.yul\":490:514   */\n          tag_25\n            /* \"#utility.yul\":508:513   */\n          dup2\n            /* \"#utility.yul\":490:514   */\n          tag_12\n          jump\t// in\n        tag_25:\n            /* \"#utility.yul\":483:488   */\n          dup2\n            /* \"#utility.yul\":480:515   */\n          eq\n            /* \"#utility.yul\":470:533   */\n          tag_26\n          jumpi\n            /* \"#utility.yul\":529:530   */\n          0x00\n            /* \"#utility.yul\":526:527   */\n          dup1\n            /* \"#utility.yul\":519:531   */\n          revert\n            /* \"#utility.yul\":470:533   */\n        tag_26:\n            /* \"#utility.yul\":417:539   */\n          pop\n          jump\t// out\n            /* \"#utility.yul\":545:688   */\n        tag_14:\n            /* \"#utility.yul\":602:607   */\n          0x00\n            /* \"#utility.yul\":633:639   */\n          dup2\n            /* \"#utility.yul\":627:640   */\n          mload\n            /* \"#utility.yul\":618:640   */\n          swap1\n          pop\n            /* \"#utility.yul\":649:682   */\n          tag_28\n            /* \"#utility.yul\":676:681   */\n          dup2\n            /* \"#utility.yul\":649:682   */\n          tag_13\n          jump\t// in\n        tag_28:\n            /* \"#utility.yul\":545:688   */\n          swap3\n          swap2\n          pop\n          pop\n          jump\t// out\n            /* \"#utility.yul\":694:820   */\n        tag_15:\n            /* \"#utility.yul\":731:738   */\n          0x00\n            /* \"#utility.yul\":771:813   */\n          0xffffffffffffffffffffffffffffffffffffffff\n            /* \"#utility.yul\":764:769   */\n          dup3\n            /* \"#utility.yul\":760:814   */\n          and\n            /* \"#utility.yul\":749:814   */\n          swap1\n          pop\n            /* \"#utility.yul\":694:820   */\n          swap2\n          swap1\n          pop\n          jump\t// out\n            /* \"#utility.yul\":826:922   */\n        tag_16:\n            /* \"#utility.yul\":863:870   */\n          0x00\n            /* \"#utility.yul\":892:916   */\n          tag_31\n            /* \"#utility.yul\":910:915   */\n          dup3\n            /* \"#utility.yul\":892:916   */\n          tag_15\n          jump\t// in\n        tag_31:\n            /* \"#utility.yul\":881:916   */\n          swap1\n          pop\n            /* \"#utility.yul\":826:922   */\n          swap2\n          swap1\n          pop\n          jump\t// out\n            /* \"#utility.yul\":928:1050   */\n        tag_17:\n            /* \"#utility.yul\":1001:1025   */\n          tag_33\n            /* \"#utility.yul\":1019:1024   */\n          dup2\n            /* \"#utility.yul\":1001:1025   */\n          tag_16\n          jump\t// in\n        tag_33:\n            /* \"#utility.yul\":994:999   */\n          dup2\n            /* \"#utility.yul\":991:1026   */\n          eq\n            /* \"#utility.yul\":981:1044   */\n          tag_34\n          jumpi\n            /* \"#utility.yul\":1040:1041   */\n          0x00\n            /* \"#utility.yul\":1037:1038   */\n          dup1\n            /* \"#utility.yul\":1030:1042   */\n          revert\n            /* \"#utility.yul\":981:1044   */\n        tag_34:\n            /* \"#utility.yul\":928:1050   */\n          pop\n          jump\t// out\n            /* \"#utility.yul\":1056:1199   */\n        tag_18:\n            /* \"#utility.yul\":1113:1118   */\n          0x00\n            /* \"#utility.yul\":1144:1150   */\n          dup2\n            /* \"#utility.yul\":1138:1151   */\n          mload\n            /* \"#utility.yul\":1129:1151   */\n          swap1\n          pop\n            /* \"#utility.yul\":1160:1193   */\n          tag_36\n            /* \"#utility.yul\":1187:1192   */\n          dup2\n            /* \"#utility.yul\":1160:1193   */\n          tag_17\n          jump\t// in\n        tag_36:\n            /* \"#utility.yul\":1056:1199   */\n          swap3\n          swap2\n          pop\n          pop\n          jump\t// out\n            /* \"#utility.yul\":1205:1712   */\n        tag_3:\n            /* \"#utility.yul\":1284:1290   */\n          0x00\n            /* \"#utility.yul\":1292:1298   */\n          dup1\n            /* \"#utility.yul\":1341:1343   */\n          0x40\n            /* \"#utility.yul\":1329:1338   */\n          dup4\n            /* \"#utility.yul\":1320:1327   */\n          dup6\n            /* \"#utility.yul\":1316:1339   */\n          sub\n            /* \"#utility.yul\":1312:1344   */\n          slt\n            /* \"#utility.yul\":1309:1428   */\n          iszero\n          tag_38\n          jumpi\n            /* \"#utility.yul\":1347:1426   */\n          tag_39\n          tag_10\n          jump\t// in\n        tag_39:\n            /* \"#utility.yul\":1309:1428   */\n        tag_38:\n            /* \"#utility.yul\":1467:1468   */\n          0x00\n            /* \"#utility.yul\":1492:1556   */\n          tag_40\n            /* \"#utility.yul\":1548:1555   */\n          dup6\n            /* \"#utility.yul\":1539:1545   */\n          dup3\n            /* \"#utility.yul\":1528:1537   */\n          dup7\n            /* \"#utility.yul\":1524:1546   */\n          add\n            /* \"#utility.yul\":1492:1556   */\n          tag_14\n          jump\t// in\n        tag_40:\n            /* \"#utility.yul\":1482:1556   */\n          swap3\n          pop\n            /* \"#utility.yul\":1438:1566   */\n          pop\n            /* \"#utility.yul\":1605:1607   */\n          0x20\n            /* \"#utility.yul\":1631:1695   */\n          tag_41\n            /* \"#utility.yul\":1687:1694   */\n          dup6\n            /* \"#utility.yul\":1678:1684   */\n          dup3\n            /* \"#utility.yul\":1667:1676   */\n          dup7\n            /* \"#utility.yul\":1663:1685   */\n          add\n            /* \"#utility.yul\":1631:1695   */\n          tag_18\n          jump\t// in\n        tag_41:\n            /* \"#utility.yul\":1621:1695   */\n          swap2\n          pop\n            /* \"#utility.yul\":1576:1705   */\n          pop\n            /* \"#utility.yul\":1205:1712   */\n          swap3\n          pop\n          swap3\n          swap1\n          pop\n          jump\t// out\n            /* \"Solidity/Hardhat/my-hardhat-project/contracts/RecordFactory.sol\":1265:1910  contract AddressRecord is Record {... */\n        tag_8:\n          dataSize(sub_0)\n          dup1\n          dataOffset(sub_0)\n          0x00\n          codecopy\n          0x00\n          return\n        stop\n\n        sub_0: assembly {\n                /* \"Solidity/Hardhat/my-hardhat-project/contracts/RecordFactory.sol\":1265:1910  contract AddressRecord is Record {... */\n              mstore(0x40, 0x80)\n              callvalue\n              dup1\n              iszero\n              tag_1\n              jumpi\n              0x00\n              dup1\n              revert\n            tag_1:\n              pop\n              jumpi(tag_2, lt(calldatasize, 0x04))\n              shr(0xe0, calldataload(0x00))\n              dup1\n              0x0781f5c9\n              eq\n              tag_3\n              jumpi\n              dup1\n              0x1dcd69ec\n              eq\n              tag_4\n              jumpi\n              dup1\n              0x266cf109\n              eq\n              tag_5\n              jumpi\n              dup1\n              0xc37787d9\n              eq\n              tag_6\n              jumpi\n            tag_2:\n              0x00\n              dup1\n              revert\n                /* \"Solidity/Hardhat/my-hardhat-project/contracts/RecordFactory.sol\":1667:1772  function getRecordType() public pure override returns (string memory) {... */\n            tag_3:\n              tag_7\n              tag_8\n              jump\t// in\n            tag_7:\n              mload(0x40)\n              tag_9\n              swap2\n              swap1\n              tag_10\n              jump\t// in\n            tag_9:\n              mload(0x40)\n              dup1\n              swap2\n              sub\n              swap1\n              return\n                /* \"Solidity/Hardhat/my-hardhat-project/contracts/RecordFactory.sol\":94:123  uint256 public timeOfCreation */\n            tag_4:\n              tag_11\n              tag_12\n              jump\t// in\n            tag_11:\n              mload(0x40)\n              tag_13\n              swap2\n              swap1\n              tag_14\n              jump\t// in\n            tag_13:\n              mload(0x40)\n              dup1\n              swap2\n              sub\n              swap1\n              return\n                /* \"Solidity/Hardhat/my-hardhat-project/contracts/RecordFactory.sol\":1305:1326  address public record */\n            tag_5:\n              tag_15\n              tag_16\n              jump\t// in\n            tag_15:\n              mload(0x40)\n              tag_17\n              swap2\n              swap1\n              tag_18\n              jump\t// in\n            tag_17:\n              mload(0x40)\n              dup1\n              swap2\n              sub\n              swap1\n              return\n                /* \"Solidity/Hardhat/my-hardhat-project/contracts/RecordFactory.sol\":1825:1907  function setRecord(address newRecord) public {... */\n            tag_6:\n              tag_19\n              0x04\n              dup1\n              calldatasize\n              sub\n              dup2\n              add\n              swap1\n              tag_20\n              swap2\n              swap1\n              tag_21\n              jump\t// in\n            tag_20:\n              tag_22\n              jump\t// in\n            tag_19:\n              stop\n                /* \"Solidity/Hardhat/my-hardhat-project/contracts/RecordFactory.sol\":1667:1772  function getRecordType() public pure override returns (string memory) {... */\n            tag_8:\n                /* \"Solidity/Hardhat/my-hardhat-project/contracts/RecordFactory.sol\":1722:1735  string memory */\n              0x60\n                /* \"Solidity/Hardhat/my-hardhat-project/contracts/RecordFactory.sol\":1748:1764  return \"address\" */\n              mload(0x40)\n              dup1\n              0x40\n              add\n              0x40\n              mstore\n              dup1\n              0x07\n              dup2\n              mstore\n              0x20\n              add\n              0x6164647265737300000000000000000000000000000000000000000000000000\n              dup2\n              mstore\n              pop\n              swap1\n              pop\n                /* \"Solidity/Hardhat/my-hardhat-project/contracts/RecordFactory.sol\":1667:1772  function getRecordType() public pure override returns (string memory) {... */\n              swap1\n              jump\t// out\n                /* \"Solidity/Hardhat/my-hardhat-project/contracts/RecordFactory.sol\":94:123  uint256 public timeOfCreation */\n            tag_12:\n              sload(0x00)\n              dup2\n              jump\t// out\n                /* \"Solidity/Hardhat/my-hardhat-project/contracts/RecordFactory.sol\":1305:1326  address public record */\n            tag_16:\n              0x01\n              0x00\n              swap1\n              sload\n              swap1\n              0x0100\n              exp\n              swap1\n              div\n              0xffffffffffffffffffffffffffffffffffffffff\n              and\n              dup2\n              jump\t// out\n                /* \"Solidity/Hardhat/my-hardhat-project/contracts/RecordFactory.sol\":1825:1907  function setRecord(address newRecord) public {... */\n            tag_22:\n                /* \"Solidity/Hardhat/my-hardhat-project/contracts/RecordFactory.sol\":1890:1899  newRecord */\n              dup1\n                /* \"Solidity/Hardhat/my-hardhat-project/contracts/RecordFactory.sol\":1881:1887  record */\n              0x01\n              0x00\n                /* \"Solidity/Hardhat/my-hardhat-project/contracts/RecordFactory.sol\":1881:1899  record = newRecord */\n              0x0100\n              exp\n              dup2\n              sload\n              dup2\n              0xffffffffffffffffffffffffffffffffffffffff\n              mul\n              not\n              and\n              swap1\n              dup4\n              0xffffffffffffffffffffffffffffffffffffffff\n              and\n              mul\n              or\n              swap1\n              sstore\n              pop\n                /* \"Solidity/Hardhat/my-hardhat-project/contracts/RecordFactory.sol\":1825:1907  function setRecord(address newRecord) public {... */\n              pop\n              jump\t// out\n                /* \"#utility.yul\":7:106   */\n            tag_25:\n                /* \"#utility.yul\":59:65   */\n              0x00\n                /* \"#utility.yul\":93:98   */\n              dup2\n                /* \"#utility.yul\":87:99   */\n              mload\n                /* \"#utility.yul\":77:99   */\n              swap1\n              pop\n                /* \"#utility.yul\":7:106   */\n              swap2\n              swap1\n              pop\n              jump\t// out\n                /* \"#utility.yul\":112:281   */\n            tag_26:\n                /* \"#utility.yul\":196:207   */\n              0x00\n                /* \"#utility.yul\":230:236   */\n              dup3\n                /* \"#utility.yul\":225:228   */\n              dup3\n                /* \"#utility.yul\":218:237   */\n              mstore\n                /* \"#utility.yul\":270:274   */\n              0x20\n                /* \"#utility.yul\":265:268   */\n              dup3\n                /* \"#utility.yul\":261:275   */\n              add\n                /* \"#utility.yul\":246:275   */\n              swap1\n              pop\n                /* \"#utility.yul\":112:281   */\n              swap3\n              swap2\n              pop\n              pop\n              jump\t// out\n                /* \"#utility.yul\":287:533   */\n            tag_27:\n                /* \"#utility.yul\":368:369   */\n              0x00\n                /* \"#utility.yul\":378:491   */\n            tag_44:\n                /* \"#utility.yul\":392:398   */\n              dup4\n                /* \"#utility.yul\":389:390   */\n              dup2\n                /* \"#utility.yul\":386:399   */\n              lt\n                /* \"#utility.yul\":378:491   */\n              iszero\n              tag_46\n              jumpi\n                /* \"#utility.yul\":477:478   */\n              dup1\n                /* \"#utility.yul\":472:475   */\n              dup3\n                /* \"#utility.yul\":468:479   */\n              add\n                /* \"#utility.yul\":462:480   */\n              mload\n                /* \"#utility.yul\":458:459   */\n              dup2\n                /* \"#utility.yul\":453:456   */\n              dup5\n                /* \"#utility.yul\":449:460   */\n              add\n                /* \"#utility.yul\":442:481   */\n              mstore\n                /* \"#utility.yul\":414:416   */\n              0x20\n                /* \"#utility.yul\":411:412   */\n              dup2\n                /* \"#utility.yul\":407:417   */\n              add\n                /* \"#utility.yul\":402:417   */\n              swap1\n              pop\n                /* \"#utility.yul\":378:491   */\n              jump(tag_44)\n            tag_46:\n                /* \"#utility.yul\":525:526   */\n              0x00\n                /* \"#utility.yul\":516:522   */\n              dup5\n                /* \"#utility.yul\":511:514   */\n              dup5\n                /* \"#utility.yul\":507:523   */\n              add\n                /* \"#utility.yul\":500:527   */\n              mstore\n                /* \"#utility.yul\":349:533   */\n              pop\n                /* \"#utility.yul\":287:533   */\n              pop\n              pop\n              pop\n              jump\t// out\n                /* \"#utility.yul\":539:641   */\n            tag_28:\n                /* \"#utility.yul\":580:586   */\n              0x00\n                /* \"#utility.yul\":631:633   */\n              0x1f\n                /* \"#utility.yul\":627:634   */\n              not\n                /* \"#utility.yul\":622:624   */\n              0x1f\n                /* \"#utility.yul\":615:620   */\n              dup4\n                /* \"#utility.yul\":611:625   */\n              add\n                /* \"#utility.yul\":607:635   */\n              and\n                /* \"#utility.yul\":597:635   */\n              swap1\n              pop\n                /* \"#utility.yul\":539:641   */\n              swap2\n              swap1\n              pop\n              jump\t// out\n                /* \"#utility.yul\":647:1024   */\n            tag_29:\n                /* \"#utility.yul\":735:738   */\n              0x00\n                /* \"#utility.yul\":763:802   */\n              tag_49\n                /* \"#utility.yul\":796:801   */\n              dup3\n                /* \"#utility.yul\":763:802   */\n              tag_25\n              jump\t// in\n            tag_49:\n                /* \"#utility.yul\":818:889   */\n              tag_50\n                /* \"#utility.yul\":882:888   */\n              dup2\n                /* \"#utility.yul\":877:880   */\n              dup6\n                /* \"#utility.yul\":818:889   */\n              tag_26\n              jump\t// in\n            tag_50:\n                /* \"#utility.yul\":811:889   */\n              swap4\n              pop\n                /* \"#utility.yul\":898:963   */\n              tag_51\n                /* \"#utility.yul\":956:962   */\n              dup2\n                /* \"#utility.yul\":951:954   */\n              dup6\n                /* \"#utility.yul\":944:948   */\n              0x20\n                /* \"#utility.yul\":937:942   */\n              dup7\n                /* \"#utility.yul\":933:949   */\n              add\n                /* \"#utility.yul\":898:963   */\n              tag_27\n              jump\t// in\n            tag_51:\n                /* \"#utility.yul\":988:1017   */\n              tag_52\n                /* \"#utility.yul\":1010:1016   */\n              dup2\n                /* \"#utility.yul\":988:1017   */\n              tag_28\n              jump\t// in\n            tag_52:\n                /* \"#utility.yul\":983:986   */\n              dup5\n                /* \"#utility.yul\":979:1018   */\n              add\n                /* \"#utility.yul\":972:1018   */\n              swap2\n              pop\n                /* \"#utility.yul\":739:1024   */\n              pop\n                /* \"#utility.yul\":647:1024   */\n              swap3\n              swap2\n              pop\n              pop\n              jump\t// out\n                /* \"#utility.yul\":1030:1343   */\n            tag_10:\n                /* \"#utility.yul\":1143:1147   */\n              0x00\n                /* \"#utility.yul\":1181:1183   */\n              0x20\n                /* \"#utility.yul\":1170:1179   */\n              dup3\n                /* \"#utility.yul\":1166:1184   */\n              add\n                /* \"#utility.yul\":1158:1184   */\n              swap1\n              pop\n                /* \"#utility.yul\":1230:1239   */\n              dup2\n                /* \"#utility.yul\":1224:1228   */\n              dup2\n                /* \"#utility.yul\":1220:1240   */\n              sub\n                /* \"#utility.yul\":1216:1217   */\n              0x00\n                /* \"#utility.yul\":1205:1214   */\n              dup4\n                /* \"#utility.yul\":1201:1218   */\n              add\n                /* \"#utility.yul\":1194:1241   */\n              mstore\n                /* \"#utility.yul\":1258:1336   */\n              tag_54\n                /* \"#utility.yul\":1331:1335   */\n              dup2\n                /* \"#utility.yul\":1322:1328   */\n              dup5\n                /* \"#utility.yul\":1258:1336   */\n              tag_29\n              jump\t// in\n            tag_54:\n                /* \"#utility.yul\":1250:1336   */\n              swap1\n              pop\n                /* \"#utility.yul\":1030:1343   */\n              swap3\n              swap2\n              pop\n              pop\n              jump\t// out\n                /* \"#utility.yul\":1349:1426   */\n            tag_30:\n                /* \"#utility.yul\":1386:1393   */\n              0x00\n                /* \"#utility.yul\":1415:1420   */\n              dup2\n                /* \"#utility.yul\":1404:1420   */\n              swap1\n              pop\n                /* \"#utility.yul\":1349:1426   */\n              swap2\n              swap1\n              pop\n              jump\t// out\n                /* \"#utility.yul\":1432:1550   */\n            tag_31:\n                /* \"#utility.yul\":1519:1543   */\n              tag_57\n                /* \"#utility.yul\":1537:1542   */\n              dup2\n                /* \"#utility.yul\":1519:1543   */\n              tag_30\n              jump\t// in\n            tag_57:\n                /* \"#utility.yul\":1514:1517   */\n              dup3\n                /* \"#utility.yul\":1507:1544   */\n              mstore\n                /* \"#utility.yul\":1432:1550   */\n              pop\n              pop\n              jump\t// out\n                /* \"#utility.yul\":1556:1778   */\n            tag_14:\n                /* \"#utility.yul\":1649:1653   */\n              0x00\n                /* \"#utility.yul\":1687:1689   */\n              0x20\n                /* \"#utility.yul\":1676:1685   */\n              dup3\n                /* \"#utility.yul\":1672:1690   */\n              add\n                /* \"#utility.yul\":1664:1690   */\n              swap1\n              pop\n                /* \"#utility.yul\":1700:1771   */\n              tag_59\n                /* \"#utility.yul\":1768:1769   */\n              0x00\n                /* \"#utility.yul\":1757:1766   */\n              dup4\n                /* \"#utility.yul\":1753:1770   */\n              add\n                /* \"#utility.yul\":1744:1750   */\n              dup5\n                /* \"#utility.yul\":1700:1771   */\n              tag_31\n              jump\t// in\n            tag_59:\n                /* \"#utility.yul\":1556:1778   */\n              swap3\n              swap2\n              pop\n              pop\n              jump\t// out\n                /* \"#utility.yul\":1784:1910   */\n            tag_32:\n                /* \"#utility.yul\":1821:1828   */\n              0x00\n                /* \"#utility.yul\":1861:1903   */\n              0xffffffffffffffffffffffffffffffffffffffff\n                /* \"#utility.yul\":1854:1859   */\n              dup3\n                /* \"#utility.yul\":1850:1904   */\n              and\n                /* \"#utility.yul\":1839:1904   */\n              swap1\n              pop\n                /* \"#utility.yul\":1784:1910   */\n              swap2\n              swap1\n              pop\n              jump\t// out\n                /* \"#utility.yul\":1916:2012   */\n            tag_33:\n                /* \"#utility.yul\":1953:1960   */\n              0x00\n                /* \"#utility.yul\":1982:2006   */\n              tag_62\n                /* \"#utility.yul\":2000:2005   */\n              dup3\n                /* \"#utility.yul\":1982:2006   */\n              tag_32\n              jump\t// in\n            tag_62:\n                /* \"#utility.yul\":1971:2006   */\n              swap1\n              pop\n                /* \"#utility.yul\":1916:2012   */\n              swap2\n              swap1\n              pop\n              jump\t// out\n                /* \"#utility.yul\":2018:2136   */\n            tag_34:\n                /* \"#utility.yul\":2105:2129   */\n              tag_64\n                /* \"#utility.yul\":2123:2128   */\n              dup2\n                /* \"#utility.yul\":2105:2129   */\n              tag_33\n              jump\t// in\n            tag_64:\n                /* \"#utility.yul\":2100:2103   */\n              dup3\n                /* \"#utility.yul\":2093:2130   */\n              mstore\n                /* \"#utility.yul\":2018:2136   */\n              pop\n              pop\n              jump\t// out\n                /* \"#utility.yul\":2142:2364   */\n            tag_18:\n                /* \"#utility.yul\":2235:2239   */\n              0x00\n                /* \"#utility.yul\":2273:2275   */\n              0x20\n                /* \"#utility.yul\":2262:2271   */\n              dup3\n                /* \"#utility.yul\":2258:2276   */\n              add\n                /* \"#utility.yul\":2250:2276   */\n              swap1\n              pop\n                /* \"#utility.yul\":2286:2357   */\n              tag_66\n                /* \"#utility.yul\":2354:2355   */\n              0x00\n                /* \"#utility.yul\":2343:2352   */\n              dup4\n                /* \"#utility.yul\":2339:2356   */\n              add\n                /* \"#utility.yul\":2330:2336   */\n              dup5\n                /* \"#utility.yul\":2286:2357   */\n              tag_34\n              jump\t// in\n            tag_66:\n                /* \"#utility.yul\":2142:2364   */\n              swap3\n              swap2\n              pop\n              pop\n              jump\t// out\n                /* \"#utility.yul\":2451:2568   */\n            tag_36:\n                /* \"#utility.yul\":2560:2561   */\n              0x00\n                /* \"#utility.yul\":2557:2558   */\n              dup1\n                /* \"#utility.yul\":2550:2562   */\n              revert\n                /* \"#utility.yul\":2697:2819   */\n            tag_38:\n                /* \"#utility.yul\":2770:2794   */\n              tag_71\n                /* \"#utility.yul\":2788:2793   */\n              dup2\n                /* \"#utility.yul\":2770:2794   */\n              tag_33\n              jump\t// in\n            tag_71:\n                /* \"#utility.yul\":2763:2768   */\n              dup2\n                /* \"#utility.yul\":2760:2795   */\n              eq\n                /* \"#utility.yul\":2750:2813   */\n              tag_72\n              jumpi\n                /* \"#utility.yul\":2809:2810   */\n              0x00\n                /* \"#utility.yul\":2806:2807   */\n              dup1\n                /* \"#utility.yul\":2799:2811   */\n              revert\n                /* \"#utility.yul\":2750:2813   */\n            tag_72:\n                /* \"#utility.yul\":2697:2819   */\n              pop\n              jump\t// out\n                /* \"#utility.yul\":2825:2964   */\n            tag_39:\n                /* \"#utility.yul\":2871:2876   */\n              0x00\n                /* \"#utility.yul\":2909:2915   */\n              dup2\n                /* \"#utility.yul\":2896:2916   */\n              calldataload\n                /* \"#utility.yul\":2887:2916   */\n              swap1\n              pop\n                /* \"#utility.yul\":2925:2958   */\n              tag_74\n                /* \"#utility.yul\":2952:2957   */\n              dup2\n                /* \"#utility.yul\":2925:2958   */\n              tag_38\n              jump\t// in\n            tag_74:\n                /* \"#utility.yul\":2825:2964   */\n              swap3\n              swap2\n              pop\n              pop\n              jump\t// out\n                /* \"#utility.yul\":2970:3299   */\n            tag_21:\n                /* \"#utility.yul\":3029:3035   */\n              0x00\n                /* \"#utility.yul\":3078:3080   */\n              0x20\n                /* \"#utility.yul\":3066:3075   */\n              dup3\n                /* \"#utility.yul\":3057:3064   */\n              dup5\n                /* \"#utility.yul\":3053:3076   */\n              sub\n                /* \"#utility.yul\":3049:3081   */\n              slt\n                /* \"#utility.yul\":3046:3165   */\n              iszero\n              tag_76\n              jumpi\n                /* \"#utility.yul\":3084:3163   */\n              tag_77\n              tag_36\n              jump\t// in\n            tag_77:\n                /* \"#utility.yul\":3046:3165   */\n            tag_76:\n                /* \"#utility.yul\":3204:3205   */\n              0x00\n                /* \"#utility.yul\":3229:3282   */\n              tag_78\n                /* \"#utility.yul\":3274:3281   */\n              dup5\n                /* \"#utility.yul\":3265:3271   */\n              dup3\n                /* \"#utility.yul\":3254:3263   */\n              dup6\n                /* \"#utility.yul\":3250:3272   */\n              add\n                /* \"#utility.yul\":3229:3282   */\n              tag_39\n              jump\t// in\n            tag_78:\n                /* \"#utility.yul\":3219:3282   */\n              swap2\n              pop\n                /* \"#utility.yul\":3175:3292   */\n              pop\n                /* \"#utility.yul\":2970:3299   */\n              swap3\n              swap2\n              pop\n              pop\n              jump\t// out\n\n            auxdata: 0xa2646970667358221220474c132c1f908da689632d8bfcffda56e196f39bdd830530268710998d5eda4e64736f6c63430008160033\n        }\n    }\n\n    auxdata: 0xa26469706673582212201cfb7043425c3885567dfdab61eaebe18f7277b40ea8a93bd6ed10d1c31b275464736f6c63430008160033\n}\n",
				"bytecode": {
					"linkReferences": {},
					"object": "608060405234801561000f575f80fd5b506120be8061001d5f395ff3fe608060405234801562000010575f80fd5b50600436106200005c575f3560e01c8063344610671462000060578063505158bb14620000985780637bcd7fad14620000ba578063953d7e0c14620000f2578063d05ce1191462000112575b5f80fd5b6200007e600480360381019062000078919062000719565b62000132565b6040516200008f9392919062000831565b60405180910390f35b620000a262000214565b604051620000b1919062000873565b60405180910390f35b620000d86004803603810190620000d2919062000719565b6200021f565b604051620000e99392919062000831565b60405180910390f35b6200011060048036038101906200010a9190620009d6565b620003ae565b005b6200013060048036038101906200012a919062000a54565b62000531565b005b5f818154811062000141575f80fd5b905f5260205f2090600302015f91509050805f015490806001015f9054906101000a900473ffffffffffffffffffffffffffffffffffffffff16908060020180546200018d9062000ab1565b80601f0160208091040260200160405190810160405280929190818152602001828054620001bb9062000ab1565b80156200020a5780601f10620001e0576101008083540402835291602001916200020a565b820191905f5260205f20905b815481529060010190602001808311620001ec57829003601f168201915b5050505050905083565b5f8080549050905090565b5f8060605f8054905084106200026c576040517f08c379a0000000000000000000000000000000000000000000000000000000008152600401620002639062000b33565b60405180910390fd5b5f80858154811062000283576200028262000b53565b5b905f5260205f2090600302016040518060600160405290815f8201548152602001600182015f9054906101000a900473ffffffffffffffffffffffffffffffffffffffff1673ffffffffffffffffffffffffffffffffffffffff1673ffffffffffffffffffffffffffffffffffffffff1681526020016002820180546200030a9062000ab1565b80601f0160208091040260200160405190810160405280929190818152602001828054620003389062000ab1565b8015620003875780601f106200035d5761010080835404028352916020019162000387565b820191905f5260205f20905b8154815290600101906020018083116200036957829003601f168201915b5050505050815250509050805f015181602001518260400151935093509350509193909250565b5f4282604051620003bf90620006b4565b620003cc92919062000b80565b604051809103905ff080158015620003e6573d5f803e3d5ffd5b5090505f60405180606001604052804281526020018373ffffffffffffffffffffffffffffffffffffffff1681526020016040518060400160405280600681526020017f737472696e670000000000000000000000000000000000000000000000000000815250815250908060018154018082558091505060019003905f5260205f2090600302015f909190919091505f820151815f01556020820151816001015f6101000a81548173ffffffffffffffffffffffffffffffffffffffff021916908373ffffffffffffffffffffffffffffffffffffffff1602179055506040820151816002019081620004db919062000d75565b5050508073ffffffffffffffffffffffffffffffffffffffff16427f4f1eea90beb2ccd16be5b37fc1e1272af00b7e01520eff654685171f4bab636a604051620005259062000ea7565b60405180910390a35050565b5f42826040516200054290620006c2565b6200054f92919062000ec7565b604051809103905ff08015801562000569573d5f803e3d5ffd5b5090505f60405180606001604052804281526020018373ffffffffffffffffffffffffffffffffffffffff1681526020016040518060400160405280600781526020017f6164647265737300000000000000000000000000000000000000000000000000815250815250908060018154018082558091505060019003905f5260205f2090600302015f909190919091505f820151815f01556020820151816001015f6101000a81548173ffffffffffffffffffffffffffffffffffffffff021916908373ffffffffffffffffffffffffffffffffffffffff16021790555060408201518160020190816200065e919062000d75565b5050508073ffffffffffffffffffffffffffffffffffffffff16427f4f1eea90beb2ccd16be5b37fc1e1272af00b7e01520eff654685171f4bab636a604051620006a89062000f40565b60405180910390a35050565b610c9c8062000f6183390190565b61048c8062001bfd83390190565b5f604051905090565b5f80fd5b5f80fd5b5f819050919050565b620006f581620006e1565b811462000700575f80fd5b50565b5f813590506200071381620006ea565b92915050565b5f60208284031215620007315762000730620006d9565b5b5f620007408482850162000703565b91505092915050565b6200075481620006e1565b82525050565b5f73ffffffffffffffffffffffffffffffffffffffff82169050919050565b5f62000785826200075a565b9050919050565b620007978162000779565b82525050565b5f81519050919050565b5f82825260208201905092915050565b5f5b83811015620007d6578082015181840152602081019050620007b9565b5f8484015250505050565b5f601f19601f8301169050919050565b5f620007fd826200079d565b620008098185620007a7565b93506200081b818560208601620007b7565b6200082681620007e1565b840191505092915050565b5f606082019050620008465f83018662000749565b6200085560208301856200078c565b8181036040830152620008698184620007f1565b9050949350505050565b5f602082019050620008885f83018462000749565b92915050565b5f80fd5b5f80fd5b7f4e487b71000000000000000000000000000000000000000000000000000000005f52604160045260245ffd5b620008ce82620007e1565b810181811067ffffffffffffffff82111715620008f057620008ef62000896565b5b80604052505050565b5f62000904620006d0565b9050620009128282620008c3565b919050565b5f67ffffffffffffffff82111562000934576200093362000896565b5b6200093f82620007e1565b9050602081019050919050565b828183375f83830152505050565b5f620009706200096a8462000917565b620008f9565b9050828152602081018484840111156200098f576200098e62000892565b5b6200099c8482856200094c565b509392505050565b5f82601f830112620009bb57620009ba6200088e565b5b8135620009cd8482602086016200095a565b91505092915050565b5f60208284031215620009ee57620009ed620006d9565b5b5f82013567ffffffffffffffff81111562000a0e5762000a0d620006dd565b5b62000a1c84828501620009a4565b91505092915050565b62000a308162000779565b811462000a3b575f80fd5b50565b5f8135905062000a4e8162000a25565b92915050565b5f6020828403121562000a6c5762000a6b620006d9565b5b5f62000a7b8482850162000a3e565b91505092915050565b7f4e487b71000000000000000000000000000000000000000000000000000000005f52602260045260245ffd5b5f600282049050600182168062000ac957607f821691505b60208210810362000adf5762000ade62000a84565b5b50919050565b7f496e646578206f7574206f6620626f756e6473000000000000000000000000005f82015250565b5f62000b1b601383620007a7565b915062000b288262000ae5565b602082019050919050565b5f6020820190508181035f83015262000b4c8162000b0d565b9050919050565b7f4e487b71000000000000000000000000000000000000000000000000000000005f52603260045260245ffd5b5f60408201905062000b955f83018562000749565b818103602083015262000ba98184620007f1565b90509392505050565b5f819050815f5260205f209050919050565b5f6020601f8301049050919050565b5f82821b905092915050565b5f6008830262000c107fffffffffffffffffffffffffffffffffffffffffffffffffffffffffffffffff8262000bd3565b62000c1c868362000bd3565b95508019841693508086168417925050509392505050565b5f819050919050565b5f62000c5d62000c5762000c5184620006e1565b62000c34565b620006e1565b9050919050565b5f819050919050565b62000c788362000c3d565b62000c9062000c878262000c64565b84845462000bdf565b825550505050565b5f90565b62000ca662000c98565b62000cb381848462000c6d565b505050565b5b8181101562000cda5762000cce5f8262000c9c565b60018101905062000cb9565b5050565b601f82111562000d295762000cf38162000bb2565b62000cfe8462000bc4565b8101602085101562000d0e578190505b62000d2662000d1d8562000bc4565b83018262000cb8565b50505b505050565b5f82821c905092915050565b5f62000d4b5f198460080262000d2e565b1980831691505092915050565b5f62000d65838362000d3a565b9150826002028217905092915050565b62000d80826200079d565b67ffffffffffffffff81111562000d9c5762000d9b62000896565b5b62000da8825462000ab1565b62000db582828562000cde565b5f60209050601f83116001811462000deb575f841562000dd6578287015190505b62000de2858262000d58565b86555062000e51565b601f19841662000dfb8662000bb2565b5f5b8281101562000e245784890151825560018201915060208501945060208101905062000dfd565b8683101562000e44578489015162000e40601f89168262000d3a565b8355505b6001600288020188555050505b505050505050565b7f737472696e6700000000000000000000000000000000000000000000000000005f82015250565b5f62000e8f600683620007a7565b915062000e9c8262000e59565b602082019050919050565b5f6020820190508181035f83015262000ec08162000e81565b9050919050565b5f60408201905062000edc5f83018562000749565b62000eeb60208301846200078c565b9392505050565b7f61646472657373000000000000000000000000000000000000000000000000005f82015250565b5f62000f28600783620007a7565b915062000f358262000ef2565b602082019050919050565b5f6020820190508181035f83015262000f598162000f1a565b905091905056fe608060405234801562000010575f80fd5b5060405162000c9c38038062000c9c833981810160405281019062000036919062000215565b81805f819055505080600190816200004f9190620004a7565b5050506200058b565b5f604051905090565b5f80fd5b5f80fd5b5f819050919050565b6200007d8162000069565b811462000088575f80fd5b50565b5f815190506200009b8162000072565b92915050565b5f80fd5b5f80fd5b5f601f19601f8301169050919050565b7f4e487b71000000000000000000000000000000000000000000000000000000005f52604160045260245ffd5b620000f182620000a9565b810181811067ffffffffffffffff82111715620001135762000112620000b9565b5b80604052505050565b5f6200012762000058565b9050620001358282620000e6565b919050565b5f67ffffffffffffffff821115620001575762000156620000b9565b5b6200016282620000a9565b9050602081019050919050565b5f5b838110156200018e57808201518184015260208101905062000171565b5f8484015250505050565b5f620001af620001a9846200013a565b6200011c565b905082815260208101848484011115620001ce57620001cd620000a5565b5b620001db8482856200016f565b509392505050565b5f82601f830112620001fa57620001f9620000a1565b5b81516200020c84826020860162000199565b91505092915050565b5f80604083850312156200022e576200022d62000061565b5b5f6200023d858286016200008b565b925050602083015167ffffffffffffffff81111562000261576200026062000065565b5b6200026f85828601620001e3565b9150509250929050565b5f81519050919050565b7f4e487b71000000000000000000000000000000000000000000000000000000005f52602260045260245ffd5b5f6002820490506001821680620002c857607f821691505b602082108103620002de57620002dd62000283565b5b50919050565b5f819050815f5260205f209050919050565b5f6020601f8301049050919050565b5f82821b905092915050565b5f60088302620003427fffffffffffffffffffffffffffffffffffffffffffffffffffffffffffffffff8262000305565b6200034e868362000305565b95508019841693508086168417925050509392505050565b5f819050919050565b5f6200038f62000389620003838462000069565b62000366565b62000069565b9050919050565b5f819050919050565b620003aa836200036f565b620003c2620003b98262000396565b84845462000311565b825550505050565b5f90565b620003d8620003ca565b620003e58184846200039f565b505050565b5b818110156200040c57620004005f82620003ce565b600181019050620003eb565b5050565b601f8211156200045b576200042581620002e4565b6200043084620002f6565b8101602085101562000440578190505b620004586200044f85620002f6565b830182620003ea565b50505b505050565b5f82821c905092915050565b5f6200047d5f198460080262000460565b1980831691505092915050565b5f6200049783836200046c565b9150826002028217905092915050565b620004b28262000279565b67ffffffffffffffff811115620004ce57620004cd620000b9565b5b620004da8254620002b0565b620004e782828562000410565b5f60209050601f8311600181146200051d575f841562000508578287015190505b6200051485826200048a565b86555062000583565b601f1984166200052d86620002e4565b5f5b8281101562000556578489015182556001820191506020850194506020810190506200052f565b8683101562000576578489015162000572601f8916826200046c565b8355505b6001600288020188555050505b505050505050565b61070380620005995f395ff3fe608060405234801561000f575f80fd5b506004361061004a575f3560e01c80630781f5c91461004e5780631dcd69ec1461006c578063266cf1091461008a5780633e0a0099146100a8575b5f80fd5b6100566100c4565b604051610063919061022f565b60405180910390f35b610074610101565b6040516100819190610267565b60405180910390f35b610092610106565b60405161009f919061022f565b60405180910390f35b6100c260048036038101906100bd91906103bd565b610192565b005b60606040518060400160405280600681526020017f737472696e670000000000000000000000000000000000000000000000000000815250905090565b5f5481565b6001805461011390610431565b80601f016020809104026020016040519081016040528092919081815260200182805461013f90610431565b801561018a5780601f106101615761010080835404028352916020019161018a565b820191905f5260205f20905b81548152906001019060200180831161016d57829003601f168201915b505050505081565b80600190816101a191906105fe565b5050565b5f81519050919050565b5f82825260208201905092915050565b5f5b838110156101dc5780820151818401526020810190506101c1565b5f8484015250505050565b5f601f19601f8301169050919050565b5f610201826101a5565b61020b81856101af565b935061021b8185602086016101bf565b610224816101e7565b840191505092915050565b5f6020820190508181035f83015261024781846101f7565b905092915050565b5f819050919050565b6102618161024f565b82525050565b5f60208201905061027a5f830184610258565b92915050565b5f604051905090565b5f80fd5b5f80fd5b5f80fd5b5f80fd5b7f4e487b71000000000000000000000000000000000000000000000000000000005f52604160045260245ffd5b6102cf826101e7565b810181811067ffffffffffffffff821117156102ee576102ed610299565b5b80604052505050565b5f610300610280565b905061030c82826102c6565b919050565b5f67ffffffffffffffff82111561032b5761032a610299565b5b610334826101e7565b9050602081019050919050565b828183375f83830152505050565b5f61036161035c84610311565b6102f7565b90508281526020810184848401111561037d5761037c610295565b5b610388848285610341565b509392505050565b5f82601f8301126103a4576103a3610291565b5b81356103b484826020860161034f565b91505092915050565b5f602082840312156103d2576103d1610289565b5b5f82013567ffffffffffffffff8111156103ef576103ee61028d565b5b6103fb84828501610390565b91505092915050565b7f4e487b71000000000000000000000000000000000000000000000000000000005f52602260045260245ffd5b5f600282049050600182168061044857607f821691505b60208210810361045b5761045a610404565b5b50919050565b5f819050815f5260205f209050919050565b5f6020601f8301049050919050565b5f82821b905092915050565b5f600883026104bd7fffffffffffffffffffffffffffffffffffffffffffffffffffffffffffffffff82610482565b6104c78683610482565b95508019841693508086168417925050509392505050565b5f819050919050565b5f6105026104fd6104f88461024f565b6104df565b61024f565b9050919050565b5f819050919050565b61051b836104e8565b61052f61052782610509565b84845461048e565b825550505050565b5f90565b610543610537565b61054e818484610512565b505050565b5b81811015610571576105665f8261053b565b600181019050610554565b5050565b601f8211156105b65761058781610461565b61059084610473565b8101602085101561059f578190505b6105b36105ab85610473565b830182610553565b50505b505050565b5f82821c905092915050565b5f6105d65f19846008026105bb565b1980831691505092915050565b5f6105ee83836105c7565b9150826002028217905092915050565b610607826101a5565b67ffffffffffffffff8111156106205761061f610299565b5b61062a8254610431565b610635828285610575565b5f60209050601f831160018114610666575f8415610654578287015190505b61065e85826105e3565b8655506106c5565b601f19841661067486610461565b5f5b8281101561069b57848901518255600182019150602085019450602081019050610676565b868310156106b857848901516106b4601f8916826105c7565b8355505b6001600288020188555050505b50505050505056fea264697066735822122017aee882c6e2b6cf8ce01d7cf6530a527ba278b97cef6aa88971527c65cdac6964736f6c63430008160033608060405234801561000f575f80fd5b5060405161048c38038061048c83398181016040528101906100319190610111565b81805f81905550508060015f6101000a81548173ffffffffffffffffffffffffffffffffffffffff021916908373ffffffffffffffffffffffffffffffffffffffff160217905550505061014f565b5f80fd5b5f819050919050565b61009681610084565b81146100a0575f80fd5b50565b5f815190506100b18161008d565b92915050565b5f73ffffffffffffffffffffffffffffffffffffffff82169050919050565b5f6100e0826100b7565b9050919050565b6100f0816100d6565b81146100fa575f80fd5b50565b5f8151905061010b816100e7565b92915050565b5f806040838503121561012757610126610080565b5b5f610134858286016100a3565b9250506020610145858286016100fd565b9150509250929050565b6103308061015c5f395ff3fe608060405234801561000f575f80fd5b506004361061004a575f3560e01c80630781f5c91461004e5780631dcd69ec1461006c578063266cf1091461008a578063c37787d9146100a8575b5f80fd5b6100566100c4565b60405161006391906101f8565b60405180910390f35b610074610101565b6040516100819190610230565b60405180910390f35b610092610106565b60405161009f9190610288565b60405180910390f35b6100c260048036038101906100bd91906102cf565b61012b565b005b60606040518060400160405280600781526020017f6164647265737300000000000000000000000000000000000000000000000000815250905090565b5f5481565b60015f9054906101000a900473ffffffffffffffffffffffffffffffffffffffff1681565b8060015f6101000a81548173ffffffffffffffffffffffffffffffffffffffff021916908373ffffffffffffffffffffffffffffffffffffffff16021790555050565b5f81519050919050565b5f82825260208201905092915050565b5f5b838110156101a557808201518184015260208101905061018a565b5f8484015250505050565b5f601f19601f8301169050919050565b5f6101ca8261016e565b6101d48185610178565b93506101e4818560208601610188565b6101ed816101b0565b840191505092915050565b5f6020820190508181035f83015261021081846101c0565b905092915050565b5f819050919050565b61022a81610218565b82525050565b5f6020820190506102435f830184610221565b92915050565b5f73ffffffffffffffffffffffffffffffffffffffff82169050919050565b5f61027282610249565b9050919050565b61028281610268565b82525050565b5f60208201905061029b5f830184610279565b92915050565b5f80fd5b6102ae81610268565b81146102b8575f80fd5b50565b5f813590506102c9816102a5565b92915050565b5f602082840312156102e4576102e36102a1565b5b5f6102f1848285016102bb565b9150509291505056fea2646970667358221220474c132c1f908da689632d8bfcffda56e196f39bdd830530268710998d5eda4e64736f6c63430008160033a26469706673582212201cfb7043425c3885567dfdab61eaebe18f7277b40ea8a93bd6ed10d1c31b275464736f6c63430008160033",
					"opcodes": "PUSH1 0x80 PUSH1 0x40 MSTORE CALLVALUE DUP1 ISZERO PUSH2 0xF JUMPI PUSH0 DUP1 REVERT JUMPDEST POP PUSH2 0x20BE DUP1 PUSH2 0x1D PUSH0 CODECOPY PUSH0 RETURN INVALID PUSH1 0x80 PUSH1 0x40 MSTORE CALLVALUE DUP1 ISZERO PUSH3 0x10 JUMPI PUSH0 DUP1 REVERT JUMPDEST POP PUSH1 0x4 CALLDATASIZE LT PUSH3 0x5C JUMPI PUSH0 CALLDATALOAD PUSH1 0xE0 SHR DUP1 PUSH4 0x34461067 EQ PUSH3 0x60 JUMPI DUP1 PUSH4 0x505158BB EQ PUSH3 0x98 JUMPI DUP1 PUSH4 0x7BCD7FAD EQ PUSH3 0xBA JUMPI DUP1 PUSH4 0x953D7E0C EQ PUSH3 0xF2 JUMPI DUP1 PUSH4 0xD05CE119 EQ PUSH3 0x112 JUMPI JUMPDEST PUSH0 DUP1 REVERT JUMPDEST PUSH3 0x7E PUSH1 0x4 DUP1 CALLDATASIZE SUB DUP2 ADD SWAP1 PUSH3 0x78 SWAP2 SWAP1 PUSH3 0x719 JUMP JUMPDEST PUSH3 0x132 JUMP JUMPDEST PUSH1 0x40 MLOAD PUSH3 0x8F SWAP4 SWAP3 SWAP2 SWAP1 PUSH3 0x831 JUMP JUMPDEST PUSH1 0x40 MLOAD DUP1 SWAP2 SUB SWAP1 RETURN JUMPDEST PUSH3 0xA2 PUSH3 0x214 JUMP JUMPDEST PUSH1 0x40 MLOAD PUSH3 0xB1 SWAP2 SWAP1 PUSH3 0x873 JUMP JUMPDEST PUSH1 0x40 MLOAD DUP1 SWAP2 SUB SWAP1 RETURN JUMPDEST PUSH3 0xD8 PUSH1 0x4 DUP1 CALLDATASIZE SUB DUP2 ADD SWAP1 PUSH3 0xD2 SWAP2 SWAP1 PUSH3 0x719 JUMP JUMPDEST PUSH3 0x21F JUMP JUMPDEST PUSH1 0x40 MLOAD PUSH3 0xE9 SWAP4 SWAP3 SWAP2 SWAP1 PUSH3 0x831 JUMP JUMPDEST PUSH1 0x40 MLOAD DUP1 SWAP2 SUB SWAP1 RETURN JUMPDEST PUSH3 0x110 PUSH1 0x4 DUP1 CALLDATASIZE SUB DUP2 ADD SWAP1 PUSH3 0x10A SWAP2 SWAP1 PUSH3 0x9D6 JUMP JUMPDEST PUSH3 0x3AE JUMP JUMPDEST STOP JUMPDEST PUSH3 0x130 PUSH1 0x4 DUP1 CALLDATASIZE SUB DUP2 ADD SWAP1 PUSH3 0x12A SWAP2 SWAP1 PUSH3 0xA54 JUMP JUMPDEST PUSH3 0x531 JUMP JUMPDEST STOP JUMPDEST PUSH0 DUP2 DUP2 SLOAD DUP2 LT PUSH3 0x141 JUMPI PUSH0 DUP1 REVERT JUMPDEST SWAP1 PUSH0 MSTORE PUSH1 0x20 PUSH0 KECCAK256 SWAP1 PUSH1 0x3 MUL ADD PUSH0 SWAP2 POP SWAP1 POP DUP1 PUSH0 ADD SLOAD SWAP1 DUP1 PUSH1 0x1 ADD PUSH0 SWAP1 SLOAD SWAP1 PUSH2 0x100 EXP SWAP1 DIV PUSH20 0xFFFFFFFFFFFFFFFFFFFFFFFFFFFFFFFFFFFFFFFF AND SWAP1 DUP1 PUSH1 0x2 ADD DUP1 SLOAD PUSH3 0x18D SWAP1 PUSH3 0xAB1 JUMP JUMPDEST DUP1 PUSH1 0x1F ADD PUSH1 0x20 DUP1 SWAP2 DIV MUL PUSH1 0x20 ADD PUSH1 0x40 MLOAD SWAP1 DUP2 ADD PUSH1 0x40 MSTORE DUP1 SWAP3 SWAP2 SWAP1 DUP2 DUP2 MSTORE PUSH1 0x20 ADD DUP3 DUP1 SLOAD PUSH3 0x1BB SWAP1 PUSH3 0xAB1 JUMP JUMPDEST DUP1 ISZERO PUSH3 0x20A JUMPI DUP1 PUSH1 0x1F LT PUSH3 0x1E0 JUMPI PUSH2 0x100 DUP1 DUP4 SLOAD DIV MUL DUP4 MSTORE SWAP2 PUSH1 0x20 ADD SWAP2 PUSH3 0x20A JUMP JUMPDEST DUP3 ADD SWAP2 SWAP1 PUSH0 MSTORE PUSH1 0x20 PUSH0 KECCAK256 SWAP1 JUMPDEST DUP2 SLOAD DUP2 MSTORE SWAP1 PUSH1 0x1 ADD SWAP1 PUSH1 0x20 ADD DUP1 DUP4 GT PUSH3 0x1EC JUMPI DUP3 SWAP1 SUB PUSH1 0x1F AND DUP3 ADD SWAP2 JUMPDEST POP POP POP POP POP SWAP1 POP DUP4 JUMP JUMPDEST PUSH0 DUP1 DUP1 SLOAD SWAP1 POP SWAP1 POP SWAP1 JUMP JUMPDEST PUSH0 DUP1 PUSH1 0x60 PUSH0 DUP1 SLOAD SWAP1 POP DUP5 LT PUSH3 0x26C JUMPI PUSH1 0x40 MLOAD PUSH32 0x8C379A000000000000000000000000000000000000000000000000000000000 DUP2 MSTORE PUSH1 0x4 ADD PUSH3 0x263 SWAP1 PUSH3 0xB33 JUMP JUMPDEST PUSH1 0x40 MLOAD DUP1 SWAP2 SUB SWAP1 REVERT JUMPDEST PUSH0 DUP1 DUP6 DUP2 SLOAD DUP2 LT PUSH3 0x283 JUMPI PUSH3 0x282 PUSH3 0xB53 JUMP JUMPDEST JUMPDEST SWAP1 PUSH0 MSTORE PUSH1 0x20 PUSH0 KECCAK256 SWAP1 PUSH1 0x3 MUL ADD PUSH1 0x40 MLOAD DUP1 PUSH1 0x60 ADD PUSH1 0x40 MSTORE SWAP1 DUP2 PUSH0 DUP3 ADD SLOAD DUP2 MSTORE PUSH1 0x20 ADD PUSH1 0x1 DUP3 ADD PUSH0 SWAP1 SLOAD SWAP1 PUSH2 0x100 EXP SWAP1 DIV PUSH20 0xFFFFFFFFFFFFFFFFFFFFFFFFFFFFFFFFFFFFFFFF AND PUSH20 0xFFFFFFFFFFFFFFFFFFFFFFFFFFFFFFFFFFFFFFFF AND PUSH20 0xFFFFFFFFFFFFFFFFFFFFFFFFFFFFFFFFFFFFFFFF AND DUP2 MSTORE PUSH1 0x20 ADD PUSH1 0x2 DUP3 ADD DUP1 SLOAD PUSH3 0x30A SWAP1 PUSH3 0xAB1 JUMP JUMPDEST DUP1 PUSH1 0x1F ADD PUSH1 0x20 DUP1 SWAP2 DIV MUL PUSH1 0x20 ADD PUSH1 0x40 MLOAD SWAP1 DUP2 ADD PUSH1 0x40 MSTORE DUP1 SWAP3 SWAP2 SWAP1 DUP2 DUP2 MSTORE PUSH1 0x20 ADD DUP3 DUP1 SLOAD PUSH3 0x338 SWAP1 PUSH3 0xAB1 JUMP JUMPDEST DUP1 ISZERO PUSH3 0x387 JUMPI DUP1 PUSH1 0x1F LT PUSH3 0x35D JUMPI PUSH2 0x100 DUP1 DUP4 SLOAD DIV MUL DUP4 MSTORE SWAP2 PUSH1 0x20 ADD SWAP2 PUSH3 0x387 JUMP JUMPDEST DUP3 ADD SWAP2 SWAP1 PUSH0 MSTORE PUSH1 0x20 PUSH0 KECCAK256 SWAP1 JUMPDEST DUP2 SLOAD DUP2 MSTORE SWAP1 PUSH1 0x1 ADD SWAP1 PUSH1 0x20 ADD DUP1 DUP4 GT PUSH3 0x369 JUMPI DUP3 SWAP1 SUB PUSH1 0x1F AND DUP3 ADD SWAP2 JUMPDEST POP POP POP POP POP DUP2 MSTORE POP POP SWAP1 POP DUP1 PUSH0 ADD MLOAD DUP2 PUSH1 0x20 ADD MLOAD DUP3 PUSH1 0x40 ADD MLOAD SWAP4 POP SWAP4 POP SWAP4 POP POP SWAP2 SWAP4 SWAP1 SWAP3 POP JUMP JUMPDEST PUSH0 TIMESTAMP DUP3 PUSH1 0x40 MLOAD PUSH3 0x3BF SWAP1 PUSH3 0x6B4 JUMP JUMPDEST PUSH3 0x3CC SWAP3 SWAP2 SWAP1 PUSH3 0xB80 JUMP JUMPDEST PUSH1 0x40 MLOAD DUP1 SWAP2 SUB SWAP1 PUSH0 CREATE DUP1 ISZERO DUP1 ISZERO PUSH3 0x3E6 JUMPI RETURNDATASIZE PUSH0 DUP1 RETURNDATACOPY RETURNDATASIZE PUSH0 REVERT JUMPDEST POP SWAP1 POP PUSH0 PUSH1 0x40 MLOAD DUP1 PUSH1 0x60 ADD PUSH1 0x40 MSTORE DUP1 TIMESTAMP DUP2 MSTORE PUSH1 0x20 ADD DUP4 PUSH20 0xFFFFFFFFFFFFFFFFFFFFFFFFFFFFFFFFFFFFFFFF AND DUP2 MSTORE PUSH1 0x20 ADD PUSH1 0x40 MLOAD DUP1 PUSH1 0x40 ADD PUSH1 0x40 MSTORE DUP1 PUSH1 0x6 DUP2 MSTORE PUSH1 0x20 ADD PUSH32 0x737472696E670000000000000000000000000000000000000000000000000000 DUP2 MSTORE POP DUP2 MSTORE POP SWAP1 DUP1 PUSH1 0x1 DUP2 SLOAD ADD DUP1 DUP3 SSTORE DUP1 SWAP2 POP POP PUSH1 0x1 SWAP1 SUB SWAP1 PUSH0 MSTORE PUSH1 0x20 PUSH0 KECCAK256 SWAP1 PUSH1 0x3 MUL ADD PUSH0 SWAP1 SWAP2 SWAP1 SWAP2 SWAP1 SWAP2 POP PUSH0 DUP3 ADD MLOAD DUP2 PUSH0 ADD SSTORE PUSH1 0x20 DUP3 ADD MLOAD DUP2 PUSH1 0x1 ADD PUSH0 PUSH2 0x100 EXP DUP2 SLOAD DUP2 PUSH20 0xFFFFFFFFFFFFFFFFFFFFFFFFFFFFFFFFFFFFFFFF MUL NOT AND SWAP1 DUP4 PUSH20 0xFFFFFFFFFFFFFFFFFFFFFFFFFFFFFFFFFFFFFFFF AND MUL OR SWAP1 SSTORE POP PUSH1 0x40 DUP3 ADD MLOAD DUP2 PUSH1 0x2 ADD SWAP1 DUP2 PUSH3 0x4DB SWAP2 SWAP1 PUSH3 0xD75 JUMP JUMPDEST POP POP POP DUP1 PUSH20 0xFFFFFFFFFFFFFFFFFFFFFFFFFFFFFFFFFFFFFFFF AND TIMESTAMP PUSH32 0x4F1EEA90BEB2CCD16BE5B37FC1E1272AF00B7E01520EFF654685171F4BAB636A PUSH1 0x40 MLOAD PUSH3 0x525 SWAP1 PUSH3 0xEA7 JUMP JUMPDEST PUSH1 0x40 MLOAD DUP1 SWAP2 SUB SWAP1 LOG3 POP POP JUMP JUMPDEST PUSH0 TIMESTAMP DUP3 PUSH1 0x40 MLOAD PUSH3 0x542 SWAP1 PUSH3 0x6C2 JUMP JUMPDEST PUSH3 0x54F SWAP3 SWAP2 SWAP1 PUSH3 0xEC7 JUMP JUMPDEST PUSH1 0x40 MLOAD DUP1 SWAP2 SUB SWAP1 PUSH0 CREATE DUP1 ISZERO DUP1 ISZERO PUSH3 0x569 JUMPI RETURNDATASIZE PUSH0 DUP1 RETURNDATACOPY RETURNDATASIZE PUSH0 REVERT JUMPDEST POP SWAP1 POP PUSH0 PUSH1 0x40 MLOAD DUP1 PUSH1 0x60 ADD PUSH1 0x40 MSTORE DUP1 TIMESTAMP DUP2 MSTORE PUSH1 0x20 ADD DUP4 PUSH20 0xFFFFFFFFFFFFFFFFFFFFFFFFFFFFFFFFFFFFFFFF AND DUP2 MSTORE PUSH1 0x20 ADD PUSH1 0x40 MLOAD DUP1 PUSH1 0x40 ADD PUSH1 0x40 MSTORE DUP1 PUSH1 0x7 DUP2 MSTORE PUSH1 0x20 ADD PUSH32 0x6164647265737300000000000000000000000000000000000000000000000000 DUP2 MSTORE POP DUP2 MSTORE POP SWAP1 DUP1 PUSH1 0x1 DUP2 SLOAD ADD DUP1 DUP3 SSTORE DUP1 SWAP2 POP POP PUSH1 0x1 SWAP1 SUB SWAP1 PUSH0 MSTORE PUSH1 0x20 PUSH0 KECCAK256 SWAP1 PUSH1 0x3 MUL ADD PUSH0 SWAP1 SWAP2 SWAP1 SWAP2 SWAP1 SWAP2 POP PUSH0 DUP3 ADD MLOAD DUP2 PUSH0 ADD SSTORE PUSH1 0x20 DUP3 ADD MLOAD DUP2 PUSH1 0x1 ADD PUSH0 PUSH2 0x100 EXP DUP2 SLOAD DUP2 PUSH20 0xFFFFFFFFFFFFFFFFFFFFFFFFFFFFFFFFFFFFFFFF MUL NOT AND SWAP1 DUP4 PUSH20 0xFFFFFFFFFFFFFFFFFFFFFFFFFFFFFFFFFFFFFFFF AND MUL OR SWAP1 SSTORE POP PUSH1 0x40 DUP3 ADD MLOAD DUP2 PUSH1 0x2 ADD SWAP1 DUP2 PUSH3 0x65E SWAP2 SWAP1 PUSH3 0xD75 JUMP JUMPDEST POP POP POP DUP1 PUSH20 0xFFFFFFFFFFFFFFFFFFFFFFFFFFFFFFFFFFFFFFFF AND TIMESTAMP PUSH32 0x4F1EEA90BEB2CCD16BE5B37FC1E1272AF00B7E01520EFF654685171F4BAB636A PUSH1 0x40 MLOAD PUSH3 0x6A8 SWAP1 PUSH3 0xF40 JUMP JUMPDEST PUSH1 0x40 MLOAD DUP1 SWAP2 SUB SWAP1 LOG3 POP POP JUMP JUMPDEST PUSH2 0xC9C DUP1 PUSH3 0xF61 DUP4 CODECOPY ADD SWAP1 JUMP JUMPDEST PUSH2 0x48C DUP1 PUSH3 0x1BFD DUP4 CODECOPY ADD SWAP1 JUMP JUMPDEST PUSH0 PUSH1 0x40 MLOAD SWAP1 POP SWAP1 JUMP JUMPDEST PUSH0 DUP1 REVERT JUMPDEST PUSH0 DUP1 REVERT JUMPDEST PUSH0 DUP2 SWAP1 POP SWAP2 SWAP1 POP JUMP JUMPDEST PUSH3 0x6F5 DUP2 PUSH3 0x6E1 JUMP JUMPDEST DUP2 EQ PUSH3 0x700 JUMPI PUSH0 DUP1 REVERT JUMPDEST POP JUMP JUMPDEST PUSH0 DUP2 CALLDATALOAD SWAP1 POP PUSH3 0x713 DUP2 PUSH3 0x6EA JUMP JUMPDEST SWAP3 SWAP2 POP POP JUMP JUMPDEST PUSH0 PUSH1 0x20 DUP3 DUP5 SUB SLT ISZERO PUSH3 0x731 JUMPI PUSH3 0x730 PUSH3 0x6D9 JUMP JUMPDEST JUMPDEST PUSH0 PUSH3 0x740 DUP5 DUP3 DUP6 ADD PUSH3 0x703 JUMP JUMPDEST SWAP2 POP POP SWAP3 SWAP2 POP POP JUMP JUMPDEST PUSH3 0x754 DUP2 PUSH3 0x6E1 JUMP JUMPDEST DUP3 MSTORE POP POP JUMP JUMPDEST PUSH0 PUSH20 0xFFFFFFFFFFFFFFFFFFFFFFFFFFFFFFFFFFFFFFFF DUP3 AND SWAP1 POP SWAP2 SWAP1 POP JUMP JUMPDEST PUSH0 PUSH3 0x785 DUP3 PUSH3 0x75A JUMP JUMPDEST SWAP1 POP SWAP2 SWAP1 POP JUMP JUMPDEST PUSH3 0x797 DUP2 PUSH3 0x779 JUMP JUMPDEST DUP3 MSTORE POP POP JUMP JUMPDEST PUSH0 DUP2 MLOAD SWAP1 POP SWAP2 SWAP1 POP JUMP JUMPDEST PUSH0 DUP3 DUP3 MSTORE PUSH1 0x20 DUP3 ADD SWAP1 POP SWAP3 SWAP2 POP POP JUMP JUMPDEST PUSH0 JUMPDEST DUP4 DUP2 LT ISZERO PUSH3 0x7D6 JUMPI DUP1 DUP3 ADD MLOAD DUP2 DUP5 ADD MSTORE PUSH1 0x20 DUP2 ADD SWAP1 POP PUSH3 0x7B9 JUMP JUMPDEST PUSH0 DUP5 DUP5 ADD MSTORE POP POP POP POP JUMP JUMPDEST PUSH0 PUSH1 0x1F NOT PUSH1 0x1F DUP4 ADD AND SWAP1 POP SWAP2 SWAP1 POP JUMP JUMPDEST PUSH0 PUSH3 0x7FD DUP3 PUSH3 0x79D JUMP JUMPDEST PUSH3 0x809 DUP2 DUP6 PUSH3 0x7A7 JUMP JUMPDEST SWAP4 POP PUSH3 0x81B DUP2 DUP6 PUSH1 0x20 DUP7 ADD PUSH3 0x7B7 JUMP JUMPDEST PUSH3 0x826 DUP2 PUSH3 0x7E1 JUMP JUMPDEST DUP5 ADD SWAP2 POP POP SWAP3 SWAP2 POP POP JUMP JUMPDEST PUSH0 PUSH1 0x60 DUP3 ADD SWAP1 POP PUSH3 0x846 PUSH0 DUP4 ADD DUP7 PUSH3 0x749 JUMP JUMPDEST PUSH3 0x855 PUSH1 0x20 DUP4 ADD DUP6 PUSH3 0x78C JUMP JUMPDEST DUP2 DUP2 SUB PUSH1 0x40 DUP4 ADD MSTORE PUSH3 0x869 DUP2 DUP5 PUSH3 0x7F1 JUMP JUMPDEST SWAP1 POP SWAP5 SWAP4 POP POP POP POP JUMP JUMPDEST PUSH0 PUSH1 0x20 DUP3 ADD SWAP1 POP PUSH3 0x888 PUSH0 DUP4 ADD DUP5 PUSH3 0x749 JUMP JUMPDEST SWAP3 SWAP2 POP POP JUMP JUMPDEST PUSH0 DUP1 REVERT JUMPDEST PUSH0 DUP1 REVERT JUMPDEST PUSH32 0x4E487B7100000000000000000000000000000000000000000000000000000000 PUSH0 MSTORE PUSH1 0x41 PUSH1 0x4 MSTORE PUSH1 0x24 PUSH0 REVERT JUMPDEST PUSH3 0x8CE DUP3 PUSH3 0x7E1 JUMP JUMPDEST DUP2 ADD DUP2 DUP2 LT PUSH8 0xFFFFFFFFFFFFFFFF DUP3 GT OR ISZERO PUSH3 0x8F0 JUMPI PUSH3 0x8EF PUSH3 0x896 JUMP JUMPDEST JUMPDEST DUP1 PUSH1 0x40 MSTORE POP POP POP JUMP JUMPDEST PUSH0 PUSH3 0x904 PUSH3 0x6D0 JUMP JUMPDEST SWAP1 POP PUSH3 0x912 DUP3 DUP3 PUSH3 0x8C3 JUMP JUMPDEST SWAP2 SWAP1 POP JUMP JUMPDEST PUSH0 PUSH8 0xFFFFFFFFFFFFFFFF DUP3 GT ISZERO PUSH3 0x934 JUMPI PUSH3 0x933 PUSH3 0x896 JUMP JUMPDEST JUMPDEST PUSH3 0x93F DUP3 PUSH3 0x7E1 JUMP JUMPDEST SWAP1 POP PUSH1 0x20 DUP2 ADD SWAP1 POP SWAP2 SWAP1 POP JUMP JUMPDEST DUP3 DUP2 DUP4 CALLDATACOPY PUSH0 DUP4 DUP4 ADD MSTORE POP POP POP JUMP JUMPDEST PUSH0 PUSH3 0x970 PUSH3 0x96A DUP5 PUSH3 0x917 JUMP JUMPDEST PUSH3 0x8F9 JUMP JUMPDEST SWAP1 POP DUP3 DUP2 MSTORE PUSH1 0x20 DUP2 ADD DUP5 DUP5 DUP5 ADD GT ISZERO PUSH3 0x98F JUMPI PUSH3 0x98E PUSH3 0x892 JUMP JUMPDEST JUMPDEST PUSH3 0x99C DUP5 DUP3 DUP6 PUSH3 0x94C JUMP JUMPDEST POP SWAP4 SWAP3 POP POP POP JUMP JUMPDEST PUSH0 DUP3 PUSH1 0x1F DUP4 ADD SLT PUSH3 0x9BB JUMPI PUSH3 0x9BA PUSH3 0x88E JUMP JUMPDEST JUMPDEST DUP2 CALLDATALOAD PUSH3 0x9CD DUP5 DUP3 PUSH1 0x20 DUP7 ADD PUSH3 0x95A JUMP JUMPDEST SWAP2 POP POP SWAP3 SWAP2 POP POP JUMP JUMPDEST PUSH0 PUSH1 0x20 DUP3 DUP5 SUB SLT ISZERO PUSH3 0x9EE JUMPI PUSH3 0x9ED PUSH3 0x6D9 JUMP JUMPDEST JUMPDEST PUSH0 DUP3 ADD CALLDATALOAD PUSH8 0xFFFFFFFFFFFFFFFF DUP2 GT ISZERO PUSH3 0xA0E JUMPI PUSH3 0xA0D PUSH3 0x6DD JUMP JUMPDEST JUMPDEST PUSH3 0xA1C DUP5 DUP3 DUP6 ADD PUSH3 0x9A4 JUMP JUMPDEST SWAP2 POP POP SWAP3 SWAP2 POP POP JUMP JUMPDEST PUSH3 0xA30 DUP2 PUSH3 0x779 JUMP JUMPDEST DUP2 EQ PUSH3 0xA3B JUMPI PUSH0 DUP1 REVERT JUMPDEST POP JUMP JUMPDEST PUSH0 DUP2 CALLDATALOAD SWAP1 POP PUSH3 0xA4E DUP2 PUSH3 0xA25 JUMP JUMPDEST SWAP3 SWAP2 POP POP JUMP JUMPDEST PUSH0 PUSH1 0x20 DUP3 DUP5 SUB SLT ISZERO PUSH3 0xA6C JUMPI PUSH3 0xA6B PUSH3 0x6D9 JUMP JUMPDEST JUMPDEST PUSH0 PUSH3 0xA7B DUP5 DUP3 DUP6 ADD PUSH3 0xA3E JUMP JUMPDEST SWAP2 POP POP SWAP3 SWAP2 POP POP JUMP JUMPDEST PUSH32 0x4E487B7100000000000000000000000000000000000000000000000000000000 PUSH0 MSTORE PUSH1 0x22 PUSH1 0x4 MSTORE PUSH1 0x24 PUSH0 REVERT JUMPDEST PUSH0 PUSH1 0x2 DUP3 DIV SWAP1 POP PUSH1 0x1 DUP3 AND DUP1 PUSH3 0xAC9 JUMPI PUSH1 0x7F DUP3 AND SWAP2 POP JUMPDEST PUSH1 0x20 DUP3 LT DUP2 SUB PUSH3 0xADF JUMPI PUSH3 0xADE PUSH3 0xA84 JUMP JUMPDEST JUMPDEST POP SWAP2 SWAP1 POP JUMP JUMPDEST PUSH32 0x496E646578206F7574206F6620626F756E647300000000000000000000000000 PUSH0 DUP3 ADD MSTORE POP JUMP JUMPDEST PUSH0 PUSH3 0xB1B PUSH1 0x13 DUP4 PUSH3 0x7A7 JUMP JUMPDEST SWAP2 POP PUSH3 0xB28 DUP3 PUSH3 0xAE5 JUMP JUMPDEST PUSH1 0x20 DUP3 ADD SWAP1 POP SWAP2 SWAP1 POP JUMP JUMPDEST PUSH0 PUSH1 0x20 DUP3 ADD SWAP1 POP DUP2 DUP2 SUB PUSH0 DUP4 ADD MSTORE PUSH3 0xB4C DUP2 PUSH3 0xB0D JUMP JUMPDEST SWAP1 POP SWAP2 SWAP1 POP JUMP JUMPDEST PUSH32 0x4E487B7100000000000000000000000000000000000000000000000000000000 PUSH0 MSTORE PUSH1 0x32 PUSH1 0x4 MSTORE PUSH1 0x24 PUSH0 REVERT JUMPDEST PUSH0 PUSH1 0x40 DUP3 ADD SWAP1 POP PUSH3 0xB95 PUSH0 DUP4 ADD DUP6 PUSH3 0x749 JUMP JUMPDEST DUP2 DUP2 SUB PUSH1 0x20 DUP4 ADD MSTORE PUSH3 0xBA9 DUP2 DUP5 PUSH3 0x7F1 JUMP JUMPDEST SWAP1 POP SWAP4 SWAP3 POP POP POP JUMP JUMPDEST PUSH0 DUP2 SWAP1 POP DUP2 PUSH0 MSTORE PUSH1 0x20 PUSH0 KECCAK256 SWAP1 POP SWAP2 SWAP1 POP JUMP JUMPDEST PUSH0 PUSH1 0x20 PUSH1 0x1F DUP4 ADD DIV SWAP1 POP SWAP2 SWAP1 POP JUMP JUMPDEST PUSH0 DUP3 DUP3 SHL SWAP1 POP SWAP3 SWAP2 POP POP JUMP JUMPDEST PUSH0 PUSH1 0x8 DUP4 MUL PUSH3 0xC10 PUSH32 0xFFFFFFFFFFFFFFFFFFFFFFFFFFFFFFFFFFFFFFFFFFFFFFFFFFFFFFFFFFFFFFFF DUP3 PUSH3 0xBD3 JUMP JUMPDEST PUSH3 0xC1C DUP7 DUP4 PUSH3 0xBD3 JUMP JUMPDEST SWAP6 POP DUP1 NOT DUP5 AND SWAP4 POP DUP1 DUP7 AND DUP5 OR SWAP3 POP POP POP SWAP4 SWAP3 POP POP POP JUMP JUMPDEST PUSH0 DUP2 SWAP1 POP SWAP2 SWAP1 POP JUMP JUMPDEST PUSH0 PUSH3 0xC5D PUSH3 0xC57 PUSH3 0xC51 DUP5 PUSH3 0x6E1 JUMP JUMPDEST PUSH3 0xC34 JUMP JUMPDEST PUSH3 0x6E1 JUMP JUMPDEST SWAP1 POP SWAP2 SWAP1 POP JUMP JUMPDEST PUSH0 DUP2 SWAP1 POP SWAP2 SWAP1 POP JUMP JUMPDEST PUSH3 0xC78 DUP4 PUSH3 0xC3D JUMP JUMPDEST PUSH3 0xC90 PUSH3 0xC87 DUP3 PUSH3 0xC64 JUMP JUMPDEST DUP5 DUP5 SLOAD PUSH3 0xBDF JUMP JUMPDEST DUP3 SSTORE POP POP POP POP JUMP JUMPDEST PUSH0 SWAP1 JUMP JUMPDEST PUSH3 0xCA6 PUSH3 0xC98 JUMP JUMPDEST PUSH3 0xCB3 DUP2 DUP5 DUP5 PUSH3 0xC6D JUMP JUMPDEST POP POP POP JUMP JUMPDEST JUMPDEST DUP2 DUP2 LT ISZERO PUSH3 0xCDA JUMPI PUSH3 0xCCE PUSH0 DUP3 PUSH3 0xC9C JUMP JUMPDEST PUSH1 0x1 DUP2 ADD SWAP1 POP PUSH3 0xCB9 JUMP JUMPDEST POP POP JUMP JUMPDEST PUSH1 0x1F DUP3 GT ISZERO PUSH3 0xD29 JUMPI PUSH3 0xCF3 DUP2 PUSH3 0xBB2 JUMP JUMPDEST PUSH3 0xCFE DUP5 PUSH3 0xBC4 JUMP JUMPDEST DUP2 ADD PUSH1 0x20 DUP6 LT ISZERO PUSH3 0xD0E JUMPI DUP2 SWAP1 POP JUMPDEST PUSH3 0xD26 PUSH3 0xD1D DUP6 PUSH3 0xBC4 JUMP JUMPDEST DUP4 ADD DUP3 PUSH3 0xCB8 JUMP JUMPDEST POP POP JUMPDEST POP POP POP JUMP JUMPDEST PUSH0 DUP3 DUP3 SHR SWAP1 POP SWAP3 SWAP2 POP POP JUMP JUMPDEST PUSH0 PUSH3 0xD4B PUSH0 NOT DUP5 PUSH1 0x8 MUL PUSH3 0xD2E JUMP JUMPDEST NOT DUP1 DUP4 AND SWAP2 POP POP SWAP3 SWAP2 POP POP JUMP JUMPDEST PUSH0 PUSH3 0xD65 DUP4 DUP4 PUSH3 0xD3A JUMP JUMPDEST SWAP2 POP DUP3 PUSH1 0x2 MUL DUP3 OR SWAP1 POP SWAP3 SWAP2 POP POP JUMP JUMPDEST PUSH3 0xD80 DUP3 PUSH3 0x79D JUMP JUMPDEST PUSH8 0xFFFFFFFFFFFFFFFF DUP2 GT ISZERO PUSH3 0xD9C JUMPI PUSH3 0xD9B PUSH3 0x896 JUMP JUMPDEST JUMPDEST PUSH3 0xDA8 DUP3 SLOAD PUSH3 0xAB1 JUMP JUMPDEST PUSH3 0xDB5 DUP3 DUP3 DUP6 PUSH3 0xCDE JUMP JUMPDEST PUSH0 PUSH1 0x20 SWAP1 POP PUSH1 0x1F DUP4 GT PUSH1 0x1 DUP2 EQ PUSH3 0xDEB JUMPI PUSH0 DUP5 ISZERO PUSH3 0xDD6 JUMPI DUP3 DUP8 ADD MLOAD SWAP1 POP JUMPDEST PUSH3 0xDE2 DUP6 DUP3 PUSH3 0xD58 JUMP JUMPDEST DUP7 SSTORE POP PUSH3 0xE51 JUMP JUMPDEST PUSH1 0x1F NOT DUP5 AND PUSH3 0xDFB DUP7 PUSH3 0xBB2 JUMP JUMPDEST PUSH0 JUMPDEST DUP3 DUP2 LT ISZERO PUSH3 0xE24 JUMPI DUP5 DUP10 ADD MLOAD DUP3 SSTORE PUSH1 0x1 DUP3 ADD SWAP2 POP PUSH1 0x20 DUP6 ADD SWAP5 POP PUSH1 0x20 DUP2 ADD SWAP1 POP PUSH3 0xDFD JUMP JUMPDEST DUP7 DUP4 LT ISZERO PUSH3 0xE44 JUMPI DUP5 DUP10 ADD MLOAD PUSH3 0xE40 PUSH1 0x1F DUP10 AND DUP3 PUSH3 0xD3A JUMP JUMPDEST DUP4 SSTORE POP JUMPDEST PUSH1 0x1 PUSH1 0x2 DUP9 MUL ADD DUP9 SSTORE POP POP POP JUMPDEST POP POP POP POP POP POP JUMP JUMPDEST PUSH32 0x737472696E670000000000000000000000000000000000000000000000000000 PUSH0 DUP3 ADD MSTORE POP JUMP JUMPDEST PUSH0 PUSH3 0xE8F PUSH1 0x6 DUP4 PUSH3 0x7A7 JUMP JUMPDEST SWAP2 POP PUSH3 0xE9C DUP3 PUSH3 0xE59 JUMP JUMPDEST PUSH1 0x20 DUP3 ADD SWAP1 POP SWAP2 SWAP1 POP JUMP JUMPDEST PUSH0 PUSH1 0x20 DUP3 ADD SWAP1 POP DUP2 DUP2 SUB PUSH0 DUP4 ADD MSTORE PUSH3 0xEC0 DUP2 PUSH3 0xE81 JUMP JUMPDEST SWAP1 POP SWAP2 SWAP1 POP JUMP JUMPDEST PUSH0 PUSH1 0x40 DUP3 ADD SWAP1 POP PUSH3 0xEDC PUSH0 DUP4 ADD DUP6 PUSH3 0x749 JUMP JUMPDEST PUSH3 0xEEB PUSH1 0x20 DUP4 ADD DUP5 PUSH3 0x78C JUMP JUMPDEST SWAP4 SWAP3 POP POP POP JUMP JUMPDEST PUSH32 0x6164647265737300000000000000000000000000000000000000000000000000 PUSH0 DUP3 ADD MSTORE POP JUMP JUMPDEST PUSH0 PUSH3 0xF28 PUSH1 0x7 DUP4 PUSH3 0x7A7 JUMP JUMPDEST SWAP2 POP PUSH3 0xF35 DUP3 PUSH3 0xEF2 JUMP JUMPDEST PUSH1 0x20 DUP3 ADD SWAP1 POP SWAP2 SWAP1 POP JUMP JUMPDEST PUSH0 PUSH1 0x20 DUP3 ADD SWAP1 POP DUP2 DUP2 SUB PUSH0 DUP4 ADD MSTORE PUSH3 0xF59 DUP2 PUSH3 0xF1A JUMP JUMPDEST SWAP1 POP SWAP2 SWAP1 POP JUMP INVALID PUSH1 0x80 PUSH1 0x40 MSTORE CALLVALUE DUP1 ISZERO PUSH3 0x10 JUMPI PUSH0 DUP1 REVERT JUMPDEST POP PUSH1 0x40 MLOAD PUSH3 0xC9C CODESIZE SUB DUP1 PUSH3 0xC9C DUP4 CODECOPY DUP2 DUP2 ADD PUSH1 0x40 MSTORE DUP2 ADD SWAP1 PUSH3 0x36 SWAP2 SWAP1 PUSH3 0x215 JUMP JUMPDEST DUP2 DUP1 PUSH0 DUP2 SWAP1 SSTORE POP POP DUP1 PUSH1 0x1 SWAP1 DUP2 PUSH3 0x4F SWAP2 SWAP1 PUSH3 0x4A7 JUMP JUMPDEST POP POP POP PUSH3 0x58B JUMP JUMPDEST PUSH0 PUSH1 0x40 MLOAD SWAP1 POP SWAP1 JUMP JUMPDEST PUSH0 DUP1 REVERT JUMPDEST PUSH0 DUP1 REVERT JUMPDEST PUSH0 DUP2 SWAP1 POP SWAP2 SWAP1 POP JUMP JUMPDEST PUSH3 0x7D DUP2 PUSH3 0x69 JUMP JUMPDEST DUP2 EQ PUSH3 0x88 JUMPI PUSH0 DUP1 REVERT JUMPDEST POP JUMP JUMPDEST PUSH0 DUP2 MLOAD SWAP1 POP PUSH3 0x9B DUP2 PUSH3 0x72 JUMP JUMPDEST SWAP3 SWAP2 POP POP JUMP JUMPDEST PUSH0 DUP1 REVERT JUMPDEST PUSH0 DUP1 REVERT JUMPDEST PUSH0 PUSH1 0x1F NOT PUSH1 0x1F DUP4 ADD AND SWAP1 POP SWAP2 SWAP1 POP JUMP JUMPDEST PUSH32 0x4E487B7100000000000000000000000000000000000000000000000000000000 PUSH0 MSTORE PUSH1 0x41 PUSH1 0x4 MSTORE PUSH1 0x24 PUSH0 REVERT JUMPDEST PUSH3 0xF1 DUP3 PUSH3 0xA9 JUMP JUMPDEST DUP2 ADD DUP2 DUP2 LT PUSH8 0xFFFFFFFFFFFFFFFF DUP3 GT OR ISZERO PUSH3 0x113 JUMPI PUSH3 0x112 PUSH3 0xB9 JUMP JUMPDEST JUMPDEST DUP1 PUSH1 0x40 MSTORE POP POP POP JUMP JUMPDEST PUSH0 PUSH3 0x127 PUSH3 0x58 JUMP JUMPDEST SWAP1 POP PUSH3 0x135 DUP3 DUP3 PUSH3 0xE6 JUMP JUMPDEST SWAP2 SWAP1 POP JUMP JUMPDEST PUSH0 PUSH8 0xFFFFFFFFFFFFFFFF DUP3 GT ISZERO PUSH3 0x157 JUMPI PUSH3 0x156 PUSH3 0xB9 JUMP JUMPDEST JUMPDEST PUSH3 0x162 DUP3 PUSH3 0xA9 JUMP JUMPDEST SWAP1 POP PUSH1 0x20 DUP2 ADD SWAP1 POP SWAP2 SWAP1 POP JUMP JUMPDEST PUSH0 JUMPDEST DUP4 DUP2 LT ISZERO PUSH3 0x18E JUMPI DUP1 DUP3 ADD MLOAD DUP2 DUP5 ADD MSTORE PUSH1 0x20 DUP2 ADD SWAP1 POP PUSH3 0x171 JUMP JUMPDEST PUSH0 DUP5 DUP5 ADD MSTORE POP POP POP POP JUMP JUMPDEST PUSH0 PUSH3 0x1AF PUSH3 0x1A9 DUP5 PUSH3 0x13A JUMP JUMPDEST PUSH3 0x11C JUMP JUMPDEST SWAP1 POP DUP3 DUP2 MSTORE PUSH1 0x20 DUP2 ADD DUP5 DUP5 DUP5 ADD GT ISZERO PUSH3 0x1CE JUMPI PUSH3 0x1CD PUSH3 0xA5 JUMP JUMPDEST JUMPDEST PUSH3 0x1DB DUP5 DUP3 DUP6 PUSH3 0x16F JUMP JUMPDEST POP SWAP4 SWAP3 POP POP POP JUMP JUMPDEST PUSH0 DUP3 PUSH1 0x1F DUP4 ADD SLT PUSH3 0x1FA JUMPI PUSH3 0x1F9 PUSH3 0xA1 JUMP JUMPDEST JUMPDEST DUP2 MLOAD PUSH3 0x20C DUP5 DUP3 PUSH1 0x20 DUP7 ADD PUSH3 0x199 JUMP JUMPDEST SWAP2 POP POP SWAP3 SWAP2 POP POP JUMP JUMPDEST PUSH0 DUP1 PUSH1 0x40 DUP4 DUP6 SUB SLT ISZERO PUSH3 0x22E JUMPI PUSH3 0x22D PUSH3 0x61 JUMP JUMPDEST JUMPDEST PUSH0 PUSH3 0x23D DUP6 DUP3 DUP7 ADD PUSH3 0x8B JUMP JUMPDEST SWAP3 POP POP PUSH1 0x20 DUP4 ADD MLOAD PUSH8 0xFFFFFFFFFFFFFFFF DUP2 GT ISZERO PUSH3 0x261 JUMPI PUSH3 0x260 PUSH3 0x65 JUMP JUMPDEST JUMPDEST PUSH3 0x26F DUP6 DUP3 DUP7 ADD PUSH3 0x1E3 JUMP JUMPDEST SWAP2 POP POP SWAP3 POP SWAP3 SWAP1 POP JUMP JUMPDEST PUSH0 DUP2 MLOAD SWAP1 POP SWAP2 SWAP1 POP JUMP JUMPDEST PUSH32 0x4E487B7100000000000000000000000000000000000000000000000000000000 PUSH0 MSTORE PUSH1 0x22 PUSH1 0x4 MSTORE PUSH1 0x24 PUSH0 REVERT JUMPDEST PUSH0 PUSH1 0x2 DUP3 DIV SWAP1 POP PUSH1 0x1 DUP3 AND DUP1 PUSH3 0x2C8 JUMPI PUSH1 0x7F DUP3 AND SWAP2 POP JUMPDEST PUSH1 0x20 DUP3 LT DUP2 SUB PUSH3 0x2DE JUMPI PUSH3 0x2DD PUSH3 0x283 JUMP JUMPDEST JUMPDEST POP SWAP2 SWAP1 POP JUMP JUMPDEST PUSH0 DUP2 SWAP1 POP DUP2 PUSH0 MSTORE PUSH1 0x20 PUSH0 KECCAK256 SWAP1 POP SWAP2 SWAP1 POP JUMP JUMPDEST PUSH0 PUSH1 0x20 PUSH1 0x1F DUP4 ADD DIV SWAP1 POP SWAP2 SWAP1 POP JUMP JUMPDEST PUSH0 DUP3 DUP3 SHL SWAP1 POP SWAP3 SWAP2 POP POP JUMP JUMPDEST PUSH0 PUSH1 0x8 DUP4 MUL PUSH3 0x342 PUSH32 0xFFFFFFFFFFFFFFFFFFFFFFFFFFFFFFFFFFFFFFFFFFFFFFFFFFFFFFFFFFFFFFFF DUP3 PUSH3 0x305 JUMP JUMPDEST PUSH3 0x34E DUP7 DUP4 PUSH3 0x305 JUMP JUMPDEST SWAP6 POP DUP1 NOT DUP5 AND SWAP4 POP DUP1 DUP7 AND DUP5 OR SWAP3 POP POP POP SWAP4 SWAP3 POP POP POP JUMP JUMPDEST PUSH0 DUP2 SWAP1 POP SWAP2 SWAP1 POP JUMP JUMPDEST PUSH0 PUSH3 0x38F PUSH3 0x389 PUSH3 0x383 DUP5 PUSH3 0x69 JUMP JUMPDEST PUSH3 0x366 JUMP JUMPDEST PUSH3 0x69 JUMP JUMPDEST SWAP1 POP SWAP2 SWAP1 POP JUMP JUMPDEST PUSH0 DUP2 SWAP1 POP SWAP2 SWAP1 POP JUMP JUMPDEST PUSH3 0x3AA DUP4 PUSH3 0x36F JUMP JUMPDEST PUSH3 0x3C2 PUSH3 0x3B9 DUP3 PUSH3 0x396 JUMP JUMPDEST DUP5 DUP5 SLOAD PUSH3 0x311 JUMP JUMPDEST DUP3 SSTORE POP POP POP POP JUMP JUMPDEST PUSH0 SWAP1 JUMP JUMPDEST PUSH3 0x3D8 PUSH3 0x3CA JUMP JUMPDEST PUSH3 0x3E5 DUP2 DUP5 DUP5 PUSH3 0x39F JUMP JUMPDEST POP POP POP JUMP JUMPDEST JUMPDEST DUP2 DUP2 LT ISZERO PUSH3 0x40C JUMPI PUSH3 0x400 PUSH0 DUP3 PUSH3 0x3CE JUMP JUMPDEST PUSH1 0x1 DUP2 ADD SWAP1 POP PUSH3 0x3EB JUMP JUMPDEST POP POP JUMP JUMPDEST PUSH1 0x1F DUP3 GT ISZERO PUSH3 0x45B JUMPI PUSH3 0x425 DUP2 PUSH3 0x2E4 JUMP JUMPDEST PUSH3 0x430 DUP5 PUSH3 0x2F6 JUMP JUMPDEST DUP2 ADD PUSH1 0x20 DUP6 LT ISZERO PUSH3 0x440 JUMPI DUP2 SWAP1 POP JUMPDEST PUSH3 0x458 PUSH3 0x44F DUP6 PUSH3 0x2F6 JUMP JUMPDEST DUP4 ADD DUP3 PUSH3 0x3EA JUMP JUMPDEST POP POP JUMPDEST POP POP POP JUMP JUMPDEST PUSH0 DUP3 DUP3 SHR SWAP1 POP SWAP3 SWAP2 POP POP JUMP JUMPDEST PUSH0 PUSH3 0x47D PUSH0 NOT DUP5 PUSH1 0x8 MUL PUSH3 0x460 JUMP JUMPDEST NOT DUP1 DUP4 AND SWAP2 POP POP SWAP3 SWAP2 POP POP JUMP JUMPDEST PUSH0 PUSH3 0x497 DUP4 DUP4 PUSH3 0x46C JUMP JUMPDEST SWAP2 POP DUP3 PUSH1 0x2 MUL DUP3 OR SWAP1 POP SWAP3 SWAP2 POP POP JUMP JUMPDEST PUSH3 0x4B2 DUP3 PUSH3 0x279 JUMP JUMPDEST PUSH8 0xFFFFFFFFFFFFFFFF DUP2 GT ISZERO PUSH3 0x4CE JUMPI PUSH3 0x4CD PUSH3 0xB9 JUMP JUMPDEST JUMPDEST PUSH3 0x4DA DUP3 SLOAD PUSH3 0x2B0 JUMP JUMPDEST PUSH3 0x4E7 DUP3 DUP3 DUP6 PUSH3 0x410 JUMP JUMPDEST PUSH0 PUSH1 0x20 SWAP1 POP PUSH1 0x1F DUP4 GT PUSH1 0x1 DUP2 EQ PUSH3 0x51D JUMPI PUSH0 DUP5 ISZERO PUSH3 0x508 JUMPI DUP3 DUP8 ADD MLOAD SWAP1 POP JUMPDEST PUSH3 0x514 DUP6 DUP3 PUSH3 0x48A JUMP JUMPDEST DUP7 SSTORE POP PUSH3 0x583 JUMP JUMPDEST PUSH1 0x1F NOT DUP5 AND PUSH3 0x52D DUP7 PUSH3 0x2E4 JUMP JUMPDEST PUSH0 JUMPDEST DUP3 DUP2 LT ISZERO PUSH3 0x556 JUMPI DUP5 DUP10 ADD MLOAD DUP3 SSTORE PUSH1 0x1 DUP3 ADD SWAP2 POP PUSH1 0x20 DUP6 ADD SWAP5 POP PUSH1 0x20 DUP2 ADD SWAP1 POP PUSH3 0x52F JUMP JUMPDEST DUP7 DUP4 LT ISZERO PUSH3 0x576 JUMPI DUP5 DUP10 ADD MLOAD PUSH3 0x572 PUSH1 0x1F DUP10 AND DUP3 PUSH3 0x46C JUMP JUMPDEST DUP4 SSTORE POP JUMPDEST PUSH1 0x1 PUSH1 0x2 DUP9 MUL ADD DUP9 SSTORE POP POP POP JUMPDEST POP POP POP POP POP POP JUMP JUMPDEST PUSH2 0x703 DUP1 PUSH3 0x599 PUSH0 CODECOPY PUSH0 RETURN INVALID PUSH1 0x80 PUSH1 0x40 MSTORE CALLVALUE DUP1 ISZERO PUSH2 0xF JUMPI PUSH0 DUP1 REVERT JUMPDEST POP PUSH1 0x4 CALLDATASIZE LT PUSH2 0x4A JUMPI PUSH0 CALLDATALOAD PUSH1 0xE0 SHR DUP1 PUSH4 0x781F5C9 EQ PUSH2 0x4E JUMPI DUP1 PUSH4 0x1DCD69EC EQ PUSH2 0x6C JUMPI DUP1 PUSH4 0x266CF109 EQ PUSH2 0x8A JUMPI DUP1 PUSH4 0x3E0A0099 EQ PUSH2 0xA8 JUMPI JUMPDEST PUSH0 DUP1 REVERT JUMPDEST PUSH2 0x56 PUSH2 0xC4 JUMP JUMPDEST PUSH1 0x40 MLOAD PUSH2 0x63 SWAP2 SWAP1 PUSH2 0x22F JUMP JUMPDEST PUSH1 0x40 MLOAD DUP1 SWAP2 SUB SWAP1 RETURN JUMPDEST PUSH2 0x74 PUSH2 0x101 JUMP JUMPDEST PUSH1 0x40 MLOAD PUSH2 0x81 SWAP2 SWAP1 PUSH2 0x267 JUMP JUMPDEST PUSH1 0x40 MLOAD DUP1 SWAP2 SUB SWAP1 RETURN JUMPDEST PUSH2 0x92 PUSH2 0x106 JUMP JUMPDEST PUSH1 0x40 MLOAD PUSH2 0x9F SWAP2 SWAP1 PUSH2 0x22F JUMP JUMPDEST PUSH1 0x40 MLOAD DUP1 SWAP2 SUB SWAP1 RETURN JUMPDEST PUSH2 0xC2 PUSH1 0x4 DUP1 CALLDATASIZE SUB DUP2 ADD SWAP1 PUSH2 0xBD SWAP2 SWAP1 PUSH2 0x3BD JUMP JUMPDEST PUSH2 0x192 JUMP JUMPDEST STOP JUMPDEST PUSH1 0x60 PUSH1 0x40 MLOAD DUP1 PUSH1 0x40 ADD PUSH1 0x40 MSTORE DUP1 PUSH1 0x6 DUP2 MSTORE PUSH1 0x20 ADD PUSH32 0x737472696E670000000000000000000000000000000000000000000000000000 DUP2 MSTORE POP SWAP1 POP SWAP1 JUMP JUMPDEST PUSH0 SLOAD DUP2 JUMP JUMPDEST PUSH1 0x1 DUP1 SLOAD PUSH2 0x113 SWAP1 PUSH2 0x431 JUMP JUMPDEST DUP1 PUSH1 0x1F ADD PUSH1 0x20 DUP1 SWAP2 DIV MUL PUSH1 0x20 ADD PUSH1 0x40 MLOAD SWAP1 DUP2 ADD PUSH1 0x40 MSTORE DUP1 SWAP3 SWAP2 SWAP1 DUP2 DUP2 MSTORE PUSH1 0x20 ADD DUP3 DUP1 SLOAD PUSH2 0x13F SWAP1 PUSH2 0x431 JUMP JUMPDEST DUP1 ISZERO PUSH2 0x18A JUMPI DUP1 PUSH1 0x1F LT PUSH2 0x161 JUMPI PUSH2 0x100 DUP1 DUP4 SLOAD DIV MUL DUP4 MSTORE SWAP2 PUSH1 0x20 ADD SWAP2 PUSH2 0x18A JUMP JUMPDEST DUP3 ADD SWAP2 SWAP1 PUSH0 MSTORE PUSH1 0x20 PUSH0 KECCAK256 SWAP1 JUMPDEST DUP2 SLOAD DUP2 MSTORE SWAP1 PUSH1 0x1 ADD SWAP1 PUSH1 0x20 ADD DUP1 DUP4 GT PUSH2 0x16D JUMPI DUP3 SWAP1 SUB PUSH1 0x1F AND DUP3 ADD SWAP2 JUMPDEST POP POP POP POP POP DUP2 JUMP JUMPDEST DUP1 PUSH1 0x1 SWAP1 DUP2 PUSH2 0x1A1 SWAP2 SWAP1 PUSH2 0x5FE JUMP JUMPDEST POP POP JUMP JUMPDEST PUSH0 DUP2 MLOAD SWAP1 POP SWAP2 SWAP1 POP JUMP JUMPDEST PUSH0 DUP3 DUP3 MSTORE PUSH1 0x20 DUP3 ADD SWAP1 POP SWAP3 SWAP2 POP POP JUMP JUMPDEST PUSH0 JUMPDEST DUP4 DUP2 LT ISZERO PUSH2 0x1DC JUMPI DUP1 DUP3 ADD MLOAD DUP2 DUP5 ADD MSTORE PUSH1 0x20 DUP2 ADD SWAP1 POP PUSH2 0x1C1 JUMP JUMPDEST PUSH0 DUP5 DUP5 ADD MSTORE POP POP POP POP JUMP JUMPDEST PUSH0 PUSH1 0x1F NOT PUSH1 0x1F DUP4 ADD AND SWAP1 POP SWAP2 SWAP1 POP JUMP JUMPDEST PUSH0 PUSH2 0x201 DUP3 PUSH2 0x1A5 JUMP JUMPDEST PUSH2 0x20B DUP2 DUP6 PUSH2 0x1AF JUMP JUMPDEST SWAP4 POP PUSH2 0x21B DUP2 DUP6 PUSH1 0x20 DUP7 ADD PUSH2 0x1BF JUMP JUMPDEST PUSH2 0x224 DUP2 PUSH2 0x1E7 JUMP JUMPDEST DUP5 ADD SWAP2 POP POP SWAP3 SWAP2 POP POP JUMP JUMPDEST PUSH0 PUSH1 0x20 DUP3 ADD SWAP1 POP DUP2 DUP2 SUB PUSH0 DUP4 ADD MSTORE PUSH2 0x247 DUP2 DUP5 PUSH2 0x1F7 JUMP JUMPDEST SWAP1 POP SWAP3 SWAP2 POP POP JUMP JUMPDEST PUSH0 DUP2 SWAP1 POP SWAP2 SWAP1 POP JUMP JUMPDEST PUSH2 0x261 DUP2 PUSH2 0x24F JUMP JUMPDEST DUP3 MSTORE POP POP JUMP JUMPDEST PUSH0 PUSH1 0x20 DUP3 ADD SWAP1 POP PUSH2 0x27A PUSH0 DUP4 ADD DUP5 PUSH2 0x258 JUMP JUMPDEST SWAP3 SWAP2 POP POP JUMP JUMPDEST PUSH0 PUSH1 0x40 MLOAD SWAP1 POP SWAP1 JUMP JUMPDEST PUSH0 DUP1 REVERT JUMPDEST PUSH0 DUP1 REVERT JUMPDEST PUSH0 DUP1 REVERT JUMPDEST PUSH0 DUP1 REVERT JUMPDEST PUSH32 0x4E487B7100000000000000000000000000000000000000000000000000000000 PUSH0 MSTORE PUSH1 0x41 PUSH1 0x4 MSTORE PUSH1 0x24 PUSH0 REVERT JUMPDEST PUSH2 0x2CF DUP3 PUSH2 0x1E7 JUMP JUMPDEST DUP2 ADD DUP2 DUP2 LT PUSH8 0xFFFFFFFFFFFFFFFF DUP3 GT OR ISZERO PUSH2 0x2EE JUMPI PUSH2 0x2ED PUSH2 0x299 JUMP JUMPDEST JUMPDEST DUP1 PUSH1 0x40 MSTORE POP POP POP JUMP JUMPDEST PUSH0 PUSH2 0x300 PUSH2 0x280 JUMP JUMPDEST SWAP1 POP PUSH2 0x30C DUP3 DUP3 PUSH2 0x2C6 JUMP JUMPDEST SWAP2 SWAP1 POP JUMP JUMPDEST PUSH0 PUSH8 0xFFFFFFFFFFFFFFFF DUP3 GT ISZERO PUSH2 0x32B JUMPI PUSH2 0x32A PUSH2 0x299 JUMP JUMPDEST JUMPDEST PUSH2 0x334 DUP3 PUSH2 0x1E7 JUMP JUMPDEST SWAP1 POP PUSH1 0x20 DUP2 ADD SWAP1 POP SWAP2 SWAP1 POP JUMP JUMPDEST DUP3 DUP2 DUP4 CALLDATACOPY PUSH0 DUP4 DUP4 ADD MSTORE POP POP POP JUMP JUMPDEST PUSH0 PUSH2 0x361 PUSH2 0x35C DUP5 PUSH2 0x311 JUMP JUMPDEST PUSH2 0x2F7 JUMP JUMPDEST SWAP1 POP DUP3 DUP2 MSTORE PUSH1 0x20 DUP2 ADD DUP5 DUP5 DUP5 ADD GT ISZERO PUSH2 0x37D JUMPI PUSH2 0x37C PUSH2 0x295 JUMP JUMPDEST JUMPDEST PUSH2 0x388 DUP5 DUP3 DUP6 PUSH2 0x341 JUMP JUMPDEST POP SWAP4 SWAP3 POP POP POP JUMP JUMPDEST PUSH0 DUP3 PUSH1 0x1F DUP4 ADD SLT PUSH2 0x3A4 JUMPI PUSH2 0x3A3 PUSH2 0x291 JUMP JUMPDEST JUMPDEST DUP2 CALLDATALOAD PUSH2 0x3B4 DUP5 DUP3 PUSH1 0x20 DUP7 ADD PUSH2 0x34F JUMP JUMPDEST SWAP2 POP POP SWAP3 SWAP2 POP POP JUMP JUMPDEST PUSH0 PUSH1 0x20 DUP3 DUP5 SUB SLT ISZERO PUSH2 0x3D2 JUMPI PUSH2 0x3D1 PUSH2 0x289 JUMP JUMPDEST JUMPDEST PUSH0 DUP3 ADD CALLDATALOAD PUSH8 0xFFFFFFFFFFFFFFFF DUP2 GT ISZERO PUSH2 0x3EF JUMPI PUSH2 0x3EE PUSH2 0x28D JUMP JUMPDEST JUMPDEST PUSH2 0x3FB DUP5 DUP3 DUP6 ADD PUSH2 0x390 JUMP JUMPDEST SWAP2 POP POP SWAP3 SWAP2 POP POP JUMP JUMPDEST PUSH32 0x4E487B7100000000000000000000000000000000000000000000000000000000 PUSH0 MSTORE PUSH1 0x22 PUSH1 0x4 MSTORE PUSH1 0x24 PUSH0 REVERT JUMPDEST PUSH0 PUSH1 0x2 DUP3 DIV SWAP1 POP PUSH1 0x1 DUP3 AND DUP1 PUSH2 0x448 JUMPI PUSH1 0x7F DUP3 AND SWAP2 POP JUMPDEST PUSH1 0x20 DUP3 LT DUP2 SUB PUSH2 0x45B JUMPI PUSH2 0x45A PUSH2 0x404 JUMP JUMPDEST JUMPDEST POP SWAP2 SWAP1 POP JUMP JUMPDEST PUSH0 DUP2 SWAP1 POP DUP2 PUSH0 MSTORE PUSH1 0x20 PUSH0 KECCAK256 SWAP1 POP SWAP2 SWAP1 POP JUMP JUMPDEST PUSH0 PUSH1 0x20 PUSH1 0x1F DUP4 ADD DIV SWAP1 POP SWAP2 SWAP1 POP JUMP JUMPDEST PUSH0 DUP3 DUP3 SHL SWAP1 POP SWAP3 SWAP2 POP POP JUMP JUMPDEST PUSH0 PUSH1 0x8 DUP4 MUL PUSH2 0x4BD PUSH32 0xFFFFFFFFFFFFFFFFFFFFFFFFFFFFFFFFFFFFFFFFFFFFFFFFFFFFFFFFFFFFFFFF DUP3 PUSH2 0x482 JUMP JUMPDEST PUSH2 0x4C7 DUP7 DUP4 PUSH2 0x482 JUMP JUMPDEST SWAP6 POP DUP1 NOT DUP5 AND SWAP4 POP DUP1 DUP7 AND DUP5 OR SWAP3 POP POP POP SWAP4 SWAP3 POP POP POP JUMP JUMPDEST PUSH0 DUP2 SWAP1 POP SWAP2 SWAP1 POP JUMP JUMPDEST PUSH0 PUSH2 0x502 PUSH2 0x4FD PUSH2 0x4F8 DUP5 PUSH2 0x24F JUMP JUMPDEST PUSH2 0x4DF JUMP JUMPDEST PUSH2 0x24F JUMP JUMPDEST SWAP1 POP SWAP2 SWAP1 POP JUMP JUMPDEST PUSH0 DUP2 SWAP1 POP SWAP2 SWAP1 POP JUMP JUMPDEST PUSH2 0x51B DUP4 PUSH2 0x4E8 JUMP JUMPDEST PUSH2 0x52F PUSH2 0x527 DUP3 PUSH2 0x509 JUMP JUMPDEST DUP5 DUP5 SLOAD PUSH2 0x48E JUMP JUMPDEST DUP3 SSTORE POP POP POP POP JUMP JUMPDEST PUSH0 SWAP1 JUMP JUMPDEST PUSH2 0x543 PUSH2 0x537 JUMP JUMPDEST PUSH2 0x54E DUP2 DUP5 DUP5 PUSH2 0x512 JUMP JUMPDEST POP POP POP JUMP JUMPDEST JUMPDEST DUP2 DUP2 LT ISZERO PUSH2 0x571 JUMPI PUSH2 0x566 PUSH0 DUP3 PUSH2 0x53B JUMP JUMPDEST PUSH1 0x1 DUP2 ADD SWAP1 POP PUSH2 0x554 JUMP JUMPDEST POP POP JUMP JUMPDEST PUSH1 0x1F DUP3 GT ISZERO PUSH2 0x5B6 JUMPI PUSH2 0x587 DUP2 PUSH2 0x461 JUMP JUMPDEST PUSH2 0x590 DUP5 PUSH2 0x473 JUMP JUMPDEST DUP2 ADD PUSH1 0x20 DUP6 LT ISZERO PUSH2 0x59F JUMPI DUP2 SWAP1 POP JUMPDEST PUSH2 0x5B3 PUSH2 0x5AB DUP6 PUSH2 0x473 JUMP JUMPDEST DUP4 ADD DUP3 PUSH2 0x553 JUMP JUMPDEST POP POP JUMPDEST POP POP POP JUMP JUMPDEST PUSH0 DUP3 DUP3 SHR SWAP1 POP SWAP3 SWAP2 POP POP JUMP JUMPDEST PUSH0 PUSH2 0x5D6 PUSH0 NOT DUP5 PUSH1 0x8 MUL PUSH2 0x5BB JUMP JUMPDEST NOT DUP1 DUP4 AND SWAP2 POP POP SWAP3 SWAP2 POP POP JUMP JUMPDEST PUSH0 PUSH2 0x5EE DUP4 DUP4 PUSH2 0x5C7 JUMP JUMPDEST SWAP2 POP DUP3 PUSH1 0x2 MUL DUP3 OR SWAP1 POP SWAP3 SWAP2 POP POP JUMP JUMPDEST PUSH2 0x607 DUP3 PUSH2 0x1A5 JUMP JUMPDEST PUSH8 0xFFFFFFFFFFFFFFFF DUP2 GT ISZERO PUSH2 0x620 JUMPI PUSH2 0x61F PUSH2 0x299 JUMP JUMPDEST JUMPDEST PUSH2 0x62A DUP3 SLOAD PUSH2 0x431 JUMP JUMPDEST PUSH2 0x635 DUP3 DUP3 DUP6 PUSH2 0x575 JUMP JUMPDEST PUSH0 PUSH1 0x20 SWAP1 POP PUSH1 0x1F DUP4 GT PUSH1 0x1 DUP2 EQ PUSH2 0x666 JUMPI PUSH0 DUP5 ISZERO PUSH2 0x654 JUMPI DUP3 DUP8 ADD MLOAD SWAP1 POP JUMPDEST PUSH2 0x65E DUP6 DUP3 PUSH2 0x5E3 JUMP JUMPDEST DUP7 SSTORE POP PUSH2 0x6C5 JUMP JUMPDEST PUSH1 0x1F NOT DUP5 AND PUSH2 0x674 DUP7 PUSH2 0x461 JUMP JUMPDEST PUSH0 JUMPDEST DUP3 DUP2 LT ISZERO PUSH2 0x69B JUMPI DUP5 DUP10 ADD MLOAD DUP3 SSTORE PUSH1 0x1 DUP3 ADD SWAP2 POP PUSH1 0x20 DUP6 ADD SWAP5 POP PUSH1 0x20 DUP2 ADD SWAP1 POP PUSH2 0x676 JUMP JUMPDEST DUP7 DUP4 LT ISZERO PUSH2 0x6B8 JUMPI DUP5 DUP10 ADD MLOAD PUSH2 0x6B4 PUSH1 0x1F DUP10 AND DUP3 PUSH2 0x5C7 JUMP JUMPDEST DUP4 SSTORE POP JUMPDEST PUSH1 0x1 PUSH1 0x2 DUP9 MUL ADD DUP9 SSTORE POP POP POP JUMPDEST POP POP POP POP POP POP JUMP INVALID LOG2 PUSH5 0x6970667358 0x22 SLT KECCAK256 OR 0xAE 0xE8 DUP3 0xC6 0xE2 0xB6 0xCF DUP13 0xE0 SAR PUSH29 0xF6530A527BA278B97CEF6AA88971527C65CDAC6964736F6C6343000816 STOP CALLER PUSH1 0x80 PUSH1 0x40 MSTORE CALLVALUE DUP1 ISZERO PUSH2 0xF JUMPI PUSH0 DUP1 REVERT JUMPDEST POP PUSH1 0x40 MLOAD PUSH2 0x48C CODESIZE SUB DUP1 PUSH2 0x48C DUP4 CODECOPY DUP2 DUP2 ADD PUSH1 0x40 MSTORE DUP2 ADD SWAP1 PUSH2 0x31 SWAP2 SWAP1 PUSH2 0x111 JUMP JUMPDEST DUP2 DUP1 PUSH0 DUP2 SWAP1 SSTORE POP POP DUP1 PUSH1 0x1 PUSH0 PUSH2 0x100 EXP DUP2 SLOAD DUP2 PUSH20 0xFFFFFFFFFFFFFFFFFFFFFFFFFFFFFFFFFFFFFFFF MUL NOT AND SWAP1 DUP4 PUSH20 0xFFFFFFFFFFFFFFFFFFFFFFFFFFFFFFFFFFFFFFFF AND MUL OR SWAP1 SSTORE POP POP POP PUSH2 0x14F JUMP JUMPDEST PUSH0 DUP1 REVERT JUMPDEST PUSH0 DUP2 SWAP1 POP SWAP2 SWAP1 POP JUMP JUMPDEST PUSH2 0x96 DUP2 PUSH2 0x84 JUMP JUMPDEST DUP2 EQ PUSH2 0xA0 JUMPI PUSH0 DUP1 REVERT JUMPDEST POP JUMP JUMPDEST PUSH0 DUP2 MLOAD SWAP1 POP PUSH2 0xB1 DUP2 PUSH2 0x8D JUMP JUMPDEST SWAP3 SWAP2 POP POP JUMP JUMPDEST PUSH0 PUSH20 0xFFFFFFFFFFFFFFFFFFFFFFFFFFFFFFFFFFFFFFFF DUP3 AND SWAP1 POP SWAP2 SWAP1 POP JUMP JUMPDEST PUSH0 PUSH2 0xE0 DUP3 PUSH2 0xB7 JUMP JUMPDEST SWAP1 POP SWAP2 SWAP1 POP JUMP JUMPDEST PUSH2 0xF0 DUP2 PUSH2 0xD6 JUMP JUMPDEST DUP2 EQ PUSH2 0xFA JUMPI PUSH0 DUP1 REVERT JUMPDEST POP JUMP JUMPDEST PUSH0 DUP2 MLOAD SWAP1 POP PUSH2 0x10B DUP2 PUSH2 0xE7 JUMP JUMPDEST SWAP3 SWAP2 POP POP JUMP JUMPDEST PUSH0 DUP1 PUSH1 0x40 DUP4 DUP6 SUB SLT ISZERO PUSH2 0x127 JUMPI PUSH2 0x126 PUSH2 0x80 JUMP JUMPDEST JUMPDEST PUSH0 PUSH2 0x134 DUP6 DUP3 DUP7 ADD PUSH2 0xA3 JUMP JUMPDEST SWAP3 POP POP PUSH1 0x20 PUSH2 0x145 DUP6 DUP3 DUP7 ADD PUSH2 0xFD JUMP JUMPDEST SWAP2 POP POP SWAP3 POP SWAP3 SWAP1 POP JUMP JUMPDEST PUSH2 0x330 DUP1 PUSH2 0x15C PUSH0 CODECOPY PUSH0 RETURN INVALID PUSH1 0x80 PUSH1 0x40 MSTORE CALLVALUE DUP1 ISZERO PUSH2 0xF JUMPI PUSH0 DUP1 REVERT JUMPDEST POP PUSH1 0x4 CALLDATASIZE LT PUSH2 0x4A JUMPI PUSH0 CALLDATALOAD PUSH1 0xE0 SHR DUP1 PUSH4 0x781F5C9 EQ PUSH2 0x4E JUMPI DUP1 PUSH4 0x1DCD69EC EQ PUSH2 0x6C JUMPI DUP1 PUSH4 0x266CF109 EQ PUSH2 0x8A JUMPI DUP1 PUSH4 0xC37787D9 EQ PUSH2 0xA8 JUMPI JUMPDEST PUSH0 DUP1 REVERT JUMPDEST PUSH2 0x56 PUSH2 0xC4 JUMP JUMPDEST PUSH1 0x40 MLOAD PUSH2 0x63 SWAP2 SWAP1 PUSH2 0x1F8 JUMP JUMPDEST PUSH1 0x40 MLOAD DUP1 SWAP2 SUB SWAP1 RETURN JUMPDEST PUSH2 0x74 PUSH2 0x101 JUMP JUMPDEST PUSH1 0x40 MLOAD PUSH2 0x81 SWAP2 SWAP1 PUSH2 0x230 JUMP JUMPDEST PUSH1 0x40 MLOAD DUP1 SWAP2 SUB SWAP1 RETURN JUMPDEST PUSH2 0x92 PUSH2 0x106 JUMP JUMPDEST PUSH1 0x40 MLOAD PUSH2 0x9F SWAP2 SWAP1 PUSH2 0x288 JUMP JUMPDEST PUSH1 0x40 MLOAD DUP1 SWAP2 SUB SWAP1 RETURN JUMPDEST PUSH2 0xC2 PUSH1 0x4 DUP1 CALLDATASIZE SUB DUP2 ADD SWAP1 PUSH2 0xBD SWAP2 SWAP1 PUSH2 0x2CF JUMP JUMPDEST PUSH2 0x12B JUMP JUMPDEST STOP JUMPDEST PUSH1 0x60 PUSH1 0x40 MLOAD DUP1 PUSH1 0x40 ADD PUSH1 0x40 MSTORE DUP1 PUSH1 0x7 DUP2 MSTORE PUSH1 0x20 ADD PUSH32 0x6164647265737300000000000000000000000000000000000000000000000000 DUP2 MSTORE POP SWAP1 POP SWAP1 JUMP JUMPDEST PUSH0 SLOAD DUP2 JUMP JUMPDEST PUSH1 0x1 PUSH0 SWAP1 SLOAD SWAP1 PUSH2 0x100 EXP SWAP1 DIV PUSH20 0xFFFFFFFFFFFFFFFFFFFFFFFFFFFFFFFFFFFFFFFF AND DUP2 JUMP JUMPDEST DUP1 PUSH1 0x1 PUSH0 PUSH2 0x100 EXP DUP2 SLOAD DUP2 PUSH20 0xFFFFFFFFFFFFFFFFFFFFFFFFFFFFFFFFFFFFFFFF MUL NOT AND SWAP1 DUP4 PUSH20 0xFFFFFFFFFFFFFFFFFFFFFFFFFFFFFFFFFFFFFFFF AND MUL OR SWAP1 SSTORE POP POP JUMP JUMPDEST PUSH0 DUP2 MLOAD SWAP1 POP SWAP2 SWAP1 POP JUMP JUMPDEST PUSH0 DUP3 DUP3 MSTORE PUSH1 0x20 DUP3 ADD SWAP1 POP SWAP3 SWAP2 POP POP JUMP JUMPDEST PUSH0 JUMPDEST DUP4 DUP2 LT ISZERO PUSH2 0x1A5 JUMPI DUP1 DUP3 ADD MLOAD DUP2 DUP5 ADD MSTORE PUSH1 0x20 DUP2 ADD SWAP1 POP PUSH2 0x18A JUMP JUMPDEST PUSH0 DUP5 DUP5 ADD MSTORE POP POP POP POP JUMP JUMPDEST PUSH0 PUSH1 0x1F NOT PUSH1 0x1F DUP4 ADD AND SWAP1 POP SWAP2 SWAP1 POP JUMP JUMPDEST PUSH0 PUSH2 0x1CA DUP3 PUSH2 0x16E JUMP JUMPDEST PUSH2 0x1D4 DUP2 DUP6 PUSH2 0x178 JUMP JUMPDEST SWAP4 POP PUSH2 0x1E4 DUP2 DUP6 PUSH1 0x20 DUP7 ADD PUSH2 0x188 JUMP JUMPDEST PUSH2 0x1ED DUP2 PUSH2 0x1B0 JUMP JUMPDEST DUP5 ADD SWAP2 POP POP SWAP3 SWAP2 POP POP JUMP JUMPDEST PUSH0 PUSH1 0x20 DUP3 ADD SWAP1 POP DUP2 DUP2 SUB PUSH0 DUP4 ADD MSTORE PUSH2 0x210 DUP2 DUP5 PUSH2 0x1C0 JUMP JUMPDEST SWAP1 POP SWAP3 SWAP2 POP POP JUMP JUMPDEST PUSH0 DUP2 SWAP1 POP SWAP2 SWAP1 POP JUMP JUMPDEST PUSH2 0x22A DUP2 PUSH2 0x218 JUMP JUMPDEST DUP3 MSTORE POP POP JUMP JUMPDEST PUSH0 PUSH1 0x20 DUP3 ADD SWAP1 POP PUSH2 0x243 PUSH0 DUP4 ADD DUP5 PUSH2 0x221 JUMP JUMPDEST SWAP3 SWAP2 POP POP JUMP JUMPDEST PUSH0 PUSH20 0xFFFFFFFFFFFFFFFFFFFFFFFFFFFFFFFFFFFFFFFF DUP3 AND SWAP1 POP SWAP2 SWAP1 POP JUMP JUMPDEST PUSH0 PUSH2 0x272 DUP3 PUSH2 0x249 JUMP JUMPDEST SWAP1 POP SWAP2 SWAP1 POP JUMP JUMPDEST PUSH2 0x282 DUP2 PUSH2 0x268 JUMP JUMPDEST DUP3 MSTORE POP POP JUMP JUMPDEST PUSH0 PUSH1 0x20 DUP3 ADD SWAP1 POP PUSH2 0x29B PUSH0 DUP4 ADD DUP5 PUSH2 0x279 JUMP JUMPDEST SWAP3 SWAP2 POP POP JUMP JUMPDEST PUSH0 DUP1 REVERT JUMPDEST PUSH2 0x2AE DUP2 PUSH2 0x268 JUMP JUMPDEST DUP2 EQ PUSH2 0x2B8 JUMPI PUSH0 DUP1 REVERT JUMPDEST POP JUMP JUMPDEST PUSH0 DUP2 CALLDATALOAD SWAP1 POP PUSH2 0x2C9 DUP2 PUSH2 0x2A5 JUMP JUMPDEST SWAP3 SWAP2 POP POP JUMP JUMPDEST PUSH0 PUSH1 0x20 DUP3 DUP5 SUB SLT ISZERO PUSH2 0x2E4 JUMPI PUSH2 0x2E3 PUSH2 0x2A1 JUMP JUMPDEST JUMPDEST PUSH0 PUSH2 0x2F1 DUP5 DUP3 DUP6 ADD PUSH2 0x2BB JUMP JUMPDEST SWAP2 POP POP SWAP3 SWAP2 POP POP JUMP INVALID LOG2 PUSH5 0x6970667358 0x22 SLT KECCAK256 SELFBALANCE 0x4C SGT 0x2C 0x1F SWAP1 DUP14 0xA6 DUP10 PUSH4 0x2D8BFCFF 0xDA JUMP 0xE1 SWAP7 RETURN SWAP12 0xDD DUP4 SDIV ADDRESS 0x26 DUP8 LT SWAP10 DUP14 0x5E 0xDA 0x4E PUSH5 0x736F6C6343 STOP ADDMOD AND STOP CALLER LOG2 PUSH5 0x6970667358 0x22 SLT KECCAK256 SHR 0xFB PUSH17 0x43425C3885567DFDAB61EAEBE18F7277B4 0xE 0xA8 0xA9 EXTCODESIZE 0xD6 0xED LT 0xD1 0xC3 SHL 0x27 SLOAD PUSH5 0x736F6C6343 STOP ADDMOD AND STOP CALLER "
				},
				"gasEstimates": {
					"creation": {
						"codeDepositCost": "1676400",
						"executionCost": "1755",
						"totalCost": "1678155"
					},
					"external": {
						"createAddressRecord(address)": "infinite",
						"createStringRecord(string)": "infinite",
						"getRecordAtIndex(uint256)": "infinite",
						"getRecordsCount()": "2440",
						"records(uint256)": "infinite"
					}
				},
				"methodIdentifiers": {
					"createAddressRecord(address)": "d05ce119",
					"createStringRecord(string)": "953d7e0c",
					"getRecordAtIndex(uint256)": "7bcd7fad",
					"getRecordsCount()": "505158bb",
					"records(uint256)": "34461067"
				}
			},
			"storageLayout": {
				"storage": [
					{
						"astId": 108,
						"contract": "Solidity/Hardhat/my-hardhat-project/contracts/RecordFactory.sol:RecordFactory",
						"label": "records",
						"offset": 0,
						"slot": "0",
						"type": "t_array(t_struct(RecordEntry)104_storage)dyn_storage"
					}
				],
				"types": {
					"t_address": {
						"encoding": "inplace",
						"label": "address",
						"numberOfBytes": "20"
					},
					"t_array(t_struct(RecordEntry)104_storage)dyn_storage": {
						"base": "t_struct(RecordEntry)104_storage",
						"encoding": "dynamic_array",
						"label": "struct RecordFactory.RecordEntry[]",
						"numberOfBytes": "32"
					},
					"t_string_storage": {
						"encoding": "bytes",
						"label": "string",
						"numberOfBytes": "32"
					},
					"t_struct(RecordEntry)104_storage": {
						"encoding": "inplace",
						"label": "struct RecordFactory.RecordEntry",
						"members": [
							{
								"astId": 99,
								"contract": "Solidity/Hardhat/my-hardhat-project/contracts/RecordFactory.sol:RecordFactory",
								"label": "timeOfCreation",
								"offset": 0,
								"slot": "0",
								"type": "t_uint256"
							},
							{
								"astId": 101,
								"contract": "Solidity/Hardhat/my-hardhat-project/contracts/RecordFactory.sol:RecordFactory",
								"label": "recordAddress",
								"offset": 0,
								"slot": "1",
								"type": "t_address"
							},
							{
								"astId": 103,
								"contract": "Solidity/Hardhat/my-hardhat-project/contracts/RecordFactory.sol:RecordFactory",
								"label": "recordType",
								"offset": 0,
								"slot": "2",
								"type": "t_string_storage"
							}
						],
						"numberOfBytes": "96"
					},
					"t_uint256": {
						"encoding": "inplace",
						"label": "uint256",
						"numberOfBytes": "32"
					}
				}
			},
			"userdoc": {
				"kind": "user",
				"methods": {},
				"version": 1
			}
		}
	}
}