{
	"practice junior/DataTypes.sol": {
		"DataTypes": {
			"abi": [
				{
					"inputs": [],
					"name": "cast",
					"outputs": [
						{
							"internalType": "uint112",
							"name": "",
							"type": "uint112"
						}
					],
					"stateMutability": "view",
					"type": "function"
				},
				{
					"inputs": [],
					"name": "dec",
					"outputs": [
						{
							"internalType": "uint256",
							"name": "",
							"type": "uint256"
						}
					],
					"stateMutability": "nonpayable",
					"type": "function"
				},
				{
					"inputs": [],
					"name": "firstBool",
					"outputs": [
						{
							"internalType": "bool",
							"name": "",
							"type": "bool"
						}
					],
					"stateMutability": "view",
					"type": "function"
				},
				{
					"inputs": [
						{
							"internalType": "address",
							"name": "_addr",
							"type": "address"
						}
					],
					"name": "get",
					"outputs": [
						{
							"internalType": "uint256",
							"name": "",
							"type": "uint256"
						}
					],
					"stateMutability": "view",
					"type": "function"
				},
				{
					"inputs": [
						{
							"internalType": "bool",
							"name": "argBool",
							"type": "bool"
						}
					],
					"name": "getBoolFour",
					"outputs": [
						{
							"internalType": "bool",
							"name": "",
							"type": "bool"
						}
					],
					"stateMutability": "view",
					"type": "function"
				},
				{
					"inputs": [
						{
							"internalType": "bool",
							"name": "argBool",
							"type": "bool"
						}
					],
					"name": "getBoolOne",
					"outputs": [
						{
							"internalType": "bool",
							"name": "check",
							"type": "bool"
						}
					],
					"stateMutability": "view",
					"type": "function"
				},
				{
					"inputs": [
						{
							"internalType": "bool",
							"name": "argBool",
							"type": "bool"
						}
					],
					"name": "getBoolThree",
					"outputs": [
						{
							"internalType": "bool",
							"name": "",
							"type": "bool"
						}
					],
					"stateMutability": "view",
					"type": "function"
				},
				{
					"inputs": [
						{
							"internalType": "bool",
							"name": "argBool",
							"type": "bool"
						}
					],
					"name": "getBoolTwo",
					"outputs": [
						{
							"internalType": "bool",
							"name": "",
							"type": "bool"
						}
					],
					"stateMutability": "view",
					"type": "function"
				},
				{
					"inputs": [
						{
							"internalType": "address",
							"name": "_addr1",
							"type": "address"
						},
						{
							"internalType": "uint256",
							"name": "_i",
							"type": "uint256"
						}
					],
					"name": "getNested",
					"outputs": [
						{
							"internalType": "bool",
							"name": "",
							"type": "bool"
						}
					],
					"stateMutability": "view",
					"type": "function"
				},
				{
					"inputs": [],
					"name": "inc",
					"outputs": [
						{
							"internalType": "uint256",
							"name": "",
							"type": "uint256"
						}
					],
					"stateMutability": "view",
					"type": "function"
				},
				{
					"inputs": [],
					"name": "maxVal",
					"outputs": [
						{
							"internalType": "uint8",
							"name": "",
							"type": "uint8"
						}
					],
					"stateMutability": "view",
					"type": "function"
				},
				{
					"inputs": [],
					"name": "myEther",
					"outputs": [
						{
							"internalType": "uint256",
							"name": "",
							"type": "uint256"
						}
					],
					"stateMutability": "view",
					"type": "function"
				},
				{
					"inputs": [
						{
							"internalType": "address",
							"name": "",
							"type": "address"
						}
					],
					"name": "myMap",
					"outputs": [
						{
							"internalType": "uint256",
							"name": "",
							"type": "uint256"
						}
					],
					"stateMutability": "view",
					"type": "function"
				},
				{
					"inputs": [],
					"name": "myNum",
					"outputs": [
						{
							"internalType": "uint256",
							"name": "",
							"type": "uint256"
						}
					],
					"stateMutability": "view",
					"type": "function"
				},
				{
					"inputs": [
						{
							"internalType": "address",
							"name": "",
							"type": "address"
						},
						{
							"internalType": "uint256",
							"name": "",
							"type": "uint256"
						}
					],
					"name": "nested",
					"outputs": [
						{
							"internalType": "bool",
							"name": "",
							"type": "bool"
						}
					],
					"stateMutability": "view",
					"type": "function"
				},
				{
					"inputs": [],
					"name": "overFlow",
					"outputs": [
						{
							"internalType": "uint256",
							"name": "",
							"type": "uint256"
						}
					],
					"stateMutability": "nonpayable",
					"type": "function"
				},
				{
					"inputs": [
						{
							"internalType": "address",
							"name": "_addr",
							"type": "address"
						}
					],
					"name": "remove",
					"outputs": [],
					"stateMutability": "nonpayable",
					"type": "function"
				},
				{
					"inputs": [
						{
							"internalType": "address",
							"name": "_addr",
							"type": "address"
						},
						{
							"internalType": "uint256",
							"name": "_i",
							"type": "uint256"
						}
					],
					"name": "set",
					"outputs": [],
					"stateMutability": "nonpayable",
					"type": "function"
				},
				{
					"inputs": [
						{
							"internalType": "address",
							"name": "_addr1",
							"type": "address"
						},
						{
							"internalType": "uint256",
							"name": "_i",
							"type": "uint256"
						},
						{
							"internalType": "bool",
							"name": "_boo",
							"type": "bool"
						}
					],
					"name": "setNested",
					"outputs": [],
					"stateMutability": "nonpayable",
					"type": "function"
				}
			],
			"devdoc": {
				"kind": "dev",
				"methods": {},
				"version": 1
			},
			"evm": {
				"assembly": "    /* \"practice junior/DataTypes.sol\":61:4230  contract DataTypes {... */\n  mstore(0x40, 0x80)\n    /* \"practice junior/DataTypes.sol\":147:151  true */\n  0x01\n    /* \"practice junior/DataTypes.sol\":121:151  bool private secondBool = true */\n  0x00\n  exp(0x0100, 0x01)\n  dup2\n  sload\n  dup2\n  0xff\n  mul\n  not\n  and\n  swap1\n  dup4\n  iszero\n  iszero\n  mul\n  or\n  swap1\n  sstore\n  pop\n    /* \"practice junior/DataTypes.sol\":244:247  255 */\n  0xff\n    /* \"practice junior/DataTypes.sol\":222:247  uint8 public maxVal = 255 */\n  0x00\n  exp(0x0100, 0x03)\n  dup2\n  sload\n  dup2\n  0xff\n  mul\n  not\n  and\n  swap1\n  dup4\n  0xff\n  and\n  mul\n  or\n  swap1\n  sstore\n  pop\n    /* \"practice junior/DataTypes.sol\":306:315  100 ether */\n  0x056bc75e2d63100000\n    /* \"practice junior/DataTypes.sol\":281:315  uint256 public myEther = 100 ether */\n  0x02\n  sstore\n    /* \"practice junior/DataTypes.sol\":61:4230  contract DataTypes {... */\n  callvalue\n  dup1\n  iszero\n  tag_1\n  jumpi\n  0x00\n  dup1\n  revert\ntag_1:\n  pop\n  dataSize(sub_0)\n  dup1\n  dataOffset(sub_0)\n  0x00\n  codecopy\n  0x00\n  return\nstop\n\nsub_0: assembly {\n        /* \"practice junior/DataTypes.sol\":61:4230  contract DataTypes {... */\n      mstore(0x40, 0x80)\n      callvalue\n      dup1\n      iszero\n      tag_1\n      jumpi\n      0x00\n      dup1\n      revert\n    tag_1:\n      pop\n      jumpi(tag_2, lt(calldatasize, 0x04))\n      shr(0xe0, calldataload(0x00))\n      dup1\n      0x88fc1738\n      gt\n      tag_22\n      jumpi\n      dup1\n      0xc2bc2efc\n      gt\n      tag_23\n      jumpi\n      dup1\n      0xc2bc2efc\n      eq\n      tag_17\n      jumpi\n      dup1\n      0xd4da005a\n      eq\n      tag_18\n      jumpi\n      dup1\n      0xd62a1209\n      eq\n      tag_19\n      jumpi\n      dup1\n      0xe5860d12\n      eq\n      tag_20\n      jumpi\n      dup1\n      0xf10a31a1\n      eq\n      tag_21\n      jumpi\n      jump(tag_2)\n    tag_23:\n      dup1\n      0x88fc1738\n      eq\n      tag_12\n      jumpi\n      dup1\n      0x96d373e5\n      eq\n      tag_13\n      jumpi\n      dup1\n      0xad40aa79\n      eq\n      tag_14\n      jumpi\n      dup1\n      0xb3bcfa82\n      eq\n      tag_15\n      jumpi\n      dup1\n      0xb8daa950\n      eq\n      tag_16\n      jumpi\n      jump(tag_2)\n    tag_22:\n      dup1\n      0x27cbd529\n      gt\n      tag_24\n      jumpi\n      dup1\n      0x27cbd529\n      eq\n      tag_7\n      jumpi\n      dup1\n      0x29092d0e\n      eq\n      tag_8\n      jumpi\n      dup1\n      0x371303c0\n      eq\n      tag_9\n      jumpi\n      dup1\n      0x3825d828\n      eq\n      tag_10\n      jumpi\n      dup1\n      0x836dea0b\n      eq\n      tag_11\n      jumpi\n      jump(tag_2)\n    tag_24:\n      dup1\n      0xd77e89\n      eq\n      tag_3\n      jumpi\n      dup1\n      0x02e93206\n      eq\n      tag_4\n      jumpi\n      dup1\n      0x14bd0a7b\n      eq\n      tag_5\n      jumpi\n      dup1\n      0x169b32c3\n      eq\n      tag_6\n      jumpi\n    tag_2:\n      0x00\n      dup1\n      revert\n        /* \"practice junior/DataTypes.sol\":1292:1420  function getBoolTwo(bool argBool) external view returns (bool) {     ... */\n    tag_3:\n      tag_25\n      0x04\n      dup1\n      calldatasize\n      sub\n      dup2\n      add\n      swap1\n      tag_26\n      swap2\n      swap1\n      tag_27\n      jump\t// in\n    tag_26:\n      tag_28\n      jump\t// in\n    tag_25:\n      mload(0x40)\n      tag_29\n      swap2\n      swap1\n      tag_30\n      jump\t// in\n    tag_29:\n      mload(0x40)\n      dup1\n      swap2\n      sub\n      swap1\n      return\n        /* \"practice junior/DataTypes.sol\":3769:4039  function getNested(address _addr1, uint _i) public view returns (bool) {... */\n    tag_4:\n      tag_31\n      0x04\n      dup1\n      calldatasize\n      sub\n      dup2\n      add\n      swap1\n      tag_32\n      swap2\n      swap1\n      tag_33\n      jump\t// in\n    tag_32:\n      tag_34\n      jump\t// in\n    tag_31:\n      mload(0x40)\n      tag_35\n      swap2\n      swap1\n      tag_30\n      jump\t// in\n    tag_35:\n      mload(0x40)\n      dup1\n      swap2\n      sub\n      swap1\n      return\n        /* \"practice junior/DataTypes.sol\":535:590  mapping(address => mapping(uint => bool)) public nested */\n    tag_5:\n      tag_36\n      0x04\n      dup1\n      calldatasize\n      sub\n      dup2\n      add\n      swap1\n      tag_37\n      swap2\n      swap1\n      tag_33\n      jump\t// in\n    tag_37:\n      tag_38\n      jump\t// in\n    tag_36:\n      mload(0x40)\n      tag_39\n      swap2\n      swap1\n      tag_30\n      jump\t// in\n    tag_39:\n      mload(0x40)\n      dup1\n      swap2\n      sub\n      swap1\n      return\n        /* \"practice junior/DataTypes.sol\":93:114  bool public firstBool */\n    tag_6:\n      tag_40\n      tag_41\n      jump\t// in\n    tag_40:\n      mload(0x40)\n      tag_42\n      swap2\n      swap1\n      tag_30\n      jump\t// in\n    tag_42:\n      mload(0x40)\n      dup1\n      swap2\n      sub\n      swap1\n      return\n        /* \"practice junior/DataTypes.sol\":428:465  mapping(address => uint) public myMap */\n    tag_7:\n      tag_43\n      0x04\n      dup1\n      calldatasize\n      sub\n      dup2\n      add\n      swap1\n      tag_44\n      swap2\n      swap1\n      tag_45\n      jump\t// in\n    tag_44:\n      tag_46\n      jump\t// in\n    tag_43:\n      mload(0x40)\n      tag_47\n      swap2\n      swap1\n      tag_48\n      jump\t// in\n    tag_47:\n      mload(0x40)\n      dup1\n      swap2\n      sub\n      swap1\n      return\n        /* \"practice junior/DataTypes.sol\":3621:3761  function remove(address _addr) public {... */\n    tag_8:\n      tag_49\n      0x04\n      dup1\n      calldatasize\n      sub\n      dup2\n      add\n      swap1\n      tag_50\n      swap2\n      swap1\n      tag_45\n      jump\t// in\n    tag_50:\n      tag_51\n      jump\t// in\n    tag_49:\n      stop\n        /* \"practice junior/DataTypes.sol\":2293:2388  function inc() external view returns (uint256) {     ... */\n    tag_9:\n      tag_52\n      tag_53\n      jump\t// in\n    tag_52:\n      mload(0x40)\n      tag_54\n      swap2\n      swap1\n      tag_48\n      jump\t// in\n    tag_54:\n      mload(0x40)\n      dup1\n      swap2\n      sub\n      swap1\n      return\n        /* \"practice junior/DataTypes.sol\":3467:3613  function set(address _addr, uint _i) public {... */\n    tag_10:\n      tag_55\n      0x04\n      dup1\n      calldatasize\n      sub\n      dup2\n      add\n      swap1\n      tag_56\n      swap2\n      swap1\n      tag_33\n      jump\t// in\n    tag_56:\n      tag_57\n      jump\t// in\n    tag_55:\n      stop\n        /* \"practice junior/DataTypes.sol\":281:315  uint256 public myEther = 100 ether */\n    tag_11:\n      tag_58\n      tag_59\n      jump\t// in\n    tag_58:\n      mload(0x40)\n      tag_60\n      swap2\n      swap1\n      tag_48\n      jump\t// in\n    tag_60:\n      mload(0x40)\n      dup1\n      swap2\n      sub\n      swap1\n      return\n        /* \"practice junior/DataTypes.sol\":2683:2779  function overFlow() external returns (uint256) {     ... */\n    tag_12:\n      tag_61\n      tag_62\n      jump\t// in\n    tag_61:\n      mload(0x40)\n      tag_63\n      swap2\n      swap1\n      tag_48\n      jump\t// in\n    tag_63:\n      mload(0x40)\n      dup1\n      swap2\n      sub\n      swap1\n      return\n        /* \"practice junior/DataTypes.sol\":3027:3120  function cast() external view returns (uint112) {     ... */\n    tag_13:\n      tag_64\n      tag_65\n      jump\t// in\n    tag_64:\n      mload(0x40)\n      tag_66\n      swap2\n      swap1\n      tag_67\n      jump\t// in\n    tag_66:\n      mload(0x40)\n      dup1\n      swap2\n      sub\n      swap1\n      return\n        /* \"practice junior/DataTypes.sol\":4047:4227  function setNested(address _addr1, uint _i, bool _boo) public {... */\n    tag_14:\n      tag_68\n      0x04\n      dup1\n      calldatasize\n      sub\n      dup2\n      add\n      swap1\n      tag_69\n      swap2\n      swap1\n      tag_70\n      jump\t// in\n    tag_69:\n      tag_71\n      jump\t// in\n    tag_68:\n      stop\n        /* \"practice junior/DataTypes.sol\":2470:2550  function dec() external returns (uint256) {     ... */\n    tag_15:\n      tag_72\n      tag_73\n      jump\t// in\n    tag_72:\n      mload(0x40)\n      tag_74\n      swap2\n      swap1\n      tag_48\n      jump\t// in\n    tag_74:\n      mload(0x40)\n      dup1\n      swap2\n      sub\n      swap1\n      return\n        /* \"practice junior/DataTypes.sol\":1644:1774  function getBoolThree(bool argBool) external view returns (bool) {     ... */\n    tag_16:\n      tag_75\n      0x04\n      dup1\n      calldatasize\n      sub\n      dup2\n      add\n      swap1\n      tag_76\n      swap2\n      swap1\n      tag_27\n      jump\t// in\n    tag_76:\n      tag_77\n      jump\t// in\n    tag_75:\n      mload(0x40)\n      tag_78\n      swap2\n      swap1\n      tag_30\n      jump\t// in\n    tag_78:\n      mload(0x40)\n      dup1\n      swap2\n      sub\n      swap1\n      return\n        /* \"practice junior/DataTypes.sol\":3208:3459  function get(address _addr) public view returns (uint) {... */\n    tag_17:\n      tag_79\n      0x04\n      dup1\n      calldatasize\n      sub\n      dup2\n      add\n      swap1\n      tag_80\n      swap2\n      swap1\n      tag_45\n      jump\t// in\n    tag_80:\n      tag_81\n      jump\t// in\n    tag_79:\n      mload(0x40)\n      tag_82\n      swap2\n      swap1\n      tag_48\n      jump\t// in\n    tag_82:\n      mload(0x40)\n      dup1\n      swap2\n      sub\n      swap1\n      return\n        /* \"practice junior/DataTypes.sol\":254:274  uint256 public myNum */\n    tag_18:\n      tag_83\n      tag_84\n      jump\t// in\n    tag_83:\n      mload(0x40)\n      tag_85\n      swap2\n      swap1\n      tag_48\n      jump\t// in\n    tag_85:\n      mload(0x40)\n      dup1\n      swap2\n      sub\n      swap1\n      return\n        /* \"practice junior/DataTypes.sol\":222:247  uint8 public maxVal = 255 */\n    tag_19:\n      tag_86\n      tag_87\n      jump\t// in\n    tag_86:\n      mload(0x40)\n      tag_88\n      swap2\n      swap1\n      tag_89\n      jump\t// in\n    tag_88:\n      mload(0x40)\n      dup1\n      swap2\n      sub\n      swap1\n      return\n        /* \"practice junior/DataTypes.sol\":2010:2139  function getBoolFour(bool argBool) external view returns (bool) {     ... */\n    tag_20:\n      tag_90\n      0x04\n      dup1\n      calldatasize\n      sub\n      dup2\n      add\n      swap1\n      tag_91\n      swap2\n      swap1\n      tag_27\n      jump\t// in\n    tag_91:\n      tag_92\n      jump\t// in\n    tag_90:\n      mload(0x40)\n      tag_93\n      swap2\n      swap1\n      tag_30\n      jump\t// in\n    tag_93:\n      mload(0x40)\n      dup1\n      swap2\n      sub\n      swap1\n      return\n        /* \"practice junior/DataTypes.sol\":861:1034  function getBoolOne(bool argBool) external view returns (bool check) {     ... */\n    tag_21:\n      tag_94\n      0x04\n      dup1\n      calldatasize\n      sub\n      dup2\n      add\n      swap1\n      tag_95\n      swap2\n      swap1\n      tag_27\n      jump\t// in\n    tag_95:\n      tag_96\n      jump\t// in\n    tag_94:\n      mload(0x40)\n      tag_97\n      swap2\n      swap1\n      tag_30\n      jump\t// in\n    tag_97:\n      mload(0x40)\n      dup1\n      swap2\n      sub\n      swap1\n      return\n        /* \"practice junior/DataTypes.sol\":1292:1420  function getBoolTwo(bool argBool) external view returns (bool) {     ... */\n    tag_28:\n        /* \"practice junior/DataTypes.sol\":1349:1353  bool */\n      0x00\n        /* \"practice junior/DataTypes.sol\":1390:1397  argBool */\n      dup2\n        /* \"practice junior/DataTypes.sol\":1377:1397  thirdBool != argBool */\n      iszero\n      iszero\n        /* \"practice junior/DataTypes.sol\":1377:1386  thirdBool */\n      0x00\n      0x02\n      swap1\n      sload\n      swap1\n      0x0100\n      exp\n      swap1\n      div\n      0xff\n      and\n        /* \"practice junior/DataTypes.sol\":1377:1397  thirdBool != argBool */\n      iszero\n      iszero\n      sub\n        /* \"practice junior/DataTypes.sol\":1377:1412  thirdBool != argBool ? true : false */\n      tag_99\n      jumpi\n        /* \"practice junior/DataTypes.sol\":1407:1412  false */\n      0x00\n        /* \"practice junior/DataTypes.sol\":1377:1412  thirdBool != argBool ? true : false */\n      jump(tag_100)\n    tag_99:\n        /* \"practice junior/DataTypes.sol\":1400:1404  true */\n      0x01\n        /* \"practice junior/DataTypes.sol\":1377:1412  thirdBool != argBool ? true : false */\n    tag_100:\n        /* \"practice junior/DataTypes.sol\":1370:1412  return thirdBool != argBool ? true : false */\n      swap1\n      pop\n        /* \"practice junior/DataTypes.sol\":1292:1420  function getBoolTwo(bool argBool) external view returns (bool) {     ... */\n      swap2\n      swap1\n      pop\n      jump\t// out\n        /* \"practice junior/DataTypes.sol\":3769:4039  function getNested(address _addr1, uint _i) public view returns (bool) {... */\n    tag_34:\n        /* \"practice junior/DataTypes.sol\":3834:3838  bool */\n      0x00\n        /* \"practice junior/DataTypes.sol\":4013:4019  nested */\n      0x04\n        /* \"practice junior/DataTypes.sol\":4013:4027  nested[_addr1] */\n      0x00\n        /* \"practice junior/DataTypes.sol\":4020:4026  _addr1 */\n      dup5\n        /* \"practice junior/DataTypes.sol\":4013:4027  nested[_addr1] */\n      0xffffffffffffffffffffffffffffffffffffffff\n      and\n      0xffffffffffffffffffffffffffffffffffffffff\n      and\n      dup2\n      mstore\n      0x20\n      add\n      swap1\n      dup2\n      mstore\n      0x20\n      add\n      0x00\n      keccak256\n        /* \"practice junior/DataTypes.sol\":4013:4031  nested[_addr1][_i] */\n      0x00\n        /* \"practice junior/DataTypes.sol\":4028:4030  _i */\n      dup4\n        /* \"practice junior/DataTypes.sol\":4013:4031  nested[_addr1][_i] */\n      dup2\n      mstore\n      0x20\n      add\n      swap1\n      dup2\n      mstore\n      0x20\n      add\n      0x00\n      keccak256\n      0x00\n      swap1\n      sload\n      swap1\n      0x0100\n      exp\n      swap1\n      div\n      0xff\n      and\n        /* \"practice junior/DataTypes.sol\":4006:4031  return nested[_addr1][_i] */\n      swap1\n      pop\n        /* \"practice junior/DataTypes.sol\":3769:4039  function getNested(address _addr1, uint _i) public view returns (bool) {... */\n      swap3\n      swap2\n      pop\n      pop\n      jump\t// out\n        /* \"practice junior/DataTypes.sol\":535:590  mapping(address => mapping(uint => bool)) public nested */\n    tag_38:\n      mstore(0x20, 0x04)\n      dup2\n      0x00\n      mstore\n      mstore(0x20, keccak256(0x00, 0x40))\n      dup1\n      0x00\n      mstore\n      keccak256(0x00, 0x40)\n      0x00\n      swap2\n      pop\n      swap2\n      pop\n      swap1\n      sload\n      swap1\n      0x0100\n      exp\n      swap1\n      div\n      0xff\n      and\n      dup2\n      jump\t// out\n        /* \"practice junior/DataTypes.sol\":93:114  bool public firstBool */\n    tag_41:\n      0x00\n      dup1\n      sload\n      swap1\n      0x0100\n      exp\n      swap1\n      div\n      0xff\n      and\n      dup2\n      jump\t// out\n        /* \"practice junior/DataTypes.sol\":428:465  mapping(address => uint) public myMap */\n    tag_46:\n      mstore(0x20, 0x03)\n      dup1\n      0x00\n      mstore\n      keccak256(0x00, 0x40)\n      0x00\n      swap2\n      pop\n      swap1\n      pop\n      sload\n      dup2\n      jump\t// out\n        /* \"practice junior/DataTypes.sol\":3621:3761  function remove(address _addr) public {... */\n    tag_51:\n        /* \"practice junior/DataTypes.sol\":3741:3746  myMap */\n      0x03\n        /* \"practice junior/DataTypes.sol\":3741:3753  myMap[_addr] */\n      0x00\n        /* \"practice junior/DataTypes.sol\":3747:3752  _addr */\n      dup3\n        /* \"practice junior/DataTypes.sol\":3741:3753  myMap[_addr] */\n      0xffffffffffffffffffffffffffffffffffffffff\n      and\n      0xffffffffffffffffffffffffffffffffffffffff\n      and\n      dup2\n      mstore\n      0x20\n      add\n      swap1\n      dup2\n      mstore\n      0x20\n      add\n      0x00\n      keccak256\n        /* \"practice junior/DataTypes.sol\":3734:3753  delete myMap[_addr] */\n      0x00\n      swap1\n      sstore\n        /* \"practice junior/DataTypes.sol\":3621:3761  function remove(address _addr) public {... */\n      pop\n      jump\t// out\n        /* \"practice junior/DataTypes.sol\":2293:2388  function inc() external view returns (uint256) {     ... */\n    tag_53:\n        /* \"practice junior/DataTypes.sol\":2331:2338  uint256 */\n      0x00\n        /* \"practice junior/DataTypes.sol\":2378:2380  10 */\n      0x0a\n        /* \"practice junior/DataTypes.sol\":213:215  32 */\n      0x20\n        /* \"practice junior/DataTypes.sol\":2363:2374  myNum+FIXED */\n      0xff\n      and\n        /* \"practice junior/DataTypes.sol\":2363:2368  myNum */\n      sload(0x01)\n        /* \"practice junior/DataTypes.sol\":2363:2374  myNum+FIXED */\n      tag_104\n      swap2\n      swap1\n      tag_105\n      jump\t// in\n    tag_104:\n        /* \"practice junior/DataTypes.sol\":2362:2380  (myNum+FIXED) * 10 */\n      tag_106\n      swap2\n      swap1\n      tag_107\n      jump\t// in\n    tag_106:\n        /* \"practice junior/DataTypes.sol\":2355:2380  return (myNum+FIXED) * 10 */\n      swap1\n      pop\n        /* \"practice junior/DataTypes.sol\":2293:2388  function inc() external view returns (uint256) {     ... */\n      swap1\n      jump\t// out\n        /* \"practice junior/DataTypes.sol\":3467:3613  function set(address _addr, uint _i) public {... */\n    tag_57:\n        /* \"practice junior/DataTypes.sol\":3603:3605  _i */\n      dup1\n        /* \"practice junior/DataTypes.sol\":3588:3593  myMap */\n      0x03\n        /* \"practice junior/DataTypes.sol\":3588:3600  myMap[_addr] */\n      0x00\n        /* \"practice junior/DataTypes.sol\":3594:3599  _addr */\n      dup5\n        /* \"practice junior/DataTypes.sol\":3588:3600  myMap[_addr] */\n      0xffffffffffffffffffffffffffffffffffffffff\n      and\n      0xffffffffffffffffffffffffffffffffffffffff\n      and\n      dup2\n      mstore\n      0x20\n      add\n      swap1\n      dup2\n      mstore\n      0x20\n      add\n      0x00\n      keccak256\n        /* \"practice junior/DataTypes.sol\":3588:3605  myMap[_addr] = _i */\n      dup2\n      swap1\n      sstore\n      pop\n        /* \"practice junior/DataTypes.sol\":3467:3613  function set(address _addr, uint _i) public {... */\n      pop\n      pop\n      jump\t// out\n        /* \"practice junior/DataTypes.sol\":281:315  uint256 public myEther = 100 ether */\n    tag_59:\n      sload(0x02)\n      dup2\n      jump\t// out\n        /* \"practice junior/DataTypes.sol\":2683:2779  function overFlow() external returns (uint256) {     ... */\n    tag_62:\n        /* \"practice junior/DataTypes.sol\":2721:2728  uint256 */\n      0x00\n        /* \"practice junior/DataTypes.sol\":2770:2771  1 */\n      0x01\n        /* \"practice junior/DataTypes.sol\":2761:2767  maxVal */\n      0x00\n      0x03\n      swap1\n      sload\n      swap1\n      0x0100\n      exp\n      swap1\n      div\n      0xff\n      and\n        /* \"practice junior/DataTypes.sol\":2761:2771  maxVal + 1 */\n      tag_110\n      swap2\n      swap1\n      tag_111\n      jump\t// in\n    tag_110:\n        /* \"practice junior/DataTypes.sol\":2752:2758  maxVal */\n      0x00\n      0x03\n        /* \"practice junior/DataTypes.sol\":2752:2771  maxVal = maxVal + 1 */\n      0x0100\n      exp\n      dup2\n      sload\n      dup2\n      0xff\n      mul\n      not\n      and\n      swap1\n      dup4\n      0xff\n      and\n      mul\n      or\n      swap1\n      sstore\n        /* \"practice junior/DataTypes.sol\":2745:2771  return maxVal = maxVal + 1 */\n      0xff\n      and\n      swap1\n      pop\n        /* \"practice junior/DataTypes.sol\":2683:2779  function overFlow() external returns (uint256) {     ... */\n      swap1\n      jump\t// out\n        /* \"practice junior/DataTypes.sol\":3027:3120  function cast() external view returns (uint112) {     ... */\n    tag_65:\n        /* \"practice junior/DataTypes.sol\":3066:3073  uint112 */\n      0x00\n        /* \"practice junior/DataTypes.sol\":3104:3111  myEther */\n      sload(0x02)\n        /* \"practice junior/DataTypes.sol\":3090:3112  return uint64(myEther) */\n      0xffffffffffffffff\n      and\n      swap1\n      pop\n        /* \"practice junior/DataTypes.sol\":3027:3120  function cast() external view returns (uint112) {     ... */\n      swap1\n      jump\t// out\n        /* \"practice junior/DataTypes.sol\":4047:4227  function setNested(address _addr1, uint _i, bool _boo) public {... */\n    tag_71:\n        /* \"practice junior/DataTypes.sol\":4215:4219  _boo */\n      dup1\n        /* \"practice junior/DataTypes.sol\":4194:4200  nested */\n      0x04\n        /* \"practice junior/DataTypes.sol\":4194:4208  nested[_addr1] */\n      0x00\n        /* \"practice junior/DataTypes.sol\":4201:4207  _addr1 */\n      dup6\n        /* \"practice junior/DataTypes.sol\":4194:4208  nested[_addr1] */\n      0xffffffffffffffffffffffffffffffffffffffff\n      and\n      0xffffffffffffffffffffffffffffffffffffffff\n      and\n      dup2\n      mstore\n      0x20\n      add\n      swap1\n      dup2\n      mstore\n      0x20\n      add\n      0x00\n      keccak256\n        /* \"practice junior/DataTypes.sol\":4194:4212  nested[_addr1][_i] */\n      0x00\n        /* \"practice junior/DataTypes.sol\":4209:4211  _i */\n      dup5\n        /* \"practice junior/DataTypes.sol\":4194:4212  nested[_addr1][_i] */\n      dup2\n      mstore\n      0x20\n      add\n      swap1\n      dup2\n      mstore\n      0x20\n      add\n      0x00\n      keccak256\n      0x00\n        /* \"practice junior/DataTypes.sol\":4194:4219  nested[_addr1][_i] = _boo */\n      0x0100\n      exp\n      dup2\n      sload\n      dup2\n      0xff\n      mul\n      not\n      and\n      swap1\n      dup4\n      iszero\n      iszero\n      mul\n      or\n      swap1\n      sstore\n      pop\n        /* \"practice junior/DataTypes.sol\":4047:4227  function setNested(address _addr1, uint _i, bool _boo) public {... */\n      pop\n      pop\n      pop\n      jump\t// out\n        /* \"practice junior/DataTypes.sol\":2470:2550  function dec() external returns (uint256) {     ... */\n    tag_73:\n        /* \"practice junior/DataTypes.sol\":2503:2510  uint256 */\n      0x00\n        /* \"practice junior/DataTypes.sol\":2536:2542  maxVal */\n      dup1\n      0x03\n        /* \"practice junior/DataTypes.sol\":2534:2542  --maxVal */\n      dup2\n      dup2\n      swap1\n      sload\n      swap1\n      0x0100\n      exp\n      swap1\n      div\n      0xff\n      and\n      tag_115\n      swap1\n      tag_116\n      jump\t// in\n    tag_115:\n      swap2\n      swap1\n      0x0100\n      exp\n      dup2\n      sload\n      dup2\n      0xff\n      mul\n      not\n      and\n      swap1\n      dup4\n      0xff\n      and\n      mul\n      or\n      swap1\n      sstore\n        /* \"practice junior/DataTypes.sol\":2527:2542  return --maxVal */\n      0xff\n      and\n      swap1\n      pop\n        /* \"practice junior/DataTypes.sol\":2470:2550  function dec() external returns (uint256) {     ... */\n      swap1\n      jump\t// out\n        /* \"practice junior/DataTypes.sol\":1644:1774  function getBoolThree(bool argBool) external view returns (bool) {     ... */\n    tag_77:\n        /* \"practice junior/DataTypes.sol\":1703:1707  bool */\n      0x00\n        /* \"practice junior/DataTypes.sol\":1731:1740  firstBool */\n      dup1\n      0x00\n      swap1\n      sload\n      swap1\n      0x0100\n      exp\n      swap1\n      div\n      0xff\n      and\n        /* \"practice junior/DataTypes.sol\":1731:1751  firstBool && argBool */\n      dup1\n      iszero\n      tag_118\n      jumpi\n      pop\n        /* \"practice junior/DataTypes.sol\":1744:1751  argBool */\n      dup2\n        /* \"practice junior/DataTypes.sol\":1731:1751  firstBool && argBool */\n    tag_118:\n        /* \"practice junior/DataTypes.sol\":1731:1766  firstBool && argBool ? true : false */\n      tag_119\n      jumpi\n        /* \"practice junior/DataTypes.sol\":1761:1766  false */\n      0x00\n        /* \"practice junior/DataTypes.sol\":1731:1766  firstBool && argBool ? true : false */\n      jump(tag_120)\n    tag_119:\n        /* \"practice junior/DataTypes.sol\":1754:1758  true */\n      0x01\n        /* \"practice junior/DataTypes.sol\":1731:1766  firstBool && argBool ? true : false */\n    tag_120:\n        /* \"practice junior/DataTypes.sol\":1724:1766  return firstBool && argBool ? true : false */\n      swap1\n      pop\n        /* \"practice junior/DataTypes.sol\":1644:1774  function getBoolThree(bool argBool) external view returns (bool) {     ... */\n      swap2\n      swap1\n      pop\n      jump\t// out\n        /* \"practice junior/DataTypes.sol\":3208:3459  function get(address _addr) public view returns (uint) {... */\n    tag_81:\n        /* \"practice junior/DataTypes.sol\":3257:3261  uint */\n      0x00\n        /* \"practice junior/DataTypes.sol\":3439:3444  myMap */\n      0x03\n        /* \"practice junior/DataTypes.sol\":3439:3451  myMap[_addr] */\n      0x00\n        /* \"practice junior/DataTypes.sol\":3445:3450  _addr */\n      dup4\n        /* \"practice junior/DataTypes.sol\":3439:3451  myMap[_addr] */\n      0xffffffffffffffffffffffffffffffffffffffff\n      and\n      0xffffffffffffffffffffffffffffffffffffffff\n      and\n      dup2\n      mstore\n      0x20\n      add\n      swap1\n      dup2\n      mstore\n      0x20\n      add\n      0x00\n      keccak256\n      sload\n        /* \"practice junior/DataTypes.sol\":3432:3451  return myMap[_addr] */\n      swap1\n      pop\n        /* \"practice junior/DataTypes.sol\":3208:3459  function get(address _addr) public view returns (uint) {... */\n      swap2\n      swap1\n      pop\n      jump\t// out\n        /* \"practice junior/DataTypes.sol\":254:274  uint256 public myNum */\n    tag_84:\n      sload(0x01)\n      dup2\n      jump\t// out\n        /* \"practice junior/DataTypes.sol\":222:247  uint8 public maxVal = 255 */\n    tag_87:\n      0x00\n      0x03\n      swap1\n      sload\n      swap1\n      0x0100\n      exp\n      swap1\n      div\n      0xff\n      and\n      dup2\n      jump\t// out\n        /* \"practice junior/DataTypes.sol\":2010:2139  function getBoolFour(bool argBool) external view returns (bool) {     ... */\n    tag_92:\n        /* \"practice junior/DataTypes.sol\":2068:2072  bool */\n      0x00\n        /* \"practice junior/DataTypes.sol\":2096:2105  firstBool */\n      dup1\n      0x00\n      swap1\n      sload\n      swap1\n      0x0100\n      exp\n      swap1\n      div\n      0xff\n      and\n        /* \"practice junior/DataTypes.sol\":2096:2116  firstBool || argBool */\n      dup1\n      tag_123\n      jumpi\n      pop\n        /* \"practice junior/DataTypes.sol\":2109:2116  argBool */\n      dup2\n        /* \"practice junior/DataTypes.sol\":2096:2116  firstBool || argBool */\n    tag_123:\n        /* \"practice junior/DataTypes.sol\":2096:2131  firstBool || argBool ? true : false */\n      tag_124\n      jumpi\n        /* \"practice junior/DataTypes.sol\":2126:2131  false */\n      0x00\n        /* \"practice junior/DataTypes.sol\":2096:2131  firstBool || argBool ? true : false */\n      jump(tag_125)\n    tag_124:\n        /* \"practice junior/DataTypes.sol\":2119:2123  true */\n      0x01\n        /* \"practice junior/DataTypes.sol\":2096:2131  firstBool || argBool ? true : false */\n    tag_125:\n        /* \"practice junior/DataTypes.sol\":2089:2131  return firstBool || argBool ? true : false */\n      swap1\n      pop\n        /* \"practice junior/DataTypes.sol\":2010:2139  function getBoolFour(bool argBool) external view returns (bool) {     ... */\n      swap2\n      swap1\n      pop\n      jump\t// out\n        /* \"practice junior/DataTypes.sol\":861:1034  function getBoolOne(bool argBool) external view returns (bool check) {     ... */\n    tag_96:\n        /* \"practice junior/DataTypes.sol\":918:928  bool check */\n      0x00\n        /* \"practice junior/DataTypes.sol\":965:972  argBool */\n      dup2\n        /* \"practice junior/DataTypes.sol\":952:972  firstBool == argBool */\n      iszero\n      iszero\n        /* \"practice junior/DataTypes.sol\":952:961  firstBool */\n      0x00\n      dup1\n      sload\n      swap1\n      0x0100\n      exp\n      swap1\n      div\n      0xff\n      and\n        /* \"practice junior/DataTypes.sol\":952:972  firstBool == argBool */\n      iszero\n      iszero\n      eq\n        /* \"practice junior/DataTypes.sol\":952:987  firstBool == argBool ? true : false */\n      tag_127\n      jumpi\n        /* \"practice junior/DataTypes.sol\":982:987  false */\n      0x00\n        /* \"practice junior/DataTypes.sol\":952:987  firstBool == argBool ? true : false */\n      jump(tag_128)\n    tag_127:\n        /* \"practice junior/DataTypes.sol\":975:979  true */\n      0x01\n        /* \"practice junior/DataTypes.sol\":952:987  firstBool == argBool ? true : false */\n    tag_128:\n        /* \"practice junior/DataTypes.sol\":945:987  return firstBool == argBool ? true : false */\n      swap1\n      pop\n        /* \"practice junior/DataTypes.sol\":861:1034  function getBoolOne(bool argBool) external view returns (bool check) {     ... */\n      swap2\n      swap1\n      pop\n      jump\t// out\n        /* \"#utility.yul\":88:205   */\n    tag_130:\n        /* \"#utility.yul\":197:198   */\n      0x00\n        /* \"#utility.yul\":194:195   */\n      dup1\n        /* \"#utility.yul\":187:199   */\n      revert\n        /* \"#utility.yul\":334:424   */\n    tag_132:\n        /* \"#utility.yul\":368:375   */\n      0x00\n        /* \"#utility.yul\":411:416   */\n      dup2\n        /* \"#utility.yul\":404:417   */\n      iszero\n        /* \"#utility.yul\":397:418   */\n      iszero\n        /* \"#utility.yul\":386:418   */\n      swap1\n      pop\n        /* \"#utility.yul\":334:424   */\n      swap2\n      swap1\n      pop\n      jump\t// out\n        /* \"#utility.yul\":430:546   */\n    tag_133:\n        /* \"#utility.yul\":500:521   */\n      tag_155\n        /* \"#utility.yul\":515:520   */\n      dup2\n        /* \"#utility.yul\":500:521   */\n      tag_132\n      jump\t// in\n    tag_155:\n        /* \"#utility.yul\":493:498   */\n      dup2\n        /* \"#utility.yul\":490:522   */\n      eq\n        /* \"#utility.yul\":480:540   */\n      tag_156\n      jumpi\n        /* \"#utility.yul\":536:537   */\n      0x00\n        /* \"#utility.yul\":533:534   */\n      dup1\n        /* \"#utility.yul\":526:538   */\n      revert\n        /* \"#utility.yul\":480:540   */\n    tag_156:\n        /* \"#utility.yul\":430:546   */\n      pop\n      jump\t// out\n        /* \"#utility.yul\":552:685   */\n    tag_134:\n        /* \"#utility.yul\":595:600   */\n      0x00\n        /* \"#utility.yul\":633:639   */\n      dup2\n        /* \"#utility.yul\":620:640   */\n      calldataload\n        /* \"#utility.yul\":611:640   */\n      swap1\n      pop\n        /* \"#utility.yul\":649:679   */\n      tag_158\n        /* \"#utility.yul\":673:678   */\n      dup2\n        /* \"#utility.yul\":649:679   */\n      tag_133\n      jump\t// in\n    tag_158:\n        /* \"#utility.yul\":552:685   */\n      swap3\n      swap2\n      pop\n      pop\n      jump\t// out\n        /* \"#utility.yul\":691:1014   */\n    tag_27:\n        /* \"#utility.yul\":747:753   */\n      0x00\n        /* \"#utility.yul\":796:798   */\n      0x20\n        /* \"#utility.yul\":784:793   */\n      dup3\n        /* \"#utility.yul\":775:782   */\n      dup5\n        /* \"#utility.yul\":771:794   */\n      sub\n        /* \"#utility.yul\":767:799   */\n      slt\n        /* \"#utility.yul\":764:883   */\n      iszero\n      tag_160\n      jumpi\n        /* \"#utility.yul\":802:881   */\n      tag_161\n      tag_130\n      jump\t// in\n    tag_161:\n        /* \"#utility.yul\":764:883   */\n    tag_160:\n        /* \"#utility.yul\":922:923   */\n      0x00\n        /* \"#utility.yul\":947:997   */\n      tag_162\n        /* \"#utility.yul\":989:996   */\n      dup5\n        /* \"#utility.yul\":980:986   */\n      dup3\n        /* \"#utility.yul\":969:978   */\n      dup6\n        /* \"#utility.yul\":965:987   */\n      add\n        /* \"#utility.yul\":947:997   */\n      tag_134\n      jump\t// in\n    tag_162:\n        /* \"#utility.yul\":937:997   */\n      swap2\n      pop\n        /* \"#utility.yul\":893:1007   */\n      pop\n        /* \"#utility.yul\":691:1014   */\n      swap3\n      swap2\n      pop\n      pop\n      jump\t// out\n        /* \"#utility.yul\":1020:1129   */\n    tag_135:\n        /* \"#utility.yul\":1101:1122   */\n      tag_164\n        /* \"#utility.yul\":1116:1121   */\n      dup2\n        /* \"#utility.yul\":1101:1122   */\n      tag_132\n      jump\t// in\n    tag_164:\n        /* \"#utility.yul\":1096:1099   */\n      dup3\n        /* \"#utility.yul\":1089:1123   */\n      mstore\n        /* \"#utility.yul\":1020:1129   */\n      pop\n      pop\n      jump\t// out\n        /* \"#utility.yul\":1135:1345   */\n    tag_30:\n        /* \"#utility.yul\":1222:1226   */\n      0x00\n        /* \"#utility.yul\":1260:1262   */\n      0x20\n        /* \"#utility.yul\":1249:1258   */\n      dup3\n        /* \"#utility.yul\":1245:1263   */\n      add\n        /* \"#utility.yul\":1237:1263   */\n      swap1\n      pop\n        /* \"#utility.yul\":1273:1338   */\n      tag_166\n        /* \"#utility.yul\":1335:1336   */\n      0x00\n        /* \"#utility.yul\":1324:1333   */\n      dup4\n        /* \"#utility.yul\":1320:1337   */\n      add\n        /* \"#utility.yul\":1311:1317   */\n      dup5\n        /* \"#utility.yul\":1273:1338   */\n      tag_135\n      jump\t// in\n    tag_166:\n        /* \"#utility.yul\":1135:1345   */\n      swap3\n      swap2\n      pop\n      pop\n      jump\t// out\n        /* \"#utility.yul\":1351:1477   */\n    tag_136:\n        /* \"#utility.yul\":1388:1395   */\n      0x00\n        /* \"#utility.yul\":1428:1470   */\n      0xffffffffffffffffffffffffffffffffffffffff\n        /* \"#utility.yul\":1421:1426   */\n      dup3\n        /* \"#utility.yul\":1417:1471   */\n      and\n        /* \"#utility.yul\":1406:1471   */\n      swap1\n      pop\n        /* \"#utility.yul\":1351:1477   */\n      swap2\n      swap1\n      pop\n      jump\t// out\n        /* \"#utility.yul\":1483:1579   */\n    tag_137:\n        /* \"#utility.yul\":1520:1527   */\n      0x00\n        /* \"#utility.yul\":1549:1573   */\n      tag_169\n        /* \"#utility.yul\":1567:1572   */\n      dup3\n        /* \"#utility.yul\":1549:1573   */\n      tag_136\n      jump\t// in\n    tag_169:\n        /* \"#utility.yul\":1538:1573   */\n      swap1\n      pop\n        /* \"#utility.yul\":1483:1579   */\n      swap2\n      swap1\n      pop\n      jump\t// out\n        /* \"#utility.yul\":1585:1707   */\n    tag_138:\n        /* \"#utility.yul\":1658:1682   */\n      tag_171\n        /* \"#utility.yul\":1676:1681   */\n      dup2\n        /* \"#utility.yul\":1658:1682   */\n      tag_137\n      jump\t// in\n    tag_171:\n        /* \"#utility.yul\":1651:1656   */\n      dup2\n        /* \"#utility.yul\":1648:1683   */\n      eq\n        /* \"#utility.yul\":1638:1701   */\n      tag_172\n      jumpi\n        /* \"#utility.yul\":1697:1698   */\n      0x00\n        /* \"#utility.yul\":1694:1695   */\n      dup1\n        /* \"#utility.yul\":1687:1699   */\n      revert\n        /* \"#utility.yul\":1638:1701   */\n    tag_172:\n        /* \"#utility.yul\":1585:1707   */\n      pop\n      jump\t// out\n        /* \"#utility.yul\":1713:1852   */\n    tag_139:\n        /* \"#utility.yul\":1759:1764   */\n      0x00\n        /* \"#utility.yul\":1797:1803   */\n      dup2\n        /* \"#utility.yul\":1784:1804   */\n      calldataload\n        /* \"#utility.yul\":1775:1804   */\n      swap1\n      pop\n        /* \"#utility.yul\":1813:1846   */\n      tag_174\n        /* \"#utility.yul\":1840:1845   */\n      dup2\n        /* \"#utility.yul\":1813:1846   */\n      tag_138\n      jump\t// in\n    tag_174:\n        /* \"#utility.yul\":1713:1852   */\n      swap3\n      swap2\n      pop\n      pop\n      jump\t// out\n        /* \"#utility.yul\":1858:1935   */\n    tag_140:\n        /* \"#utility.yul\":1895:1902   */\n      0x00\n        /* \"#utility.yul\":1924:1929   */\n      dup2\n        /* \"#utility.yul\":1913:1929   */\n      swap1\n      pop\n        /* \"#utility.yul\":1858:1935   */\n      swap2\n      swap1\n      pop\n      jump\t// out\n        /* \"#utility.yul\":1941:2063   */\n    tag_141:\n        /* \"#utility.yul\":2014:2038   */\n      tag_177\n        /* \"#utility.yul\":2032:2037   */\n      dup2\n        /* \"#utility.yul\":2014:2038   */\n      tag_140\n      jump\t// in\n    tag_177:\n        /* \"#utility.yul\":2007:2012   */\n      dup2\n        /* \"#utility.yul\":2004:2039   */\n      eq\n        /* \"#utility.yul\":1994:2057   */\n      tag_178\n      jumpi\n        /* \"#utility.yul\":2053:2054   */\n      0x00\n        /* \"#utility.yul\":2050:2051   */\n      dup1\n        /* \"#utility.yul\":2043:2055   */\n      revert\n        /* \"#utility.yul\":1994:2057   */\n    tag_178:\n        /* \"#utility.yul\":1941:2063   */\n      pop\n      jump\t// out\n        /* \"#utility.yul\":2069:2208   */\n    tag_142:\n        /* \"#utility.yul\":2115:2120   */\n      0x00\n        /* \"#utility.yul\":2153:2159   */\n      dup2\n        /* \"#utility.yul\":2140:2160   */\n      calldataload\n        /* \"#utility.yul\":2131:2160   */\n      swap1\n      pop\n        /* \"#utility.yul\":2169:2202   */\n      tag_180\n        /* \"#utility.yul\":2196:2201   */\n      dup2\n        /* \"#utility.yul\":2169:2202   */\n      tag_141\n      jump\t// in\n    tag_180:\n        /* \"#utility.yul\":2069:2208   */\n      swap3\n      swap2\n      pop\n      pop\n      jump\t// out\n        /* \"#utility.yul\":2214:2688   */\n    tag_33:\n        /* \"#utility.yul\":2282:2288   */\n      0x00\n        /* \"#utility.yul\":2290:2296   */\n      dup1\n        /* \"#utility.yul\":2339:2341   */\n      0x40\n        /* \"#utility.yul\":2327:2336   */\n      dup4\n        /* \"#utility.yul\":2318:2325   */\n      dup6\n        /* \"#utility.yul\":2314:2337   */\n      sub\n        /* \"#utility.yul\":2310:2342   */\n      slt\n        /* \"#utility.yul\":2307:2426   */\n      iszero\n      tag_182\n      jumpi\n        /* \"#utility.yul\":2345:2424   */\n      tag_183\n      tag_130\n      jump\t// in\n    tag_183:\n        /* \"#utility.yul\":2307:2426   */\n    tag_182:\n        /* \"#utility.yul\":2465:2466   */\n      0x00\n        /* \"#utility.yul\":2490:2543   */\n      tag_184\n        /* \"#utility.yul\":2535:2542   */\n      dup6\n        /* \"#utility.yul\":2526:2532   */\n      dup3\n        /* \"#utility.yul\":2515:2524   */\n      dup7\n        /* \"#utility.yul\":2511:2533   */\n      add\n        /* \"#utility.yul\":2490:2543   */\n      tag_139\n      jump\t// in\n    tag_184:\n        /* \"#utility.yul\":2480:2543   */\n      swap3\n      pop\n        /* \"#utility.yul\":2436:2553   */\n      pop\n        /* \"#utility.yul\":2592:2594   */\n      0x20\n        /* \"#utility.yul\":2618:2671   */\n      tag_185\n        /* \"#utility.yul\":2663:2670   */\n      dup6\n        /* \"#utility.yul\":2654:2660   */\n      dup3\n        /* \"#utility.yul\":2643:2652   */\n      dup7\n        /* \"#utility.yul\":2639:2661   */\n      add\n        /* \"#utility.yul\":2618:2671   */\n      tag_142\n      jump\t// in\n    tag_185:\n        /* \"#utility.yul\":2608:2671   */\n      swap2\n      pop\n        /* \"#utility.yul\":2563:2681   */\n      pop\n        /* \"#utility.yul\":2214:2688   */\n      swap3\n      pop\n      swap3\n      swap1\n      pop\n      jump\t// out\n        /* \"#utility.yul\":2694:3023   */\n    tag_45:\n        /* \"#utility.yul\":2753:2759   */\n      0x00\n        /* \"#utility.yul\":2802:2804   */\n      0x20\n        /* \"#utility.yul\":2790:2799   */\n      dup3\n        /* \"#utility.yul\":2781:2788   */\n      dup5\n        /* \"#utility.yul\":2777:2800   */\n      sub\n        /* \"#utility.yul\":2773:2805   */\n      slt\n        /* \"#utility.yul\":2770:2889   */\n      iszero\n      tag_187\n      jumpi\n        /* \"#utility.yul\":2808:2887   */\n      tag_188\n      tag_130\n      jump\t// in\n    tag_188:\n        /* \"#utility.yul\":2770:2889   */\n    tag_187:\n        /* \"#utility.yul\":2928:2929   */\n      0x00\n        /* \"#utility.yul\":2953:3006   */\n      tag_189\n        /* \"#utility.yul\":2998:3005   */\n      dup5\n        /* \"#utility.yul\":2989:2995   */\n      dup3\n        /* \"#utility.yul\":2978:2987   */\n      dup6\n        /* \"#utility.yul\":2974:2996   */\n      add\n        /* \"#utility.yul\":2953:3006   */\n      tag_139\n      jump\t// in\n    tag_189:\n        /* \"#utility.yul\":2943:3006   */\n      swap2\n      pop\n        /* \"#utility.yul\":2899:3016   */\n      pop\n        /* \"#utility.yul\":2694:3023   */\n      swap3\n      swap2\n      pop\n      pop\n      jump\t// out\n        /* \"#utility.yul\":3029:3147   */\n    tag_143:\n        /* \"#utility.yul\":3116:3140   */\n      tag_191\n        /* \"#utility.yul\":3134:3139   */\n      dup2\n        /* \"#utility.yul\":3116:3140   */\n      tag_140\n      jump\t// in\n    tag_191:\n        /* \"#utility.yul\":3111:3114   */\n      dup3\n        /* \"#utility.yul\":3104:3141   */\n      mstore\n        /* \"#utility.yul\":3029:3147   */\n      pop\n      pop\n      jump\t// out\n        /* \"#utility.yul\":3153:3375   */\n    tag_48:\n        /* \"#utility.yul\":3246:3250   */\n      0x00\n        /* \"#utility.yul\":3284:3286   */\n      0x20\n        /* \"#utility.yul\":3273:3282   */\n      dup3\n        /* \"#utility.yul\":3269:3287   */\n      add\n        /* \"#utility.yul\":3261:3287   */\n      swap1\n      pop\n        /* \"#utility.yul\":3297:3368   */\n      tag_193\n        /* \"#utility.yul\":3365:3366   */\n      0x00\n        /* \"#utility.yul\":3354:3363   */\n      dup4\n        /* \"#utility.yul\":3350:3367   */\n      add\n        /* \"#utility.yul\":3341:3347   */\n      dup5\n        /* \"#utility.yul\":3297:3368   */\n      tag_143\n      jump\t// in\n    tag_193:\n        /* \"#utility.yul\":3153:3375   */\n      swap3\n      swap2\n      pop\n      pop\n      jump\t// out\n        /* \"#utility.yul\":3381:3495   */\n    tag_144:\n        /* \"#utility.yul\":3418:3425   */\n      0x00\n        /* \"#utility.yul\":3458:3488   */\n      0xffffffffffffffffffffffffffff\n        /* \"#utility.yul\":3451:3456   */\n      dup3\n        /* \"#utility.yul\":3447:3489   */\n      and\n        /* \"#utility.yul\":3436:3489   */\n      swap1\n      pop\n        /* \"#utility.yul\":3381:3495   */\n      swap2\n      swap1\n      pop\n      jump\t// out\n        /* \"#utility.yul\":3501:3619   */\n    tag_145:\n        /* \"#utility.yul\":3588:3612   */\n      tag_196\n        /* \"#utility.yul\":3606:3611   */\n      dup2\n        /* \"#utility.yul\":3588:3612   */\n      tag_144\n      jump\t// in\n    tag_196:\n        /* \"#utility.yul\":3583:3586   */\n      dup3\n        /* \"#utility.yul\":3576:3613   */\n      mstore\n        /* \"#utility.yul\":3501:3619   */\n      pop\n      pop\n      jump\t// out\n        /* \"#utility.yul\":3625:3847   */\n    tag_67:\n        /* \"#utility.yul\":3718:3722   */\n      0x00\n        /* \"#utility.yul\":3756:3758   */\n      0x20\n        /* \"#utility.yul\":3745:3754   */\n      dup3\n        /* \"#utility.yul\":3741:3759   */\n      add\n        /* \"#utility.yul\":3733:3759   */\n      swap1\n      pop\n        /* \"#utility.yul\":3769:3840   */\n      tag_198\n        /* \"#utility.yul\":3837:3838   */\n      0x00\n        /* \"#utility.yul\":3826:3835   */\n      dup4\n        /* \"#utility.yul\":3822:3839   */\n      add\n        /* \"#utility.yul\":3813:3819   */\n      dup5\n        /* \"#utility.yul\":3769:3840   */\n      tag_145\n      jump\t// in\n    tag_198:\n        /* \"#utility.yul\":3625:3847   */\n      swap3\n      swap2\n      pop\n      pop\n      jump\t// out\n        /* \"#utility.yul\":3853:4466   */\n    tag_70:\n        /* \"#utility.yul\":3927:3933   */\n      0x00\n        /* \"#utility.yul\":3935:3941   */\n      dup1\n        /* \"#utility.yul\":3943:3949   */\n      0x00\n        /* \"#utility.yul\":3992:3994   */\n      0x60\n        /* \"#utility.yul\":3980:3989   */\n      dup5\n        /* \"#utility.yul\":3971:3978   */\n      dup7\n        /* \"#utility.yul\":3967:3990   */\n      sub\n        /* \"#utility.yul\":3963:3995   */\n      slt\n        /* \"#utility.yul\":3960:4079   */\n      iszero\n      tag_200\n      jumpi\n        /* \"#utility.yul\":3998:4077   */\n      tag_201\n      tag_130\n      jump\t// in\n    tag_201:\n        /* \"#utility.yul\":3960:4079   */\n    tag_200:\n        /* \"#utility.yul\":4118:4119   */\n      0x00\n        /* \"#utility.yul\":4143:4196   */\n      tag_202\n        /* \"#utility.yul\":4188:4195   */\n      dup7\n        /* \"#utility.yul\":4179:4185   */\n      dup3\n        /* \"#utility.yul\":4168:4177   */\n      dup8\n        /* \"#utility.yul\":4164:4186   */\n      add\n        /* \"#utility.yul\":4143:4196   */\n      tag_139\n      jump\t// in\n    tag_202:\n        /* \"#utility.yul\":4133:4196   */\n      swap4\n      pop\n        /* \"#utility.yul\":4089:4206   */\n      pop\n        /* \"#utility.yul\":4245:4247   */\n      0x20\n        /* \"#utility.yul\":4271:4324   */\n      tag_203\n        /* \"#utility.yul\":4316:4323   */\n      dup7\n        /* \"#utility.yul\":4307:4313   */\n      dup3\n        /* \"#utility.yul\":4296:4305   */\n      dup8\n        /* \"#utility.yul\":4292:4314   */\n      add\n        /* \"#utility.yul\":4271:4324   */\n      tag_142\n      jump\t// in\n    tag_203:\n        /* \"#utility.yul\":4261:4324   */\n      swap3\n      pop\n        /* \"#utility.yul\":4216:4334   */\n      pop\n        /* \"#utility.yul\":4373:4375   */\n      0x40\n        /* \"#utility.yul\":4399:4449   */\n      tag_204\n        /* \"#utility.yul\":4441:4448   */\n      dup7\n        /* \"#utility.yul\":4432:4438   */\n      dup3\n        /* \"#utility.yul\":4421:4430   */\n      dup8\n        /* \"#utility.yul\":4417:4439   */\n      add\n        /* \"#utility.yul\":4399:4449   */\n      tag_134\n      jump\t// in\n    tag_204:\n        /* \"#utility.yul\":4389:4449   */\n      swap2\n      pop\n        /* \"#utility.yul\":4344:4459   */\n      pop\n        /* \"#utility.yul\":3853:4466   */\n      swap3\n      pop\n      swap3\n      pop\n      swap3\n      jump\t// out\n        /* \"#utility.yul\":4472:4558   */\n    tag_146:\n        /* \"#utility.yul\":4507:4514   */\n      0x00\n        /* \"#utility.yul\":4547:4551   */\n      0xff\n        /* \"#utility.yul\":4540:4545   */\n      dup3\n        /* \"#utility.yul\":4536:4552   */\n      and\n        /* \"#utility.yul\":4525:4552   */\n      swap1\n      pop\n        /* \"#utility.yul\":4472:4558   */\n      swap2\n      swap1\n      pop\n      jump\t// out\n        /* \"#utility.yul\":4564:4676   */\n    tag_147:\n        /* \"#utility.yul\":4647:4669   */\n      tag_207\n        /* \"#utility.yul\":4663:4668   */\n      dup2\n        /* \"#utility.yul\":4647:4669   */\n      tag_146\n      jump\t// in\n    tag_207:\n        /* \"#utility.yul\":4642:4645   */\n      dup3\n        /* \"#utility.yul\":4635:4670   */\n      mstore\n        /* \"#utility.yul\":4564:4676   */\n      pop\n      pop\n      jump\t// out\n        /* \"#utility.yul\":4682:4896   */\n    tag_89:\n        /* \"#utility.yul\":4771:4775   */\n      0x00\n        /* \"#utility.yul\":4809:4811   */\n      0x20\n        /* \"#utility.yul\":4798:4807   */\n      dup3\n        /* \"#utility.yul\":4794:4812   */\n      add\n        /* \"#utility.yul\":4786:4812   */\n      swap1\n      pop\n        /* \"#utility.yul\":4822:4889   */\n      tag_209\n        /* \"#utility.yul\":4886:4887   */\n      0x00\n        /* \"#utility.yul\":4875:4884   */\n      dup4\n        /* \"#utility.yul\":4871:4888   */\n      add\n        /* \"#utility.yul\":4862:4868   */\n      dup5\n        /* \"#utility.yul\":4822:4889   */\n      tag_147\n      jump\t// in\n    tag_209:\n        /* \"#utility.yul\":4682:4896   */\n      swap3\n      swap2\n      pop\n      pop\n      jump\t// out\n        /* \"#utility.yul\":4902:5082   */\n    tag_148:\n        /* \"#utility.yul\":4950:5027   */\n      0x4e487b7100000000000000000000000000000000000000000000000000000000\n        /* \"#utility.yul\":4947:4948   */\n      0x00\n        /* \"#utility.yul\":4940:5028   */\n      mstore\n        /* \"#utility.yul\":5047:5051   */\n      0x11\n        /* \"#utility.yul\":5044:5045   */\n      0x04\n        /* \"#utility.yul\":5037:5052   */\n      mstore\n        /* \"#utility.yul\":5071:5075   */\n      0x24\n        /* \"#utility.yul\":5068:5069   */\n      0x00\n        /* \"#utility.yul\":5061:5076   */\n      revert\n        /* \"#utility.yul\":5088:5279   */\n    tag_105:\n        /* \"#utility.yul\":5128:5131   */\n      0x00\n        /* \"#utility.yul\":5147:5167   */\n      tag_212\n        /* \"#utility.yul\":5165:5166   */\n      dup3\n        /* \"#utility.yul\":5147:5167   */\n      tag_140\n      jump\t// in\n    tag_212:\n        /* \"#utility.yul\":5142:5167   */\n      swap2\n      pop\n        /* \"#utility.yul\":5181:5201   */\n      tag_213\n        /* \"#utility.yul\":5199:5200   */\n      dup4\n        /* \"#utility.yul\":5181:5201   */\n      tag_140\n      jump\t// in\n    tag_213:\n        /* \"#utility.yul\":5176:5201   */\n      swap3\n      pop\n        /* \"#utility.yul\":5224:5225   */\n      dup3\n        /* \"#utility.yul\":5221:5222   */\n      dup3\n        /* \"#utility.yul\":5217:5226   */\n      add\n        /* \"#utility.yul\":5210:5226   */\n      swap1\n      pop\n        /* \"#utility.yul\":5245:5248   */\n      dup1\n        /* \"#utility.yul\":5242:5243   */\n      dup3\n        /* \"#utility.yul\":5239:5249   */\n      gt\n        /* \"#utility.yul\":5236:5272   */\n      iszero\n      tag_214\n      jumpi\n        /* \"#utility.yul\":5252:5270   */\n      tag_215\n      tag_148\n      jump\t// in\n    tag_215:\n        /* \"#utility.yul\":5236:5272   */\n    tag_214:\n        /* \"#utility.yul\":5088:5279   */\n      swap3\n      swap2\n      pop\n      pop\n      jump\t// out\n        /* \"#utility.yul\":5285:5695   */\n    tag_107:\n        /* \"#utility.yul\":5325:5332   */\n      0x00\n        /* \"#utility.yul\":5348:5368   */\n      tag_217\n        /* \"#utility.yul\":5366:5367   */\n      dup3\n        /* \"#utility.yul\":5348:5368   */\n      tag_140\n      jump\t// in\n    tag_217:\n        /* \"#utility.yul\":5343:5368   */\n      swap2\n      pop\n        /* \"#utility.yul\":5382:5402   */\n      tag_218\n        /* \"#utility.yul\":5400:5401   */\n      dup4\n        /* \"#utility.yul\":5382:5402   */\n      tag_140\n      jump\t// in\n    tag_218:\n        /* \"#utility.yul\":5377:5402   */\n      swap3\n      pop\n        /* \"#utility.yul\":5437:5438   */\n      dup3\n        /* \"#utility.yul\":5434:5435   */\n      dup3\n        /* \"#utility.yul\":5430:5439   */\n      mul\n        /* \"#utility.yul\":5459:5489   */\n      tag_219\n        /* \"#utility.yul\":5477:5488   */\n      dup2\n        /* \"#utility.yul\":5459:5489   */\n      tag_140\n      jump\t// in\n    tag_219:\n        /* \"#utility.yul\":5448:5489   */\n      swap2\n      pop\n        /* \"#utility.yul\":5638:5639   */\n      dup3\n        /* \"#utility.yul\":5629:5636   */\n      dup3\n        /* \"#utility.yul\":5625:5640   */\n      div\n        /* \"#utility.yul\":5622:5623   */\n      dup5\n        /* \"#utility.yul\":5619:5641   */\n      eq\n        /* \"#utility.yul\":5599:5600   */\n      dup4\n        /* \"#utility.yul\":5592:5601   */\n      iszero\n        /* \"#utility.yul\":5572:5655   */\n      or\n        /* \"#utility.yul\":5549:5688   */\n      tag_220\n      jumpi\n        /* \"#utility.yul\":5668:5686   */\n      tag_221\n      tag_148\n      jump\t// in\n    tag_221:\n        /* \"#utility.yul\":5549:5688   */\n    tag_220:\n        /* \"#utility.yul\":5333:5695   */\n      pop\n        /* \"#utility.yul\":5285:5695   */\n      swap3\n      swap2\n      pop\n      pop\n      jump\t// out\n        /* \"#utility.yul\":5701:5889   */\n    tag_111:\n        /* \"#utility.yul\":5739:5742   */\n      0x00\n        /* \"#utility.yul\":5758:5776   */\n      tag_223\n        /* \"#utility.yul\":5774:5775   */\n      dup3\n        /* \"#utility.yul\":5758:5776   */\n      tag_146\n      jump\t// in\n    tag_223:\n        /* \"#utility.yul\":5753:5776   */\n      swap2\n      pop\n        /* \"#utility.yul\":5790:5808   */\n      tag_224\n        /* \"#utility.yul\":5806:5807   */\n      dup4\n        /* \"#utility.yul\":5790:5808   */\n      tag_146\n      jump\t// in\n    tag_224:\n        /* \"#utility.yul\":5785:5808   */\n      swap3\n      pop\n        /* \"#utility.yul\":5831:5832   */\n      dup3\n        /* \"#utility.yul\":5828:5829   */\n      dup3\n        /* \"#utility.yul\":5824:5833   */\n      add\n        /* \"#utility.yul\":5817:5833   */\n      swap1\n      pop\n        /* \"#utility.yul\":5854:5858   */\n      0xff\n        /* \"#utility.yul\":5849:5852   */\n      dup2\n        /* \"#utility.yul\":5846:5859   */\n      gt\n        /* \"#utility.yul\":5843:5882   */\n      iszero\n      tag_225\n      jumpi\n        /* \"#utility.yul\":5862:5880   */\n      tag_226\n      tag_148\n      jump\t// in\n    tag_226:\n        /* \"#utility.yul\":5843:5882   */\n    tag_225:\n        /* \"#utility.yul\":5701:5889   */\n      swap3\n      swap2\n      pop\n      pop\n      jump\t// out\n        /* \"#utility.yul\":5895:6062   */\n    tag_116:\n        /* \"#utility.yul\":5932:5935   */\n      0x00\n        /* \"#utility.yul\":5955:5977   */\n      tag_228\n        /* \"#utility.yul\":5971:5976   */\n      dup3\n        /* \"#utility.yul\":5955:5977   */\n      tag_146\n      jump\t// in\n    tag_228:\n        /* \"#utility.yul\":5946:5977   */\n      swap2\n      pop\n        /* \"#utility.yul\":5999:6003   */\n      0x00\n        /* \"#utility.yul\":5992:5997   */\n      dup3\n        /* \"#utility.yul\":5989:6004   */\n      sub\n        /* \"#utility.yul\":5986:6027   */\n      tag_229\n      jumpi\n        /* \"#utility.yul\":6007:6025   */\n      tag_230\n      tag_148\n      jump\t// in\n    tag_230:\n        /* \"#utility.yul\":5986:6027   */\n    tag_229:\n        /* \"#utility.yul\":6054:6055   */\n      0x01\n        /* \"#utility.yul\":6047:6052   */\n      dup3\n        /* \"#utility.yul\":6043:6056   */\n      sub\n        /* \"#utility.yul\":6036:6056   */\n      swap1\n      pop\n        /* \"#utility.yul\":5895:6062   */\n      swap2\n      swap1\n      pop\n      jump\t// out\n\n    auxdata: 0xa2646970667358221220b08b9bf456640a41f4aaf761193cf764eac203b4055de165c276b803fe9e504e64736f6c63430008160033\n}\n",
				"bytecode": {
					"linkReferences": {},
					"object": "608060405260015f60016101000a81548160ff02191690831515021790555060ff5f60036101000a81548160ff021916908360ff16021790555068056bc75e2d63100000600255348015610051575f80fd5b50610ae38061005f5f395ff3fe608060405234801561000f575f80fd5b506004361061011e575f3560e01c806388fc1738116100ab578063c2bc2efc1161006f578063c2bc2efc1461031a578063d4da005a1461034a578063d62a120914610368578063e5860d1214610386578063f10a31a1146103b65761011e565b806388fc17381461027457806396d373e514610292578063ad40aa79146102b0578063b3bcfa82146102cc578063b8daa950146102ea5761011e565b806327cbd529116100f257806327cbd529146101d057806329092d0e14610200578063371303c01461021c5780633825d8281461023a578063836dea0b146102565761011e565b8062d77e891461012257806302e932061461015257806314bd0a7b14610182578063169b32c3146101b2575b5f80fd5b61013c6004803603810190610137919061077b565b6103e6565b60405161014991906107b5565b60405180910390f35b61016c6004803603810190610167919061085b565b610410565b60405161017991906107b5565b60405180910390f35b61019c6004803603810190610197919061085b565b610472565b6040516101a991906107b5565b60405180910390f35b6101ba61049c565b6040516101c791906107b5565b60405180910390f35b6101ea60048036038101906101e59190610899565b6104ac565b6040516101f791906108d3565b60405180910390f35b61021a60048036038101906102159190610899565b6104c1565b005b610224610504565b60405161023191906108d3565b60405180910390f35b610254600480360381019061024f919061085b565b610528565b005b61025e61056e565b60405161026b91906108d3565b60405180910390f35b61027c610574565b60405161028991906108d3565b60405180910390f35b61029a6105b0565b6040516102a79190610914565b60405180910390f35b6102ca60048036038101906102c5919061092d565b6105c3565b005b6102d461062b565b6040516102e191906108d3565b60405180910390f35b61030460048036038101906102ff919061077b565b610665565b60405161031191906107b5565b60405180910390f35b610334600480360381019061032f9190610899565b610691565b60405161034191906108d3565b60405180910390f35b6103526106d7565b60405161035f91906108d3565b60405180910390f35b6103706106dd565b60405161037d9190610998565b60405180910390f35b6103a0600480360381019061039b919061077b565b6106ef565b6040516103ad91906107b5565b60405180910390f35b6103d060048036038101906103cb919061077b565b61071a565b6040516103dd91906107b5565b60405180910390f35b5f8115155f60029054906101000a900460ff16151503610406575f610409565b60015b9050919050565b5f60045f8473ffffffffffffffffffffffffffffffffffffffff1673ffffffffffffffffffffffffffffffffffffffff1681526020019081526020015f205f8381526020019081526020015f205f9054906101000a900460ff16905092915050565b6004602052815f5260405f20602052805f5260405f205f915091509054906101000a900460ff1681565b5f8054906101000a900460ff1681565b6003602052805f5260405f205f915090505481565b60035f8273ffffffffffffffffffffffffffffffffffffffff1673ffffffffffffffffffffffffffffffffffffffff1681526020019081526020015f205f905550565b5f600a602060ff1660015461051991906109de565b6105239190610a11565b905090565b8060035f8473ffffffffffffffffffffffffffffffffffffffff1673ffffffffffffffffffffffffffffffffffffffff1681526020019081526020015f20819055505050565b60025481565b5f60015f60039054906101000a900460ff166105909190610a52565b5f60036101000a81548160ff021916908360ff160217905560ff16905090565b5f60025467ffffffffffffffff16905090565b8060045f8573ffffffffffffffffffffffffffffffffffffffff1673ffffffffffffffffffffffffffffffffffffffff1681526020019081526020015f205f8481526020019081526020015f205f6101000a81548160ff021916908315150217905550505050565b5f80600381819054906101000a900460ff1661064690610a86565b91906101000a81548160ff021916908360ff160217905560ff16905090565b5f805f9054906101000a900460ff16801561067d5750815b610687575f61068a565b60015b9050919050565b5f60035f8373ffffffffffffffffffffffffffffffffffffffff1673ffffffffffffffffffffffffffffffffffffffff1681526020019081526020015f20549050919050565b60015481565b5f60039054906101000a900460ff1681565b5f805f9054906101000a900460ff16806107065750815b610710575f610713565b60015b9050919050565b5f8115155f8054906101000a900460ff16151514610738575f61073b565b60015b9050919050565b5f80fd5b5f8115159050919050565b61075a81610746565b8114610764575f80fd5b50565b5f8135905061077581610751565b92915050565b5f602082840312156107905761078f610742565b5b5f61079d84828501610767565b91505092915050565b6107af81610746565b82525050565b5f6020820190506107c85f8301846107a6565b92915050565b5f73ffffffffffffffffffffffffffffffffffffffff82169050919050565b5f6107f7826107ce565b9050919050565b610807816107ed565b8114610811575f80fd5b50565b5f81359050610822816107fe565b92915050565b5f819050919050565b61083a81610828565b8114610844575f80fd5b50565b5f8135905061085581610831565b92915050565b5f806040838503121561087157610870610742565b5b5f61087e85828601610814565b925050602061088f85828601610847565b9150509250929050565b5f602082840312156108ae576108ad610742565b5b5f6108bb84828501610814565b91505092915050565b6108cd81610828565b82525050565b5f6020820190506108e65f8301846108c4565b92915050565b5f6dffffffffffffffffffffffffffff82169050919050565b61090e816108ec565b82525050565b5f6020820190506109275f830184610905565b92915050565b5f805f6060848603121561094457610943610742565b5b5f61095186828701610814565b935050602061096286828701610847565b925050604061097386828701610767565b9150509250925092565b5f60ff82169050919050565b6109928161097d565b82525050565b5f6020820190506109ab5f830184610989565b92915050565b7f4e487b71000000000000000000000000000000000000000000000000000000005f52601160045260245ffd5b5f6109e882610828565b91506109f383610828565b9250828201905080821115610a0b57610a0a6109b1565b5b92915050565b5f610a1b82610828565b9150610a2683610828565b9250828202610a3481610828565b91508282048414831517610a4b57610a4a6109b1565b5b5092915050565b5f610a5c8261097d565b9150610a678361097d565b9250828201905060ff811115610a8057610a7f6109b1565b5b92915050565b5f610a908261097d565b91505f8203610aa257610aa16109b1565b5b60018203905091905056fea2646970667358221220b08b9bf456640a41f4aaf761193cf764eac203b4055de165c276b803fe9e504e64736f6c63430008160033",
					"opcodes": "PUSH1 0x80 PUSH1 0x40 MSTORE PUSH1 0x1 PUSH0 PUSH1 0x1 PUSH2 0x100 EXP DUP2 SLOAD DUP2 PUSH1 0xFF MUL NOT AND SWAP1 DUP4 ISZERO ISZERO MUL OR SWAP1 SSTORE POP PUSH1 0xFF PUSH0 PUSH1 0x3 PUSH2 0x100 EXP DUP2 SLOAD DUP2 PUSH1 0xFF MUL NOT AND SWAP1 DUP4 PUSH1 0xFF AND MUL OR SWAP1 SSTORE POP PUSH9 0x56BC75E2D63100000 PUSH1 0x2 SSTORE CALLVALUE DUP1 ISZERO PUSH2 0x51 JUMPI PUSH0 DUP1 REVERT JUMPDEST POP PUSH2 0xAE3 DUP1 PUSH2 0x5F PUSH0 CODECOPY PUSH0 RETURN INVALID PUSH1 0x80 PUSH1 0x40 MSTORE CALLVALUE DUP1 ISZERO PUSH2 0xF JUMPI PUSH0 DUP1 REVERT JUMPDEST POP PUSH1 0x4 CALLDATASIZE LT PUSH2 0x11E JUMPI PUSH0 CALLDATALOAD PUSH1 0xE0 SHR DUP1 PUSH4 0x88FC1738 GT PUSH2 0xAB JUMPI DUP1 PUSH4 0xC2BC2EFC GT PUSH2 0x6F JUMPI DUP1 PUSH4 0xC2BC2EFC EQ PUSH2 0x31A JUMPI DUP1 PUSH4 0xD4DA005A EQ PUSH2 0x34A JUMPI DUP1 PUSH4 0xD62A1209 EQ PUSH2 0x368 JUMPI DUP1 PUSH4 0xE5860D12 EQ PUSH2 0x386 JUMPI DUP1 PUSH4 0xF10A31A1 EQ PUSH2 0x3B6 JUMPI PUSH2 0x11E JUMP JUMPDEST DUP1 PUSH4 0x88FC1738 EQ PUSH2 0x274 JUMPI DUP1 PUSH4 0x96D373E5 EQ PUSH2 0x292 JUMPI DUP1 PUSH4 0xAD40AA79 EQ PUSH2 0x2B0 JUMPI DUP1 PUSH4 0xB3BCFA82 EQ PUSH2 0x2CC JUMPI DUP1 PUSH4 0xB8DAA950 EQ PUSH2 0x2EA JUMPI PUSH2 0x11E JUMP JUMPDEST DUP1 PUSH4 0x27CBD529 GT PUSH2 0xF2 JUMPI DUP1 PUSH4 0x27CBD529 EQ PUSH2 0x1D0 JUMPI DUP1 PUSH4 0x29092D0E EQ PUSH2 0x200 JUMPI DUP1 PUSH4 0x371303C0 EQ PUSH2 0x21C JUMPI DUP1 PUSH4 0x3825D828 EQ PUSH2 0x23A JUMPI DUP1 PUSH4 0x836DEA0B EQ PUSH2 0x256 JUMPI PUSH2 0x11E JUMP JUMPDEST DUP1 PUSH3 0xD77E89 EQ PUSH2 0x122 JUMPI DUP1 PUSH4 0x2E93206 EQ PUSH2 0x152 JUMPI DUP1 PUSH4 0x14BD0A7B EQ PUSH2 0x182 JUMPI DUP1 PUSH4 0x169B32C3 EQ PUSH2 0x1B2 JUMPI JUMPDEST PUSH0 DUP1 REVERT JUMPDEST PUSH2 0x13C PUSH1 0x4 DUP1 CALLDATASIZE SUB DUP2 ADD SWAP1 PUSH2 0x137 SWAP2 SWAP1 PUSH2 0x77B JUMP JUMPDEST PUSH2 0x3E6 JUMP JUMPDEST PUSH1 0x40 MLOAD PUSH2 0x149 SWAP2 SWAP1 PUSH2 0x7B5 JUMP JUMPDEST PUSH1 0x40 MLOAD DUP1 SWAP2 SUB SWAP1 RETURN JUMPDEST PUSH2 0x16C PUSH1 0x4 DUP1 CALLDATASIZE SUB DUP2 ADD SWAP1 PUSH2 0x167 SWAP2 SWAP1 PUSH2 0x85B JUMP JUMPDEST PUSH2 0x410 JUMP JUMPDEST PUSH1 0x40 MLOAD PUSH2 0x179 SWAP2 SWAP1 PUSH2 0x7B5 JUMP JUMPDEST PUSH1 0x40 MLOAD DUP1 SWAP2 SUB SWAP1 RETURN JUMPDEST PUSH2 0x19C PUSH1 0x4 DUP1 CALLDATASIZE SUB DUP2 ADD SWAP1 PUSH2 0x197 SWAP2 SWAP1 PUSH2 0x85B JUMP JUMPDEST PUSH2 0x472 JUMP JUMPDEST PUSH1 0x40 MLOAD PUSH2 0x1A9 SWAP2 SWAP1 PUSH2 0x7B5 JUMP JUMPDEST PUSH1 0x40 MLOAD DUP1 SWAP2 SUB SWAP1 RETURN JUMPDEST PUSH2 0x1BA PUSH2 0x49C JUMP JUMPDEST PUSH1 0x40 MLOAD PUSH2 0x1C7 SWAP2 SWAP1 PUSH2 0x7B5 JUMP JUMPDEST PUSH1 0x40 MLOAD DUP1 SWAP2 SUB SWAP1 RETURN JUMPDEST PUSH2 0x1EA PUSH1 0x4 DUP1 CALLDATASIZE SUB DUP2 ADD SWAP1 PUSH2 0x1E5 SWAP2 SWAP1 PUSH2 0x899 JUMP JUMPDEST PUSH2 0x4AC JUMP JUMPDEST PUSH1 0x40 MLOAD PUSH2 0x1F7 SWAP2 SWAP1 PUSH2 0x8D3 JUMP JUMPDEST PUSH1 0x40 MLOAD DUP1 SWAP2 SUB SWAP1 RETURN JUMPDEST PUSH2 0x21A PUSH1 0x4 DUP1 CALLDATASIZE SUB DUP2 ADD SWAP1 PUSH2 0x215 SWAP2 SWAP1 PUSH2 0x899 JUMP JUMPDEST PUSH2 0x4C1 JUMP JUMPDEST STOP JUMPDEST PUSH2 0x224 PUSH2 0x504 JUMP JUMPDEST PUSH1 0x40 MLOAD PUSH2 0x231 SWAP2 SWAP1 PUSH2 0x8D3 JUMP JUMPDEST PUSH1 0x40 MLOAD DUP1 SWAP2 SUB SWAP1 RETURN JUMPDEST PUSH2 0x254 PUSH1 0x4 DUP1 CALLDATASIZE SUB DUP2 ADD SWAP1 PUSH2 0x24F SWAP2 SWAP1 PUSH2 0x85B JUMP JUMPDEST PUSH2 0x528 JUMP JUMPDEST STOP JUMPDEST PUSH2 0x25E PUSH2 0x56E JUMP JUMPDEST PUSH1 0x40 MLOAD PUSH2 0x26B SWAP2 SWAP1 PUSH2 0x8D3 JUMP JUMPDEST PUSH1 0x40 MLOAD DUP1 SWAP2 SUB SWAP1 RETURN JUMPDEST PUSH2 0x27C PUSH2 0x574 JUMP JUMPDEST PUSH1 0x40 MLOAD PUSH2 0x289 SWAP2 SWAP1 PUSH2 0x8D3 JUMP JUMPDEST PUSH1 0x40 MLOAD DUP1 SWAP2 SUB SWAP1 RETURN JUMPDEST PUSH2 0x29A PUSH2 0x5B0 JUMP JUMPDEST PUSH1 0x40 MLOAD PUSH2 0x2A7 SWAP2 SWAP1 PUSH2 0x914 JUMP JUMPDEST PUSH1 0x40 MLOAD DUP1 SWAP2 SUB SWAP1 RETURN JUMPDEST PUSH2 0x2CA PUSH1 0x4 DUP1 CALLDATASIZE SUB DUP2 ADD SWAP1 PUSH2 0x2C5 SWAP2 SWAP1 PUSH2 0x92D JUMP JUMPDEST PUSH2 0x5C3 JUMP JUMPDEST STOP JUMPDEST PUSH2 0x2D4 PUSH2 0x62B JUMP JUMPDEST PUSH1 0x40 MLOAD PUSH2 0x2E1 SWAP2 SWAP1 PUSH2 0x8D3 JUMP JUMPDEST PUSH1 0x40 MLOAD DUP1 SWAP2 SUB SWAP1 RETURN JUMPDEST PUSH2 0x304 PUSH1 0x4 DUP1 CALLDATASIZE SUB DUP2 ADD SWAP1 PUSH2 0x2FF SWAP2 SWAP1 PUSH2 0x77B JUMP JUMPDEST PUSH2 0x665 JUMP JUMPDEST PUSH1 0x40 MLOAD PUSH2 0x311 SWAP2 SWAP1 PUSH2 0x7B5 JUMP JUMPDEST PUSH1 0x40 MLOAD DUP1 SWAP2 SUB SWAP1 RETURN JUMPDEST PUSH2 0x334 PUSH1 0x4 DUP1 CALLDATASIZE SUB DUP2 ADD SWAP1 PUSH2 0x32F SWAP2 SWAP1 PUSH2 0x899 JUMP JUMPDEST PUSH2 0x691 JUMP JUMPDEST PUSH1 0x40 MLOAD PUSH2 0x341 SWAP2 SWAP1 PUSH2 0x8D3 JUMP JUMPDEST PUSH1 0x40 MLOAD DUP1 SWAP2 SUB SWAP1 RETURN JUMPDEST PUSH2 0x352 PUSH2 0x6D7 JUMP JUMPDEST PUSH1 0x40 MLOAD PUSH2 0x35F SWAP2 SWAP1 PUSH2 0x8D3 JUMP JUMPDEST PUSH1 0x40 MLOAD DUP1 SWAP2 SUB SWAP1 RETURN JUMPDEST PUSH2 0x370 PUSH2 0x6DD JUMP JUMPDEST PUSH1 0x40 MLOAD PUSH2 0x37D SWAP2 SWAP1 PUSH2 0x998 JUMP JUMPDEST PUSH1 0x40 MLOAD DUP1 SWAP2 SUB SWAP1 RETURN JUMPDEST PUSH2 0x3A0 PUSH1 0x4 DUP1 CALLDATASIZE SUB DUP2 ADD SWAP1 PUSH2 0x39B SWAP2 SWAP1 PUSH2 0x77B JUMP JUMPDEST PUSH2 0x6EF JUMP JUMPDEST PUSH1 0x40 MLOAD PUSH2 0x3AD SWAP2 SWAP1 PUSH2 0x7B5 JUMP JUMPDEST PUSH1 0x40 MLOAD DUP1 SWAP2 SUB SWAP1 RETURN JUMPDEST PUSH2 0x3D0 PUSH1 0x4 DUP1 CALLDATASIZE SUB DUP2 ADD SWAP1 PUSH2 0x3CB SWAP2 SWAP1 PUSH2 0x77B JUMP JUMPDEST PUSH2 0x71A JUMP JUMPDEST PUSH1 0x40 MLOAD PUSH2 0x3DD SWAP2 SWAP1 PUSH2 0x7B5 JUMP JUMPDEST PUSH1 0x40 MLOAD DUP1 SWAP2 SUB SWAP1 RETURN JUMPDEST PUSH0 DUP2 ISZERO ISZERO PUSH0 PUSH1 0x2 SWAP1 SLOAD SWAP1 PUSH2 0x100 EXP SWAP1 DIV PUSH1 0xFF AND ISZERO ISZERO SUB PUSH2 0x406 JUMPI PUSH0 PUSH2 0x409 JUMP JUMPDEST PUSH1 0x1 JUMPDEST SWAP1 POP SWAP2 SWAP1 POP JUMP JUMPDEST PUSH0 PUSH1 0x4 PUSH0 DUP5 PUSH20 0xFFFFFFFFFFFFFFFFFFFFFFFFFFFFFFFFFFFFFFFF AND PUSH20 0xFFFFFFFFFFFFFFFFFFFFFFFFFFFFFFFFFFFFFFFF AND DUP2 MSTORE PUSH1 0x20 ADD SWAP1 DUP2 MSTORE PUSH1 0x20 ADD PUSH0 KECCAK256 PUSH0 DUP4 DUP2 MSTORE PUSH1 0x20 ADD SWAP1 DUP2 MSTORE PUSH1 0x20 ADD PUSH0 KECCAK256 PUSH0 SWAP1 SLOAD SWAP1 PUSH2 0x100 EXP SWAP1 DIV PUSH1 0xFF AND SWAP1 POP SWAP3 SWAP2 POP POP JUMP JUMPDEST PUSH1 0x4 PUSH1 0x20 MSTORE DUP2 PUSH0 MSTORE PUSH1 0x40 PUSH0 KECCAK256 PUSH1 0x20 MSTORE DUP1 PUSH0 MSTORE PUSH1 0x40 PUSH0 KECCAK256 PUSH0 SWAP2 POP SWAP2 POP SWAP1 SLOAD SWAP1 PUSH2 0x100 EXP SWAP1 DIV PUSH1 0xFF AND DUP2 JUMP JUMPDEST PUSH0 DUP1 SLOAD SWAP1 PUSH2 0x100 EXP SWAP1 DIV PUSH1 0xFF AND DUP2 JUMP JUMPDEST PUSH1 0x3 PUSH1 0x20 MSTORE DUP1 PUSH0 MSTORE PUSH1 0x40 PUSH0 KECCAK256 PUSH0 SWAP2 POP SWAP1 POP SLOAD DUP2 JUMP JUMPDEST PUSH1 0x3 PUSH0 DUP3 PUSH20 0xFFFFFFFFFFFFFFFFFFFFFFFFFFFFFFFFFFFFFFFF AND PUSH20 0xFFFFFFFFFFFFFFFFFFFFFFFFFFFFFFFFFFFFFFFF AND DUP2 MSTORE PUSH1 0x20 ADD SWAP1 DUP2 MSTORE PUSH1 0x20 ADD PUSH0 KECCAK256 PUSH0 SWAP1 SSTORE POP JUMP JUMPDEST PUSH0 PUSH1 0xA PUSH1 0x20 PUSH1 0xFF AND PUSH1 0x1 SLOAD PUSH2 0x519 SWAP2 SWAP1 PUSH2 0x9DE JUMP JUMPDEST PUSH2 0x523 SWAP2 SWAP1 PUSH2 0xA11 JUMP JUMPDEST SWAP1 POP SWAP1 JUMP JUMPDEST DUP1 PUSH1 0x3 PUSH0 DUP5 PUSH20 0xFFFFFFFFFFFFFFFFFFFFFFFFFFFFFFFFFFFFFFFF AND PUSH20 0xFFFFFFFFFFFFFFFFFFFFFFFFFFFFFFFFFFFFFFFF AND DUP2 MSTORE PUSH1 0x20 ADD SWAP1 DUP2 MSTORE PUSH1 0x20 ADD PUSH0 KECCAK256 DUP2 SWAP1 SSTORE POP POP POP JUMP JUMPDEST PUSH1 0x2 SLOAD DUP2 JUMP JUMPDEST PUSH0 PUSH1 0x1 PUSH0 PUSH1 0x3 SWAP1 SLOAD SWAP1 PUSH2 0x100 EXP SWAP1 DIV PUSH1 0xFF AND PUSH2 0x590 SWAP2 SWAP1 PUSH2 0xA52 JUMP JUMPDEST PUSH0 PUSH1 0x3 PUSH2 0x100 EXP DUP2 SLOAD DUP2 PUSH1 0xFF MUL NOT AND SWAP1 DUP4 PUSH1 0xFF AND MUL OR SWAP1 SSTORE PUSH1 0xFF AND SWAP1 POP SWAP1 JUMP JUMPDEST PUSH0 PUSH1 0x2 SLOAD PUSH8 0xFFFFFFFFFFFFFFFF AND SWAP1 POP SWAP1 JUMP JUMPDEST DUP1 PUSH1 0x4 PUSH0 DUP6 PUSH20 0xFFFFFFFFFFFFFFFFFFFFFFFFFFFFFFFFFFFFFFFF AND PUSH20 0xFFFFFFFFFFFFFFFFFFFFFFFFFFFFFFFFFFFFFFFF AND DUP2 MSTORE PUSH1 0x20 ADD SWAP1 DUP2 MSTORE PUSH1 0x20 ADD PUSH0 KECCAK256 PUSH0 DUP5 DUP2 MSTORE PUSH1 0x20 ADD SWAP1 DUP2 MSTORE PUSH1 0x20 ADD PUSH0 KECCAK256 PUSH0 PUSH2 0x100 EXP DUP2 SLOAD DUP2 PUSH1 0xFF MUL NOT AND SWAP1 DUP4 ISZERO ISZERO MUL OR SWAP1 SSTORE POP POP POP POP JUMP JUMPDEST PUSH0 DUP1 PUSH1 0x3 DUP2 DUP2 SWAP1 SLOAD SWAP1 PUSH2 0x100 EXP SWAP1 DIV PUSH1 0xFF AND PUSH2 0x646 SWAP1 PUSH2 0xA86 JUMP JUMPDEST SWAP2 SWAP1 PUSH2 0x100 EXP DUP2 SLOAD DUP2 PUSH1 0xFF MUL NOT AND SWAP1 DUP4 PUSH1 0xFF AND MUL OR SWAP1 SSTORE PUSH1 0xFF AND SWAP1 POP SWAP1 JUMP JUMPDEST PUSH0 DUP1 PUSH0 SWAP1 SLOAD SWAP1 PUSH2 0x100 EXP SWAP1 DIV PUSH1 0xFF AND DUP1 ISZERO PUSH2 0x67D JUMPI POP DUP2 JUMPDEST PUSH2 0x687 JUMPI PUSH0 PUSH2 0x68A JUMP JUMPDEST PUSH1 0x1 JUMPDEST SWAP1 POP SWAP2 SWAP1 POP JUMP JUMPDEST PUSH0 PUSH1 0x3 PUSH0 DUP4 PUSH20 0xFFFFFFFFFFFFFFFFFFFFFFFFFFFFFFFFFFFFFFFF AND PUSH20 0xFFFFFFFFFFFFFFFFFFFFFFFFFFFFFFFFFFFFFFFF AND DUP2 MSTORE PUSH1 0x20 ADD SWAP1 DUP2 MSTORE PUSH1 0x20 ADD PUSH0 KECCAK256 SLOAD SWAP1 POP SWAP2 SWAP1 POP JUMP JUMPDEST PUSH1 0x1 SLOAD DUP2 JUMP JUMPDEST PUSH0 PUSH1 0x3 SWAP1 SLOAD SWAP1 PUSH2 0x100 EXP SWAP1 DIV PUSH1 0xFF AND DUP2 JUMP JUMPDEST PUSH0 DUP1 PUSH0 SWAP1 SLOAD SWAP1 PUSH2 0x100 EXP SWAP1 DIV PUSH1 0xFF AND DUP1 PUSH2 0x706 JUMPI POP DUP2 JUMPDEST PUSH2 0x710 JUMPI PUSH0 PUSH2 0x713 JUMP JUMPDEST PUSH1 0x1 JUMPDEST SWAP1 POP SWAP2 SWAP1 POP JUMP JUMPDEST PUSH0 DUP2 ISZERO ISZERO PUSH0 DUP1 SLOAD SWAP1 PUSH2 0x100 EXP SWAP1 DIV PUSH1 0xFF AND ISZERO ISZERO EQ PUSH2 0x738 JUMPI PUSH0 PUSH2 0x73B JUMP JUMPDEST PUSH1 0x1 JUMPDEST SWAP1 POP SWAP2 SWAP1 POP JUMP JUMPDEST PUSH0 DUP1 REVERT JUMPDEST PUSH0 DUP2 ISZERO ISZERO SWAP1 POP SWAP2 SWAP1 POP JUMP JUMPDEST PUSH2 0x75A DUP2 PUSH2 0x746 JUMP JUMPDEST DUP2 EQ PUSH2 0x764 JUMPI PUSH0 DUP1 REVERT JUMPDEST POP JUMP JUMPDEST PUSH0 DUP2 CALLDATALOAD SWAP1 POP PUSH2 0x775 DUP2 PUSH2 0x751 JUMP JUMPDEST SWAP3 SWAP2 POP POP JUMP JUMPDEST PUSH0 PUSH1 0x20 DUP3 DUP5 SUB SLT ISZERO PUSH2 0x790 JUMPI PUSH2 0x78F PUSH2 0x742 JUMP JUMPDEST JUMPDEST PUSH0 PUSH2 0x79D DUP5 DUP3 DUP6 ADD PUSH2 0x767 JUMP JUMPDEST SWAP2 POP POP SWAP3 SWAP2 POP POP JUMP JUMPDEST PUSH2 0x7AF DUP2 PUSH2 0x746 JUMP JUMPDEST DUP3 MSTORE POP POP JUMP JUMPDEST PUSH0 PUSH1 0x20 DUP3 ADD SWAP1 POP PUSH2 0x7C8 PUSH0 DUP4 ADD DUP5 PUSH2 0x7A6 JUMP JUMPDEST SWAP3 SWAP2 POP POP JUMP JUMPDEST PUSH0 PUSH20 0xFFFFFFFFFFFFFFFFFFFFFFFFFFFFFFFFFFFFFFFF DUP3 AND SWAP1 POP SWAP2 SWAP1 POP JUMP JUMPDEST PUSH0 PUSH2 0x7F7 DUP3 PUSH2 0x7CE JUMP JUMPDEST SWAP1 POP SWAP2 SWAP1 POP JUMP JUMPDEST PUSH2 0x807 DUP2 PUSH2 0x7ED JUMP JUMPDEST DUP2 EQ PUSH2 0x811 JUMPI PUSH0 DUP1 REVERT JUMPDEST POP JUMP JUMPDEST PUSH0 DUP2 CALLDATALOAD SWAP1 POP PUSH2 0x822 DUP2 PUSH2 0x7FE JUMP JUMPDEST SWAP3 SWAP2 POP POP JUMP JUMPDEST PUSH0 DUP2 SWAP1 POP SWAP2 SWAP1 POP JUMP JUMPDEST PUSH2 0x83A DUP2 PUSH2 0x828 JUMP JUMPDEST DUP2 EQ PUSH2 0x844 JUMPI PUSH0 DUP1 REVERT JUMPDEST POP JUMP JUMPDEST PUSH0 DUP2 CALLDATALOAD SWAP1 POP PUSH2 0x855 DUP2 PUSH2 0x831 JUMP JUMPDEST SWAP3 SWAP2 POP POP JUMP JUMPDEST PUSH0 DUP1 PUSH1 0x40 DUP4 DUP6 SUB SLT ISZERO PUSH2 0x871 JUMPI PUSH2 0x870 PUSH2 0x742 JUMP JUMPDEST JUMPDEST PUSH0 PUSH2 0x87E DUP6 DUP3 DUP7 ADD PUSH2 0x814 JUMP JUMPDEST SWAP3 POP POP PUSH1 0x20 PUSH2 0x88F DUP6 DUP3 DUP7 ADD PUSH2 0x847 JUMP JUMPDEST SWAP2 POP POP SWAP3 POP SWAP3 SWAP1 POP JUMP JUMPDEST PUSH0 PUSH1 0x20 DUP3 DUP5 SUB SLT ISZERO PUSH2 0x8AE JUMPI PUSH2 0x8AD PUSH2 0x742 JUMP JUMPDEST JUMPDEST PUSH0 PUSH2 0x8BB DUP5 DUP3 DUP6 ADD PUSH2 0x814 JUMP JUMPDEST SWAP2 POP POP SWAP3 SWAP2 POP POP JUMP JUMPDEST PUSH2 0x8CD DUP2 PUSH2 0x828 JUMP JUMPDEST DUP3 MSTORE POP POP JUMP JUMPDEST PUSH0 PUSH1 0x20 DUP3 ADD SWAP1 POP PUSH2 0x8E6 PUSH0 DUP4 ADD DUP5 PUSH2 0x8C4 JUMP JUMPDEST SWAP3 SWAP2 POP POP JUMP JUMPDEST PUSH0 PUSH14 0xFFFFFFFFFFFFFFFFFFFFFFFFFFFF DUP3 AND SWAP1 POP SWAP2 SWAP1 POP JUMP JUMPDEST PUSH2 0x90E DUP2 PUSH2 0x8EC JUMP JUMPDEST DUP3 MSTORE POP POP JUMP JUMPDEST PUSH0 PUSH1 0x20 DUP3 ADD SWAP1 POP PUSH2 0x927 PUSH0 DUP4 ADD DUP5 PUSH2 0x905 JUMP JUMPDEST SWAP3 SWAP2 POP POP JUMP JUMPDEST PUSH0 DUP1 PUSH0 PUSH1 0x60 DUP5 DUP7 SUB SLT ISZERO PUSH2 0x944 JUMPI PUSH2 0x943 PUSH2 0x742 JUMP JUMPDEST JUMPDEST PUSH0 PUSH2 0x951 DUP7 DUP3 DUP8 ADD PUSH2 0x814 JUMP JUMPDEST SWAP4 POP POP PUSH1 0x20 PUSH2 0x962 DUP7 DUP3 DUP8 ADD PUSH2 0x847 JUMP JUMPDEST SWAP3 POP POP PUSH1 0x40 PUSH2 0x973 DUP7 DUP3 DUP8 ADD PUSH2 0x767 JUMP JUMPDEST SWAP2 POP POP SWAP3 POP SWAP3 POP SWAP3 JUMP JUMPDEST PUSH0 PUSH1 0xFF DUP3 AND SWAP1 POP SWAP2 SWAP1 POP JUMP JUMPDEST PUSH2 0x992 DUP2 PUSH2 0x97D JUMP JUMPDEST DUP3 MSTORE POP POP JUMP JUMPDEST PUSH0 PUSH1 0x20 DUP3 ADD SWAP1 POP PUSH2 0x9AB PUSH0 DUP4 ADD DUP5 PUSH2 0x989 JUMP JUMPDEST SWAP3 SWAP2 POP POP JUMP JUMPDEST PUSH32 0x4E487B7100000000000000000000000000000000000000000000000000000000 PUSH0 MSTORE PUSH1 0x11 PUSH1 0x4 MSTORE PUSH1 0x24 PUSH0 REVERT JUMPDEST PUSH0 PUSH2 0x9E8 DUP3 PUSH2 0x828 JUMP JUMPDEST SWAP2 POP PUSH2 0x9F3 DUP4 PUSH2 0x828 JUMP JUMPDEST SWAP3 POP DUP3 DUP3 ADD SWAP1 POP DUP1 DUP3 GT ISZERO PUSH2 0xA0B JUMPI PUSH2 0xA0A PUSH2 0x9B1 JUMP JUMPDEST JUMPDEST SWAP3 SWAP2 POP POP JUMP JUMPDEST PUSH0 PUSH2 0xA1B DUP3 PUSH2 0x828 JUMP JUMPDEST SWAP2 POP PUSH2 0xA26 DUP4 PUSH2 0x828 JUMP JUMPDEST SWAP3 POP DUP3 DUP3 MUL PUSH2 0xA34 DUP2 PUSH2 0x828 JUMP JUMPDEST SWAP2 POP DUP3 DUP3 DIV DUP5 EQ DUP4 ISZERO OR PUSH2 0xA4B JUMPI PUSH2 0xA4A PUSH2 0x9B1 JUMP JUMPDEST JUMPDEST POP SWAP3 SWAP2 POP POP JUMP JUMPDEST PUSH0 PUSH2 0xA5C DUP3 PUSH2 0x97D JUMP JUMPDEST SWAP2 POP PUSH2 0xA67 DUP4 PUSH2 0x97D JUMP JUMPDEST SWAP3 POP DUP3 DUP3 ADD SWAP1 POP PUSH1 0xFF DUP2 GT ISZERO PUSH2 0xA80 JUMPI PUSH2 0xA7F PUSH2 0x9B1 JUMP JUMPDEST JUMPDEST SWAP3 SWAP2 POP POP JUMP JUMPDEST PUSH0 PUSH2 0xA90 DUP3 PUSH2 0x97D JUMP JUMPDEST SWAP2 POP PUSH0 DUP3 SUB PUSH2 0xAA2 JUMPI PUSH2 0xAA1 PUSH2 0x9B1 JUMP JUMPDEST JUMPDEST PUSH1 0x1 DUP3 SUB SWAP1 POP SWAP2 SWAP1 POP JUMP INVALID LOG2 PUSH5 0x6970667358 0x22 SLT KECCAK256 0xB0 DUP12 SWAP12 DELEGATECALL JUMP PUSH5 0xA41F4AAF7 PUSH2 0x193C 0xF7 PUSH5 0xEAC203B405 0x5D 0xE1 PUSH6 0xC276B803FE9E POP 0x4E PUSH5 0x736F6C6343 STOP ADDMOD AND STOP CALLER "
				},
				"gasEstimates": {
					"creation": {
						"codeDepositCost": "557400",
						"executionCost": "71330",
						"totalCost": "628730"
					},
					"external": {
						"cast()": "2489",
						"dec()": "27060",
						"firstBool()": "2553",
						"get(address)": "2851",
						"getBoolFour(bool)": "infinite",
						"getBoolOne(bool)": "infinite",
						"getBoolThree(bool)": "infinite",
						"getBoolTwo(bool)": "infinite",
						"getNested(address,uint256)": "3163",
						"inc()": "infinite",
						"maxVal()": "2582",
						"myEther()": "2536",
						"myMap(address)": "2825",
						"myNum()": "2469",
						"nested(address,uint256)": "3139",
						"overFlow()": "infinite",
						"remove(address)": "5590",
						"set(address,uint256)": "22911",
						"setNested(address,uint256,bool)": "25290"
					}
				},
				"methodIdentifiers": {
					"cast()": "96d373e5",
					"dec()": "b3bcfa82",
					"firstBool()": "169b32c3",
					"get(address)": "c2bc2efc",
					"getBoolFour(bool)": "e5860d12",
					"getBoolOne(bool)": "f10a31a1",
					"getBoolThree(bool)": "b8daa950",
					"getBoolTwo(bool)": "00d77e89",
					"getNested(address,uint256)": "02e93206",
					"inc()": "371303c0",
					"maxVal()": "d62a1209",
					"myEther()": "836dea0b",
					"myMap(address)": "27cbd529",
					"myNum()": "d4da005a",
					"nested(address,uint256)": "14bd0a7b",
					"overFlow()": "88fc1738",
					"remove(address)": "29092d0e",
					"set(address,uint256)": "3825d828",
					"setNested(address,uint256,bool)": "ad40aa79"
				}
			},
			"storageLayout": {
				"storage": [
					{
						"astId": 3,
						"contract": "practice junior/DataTypes.sol:DataTypes",
						"label": "firstBool",
						"offset": 0,
						"slot": "0",
						"type": "t_bool"
					},
					{
						"astId": 6,
						"contract": "practice junior/DataTypes.sol:DataTypes",
						"label": "secondBool",
						"offset": 1,
						"slot": "0",
						"type": "t_bool"
					},
					{
						"astId": 8,
						"contract": "practice junior/DataTypes.sol:DataTypes",
						"label": "thirdBool",
						"offset": 2,
						"slot": "0",
						"type": "t_bool"
					},
					{
						"astId": 14,
						"contract": "practice junior/DataTypes.sol:DataTypes",
						"label": "maxVal",
						"offset": 3,
						"slot": "0",
						"type": "t_uint8"
					},
					{
						"astId": 16,
						"contract": "practice junior/DataTypes.sol:DataTypes",
						"label": "myNum",
						"offset": 0,
						"slot": "1",
						"type": "t_uint256"
					},
					{
						"astId": 19,
						"contract": "practice junior/DataTypes.sol:DataTypes",
						"label": "myEther",
						"offset": 0,
						"slot": "2",
						"type": "t_uint256"
					},
					{
						"astId": 23,
						"contract": "practice junior/DataTypes.sol:DataTypes",
						"label": "myMap",
						"offset": 0,
						"slot": "3",
						"type": "t_mapping(t_address,t_uint256)"
					},
					{
						"astId": 29,
						"contract": "practice junior/DataTypes.sol:DataTypes",
						"label": "nested",
						"offset": 0,
						"slot": "4",
						"type": "t_mapping(t_address,t_mapping(t_uint256,t_bool))"
					}
				],
				"types": {
					"t_address": {
						"encoding": "inplace",
						"label": "address",
						"numberOfBytes": "20"
					},
					"t_bool": {
						"encoding": "inplace",
						"label": "bool",
						"numberOfBytes": "1"
					},
					"t_mapping(t_address,t_mapping(t_uint256,t_bool))": {
						"encoding": "mapping",
						"key": "t_address",
						"label": "mapping(address => mapping(uint256 => bool))",
						"numberOfBytes": "32",
						"value": "t_mapping(t_uint256,t_bool)"
					},
					"t_mapping(t_address,t_uint256)": {
						"encoding": "mapping",
						"key": "t_address",
						"label": "mapping(address => uint256)",
						"numberOfBytes": "32",
						"value": "t_uint256"
					},
					"t_mapping(t_uint256,t_bool)": {
						"encoding": "mapping",
						"key": "t_uint256",
						"label": "mapping(uint256 => bool)",
						"numberOfBytes": "32",
						"value": "t_bool"
					},
					"t_uint256": {
						"encoding": "inplace",
						"label": "uint256",
						"numberOfBytes": "32"
					},
					"t_uint8": {
						"encoding": "inplace",
						"label": "uint8",
						"numberOfBytes": "1"
					}
				}
			},
			"userdoc": {
				"kind": "user",
				"methods": {},
				"version": 1
			}
		}
	}
}