{
	"Validator.sol": {
		"Validator": {
			"abi": [
				{
					"anonymous": false,
					"inputs": [
						{
							"indexed": true,
							"internalType": "address",
							"name": "_address",
							"type": "address"
						},
						{
							"indexed": false,
							"internalType": "uint256",
							"name": "_number",
							"type": "uint256"
						},
						{
							"indexed": false,
							"internalType": "string",
							"name": "_text",
							"type": "string"
						}
					],
					"name": "ParametersValidated",
					"type": "event"
				},
				{
					"inputs": [
						{
							"internalType": "address",
							"name": "_address",
							"type": "address"
						},
						{
							"internalType": "uint256",
							"name": "_number",
							"type": "uint256"
						},
						{
							"internalType": "string",
							"name": "_text",
							"type": "string"
						}
					],
					"name": "validateParameters",
					"outputs": [],
					"stateMutability": "nonpayable",
					"type": "function"
				}
			],
			"devdoc": {
				"kind": "dev",
				"methods": {},
				"version": 1
			},
			"evm": {
				"assembly": "    /* \"Validator.sol\":239:1047  contract Validator {... */\n  mstore(0x40, 0x80)\n  callvalue\n  dup1\n  iszero\n  tag_1\n  jumpi\n  0x00\n  dup1\n  revert\ntag_1:\n  pop\n  dataSize(sub_0)\n  dup1\n  dataOffset(sub_0)\n  0x00\n  codecopy\n  0x00\n  return\nstop\n\nsub_0: assembly {\n        /* \"Validator.sol\":239:1047  contract Validator {... */\n      mstore(0x40, 0x80)\n      callvalue\n      dup1\n      iszero\n      tag_1\n      jumpi\n      0x00\n      dup1\n      revert\n    tag_1:\n      pop\n      jumpi(tag_2, lt(calldatasize, 0x04))\n      shr(0xe0, calldataload(0x00))\n      dup1\n      0xdb46dfbe\n      eq\n      tag_3\n      jumpi\n    tag_2:\n      0x00\n      dup1\n      revert\n        /* \"Validator.sol\":445:1044  function validateParameters(address _address, uint _number, string memory _text) public {... */\n    tag_3:\n      tag_4\n      0x04\n      dup1\n      calldatasize\n      sub\n      dup2\n      add\n      swap1\n      tag_5\n      swap2\n      swap1\n      tag_6\n      jump\t// in\n    tag_5:\n      tag_7\n      jump\t// in\n    tag_4:\n      stop\n    tag_7:\n        /* \"Validator.sol\":625:626  0 */\n      0x00\n        /* \"Validator.sol\":605:627  _address != address(0) */\n      0xffffffffffffffffffffffffffffffffffffffff\n      and\n        /* \"Validator.sol\":605:613  _address */\n      dup4\n        /* \"Validator.sol\":605:627  _address != address(0) */\n      0xffffffffffffffffffffffffffffffffffffffff\n      and\n      sub\n        /* \"Validator.sol\":597:654  require(_address != address(0), \"Address cannot be zero\") */\n      tag_9\n      jumpi\n      mload(0x40)\n      0x08c379a000000000000000000000000000000000000000000000000000000000\n      dup2\n      mstore\n      0x04\n      add\n      tag_10\n      swap1\n      tag_11\n      jump\t// in\n    tag_10:\n      mload(0x40)\n      dup1\n      swap2\n      sub\n      swap1\n      revert\n    tag_9:\n        /* \"Validator.sol\":740:741  0 */\n      0x00\n        /* \"Validator.sol\":730:737  _number */\n      dup3\n        /* \"Validator.sol\":730:741  _number > 0 */\n      gt\n        /* \"Validator.sol\":722:778  require(_number > 0, \"Number must be greater than zero\") */\n      tag_12\n      jumpi\n      mload(0x40)\n      0x08c379a000000000000000000000000000000000000000000000000000000000\n      dup2\n      mstore\n      0x04\n      add\n      tag_13\n      swap1\n      tag_14\n      jump\t// in\n    tag_13:\n      mload(0x40)\n      dup1\n      swap2\n      sub\n      swap1\n      revert\n    tag_12:\n        /* \"Validator.sol\":868:869  0 */\n      0x00\n        /* \"Validator.sol\":852:857  _text */\n      dup2\n        /* \"Validator.sol\":846:865  bytes(_text).length */\n      mload\n        /* \"Validator.sol\":846:869  bytes(_text).length > 0 */\n      gt\n        /* \"Validator.sol\":838:914  require(bytes(_text).length > 0, \"Text cannot be emptyText cannot be empty\") */\n      tag_15\n      jumpi\n      mload(0x40)\n      0x08c379a000000000000000000000000000000000000000000000000000000000\n      dup2\n      mstore\n      0x04\n      add\n      tag_16\n      swap1\n      tag_17\n      jump\t// in\n    tag_16:\n      mload(0x40)\n      dup1\n      swap2\n      sub\n      swap1\n      revert\n    tag_15:\n        /* \"Validator.sol\":1009:1017  _address */\n      dup3\n        /* \"Validator.sol\":989:1034  ParametersValidated(_address, _number, _text) */\n      0xffffffffffffffffffffffffffffffffffffffff\n      and\n      0x9d3ccd3800f696e9a79ed0cbfa3752984f71263aa4083bf972ec220148a16a74\n        /* \"Validator.sol\":1019:1026  _number */\n      dup4\n        /* \"Validator.sol\":1028:1033  _text */\n      dup4\n        /* \"Validator.sol\":989:1034  ParametersValidated(_address, _number, _text) */\n      mload(0x40)\n      tag_18\n      swap3\n      swap2\n      swap1\n      tag_19\n      jump\t// in\n    tag_18:\n      mload(0x40)\n      dup1\n      swap2\n      sub\n      swap1\n      log2\n        /* \"Validator.sol\":445:1044  function validateParameters(address _address, uint _number, string memory _text) public {... */\n      pop\n      pop\n      pop\n      jump\t// out\n        /* \"#utility.yul\":7:82   */\n    tag_20:\n        /* \"#utility.yul\":40:46   */\n      0x00\n        /* \"#utility.yul\":73:75   */\n      0x40\n        /* \"#utility.yul\":67:76   */\n      mload\n        /* \"#utility.yul\":57:76   */\n      swap1\n      pop\n        /* \"#utility.yul\":7:82   */\n      swap1\n      jump\t// out\n        /* \"#utility.yul\":88:205   */\n    tag_21:\n        /* \"#utility.yul\":197:198   */\n      0x00\n        /* \"#utility.yul\":194:195   */\n      dup1\n        /* \"#utility.yul\":187:199   */\n      revert\n        /* \"#utility.yul\":211:328   */\n    tag_22:\n        /* \"#utility.yul\":320:321   */\n      0x00\n        /* \"#utility.yul\":317:318   */\n      dup1\n        /* \"#utility.yul\":310:322   */\n      revert\n        /* \"#utility.yul\":334:460   */\n    tag_23:\n        /* \"#utility.yul\":371:378   */\n      0x00\n        /* \"#utility.yul\":411:453   */\n      0xffffffffffffffffffffffffffffffffffffffff\n        /* \"#utility.yul\":404:409   */\n      dup3\n        /* \"#utility.yul\":400:454   */\n      and\n        /* \"#utility.yul\":389:454   */\n      swap1\n      pop\n        /* \"#utility.yul\":334:460   */\n      swap2\n      swap1\n      pop\n      jump\t// out\n        /* \"#utility.yul\":466:562   */\n    tag_24:\n        /* \"#utility.yul\":503:510   */\n      0x00\n        /* \"#utility.yul\":532:556   */\n      tag_57\n        /* \"#utility.yul\":550:555   */\n      dup3\n        /* \"#utility.yul\":532:556   */\n      tag_23\n      jump\t// in\n    tag_57:\n        /* \"#utility.yul\":521:556   */\n      swap1\n      pop\n        /* \"#utility.yul\":466:562   */\n      swap2\n      swap1\n      pop\n      jump\t// out\n        /* \"#utility.yul\":568:690   */\n    tag_25:\n        /* \"#utility.yul\":641:665   */\n      tag_59\n        /* \"#utility.yul\":659:664   */\n      dup2\n        /* \"#utility.yul\":641:665   */\n      tag_24\n      jump\t// in\n    tag_59:\n        /* \"#utility.yul\":634:639   */\n      dup2\n        /* \"#utility.yul\":631:666   */\n      eq\n        /* \"#utility.yul\":621:684   */\n      tag_60\n      jumpi\n        /* \"#utility.yul\":680:681   */\n      0x00\n        /* \"#utility.yul\":677:678   */\n      dup1\n        /* \"#utility.yul\":670:682   */\n      revert\n        /* \"#utility.yul\":621:684   */\n    tag_60:\n        /* \"#utility.yul\":568:690   */\n      pop\n      jump\t// out\n        /* \"#utility.yul\":696:835   */\n    tag_26:\n        /* \"#utility.yul\":742:747   */\n      0x00\n        /* \"#utility.yul\":780:786   */\n      dup2\n        /* \"#utility.yul\":767:787   */\n      calldataload\n        /* \"#utility.yul\":758:787   */\n      swap1\n      pop\n        /* \"#utility.yul\":796:829   */\n      tag_62\n        /* \"#utility.yul\":823:828   */\n      dup2\n        /* \"#utility.yul\":796:829   */\n      tag_25\n      jump\t// in\n    tag_62:\n        /* \"#utility.yul\":696:835   */\n      swap3\n      swap2\n      pop\n      pop\n      jump\t// out\n        /* \"#utility.yul\":841:918   */\n    tag_27:\n        /* \"#utility.yul\":878:885   */\n      0x00\n        /* \"#utility.yul\":907:912   */\n      dup2\n        /* \"#utility.yul\":896:912   */\n      swap1\n      pop\n        /* \"#utility.yul\":841:918   */\n      swap2\n      swap1\n      pop\n      jump\t// out\n        /* \"#utility.yul\":924:1046   */\n    tag_28:\n        /* \"#utility.yul\":997:1021   */\n      tag_65\n        /* \"#utility.yul\":1015:1020   */\n      dup2\n        /* \"#utility.yul\":997:1021   */\n      tag_27\n      jump\t// in\n    tag_65:\n        /* \"#utility.yul\":990:995   */\n      dup2\n        /* \"#utility.yul\":987:1022   */\n      eq\n        /* \"#utility.yul\":977:1040   */\n      tag_66\n      jumpi\n        /* \"#utility.yul\":1036:1037   */\n      0x00\n        /* \"#utility.yul\":1033:1034   */\n      dup1\n        /* \"#utility.yul\":1026:1038   */\n      revert\n        /* \"#utility.yul\":977:1040   */\n    tag_66:\n        /* \"#utility.yul\":924:1046   */\n      pop\n      jump\t// out\n        /* \"#utility.yul\":1052:1191   */\n    tag_29:\n        /* \"#utility.yul\":1098:1103   */\n      0x00\n        /* \"#utility.yul\":1136:1142   */\n      dup2\n        /* \"#utility.yul\":1123:1143   */\n      calldataload\n        /* \"#utility.yul\":1114:1143   */\n      swap1\n      pop\n        /* \"#utility.yul\":1152:1185   */\n      tag_68\n        /* \"#utility.yul\":1179:1184   */\n      dup2\n        /* \"#utility.yul\":1152:1185   */\n      tag_28\n      jump\t// in\n    tag_68:\n        /* \"#utility.yul\":1052:1191   */\n      swap3\n      swap2\n      pop\n      pop\n      jump\t// out\n        /* \"#utility.yul\":1197:1314   */\n    tag_30:\n        /* \"#utility.yul\":1306:1307   */\n      0x00\n        /* \"#utility.yul\":1303:1304   */\n      dup1\n        /* \"#utility.yul\":1296:1308   */\n      revert\n        /* \"#utility.yul\":1320:1437   */\n    tag_31:\n        /* \"#utility.yul\":1429:1430   */\n      0x00\n        /* \"#utility.yul\":1426:1427   */\n      dup1\n        /* \"#utility.yul\":1419:1431   */\n      revert\n        /* \"#utility.yul\":1443:1545   */\n    tag_32:\n        /* \"#utility.yul\":1484:1490   */\n      0x00\n        /* \"#utility.yul\":1535:1537   */\n      0x1f\n        /* \"#utility.yul\":1531:1538   */\n      not\n        /* \"#utility.yul\":1526:1528   */\n      0x1f\n        /* \"#utility.yul\":1519:1524   */\n      dup4\n        /* \"#utility.yul\":1515:1529   */\n      add\n        /* \"#utility.yul\":1511:1539   */\n      and\n        /* \"#utility.yul\":1501:1539   */\n      swap1\n      pop\n        /* \"#utility.yul\":1443:1545   */\n      swap2\n      swap1\n      pop\n      jump\t// out\n        /* \"#utility.yul\":1551:1731   */\n    tag_33:\n        /* \"#utility.yul\":1599:1676   */\n      0x4e487b7100000000000000000000000000000000000000000000000000000000\n        /* \"#utility.yul\":1596:1597   */\n      0x00\n        /* \"#utility.yul\":1589:1677   */\n      mstore\n        /* \"#utility.yul\":1696:1700   */\n      0x41\n        /* \"#utility.yul\":1693:1694   */\n      0x04\n        /* \"#utility.yul\":1686:1701   */\n      mstore\n        /* \"#utility.yul\":1720:1724   */\n      0x24\n        /* \"#utility.yul\":1717:1718   */\n      0x00\n        /* \"#utility.yul\":1710:1725   */\n      revert\n        /* \"#utility.yul\":1737:2018   */\n    tag_34:\n        /* \"#utility.yul\":1820:1847   */\n      tag_74\n        /* \"#utility.yul\":1842:1846   */\n      dup3\n        /* \"#utility.yul\":1820:1847   */\n      tag_32\n      jump\t// in\n    tag_74:\n        /* \"#utility.yul\":1812:1818   */\n      dup2\n        /* \"#utility.yul\":1808:1848   */\n      add\n        /* \"#utility.yul\":1950:1956   */\n      dup2\n        /* \"#utility.yul\":1938:1948   */\n      dup2\n        /* \"#utility.yul\":1935:1957   */\n      lt\n        /* \"#utility.yul\":1914:1932   */\n      0xffffffffffffffff\n        /* \"#utility.yul\":1902:1912   */\n      dup3\n        /* \"#utility.yul\":1899:1933   */\n      gt\n        /* \"#utility.yul\":1896:1958   */\n      or\n        /* \"#utility.yul\":1893:1981   */\n      iszero\n      tag_75\n      jumpi\n        /* \"#utility.yul\":1961:1979   */\n      tag_76\n      tag_33\n      jump\t// in\n    tag_76:\n        /* \"#utility.yul\":1893:1981   */\n    tag_75:\n        /* \"#utility.yul\":2001:2011   */\n      dup1\n        /* \"#utility.yul\":1997:1999   */\n      0x40\n        /* \"#utility.yul\":1990:2012   */\n      mstore\n        /* \"#utility.yul\":1780:2018   */\n      pop\n        /* \"#utility.yul\":1737:2018   */\n      pop\n      pop\n      jump\t// out\n        /* \"#utility.yul\":2024:2153   */\n    tag_35:\n        /* \"#utility.yul\":2058:2064   */\n      0x00\n        /* \"#utility.yul\":2085:2105   */\n      tag_78\n      tag_20\n      jump\t// in\n    tag_78:\n        /* \"#utility.yul\":2075:2105   */\n      swap1\n      pop\n        /* \"#utility.yul\":2114:2147   */\n      tag_79\n        /* \"#utility.yul\":2142:2146   */\n      dup3\n        /* \"#utility.yul\":2134:2140   */\n      dup3\n        /* \"#utility.yul\":2114:2147   */\n      tag_34\n      jump\t// in\n    tag_79:\n        /* \"#utility.yul\":2024:2153   */\n      swap2\n      swap1\n      pop\n      jump\t// out\n        /* \"#utility.yul\":2159:2467   */\n    tag_36:\n        /* \"#utility.yul\":2221:2225   */\n      0x00\n        /* \"#utility.yul\":2311:2329   */\n      0xffffffffffffffff\n        /* \"#utility.yul\":2303:2309   */\n      dup3\n        /* \"#utility.yul\":2300:2330   */\n      gt\n        /* \"#utility.yul\":2297:2353   */\n      iszero\n      tag_81\n      jumpi\n        /* \"#utility.yul\":2333:2351   */\n      tag_82\n      tag_33\n      jump\t// in\n    tag_82:\n        /* \"#utility.yul\":2297:2353   */\n    tag_81:\n        /* \"#utility.yul\":2371:2400   */\n      tag_83\n        /* \"#utility.yul\":2393:2399   */\n      dup3\n        /* \"#utility.yul\":2371:2400   */\n      tag_32\n      jump\t// in\n    tag_83:\n        /* \"#utility.yul\":2363:2400   */\n      swap1\n      pop\n        /* \"#utility.yul\":2455:2459   */\n      0x20\n        /* \"#utility.yul\":2449:2453   */\n      dup2\n        /* \"#utility.yul\":2445:2460   */\n      add\n        /* \"#utility.yul\":2437:2460   */\n      swap1\n      pop\n        /* \"#utility.yul\":2159:2467   */\n      swap2\n      swap1\n      pop\n      jump\t// out\n        /* \"#utility.yul\":2473:2619   */\n    tag_37:\n        /* \"#utility.yul\":2570:2576   */\n      dup3\n        /* \"#utility.yul\":2565:2568   */\n      dup2\n        /* \"#utility.yul\":2560:2563   */\n      dup4\n        /* \"#utility.yul\":2547:2577   */\n      calldatacopy\n        /* \"#utility.yul\":2611:2612   */\n      0x00\n        /* \"#utility.yul\":2602:2608   */\n      dup4\n        /* \"#utility.yul\":2597:2600   */\n      dup4\n        /* \"#utility.yul\":2593:2609   */\n      add\n        /* \"#utility.yul\":2586:2613   */\n      mstore\n        /* \"#utility.yul\":2473:2619   */\n      pop\n      pop\n      pop\n      jump\t// out\n        /* \"#utility.yul\":2625:3050   */\n    tag_38:\n        /* \"#utility.yul\":2703:2708   */\n      0x00\n        /* \"#utility.yul\":2728:2794   */\n      tag_86\n        /* \"#utility.yul\":2744:2793   */\n      tag_87\n        /* \"#utility.yul\":2786:2792   */\n      dup5\n        /* \"#utility.yul\":2744:2793   */\n      tag_36\n      jump\t// in\n    tag_87:\n        /* \"#utility.yul\":2728:2794   */\n      tag_35\n      jump\t// in\n    tag_86:\n        /* \"#utility.yul\":2719:2794   */\n      swap1\n      pop\n        /* \"#utility.yul\":2817:2823   */\n      dup3\n        /* \"#utility.yul\":2810:2815   */\n      dup2\n        /* \"#utility.yul\":2803:2824   */\n      mstore\n        /* \"#utility.yul\":2855:2859   */\n      0x20\n        /* \"#utility.yul\":2848:2853   */\n      dup2\n        /* \"#utility.yul\":2844:2860   */\n      add\n        /* \"#utility.yul\":2893:2896   */\n      dup5\n        /* \"#utility.yul\":2884:2890   */\n      dup5\n        /* \"#utility.yul\":2879:2882   */\n      dup5\n        /* \"#utility.yul\":2875:2891   */\n      add\n        /* \"#utility.yul\":2872:2897   */\n      gt\n        /* \"#utility.yul\":2869:2981   */\n      iszero\n      tag_88\n      jumpi\n        /* \"#utility.yul\":2900:2979   */\n      tag_89\n      tag_31\n      jump\t// in\n    tag_89:\n        /* \"#utility.yul\":2869:2981   */\n    tag_88:\n        /* \"#utility.yul\":2990:3044   */\n      tag_90\n        /* \"#utility.yul\":3037:3043   */\n      dup5\n        /* \"#utility.yul\":3032:3035   */\n      dup3\n        /* \"#utility.yul\":3027:3030   */\n      dup6\n        /* \"#utility.yul\":2990:3044   */\n      tag_37\n      jump\t// in\n    tag_90:\n        /* \"#utility.yul\":2709:3050   */\n      pop\n        /* \"#utility.yul\":2625:3050   */\n      swap4\n      swap3\n      pop\n      pop\n      pop\n      jump\t// out\n        /* \"#utility.yul\":3070:3410   */\n    tag_39:\n        /* \"#utility.yul\":3126:3131   */\n      0x00\n        /* \"#utility.yul\":3175:3178   */\n      dup3\n        /* \"#utility.yul\":3168:3172   */\n      0x1f\n        /* \"#utility.yul\":3160:3166   */\n      dup4\n        /* \"#utility.yul\":3156:3173   */\n      add\n        /* \"#utility.yul\":3152:3179   */\n      slt\n        /* \"#utility.yul\":3142:3264   */\n      tag_92\n      jumpi\n        /* \"#utility.yul\":3183:3262   */\n      tag_93\n      tag_30\n      jump\t// in\n    tag_93:\n        /* \"#utility.yul\":3142:3264   */\n    tag_92:\n        /* \"#utility.yul\":3300:3306   */\n      dup2\n        /* \"#utility.yul\":3287:3307   */\n      calldataload\n        /* \"#utility.yul\":3325:3404   */\n      tag_94\n        /* \"#utility.yul\":3400:3403   */\n      dup5\n        /* \"#utility.yul\":3392:3398   */\n      dup3\n        /* \"#utility.yul\":3385:3389   */\n      0x20\n        /* \"#utility.yul\":3377:3383   */\n      dup7\n        /* \"#utility.yul\":3373:3390   */\n      add\n        /* \"#utility.yul\":3325:3404   */\n      tag_38\n      jump\t// in\n    tag_94:\n        /* \"#utility.yul\":3316:3404   */\n      swap2\n      pop\n        /* \"#utility.yul\":3132:3410   */\n      pop\n        /* \"#utility.yul\":3070:3410   */\n      swap3\n      swap2\n      pop\n      pop\n      jump\t// out\n        /* \"#utility.yul\":3416:4215   */\n    tag_6:\n        /* \"#utility.yul\":3503:3509   */\n      0x00\n        /* \"#utility.yul\":3511:3517   */\n      dup1\n        /* \"#utility.yul\":3519:3525   */\n      0x00\n        /* \"#utility.yul\":3568:3570   */\n      0x60\n        /* \"#utility.yul\":3556:3565   */\n      dup5\n        /* \"#utility.yul\":3547:3554   */\n      dup7\n        /* \"#utility.yul\":3543:3566   */\n      sub\n        /* \"#utility.yul\":3539:3571   */\n      slt\n        /* \"#utility.yul\":3536:3655   */\n      iszero\n      tag_96\n      jumpi\n        /* \"#utility.yul\":3574:3653   */\n      tag_97\n      tag_21\n      jump\t// in\n    tag_97:\n        /* \"#utility.yul\":3536:3655   */\n    tag_96:\n        /* \"#utility.yul\":3694:3695   */\n      0x00\n        /* \"#utility.yul\":3719:3772   */\n      tag_98\n        /* \"#utility.yul\":3764:3771   */\n      dup7\n        /* \"#utility.yul\":3755:3761   */\n      dup3\n        /* \"#utility.yul\":3744:3753   */\n      dup8\n        /* \"#utility.yul\":3740:3762   */\n      add\n        /* \"#utility.yul\":3719:3772   */\n      tag_26\n      jump\t// in\n    tag_98:\n        /* \"#utility.yul\":3709:3772   */\n      swap4\n      pop\n        /* \"#utility.yul\":3665:3782   */\n      pop\n        /* \"#utility.yul\":3821:3823   */\n      0x20\n        /* \"#utility.yul\":3847:3900   */\n      tag_99\n        /* \"#utility.yul\":3892:3899   */\n      dup7\n        /* \"#utility.yul\":3883:3889   */\n      dup3\n        /* \"#utility.yul\":3872:3881   */\n      dup8\n        /* \"#utility.yul\":3868:3890   */\n      add\n        /* \"#utility.yul\":3847:3900   */\n      tag_29\n      jump\t// in\n    tag_99:\n        /* \"#utility.yul\":3837:3900   */\n      swap3\n      pop\n        /* \"#utility.yul\":3792:3910   */\n      pop\n        /* \"#utility.yul\":3977:3979   */\n      0x40\n        /* \"#utility.yul\":3966:3975   */\n      dup5\n        /* \"#utility.yul\":3962:3980   */\n      add\n        /* \"#utility.yul\":3949:3981   */\n      calldataload\n        /* \"#utility.yul\":4008:4026   */\n      0xffffffffffffffff\n        /* \"#utility.yul\":4000:4006   */\n      dup2\n        /* \"#utility.yul\":3997:4027   */\n      gt\n        /* \"#utility.yul\":3994:4111   */\n      iszero\n      tag_100\n      jumpi\n        /* \"#utility.yul\":4030:4109   */\n      tag_101\n      tag_22\n      jump\t// in\n    tag_101:\n        /* \"#utility.yul\":3994:4111   */\n    tag_100:\n        /* \"#utility.yul\":4135:4198   */\n      tag_102\n        /* \"#utility.yul\":4190:4197   */\n      dup7\n        /* \"#utility.yul\":4181:4187   */\n      dup3\n        /* \"#utility.yul\":4170:4179   */\n      dup8\n        /* \"#utility.yul\":4166:4188   */\n      add\n        /* \"#utility.yul\":4135:4198   */\n      tag_39\n      jump\t// in\n    tag_102:\n        /* \"#utility.yul\":4125:4198   */\n      swap2\n      pop\n        /* \"#utility.yul\":3920:4208   */\n      pop\n        /* \"#utility.yul\":3416:4215   */\n      swap3\n      pop\n      swap3\n      pop\n      swap3\n      jump\t// out\n        /* \"#utility.yul\":4221:4390   */\n    tag_40:\n        /* \"#utility.yul\":4305:4316   */\n      0x00\n        /* \"#utility.yul\":4339:4345   */\n      dup3\n        /* \"#utility.yul\":4334:4337   */\n      dup3\n        /* \"#utility.yul\":4327:4346   */\n      mstore\n        /* \"#utility.yul\":4379:4383   */\n      0x20\n        /* \"#utility.yul\":4374:4377   */\n      dup3\n        /* \"#utility.yul\":4370:4384   */\n      add\n        /* \"#utility.yul\":4355:4384   */\n      swap1\n      pop\n        /* \"#utility.yul\":4221:4390   */\n      swap3\n      swap2\n      pop\n      pop\n      jump\t// out\n        /* \"#utility.yul\":4396:4568   */\n    tag_41:\n        /* \"#utility.yul\":4536:4560   */\n      0x416464726573732063616e6e6f74206265207a65726f00000000000000000000\n        /* \"#utility.yul\":4532:4533   */\n      0x00\n        /* \"#utility.yul\":4524:4530   */\n      dup3\n        /* \"#utility.yul\":4520:4534   */\n      add\n        /* \"#utility.yul\":4513:4561   */\n      mstore\n        /* \"#utility.yul\":4396:4568   */\n      pop\n      jump\t// out\n        /* \"#utility.yul\":4574:4940   */\n    tag_42:\n        /* \"#utility.yul\":4716:4719   */\n      0x00\n        /* \"#utility.yul\":4737:4804   */\n      tag_106\n        /* \"#utility.yul\":4801:4803   */\n      0x16\n        /* \"#utility.yul\":4796:4799   */\n      dup4\n        /* \"#utility.yul\":4737:4804   */\n      tag_40\n      jump\t// in\n    tag_106:\n        /* \"#utility.yul\":4730:4804   */\n      swap2\n      pop\n        /* \"#utility.yul\":4813:4906   */\n      tag_107\n        /* \"#utility.yul\":4902:4905   */\n      dup3\n        /* \"#utility.yul\":4813:4906   */\n      tag_41\n      jump\t// in\n    tag_107:\n        /* \"#utility.yul\":4931:4933   */\n      0x20\n        /* \"#utility.yul\":4926:4929   */\n      dup3\n        /* \"#utility.yul\":4922:4934   */\n      add\n        /* \"#utility.yul\":4915:4934   */\n      swap1\n      pop\n        /* \"#utility.yul\":4574:4940   */\n      swap2\n      swap1\n      pop\n      jump\t// out\n        /* \"#utility.yul\":4946:5365   */\n    tag_11:\n        /* \"#utility.yul\":5112:5116   */\n      0x00\n        /* \"#utility.yul\":5150:5152   */\n      0x20\n        /* \"#utility.yul\":5139:5148   */\n      dup3\n        /* \"#utility.yul\":5135:5153   */\n      add\n        /* \"#utility.yul\":5127:5153   */\n      swap1\n      pop\n        /* \"#utility.yul\":5199:5208   */\n      dup2\n        /* \"#utility.yul\":5193:5197   */\n      dup2\n        /* \"#utility.yul\":5189:5209   */\n      sub\n        /* \"#utility.yul\":5185:5186   */\n      0x00\n        /* \"#utility.yul\":5174:5183   */\n      dup4\n        /* \"#utility.yul\":5170:5187   */\n      add\n        /* \"#utility.yul\":5163:5210   */\n      mstore\n        /* \"#utility.yul\":5227:5358   */\n      tag_109\n        /* \"#utility.yul\":5353:5357   */\n      dup2\n        /* \"#utility.yul\":5227:5358   */\n      tag_42\n      jump\t// in\n    tag_109:\n        /* \"#utility.yul\":5219:5358   */\n      swap1\n      pop\n        /* \"#utility.yul\":4946:5365   */\n      swap2\n      swap1\n      pop\n      jump\t// out\n        /* \"#utility.yul\":5371:5553   */\n    tag_43:\n        /* \"#utility.yul\":5511:5545   */\n      0x4e756d626572206d7573742062652067726561746572207468616e207a65726f\n        /* \"#utility.yul\":5507:5508   */\n      0x00\n        /* \"#utility.yul\":5499:5505   */\n      dup3\n        /* \"#utility.yul\":5495:5509   */\n      add\n        /* \"#utility.yul\":5488:5546   */\n      mstore\n        /* \"#utility.yul\":5371:5553   */\n      pop\n      jump\t// out\n        /* \"#utility.yul\":5559:5925   */\n    tag_44:\n        /* \"#utility.yul\":5701:5704   */\n      0x00\n        /* \"#utility.yul\":5722:5789   */\n      tag_112\n        /* \"#utility.yul\":5786:5788   */\n      0x20\n        /* \"#utility.yul\":5781:5784   */\n      dup4\n        /* \"#utility.yul\":5722:5789   */\n      tag_40\n      jump\t// in\n    tag_112:\n        /* \"#utility.yul\":5715:5789   */\n      swap2\n      pop\n        /* \"#utility.yul\":5798:5891   */\n      tag_113\n        /* \"#utility.yul\":5887:5890   */\n      dup3\n        /* \"#utility.yul\":5798:5891   */\n      tag_43\n      jump\t// in\n    tag_113:\n        /* \"#utility.yul\":5916:5918   */\n      0x20\n        /* \"#utility.yul\":5911:5914   */\n      dup3\n        /* \"#utility.yul\":5907:5919   */\n      add\n        /* \"#utility.yul\":5900:5919   */\n      swap1\n      pop\n        /* \"#utility.yul\":5559:5925   */\n      swap2\n      swap1\n      pop\n      jump\t// out\n        /* \"#utility.yul\":5931:6350   */\n    tag_14:\n        /* \"#utility.yul\":6097:6101   */\n      0x00\n        /* \"#utility.yul\":6135:6137   */\n      0x20\n        /* \"#utility.yul\":6124:6133   */\n      dup3\n        /* \"#utility.yul\":6120:6138   */\n      add\n        /* \"#utility.yul\":6112:6138   */\n      swap1\n      pop\n        /* \"#utility.yul\":6184:6193   */\n      dup2\n        /* \"#utility.yul\":6178:6182   */\n      dup2\n        /* \"#utility.yul\":6174:6194   */\n      sub\n        /* \"#utility.yul\":6170:6171   */\n      0x00\n        /* \"#utility.yul\":6159:6168   */\n      dup4\n        /* \"#utility.yul\":6155:6172   */\n      add\n        /* \"#utility.yul\":6148:6195   */\n      mstore\n        /* \"#utility.yul\":6212:6343   */\n      tag_115\n        /* \"#utility.yul\":6338:6342   */\n      dup2\n        /* \"#utility.yul\":6212:6343   */\n      tag_44\n      jump\t// in\n    tag_115:\n        /* \"#utility.yul\":6204:6343   */\n      swap1\n      pop\n        /* \"#utility.yul\":5931:6350   */\n      swap2\n      swap1\n      pop\n      jump\t// out\n        /* \"#utility.yul\":6356:6583   */\n    tag_45:\n        /* \"#utility.yul\":6496:6530   */\n      0x546578742063616e6e6f7420626520656d707479546578742063616e6e6f7420\n        /* \"#utility.yul\":6492:6493   */\n      0x00\n        /* \"#utility.yul\":6484:6490   */\n      dup3\n        /* \"#utility.yul\":6480:6494   */\n      add\n        /* \"#utility.yul\":6473:6531   */\n      mstore\n        /* \"#utility.yul\":6565:6575   */\n      0x626520656d707479000000000000000000000000000000000000000000000000\n        /* \"#utility.yul\":6560:6562   */\n      0x20\n        /* \"#utility.yul\":6552:6558   */\n      dup3\n        /* \"#utility.yul\":6548:6563   */\n      add\n        /* \"#utility.yul\":6541:6576   */\n      mstore\n        /* \"#utility.yul\":6356:6583   */\n      pop\n      jump\t// out\n        /* \"#utility.yul\":6589:6955   */\n    tag_46:\n        /* \"#utility.yul\":6731:6734   */\n      0x00\n        /* \"#utility.yul\":6752:6819   */\n      tag_118\n        /* \"#utility.yul\":6816:6818   */\n      0x28\n        /* \"#utility.yul\":6811:6814   */\n      dup4\n        /* \"#utility.yul\":6752:6819   */\n      tag_40\n      jump\t// in\n    tag_118:\n        /* \"#utility.yul\":6745:6819   */\n      swap2\n      pop\n        /* \"#utility.yul\":6828:6921   */\n      tag_119\n        /* \"#utility.yul\":6917:6920   */\n      dup3\n        /* \"#utility.yul\":6828:6921   */\n      tag_45\n      jump\t// in\n    tag_119:\n        /* \"#utility.yul\":6946:6948   */\n      0x40\n        /* \"#utility.yul\":6941:6944   */\n      dup3\n        /* \"#utility.yul\":6937:6949   */\n      add\n        /* \"#utility.yul\":6930:6949   */\n      swap1\n      pop\n        /* \"#utility.yul\":6589:6955   */\n      swap2\n      swap1\n      pop\n      jump\t// out\n        /* \"#utility.yul\":6961:7380   */\n    tag_17:\n        /* \"#utility.yul\":7127:7131   */\n      0x00\n        /* \"#utility.yul\":7165:7167   */\n      0x20\n        /* \"#utility.yul\":7154:7163   */\n      dup3\n        /* \"#utility.yul\":7150:7168   */\n      add\n        /* \"#utility.yul\":7142:7168   */\n      swap1\n      pop\n        /* \"#utility.yul\":7214:7223   */\n      dup2\n        /* \"#utility.yul\":7208:7212   */\n      dup2\n        /* \"#utility.yul\":7204:7224   */\n      sub\n        /* \"#utility.yul\":7200:7201   */\n      0x00\n        /* \"#utility.yul\":7189:7198   */\n      dup4\n        /* \"#utility.yul\":7185:7202   */\n      add\n        /* \"#utility.yul\":7178:7225   */\n      mstore\n        /* \"#utility.yul\":7242:7373   */\n      tag_121\n        /* \"#utility.yul\":7368:7372   */\n      dup2\n        /* \"#utility.yul\":7242:7373   */\n      tag_46\n      jump\t// in\n    tag_121:\n        /* \"#utility.yul\":7234:7373   */\n      swap1\n      pop\n        /* \"#utility.yul\":6961:7380   */\n      swap2\n      swap1\n      pop\n      jump\t// out\n        /* \"#utility.yul\":7386:7504   */\n    tag_47:\n        /* \"#utility.yul\":7473:7497   */\n      tag_123\n        /* \"#utility.yul\":7491:7496   */\n      dup2\n        /* \"#utility.yul\":7473:7497   */\n      tag_27\n      jump\t// in\n    tag_123:\n        /* \"#utility.yul\":7468:7471   */\n      dup3\n        /* \"#utility.yul\":7461:7498   */\n      mstore\n        /* \"#utility.yul\":7386:7504   */\n      pop\n      pop\n      jump\t// out\n        /* \"#utility.yul\":7510:7609   */\n    tag_48:\n        /* \"#utility.yul\":7562:7568   */\n      0x00\n        /* \"#utility.yul\":7596:7601   */\n      dup2\n        /* \"#utility.yul\":7590:7602   */\n      mload\n        /* \"#utility.yul\":7580:7602   */\n      swap1\n      pop\n        /* \"#utility.yul\":7510:7609   */\n      swap2\n      swap1\n      pop\n      jump\t// out\n        /* \"#utility.yul\":7615:7861   */\n    tag_49:\n        /* \"#utility.yul\":7696:7697   */\n      0x00\n        /* \"#utility.yul\":7706:7819   */\n    tag_126:\n        /* \"#utility.yul\":7720:7726   */\n      dup4\n        /* \"#utility.yul\":7717:7718   */\n      dup2\n        /* \"#utility.yul\":7714:7727   */\n      lt\n        /* \"#utility.yul\":7706:7819   */\n      iszero\n      tag_128\n      jumpi\n        /* \"#utility.yul\":7805:7806   */\n      dup1\n        /* \"#utility.yul\":7800:7803   */\n      dup3\n        /* \"#utility.yul\":7796:7807   */\n      add\n        /* \"#utility.yul\":7790:7808   */\n      mload\n        /* \"#utility.yul\":7786:7787   */\n      dup2\n        /* \"#utility.yul\":7781:7784   */\n      dup5\n        /* \"#utility.yul\":7777:7788   */\n      add\n        /* \"#utility.yul\":7770:7809   */\n      mstore\n        /* \"#utility.yul\":7742:7744   */\n      0x20\n        /* \"#utility.yul\":7739:7740   */\n      dup2\n        /* \"#utility.yul\":7735:7745   */\n      add\n        /* \"#utility.yul\":7730:7745   */\n      swap1\n      pop\n        /* \"#utility.yul\":7706:7819   */\n      jump(tag_126)\n    tag_128:\n        /* \"#utility.yul\":7853:7854   */\n      0x00\n        /* \"#utility.yul\":7844:7850   */\n      dup5\n        /* \"#utility.yul\":7839:7842   */\n      dup5\n        /* \"#utility.yul\":7835:7851   */\n      add\n        /* \"#utility.yul\":7828:7855   */\n      mstore\n        /* \"#utility.yul\":7677:7861   */\n      pop\n        /* \"#utility.yul\":7615:7861   */\n      pop\n      pop\n      pop\n      jump\t// out\n        /* \"#utility.yul\":7867:8244   */\n    tag_50:\n        /* \"#utility.yul\":7955:7958   */\n      0x00\n        /* \"#utility.yul\":7983:8022   */\n      tag_130\n        /* \"#utility.yul\":8016:8021   */\n      dup3\n        /* \"#utility.yul\":7983:8022   */\n      tag_48\n      jump\t// in\n    tag_130:\n        /* \"#utility.yul\":8038:8109   */\n      tag_131\n        /* \"#utility.yul\":8102:8108   */\n      dup2\n        /* \"#utility.yul\":8097:8100   */\n      dup6\n        /* \"#utility.yul\":8038:8109   */\n      tag_40\n      jump\t// in\n    tag_131:\n        /* \"#utility.yul\":8031:8109   */\n      swap4\n      pop\n        /* \"#utility.yul\":8118:8183   */\n      tag_132\n        /* \"#utility.yul\":8176:8182   */\n      dup2\n        /* \"#utility.yul\":8171:8174   */\n      dup6\n        /* \"#utility.yul\":8164:8168   */\n      0x20\n        /* \"#utility.yul\":8157:8162   */\n      dup7\n        /* \"#utility.yul\":8153:8169   */\n      add\n        /* \"#utility.yul\":8118:8183   */\n      tag_49\n      jump\t// in\n    tag_132:\n        /* \"#utility.yul\":8208:8237   */\n      tag_133\n        /* \"#utility.yul\":8230:8236   */\n      dup2\n        /* \"#utility.yul\":8208:8237   */\n      tag_32\n      jump\t// in\n    tag_133:\n        /* \"#utility.yul\":8203:8206   */\n      dup5\n        /* \"#utility.yul\":8199:8238   */\n      add\n        /* \"#utility.yul\":8192:8238   */\n      swap2\n      pop\n        /* \"#utility.yul\":7959:8244   */\n      pop\n        /* \"#utility.yul\":7867:8244   */\n      swap3\n      swap2\n      pop\n      pop\n      jump\t// out\n        /* \"#utility.yul\":8250:8673   */\n    tag_19:\n        /* \"#utility.yul\":8391:8395   */\n      0x00\n        /* \"#utility.yul\":8429:8431   */\n      0x40\n        /* \"#utility.yul\":8418:8427   */\n      dup3\n        /* \"#utility.yul\":8414:8432   */\n      add\n        /* \"#utility.yul\":8406:8432   */\n      swap1\n      pop\n        /* \"#utility.yul\":8442:8513   */\n      tag_135\n        /* \"#utility.yul\":8510:8511   */\n      0x00\n        /* \"#utility.yul\":8499:8508   */\n      dup4\n        /* \"#utility.yul\":8495:8512   */\n      add\n        /* \"#utility.yul\":8486:8492   */\n      dup6\n        /* \"#utility.yul\":8442:8513   */\n      tag_47\n      jump\t// in\n    tag_135:\n        /* \"#utility.yul\":8560:8569   */\n      dup2\n        /* \"#utility.yul\":8554:8558   */\n      dup2\n        /* \"#utility.yul\":8550:8570   */\n      sub\n        /* \"#utility.yul\":8545:8547   */\n      0x20\n        /* \"#utility.yul\":8534:8543   */\n      dup4\n        /* \"#utility.yul\":8530:8548   */\n      add\n        /* \"#utility.yul\":8523:8571   */\n      mstore\n        /* \"#utility.yul\":8588:8666   */\n      tag_136\n        /* \"#utility.yul\":8661:8665   */\n      dup2\n        /* \"#utility.yul\":8652:8658   */\n      dup5\n        /* \"#utility.yul\":8588:8666   */\n      tag_50\n      jump\t// in\n    tag_136:\n        /* \"#utility.yul\":8580:8666   */\n      swap1\n      pop\n        /* \"#utility.yul\":8250:8673   */\n      swap4\n      swap3\n      pop\n      pop\n      pop\n      jump\t// out\n\n    auxdata: 0xa26469706673582212206018a3ab33b78858b936e39e50d9999183ec080687fc8329a3916b82496d43cb64736f6c63430008160033\n}\n",
				"bytecode": {
					"linkReferences": {},
					"object": "608060405234801561000f575f80fd5b506106228061001d5f395ff3fe608060405234801561000f575f80fd5b5060043610610029575f3560e01c8063db46dfbe1461002d575b5f80fd5b6100476004803603810190610042919061036b565b610049565b005b5f73ffffffffffffffffffffffffffffffffffffffff168373ffffffffffffffffffffffffffffffffffffffff16036100b7576040517f08c379a00000000000000000000000000000000000000000000000000000000081526004016100ae90610431565b60405180910390fd5b5f82116100f9576040517f08c379a00000000000000000000000000000000000000000000000000000000081526004016100f090610499565b60405180910390fd5b5f81511161013c576040517f08c379a000000000000000000000000000000000000000000000000000000000815260040161013390610527565b60405180910390fd5b8273ffffffffffffffffffffffffffffffffffffffff167f9d3ccd3800f696e9a79ed0cbfa3752984f71263aa4083bf972ec220148a16a7483836040516101849291906105be565b60405180910390a2505050565b5f604051905090565b5f80fd5b5f80fd5b5f73ffffffffffffffffffffffffffffffffffffffff82169050919050565b5f6101cb826101a2565b9050919050565b6101db816101c1565b81146101e5575f80fd5b50565b5f813590506101f6816101d2565b92915050565b5f819050919050565b61020e816101fc565b8114610218575f80fd5b50565b5f8135905061022981610205565b92915050565b5f80fd5b5f80fd5b5f601f19601f8301169050919050565b7f4e487b71000000000000000000000000000000000000000000000000000000005f52604160045260245ffd5b61027d82610237565b810181811067ffffffffffffffff8211171561029c5761029b610247565b5b80604052505050565b5f6102ae610191565b90506102ba8282610274565b919050565b5f67ffffffffffffffff8211156102d9576102d8610247565b5b6102e282610237565b9050602081019050919050565b828183375f83830152505050565b5f61030f61030a846102bf565b6102a5565b90508281526020810184848401111561032b5761032a610233565b5b6103368482856102ef565b509392505050565b5f82601f8301126103525761035161022f565b5b81356103628482602086016102fd565b91505092915050565b5f805f606084860312156103825761038161019a565b5b5f61038f868287016101e8565b93505060206103a08682870161021b565b925050604084013567ffffffffffffffff8111156103c1576103c061019e565b5b6103cd8682870161033e565b9150509250925092565b5f82825260208201905092915050565b7f416464726573732063616e6e6f74206265207a65726f000000000000000000005f82015250565b5f61041b6016836103d7565b9150610426826103e7565b602082019050919050565b5f6020820190508181035f8301526104488161040f565b9050919050565b7f4e756d626572206d7573742062652067726561746572207468616e207a65726f5f82015250565b5f6104836020836103d7565b915061048e8261044f565b602082019050919050565b5f6020820190508181035f8301526104b081610477565b9050919050565b7f546578742063616e6e6f7420626520656d707479546578742063616e6e6f74205f8201527f626520656d707479000000000000000000000000000000000000000000000000602082015250565b5f6105116028836103d7565b915061051c826104b7565b604082019050919050565b5f6020820190508181035f83015261053e81610505565b9050919050565b61054e816101fc565b82525050565b5f81519050919050565b5f5b8381101561057b578082015181840152602081019050610560565b5f8484015250505050565b5f61059082610554565b61059a81856103d7565b93506105aa81856020860161055e565b6105b381610237565b840191505092915050565b5f6040820190506105d15f830185610545565b81810360208301526105e38184610586565b9050939250505056fea26469706673582212206018a3ab33b78858b936e39e50d9999183ec080687fc8329a3916b82496d43cb64736f6c63430008160033",
					"opcodes": "PUSH1 0x80 PUSH1 0x40 MSTORE CALLVALUE DUP1 ISZERO PUSH2 0xF JUMPI PUSH0 DUP1 REVERT JUMPDEST POP PUSH2 0x622 DUP1 PUSH2 0x1D PUSH0 CODECOPY PUSH0 RETURN INVALID PUSH1 0x80 PUSH1 0x40 MSTORE CALLVALUE DUP1 ISZERO PUSH2 0xF JUMPI PUSH0 DUP1 REVERT JUMPDEST POP PUSH1 0x4 CALLDATASIZE LT PUSH2 0x29 JUMPI PUSH0 CALLDATALOAD PUSH1 0xE0 SHR DUP1 PUSH4 0xDB46DFBE EQ PUSH2 0x2D JUMPI JUMPDEST PUSH0 DUP1 REVERT JUMPDEST PUSH2 0x47 PUSH1 0x4 DUP1 CALLDATASIZE SUB DUP2 ADD SWAP1 PUSH2 0x42 SWAP2 SWAP1 PUSH2 0x36B JUMP JUMPDEST PUSH2 0x49 JUMP JUMPDEST STOP JUMPDEST PUSH0 PUSH20 0xFFFFFFFFFFFFFFFFFFFFFFFFFFFFFFFFFFFFFFFF AND DUP4 PUSH20 0xFFFFFFFFFFFFFFFFFFFFFFFFFFFFFFFFFFFFFFFF AND SUB PUSH2 0xB7 JUMPI PUSH1 0x40 MLOAD PUSH32 0x8C379A000000000000000000000000000000000000000000000000000000000 DUP2 MSTORE PUSH1 0x4 ADD PUSH2 0xAE SWAP1 PUSH2 0x431 JUMP JUMPDEST PUSH1 0x40 MLOAD DUP1 SWAP2 SUB SWAP1 REVERT JUMPDEST PUSH0 DUP3 GT PUSH2 0xF9 JUMPI PUSH1 0x40 MLOAD PUSH32 0x8C379A000000000000000000000000000000000000000000000000000000000 DUP2 MSTORE PUSH1 0x4 ADD PUSH2 0xF0 SWAP1 PUSH2 0x499 JUMP JUMPDEST PUSH1 0x40 MLOAD DUP1 SWAP2 SUB SWAP1 REVERT JUMPDEST PUSH0 DUP2 MLOAD GT PUSH2 0x13C JUMPI PUSH1 0x40 MLOAD PUSH32 0x8C379A000000000000000000000000000000000000000000000000000000000 DUP2 MSTORE PUSH1 0x4 ADD PUSH2 0x133 SWAP1 PUSH2 0x527 JUMP JUMPDEST PUSH1 0x40 MLOAD DUP1 SWAP2 SUB SWAP1 REVERT JUMPDEST DUP3 PUSH20 0xFFFFFFFFFFFFFFFFFFFFFFFFFFFFFFFFFFFFFFFF AND PUSH32 0x9D3CCD3800F696E9A79ED0CBFA3752984F71263AA4083BF972EC220148A16A74 DUP4 DUP4 PUSH1 0x40 MLOAD PUSH2 0x184 SWAP3 SWAP2 SWAP1 PUSH2 0x5BE JUMP JUMPDEST PUSH1 0x40 MLOAD DUP1 SWAP2 SUB SWAP1 LOG2 POP POP POP JUMP JUMPDEST PUSH0 PUSH1 0x40 MLOAD SWAP1 POP SWAP1 JUMP JUMPDEST PUSH0 DUP1 REVERT JUMPDEST PUSH0 DUP1 REVERT JUMPDEST PUSH0 PUSH20 0xFFFFFFFFFFFFFFFFFFFFFFFFFFFFFFFFFFFFFFFF DUP3 AND SWAP1 POP SWAP2 SWAP1 POP JUMP JUMPDEST PUSH0 PUSH2 0x1CB DUP3 PUSH2 0x1A2 JUMP JUMPDEST SWAP1 POP SWAP2 SWAP1 POP JUMP JUMPDEST PUSH2 0x1DB DUP2 PUSH2 0x1C1 JUMP JUMPDEST DUP2 EQ PUSH2 0x1E5 JUMPI PUSH0 DUP1 REVERT JUMPDEST POP JUMP JUMPDEST PUSH0 DUP2 CALLDATALOAD SWAP1 POP PUSH2 0x1F6 DUP2 PUSH2 0x1D2 JUMP JUMPDEST SWAP3 SWAP2 POP POP JUMP JUMPDEST PUSH0 DUP2 SWAP1 POP SWAP2 SWAP1 POP JUMP JUMPDEST PUSH2 0x20E DUP2 PUSH2 0x1FC JUMP JUMPDEST DUP2 EQ PUSH2 0x218 JUMPI PUSH0 DUP1 REVERT JUMPDEST POP JUMP JUMPDEST PUSH0 DUP2 CALLDATALOAD SWAP1 POP PUSH2 0x229 DUP2 PUSH2 0x205 JUMP JUMPDEST SWAP3 SWAP2 POP POP JUMP JUMPDEST PUSH0 DUP1 REVERT JUMPDEST PUSH0 DUP1 REVERT JUMPDEST PUSH0 PUSH1 0x1F NOT PUSH1 0x1F DUP4 ADD AND SWAP1 POP SWAP2 SWAP1 POP JUMP JUMPDEST PUSH32 0x4E487B7100000000000000000000000000000000000000000000000000000000 PUSH0 MSTORE PUSH1 0x41 PUSH1 0x4 MSTORE PUSH1 0x24 PUSH0 REVERT JUMPDEST PUSH2 0x27D DUP3 PUSH2 0x237 JUMP JUMPDEST DUP2 ADD DUP2 DUP2 LT PUSH8 0xFFFFFFFFFFFFFFFF DUP3 GT OR ISZERO PUSH2 0x29C JUMPI PUSH2 0x29B PUSH2 0x247 JUMP JUMPDEST JUMPDEST DUP1 PUSH1 0x40 MSTORE POP POP POP JUMP JUMPDEST PUSH0 PUSH2 0x2AE PUSH2 0x191 JUMP JUMPDEST SWAP1 POP PUSH2 0x2BA DUP3 DUP3 PUSH2 0x274 JUMP JUMPDEST SWAP2 SWAP1 POP JUMP JUMPDEST PUSH0 PUSH8 0xFFFFFFFFFFFFFFFF DUP3 GT ISZERO PUSH2 0x2D9 JUMPI PUSH2 0x2D8 PUSH2 0x247 JUMP JUMPDEST JUMPDEST PUSH2 0x2E2 DUP3 PUSH2 0x237 JUMP JUMPDEST SWAP1 POP PUSH1 0x20 DUP2 ADD SWAP1 POP SWAP2 SWAP1 POP JUMP JUMPDEST DUP3 DUP2 DUP4 CALLDATACOPY PUSH0 DUP4 DUP4 ADD MSTORE POP POP POP JUMP JUMPDEST PUSH0 PUSH2 0x30F PUSH2 0x30A DUP5 PUSH2 0x2BF JUMP JUMPDEST PUSH2 0x2A5 JUMP JUMPDEST SWAP1 POP DUP3 DUP2 MSTORE PUSH1 0x20 DUP2 ADD DUP5 DUP5 DUP5 ADD GT ISZERO PUSH2 0x32B JUMPI PUSH2 0x32A PUSH2 0x233 JUMP JUMPDEST JUMPDEST PUSH2 0x336 DUP5 DUP3 DUP6 PUSH2 0x2EF JUMP JUMPDEST POP SWAP4 SWAP3 POP POP POP JUMP JUMPDEST PUSH0 DUP3 PUSH1 0x1F DUP4 ADD SLT PUSH2 0x352 JUMPI PUSH2 0x351 PUSH2 0x22F JUMP JUMPDEST JUMPDEST DUP2 CALLDATALOAD PUSH2 0x362 DUP5 DUP3 PUSH1 0x20 DUP7 ADD PUSH2 0x2FD JUMP JUMPDEST SWAP2 POP POP SWAP3 SWAP2 POP POP JUMP JUMPDEST PUSH0 DUP1 PUSH0 PUSH1 0x60 DUP5 DUP7 SUB SLT ISZERO PUSH2 0x382 JUMPI PUSH2 0x381 PUSH2 0x19A JUMP JUMPDEST JUMPDEST PUSH0 PUSH2 0x38F DUP7 DUP3 DUP8 ADD PUSH2 0x1E8 JUMP JUMPDEST SWAP4 POP POP PUSH1 0x20 PUSH2 0x3A0 DUP7 DUP3 DUP8 ADD PUSH2 0x21B JUMP JUMPDEST SWAP3 POP POP PUSH1 0x40 DUP5 ADD CALLDATALOAD PUSH8 0xFFFFFFFFFFFFFFFF DUP2 GT ISZERO PUSH2 0x3C1 JUMPI PUSH2 0x3C0 PUSH2 0x19E JUMP JUMPDEST JUMPDEST PUSH2 0x3CD DUP7 DUP3 DUP8 ADD PUSH2 0x33E JUMP JUMPDEST SWAP2 POP POP SWAP3 POP SWAP3 POP SWAP3 JUMP JUMPDEST PUSH0 DUP3 DUP3 MSTORE PUSH1 0x20 DUP3 ADD SWAP1 POP SWAP3 SWAP2 POP POP JUMP JUMPDEST PUSH32 0x416464726573732063616E6E6F74206265207A65726F00000000000000000000 PUSH0 DUP3 ADD MSTORE POP JUMP JUMPDEST PUSH0 PUSH2 0x41B PUSH1 0x16 DUP4 PUSH2 0x3D7 JUMP JUMPDEST SWAP2 POP PUSH2 0x426 DUP3 PUSH2 0x3E7 JUMP JUMPDEST PUSH1 0x20 DUP3 ADD SWAP1 POP SWAP2 SWAP1 POP JUMP JUMPDEST PUSH0 PUSH1 0x20 DUP3 ADD SWAP1 POP DUP2 DUP2 SUB PUSH0 DUP4 ADD MSTORE PUSH2 0x448 DUP2 PUSH2 0x40F JUMP JUMPDEST SWAP1 POP SWAP2 SWAP1 POP JUMP JUMPDEST PUSH32 0x4E756D626572206D7573742062652067726561746572207468616E207A65726F PUSH0 DUP3 ADD MSTORE POP JUMP JUMPDEST PUSH0 PUSH2 0x483 PUSH1 0x20 DUP4 PUSH2 0x3D7 JUMP JUMPDEST SWAP2 POP PUSH2 0x48E DUP3 PUSH2 0x44F JUMP JUMPDEST PUSH1 0x20 DUP3 ADD SWAP1 POP SWAP2 SWAP1 POP JUMP JUMPDEST PUSH0 PUSH1 0x20 DUP3 ADD SWAP1 POP DUP2 DUP2 SUB PUSH0 DUP4 ADD MSTORE PUSH2 0x4B0 DUP2 PUSH2 0x477 JUMP JUMPDEST SWAP1 POP SWAP2 SWAP1 POP JUMP JUMPDEST PUSH32 0x546578742063616E6E6F7420626520656D707479546578742063616E6E6F7420 PUSH0 DUP3 ADD MSTORE PUSH32 0x626520656D707479000000000000000000000000000000000000000000000000 PUSH1 0x20 DUP3 ADD MSTORE POP JUMP JUMPDEST PUSH0 PUSH2 0x511 PUSH1 0x28 DUP4 PUSH2 0x3D7 JUMP JUMPDEST SWAP2 POP PUSH2 0x51C DUP3 PUSH2 0x4B7 JUMP JUMPDEST PUSH1 0x40 DUP3 ADD SWAP1 POP SWAP2 SWAP1 POP JUMP JUMPDEST PUSH0 PUSH1 0x20 DUP3 ADD SWAP1 POP DUP2 DUP2 SUB PUSH0 DUP4 ADD MSTORE PUSH2 0x53E DUP2 PUSH2 0x505 JUMP JUMPDEST SWAP1 POP SWAP2 SWAP1 POP JUMP JUMPDEST PUSH2 0x54E DUP2 PUSH2 0x1FC JUMP JUMPDEST DUP3 MSTORE POP POP JUMP JUMPDEST PUSH0 DUP2 MLOAD SWAP1 POP SWAP2 SWAP1 POP JUMP JUMPDEST PUSH0 JUMPDEST DUP4 DUP2 LT ISZERO PUSH2 0x57B JUMPI DUP1 DUP3 ADD MLOAD DUP2 DUP5 ADD MSTORE PUSH1 0x20 DUP2 ADD SWAP1 POP PUSH2 0x560 JUMP JUMPDEST PUSH0 DUP5 DUP5 ADD MSTORE POP POP POP POP JUMP JUMPDEST PUSH0 PUSH2 0x590 DUP3 PUSH2 0x554 JUMP JUMPDEST PUSH2 0x59A DUP2 DUP6 PUSH2 0x3D7 JUMP JUMPDEST SWAP4 POP PUSH2 0x5AA DUP2 DUP6 PUSH1 0x20 DUP7 ADD PUSH2 0x55E JUMP JUMPDEST PUSH2 0x5B3 DUP2 PUSH2 0x237 JUMP JUMPDEST DUP5 ADD SWAP2 POP POP SWAP3 SWAP2 POP POP JUMP JUMPDEST PUSH0 PUSH1 0x40 DUP3 ADD SWAP1 POP PUSH2 0x5D1 PUSH0 DUP4 ADD DUP6 PUSH2 0x545 JUMP JUMPDEST DUP2 DUP2 SUB PUSH1 0x20 DUP4 ADD MSTORE PUSH2 0x5E3 DUP2 DUP5 PUSH2 0x586 JUMP JUMPDEST SWAP1 POP SWAP4 SWAP3 POP POP POP JUMP INVALID LOG2 PUSH5 0x6970667358 0x22 SLT KECCAK256 PUSH1 0x18 LOG3 0xAB CALLER 0xB7 DUP9 PC 0xB9 CALLDATASIZE 0xE3 SWAP15 POP 0xD9 SWAP10 SWAP2 DUP4 0xEC ADDMOD MOD DUP8 0xFC DUP4 0x29 LOG3 SWAP2 PUSH12 0x82496D43CB64736F6C634300 ADDMOD AND STOP CALLER "
				},
				"gasEstimates": {
					"creation": {
						"codeDepositCost": "314000",
						"executionCost": "353",
						"totalCost": "314353"
					},
					"external": {
						"validateParameters(address,uint256,string)": "infinite"
					}
				},
				"methodIdentifiers": {
					"validateParameters(address,uint256,string)": "db46dfbe"
				}
			},
			"storageLayout": {
				"storage": [],
				"types": null
			},
			"userdoc": {
				"kind": "user",
				"methods": {},
				"version": 1
			}
		}
	}
}