{
  "_format": "hh-sol-artifact-1",
  "contractName": "AddressRecordFactory",
  "sourceName": "contracts/PracticeGuideDAO/RecordFactoryENS.sol",
  "abi": [
    {
      "inputs": [
        {
          "internalType": "address",
          "name": "_recordsStorage",
          "type": "address"
        }
      ],
      "stateMutability": "nonpayable",
      "type": "constructor"
    },
    {
      "inputs": [
        {
          "internalType": "address",
          "name": "_record",
          "type": "address"
        }
      ],
      "name": "addAddressRecord",
      "outputs": [],
      "stateMutability": "nonpayable",
      "type": "function"
    },
    {
      "inputs": [],
      "name": "recordsStorage",
      "outputs": [
        {
          "internalType": "contract IRecordStorage",
          "name": "",
          "type": "address"
        }
      ],
      "stateMutability": "view",
      "type": "function"
    }
  ],
  "bytecode": "0x608060405234801561001057600080fd5b5060405161054e38038061054e83398101604081905261002f91610054565b600080546001600160a01b0319166001600160a01b0392909216919091179055610084565b60006020828403121561006657600080fd5b81516001600160a01b038116811461007d57600080fd5b9392505050565b6104bb806100936000396000f3fe608060405234801561001057600080fd5b50600436106100365760003560e01c8063acd1a33e1461003b578063bb2ab9fa14610084575b600080fd5b60005461005b9073ffffffffffffffffffffffffffffffffffffffff1681565b60405173ffffffffffffffffffffffffffffffffffffffff909116815260200160405180910390f35b610097610092366004610186565b610099565b005b6000816040516100a890610179565b73ffffffffffffffffffffffffffffffffffffffff9091168152602001604051809103906000f0801580156100e1573d6000803e3d6000fd5b5090506100ed816100f1565b5050565b6000546040517f99b5346300000000000000000000000000000000000000000000000000000000815273ffffffffffffffffffffffffffffffffffffffff8381166004830152909116906399b5346390602401600060405180830381600087803b15801561015e57600080fd5b505af1158015610172573d6000803e3d6000fd5b5050505050565b6102c2806101c483390190565b60006020828403121561019857600080fd5b813573ffffffffffffffffffffffffffffffffffffffff811681146101bc57600080fd5b939250505056fe608060405234801561001057600080fd5b506040516102c23803806102c283398101604081905261002f91610058565b42600055600180546001600160a01b0319166001600160a01b0392909216919091179055610088565b60006020828403121561006a57600080fd5b81516001600160a01b038116811461008157600080fd5b9392505050565b61022b806100976000396000f3fe608060405234801561001057600080fd5b506004361061004c5760003560e01c80630781f5c9146100515780631dcd69ec14610099578063266cf109146100b0578063c37787d9146100f5575b600080fd5b604080518082018252600781527f616464726573730000000000000000000000000000000000000000000000000060208201529051610090919061014c565b60405180910390f35b6100a260005481565b604051908152602001610090565b6001546100d09073ffffffffffffffffffffffffffffffffffffffff1681565b60405173ffffffffffffffffffffffffffffffffffffffff9091168152602001610090565b61014a6101033660046101b8565b600180547fffffffffffffffffffffffff00000000000000000000000000000000000000001673ffffffffffffffffffffffffffffffffffffffff92909216919091179055565b005b600060208083528351808285015260005b818110156101795785810183015185820160400152820161015d565b5060006040828601015260407fffffffffffffffffffffffffffffffffffffffffffffffffffffffffffffffe0601f8301168501019250505092915050565b6000602082840312156101ca57600080fd5b813573ffffffffffffffffffffffffffffffffffffffff811681146101ee57600080fd5b939250505056fea2646970667358221220926f5d4ec5185ca08249b35a132a5a04126a1994b2364dddce3f50828d1fb54564736f6c63430008140033a2646970667358221220fed8f80ff94c141ff5df2ce30c85f67e18bd72284a8e00ebbb65f4bb51ee604364736f6c63430008140033",
  "linkReferences": {},
  "deployedLinkReferences": {}
}