{
  "_format": "hh-sol-artifact-1",
  "contractName": "RecordsStorage",
  "sourceName": "contracts/PracticeGuideDAO/RecordFactoryENS.sol",
  "abi": [
    {
      "inputs": [
        {
          "internalType": "address",
          "name": "initialOwner",
          "type": "address"
        }
      ],
      "stateMutability": "nonpayable",
      "type": "constructor"
    },
    {
      "inputs": [
        {
          "internalType": "address",
          "name": "owner",
          "type": "address"
        }
      ],
      "name": "OwnableInvalidOwner",
      "type": "error"
    },
    {
      "inputs": [
        {
          "internalType": "address",
          "name": "account",
          "type": "address"
        }
      ],
      "name": "OwnableUnauthorizedAccount",
      "type": "error"
    },
    {
      "anonymous": false,
      "inputs": [
        {
          "indexed": true,
          "internalType": "address",
          "name": "previousOwner",
          "type": "address"
        },
        {
          "indexed": true,
          "internalType": "address",
          "name": "newOwner",
          "type": "address"
        }
      ],
      "name": "OwnershipTransferred",
      "type": "event"
    },
    {
      "inputs": [
        {
          "internalType": "address",
          "name": "_factory",
          "type": "address"
        }
      ],
      "name": "addFactory",
      "outputs": [],
      "stateMutability": "nonpayable",
      "type": "function"
    },
    {
      "inputs": [
        {
          "internalType": "contract Record",
          "name": "_record",
          "type": "address"
        }
      ],
      "name": "addRecord",
      "outputs": [],
      "stateMutability": "nonpayable",
      "type": "function"
    },
    {
      "inputs": [
        {
          "internalType": "address",
          "name": "",
          "type": "address"
        }
      ],
      "name": "factories",
      "outputs": [
        {
          "internalType": "bool",
          "name": "",
          "type": "bool"
        }
      ],
      "stateMutability": "view",
      "type": "function"
    },
    {
      "inputs": [],
      "name": "owner",
      "outputs": [
        {
          "internalType": "address",
          "name": "",
          "type": "address"
        }
      ],
      "stateMutability": "view",
      "type": "function"
    },
    {
      "inputs": [
        {
          "internalType": "uint256",
          "name": "",
          "type": "uint256"
        }
      ],
      "name": "records",
      "outputs": [
        {
          "internalType": "contract Record",
          "name": "",
          "type": "address"
        }
      ],
      "stateMutability": "view",
      "type": "function"
    },
    {
      "inputs": [],
      "name": "renounceOwnership",
      "outputs": [],
      "stateMutability": "nonpayable",
      "type": "function"
    },
    {
      "inputs": [
        {
          "internalType": "address",
          "name": "newOwner",
          "type": "address"
        }
      ],
      "name": "transferOwnership",
      "outputs": [],
      "stateMutability": "nonpayable",
      "type": "function"
    }
  ],
  "bytecode": "0x608060405234801561001057600080fd5b506040516105a73803806105a783398101604081905261002f916100be565b806001600160a01b03811661005e57604051631e4fbdf760e01b81526000600482015260240160405180910390fd5b6100678161006e565b50506100ee565b600080546001600160a01b038381166001600160a01b0319831681178455604051919092169283917f8be0079c531659141344cd1fd0a4f28419497f9722a3daafe3b4186f6b6457e09190a35050565b6000602082840312156100d057600080fd5b81516001600160a01b03811681146100e757600080fd5b9392505050565b6104aa806100fd6000396000f3fe608060405234801561001057600080fd5b506004361061007d5760003560e01c80638da5cb5b1161005b5780638da5cb5b146100dc57806399b53463146100fa578063f2fde38b1461010d578063fab526891461012057600080fd5b806329ce1ec5146100825780633446106714610097578063715018a6146100d4575b600080fd5b610095610090366004610437565b610153565b005b6100aa6100a536600461045b565b6101aa565b60405173ffffffffffffffffffffffffffffffffffffffff90911681526020015b60405180910390f35b6100956101e1565b60005473ffffffffffffffffffffffffffffffffffffffff166100aa565b610095610108366004610437565b6101f5565b61009561011b366004610437565b6102e9565b61014361012e366004610437565b60026020526000908152604090205460ff1681565b60405190151581526020016100cb565b61015b61034d565b73ffffffffffffffffffffffffffffffffffffffff16600090815260026020526040902080547fffffffffffffffffffffffffffffffffffffffffffffffffffffffffffffff00166001179055565b600181815481106101ba57600080fd5b60009182526020909120015473ffffffffffffffffffffffffffffffffffffffff16905081565b6101e961034d565b6101f360006103a0565b565b3360009081526002602052604090205460ff16610273576040517f08c379a000000000000000000000000000000000000000000000000000000000815260206004820152601960248201527f4e6f7420616e20617574686f72697a656420666163746f72790000000000000060448201526064015b60405180910390fd5b6001805480820182556000919091527fb10e2d527612073b26eecdfd717e6a320cf44b4afac2b0732d9fcbe2b7fa0cf60180547fffffffffffffffffffffffff00000000000000000000000000000000000000001673ffffffffffffffffffffffffffffffffffffffff92909216919091179055565b6102f161034d565b73ffffffffffffffffffffffffffffffffffffffff8116610341576040517f1e4fbdf70000000000000000000000000000000000000000000000000000000081526000600482015260240161026a565b61034a816103a0565b50565b60005473ffffffffffffffffffffffffffffffffffffffff1633146101f3576040517f118cdaa700000000000000000000000000000000000000000000000000000000815233600482015260240161026a565b6000805473ffffffffffffffffffffffffffffffffffffffff8381167fffffffffffffffffffffffff0000000000000000000000000000000000000000831681178455604051919092169283917f8be0079c531659141344cd1fd0a4f28419497f9722a3daafe3b4186f6b6457e09190a35050565b73ffffffffffffffffffffffffffffffffffffffff8116811461034a57600080fd5b60006020828403121561044957600080fd5b813561045481610415565b9392505050565b60006020828403121561046d57600080fd5b503591905056fea264697066735822122097c9d97163b341331c8867335a5c9d0c2aff0dec6217ce915e13a21c84e84a8864736f6c63430008140033",
  "linkReferences": {},
  "deployedLinkReferences": {}
}