{
  "_format": "hh-sol-artifact-1",
  "contractName": "StringRecord",
  "sourceName": "contracts/PracticeGuideDAO/RecordFactoryENS.sol",
  "abi": [
    {
      "inputs": [
        {
          "internalType": "string",
          "name": "_record",
          "type": "string"
        }
      ],
      "stateMutability": "nonpayable",
      "type": "constructor"
    },
    {
      "inputs": [],
      "name": "getRecordType",
      "outputs": [
        {
          "internalType": "string",
          "name": "",
          "type": "string"
        }
      ],
      "stateMutability": "pure",
      "type": "function"
    },
    {
      "inputs": [],
      "name": "record",
      "outputs": [
        {
          "internalType": "string",
          "name": "",
          "type": "string"
        }
      ],
      "stateMutability": "view",
      "type": "function"
    },
    {
      "inputs": [
        {
          "internalType": "string",
          "name": "_record",
          "type": "string"
        }
      ],
      "name": "setRecord",
      "outputs": [],
      "stateMutability": "nonpayable",
      "type": "function"
    },
    {
      "inputs": [],
      "name": "timeOfCreation",
      "outputs": [
        {
          "internalType": "uint256",
          "name": "",
          "type": "uint256"
        }
      ],
      "stateMutability": "view",
      "type": "function"
    }
  ],
  "bytecode": "0x608060405234801561001057600080fd5b506040516106b03803806106b083398101604081905261002f9161005c565b42600055600161003f82826101ae565b505061026d565b634e487b7160e01b600052604160045260246000fd5b6000602080838503121561006f57600080fd5b82516001600160401b038082111561008657600080fd5b818501915085601f83011261009a57600080fd5b8151818111156100ac576100ac610046565b604051601f8201601f19908116603f011681019083821181831017156100d4576100d4610046565b8160405282815288868487010111156100ec57600080fd5b600093505b8284101561010e57848401860151818501870152928501926100f1565b600086848301015280965050505050505092915050565b600181811c9082168061013957607f821691505b60208210810361015957634e487b7160e01b600052602260045260246000fd5b50919050565b601f8211156101a957600081815260208120601f850160051c810160208610156101865750805b601f850160051c820191505b818110156101a557828155600101610192565b5050505b505050565b81516001600160401b038111156101c7576101c7610046565b6101db816101d58454610125565b8461015f565b602080601f83116001811461021057600084156101f85750858301515b600019600386901b1c1916600185901b1785556101a5565b600085815260208120601f198616915b8281101561023f57888601518255948401946001909101908401610220565b508582101561025d5787850151600019600388901b60f8161c191681555b5050505050600190811b01905550565b6104348061027c6000396000f3fe608060405234801561001057600080fd5b506004361061004c5760003560e01c80630781f5c9146100515780631dcd69ec1461009c578063266cf109146100b35780633e0a0099146100bb575b600080fd5b60408051808201909152600681527f737472696e67000000000000000000000000000000000000000000000000000060208201525b604051610093919061016e565b60405180910390f35b6100a560005481565b604051908152602001610093565b6100866100d0565b6100ce6100c93660046101eb565b61015e565b005b600180546100dd9061029c565b80601f01602080910402602001604051908101604052809291908181526020018280546101099061029c565b80156101565780601f1061012b57610100808354040283529160200191610156565b820191906000526020600020905b81548152906001019060200180831161013957829003601f168201915b505050505081565b600161016a828261033e565b5050565b600060208083528351808285015260005b8181101561019b5785810183015185820160400152820161017f565b506000604082860101526040601f19601f8301168501019250505092915050565b7f4e487b7100000000000000000000000000000000000000000000000000000000600052604160045260246000fd5b6000602082840312156101fd57600080fd5b813567ffffffffffffffff8082111561021557600080fd5b818401915084601f83011261022957600080fd5b81358181111561023b5761023b6101bc565b604051601f8201601f19908116603f01168101908382118183101715610263576102636101bc565b8160405282815287602084870101111561027c57600080fd5b826020860160208301376000928101602001929092525095945050505050565b600181811c908216806102b057607f821691505b6020821081036102e9577f4e487b7100000000000000000000000000000000000000000000000000000000600052602260045260246000fd5b50919050565b601f82111561033957600081815260208120601f850160051c810160208610156103165750805b601f850160051c820191505b8181101561033557828155600101610322565b5050505b505050565b815167ffffffffffffffff811115610358576103586101bc565b61036c81610366845461029c565b846102ef565b602080601f8311600181146103a157600084156103895750858301515b600019600386901b1c1916600185901b178555610335565b600085815260208120601f198616915b828110156103d0578886015182559484019460019091019084016103b1565b50858210156103ee5787850151600019600388901b60f8161c191681555b5050505050600190811b0190555056fea264697066735822122041ea4a7d778de48d4512eaf6c7761d1508493bc89644f41cd4f59f896d6c1f9e64736f6c63430008140033",
  "linkReferences": {},
  "deployedLinkReferences": {}
}