{
  "_format": "hh-sol-artifact-1",
  "contractName": "TokenExchange",
  "sourceName": "contracts/practice-module-2/TokenExchange.sol",
  "abi": [
    {
      "inputs": [
        {
          "internalType": "address",
          "name": "_tokenA",
          "type": "address"
        },
        {
          "internalType": "address",
          "name": "_tokenB",
          "type": "address"
        }
      ],
      "stateMutability": "nonpayable",
      "type": "constructor"
    },
    {
      "inputs": [
        {
          "internalType": "address",
          "name": "token",
          "type": "address"
        }
      ],
      "name": "SafeERC20FailedOperation",
      "type": "error"
    },
    {
      "inputs": [],
      "name": "buyTokenA",
      "outputs": [],
      "stateMutability": "payable",
      "type": "function"
    },
    {
      "inputs": [],
      "name": "exchangeRate",
      "outputs": [
        {
          "internalType": "uint256",
          "name": "",
          "type": "uint256"
        }
      ],
      "stateMutability": "view",
      "type": "function"
    },
    {
      "inputs": [
        {
          "internalType": "uint256",
          "name": "amount",
          "type": "uint256"
        }
      ],
      "name": "swapAToB",
      "outputs": [],
      "stateMutability": "nonpayable",
      "type": "function"
    },
    {
      "inputs": [
        {
          "internalType": "uint256",
          "name": "amount",
          "type": "uint256"
        }
      ],
      "name": "swapBToA",
      "outputs": [],
      "stateMutability": "nonpayable",
      "type": "function"
    },
    {
      "inputs": [],
      "name": "tokenA",
      "outputs": [
        {
          "internalType": "contract IERC20",
          "name": "",
          "type": "address"
        }
      ],
      "stateMutability": "view",
      "type": "function"
    },
    {
      "inputs": [],
      "name": "tokenB",
      "outputs": [
        {
          "internalType": "contract IERC20",
          "name": "",
          "type": "address"
        }
      ],
      "stateMutability": "view",
      "type": "function"
    }
  ],
  "bytecode": "0x6080604052348015600e575f80fd5b50604051610682380380610682833981016040819052602b916079565b5f80546001600160a01b039384166001600160a01b03199182161790915560018054929093169116179055606460025560a5565b80516001600160a01b03811681146074575f80fd5b919050565b5f80604083850312156089575f80fd5b609083605f565b9150609c60208401605f565b90509250929050565b6105d0806100b25f395ff3fe608060405260043610610063575f3560e01c80635f64b55b116100415780635f64b55b146100e65780637e446a8614610105578063859497881461010d575f80fd5b80630fc63d101461006757806338720f72146100a25780633ba0b9a9146100c3575b5f80fd5b348015610072575f80fd5b505f54610085906001600160a01b031681565b6040516001600160a01b0390911681526020015b60405180910390f35b3480156100ad575f80fd5b506100c16100bc3660046104f2565b61012c565b005b3480156100ce575f80fd5b506100d860025481565b604051908152602001610099565b3480156100f1575f80fd5b50600154610085906001600160a01b031681565b6100c161025f565b348015610118575f80fd5b506100c16101273660046104f2565b61028a565b5f546040517f70a0823100000000000000000000000000000000000000000000000000000000815233600482015282916001600160a01b0316906370a0823190602401602060405180830381865afa15801561018a573d5f803e3d5ffd5b505050506040513d601f19601f820116820180604052508101906101ae9190610509565b101561021b576040517f08c379a000000000000000000000000000000000000000000000000000000000815260206004820152601260248201527f4e6f7420656e6f75676820546f6b656e2041000000000000000000000000000060448201526064015b60405180910390fd5b5f6002548261022a9190610520565b5f54909150610244906001600160a01b03163330856103b5565b60015461025b906001600160a01b03163383610437565b5050565b5f6002543461026e9190610520565b5f54909150610287906001600160a01b03163383610437565b50565b6001546040517f70a0823100000000000000000000000000000000000000000000000000000000815233600482015282916001600160a01b0316906370a0823190602401602060405180830381865afa1580156102e9573d5f803e3d5ffd5b505050506040513d601f19601f8201168201806040525081019061030d9190610509565b1015610375576040517f08c379a000000000000000000000000000000000000000000000000000000000815260206004820152601260248201527f4e6f7420656e6f75676820546f6b656e204200000000000000000000000000006044820152606401610212565b5f600254826103849190610562565b60015490915061039f906001600160a01b03163330856103b5565b5f5461025b906001600160a01b03163383610437565b6040516001600160a01b0384811660248301528381166044830152606482018390526104319186918216906323b872dd906084015b604051602081830303815290604052915060e01b6020820180517bffffffffffffffffffffffffffffffffffffffffffffffffffffffff838183161783525050505061046d565b50505050565b6040516001600160a01b0383811660248301526044820183905261046891859182169063a9059cbb906064016103ea565b505050565b5f8060205f8451602086015f885af18061048c576040513d5f823e3d81fd5b50505f513d915081156104a35780600114156104b0565b6001600160a01b0384163b155b15610431576040517f5274afe70000000000000000000000000000000000000000000000000000000081526001600160a01b0385166004820152602401610212565b5f60208284031215610502575f80fd5b5035919050565b5f60208284031215610519575f80fd5b5051919050565b808202811582820484141761055c577f4e487b71000000000000000000000000000000000000000000000000000000005f52601160045260245ffd5b92915050565b5f82610595577f4e487b71000000000000000000000000000000000000000000000000000000005f52601260045260245ffd5b50049056fea2646970667358221220c28329dacd1624efdad0c88218ace25519ccbc1a55ec7f15f6d52cdcad94f24564736f6c634300081a0033",
  "linkReferences": {},
  "deployedLinkReferences": {}
}