{
  "_format": "hh-sol-artifact-1",
  "contractName": "TimedLock",
  "sourceName": "contracts/PracticeJunior/TimedLock.sol",
  "abi": [
    {
      "inputs": [
        {
          "internalType": "uint256",
          "name": "_lockTime",
          "type": "uint256"
        }
      ],
      "stateMutability": "nonpayable",
      "type": "constructor"
    },
    {
      "inputs": [],
      "name": "executed",
      "outputs": [],
      "stateMutability": "nonpayable",
      "type": "function"
    },
    {
      "inputs": [],
      "name": "lastExecuted",
      "outputs": [
        {
          "internalType": "uint256",
          "name": "",
          "type": "uint256"
        }
      ],
      "stateMutability": "view",
      "type": "function"
    },
    {
      "inputs": [],
      "name": "lockTime",
      "outputs": [
        {
          "internalType": "uint256",
          "name": "",
          "type": "uint256"
        }
      ],
      "stateMutability": "view",
      "type": "function"
    }
  ],
  "bytecode": "0x6080604052348015600e575f80fd5b506040516101b93803806101b9833981016040819052602b916032565b6001556048565b5f602082840312156041575f80fd5b5051919050565b610164806100555f395ff3fe608060405234801561000f575f80fd5b506004361061003f575f3560e01c80630d668087146100435780631c15ff771461005e57806331a38c8914610066575b5f80fd5b61004c60015481565b60405190815260200160405180910390f35b61004c5f5481565b61006e610070565b005b6001545f5461007f91906100f0565b42116100eb576040517f08c379a000000000000000000000000000000000000000000000000000000000815260206004820152601260248201527f46756e6374696f6e206973206c6f636b65640000000000000000000000000000604482015260640160405180910390fd5b425f55565b80820180821115610128577f4e487b71000000000000000000000000000000000000000000000000000000005f52601160045260245ffd5b9291505056fea2646970667358221220ab720e5f785be3515ce47a968b12a3b5878df457d3c6727534a92d5d8f3bf7f964736f6c634300081a0033",
  "linkReferences": {},
  "deployedLinkReferences": {}
}