{
  "_format": "hh-sol-artifact-1",
  "contractName": "UseLibraries",
  "sourceName": "contracts/practice-module-1/LessonLibrary.sol",
  "abi": [
    {
      "inputs": [
        {
          "internalType": "uint256",
          "name": "a",
          "type": "uint256"
        },
        {
          "internalType": "uint256",
          "name": "b",
          "type": "uint256"
        }
      ],
      "name": "multiplyNumbers",
      "outputs": [
        {
          "internalType": "uint256",
          "name": "",
          "type": "uint256"
        }
      ],
      "stateMutability": "pure",
      "type": "function"
    },
    {
      "inputs": [
        {
          "internalType": "uint256",
          "name": "a",
          "type": "uint256"
        },
        {
          "internalType": "uint256",
          "name": "b",
          "type": "uint256"
        }
      ],
      "name": "subtractNumbers",
      "outputs": [
        {
          "internalType": "uint256",
          "name": "",
          "type": "uint256"
        }
      ],
      "stateMutability": "pure",
      "type": "function"
    }
  ],
  "bytecode": "0x6080604052348015600e575f80fd5b506101c78061001c5f395ff3fe608060405234801561000f575f80fd5b5060043610610034575f3560e01c80638f744c3214610038578063d3f3cd7b1461005d575b5f80fd5b61004b61004636600461011e565b610070565b60405190815260200160405180910390f35b61004b61006b36600461011e565b61010d565b6040517f5d4e1e5c00000000000000000000000000000000000000000000000000000000815260048101839052602481018290525f9073__$7236c65b3292bb174a0519d0c94b577fd0$__90635d4e1e5c90604401602060405180830381865af41580156100e0573d5f803e3d5ffd5b505050506040513d601f19601f82011682018060405250810190610104919061013e565b90505b92915050565b5f61010483835f6101048284610155565b5f806040838503121561012f575f80fd5b50508035926020909101359150565b5f6020828403121561014e575f80fd5b5051919050565b8082028115828204841417610107577f4e487b71000000000000000000000000000000000000000000000000000000005f52601160045260245ffdfea2646970667358221220ee22f5f3d9338702c68f5e98129044037e104dacb5684856b87fe8f0b6c3c8a764736f6c634300081a0033",
  "linkReferences": {
    "contracts/practice-module-1/LessonExternalLibrary.sol": {
      "LessonExternalLibrary": [
        {
          "length": 20,
          "start": 196
        }
      ]
    }
  },
  "deployedLinkReferences": {
    "contracts/practice-module-1/LessonExternalLibrary.sol": {
      "LessonExternalLibrary": [
        {
          "length": 20,
          "start": 168
        }
      ]
    }
  }
}