{
	"TimestampRecorder.sol": {
		"TimestampRecorder": {
			"abi": [
				{
					"inputs": [],
					"name": "getLustUpdated",
					"outputs": [
						{
							"internalType": "uint256",
							"name": "",
							"type": "uint256"
						}
					],
					"stateMutability": "view",
					"type": "function"
				},
				{
					"inputs": [],
					"name": "lustUpdated",
					"outputs": [
						{
							"internalType": "uint256",
							"name": "",
							"type": "uint256"
						}
					],
					"stateMutability": "view",
					"type": "function"
				},
				{
					"inputs": [],
					"name": "updateTimestamp",
					"outputs": [],
					"stateMutability": "nonpayable",
					"type": "function"
				}
			],
			"devdoc": {
				"kind": "dev",
				"methods": {},
				"version": 1
			},
			"evm": {
				"assembly": "    /* \"TimestampRecorder.sol\":60:309  contract TimestampRecorder {... */\n  mstore(0x40, 0x80)\n  callvalue\n  dup1\n  iszero\n  tag_1\n  jumpi\n  0x00\n  dup1\n  revert\ntag_1:\n  pop\n  dataSize(sub_0)\n  dup1\n  dataOffset(sub_0)\n  0x00\n  codecopy\n  0x00\n  return\nstop\n\nsub_0: assembly {\n        /* \"TimestampRecorder.sol\":60:309  contract TimestampRecorder {... */\n      mstore(0x40, 0x80)\n      callvalue\n      dup1\n      iszero\n      tag_1\n      jumpi\n      0x00\n      dup1\n      revert\n    tag_1:\n      pop\n      jumpi(tag_2, lt(calldatasize, 0x04))\n      shr(0xe0, calldataload(0x00))\n      dup1\n      0x1c5be3d7\n      eq\n      tag_3\n      jumpi\n      dup1\n      0x2f5e7d85\n      eq\n      tag_4\n      jumpi\n      dup1\n      0x42a2ef26\n      eq\n      tag_5\n      jumpi\n    tag_2:\n      0x00\n      dup1\n      revert\n        /* \"TimestampRecorder.sol\":126:208  function updateTimestamp() public {... */\n    tag_3:\n      tag_6\n      tag_7\n      jump\t// in\n    tag_6:\n      stop\n        /* \"TimestampRecorder.sol\":216:306  function getLustUpdated() public view returns (uint) {... */\n    tag_4:\n      tag_8\n      tag_9\n      jump\t// in\n    tag_8:\n      mload(0x40)\n      tag_10\n      swap2\n      swap1\n      tag_11\n      jump\t// in\n    tag_10:\n      mload(0x40)\n      dup1\n      swap2\n      sub\n      swap1\n      return\n        /* \"TimestampRecorder.sol\":94:117  uint public lustUpdated */\n    tag_5:\n      tag_12\n      tag_13\n      jump\t// in\n    tag_12:\n      mload(0x40)\n      tag_14\n      swap2\n      swap1\n      tag_11\n      jump\t// in\n    tag_14:\n      mload(0x40)\n      dup1\n      swap2\n      sub\n      swap1\n      return\n        /* \"TimestampRecorder.sol\":126:208  function updateTimestamp() public {... */\n    tag_7:\n        /* \"TimestampRecorder.sol\":185:200  block.timestamp */\n      timestamp\n        /* \"TimestampRecorder.sol\":171:182  lustUpdated */\n      0x00\n        /* \"TimestampRecorder.sol\":171:200  lustUpdated = block.timestamp */\n      dup2\n      swap1\n      sstore\n      pop\n        /* \"TimestampRecorder.sol\":126:208  function updateTimestamp() public {... */\n      jump\t// out\n        /* \"TimestampRecorder.sol\":216:306  function getLustUpdated() public view returns (uint) {... */\n    tag_9:\n        /* \"TimestampRecorder.sol\":263:267  uint */\n      0x00\n        /* \"TimestampRecorder.sol\":287:298  lustUpdated */\n      dup1\n      sload\n        /* \"TimestampRecorder.sol\":280:298  return lustUpdated */\n      swap1\n      pop\n        /* \"TimestampRecorder.sol\":216:306  function getLustUpdated() public view returns (uint) {... */\n      swap1\n      jump\t// out\n        /* \"TimestampRecorder.sol\":94:117  uint public lustUpdated */\n    tag_13:\n      sload(0x00)\n      dup2\n      jump\t// out\n        /* \"#utility.yul\":7:84   */\n    tag_17:\n        /* \"#utility.yul\":44:51   */\n      0x00\n        /* \"#utility.yul\":73:78   */\n      dup2\n        /* \"#utility.yul\":62:78   */\n      swap1\n      pop\n        /* \"#utility.yul\":7:84   */\n      swap2\n      swap1\n      pop\n      jump\t// out\n        /* \"#utility.yul\":90:208   */\n    tag_18:\n        /* \"#utility.yul\":177:201   */\n      tag_22\n        /* \"#utility.yul\":195:200   */\n      dup2\n        /* \"#utility.yul\":177:201   */\n      tag_17\n      jump\t// in\n    tag_22:\n        /* \"#utility.yul\":172:175   */\n      dup3\n        /* \"#utility.yul\":165:202   */\n      mstore\n        /* \"#utility.yul\":90:208   */\n      pop\n      pop\n      jump\t// out\n        /* \"#utility.yul\":214:436   */\n    tag_11:\n        /* \"#utility.yul\":307:311   */\n      0x00\n        /* \"#utility.yul\":345:347   */\n      0x20\n        /* \"#utility.yul\":334:343   */\n      dup3\n        /* \"#utility.yul\":330:348   */\n      add\n        /* \"#utility.yul\":322:348   */\n      swap1\n      pop\n        /* \"#utility.yul\":358:429   */\n      tag_24\n        /* \"#utility.yul\":426:427   */\n      0x00\n        /* \"#utility.yul\":415:424   */\n      dup4\n        /* \"#utility.yul\":411:428   */\n      add\n        /* \"#utility.yul\":402:408   */\n      dup5\n        /* \"#utility.yul\":358:429   */\n      tag_18\n      jump\t// in\n    tag_24:\n        /* \"#utility.yul\":214:436   */\n      swap3\n      swap2\n      pop\n      pop\n      jump\t// out\n\n    auxdata: 0xa26469706673582212208ff65fd938ad4d38b40f6faf03b18369849aaacff75afeea326f802cf5abcdb764736f6c63430008160033\n}\n",
				"bytecode": {
					"linkReferences": {},
					"object": "608060405234801561000f575f80fd5b5060f28061001c5f395ff3fe6080604052348015600e575f80fd5b5060043610603a575f3560e01c80631c5be3d714603e5780632f5e7d8514604657806342a2ef26146060575b5f80fd5b6044607a565b005b604c6082565b6040516057919060a5565b60405180910390f35b6066608a565b6040516071919060a5565b60405180910390f35b425f81905550565b5f8054905090565b5f5481565b5f819050919050565b609f81608f565b82525050565b5f60208201905060b65f8301846098565b9291505056fea26469706673582212208ff65fd938ad4d38b40f6faf03b18369849aaacff75afeea326f802cf5abcdb764736f6c63430008160033",
					"opcodes": "PUSH1 0x80 PUSH1 0x40 MSTORE CALLVALUE DUP1 ISZERO PUSH2 0xF JUMPI PUSH0 DUP1 REVERT JUMPDEST POP PUSH1 0xF2 DUP1 PUSH2 0x1C PUSH0 CODECOPY PUSH0 RETURN INVALID PUSH1 0x80 PUSH1 0x40 MSTORE CALLVALUE DUP1 ISZERO PUSH1 0xE JUMPI PUSH0 DUP1 REVERT JUMPDEST POP PUSH1 0x4 CALLDATASIZE LT PUSH1 0x3A JUMPI PUSH0 CALLDATALOAD PUSH1 0xE0 SHR DUP1 PUSH4 0x1C5BE3D7 EQ PUSH1 0x3E JUMPI DUP1 PUSH4 0x2F5E7D85 EQ PUSH1 0x46 JUMPI DUP1 PUSH4 0x42A2EF26 EQ PUSH1 0x60 JUMPI JUMPDEST PUSH0 DUP1 REVERT JUMPDEST PUSH1 0x44 PUSH1 0x7A JUMP JUMPDEST STOP JUMPDEST PUSH1 0x4C PUSH1 0x82 JUMP JUMPDEST PUSH1 0x40 MLOAD PUSH1 0x57 SWAP2 SWAP1 PUSH1 0xA5 JUMP JUMPDEST PUSH1 0x40 MLOAD DUP1 SWAP2 SUB SWAP1 RETURN JUMPDEST PUSH1 0x66 PUSH1 0x8A JUMP JUMPDEST PUSH1 0x40 MLOAD PUSH1 0x71 SWAP2 SWAP1 PUSH1 0xA5 JUMP JUMPDEST PUSH1 0x40 MLOAD DUP1 SWAP2 SUB SWAP1 RETURN JUMPDEST TIMESTAMP PUSH0 DUP2 SWAP1 SSTORE POP JUMP JUMPDEST PUSH0 DUP1 SLOAD SWAP1 POP SWAP1 JUMP JUMPDEST PUSH0 SLOAD DUP2 JUMP JUMPDEST PUSH0 DUP2 SWAP1 POP SWAP2 SWAP1 POP JUMP JUMPDEST PUSH1 0x9F DUP2 PUSH1 0x8F JUMP JUMPDEST DUP3 MSTORE POP POP JUMP JUMPDEST PUSH0 PUSH1 0x20 DUP3 ADD SWAP1 POP PUSH1 0xB6 PUSH0 DUP4 ADD DUP5 PUSH1 0x98 JUMP JUMPDEST SWAP3 SWAP2 POP POP JUMP INVALID LOG2 PUSH5 0x6970667358 0x22 SLT KECCAK256 DUP16 0xF6 PUSH0 0xD9 CODESIZE 0xAD 0x4D CODESIZE 0xB4 0xF PUSH16 0xAF03B18369849AAACFF75AFEEA326F80 0x2C CREATE2 0xAB 0xCD 0xB7 PUSH5 0x736F6C6343 STOP ADDMOD AND STOP CALLER "
				},
				"gasEstimates": {
					"creation": {
						"codeDepositCost": "48400",
						"executionCost": "97",
						"totalCost": "48497"
					},
					"external": {
						"getLustUpdated()": "2432",
						"lustUpdated()": "2446",
						"updateTimestamp()": "22233"
					}
				},
				"methodIdentifiers": {
					"getLustUpdated()": "2f5e7d85",
					"lustUpdated()": "42a2ef26",
					"updateTimestamp()": "1c5be3d7"
				}
			},
			"storageLayout": {
				"storage": [
					{
						"astId": 3,
						"contract": "TimestampRecorder.sol:TimestampRecorder",
						"label": "lustUpdated",
						"offset": 0,
						"slot": "0",
						"type": "t_uint256"
					}
				],
				"types": {
					"t_uint256": {
						"encoding": "inplace",
						"label": "uint256",
						"numberOfBytes": "32"
					}
				}
			},
			"userdoc": {
				"kind": "user",
				"methods": {},
				"version": 1
			}
		}
	}
}