{
	"CyrcleArray.sol": {
		"CircularBuffer": {
			"abi": [
				{
					"inputs": [
						{
							"internalType": "uint256",
							"name": "_size",
							"type": "uint256"
						}
					],
					"stateMutability": "nonpayable",
					"type": "constructor"
				},
				{
					"inputs": [
						{
							"internalType": "uint256",
							"name": "value",
							"type": "uint256"
						}
					],
					"name": "add",
					"outputs": [],
					"stateMutability": "nonpayable",
					"type": "function"
				},
				{
					"inputs": [
						{
							"internalType": "uint256",
							"name": "idx",
							"type": "uint256"
						}
					],
					"name": "get",
					"outputs": [
						{
							"internalType": "uint256",
							"name": "",
							"type": "uint256"
						}
					],
					"stateMutability": "view",
					"type": "function"
				},
				{
					"inputs": [],
					"name": "getSize",
					"outputs": [
						{
							"internalType": "uint256",
							"name": "",
							"type": "uint256"
						}
					],
					"stateMutability": "view",
					"type": "function"
				}
			],
			"devdoc": {
				"kind": "dev",
				"methods": {},
				"version": 1
			},
			"evm": {
				"assembly": "    /* \"CyrcleArray.sol\":60:1687  contract CircularBuffer {... */\n  mstore(0x40, 0x80)\n    /* \"CyrcleArray.sol\":512:679  constructor(uint256 _size) {... */\n  callvalue\n  dup1\n  iszero\n  tag_1\n  jumpi\n  0x00\n  dup1\n  revert\ntag_1:\n  pop\n  mload(0x40)\n  sub(codesize, bytecodeSize)\n  dup1\n  bytecodeSize\n  dup4\n  codecopy\n  dup2\n  dup2\n  add\n  0x40\n  mstore\n  dup2\n  add\n  swap1\n  tag_2\n  swap2\n  swap1\n  tag_3\n  jump\t// in\ntag_2:\n    /* \"CyrcleArray.sol\":566:567  0 */\n  0x00\n    /* \"CyrcleArray.sol\":558:563  _size */\n  dup2\n    /* \"CyrcleArray.sol\":558:567  _size > 0 */\n  gt\n    /* \"CyrcleArray.sol\":550:588  require(_size > 0, \"Size must be > 0\") */\n  tag_6\n  jumpi\n  mload(0x40)\n  0x08c379a000000000000000000000000000000000000000000000000000000000\n  dup2\n  mstore\n  0x04\n  add\n  tag_7\n  swap1\n  tag_8\n  jump\t// in\ntag_7:\n  mload(0x40)\n  dup1\n  swap2\n  sub\n  swap1\n  revert\ntag_6:\n    /* \"CyrcleArray.sol\":622:627  _size */\n  dup1\n    /* \"CyrcleArray.sol\":608:628  new uint256[](_size) */\n  0xffffffffffffffff\n  dup2\n  gt\n  iszero\n  tag_9\n  jumpi\n  tag_10\n  tag_11\n  jump\t// in\ntag_10:\ntag_9:\n  mload(0x40)\n  swap1\n  dup1\n  dup3\n  mstore\n  dup1\n  0x20\n  mul\n  0x20\n  add\n  dup3\n  add\n  0x40\n  mstore\n  dup1\n  iszero\n  tag_12\n  jumpi\n  dup2\n  0x20\n  add\n  0x20\n  dup3\n  mul\n  dup1\n  calldatasize\n  dup4\n  calldatacopy\n  dup1\n  dup3\n  add\n  swap2\n  pop\n  pop\n  swap1\n  pop\ntag_12:\n  pop\n    /* \"CyrcleArray.sol\":599:605  buffer */\n  0x00\n    /* \"CyrcleArray.sol\":599:628  buffer = new uint256[](_size) */\n  swap1\n  dup1\n  mload\n  swap1\n  0x20\n  add\n  swap1\n  tag_13\n  swap3\n  swap2\n  swap1\n  tag_14\n  jump\t// in\ntag_13:\n  pop\n    /* \"CyrcleArray.sol\":646:651  _size */\n  dup1\n    /* \"CyrcleArray.sol\":639:643  size */\n  0x01\n    /* \"CyrcleArray.sol\":639:651  size = _size */\n  dup2\n  swap1\n  sstore\n  pop\n    /* \"CyrcleArray.sol\":670:671  0 */\n  0x00\n    /* \"CyrcleArray.sol\":662:667  index */\n  0x02\n    /* \"CyrcleArray.sol\":662:671  index = 0 */\n  dup2\n  swap1\n  sstore\n  pop\n    /* \"CyrcleArray.sol\":512:679  constructor(uint256 _size) {... */\n  pop\n    /* \"CyrcleArray.sol\":60:1687  contract CircularBuffer {... */\n  jump(tag_15)\ntag_14:\n  dup3\n  dup1\n  sload\n  dup3\n  dup3\n  sstore\n  swap1\n  0x00\n  mstore\n  keccak256(0x00, 0x20)\n  swap1\n  dup2\n  add\n  swap3\n  dup3\n  iszero\n  tag_16\n  jumpi\n  swap2\n  0x20\n  mul\n  dup3\n  add\ntag_17:\n  dup3\n  dup2\n  gt\n  iszero\n  tag_18\n  jumpi\n  dup3\n  mload\n  dup3\n  sstore\n  swap2\n  0x20\n  add\n  swap2\n  swap1\n  0x01\n  add\n  swap1\n  jump(tag_17)\ntag_18:\ntag_16:\n  pop\n  swap1\n  pop\n  tag_19\n  swap2\n  swap1\n  tag_20\n  jump\t// in\ntag_19:\n  pop\n  swap1\n  jump\t// out\ntag_20:\ntag_21:\n  dup1\n  dup3\n  gt\n  iszero\n  tag_22\n  jumpi\n  0x00\n  dup2\n  0x00\n  swap1\n  sstore\n  pop\n  0x01\n  add\n  jump(tag_21)\ntag_22:\n  pop\n  swap1\n  jump\t// out\n    /* \"#utility.yul\":88:205   */\ntag_24:\n    /* \"#utility.yul\":197:198   */\n  0x00\n    /* \"#utility.yul\":194:195   */\n  dup1\n    /* \"#utility.yul\":187:199   */\n  revert\n    /* \"#utility.yul\":334:411   */\ntag_26:\n    /* \"#utility.yul\":371:378   */\n  0x00\n    /* \"#utility.yul\":400:405   */\n  dup2\n    /* \"#utility.yul\":389:405   */\n  swap1\n  pop\n    /* \"#utility.yul\":334:411   */\n  swap2\n  swap1\n  pop\n  jump\t// out\n    /* \"#utility.yul\":417:539   */\ntag_27:\n    /* \"#utility.yul\":490:514   */\n  tag_38\n    /* \"#utility.yul\":508:513   */\n  dup2\n    /* \"#utility.yul\":490:514   */\n  tag_26\n  jump\t// in\ntag_38:\n    /* \"#utility.yul\":483:488   */\n  dup2\n    /* \"#utility.yul\":480:515   */\n  eq\n    /* \"#utility.yul\":470:533   */\n  tag_39\n  jumpi\n    /* \"#utility.yul\":529:530   */\n  0x00\n    /* \"#utility.yul\":526:527   */\n  dup1\n    /* \"#utility.yul\":519:531   */\n  revert\n    /* \"#utility.yul\":470:533   */\ntag_39:\n    /* \"#utility.yul\":417:539   */\n  pop\n  jump\t// out\n    /* \"#utility.yul\":545:688   */\ntag_28:\n    /* \"#utility.yul\":602:607   */\n  0x00\n    /* \"#utility.yul\":633:639   */\n  dup2\n    /* \"#utility.yul\":627:640   */\n  mload\n    /* \"#utility.yul\":618:640   */\n  swap1\n  pop\n    /* \"#utility.yul\":649:682   */\n  tag_41\n    /* \"#utility.yul\":676:681   */\n  dup2\n    /* \"#utility.yul\":649:682   */\n  tag_27\n  jump\t// in\ntag_41:\n    /* \"#utility.yul\":545:688   */\n  swap3\n  swap2\n  pop\n  pop\n  jump\t// out\n    /* \"#utility.yul\":694:1045   */\ntag_3:\n    /* \"#utility.yul\":764:770   */\n  0x00\n    /* \"#utility.yul\":813:815   */\n  0x20\n    /* \"#utility.yul\":801:810   */\n  dup3\n    /* \"#utility.yul\":792:799   */\n  dup5\n    /* \"#utility.yul\":788:811   */\n  sub\n    /* \"#utility.yul\":784:816   */\n  slt\n    /* \"#utility.yul\":781:900   */\n  iszero\n  tag_43\n  jumpi\n    /* \"#utility.yul\":819:898   */\n  tag_44\n  tag_24\n  jump\t// in\ntag_44:\n    /* \"#utility.yul\":781:900   */\ntag_43:\n    /* \"#utility.yul\":939:940   */\n  0x00\n    /* \"#utility.yul\":964:1028   */\n  tag_45\n    /* \"#utility.yul\":1020:1027   */\n  dup5\n    /* \"#utility.yul\":1011:1017   */\n  dup3\n    /* \"#utility.yul\":1000:1009   */\n  dup6\n    /* \"#utility.yul\":996:1018   */\n  add\n    /* \"#utility.yul\":964:1028   */\n  tag_28\n  jump\t// in\ntag_45:\n    /* \"#utility.yul\":954:1028   */\n  swap2\n  pop\n    /* \"#utility.yul\":910:1038   */\n  pop\n    /* \"#utility.yul\":694:1045   */\n  swap3\n  swap2\n  pop\n  pop\n  jump\t// out\n    /* \"#utility.yul\":1051:1220   */\ntag_29:\n    /* \"#utility.yul\":1135:1146   */\n  0x00\n    /* \"#utility.yul\":1169:1175   */\n  dup3\n    /* \"#utility.yul\":1164:1167   */\n  dup3\n    /* \"#utility.yul\":1157:1176   */\n  mstore\n    /* \"#utility.yul\":1209:1213   */\n  0x20\n    /* \"#utility.yul\":1204:1207   */\n  dup3\n    /* \"#utility.yul\":1200:1214   */\n  add\n    /* \"#utility.yul\":1185:1214   */\n  swap1\n  pop\n    /* \"#utility.yul\":1051:1220   */\n  swap3\n  swap2\n  pop\n  pop\n  jump\t// out\n    /* \"#utility.yul\":1226:1392   */\ntag_30:\n    /* \"#utility.yul\":1366:1384   */\n  0x53697a65206d757374206265203e203000000000000000000000000000000000\n    /* \"#utility.yul\":1362:1363   */\n  0x00\n    /* \"#utility.yul\":1354:1360   */\n  dup3\n    /* \"#utility.yul\":1350:1364   */\n  add\n    /* \"#utility.yul\":1343:1385   */\n  mstore\n    /* \"#utility.yul\":1226:1392   */\n  pop\n  jump\t// out\n    /* \"#utility.yul\":1398:1764   */\ntag_31:\n    /* \"#utility.yul\":1540:1543   */\n  0x00\n    /* \"#utility.yul\":1561:1628   */\n  tag_49\n    /* \"#utility.yul\":1625:1627   */\n  0x10\n    /* \"#utility.yul\":1620:1623   */\n  dup4\n    /* \"#utility.yul\":1561:1628   */\n  tag_29\n  jump\t// in\ntag_49:\n    /* \"#utility.yul\":1554:1628   */\n  swap2\n  pop\n    /* \"#utility.yul\":1637:1730   */\n  tag_50\n    /* \"#utility.yul\":1726:1729   */\n  dup3\n    /* \"#utility.yul\":1637:1730   */\n  tag_30\n  jump\t// in\ntag_50:\n    /* \"#utility.yul\":1755:1757   */\n  0x20\n    /* \"#utility.yul\":1750:1753   */\n  dup3\n    /* \"#utility.yul\":1746:1758   */\n  add\n    /* \"#utility.yul\":1739:1758   */\n  swap1\n  pop\n    /* \"#utility.yul\":1398:1764   */\n  swap2\n  swap1\n  pop\n  jump\t// out\n    /* \"#utility.yul\":1770:2189   */\ntag_8:\n    /* \"#utility.yul\":1936:1940   */\n  0x00\n    /* \"#utility.yul\":1974:1976   */\n  0x20\n    /* \"#utility.yul\":1963:1972   */\n  dup3\n    /* \"#utility.yul\":1959:1977   */\n  add\n    /* \"#utility.yul\":1951:1977   */\n  swap1\n  pop\n    /* \"#utility.yul\":2023:2032   */\n  dup2\n    /* \"#utility.yul\":2017:2021   */\n  dup2\n    /* \"#utility.yul\":2013:2033   */\n  sub\n    /* \"#utility.yul\":2009:2010   */\n  0x00\n    /* \"#utility.yul\":1998:2007   */\n  dup4\n    /* \"#utility.yul\":1994:2011   */\n  add\n    /* \"#utility.yul\":1987:2034   */\n  mstore\n    /* \"#utility.yul\":2051:2182   */\n  tag_52\n    /* \"#utility.yul\":2177:2181   */\n  dup2\n    /* \"#utility.yul\":2051:2182   */\n  tag_31\n  jump\t// in\ntag_52:\n    /* \"#utility.yul\":2043:2182   */\n  swap1\n  pop\n    /* \"#utility.yul\":1770:2189   */\n  swap2\n  swap1\n  pop\n  jump\t// out\n    /* \"#utility.yul\":2195:2375   */\ntag_11:\n    /* \"#utility.yul\":2243:2320   */\n  0x4e487b7100000000000000000000000000000000000000000000000000000000\n    /* \"#utility.yul\":2240:2241   */\n  0x00\n    /* \"#utility.yul\":2233:2321   */\n  mstore\n    /* \"#utility.yul\":2340:2344   */\n  0x41\n    /* \"#utility.yul\":2337:2338   */\n  0x04\n    /* \"#utility.yul\":2330:2345   */\n  mstore\n    /* \"#utility.yul\":2364:2368   */\n  0x24\n    /* \"#utility.yul\":2361:2362   */\n  0x00\n    /* \"#utility.yul\":2354:2369   */\n  revert\n    /* \"CyrcleArray.sol\":60:1687  contract CircularBuffer {... */\ntag_15:\n  dataSize(sub_0)\n  dup1\n  dataOffset(sub_0)\n  0x00\n  codecopy\n  0x00\n  return\nstop\n\nsub_0: assembly {\n        /* \"CyrcleArray.sol\":60:1687  contract CircularBuffer {... */\n      mstore(0x40, 0x80)\n      callvalue\n      dup1\n      iszero\n      tag_1\n      jumpi\n      0x00\n      dup1\n      revert\n    tag_1:\n      pop\n      jumpi(tag_2, lt(calldatasize, 0x04))\n      shr(0xe0, calldataload(0x00))\n      dup1\n      0x1003e2d2\n      eq\n      tag_3\n      jumpi\n      dup1\n      0x9507d39a\n      eq\n      tag_4\n      jumpi\n      dup1\n      0xde8fa431\n      eq\n      tag_5\n      jumpi\n    tag_2:\n      0x00\n      dup1\n      revert\n        /* \"CyrcleArray.sol\":782:1069  function add(uint256 value) public {... */\n    tag_3:\n      tag_6\n      0x04\n      dup1\n      calldatasize\n      sub\n      dup2\n      add\n      swap1\n      tag_7\n      swap2\n      swap1\n      tag_8\n      jump\t// in\n    tag_7:\n      tag_9\n      jump\t// in\n    tag_6:\n      stop\n        /* \"CyrcleArray.sol\":1163:1503  function get(uint256 idx) public view returns (uint256) {... */\n    tag_4:\n      tag_10\n      0x04\n      dup1\n      calldatasize\n      sub\n      dup2\n      add\n      swap1\n      tag_11\n      swap2\n      swap1\n      tag_8\n      jump\t// in\n    tag_11:\n      tag_12\n      jump\t// in\n    tag_10:\n      mload(0x40)\n      tag_13\n      swap2\n      swap1\n      tag_14\n      jump\t// in\n    tag_13:\n      mload(0x40)\n      dup1\n      swap2\n      sub\n      swap1\n      return\n        /* \"CyrcleArray.sol\":1605:1684  function getSize() public view returns (uint256) {... */\n    tag_5:\n      tag_15\n      tag_16\n      jump\t// in\n    tag_15:\n      mload(0x40)\n      tag_17\n      swap2\n      swap1\n      tag_14\n      jump\t// in\n    tag_17:\n      mload(0x40)\n      dup1\n      swap2\n      sub\n      swap1\n      return\n        /* \"CyrcleArray.sol\":782:1069  function add(uint256 value) public {... */\n    tag_9:\n        /* \"CyrcleArray.sol\":844:849  value */\n      dup1\n        /* \"CyrcleArray.sol\":828:834  buffer */\n      0x00\n        /* \"CyrcleArray.sol\":835:840  index */\n      sload(0x02)\n        /* \"CyrcleArray.sol\":828:841  buffer[index] */\n      dup2\n      sload\n      dup2\n      lt\n      tag_19\n      jumpi\n      tag_20\n      tag_21\n      jump\t// in\n    tag_20:\n    tag_19:\n      swap1\n      0x00\n      mstore\n      keccak256(0x00, 0x20)\n      add\n        /* \"CyrcleArray.sol\":828:849  buffer[index] = value */\n      dup2\n      swap1\n      sstore\n      pop\n        /* \"CyrcleArray.sol\":1057:1061  size */\n      sload(0x01)\n        /* \"CyrcleArray.sol\":1052:1053  1 */\n      0x01\n        /* \"CyrcleArray.sol\":1044:1049  index */\n      sload(0x02)\n        /* \"CyrcleArray.sol\":1044:1053  index + 1 */\n      tag_23\n      swap2\n      swap1\n      tag_24\n      jump\t// in\n    tag_23:\n        /* \"CyrcleArray.sol\":1043:1061  (index + 1) % size */\n      tag_25\n      swap2\n      swap1\n      tag_26\n      jump\t// in\n    tag_25:\n        /* \"CyrcleArray.sol\":1035:1040  index */\n      0x02\n        /* \"CyrcleArray.sol\":1035:1061  index = (index + 1) % size */\n      dup2\n      swap1\n      sstore\n      pop\n        /* \"CyrcleArray.sol\":782:1069  function add(uint256 value) public {... */\n      pop\n      jump\t// out\n        /* \"CyrcleArray.sol\":1163:1503  function get(uint256 idx) public view returns (uint256) {... */\n    tag_12:\n        /* \"CyrcleArray.sol\":1210:1217  uint256 */\n      0x00\n        /* \"CyrcleArray.sol\":1244:1248  size */\n      sload(0x01)\n        /* \"CyrcleArray.sol\":1238:1241  idx */\n      dup3\n        /* \"CyrcleArray.sol\":1238:1248  idx < size */\n      lt\n        /* \"CyrcleArray.sol\":1230:1272  require(idx < size, \"Index out of bounds\") */\n      tag_28\n      jumpi\n      mload(0x40)\n      0x08c379a000000000000000000000000000000000000000000000000000000000\n      dup2\n      mstore\n      0x04\n      add\n      tag_29\n      swap1\n      tag_30\n      jump\t// in\n    tag_29:\n      mload(0x40)\n      dup1\n      swap2\n      sub\n      swap1\n      revert\n    tag_28:\n        /* \"CyrcleArray.sol\":1467:1473  buffer */\n      0x00\n        /* \"CyrcleArray.sol\":1490:1494  size */\n      sload(0x01)\n        /* \"CyrcleArray.sol\":1483:1486  idx */\n      dup4\n        /* \"CyrcleArray.sol\":1475:1480  index */\n      sload(0x02)\n        /* \"CyrcleArray.sol\":1475:1486  index + idx */\n      tag_31\n      swap2\n      swap1\n      tag_24\n      jump\t// in\n    tag_31:\n        /* \"CyrcleArray.sol\":1474:1494  (index + idx) % size */\n      tag_32\n      swap2\n      swap1\n      tag_26\n      jump\t// in\n    tag_32:\n        /* \"CyrcleArray.sol\":1467:1495  buffer[(index + idx) % size] */\n      dup2\n      sload\n      dup2\n      lt\n      tag_33\n      jumpi\n      tag_34\n      tag_21\n      jump\t// in\n    tag_34:\n    tag_33:\n      swap1\n      0x00\n      mstore\n      keccak256(0x00, 0x20)\n      add\n      sload\n        /* \"CyrcleArray.sol\":1460:1495  return buffer[(index + idx) % size] */\n      swap1\n      pop\n        /* \"CyrcleArray.sol\":1163:1503  function get(uint256 idx) public view returns (uint256) {... */\n      swap2\n      swap1\n      pop\n      jump\t// out\n        /* \"CyrcleArray.sol\":1605:1684  function getSize() public view returns (uint256) {... */\n    tag_16:\n        /* \"CyrcleArray.sol\":1645:1652  uint256 */\n      0x00\n        /* \"CyrcleArray.sol\":1672:1676  size */\n      sload(0x01)\n        /* \"CyrcleArray.sol\":1665:1676  return size */\n      swap1\n      pop\n        /* \"CyrcleArray.sol\":1605:1684  function getSize() public view returns (uint256) {... */\n      swap1\n      jump\t// out\n        /* \"#utility.yul\":88:205   */\n    tag_38:\n        /* \"#utility.yul\":197:198   */\n      0x00\n        /* \"#utility.yul\":194:195   */\n      dup1\n        /* \"#utility.yul\":187:199   */\n      revert\n        /* \"#utility.yul\":334:411   */\n    tag_40:\n        /* \"#utility.yul\":371:378   */\n      0x00\n        /* \"#utility.yul\":400:405   */\n      dup2\n        /* \"#utility.yul\":389:405   */\n      swap1\n      pop\n        /* \"#utility.yul\":334:411   */\n      swap2\n      swap1\n      pop\n      jump\t// out\n        /* \"#utility.yul\":417:539   */\n    tag_41:\n        /* \"#utility.yul\":490:514   */\n      tag_55\n        /* \"#utility.yul\":508:513   */\n      dup2\n        /* \"#utility.yul\":490:514   */\n      tag_40\n      jump\t// in\n    tag_55:\n        /* \"#utility.yul\":483:488   */\n      dup2\n        /* \"#utility.yul\":480:515   */\n      eq\n        /* \"#utility.yul\":470:533   */\n      tag_56\n      jumpi\n        /* \"#utility.yul\":529:530   */\n      0x00\n        /* \"#utility.yul\":526:527   */\n      dup1\n        /* \"#utility.yul\":519:531   */\n      revert\n        /* \"#utility.yul\":470:533   */\n    tag_56:\n        /* \"#utility.yul\":417:539   */\n      pop\n      jump\t// out\n        /* \"#utility.yul\":545:684   */\n    tag_42:\n        /* \"#utility.yul\":591:596   */\n      0x00\n        /* \"#utility.yul\":629:635   */\n      dup2\n        /* \"#utility.yul\":616:636   */\n      calldataload\n        /* \"#utility.yul\":607:636   */\n      swap1\n      pop\n        /* \"#utility.yul\":645:678   */\n      tag_58\n        /* \"#utility.yul\":672:677   */\n      dup2\n        /* \"#utility.yul\":645:678   */\n      tag_41\n      jump\t// in\n    tag_58:\n        /* \"#utility.yul\":545:684   */\n      swap3\n      swap2\n      pop\n      pop\n      jump\t// out\n        /* \"#utility.yul\":690:1019   */\n    tag_8:\n        /* \"#utility.yul\":749:755   */\n      0x00\n        /* \"#utility.yul\":798:800   */\n      0x20\n        /* \"#utility.yul\":786:795   */\n      dup3\n        /* \"#utility.yul\":777:784   */\n      dup5\n        /* \"#utility.yul\":773:796   */\n      sub\n        /* \"#utility.yul\":769:801   */\n      slt\n        /* \"#utility.yul\":766:885   */\n      iszero\n      tag_60\n      jumpi\n        /* \"#utility.yul\":804:883   */\n      tag_61\n      tag_38\n      jump\t// in\n    tag_61:\n        /* \"#utility.yul\":766:885   */\n    tag_60:\n        /* \"#utility.yul\":924:925   */\n      0x00\n        /* \"#utility.yul\":949:1002   */\n      tag_62\n        /* \"#utility.yul\":994:1001   */\n      dup5\n        /* \"#utility.yul\":985:991   */\n      dup3\n        /* \"#utility.yul\":974:983   */\n      dup6\n        /* \"#utility.yul\":970:992   */\n      add\n        /* \"#utility.yul\":949:1002   */\n      tag_42\n      jump\t// in\n    tag_62:\n        /* \"#utility.yul\":939:1002   */\n      swap2\n      pop\n        /* \"#utility.yul\":895:1012   */\n      pop\n        /* \"#utility.yul\":690:1019   */\n      swap3\n      swap2\n      pop\n      pop\n      jump\t// out\n        /* \"#utility.yul\":1025:1143   */\n    tag_43:\n        /* \"#utility.yul\":1112:1136   */\n      tag_64\n        /* \"#utility.yul\":1130:1135   */\n      dup2\n        /* \"#utility.yul\":1112:1136   */\n      tag_40\n      jump\t// in\n    tag_64:\n        /* \"#utility.yul\":1107:1110   */\n      dup3\n        /* \"#utility.yul\":1100:1137   */\n      mstore\n        /* \"#utility.yul\":1025:1143   */\n      pop\n      pop\n      jump\t// out\n        /* \"#utility.yul\":1149:1371   */\n    tag_14:\n        /* \"#utility.yul\":1242:1246   */\n      0x00\n        /* \"#utility.yul\":1280:1282   */\n      0x20\n        /* \"#utility.yul\":1269:1278   */\n      dup3\n        /* \"#utility.yul\":1265:1283   */\n      add\n        /* \"#utility.yul\":1257:1283   */\n      swap1\n      pop\n        /* \"#utility.yul\":1293:1364   */\n      tag_66\n        /* \"#utility.yul\":1361:1362   */\n      0x00\n        /* \"#utility.yul\":1350:1359   */\n      dup4\n        /* \"#utility.yul\":1346:1363   */\n      add\n        /* \"#utility.yul\":1337:1343   */\n      dup5\n        /* \"#utility.yul\":1293:1364   */\n      tag_43\n      jump\t// in\n    tag_66:\n        /* \"#utility.yul\":1149:1371   */\n      swap3\n      swap2\n      pop\n      pop\n      jump\t// out\n        /* \"#utility.yul\":1377:1557   */\n    tag_21:\n        /* \"#utility.yul\":1425:1502   */\n      0x4e487b7100000000000000000000000000000000000000000000000000000000\n        /* \"#utility.yul\":1422:1423   */\n      0x00\n        /* \"#utility.yul\":1415:1503   */\n      mstore\n        /* \"#utility.yul\":1522:1526   */\n      0x32\n        /* \"#utility.yul\":1519:1520   */\n      0x04\n        /* \"#utility.yul\":1512:1527   */\n      mstore\n        /* \"#utility.yul\":1546:1550   */\n      0x24\n        /* \"#utility.yul\":1543:1544   */\n      0x00\n        /* \"#utility.yul\":1536:1551   */\n      revert\n        /* \"#utility.yul\":1563:1743   */\n    tag_44:\n        /* \"#utility.yul\":1611:1688   */\n      0x4e487b7100000000000000000000000000000000000000000000000000000000\n        /* \"#utility.yul\":1608:1609   */\n      0x00\n        /* \"#utility.yul\":1601:1689   */\n      mstore\n        /* \"#utility.yul\":1708:1712   */\n      0x11\n        /* \"#utility.yul\":1705:1706   */\n      0x04\n        /* \"#utility.yul\":1698:1713   */\n      mstore\n        /* \"#utility.yul\":1732:1736   */\n      0x24\n        /* \"#utility.yul\":1729:1730   */\n      0x00\n        /* \"#utility.yul\":1722:1737   */\n      revert\n        /* \"#utility.yul\":1749:1940   */\n    tag_24:\n        /* \"#utility.yul\":1789:1792   */\n      0x00\n        /* \"#utility.yul\":1808:1828   */\n      tag_70\n        /* \"#utility.yul\":1826:1827   */\n      dup3\n        /* \"#utility.yul\":1808:1828   */\n      tag_40\n      jump\t// in\n    tag_70:\n        /* \"#utility.yul\":1803:1828   */\n      swap2\n      pop\n        /* \"#utility.yul\":1842:1862   */\n      tag_71\n        /* \"#utility.yul\":1860:1861   */\n      dup4\n        /* \"#utility.yul\":1842:1862   */\n      tag_40\n      jump\t// in\n    tag_71:\n        /* \"#utility.yul\":1837:1862   */\n      swap3\n      pop\n        /* \"#utility.yul\":1885:1886   */\n      dup3\n        /* \"#utility.yul\":1882:1883   */\n      dup3\n        /* \"#utility.yul\":1878:1887   */\n      add\n        /* \"#utility.yul\":1871:1887   */\n      swap1\n      pop\n        /* \"#utility.yul\":1906:1909   */\n      dup1\n        /* \"#utility.yul\":1903:1904   */\n      dup3\n        /* \"#utility.yul\":1900:1910   */\n      gt\n        /* \"#utility.yul\":1897:1933   */\n      iszero\n      tag_72\n      jumpi\n        /* \"#utility.yul\":1913:1931   */\n      tag_73\n      tag_44\n      jump\t// in\n    tag_73:\n        /* \"#utility.yul\":1897:1933   */\n    tag_72:\n        /* \"#utility.yul\":1749:1940   */\n      swap3\n      swap2\n      pop\n      pop\n      jump\t// out\n        /* \"#utility.yul\":1946:2126   */\n    tag_45:\n        /* \"#utility.yul\":1994:2071   */\n      0x4e487b7100000000000000000000000000000000000000000000000000000000\n        /* \"#utility.yul\":1991:1992   */\n      0x00\n        /* \"#utility.yul\":1984:2072   */\n      mstore\n        /* \"#utility.yul\":2091:2095   */\n      0x12\n        /* \"#utility.yul\":2088:2089   */\n      0x04\n        /* \"#utility.yul\":2081:2096   */\n      mstore\n        /* \"#utility.yul\":2115:2119   */\n      0x24\n        /* \"#utility.yul\":2112:2113   */\n      0x00\n        /* \"#utility.yul\":2105:2120   */\n      revert\n        /* \"#utility.yul\":2132:2308   */\n    tag_26:\n        /* \"#utility.yul\":2164:2165   */\n      0x00\n        /* \"#utility.yul\":2181:2201   */\n      tag_76\n        /* \"#utility.yul\":2199:2200   */\n      dup3\n        /* \"#utility.yul\":2181:2201   */\n      tag_40\n      jump\t// in\n    tag_76:\n        /* \"#utility.yul\":2176:2201   */\n      swap2\n      pop\n        /* \"#utility.yul\":2215:2235   */\n      tag_77\n        /* \"#utility.yul\":2233:2234   */\n      dup4\n        /* \"#utility.yul\":2215:2235   */\n      tag_40\n      jump\t// in\n    tag_77:\n        /* \"#utility.yul\":2210:2235   */\n      swap3\n      pop\n        /* \"#utility.yul\":2254:2255   */\n      dup3\n        /* \"#utility.yul\":2244:2279   */\n      tag_78\n      jumpi\n        /* \"#utility.yul\":2259:2277   */\n      tag_79\n      tag_45\n      jump\t// in\n    tag_79:\n        /* \"#utility.yul\":2244:2279   */\n    tag_78:\n        /* \"#utility.yul\":2300:2301   */\n      dup3\n        /* \"#utility.yul\":2297:2298   */\n      dup3\n        /* \"#utility.yul\":2293:2302   */\n      mod\n        /* \"#utility.yul\":2288:2302   */\n      swap1\n      pop\n        /* \"#utility.yul\":2132:2308   */\n      swap3\n      swap2\n      pop\n      pop\n      jump\t// out\n        /* \"#utility.yul\":2314:2483   */\n    tag_46:\n        /* \"#utility.yul\":2398:2409   */\n      0x00\n        /* \"#utility.yul\":2432:2438   */\n      dup3\n        /* \"#utility.yul\":2427:2430   */\n      dup3\n        /* \"#utility.yul\":2420:2439   */\n      mstore\n        /* \"#utility.yul\":2472:2476   */\n      0x20\n        /* \"#utility.yul\":2467:2470   */\n      dup3\n        /* \"#utility.yul\":2463:2477   */\n      add\n        /* \"#utility.yul\":2448:2477   */\n      swap1\n      pop\n        /* \"#utility.yul\":2314:2483   */\n      swap3\n      swap2\n      pop\n      pop\n      jump\t// out\n        /* \"#utility.yul\":2489:2658   */\n    tag_47:\n        /* \"#utility.yul\":2629:2650   */\n      0x496e646578206f7574206f6620626f756e647300000000000000000000000000\n        /* \"#utility.yul\":2625:2626   */\n      0x00\n        /* \"#utility.yul\":2617:2623   */\n      dup3\n        /* \"#utility.yul\":2613:2627   */\n      add\n        /* \"#utility.yul\":2606:2651   */\n      mstore\n        /* \"#utility.yul\":2489:2658   */\n      pop\n      jump\t// out\n        /* \"#utility.yul\":2664:3030   */\n    tag_48:\n        /* \"#utility.yul\":2806:2809   */\n      0x00\n        /* \"#utility.yul\":2827:2894   */\n      tag_83\n        /* \"#utility.yul\":2891:2893   */\n      0x13\n        /* \"#utility.yul\":2886:2889   */\n      dup4\n        /* \"#utility.yul\":2827:2894   */\n      tag_46\n      jump\t// in\n    tag_83:\n        /* \"#utility.yul\":2820:2894   */\n      swap2\n      pop\n        /* \"#utility.yul\":2903:2996   */\n      tag_84\n        /* \"#utility.yul\":2992:2995   */\n      dup3\n        /* \"#utility.yul\":2903:2996   */\n      tag_47\n      jump\t// in\n    tag_84:\n        /* \"#utility.yul\":3021:3023   */\n      0x20\n        /* \"#utility.yul\":3016:3019   */\n      dup3\n        /* \"#utility.yul\":3012:3024   */\n      add\n        /* \"#utility.yul\":3005:3024   */\n      swap1\n      pop\n        /* \"#utility.yul\":2664:3030   */\n      swap2\n      swap1\n      pop\n      jump\t// out\n        /* \"#utility.yul\":3036:3455   */\n    tag_30:\n        /* \"#utility.yul\":3202:3206   */\n      0x00\n        /* \"#utility.yul\":3240:3242   */\n      0x20\n        /* \"#utility.yul\":3229:3238   */\n      dup3\n        /* \"#utility.yul\":3225:3243   */\n      add\n        /* \"#utility.yul\":3217:3243   */\n      swap1\n      pop\n        /* \"#utility.yul\":3289:3298   */\n      dup2\n        /* \"#utility.yul\":3283:3287   */\n      dup2\n        /* \"#utility.yul\":3279:3299   */\n      sub\n        /* \"#utility.yul\":3275:3276   */\n      0x00\n        /* \"#utility.yul\":3264:3273   */\n      dup4\n        /* \"#utility.yul\":3260:3277   */\n      add\n        /* \"#utility.yul\":3253:3300   */\n      mstore\n        /* \"#utility.yul\":3317:3448   */\n      tag_86\n        /* \"#utility.yul\":3443:3447   */\n      dup2\n        /* \"#utility.yul\":3317:3448   */\n      tag_48\n      jump\t// in\n    tag_86:\n        /* \"#utility.yul\":3309:3448   */\n      swap1\n      pop\n        /* \"#utility.yul\":3036:3455   */\n      swap2\n      swap1\n      pop\n      jump\t// out\n\n    auxdata: 0xa2646970667358221220c5b5990e8053d41569ab7fba177cab704644be19bcb1e8663b69af9b44f166dc64736f6c63430008160033\n}\n",
				"bytecode": {
					"linkReferences": {},
					"object": "608060405234801561000f575f80fd5b5060405161060038038061060083398181016040528101906100319190610182565b5f8111610073576040517f08c379a000000000000000000000000000000000000000000000000000000000815260040161006a90610207565b60405180910390fd5b8067ffffffffffffffff81111561008d5761008c610225565b5b6040519080825280602002602001820160405280156100bb5781602001602082028036833780820191505090505b505f90805190602001906100d09291906100e5565b50806001819055505f60028190555050610252565b828054828255905f5260205f2090810192821561011f579160200282015b8281111561011e578251825591602001919060010190610103565b5b50905061012c9190610130565b5090565b5b80821115610147575f815f905550600101610131565b5090565b5f80fd5b5f819050919050565b6101618161014f565b811461016b575f80fd5b50565b5f8151905061017c81610158565b92915050565b5f602082840312156101975761019661014b565b5b5f6101a48482850161016e565b91505092915050565b5f82825260208201905092915050565b7f53697a65206d757374206265203e2030000000000000000000000000000000005f82015250565b5f6101f16010836101ad565b91506101fc826101bd565b602082019050919050565b5f6020820190508181035f83015261021e816101e5565b9050919050565b7f4e487b71000000000000000000000000000000000000000000000000000000005f52604160045260245ffd5b6103a18061025f5f395ff3fe608060405234801561000f575f80fd5b506004361061003f575f3560e01c80631003e2d2146100435780639507d39a1461005f578063de8fa4311461008f575b5f80fd5b61005d600480360381019061005891906101b6565b6100ad565b005b610079600480360381019061007491906101b6565b6100f4565b60405161008691906101f0565b60405180910390f35b610097610176565b6040516100a491906101f0565b60405180910390f35b805f600254815481106100c3576100c2610209565b5b905f5260205f20018190555060015460016002546100e19190610263565b6100eb91906102c3565b60028190555050565b5f6001548210610139576040517f08c379a00000000000000000000000000000000000000000000000000000000081526004016101309061034d565b60405180910390fd5b5f6001548360025461014b9190610263565b61015591906102c3565b8154811061016657610165610209565b5b905f5260205f2001549050919050565b5f600154905090565b5f80fd5b5f819050919050565b61019581610183565b811461019f575f80fd5b50565b5f813590506101b08161018c565b92915050565b5f602082840312156101cb576101ca61017f565b5b5f6101d8848285016101a2565b91505092915050565b6101ea81610183565b82525050565b5f6020820190506102035f8301846101e1565b92915050565b7f4e487b71000000000000000000000000000000000000000000000000000000005f52603260045260245ffd5b7f4e487b71000000000000000000000000000000000000000000000000000000005f52601160045260245ffd5b5f61026d82610183565b915061027883610183565b92508282019050808211156102905761028f610236565b5b92915050565b7f4e487b71000000000000000000000000000000000000000000000000000000005f52601260045260245ffd5b5f6102cd82610183565b91506102d883610183565b9250826102e8576102e7610296565b5b828206905092915050565b5f82825260208201905092915050565b7f496e646578206f7574206f6620626f756e6473000000000000000000000000005f82015250565b5f6103376013836102f3565b915061034282610303565b602082019050919050565b5f6020820190508181035f8301526103648161032b565b905091905056fea2646970667358221220c5b5990e8053d41569ab7fba177cab704644be19bcb1e8663b69af9b44f166dc64736f6c63430008160033",
					"opcodes": "PUSH1 0x80 PUSH1 0x40 MSTORE CALLVALUE DUP1 ISZERO PUSH2 0xF JUMPI PUSH0 DUP1 REVERT JUMPDEST POP PUSH1 0x40 MLOAD PUSH2 0x600 CODESIZE SUB DUP1 PUSH2 0x600 DUP4 CODECOPY DUP2 DUP2 ADD PUSH1 0x40 MSTORE DUP2 ADD SWAP1 PUSH2 0x31 SWAP2 SWAP1 PUSH2 0x182 JUMP JUMPDEST PUSH0 DUP2 GT PUSH2 0x73 JUMPI PUSH1 0x40 MLOAD PUSH32 0x8C379A000000000000000000000000000000000000000000000000000000000 DUP2 MSTORE PUSH1 0x4 ADD PUSH2 0x6A SWAP1 PUSH2 0x207 JUMP JUMPDEST PUSH1 0x40 MLOAD DUP1 SWAP2 SUB SWAP1 REVERT JUMPDEST DUP1 PUSH8 0xFFFFFFFFFFFFFFFF DUP2 GT ISZERO PUSH2 0x8D JUMPI PUSH2 0x8C PUSH2 0x225 JUMP JUMPDEST JUMPDEST PUSH1 0x40 MLOAD SWAP1 DUP1 DUP3 MSTORE DUP1 PUSH1 0x20 MUL PUSH1 0x20 ADD DUP3 ADD PUSH1 0x40 MSTORE DUP1 ISZERO PUSH2 0xBB JUMPI DUP2 PUSH1 0x20 ADD PUSH1 0x20 DUP3 MUL DUP1 CALLDATASIZE DUP4 CALLDATACOPY DUP1 DUP3 ADD SWAP2 POP POP SWAP1 POP JUMPDEST POP PUSH0 SWAP1 DUP1 MLOAD SWAP1 PUSH1 0x20 ADD SWAP1 PUSH2 0xD0 SWAP3 SWAP2 SWAP1 PUSH2 0xE5 JUMP JUMPDEST POP DUP1 PUSH1 0x1 DUP2 SWAP1 SSTORE POP PUSH0 PUSH1 0x2 DUP2 SWAP1 SSTORE POP POP PUSH2 0x252 JUMP JUMPDEST DUP3 DUP1 SLOAD DUP3 DUP3 SSTORE SWAP1 PUSH0 MSTORE PUSH1 0x20 PUSH0 KECCAK256 SWAP1 DUP2 ADD SWAP3 DUP3 ISZERO PUSH2 0x11F JUMPI SWAP2 PUSH1 0x20 MUL DUP3 ADD JUMPDEST DUP3 DUP2 GT ISZERO PUSH2 0x11E JUMPI DUP3 MLOAD DUP3 SSTORE SWAP2 PUSH1 0x20 ADD SWAP2 SWAP1 PUSH1 0x1 ADD SWAP1 PUSH2 0x103 JUMP JUMPDEST JUMPDEST POP SWAP1 POP PUSH2 0x12C SWAP2 SWAP1 PUSH2 0x130 JUMP JUMPDEST POP SWAP1 JUMP JUMPDEST JUMPDEST DUP1 DUP3 GT ISZERO PUSH2 0x147 JUMPI PUSH0 DUP2 PUSH0 SWAP1 SSTORE POP PUSH1 0x1 ADD PUSH2 0x131 JUMP JUMPDEST POP SWAP1 JUMP JUMPDEST PUSH0 DUP1 REVERT JUMPDEST PUSH0 DUP2 SWAP1 POP SWAP2 SWAP1 POP JUMP JUMPDEST PUSH2 0x161 DUP2 PUSH2 0x14F JUMP JUMPDEST DUP2 EQ PUSH2 0x16B JUMPI PUSH0 DUP1 REVERT JUMPDEST POP JUMP JUMPDEST PUSH0 DUP2 MLOAD SWAP1 POP PUSH2 0x17C DUP2 PUSH2 0x158 JUMP JUMPDEST SWAP3 SWAP2 POP POP JUMP JUMPDEST PUSH0 PUSH1 0x20 DUP3 DUP5 SUB SLT ISZERO PUSH2 0x197 JUMPI PUSH2 0x196 PUSH2 0x14B JUMP JUMPDEST JUMPDEST PUSH0 PUSH2 0x1A4 DUP5 DUP3 DUP6 ADD PUSH2 0x16E JUMP JUMPDEST SWAP2 POP POP SWAP3 SWAP2 POP POP JUMP JUMPDEST PUSH0 DUP3 DUP3 MSTORE PUSH1 0x20 DUP3 ADD SWAP1 POP SWAP3 SWAP2 POP POP JUMP JUMPDEST PUSH32 0x53697A65206D757374206265203E203000000000000000000000000000000000 PUSH0 DUP3 ADD MSTORE POP JUMP JUMPDEST PUSH0 PUSH2 0x1F1 PUSH1 0x10 DUP4 PUSH2 0x1AD JUMP JUMPDEST SWAP2 POP PUSH2 0x1FC DUP3 PUSH2 0x1BD JUMP JUMPDEST PUSH1 0x20 DUP3 ADD SWAP1 POP SWAP2 SWAP1 POP JUMP JUMPDEST PUSH0 PUSH1 0x20 DUP3 ADD SWAP1 POP DUP2 DUP2 SUB PUSH0 DUP4 ADD MSTORE PUSH2 0x21E DUP2 PUSH2 0x1E5 JUMP JUMPDEST SWAP1 POP SWAP2 SWAP1 POP JUMP JUMPDEST PUSH32 0x4E487B7100000000000000000000000000000000000000000000000000000000 PUSH0 MSTORE PUSH1 0x41 PUSH1 0x4 MSTORE PUSH1 0x24 PUSH0 REVERT JUMPDEST PUSH2 0x3A1 DUP1 PUSH2 0x25F PUSH0 CODECOPY PUSH0 RETURN INVALID PUSH1 0x80 PUSH1 0x40 MSTORE CALLVALUE DUP1 ISZERO PUSH2 0xF JUMPI PUSH0 DUP1 REVERT JUMPDEST POP PUSH1 0x4 CALLDATASIZE LT PUSH2 0x3F JUMPI PUSH0 CALLDATALOAD PUSH1 0xE0 SHR DUP1 PUSH4 0x1003E2D2 EQ PUSH2 0x43 JUMPI DUP1 PUSH4 0x9507D39A EQ PUSH2 0x5F JUMPI DUP1 PUSH4 0xDE8FA431 EQ PUSH2 0x8F JUMPI JUMPDEST PUSH0 DUP1 REVERT JUMPDEST PUSH2 0x5D PUSH1 0x4 DUP1 CALLDATASIZE SUB DUP2 ADD SWAP1 PUSH2 0x58 SWAP2 SWAP1 PUSH2 0x1B6 JUMP JUMPDEST PUSH2 0xAD JUMP JUMPDEST STOP JUMPDEST PUSH2 0x79 PUSH1 0x4 DUP1 CALLDATASIZE SUB DUP2 ADD SWAP1 PUSH2 0x74 SWAP2 SWAP1 PUSH2 0x1B6 JUMP JUMPDEST PUSH2 0xF4 JUMP JUMPDEST PUSH1 0x40 MLOAD PUSH2 0x86 SWAP2 SWAP1 PUSH2 0x1F0 JUMP JUMPDEST PUSH1 0x40 MLOAD DUP1 SWAP2 SUB SWAP1 RETURN JUMPDEST PUSH2 0x97 PUSH2 0x176 JUMP JUMPDEST PUSH1 0x40 MLOAD PUSH2 0xA4 SWAP2 SWAP1 PUSH2 0x1F0 JUMP JUMPDEST PUSH1 0x40 MLOAD DUP1 SWAP2 SUB SWAP1 RETURN JUMPDEST DUP1 PUSH0 PUSH1 0x2 SLOAD DUP2 SLOAD DUP2 LT PUSH2 0xC3 JUMPI PUSH2 0xC2 PUSH2 0x209 JUMP JUMPDEST JUMPDEST SWAP1 PUSH0 MSTORE PUSH1 0x20 PUSH0 KECCAK256 ADD DUP2 SWAP1 SSTORE POP PUSH1 0x1 SLOAD PUSH1 0x1 PUSH1 0x2 SLOAD PUSH2 0xE1 SWAP2 SWAP1 PUSH2 0x263 JUMP JUMPDEST PUSH2 0xEB SWAP2 SWAP1 PUSH2 0x2C3 JUMP JUMPDEST PUSH1 0x2 DUP2 SWAP1 SSTORE POP POP JUMP JUMPDEST PUSH0 PUSH1 0x1 SLOAD DUP3 LT PUSH2 0x139 JUMPI PUSH1 0x40 MLOAD PUSH32 0x8C379A000000000000000000000000000000000000000000000000000000000 DUP2 MSTORE PUSH1 0x4 ADD PUSH2 0x130 SWAP1 PUSH2 0x34D JUMP JUMPDEST PUSH1 0x40 MLOAD DUP1 SWAP2 SUB SWAP1 REVERT JUMPDEST PUSH0 PUSH1 0x1 SLOAD DUP4 PUSH1 0x2 SLOAD PUSH2 0x14B SWAP2 SWAP1 PUSH2 0x263 JUMP JUMPDEST PUSH2 0x155 SWAP2 SWAP1 PUSH2 0x2C3 JUMP JUMPDEST DUP2 SLOAD DUP2 LT PUSH2 0x166 JUMPI PUSH2 0x165 PUSH2 0x209 JUMP JUMPDEST JUMPDEST SWAP1 PUSH0 MSTORE PUSH1 0x20 PUSH0 KECCAK256 ADD SLOAD SWAP1 POP SWAP2 SWAP1 POP JUMP JUMPDEST PUSH0 PUSH1 0x1 SLOAD SWAP1 POP SWAP1 JUMP JUMPDEST PUSH0 DUP1 REVERT JUMPDEST PUSH0 DUP2 SWAP1 POP SWAP2 SWAP1 POP JUMP JUMPDEST PUSH2 0x195 DUP2 PUSH2 0x183 JUMP JUMPDEST DUP2 EQ PUSH2 0x19F JUMPI PUSH0 DUP1 REVERT JUMPDEST POP JUMP JUMPDEST PUSH0 DUP2 CALLDATALOAD SWAP1 POP PUSH2 0x1B0 DUP2 PUSH2 0x18C JUMP JUMPDEST SWAP3 SWAP2 POP POP JUMP JUMPDEST PUSH0 PUSH1 0x20 DUP3 DUP5 SUB SLT ISZERO PUSH2 0x1CB JUMPI PUSH2 0x1CA PUSH2 0x17F JUMP JUMPDEST JUMPDEST PUSH0 PUSH2 0x1D8 DUP5 DUP3 DUP6 ADD PUSH2 0x1A2 JUMP JUMPDEST SWAP2 POP POP SWAP3 SWAP2 POP POP JUMP JUMPDEST PUSH2 0x1EA DUP2 PUSH2 0x183 JUMP JUMPDEST DUP3 MSTORE POP POP JUMP JUMPDEST PUSH0 PUSH1 0x20 DUP3 ADD SWAP1 POP PUSH2 0x203 PUSH0 DUP4 ADD DUP5 PUSH2 0x1E1 JUMP JUMPDEST SWAP3 SWAP2 POP POP JUMP JUMPDEST PUSH32 0x4E487B7100000000000000000000000000000000000000000000000000000000 PUSH0 MSTORE PUSH1 0x32 PUSH1 0x4 MSTORE PUSH1 0x24 PUSH0 REVERT JUMPDEST PUSH32 0x4E487B7100000000000000000000000000000000000000000000000000000000 PUSH0 MSTORE PUSH1 0x11 PUSH1 0x4 MSTORE PUSH1 0x24 PUSH0 REVERT JUMPDEST PUSH0 PUSH2 0x26D DUP3 PUSH2 0x183 JUMP JUMPDEST SWAP2 POP PUSH2 0x278 DUP4 PUSH2 0x183 JUMP JUMPDEST SWAP3 POP DUP3 DUP3 ADD SWAP1 POP DUP1 DUP3 GT ISZERO PUSH2 0x290 JUMPI PUSH2 0x28F PUSH2 0x236 JUMP JUMPDEST JUMPDEST SWAP3 SWAP2 POP POP JUMP JUMPDEST PUSH32 0x4E487B7100000000000000000000000000000000000000000000000000000000 PUSH0 MSTORE PUSH1 0x12 PUSH1 0x4 MSTORE PUSH1 0x24 PUSH0 REVERT JUMPDEST PUSH0 PUSH2 0x2CD DUP3 PUSH2 0x183 JUMP JUMPDEST SWAP2 POP PUSH2 0x2D8 DUP4 PUSH2 0x183 JUMP JUMPDEST SWAP3 POP DUP3 PUSH2 0x2E8 JUMPI PUSH2 0x2E7 PUSH2 0x296 JUMP JUMPDEST JUMPDEST DUP3 DUP3 MOD SWAP1 POP SWAP3 SWAP2 POP POP JUMP JUMPDEST PUSH0 DUP3 DUP3 MSTORE PUSH1 0x20 DUP3 ADD SWAP1 POP SWAP3 SWAP2 POP POP JUMP JUMPDEST PUSH32 0x496E646578206F7574206F6620626F756E647300000000000000000000000000 PUSH0 DUP3 ADD MSTORE POP JUMP JUMPDEST PUSH0 PUSH2 0x337 PUSH1 0x13 DUP4 PUSH2 0x2F3 JUMP JUMPDEST SWAP2 POP PUSH2 0x342 DUP3 PUSH2 0x303 JUMP JUMPDEST PUSH1 0x20 DUP3 ADD SWAP1 POP SWAP2 SWAP1 POP JUMP JUMPDEST PUSH0 PUSH1 0x20 DUP3 ADD SWAP1 POP DUP2 DUP2 SUB PUSH0 DUP4 ADD MSTORE PUSH2 0x364 DUP2 PUSH2 0x32B JUMP JUMPDEST SWAP1 POP SWAP2 SWAP1 POP JUMP INVALID LOG2 PUSH5 0x6970667358 0x22 SLT KECCAK256 0xC5 0xB5 SWAP10 0xE DUP1 MSTORE8 0xD4 ISZERO PUSH10 0xAB7FBA177CAB704644BE NOT 0xBC 0xB1 0xE8 PUSH7 0x3B69AF9B44F166 0xDC PUSH5 0x736F6C6343 STOP ADDMOD AND STOP CALLER "
				},
				"gasEstimates": {
					"creation": {
						"codeDepositCost": "185800",
						"executionCost": "infinite",
						"totalCost": "infinite"
					},
					"external": {
						"add(uint256)": "infinite",
						"get(uint256)": "infinite",
						"getSize()": "2454"
					}
				},
				"methodIdentifiers": {
					"add(uint256)": "1003e2d2",
					"get(uint256)": "9507d39a",
					"getSize()": "de8fa431"
				}
			},
			"storageLayout": {
				"storage": [
					{
						"astId": 4,
						"contract": "CyrcleArray.sol:CircularBuffer",
						"label": "buffer",
						"offset": 0,
						"slot": "0",
						"type": "t_array(t_uint256)dyn_storage"
					},
					{
						"astId": 6,
						"contract": "CyrcleArray.sol:CircularBuffer",
						"label": "size",
						"offset": 0,
						"slot": "1",
						"type": "t_uint256"
					},
					{
						"astId": 8,
						"contract": "CyrcleArray.sol:CircularBuffer",
						"label": "index",
						"offset": 0,
						"slot": "2",
						"type": "t_uint256"
					}
				],
				"types": {
					"t_array(t_uint256)dyn_storage": {
						"base": "t_uint256",
						"encoding": "dynamic_array",
						"label": "uint256[]",
						"numberOfBytes": "32"
					},
					"t_uint256": {
						"encoding": "inplace",
						"label": "uint256",
						"numberOfBytes": "32"
					}
				}
			},
			"userdoc": {
				"kind": "user",
				"methods": {},
				"version": 1
			}
		}
	}
}