{
	"IncrementWithThreshold.sol": {
		"IncrementWithThreshold": {
			"abi": [
				{
					"inputs": [
						{
							"internalType": "uint256",
							"name": "_value",
							"type": "uint256"
						},
						{
							"internalType": "uint256",
							"name": "_threshold",
							"type": "uint256"
						}
					],
					"stateMutability": "nonpayable",
					"type": "constructor"
				},
				{
					"anonymous": false,
					"inputs": [
						{
							"indexed": false,
							"internalType": "uint256",
							"name": "newValue",
							"type": "uint256"
						}
					],
					"name": "ValueIncremented",
					"type": "event"
				},
				{
					"inputs": [],
					"name": "getValue",
					"outputs": [
						{
							"internalType": "uint256",
							"name": "",
							"type": "uint256"
						}
					],
					"stateMutability": "view",
					"type": "function"
				},
				{
					"inputs": [],
					"name": "increment",
					"outputs": [],
					"stateMutability": "nonpayable",
					"type": "function"
				},
				{
					"inputs": [
						{
							"internalType": "uint256",
							"name": "newThreshold",
							"type": "uint256"
						}
					],
					"name": "setNewThreshold",
					"outputs": [],
					"stateMutability": "nonpayable",
					"type": "function"
				},
				{
					"inputs": [],
					"name": "threshold",
					"outputs": [
						{
							"internalType": "uint256",
							"name": "",
							"type": "uint256"
						}
					],
					"stateMutability": "view",
					"type": "function"
				}
			],
			"devdoc": {
				"kind": "dev",
				"methods": {},
				"version": 1
			},
			"evm": {
				"assembly": "    /* \"IncrementWithThreshold.sol\":226:1228  contract IncrementWithThreshold {... */\n  mstore(0x40, 0x80)\n    /* \"IncrementWithThreshold.sol\":532:648  constructor(uint256 _value, uint256 _threshold) {... */\n  callvalue\n  dup1\n  iszero\n  tag_1\n  jumpi\n  0x00\n  dup1\n  revert\ntag_1:\n  pop\n  mload(0x40)\n  sub(codesize, bytecodeSize)\n  dup1\n  bytecodeSize\n  dup4\n  codecopy\n  dup2\n  dup2\n  add\n  0x40\n  mstore\n  dup2\n  add\n  swap1\n  tag_2\n  swap2\n  swap1\n  tag_3\n  jump\t// in\ntag_2:\n    /* \"IncrementWithThreshold.sol\":599:605  _value */\n  dup2\n    /* \"IncrementWithThreshold.sol\":591:596  value */\n  0x00\n    /* \"IncrementWithThreshold.sol\":591:605  value = _value */\n  dup2\n  swap1\n  sstore\n  pop\n    /* \"IncrementWithThreshold.sol\":628:638  _threshold */\n  dup1\n    /* \"IncrementWithThreshold.sol\":616:625  threshold */\n  0x01\n    /* \"IncrementWithThreshold.sol\":616:638  threshold = _threshold */\n  dup2\n  swap1\n  sstore\n  pop\n    /* \"IncrementWithThreshold.sol\":532:648  constructor(uint256 _value, uint256 _threshold) {... */\n  pop\n  pop\n    /* \"IncrementWithThreshold.sol\":226:1228  contract IncrementWithThreshold {... */\n  jump(tag_6)\n    /* \"#utility.yul\":88:205   */\ntag_8:\n    /* \"#utility.yul\":197:198   */\n  0x00\n    /* \"#utility.yul\":194:195   */\n  dup1\n    /* \"#utility.yul\":187:199   */\n  revert\n    /* \"#utility.yul\":334:411   */\ntag_10:\n    /* \"#utility.yul\":371:378   */\n  0x00\n    /* \"#utility.yul\":400:405   */\n  dup2\n    /* \"#utility.yul\":389:405   */\n  swap1\n  pop\n    /* \"#utility.yul\":334:411   */\n  swap2\n  swap1\n  pop\n  jump\t// out\n    /* \"#utility.yul\":417:539   */\ntag_11:\n    /* \"#utility.yul\":490:514   */\n  tag_19\n    /* \"#utility.yul\":508:513   */\n  dup2\n    /* \"#utility.yul\":490:514   */\n  tag_10\n  jump\t// in\ntag_19:\n    /* \"#utility.yul\":483:488   */\n  dup2\n    /* \"#utility.yul\":480:515   */\n  eq\n    /* \"#utility.yul\":470:533   */\n  tag_20\n  jumpi\n    /* \"#utility.yul\":529:530   */\n  0x00\n    /* \"#utility.yul\":526:527   */\n  dup1\n    /* \"#utility.yul\":519:531   */\n  revert\n    /* \"#utility.yul\":470:533   */\ntag_20:\n    /* \"#utility.yul\":417:539   */\n  pop\n  jump\t// out\n    /* \"#utility.yul\":545:688   */\ntag_12:\n    /* \"#utility.yul\":602:607   */\n  0x00\n    /* \"#utility.yul\":633:639   */\n  dup2\n    /* \"#utility.yul\":627:640   */\n  mload\n    /* \"#utility.yul\":618:640   */\n  swap1\n  pop\n    /* \"#utility.yul\":649:682   */\n  tag_22\n    /* \"#utility.yul\":676:681   */\n  dup2\n    /* \"#utility.yul\":649:682   */\n  tag_11\n  jump\t// in\ntag_22:\n    /* \"#utility.yul\":545:688   */\n  swap3\n  swap2\n  pop\n  pop\n  jump\t// out\n    /* \"#utility.yul\":694:1201   */\ntag_3:\n    /* \"#utility.yul\":773:779   */\n  0x00\n    /* \"#utility.yul\":781:787   */\n  dup1\n    /* \"#utility.yul\":830:832   */\n  0x40\n    /* \"#utility.yul\":818:827   */\n  dup4\n    /* \"#utility.yul\":809:816   */\n  dup6\n    /* \"#utility.yul\":805:828   */\n  sub\n    /* \"#utility.yul\":801:833   */\n  slt\n    /* \"#utility.yul\":798:917   */\n  iszero\n  tag_24\n  jumpi\n    /* \"#utility.yul\":836:915   */\n  tag_25\n  tag_8\n  jump\t// in\ntag_25:\n    /* \"#utility.yul\":798:917   */\ntag_24:\n    /* \"#utility.yul\":956:957   */\n  0x00\n    /* \"#utility.yul\":981:1045   */\n  tag_26\n    /* \"#utility.yul\":1037:1044   */\n  dup6\n    /* \"#utility.yul\":1028:1034   */\n  dup3\n    /* \"#utility.yul\":1017:1026   */\n  dup7\n    /* \"#utility.yul\":1013:1035   */\n  add\n    /* \"#utility.yul\":981:1045   */\n  tag_12\n  jump\t// in\ntag_26:\n    /* \"#utility.yul\":971:1045   */\n  swap3\n  pop\n    /* \"#utility.yul\":927:1055   */\n  pop\n    /* \"#utility.yul\":1094:1096   */\n  0x20\n    /* \"#utility.yul\":1120:1184   */\n  tag_27\n    /* \"#utility.yul\":1176:1183   */\n  dup6\n    /* \"#utility.yul\":1167:1173   */\n  dup3\n    /* \"#utility.yul\":1156:1165   */\n  dup7\n    /* \"#utility.yul\":1152:1174   */\n  add\n    /* \"#utility.yul\":1120:1184   */\n  tag_12\n  jump\t// in\ntag_27:\n    /* \"#utility.yul\":1110:1184   */\n  swap2\n  pop\n    /* \"#utility.yul\":1065:1194   */\n  pop\n    /* \"#utility.yul\":694:1201   */\n  swap3\n  pop\n  swap3\n  swap1\n  pop\n  jump\t// out\n    /* \"IncrementWithThreshold.sol\":226:1228  contract IncrementWithThreshold {... */\ntag_6:\n  dataSize(sub_0)\n  dup1\n  dataOffset(sub_0)\n  0x00\n  codecopy\n  0x00\n  return\nstop\n\nsub_0: assembly {\n        /* \"IncrementWithThreshold.sol\":226:1228  contract IncrementWithThreshold {... */\n      mstore(0x40, 0x80)\n      callvalue\n      dup1\n      iszero\n      tag_1\n      jumpi\n      0x00\n      dup1\n      revert\n    tag_1:\n      pop\n      jumpi(tag_2, lt(calldatasize, 0x04))\n      shr(0xe0, calldataload(0x00))\n      dup1\n      0x20965255\n      eq\n      tag_3\n      jumpi\n      dup1\n      0x42cde4e8\n      eq\n      tag_4\n      jumpi\n      dup1\n      0xd09de08a\n      eq\n      tag_5\n      jumpi\n      dup1\n      0xe077f656\n      eq\n      tag_6\n      jumpi\n    tag_2:\n      0x00\n      dup1\n      revert\n        /* \"IncrementWithThreshold.sol\":698:779  function getValue() public view returns (uint256) {... */\n    tag_3:\n      tag_7\n      tag_8\n      jump\t// in\n    tag_7:\n      mload(0x40)\n      tag_9\n      swap2\n      swap1\n      tag_10\n      jump\t// in\n    tag_9:\n      mload(0x40)\n      dup1\n      swap2\n      sub\n      swap1\n      return\n        /* \"IncrementWithThreshold.sol\":341:365  uint256 public threshold */\n    tag_4:\n      tag_11\n      tag_12\n      jump\t// in\n    tag_11:\n      mload(0x40)\n      tag_13\n      swap2\n      swap1\n      tag_10\n      jump\t// in\n    tag_13:\n      mload(0x40)\n      dup1\n      swap2\n      sub\n      swap1\n      return\n        /* \"IncrementWithThreshold.sol\":868:1070  function increment() public {... */\n    tag_5:\n      tag_14\n      tag_15\n      jump\t// in\n    tag_14:\n      stop\n        /* \"IncrementWithThreshold.sol\":1123:1220  function setNewThreshold(uint256 newThreshold) public {... */\n    tag_6:\n      tag_16\n      0x04\n      dup1\n      calldatasize\n      sub\n      dup2\n      add\n      swap1\n      tag_17\n      swap2\n      swap1\n      tag_18\n      jump\t// in\n    tag_17:\n      tag_19\n      jump\t// in\n    tag_16:\n      stop\n        /* \"IncrementWithThreshold.sol\":698:779  function getValue() public view returns (uint256) {... */\n    tag_8:\n        /* \"IncrementWithThreshold.sol\":739:746  uint256 */\n      0x00\n        /* \"IncrementWithThreshold.sol\":766:771  value */\n      dup1\n      sload\n        /* \"IncrementWithThreshold.sol\":759:771  return value */\n      swap1\n      pop\n        /* \"IncrementWithThreshold.sol\":698:779  function getValue() public view returns (uint256) {... */\n      swap1\n      jump\t// out\n        /* \"IncrementWithThreshold.sol\":341:365  uint256 public threshold */\n    tag_12:\n      sload(0x01)\n      dup2\n      jump\t// out\n        /* \"IncrementWithThreshold.sol\":868:1070  function increment() public {... */\n    tag_15:\n        /* \"IncrementWithThreshold.sol\":923:932  threshold */\n      sload(0x01)\n        /* \"IncrementWithThreshold.sol\":915:920  value */\n      sload(0x00)\n        /* \"IncrementWithThreshold.sol\":915:932  value < threshold */\n      lt\n        /* \"IncrementWithThreshold.sol\":907:968  require(value < threshold, \"Value has reached the threshold\") */\n      tag_22\n      jumpi\n      mload(0x40)\n      0x08c379a000000000000000000000000000000000000000000000000000000000\n      dup2\n      mstore\n      0x04\n      add\n      tag_23\n      swap1\n      tag_24\n      jump\t// in\n    tag_23:\n      mload(0x40)\n      dup1\n      swap2\n      sub\n      swap1\n      revert\n    tag_22:\n        /* \"IncrementWithThreshold.sol\":979:984  value */\n      0x00\n      dup1\n        /* \"IncrementWithThreshold.sol\":979:986  value++ */\n      dup2\n      sload\n      dup1\n      swap3\n      swap2\n      swap1\n      tag_25\n      swap1\n      tag_26\n      jump\t// in\n    tag_25:\n      swap2\n      swap1\n      pop\n      sstore\n      pop\n        /* \"IncrementWithThreshold.sol\":1039:1062  ValueIncremented(value) */\n      0xc8a7fc4cfa989096cf36e066e6c623624d76311b81dfc4cb4729dcaa383512de\n        /* \"IncrementWithThreshold.sol\":1056:1061  value */\n      sload(0x00)\n        /* \"IncrementWithThreshold.sol\":1039:1062  ValueIncremented(value) */\n      mload(0x40)\n      tag_27\n      swap2\n      swap1\n      tag_10\n      jump\t// in\n    tag_27:\n      mload(0x40)\n      dup1\n      swap2\n      sub\n      swap1\n      log1\n        /* \"IncrementWithThreshold.sol\":868:1070  function increment() public {... */\n      jump\t// out\n        /* \"IncrementWithThreshold.sol\":1123:1220  function setNewThreshold(uint256 newThreshold) public {... */\n    tag_19:\n        /* \"IncrementWithThreshold.sol\":1200:1212  newThreshold */\n      dup1\n        /* \"IncrementWithThreshold.sol\":1188:1197  threshold */\n      0x01\n        /* \"IncrementWithThreshold.sol\":1188:1212  threshold = newThreshold */\n      dup2\n      swap1\n      sstore\n      pop\n        /* \"IncrementWithThreshold.sol\":1123:1220  function setNewThreshold(uint256 newThreshold) public {... */\n      pop\n      jump\t// out\n        /* \"#utility.yul\":7:84   */\n    tag_29:\n        /* \"#utility.yul\":44:51   */\n      0x00\n        /* \"#utility.yul\":73:78   */\n      dup2\n        /* \"#utility.yul\":62:78   */\n      swap1\n      pop\n        /* \"#utility.yul\":7:84   */\n      swap2\n      swap1\n      pop\n      jump\t// out\n        /* \"#utility.yul\":90:208   */\n    tag_30:\n        /* \"#utility.yul\":177:201   */\n      tag_43\n        /* \"#utility.yul\":195:200   */\n      dup2\n        /* \"#utility.yul\":177:201   */\n      tag_29\n      jump\t// in\n    tag_43:\n        /* \"#utility.yul\":172:175   */\n      dup3\n        /* \"#utility.yul\":165:202   */\n      mstore\n        /* \"#utility.yul\":90:208   */\n      pop\n      pop\n      jump\t// out\n        /* \"#utility.yul\":214:436   */\n    tag_10:\n        /* \"#utility.yul\":307:311   */\n      0x00\n        /* \"#utility.yul\":345:347   */\n      0x20\n        /* \"#utility.yul\":334:343   */\n      dup3\n        /* \"#utility.yul\":330:348   */\n      add\n        /* \"#utility.yul\":322:348   */\n      swap1\n      pop\n        /* \"#utility.yul\":358:429   */\n      tag_45\n        /* \"#utility.yul\":426:427   */\n      0x00\n        /* \"#utility.yul\":415:424   */\n      dup4\n        /* \"#utility.yul\":411:428   */\n      add\n        /* \"#utility.yul\":402:408   */\n      dup5\n        /* \"#utility.yul\":358:429   */\n      tag_30\n      jump\t// in\n    tag_45:\n        /* \"#utility.yul\":214:436   */\n      swap3\n      swap2\n      pop\n      pop\n      jump\t// out\n        /* \"#utility.yul\":523:640   */\n    tag_32:\n        /* \"#utility.yul\":632:633   */\n      0x00\n        /* \"#utility.yul\":629:630   */\n      dup1\n        /* \"#utility.yul\":622:634   */\n      revert\n        /* \"#utility.yul\":769:891   */\n    tag_34:\n        /* \"#utility.yul\":842:866   */\n      tag_50\n        /* \"#utility.yul\":860:865   */\n      dup2\n        /* \"#utility.yul\":842:866   */\n      tag_29\n      jump\t// in\n    tag_50:\n        /* \"#utility.yul\":835:840   */\n      dup2\n        /* \"#utility.yul\":832:867   */\n      eq\n        /* \"#utility.yul\":822:885   */\n      tag_51\n      jumpi\n        /* \"#utility.yul\":881:882   */\n      0x00\n        /* \"#utility.yul\":878:879   */\n      dup1\n        /* \"#utility.yul\":871:883   */\n      revert\n        /* \"#utility.yul\":822:885   */\n    tag_51:\n        /* \"#utility.yul\":769:891   */\n      pop\n      jump\t// out\n        /* \"#utility.yul\":897:1036   */\n    tag_35:\n        /* \"#utility.yul\":943:948   */\n      0x00\n        /* \"#utility.yul\":981:987   */\n      dup2\n        /* \"#utility.yul\":968:988   */\n      calldataload\n        /* \"#utility.yul\":959:988   */\n      swap1\n      pop\n        /* \"#utility.yul\":997:1030   */\n      tag_53\n        /* \"#utility.yul\":1024:1029   */\n      dup2\n        /* \"#utility.yul\":997:1030   */\n      tag_34\n      jump\t// in\n    tag_53:\n        /* \"#utility.yul\":897:1036   */\n      swap3\n      swap2\n      pop\n      pop\n      jump\t// out\n        /* \"#utility.yul\":1042:1371   */\n    tag_18:\n        /* \"#utility.yul\":1101:1107   */\n      0x00\n        /* \"#utility.yul\":1150:1152   */\n      0x20\n        /* \"#utility.yul\":1138:1147   */\n      dup3\n        /* \"#utility.yul\":1129:1136   */\n      dup5\n        /* \"#utility.yul\":1125:1148   */\n      sub\n        /* \"#utility.yul\":1121:1153   */\n      slt\n        /* \"#utility.yul\":1118:1237   */\n      iszero\n      tag_55\n      jumpi\n        /* \"#utility.yul\":1156:1235   */\n      tag_56\n      tag_32\n      jump\t// in\n    tag_56:\n        /* \"#utility.yul\":1118:1237   */\n    tag_55:\n        /* \"#utility.yul\":1276:1277   */\n      0x00\n        /* \"#utility.yul\":1301:1354   */\n      tag_57\n        /* \"#utility.yul\":1346:1353   */\n      dup5\n        /* \"#utility.yul\":1337:1343   */\n      dup3\n        /* \"#utility.yul\":1326:1335   */\n      dup6\n        /* \"#utility.yul\":1322:1344   */\n      add\n        /* \"#utility.yul\":1301:1354   */\n      tag_35\n      jump\t// in\n    tag_57:\n        /* \"#utility.yul\":1291:1354   */\n      swap2\n      pop\n        /* \"#utility.yul\":1247:1364   */\n      pop\n        /* \"#utility.yul\":1042:1371   */\n      swap3\n      swap2\n      pop\n      pop\n      jump\t// out\n        /* \"#utility.yul\":1377:1546   */\n    tag_36:\n        /* \"#utility.yul\":1461:1472   */\n      0x00\n        /* \"#utility.yul\":1495:1501   */\n      dup3\n        /* \"#utility.yul\":1490:1493   */\n      dup3\n        /* \"#utility.yul\":1483:1502   */\n      mstore\n        /* \"#utility.yul\":1535:1539   */\n      0x20\n        /* \"#utility.yul\":1530:1533   */\n      dup3\n        /* \"#utility.yul\":1526:1540   */\n      add\n        /* \"#utility.yul\":1511:1540   */\n      swap1\n      pop\n        /* \"#utility.yul\":1377:1546   */\n      swap3\n      swap2\n      pop\n      pop\n      jump\t// out\n        /* \"#utility.yul\":1552:1733   */\n    tag_37:\n        /* \"#utility.yul\":1692:1725   */\n      0x56616c756520686173207265616368656420746865207468726573686f6c6400\n        /* \"#utility.yul\":1688:1689   */\n      0x00\n        /* \"#utility.yul\":1680:1686   */\n      dup3\n        /* \"#utility.yul\":1676:1690   */\n      add\n        /* \"#utility.yul\":1669:1726   */\n      mstore\n        /* \"#utility.yul\":1552:1733   */\n      pop\n      jump\t// out\n        /* \"#utility.yul\":1739:2105   */\n    tag_38:\n        /* \"#utility.yul\":1881:1884   */\n      0x00\n        /* \"#utility.yul\":1902:1969   */\n      tag_61\n        /* \"#utility.yul\":1966:1968   */\n      0x1f\n        /* \"#utility.yul\":1961:1964   */\n      dup4\n        /* \"#utility.yul\":1902:1969   */\n      tag_36\n      jump\t// in\n    tag_61:\n        /* \"#utility.yul\":1895:1969   */\n      swap2\n      pop\n        /* \"#utility.yul\":1978:2071   */\n      tag_62\n        /* \"#utility.yul\":2067:2070   */\n      dup3\n        /* \"#utility.yul\":1978:2071   */\n      tag_37\n      jump\t// in\n    tag_62:\n        /* \"#utility.yul\":2096:2098   */\n      0x20\n        /* \"#utility.yul\":2091:2094   */\n      dup3\n        /* \"#utility.yul\":2087:2099   */\n      add\n        /* \"#utility.yul\":2080:2099   */\n      swap1\n      pop\n        /* \"#utility.yul\":1739:2105   */\n      swap2\n      swap1\n      pop\n      jump\t// out\n        /* \"#utility.yul\":2111:2530   */\n    tag_24:\n        /* \"#utility.yul\":2277:2281   */\n      0x00\n        /* \"#utility.yul\":2315:2317   */\n      0x20\n        /* \"#utility.yul\":2304:2313   */\n      dup3\n        /* \"#utility.yul\":2300:2318   */\n      add\n        /* \"#utility.yul\":2292:2318   */\n      swap1\n      pop\n        /* \"#utility.yul\":2364:2373   */\n      dup2\n        /* \"#utility.yul\":2358:2362   */\n      dup2\n        /* \"#utility.yul\":2354:2374   */\n      sub\n        /* \"#utility.yul\":2350:2351   */\n      0x00\n        /* \"#utility.yul\":2339:2348   */\n      dup4\n        /* \"#utility.yul\":2335:2352   */\n      add\n        /* \"#utility.yul\":2328:2375   */\n      mstore\n        /* \"#utility.yul\":2392:2523   */\n      tag_64\n        /* \"#utility.yul\":2518:2522   */\n      dup2\n        /* \"#utility.yul\":2392:2523   */\n      tag_38\n      jump\t// in\n    tag_64:\n        /* \"#utility.yul\":2384:2523   */\n      swap1\n      pop\n        /* \"#utility.yul\":2111:2530   */\n      swap2\n      swap1\n      pop\n      jump\t// out\n        /* \"#utility.yul\":2536:2716   */\n    tag_39:\n        /* \"#utility.yul\":2584:2661   */\n      0x4e487b7100000000000000000000000000000000000000000000000000000000\n        /* \"#utility.yul\":2581:2582   */\n      0x00\n        /* \"#utility.yul\":2574:2662   */\n      mstore\n        /* \"#utility.yul\":2681:2685   */\n      0x11\n        /* \"#utility.yul\":2678:2679   */\n      0x04\n        /* \"#utility.yul\":2671:2686   */\n      mstore\n        /* \"#utility.yul\":2705:2709   */\n      0x24\n        /* \"#utility.yul\":2702:2703   */\n      0x00\n        /* \"#utility.yul\":2695:2710   */\n      revert\n        /* \"#utility.yul\":2722:2955   */\n    tag_26:\n        /* \"#utility.yul\":2761:2764   */\n      0x00\n        /* \"#utility.yul\":2784:2808   */\n      tag_67\n        /* \"#utility.yul\":2802:2807   */\n      dup3\n        /* \"#utility.yul\":2784:2808   */\n      tag_29\n      jump\t// in\n    tag_67:\n        /* \"#utility.yul\":2775:2808   */\n      swap2\n      pop\n        /* \"#utility.yul\":2830:2896   */\n      0xffffffffffffffffffffffffffffffffffffffffffffffffffffffffffffffff\n        /* \"#utility.yul\":2823:2828   */\n      dup3\n        /* \"#utility.yul\":2820:2897   */\n      sub\n        /* \"#utility.yul\":2817:2920   */\n      tag_68\n      jumpi\n        /* \"#utility.yul\":2900:2918   */\n      tag_69\n      tag_39\n      jump\t// in\n    tag_69:\n        /* \"#utility.yul\":2817:2920   */\n    tag_68:\n        /* \"#utility.yul\":2947:2948   */\n      0x01\n        /* \"#utility.yul\":2940:2945   */\n      dup3\n        /* \"#utility.yul\":2936:2949   */\n      add\n        /* \"#utility.yul\":2929:2949   */\n      swap1\n      pop\n        /* \"#utility.yul\":2722:2955   */\n      swap2\n      swap1\n      pop\n      jump\t// out\n\n    auxdata: 0xa2646970667358221220c309e00ad29cf7e3d4555217913639ed5390d5051a81dc753004077578b18d8d64736f6c63430008160033\n}\n",
				"bytecode": {
					"linkReferences": {},
					"object": "608060405234801561000f575f80fd5b506040516103d03803806103d08339818101604052810190610031919061007c565b815f819055508060018190555050506100ba565b5f80fd5b5f819050919050565b61005b81610049565b8114610065575f80fd5b50565b5f8151905061007681610052565b92915050565b5f806040838503121561009257610091610045565b5b5f61009f85828601610068565b92505060206100b085828601610068565b9150509250929050565b610309806100c75f395ff3fe608060405234801561000f575f80fd5b506004361061004a575f3560e01c8063209652551461004e57806342cde4e81461006c578063d09de08a1461008a578063e077f65614610094575b5f80fd5b6100566100b0565b6040516100639190610175565b60405180910390f35b6100746100b8565b6040516100819190610175565b60405180910390f35b6100926100be565b005b6100ae60048036038101906100a991906101bc565b610153565b005b5f8054905090565b60015481565b6001545f5410610103576040517f08c379a00000000000000000000000000000000000000000000000000000000081526004016100fa90610241565b60405180910390fd5b5f808154809291906101149061028c565b91905055507fc8a7fc4cfa989096cf36e066e6c623624d76311b81dfc4cb4729dcaa383512de5f546040516101499190610175565b60405180910390a1565b8060018190555050565b5f819050919050565b61016f8161015d565b82525050565b5f6020820190506101885f830184610166565b92915050565b5f80fd5b61019b8161015d565b81146101a5575f80fd5b50565b5f813590506101b681610192565b92915050565b5f602082840312156101d1576101d061018e565b5b5f6101de848285016101a8565b91505092915050565b5f82825260208201905092915050565b7f56616c756520686173207265616368656420746865207468726573686f6c64005f82015250565b5f61022b601f836101e7565b9150610236826101f7565b602082019050919050565b5f6020820190508181035f8301526102588161021f565b9050919050565b7f4e487b71000000000000000000000000000000000000000000000000000000005f52601160045260245ffd5b5f6102968261015d565b91507fffffffffffffffffffffffffffffffffffffffffffffffffffffffffffffffff82036102c8576102c761025f565b5b60018201905091905056fea2646970667358221220c309e00ad29cf7e3d4555217913639ed5390d5051a81dc753004077578b18d8d64736f6c63430008160033",
					"opcodes": "PUSH1 0x80 PUSH1 0x40 MSTORE CALLVALUE DUP1 ISZERO PUSH2 0xF JUMPI PUSH0 DUP1 REVERT JUMPDEST POP PUSH1 0x40 MLOAD PUSH2 0x3D0 CODESIZE SUB DUP1 PUSH2 0x3D0 DUP4 CODECOPY DUP2 DUP2 ADD PUSH1 0x40 MSTORE DUP2 ADD SWAP1 PUSH2 0x31 SWAP2 SWAP1 PUSH2 0x7C JUMP JUMPDEST DUP2 PUSH0 DUP2 SWAP1 SSTORE POP DUP1 PUSH1 0x1 DUP2 SWAP1 SSTORE POP POP POP PUSH2 0xBA JUMP JUMPDEST PUSH0 DUP1 REVERT JUMPDEST PUSH0 DUP2 SWAP1 POP SWAP2 SWAP1 POP JUMP JUMPDEST PUSH2 0x5B DUP2 PUSH2 0x49 JUMP JUMPDEST DUP2 EQ PUSH2 0x65 JUMPI PUSH0 DUP1 REVERT JUMPDEST POP JUMP JUMPDEST PUSH0 DUP2 MLOAD SWAP1 POP PUSH2 0x76 DUP2 PUSH2 0x52 JUMP JUMPDEST SWAP3 SWAP2 POP POP JUMP JUMPDEST PUSH0 DUP1 PUSH1 0x40 DUP4 DUP6 SUB SLT ISZERO PUSH2 0x92 JUMPI PUSH2 0x91 PUSH2 0x45 JUMP JUMPDEST JUMPDEST PUSH0 PUSH2 0x9F DUP6 DUP3 DUP7 ADD PUSH2 0x68 JUMP JUMPDEST SWAP3 POP POP PUSH1 0x20 PUSH2 0xB0 DUP6 DUP3 DUP7 ADD PUSH2 0x68 JUMP JUMPDEST SWAP2 POP POP SWAP3 POP SWAP3 SWAP1 POP JUMP JUMPDEST PUSH2 0x309 DUP1 PUSH2 0xC7 PUSH0 CODECOPY PUSH0 RETURN INVALID PUSH1 0x80 PUSH1 0x40 MSTORE CALLVALUE DUP1 ISZERO PUSH2 0xF JUMPI PUSH0 DUP1 REVERT JUMPDEST POP PUSH1 0x4 CALLDATASIZE LT PUSH2 0x4A JUMPI PUSH0 CALLDATALOAD PUSH1 0xE0 SHR DUP1 PUSH4 0x20965255 EQ PUSH2 0x4E JUMPI DUP1 PUSH4 0x42CDE4E8 EQ PUSH2 0x6C JUMPI DUP1 PUSH4 0xD09DE08A EQ PUSH2 0x8A JUMPI DUP1 PUSH4 0xE077F656 EQ PUSH2 0x94 JUMPI JUMPDEST PUSH0 DUP1 REVERT JUMPDEST PUSH2 0x56 PUSH2 0xB0 JUMP JUMPDEST PUSH1 0x40 MLOAD PUSH2 0x63 SWAP2 SWAP1 PUSH2 0x175 JUMP JUMPDEST PUSH1 0x40 MLOAD DUP1 SWAP2 SUB SWAP1 RETURN JUMPDEST PUSH2 0x74 PUSH2 0xB8 JUMP JUMPDEST PUSH1 0x40 MLOAD PUSH2 0x81 SWAP2 SWAP1 PUSH2 0x175 JUMP JUMPDEST PUSH1 0x40 MLOAD DUP1 SWAP2 SUB SWAP1 RETURN JUMPDEST PUSH2 0x92 PUSH2 0xBE JUMP JUMPDEST STOP JUMPDEST PUSH2 0xAE PUSH1 0x4 DUP1 CALLDATASIZE SUB DUP2 ADD SWAP1 PUSH2 0xA9 SWAP2 SWAP1 PUSH2 0x1BC JUMP JUMPDEST PUSH2 0x153 JUMP JUMPDEST STOP JUMPDEST PUSH0 DUP1 SLOAD SWAP1 POP SWAP1 JUMP JUMPDEST PUSH1 0x1 SLOAD DUP2 JUMP JUMPDEST PUSH1 0x1 SLOAD PUSH0 SLOAD LT PUSH2 0x103 JUMPI PUSH1 0x40 MLOAD PUSH32 0x8C379A000000000000000000000000000000000000000000000000000000000 DUP2 MSTORE PUSH1 0x4 ADD PUSH2 0xFA SWAP1 PUSH2 0x241 JUMP JUMPDEST PUSH1 0x40 MLOAD DUP1 SWAP2 SUB SWAP1 REVERT JUMPDEST PUSH0 DUP1 DUP2 SLOAD DUP1 SWAP3 SWAP2 SWAP1 PUSH2 0x114 SWAP1 PUSH2 0x28C JUMP JUMPDEST SWAP2 SWAP1 POP SSTORE POP PUSH32 0xC8A7FC4CFA989096CF36E066E6C623624D76311B81DFC4CB4729DCAA383512DE PUSH0 SLOAD PUSH1 0x40 MLOAD PUSH2 0x149 SWAP2 SWAP1 PUSH2 0x175 JUMP JUMPDEST PUSH1 0x40 MLOAD DUP1 SWAP2 SUB SWAP1 LOG1 JUMP JUMPDEST DUP1 PUSH1 0x1 DUP2 SWAP1 SSTORE POP POP JUMP JUMPDEST PUSH0 DUP2 SWAP1 POP SWAP2 SWAP1 POP JUMP JUMPDEST PUSH2 0x16F DUP2 PUSH2 0x15D JUMP JUMPDEST DUP3 MSTORE POP POP JUMP JUMPDEST PUSH0 PUSH1 0x20 DUP3 ADD SWAP1 POP PUSH2 0x188 PUSH0 DUP4 ADD DUP5 PUSH2 0x166 JUMP JUMPDEST SWAP3 SWAP2 POP POP JUMP JUMPDEST PUSH0 DUP1 REVERT JUMPDEST PUSH2 0x19B DUP2 PUSH2 0x15D JUMP JUMPDEST DUP2 EQ PUSH2 0x1A5 JUMPI PUSH0 DUP1 REVERT JUMPDEST POP JUMP JUMPDEST PUSH0 DUP2 CALLDATALOAD SWAP1 POP PUSH2 0x1B6 DUP2 PUSH2 0x192 JUMP JUMPDEST SWAP3 SWAP2 POP POP JUMP JUMPDEST PUSH0 PUSH1 0x20 DUP3 DUP5 SUB SLT ISZERO PUSH2 0x1D1 JUMPI PUSH2 0x1D0 PUSH2 0x18E JUMP JUMPDEST JUMPDEST PUSH0 PUSH2 0x1DE DUP5 DUP3 DUP6 ADD PUSH2 0x1A8 JUMP JUMPDEST SWAP2 POP POP SWAP3 SWAP2 POP POP JUMP JUMPDEST PUSH0 DUP3 DUP3 MSTORE PUSH1 0x20 DUP3 ADD SWAP1 POP SWAP3 SWAP2 POP POP JUMP JUMPDEST PUSH32 0x56616C756520686173207265616368656420746865207468726573686F6C6400 PUSH0 DUP3 ADD MSTORE POP JUMP JUMPDEST PUSH0 PUSH2 0x22B PUSH1 0x1F DUP4 PUSH2 0x1E7 JUMP JUMPDEST SWAP2 POP PUSH2 0x236 DUP3 PUSH2 0x1F7 JUMP JUMPDEST PUSH1 0x20 DUP3 ADD SWAP1 POP SWAP2 SWAP1 POP JUMP JUMPDEST PUSH0 PUSH1 0x20 DUP3 ADD SWAP1 POP DUP2 DUP2 SUB PUSH0 DUP4 ADD MSTORE PUSH2 0x258 DUP2 PUSH2 0x21F JUMP JUMPDEST SWAP1 POP SWAP2 SWAP1 POP JUMP JUMPDEST PUSH32 0x4E487B7100000000000000000000000000000000000000000000000000000000 PUSH0 MSTORE PUSH1 0x11 PUSH1 0x4 MSTORE PUSH1 0x24 PUSH0 REVERT JUMPDEST PUSH0 PUSH2 0x296 DUP3 PUSH2 0x15D JUMP JUMPDEST SWAP2 POP PUSH32 0xFFFFFFFFFFFFFFFFFFFFFFFFFFFFFFFFFFFFFFFFFFFFFFFFFFFFFFFFFFFFFFFF DUP3 SUB PUSH2 0x2C8 JUMPI PUSH2 0x2C7 PUSH2 0x25F JUMP JUMPDEST JUMPDEST PUSH1 0x1 DUP3 ADD SWAP1 POP SWAP2 SWAP1 POP JUMP INVALID LOG2 PUSH5 0x6970667358 0x22 SLT KECCAK256 0xC3 MULMOD 0xE0 EXP 0xD2 SWAP13 0xF7 0xE3 0xD4 SSTORE MSTORE OR SWAP2 CALLDATASIZE CODECOPY 0xED MSTORE8 SWAP1 0xD5 SDIV BYTE DUP2 0xDC PUSH22 0x3004077578B18D8D64736F6C63430008160033000000 "
				},
				"gasEstimates": {
					"creation": {
						"codeDepositCost": "155400",
						"executionCost": "infinite",
						"totalCost": "infinite"
					},
					"external": {
						"getValue()": "2410",
						"increment()": "infinite",
						"setNewThreshold(uint256)": "22559",
						"threshold()": "2425"
					}
				},
				"methodIdentifiers": {
					"getValue()": "20965255",
					"increment()": "d09de08a",
					"setNewThreshold(uint256)": "e077f656",
					"threshold()": "42cde4e8"
				}
			},
			"storageLayout": {
				"storage": [
					{
						"astId": 3,
						"contract": "IncrementWithThreshold.sol:IncrementWithThreshold",
						"label": "value",
						"offset": 0,
						"slot": "0",
						"type": "t_uint256"
					},
					{
						"astId": 5,
						"contract": "IncrementWithThreshold.sol:IncrementWithThreshold",
						"label": "threshold",
						"offset": 0,
						"slot": "1",
						"type": "t_uint256"
					}
				],
				"types": {
					"t_uint256": {
						"encoding": "inplace",
						"label": "uint256",
						"numberOfBytes": "32"
					}
				}
			},
			"userdoc": {
				"kind": "user",
				"methods": {},
				"version": 1
			}
		}
	}
}