{
  "_format": "hh-sol-artifact-1",
  "contractName": "UserOwnable",
  "sourceName": "contracts/practice-module-1/LessonOpenZeppelin.sol",
  "abi": [
    {
      "inputs": [],
      "stateMutability": "nonpayable",
      "type": "constructor"
    },
    {
      "inputs": [
        {
          "internalType": "address",
          "name": "owner",
          "type": "address"
        }
      ],
      "name": "OwnableInvalidOwner",
      "type": "error"
    },
    {
      "inputs": [
        {
          "internalType": "address",
          "name": "account",
          "type": "address"
        }
      ],
      "name": "OwnableUnauthorizedAccount",
      "type": "error"
    },
    {
      "anonymous": false,
      "inputs": [
        {
          "indexed": true,
          "internalType": "address",
          "name": "previousOwner",
          "type": "address"
        },
        {
          "indexed": true,
          "internalType": "address",
          "name": "newOwner",
          "type": "address"
        }
      ],
      "name": "OwnershipTransferred",
      "type": "event"
    },
    {
      "inputs": [
        {
          "internalType": "address",
          "name": "_user",
          "type": "address"
        }
      ],
      "name": "deleteUser",
      "outputs": [],
      "stateMutability": "nonpayable",
      "type": "function"
    },
    {
      "inputs": [
        {
          "internalType": "address",
          "name": "_user",
          "type": "address"
        }
      ],
      "name": "getUser",
      "outputs": [
        {
          "internalType": "string",
          "name": "",
          "type": "string"
        },
        {
          "internalType": "uint256",
          "name": "",
          "type": "uint256"
        }
      ],
      "stateMutability": "view",
      "type": "function"
    },
    {
      "inputs": [],
      "name": "owner",
      "outputs": [
        {
          "internalType": "address",
          "name": "",
          "type": "address"
        }
      ],
      "stateMutability": "view",
      "type": "function"
    },
    {
      "inputs": [],
      "name": "renounceOwnership",
      "outputs": [],
      "stateMutability": "nonpayable",
      "type": "function"
    },
    {
      "inputs": [
        {
          "internalType": "string",
          "name": "_name",
          "type": "string"
        },
        {
          "internalType": "uint256",
          "name": "_age",
          "type": "uint256"
        }
      ],
      "name": "setUser",
      "outputs": [],
      "stateMutability": "nonpayable",
      "type": "function"
    },
    {
      "inputs": [
        {
          "internalType": "address",
          "name": "newOwner",
          "type": "address"
        }
      ],
      "name": "transferOwnership",
      "outputs": [],
      "stateMutability": "nonpayable",
      "type": "function"
    }
  ],
  "bytecode": "0x6080604052348015600e575f80fd5b503380603357604051631e4fbdf760e01b81525f600482015260240160405180910390fd5b603a81603f565b50608e565b5f80546001600160a01b038381166001600160a01b0319831681178455604051919092169283917f8be0079c531659141344cd1fd0a4f28419497f9722a3daafe3b4186f6b6457e09190a35050565b6106f58061009b5f395ff3fe608060405234801561000f575f80fd5b506004361061006f575f3560e01c80638da5cb5b1161004d5780638da5cb5b146100ba578063d3bddc2b146100e1578063f2fde38b146100f4575f80fd5b80635c60f226146100735780636f77926b14610088578063715018a6146100b2575b5f80fd5b61008661008136600461040e565b610107565b005b61009b61009636600461040e565b61014a565b6040516100a9929190610448565b60405180910390f35b610086610241565b5f5460405173ffffffffffffffffffffffffffffffffffffffff90911681526020016100a9565b6100866100ef3660046104b1565b610254565b61008661010236600461040e565b610296565b61010f6102fe565b73ffffffffffffffffffffffffffffffffffffffff81165f9081526001602052604081209061013e82826103c4565b600182015f9055505050565b60605f8060015f8573ffffffffffffffffffffffffffffffffffffffff1673ffffffffffffffffffffffffffffffffffffffff1681526020019081526020015f206040518060400160405290815f820180546101a590610567565b80601f01602080910402602001604051908101604052809291908181526020018280546101d190610567565b801561021c5780601f106101f35761010080835404028352916020019161021c565b820191905f5260205f20905b8154815290600101906020018083116101ff57829003601f168201915b5050509183525050600191909101546020918201528151910151909590945092505050565b6102496102fe565b6102525f610350565b565b6040805180820182528381526020808201849052335f908152600190915291909120815181906102849082610604565b50602082015181600101559050505050565b61029e6102fe565b73ffffffffffffffffffffffffffffffffffffffff81166102f2576040517f1e4fbdf70000000000000000000000000000000000000000000000000000000081525f60048201526024015b60405180910390fd5b6102fb81610350565b50565b5f5473ffffffffffffffffffffffffffffffffffffffff163314610252576040517f118cdaa70000000000000000000000000000000000000000000000000000000081523360048201526024016102e9565b5f805473ffffffffffffffffffffffffffffffffffffffff8381167fffffffffffffffffffffffff0000000000000000000000000000000000000000831681178455604051919092169283917f8be0079c531659141344cd1fd0a4f28419497f9722a3daafe3b4186f6b6457e09190a35050565b5080546103d090610567565b5f825580601f106103df575050565b601f0160209004905f5260205f20908101906102fb91905b8082111561040a575f81556001016103f7565b5090565b5f6020828403121561041e575f80fd5b813573ffffffffffffffffffffffffffffffffffffffff81168114610441575f80fd5b9392505050565b604081525f83518060408401528060208601606085015e5f606082850101526060601f19601f8301168401019150508260208301529392505050565b7f4e487b71000000000000000000000000000000000000000000000000000000005f52604160045260245ffd5b5f80604083850312156104c2575f80fd5b823567ffffffffffffffff8111156104d8575f80fd5b8301601f810185136104e8575f80fd5b803567ffffffffffffffff81111561050257610502610484565b604051601f19603f601f19601f8501160116810181811067ffffffffffffffff8211171561053257610532610484565b604052818152828201602001871015610549575f80fd5b816020840160208301375f6020928201830152969401359450505050565b600181811c9082168061057b57607f821691505b6020821081036105b2577f4e487b71000000000000000000000000000000000000000000000000000000005f52602260045260245ffd5b50919050565b601f8211156105ff57805f5260205f20601f840160051c810160208510156105dd5750805b601f840160051c820191505b818110156105fc575f81556001016105e9565b50505b505050565b815167ffffffffffffffff81111561061e5761061e610484565b6106328161062c8454610567565b846105b8565b6020601f821160018114610664575f831561064d5750848201515b5f19600385901b1c1916600184901b1784556105fc565b5f84815260208120601f198516915b828110156106935787850151825560209485019460019092019101610673565b50848210156106b057868401515f19600387901b60f8161c191681555b50505050600190811b0190555056fea26469706673582212204c36240c14946fdbd496a506d77dbb8d66d0e4452211cfed143f47c3850bf22664736f6c634300081a0033",
  "linkReferences": {},
  "deployedLinkReferences": {}
}