{
  "_format": "hh-sol-artifact-1",
  "contractName": "LessonUint",
  "sourceName": "contracts/PracticeModule1/LessonUint.sol",
  "abi": [
    {
      "inputs": [],
      "name": "cast",
      "outputs": [
        {
          "internalType": "uint112",
          "name": "",
          "type": "uint112"
        }
      ],
      "stateMutability": "view",
      "type": "function"
    },
    {
      "inputs": [],
      "name": "dec",
      "outputs": [
        {
          "internalType": "uint256",
          "name": "",
          "type": "uint256"
        }
      ],
      "stateMutability": "nonpayable",
      "type": "function"
    },
    {
      "inputs": [],
      "name": "firstBool",
      "outputs": [
        {
          "internalType": "bool",
          "name": "",
          "type": "bool"
        }
      ],
      "stateMutability": "view",
      "type": "function"
    },
    {
      "inputs": [],
      "name": "inc",
      "outputs": [
        {
          "internalType": "uint256",
          "name": "",
          "type": "uint256"
        }
      ],
      "stateMutability": "view",
      "type": "function"
    },
    {
      "inputs": [],
      "name": "maxVal",
      "outputs": [
        {
          "internalType": "uint8",
          "name": "",
          "type": "uint8"
        }
      ],
      "stateMutability": "view",
      "type": "function"
    },
    {
      "inputs": [],
      "name": "myEther",
      "outputs": [
        {
          "internalType": "uint256",
          "name": "",
          "type": "uint256"
        }
      ],
      "stateMutability": "view",
      "type": "function"
    },
    {
      "inputs": [],
      "name": "myNum",
      "outputs": [
        {
          "internalType": "uint256",
          "name": "",
          "type": "uint256"
        }
      ],
      "stateMutability": "view",
      "type": "function"
    },
    {
      "inputs": [],
      "name": "notOverFlow",
      "outputs": [
        {
          "internalType": "uint256",
          "name": "",
          "type": "uint256"
        }
      ],
      "stateMutability": "nonpayable",
      "type": "function"
    },
    {
      "inputs": [],
      "name": "overFlow",
      "outputs": [
        {
          "internalType": "uint256",
          "name": "",
          "type": "uint256"
        }
      ],
      "stateMutability": "nonpayable",
      "type": "function"
    }
  ],
  "bytecode": "0x60806040526000805461ff00191661ff0017905568056bc75e2d6310000060025534801561002c57600080fd5b506103048061003c6000396000f3fe608060405234801561001057600080fd5b50600436106100a35760003560e01c806396d373e511610076578063c1ab44431161005b578063c1ab444314610115578063d4da005a1461015b578063d62a12091461016457600080fd5b806396d373e5146100f1578063b3bcfa821461010d57600080fd5b8063169b32c3146100a8578063371303c0146100ca578063836dea0b146100e057806388fc1738146100e9575b600080fd5b6000546100b59060ff1681565b60405190151581526020015b60405180910390f35b6100d2610188565b6040519081526020016100c1565b6100d260025481565b6100d26101aa565b60025460405167ffffffffffffffff90911681526020016100c1565b6100d26101e2565b600080547fffffffffffffffffffffffffffffffffffffffffffffffffffffffffffff00ff811660016101009283900460ff9081169190910116918202179091556100d2565b6100d260015481565b60005461017690610100900460ff1681565b60405160ff90911681526020016100c1565b60015460009061019a9060209061024a565b6101a590600a610263565b905090565b600080546101c190610100900460ff16600161027a565b600060016101000a81548160ff021916908360ff160217905560ff16905090565b6000805481906001906101fc90610100900460ff16610293565b91906101000a81548160ff021916908360ff160217905560ff16905090565b7f4e487b7100000000000000000000000000000000000000000000000000000000600052601160045260246000fd5b8082018082111561025d5761025d61021b565b92915050565b808202811582820484141761025d5761025d61021b565b60ff818116838216019081111561025d5761025d61021b565b600060ff8216806102a6576102a661021b565b7fffffffffffffffffffffffffffffffffffffffffffffffffffffffffffffffff019291505056fea26469706673582212208e17b8b70526249776e2de31e8123e8b0f90d4bb2ac4f40b776d73c52a36172764736f6c63430008140033",
  "linkReferences": {},
  "deployedLinkReferences": {}
}