{
  "_format": "hh-sol-artifact-1",
  "contractName": "KeyExistence",
  "sourceName": "contracts/PracticeJunior/KeyExistence.sol",
  "abi": [
    {
      "inputs": [
        {
          "internalType": "address",
          "name": "_address",
          "type": "address"
        },
        {
          "internalType": "uint256",
          "name": "_balance",
          "type": "uint256"
        }
      ],
      "name": "addBalance",
      "outputs": [],
      "stateMutability": "nonpayable",
      "type": "function"
    },
    {
      "inputs": [
        {
          "internalType": "address",
          "name": "",
          "type": "address"
        }
      ],
      "name": "balances",
      "outputs": [
        {
          "internalType": "uint256",
          "name": "",
          "type": "uint256"
        }
      ],
      "stateMutability": "view",
      "type": "function"
    },
    {
      "inputs": [
        {
          "internalType": "address",
          "name": "_address",
          "type": "address"
        }
      ],
      "name": "exists",
      "outputs": [
        {
          "internalType": "bool",
          "name": "",
          "type": "bool"
        }
      ],
      "stateMutability": "view",
      "type": "function"
    },
    {
      "inputs": [
        {
          "internalType": "address",
          "name": "",
          "type": "address"
        }
      ],
      "name": "keyExists",
      "outputs": [
        {
          "internalType": "bool",
          "name": "",
          "type": "bool"
        }
      ],
      "stateMutability": "view",
      "type": "function"
    }
  ],
  "bytecode": "0x608060405234801561001057600080fd5b5061020a806100206000396000f3fe608060405234801561001057600080fd5b506004361061004c5760003560e01c806321e5383a1461005157806327e235e3146100c0578063cd413329146100f3578063f6a3d24e14610126575b600080fd5b6100be61005f366004610188565b73ffffffffffffffffffffffffffffffffffffffff9091166000908152602081815260408083209390935560019081905291902080547fffffffffffffffffffffffffffffffffffffffffffffffffffffffffffffff00169091179055565b005b6100e06100ce3660046101b2565b60006020819052908152604090205481565b6040519081526020015b60405180910390f35b6101166101013660046101b2565b60016020526000908152604090205460ff1681565b60405190151581526020016100ea565b6101166101343660046101b2565b73ffffffffffffffffffffffffffffffffffffffff1660009081526001602052604090205460ff1690565b803573ffffffffffffffffffffffffffffffffffffffff8116811461018357600080fd5b919050565b6000806040838503121561019b57600080fd5b6101a48361015f565b946020939093013593505050565b6000602082840312156101c457600080fd5b6101cd8261015f565b939250505056fea264697066735822122070effc3b0e0454926c6e96053265dd9bcf0cc2f2e77375eabc0a89269c8b8faf64736f6c63430008140033",
  "linkReferences": {},
  "deployedLinkReferences": {}
}