{
  "_format": "hh-sol-artifact-1",
  "contractName": "SharedWallet",
  "sourceName": "contracts/PracticeGuideDAO/SharedWallet.sol",
  "abi": [
    {
      "inputs": [
        {
          "internalType": "address",
          "name": "_owner",
          "type": "address"
        }
      ],
      "stateMutability": "nonpayable",
      "type": "constructor"
    },
    {
      "inputs": [
        {
          "internalType": "address",
          "name": "owner",
          "type": "address"
        }
      ],
      "name": "OwnableInvalidOwner",
      "type": "error"
    },
    {
      "inputs": [
        {
          "internalType": "address",
          "name": "account",
          "type": "address"
        }
      ],
      "name": "OwnableUnauthorizedAccount",
      "type": "error"
    },
    {
      "anonymous": false,
      "inputs": [
        {
          "indexed": true,
          "internalType": "address",
          "name": "member",
          "type": "address"
        }
      ],
      "name": "AdminAdded",
      "type": "event"
    },
    {
      "anonymous": false,
      "inputs": [
        {
          "indexed": true,
          "internalType": "address",
          "name": "member",
          "type": "address"
        }
      ],
      "name": "AdminRevoked",
      "type": "event"
    },
    {
      "anonymous": false,
      "inputs": [
        {
          "indexed": true,
          "internalType": "address",
          "name": "member",
          "type": "address"
        },
        {
          "indexed": false,
          "internalType": "uint256",
          "name": "oldLimit",
          "type": "uint256"
        },
        {
          "indexed": false,
          "internalType": "uint256",
          "name": "newLimit",
          "type": "uint256"
        }
      ],
      "name": "LimitChanged",
      "type": "event"
    },
    {
      "anonymous": false,
      "inputs": [
        {
          "indexed": true,
          "internalType": "address",
          "name": "previousOwner",
          "type": "address"
        },
        {
          "indexed": true,
          "internalType": "address",
          "name": "newOwner",
          "type": "address"
        }
      ],
      "name": "OwnershipTransferred",
      "type": "event"
    },
    {
      "inputs": [
        {
          "internalType": "address",
          "name": "memberAddress",
          "type": "address"
        },
        {
          "internalType": "string",
          "name": "name",
          "type": "string"
        },
        {
          "internalType": "uint256",
          "name": "limit",
          "type": "uint256"
        },
        {
          "internalType": "bool",
          "name": "isAdmin",
          "type": "bool"
        }
      ],
      "name": "addMember",
      "outputs": [],
      "stateMutability": "nonpayable",
      "type": "function"
    },
    {
      "inputs": [
        {
          "internalType": "address",
          "name": "memberAddress",
          "type": "address"
        }
      ],
      "name": "makeAdmin",
      "outputs": [],
      "stateMutability": "nonpayable",
      "type": "function"
    },
    {
      "inputs": [
        {
          "internalType": "address",
          "name": "",
          "type": "address"
        }
      ],
      "name": "members",
      "outputs": [
        {
          "internalType": "string",
          "name": "name",
          "type": "string"
        },
        {
          "internalType": "uint256",
          "name": "limit",
          "type": "uint256"
        },
        {
          "internalType": "bool",
          "name": "is_admin",
          "type": "bool"
        }
      ],
      "stateMutability": "view",
      "type": "function"
    },
    {
      "inputs": [],
      "name": "owner",
      "outputs": [
        {
          "internalType": "address",
          "name": "",
          "type": "address"
        }
      ],
      "stateMutability": "view",
      "type": "function"
    },
    {
      "inputs": [],
      "name": "renounceOwnership",
      "outputs": [],
      "stateMutability": "view",
      "type": "function"
    },
    {
      "inputs": [
        {
          "internalType": "address",
          "name": "memberAddress",
          "type": "address"
        }
      ],
      "name": "revokeAdmin",
      "outputs": [],
      "stateMutability": "nonpayable",
      "type": "function"
    },
    {
      "inputs": [
        {
          "internalType": "address",
          "name": "memberAddress",
          "type": "address"
        },
        {
          "internalType": "uint256",
          "name": "limit",
          "type": "uint256"
        }
      ],
      "name": "setLimit",
      "outputs": [],
      "stateMutability": "nonpayable",
      "type": "function"
    },
    {
      "inputs": [
        {
          "internalType": "address",
          "name": "newOwner",
          "type": "address"
        }
      ],
      "name": "transferOwnership",
      "outputs": [],
      "stateMutability": "nonpayable",
      "type": "function"
    }
  ],
  "bytecode": "0x60806040523480156200001157600080fd5b5060405162000ba738038062000ba783398101604081905262000034916200013a565b806001600160a01b0381166200006457604051631e4fbdf760e01b81526000600482015260240160405180910390fd5b6200006f81620000ea565b506040805160a0810182526005606082019081526427bbb732b960d91b6080830152815260006020808301829052600183850181905233835290529190912081518190620000be908262000211565b50602082015160018201556040909101516002909101805460ff191691151591909117905550620002dd565b600080546001600160a01b038381166001600160a01b0319831681178455604051919092169283917f8be0079c531659141344cd1fd0a4f28419497f9722a3daafe3b4186f6b6457e09190a35050565b6000602082840312156200014d57600080fd5b81516001600160a01b03811681146200016557600080fd5b9392505050565b634e487b7160e01b600052604160045260246000fd5b600181811c908216806200019757607f821691505b602082108103620001b857634e487b7160e01b600052602260045260246000fd5b50919050565b601f8211156200020c57600081815260208120601f850160051c81016020861015620001e75750805b601f850160051c820191505b818110156200020857828155600101620001f3565b5050505b505050565b81516001600160401b038111156200022d576200022d6200016c565b62000245816200023e845462000182565b84620001be565b602080601f8311600181146200027d5760008415620002645750858301515b600019600386901b1c1916600185901b17855562000208565b600085815260208120601f198616915b82811015620002ae578886015182559484019460019091019084016200028d565b5085821015620002cd5787850151600019600388901b60f8161c191681555b5050505050600190811b01905550565b6108ba80620002ed6000396000f3fe608060405234801561001057600080fd5b50600436106100885760003560e01c8063472905ca1161005b578063472905ca146100f3578063715018a6146101065780638da5cb5b1461010e578063f2fde38b1461012957600080fd5b806308ae4b0c1461008d578063123b883e146100b85780632d345670146100cd57806336db43b5146100e0575b600080fd5b6100a061009b36600461055d565b61013c565b6040516100af9392919061057f565b60405180910390f35b6100cb6100c636600461061c565b6101ea565b005b6100cb6100db36600461055d565b6102b3565b6100cb6100ee3660046106f8565b610307565b6100cb61010136600461055d565b610371565b6100cb6103cb565b6000546040516001600160a01b0390911681526020016100af565b6100cb61013736600461055d565b61043a565b60016020526000908152604090208054819061015790610722565b80601f016020809104026020016040519081016040528092919081815260200182805461018390610722565b80156101d05780601f106101a5576101008083540402835291602001916101d0565b820191906000526020600020905b8154815290600101906020018083116101b357829003601f168201915b50505050600183015460029093015491929160ff16905083565b6101f2610491565b6001600160a01b03841660008181526001602081815260408084208084015482516060810184528a81528085018a905288151593810193909352959094529190528051909190819061024490826107c4565b5060208281015160018301556040928301516002909201805460ff19169215159290921790915581518381529081018590526001600160a01b038716917fa6d91b9da806ef5c961905320a650cef8e6caf5eaef0bc5441b85c0b5d662910910160405180910390a25050505050565b6102bb610491565b6001600160a01b038116600081815260016020526040808220600201805460ff19169055517f631ff1c4e1a02c54b480a34b810e03bcee61fe38efcb243930a7f820914923e29190a250565b61030f610491565b6001600160a01b038216600081815260016020818152604092839020909101805490859055825181815291820185905292917fa6d91b9da806ef5c961905320a650cef8e6caf5eaef0bc5441b85c0b5d662910910160405180910390a2505050565b610379610491565b6001600160a01b0381166000818152600160208190526040808320600201805460ff1916909217909155517f44d6d25963f097ad14f29f06854a01f575648a1ef82f30e562ccd3889717e3399190a250565b6103d3610491565b6040517f08c379a000000000000000000000000000000000000000000000000000000000815260206004820152600f60248201527f43616e27742072656e6f756e636521000000000000000000000000000000000060448201526064015b60405180910390fd5b610442610491565b6001600160a01b038116610485576040517f1e4fbdf700000000000000000000000000000000000000000000000000000000815260006004820152602401610431565b61048e816104d9565b50565b6000546001600160a01b031633146104d7576040517f118cdaa7000000000000000000000000000000000000000000000000000000008152336004820152602401610431565b565b600080546001600160a01b038381167fffffffffffffffffffffffff0000000000000000000000000000000000000000831681178455604051919092169283917f8be0079c531659141344cd1fd0a4f28419497f9722a3daafe3b4186f6b6457e09190a35050565b80356001600160a01b038116811461055857600080fd5b919050565b60006020828403121561056f57600080fd5b61057882610541565b9392505050565b606081526000845180606084015260005b818110156105ad5760208188018101516080868401015201610590565b506000608082850101526080601f19601f8301168401019150508360208301528215156040830152949350505050565b7f4e487b7100000000000000000000000000000000000000000000000000000000600052604160045260246000fd5b8035801515811461055857600080fd5b6000806000806080858703121561063257600080fd5b61063b85610541565b9350602085013567ffffffffffffffff8082111561065857600080fd5b818701915087601f83011261066c57600080fd5b81358181111561067e5761067e6105dd565b604051601f8201601f19908116603f011681019083821181831017156106a6576106a66105dd565b816040528281528a60208487010111156106bf57600080fd5b826020860160208301376000602084830101528097505050505050604085013591506106ed6060860161060c565b905092959194509250565b6000806040838503121561070b57600080fd5b61071483610541565b946020939093013593505050565b600181811c9082168061073657607f821691505b60208210810361076f577f4e487b7100000000000000000000000000000000000000000000000000000000600052602260045260246000fd5b50919050565b601f8211156107bf57600081815260208120601f850160051c8101602086101561079c5750805b601f850160051c820191505b818110156107bb578281556001016107a8565b5050505b505050565b815167ffffffffffffffff8111156107de576107de6105dd565b6107f2816107ec8454610722565b84610775565b602080601f831160018114610827576000841561080f5750858301515b600019600386901b1c1916600185901b1785556107bb565b600085815260208120601f198616915b8281101561085657888601518255948401946001909101908401610837565b50858210156108745787850151600019600388901b60f8161c191681555b5050505050600190811b0190555056fea2646970667358221220f773dcc5bd6e6908ed1e4f638604e71e0f5773dd9afa644ca7a04f82fb8ba34a64736f6c63430008140033",
  "linkReferences": {},
  "deployedLinkReferences": {}
}