{
  "_format": "hh-sol-artifact-1",
  "contractName": "Mapping",
  "sourceName": "contracts/practice-module-1/LessonMapping.sol",
  "abi": [
    {
      "inputs": [
        {
          "internalType": "address",
          "name": "_addr",
          "type": "address"
        }
      ],
      "name": "get",
      "outputs": [
        {
          "internalType": "uint256",
          "name": "",
          "type": "uint256"
        }
      ],
      "stateMutability": "view",
      "type": "function"
    },
    {
      "inputs": [
        {
          "internalType": "address",
          "name": "",
          "type": "address"
        }
      ],
      "name": "myMap",
      "outputs": [
        {
          "internalType": "uint256",
          "name": "",
          "type": "uint256"
        }
      ],
      "stateMutability": "view",
      "type": "function"
    },
    {
      "inputs": [
        {
          "internalType": "address",
          "name": "_addr",
          "type": "address"
        }
      ],
      "name": "remove",
      "outputs": [],
      "stateMutability": "nonpayable",
      "type": "function"
    },
    {
      "inputs": [
        {
          "internalType": "address",
          "name": "_addr",
          "type": "address"
        },
        {
          "internalType": "uint256",
          "name": "_i",
          "type": "uint256"
        }
      ],
      "name": "set",
      "outputs": [],
      "stateMutability": "nonpayable",
      "type": "function"
    }
  ],
  "bytecode": "0x6080604052348015600e575f80fd5b506101c68061001c5f395ff3fe608060405234801561000f575f80fd5b506004361061004a575f3560e01c806327cbd5291461004e57806329092d0e1461007f5780633825d828146100b5578063c2bc2efc146100eb575b5f80fd5b61006d61005c366004610148565b5f6020819052908152604090205481565b60405190815260200160405180910390f35b6100b361008d366004610148565b73ffffffffffffffffffffffffffffffffffffffff165f90815260208190526040812055565b005b6100b36100c3366004610168565b73ffffffffffffffffffffffffffffffffffffffff9091165f90815260208190526040902055565b61006d6100f9366004610148565b73ffffffffffffffffffffffffffffffffffffffff165f9081526020819052604090205490565b803573ffffffffffffffffffffffffffffffffffffffff81168114610143575f80fd5b919050565b5f60208284031215610158575f80fd5b61016182610120565b9392505050565b5f8060408385031215610179575f80fd5b61018283610120565b94602093909301359350505056fea2646970667358221220212cbb59d2a08a51978297972ffad44b53e3048cbb33c0ccf37c8aa9eaed462164736f6c634300081a0033",
  "linkReferences": {},
  "deployedLinkReferences": {}
}