{
	"data": {
		"bytecode": {
			"linkReferences": {},
			"object": "608060405260015f60016101000a81548160ff02191690831515021790555060015f60036101000a81548160ff0219169083151502179055505f8060046101000a81548160ff02191690831515021790555060015f60056101000a81548160ff021916908315150217905550348015610076575f80fd5b506102e6806100845f395ff3fe608060405234801561000f575f80fd5b506004361061005f575f3560e01c8062d77e8914610063578063169b32c3146100935780632298c16e146100b1578063b8daa950146100cf578063f06ca14f146100ff578063f10a31a11461011d575b5f80fd5b61007d6004803603810190610078919061025d565b61014d565b60405161008a9190610297565b60405180910390f35b61009b610177565b6040516100a89190610297565b60405180910390f35b6100b9610187565b6040516100c69190610297565b60405180910390f35b6100e960048036038101906100e4919061025d565b610199565b6040516100f69190610297565b60405180910390f35b6101076101c5565b6040516101149190610297565b60405180910390f35b6101376004803603810190610132919061025d565b6101fc565b6040516101449190610297565b60405180910390f35b5f8115155f60029054906101000a900460ff1615150361016d575f610170565b60015b9050919050565b5f8054906101000a900460ff1681565b5f60039054906101000a900460ff1681565b5f805f9054906101000a900460ff1680156101b15750815b6101bb575f6101be565b60015b9050919050565b5f805f9054906101000a900460ff16806101ea57505f60039054906101000a900460ff165b6101f4575f6101f7565b60015b905090565b5f8115155f8054906101000a900460ff1615151461021a575f61021d565b60015b9050919050565b5f80fd5b5f8115159050919050565b61023c81610228565b8114610246575f80fd5b50565b5f8135905061025781610233565b92915050565b5f6020828403121561027257610271610224565b5b5f61027f84828501610249565b91505092915050565b61029181610228565b82525050565b5f6020820190506102aa5f830184610288565b9291505056fea26469706673582212208311c66205cf255ae043ff0cc2821f24ff83ea212874d9d06930688b4d658ac564736f6c63430008160033",
			"opcodes": "PUSH1 0x80 PUSH1 0x40 MSTORE PUSH1 0x1 PUSH0 PUSH1 0x1 PUSH2 0x100 EXP DUP2 SLOAD DUP2 PUSH1 0xFF MUL NOT AND SWAP1 DUP4 ISZERO ISZERO MUL OR SWAP1 SSTORE POP PUSH1 0x1 PUSH0 PUSH1 0x3 PUSH2 0x100 EXP DUP2 SLOAD DUP2 PUSH1 0xFF MUL NOT AND SWAP1 DUP4 ISZERO ISZERO MUL OR SWAP1 SSTORE POP PUSH0 DUP1 PUSH1 0x4 PUSH2 0x100 EXP DUP2 SLOAD DUP2 PUSH1 0xFF MUL NOT AND SWAP1 DUP4 ISZERO ISZERO MUL OR SWAP1 SSTORE POP PUSH1 0x1 PUSH0 PUSH1 0x5 PUSH2 0x100 EXP DUP2 SLOAD DUP2 PUSH1 0xFF MUL NOT AND SWAP1 DUP4 ISZERO ISZERO MUL OR SWAP1 SSTORE POP CALLVALUE DUP1 ISZERO PUSH2 0x76 JUMPI PUSH0 DUP1 REVERT JUMPDEST POP PUSH2 0x2E6 DUP1 PUSH2 0x84 PUSH0 CODECOPY PUSH0 RETURN INVALID PUSH1 0x80 PUSH1 0x40 MSTORE CALLVALUE DUP1 ISZERO PUSH2 0xF JUMPI PUSH0 DUP1 REVERT JUMPDEST POP PUSH1 0x4 CALLDATASIZE LT PUSH2 0x5F JUMPI PUSH0 CALLDATALOAD PUSH1 0xE0 SHR DUP1 PUSH3 0xD77E89 EQ PUSH2 0x63 JUMPI DUP1 PUSH4 0x169B32C3 EQ PUSH2 0x93 JUMPI DUP1 PUSH4 0x2298C16E EQ PUSH2 0xB1 JUMPI DUP1 PUSH4 0xB8DAA950 EQ PUSH2 0xCF JUMPI DUP1 PUSH4 0xF06CA14F EQ PUSH2 0xFF JUMPI DUP1 PUSH4 0xF10A31A1 EQ PUSH2 0x11D JUMPI JUMPDEST PUSH0 DUP1 REVERT JUMPDEST PUSH2 0x7D PUSH1 0x4 DUP1 CALLDATASIZE SUB DUP2 ADD SWAP1 PUSH2 0x78 SWAP2 SWAP1 PUSH2 0x25D JUMP JUMPDEST PUSH2 0x14D JUMP JUMPDEST PUSH1 0x40 MLOAD PUSH2 0x8A SWAP2 SWAP1 PUSH2 0x297 JUMP JUMPDEST PUSH1 0x40 MLOAD DUP1 SWAP2 SUB SWAP1 RETURN JUMPDEST PUSH2 0x9B PUSH2 0x177 JUMP JUMPDEST PUSH1 0x40 MLOAD PUSH2 0xA8 SWAP2 SWAP1 PUSH2 0x297 JUMP JUMPDEST PUSH1 0x40 MLOAD DUP1 SWAP2 SUB SWAP1 RETURN JUMPDEST PUSH2 0xB9 PUSH2 0x187 JUMP JUMPDEST PUSH1 0x40 MLOAD PUSH2 0xC6 SWAP2 SWAP1 PUSH2 0x297 JUMP JUMPDEST PUSH1 0x40 MLOAD DUP1 SWAP2 SUB SWAP1 RETURN JUMPDEST PUSH2 0xE9 PUSH1 0x4 DUP1 CALLDATASIZE SUB DUP2 ADD SWAP1 PUSH2 0xE4 SWAP2 SWAP1 PUSH2 0x25D JUMP JUMPDEST PUSH2 0x199 JUMP JUMPDEST PUSH1 0x40 MLOAD PUSH2 0xF6 SWAP2 SWAP1 PUSH2 0x297 JUMP JUMPDEST PUSH1 0x40 MLOAD DUP1 SWAP2 SUB SWAP1 RETURN JUMPDEST PUSH2 0x107 PUSH2 0x1C5 JUMP JUMPDEST PUSH1 0x40 MLOAD PUSH2 0x114 SWAP2 SWAP1 PUSH2 0x297 JUMP JUMPDEST PUSH1 0x40 MLOAD DUP1 SWAP2 SUB SWAP1 RETURN JUMPDEST PUSH2 0x137 PUSH1 0x4 DUP1 CALLDATASIZE SUB DUP2 ADD SWAP1 PUSH2 0x132 SWAP2 SWAP1 PUSH2 0x25D JUMP JUMPDEST PUSH2 0x1FC JUMP JUMPDEST PUSH1 0x40 MLOAD PUSH2 0x144 SWAP2 SWAP1 PUSH2 0x297 JUMP JUMPDEST PUSH1 0x40 MLOAD DUP1 SWAP2 SUB SWAP1 RETURN JUMPDEST PUSH0 DUP2 ISZERO ISZERO PUSH0 PUSH1 0x2 SWAP1 SLOAD SWAP1 PUSH2 0x100 EXP SWAP1 DIV PUSH1 0xFF AND ISZERO ISZERO SUB PUSH2 0x16D JUMPI PUSH0 PUSH2 0x170 JUMP JUMPDEST PUSH1 0x1 JUMPDEST SWAP1 POP SWAP2 SWAP1 POP JUMP JUMPDEST PUSH0 DUP1 SLOAD SWAP1 PUSH2 0x100 EXP SWAP1 DIV PUSH1 0xFF AND DUP2 JUMP JUMPDEST PUSH0 PUSH1 0x3 SWAP1 SLOAD SWAP1 PUSH2 0x100 EXP SWAP1 DIV PUSH1 0xFF AND DUP2 JUMP JUMPDEST PUSH0 DUP1 PUSH0 SWAP1 SLOAD SWAP1 PUSH2 0x100 EXP SWAP1 DIV PUSH1 0xFF AND DUP1 ISZERO PUSH2 0x1B1 JUMPI POP DUP2 JUMPDEST PUSH2 0x1BB JUMPI PUSH0 PUSH2 0x1BE JUMP JUMPDEST PUSH1 0x1 JUMPDEST SWAP1 POP SWAP2 SWAP1 POP JUMP JUMPDEST PUSH0 DUP1 PUSH0 SWAP1 SLOAD SWAP1 PUSH2 0x100 EXP SWAP1 DIV PUSH1 0xFF AND DUP1 PUSH2 0x1EA JUMPI POP PUSH0 PUSH1 0x3 SWAP1 SLOAD SWAP1 PUSH2 0x100 EXP SWAP1 DIV PUSH1 0xFF AND JUMPDEST PUSH2 0x1F4 JUMPI PUSH0 PUSH2 0x1F7 JUMP JUMPDEST PUSH1 0x1 JUMPDEST SWAP1 POP SWAP1 JUMP JUMPDEST PUSH0 DUP2 ISZERO ISZERO PUSH0 DUP1 SLOAD SWAP1 PUSH2 0x100 EXP SWAP1 DIV PUSH1 0xFF AND ISZERO ISZERO EQ PUSH2 0x21A JUMPI PUSH0 PUSH2 0x21D JUMP JUMPDEST PUSH1 0x1 JUMPDEST SWAP1 POP SWAP2 SWAP1 POP JUMP JUMPDEST PUSH0 DUP1 REVERT JUMPDEST PUSH0 DUP2 ISZERO ISZERO SWAP1 POP SWAP2 SWAP1 POP JUMP JUMPDEST PUSH2 0x23C DUP2 PUSH2 0x228 JUMP JUMPDEST DUP2 EQ PUSH2 0x246 JUMPI PUSH0 DUP1 REVERT JUMPDEST POP JUMP JUMPDEST PUSH0 DUP2 CALLDATALOAD SWAP1 POP PUSH2 0x257 DUP2 PUSH2 0x233 JUMP JUMPDEST SWAP3 SWAP2 POP POP JUMP JUMPDEST PUSH0 PUSH1 0x20 DUP3 DUP5 SUB SLT ISZERO PUSH2 0x272 JUMPI PUSH2 0x271 PUSH2 0x224 JUMP JUMPDEST JUMPDEST PUSH0 PUSH2 0x27F DUP5 DUP3 DUP6 ADD PUSH2 0x249 JUMP JUMPDEST SWAP2 POP POP SWAP3 SWAP2 POP POP JUMP JUMPDEST PUSH2 0x291 DUP2 PUSH2 0x228 JUMP JUMPDEST DUP3 MSTORE POP POP JUMP JUMPDEST PUSH0 PUSH1 0x20 DUP3 ADD SWAP1 POP PUSH2 0x2AA PUSH0 DUP4 ADD DUP5 PUSH2 0x288 JUMP JUMPDEST SWAP3 SWAP2 POP POP JUMP INVALID LOG2 PUSH5 0x6970667358 0x22 SLT KECCAK256 DUP4 GT 0xC6 PUSH3 0x5CF25 GAS 0xE0 NUMBER SELFDESTRUCT 0xC 0xC2 DUP3 0x1F 0x24 SELFDESTRUCT DUP4 0xEA 0x21 0x28 PUSH21 0xD9D06930688B4D658AC564736F6C63430008160033 "
		},
		"gasEstimates": {
			"creation": {
				"codeDepositCost": "148400",
				"executionCost": "97458",
				"totalCost": "245858"
			},
			"external": {
				"ang()": "2538",
				"firstBool()": "2463",
				"getBoolFour()": "4773",
				"getBoolOne(bool)": "infinite",
				"getBoolThree(bool)": "infinite",
				"getBoolTwo(bool)": "infinite"
			}
		},
		"methodIdentifiers": {
			"ang()": "2298c16e",
			"firstBool()": "169b32c3",
			"getBoolFour()": "f06ca14f",
			"getBoolOne(bool)": "f10a31a1",
			"getBoolThree(bool)": "b8daa950",
			"getBoolTwo(bool)": "00d77e89"
		}
	},
	"abi": [
		{
			"inputs": [],
			"name": "ang",
			"outputs": [
				{
					"internalType": "bool",
					"name": "",
					"type": "bool"
				}
			],
			"stateMutability": "view",
			"type": "function"
		},
		{
			"inputs": [],
			"name": "firstBool",
			"outputs": [
				{
					"internalType": "bool",
					"name": "",
					"type": "bool"
				}
			],
			"stateMutability": "view",
			"type": "function"
		},
		{
			"inputs": [],
			"name": "getBoolFour",
			"outputs": [
				{
					"internalType": "bool",
					"name": "",
					"type": "bool"
				}
			],
			"stateMutability": "view",
			"type": "function"
		},
		{
			"inputs": [
				{
					"internalType": "bool",
					"name": "argBool",
					"type": "bool"
				}
			],
			"name": "getBoolOne",
			"outputs": [
				{
					"internalType": "bool",
					"name": "check",
					"type": "bool"
				}
			],
			"stateMutability": "view",
			"type": "function"
		},
		{
			"inputs": [
				{
					"internalType": "bool",
					"name": "argBool",
					"type": "bool"
				}
			],
			"name": "getBoolThree",
			"outputs": [
				{
					"internalType": "bool",
					"name": "",
					"type": "bool"
				}
			],
			"stateMutability": "view",
			"type": "function"
		},
		{
			"inputs": [
				{
					"internalType": "bool",
					"name": "argBool",
					"type": "bool"
				}
			],
			"name": "getBoolTwo",
			"outputs": [
				{
					"internalType": "bool",
					"name": "",
					"type": "bool"
				}
			],
			"stateMutability": "view",
			"type": "function"
		}
	]
}