{
  "_format": "hh-sol-artifact-1",
  "contractName": "ERC1155",
  "sourceName": "contracts/practice-GuideDAO/ERC1155/ERC1155.sol",
  "abi": [
    {
      "inputs": [
        {
          "internalType": "string",
          "name": "uri_",
          "type": "string"
        }
      ],
      "stateMutability": "nonpayable",
      "type": "constructor"
    },
    {
      "anonymous": false,
      "inputs": [
        {
          "indexed": true,
          "internalType": "address",
          "name": "account",
          "type": "address"
        },
        {
          "indexed": true,
          "internalType": "address",
          "name": "operator",
          "type": "address"
        },
        {
          "indexed": false,
          "internalType": "bool",
          "name": "approved",
          "type": "bool"
        }
      ],
      "name": "ApprovalForAll",
      "type": "event"
    },
    {
      "anonymous": false,
      "inputs": [
        {
          "indexed": true,
          "internalType": "address",
          "name": "operator",
          "type": "address"
        },
        {
          "indexed": true,
          "internalType": "address",
          "name": "from",
          "type": "address"
        },
        {
          "indexed": true,
          "internalType": "address",
          "name": "to",
          "type": "address"
        },
        {
          "indexed": false,
          "internalType": "uint256[]",
          "name": "ids",
          "type": "uint256[]"
        },
        {
          "indexed": false,
          "internalType": "uint256[]",
          "name": "values",
          "type": "uint256[]"
        }
      ],
      "name": "TransferBatch",
      "type": "event"
    },
    {
      "anonymous": false,
      "inputs": [
        {
          "indexed": true,
          "internalType": "address",
          "name": "operator",
          "type": "address"
        },
        {
          "indexed": true,
          "internalType": "address",
          "name": "from",
          "type": "address"
        },
        {
          "indexed": true,
          "internalType": "address",
          "name": "to",
          "type": "address"
        },
        {
          "indexed": false,
          "internalType": "uint256",
          "name": "id",
          "type": "uint256"
        },
        {
          "indexed": false,
          "internalType": "uint256",
          "name": "value",
          "type": "uint256"
        }
      ],
      "name": "TransferSingle",
      "type": "event"
    },
    {
      "anonymous": false,
      "inputs": [
        {
          "indexed": false,
          "internalType": "string",
          "name": "value",
          "type": "string"
        },
        {
          "indexed": true,
          "internalType": "uint256",
          "name": "id",
          "type": "uint256"
        }
      ],
      "name": "URI",
      "type": "event"
    },
    {
      "inputs": [
        {
          "internalType": "address",
          "name": "account",
          "type": "address"
        },
        {
          "internalType": "uint256",
          "name": "id",
          "type": "uint256"
        }
      ],
      "name": "balanceOf",
      "outputs": [
        {
          "internalType": "uint256",
          "name": "",
          "type": "uint256"
        }
      ],
      "stateMutability": "view",
      "type": "function"
    },
    {
      "inputs": [
        {
          "internalType": "address[]",
          "name": "accounts",
          "type": "address[]"
        },
        {
          "internalType": "uint256[]",
          "name": "ids",
          "type": "uint256[]"
        }
      ],
      "name": "balanceOfBatch",
      "outputs": [
        {
          "internalType": "uint256[]",
          "name": "batchBalances",
          "type": "uint256[]"
        }
      ],
      "stateMutability": "view",
      "type": "function"
    },
    {
      "inputs": [
        {
          "internalType": "address",
          "name": "account",
          "type": "address"
        },
        {
          "internalType": "address",
          "name": "operator",
          "type": "address"
        }
      ],
      "name": "isApprovedForAll",
      "outputs": [
        {
          "internalType": "bool",
          "name": "",
          "type": "bool"
        }
      ],
      "stateMutability": "view",
      "type": "function"
    },
    {
      "inputs": [
        {
          "internalType": "address",
          "name": "from",
          "type": "address"
        },
        {
          "internalType": "address",
          "name": "to",
          "type": "address"
        },
        {
          "internalType": "uint256[]",
          "name": "ids",
          "type": "uint256[]"
        },
        {
          "internalType": "uint256[]",
          "name": "amounts",
          "type": "uint256[]"
        },
        {
          "internalType": "bytes",
          "name": "data",
          "type": "bytes"
        }
      ],
      "name": "safeBatchTransferFrom",
      "outputs": [],
      "stateMutability": "nonpayable",
      "type": "function"
    },
    {
      "inputs": [
        {
          "internalType": "address",
          "name": "from",
          "type": "address"
        },
        {
          "internalType": "address",
          "name": "to",
          "type": "address"
        },
        {
          "internalType": "uint256",
          "name": "id",
          "type": "uint256"
        },
        {
          "internalType": "uint256",
          "name": "amount",
          "type": "uint256"
        },
        {
          "internalType": "bytes",
          "name": "data",
          "type": "bytes"
        }
      ],
      "name": "safeTransferFrom",
      "outputs": [],
      "stateMutability": "nonpayable",
      "type": "function"
    },
    {
      "inputs": [
        {
          "internalType": "address",
          "name": "operator",
          "type": "address"
        },
        {
          "internalType": "bool",
          "name": "approved",
          "type": "bool"
        }
      ],
      "name": "setApprovalForAll",
      "outputs": [],
      "stateMutability": "nonpayable",
      "type": "function"
    },
    {
      "inputs": [
        {
          "internalType": "uint256",
          "name": "id",
          "type": "uint256"
        }
      ],
      "name": "uri",
      "outputs": [
        {
          "internalType": "string",
          "name": "",
          "type": "string"
        }
      ],
      "stateMutability": "view",
      "type": "function"
    }
  ],
  "bytecode": "0x608060405234801561000f575f80fd5b506040516118dc3803806118dc83398101604081905261002e91610061565b6100378161003d565b5061024f565b60026100498282610195565b5050565b634e487b7160e01b5f52604160045260245ffd5b5f60208284031215610071575f80fd5b81516001600160401b03811115610086575f80fd5b8201601f81018413610096575f80fd5b80516001600160401b038111156100af576100af61004d565b604051601f8201601f19908116603f011681016001600160401b03811182821017156100dd576100dd61004d565b6040528181528282016020018610156100f4575f80fd5b8160208401602083015e5f91810160200191909152949350505050565b600181811c9082168061012557607f821691505b60208210810361014357634e487b7160e01b5f52602260045260245ffd5b50919050565b601f82111561019057805f5260205f20601f840160051c8101602085101561016e5750805b601f840160051c820191505b8181101561018d575f815560010161017a565b50505b505050565b81516001600160401b038111156101ae576101ae61004d565b6101c2816101bc8454610111565b84610149565b6020601f8211600181146101f4575f83156101dd5750848201515b5f19600385901b1c1916600184901b17845561018d565b5f84815260208120601f198516915b828110156102235787850151825560209485019460019092019101610203565b508482101561024057868401515f19600387901b60f8161c191681555b50505050600190811b01905550565b6116808061025c5f395ff3fe608060405234801561000f575f80fd5b5060043610610079575f3560e01c80634e1273f4116100585780634e1273f4146100d8578063a22cb465146100f8578063e985e9c51461010b578063f242432a14610156575f80fd5b8062fdd58e1461007d5780630e89341c146100a35780632eb2c2d6146100c3575b5f80fd5b61009061008b366004610fdd565b610169565b6040519081526020015b60405180910390f35b6100b66100b1366004611005565b6101ed565b60405161009a919061101c565b6100d66100d13660046110d7565b61027f565b005b6100eb6100e6366004611196565b61031e565b60405161009a919061123c565b6100d6610106366004611255565b610434565b61014661011936600461128e565b6001600160a01b039182165f90815260016020908152604080832093909416825291909152205460ff1690565b604051901515815260200161009a565b6100d66101643660046112bf565b610443565b5f6001600160a01b0383166101c55760405162461bcd60e51b815260206004820152600f60248201527f496e76616c69642061646472657373000000000000000000000000000000000060448201526064015b60405180910390fd5b505f818152602081815260408083206001600160a01b03861684529091529020545b92915050565b6060600280546101fc90611332565b80601f016020809104026020016040519081016040528092919081815260200182805461022890611332565b80156102735780601f1061024a57610100808354040283529160200191610273565b820191905f5260205f20905b81548152906001019060200180831161025657829003601f168201915b50505050509050919050565b6001600160a01b0388163314806102b857506001600160a01b0388165f90815260016020908152604080832033845290915290205460ff165b6103045760405162461bcd60e51b815260206004820181905260248201527f43616c6c6572206973206e6f74206f776e6572206e6f7220617070726f76656460448201526064016101bc565b61031488888888888888886104de565b5050505050505050565b606083821461036f5760405162461bcd60e51b815260206004820181905260248201527f4163636f756e747320616e6420494473206c656e677468206d69736d6174636860448201526064016101bc565b8367ffffffffffffffff8111156103885761038861136a565b6040519080825280602002602001820160405280156103b1578160200160208202803683370190505b5090505f5b8481101561042b576104068686838181106103d3576103d361137e565b90506020020160208101906103e89190611392565b8585848181106103fa576103fa61137e565b90506020020135610169565b8282815181106104185761041861137e565b60209081029190910101526001016103b6565b50949350505050565b61043f338383610922565b5050565b6001600160a01b03861633148061047c57506001600160a01b0386165f90815260016020908152604080832033845290915290205460ff165b6104c85760405162461bcd60e51b815260206004820181905260248201527f43616c6c6572206973206e6f74206f776e6572206e6f7220617070726f76656460448201526064016101bc565b6104d6868686868686610a0d565b505050505050565b84831461052d5760405162461bcd60e51b815260206004820152601f60248201527f49447320616e6420616d6f756e7473206c656e677468206d69736d617463680060448201526064016101bc565b6001600160a01b0387166105835760405162461bcd60e51b815260206004820152601860248201527f5472616e7366657220746f207a65726f2061646472657373000000000000000060448201526064016101bc565b5f339050610628818a8a8a8a808060200260200160405190810160405280939291908181526020018383602002808284375f9201919091525050604080516020808e0282810182019093528d82529093508d92508c9182918501908490808284375f9201919091525050604080516020601f8d018190048102820181019092528b815292508b91508a90819084018382808284375f920191909152506104d692505050565b5f5b868110156107a8575f8888838181106106455761064561137e565b9050602002013590505f8787848181106106615761066161137e565b9050602002013590505f805f8481526020019081526020015f205f8e6001600160a01b03166001600160a01b031681526020019081526020015f20549050818110156107155760405162461bcd60e51b815260206004820152602160248201527f496e73756666696369656e742062616c616e636520666f72207472616e73666560448201527f720000000000000000000000000000000000000000000000000000000000000060648201526084016101bc565b61071f82826113bf565b5f808581526020019081526020015f205f8f6001600160a01b03166001600160a01b031681526020019081526020015f2081905550815f808581526020019081526020015f205f8e6001600160a01b03166001600160a01b031681526020019081526020015f205f82825461079491906113d2565b90915550506001909301925061062a915050565b50876001600160a01b0316896001600160a01b0316826001600160a01b03167f4a39dc06d4c0dbc64b70af90fd698a233a518aa5d07e595d983b8c0526c8f7fb8a8a8a8a6040516107fc949392919061142e565b60405180910390a46108a5818a8a8a8a808060200260200160405190810160405280939291908181526020018383602002808284375f9201919091525050604080516020808e0282810182019093528d82529093508d92508c9182918501908490808284375f9201919091525050604080516020601f8d018190048102820181019092528b815292508b91508a90819084018382808284375f920191909152506104d692505050565b610917818a8a8a8a808060200260200160405190810160405280939291908181526020018383602002808284375f9201919091525050604080516020808e0282810182019093528d82529093508d92508c9182918501908490808284375f920191909152508b92508a9150610c849050565b505050505050505050565b816001600160a01b0316836001600160a01b0316036109835760405162461bcd60e51b815260206004820181905260248201527f53657474696e6720617070726f76616c2073746174757320666f722073656c6660448201526064016101bc565b6001600160a01b038381165f8181526001602090815260408083209487168084529482529182902080547fffffffffffffffffffffffffffffffffffffffffffffffffffffffffffffff001686151590811790915591519182527f17307eab39ab6107e8899845ad3d59bd9653f200f220920489ca2b5937696c31910160405180910390a3505050565b6001600160a01b038516610a635760405162461bcd60e51b815260206004820152601860248201527f5472616e7366657220746f207a65726f2061646472657373000000000000000060448201526064016101bc565b335f610a6e86610e46565b90505f610a7a86610e46565b9050610abf838a8a85858a8a8080601f0160208091040260200160405190810160405280939291908181526020018383808284375f920191909152506104d692505050565b5f878152602081815260408083206001600160a01b038d16845290915290205486811015610b555760405162461bcd60e51b815260206004820152602160248201527f496e73756666696369656e742062616c616e636520666f72207472616e73666560448201527f720000000000000000000000000000000000000000000000000000000000000060648201526084016101bc565b610b5f87826113bf565b5f808a81526020019081526020015f205f8c6001600160a01b03166001600160a01b031681526020019081526020015f2081905550865f808a81526020019081526020015f205f8b6001600160a01b03166001600160a01b031681526020019081526020015f205f828254610bd491906113d2565b909155505060408051898152602081018990526001600160a01b03808c16928d821692918816917fc3d58168c5ae7397731d063d5bbf3d657854427343f4c083240f7aacaa2d0f62910160405180910390a4610c69848b8b86868b8b8080601f0160208091040260200160405190810160405280939291908181526020018383808284375f920191909152506104d692505050565b610c78848b8b8b8b8b8b610e8c565b50505050505050505050565b6001600160a01b0385163b15610e3d576040517fbc197c810000000000000000000000000000000000000000000000000000000081526001600160a01b0386169063bc197c8190610ce3908a908a908990899089908990600401611488565b6020604051808303815f875af1925050508015610d1d575060408051601f3d908101601f19168201909252610d1a918101906114ec565b60015b610dac57610d2961152b565b806308c379a003610d625750610d3d61157d565b80610d485750610d64565b8060405162461bcd60e51b81526004016101bc919061101c565b505b60405162461bcd60e51b815260206004820152601460248201527f4e6f6e2d4552433131353520726563656976657200000000000000000000000060448201526064016101bc565b7fffffffff0000000000000000000000000000000000000000000000000000000081167fbc197c8100000000000000000000000000000000000000000000000000000000146103145760405162461bcd60e51b815260206004820152600f60248201527f52656a656374656420746f6b656e73000000000000000000000000000000000060448201526064016101bc565b50505050505050565b6040805160018082528183019092526060916020808301908036833701905050905081815f81518110610e7b57610e7b61137e565b602002602001018181525050919050565b6001600160a01b0385163b15610e3d576040517ff23a6e610000000000000000000000000000000000000000000000000000000081526001600160a01b0386169063f23a6e6190610eeb908a908a908990899089908990600401611601565b6020604051808303815f875af1925050508015610f25575060408051601f3d908101601f19168201909252610f22918101906114ec565b60015b610f3157610d2961152b565b7fffffffff0000000000000000000000000000000000000000000000000000000081167ff23a6e6100000000000000000000000000000000000000000000000000000000146103145760405162461bcd60e51b815260206004820152600f60248201527f52656a656374656420746f6b656e73000000000000000000000000000000000060448201526064016101bc565b80356001600160a01b0381168114610fd8575f80fd5b919050565b5f8060408385031215610fee575f80fd5b610ff783610fc2565b946020939093013593505050565b5f60208284031215611015575f80fd5b5035919050565b602081525f82518060208401528060208501604085015e5f604082850101526040601f19601f83011684010191505092915050565b5f8083601f840112611061575f80fd5b50813567ffffffffffffffff811115611078575f80fd5b6020830191508360208260051b8501011115611092575f80fd5b9250929050565b5f8083601f8401126110a9575f80fd5b50813567ffffffffffffffff8111156110c0575f80fd5b602083019150836020828501011115611092575f80fd5b5f805f805f805f8060a0898b0312156110ee575f80fd5b6110f789610fc2565b975061110560208a01610fc2565b9650604089013567ffffffffffffffff811115611120575f80fd5b61112c8b828c01611051565b909750955050606089013567ffffffffffffffff81111561114b575f80fd5b6111578b828c01611051565b909550935050608089013567ffffffffffffffff811115611176575f80fd5b6111828b828c01611099565b999c989b5096995094979396929594505050565b5f805f80604085870312156111a9575f80fd5b843567ffffffffffffffff8111156111bf575f80fd5b6111cb87828801611051565b909550935050602085013567ffffffffffffffff8111156111ea575f80fd5b6111f687828801611051565b95989497509550505050565b5f8151808452602084019350602083015f5b82811015611232578151865260209586019590910190600101611214565b5093949350505050565b602081525f61124e6020830184611202565b9392505050565b5f8060408385031215611266575f80fd5b61126f83610fc2565b915060208301358015158114611283575f80fd5b809150509250929050565b5f806040838503121561129f575f80fd5b6112a883610fc2565b91506112b660208401610fc2565b90509250929050565b5f805f805f8060a087890312156112d4575f80fd5b6112dd87610fc2565b95506112eb60208801610fc2565b94506040870135935060608701359250608087013567ffffffffffffffff811115611314575f80fd5b61132089828a01611099565b979a9699509497509295939492505050565b600181811c9082168061134657607f821691505b60208210810361136457634e487b7160e01b5f52602260045260245ffd5b50919050565b634e487b7160e01b5f52604160045260245ffd5b634e487b7160e01b5f52603260045260245ffd5b5f602082840312156113a2575f80fd5b61124e82610fc2565b634e487b7160e01b5f52601160045260245ffd5b818103818111156101e7576101e76113ab565b808201808211156101e7576101e76113ab565b8183525f7f07ffffffffffffffffffffffffffffffffffffffffffffffffffffffffffffff831115611415575f80fd5b8260051b80836020870137939093016020019392505050565b604081525f6114416040830186886113e5565b82810360208401526114548185876113e5565b979650505050505050565b81835281816020850137505f602082840101525f6020601f19601f840116840101905092915050565b6001600160a01b03871681526001600160a01b038616602082015260a060408201525f6114b860a0830187611202565b82810360608401526114ca8187611202565b905082810360808401526114df81858761145f565b9998505050505050505050565b5f602082840312156114fc575f80fd5b81517fffffffff000000000000000000000000000000000000000000000000000000008116811461124e575f80fd5b5f60033d11156115415760045f803e505f5160e01c5b90565b601f19601f830116810181811067ffffffffffffffff8211171561157657634e487b7160e01b5f52604160045260245ffd5b6040525050565b5f60443d101561158a5790565b6040516003193d016004823e80513d602482011167ffffffffffffffff821117156115b457505090565b808201805167ffffffffffffffff8111156115d0575050505090565b6003193d85010160208284010111156115ea575050505090565b6115f960208285010185611544565b509392505050565b6001600160a01b03871681526001600160a01b038616602082015284604082015283606082015260a060808201525f61163e60a08301848661145f565b9897505050505050505056fea26469706673582212204d9760dd93f9727eb5b8e68f2f7b9202ccb6f436cd4ccc6abacbe2a25c6f036364736f6c634300081a0033",
  "linkReferences": {},
  "deployedLinkReferences": {}
}