{
  "_format": "hh-sol-artifact-1",
  "contractName": "Error",
  "sourceName": "contracts/PracticeModule1/LessonError.sol",
  "abi": [
    {
      "inputs": [
        {
          "internalType": "uint256",
          "name": "balance",
          "type": "uint256"
        },
        {
          "internalType": "uint256",
          "name": "withdrawAmount",
          "type": "uint256"
        }
      ],
      "name": "InsufficientBalance",
      "type": "error"
    },
    {
      "inputs": [],
      "name": "num",
      "outputs": [
        {
          "internalType": "uint256",
          "name": "",
          "type": "uint256"
        }
      ],
      "stateMutability": "view",
      "type": "function"
    },
    {
      "inputs": [],
      "name": "testAssert",
      "outputs": [],
      "stateMutability": "view",
      "type": "function"
    },
    {
      "inputs": [
        {
          "internalType": "uint256",
          "name": "_withdrawAmount",
          "type": "uint256"
        }
      ],
      "name": "testCustomError",
      "outputs": [],
      "stateMutability": "view",
      "type": "function"
    },
    {
      "inputs": [
        {
          "internalType": "uint256",
          "name": "_i",
          "type": "uint256"
        }
      ],
      "name": "testRequire",
      "outputs": [],
      "stateMutability": "pure",
      "type": "function"
    },
    {
      "inputs": [
        {
          "internalType": "uint256",
          "name": "_i",
          "type": "uint256"
        }
      ],
      "name": "testRevert",
      "outputs": [],
      "stateMutability": "pure",
      "type": "function"
    }
  ],
  "bytecode": "0x608060405234801561001057600080fd5b50610202806100206000396000f3fe608060405234801561001057600080fd5b50600436106100675760003560e01c80634e70b1dc116100505780634e70b1dc1461008957806375f7286c146100a4578063b8bd717f1461006c57600080fd5b8063209877671461006c5780632b813bc014610081575b600080fd5b61007f61007a366004610184565b6100b7565b005b61007f610129565b61009260005481565b60405190815260200160405180910390f35b61007f6100b2366004610184565b61013b565b600a8111610126576040517f08c379a000000000000000000000000000000000000000000000000000000000815260206004820152601d60248201527f496e707574206d7573742062652067726561746572207468616e20313000000060448201526064015b60405180910390fd5b50565b600054156101395761013961019d565b565b4781811015610180576040517fcf479181000000000000000000000000000000000000000000000000000000008152600481018290526024810183905260440161011d565b5050565b60006020828403121561019657600080fd5b5035919050565b7f4e487b7100000000000000000000000000000000000000000000000000000000600052600160045260246000fdfea26469706673582212203d3b5d5a496f75538e813fec97b91fe3dbfcdba33274e23fb98376c2615b53b364736f6c63430008140033",
  "linkReferences": {},
  "deployedLinkReferences": {}
}