{
  "_format": "hh-sol-artifact-1",
  "contractName": "ArrayCount",
  "sourceName": "contracts/practice-junior/ArrayCount.sol",
  "abi": [
    {
      "inputs": [
        {
          "internalType": "uint256",
          "name": "number",
          "type": "uint256"
        }
      ],
      "name": "addNumber",
      "outputs": [],
      "stateMutability": "nonpayable",
      "type": "function"
    },
    {
      "inputs": [],
      "name": "getCount",
      "outputs": [
        {
          "internalType": "uint256",
          "name": "",
          "type": "uint256"
        }
      ],
      "stateMutability": "view",
      "type": "function"
    },
    {
      "inputs": [
        {
          "internalType": "uint256",
          "name": "",
          "type": "uint256"
        }
      ],
      "name": "numbers",
      "outputs": [
        {
          "internalType": "uint256",
          "name": "",
          "type": "uint256"
        }
      ],
      "stateMutability": "view",
      "type": "function"
    }
  ],
  "bytecode": "0x6080604052348015600e575f80fd5b506101098061001c5f395ff3fe6080604052348015600e575f80fd5b5060043610603a575f3560e01c8063a87d942c14603e578063d39fa233146053578063fce68023146062575b5f80fd5b5f545b60405190815260200160405180910390f35b6041605e36600460bd565b60a0565b609e606d36600460bd565b5f80546001810182559080527f290decd9548b62a8d60345a988386fc84ba6bc95484008f6362f93160ef3e5630155565b005b5f818154811060ad575f80fd5b5f91825260209091200154905081565b5f6020828403121560cc575f80fd5b503591905056fea26469706673582212203888eeb8520c40af42d986cb5e76a143c629d7d8c5c4fbc2133f275368fc39de64736f6c634300081a0033",
  "linkReferences": {},
  "deployedLinkReferences": {}
}