{
  "_format": "hh-sol-artifact-1",
  "contractName": "Todos",
  "sourceName": "contracts/PracticeModule2/DataTypes-2.sol",
  "abi": [
    {
      "inputs": [
        {
          "internalType": "uint256",
          "name": "",
          "type": "uint256"
        }
      ],
      "name": "arr",
      "outputs": [
        {
          "internalType": "uint256",
          "name": "",
          "type": "uint256"
        }
      ],
      "stateMutability": "view",
      "type": "function"
    },
    {
      "inputs": [
        {
          "internalType": "uint256",
          "name": "",
          "type": "uint256"
        }
      ],
      "name": "arr2",
      "outputs": [
        {
          "internalType": "uint256",
          "name": "",
          "type": "uint256"
        }
      ],
      "stateMutability": "view",
      "type": "function"
    },
    {
      "inputs": [],
      "name": "cancel",
      "outputs": [],
      "stateMutability": "nonpayable",
      "type": "function"
    },
    {
      "inputs": [
        {
          "internalType": "string",
          "name": "_text",
          "type": "string"
        }
      ],
      "name": "create",
      "outputs": [],
      "stateMutability": "nonpayable",
      "type": "function"
    },
    {
      "inputs": [],
      "name": "examples",
      "outputs": [],
      "stateMutability": "pure",
      "type": "function"
    },
    {
      "inputs": [],
      "name": "get",
      "outputs": [
        {
          "internalType": "enum Todos.Status",
          "name": "",
          "type": "uint8"
        }
      ],
      "stateMutability": "view",
      "type": "function"
    },
    {
      "inputs": [],
      "name": "getArr",
      "outputs": [
        {
          "internalType": "uint256[]",
          "name": "",
          "type": "uint256[]"
        }
      ],
      "stateMutability": "view",
      "type": "function"
    },
    {
      "inputs": [
        {
          "internalType": "uint256",
          "name": "i",
          "type": "uint256"
        }
      ],
      "name": "getArrIndex",
      "outputs": [
        {
          "internalType": "uint256",
          "name": "",
          "type": "uint256"
        }
      ],
      "stateMutability": "view",
      "type": "function"
    },
    {
      "inputs": [],
      "name": "getLength",
      "outputs": [
        {
          "internalType": "uint256",
          "name": "",
          "type": "uint256"
        }
      ],
      "stateMutability": "view",
      "type": "function"
    },
    {
      "inputs": [
        {
          "internalType": "uint256",
          "name": "",
          "type": "uint256"
        }
      ],
      "name": "myFixedSizeArr",
      "outputs": [
        {
          "internalType": "uint256",
          "name": "",
          "type": "uint256"
        }
      ],
      "stateMutability": "view",
      "type": "function"
    },
    {
      "inputs": [],
      "name": "pop",
      "outputs": [],
      "stateMutability": "nonpayable",
      "type": "function"
    },
    {
      "inputs": [
        {
          "internalType": "uint256",
          "name": "i",
          "type": "uint256"
        }
      ],
      "name": "push",
      "outputs": [],
      "stateMutability": "nonpayable",
      "type": "function"
    },
    {
      "inputs": [
        {
          "internalType": "uint256",
          "name": "index",
          "type": "uint256"
        }
      ],
      "name": "remove",
      "outputs": [],
      "stateMutability": "nonpayable",
      "type": "function"
    },
    {
      "inputs": [],
      "name": "reset",
      "outputs": [],
      "stateMutability": "nonpayable",
      "type": "function"
    },
    {
      "inputs": [
        {
          "internalType": "enum Todos.Status",
          "name": "_status",
          "type": "uint8"
        }
      ],
      "name": "set",
      "outputs": [],
      "stateMutability": "nonpayable",
      "type": "function"
    },
    {
      "inputs": [],
      "name": "status",
      "outputs": [
        {
          "internalType": "enum Todos.Status",
          "name": "",
          "type": "uint8"
        }
      ],
      "stateMutability": "view",
      "type": "function"
    },
    {
      "inputs": [
        {
          "internalType": "uint256",
          "name": "",
          "type": "uint256"
        }
      ],
      "name": "todos",
      "outputs": [
        {
          "internalType": "string",
          "name": "text",
          "type": "string"
        },
        {
          "internalType": "bool",
          "name": "completed",
          "type": "bool"
        }
      ],
      "stateMutability": "view",
      "type": "function"
    },
    {
      "inputs": [
        {
          "internalType": "uint256",
          "name": "_index",
          "type": "uint256"
        }
      ],
      "name": "toggleCompleted",
      "outputs": [],
      "stateMutability": "nonpayable",
      "type": "function"
    },
    {
      "inputs": [
        {
          "internalType": "uint256",
          "name": "_index",
          "type": "uint256"
        },
        {
          "internalType": "string",
          "name": "_text",
          "type": "string"
        }
      ],
      "name": "updateText",
      "outputs": [],
      "stateMutability": "nonpayable",
      "type": "function"
    }
  ],
  "bytecode": "0x60e060405260016080908152600260a052600360c08190526100219181610034565b5034801561002e57600080fd5b50610099565b828054828255906000526020600020908101928215610074579160200282015b82811115610074578251829060ff16905591602001919060010190610054565b50610080929150610084565b5090565b5b808211156100805760008155600101610085565b610ba1806100a86000396000f3fe608060405234801561001057600080fd5b50600436106101515760003560e01c8063959ac484116100cd578063cd11161411610081578063ea8a1af011610066578063ea8a1af0146102b7578063edf0099b146102c9578063fb8cbced146102dc57600080fd5b8063cd11161414610295578063d826f88f146102a857600080fd5b8063b6a46b3b116100b2578063b6a46b3b14610259578063bc8bc2b41461026c578063be1c766b1461028d57600080fd5b8063959ac4841461020e578063a4ece52c1461025157600080fd5b8063455f5024116101245780636487a957116101095780636487a957146101dd5780636d4ce63c146101f057806371e5ee5f146101fb57600080fd5b8063455f5024146101b75780634cc82215146101ca57600080fd5b8063200d2ed21461015657806324b8ba5f14610179578063335d00c21461018e57806338a067ce14610196575b600080fd5b6000546101639060ff1681565b6040516101709190610746565b60405180910390f35b61018c61018736600461076e565b6102f1565b005b61018c610318565b6101a96101a4366004610796565b61033e565b604051908152602001610170565b61018c6101c5366004610796565b610355565b61018c6101d8366004610796565b610391565b6101a96101eb366004610796565b6103b2565b60005460ff16610163565b6101a9610209366004610796565b6103d9565b61018c61021c366004610796565b600280546001810182556000919091527f405787fa12a823e0f2b7631cc41b3ba8828b3321ca811111fa75cd3aa3bb5ace0155565b61018c6103fa565b61018c6102673660046107f8565b610423565b61027f61027a366004610796565b6105cf565b60405161017092919061083a565b6002546101a9565b61018c6102a3366004610891565b61068e565b61018c6000805460ff19169055565b61018c6000805460ff19166004179055565b6101a96102d7366004610796565b6106c8565b6102e46106d8565b60405161017091906108dd565b6000805482919060ff1916600183600481111561031057610310610730565b021790555050565b60408051600580825260c082019092526000916020820160a0803683370190505b505050565b600481600a811061034e57600080fd5b0154905081565b60006001828154811061036a5761036a610937565b60009182526020909120600160029092020101805460ff19811660ff909116151790555050565b600281815481106103a4576103a4610937565b600091825260208220015550565b6000600282815481106103c7576103c7610937565b90600052602060002001549050919050565b600281815481106103e957600080fd5b600091825260209091200154905081565b600280548061040b5761040b61094d565b60019003818190600052602060002001600090559055565b6040805160606020601f850181900402820181018352918101838152600192829190869086908190850183828082843760009201829052509385525050506020918201819052835460018101855593815220815191926002020190819061048a90826109eb565b506020918201516001918201805460ff191691151591909117905560408051601f85018490049093028301606090810182529083018481529192918291869086908190850183828082843760009201829052509385525050506020918201819052835460018101855593815220815191926002020190819061050c90826109eb565b50602091820151600191909101805460ff1916911515919091179055604080518082018252606081526000818401528151601f850184900484028101840190925283825291849084908190840183828082843760009201829052509385525050600180548082018255925250815182916002027fb10e2d527612073b26eecdfd717e6a320cf44b4afac2b0732d9fcbe2b7fa0cf6019081906105ae90826109eb565b50602091909101516001909101805460ff1916911515919091179055505050565b600181815481106105df57600080fd5b906000526020600020906002020160009150905080600001805461060290610963565b80601f016020809104026020016040519081016040528092919081815260200182805461062e90610963565b801561067b5780601f106106505761010080835404028352916020019161067b565b820191906000526020600020905b81548152906001019060200180831161065e57829003601f168201915b5050506001909301549192505060ff1682565b6000600184815481106106a3576106a3610937565b600091825260209091206002909102019050806106c1838583610aab565b5050505050565b600381815481106103e957600080fd5b6060600280548060200260200160405190810160405280929190818152602001828054801561072657602002820191906000526020600020905b815481526020019060010190808311610712575b5050505050905090565b634e487b7160e01b600052602160045260246000fd5b602081016005831061076857634e487b7160e01b600052602160045260246000fd5b91905290565b60006020828403121561078057600080fd5b81356005811061078f57600080fd5b9392505050565b6000602082840312156107a857600080fd5b5035919050565b60008083601f8401126107c157600080fd5b50813567ffffffffffffffff8111156107d957600080fd5b6020830191508360208285010111156107f157600080fd5b9250929050565b6000806020838503121561080b57600080fd5b823567ffffffffffffffff81111561082257600080fd5b61082e858286016107af565b90969095509350505050565b604081526000835180604084015260005b81811015610868576020818701810151606086840101520161084b565b506000606082850101526060601f19601f83011684010191505082151560208301529392505050565b6000806000604084860312156108a657600080fd5b83359250602084013567ffffffffffffffff8111156108c457600080fd5b6108d0868287016107af565b9497909650939450505050565b6020808252825182820181905260009190848201906040850190845b81811015610915578351835292840192918401916001016108f9565b50909695505050505050565b634e487b7160e01b600052604160045260246000fd5b634e487b7160e01b600052603260045260246000fd5b634e487b7160e01b600052603160045260246000fd5b600181811c9082168061097757607f821691505b60208210810361099757634e487b7160e01b600052602260045260246000fd5b50919050565b601f82111561033957600081815260208120601f850160051c810160208610156109c45750805b601f850160051c820191505b818110156109e3578281556001016109d0565b505050505050565b815167ffffffffffffffff811115610a0557610a05610921565b610a1981610a138454610963565b8461099d565b602080601f831160018114610a4e5760008415610a365750858301515b600019600386901b1c1916600185901b1785556109e3565b600085815260208120601f198616915b82811015610a7d57888601518255948401946001909101908401610a5e565b5085821015610a9b5787850151600019600388901b60f8161c191681555b5050505050600190811b01905550565b67ffffffffffffffff831115610ac357610ac3610921565b610ad783610ad18354610963565b8361099d565b6000601f841160018114610b0b5760008515610af35750838201355b600019600387901b1c1916600186901b1783556106c1565b600083815260209020601f19861690835b82811015610b3c5786850135825560209485019460019092019101610b1c565b5086821015610b595760001960f88860031b161c19848701351681555b505060018560011b018355505050505056fea2646970667358221220f81e477923e97263513acbff10540e34507f90bcfd96d758923a77cc3f39101464736f6c63430008140033",
  "linkReferences": {},
  "deployedLinkReferences": {}
}