{
  "_format": "hh-sol-artifact-1",
  "contractName": "Todos",
  "sourceName": "contracts/PracticeModule2/DataTypes-2.sol",
  "abi": [
    {
      "inputs": [
        {
          "internalType": "uint256",
          "name": "",
          "type": "uint256"
        }
      ],
      "name": "arr",
      "outputs": [
        {
          "internalType": "uint256",
          "name": "",
          "type": "uint256"
        }
      ],
      "stateMutability": "view",
      "type": "function"
    },
    {
      "inputs": [
        {
          "internalType": "uint256",
          "name": "",
          "type": "uint256"
        }
      ],
      "name": "arr2",
      "outputs": [
        {
          "internalType": "uint256",
          "name": "",
          "type": "uint256"
        }
      ],
      "stateMutability": "view",
      "type": "function"
    },
    {
      "inputs": [],
      "name": "cancel",
      "outputs": [],
      "stateMutability": "nonpayable",
      "type": "function"
    },
    {
      "inputs": [
        {
          "internalType": "string",
          "name": "_text",
          "type": "string"
        }
      ],
      "name": "create",
      "outputs": [],
      "stateMutability": "nonpayable",
      "type": "function"
    },
    {
      "inputs": [],
      "name": "examples",
      "outputs": [],
      "stateMutability": "pure",
      "type": "function"
    },
    {
      "inputs": [],
      "name": "get",
      "outputs": [
        {
          "internalType": "enum Todos.Status",
          "name": "",
          "type": "uint8"
        }
      ],
      "stateMutability": "view",
      "type": "function"
    },
    {
      "inputs": [],
      "name": "getArr",
      "outputs": [
        {
          "internalType": "uint256[]",
          "name": "",
          "type": "uint256[]"
        }
      ],
      "stateMutability": "view",
      "type": "function"
    },
    {
      "inputs": [
        {
          "internalType": "uint256",
          "name": "i",
          "type": "uint256"
        }
      ],
      "name": "getArrIndex",
      "outputs": [
        {
          "internalType": "uint256",
          "name": "",
          "type": "uint256"
        }
      ],
      "stateMutability": "view",
      "type": "function"
    },
    {
      "inputs": [],
      "name": "getLength",
      "outputs": [
        {
          "internalType": "uint256",
          "name": "",
          "type": "uint256"
        }
      ],
      "stateMutability": "view",
      "type": "function"
    },
    {
      "inputs": [
        {
          "internalType": "uint256",
          "name": "",
          "type": "uint256"
        }
      ],
      "name": "myFixedSizeArr",
      "outputs": [
        {
          "internalType": "uint256",
          "name": "",
          "type": "uint256"
        }
      ],
      "stateMutability": "view",
      "type": "function"
    },
    {
      "inputs": [],
      "name": "pop",
      "outputs": [],
      "stateMutability": "nonpayable",
      "type": "function"
    },
    {
      "inputs": [
        {
          "internalType": "uint256",
          "name": "i",
          "type": "uint256"
        }
      ],
      "name": "push",
      "outputs": [],
      "stateMutability": "nonpayable",
      "type": "function"
    },
    {
      "inputs": [
        {
          "internalType": "uint256",
          "name": "index",
          "type": "uint256"
        }
      ],
      "name": "remove",
      "outputs": [],
      "stateMutability": "nonpayable",
      "type": "function"
    },
    {
      "inputs": [],
      "name": "reset",
      "outputs": [],
      "stateMutability": "nonpayable",
      "type": "function"
    },
    {
      "inputs": [
        {
          "internalType": "enum Todos.Status",
          "name": "_status",
          "type": "uint8"
        }
      ],
      "name": "set",
      "outputs": [],
      "stateMutability": "nonpayable",
      "type": "function"
    },
    {
      "inputs": [],
      "name": "status",
      "outputs": [
        {
          "internalType": "enum Todos.Status",
          "name": "",
          "type": "uint8"
        }
      ],
      "stateMutability": "view",
      "type": "function"
    },
    {
      "inputs": [
        {
          "internalType": "uint256",
          "name": "",
          "type": "uint256"
        }
      ],
      "name": "todos",
      "outputs": [
        {
          "internalType": "string",
          "name": "text",
          "type": "string"
        },
        {
          "internalType": "bool",
          "name": "completed",
          "type": "bool"
        }
      ],
      "stateMutability": "view",
      "type": "function"
    },
    {
      "inputs": [
        {
          "internalType": "uint256",
          "name": "_index",
          "type": "uint256"
        }
      ],
      "name": "toggleCompleted",
      "outputs": [],
      "stateMutability": "nonpayable",
      "type": "function"
    },
    {
      "inputs": [
        {
          "internalType": "uint256",
          "name": "_index",
          "type": "uint256"
        },
        {
          "internalType": "string",
          "name": "_text",
          "type": "string"
        }
      ],
      "name": "updateText",
      "outputs": [],
      "stateMutability": "nonpayable",
      "type": "function"
    }
  ],
  "bytecode": "0x60e060405260016080908152600260a052600360c0819052601f9181602f565b50348015602a575f80fd5b50608a565b828054828255905f5260205f20908101928215606a579160200282015b82811115606a578251829060ff16905591602001919060010190604c565b5060749291506078565b5090565b5b808211156074575f81556001016079565b610b29806100975f395ff3fe608060405234801561000f575f80fd5b5060043610610149575f3560e01c8063959ac484116100c7578063cd1116141161007d578063ea8a1af011610063578063ea8a1af0146102aa578063edf0099b146102bb578063fb8cbced146102ce575f80fd5b8063cd11161414610289578063d826f88f1461029c575f80fd5b8063b6a46b3b116100ad578063b6a46b3b1461024d578063bc8bc2b414610260578063be1c766b14610281575f80fd5b8063959ac48414610203578063a4ece52c14610245575f80fd5b8063455f50241161011c5780636487a957116101025780636487a957146101d35780636d4ce63c146101e657806371e5ee5f146101f0575f80fd5b8063455f5024146101ad5780634cc82215146101c0575f80fd5b8063200d2ed21461014d57806324b8ba5f1461016f578063335d00c21461018457806338a067ce1461018c575b5f80fd5b5f546101599060ff1681565b6040516101669190610718565b60405180910390f35b61018261017d36600461073e565b6102e3565b005b610182610309565b61019f61019a366004610763565b61032e565b604051908152602001610166565b6101826101bb366004610763565b610344565b6101826101ce366004610763565b61037e565b61019f6101e1366004610763565b61039e565b5f5460ff16610159565b61019f6101fe366004610763565b6103c2565b610182610211366004610763565b600280546001810182555f919091527f405787fa12a823e0f2b7631cc41b3ba8828b3321ca811111fa75cd3aa3bb5ace0155565b6101826103e1565b61018261025b3660046107bf565b610407565b61027361026e366004610763565b6105af565b6040516101669291906107fe565b60025461019f565b61018261029736600461083c565b610667565b6101825f805460ff19169055565b6101825f805460ff19166004179055565b61019f6102c9366004610763565b61069f565b6102d66106ae565b6040516101669190610884565b5f805482919060ff1916600183600481111561030157610301610704565b021790555050565b60408051600580825260c082019092525f916020820160a0803683370190505b505050565b600481600a811061033d575f80fd5b0154905081565b5f60018281548110610358576103586108da565b5f9182526020909120600160029092020101805460ff19811660ff909116151790555050565b60028181548110610391576103916108da565b5f91825260208220015550565b5f600282815481106103b2576103b26108da565b905f5260205f2001549050919050565b600281815481106103d1575f80fd5b5f91825260209091200154905081565b60028054806103f2576103f26108ee565b600190038181905f5260205f20015f90559055565b6040805160606020601f85018190040282018101835291810183815260019282919086908690819085018382808284375f9201829052509385525050506020918201819052835460018101855593815220815191926002020190819061046d908261097e565b506020918201516001918201805460ff191691151591909117905560408051601f8501849004909302830160609081018252908301848152919291829186908690819085018382808284375f920182905250938552505050602091820181905283546001810185559381522081519192600202019081906104ee908261097e565b50602091820151600191909101805460ff1916911515919091179055604080518082018252606081525f818401528151601f85018490048402810184019092528382529184908490819084018382808284375f9201829052509385525050600180548082018255925250815182916002027fb10e2d527612073b26eecdfd717e6a320cf44b4afac2b0732d9fcbe2b7fa0cf60190819061058e908261097e565b50602091909101516001909101805460ff1916911515919091179055505050565b600181815481106105be575f80fd5b905f5260205f2090600202015f91509050805f0180546105dd90610902565b80601f016020809104026020016040519081016040528092919081815260200182805461060990610902565b80156106545780601f1061062b57610100808354040283529160200191610654565b820191905f5260205f20905b81548152906001019060200180831161063757829003601f168201915b5050506001909301549192505060ff1682565b5f6001848154811061067b5761067b6108da565b5f9182526020909120600290910201905080610698838583610a39565b5050505050565b600381815481106103d1575f80fd5b606060028054806020026020016040519081016040528092919081815260200182805480156106fa57602002820191905f5260205f20905b8154815260200190600101908083116106e6575b5050505050905090565b634e487b7160e01b5f52602160045260245ffd5b602081016005831061073857634e487b7160e01b5f52602160045260245ffd5b91905290565b5f6020828403121561074e575f80fd5b81356005811061075c575f80fd5b9392505050565b5f60208284031215610773575f80fd5b5035919050565b5f8083601f84011261078a575f80fd5b50813567ffffffffffffffff8111156107a1575f80fd5b6020830191508360208285010111156107b8575f80fd5b9250929050565b5f80602083850312156107d0575f80fd5b823567ffffffffffffffff8111156107e6575f80fd5b6107f28582860161077a565b90969095509350505050565b604081525f83518060408401528060208601606085015e5f606082850101526060601f19601f83011684010191505082151560208301529392505050565b5f805f6040848603121561084e575f80fd5b83359250602084013567ffffffffffffffff81111561086b575f80fd5b6108778682870161077a565b9497909650939450505050565b602080825282518282018190525f918401906040840190835b818110156108bb57835183526020938401939092019160010161089d565b509095945050505050565b634e487b7160e01b5f52604160045260245ffd5b634e487b7160e01b5f52603260045260245ffd5b634e487b7160e01b5f52603160045260245ffd5b600181811c9082168061091657607f821691505b60208210810361093457634e487b7160e01b5f52602260045260245ffd5b50919050565b601f82111561032957805f5260205f20601f840160051c8101602085101561095f5750805b601f840160051c820191505b81811015610698575f815560010161096b565b815167ffffffffffffffff811115610998576109986108c6565b6109ac816109a68454610902565b8461093a565b6020601f8211600181146109de575f83156109c75750848201515b5f19600385901b1c1916600184901b178455610698565b5f84815260208120601f198516915b82811015610a0d57878501518255602094850194600190920191016109ed565b5084821015610a2a57868401515f19600387901b60f8161c191681555b50505050600190811b01905550565b67ffffffffffffffff831115610a5157610a516108c6565b610a6583610a5f8354610902565b8361093a565b5f601f841160018114610a96575f8515610a7f5750838201355b5f19600387901b1c1916600186901b178355610698565b5f83815260208120601f198716915b82811015610ac55786850135825560209485019460019092019101610aa5565b5086821015610ae1575f1960f88860031b161c19848701351681555b505060018560011b018355505050505056fea26469706673582212205754eece7b9e47df033f5c967d9f793de369d82013be0161db1f5a0d0b77d13564736f6c634300081a0033",
  "linkReferences": {},
  "deployedLinkReferences": {}
}