{
  "_format": "hh-sol-artifact-1",
  "contractName": "UserRegistry",
  "sourceName": "contracts/PracticeMiddle/UserRegistry.sol",
  "abi": [
    {
      "inputs": [
        {
          "internalType": "uint8",
          "name": "_flagIndex",
          "type": "uint8"
        }
      ],
      "name": "getFlag",
      "outputs": [
        {
          "internalType": "bool",
          "name": "",
          "type": "bool"
        }
      ],
      "stateMutability": "view",
      "type": "function"
    },
    {
      "inputs": [
        {
          "internalType": "address",
          "name": "_userAddress",
          "type": "address"
        }
      ],
      "name": "getUser",
      "outputs": [
        {
          "components": [
            {
              "internalType": "string",
              "name": "name",
              "type": "string"
            },
            {
              "internalType": "uint8",
              "name": "age",
              "type": "uint8"
            },
            {
              "internalType": "bool",
              "name": "isActive",
              "type": "bool"
            },
            {
              "internalType": "uint256",
              "name": "flags",
              "type": "uint256"
            }
          ],
          "internalType": "struct UserRegistry.User",
          "name": "user",
          "type": "tuple"
        }
      ],
      "stateMutability": "view",
      "type": "function"
    },
    {
      "inputs": [
        {
          "internalType": "string",
          "name": "_name",
          "type": "string"
        },
        {
          "internalType": "uint8",
          "name": "_age",
          "type": "uint8"
        }
      ],
      "name": "registerUser",
      "outputs": [],
      "stateMutability": "nonpayable",
      "type": "function"
    },
    {
      "inputs": [
        {
          "internalType": "uint8",
          "name": "_flagIndex",
          "type": "uint8"
        },
        {
          "internalType": "bool",
          "name": "_value",
          "type": "bool"
        }
      ],
      "name": "setFlag",
      "outputs": [],
      "stateMutability": "nonpayable",
      "type": "function"
    },
    {
      "inputs": [
        {
          "internalType": "address",
          "name": "",
          "type": "address"
        }
      ],
      "name": "users",
      "outputs": [
        {
          "internalType": "string",
          "name": "name",
          "type": "string"
        },
        {
          "internalType": "uint8",
          "name": "age",
          "type": "uint8"
        },
        {
          "internalType": "bool",
          "name": "isActive",
          "type": "bool"
        },
        {
          "internalType": "uint256",
          "name": "flags",
          "type": "uint256"
        }
      ],
      "stateMutability": "view",
      "type": "function"
    }
  ],
  "bytecode": "0x6080604052348015600e575f80fd5b5061078e8061001c5f395ff3fe608060405234801561000f575f80fd5b5060043610610064575f3560e01c806387e637421161004d57806387e63742146100a6578063a87430ba146100e7578063fb9e3a3b1461010a575f80fd5b8063338e12eb146100685780636f77926b1461007d575b5f80fd5b61007b610076366004610406565b61011d565b005b61009061008b3660046104cb565b6101b8565b60405161009d9190610533565b60405180910390f35b6100d76100b436600461057d565b335f90815260208190526040902060020154600160ff9092169190911b16151590565b604051901515815260200161009d565b6100fa6100f53660046104cb565b6102c7565b60405161009d9493929190610596565b61007b6101183660046105c7565b61037b565b6040805160808101825283815260ff83166020808301919091525f8284018190526060830181905233815290819052919091208151819061015e908261069d565b50602082015160018201805460408501511515610100027fffffffffffffffffffffffffffffffffffffffffffffffffffffffffffff000090911660ff909316929092179190911790556060909101516002909101555050565b6040805160808101825260608082525f6020830181905292820183905281019190915273ffffffffffffffffffffffffffffffffffffffff82165f908152602081905260409081902081516080810190925280548290829061021990610600565b80601f016020809104026020016040519081016040528092919081815260200182805461024590610600565b80156102905780601f1061026757610100808354040283529160200191610290565b820191905f5260205f20905b81548152906001019060200180831161027357829003601f168201915b5050509183525050600182015460ff8082166020840152610100909104161515604082015260029091015460609091015292915050565b5f602081905290815260409020805481906102e190610600565b80601f016020809104026020016040519081016040528092919081815260200182805461030d90610600565b80156103585780601f1061032f57610100808354040283529160200191610358565b820191905f5260205f20905b81548152906001019060200180831161033b57829003601f168201915b505050506001830154600290930154919260ff8082169361010090920416915084565b80156103a257335f9081526020819052604090206002018054600160ff85161b1790555050565b335f9081526020819052604090206002018054600160ff85161b191690555050565b7f4e487b71000000000000000000000000000000000000000000000000000000005f52604160045260245ffd5b803560ff81168114610401575f80fd5b919050565b5f8060408385031215610417575f80fd5b823567ffffffffffffffff81111561042d575f80fd5b8301601f8101851361043d575f80fd5b803567ffffffffffffffff811115610457576104576103c4565b604051601f19603f601f19601f8501160116810181811067ffffffffffffffff82111715610487576104876103c4565b60405281815282820160200187101561049e575f80fd5b816020840160208301375f602083830101528094505050506104c2602084016103f1565b90509250929050565b5f602082840312156104db575f80fd5b813573ffffffffffffffffffffffffffffffffffffffff811681146104fe575f80fd5b9392505050565b5f81518084528060208401602086015e5f602082860101526020601f19601f83011685010191505092915050565b602081525f82516080602084015261054e60a0840182610505565b905060ff6020850151166040840152604084015115156060840152606084015160808401528091505092915050565b5f6020828403121561058d575f80fd5b6104fe826103f1565b608081525f6105a86080830187610505565b60ff959095166020830152509115156040830152606090910152919050565b5f80604083850312156105d8575f80fd5b6105e1836103f1565b9150602083013580151581146105f5575f80fd5b809150509250929050565b600181811c9082168061061457607f821691505b60208210810361064b577f4e487b71000000000000000000000000000000000000000000000000000000005f52602260045260245ffd5b50919050565b601f82111561069857805f5260205f20601f840160051c810160208510156106765750805b601f840160051c820191505b81811015610695575f8155600101610682565b50505b505050565b815167ffffffffffffffff8111156106b7576106b76103c4565b6106cb816106c58454610600565b84610651565b6020601f8211600181146106fd575f83156106e65750848201515b5f19600385901b1c1916600184901b178455610695565b5f84815260208120601f198516915b8281101561072c578785015182556020948501946001909201910161070c565b508482101561074957868401515f19600387901b60f8161c191681555b50505050600190811b0190555056fea26469706673582212207baf138420203d1fb0f920cb98985ecc11bc683ae3139fd93d6c73d8ef7b8a2864736f6c634300081a0033",
  "linkReferences": {},
  "deployedLinkReferences": {}
}