{
  "_format": "hh-sol-artifact-1",
  "contractName": "Power",
  "sourceName": "contracts/practice-middle/Power.sol",
  "abi": [
    {
      "inputs": [
        {
          "internalType": "uint256",
          "name": "base",
          "type": "uint256"
        },
        {
          "internalType": "uint256",
          "name": "exponent",
          "type": "uint256"
        }
      ],
      "name": "pow",
      "outputs": [
        {
          "internalType": "uint256",
          "name": "result",
          "type": "uint256"
        }
      ],
      "stateMutability": "pure",
      "type": "function"
    }
  ],
  "bytecode": "0x6080604052348015600e575f80fd5b5061010e8061001c5f395ff3fe6080604052348015600e575f80fd5b50600436106026575f3560e01c80632e4c697f14602a575b5f80fd5b60396035366004607e565b604b565b60405190815260200160405180910390f35b5f815f036059575060016078565b5060015f5b82811015607657606d8483609d565b9150600101605e565b505b92915050565b5f8060408385031215608e575f80fd5b50508035926020909101359150565b80820281158282048414176078577f4e487b71000000000000000000000000000000000000000000000000000000005f52601160045260245ffdfea2646970667358221220e3cc9033325158ebc6921eb8a493d54fe2ea5fed84e79c0f63a59aa7f22ea63b64736f6c634300081a0033",
  "linkReferences": {},
  "deployedLinkReferences": {}
}