{
  "_format": "hh-sol-artifact-1",
  "contractName": "ContractThree",
  "sourceName": "contracts/PracticeModule1/LessonDlegateCallAdditionally.sol",
  "abi": [
    {
      "inputs": [
        {
          "internalType": "uint256",
          "name": "a",
          "type": "uint256"
        },
        {
          "internalType": "uint256",
          "name": "b",
          "type": "uint256"
        }
      ],
      "name": "doCalculation",
      "outputs": [
        {
          "internalType": "uint256",
          "name": "",
          "type": "uint256"
        }
      ],
      "stateMutability": "nonpayable",
      "type": "function"
    },
    {
      "inputs": [],
      "name": "result",
      "outputs": [
        {
          "internalType": "uint256",
          "name": "",
          "type": "uint256"
        }
      ],
      "stateMutability": "view",
      "type": "function"
    }
  ],
  "bytecode": "0x608060405234801561001057600080fd5b50610104806100206000396000f3fe6080604052348015600f57600080fd5b506004361060325760003560e01c8063653721471460375780639abadad5146051575b600080fd5b603f60005481565b60405190815260200160405180910390f35b603f605c3660046074565b6000606682846095565b600081905590505b92915050565b60008060408385031215608657600080fd5b50508035926020909101359150565b80820180821115606e577f4e487b7100000000000000000000000000000000000000000000000000000000600052601160045260246000fdfea26469706673582212204f37b8d936025e0baea41b542ffd3e1a7cdb7c86e587debc9b668385f058cc4164736f6c63430008140033",
  "linkReferences": {},
  "deployedLinkReferences": {}
}