{
  "_format": "hh-sol-artifact-1",
  "contractName": "Module1Lesson2",
  "sourceName": "contracts/PracticeModule1/Module1Lesson2-2.sol",
  "abi": [
    {
      "inputs": [],
      "name": "myAddr",
      "outputs": [
        {
          "internalType": "address",
          "name": "",
          "type": "address"
        }
      ],
      "stateMutability": "view",
      "type": "function"
    },
    {
      "inputs": [],
      "name": "text",
      "outputs": [
        {
          "internalType": "string",
          "name": "",
          "type": "string"
        }
      ],
      "stateMutability": "view",
      "type": "function"
    }
  ],
  "bytecode": "0x600080546001600160a01b031916735b38da6a701c568545dcfcb03fcb875f56beddc417905560c0604052600c60809081526b48656c6c6f20776f726c642160a01b60a0526002906100519082610103565b5034801561005e57600080fd5b506101c2565b634e487b7160e01b600052604160045260246000fd5b600181811c9082168061008e57607f821691505b6020821081036100ae57634e487b7160e01b600052602260045260246000fd5b50919050565b601f8211156100fe57600081815260208120601f850160051c810160208610156100db5750805b601f850160051c820191505b818110156100fa578281556001016100e7565b5050505b505050565b81516001600160401b0381111561011c5761011c610064565b6101308161012a845461007a565b846100b4565b602080601f831160018114610165576000841561014d5750858301515b600019600386901b1c1916600185901b1785556100fa565b600085815260208120601f198616915b8281101561019457888601518255948401946001909101908401610175565b50858210156101b25787850151600019600388901b60f8161c191681555b5050505050600190811b01905550565b610221806101d16000396000f3fe608060405234801561001057600080fd5b50600436106100365760003560e01c80631f1bd6921461003b578063e665b26614610059575b600080fd5b61004361009e565b604051610050919061012c565b60405180910390f35b6000546100799073ffffffffffffffffffffffffffffffffffffffff1681565b60405173ffffffffffffffffffffffffffffffffffffffff9091168152602001610050565b600280546100ab90610198565b80601f01602080910402602001604051908101604052809291908181526020018280546100d790610198565b80156101245780601f106100f957610100808354040283529160200191610124565b820191906000526020600020905b81548152906001019060200180831161010757829003601f168201915b505050505081565b600060208083528351808285015260005b818110156101595785810183015185820160400152820161013d565b5060006040828601015260407fffffffffffffffffffffffffffffffffffffffffffffffffffffffffffffffe0601f8301168501019250505092915050565b600181811c908216806101ac57607f821691505b6020821081036101e5577f4e487b7100000000000000000000000000000000000000000000000000000000600052602260045260246000fd5b5091905056fea2646970667358221220b15aae81b6af0550b35a278945dfdd14a3a4b41907408d8dc051e382753736f564736f6c63430008140033",
  "linkReferences": {},
  "deployedLinkReferences": {}
}