{
  "_format": "hh-sol-artifact-1",
  "contractName": "Module1Lesson2",
  "sourceName": "contracts/PracticeModule1/Module1Lesson2-2.sol",
  "abi": [
    {
      "inputs": [],
      "name": "myAddr",
      "outputs": [
        {
          "internalType": "address",
          "name": "",
          "type": "address"
        }
      ],
      "stateMutability": "view",
      "type": "function"
    },
    {
      "inputs": [],
      "name": "text",
      "outputs": [
        {
          "internalType": "string",
          "name": "",
          "type": "string"
        }
      ],
      "stateMutability": "view",
      "type": "function"
    }
  ],
  "bytecode": "0x5f80546001600160a01b031916735b38da6a701c568545dcfcb03fcb875f56beddc417905560c0604052600c60809081526b48656c6c6f20776f726c642160a01b60a05260029061005090826100fa565b5034801561005c575f80fd5b506101b4565b634e487b7160e01b5f52604160045260245ffd5b600181811c9082168061008a57607f821691505b6020821081036100a857634e487b7160e01b5f52602260045260245ffd5b50919050565b601f8211156100f557805f5260205f20601f840160051c810160208510156100d35750805b601f840160051c820191505b818110156100f2575f81556001016100df565b50505b505050565b81516001600160401b0381111561011357610113610062565b610127816101218454610076565b846100ae565b6020601f821160018114610159575f83156101425750848201515b5f19600385901b1c1916600184901b1784556100f2565b5f84815260208120601f198516915b828110156101885787850151825560209485019460019092019101610168565b50848210156101a557868401515f19600387901b60f8161c191681555b50505050600190811b01905550565b610200806101c15f395ff3fe608060405234801561000f575f80fd5b5060043610610034575f3560e01c80631f1bd69214610038578063e665b26614610056575b5f80fd5b61004061009a565b60405161004d9190610126565b60405180910390f35b5f546100759073ffffffffffffffffffffffffffffffffffffffff1681565b60405173ffffffffffffffffffffffffffffffffffffffff909116815260200161004d565b600280546100a790610179565b80601f01602080910402602001604051908101604052809291908181526020018280546100d390610179565b801561011e5780601f106100f55761010080835404028352916020019161011e565b820191905f5260205f20905b81548152906001019060200180831161010157829003601f168201915b505050505081565b602081525f82518060208401528060208501604085015e5f6040828501015260407fffffffffffffffffffffffffffffffffffffffffffffffffffffffffffffffe0601f83011684010191505092915050565b600181811c9082168061018d57607f821691505b6020821081036101c4577f4e487b71000000000000000000000000000000000000000000000000000000005f52602260045260245ffd5b5091905056fea26469706673582212208dfdcad0bd3ae69522afcd3bcc567e7e805fb81827c8f2cb4ba6b9fde1acb8f364736f6c634300081a0033",
  "linkReferences": {},
  "deployedLinkReferences": {}
}