{
	"Lesson15ResultsOfTheWeek.sol": {
		"Lesson15": {
			"abi": [
				{
					"inputs": [
						{
							"internalType": "uint256",
							"name": "",
							"type": "uint256"
						}
					],
					"name": "arr",
					"outputs": [
						{
							"internalType": "uint256",
							"name": "",
							"type": "uint256"
						}
					],
					"stateMutability": "view",
					"type": "function"
				},
				{
					"inputs": [
						{
							"internalType": "uint256",
							"name": "",
							"type": "uint256"
						}
					],
					"name": "arr2",
					"outputs": [
						{
							"internalType": "uint256",
							"name": "",
							"type": "uint256"
						}
					],
					"stateMutability": "view",
					"type": "function"
				},
				{
					"inputs": [],
					"name": "dec",
					"outputs": [
						{
							"internalType": "uint256",
							"name": "",
							"type": "uint256"
						}
					],
					"stateMutability": "nonpayable",
					"type": "function"
				},
				{
					"inputs": [
						{
							"internalType": "address",
							"name": "_addr",
							"type": "address"
						}
					],
					"name": "delAddr",
					"outputs": [],
					"stateMutability": "nonpayable",
					"type": "function"
				},
				{
					"inputs": [],
					"name": "examplesArr",
					"outputs": [],
					"stateMutability": "pure",
					"type": "function"
				},
				{
					"inputs": [
						{
							"internalType": "uint256",
							"name": "i",
							"type": "uint256"
						}
					],
					"name": "get",
					"outputs": [
						{
							"internalType": "uint256",
							"name": "",
							"type": "uint256"
						}
					],
					"stateMutability": "view",
					"type": "function"
				},
				{
					"inputs": [
						{
							"internalType": "address",
							"name": "newAddr",
							"type": "address"
						}
					],
					"name": "getAddr",
					"outputs": [
						{
							"internalType": "uint256",
							"name": "",
							"type": "uint256"
						}
					],
					"stateMutability": "view",
					"type": "function"
				},
				{
					"inputs": [],
					"name": "getArr",
					"outputs": [
						{
							"internalType": "uint256[]",
							"name": "",
							"type": "uint256[]"
						}
					],
					"stateMutability": "view",
					"type": "function"
				},
				{
					"inputs": [
						{
							"internalType": "bool",
							"name": "_argBool",
							"type": "bool"
						}
					],
					"name": "getBoolFour",
					"outputs": [
						{
							"internalType": "bool",
							"name": "",
							"type": "bool"
						}
					],
					"stateMutability": "view",
					"type": "function"
				},
				{
					"inputs": [
						{
							"internalType": "bool",
							"name": "_argBool",
							"type": "bool"
						}
					],
					"name": "getBoolOne",
					"outputs": [
						{
							"internalType": "bool",
							"name": "",
							"type": "bool"
						}
					],
					"stateMutability": "view",
					"type": "function"
				},
				{
					"inputs": [
						{
							"internalType": "bool",
							"name": "_argBool",
							"type": "bool"
						}
					],
					"name": "getBoolThreee",
					"outputs": [
						{
							"internalType": "bool",
							"name": "",
							"type": "bool"
						}
					],
					"stateMutability": "view",
					"type": "function"
				},
				{
					"inputs": [
						{
							"internalType": "bool",
							"name": "_argBool",
							"type": "bool"
						}
					],
					"name": "getBoolTwo",
					"outputs": [
						{
							"internalType": "bool",
							"name": "",
							"type": "bool"
						}
					],
					"stateMutability": "view",
					"type": "function"
				},
				{
					"inputs": [],
					"name": "getEnum",
					"outputs": [
						{
							"internalType": "enum Lesson15.Status",
							"name": "",
							"type": "uint8"
						}
					],
					"stateMutability": "view",
					"type": "function"
				},
				{
					"inputs": [],
					"name": "getLengthArr",
					"outputs": [
						{
							"internalType": "uint256",
							"name": "",
							"type": "uint256"
						}
					],
					"stateMutability": "view",
					"type": "function"
				},
				{
					"inputs": [
						{
							"internalType": "address",
							"name": "_addr",
							"type": "address"
						},
						{
							"internalType": "uint256",
							"name": "_balance",
							"type": "uint256"
						}
					],
					"name": "getPayments",
					"outputs": [
						{
							"internalType": "bool",
							"name": "",
							"type": "bool"
						}
					],
					"stateMutability": "view",
					"type": "function"
				},
				{
					"inputs": [],
					"name": "inc",
					"outputs": [
						{
							"internalType": "uint256",
							"name": "",
							"type": "uint256"
						}
					],
					"stateMutability": "view",
					"type": "function"
				},
				{
					"inputs": [],
					"name": "myAddr",
					"outputs": [
						{
							"internalType": "address",
							"name": "",
							"type": "address"
						}
					],
					"stateMutability": "view",
					"type": "function"
				},
				{
					"inputs": [],
					"name": "myBool",
					"outputs": [
						{
							"internalType": "bool",
							"name": "",
							"type": "bool"
						}
					],
					"stateMutability": "view",
					"type": "function"
				},
				{
					"inputs": [
						{
							"internalType": "uint256",
							"name": "",
							"type": "uint256"
						}
					],
					"name": "myFixedSizeArray",
					"outputs": [
						{
							"internalType": "uint256",
							"name": "",
							"type": "uint256"
						}
					],
					"stateMutability": "view",
					"type": "function"
				},
				{
					"inputs": [],
					"name": "myStr",
					"outputs": [
						{
							"internalType": "string",
							"name": "",
							"type": "string"
						}
					],
					"stateMutability": "view",
					"type": "function"
				},
				{
					"inputs": [],
					"name": "myVar",
					"outputs": [
						{
							"internalType": "uint256",
							"name": "",
							"type": "uint256"
						}
					],
					"stateMutability": "view",
					"type": "function"
				},
				{
					"inputs": [],
					"name": "ovwerFlow",
					"outputs": [
						{
							"internalType": "uint256",
							"name": "",
							"type": "uint256"
						}
					],
					"stateMutability": "nonpayable",
					"type": "function"
				},
				{
					"inputs": [
						{
							"internalType": "address",
							"name": "",
							"type": "address"
						},
						{
							"internalType": "uint256",
							"name": "",
							"type": "uint256"
						}
					],
					"name": "payments",
					"outputs": [
						{
							"internalType": "bool",
							"name": "",
							"type": "bool"
						}
					],
					"stateMutability": "view",
					"type": "function"
				},
				{
					"inputs": [],
					"name": "popArr",
					"outputs": [],
					"stateMutability": "nonpayable",
					"type": "function"
				},
				{
					"inputs": [
						{
							"internalType": "uint256",
							"name": "i",
							"type": "uint256"
						}
					],
					"name": "pushArr",
					"outputs": [],
					"stateMutability": "nonpayable",
					"type": "function"
				},
				{
					"inputs": [
						{
							"internalType": "uint256",
							"name": "index",
							"type": "uint256"
						}
					],
					"name": "removeArr",
					"outputs": [],
					"stateMutability": "nonpayable",
					"type": "function"
				},
				{
					"inputs": [
						{
							"internalType": "address",
							"name": "_addr",
							"type": "address"
						},
						{
							"internalType": "uint256",
							"name": "_balance",
							"type": "uint256"
						}
					],
					"name": "setAddr",
					"outputs": [],
					"stateMutability": "nonpayable",
					"type": "function"
				},
				{
					"inputs": [
						{
							"internalType": "address",
							"name": "_addr",
							"type": "address"
						},
						{
							"internalType": "uint256",
							"name": "_balance",
							"type": "uint256"
						},
						{
							"internalType": "bool",
							"name": "_boo",
							"type": "bool"
						}
					],
					"name": "setPayments",
					"outputs": [],
					"stateMutability": "nonpayable",
					"type": "function"
				},
				{
					"inputs": [],
					"name": "status",
					"outputs": [
						{
							"internalType": "enum Lesson15.Status",
							"name": "",
							"type": "uint8"
						}
					],
					"stateMutability": "view",
					"type": "function"
				}
			],
			"devdoc": {
				"kind": "dev",
				"methods": {},
				"version": 1
			},
			"evm": {
				"assembly": "    /* \"Lesson15ResultsOfTheWeek.sol\":60:6701  contract Lesson15 {... */\n  mstore(0x40, 0x80)\n    /* \"Lesson15ResultsOfTheWeek.sol\":1403:1433  uint[] public arr2 = [1, 2, 3] */\n  mload(0x40)\n  dup1\n  0x60\n  add\n  0x40\n  mstore\n  dup1\n    /* \"Lesson15ResultsOfTheWeek.sol\":1425:1426  1 */\n  0x01\n    /* \"Lesson15ResultsOfTheWeek.sol\":1403:1433  uint[] public arr2 = [1, 2, 3] */\n  0xff\n  and\n  dup2\n  mstore\n  0x20\n  add\n    /* \"Lesson15ResultsOfTheWeek.sol\":1428:1429  2 */\n  0x02\n    /* \"Lesson15ResultsOfTheWeek.sol\":1403:1433  uint[] public arr2 = [1, 2, 3] */\n  0xff\n  and\n  dup2\n  mstore\n  0x20\n  add\n    /* \"Lesson15ResultsOfTheWeek.sol\":1431:1432  3 */\n  0x03\n    /* \"Lesson15ResultsOfTheWeek.sol\":1403:1433  uint[] public arr2 = [1, 2, 3] */\n  0xff\n  and\n  dup2\n  mstore\n  pop\n  0x0d\n  swap1\n  0x03\n  tag_1\n  swap3\n  swap2\n  swap1\n  tag_2\n  jump\t// in\ntag_1:\n  pop\n    /* \"Lesson15ResultsOfTheWeek.sol\":60:6701  contract Lesson15 {... */\n  callvalue\n  dup1\n  iszero\n  tag_3\n  jumpi\n  0x00\n  dup1\n  revert\ntag_3:\n  pop\n  jump(tag_4)\ntag_2:\n  dup3\n  dup1\n  sload\n  dup3\n  dup3\n  sstore\n  swap1\n  0x00\n  mstore\n  keccak256(0x00, 0x20)\n  swap1\n  dup2\n  add\n  swap3\n  dup3\n  iszero\n  tag_5\n  jumpi\n  swap2\n  0x20\n  mul\n  dup3\n  add\ntag_6:\n  dup3\n  dup2\n  gt\n  iszero\n  tag_7\n  jumpi\n  dup3\n  mload\n  dup3\n  swap1\n  0xff\n  and\n  swap1\n  sstore\n  swap2\n  0x20\n  add\n  swap2\n  swap1\n  0x01\n  add\n  swap1\n  jump(tag_6)\ntag_7:\ntag_5:\n  pop\n  swap1\n  pop\n  tag_8\n  swap2\n  swap1\n  tag_9\n  jump\t// in\ntag_8:\n  pop\n  swap1\n  jump\t// out\ntag_9:\ntag_10:\n  dup1\n  dup3\n  gt\n  iszero\n  tag_11\n  jumpi\n  0x00\n  dup2\n  0x00\n  swap1\n  sstore\n  pop\n  0x01\n  add\n  jump(tag_10)\ntag_11:\n  pop\n  swap1\n  jump\t// out\ntag_4:\n  dataSize(sub_0)\n  dup1\n  dataOffset(sub_0)\n  0x00\n  codecopy\n  0x00\n  return\nstop\n\nsub_0: assembly {\n        /* \"Lesson15ResultsOfTheWeek.sol\":60:6701  contract Lesson15 {... */\n      mstore(0x40, 0x80)\n      callvalue\n      dup1\n      iszero\n      tag_1\n      jumpi\n      0x00\n      dup1\n      revert\n    tag_1:\n      pop\n      jumpi(tag_2, lt(calldatasize, 0x04))\n      shr(0xe0, calldataload(0x00))\n      dup1\n      0x9507d39a\n      gt\n      tag_32\n      jumpi\n      dup1\n      0xe5860d12\n      gt\n      tag_33\n      jumpi\n      dup1\n      0xf0ebce5a\n      gt\n      tag_34\n      jumpi\n      dup1\n      0xf0ebce5a\n      eq\n      tag_28\n      jumpi\n      dup1\n      0xf10a31a1\n      eq\n      tag_29\n      jumpi\n      dup1\n      0xfaf264bb\n      eq\n      tag_30\n      jumpi\n      dup1\n      0xfb8cbced\n      eq\n      tag_31\n      jumpi\n      jump(tag_2)\n    tag_34:\n      dup1\n      0xe5860d12\n      eq\n      tag_24\n      jumpi\n      dup1\n      0xe665b266\n      eq\n      tag_25\n      jumpi\n      dup1\n      0xe784f5b1\n      eq\n      tag_26\n      jumpi\n      dup1\n      0xedf0099b\n      eq\n      tag_27\n      jumpi\n      jump(tag_2)\n    tag_33:\n      dup1\n      0xb3bcfa82\n      gt\n      tag_35\n      jumpi\n      dup1\n      0xb3bcfa82\n      eq\n      tag_20\n      jumpi\n      dup1\n      0xb4108a94\n      eq\n      tag_21\n      jumpi\n      dup1\n      0xb620df2a\n      eq\n      tag_22\n      jumpi\n      dup1\n      0xc6b91540\n      eq\n      tag_23\n      jumpi\n      jump(tag_2)\n    tag_35:\n      dup1\n      0x9507d39a\n      eq\n      tag_17\n      jumpi\n      dup1\n      0xa4d396ca\n      eq\n      tag_18\n      jumpi\n      dup1\n      0xab63385c\n      eq\n      tag_19\n      jumpi\n      jump(tag_2)\n    tag_32:\n      dup1\n      0x4620b023\n      gt\n      tag_36\n      jumpi\n      dup1\n      0x6deecdbe\n      gt\n      tag_37\n      jumpi\n      dup1\n      0x6deecdbe\n      eq\n      tag_13\n      jumpi\n      dup1\n      0x701b3305\n      eq\n      tag_14\n      jumpi\n      dup1\n      0x71e5ee5f\n      eq\n      tag_15\n      jumpi\n      dup1\n      0x7a9632a8\n      eq\n      tag_16\n      jumpi\n      jump(tag_2)\n    tag_37:\n      dup1\n      0x4620b023\n      eq\n      tag_10\n      jumpi\n      dup1\n      0x4bfec157\n      eq\n      tag_11\n      jumpi\n      dup1\n      0x5a455c1c\n      eq\n      tag_12\n      jumpi\n      jump(tag_2)\n    tag_36:\n      dup1\n      0x200d2ed2\n      gt\n      tag_38\n      jumpi\n      dup1\n      0x200d2ed2\n      eq\n      tag_6\n      jumpi\n      dup1\n      0x235211f1\n      eq\n      tag_7\n      jumpi\n      dup1\n      0x28f2d6cd\n      eq\n      tag_8\n      jumpi\n      dup1\n      0x371303c0\n      eq\n      tag_9\n      jumpi\n      jump(tag_2)\n    tag_38:\n      dup1\n      0xd77e89\n      eq\n      tag_3\n      jumpi\n      dup1\n      0x02899203\n      eq\n      tag_4\n      jumpi\n      dup1\n      0x1c657043\n      eq\n      tag_5\n      jumpi\n    tag_2:\n      0x00\n      dup1\n      revert\n        /* \"Lesson15ResultsOfTheWeek.sol\":2263:2386  function getBoolTwo(bool _argBool) external view returns (bool) {... */\n    tag_3:\n      tag_39\n      0x04\n      dup1\n      calldatasize\n      sub\n      dup2\n      add\n      swap1\n      tag_40\n      swap2\n      swap1\n      tag_41\n      jump\t// in\n    tag_40:\n      tag_42\n      jump\t// in\n    tag_39:\n      mload(0x40)\n      tag_43\n      swap2\n      swap1\n      tag_44\n      jump\t// in\n    tag_43:\n      mload(0x40)\n      dup1\n      swap2\n      sub\n      swap1\n      return\n        /* \"Lesson15ResultsOfTheWeek.sol\":5620:5820  function popArr() public {... */\n    tag_4:\n      tag_45\n      tag_46\n      jump\t// in\n    tag_45:\n      stop\n        /* \"Lesson15ResultsOfTheWeek.sol\":5976:6178  function removeArr(uint index) public {... */\n    tag_5:\n      tag_47\n      0x04\n      dup1\n      calldatasize\n      sub\n      dup2\n      add\n      swap1\n      tag_48\n      swap2\n      swap1\n      tag_49\n      jump\t// in\n    tag_48:\n      tag_50\n      jump\t// in\n    tag_47:\n      stop\n        /* \"Lesson15ResultsOfTheWeek.sol\":424:444  Status public status */\n    tag_6:\n      tag_51\n      tag_52\n      jump\t// in\n    tag_51:\n      mload(0x40)\n      tag_53\n      swap2\n      swap1\n      tag_54\n      jump\t// in\n    tag_53:\n      mload(0x40)\n      dup1\n      swap2\n      sub\n      swap1\n      return\n        /* \"Lesson15ResultsOfTheWeek.sol\":2607:2733  function getBoolThreee(bool _argBool) external view returns (bool) {... */\n    tag_7:\n      tag_55\n      0x04\n      dup1\n      calldatasize\n      sub\n      dup2\n      add\n      swap1\n      tag_56\n      swap2\n      swap1\n      tag_41\n      jump\t// in\n    tag_56:\n      tag_57\n      jump\t// in\n    tag_55:\n      mload(0x40)\n      tag_58\n      swap2\n      swap1\n      tag_44\n      jump\t// in\n    tag_58:\n      mload(0x40)\n      dup1\n      swap2\n      sub\n      swap1\n      return\n        /* \"Lesson15ResultsOfTheWeek.sol\":4399:4685  function getPayments(address _addr, uint _balance) public view returns (bool) {... */\n    tag_8:\n      tag_59\n      0x04\n      dup1\n      calldatasize\n      sub\n      dup2\n      add\n      swap1\n      tag_60\n      swap2\n      swap1\n      tag_61\n      jump\t// in\n    tag_60:\n      tag_62\n      jump\t// in\n    tag_59:\n      mload(0x40)\n      tag_63\n      swap2\n      swap1\n      tag_44\n      jump\t// in\n    tag_63:\n      mload(0x40)\n      dup1\n      swap2\n      sub\n      swap1\n      return\n        /* \"Lesson15ResultsOfTheWeek.sol\":3239:3332  function inc() external view returns (uint256) {... */\n    tag_9:\n      tag_64\n      tag_65\n      jump\t// in\n    tag_64:\n      mload(0x40)\n      tag_66\n      swap2\n      swap1\n      tag_67\n      jump\t// in\n    tag_66:\n      mload(0x40)\n      dup1\n      swap2\n      sub\n      swap1\n      return\n        /* \"Lesson15ResultsOfTheWeek.sol\":1542:1574  uint[10] public myFixedSizeArray */\n    tag_10:\n      tag_68\n      0x04\n      dup1\n      calldatasize\n      sub\n      dup2\n      add\n      swap1\n      tag_69\n      swap2\n      swap1\n      tag_49\n      jump\t// in\n    tag_69:\n      tag_70\n      jump\t// in\n    tag_68:\n      mload(0x40)\n      tag_71\n      swap2\n      swap1\n      tag_67\n      jump\t// in\n    tag_71:\n      mload(0x40)\n      dup1\n      swap2\n      sub\n      swap1\n      return\n        /* \"Lesson15ResultsOfTheWeek.sol\":5402:5612  function pushArr(uint i) public {... */\n    tag_11:\n      tag_72\n      0x04\n      dup1\n      calldatasize\n      sub\n      dup2\n      add\n      swap1\n      tag_73\n      swap2\n      swap1\n      tag_49\n      jump\t// in\n    tag_73:\n      tag_74\n      jump\t// in\n    tag_72:\n      stop\n        /* \"Lesson15ResultsOfTheWeek.sol\":696:715  string public myStr */\n    tag_12:\n      tag_75\n      tag_76\n      jump\t// in\n    tag_75:\n      mload(0x40)\n      tag_77\n      swap2\n      swap1\n      tag_78\n      jump\t// in\n    tag_77:\n      mload(0x40)\n      dup1\n      swap2\n      sub\n      swap1\n      return\n        /* \"Lesson15ResultsOfTheWeek.sol\":875:893  bool public myBool */\n    tag_13:\n      tag_79\n      tag_80\n      jump\t// in\n    tag_79:\n      mload(0x40)\n      tag_81\n      swap2\n      swap1\n      tag_44\n      jump\t// in\n    tag_81:\n      mload(0x40)\n      dup1\n      swap2\n      sub\n      swap1\n      return\n        /* \"Lesson15ResultsOfTheWeek.sol\":4693:4813  function setPayments(address _addr, uint _balance, bool _boo) public {... */\n    tag_14:\n      tag_82\n      0x04\n      dup1\n      calldatasize\n      sub\n      dup2\n      add\n      swap1\n      tag_83\n      swap2\n      swap1\n      tag_84\n      jump\t// in\n    tag_83:\n      tag_85\n      jump\t// in\n    tag_82:\n      stop\n        /* \"Lesson15ResultsOfTheWeek.sol\":1379:1396  uint[] public arr */\n    tag_15:\n      tag_86\n      0x04\n      dup1\n      calldatasize\n      sub\n      dup2\n      add\n      swap1\n      tag_87\n      swap2\n      swap1\n      tag_49\n      jump\t// in\n    tag_87:\n      tag_88\n      jump\t// in\n    tag_86:\n      mload(0x40)\n      tag_89\n      swap2\n      swap1\n      tag_67\n      jump\t// in\n    tag_89:\n      mload(0x40)\n      dup1\n      swap2\n      sub\n      swap1\n      return\n        /* \"Lesson15ResultsOfTheWeek.sol\":3622:3713  function ovwerFlow() external returns (uint256) {... */\n    tag_16:\n      tag_90\n      tag_91\n      jump\t// in\n    tag_90:\n      mload(0x40)\n      tag_92\n      swap2\n      swap1\n      tag_67\n      jump\t// in\n    tag_92:\n      mload(0x40)\n      dup1\n      swap2\n      sub\n      swap1\n      return\n        /* \"Lesson15ResultsOfTheWeek.sol\":4900:4980  function get(uint i) public view returns (uint) {... */\n    tag_17:\n      tag_93\n      0x04\n      dup1\n      calldatasize\n      sub\n      dup2\n      add\n      swap1\n      tag_94\n      swap2\n      swap1\n      tag_49\n      jump\t// in\n    tag_94:\n      tag_95\n      jump\t// in\n    tag_93:\n      mload(0x40)\n      tag_96\n      swap2\n      swap1\n      tag_67\n      jump\t// in\n    tag_96:\n      mload(0x40)\n      dup1\n      swap2\n      sub\n      swap1\n      return\n        /* \"Lesson15ResultsOfTheWeek.sol\":4073:4239  function setAddr (address _addr, uint _balance) public {... */\n    tag_18:\n      tag_97\n      0x04\n      dup1\n      calldatasize\n      sub\n      dup2\n      add\n      swap1\n      tag_98\n      swap2\n      swap1\n      tag_61\n      jump\t// in\n    tag_98:\n      tag_99\n      jump\t// in\n    tag_97:\n      stop\n        /* \"Lesson15ResultsOfTheWeek.sol\":1254:1313  mapping (address => mapping (uint => bool)) public payments */\n    tag_19:\n      tag_100\n      0x04\n      dup1\n      calldatasize\n      sub\n      dup2\n      add\n      swap1\n      tag_101\n      swap2\n      swap1\n      tag_61\n      jump\t// in\n    tag_101:\n      tag_102\n      jump\t// in\n    tag_100:\n      mload(0x40)\n      tag_103\n      swap2\n      swap1\n      tag_44\n      jump\t// in\n    tag_103:\n      mload(0x40)\n      dup1\n      swap2\n      sub\n      swap1\n      return\n        /* \"Lesson15ResultsOfTheWeek.sol\":3414:3489  function dec() external returns (uint256) {... */\n    tag_20:\n      tag_104\n      tag_105\n      jump\t// in\n    tag_104:\n      mload(0x40)\n      tag_106\n      swap2\n      swap1\n      tag_67\n      jump\t// in\n    tag_106:\n      mload(0x40)\n      dup1\n      swap2\n      sub\n      swap1\n      return\n        /* \"Lesson15ResultsOfTheWeek.sol\":3802:4064  function getAddr(address newAddr) public view returns (uint) {... */\n    tag_21:\n      tag_107\n      0x04\n      dup1\n      calldatasize\n      sub\n      dup2\n      add\n      swap1\n      tag_108\n      swap2\n      swap1\n      tag_109\n      jump\t// in\n    tag_108:\n      tag_110\n      jump\t// in\n    tag_107:\n      mload(0x40)\n      tag_111\n      swap2\n      swap1\n      tag_67\n      jump\t// in\n    tag_111:\n      mload(0x40)\n      dup1\n      swap2\n      sub\n      swap1\n      return\n        /* \"Lesson15ResultsOfTheWeek.sol\":6186:6528  function examplesArr() external pure {... */\n    tag_22:\n      tag_112\n      tag_113\n      jump\t// in\n    tag_112:\n      stop\n        /* \"Lesson15ResultsOfTheWeek.sol\":613:633  uint256 public myVar */\n    tag_23:\n      tag_114\n      tag_115\n      jump\t// in\n    tag_114:\n      mload(0x40)\n      tag_116\n      swap2\n      swap1\n      tag_67\n      jump\t// in\n    tag_116:\n      mload(0x40)\n      dup1\n      swap2\n      sub\n      swap1\n      return\n        /* \"Lesson15ResultsOfTheWeek.sol\":2967:3091  function getBoolFour(bool _argBool) external view returns (bool) {... */\n    tag_24:\n      tag_117\n      0x04\n      dup1\n      calldatasize\n      sub\n      dup2\n      add\n      swap1\n      tag_118\n      swap2\n      swap1\n      tag_41\n      jump\t// in\n    tag_118:\n      tag_119\n      jump\t// in\n    tag_117:\n      mload(0x40)\n      tag_120\n      swap2\n      swap1\n      tag_44\n      jump\t// in\n    tag_120:\n      mload(0x40)\n      dup1\n      swap2\n      sub\n      swap1\n      return\n        /* \"Lesson15ResultsOfTheWeek.sol\":783:804  address public myAddr */\n    tag_25:\n      tag_121\n      tag_122\n      jump\t// in\n    tag_121:\n      mload(0x40)\n      tag_123\n      swap2\n      swap1\n      tag_124\n      jump\t// in\n    tag_123:\n      mload(0x40)\n      dup1\n      swap2\n      sub\n      swap1\n      return\n        /* \"Lesson15ResultsOfTheWeek.sol\":4247:4391  function delAddr(address _addr) public {... */\n    tag_26:\n      tag_125\n      0x04\n      dup1\n      calldatasize\n      sub\n      dup2\n      add\n      swap1\n      tag_126\n      swap2\n      swap1\n      tag_109\n      jump\t// in\n    tag_126:\n      tag_127\n      jump\t// in\n    tag_125:\n      stop\n        /* \"Lesson15ResultsOfTheWeek.sol\":1403:1433  uint[] public arr2 = [1, 2, 3] */\n    tag_27:\n      tag_128\n      0x04\n      dup1\n      calldatasize\n      sub\n      dup2\n      add\n      swap1\n      tag_129\n      swap2\n      swap1\n      tag_49\n      jump\t// in\n    tag_129:\n      tag_130\n      jump\t// in\n    tag_128:\n      mload(0x40)\n      tag_131\n      swap2\n      swap1\n      tag_67\n      jump\t// in\n    tag_131:\n      mload(0x40)\n      dup1\n      swap2\n      sub\n      swap1\n      return\n        /* \"Lesson15ResultsOfTheWeek.sol\":6536:6684  function getEnum() public view returns (Status) {... */\n    tag_28:\n      tag_132\n      tag_133\n      jump\t// in\n    tag_132:\n      mload(0x40)\n      tag_134\n      swap2\n      swap1\n      tag_54\n      jump\t// in\n    tag_134:\n      mload(0x40)\n      dup1\n      swap2\n      sub\n      swap1\n      return\n        /* \"Lesson15ResultsOfTheWeek.sol\":1845:2007  function getBoolOne(bool _argBool) external view returns (bool) {... */\n    tag_29:\n      tag_135\n      0x04\n      dup1\n      calldatasize\n      sub\n      dup2\n      add\n      swap1\n      tag_136\n      swap2\n      swap1\n      tag_41\n      jump\t// in\n    tag_136:\n      tag_137\n      jump\t// in\n    tag_135:\n      mload(0x40)\n      tag_138\n      swap2\n      swap1\n      tag_44\n      jump\t// in\n    tag_138:\n      mload(0x40)\n      dup1\n      swap2\n      sub\n      swap1\n      return\n        /* \"Lesson15ResultsOfTheWeek.sol\":5880:5968  function getLengthArr() public  view returns (uint) {... */\n    tag_30:\n      tag_139\n      tag_140\n      jump\t// in\n    tag_139:\n      mload(0x40)\n      tag_141\n      swap2\n      swap1\n      tag_67\n      jump\t// in\n    tag_141:\n      mload(0x40)\n      dup1\n      swap2\n      sub\n      swap1\n      return\n        /* \"Lesson15ResultsOfTheWeek.sol\":5311:5394  function getArr() public view returns (uint[] memory) {... */\n    tag_31:\n      tag_142\n      tag_143\n      jump\t// in\n    tag_142:\n      mload(0x40)\n      tag_144\n      swap2\n      swap1\n      tag_145\n      jump\t// in\n    tag_144:\n      mload(0x40)\n      dup1\n      swap2\n      sub\n      swap1\n      return\n        /* \"Lesson15ResultsOfTheWeek.sol\":2263:2386  function getBoolTwo(bool _argBool) external view returns (bool) {... */\n    tag_42:\n        /* \"Lesson15ResultsOfTheWeek.sol\":2321:2325  bool */\n      0x00\n        /* \"Lesson15ResultsOfTheWeek.sol\":2355:2363  _argBool */\n      dup2\n        /* \"Lesson15ResultsOfTheWeek.sol\":2345:2363  myBool != _argBool */\n      iszero\n      iszero\n        /* \"Lesson15ResultsOfTheWeek.sol\":2345:2351  myBool */\n      0x09\n      0x14\n      swap1\n      sload\n      swap1\n      0x0100\n      exp\n      swap1\n      div\n      0xff\n      and\n        /* \"Lesson15ResultsOfTheWeek.sol\":2345:2363  myBool != _argBool */\n      iszero\n      iszero\n      sub\n        /* \"Lesson15ResultsOfTheWeek.sol\":2345:2378  myBool != _argBool ? true : false */\n      tag_147\n      jumpi\n        /* \"Lesson15ResultsOfTheWeek.sol\":2373:2378  false */\n      0x00\n        /* \"Lesson15ResultsOfTheWeek.sol\":2345:2378  myBool != _argBool ? true : false */\n      jump(tag_148)\n    tag_147:\n        /* \"Lesson15ResultsOfTheWeek.sol\":2366:2370  true */\n      0x01\n        /* \"Lesson15ResultsOfTheWeek.sol\":2345:2378  myBool != _argBool ? true : false */\n    tag_148:\n        /* \"Lesson15ResultsOfTheWeek.sol\":2338:2378  return myBool != _argBool ? true : false */\n      swap1\n      pop\n        /* \"Lesson15ResultsOfTheWeek.sol\":2263:2386  function getBoolTwo(bool _argBool) external view returns (bool) {... */\n      swap2\n      swap1\n      pop\n      jump\t// out\n        /* \"Lesson15ResultsOfTheWeek.sol\":5620:5820  function popArr() public {... */\n    tag_46:\n        /* \"Lesson15ResultsOfTheWeek.sol\":5803:5806  arr */\n      0x0c\n        /* \"Lesson15ResultsOfTheWeek.sol\":5803:5812  arr.pop() */\n      dup1\n      sload\n      dup1\n      tag_150\n      jumpi\n      tag_151\n      tag_152\n      jump\t// in\n    tag_151:\n    tag_150:\n      0x01\n      swap1\n      sub\n      dup2\n      dup2\n      swap1\n      0x00\n      mstore\n      keccak256(0x00, 0x20)\n      add\n      0x00\n      swap1\n      sstore\n      swap1\n      sstore\n        /* \"Lesson15ResultsOfTheWeek.sol\":5620:5820  function popArr() public {... */\n      jump\t// out\n        /* \"Lesson15ResultsOfTheWeek.sol\":5976:6178  function removeArr(uint index) public {... */\n    tag_50:\n        /* \"Lesson15ResultsOfTheWeek.sol\":6160:6163  arr */\n      0x0c\n        /* \"Lesson15ResultsOfTheWeek.sol\":6164:6169  index */\n      dup2\n        /* \"Lesson15ResultsOfTheWeek.sol\":6160:6170  arr[index] */\n      dup2\n      sload\n      dup2\n      lt\n      tag_155\n      jumpi\n      tag_156\n      tag_157\n      jump\t// in\n    tag_156:\n    tag_155:\n      swap1\n      0x00\n      mstore\n      keccak256(0x00, 0x20)\n      add\n        /* \"Lesson15ResultsOfTheWeek.sol\":6153:6170  delete arr[index] */\n      0x00\n      swap1\n      sstore\n        /* \"Lesson15ResultsOfTheWeek.sol\":5976:6178  function removeArr(uint index) public {... */\n      pop\n      jump\t// out\n        /* \"Lesson15ResultsOfTheWeek.sol\":424:444  Status public status */\n    tag_52:\n      0x00\n      dup1\n      sload\n      swap1\n      0x0100\n      exp\n      swap1\n      div\n      0xff\n      and\n      dup2\n      jump\t// out\n        /* \"Lesson15ResultsOfTheWeek.sol\":2607:2733  function getBoolThreee(bool _argBool) external view returns (bool) {... */\n    tag_57:\n        /* \"Lesson15ResultsOfTheWeek.sol\":2668:2672  bool */\n      0x00\n        /* \"Lesson15ResultsOfTheWeek.sol\":2692:2698  myBool */\n      0x09\n      0x14\n      swap1\n      sload\n      swap1\n      0x0100\n      exp\n      swap1\n      div\n      0xff\n      and\n        /* \"Lesson15ResultsOfTheWeek.sol\":2692:2710  myBool && _argBool */\n      dup1\n      iszero\n      tag_160\n      jumpi\n      pop\n        /* \"Lesson15ResultsOfTheWeek.sol\":2702:2710  _argBool */\n      dup2\n        /* \"Lesson15ResultsOfTheWeek.sol\":2692:2710  myBool && _argBool */\n    tag_160:\n        /* \"Lesson15ResultsOfTheWeek.sol\":2692:2725  myBool && _argBool ? true : false */\n      tag_161\n      jumpi\n        /* \"Lesson15ResultsOfTheWeek.sol\":2720:2725  false */\n      0x00\n        /* \"Lesson15ResultsOfTheWeek.sol\":2692:2725  myBool && _argBool ? true : false */\n      jump(tag_162)\n    tag_161:\n        /* \"Lesson15ResultsOfTheWeek.sol\":2713:2717  true */\n      0x01\n        /* \"Lesson15ResultsOfTheWeek.sol\":2692:2725  myBool && _argBool ? true : false */\n    tag_162:\n        /* \"Lesson15ResultsOfTheWeek.sol\":2685:2725  return myBool && _argBool ? true : false */\n      swap1\n      pop\n        /* \"Lesson15ResultsOfTheWeek.sol\":2607:2733  function getBoolThreee(bool _argBool) external view returns (bool) {... */\n      swap2\n      swap1\n      pop\n      jump\t// out\n        /* \"Lesson15ResultsOfTheWeek.sol\":4399:4685  function getPayments(address _addr, uint _balance) public view returns (bool) {... */\n    tag_62:\n        /* \"Lesson15ResultsOfTheWeek.sol\":4471:4475  bool */\n      0x00\n        /* \"Lesson15ResultsOfTheWeek.sol\":4652:4660  payments */\n      0x0b\n        /* \"Lesson15ResultsOfTheWeek.sol\":4652:4667  payments[_addr] */\n      0x00\n        /* \"Lesson15ResultsOfTheWeek.sol\":4661:4666  _addr */\n      dup5\n        /* \"Lesson15ResultsOfTheWeek.sol\":4652:4667  payments[_addr] */\n      0xffffffffffffffffffffffffffffffffffffffff\n      and\n      0xffffffffffffffffffffffffffffffffffffffff\n      and\n      dup2\n      mstore\n      0x20\n      add\n      swap1\n      dup2\n      mstore\n      0x20\n      add\n      0x00\n      keccak256\n        /* \"Lesson15ResultsOfTheWeek.sol\":4652:4677  payments[_addr][_balance] */\n      0x00\n        /* \"Lesson15ResultsOfTheWeek.sol\":4668:4676  _balance */\n      dup4\n        /* \"Lesson15ResultsOfTheWeek.sol\":4652:4677  payments[_addr][_balance] */\n      dup2\n      mstore\n      0x20\n      add\n      swap1\n      dup2\n      mstore\n      0x20\n      add\n      0x00\n      keccak256\n      0x00\n      swap1\n      sload\n      swap1\n      0x0100\n      exp\n      swap1\n      div\n      0xff\n      and\n        /* \"Lesson15ResultsOfTheWeek.sol\":4645:4677  return payments[_addr][_balance] */\n      swap1\n      pop\n        /* \"Lesson15ResultsOfTheWeek.sol\":4399:4685  function getPayments(address _addr, uint _balance) public view returns (bool) {... */\n      swap3\n      swap2\n      pop\n      pop\n      jump\t// out\n        /* \"Lesson15ResultsOfTheWeek.sol\":3239:3332  function inc() external view returns (uint256) {... */\n    tag_65:\n        /* \"Lesson15ResultsOfTheWeek.sol\":3277:3284  uint256 */\n      0x00\n        /* \"Lesson15ResultsOfTheWeek.sol\":3322:3324  10 */\n      0x0a\n        /* \"Lesson15ResultsOfTheWeek.sol\":985:987  57 */\n      0x39\n        /* \"Lesson15ResultsOfTheWeek.sol\":3305:3310  myVar */\n      sload(0x01)\n        /* \"Lesson15ResultsOfTheWeek.sol\":3305:3318  myVar + FIXED */\n      tag_165\n      swap2\n      swap1\n      tag_166\n      jump\t// in\n    tag_165:\n        /* \"Lesson15ResultsOfTheWeek.sol\":3304:3324  (myVar + FIXED) * 10 */\n      tag_167\n      swap2\n      swap1\n      tag_168\n      jump\t// in\n    tag_167:\n        /* \"Lesson15ResultsOfTheWeek.sol\":3297:3324  return (myVar + FIXED) * 10 */\n      swap1\n      pop\n        /* \"Lesson15ResultsOfTheWeek.sol\":3239:3332  function inc() external view returns (uint256) {... */\n      swap1\n      jump\t// out\n        /* \"Lesson15ResultsOfTheWeek.sol\":1542:1574  uint[10] public myFixedSizeArray */\n    tag_70:\n      0x0e\n      dup2\n      0x0a\n      dup2\n      lt\n      tag_169\n      jumpi\n      0x00\n      dup1\n      revert\n    tag_169:\n      add\n      0x00\n      swap2\n      pop\n      swap1\n      pop\n      sload\n      dup2\n      jump\t// out\n        /* \"Lesson15ResultsOfTheWeek.sol\":5402:5612  function pushArr(uint i) public {... */\n    tag_74:\n        /* \"Lesson15ResultsOfTheWeek.sol\":5593:5596  arr */\n      0x0c\n        /* \"Lesson15ResultsOfTheWeek.sol\":5602:5603  i */\n      dup2\n        /* \"Lesson15ResultsOfTheWeek.sol\":5593:5604  arr.push(i) */\n      swap1\n      dup1\n      0x01\n      dup2\n      sload\n      add\n      dup1\n      dup3\n      sstore\n      dup1\n      swap2\n      pop\n      pop\n      0x01\n      swap1\n      sub\n      swap1\n      0x00\n      mstore\n      keccak256(0x00, 0x20)\n      add\n      0x00\n      swap1\n      swap2\n      swap1\n      swap2\n      swap1\n      swap2\n      pop\n      sstore\n        /* \"Lesson15ResultsOfTheWeek.sol\":5402:5612  function pushArr(uint i) public {... */\n      pop\n      jump\t// out\n        /* \"Lesson15ResultsOfTheWeek.sol\":696:715  string public myStr */\n    tag_76:\n      0x04\n      dup1\n      sload\n      tag_173\n      swap1\n      tag_174\n      jump\t// in\n    tag_173:\n      dup1\n      0x1f\n      add\n      0x20\n      dup1\n      swap2\n      div\n      mul\n      0x20\n      add\n      mload(0x40)\n      swap1\n      dup2\n      add\n      0x40\n      mstore\n      dup1\n      swap3\n      swap2\n      swap1\n      dup2\n      dup2\n      mstore\n      0x20\n      add\n      dup3\n      dup1\n      sload\n      tag_175\n      swap1\n      tag_174\n      jump\t// in\n    tag_175:\n      dup1\n      iszero\n      tag_176\n      jumpi\n      dup1\n      0x1f\n      lt\n      tag_177\n      jumpi\n      0x0100\n      dup1\n      dup4\n      sload\n      div\n      mul\n      dup4\n      mstore\n      swap2\n      0x20\n      add\n      swap2\n      jump(tag_176)\n    tag_177:\n      dup3\n      add\n      swap2\n      swap1\n      0x00\n      mstore\n      keccak256(0x00, 0x20)\n      swap1\n    tag_178:\n      dup2\n      sload\n      dup2\n      mstore\n      swap1\n      0x01\n      add\n      swap1\n      0x20\n      add\n      dup1\n      dup4\n      gt\n      tag_178\n      jumpi\n      dup3\n      swap1\n      sub\n      0x1f\n      and\n      dup3\n      add\n      swap2\n    tag_176:\n      pop\n      pop\n      pop\n      pop\n      pop\n      dup2\n      jump\t// out\n        /* \"Lesson15ResultsOfTheWeek.sol\":875:893  bool public myBool */\n    tag_80:\n      0x09\n      0x14\n      swap1\n      sload\n      swap1\n      0x0100\n      exp\n      swap1\n      div\n      0xff\n      and\n      dup2\n      jump\t// out\n        /* \"Lesson15ResultsOfTheWeek.sol\":4693:4813  function setPayments(address _addr, uint _balance, bool _boo) public {... */\n    tag_85:\n        /* \"Lesson15ResultsOfTheWeek.sol\":4801:4805  _boo */\n      dup1\n        /* \"Lesson15ResultsOfTheWeek.sol\":4773:4781  payments */\n      0x0b\n        /* \"Lesson15ResultsOfTheWeek.sol\":4773:4788  payments[_addr] */\n      0x00\n        /* \"Lesson15ResultsOfTheWeek.sol\":4782:4787  _addr */\n      dup6\n        /* \"Lesson15ResultsOfTheWeek.sol\":4773:4788  payments[_addr] */\n      0xffffffffffffffffffffffffffffffffffffffff\n      and\n      0xffffffffffffffffffffffffffffffffffffffff\n      and\n      dup2\n      mstore\n      0x20\n      add\n      swap1\n      dup2\n      mstore\n      0x20\n      add\n      0x00\n      keccak256\n        /* \"Lesson15ResultsOfTheWeek.sol\":4773:4798  payments[_addr][_balance] */\n      0x00\n        /* \"Lesson15ResultsOfTheWeek.sol\":4789:4797  _balance */\n      dup5\n        /* \"Lesson15ResultsOfTheWeek.sol\":4773:4798  payments[_addr][_balance] */\n      dup2\n      mstore\n      0x20\n      add\n      swap1\n      dup2\n      mstore\n      0x20\n      add\n      0x00\n      keccak256\n      0x00\n        /* \"Lesson15ResultsOfTheWeek.sol\":4773:4805  payments[_addr][_balance] = _boo */\n      0x0100\n      exp\n      dup2\n      sload\n      dup2\n      0xff\n      mul\n      not\n      and\n      swap1\n      dup4\n      iszero\n      iszero\n      mul\n      or\n      swap1\n      sstore\n      pop\n        /* \"Lesson15ResultsOfTheWeek.sol\":4693:4813  function setPayments(address _addr, uint _balance, bool _boo) public {... */\n      pop\n      pop\n      pop\n      jump\t// out\n        /* \"Lesson15ResultsOfTheWeek.sol\":1379:1396  uint[] public arr */\n    tag_88:\n      0x0c\n      dup2\n      dup2\n      sload\n      dup2\n      lt\n      tag_180\n      jumpi\n      0x00\n      dup1\n      revert\n    tag_180:\n      swap1\n      0x00\n      mstore\n      keccak256(0x00, 0x20)\n      add\n      0x00\n      swap2\n      pop\n      swap1\n      pop\n      sload\n      dup2\n      jump\t// out\n        /* \"Lesson15ResultsOfTheWeek.sol\":3622:3713  function ovwerFlow() external returns (uint256) {... */\n    tag_91:\n        /* \"Lesson15ResultsOfTheWeek.sol\":3661:3668  uint256 */\n      0x00\n        /* \"Lesson15ResultsOfTheWeek.sol\":3704:3705  1 */\n      0x01\n        /* \"Lesson15ResultsOfTheWeek.sol\":3696:3701  myVar */\n      dup1\n      sload\n        /* \"Lesson15ResultsOfTheWeek.sol\":3696:3705  myVar + 1 */\n      tag_183\n      swap2\n      swap1\n      tag_166\n      jump\t// in\n    tag_183:\n        /* \"Lesson15ResultsOfTheWeek.sol\":3688:3693  myVar */\n      0x01\n        /* \"Lesson15ResultsOfTheWeek.sol\":3688:3705  myVar = myVar + 1 */\n      dup2\n      swap1\n      sstore\n        /* \"Lesson15ResultsOfTheWeek.sol\":3681:3705  return myVar = myVar + 1 */\n      swap1\n      pop\n        /* \"Lesson15ResultsOfTheWeek.sol\":3622:3713  function ovwerFlow() external returns (uint256) {... */\n      swap1\n      jump\t// out\n        /* \"Lesson15ResultsOfTheWeek.sol\":4900:4980  function get(uint i) public view returns (uint) {... */\n    tag_95:\n        /* \"Lesson15ResultsOfTheWeek.sol\":4942:4946  uint */\n      0x00\n        /* \"Lesson15ResultsOfTheWeek.sol\":4966:4969  arr */\n      0x0c\n        /* \"Lesson15ResultsOfTheWeek.sol\":4970:4971  i */\n      dup3\n        /* \"Lesson15ResultsOfTheWeek.sol\":4966:4972  arr[i] */\n      dup2\n      sload\n      dup2\n      lt\n      tag_185\n      jumpi\n      tag_186\n      tag_157\n      jump\t// in\n    tag_186:\n    tag_185:\n      swap1\n      0x00\n      mstore\n      keccak256(0x00, 0x20)\n      add\n      sload\n        /* \"Lesson15ResultsOfTheWeek.sol\":4959:4972  return arr[i] */\n      swap1\n      pop\n        /* \"Lesson15ResultsOfTheWeek.sol\":4900:4980  function get(uint i) public view returns (uint) {... */\n      swap2\n      swap1\n      pop\n      jump\t// out\n        /* \"Lesson15ResultsOfTheWeek.sol\":4073:4239  function setAddr (address _addr, uint _balance) public {... */\n    tag_99:\n        /* \"Lesson15ResultsOfTheWeek.sol\":4223:4231  _balance */\n      dup1\n        /* \"Lesson15ResultsOfTheWeek.sol\":4205:4213  balances */\n      0x0a\n        /* \"Lesson15ResultsOfTheWeek.sol\":4205:4220  balances[_addr] */\n      0x00\n        /* \"Lesson15ResultsOfTheWeek.sol\":4214:4219  _addr */\n      dup5\n        /* \"Lesson15ResultsOfTheWeek.sol\":4205:4220  balances[_addr] */\n      0xffffffffffffffffffffffffffffffffffffffff\n      and\n      0xffffffffffffffffffffffffffffffffffffffff\n      and\n      dup2\n      mstore\n      0x20\n      add\n      swap1\n      dup2\n      mstore\n      0x20\n      add\n      0x00\n      keccak256\n        /* \"Lesson15ResultsOfTheWeek.sol\":4205:4231  balances[_addr] = _balance */\n      dup2\n      swap1\n      sstore\n      pop\n        /* \"Lesson15ResultsOfTheWeek.sol\":4073:4239  function setAddr (address _addr, uint _balance) public {... */\n      pop\n      pop\n      jump\t// out\n        /* \"Lesson15ResultsOfTheWeek.sol\":1254:1313  mapping (address => mapping (uint => bool)) public payments */\n    tag_102:\n      mstore(0x20, 0x0b)\n      dup2\n      0x00\n      mstore\n      mstore(0x20, keccak256(0x00, 0x40))\n      dup1\n      0x00\n      mstore\n      keccak256(0x00, 0x40)\n      0x00\n      swap2\n      pop\n      swap2\n      pop\n      swap1\n      sload\n      swap1\n      0x0100\n      exp\n      swap1\n      div\n      0xff\n      and\n      dup2\n      jump\t// out\n        /* \"Lesson15ResultsOfTheWeek.sol\":3414:3489  function dec() external returns (uint256) {... */\n    tag_105:\n        /* \"Lesson15ResultsOfTheWeek.sol\":3447:3454  uint256 */\n      0x00\n        /* \"Lesson15ResultsOfTheWeek.sol\":3476:3481  myVar */\n      0x01\n      0x00\n        /* \"Lesson15ResultsOfTheWeek.sol\":3474:3481  --myVar */\n      dup2\n      sload\n      tag_190\n      swap1\n      tag_191\n      jump\t// in\n    tag_190:\n      swap2\n      swap1\n      pop\n      dup2\n      swap1\n      sstore\n        /* \"Lesson15ResultsOfTheWeek.sol\":3467:3481  return --myVar */\n      swap1\n      pop\n        /* \"Lesson15ResultsOfTheWeek.sol\":3414:3489  function dec() external returns (uint256) {... */\n      swap1\n      jump\t// out\n        /* \"Lesson15ResultsOfTheWeek.sol\":3802:4064  function getAddr(address newAddr) public view returns (uint) {... */\n    tag_110:\n        /* \"Lesson15ResultsOfTheWeek.sol\":3857:3861  uint */\n      0x00\n        /* \"Lesson15ResultsOfTheWeek.sol\":4039:4047  balances */\n      0x0a\n        /* \"Lesson15ResultsOfTheWeek.sol\":4039:4056  balances[newAddr] */\n      0x00\n        /* \"Lesson15ResultsOfTheWeek.sol\":4048:4055  newAddr */\n      dup4\n        /* \"Lesson15ResultsOfTheWeek.sol\":4039:4056  balances[newAddr] */\n      0xffffffffffffffffffffffffffffffffffffffff\n      and\n      0xffffffffffffffffffffffffffffffffffffffff\n      and\n      dup2\n      mstore\n      0x20\n      add\n      swap1\n      dup2\n      mstore\n      0x20\n      add\n      0x00\n      keccak256\n      sload\n        /* \"Lesson15ResultsOfTheWeek.sol\":4032:4056  return balances[newAddr] */\n      swap1\n      pop\n        /* \"Lesson15ResultsOfTheWeek.sol\":3802:4064  function getAddr(address newAddr) public view returns (uint) {... */\n      swap2\n      swap1\n      pop\n      jump\t// out\n        /* \"Lesson15ResultsOfTheWeek.sol\":6186:6528  function examplesArr() external pure {... */\n    tag_113:\n        /* \"Lesson15ResultsOfTheWeek.sol\":6470:6485  uint[] memory a */\n      0x00\n        /* \"Lesson15ResultsOfTheWeek.sol\":6499:6500  5 */\n      0x05\n        /* \"Lesson15ResultsOfTheWeek.sol\":6488:6501  new uint[](5) */\n      0xffffffffffffffff\n      dup2\n      gt\n      iszero\n      tag_194\n      jumpi\n      tag_195\n      tag_196\n      jump\t// in\n    tag_195:\n    tag_194:\n      mload(0x40)\n      swap1\n      dup1\n      dup3\n      mstore\n      dup1\n      0x20\n      mul\n      0x20\n      add\n      dup3\n      add\n      0x40\n      mstore\n      dup1\n      iszero\n      tag_197\n      jumpi\n      dup2\n      0x20\n      add\n      0x20\n      dup3\n      mul\n      dup1\n      calldatasize\n      dup4\n      calldatacopy\n      dup1\n      dup3\n      add\n      swap2\n      pop\n      pop\n      swap1\n      pop\n    tag_197:\n      pop\n        /* \"Lesson15ResultsOfTheWeek.sol\":6470:6501  uint[] memory a = new uint[](5) */\n      swap1\n      pop\n        /* \"Lesson15ResultsOfTheWeek.sol\":6519:6520  1 */\n      0x01\n        /* \"Lesson15ResultsOfTheWeek.sol\":6512:6513  a */\n      dup2\n        /* \"Lesson15ResultsOfTheWeek.sol\":6514:6515  0 */\n      0x00\n        /* \"Lesson15ResultsOfTheWeek.sol\":6512:6516  a[0] */\n      dup2\n      mload\n      dup2\n      lt\n      tag_198\n      jumpi\n      tag_199\n      tag_157\n      jump\t// in\n    tag_199:\n    tag_198:\n      0x20\n      mul\n      0x20\n      add\n      add\n        /* \"Lesson15ResultsOfTheWeek.sol\":6512:6520  a[0] = 1 */\n      dup2\n      dup2\n      mstore\n      pop\n      pop\n        /* \"Lesson15ResultsOfTheWeek.sol\":6223:6528  {... */\n      pop\n        /* \"Lesson15ResultsOfTheWeek.sol\":6186:6528  function examplesArr() external pure {... */\n      jump\t// out\n        /* \"Lesson15ResultsOfTheWeek.sol\":613:633  uint256 public myVar */\n    tag_115:\n      sload(0x01)\n      dup2\n      jump\t// out\n        /* \"Lesson15ResultsOfTheWeek.sol\":2967:3091  function getBoolFour(bool _argBool) external view returns (bool) {... */\n    tag_119:\n        /* \"Lesson15ResultsOfTheWeek.sol\":3026:3030  bool */\n      0x00\n        /* \"Lesson15ResultsOfTheWeek.sol\":3050:3056  myBool */\n      0x09\n      0x14\n      swap1\n      sload\n      swap1\n      0x0100\n      exp\n      swap1\n      div\n      0xff\n      and\n        /* \"Lesson15ResultsOfTheWeek.sol\":3050:3068  myBool || _argBool */\n      dup1\n      tag_201\n      jumpi\n      pop\n        /* \"Lesson15ResultsOfTheWeek.sol\":3060:3068  _argBool */\n      dup2\n        /* \"Lesson15ResultsOfTheWeek.sol\":3050:3068  myBool || _argBool */\n    tag_201:\n        /* \"Lesson15ResultsOfTheWeek.sol\":3050:3083  myBool || _argBool ? true : false */\n      tag_202\n      jumpi\n        /* \"Lesson15ResultsOfTheWeek.sol\":3078:3083  false */\n      0x00\n        /* \"Lesson15ResultsOfTheWeek.sol\":3050:3083  myBool || _argBool ? true : false */\n      jump(tag_203)\n    tag_202:\n        /* \"Lesson15ResultsOfTheWeek.sol\":3071:3075  true */\n      0x01\n        /* \"Lesson15ResultsOfTheWeek.sol\":3050:3083  myBool || _argBool ? true : false */\n    tag_203:\n        /* \"Lesson15ResultsOfTheWeek.sol\":3043:3083  return myBool || _argBool ? true : false */\n      swap1\n      pop\n        /* \"Lesson15ResultsOfTheWeek.sol\":2967:3091  function getBoolFour(bool _argBool) external view returns (bool) {... */\n      swap2\n      swap1\n      pop\n      jump\t// out\n        /* \"Lesson15ResultsOfTheWeek.sol\":783:804  address public myAddr */\n    tag_122:\n      0x07\n      0x00\n      swap1\n      sload\n      swap1\n      0x0100\n      exp\n      swap1\n      div\n      0xffffffffffffffffffffffffffffffffffffffff\n      and\n      dup2\n      jump\t// out\n        /* \"Lesson15ResultsOfTheWeek.sol\":4247:4391  function delAddr(address _addr) public {... */\n    tag_127:\n        /* \"Lesson15ResultsOfTheWeek.sol\":4368:4376  balances */\n      0x0a\n        /* \"Lesson15ResultsOfTheWeek.sol\":4368:4383  balances[_addr] */\n      0x00\n        /* \"Lesson15ResultsOfTheWeek.sol\":4377:4382  _addr */\n      dup3\n        /* \"Lesson15ResultsOfTheWeek.sol\":4368:4383  balances[_addr] */\n      0xffffffffffffffffffffffffffffffffffffffff\n      and\n      0xffffffffffffffffffffffffffffffffffffffff\n      and\n      dup2\n      mstore\n      0x20\n      add\n      swap1\n      dup2\n      mstore\n      0x20\n      add\n      0x00\n      keccak256\n        /* \"Lesson15ResultsOfTheWeek.sol\":4361:4383  delete balances[_addr] */\n      0x00\n      swap1\n      sstore\n        /* \"Lesson15ResultsOfTheWeek.sol\":4247:4391  function delAddr(address _addr) public {... */\n      pop\n      jump\t// out\n        /* \"Lesson15ResultsOfTheWeek.sol\":1403:1433  uint[] public arr2 = [1, 2, 3] */\n    tag_130:\n      0x0d\n      dup2\n      dup2\n      sload\n      dup2\n      lt\n      tag_205\n      jumpi\n      0x00\n      dup1\n      revert\n    tag_205:\n      swap1\n      0x00\n      mstore\n      keccak256(0x00, 0x20)\n      add\n      0x00\n      swap2\n      pop\n      swap1\n      pop\n      sload\n      dup2\n      jump\t// out\n        /* \"Lesson15ResultsOfTheWeek.sol\":6536:6684  function getEnum() public view returns (Status) {... */\n    tag_133:\n        /* \"Lesson15ResultsOfTheWeek.sol\":6576:6582  Status */\n      0x00\n        /* \"Lesson15ResultsOfTheWeek.sol\":6670:6676  status */\n      dup1\n      0x00\n      swap1\n      sload\n      swap1\n      0x0100\n      exp\n      swap1\n      div\n      0xff\n      and\n        /* \"Lesson15ResultsOfTheWeek.sol\":6663:6676  return status */\n      swap1\n      pop\n        /* \"Lesson15ResultsOfTheWeek.sol\":6536:6684  function getEnum() public view returns (Status) {... */\n      swap1\n      jump\t// out\n        /* \"Lesson15ResultsOfTheWeek.sol\":1845:2007  function getBoolOne(bool _argBool) external view returns (bool) {... */\n    tag_137:\n        /* \"Lesson15ResultsOfTheWeek.sol\":1903:1907  bool */\n      0x00\n        /* \"Lesson15ResultsOfTheWeek.sol\":1937:1945  _argBool */\n      dup2\n        /* \"Lesson15ResultsOfTheWeek.sol\":1927:1945  myBool == _argBool */\n      iszero\n      iszero\n        /* \"Lesson15ResultsOfTheWeek.sol\":1927:1933  myBool */\n      0x09\n      0x14\n      swap1\n      sload\n      swap1\n      0x0100\n      exp\n      swap1\n      div\n      0xff\n      and\n        /* \"Lesson15ResultsOfTheWeek.sol\":1927:1945  myBool == _argBool */\n      iszero\n      iszero\n      eq\n        /* \"Lesson15ResultsOfTheWeek.sol\":1927:1960  myBool == _argBool ? true : false */\n      tag_209\n      jumpi\n        /* \"Lesson15ResultsOfTheWeek.sol\":1955:1960  false */\n      0x00\n        /* \"Lesson15ResultsOfTheWeek.sol\":1927:1960  myBool == _argBool ? true : false */\n      jump(tag_210)\n    tag_209:\n        /* \"Lesson15ResultsOfTheWeek.sol\":1948:1952  true */\n      0x01\n        /* \"Lesson15ResultsOfTheWeek.sol\":1927:1960  myBool == _argBool ? true : false */\n    tag_210:\n        /* \"Lesson15ResultsOfTheWeek.sol\":1920:1960  return myBool == _argBool ? true : false */\n      swap1\n      pop\n        /* \"Lesson15ResultsOfTheWeek.sol\":1845:2007  function getBoolOne(bool _argBool) external view returns (bool) {... */\n      swap2\n      swap1\n      pop\n      jump\t// out\n        /* \"Lesson15ResultsOfTheWeek.sol\":5880:5968  function getLengthArr() public  view returns (uint) {... */\n    tag_140:\n        /* \"Lesson15ResultsOfTheWeek.sol\":5926:5930  uint */\n      0x00\n        /* \"Lesson15ResultsOfTheWeek.sol\":5950:5953  arr */\n      0x0c\n        /* \"Lesson15ResultsOfTheWeek.sol\":5950:5960  arr.length */\n      dup1\n      sload\n      swap1\n      pop\n        /* \"Lesson15ResultsOfTheWeek.sol\":5943:5960  return arr.length */\n      swap1\n      pop\n        /* \"Lesson15ResultsOfTheWeek.sol\":5880:5968  function getLengthArr() public  view returns (uint) {... */\n      swap1\n      jump\t// out\n        /* \"Lesson15ResultsOfTheWeek.sol\":5311:5394  function getArr() public view returns (uint[] memory) {... */\n    tag_143:\n        /* \"Lesson15ResultsOfTheWeek.sol\":5350:5363  uint[] memory */\n      0x60\n        /* \"Lesson15ResultsOfTheWeek.sol\":5383:5386  arr */\n      0x0c\n        /* \"Lesson15ResultsOfTheWeek.sol\":5376:5386  return arr */\n      dup1\n      sload\n      dup1\n      0x20\n      mul\n      0x20\n      add\n      mload(0x40)\n      swap1\n      dup2\n      add\n      0x40\n      mstore\n      dup1\n      swap3\n      swap2\n      swap1\n      dup2\n      dup2\n      mstore\n      0x20\n      add\n      dup3\n      dup1\n      sload\n      dup1\n      iszero\n      tag_213\n      jumpi\n      0x20\n      mul\n      dup3\n      add\n      swap2\n      swap1\n      0x00\n      mstore\n      keccak256(0x00, 0x20)\n      swap1\n    tag_214:\n      dup2\n      sload\n      dup2\n      mstore\n      0x20\n      add\n      swap1\n      0x01\n      add\n      swap1\n      dup1\n      dup4\n      gt\n      tag_214\n      jumpi\n    tag_213:\n      pop\n      pop\n      pop\n      pop\n      pop\n      swap1\n      pop\n        /* \"Lesson15ResultsOfTheWeek.sol\":5311:5394  function getArr() public view returns (uint[] memory) {... */\n      swap1\n      jump\t// out\n        /* \"#utility.yul\":88:205   */\n    tag_216:\n        /* \"#utility.yul\":197:198   */\n      0x00\n        /* \"#utility.yul\":194:195   */\n      dup1\n        /* \"#utility.yul\":187:199   */\n      revert\n        /* \"#utility.yul\":334:424   */\n    tag_218:\n        /* \"#utility.yul\":368:375   */\n      0x00\n        /* \"#utility.yul\":411:416   */\n      dup2\n        /* \"#utility.yul\":404:417   */\n      iszero\n        /* \"#utility.yul\":397:418   */\n      iszero\n        /* \"#utility.yul\":386:418   */\n      swap1\n      pop\n        /* \"#utility.yul\":334:424   */\n      swap2\n      swap1\n      pop\n      jump\t// out\n        /* \"#utility.yul\":430:546   */\n    tag_219:\n        /* \"#utility.yul\":500:521   */\n      tag_256\n        /* \"#utility.yul\":515:520   */\n      dup2\n        /* \"#utility.yul\":500:521   */\n      tag_218\n      jump\t// in\n    tag_256:\n        /* \"#utility.yul\":493:498   */\n      dup2\n        /* \"#utility.yul\":490:522   */\n      eq\n        /* \"#utility.yul\":480:540   */\n      tag_257\n      jumpi\n        /* \"#utility.yul\":536:537   */\n      0x00\n        /* \"#utility.yul\":533:534   */\n      dup1\n        /* \"#utility.yul\":526:538   */\n      revert\n        /* \"#utility.yul\":480:540   */\n    tag_257:\n        /* \"#utility.yul\":430:546   */\n      pop\n      jump\t// out\n        /* \"#utility.yul\":552:685   */\n    tag_220:\n        /* \"#utility.yul\":595:600   */\n      0x00\n        /* \"#utility.yul\":633:639   */\n      dup2\n        /* \"#utility.yul\":620:640   */\n      calldataload\n        /* \"#utility.yul\":611:640   */\n      swap1\n      pop\n        /* \"#utility.yul\":649:679   */\n      tag_259\n        /* \"#utility.yul\":673:678   */\n      dup2\n        /* \"#utility.yul\":649:679   */\n      tag_219\n      jump\t// in\n    tag_259:\n        /* \"#utility.yul\":552:685   */\n      swap3\n      swap2\n      pop\n      pop\n      jump\t// out\n        /* \"#utility.yul\":691:1014   */\n    tag_41:\n        /* \"#utility.yul\":747:753   */\n      0x00\n        /* \"#utility.yul\":796:798   */\n      0x20\n        /* \"#utility.yul\":784:793   */\n      dup3\n        /* \"#utility.yul\":775:782   */\n      dup5\n        /* \"#utility.yul\":771:794   */\n      sub\n        /* \"#utility.yul\":767:799   */\n      slt\n        /* \"#utility.yul\":764:883   */\n      iszero\n      tag_261\n      jumpi\n        /* \"#utility.yul\":802:881   */\n      tag_262\n      tag_216\n      jump\t// in\n    tag_262:\n        /* \"#utility.yul\":764:883   */\n    tag_261:\n        /* \"#utility.yul\":922:923   */\n      0x00\n        /* \"#utility.yul\":947:997   */\n      tag_263\n        /* \"#utility.yul\":989:996   */\n      dup5\n        /* \"#utility.yul\":980:986   */\n      dup3\n        /* \"#utility.yul\":969:978   */\n      dup6\n        /* \"#utility.yul\":965:987   */\n      add\n        /* \"#utility.yul\":947:997   */\n      tag_220\n      jump\t// in\n    tag_263:\n        /* \"#utility.yul\":937:997   */\n      swap2\n      pop\n        /* \"#utility.yul\":893:1007   */\n      pop\n        /* \"#utility.yul\":691:1014   */\n      swap3\n      swap2\n      pop\n      pop\n      jump\t// out\n        /* \"#utility.yul\":1020:1129   */\n    tag_221:\n        /* \"#utility.yul\":1101:1122   */\n      tag_265\n        /* \"#utility.yul\":1116:1121   */\n      dup2\n        /* \"#utility.yul\":1101:1122   */\n      tag_218\n      jump\t// in\n    tag_265:\n        /* \"#utility.yul\":1096:1099   */\n      dup3\n        /* \"#utility.yul\":1089:1123   */\n      mstore\n        /* \"#utility.yul\":1020:1129   */\n      pop\n      pop\n      jump\t// out\n        /* \"#utility.yul\":1135:1345   */\n    tag_44:\n        /* \"#utility.yul\":1222:1226   */\n      0x00\n        /* \"#utility.yul\":1260:1262   */\n      0x20\n        /* \"#utility.yul\":1249:1258   */\n      dup3\n        /* \"#utility.yul\":1245:1263   */\n      add\n        /* \"#utility.yul\":1237:1263   */\n      swap1\n      pop\n        /* \"#utility.yul\":1273:1338   */\n      tag_267\n        /* \"#utility.yul\":1335:1336   */\n      0x00\n        /* \"#utility.yul\":1324:1333   */\n      dup4\n        /* \"#utility.yul\":1320:1337   */\n      add\n        /* \"#utility.yul\":1311:1317   */\n      dup5\n        /* \"#utility.yul\":1273:1338   */\n      tag_221\n      jump\t// in\n    tag_267:\n        /* \"#utility.yul\":1135:1345   */\n      swap3\n      swap2\n      pop\n      pop\n      jump\t// out\n        /* \"#utility.yul\":1351:1428   */\n    tag_222:\n        /* \"#utility.yul\":1388:1395   */\n      0x00\n        /* \"#utility.yul\":1417:1422   */\n      dup2\n        /* \"#utility.yul\":1406:1422   */\n      swap1\n      pop\n        /* \"#utility.yul\":1351:1428   */\n      swap2\n      swap1\n      pop\n      jump\t// out\n        /* \"#utility.yul\":1434:1556   */\n    tag_223:\n        /* \"#utility.yul\":1507:1531   */\n      tag_270\n        /* \"#utility.yul\":1525:1530   */\n      dup2\n        /* \"#utility.yul\":1507:1531   */\n      tag_222\n      jump\t// in\n    tag_270:\n        /* \"#utility.yul\":1500:1505   */\n      dup2\n        /* \"#utility.yul\":1497:1532   */\n      eq\n        /* \"#utility.yul\":1487:1550   */\n      tag_271\n      jumpi\n        /* \"#utility.yul\":1546:1547   */\n      0x00\n        /* \"#utility.yul\":1543:1544   */\n      dup1\n        /* \"#utility.yul\":1536:1548   */\n      revert\n        /* \"#utility.yul\":1487:1550   */\n    tag_271:\n        /* \"#utility.yul\":1434:1556   */\n      pop\n      jump\t// out\n        /* \"#utility.yul\":1562:1701   */\n    tag_224:\n        /* \"#utility.yul\":1608:1613   */\n      0x00\n        /* \"#utility.yul\":1646:1652   */\n      dup2\n        /* \"#utility.yul\":1633:1653   */\n      calldataload\n        /* \"#utility.yul\":1624:1653   */\n      swap1\n      pop\n        /* \"#utility.yul\":1662:1695   */\n      tag_273\n        /* \"#utility.yul\":1689:1694   */\n      dup2\n        /* \"#utility.yul\":1662:1695   */\n      tag_223\n      jump\t// in\n    tag_273:\n        /* \"#utility.yul\":1562:1701   */\n      swap3\n      swap2\n      pop\n      pop\n      jump\t// out\n        /* \"#utility.yul\":1707:2036   */\n    tag_49:\n        /* \"#utility.yul\":1766:1772   */\n      0x00\n        /* \"#utility.yul\":1815:1817   */\n      0x20\n        /* \"#utility.yul\":1803:1812   */\n      dup3\n        /* \"#utility.yul\":1794:1801   */\n      dup5\n        /* \"#utility.yul\":1790:1813   */\n      sub\n        /* \"#utility.yul\":1786:1818   */\n      slt\n        /* \"#utility.yul\":1783:1902   */\n      iszero\n      tag_275\n      jumpi\n        /* \"#utility.yul\":1821:1900   */\n      tag_276\n      tag_216\n      jump\t// in\n    tag_276:\n        /* \"#utility.yul\":1783:1902   */\n    tag_275:\n        /* \"#utility.yul\":1941:1942   */\n      0x00\n        /* \"#utility.yul\":1966:2019   */\n      tag_277\n        /* \"#utility.yul\":2011:2018   */\n      dup5\n        /* \"#utility.yul\":2002:2008   */\n      dup3\n        /* \"#utility.yul\":1991:2000   */\n      dup6\n        /* \"#utility.yul\":1987:2009   */\n      add\n        /* \"#utility.yul\":1966:2019   */\n      tag_224\n      jump\t// in\n    tag_277:\n        /* \"#utility.yul\":1956:2019   */\n      swap2\n      pop\n        /* \"#utility.yul\":1912:2029   */\n      pop\n        /* \"#utility.yul\":1707:2036   */\n      swap3\n      swap2\n      pop\n      pop\n      jump\t// out\n        /* \"#utility.yul\":2042:2222   */\n    tag_225:\n        /* \"#utility.yul\":2090:2167   */\n      0x4e487b7100000000000000000000000000000000000000000000000000000000\n        /* \"#utility.yul\":2087:2088   */\n      0x00\n        /* \"#utility.yul\":2080:2168   */\n      mstore\n        /* \"#utility.yul\":2187:2191   */\n      0x21\n        /* \"#utility.yul\":2184:2185   */\n      0x04\n        /* \"#utility.yul\":2177:2192   */\n      mstore\n        /* \"#utility.yul\":2211:2215   */\n      0x24\n        /* \"#utility.yul\":2208:2209   */\n      0x00\n        /* \"#utility.yul\":2201:2216   */\n      revert\n        /* \"#utility.yul\":2228:2341   */\n    tag_226:\n        /* \"#utility.yul\":2309:2310   */\n      0x05\n        /* \"#utility.yul\":2302:2307   */\n      dup2\n        /* \"#utility.yul\":2299:2311   */\n      lt\n        /* \"#utility.yul\":2289:2335   */\n      tag_280\n      jumpi\n        /* \"#utility.yul\":2315:2333   */\n      tag_281\n      tag_225\n      jump\t// in\n    tag_281:\n        /* \"#utility.yul\":2289:2335   */\n    tag_280:\n        /* \"#utility.yul\":2228:2341   */\n      pop\n      jump\t// out\n        /* \"#utility.yul\":2347:2474   */\n    tag_227:\n        /* \"#utility.yul\":2392:2399   */\n      0x00\n        /* \"#utility.yul\":2421:2426   */\n      dup2\n        /* \"#utility.yul\":2410:2426   */\n      swap1\n      pop\n        /* \"#utility.yul\":2427:2468   */\n      tag_283\n        /* \"#utility.yul\":2462:2467   */\n      dup3\n        /* \"#utility.yul\":2427:2468   */\n      tag_226\n      jump\t// in\n    tag_283:\n        /* \"#utility.yul\":2347:2474   */\n      swap2\n      swap1\n      pop\n      jump\t// out\n        /* \"#utility.yul\":2480:2607   */\n    tag_228:\n        /* \"#utility.yul\":2536:2545   */\n      0x00\n        /* \"#utility.yul\":2569:2601   */\n      tag_285\n        /* \"#utility.yul\":2595:2600   */\n      dup3\n        /* \"#utility.yul\":2569:2601   */\n      tag_227\n      jump\t// in\n    tag_285:\n        /* \"#utility.yul\":2556:2601   */\n      swap1\n      pop\n        /* \"#utility.yul\":2480:2607   */\n      swap2\n      swap1\n      pop\n      jump\t// out\n        /* \"#utility.yul\":2613:2756   */\n    tag_229:\n        /* \"#utility.yul\":2706:2749   */\n      tag_287\n        /* \"#utility.yul\":2743:2748   */\n      dup2\n        /* \"#utility.yul\":2706:2749   */\n      tag_228\n      jump\t// in\n    tag_287:\n        /* \"#utility.yul\":2701:2704   */\n      dup3\n        /* \"#utility.yul\":2694:2750   */\n      mstore\n        /* \"#utility.yul\":2613:2756   */\n      pop\n      pop\n      jump\t// out\n        /* \"#utility.yul\":2762:2996   */\n    tag_54:\n        /* \"#utility.yul\":2861:2865   */\n      0x00\n        /* \"#utility.yul\":2899:2901   */\n      0x20\n        /* \"#utility.yul\":2888:2897   */\n      dup3\n        /* \"#utility.yul\":2884:2902   */\n      add\n        /* \"#utility.yul\":2876:2902   */\n      swap1\n      pop\n        /* \"#utility.yul\":2912:2989   */\n      tag_289\n        /* \"#utility.yul\":2986:2987   */\n      0x00\n        /* \"#utility.yul\":2975:2984   */\n      dup4\n        /* \"#utility.yul\":2971:2988   */\n      add\n        /* \"#utility.yul\":2962:2968   */\n      dup5\n        /* \"#utility.yul\":2912:2989   */\n      tag_229\n      jump\t// in\n    tag_289:\n        /* \"#utility.yul\":2762:2996   */\n      swap3\n      swap2\n      pop\n      pop\n      jump\t// out\n        /* \"#utility.yul\":3002:3128   */\n    tag_230:\n        /* \"#utility.yul\":3039:3046   */\n      0x00\n        /* \"#utility.yul\":3079:3121   */\n      0xffffffffffffffffffffffffffffffffffffffff\n        /* \"#utility.yul\":3072:3077   */\n      dup3\n        /* \"#utility.yul\":3068:3122   */\n      and\n        /* \"#utility.yul\":3057:3122   */\n      swap1\n      pop\n        /* \"#utility.yul\":3002:3128   */\n      swap2\n      swap1\n      pop\n      jump\t// out\n        /* \"#utility.yul\":3134:3230   */\n    tag_231:\n        /* \"#utility.yul\":3171:3178   */\n      0x00\n        /* \"#utility.yul\":3200:3224   */\n      tag_292\n        /* \"#utility.yul\":3218:3223   */\n      dup3\n        /* \"#utility.yul\":3200:3224   */\n      tag_230\n      jump\t// in\n    tag_292:\n        /* \"#utility.yul\":3189:3224   */\n      swap1\n      pop\n        /* \"#utility.yul\":3134:3230   */\n      swap2\n      swap1\n      pop\n      jump\t// out\n        /* \"#utility.yul\":3236:3358   */\n    tag_232:\n        /* \"#utility.yul\":3309:3333   */\n      tag_294\n        /* \"#utility.yul\":3327:3332   */\n      dup2\n        /* \"#utility.yul\":3309:3333   */\n      tag_231\n      jump\t// in\n    tag_294:\n        /* \"#utility.yul\":3302:3307   */\n      dup2\n        /* \"#utility.yul\":3299:3334   */\n      eq\n        /* \"#utility.yul\":3289:3352   */\n      tag_295\n      jumpi\n        /* \"#utility.yul\":3348:3349   */\n      0x00\n        /* \"#utility.yul\":3345:3346   */\n      dup1\n        /* \"#utility.yul\":3338:3350   */\n      revert\n        /* \"#utility.yul\":3289:3352   */\n    tag_295:\n        /* \"#utility.yul\":3236:3358   */\n      pop\n      jump\t// out\n        /* \"#utility.yul\":3364:3503   */\n    tag_233:\n        /* \"#utility.yul\":3410:3415   */\n      0x00\n        /* \"#utility.yul\":3448:3454   */\n      dup2\n        /* \"#utility.yul\":3435:3455   */\n      calldataload\n        /* \"#utility.yul\":3426:3455   */\n      swap1\n      pop\n        /* \"#utility.yul\":3464:3497   */\n      tag_297\n        /* \"#utility.yul\":3491:3496   */\n      dup2\n        /* \"#utility.yul\":3464:3497   */\n      tag_232\n      jump\t// in\n    tag_297:\n        /* \"#utility.yul\":3364:3503   */\n      swap3\n      swap2\n      pop\n      pop\n      jump\t// out\n        /* \"#utility.yul\":3509:3983   */\n    tag_61:\n        /* \"#utility.yul\":3577:3583   */\n      0x00\n        /* \"#utility.yul\":3585:3591   */\n      dup1\n        /* \"#utility.yul\":3634:3636   */\n      0x40\n        /* \"#utility.yul\":3622:3631   */\n      dup4\n        /* \"#utility.yul\":3613:3620   */\n      dup6\n        /* \"#utility.yul\":3609:3632   */\n      sub\n        /* \"#utility.yul\":3605:3637   */\n      slt\n        /* \"#utility.yul\":3602:3721   */\n      iszero\n      tag_299\n      jumpi\n        /* \"#utility.yul\":3640:3719   */\n      tag_300\n      tag_216\n      jump\t// in\n    tag_300:\n        /* \"#utility.yul\":3602:3721   */\n    tag_299:\n        /* \"#utility.yul\":3760:3761   */\n      0x00\n        /* \"#utility.yul\":3785:3838   */\n      tag_301\n        /* \"#utility.yul\":3830:3837   */\n      dup6\n        /* \"#utility.yul\":3821:3827   */\n      dup3\n        /* \"#utility.yul\":3810:3819   */\n      dup7\n        /* \"#utility.yul\":3806:3828   */\n      add\n        /* \"#utility.yul\":3785:3838   */\n      tag_233\n      jump\t// in\n    tag_301:\n        /* \"#utility.yul\":3775:3838   */\n      swap3\n      pop\n        /* \"#utility.yul\":3731:3848   */\n      pop\n        /* \"#utility.yul\":3887:3889   */\n      0x20\n        /* \"#utility.yul\":3913:3966   */\n      tag_302\n        /* \"#utility.yul\":3958:3965   */\n      dup6\n        /* \"#utility.yul\":3949:3955   */\n      dup3\n        /* \"#utility.yul\":3938:3947   */\n      dup7\n        /* \"#utility.yul\":3934:3956   */\n      add\n        /* \"#utility.yul\":3913:3966   */\n      tag_224\n      jump\t// in\n    tag_302:\n        /* \"#utility.yul\":3903:3966   */\n      swap2\n      pop\n        /* \"#utility.yul\":3858:3976   */\n      pop\n        /* \"#utility.yul\":3509:3983   */\n      swap3\n      pop\n      swap3\n      swap1\n      pop\n      jump\t// out\n        /* \"#utility.yul\":3989:4107   */\n    tag_234:\n        /* \"#utility.yul\":4076:4100   */\n      tag_304\n        /* \"#utility.yul\":4094:4099   */\n      dup2\n        /* \"#utility.yul\":4076:4100   */\n      tag_222\n      jump\t// in\n    tag_304:\n        /* \"#utility.yul\":4071:4074   */\n      dup3\n        /* \"#utility.yul\":4064:4101   */\n      mstore\n        /* \"#utility.yul\":3989:4107   */\n      pop\n      pop\n      jump\t// out\n        /* \"#utility.yul\":4113:4335   */\n    tag_67:\n        /* \"#utility.yul\":4206:4210   */\n      0x00\n        /* \"#utility.yul\":4244:4246   */\n      0x20\n        /* \"#utility.yul\":4233:4242   */\n      dup3\n        /* \"#utility.yul\":4229:4247   */\n      add\n        /* \"#utility.yul\":4221:4247   */\n      swap1\n      pop\n        /* \"#utility.yul\":4257:4328   */\n      tag_306\n        /* \"#utility.yul\":4325:4326   */\n      0x00\n        /* \"#utility.yul\":4314:4323   */\n      dup4\n        /* \"#utility.yul\":4310:4327   */\n      add\n        /* \"#utility.yul\":4301:4307   */\n      dup5\n        /* \"#utility.yul\":4257:4328   */\n      tag_234\n      jump\t// in\n    tag_306:\n        /* \"#utility.yul\":4113:4335   */\n      swap3\n      swap2\n      pop\n      pop\n      jump\t// out\n        /* \"#utility.yul\":4341:4440   */\n    tag_235:\n        /* \"#utility.yul\":4393:4399   */\n      0x00\n        /* \"#utility.yul\":4427:4432   */\n      dup2\n        /* \"#utility.yul\":4421:4433   */\n      mload\n        /* \"#utility.yul\":4411:4433   */\n      swap1\n      pop\n        /* \"#utility.yul\":4341:4440   */\n      swap2\n      swap1\n      pop\n      jump\t// out\n        /* \"#utility.yul\":4446:4615   */\n    tag_236:\n        /* \"#utility.yul\":4530:4541   */\n      0x00\n        /* \"#utility.yul\":4564:4570   */\n      dup3\n        /* \"#utility.yul\":4559:4562   */\n      dup3\n        /* \"#utility.yul\":4552:4571   */\n      mstore\n        /* \"#utility.yul\":4604:4608   */\n      0x20\n        /* \"#utility.yul\":4599:4602   */\n      dup3\n        /* \"#utility.yul\":4595:4609   */\n      add\n        /* \"#utility.yul\":4580:4609   */\n      swap1\n      pop\n        /* \"#utility.yul\":4446:4615   */\n      swap3\n      swap2\n      pop\n      pop\n      jump\t// out\n        /* \"#utility.yul\":4621:4867   */\n    tag_237:\n        /* \"#utility.yul\":4702:4703   */\n      0x00\n        /* \"#utility.yul\":4712:4825   */\n    tag_310:\n        /* \"#utility.yul\":4726:4732   */\n      dup4\n        /* \"#utility.yul\":4723:4724   */\n      dup2\n        /* \"#utility.yul\":4720:4733   */\n      lt\n        /* \"#utility.yul\":4712:4825   */\n      iszero\n      tag_312\n      jumpi\n        /* \"#utility.yul\":4811:4812   */\n      dup1\n        /* \"#utility.yul\":4806:4809   */\n      dup3\n        /* \"#utility.yul\":4802:4813   */\n      add\n        /* \"#utility.yul\":4796:4814   */\n      mload\n        /* \"#utility.yul\":4792:4793   */\n      dup2\n        /* \"#utility.yul\":4787:4790   */\n      dup5\n        /* \"#utility.yul\":4783:4794   */\n      add\n        /* \"#utility.yul\":4776:4815   */\n      mstore\n        /* \"#utility.yul\":4748:4750   */\n      0x20\n        /* \"#utility.yul\":4745:4746   */\n      dup2\n        /* \"#utility.yul\":4741:4751   */\n      add\n        /* \"#utility.yul\":4736:4751   */\n      swap1\n      pop\n        /* \"#utility.yul\":4712:4825   */\n      jump(tag_310)\n    tag_312:\n        /* \"#utility.yul\":4859:4860   */\n      0x00\n        /* \"#utility.yul\":4850:4856   */\n      dup5\n        /* \"#utility.yul\":4845:4848   */\n      dup5\n        /* \"#utility.yul\":4841:4857   */\n      add\n        /* \"#utility.yul\":4834:4861   */\n      mstore\n        /* \"#utility.yul\":4683:4867   */\n      pop\n        /* \"#utility.yul\":4621:4867   */\n      pop\n      pop\n      pop\n      jump\t// out\n        /* \"#utility.yul\":4873:4975   */\n    tag_238:\n        /* \"#utility.yul\":4914:4920   */\n      0x00\n        /* \"#utility.yul\":4965:4967   */\n      0x1f\n        /* \"#utility.yul\":4961:4968   */\n      not\n        /* \"#utility.yul\":4956:4958   */\n      0x1f\n        /* \"#utility.yul\":4949:4954   */\n      dup4\n        /* \"#utility.yul\":4945:4959   */\n      add\n        /* \"#utility.yul\":4941:4969   */\n      and\n        /* \"#utility.yul\":4931:4969   */\n      swap1\n      pop\n        /* \"#utility.yul\":4873:4975   */\n      swap2\n      swap1\n      pop\n      jump\t// out\n        /* \"#utility.yul\":4981:5358   */\n    tag_239:\n        /* \"#utility.yul\":5069:5072   */\n      0x00\n        /* \"#utility.yul\":5097:5136   */\n      tag_315\n        /* \"#utility.yul\":5130:5135   */\n      dup3\n        /* \"#utility.yul\":5097:5136   */\n      tag_235\n      jump\t// in\n    tag_315:\n        /* \"#utility.yul\":5152:5223   */\n      tag_316\n        /* \"#utility.yul\":5216:5222   */\n      dup2\n        /* \"#utility.yul\":5211:5214   */\n      dup6\n        /* \"#utility.yul\":5152:5223   */\n      tag_236\n      jump\t// in\n    tag_316:\n        /* \"#utility.yul\":5145:5223   */\n      swap4\n      pop\n        /* \"#utility.yul\":5232:5297   */\n      tag_317\n        /* \"#utility.yul\":5290:5296   */\n      dup2\n        /* \"#utility.yul\":5285:5288   */\n      dup6\n        /* \"#utility.yul\":5278:5282   */\n      0x20\n        /* \"#utility.yul\":5271:5276   */\n      dup7\n        /* \"#utility.yul\":5267:5283   */\n      add\n        /* \"#utility.yul\":5232:5297   */\n      tag_237\n      jump\t// in\n    tag_317:\n        /* \"#utility.yul\":5322:5351   */\n      tag_318\n        /* \"#utility.yul\":5344:5350   */\n      dup2\n        /* \"#utility.yul\":5322:5351   */\n      tag_238\n      jump\t// in\n    tag_318:\n        /* \"#utility.yul\":5317:5320   */\n      dup5\n        /* \"#utility.yul\":5313:5352   */\n      add\n        /* \"#utility.yul\":5306:5352   */\n      swap2\n      pop\n        /* \"#utility.yul\":5073:5358   */\n      pop\n        /* \"#utility.yul\":4981:5358   */\n      swap3\n      swap2\n      pop\n      pop\n      jump\t// out\n        /* \"#utility.yul\":5364:5677   */\n    tag_78:\n        /* \"#utility.yul\":5477:5481   */\n      0x00\n        /* \"#utility.yul\":5515:5517   */\n      0x20\n        /* \"#utility.yul\":5504:5513   */\n      dup3\n        /* \"#utility.yul\":5500:5518   */\n      add\n        /* \"#utility.yul\":5492:5518   */\n      swap1\n      pop\n        /* \"#utility.yul\":5564:5573   */\n      dup2\n        /* \"#utility.yul\":5558:5562   */\n      dup2\n        /* \"#utility.yul\":5554:5574   */\n      sub\n        /* \"#utility.yul\":5550:5551   */\n      0x00\n        /* \"#utility.yul\":5539:5548   */\n      dup4\n        /* \"#utility.yul\":5535:5552   */\n      add\n        /* \"#utility.yul\":5528:5575   */\n      mstore\n        /* \"#utility.yul\":5592:5670   */\n      tag_320\n        /* \"#utility.yul\":5665:5669   */\n      dup2\n        /* \"#utility.yul\":5656:5662   */\n      dup5\n        /* \"#utility.yul\":5592:5670   */\n      tag_239\n      jump\t// in\n    tag_320:\n        /* \"#utility.yul\":5584:5670   */\n      swap1\n      pop\n        /* \"#utility.yul\":5364:5677   */\n      swap3\n      swap2\n      pop\n      pop\n      jump\t// out\n        /* \"#utility.yul\":5683:6296   */\n    tag_84:\n        /* \"#utility.yul\":5757:5763   */\n      0x00\n        /* \"#utility.yul\":5765:5771   */\n      dup1\n        /* \"#utility.yul\":5773:5779   */\n      0x00\n        /* \"#utility.yul\":5822:5824   */\n      0x60\n        /* \"#utility.yul\":5810:5819   */\n      dup5\n        /* \"#utility.yul\":5801:5808   */\n      dup7\n        /* \"#utility.yul\":5797:5820   */\n      sub\n        /* \"#utility.yul\":5793:5825   */\n      slt\n        /* \"#utility.yul\":5790:5909   */\n      iszero\n      tag_322\n      jumpi\n        /* \"#utility.yul\":5828:5907   */\n      tag_323\n      tag_216\n      jump\t// in\n    tag_323:\n        /* \"#utility.yul\":5790:5909   */\n    tag_322:\n        /* \"#utility.yul\":5948:5949   */\n      0x00\n        /* \"#utility.yul\":5973:6026   */\n      tag_324\n        /* \"#utility.yul\":6018:6025   */\n      dup7\n        /* \"#utility.yul\":6009:6015   */\n      dup3\n        /* \"#utility.yul\":5998:6007   */\n      dup8\n        /* \"#utility.yul\":5994:6016   */\n      add\n        /* \"#utility.yul\":5973:6026   */\n      tag_233\n      jump\t// in\n    tag_324:\n        /* \"#utility.yul\":5963:6026   */\n      swap4\n      pop\n        /* \"#utility.yul\":5919:6036   */\n      pop\n        /* \"#utility.yul\":6075:6077   */\n      0x20\n        /* \"#utility.yul\":6101:6154   */\n      tag_325\n        /* \"#utility.yul\":6146:6153   */\n      dup7\n        /* \"#utility.yul\":6137:6143   */\n      dup3\n        /* \"#utility.yul\":6126:6135   */\n      dup8\n        /* \"#utility.yul\":6122:6144   */\n      add\n        /* \"#utility.yul\":6101:6154   */\n      tag_224\n      jump\t// in\n    tag_325:\n        /* \"#utility.yul\":6091:6154   */\n      swap3\n      pop\n        /* \"#utility.yul\":6046:6164   */\n      pop\n        /* \"#utility.yul\":6203:6205   */\n      0x40\n        /* \"#utility.yul\":6229:6279   */\n      tag_326\n        /* \"#utility.yul\":6271:6278   */\n      dup7\n        /* \"#utility.yul\":6262:6268   */\n      dup3\n        /* \"#utility.yul\":6251:6260   */\n      dup8\n        /* \"#utility.yul\":6247:6269   */\n      add\n        /* \"#utility.yul\":6229:6279   */\n      tag_220\n      jump\t// in\n    tag_326:\n        /* \"#utility.yul\":6219:6279   */\n      swap2\n      pop\n        /* \"#utility.yul\":6174:6289   */\n      pop\n        /* \"#utility.yul\":5683:6296   */\n      swap3\n      pop\n      swap3\n      pop\n      swap3\n      jump\t// out\n        /* \"#utility.yul\":6302:6631   */\n    tag_109:\n        /* \"#utility.yul\":6361:6367   */\n      0x00\n        /* \"#utility.yul\":6410:6412   */\n      0x20\n        /* \"#utility.yul\":6398:6407   */\n      dup3\n        /* \"#utility.yul\":6389:6396   */\n      dup5\n        /* \"#utility.yul\":6385:6408   */\n      sub\n        /* \"#utility.yul\":6381:6413   */\n      slt\n        /* \"#utility.yul\":6378:6497   */\n      iszero\n      tag_328\n      jumpi\n        /* \"#utility.yul\":6416:6495   */\n      tag_329\n      tag_216\n      jump\t// in\n    tag_329:\n        /* \"#utility.yul\":6378:6497   */\n    tag_328:\n        /* \"#utility.yul\":6536:6537   */\n      0x00\n        /* \"#utility.yul\":6561:6614   */\n      tag_330\n        /* \"#utility.yul\":6606:6613   */\n      dup5\n        /* \"#utility.yul\":6597:6603   */\n      dup3\n        /* \"#utility.yul\":6586:6595   */\n      dup6\n        /* \"#utility.yul\":6582:6604   */\n      add\n        /* \"#utility.yul\":6561:6614   */\n      tag_233\n      jump\t// in\n    tag_330:\n        /* \"#utility.yul\":6551:6614   */\n      swap2\n      pop\n        /* \"#utility.yul\":6507:6624   */\n      pop\n        /* \"#utility.yul\":6302:6631   */\n      swap3\n      swap2\n      pop\n      pop\n      jump\t// out\n        /* \"#utility.yul\":6637:6755   */\n    tag_240:\n        /* \"#utility.yul\":6724:6748   */\n      tag_332\n        /* \"#utility.yul\":6742:6747   */\n      dup2\n        /* \"#utility.yul\":6724:6748   */\n      tag_231\n      jump\t// in\n    tag_332:\n        /* \"#utility.yul\":6719:6722   */\n      dup3\n        /* \"#utility.yul\":6712:6749   */\n      mstore\n        /* \"#utility.yul\":6637:6755   */\n      pop\n      pop\n      jump\t// out\n        /* \"#utility.yul\":6761:6983   */\n    tag_124:\n        /* \"#utility.yul\":6854:6858   */\n      0x00\n        /* \"#utility.yul\":6892:6894   */\n      0x20\n        /* \"#utility.yul\":6881:6890   */\n      dup3\n        /* \"#utility.yul\":6877:6895   */\n      add\n        /* \"#utility.yul\":6869:6895   */\n      swap1\n      pop\n        /* \"#utility.yul\":6905:6976   */\n      tag_334\n        /* \"#utility.yul\":6973:6974   */\n      0x00\n        /* \"#utility.yul\":6962:6971   */\n      dup4\n        /* \"#utility.yul\":6958:6975   */\n      add\n        /* \"#utility.yul\":6949:6955   */\n      dup5\n        /* \"#utility.yul\":6905:6976   */\n      tag_240\n      jump\t// in\n    tag_334:\n        /* \"#utility.yul\":6761:6983   */\n      swap3\n      swap2\n      pop\n      pop\n      jump\t// out\n        /* \"#utility.yul\":6989:7103   */\n    tag_241:\n        /* \"#utility.yul\":7056:7062   */\n      0x00\n        /* \"#utility.yul\":7090:7095   */\n      dup2\n        /* \"#utility.yul\":7084:7096   */\n      mload\n        /* \"#utility.yul\":7074:7096   */\n      swap1\n      pop\n        /* \"#utility.yul\":6989:7103   */\n      swap2\n      swap1\n      pop\n      jump\t// out\n        /* \"#utility.yul\":7109:7293   */\n    tag_242:\n        /* \"#utility.yul\":7208:7219   */\n      0x00\n        /* \"#utility.yul\":7242:7248   */\n      dup3\n        /* \"#utility.yul\":7237:7240   */\n      dup3\n        /* \"#utility.yul\":7230:7249   */\n      mstore\n        /* \"#utility.yul\":7282:7286   */\n      0x20\n        /* \"#utility.yul\":7277:7280   */\n      dup3\n        /* \"#utility.yul\":7273:7287   */\n      add\n        /* \"#utility.yul\":7258:7287   */\n      swap1\n      pop\n        /* \"#utility.yul\":7109:7293   */\n      swap3\n      swap2\n      pop\n      pop\n      jump\t// out\n        /* \"#utility.yul\":7299:7431   */\n    tag_243:\n        /* \"#utility.yul\":7366:7370   */\n      0x00\n        /* \"#utility.yul\":7389:7392   */\n      dup2\n        /* \"#utility.yul\":7381:7392   */\n      swap1\n      pop\n        /* \"#utility.yul\":7419:7423   */\n      0x20\n        /* \"#utility.yul\":7414:7417   */\n      dup3\n        /* \"#utility.yul\":7410:7424   */\n      add\n        /* \"#utility.yul\":7402:7424   */\n      swap1\n      pop\n        /* \"#utility.yul\":7299:7431   */\n      swap2\n      swap1\n      pop\n      jump\t// out\n        /* \"#utility.yul\":7437:7545   */\n    tag_244:\n        /* \"#utility.yul\":7514:7538   */\n      tag_339\n        /* \"#utility.yul\":7532:7537   */\n      dup2\n        /* \"#utility.yul\":7514:7538   */\n      tag_222\n      jump\t// in\n    tag_339:\n        /* \"#utility.yul\":7509:7512   */\n      dup3\n        /* \"#utility.yul\":7502:7539   */\n      mstore\n        /* \"#utility.yul\":7437:7545   */\n      pop\n      pop\n      jump\t// out\n        /* \"#utility.yul\":7551:7730   */\n    tag_245:\n        /* \"#utility.yul\":7620:7630   */\n      0x00\n        /* \"#utility.yul\":7641:7687   */\n      tag_341\n        /* \"#utility.yul\":7683:7686   */\n      dup4\n        /* \"#utility.yul\":7675:7681   */\n      dup4\n        /* \"#utility.yul\":7641:7687   */\n      tag_244\n      jump\t// in\n    tag_341:\n        /* \"#utility.yul\":7719:7723   */\n      0x20\n        /* \"#utility.yul\":7714:7717   */\n      dup4\n        /* \"#utility.yul\":7710:7724   */\n      add\n        /* \"#utility.yul\":7696:7724   */\n      swap1\n      pop\n        /* \"#utility.yul\":7551:7730   */\n      swap3\n      swap2\n      pop\n      pop\n      jump\t// out\n        /* \"#utility.yul\":7736:7849   */\n    tag_246:\n        /* \"#utility.yul\":7806:7810   */\n      0x00\n        /* \"#utility.yul\":7838:7842   */\n      0x20\n        /* \"#utility.yul\":7833:7836   */\n      dup3\n        /* \"#utility.yul\":7829:7843   */\n      add\n        /* \"#utility.yul\":7821:7843   */\n      swap1\n      pop\n        /* \"#utility.yul\":7736:7849   */\n      swap2\n      swap1\n      pop\n      jump\t// out\n        /* \"#utility.yul\":7885:8617   */\n    tag_247:\n        /* \"#utility.yul\":8004:8007   */\n      0x00\n        /* \"#utility.yul\":8033:8087   */\n      tag_344\n        /* \"#utility.yul\":8081:8086   */\n      dup3\n        /* \"#utility.yul\":8033:8087   */\n      tag_241\n      jump\t// in\n    tag_344:\n        /* \"#utility.yul\":8103:8189   */\n      tag_345\n        /* \"#utility.yul\":8182:8188   */\n      dup2\n        /* \"#utility.yul\":8177:8180   */\n      dup6\n        /* \"#utility.yul\":8103:8189   */\n      tag_242\n      jump\t// in\n    tag_345:\n        /* \"#utility.yul\":8096:8189   */\n      swap4\n      pop\n        /* \"#utility.yul\":8213:8269   */\n      tag_346\n        /* \"#utility.yul\":8263:8268   */\n      dup4\n        /* \"#utility.yul\":8213:8269   */\n      tag_243\n      jump\t// in\n    tag_346:\n        /* \"#utility.yul\":8292:8299   */\n      dup1\n        /* \"#utility.yul\":8323:8324   */\n      0x00\n        /* \"#utility.yul\":8308:8592   */\n    tag_347:\n        /* \"#utility.yul\":8333:8339   */\n      dup4\n        /* \"#utility.yul\":8330:8331   */\n      dup2\n        /* \"#utility.yul\":8327:8340   */\n      lt\n        /* \"#utility.yul\":8308:8592   */\n      iszero\n      tag_349\n      jumpi\n        /* \"#utility.yul\":8409:8415   */\n      dup2\n        /* \"#utility.yul\":8403:8416   */\n      mload\n        /* \"#utility.yul\":8436:8499   */\n      tag_350\n        /* \"#utility.yul\":8495:8498   */\n      dup9\n        /* \"#utility.yul\":8480:8493   */\n      dup3\n        /* \"#utility.yul\":8436:8499   */\n      tag_245\n      jump\t// in\n    tag_350:\n        /* \"#utility.yul\":8429:8499   */\n      swap8\n      pop\n        /* \"#utility.yul\":8522:8582   */\n      tag_351\n        /* \"#utility.yul\":8575:8581   */\n      dup4\n        /* \"#utility.yul\":8522:8582   */\n      tag_246\n      jump\t// in\n    tag_351:\n        /* \"#utility.yul\":8512:8582   */\n      swap3\n      pop\n        /* \"#utility.yul\":8368:8592   */\n      pop\n        /* \"#utility.yul\":8355:8356   */\n      0x01\n        /* \"#utility.yul\":8352:8353   */\n      dup2\n        /* \"#utility.yul\":8348:8357   */\n      add\n        /* \"#utility.yul\":8343:8357   */\n      swap1\n      pop\n        /* \"#utility.yul\":8308:8592   */\n      jump(tag_347)\n    tag_349:\n        /* \"#utility.yul\":8312:8326   */\n      pop\n        /* \"#utility.yul\":8608:8611   */\n      dup6\n        /* \"#utility.yul\":8601:8611   */\n      swap4\n      pop\n        /* \"#utility.yul\":8009:8617   */\n      pop\n      pop\n      pop\n        /* \"#utility.yul\":7885:8617   */\n      swap3\n      swap2\n      pop\n      pop\n      jump\t// out\n        /* \"#utility.yul\":8623:8996   */\n    tag_145:\n        /* \"#utility.yul\":8766:8770   */\n      0x00\n        /* \"#utility.yul\":8804:8806   */\n      0x20\n        /* \"#utility.yul\":8793:8802   */\n      dup3\n        /* \"#utility.yul\":8789:8807   */\n      add\n        /* \"#utility.yul\":8781:8807   */\n      swap1\n      pop\n        /* \"#utility.yul\":8853:8862   */\n      dup2\n        /* \"#utility.yul\":8847:8851   */\n      dup2\n        /* \"#utility.yul\":8843:8863   */\n      sub\n        /* \"#utility.yul\":8839:8840   */\n      0x00\n        /* \"#utility.yul\":8828:8837   */\n      dup4\n        /* \"#utility.yul\":8824:8841   */\n      add\n        /* \"#utility.yul\":8817:8864   */\n      mstore\n        /* \"#utility.yul\":8881:8989   */\n      tag_353\n        /* \"#utility.yul\":8984:8988   */\n      dup2\n        /* \"#utility.yul\":8975:8981   */\n      dup5\n        /* \"#utility.yul\":8881:8989   */\n      tag_247\n      jump\t// in\n    tag_353:\n        /* \"#utility.yul\":8873:8989   */\n      swap1\n      pop\n        /* \"#utility.yul\":8623:8996   */\n      swap3\n      swap2\n      pop\n      pop\n      jump\t// out\n        /* \"#utility.yul\":9002:9182   */\n    tag_152:\n        /* \"#utility.yul\":9050:9127   */\n      0x4e487b7100000000000000000000000000000000000000000000000000000000\n        /* \"#utility.yul\":9047:9048   */\n      0x00\n        /* \"#utility.yul\":9040:9128   */\n      mstore\n        /* \"#utility.yul\":9147:9151   */\n      0x31\n        /* \"#utility.yul\":9144:9145   */\n      0x04\n        /* \"#utility.yul\":9137:9152   */\n      mstore\n        /* \"#utility.yul\":9171:9175   */\n      0x24\n        /* \"#utility.yul\":9168:9169   */\n      0x00\n        /* \"#utility.yul\":9161:9176   */\n      revert\n        /* \"#utility.yul\":9188:9368   */\n    tag_157:\n        /* \"#utility.yul\":9236:9313   */\n      0x4e487b7100000000000000000000000000000000000000000000000000000000\n        /* \"#utility.yul\":9233:9234   */\n      0x00\n        /* \"#utility.yul\":9226:9314   */\n      mstore\n        /* \"#utility.yul\":9333:9337   */\n      0x32\n        /* \"#utility.yul\":9330:9331   */\n      0x04\n        /* \"#utility.yul\":9323:9338   */\n      mstore\n        /* \"#utility.yul\":9357:9361   */\n      0x24\n        /* \"#utility.yul\":9354:9355   */\n      0x00\n        /* \"#utility.yul\":9347:9362   */\n      revert\n        /* \"#utility.yul\":9374:9554   */\n    tag_248:\n        /* \"#utility.yul\":9422:9499   */\n      0x4e487b7100000000000000000000000000000000000000000000000000000000\n        /* \"#utility.yul\":9419:9420   */\n      0x00\n        /* \"#utility.yul\":9412:9500   */\n      mstore\n        /* \"#utility.yul\":9519:9523   */\n      0x11\n        /* \"#utility.yul\":9516:9517   */\n      0x04\n        /* \"#utility.yul\":9509:9524   */\n      mstore\n        /* \"#utility.yul\":9543:9547   */\n      0x24\n        /* \"#utility.yul\":9540:9541   */\n      0x00\n        /* \"#utility.yul\":9533:9548   */\n      revert\n        /* \"#utility.yul\":9560:9751   */\n    tag_166:\n        /* \"#utility.yul\":9600:9603   */\n      0x00\n        /* \"#utility.yul\":9619:9639   */\n      tag_358\n        /* \"#utility.yul\":9637:9638   */\n      dup3\n        /* \"#utility.yul\":9619:9639   */\n      tag_222\n      jump\t// in\n    tag_358:\n        /* \"#utility.yul\":9614:9639   */\n      swap2\n      pop\n        /* \"#utility.yul\":9653:9673   */\n      tag_359\n        /* \"#utility.yul\":9671:9672   */\n      dup4\n        /* \"#utility.yul\":9653:9673   */\n      tag_222\n      jump\t// in\n    tag_359:\n        /* \"#utility.yul\":9648:9673   */\n      swap3\n      pop\n        /* \"#utility.yul\":9696:9697   */\n      dup3\n        /* \"#utility.yul\":9693:9694   */\n      dup3\n        /* \"#utility.yul\":9689:9698   */\n      add\n        /* \"#utility.yul\":9682:9698   */\n      swap1\n      pop\n        /* \"#utility.yul\":9717:9720   */\n      dup1\n        /* \"#utility.yul\":9714:9715   */\n      dup3\n        /* \"#utility.yul\":9711:9721   */\n      gt\n        /* \"#utility.yul\":9708:9744   */\n      iszero\n      tag_360\n      jumpi\n        /* \"#utility.yul\":9724:9742   */\n      tag_361\n      tag_248\n      jump\t// in\n    tag_361:\n        /* \"#utility.yul\":9708:9744   */\n    tag_360:\n        /* \"#utility.yul\":9560:9751   */\n      swap3\n      swap2\n      pop\n      pop\n      jump\t// out\n        /* \"#utility.yul\":9757:10167   */\n    tag_168:\n        /* \"#utility.yul\":9797:9804   */\n      0x00\n        /* \"#utility.yul\":9820:9840   */\n      tag_363\n        /* \"#utility.yul\":9838:9839   */\n      dup3\n        /* \"#utility.yul\":9820:9840   */\n      tag_222\n      jump\t// in\n    tag_363:\n        /* \"#utility.yul\":9815:9840   */\n      swap2\n      pop\n        /* \"#utility.yul\":9854:9874   */\n      tag_364\n        /* \"#utility.yul\":9872:9873   */\n      dup4\n        /* \"#utility.yul\":9854:9874   */\n      tag_222\n      jump\t// in\n    tag_364:\n        /* \"#utility.yul\":9849:9874   */\n      swap3\n      pop\n        /* \"#utility.yul\":9909:9910   */\n      dup3\n        /* \"#utility.yul\":9906:9907   */\n      dup3\n        /* \"#utility.yul\":9902:9911   */\n      mul\n        /* \"#utility.yul\":9931:9961   */\n      tag_365\n        /* \"#utility.yul\":9949:9960   */\n      dup2\n        /* \"#utility.yul\":9931:9961   */\n      tag_222\n      jump\t// in\n    tag_365:\n        /* \"#utility.yul\":9920:9961   */\n      swap2\n      pop\n        /* \"#utility.yul\":10110:10111   */\n      dup3\n        /* \"#utility.yul\":10101:10108   */\n      dup3\n        /* \"#utility.yul\":10097:10112   */\n      div\n        /* \"#utility.yul\":10094:10095   */\n      dup5\n        /* \"#utility.yul\":10091:10113   */\n      eq\n        /* \"#utility.yul\":10071:10072   */\n      dup4\n        /* \"#utility.yul\":10064:10073   */\n      iszero\n        /* \"#utility.yul\":10044:10127   */\n      or\n        /* \"#utility.yul\":10021:10160   */\n      tag_366\n      jumpi\n        /* \"#utility.yul\":10140:10158   */\n      tag_367\n      tag_248\n      jump\t// in\n    tag_367:\n        /* \"#utility.yul\":10021:10160   */\n    tag_366:\n        /* \"#utility.yul\":9805:10167   */\n      pop\n        /* \"#utility.yul\":9757:10167   */\n      swap3\n      swap2\n      pop\n      pop\n      jump\t// out\n        /* \"#utility.yul\":10173:10353   */\n    tag_249:\n        /* \"#utility.yul\":10221:10298   */\n      0x4e487b7100000000000000000000000000000000000000000000000000000000\n        /* \"#utility.yul\":10218:10219   */\n      0x00\n        /* \"#utility.yul\":10211:10299   */\n      mstore\n        /* \"#utility.yul\":10318:10322   */\n      0x22\n        /* \"#utility.yul\":10315:10316   */\n      0x04\n        /* \"#utility.yul\":10308:10323   */\n      mstore\n        /* \"#utility.yul\":10342:10346   */\n      0x24\n        /* \"#utility.yul\":10339:10340   */\n      0x00\n        /* \"#utility.yul\":10332:10347   */\n      revert\n        /* \"#utility.yul\":10359:10679   */\n    tag_174:\n        /* \"#utility.yul\":10403:10409   */\n      0x00\n        /* \"#utility.yul\":10440:10441   */\n      0x02\n        /* \"#utility.yul\":10434:10438   */\n      dup3\n        /* \"#utility.yul\":10430:10442   */\n      div\n        /* \"#utility.yul\":10420:10442   */\n      swap1\n      pop\n        /* \"#utility.yul\":10487:10488   */\n      0x01\n        /* \"#utility.yul\":10481:10485   */\n      dup3\n        /* \"#utility.yul\":10477:10489   */\n      and\n        /* \"#utility.yul\":10508:10526   */\n      dup1\n        /* \"#utility.yul\":10498:10579   */\n      tag_370\n      jumpi\n        /* \"#utility.yul\":10564:10568   */\n      0x7f\n        /* \"#utility.yul\":10556:10562   */\n      dup3\n        /* \"#utility.yul\":10552:10569   */\n      and\n        /* \"#utility.yul\":10542:10569   */\n      swap2\n      pop\n        /* \"#utility.yul\":10498:10579   */\n    tag_370:\n        /* \"#utility.yul\":10626:10628   */\n      0x20\n        /* \"#utility.yul\":10618:10624   */\n      dup3\n        /* \"#utility.yul\":10615:10629   */\n      lt\n        /* \"#utility.yul\":10595:10613   */\n      dup2\n        /* \"#utility.yul\":10592:10630   */\n      sub\n        /* \"#utility.yul\":10589:10673   */\n      tag_371\n      jumpi\n        /* \"#utility.yul\":10645:10663   */\n      tag_372\n      tag_249\n      jump\t// in\n    tag_372:\n        /* \"#utility.yul\":10589:10673   */\n    tag_371:\n        /* \"#utility.yul\":10410:10679   */\n      pop\n        /* \"#utility.yul\":10359:10679   */\n      swap2\n      swap1\n      pop\n      jump\t// out\n        /* \"#utility.yul\":10685:10856   */\n    tag_191:\n        /* \"#utility.yul\":10724:10727   */\n      0x00\n        /* \"#utility.yul\":10747:10771   */\n      tag_374\n        /* \"#utility.yul\":10765:10770   */\n      dup3\n        /* \"#utility.yul\":10747:10771   */\n      tag_222\n      jump\t// in\n    tag_374:\n        /* \"#utility.yul\":10738:10771   */\n      swap2\n      pop\n        /* \"#utility.yul\":10793:10797   */\n      0x00\n        /* \"#utility.yul\":10786:10791   */\n      dup3\n        /* \"#utility.yul\":10783:10798   */\n      sub\n        /* \"#utility.yul\":10780:10821   */\n      tag_375\n      jumpi\n        /* \"#utility.yul\":10801:10819   */\n      tag_376\n      tag_248\n      jump\t// in\n    tag_376:\n        /* \"#utility.yul\":10780:10821   */\n    tag_375:\n        /* \"#utility.yul\":10848:10849   */\n      0x01\n        /* \"#utility.yul\":10841:10846   */\n      dup3\n        /* \"#utility.yul\":10837:10850   */\n      sub\n        /* \"#utility.yul\":10830:10850   */\n      swap1\n      pop\n        /* \"#utility.yul\":10685:10856   */\n      swap2\n      swap1\n      pop\n      jump\t// out\n        /* \"#utility.yul\":10862:11042   */\n    tag_196:\n        /* \"#utility.yul\":10910:10987   */\n      0x4e487b7100000000000000000000000000000000000000000000000000000000\n        /* \"#utility.yul\":10907:10908   */\n      0x00\n        /* \"#utility.yul\":10900:10988   */\n      mstore\n        /* \"#utility.yul\":11007:11011   */\n      0x41\n        /* \"#utility.yul\":11004:11005   */\n      0x04\n        /* \"#utility.yul\":10997:11012   */\n      mstore\n        /* \"#utility.yul\":11031:11035   */\n      0x24\n        /* \"#utility.yul\":11028:11029   */\n      0x00\n        /* \"#utility.yul\":11021:11036   */\n      revert\n\n    auxdata: 0xa2646970667358221220e8750b71f57ecd186d331d4f5487b1f6b30c47250c0ddd894e918d7165da588f64736f6c63430008160033\n}\n",
				"bytecode": {
					"linkReferences": {},
					"object": "60806040526040518060600160405280600160ff168152602001600260ff168152602001600360ff16815250600d90600361003b92919061004d565b50348015610047575f80fd5b506100b8565b828054828255905f5260205f2090810192821561008c579160200282015b8281111561008b578251829060ff1690559160200191906001019061006b565b5b509050610099919061009d565b5090565b5b808211156100b4575f815f90555060010161009e565b5090565b61117f806100c55f395ff3fe608060405234801561000f575f80fd5b50600436106101cc575f3560e01c80639507d39a11610102578063e5860d12116100a0578063f0ebce5a1161006f578063f0ebce5a14610540578063f10a31a11461055e578063faf264bb1461058e578063fb8cbced146105ac576101cc565b8063e5860d12146104a6578063e665b266146104d6578063e784f5b1146104f4578063edf0099b14610510576101cc565b8063b3bcfa82116100dc578063b3bcfa8214610430578063b4108a941461044e578063b620df2a1461047e578063c6b9154014610488576101cc565b80639507d39a146103b4578063a4d396ca146103e4578063ab63385c14610400576101cc565b80634620b0231161016f5780636deecdbe116101495780636deecdbe1461032c578063701b33051461034a57806371e5ee5f146103665780637a9632a814610396576101cc565b80634620b023146102c25780634bfec157146102f25780635a455c1c1461030e576101cc565b8063200d2ed2116101ab578063200d2ed214610226578063235211f11461024457806328f2d6cd14610274578063371303c0146102a4576101cc565b8062d77e89146101d057806302899203146102005780631c6570431461020a575b5f80fd5b6101ea60048036038101906101e59190610b7c565b6105ca565b6040516101f79190610bb6565b60405180910390f35b6102086105f5565b005b610224600480360381019061021f9190610c02565b61061c565b005b61022e61063e565b60405161023b9190610ca0565b60405180910390f35b61025e60048036038101906102599190610b7c565b61064e565b60405161026b9190610bb6565b60405180910390f35b61028e60048036038101906102899190610d13565b61067c565b60405161029b9190610bb6565b60405180910390f35b6102ac6106de565b6040516102b99190610d60565b60405180910390f35b6102dc60048036038101906102d79190610c02565b6106ff565b6040516102e99190610d60565b60405180910390f35b61030c60048036038101906103079190610c02565b610718565b005b610316610741565b6040516103239190610e03565b60405180910390f35b6103346107cd565b6040516103419190610bb6565b60405180910390f35b610364600480360381019061035f9190610e23565b6107e0565b005b610380600480360381019061037b9190610c02565b610848565b60405161038d9190610d60565b60405180910390f35b61039e610868565b6040516103ab9190610d60565b60405180910390f35b6103ce60048036038101906103c99190610c02565b610881565b6040516103db9190610d60565b60405180910390f35b6103fe60048036038101906103f99190610d13565b6108a6565b005b61041a60048036038101906104159190610d13565b6108ec565b6040516104279190610bb6565b60405180910390f35b610438610916565b6040516104459190610d60565b60405180910390f35b61046860048036038101906104639190610e73565b610930565b6040516104759190610d60565b60405180910390f35b610486610976565b005b6104906109e7565b60405161049d9190610d60565b60405180910390f35b6104c060048036038101906104bb9190610b7c565b6109ed565b6040516104cd9190610bb6565b60405180910390f35b6104de610a1a565b6040516104eb9190610ead565b60405180910390f35b61050e60048036038101906105099190610e73565b610a3f565b005b61052a60048036038101906105259190610c02565b610a82565b6040516105379190610d60565b60405180910390f35b610548610aa2565b6040516105559190610ca0565b60405180910390f35b61057860048036038101906105739190610b7c565b610ab6565b6040516105859190610bb6565b60405180910390f35b610596610ae1565b6040516105a39190610d60565b60405180910390f35b6105b4610aed565b6040516105c19190610f7d565b60405180910390f35b5f811515600960149054906101000a900460ff161515036105eb575f6105ee565b60015b9050919050565b600c80548061060757610606610f9d565b5b600190038181905f5260205f20015f90559055565b600c81815481106106305761062f610fca565b5b905f5260205f20015f905550565b5f8054906101000a900460ff1681565b5f600960149054906101000a900460ff1680156106685750815b610672575f610675565b60015b9050919050565b5f600b5f8473ffffffffffffffffffffffffffffffffffffffff1673ffffffffffffffffffffffffffffffffffffffff1681526020019081526020015f205f8381526020019081526020015f205f9054906101000a900460ff16905092915050565b5f600a60396001546106f09190611024565b6106fa9190611057565b905090565b600e81600a811061070e575f80fd5b015f915090505481565b600c81908060018154018082558091505060019003905f5260205f20015f909190919091505550565b6004805461074e906110c5565b80601f016020809104026020016040519081016040528092919081815260200182805461077a906110c5565b80156107c55780601f1061079c576101008083540402835291602001916107c5565b820191905f5260205f20905b8154815290600101906020018083116107a857829003601f168201915b505050505081565b600960149054906101000a900460ff1681565b80600b5f8573ffffffffffffffffffffffffffffffffffffffff1673ffffffffffffffffffffffffffffffffffffffff1681526020019081526020015f205f8481526020019081526020015f205f6101000a81548160ff021916908315150217905550505050565b600c8181548110610857575f80fd5b905f5260205f20015f915090505481565b5f600180546108779190611024565b6001819055905090565b5f600c828154811061089657610895610fca565b5b905f5260205f2001549050919050565b80600a5f8473ffffffffffffffffffffffffffffffffffffffff1673ffffffffffffffffffffffffffffffffffffffff1681526020019081526020015f20819055505050565b600b602052815f5260405f20602052805f5260405f205f915091509054906101000a900460ff1681565b5f60015f8154610925906110f5565b919050819055905090565b5f600a5f8373ffffffffffffffffffffffffffffffffffffffff1673ffffffffffffffffffffffffffffffffffffffff1681526020019081526020015f20549050919050565b5f600567ffffffffffffffff8111156109925761099161111c565b5b6040519080825280602002602001820160405280156109c05781602001602082028036833780820191505090505b5090506001815f815181106109d8576109d7610fca565b5b60200260200101818152505050565b60015481565b5f600960149054906101000a900460ff1680610a065750815b610a10575f610a13565b60015b9050919050565b60075f9054906101000a900473ffffffffffffffffffffffffffffffffffffffff1681565b600a5f8273ffffffffffffffffffffffffffffffffffffffff1673ffffffffffffffffffffffffffffffffffffffff1681526020019081526020015f205f905550565b600d8181548110610a91575f80fd5b905f5260205f20015f915090505481565b5f805f9054906101000a900460ff16905090565b5f811515600960149054906101000a900460ff16151514610ad7575f610ada565b60015b9050919050565b5f600c80549050905090565b6060600c805480602002602001604051908101604052809291908181526020018280548015610b3957602002820191905f5260205f20905b815481526020019060010190808311610b25575b5050505050905090565b5f80fd5b5f8115159050919050565b610b5b81610b47565b8114610b65575f80fd5b50565b5f81359050610b7681610b52565b92915050565b5f60208284031215610b9157610b90610b43565b5b5f610b9e84828501610b68565b91505092915050565b610bb081610b47565b82525050565b5f602082019050610bc95f830184610ba7565b92915050565b5f819050919050565b610be181610bcf565b8114610beb575f80fd5b50565b5f81359050610bfc81610bd8565b92915050565b5f60208284031215610c1757610c16610b43565b5b5f610c2484828501610bee565b91505092915050565b7f4e487b71000000000000000000000000000000000000000000000000000000005f52602160045260245ffd5b60058110610c6b57610c6a610c2d565b5b50565b5f819050610c7b82610c5a565b919050565b5f610c8a82610c6e565b9050919050565b610c9a81610c80565b82525050565b5f602082019050610cb35f830184610c91565b92915050565b5f73ffffffffffffffffffffffffffffffffffffffff82169050919050565b5f610ce282610cb9565b9050919050565b610cf281610cd8565b8114610cfc575f80fd5b50565b5f81359050610d0d81610ce9565b92915050565b5f8060408385031215610d2957610d28610b43565b5b5f610d3685828601610cff565b9250506020610d4785828601610bee565b9150509250929050565b610d5a81610bcf565b82525050565b5f602082019050610d735f830184610d51565b92915050565b5f81519050919050565b5f82825260208201905092915050565b5f5b83811015610db0578082015181840152602081019050610d95565b5f8484015250505050565b5f601f19601f8301169050919050565b5f610dd582610d79565b610ddf8185610d83565b9350610def818560208601610d93565b610df881610dbb565b840191505092915050565b5f6020820190508181035f830152610e1b8184610dcb565b905092915050565b5f805f60608486031215610e3a57610e39610b43565b5b5f610e4786828701610cff565b9350506020610e5886828701610bee565b9250506040610e6986828701610b68565b9150509250925092565b5f60208284031215610e8857610e87610b43565b5b5f610e9584828501610cff565b91505092915050565b610ea781610cd8565b82525050565b5f602082019050610ec05f830184610e9e565b92915050565b5f81519050919050565b5f82825260208201905092915050565b5f819050602082019050919050565b610ef881610bcf565b82525050565b5f610f098383610eef565b60208301905092915050565b5f602082019050919050565b5f610f2b82610ec6565b610f358185610ed0565b9350610f4083610ee0565b805f5b83811015610f70578151610f578882610efe565b9750610f6283610f15565b925050600181019050610f43565b5085935050505092915050565b5f6020820190508181035f830152610f958184610f21565b905092915050565b7f4e487b71000000000000000000000000000000000000000000000000000000005f52603160045260245ffd5b7f4e487b71000000000000000000000000000000000000000000000000000000005f52603260045260245ffd5b7f4e487b71000000000000000000000000000000000000000000000000000000005f52601160045260245ffd5b5f61102e82610bcf565b915061103983610bcf565b925082820190508082111561105157611050610ff7565b5b92915050565b5f61106182610bcf565b915061106c83610bcf565b925082820261107a81610bcf565b9150828204841483151761109157611090610ff7565b5b5092915050565b7f4e487b71000000000000000000000000000000000000000000000000000000005f52602260045260245ffd5b5f60028204905060018216806110dc57607f821691505b6020821081036110ef576110ee611098565b5b50919050565b5f6110ff82610bcf565b91505f820361111157611110610ff7565b5b600182039050919050565b7f4e487b71000000000000000000000000000000000000000000000000000000005f52604160045260245ffdfea2646970667358221220e8750b71f57ecd186d331d4f5487b1f6b30c47250c0ddd894e918d7165da588f64736f6c63430008160033",
					"opcodes": "PUSH1 0x80 PUSH1 0x40 MSTORE PUSH1 0x40 MLOAD DUP1 PUSH1 0x60 ADD PUSH1 0x40 MSTORE DUP1 PUSH1 0x1 PUSH1 0xFF AND DUP2 MSTORE PUSH1 0x20 ADD PUSH1 0x2 PUSH1 0xFF AND DUP2 MSTORE PUSH1 0x20 ADD PUSH1 0x3 PUSH1 0xFF AND DUP2 MSTORE POP PUSH1 0xD SWAP1 PUSH1 0x3 PUSH2 0x3B SWAP3 SWAP2 SWAP1 PUSH2 0x4D JUMP JUMPDEST POP CALLVALUE DUP1 ISZERO PUSH2 0x47 JUMPI PUSH0 DUP1 REVERT JUMPDEST POP PUSH2 0xB8 JUMP JUMPDEST DUP3 DUP1 SLOAD DUP3 DUP3 SSTORE SWAP1 PUSH0 MSTORE PUSH1 0x20 PUSH0 KECCAK256 SWAP1 DUP2 ADD SWAP3 DUP3 ISZERO PUSH2 0x8C JUMPI SWAP2 PUSH1 0x20 MUL DUP3 ADD JUMPDEST DUP3 DUP2 GT ISZERO PUSH2 0x8B JUMPI DUP3 MLOAD DUP3 SWAP1 PUSH1 0xFF AND SWAP1 SSTORE SWAP2 PUSH1 0x20 ADD SWAP2 SWAP1 PUSH1 0x1 ADD SWAP1 PUSH2 0x6B JUMP JUMPDEST JUMPDEST POP SWAP1 POP PUSH2 0x99 SWAP2 SWAP1 PUSH2 0x9D JUMP JUMPDEST POP SWAP1 JUMP JUMPDEST JUMPDEST DUP1 DUP3 GT ISZERO PUSH2 0xB4 JUMPI PUSH0 DUP2 PUSH0 SWAP1 SSTORE POP PUSH1 0x1 ADD PUSH2 0x9E JUMP JUMPDEST POP SWAP1 JUMP JUMPDEST PUSH2 0x117F DUP1 PUSH2 0xC5 PUSH0 CODECOPY PUSH0 RETURN INVALID PUSH1 0x80 PUSH1 0x40 MSTORE CALLVALUE DUP1 ISZERO PUSH2 0xF JUMPI PUSH0 DUP1 REVERT JUMPDEST POP PUSH1 0x4 CALLDATASIZE LT PUSH2 0x1CC JUMPI PUSH0 CALLDATALOAD PUSH1 0xE0 SHR DUP1 PUSH4 0x9507D39A GT PUSH2 0x102 JUMPI DUP1 PUSH4 0xE5860D12 GT PUSH2 0xA0 JUMPI DUP1 PUSH4 0xF0EBCE5A GT PUSH2 0x6F JUMPI DUP1 PUSH4 0xF0EBCE5A EQ PUSH2 0x540 JUMPI DUP1 PUSH4 0xF10A31A1 EQ PUSH2 0x55E JUMPI DUP1 PUSH4 0xFAF264BB EQ PUSH2 0x58E JUMPI DUP1 PUSH4 0xFB8CBCED EQ PUSH2 0x5AC JUMPI PUSH2 0x1CC JUMP JUMPDEST DUP1 PUSH4 0xE5860D12 EQ PUSH2 0x4A6 JUMPI DUP1 PUSH4 0xE665B266 EQ PUSH2 0x4D6 JUMPI DUP1 PUSH4 0xE784F5B1 EQ PUSH2 0x4F4 JUMPI DUP1 PUSH4 0xEDF0099B EQ PUSH2 0x510 JUMPI PUSH2 0x1CC JUMP JUMPDEST DUP1 PUSH4 0xB3BCFA82 GT PUSH2 0xDC JUMPI DUP1 PUSH4 0xB3BCFA82 EQ PUSH2 0x430 JUMPI DUP1 PUSH4 0xB4108A94 EQ PUSH2 0x44E JUMPI DUP1 PUSH4 0xB620DF2A EQ PUSH2 0x47E JUMPI DUP1 PUSH4 0xC6B91540 EQ PUSH2 0x488 JUMPI PUSH2 0x1CC JUMP JUMPDEST DUP1 PUSH4 0x9507D39A EQ PUSH2 0x3B4 JUMPI DUP1 PUSH4 0xA4D396CA EQ PUSH2 0x3E4 JUMPI DUP1 PUSH4 0xAB63385C EQ PUSH2 0x400 JUMPI PUSH2 0x1CC JUMP JUMPDEST DUP1 PUSH4 0x4620B023 GT PUSH2 0x16F JUMPI DUP1 PUSH4 0x6DEECDBE GT PUSH2 0x149 JUMPI DUP1 PUSH4 0x6DEECDBE EQ PUSH2 0x32C JUMPI DUP1 PUSH4 0x701B3305 EQ PUSH2 0x34A JUMPI DUP1 PUSH4 0x71E5EE5F EQ PUSH2 0x366 JUMPI DUP1 PUSH4 0x7A9632A8 EQ PUSH2 0x396 JUMPI PUSH2 0x1CC JUMP JUMPDEST DUP1 PUSH4 0x4620B023 EQ PUSH2 0x2C2 JUMPI DUP1 PUSH4 0x4BFEC157 EQ PUSH2 0x2F2 JUMPI DUP1 PUSH4 0x5A455C1C EQ PUSH2 0x30E JUMPI PUSH2 0x1CC JUMP JUMPDEST DUP1 PUSH4 0x200D2ED2 GT PUSH2 0x1AB JUMPI DUP1 PUSH4 0x200D2ED2 EQ PUSH2 0x226 JUMPI DUP1 PUSH4 0x235211F1 EQ PUSH2 0x244 JUMPI DUP1 PUSH4 0x28F2D6CD EQ PUSH2 0x274 JUMPI DUP1 PUSH4 0x371303C0 EQ PUSH2 0x2A4 JUMPI PUSH2 0x1CC JUMP JUMPDEST DUP1 PUSH3 0xD77E89 EQ PUSH2 0x1D0 JUMPI DUP1 PUSH4 0x2899203 EQ PUSH2 0x200 JUMPI DUP1 PUSH4 0x1C657043 EQ PUSH2 0x20A JUMPI JUMPDEST PUSH0 DUP1 REVERT JUMPDEST PUSH2 0x1EA PUSH1 0x4 DUP1 CALLDATASIZE SUB DUP2 ADD SWAP1 PUSH2 0x1E5 SWAP2 SWAP1 PUSH2 0xB7C JUMP JUMPDEST PUSH2 0x5CA JUMP JUMPDEST PUSH1 0x40 MLOAD PUSH2 0x1F7 SWAP2 SWAP1 PUSH2 0xBB6 JUMP JUMPDEST PUSH1 0x40 MLOAD DUP1 SWAP2 SUB SWAP1 RETURN JUMPDEST PUSH2 0x208 PUSH2 0x5F5 JUMP JUMPDEST STOP JUMPDEST PUSH2 0x224 PUSH1 0x4 DUP1 CALLDATASIZE SUB DUP2 ADD SWAP1 PUSH2 0x21F SWAP2 SWAP1 PUSH2 0xC02 JUMP JUMPDEST PUSH2 0x61C JUMP JUMPDEST STOP JUMPDEST PUSH2 0x22E PUSH2 0x63E JUMP JUMPDEST PUSH1 0x40 MLOAD PUSH2 0x23B SWAP2 SWAP1 PUSH2 0xCA0 JUMP JUMPDEST PUSH1 0x40 MLOAD DUP1 SWAP2 SUB SWAP1 RETURN JUMPDEST PUSH2 0x25E PUSH1 0x4 DUP1 CALLDATASIZE SUB DUP2 ADD SWAP1 PUSH2 0x259 SWAP2 SWAP1 PUSH2 0xB7C JUMP JUMPDEST PUSH2 0x64E JUMP JUMPDEST PUSH1 0x40 MLOAD PUSH2 0x26B SWAP2 SWAP1 PUSH2 0xBB6 JUMP JUMPDEST PUSH1 0x40 MLOAD DUP1 SWAP2 SUB SWAP1 RETURN JUMPDEST PUSH2 0x28E PUSH1 0x4 DUP1 CALLDATASIZE SUB DUP2 ADD SWAP1 PUSH2 0x289 SWAP2 SWAP1 PUSH2 0xD13 JUMP JUMPDEST PUSH2 0x67C JUMP JUMPDEST PUSH1 0x40 MLOAD PUSH2 0x29B SWAP2 SWAP1 PUSH2 0xBB6 JUMP JUMPDEST PUSH1 0x40 MLOAD DUP1 SWAP2 SUB SWAP1 RETURN JUMPDEST PUSH2 0x2AC PUSH2 0x6DE JUMP JUMPDEST PUSH1 0x40 MLOAD PUSH2 0x2B9 SWAP2 SWAP1 PUSH2 0xD60 JUMP JUMPDEST PUSH1 0x40 MLOAD DUP1 SWAP2 SUB SWAP1 RETURN JUMPDEST PUSH2 0x2DC PUSH1 0x4 DUP1 CALLDATASIZE SUB DUP2 ADD SWAP1 PUSH2 0x2D7 SWAP2 SWAP1 PUSH2 0xC02 JUMP JUMPDEST PUSH2 0x6FF JUMP JUMPDEST PUSH1 0x40 MLOAD PUSH2 0x2E9 SWAP2 SWAP1 PUSH2 0xD60 JUMP JUMPDEST PUSH1 0x40 MLOAD DUP1 SWAP2 SUB SWAP1 RETURN JUMPDEST PUSH2 0x30C PUSH1 0x4 DUP1 CALLDATASIZE SUB DUP2 ADD SWAP1 PUSH2 0x307 SWAP2 SWAP1 PUSH2 0xC02 JUMP JUMPDEST PUSH2 0x718 JUMP JUMPDEST STOP JUMPDEST PUSH2 0x316 PUSH2 0x741 JUMP JUMPDEST PUSH1 0x40 MLOAD PUSH2 0x323 SWAP2 SWAP1 PUSH2 0xE03 JUMP JUMPDEST PUSH1 0x40 MLOAD DUP1 SWAP2 SUB SWAP1 RETURN JUMPDEST PUSH2 0x334 PUSH2 0x7CD JUMP JUMPDEST PUSH1 0x40 MLOAD PUSH2 0x341 SWAP2 SWAP1 PUSH2 0xBB6 JUMP JUMPDEST PUSH1 0x40 MLOAD DUP1 SWAP2 SUB SWAP1 RETURN JUMPDEST PUSH2 0x364 PUSH1 0x4 DUP1 CALLDATASIZE SUB DUP2 ADD SWAP1 PUSH2 0x35F SWAP2 SWAP1 PUSH2 0xE23 JUMP JUMPDEST PUSH2 0x7E0 JUMP JUMPDEST STOP JUMPDEST PUSH2 0x380 PUSH1 0x4 DUP1 CALLDATASIZE SUB DUP2 ADD SWAP1 PUSH2 0x37B SWAP2 SWAP1 PUSH2 0xC02 JUMP JUMPDEST PUSH2 0x848 JUMP JUMPDEST PUSH1 0x40 MLOAD PUSH2 0x38D SWAP2 SWAP1 PUSH2 0xD60 JUMP JUMPDEST PUSH1 0x40 MLOAD DUP1 SWAP2 SUB SWAP1 RETURN JUMPDEST PUSH2 0x39E PUSH2 0x868 JUMP JUMPDEST PUSH1 0x40 MLOAD PUSH2 0x3AB SWAP2 SWAP1 PUSH2 0xD60 JUMP JUMPDEST PUSH1 0x40 MLOAD DUP1 SWAP2 SUB SWAP1 RETURN JUMPDEST PUSH2 0x3CE PUSH1 0x4 DUP1 CALLDATASIZE SUB DUP2 ADD SWAP1 PUSH2 0x3C9 SWAP2 SWAP1 PUSH2 0xC02 JUMP JUMPDEST PUSH2 0x881 JUMP JUMPDEST PUSH1 0x40 MLOAD PUSH2 0x3DB SWAP2 SWAP1 PUSH2 0xD60 JUMP JUMPDEST PUSH1 0x40 MLOAD DUP1 SWAP2 SUB SWAP1 RETURN JUMPDEST PUSH2 0x3FE PUSH1 0x4 DUP1 CALLDATASIZE SUB DUP2 ADD SWAP1 PUSH2 0x3F9 SWAP2 SWAP1 PUSH2 0xD13 JUMP JUMPDEST PUSH2 0x8A6 JUMP JUMPDEST STOP JUMPDEST PUSH2 0x41A PUSH1 0x4 DUP1 CALLDATASIZE SUB DUP2 ADD SWAP1 PUSH2 0x415 SWAP2 SWAP1 PUSH2 0xD13 JUMP JUMPDEST PUSH2 0x8EC JUMP JUMPDEST PUSH1 0x40 MLOAD PUSH2 0x427 SWAP2 SWAP1 PUSH2 0xBB6 JUMP JUMPDEST PUSH1 0x40 MLOAD DUP1 SWAP2 SUB SWAP1 RETURN JUMPDEST PUSH2 0x438 PUSH2 0x916 JUMP JUMPDEST PUSH1 0x40 MLOAD PUSH2 0x445 SWAP2 SWAP1 PUSH2 0xD60 JUMP JUMPDEST PUSH1 0x40 MLOAD DUP1 SWAP2 SUB SWAP1 RETURN JUMPDEST PUSH2 0x468 PUSH1 0x4 DUP1 CALLDATASIZE SUB DUP2 ADD SWAP1 PUSH2 0x463 SWAP2 SWAP1 PUSH2 0xE73 JUMP JUMPDEST PUSH2 0x930 JUMP JUMPDEST PUSH1 0x40 MLOAD PUSH2 0x475 SWAP2 SWAP1 PUSH2 0xD60 JUMP JUMPDEST PUSH1 0x40 MLOAD DUP1 SWAP2 SUB SWAP1 RETURN JUMPDEST PUSH2 0x486 PUSH2 0x976 JUMP JUMPDEST STOP JUMPDEST PUSH2 0x490 PUSH2 0x9E7 JUMP JUMPDEST PUSH1 0x40 MLOAD PUSH2 0x49D SWAP2 SWAP1 PUSH2 0xD60 JUMP JUMPDEST PUSH1 0x40 MLOAD DUP1 SWAP2 SUB SWAP1 RETURN JUMPDEST PUSH2 0x4C0 PUSH1 0x4 DUP1 CALLDATASIZE SUB DUP2 ADD SWAP1 PUSH2 0x4BB SWAP2 SWAP1 PUSH2 0xB7C JUMP JUMPDEST PUSH2 0x9ED JUMP JUMPDEST PUSH1 0x40 MLOAD PUSH2 0x4CD SWAP2 SWAP1 PUSH2 0xBB6 JUMP JUMPDEST PUSH1 0x40 MLOAD DUP1 SWAP2 SUB SWAP1 RETURN JUMPDEST PUSH2 0x4DE PUSH2 0xA1A JUMP JUMPDEST PUSH1 0x40 MLOAD PUSH2 0x4EB SWAP2 SWAP1 PUSH2 0xEAD JUMP JUMPDEST PUSH1 0x40 MLOAD DUP1 SWAP2 SUB SWAP1 RETURN JUMPDEST PUSH2 0x50E PUSH1 0x4 DUP1 CALLDATASIZE SUB DUP2 ADD SWAP1 PUSH2 0x509 SWAP2 SWAP1 PUSH2 0xE73 JUMP JUMPDEST PUSH2 0xA3F JUMP JUMPDEST STOP JUMPDEST PUSH2 0x52A PUSH1 0x4 DUP1 CALLDATASIZE SUB DUP2 ADD SWAP1 PUSH2 0x525 SWAP2 SWAP1 PUSH2 0xC02 JUMP JUMPDEST PUSH2 0xA82 JUMP JUMPDEST PUSH1 0x40 MLOAD PUSH2 0x537 SWAP2 SWAP1 PUSH2 0xD60 JUMP JUMPDEST PUSH1 0x40 MLOAD DUP1 SWAP2 SUB SWAP1 RETURN JUMPDEST PUSH2 0x548 PUSH2 0xAA2 JUMP JUMPDEST PUSH1 0x40 MLOAD PUSH2 0x555 SWAP2 SWAP1 PUSH2 0xCA0 JUMP JUMPDEST PUSH1 0x40 MLOAD DUP1 SWAP2 SUB SWAP1 RETURN JUMPDEST PUSH2 0x578 PUSH1 0x4 DUP1 CALLDATASIZE SUB DUP2 ADD SWAP1 PUSH2 0x573 SWAP2 SWAP1 PUSH2 0xB7C JUMP JUMPDEST PUSH2 0xAB6 JUMP JUMPDEST PUSH1 0x40 MLOAD PUSH2 0x585 SWAP2 SWAP1 PUSH2 0xBB6 JUMP JUMPDEST PUSH1 0x40 MLOAD DUP1 SWAP2 SUB SWAP1 RETURN JUMPDEST PUSH2 0x596 PUSH2 0xAE1 JUMP JUMPDEST PUSH1 0x40 MLOAD PUSH2 0x5A3 SWAP2 SWAP1 PUSH2 0xD60 JUMP JUMPDEST PUSH1 0x40 MLOAD DUP1 SWAP2 SUB SWAP1 RETURN JUMPDEST PUSH2 0x5B4 PUSH2 0xAED JUMP JUMPDEST PUSH1 0x40 MLOAD PUSH2 0x5C1 SWAP2 SWAP1 PUSH2 0xF7D JUMP JUMPDEST PUSH1 0x40 MLOAD DUP1 SWAP2 SUB SWAP1 RETURN JUMPDEST PUSH0 DUP2 ISZERO ISZERO PUSH1 0x9 PUSH1 0x14 SWAP1 SLOAD SWAP1 PUSH2 0x100 EXP SWAP1 DIV PUSH1 0xFF AND ISZERO ISZERO SUB PUSH2 0x5EB JUMPI PUSH0 PUSH2 0x5EE JUMP JUMPDEST PUSH1 0x1 JUMPDEST SWAP1 POP SWAP2 SWAP1 POP JUMP JUMPDEST PUSH1 0xC DUP1 SLOAD DUP1 PUSH2 0x607 JUMPI PUSH2 0x606 PUSH2 0xF9D JUMP JUMPDEST JUMPDEST PUSH1 0x1 SWAP1 SUB DUP2 DUP2 SWAP1 PUSH0 MSTORE PUSH1 0x20 PUSH0 KECCAK256 ADD PUSH0 SWAP1 SSTORE SWAP1 SSTORE JUMP JUMPDEST PUSH1 0xC DUP2 DUP2 SLOAD DUP2 LT PUSH2 0x630 JUMPI PUSH2 0x62F PUSH2 0xFCA JUMP JUMPDEST JUMPDEST SWAP1 PUSH0 MSTORE PUSH1 0x20 PUSH0 KECCAK256 ADD PUSH0 SWAP1 SSTORE POP JUMP JUMPDEST PUSH0 DUP1 SLOAD SWAP1 PUSH2 0x100 EXP SWAP1 DIV PUSH1 0xFF AND DUP2 JUMP JUMPDEST PUSH0 PUSH1 0x9 PUSH1 0x14 SWAP1 SLOAD SWAP1 PUSH2 0x100 EXP SWAP1 DIV PUSH1 0xFF AND DUP1 ISZERO PUSH2 0x668 JUMPI POP DUP2 JUMPDEST PUSH2 0x672 JUMPI PUSH0 PUSH2 0x675 JUMP JUMPDEST PUSH1 0x1 JUMPDEST SWAP1 POP SWAP2 SWAP1 POP JUMP JUMPDEST PUSH0 PUSH1 0xB PUSH0 DUP5 PUSH20 0xFFFFFFFFFFFFFFFFFFFFFFFFFFFFFFFFFFFFFFFF AND PUSH20 0xFFFFFFFFFFFFFFFFFFFFFFFFFFFFFFFFFFFFFFFF AND DUP2 MSTORE PUSH1 0x20 ADD SWAP1 DUP2 MSTORE PUSH1 0x20 ADD PUSH0 KECCAK256 PUSH0 DUP4 DUP2 MSTORE PUSH1 0x20 ADD SWAP1 DUP2 MSTORE PUSH1 0x20 ADD PUSH0 KECCAK256 PUSH0 SWAP1 SLOAD SWAP1 PUSH2 0x100 EXP SWAP1 DIV PUSH1 0xFF AND SWAP1 POP SWAP3 SWAP2 POP POP JUMP JUMPDEST PUSH0 PUSH1 0xA PUSH1 0x39 PUSH1 0x1 SLOAD PUSH2 0x6F0 SWAP2 SWAP1 PUSH2 0x1024 JUMP JUMPDEST PUSH2 0x6FA SWAP2 SWAP1 PUSH2 0x1057 JUMP JUMPDEST SWAP1 POP SWAP1 JUMP JUMPDEST PUSH1 0xE DUP2 PUSH1 0xA DUP2 LT PUSH2 0x70E JUMPI PUSH0 DUP1 REVERT JUMPDEST ADD PUSH0 SWAP2 POP SWAP1 POP SLOAD DUP2 JUMP JUMPDEST PUSH1 0xC DUP2 SWAP1 DUP1 PUSH1 0x1 DUP2 SLOAD ADD DUP1 DUP3 SSTORE DUP1 SWAP2 POP POP PUSH1 0x1 SWAP1 SUB SWAP1 PUSH0 MSTORE PUSH1 0x20 PUSH0 KECCAK256 ADD PUSH0 SWAP1 SWAP2 SWAP1 SWAP2 SWAP1 SWAP2 POP SSTORE POP JUMP JUMPDEST PUSH1 0x4 DUP1 SLOAD PUSH2 0x74E SWAP1 PUSH2 0x10C5 JUMP JUMPDEST DUP1 PUSH1 0x1F ADD PUSH1 0x20 DUP1 SWAP2 DIV MUL PUSH1 0x20 ADD PUSH1 0x40 MLOAD SWAP1 DUP2 ADD PUSH1 0x40 MSTORE DUP1 SWAP3 SWAP2 SWAP1 DUP2 DUP2 MSTORE PUSH1 0x20 ADD DUP3 DUP1 SLOAD PUSH2 0x77A SWAP1 PUSH2 0x10C5 JUMP JUMPDEST DUP1 ISZERO PUSH2 0x7C5 JUMPI DUP1 PUSH1 0x1F LT PUSH2 0x79C JUMPI PUSH2 0x100 DUP1 DUP4 SLOAD DIV MUL DUP4 MSTORE SWAP2 PUSH1 0x20 ADD SWAP2 PUSH2 0x7C5 JUMP JUMPDEST DUP3 ADD SWAP2 SWAP1 PUSH0 MSTORE PUSH1 0x20 PUSH0 KECCAK256 SWAP1 JUMPDEST DUP2 SLOAD DUP2 MSTORE SWAP1 PUSH1 0x1 ADD SWAP1 PUSH1 0x20 ADD DUP1 DUP4 GT PUSH2 0x7A8 JUMPI DUP3 SWAP1 SUB PUSH1 0x1F AND DUP3 ADD SWAP2 JUMPDEST POP POP POP POP POP DUP2 JUMP JUMPDEST PUSH1 0x9 PUSH1 0x14 SWAP1 SLOAD SWAP1 PUSH2 0x100 EXP SWAP1 DIV PUSH1 0xFF AND DUP2 JUMP JUMPDEST DUP1 PUSH1 0xB PUSH0 DUP6 PUSH20 0xFFFFFFFFFFFFFFFFFFFFFFFFFFFFFFFFFFFFFFFF AND PUSH20 0xFFFFFFFFFFFFFFFFFFFFFFFFFFFFFFFFFFFFFFFF AND DUP2 MSTORE PUSH1 0x20 ADD SWAP1 DUP2 MSTORE PUSH1 0x20 ADD PUSH0 KECCAK256 PUSH0 DUP5 DUP2 MSTORE PUSH1 0x20 ADD SWAP1 DUP2 MSTORE PUSH1 0x20 ADD PUSH0 KECCAK256 PUSH0 PUSH2 0x100 EXP DUP2 SLOAD DUP2 PUSH1 0xFF MUL NOT AND SWAP1 DUP4 ISZERO ISZERO MUL OR SWAP1 SSTORE POP POP POP POP JUMP JUMPDEST PUSH1 0xC DUP2 DUP2 SLOAD DUP2 LT PUSH2 0x857 JUMPI PUSH0 DUP1 REVERT JUMPDEST SWAP1 PUSH0 MSTORE PUSH1 0x20 PUSH0 KECCAK256 ADD PUSH0 SWAP2 POP SWAP1 POP SLOAD DUP2 JUMP JUMPDEST PUSH0 PUSH1 0x1 DUP1 SLOAD PUSH2 0x877 SWAP2 SWAP1 PUSH2 0x1024 JUMP JUMPDEST PUSH1 0x1 DUP2 SWAP1 SSTORE SWAP1 POP SWAP1 JUMP JUMPDEST PUSH0 PUSH1 0xC DUP3 DUP2 SLOAD DUP2 LT PUSH2 0x896 JUMPI PUSH2 0x895 PUSH2 0xFCA JUMP JUMPDEST JUMPDEST SWAP1 PUSH0 MSTORE PUSH1 0x20 PUSH0 KECCAK256 ADD SLOAD SWAP1 POP SWAP2 SWAP1 POP JUMP JUMPDEST DUP1 PUSH1 0xA PUSH0 DUP5 PUSH20 0xFFFFFFFFFFFFFFFFFFFFFFFFFFFFFFFFFFFFFFFF AND PUSH20 0xFFFFFFFFFFFFFFFFFFFFFFFFFFFFFFFFFFFFFFFF AND DUP2 MSTORE PUSH1 0x20 ADD SWAP1 DUP2 MSTORE PUSH1 0x20 ADD PUSH0 KECCAK256 DUP2 SWAP1 SSTORE POP POP POP JUMP JUMPDEST PUSH1 0xB PUSH1 0x20 MSTORE DUP2 PUSH0 MSTORE PUSH1 0x40 PUSH0 KECCAK256 PUSH1 0x20 MSTORE DUP1 PUSH0 MSTORE PUSH1 0x40 PUSH0 KECCAK256 PUSH0 SWAP2 POP SWAP2 POP SWAP1 SLOAD SWAP1 PUSH2 0x100 EXP SWAP1 DIV PUSH1 0xFF AND DUP2 JUMP JUMPDEST PUSH0 PUSH1 0x1 PUSH0 DUP2 SLOAD PUSH2 0x925 SWAP1 PUSH2 0x10F5 JUMP JUMPDEST SWAP2 SWAP1 POP DUP2 SWAP1 SSTORE SWAP1 POP SWAP1 JUMP JUMPDEST PUSH0 PUSH1 0xA PUSH0 DUP4 PUSH20 0xFFFFFFFFFFFFFFFFFFFFFFFFFFFFFFFFFFFFFFFF AND PUSH20 0xFFFFFFFFFFFFFFFFFFFFFFFFFFFFFFFFFFFFFFFF AND DUP2 MSTORE PUSH1 0x20 ADD SWAP1 DUP2 MSTORE PUSH1 0x20 ADD PUSH0 KECCAK256 SLOAD SWAP1 POP SWAP2 SWAP1 POP JUMP JUMPDEST PUSH0 PUSH1 0x5 PUSH8 0xFFFFFFFFFFFFFFFF DUP2 GT ISZERO PUSH2 0x992 JUMPI PUSH2 0x991 PUSH2 0x111C JUMP JUMPDEST JUMPDEST PUSH1 0x40 MLOAD SWAP1 DUP1 DUP3 MSTORE DUP1 PUSH1 0x20 MUL PUSH1 0x20 ADD DUP3 ADD PUSH1 0x40 MSTORE DUP1 ISZERO PUSH2 0x9C0 JUMPI DUP2 PUSH1 0x20 ADD PUSH1 0x20 DUP3 MUL DUP1 CALLDATASIZE DUP4 CALLDATACOPY DUP1 DUP3 ADD SWAP2 POP POP SWAP1 POP JUMPDEST POP SWAP1 POP PUSH1 0x1 DUP2 PUSH0 DUP2 MLOAD DUP2 LT PUSH2 0x9D8 JUMPI PUSH2 0x9D7 PUSH2 0xFCA JUMP JUMPDEST JUMPDEST PUSH1 0x20 MUL PUSH1 0x20 ADD ADD DUP2 DUP2 MSTORE POP POP POP JUMP JUMPDEST PUSH1 0x1 SLOAD DUP2 JUMP JUMPDEST PUSH0 PUSH1 0x9 PUSH1 0x14 SWAP1 SLOAD SWAP1 PUSH2 0x100 EXP SWAP1 DIV PUSH1 0xFF AND DUP1 PUSH2 0xA06 JUMPI POP DUP2 JUMPDEST PUSH2 0xA10 JUMPI PUSH0 PUSH2 0xA13 JUMP JUMPDEST PUSH1 0x1 JUMPDEST SWAP1 POP SWAP2 SWAP1 POP JUMP JUMPDEST PUSH1 0x7 PUSH0 SWAP1 SLOAD SWAP1 PUSH2 0x100 EXP SWAP1 DIV PUSH20 0xFFFFFFFFFFFFFFFFFFFFFFFFFFFFFFFFFFFFFFFF AND DUP2 JUMP JUMPDEST PUSH1 0xA PUSH0 DUP3 PUSH20 0xFFFFFFFFFFFFFFFFFFFFFFFFFFFFFFFFFFFFFFFF AND PUSH20 0xFFFFFFFFFFFFFFFFFFFFFFFFFFFFFFFFFFFFFFFF AND DUP2 MSTORE PUSH1 0x20 ADD SWAP1 DUP2 MSTORE PUSH1 0x20 ADD PUSH0 KECCAK256 PUSH0 SWAP1 SSTORE POP JUMP JUMPDEST PUSH1 0xD DUP2 DUP2 SLOAD DUP2 LT PUSH2 0xA91 JUMPI PUSH0 DUP1 REVERT JUMPDEST SWAP1 PUSH0 MSTORE PUSH1 0x20 PUSH0 KECCAK256 ADD PUSH0 SWAP2 POP SWAP1 POP SLOAD DUP2 JUMP JUMPDEST PUSH0 DUP1 PUSH0 SWAP1 SLOAD SWAP1 PUSH2 0x100 EXP SWAP1 DIV PUSH1 0xFF AND SWAP1 POP SWAP1 JUMP JUMPDEST PUSH0 DUP2 ISZERO ISZERO PUSH1 0x9 PUSH1 0x14 SWAP1 SLOAD SWAP1 PUSH2 0x100 EXP SWAP1 DIV PUSH1 0xFF AND ISZERO ISZERO EQ PUSH2 0xAD7 JUMPI PUSH0 PUSH2 0xADA JUMP JUMPDEST PUSH1 0x1 JUMPDEST SWAP1 POP SWAP2 SWAP1 POP JUMP JUMPDEST PUSH0 PUSH1 0xC DUP1 SLOAD SWAP1 POP SWAP1 POP SWAP1 JUMP JUMPDEST PUSH1 0x60 PUSH1 0xC DUP1 SLOAD DUP1 PUSH1 0x20 MUL PUSH1 0x20 ADD PUSH1 0x40 MLOAD SWAP1 DUP2 ADD PUSH1 0x40 MSTORE DUP1 SWAP3 SWAP2 SWAP1 DUP2 DUP2 MSTORE PUSH1 0x20 ADD DUP3 DUP1 SLOAD DUP1 ISZERO PUSH2 0xB39 JUMPI PUSH1 0x20 MUL DUP3 ADD SWAP2 SWAP1 PUSH0 MSTORE PUSH1 0x20 PUSH0 KECCAK256 SWAP1 JUMPDEST DUP2 SLOAD DUP2 MSTORE PUSH1 0x20 ADD SWAP1 PUSH1 0x1 ADD SWAP1 DUP1 DUP4 GT PUSH2 0xB25 JUMPI JUMPDEST POP POP POP POP POP SWAP1 POP SWAP1 JUMP JUMPDEST PUSH0 DUP1 REVERT JUMPDEST PUSH0 DUP2 ISZERO ISZERO SWAP1 POP SWAP2 SWAP1 POP JUMP JUMPDEST PUSH2 0xB5B DUP2 PUSH2 0xB47 JUMP JUMPDEST DUP2 EQ PUSH2 0xB65 JUMPI PUSH0 DUP1 REVERT JUMPDEST POP JUMP JUMPDEST PUSH0 DUP2 CALLDATALOAD SWAP1 POP PUSH2 0xB76 DUP2 PUSH2 0xB52 JUMP JUMPDEST SWAP3 SWAP2 POP POP JUMP JUMPDEST PUSH0 PUSH1 0x20 DUP3 DUP5 SUB SLT ISZERO PUSH2 0xB91 JUMPI PUSH2 0xB90 PUSH2 0xB43 JUMP JUMPDEST JUMPDEST PUSH0 PUSH2 0xB9E DUP5 DUP3 DUP6 ADD PUSH2 0xB68 JUMP JUMPDEST SWAP2 POP POP SWAP3 SWAP2 POP POP JUMP JUMPDEST PUSH2 0xBB0 DUP2 PUSH2 0xB47 JUMP JUMPDEST DUP3 MSTORE POP POP JUMP JUMPDEST PUSH0 PUSH1 0x20 DUP3 ADD SWAP1 POP PUSH2 0xBC9 PUSH0 DUP4 ADD DUP5 PUSH2 0xBA7 JUMP JUMPDEST SWAP3 SWAP2 POP POP JUMP JUMPDEST PUSH0 DUP2 SWAP1 POP SWAP2 SWAP1 POP JUMP JUMPDEST PUSH2 0xBE1 DUP2 PUSH2 0xBCF JUMP JUMPDEST DUP2 EQ PUSH2 0xBEB JUMPI PUSH0 DUP1 REVERT JUMPDEST POP JUMP JUMPDEST PUSH0 DUP2 CALLDATALOAD SWAP1 POP PUSH2 0xBFC DUP2 PUSH2 0xBD8 JUMP JUMPDEST SWAP3 SWAP2 POP POP JUMP JUMPDEST PUSH0 PUSH1 0x20 DUP3 DUP5 SUB SLT ISZERO PUSH2 0xC17 JUMPI PUSH2 0xC16 PUSH2 0xB43 JUMP JUMPDEST JUMPDEST PUSH0 PUSH2 0xC24 DUP5 DUP3 DUP6 ADD PUSH2 0xBEE JUMP JUMPDEST SWAP2 POP POP SWAP3 SWAP2 POP POP JUMP JUMPDEST PUSH32 0x4E487B7100000000000000000000000000000000000000000000000000000000 PUSH0 MSTORE PUSH1 0x21 PUSH1 0x4 MSTORE PUSH1 0x24 PUSH0 REVERT JUMPDEST PUSH1 0x5 DUP2 LT PUSH2 0xC6B JUMPI PUSH2 0xC6A PUSH2 0xC2D JUMP JUMPDEST JUMPDEST POP JUMP JUMPDEST PUSH0 DUP2 SWAP1 POP PUSH2 0xC7B DUP3 PUSH2 0xC5A JUMP JUMPDEST SWAP2 SWAP1 POP JUMP JUMPDEST PUSH0 PUSH2 0xC8A DUP3 PUSH2 0xC6E JUMP JUMPDEST SWAP1 POP SWAP2 SWAP1 POP JUMP JUMPDEST PUSH2 0xC9A DUP2 PUSH2 0xC80 JUMP JUMPDEST DUP3 MSTORE POP POP JUMP JUMPDEST PUSH0 PUSH1 0x20 DUP3 ADD SWAP1 POP PUSH2 0xCB3 PUSH0 DUP4 ADD DUP5 PUSH2 0xC91 JUMP JUMPDEST SWAP3 SWAP2 POP POP JUMP JUMPDEST PUSH0 PUSH20 0xFFFFFFFFFFFFFFFFFFFFFFFFFFFFFFFFFFFFFFFF DUP3 AND SWAP1 POP SWAP2 SWAP1 POP JUMP JUMPDEST PUSH0 PUSH2 0xCE2 DUP3 PUSH2 0xCB9 JUMP JUMPDEST SWAP1 POP SWAP2 SWAP1 POP JUMP JUMPDEST PUSH2 0xCF2 DUP2 PUSH2 0xCD8 JUMP JUMPDEST DUP2 EQ PUSH2 0xCFC JUMPI PUSH0 DUP1 REVERT JUMPDEST POP JUMP JUMPDEST PUSH0 DUP2 CALLDATALOAD SWAP1 POP PUSH2 0xD0D DUP2 PUSH2 0xCE9 JUMP JUMPDEST SWAP3 SWAP2 POP POP JUMP JUMPDEST PUSH0 DUP1 PUSH1 0x40 DUP4 DUP6 SUB SLT ISZERO PUSH2 0xD29 JUMPI PUSH2 0xD28 PUSH2 0xB43 JUMP JUMPDEST JUMPDEST PUSH0 PUSH2 0xD36 DUP6 DUP3 DUP7 ADD PUSH2 0xCFF JUMP JUMPDEST SWAP3 POP POP PUSH1 0x20 PUSH2 0xD47 DUP6 DUP3 DUP7 ADD PUSH2 0xBEE JUMP JUMPDEST SWAP2 POP POP SWAP3 POP SWAP3 SWAP1 POP JUMP JUMPDEST PUSH2 0xD5A DUP2 PUSH2 0xBCF JUMP JUMPDEST DUP3 MSTORE POP POP JUMP JUMPDEST PUSH0 PUSH1 0x20 DUP3 ADD SWAP1 POP PUSH2 0xD73 PUSH0 DUP4 ADD DUP5 PUSH2 0xD51 JUMP JUMPDEST SWAP3 SWAP2 POP POP JUMP JUMPDEST PUSH0 DUP2 MLOAD SWAP1 POP SWAP2 SWAP1 POP JUMP JUMPDEST PUSH0 DUP3 DUP3 MSTORE PUSH1 0x20 DUP3 ADD SWAP1 POP SWAP3 SWAP2 POP POP JUMP JUMPDEST PUSH0 JUMPDEST DUP4 DUP2 LT ISZERO PUSH2 0xDB0 JUMPI DUP1 DUP3 ADD MLOAD DUP2 DUP5 ADD MSTORE PUSH1 0x20 DUP2 ADD SWAP1 POP PUSH2 0xD95 JUMP JUMPDEST PUSH0 DUP5 DUP5 ADD MSTORE POP POP POP POP JUMP JUMPDEST PUSH0 PUSH1 0x1F NOT PUSH1 0x1F DUP4 ADD AND SWAP1 POP SWAP2 SWAP1 POP JUMP JUMPDEST PUSH0 PUSH2 0xDD5 DUP3 PUSH2 0xD79 JUMP JUMPDEST PUSH2 0xDDF DUP2 DUP6 PUSH2 0xD83 JUMP JUMPDEST SWAP4 POP PUSH2 0xDEF DUP2 DUP6 PUSH1 0x20 DUP7 ADD PUSH2 0xD93 JUMP JUMPDEST PUSH2 0xDF8 DUP2 PUSH2 0xDBB JUMP JUMPDEST DUP5 ADD SWAP2 POP POP SWAP3 SWAP2 POP POP JUMP JUMPDEST PUSH0 PUSH1 0x20 DUP3 ADD SWAP1 POP DUP2 DUP2 SUB PUSH0 DUP4 ADD MSTORE PUSH2 0xE1B DUP2 DUP5 PUSH2 0xDCB JUMP JUMPDEST SWAP1 POP SWAP3 SWAP2 POP POP JUMP JUMPDEST PUSH0 DUP1 PUSH0 PUSH1 0x60 DUP5 DUP7 SUB SLT ISZERO PUSH2 0xE3A JUMPI PUSH2 0xE39 PUSH2 0xB43 JUMP JUMPDEST JUMPDEST PUSH0 PUSH2 0xE47 DUP7 DUP3 DUP8 ADD PUSH2 0xCFF JUMP JUMPDEST SWAP4 POP POP PUSH1 0x20 PUSH2 0xE58 DUP7 DUP3 DUP8 ADD PUSH2 0xBEE JUMP JUMPDEST SWAP3 POP POP PUSH1 0x40 PUSH2 0xE69 DUP7 DUP3 DUP8 ADD PUSH2 0xB68 JUMP JUMPDEST SWAP2 POP POP SWAP3 POP SWAP3 POP SWAP3 JUMP JUMPDEST PUSH0 PUSH1 0x20 DUP3 DUP5 SUB SLT ISZERO PUSH2 0xE88 JUMPI PUSH2 0xE87 PUSH2 0xB43 JUMP JUMPDEST JUMPDEST PUSH0 PUSH2 0xE95 DUP5 DUP3 DUP6 ADD PUSH2 0xCFF JUMP JUMPDEST SWAP2 POP POP SWAP3 SWAP2 POP POP JUMP JUMPDEST PUSH2 0xEA7 DUP2 PUSH2 0xCD8 JUMP JUMPDEST DUP3 MSTORE POP POP JUMP JUMPDEST PUSH0 PUSH1 0x20 DUP3 ADD SWAP1 POP PUSH2 0xEC0 PUSH0 DUP4 ADD DUP5 PUSH2 0xE9E JUMP JUMPDEST SWAP3 SWAP2 POP POP JUMP JUMPDEST PUSH0 DUP2 MLOAD SWAP1 POP SWAP2 SWAP1 POP JUMP JUMPDEST PUSH0 DUP3 DUP3 MSTORE PUSH1 0x20 DUP3 ADD SWAP1 POP SWAP3 SWAP2 POP POP JUMP JUMPDEST PUSH0 DUP2 SWAP1 POP PUSH1 0x20 DUP3 ADD SWAP1 POP SWAP2 SWAP1 POP JUMP JUMPDEST PUSH2 0xEF8 DUP2 PUSH2 0xBCF JUMP JUMPDEST DUP3 MSTORE POP POP JUMP JUMPDEST PUSH0 PUSH2 0xF09 DUP4 DUP4 PUSH2 0xEEF JUMP JUMPDEST PUSH1 0x20 DUP4 ADD SWAP1 POP SWAP3 SWAP2 POP POP JUMP JUMPDEST PUSH0 PUSH1 0x20 DUP3 ADD SWAP1 POP SWAP2 SWAP1 POP JUMP JUMPDEST PUSH0 PUSH2 0xF2B DUP3 PUSH2 0xEC6 JUMP JUMPDEST PUSH2 0xF35 DUP2 DUP6 PUSH2 0xED0 JUMP JUMPDEST SWAP4 POP PUSH2 0xF40 DUP4 PUSH2 0xEE0 JUMP JUMPDEST DUP1 PUSH0 JUMPDEST DUP4 DUP2 LT ISZERO PUSH2 0xF70 JUMPI DUP2 MLOAD PUSH2 0xF57 DUP9 DUP3 PUSH2 0xEFE JUMP JUMPDEST SWAP8 POP PUSH2 0xF62 DUP4 PUSH2 0xF15 JUMP JUMPDEST SWAP3 POP POP PUSH1 0x1 DUP2 ADD SWAP1 POP PUSH2 0xF43 JUMP JUMPDEST POP DUP6 SWAP4 POP POP POP POP SWAP3 SWAP2 POP POP JUMP JUMPDEST PUSH0 PUSH1 0x20 DUP3 ADD SWAP1 POP DUP2 DUP2 SUB PUSH0 DUP4 ADD MSTORE PUSH2 0xF95 DUP2 DUP5 PUSH2 0xF21 JUMP JUMPDEST SWAP1 POP SWAP3 SWAP2 POP POP JUMP JUMPDEST PUSH32 0x4E487B7100000000000000000000000000000000000000000000000000000000 PUSH0 MSTORE PUSH1 0x31 PUSH1 0x4 MSTORE PUSH1 0x24 PUSH0 REVERT JUMPDEST PUSH32 0x4E487B7100000000000000000000000000000000000000000000000000000000 PUSH0 MSTORE PUSH1 0x32 PUSH1 0x4 MSTORE PUSH1 0x24 PUSH0 REVERT JUMPDEST PUSH32 0x4E487B7100000000000000000000000000000000000000000000000000000000 PUSH0 MSTORE PUSH1 0x11 PUSH1 0x4 MSTORE PUSH1 0x24 PUSH0 REVERT JUMPDEST PUSH0 PUSH2 0x102E DUP3 PUSH2 0xBCF JUMP JUMPDEST SWAP2 POP PUSH2 0x1039 DUP4 PUSH2 0xBCF JUMP JUMPDEST SWAP3 POP DUP3 DUP3 ADD SWAP1 POP DUP1 DUP3 GT ISZERO PUSH2 0x1051 JUMPI PUSH2 0x1050 PUSH2 0xFF7 JUMP JUMPDEST JUMPDEST SWAP3 SWAP2 POP POP JUMP JUMPDEST PUSH0 PUSH2 0x1061 DUP3 PUSH2 0xBCF JUMP JUMPDEST SWAP2 POP PUSH2 0x106C DUP4 PUSH2 0xBCF JUMP JUMPDEST SWAP3 POP DUP3 DUP3 MUL PUSH2 0x107A DUP2 PUSH2 0xBCF JUMP JUMPDEST SWAP2 POP DUP3 DUP3 DIV DUP5 EQ DUP4 ISZERO OR PUSH2 0x1091 JUMPI PUSH2 0x1090 PUSH2 0xFF7 JUMP JUMPDEST JUMPDEST POP SWAP3 SWAP2 POP POP JUMP JUMPDEST PUSH32 0x4E487B7100000000000000000000000000000000000000000000000000000000 PUSH0 MSTORE PUSH1 0x22 PUSH1 0x4 MSTORE PUSH1 0x24 PUSH0 REVERT JUMPDEST PUSH0 PUSH1 0x2 DUP3 DIV SWAP1 POP PUSH1 0x1 DUP3 AND DUP1 PUSH2 0x10DC JUMPI PUSH1 0x7F DUP3 AND SWAP2 POP JUMPDEST PUSH1 0x20 DUP3 LT DUP2 SUB PUSH2 0x10EF JUMPI PUSH2 0x10EE PUSH2 0x1098 JUMP JUMPDEST JUMPDEST POP SWAP2 SWAP1 POP JUMP JUMPDEST PUSH0 PUSH2 0x10FF DUP3 PUSH2 0xBCF JUMP JUMPDEST SWAP2 POP PUSH0 DUP3 SUB PUSH2 0x1111 JUMPI PUSH2 0x1110 PUSH2 0xFF7 JUMP JUMPDEST JUMPDEST PUSH1 0x1 DUP3 SUB SWAP1 POP SWAP2 SWAP1 POP JUMP JUMPDEST PUSH32 0x4E487B7100000000000000000000000000000000000000000000000000000000 PUSH0 MSTORE PUSH1 0x41 PUSH1 0x4 MSTORE PUSH1 0x24 PUSH0 REVERT INVALID LOG2 PUSH5 0x6970667358 0x22 SLT KECCAK256 0xE8 PUSH22 0xB71F57ECD186D331D4F5487B1F6B30C47250C0DDD89 0x4E SWAP2 DUP14 PUSH18 0x65DA588F64736F6C63430008160033000000 "
				},
				"gasEstimates": {
					"creation": {
						"codeDepositCost": "895800",
						"executionCost": "infinite",
						"totalCost": "infinite"
					},
					"external": {
						"arr(uint256)": "infinite",
						"arr2(uint256)": "infinite",
						"dec()": "infinite",
						"delAddr(address)": "5634",
						"examplesArr()": "491",
						"get(uint256)": "infinite",
						"getAddr(address)": "2896",
						"getArr()": "infinite",
						"getBoolFour(bool)": "infinite",
						"getBoolOne(bool)": "infinite",
						"getBoolThreee(bool)": "infinite",
						"getBoolTwo(bool)": "infinite",
						"getEnum()": "2605",
						"getLengthArr()": "2528",
						"getPayments(address,uint256)": "3207",
						"inc()": "infinite",
						"myAddr()": "2575",
						"myBool()": "2562",
						"myFixedSizeArray(uint256)": "infinite",
						"myStr()": "infinite",
						"myVar()": "2536",
						"ovwerFlow()": "infinite",
						"payments(address,uint256)": "3161",
						"popArr()": "29510",
						"pushArr(uint256)": "46889",
						"removeArr(uint256)": "7678",
						"setAddr(address,uint256)": "22890",
						"setPayments(address,uint256,bool)": "25290",
						"status()": "2597"
					}
				},
				"methodIdentifiers": {
					"arr(uint256)": "71e5ee5f",
					"arr2(uint256)": "edf0099b",
					"dec()": "b3bcfa82",
					"delAddr(address)": "e784f5b1",
					"examplesArr()": "b620df2a",
					"get(uint256)": "9507d39a",
					"getAddr(address)": "b4108a94",
					"getArr()": "fb8cbced",
					"getBoolFour(bool)": "e5860d12",
					"getBoolOne(bool)": "f10a31a1",
					"getBoolThreee(bool)": "235211f1",
					"getBoolTwo(bool)": "00d77e89",
					"getEnum()": "f0ebce5a",
					"getLengthArr()": "faf264bb",
					"getPayments(address,uint256)": "28f2d6cd",
					"inc()": "371303c0",
					"myAddr()": "e665b266",
					"myBool()": "6deecdbe",
					"myFixedSizeArray(uint256)": "4620b023",
					"myStr()": "5a455c1c",
					"myVar()": "c6b91540",
					"ovwerFlow()": "7a9632a8",
					"payments(address,uint256)": "ab63385c",
					"popArr()": "02899203",
					"pushArr(uint256)": "4bfec157",
					"removeArr(uint256)": "1c657043",
					"setAddr(address,uint256)": "a4d396ca",
					"setPayments(address,uint256,bool)": "701b3305",
					"status()": "200d2ed2"
				}
			},
			"storageLayout": {
				"storage": [
					{
						"astId": 10,
						"contract": "Lesson15ResultsOfTheWeek.sol:Lesson15",
						"label": "status",
						"offset": 0,
						"slot": "0",
						"type": "t_enum(Status)7"
					},
					{
						"astId": 12,
						"contract": "Lesson15ResultsOfTheWeek.sol:Lesson15",
						"label": "myVar",
						"offset": 0,
						"slot": "1",
						"type": "t_uint256"
					},
					{
						"astId": 14,
						"contract": "Lesson15ResultsOfTheWeek.sol:Lesson15",
						"label": "secVar",
						"offset": 0,
						"slot": "2",
						"type": "t_uint256"
					},
					{
						"astId": 16,
						"contract": "Lesson15ResultsOfTheWeek.sol:Lesson15",
						"label": "threeVar",
						"offset": 0,
						"slot": "3",
						"type": "t_int256"
					},
					{
						"astId": 18,
						"contract": "Lesson15ResultsOfTheWeek.sol:Lesson15",
						"label": "myStr",
						"offset": 0,
						"slot": "4",
						"type": "t_string_storage"
					},
					{
						"astId": 20,
						"contract": "Lesson15ResultsOfTheWeek.sol:Lesson15",
						"label": "secStr",
						"offset": 0,
						"slot": "5",
						"type": "t_string_storage"
					},
					{
						"astId": 22,
						"contract": "Lesson15ResultsOfTheWeek.sol:Lesson15",
						"label": "threeStr",
						"offset": 0,
						"slot": "6",
						"type": "t_string_storage"
					},
					{
						"astId": 24,
						"contract": "Lesson15ResultsOfTheWeek.sol:Lesson15",
						"label": "myAddr",
						"offset": 0,
						"slot": "7",
						"type": "t_address"
					},
					{
						"astId": 26,
						"contract": "Lesson15ResultsOfTheWeek.sol:Lesson15",
						"label": "secAddr",
						"offset": 0,
						"slot": "8",
						"type": "t_address"
					},
					{
						"astId": 28,
						"contract": "Lesson15ResultsOfTheWeek.sol:Lesson15",
						"label": "threeAddr",
						"offset": 0,
						"slot": "9",
						"type": "t_address_payable"
					},
					{
						"astId": 30,
						"contract": "Lesson15ResultsOfTheWeek.sol:Lesson15",
						"label": "myBool",
						"offset": 20,
						"slot": "9",
						"type": "t_bool"
					},
					{
						"astId": 32,
						"contract": "Lesson15ResultsOfTheWeek.sol:Lesson15",
						"label": "secBiool",
						"offset": 21,
						"slot": "9",
						"type": "t_bool"
					},
					{
						"astId": 34,
						"contract": "Lesson15ResultsOfTheWeek.sol:Lesson15",
						"label": "threeBool",
						"offset": 22,
						"slot": "9",
						"type": "t_bool"
					},
					{
						"astId": 44,
						"contract": "Lesson15ResultsOfTheWeek.sol:Lesson15",
						"label": "balances",
						"offset": 0,
						"slot": "10",
						"type": "t_mapping(t_address,t_uint256)"
					},
					{
						"astId": 50,
						"contract": "Lesson15ResultsOfTheWeek.sol:Lesson15",
						"label": "payments",
						"offset": 0,
						"slot": "11",
						"type": "t_mapping(t_address,t_mapping(t_uint256,t_bool))"
					},
					{
						"astId": 53,
						"contract": "Lesson15ResultsOfTheWeek.sol:Lesson15",
						"label": "arr",
						"offset": 0,
						"slot": "12",
						"type": "t_array(t_uint256)dyn_storage"
					},
					{
						"astId": 60,
						"contract": "Lesson15ResultsOfTheWeek.sol:Lesson15",
						"label": "arr2",
						"offset": 0,
						"slot": "13",
						"type": "t_array(t_uint256)dyn_storage"
					},
					{
						"astId": 64,
						"contract": "Lesson15ResultsOfTheWeek.sol:Lesson15",
						"label": "myFixedSizeArray",
						"offset": 0,
						"slot": "14",
						"type": "t_array(t_uint256)10_storage"
					}
				],
				"types": {
					"t_address": {
						"encoding": "inplace",
						"label": "address",
						"numberOfBytes": "20"
					},
					"t_address_payable": {
						"encoding": "inplace",
						"label": "address payable",
						"numberOfBytes": "20"
					},
					"t_array(t_uint256)10_storage": {
						"base": "t_uint256",
						"encoding": "inplace",
						"label": "uint256[10]",
						"numberOfBytes": "320"
					},
					"t_array(t_uint256)dyn_storage": {
						"base": "t_uint256",
						"encoding": "dynamic_array",
						"label": "uint256[]",
						"numberOfBytes": "32"
					},
					"t_bool": {
						"encoding": "inplace",
						"label": "bool",
						"numberOfBytes": "1"
					},
					"t_enum(Status)7": {
						"encoding": "inplace",
						"label": "enum Lesson15.Status",
						"numberOfBytes": "1"
					},
					"t_int256": {
						"encoding": "inplace",
						"label": "int256",
						"numberOfBytes": "32"
					},
					"t_mapping(t_address,t_mapping(t_uint256,t_bool))": {
						"encoding": "mapping",
						"key": "t_address",
						"label": "mapping(address => mapping(uint256 => bool))",
						"numberOfBytes": "32",
						"value": "t_mapping(t_uint256,t_bool)"
					},
					"t_mapping(t_address,t_uint256)": {
						"encoding": "mapping",
						"key": "t_address",
						"label": "mapping(address => uint256)",
						"numberOfBytes": "32",
						"value": "t_uint256"
					},
					"t_mapping(t_uint256,t_bool)": {
						"encoding": "mapping",
						"key": "t_uint256",
						"label": "mapping(uint256 => bool)",
						"numberOfBytes": "32",
						"value": "t_bool"
					},
					"t_string_storage": {
						"encoding": "bytes",
						"label": "string",
						"numberOfBytes": "32"
					},
					"t_uint256": {
						"encoding": "inplace",
						"label": "uint256",
						"numberOfBytes": "32"
					}
				}
			},
			"userdoc": {
				"kind": "user",
				"methods": {},
				"version": 1
			}
		}
	}
}