{
	"LessonDlegateCallAdditionally.sol": {
		"ContractTwo": {
			"abi": [
				{
					"inputs": [
						{
							"internalType": "address",
							"name": "contractOneAddress",
							"type": "address"
						},
						{
							"internalType": "uint256",
							"name": "a",
							"type": "uint256"
						},
						{
							"internalType": "uint256",
							"name": "b",
							"type": "uint256"
						}
					],
					"name": "callContractOne",
					"outputs": [
						{
							"internalType": "bytes",
							"name": "",
							"type": "bytes"
						}
					],
					"stateMutability": "nonpayable",
					"type": "function"
				}
			],
			"devdoc": {
				"kind": "dev",
				"methods": {},
				"version": 1
			},
			"evm": {
				"assembly": "    /* \"LessonDlegateCallAdditionally.sol\":1683:2370  contract ContractTwo {... */\n  mstore(0x40, 0x80)\n  callvalue\n  dup1\n  iszero\n  tag_1\n  jumpi\n  0x00\n  dup1\n  revert\ntag_1:\n  pop\n  dataSize(sub_0)\n  dup1\n  dataOffset(sub_0)\n  0x00\n  codecopy\n  0x00\n  return\nstop\n\nsub_0: assembly {\n        /* \"LessonDlegateCallAdditionally.sol\":1683:2370  contract ContractTwo {... */\n      mstore(0x40, 0x80)\n      callvalue\n      dup1\n      iszero\n      tag_1\n      jumpi\n      0x00\n      dup1\n      revert\n    tag_1:\n      pop\n      jumpi(tag_2, lt(calldatasize, 0x04))\n      shr(0xe0, calldataload(0x00))\n      dup1\n      0x696aa342\n      eq\n      tag_3\n      jumpi\n    tag_2:\n      0x00\n      dup1\n      revert\n        /* \"LessonDlegateCallAdditionally.sol\":1793:2367  function callContractOne(address contractOneAddress, uint a, uint b) public returns (bytes memory) {... */\n    tag_3:\n      tag_4\n      0x04\n      dup1\n      calldatasize\n      sub\n      dup2\n      add\n      swap1\n      tag_5\n      swap2\n      swap1\n      tag_6\n      jump\t// in\n    tag_5:\n      tag_7\n      jump\t// in\n    tag_4:\n      mload(0x40)\n      tag_8\n      swap2\n      swap1\n      tag_9\n      jump\t// in\n    tag_8:\n      mload(0x40)\n      dup1\n      swap2\n      sub\n      swap1\n      return\n    tag_7:\n        /* \"LessonDlegateCallAdditionally.sol\":1878:1890  bytes memory */\n      0x60\n        /* \"LessonDlegateCallAdditionally.sol\":2005:2025  bytes memory payload */\n      0x00\n        /* \"LessonDlegateCallAdditionally.sol\":2086:2087  a */\n      dup4\n        /* \"LessonDlegateCallAdditionally.sol\":2089:2090  b */\n      dup4\n        /* \"LessonDlegateCallAdditionally.sol\":2028:2091  abi.encodeWithSignature(\"doCalculation(uint256,uint256)\", a, b) */\n      add(0x24, mload(0x40))\n      tag_11\n      swap3\n      swap2\n      swap1\n      tag_12\n      jump\t// in\n    tag_11:\n      mload(0x40)\n      0x20\n      dup2\n      dup4\n      sub\n      sub\n      dup2\n      mstore\n      swap1\n      0x40\n      mstore\n      and(not(0xffffffffffffffffffffffffffffffffffffffffffffffffffffffff), 0x9abadad500000000000000000000000000000000000000000000000000000000)\n      0x20\n      dup3\n      add\n      dup1\n      mload\n      0xffffffffffffffffffffffffffffffffffffffffffffffffffffffff\n      dup4\n      dup2\n      dup4\n      and\n      or\n      dup4\n      mstore\n      pop\n      pop\n      pop\n      pop\n        /* \"LessonDlegateCallAdditionally.sol\":2005:2091  bytes memory payload = abi.encodeWithSignature(\"doCalculation(uint256,uint256)\", a, b) */\n      swap1\n      pop\n        /* \"LessonDlegateCallAdditionally.sol\":2181:2193  bool success */\n      0x00\n        /* \"LessonDlegateCallAdditionally.sol\":2195:2218  bytes memory returnData */\n      dup1\n        /* \"LessonDlegateCallAdditionally.sol\":2222:2240  contractOneAddress */\n      dup7\n        /* \"LessonDlegateCallAdditionally.sol\":2222:2245  contractOneAddress.call */\n      0xffffffffffffffffffffffffffffffffffffffff\n      and\n        /* \"LessonDlegateCallAdditionally.sol\":2253:2254  0 */\n      0x00\n        /* \"LessonDlegateCallAdditionally.sol\":2256:2263  payload */\n      dup5\n        /* \"LessonDlegateCallAdditionally.sol\":2222:2264  contractOneAddress.call{value: 0}(payload) */\n      mload(0x40)\n      tag_13\n      swap2\n      swap1\n      tag_14\n      jump\t// in\n    tag_13:\n      0x00\n      mload(0x40)\n      dup1\n      dup4\n      sub\n      dup2\n      dup6\n      dup8\n      gas\n      call\n      swap3\n      pop\n      pop\n      pop\n      returndatasize\n      dup1\n      0x00\n      dup2\n      eq\n      tag_17\n      jumpi\n      mload(0x40)\n      swap2\n      pop\n      and(add(returndatasize, 0x3f), not(0x1f))\n      dup3\n      add\n      0x40\n      mstore\n      returndatasize\n      dup3\n      mstore\n      returndatasize\n      0x00\n      0x20\n      dup5\n      add\n      returndatacopy\n      jump(tag_16)\n    tag_17:\n      0x60\n      swap2\n      pop\n    tag_16:\n      pop\n        /* \"LessonDlegateCallAdditionally.sol\":2180:2264  (bool success, bytes memory returnData) = contractOneAddress.call{value: 0}(payload) */\n      swap2\n      pop\n      swap2\n      pop\n        /* \"LessonDlegateCallAdditionally.sol\":2283:2290  success */\n      dup2\n        /* \"LessonDlegateCallAdditionally.sol\":2275:2321  require(success, \"Call to ContractOne failed\") */\n      tag_18\n      jumpi\n      mload(0x40)\n      0x08c379a000000000000000000000000000000000000000000000000000000000\n      dup2\n      mstore\n      0x04\n      add\n      tag_19\n      swap1\n      tag_20\n      jump\t// in\n    tag_19:\n      mload(0x40)\n      dup1\n      swap2\n      sub\n      swap1\n      revert\n    tag_18:\n        /* \"LessonDlegateCallAdditionally.sol\":2349:2359  returnData */\n      dup1\n        /* \"LessonDlegateCallAdditionally.sol\":2342:2359  return returnData */\n      swap4\n      pop\n      pop\n      pop\n      pop\n        /* \"LessonDlegateCallAdditionally.sol\":1793:2367  function callContractOne(address contractOneAddress, uint a, uint b) public returns (bytes memory) {... */\n      swap4\n      swap3\n      pop\n      pop\n      pop\n      jump\t// out\n        /* \"#utility.yul\":88:205   */\n    tag_22:\n        /* \"#utility.yul\":197:198   */\n      0x00\n        /* \"#utility.yul\":194:195   */\n      dup1\n        /* \"#utility.yul\":187:199   */\n      revert\n        /* \"#utility.yul\":334:460   */\n    tag_24:\n        /* \"#utility.yul\":371:378   */\n      0x00\n        /* \"#utility.yul\":411:453   */\n      0xffffffffffffffffffffffffffffffffffffffff\n        /* \"#utility.yul\":404:409   */\n      dup3\n        /* \"#utility.yul\":400:454   */\n      and\n        /* \"#utility.yul\":389:454   */\n      swap1\n      pop\n        /* \"#utility.yul\":334:460   */\n      swap2\n      swap1\n      pop\n      jump\t// out\n        /* \"#utility.yul\":466:562   */\n    tag_25:\n        /* \"#utility.yul\":503:510   */\n      0x00\n        /* \"#utility.yul\":532:556   */\n      tag_48\n        /* \"#utility.yul\":550:555   */\n      dup3\n        /* \"#utility.yul\":532:556   */\n      tag_24\n      jump\t// in\n    tag_48:\n        /* \"#utility.yul\":521:556   */\n      swap1\n      pop\n        /* \"#utility.yul\":466:562   */\n      swap2\n      swap1\n      pop\n      jump\t// out\n        /* \"#utility.yul\":568:690   */\n    tag_26:\n        /* \"#utility.yul\":641:665   */\n      tag_50\n        /* \"#utility.yul\":659:664   */\n      dup2\n        /* \"#utility.yul\":641:665   */\n      tag_25\n      jump\t// in\n    tag_50:\n        /* \"#utility.yul\":634:639   */\n      dup2\n        /* \"#utility.yul\":631:666   */\n      eq\n        /* \"#utility.yul\":621:684   */\n      tag_51\n      jumpi\n        /* \"#utility.yul\":680:681   */\n      0x00\n        /* \"#utility.yul\":677:678   */\n      dup1\n        /* \"#utility.yul\":670:682   */\n      revert\n        /* \"#utility.yul\":621:684   */\n    tag_51:\n        /* \"#utility.yul\":568:690   */\n      pop\n      jump\t// out\n        /* \"#utility.yul\":696:835   */\n    tag_27:\n        /* \"#utility.yul\":742:747   */\n      0x00\n        /* \"#utility.yul\":780:786   */\n      dup2\n        /* \"#utility.yul\":767:787   */\n      calldataload\n        /* \"#utility.yul\":758:787   */\n      swap1\n      pop\n        /* \"#utility.yul\":796:829   */\n      tag_53\n        /* \"#utility.yul\":823:828   */\n      dup2\n        /* \"#utility.yul\":796:829   */\n      tag_26\n      jump\t// in\n    tag_53:\n        /* \"#utility.yul\":696:835   */\n      swap3\n      swap2\n      pop\n      pop\n      jump\t// out\n        /* \"#utility.yul\":841:918   */\n    tag_28:\n        /* \"#utility.yul\":878:885   */\n      0x00\n        /* \"#utility.yul\":907:912   */\n      dup2\n        /* \"#utility.yul\":896:912   */\n      swap1\n      pop\n        /* \"#utility.yul\":841:918   */\n      swap2\n      swap1\n      pop\n      jump\t// out\n        /* \"#utility.yul\":924:1046   */\n    tag_29:\n        /* \"#utility.yul\":997:1021   */\n      tag_56\n        /* \"#utility.yul\":1015:1020   */\n      dup2\n        /* \"#utility.yul\":997:1021   */\n      tag_28\n      jump\t// in\n    tag_56:\n        /* \"#utility.yul\":990:995   */\n      dup2\n        /* \"#utility.yul\":987:1022   */\n      eq\n        /* \"#utility.yul\":977:1040   */\n      tag_57\n      jumpi\n        /* \"#utility.yul\":1036:1037   */\n      0x00\n        /* \"#utility.yul\":1033:1034   */\n      dup1\n        /* \"#utility.yul\":1026:1038   */\n      revert\n        /* \"#utility.yul\":977:1040   */\n    tag_57:\n        /* \"#utility.yul\":924:1046   */\n      pop\n      jump\t// out\n        /* \"#utility.yul\":1052:1191   */\n    tag_30:\n        /* \"#utility.yul\":1098:1103   */\n      0x00\n        /* \"#utility.yul\":1136:1142   */\n      dup2\n        /* \"#utility.yul\":1123:1143   */\n      calldataload\n        /* \"#utility.yul\":1114:1143   */\n      swap1\n      pop\n        /* \"#utility.yul\":1152:1185   */\n      tag_59\n        /* \"#utility.yul\":1179:1184   */\n      dup2\n        /* \"#utility.yul\":1152:1185   */\n      tag_29\n      jump\t// in\n    tag_59:\n        /* \"#utility.yul\":1052:1191   */\n      swap3\n      swap2\n      pop\n      pop\n      jump\t// out\n        /* \"#utility.yul\":1197:1816   */\n    tag_6:\n        /* \"#utility.yul\":1274:1280   */\n      0x00\n        /* \"#utility.yul\":1282:1288   */\n      dup1\n        /* \"#utility.yul\":1290:1296   */\n      0x00\n        /* \"#utility.yul\":1339:1341   */\n      0x60\n        /* \"#utility.yul\":1327:1336   */\n      dup5\n        /* \"#utility.yul\":1318:1325   */\n      dup7\n        /* \"#utility.yul\":1314:1337   */\n      sub\n        /* \"#utility.yul\":1310:1342   */\n      slt\n        /* \"#utility.yul\":1307:1426   */\n      iszero\n      tag_61\n      jumpi\n        /* \"#utility.yul\":1345:1424   */\n      tag_62\n      tag_22\n      jump\t// in\n    tag_62:\n        /* \"#utility.yul\":1307:1426   */\n    tag_61:\n        /* \"#utility.yul\":1465:1466   */\n      0x00\n        /* \"#utility.yul\":1490:1543   */\n      tag_63\n        /* \"#utility.yul\":1535:1542   */\n      dup7\n        /* \"#utility.yul\":1526:1532   */\n      dup3\n        /* \"#utility.yul\":1515:1524   */\n      dup8\n        /* \"#utility.yul\":1511:1533   */\n      add\n        /* \"#utility.yul\":1490:1543   */\n      tag_27\n      jump\t// in\n    tag_63:\n        /* \"#utility.yul\":1480:1543   */\n      swap4\n      pop\n        /* \"#utility.yul\":1436:1553   */\n      pop\n        /* \"#utility.yul\":1592:1594   */\n      0x20\n        /* \"#utility.yul\":1618:1671   */\n      tag_64\n        /* \"#utility.yul\":1663:1670   */\n      dup7\n        /* \"#utility.yul\":1654:1660   */\n      dup3\n        /* \"#utility.yul\":1643:1652   */\n      dup8\n        /* \"#utility.yul\":1639:1661   */\n      add\n        /* \"#utility.yul\":1618:1671   */\n      tag_30\n      jump\t// in\n    tag_64:\n        /* \"#utility.yul\":1608:1671   */\n      swap3\n      pop\n        /* \"#utility.yul\":1563:1681   */\n      pop\n        /* \"#utility.yul\":1720:1722   */\n      0x40\n        /* \"#utility.yul\":1746:1799   */\n      tag_65\n        /* \"#utility.yul\":1791:1798   */\n      dup7\n        /* \"#utility.yul\":1782:1788   */\n      dup3\n        /* \"#utility.yul\":1771:1780   */\n      dup8\n        /* \"#utility.yul\":1767:1789   */\n      add\n        /* \"#utility.yul\":1746:1799   */\n      tag_30\n      jump\t// in\n    tag_65:\n        /* \"#utility.yul\":1736:1799   */\n      swap2\n      pop\n        /* \"#utility.yul\":1691:1809   */\n      pop\n        /* \"#utility.yul\":1197:1816   */\n      swap3\n      pop\n      swap3\n      pop\n      swap3\n      jump\t// out\n        /* \"#utility.yul\":1822:1920   */\n    tag_31:\n        /* \"#utility.yul\":1873:1879   */\n      0x00\n        /* \"#utility.yul\":1907:1912   */\n      dup2\n        /* \"#utility.yul\":1901:1913   */\n      mload\n        /* \"#utility.yul\":1891:1913   */\n      swap1\n      pop\n        /* \"#utility.yul\":1822:1920   */\n      swap2\n      swap1\n      pop\n      jump\t// out\n        /* \"#utility.yul\":1926:2094   */\n    tag_32:\n        /* \"#utility.yul\":2009:2020   */\n      0x00\n        /* \"#utility.yul\":2043:2049   */\n      dup3\n        /* \"#utility.yul\":2038:2041   */\n      dup3\n        /* \"#utility.yul\":2031:2050   */\n      mstore\n        /* \"#utility.yul\":2083:2087   */\n      0x20\n        /* \"#utility.yul\":2078:2081   */\n      dup3\n        /* \"#utility.yul\":2074:2088   */\n      add\n        /* \"#utility.yul\":2059:2088   */\n      swap1\n      pop\n        /* \"#utility.yul\":1926:2094   */\n      swap3\n      swap2\n      pop\n      pop\n      jump\t// out\n        /* \"#utility.yul\":2100:2346   */\n    tag_33:\n        /* \"#utility.yul\":2181:2182   */\n      0x00\n        /* \"#utility.yul\":2191:2304   */\n    tag_69:\n        /* \"#utility.yul\":2205:2211   */\n      dup4\n        /* \"#utility.yul\":2202:2203   */\n      dup2\n        /* \"#utility.yul\":2199:2212   */\n      lt\n        /* \"#utility.yul\":2191:2304   */\n      iszero\n      tag_71\n      jumpi\n        /* \"#utility.yul\":2290:2291   */\n      dup1\n        /* \"#utility.yul\":2285:2288   */\n      dup3\n        /* \"#utility.yul\":2281:2292   */\n      add\n        /* \"#utility.yul\":2275:2293   */\n      mload\n        /* \"#utility.yul\":2271:2272   */\n      dup2\n        /* \"#utility.yul\":2266:2269   */\n      dup5\n        /* \"#utility.yul\":2262:2273   */\n      add\n        /* \"#utility.yul\":2255:2294   */\n      mstore\n        /* \"#utility.yul\":2227:2229   */\n      0x20\n        /* \"#utility.yul\":2224:2225   */\n      dup2\n        /* \"#utility.yul\":2220:2230   */\n      add\n        /* \"#utility.yul\":2215:2230   */\n      swap1\n      pop\n        /* \"#utility.yul\":2191:2304   */\n      jump(tag_69)\n    tag_71:\n        /* \"#utility.yul\":2338:2339   */\n      0x00\n        /* \"#utility.yul\":2329:2335   */\n      dup5\n        /* \"#utility.yul\":2324:2327   */\n      dup5\n        /* \"#utility.yul\":2320:2336   */\n      add\n        /* \"#utility.yul\":2313:2340   */\n      mstore\n        /* \"#utility.yul\":2162:2346   */\n      pop\n        /* \"#utility.yul\":2100:2346   */\n      pop\n      pop\n      pop\n      jump\t// out\n        /* \"#utility.yul\":2352:2454   */\n    tag_34:\n        /* \"#utility.yul\":2393:2399   */\n      0x00\n        /* \"#utility.yul\":2444:2446   */\n      0x1f\n        /* \"#utility.yul\":2440:2447   */\n      not\n        /* \"#utility.yul\":2435:2437   */\n      0x1f\n        /* \"#utility.yul\":2428:2433   */\n      dup4\n        /* \"#utility.yul\":2424:2438   */\n      add\n        /* \"#utility.yul\":2420:2448   */\n      and\n        /* \"#utility.yul\":2410:2448   */\n      swap1\n      pop\n        /* \"#utility.yul\":2352:2454   */\n      swap2\n      swap1\n      pop\n      jump\t// out\n        /* \"#utility.yul\":2460:2833   */\n    tag_35:\n        /* \"#utility.yul\":2546:2549   */\n      0x00\n        /* \"#utility.yul\":2574:2612   */\n      tag_74\n        /* \"#utility.yul\":2606:2611   */\n      dup3\n        /* \"#utility.yul\":2574:2612   */\n      tag_31\n      jump\t// in\n    tag_74:\n        /* \"#utility.yul\":2628:2698   */\n      tag_75\n        /* \"#utility.yul\":2691:2697   */\n      dup2\n        /* \"#utility.yul\":2686:2689   */\n      dup6\n        /* \"#utility.yul\":2628:2698   */\n      tag_32\n      jump\t// in\n    tag_75:\n        /* \"#utility.yul\":2621:2698   */\n      swap4\n      pop\n        /* \"#utility.yul\":2707:2772   */\n      tag_76\n        /* \"#utility.yul\":2765:2771   */\n      dup2\n        /* \"#utility.yul\":2760:2763   */\n      dup6\n        /* \"#utility.yul\":2753:2757   */\n      0x20\n        /* \"#utility.yul\":2746:2751   */\n      dup7\n        /* \"#utility.yul\":2742:2758   */\n      add\n        /* \"#utility.yul\":2707:2772   */\n      tag_33\n      jump\t// in\n    tag_76:\n        /* \"#utility.yul\":2797:2826   */\n      tag_77\n        /* \"#utility.yul\":2819:2825   */\n      dup2\n        /* \"#utility.yul\":2797:2826   */\n      tag_34\n      jump\t// in\n    tag_77:\n        /* \"#utility.yul\":2792:2795   */\n      dup5\n        /* \"#utility.yul\":2788:2827   */\n      add\n        /* \"#utility.yul\":2781:2827   */\n      swap2\n      pop\n        /* \"#utility.yul\":2550:2833   */\n      pop\n        /* \"#utility.yul\":2460:2833   */\n      swap3\n      swap2\n      pop\n      pop\n      jump\t// out\n        /* \"#utility.yul\":2839:3148   */\n    tag_9:\n        /* \"#utility.yul\":2950:2954   */\n      0x00\n        /* \"#utility.yul\":2988:2990   */\n      0x20\n        /* \"#utility.yul\":2977:2986   */\n      dup3\n        /* \"#utility.yul\":2973:2991   */\n      add\n        /* \"#utility.yul\":2965:2991   */\n      swap1\n      pop\n        /* \"#utility.yul\":3037:3046   */\n      dup2\n        /* \"#utility.yul\":3031:3035   */\n      dup2\n        /* \"#utility.yul\":3027:3047   */\n      sub\n        /* \"#utility.yul\":3023:3024   */\n      0x00\n        /* \"#utility.yul\":3012:3021   */\n      dup4\n        /* \"#utility.yul\":3008:3025   */\n      add\n        /* \"#utility.yul\":3001:3048   */\n      mstore\n        /* \"#utility.yul\":3065:3141   */\n      tag_79\n        /* \"#utility.yul\":3136:3140   */\n      dup2\n        /* \"#utility.yul\":3127:3133   */\n      dup5\n        /* \"#utility.yul\":3065:3141   */\n      tag_35\n      jump\t// in\n    tag_79:\n        /* \"#utility.yul\":3057:3141   */\n      swap1\n      pop\n        /* \"#utility.yul\":2839:3148   */\n      swap3\n      swap2\n      pop\n      pop\n      jump\t// out\n        /* \"#utility.yul\":3154:3272   */\n    tag_36:\n        /* \"#utility.yul\":3241:3265   */\n      tag_81\n        /* \"#utility.yul\":3259:3264   */\n      dup2\n        /* \"#utility.yul\":3241:3265   */\n      tag_28\n      jump\t// in\n    tag_81:\n        /* \"#utility.yul\":3236:3239   */\n      dup3\n        /* \"#utility.yul\":3229:3266   */\n      mstore\n        /* \"#utility.yul\":3154:3272   */\n      pop\n      pop\n      jump\t// out\n        /* \"#utility.yul\":3278:3610   */\n    tag_12:\n        /* \"#utility.yul\":3399:3403   */\n      0x00\n        /* \"#utility.yul\":3437:3439   */\n      0x40\n        /* \"#utility.yul\":3426:3435   */\n      dup3\n        /* \"#utility.yul\":3422:3440   */\n      add\n        /* \"#utility.yul\":3414:3440   */\n      swap1\n      pop\n        /* \"#utility.yul\":3450:3521   */\n      tag_83\n        /* \"#utility.yul\":3518:3519   */\n      0x00\n        /* \"#utility.yul\":3507:3516   */\n      dup4\n        /* \"#utility.yul\":3503:3520   */\n      add\n        /* \"#utility.yul\":3494:3500   */\n      dup6\n        /* \"#utility.yul\":3450:3521   */\n      tag_36\n      jump\t// in\n    tag_83:\n        /* \"#utility.yul\":3531:3603   */\n      tag_84\n        /* \"#utility.yul\":3599:3601   */\n      0x20\n        /* \"#utility.yul\":3588:3597   */\n      dup4\n        /* \"#utility.yul\":3584:3602   */\n      add\n        /* \"#utility.yul\":3575:3581   */\n      dup5\n        /* \"#utility.yul\":3531:3603   */\n      tag_36\n      jump\t// in\n    tag_84:\n        /* \"#utility.yul\":3278:3610   */\n      swap4\n      swap3\n      pop\n      pop\n      pop\n      jump\t// out\n        /* \"#utility.yul\":3616:3763   */\n    tag_37:\n        /* \"#utility.yul\":3717:3728   */\n      0x00\n        /* \"#utility.yul\":3754:3757   */\n      dup2\n        /* \"#utility.yul\":3739:3757   */\n      swap1\n      pop\n        /* \"#utility.yul\":3616:3763   */\n      swap3\n      swap2\n      pop\n      pop\n      jump\t// out\n        /* \"#utility.yul\":3769:4155   */\n    tag_38:\n        /* \"#utility.yul\":3873:3876   */\n      0x00\n        /* \"#utility.yul\":3901:3939   */\n      tag_87\n        /* \"#utility.yul\":3933:3938   */\n      dup3\n        /* \"#utility.yul\":3901:3939   */\n      tag_31\n      jump\t// in\n    tag_87:\n        /* \"#utility.yul\":3955:4043   */\n      tag_88\n        /* \"#utility.yul\":4036:4042   */\n      dup2\n        /* \"#utility.yul\":4031:4034   */\n      dup6\n        /* \"#utility.yul\":3955:4043   */\n      tag_37\n      jump\t// in\n    tag_88:\n        /* \"#utility.yul\":3948:4043   */\n      swap4\n      pop\n        /* \"#utility.yul\":4052:4117   */\n      tag_89\n        /* \"#utility.yul\":4110:4116   */\n      dup2\n        /* \"#utility.yul\":4105:4108   */\n      dup6\n        /* \"#utility.yul\":4098:4102   */\n      0x20\n        /* \"#utility.yul\":4091:4096   */\n      dup7\n        /* \"#utility.yul\":4087:4103   */\n      add\n        /* \"#utility.yul\":4052:4117   */\n      tag_33\n      jump\t// in\n    tag_89:\n        /* \"#utility.yul\":4142:4148   */\n      dup1\n        /* \"#utility.yul\":4137:4140   */\n      dup5\n        /* \"#utility.yul\":4133:4149   */\n      add\n        /* \"#utility.yul\":4126:4149   */\n      swap2\n      pop\n        /* \"#utility.yul\":3877:4155   */\n      pop\n        /* \"#utility.yul\":3769:4155   */\n      swap3\n      swap2\n      pop\n      pop\n      jump\t// out\n        /* \"#utility.yul\":4161:4432   */\n    tag_14:\n        /* \"#utility.yul\":4291:4294   */\n      0x00\n        /* \"#utility.yul\":4313:4406   */\n      tag_91\n        /* \"#utility.yul\":4402:4405   */\n      dup3\n        /* \"#utility.yul\":4393:4399   */\n      dup5\n        /* \"#utility.yul\":4313:4406   */\n      tag_38\n      jump\t// in\n    tag_91:\n        /* \"#utility.yul\":4306:4406   */\n      swap2\n      pop\n        /* \"#utility.yul\":4423:4426   */\n      dup2\n        /* \"#utility.yul\":4416:4426   */\n      swap1\n      pop\n        /* \"#utility.yul\":4161:4432   */\n      swap3\n      swap2\n      pop\n      pop\n      jump\t// out\n        /* \"#utility.yul\":4438:4607   */\n    tag_39:\n        /* \"#utility.yul\":4522:4533   */\n      0x00\n        /* \"#utility.yul\":4556:4562   */\n      dup3\n        /* \"#utility.yul\":4551:4554   */\n      dup3\n        /* \"#utility.yul\":4544:4563   */\n      mstore\n        /* \"#utility.yul\":4596:4600   */\n      0x20\n        /* \"#utility.yul\":4591:4594   */\n      dup3\n        /* \"#utility.yul\":4587:4601   */\n      add\n        /* \"#utility.yul\":4572:4601   */\n      swap1\n      pop\n        /* \"#utility.yul\":4438:4607   */\n      swap3\n      swap2\n      pop\n      pop\n      jump\t// out\n        /* \"#utility.yul\":4613:4789   */\n    tag_40:\n        /* \"#utility.yul\":4753:4781   */\n      0x43616c6c20746f20436f6e74726163744f6e65206661696c6564000000000000\n        /* \"#utility.yul\":4749:4750   */\n      0x00\n        /* \"#utility.yul\":4741:4747   */\n      dup3\n        /* \"#utility.yul\":4737:4751   */\n      add\n        /* \"#utility.yul\":4730:4782   */\n      mstore\n        /* \"#utility.yul\":4613:4789   */\n      pop\n      jump\t// out\n        /* \"#utility.yul\":4795:5161   */\n    tag_41:\n        /* \"#utility.yul\":4937:4940   */\n      0x00\n        /* \"#utility.yul\":4958:5025   */\n      tag_95\n        /* \"#utility.yul\":5022:5024   */\n      0x1a\n        /* \"#utility.yul\":5017:5020   */\n      dup4\n        /* \"#utility.yul\":4958:5025   */\n      tag_39\n      jump\t// in\n    tag_95:\n        /* \"#utility.yul\":4951:5025   */\n      swap2\n      pop\n        /* \"#utility.yul\":5034:5127   */\n      tag_96\n        /* \"#utility.yul\":5123:5126   */\n      dup3\n        /* \"#utility.yul\":5034:5127   */\n      tag_40\n      jump\t// in\n    tag_96:\n        /* \"#utility.yul\":5152:5154   */\n      0x20\n        /* \"#utility.yul\":5147:5150   */\n      dup3\n        /* \"#utility.yul\":5143:5155   */\n      add\n        /* \"#utility.yul\":5136:5155   */\n      swap1\n      pop\n        /* \"#utility.yul\":4795:5161   */\n      swap2\n      swap1\n      pop\n      jump\t// out\n        /* \"#utility.yul\":5167:5586   */\n    tag_20:\n        /* \"#utility.yul\":5333:5337   */\n      0x00\n        /* \"#utility.yul\":5371:5373   */\n      0x20\n        /* \"#utility.yul\":5360:5369   */\n      dup3\n        /* \"#utility.yul\":5356:5374   */\n      add\n        /* \"#utility.yul\":5348:5374   */\n      swap1\n      pop\n        /* \"#utility.yul\":5420:5429   */\n      dup2\n        /* \"#utility.yul\":5414:5418   */\n      dup2\n        /* \"#utility.yul\":5410:5430   */\n      sub\n        /* \"#utility.yul\":5406:5407   */\n      0x00\n        /* \"#utility.yul\":5395:5404   */\n      dup4\n        /* \"#utility.yul\":5391:5408   */\n      add\n        /* \"#utility.yul\":5384:5431   */\n      mstore\n        /* \"#utility.yul\":5448:5579   */\n      tag_98\n        /* \"#utility.yul\":5574:5578   */\n      dup2\n        /* \"#utility.yul\":5448:5579   */\n      tag_41\n      jump\t// in\n    tag_98:\n        /* \"#utility.yul\":5440:5579   */\n      swap1\n      pop\n        /* \"#utility.yul\":5167:5586   */\n      swap2\n      swap1\n      pop\n      jump\t// out\n\n    auxdata: 0xa2646970667358221220501e8e7531890e5c2c8ccb9b05a60a461add894901c7674aebb04e2b0299caf264736f6c63430008160033\n}\n",
				"bytecode": {
					"linkReferences": {},
					"object": "608060405234801561000f575f80fd5b5061046a8061001d5f395ff3fe608060405234801561000f575f80fd5b5060043610610029575f3560e01c8063696aa3421461002d575b5f80fd5b6100476004803603810190610042919061023c565b61005d565b6040516100549190610316565b60405180910390f35b60605f8383604051602401610073929190610345565b6040516020818303038152906040527f9abadad5000000000000000000000000000000000000000000000000000000007bffffffffffffffffffffffffffffffffffffffffffffffffffffffff19166020820180517bffffffffffffffffffffffffffffffffffffffffffffffffffffffff838183161783525050505090505f808673ffffffffffffffffffffffffffffffffffffffff165f8460405161011a91906103a6565b5f6040518083038185875af1925050503d805f8114610154576040519150601f19603f3d011682016040523d82523d5f602084013e610159565b606091505b50915091508161019e576040517f08c379a000000000000000000000000000000000000000000000000000000000815260040161019590610416565b60405180910390fd5b8093505050509392505050565b5f80fd5b5f73ffffffffffffffffffffffffffffffffffffffff82169050919050565b5f6101d8826101af565b9050919050565b6101e8816101ce565b81146101f2575f80fd5b50565b5f81359050610203816101df565b92915050565b5f819050919050565b61021b81610209565b8114610225575f80fd5b50565b5f8135905061023681610212565b92915050565b5f805f60608486031215610253576102526101ab565b5b5f610260868287016101f5565b935050602061027186828701610228565b925050604061028286828701610228565b9150509250925092565b5f81519050919050565b5f82825260208201905092915050565b5f5b838110156102c35780820151818401526020810190506102a8565b5f8484015250505050565b5f601f19601f8301169050919050565b5f6102e88261028c565b6102f28185610296565b93506103028185602086016102a6565b61030b816102ce565b840191505092915050565b5f6020820190508181035f83015261032e81846102de565b905092915050565b61033f81610209565b82525050565b5f6040820190506103585f830185610336565b6103656020830184610336565b9392505050565b5f81905092915050565b5f6103808261028c565b61038a818561036c565b935061039a8185602086016102a6565b80840191505092915050565b5f6103b18284610376565b915081905092915050565b5f82825260208201905092915050565b7f43616c6c20746f20436f6e74726163744f6e65206661696c65640000000000005f82015250565b5f610400601a836103bc565b915061040b826103cc565b602082019050919050565b5f6020820190508181035f83015261042d816103f4565b905091905056fea2646970667358221220501e8e7531890e5c2c8ccb9b05a60a461add894901c7674aebb04e2b0299caf264736f6c63430008160033",
					"opcodes": "PUSH1 0x80 PUSH1 0x40 MSTORE CALLVALUE DUP1 ISZERO PUSH2 0xF JUMPI PUSH0 DUP1 REVERT JUMPDEST POP PUSH2 0x46A DUP1 PUSH2 0x1D PUSH0 CODECOPY PUSH0 RETURN INVALID PUSH1 0x80 PUSH1 0x40 MSTORE CALLVALUE DUP1 ISZERO PUSH2 0xF JUMPI PUSH0 DUP1 REVERT JUMPDEST POP PUSH1 0x4 CALLDATASIZE LT PUSH2 0x29 JUMPI PUSH0 CALLDATALOAD PUSH1 0xE0 SHR DUP1 PUSH4 0x696AA342 EQ PUSH2 0x2D JUMPI JUMPDEST PUSH0 DUP1 REVERT JUMPDEST PUSH2 0x47 PUSH1 0x4 DUP1 CALLDATASIZE SUB DUP2 ADD SWAP1 PUSH2 0x42 SWAP2 SWAP1 PUSH2 0x23C JUMP JUMPDEST PUSH2 0x5D JUMP JUMPDEST PUSH1 0x40 MLOAD PUSH2 0x54 SWAP2 SWAP1 PUSH2 0x316 JUMP JUMPDEST PUSH1 0x40 MLOAD DUP1 SWAP2 SUB SWAP1 RETURN JUMPDEST PUSH1 0x60 PUSH0 DUP4 DUP4 PUSH1 0x40 MLOAD PUSH1 0x24 ADD PUSH2 0x73 SWAP3 SWAP2 SWAP1 PUSH2 0x345 JUMP JUMPDEST PUSH1 0x40 MLOAD PUSH1 0x20 DUP2 DUP4 SUB SUB DUP2 MSTORE SWAP1 PUSH1 0x40 MSTORE PUSH32 0x9ABADAD500000000000000000000000000000000000000000000000000000000 PUSH28 0xFFFFFFFFFFFFFFFFFFFFFFFFFFFFFFFFFFFFFFFFFFFFFFFFFFFFFFFF NOT AND PUSH1 0x20 DUP3 ADD DUP1 MLOAD PUSH28 0xFFFFFFFFFFFFFFFFFFFFFFFFFFFFFFFFFFFFFFFFFFFFFFFFFFFFFFFF DUP4 DUP2 DUP4 AND OR DUP4 MSTORE POP POP POP POP SWAP1 POP PUSH0 DUP1 DUP7 PUSH20 0xFFFFFFFFFFFFFFFFFFFFFFFFFFFFFFFFFFFFFFFF AND PUSH0 DUP5 PUSH1 0x40 MLOAD PUSH2 0x11A SWAP2 SWAP1 PUSH2 0x3A6 JUMP JUMPDEST PUSH0 PUSH1 0x40 MLOAD DUP1 DUP4 SUB DUP2 DUP6 DUP8 GAS CALL SWAP3 POP POP POP RETURNDATASIZE DUP1 PUSH0 DUP2 EQ PUSH2 0x154 JUMPI PUSH1 0x40 MLOAD SWAP2 POP PUSH1 0x1F NOT PUSH1 0x3F RETURNDATASIZE ADD AND DUP3 ADD PUSH1 0x40 MSTORE RETURNDATASIZE DUP3 MSTORE RETURNDATASIZE PUSH0 PUSH1 0x20 DUP5 ADD RETURNDATACOPY PUSH2 0x159 JUMP JUMPDEST PUSH1 0x60 SWAP2 POP JUMPDEST POP SWAP2 POP SWAP2 POP DUP2 PUSH2 0x19E JUMPI PUSH1 0x40 MLOAD PUSH32 0x8C379A000000000000000000000000000000000000000000000000000000000 DUP2 MSTORE PUSH1 0x4 ADD PUSH2 0x195 SWAP1 PUSH2 0x416 JUMP JUMPDEST PUSH1 0x40 MLOAD DUP1 SWAP2 SUB SWAP1 REVERT JUMPDEST DUP1 SWAP4 POP POP POP POP SWAP4 SWAP3 POP POP POP JUMP JUMPDEST PUSH0 DUP1 REVERT JUMPDEST PUSH0 PUSH20 0xFFFFFFFFFFFFFFFFFFFFFFFFFFFFFFFFFFFFFFFF DUP3 AND SWAP1 POP SWAP2 SWAP1 POP JUMP JUMPDEST PUSH0 PUSH2 0x1D8 DUP3 PUSH2 0x1AF JUMP JUMPDEST SWAP1 POP SWAP2 SWAP1 POP JUMP JUMPDEST PUSH2 0x1E8 DUP2 PUSH2 0x1CE JUMP JUMPDEST DUP2 EQ PUSH2 0x1F2 JUMPI PUSH0 DUP1 REVERT JUMPDEST POP JUMP JUMPDEST PUSH0 DUP2 CALLDATALOAD SWAP1 POP PUSH2 0x203 DUP2 PUSH2 0x1DF JUMP JUMPDEST SWAP3 SWAP2 POP POP JUMP JUMPDEST PUSH0 DUP2 SWAP1 POP SWAP2 SWAP1 POP JUMP JUMPDEST PUSH2 0x21B DUP2 PUSH2 0x209 JUMP JUMPDEST DUP2 EQ PUSH2 0x225 JUMPI PUSH0 DUP1 REVERT JUMPDEST POP JUMP JUMPDEST PUSH0 DUP2 CALLDATALOAD SWAP1 POP PUSH2 0x236 DUP2 PUSH2 0x212 JUMP JUMPDEST SWAP3 SWAP2 POP POP JUMP JUMPDEST PUSH0 DUP1 PUSH0 PUSH1 0x60 DUP5 DUP7 SUB SLT ISZERO PUSH2 0x253 JUMPI PUSH2 0x252 PUSH2 0x1AB JUMP JUMPDEST JUMPDEST PUSH0 PUSH2 0x260 DUP7 DUP3 DUP8 ADD PUSH2 0x1F5 JUMP JUMPDEST SWAP4 POP POP PUSH1 0x20 PUSH2 0x271 DUP7 DUP3 DUP8 ADD PUSH2 0x228 JUMP JUMPDEST SWAP3 POP POP PUSH1 0x40 PUSH2 0x282 DUP7 DUP3 DUP8 ADD PUSH2 0x228 JUMP JUMPDEST SWAP2 POP POP SWAP3 POP SWAP3 POP SWAP3 JUMP JUMPDEST PUSH0 DUP2 MLOAD SWAP1 POP SWAP2 SWAP1 POP JUMP JUMPDEST PUSH0 DUP3 DUP3 MSTORE PUSH1 0x20 DUP3 ADD SWAP1 POP SWAP3 SWAP2 POP POP JUMP JUMPDEST PUSH0 JUMPDEST DUP4 DUP2 LT ISZERO PUSH2 0x2C3 JUMPI DUP1 DUP3 ADD MLOAD DUP2 DUP5 ADD MSTORE PUSH1 0x20 DUP2 ADD SWAP1 POP PUSH2 0x2A8 JUMP JUMPDEST PUSH0 DUP5 DUP5 ADD MSTORE POP POP POP POP JUMP JUMPDEST PUSH0 PUSH1 0x1F NOT PUSH1 0x1F DUP4 ADD AND SWAP1 POP SWAP2 SWAP1 POP JUMP JUMPDEST PUSH0 PUSH2 0x2E8 DUP3 PUSH2 0x28C JUMP JUMPDEST PUSH2 0x2F2 DUP2 DUP6 PUSH2 0x296 JUMP JUMPDEST SWAP4 POP PUSH2 0x302 DUP2 DUP6 PUSH1 0x20 DUP7 ADD PUSH2 0x2A6 JUMP JUMPDEST PUSH2 0x30B DUP2 PUSH2 0x2CE JUMP JUMPDEST DUP5 ADD SWAP2 POP POP SWAP3 SWAP2 POP POP JUMP JUMPDEST PUSH0 PUSH1 0x20 DUP3 ADD SWAP1 POP DUP2 DUP2 SUB PUSH0 DUP4 ADD MSTORE PUSH2 0x32E DUP2 DUP5 PUSH2 0x2DE JUMP JUMPDEST SWAP1 POP SWAP3 SWAP2 POP POP JUMP JUMPDEST PUSH2 0x33F DUP2 PUSH2 0x209 JUMP JUMPDEST DUP3 MSTORE POP POP JUMP JUMPDEST PUSH0 PUSH1 0x40 DUP3 ADD SWAP1 POP PUSH2 0x358 PUSH0 DUP4 ADD DUP6 PUSH2 0x336 JUMP JUMPDEST PUSH2 0x365 PUSH1 0x20 DUP4 ADD DUP5 PUSH2 0x336 JUMP JUMPDEST SWAP4 SWAP3 POP POP POP JUMP JUMPDEST PUSH0 DUP2 SWAP1 POP SWAP3 SWAP2 POP POP JUMP JUMPDEST PUSH0 PUSH2 0x380 DUP3 PUSH2 0x28C JUMP JUMPDEST PUSH2 0x38A DUP2 DUP6 PUSH2 0x36C JUMP JUMPDEST SWAP4 POP PUSH2 0x39A DUP2 DUP6 PUSH1 0x20 DUP7 ADD PUSH2 0x2A6 JUMP JUMPDEST DUP1 DUP5 ADD SWAP2 POP POP SWAP3 SWAP2 POP POP JUMP JUMPDEST PUSH0 PUSH2 0x3B1 DUP3 DUP5 PUSH2 0x376 JUMP JUMPDEST SWAP2 POP DUP2 SWAP1 POP SWAP3 SWAP2 POP POP JUMP JUMPDEST PUSH0 DUP3 DUP3 MSTORE PUSH1 0x20 DUP3 ADD SWAP1 POP SWAP3 SWAP2 POP POP JUMP JUMPDEST PUSH32 0x43616C6C20746F20436F6E74726163744F6E65206661696C6564000000000000 PUSH0 DUP3 ADD MSTORE POP JUMP JUMPDEST PUSH0 PUSH2 0x400 PUSH1 0x1A DUP4 PUSH2 0x3BC JUMP JUMPDEST SWAP2 POP PUSH2 0x40B DUP3 PUSH2 0x3CC JUMP JUMPDEST PUSH1 0x20 DUP3 ADD SWAP1 POP SWAP2 SWAP1 POP JUMP JUMPDEST PUSH0 PUSH1 0x20 DUP3 ADD SWAP1 POP DUP2 DUP2 SUB PUSH0 DUP4 ADD MSTORE PUSH2 0x42D DUP2 PUSH2 0x3F4 JUMP JUMPDEST SWAP1 POP SWAP2 SWAP1 POP JUMP INVALID LOG2 PUSH5 0x6970667358 0x22 SLT KECCAK256 POP 0x1E DUP15 PUSH22 0x31890E5C2C8CCB9B05A60A461ADD894901C7674AEBB0 0x4E 0x2B MUL SWAP10 0xCA CALLCODE PUSH5 0x736F6C6343 STOP ADDMOD AND STOP CALLER "
				},
				"gasEstimates": {
					"creation": {
						"codeDepositCost": "226000",
						"executionCost": "267",
						"totalCost": "226267"
					},
					"external": {
						"callContractOne(address,uint256,uint256)": "infinite"
					}
				},
				"methodIdentifiers": {
					"callContractOne(address,uint256,uint256)": "696aa342"
				}
			},
			"storageLayout": {
				"storage": [],
				"types": null
			},
			"userdoc": {
				"kind": "user",
				"methods": {},
				"version": 1
			}
		}
	}
}