{
	"my-hardhat-project/practice telegram module 1/Lesson15ResultsOfTheWeek.sol": {
		"Lesson15": {
			"abi": [
				{
					"inputs": [
						{
							"internalType": "uint256",
							"name": "balance",
							"type": "uint256"
						},
						{
							"internalType": "uint256",
							"name": "withdrawAmmount",
							"type": "uint256"
						}
					],
					"name": "InsufficientBalance",
					"type": "error"
				},
				{
					"inputs": [
						{
							"internalType": "uint256",
							"name": "",
							"type": "uint256"
						}
					],
					"name": "arr",
					"outputs": [
						{
							"internalType": "uint256",
							"name": "",
							"type": "uint256"
						}
					],
					"stateMutability": "view",
					"type": "function"
				},
				{
					"inputs": [
						{
							"internalType": "uint256",
							"name": "",
							"type": "uint256"
						}
					],
					"name": "arr2",
					"outputs": [
						{
							"internalType": "uint256",
							"name": "",
							"type": "uint256"
						}
					],
					"stateMutability": "view",
					"type": "function"
				},
				{
					"inputs": [],
					"name": "cancelEnum",
					"outputs": [],
					"stateMutability": "nonpayable",
					"type": "function"
				},
				{
					"inputs": [
						{
							"internalType": "address",
							"name": "_addressToCompare",
							"type": "address"
						}
					],
					"name": "compareAddresses",
					"outputs": [],
					"stateMutability": "nonpayable",
					"type": "function"
				},
				{
					"inputs": [],
					"name": "comparisonResult",
					"outputs": [
						{
							"internalType": "bool",
							"name": "",
							"type": "bool"
						}
					],
					"stateMutability": "view",
					"type": "function"
				},
				{
					"inputs": [],
					"name": "dec",
					"outputs": [
						{
							"internalType": "uint256",
							"name": "",
							"type": "uint256"
						}
					],
					"stateMutability": "nonpayable",
					"type": "function"
				},
				{
					"inputs": [
						{
							"internalType": "address",
							"name": "_addr",
							"type": "address"
						}
					],
					"name": "delAddr",
					"outputs": [],
					"stateMutability": "nonpayable",
					"type": "function"
				},
				{
					"inputs": [],
					"name": "examplesArr",
					"outputs": [],
					"stateMutability": "pure",
					"type": "function"
				},
				{
					"inputs": [
						{
							"internalType": "uint256",
							"name": "i",
							"type": "uint256"
						}
					],
					"name": "get",
					"outputs": [
						{
							"internalType": "uint256",
							"name": "",
							"type": "uint256"
						}
					],
					"stateMutability": "view",
					"type": "function"
				},
				{
					"inputs": [
						{
							"internalType": "address",
							"name": "newAddr",
							"type": "address"
						}
					],
					"name": "getAddr",
					"outputs": [
						{
							"internalType": "uint256",
							"name": "",
							"type": "uint256"
						}
					],
					"stateMutability": "view",
					"type": "function"
				},
				{
					"inputs": [],
					"name": "getArr",
					"outputs": [
						{
							"internalType": "uint256[]",
							"name": "",
							"type": "uint256[]"
						}
					],
					"stateMutability": "view",
					"type": "function"
				},
				{
					"inputs": [
						{
							"internalType": "bool",
							"name": "_argBool",
							"type": "bool"
						}
					],
					"name": "getBoolFour",
					"outputs": [
						{
							"internalType": "bool",
							"name": "",
							"type": "bool"
						}
					],
					"stateMutability": "view",
					"type": "function"
				},
				{
					"inputs": [
						{
							"internalType": "bool",
							"name": "_argBool",
							"type": "bool"
						}
					],
					"name": "getBoolOne",
					"outputs": [
						{
							"internalType": "bool",
							"name": "",
							"type": "bool"
						}
					],
					"stateMutability": "view",
					"type": "function"
				},
				{
					"inputs": [
						{
							"internalType": "bool",
							"name": "_argBool",
							"type": "bool"
						}
					],
					"name": "getBoolThreee",
					"outputs": [
						{
							"internalType": "bool",
							"name": "",
							"type": "bool"
						}
					],
					"stateMutability": "view",
					"type": "function"
				},
				{
					"inputs": [
						{
							"internalType": "bool",
							"name": "_argBool",
							"type": "bool"
						}
					],
					"name": "getBoolTwo",
					"outputs": [
						{
							"internalType": "bool",
							"name": "",
							"type": "bool"
						}
					],
					"stateMutability": "view",
					"type": "function"
				},
				{
					"inputs": [],
					"name": "getEnum",
					"outputs": [
						{
							"internalType": "enum Lesson15.Status",
							"name": "",
							"type": "uint8"
						}
					],
					"stateMutability": "view",
					"type": "function"
				},
				{
					"inputs": [],
					"name": "getLengthArr",
					"outputs": [
						{
							"internalType": "uint256",
							"name": "",
							"type": "uint256"
						}
					],
					"stateMutability": "view",
					"type": "function"
				},
				{
					"inputs": [
						{
							"internalType": "address",
							"name": "_addr",
							"type": "address"
						},
						{
							"internalType": "uint256",
							"name": "_balance",
							"type": "uint256"
						}
					],
					"name": "getPayments",
					"outputs": [
						{
							"internalType": "bool",
							"name": "",
							"type": "bool"
						}
					],
					"stateMutability": "view",
					"type": "function"
				},
				{
					"inputs": [],
					"name": "inc",
					"outputs": [
						{
							"internalType": "uint256",
							"name": "",
							"type": "uint256"
						}
					],
					"stateMutability": "view",
					"type": "function"
				},
				{
					"inputs": [],
					"name": "incrementNimber",
					"outputs": [],
					"stateMutability": "nonpayable",
					"type": "function"
				},
				{
					"inputs": [
						{
							"internalType": "uint256",
							"name": "_number",
							"type": "uint256"
						},
						{
							"internalType": "address",
							"name": "_newAddr",
							"type": "address"
						}
					],
					"name": "iniziallize",
					"outputs": [],
					"stateMutability": "nonpayable",
					"type": "function"
				},
				{
					"inputs": [],
					"name": "myAddr",
					"outputs": [
						{
							"internalType": "address",
							"name": "",
							"type": "address"
						}
					],
					"stateMutability": "view",
					"type": "function"
				},
				{
					"inputs": [],
					"name": "myBool",
					"outputs": [
						{
							"internalType": "bool",
							"name": "",
							"type": "bool"
						}
					],
					"stateMutability": "view",
					"type": "function"
				},
				{
					"inputs": [
						{
							"internalType": "uint256",
							"name": "",
							"type": "uint256"
						}
					],
					"name": "myFixedSizeArray",
					"outputs": [
						{
							"internalType": "uint256",
							"name": "",
							"type": "uint256"
						}
					],
					"stateMutability": "view",
					"type": "function"
				},
				{
					"inputs": [],
					"name": "myStr",
					"outputs": [
						{
							"internalType": "string",
							"name": "",
							"type": "string"
						}
					],
					"stateMutability": "view",
					"type": "function"
				},
				{
					"inputs": [],
					"name": "myVar",
					"outputs": [
						{
							"internalType": "uint256",
							"name": "",
							"type": "uint256"
						}
					],
					"stateMutability": "view",
					"type": "function"
				},
				{
					"inputs": [],
					"name": "ovwerFlow",
					"outputs": [
						{
							"internalType": "uint256",
							"name": "",
							"type": "uint256"
						}
					],
					"stateMutability": "nonpayable",
					"type": "function"
				},
				{
					"inputs": [
						{
							"internalType": "address",
							"name": "",
							"type": "address"
						},
						{
							"internalType": "uint256",
							"name": "",
							"type": "uint256"
						}
					],
					"name": "payments",
					"outputs": [
						{
							"internalType": "bool",
							"name": "",
							"type": "bool"
						}
					],
					"stateMutability": "view",
					"type": "function"
				},
				{
					"inputs": [],
					"name": "popArr",
					"outputs": [],
					"stateMutability": "nonpayable",
					"type": "function"
				},
				{
					"inputs": [
						{
							"internalType": "uint256",
							"name": "i",
							"type": "uint256"
						}
					],
					"name": "pushArr",
					"outputs": [],
					"stateMutability": "nonpayable",
					"type": "function"
				},
				{
					"inputs": [
						{
							"internalType": "uint256",
							"name": "index",
							"type": "uint256"
						}
					],
					"name": "removeArr",
					"outputs": [],
					"stateMutability": "nonpayable",
					"type": "function"
				},
				{
					"inputs": [],
					"name": "resetEnum",
					"outputs": [],
					"stateMutability": "nonpayable",
					"type": "function"
				},
				{
					"inputs": [
						{
							"internalType": "address",
							"name": "_addr",
							"type": "address"
						},
						{
							"internalType": "uint256",
							"name": "_balance",
							"type": "uint256"
						}
					],
					"name": "setAddr",
					"outputs": [],
					"stateMutability": "nonpayable",
					"type": "function"
				},
				{
					"inputs": [
						{
							"internalType": "enum Lesson15.Status",
							"name": "_status",
							"type": "uint8"
						}
					],
					"name": "setEnum",
					"outputs": [],
					"stateMutability": "nonpayable",
					"type": "function"
				},
				{
					"inputs": [
						{
							"internalType": "address",
							"name": "_addr",
							"type": "address"
						},
						{
							"internalType": "uint256",
							"name": "_balance",
							"type": "uint256"
						},
						{
							"internalType": "bool",
							"name": "_boo",
							"type": "bool"
						}
					],
					"name": "setPayments",
					"outputs": [],
					"stateMutability": "nonpayable",
					"type": "function"
				},
				{
					"inputs": [],
					"name": "status",
					"outputs": [
						{
							"internalType": "enum Lesson15.Status",
							"name": "",
							"type": "uint8"
						}
					],
					"stateMutability": "view",
					"type": "function"
				},
				{
					"inputs": [
						{
							"internalType": "uint256",
							"name": "_i",
							"type": "uint256"
						}
					],
					"name": "ternarnyOperation",
					"outputs": [],
					"stateMutability": "nonpayable",
					"type": "function"
				},
				{
					"inputs": [],
					"name": "testAssert",
					"outputs": [],
					"stateMutability": "view",
					"type": "function"
				},
				{
					"inputs": [
						{
							"internalType": "uint256",
							"name": "_withdrawAmmount",
							"type": "uint256"
						}
					],
					"name": "testCustomError",
					"outputs": [],
					"stateMutability": "view",
					"type": "function"
				},
				{
					"inputs": [
						{
							"internalType": "uint256",
							"name": "_i",
							"type": "uint256"
						}
					],
					"name": "testRequire",
					"outputs": [],
					"stateMutability": "pure",
					"type": "function"
				},
				{
					"inputs": [
						{
							"internalType": "uint256",
							"name": "_i",
							"type": "uint256"
						}
					],
					"name": "testReveert",
					"outputs": [],
					"stateMutability": "pure",
					"type": "function"
				}
			],
			"devdoc": {
				"kind": "dev",
				"methods": {},
				"version": 1
			},
			"evm": {
				"assembly": "    /* \"my-hardhat-project/practice telegram module 1/Lesson15ResultsOfTheWeek.sol\":60:8904  contract Lesson15 {... */\n  mstore(0x40, 0x80)\n    /* \"my-hardhat-project/practice telegram module 1/Lesson15ResultsOfTheWeek.sol\":1438:1468  uint[] public arr2 = [1, 2, 3] */\n  mload(0x40)\n  dup1\n  0x60\n  add\n  0x40\n  mstore\n  dup1\n    /* \"my-hardhat-project/practice telegram module 1/Lesson15ResultsOfTheWeek.sol\":1460:1461  1 */\n  0x01\n    /* \"my-hardhat-project/practice telegram module 1/Lesson15ResultsOfTheWeek.sol\":1438:1468  uint[] public arr2 = [1, 2, 3] */\n  0xff\n  and\n  dup2\n  mstore\n  0x20\n  add\n    /* \"my-hardhat-project/practice telegram module 1/Lesson15ResultsOfTheWeek.sol\":1463:1464  2 */\n  0x02\n    /* \"my-hardhat-project/practice telegram module 1/Lesson15ResultsOfTheWeek.sol\":1438:1468  uint[] public arr2 = [1, 2, 3] */\n  0xff\n  and\n  dup2\n  mstore\n  0x20\n  add\n    /* \"my-hardhat-project/practice telegram module 1/Lesson15ResultsOfTheWeek.sol\":1466:1467  3 */\n  0x03\n    /* \"my-hardhat-project/practice telegram module 1/Lesson15ResultsOfTheWeek.sol\":1438:1468  uint[] public arr2 = [1, 2, 3] */\n  0xff\n  and\n  dup2\n  mstore\n  pop\n  0x0d\n  swap1\n  0x03\n  tag_1\n  swap3\n  swap2\n  swap1\n  tag_2\n  jump\t// in\ntag_1:\n  pop\n    /* \"my-hardhat-project/practice telegram module 1/Lesson15ResultsOfTheWeek.sol\":60:8904  contract Lesson15 {... */\n  callvalue\n  dup1\n  iszero\n  tag_3\n  jumpi\n  0x00\n  dup1\n  revert\ntag_3:\n  pop\n  jump(tag_4)\ntag_2:\n  dup3\n  dup1\n  sload\n  dup3\n  dup3\n  sstore\n  swap1\n  0x00\n  mstore\n  keccak256(0x00, 0x20)\n  swap1\n  dup2\n  add\n  swap3\n  dup3\n  iszero\n  tag_5\n  jumpi\n  swap2\n  0x20\n  mul\n  dup3\n  add\ntag_6:\n  dup3\n  dup2\n  gt\n  iszero\n  tag_7\n  jumpi\n  dup3\n  mload\n  dup3\n  swap1\n  0xff\n  and\n  swap1\n  sstore\n  swap2\n  0x20\n  add\n  swap2\n  swap1\n  0x01\n  add\n  swap1\n  jump(tag_6)\ntag_7:\ntag_5:\n  pop\n  swap1\n  pop\n  tag_8\n  swap2\n  swap1\n  tag_9\n  jump\t// in\ntag_8:\n  pop\n  swap1\n  jump\t// out\ntag_9:\ntag_10:\n  dup1\n  dup3\n  gt\n  iszero\n  tag_11\n  jumpi\n  0x00\n  dup2\n  0x00\n  swap1\n  sstore\n  pop\n  0x01\n  add\n  jump(tag_10)\ntag_11:\n  pop\n  swap1\n  jump\t// out\ntag_4:\n  dataSize(sub_0)\n  dup1\n  dataOffset(sub_0)\n  0x00\n  codecopy\n  0x00\n  return\nstop\n\nsub_0: assembly {\n        /* \"my-hardhat-project/practice telegram module 1/Lesson15ResultsOfTheWeek.sol\":60:8904  contract Lesson15 {... */\n      mstore(0x40, 0x80)\n      callvalue\n      dup1\n      iszero\n      tag_1\n      jumpi\n      0x00\n      dup1\n      revert\n    tag_1:\n      pop\n      jumpi(tag_2, lt(calldatasize, 0x04))\n      shr(0xe0, calldataload(0x00))\n      dup1\n      0x9507d39a\n      gt\n      tag_44\n      jumpi\n      dup1\n      0xe5860d12\n      gt\n      tag_45\n      jumpi\n      dup1\n      0xedf0099b\n      gt\n      tag_46\n      jumpi\n      dup1\n      0xedf0099b\n      eq\n      tag_38\n      jumpi\n      dup1\n      0xf0ebce5a\n      eq\n      tag_39\n      jumpi\n      dup1\n      0xf10a31a1\n      eq\n      tag_40\n      jumpi\n      dup1\n      0xf91562fe\n      eq\n      tag_41\n      jumpi\n      dup1\n      0xfaf264bb\n      eq\n      tag_42\n      jumpi\n      dup1\n      0xfb8cbced\n      eq\n      tag_43\n      jumpi\n      jump(tag_2)\n    tag_46:\n      dup1\n      0xe5860d12\n      eq\n      tag_33\n      jumpi\n      dup1\n      0xe665b266\n      eq\n      tag_34\n      jumpi\n      dup1\n      0xe784f5b1\n      eq\n      tag_35\n      jumpi\n      dup1\n      0xe867ec26\n      eq\n      tag_36\n      jumpi\n      dup1\n      0xec1dfc7b\n      eq\n      tag_37\n      jumpi\n      jump(tag_2)\n    tag_45:\n      dup1\n      0xb3bcfa82\n      gt\n      tag_47\n      jumpi\n      dup1\n      0xb3bcfa82\n      eq\n      tag_28\n      jumpi\n      dup1\n      0xb4108a94\n      eq\n      tag_29\n      jumpi\n      dup1\n      0xb620df2a\n      eq\n      tag_30\n      jumpi\n      dup1\n      0xb8bd717f\n      eq\n      tag_31\n      jumpi\n      dup1\n      0xc6b91540\n      eq\n      tag_32\n      jumpi\n      jump(tag_2)\n    tag_47:\n      dup1\n      0x9507d39a\n      eq\n      tag_23\n      jumpi\n      dup1\n      0x98ccfa54\n      eq\n      tag_24\n      jumpi\n      dup1\n      0x9b37ec4d\n      eq\n      tag_25\n      jumpi\n      dup1\n      0xa4d396ca\n      eq\n      tag_26\n      jumpi\n      dup1\n      0xab63385c\n      eq\n      tag_27\n      jumpi\n      jump(tag_2)\n    tag_44:\n      dup1\n      0x4bfec157\n      gt\n      tag_48\n      jumpi\n      dup1\n      0x71e5ee5f\n      gt\n      tag_49\n      jumpi\n      dup1\n      0x71e5ee5f\n      eq\n      tag_18\n      jumpi\n      dup1\n      0x75f7286c\n      eq\n      tag_19\n      jumpi\n      dup1\n      0x7a9632a8\n      eq\n      tag_20\n      jumpi\n      dup1\n      0x8dca72c7\n      eq\n      tag_21\n      jumpi\n      dup1\n      0x9305e917\n      eq\n      tag_22\n      jumpi\n      jump(tag_2)\n    tag_49:\n      dup1\n      0x4bfec157\n      eq\n      tag_13\n      jumpi\n      dup1\n      0x50bdd16c\n      eq\n      tag_14\n      jumpi\n      dup1\n      0x5a455c1c\n      eq\n      tag_15\n      jumpi\n      dup1\n      0x6deecdbe\n      eq\n      tag_16\n      jumpi\n      dup1\n      0x701b3305\n      eq\n      tag_17\n      jumpi\n      jump(tag_2)\n    tag_48:\n      dup1\n      0x28f2d6cd\n      gt\n      tag_50\n      jumpi\n      dup1\n      0x28f2d6cd\n      eq\n      tag_8\n      jumpi\n      dup1\n      0x2b813bc0\n      eq\n      tag_9\n      jumpi\n      dup1\n      0x2cc0ad31\n      eq\n      tag_10\n      jumpi\n      dup1\n      0x371303c0\n      eq\n      tag_11\n      jumpi\n      dup1\n      0x4620b023\n      eq\n      tag_12\n      jumpi\n      jump(tag_2)\n    tag_50:\n      dup1\n      0xd77e89\n      eq\n      tag_3\n      jumpi\n      dup1\n      0x02899203\n      eq\n      tag_4\n      jumpi\n      dup1\n      0x1c657043\n      eq\n      tag_5\n      jumpi\n      dup1\n      0x200d2ed2\n      eq\n      tag_6\n      jumpi\n      dup1\n      0x235211f1\n      eq\n      tag_7\n      jumpi\n    tag_2:\n      0x00\n      dup1\n      revert\n        /* \"my-hardhat-project/practice telegram module 1/Lesson15ResultsOfTheWeek.sol\":2298:2421  function getBoolTwo(bool _argBool) external view returns (bool) {... */\n    tag_3:\n      tag_51\n      0x04\n      dup1\n      calldatasize\n      sub\n      dup2\n      add\n      swap1\n      tag_52\n      swap2\n      swap1\n      tag_53\n      jump\t// in\n    tag_52:\n      tag_54\n      jump\t// in\n    tag_51:\n      mload(0x40)\n      tag_55\n      swap2\n      swap1\n      tag_56\n      jump\t// in\n    tag_55:\n      mload(0x40)\n      dup1\n      swap2\n      sub\n      swap1\n      return\n        /* \"my-hardhat-project/practice telegram module 1/Lesson15ResultsOfTheWeek.sol\":5655:5855  function popArr() public {... */\n    tag_4:\n      tag_57\n      tag_58\n      jump\t// in\n    tag_57:\n      stop\n        /* \"my-hardhat-project/practice telegram module 1/Lesson15ResultsOfTheWeek.sol\":6011:6213  function removeArr(uint index) public {... */\n    tag_5:\n      tag_59\n      0x04\n      dup1\n      calldatasize\n      sub\n      dup2\n      add\n      swap1\n      tag_60\n      swap2\n      swap1\n      tag_61\n      jump\t// in\n    tag_60:\n      tag_62\n      jump\t// in\n    tag_59:\n      stop\n        /* \"my-hardhat-project/practice telegram module 1/Lesson15ResultsOfTheWeek.sol\":424:444  Status public status */\n    tag_6:\n      tag_63\n      tag_64\n      jump\t// in\n    tag_63:\n      mload(0x40)\n      tag_65\n      swap2\n      swap1\n      tag_66\n      jump\t// in\n    tag_65:\n      mload(0x40)\n      dup1\n      swap2\n      sub\n      swap1\n      return\n        /* \"my-hardhat-project/practice telegram module 1/Lesson15ResultsOfTheWeek.sol\":2642:2768  function getBoolThreee(bool _argBool) external view returns (bool) {... */\n    tag_7:\n      tag_67\n      0x04\n      dup1\n      calldatasize\n      sub\n      dup2\n      add\n      swap1\n      tag_68\n      swap2\n      swap1\n      tag_53\n      jump\t// in\n    tag_68:\n      tag_69\n      jump\t// in\n    tag_67:\n      mload(0x40)\n      tag_70\n      swap2\n      swap1\n      tag_56\n      jump\t// in\n    tag_70:\n      mload(0x40)\n      dup1\n      swap2\n      sub\n      swap1\n      return\n        /* \"my-hardhat-project/practice telegram module 1/Lesson15ResultsOfTheWeek.sol\":4434:4720  function getPayments(address _addr, uint _balance) public view returns (bool) {... */\n    tag_8:\n      tag_71\n      0x04\n      dup1\n      calldatasize\n      sub\n      dup2\n      add\n      swap1\n      tag_72\n      swap2\n      swap1\n      tag_73\n      jump\t// in\n    tag_72:\n      tag_74\n      jump\t// in\n    tag_71:\n      mload(0x40)\n      tag_75\n      swap2\n      swap1\n      tag_56\n      jump\t// in\n    tag_75:\n      mload(0x40)\n      dup1\n      swap2\n      sub\n      swap1\n      return\n        /* \"my-hardhat-project/practice telegram module 1/Lesson15ResultsOfTheWeek.sol\":7567:7642  function testAssert() public  view  {... */\n    tag_9:\n      tag_76\n      tag_77\n      jump\t// in\n    tag_76:\n      stop\n        /* \"my-hardhat-project/practice telegram module 1/Lesson15ResultsOfTheWeek.sol\":8793:8901  function ternarnyOperation(uint _i) public {... */\n    tag_10:\n      tag_78\n      0x04\n      dup1\n      calldatasize\n      sub\n      dup2\n      add\n      swap1\n      tag_79\n      swap2\n      swap1\n      tag_61\n      jump\t// in\n    tag_79:\n      tag_80\n      jump\t// in\n    tag_78:\n      stop\n        /* \"my-hardhat-project/practice telegram module 1/Lesson15ResultsOfTheWeek.sol\":3274:3367  function inc() external view returns (uint256) {... */\n    tag_11:\n      tag_81\n      tag_82\n      jump\t// in\n    tag_81:\n      mload(0x40)\n      tag_83\n      swap2\n      swap1\n      tag_84\n      jump\t// in\n    tag_83:\n      mload(0x40)\n      dup1\n      swap2\n      sub\n      swap1\n      return\n        /* \"my-hardhat-project/practice telegram module 1/Lesson15ResultsOfTheWeek.sol\":1577:1609  uint[10] public myFixedSizeArray */\n    tag_12:\n      tag_85\n      0x04\n      dup1\n      calldatasize\n      sub\n      dup2\n      add\n      swap1\n      tag_86\n      swap2\n      swap1\n      tag_61\n      jump\t// in\n    tag_86:\n      tag_87\n      jump\t// in\n    tag_85:\n      mload(0x40)\n      tag_88\n      swap2\n      swap1\n      tag_84\n      jump\t// in\n    tag_88:\n      mload(0x40)\n      dup1\n      swap2\n      sub\n      swap1\n      return\n        /* \"my-hardhat-project/practice telegram module 1/Lesson15ResultsOfTheWeek.sol\":5437:5647  function pushArr(uint i) public {... */\n    tag_13:\n      tag_89\n      0x04\n      dup1\n      calldatasize\n      sub\n      dup2\n      add\n      swap1\n      tag_90\n      swap2\n      swap1\n      tag_61\n      jump\t// in\n    tag_90:\n      tag_91\n      jump\t// in\n    tag_89:\n      stop\n        /* \"my-hardhat-project/practice telegram module 1/Lesson15ResultsOfTheWeek.sol\":958:986  bool public comparisonResult */\n    tag_14:\n      tag_92\n      tag_93\n      jump\t// in\n    tag_92:\n      mload(0x40)\n      tag_94\n      swap2\n      swap1\n      tag_56\n      jump\t// in\n    tag_94:\n      mload(0x40)\n      dup1\n      swap2\n      sub\n      swap1\n      return\n        /* \"my-hardhat-project/practice telegram module 1/Lesson15ResultsOfTheWeek.sol\":696:715  string public myStr */\n    tag_15:\n      tag_95\n      tag_96\n      jump\t// in\n    tag_95:\n      mload(0x40)\n      tag_97\n      swap2\n      swap1\n      tag_98\n      jump\t// in\n    tag_97:\n      mload(0x40)\n      dup1\n      swap2\n      sub\n      swap1\n      return\n        /* \"my-hardhat-project/practice telegram module 1/Lesson15ResultsOfTheWeek.sol\":875:893  bool public myBool */\n    tag_16:\n      tag_99\n      tag_100\n      jump\t// in\n    tag_99:\n      mload(0x40)\n      tag_101\n      swap2\n      swap1\n      tag_56\n      jump\t// in\n    tag_101:\n      mload(0x40)\n      dup1\n      swap2\n      sub\n      swap1\n      return\n        /* \"my-hardhat-project/practice telegram module 1/Lesson15ResultsOfTheWeek.sol\":4728:4848  function setPayments(address _addr, uint _balance, bool _boo) public {... */\n    tag_17:\n      tag_102\n      0x04\n      dup1\n      calldatasize\n      sub\n      dup2\n      add\n      swap1\n      tag_103\n      swap2\n      swap1\n      tag_104\n      jump\t// in\n    tag_103:\n      tag_105\n      jump\t// in\n    tag_102:\n      stop\n        /* \"my-hardhat-project/practice telegram module 1/Lesson15ResultsOfTheWeek.sol\":1414:1431  uint[] public arr */\n    tag_18:\n      tag_106\n      0x04\n      dup1\n      calldatasize\n      sub\n      dup2\n      add\n      swap1\n      tag_107\n      swap2\n      swap1\n      tag_61\n      jump\t// in\n    tag_107:\n      tag_108\n      jump\t// in\n    tag_106:\n      mload(0x40)\n      tag_109\n      swap2\n      swap1\n      tag_84\n      jump\t// in\n    tag_109:\n      mload(0x40)\n      dup1\n      swap2\n      sub\n      swap1\n      return\n        /* \"my-hardhat-project/practice telegram module 1/Lesson15ResultsOfTheWeek.sol\":7787:8113  function testCustomError(uint _withdrawAmmount) public view  {... */\n    tag_19:\n      tag_110\n      0x04\n      dup1\n      calldatasize\n      sub\n      dup2\n      add\n      swap1\n      tag_111\n      swap2\n      swap1\n      tag_61\n      jump\t// in\n    tag_111:\n      tag_112\n      jump\t// in\n    tag_110:\n      stop\n        /* \"my-hardhat-project/practice telegram module 1/Lesson15ResultsOfTheWeek.sol\":3657:3748  function ovwerFlow() external returns (uint256) {... */\n    tag_20:\n      tag_113\n      tag_114\n      jump\t// in\n    tag_113:\n      mload(0x40)\n      tag_115\n      swap2\n      swap1\n      tag_84\n      jump\t// in\n    tag_115:\n      mload(0x40)\n      dup1\n      swap2\n      sub\n      swap1\n      return\n        /* \"my-hardhat-project/practice telegram module 1/Lesson15ResultsOfTheWeek.sol\":8227:8349  function iniziallize(uint _number, address _newAddr) public {... */\n    tag_21:\n      tag_116\n      0x04\n      dup1\n      calldatasize\n      sub\n      dup2\n      add\n      swap1\n      tag_117\n      swap2\n      swap1\n      tag_118\n      jump\t// in\n    tag_117:\n      tag_119\n      jump\t// in\n    tag_116:\n      stop\n        /* \"my-hardhat-project/practice telegram module 1/Lesson15ResultsOfTheWeek.sol\":7420:7559  function testReveert(uint _i) public pure {... */\n    tag_22:\n      tag_120\n      0x04\n      dup1\n      calldatasize\n      sub\n      dup2\n      add\n      swap1\n      tag_121\n      swap2\n      swap1\n      tag_61\n      jump\t// in\n    tag_121:\n      tag_122\n      jump\t// in\n    tag_120:\n      stop\n        /* \"my-hardhat-project/practice telegram module 1/Lesson15ResultsOfTheWeek.sol\":4935:5015  function get(uint i) public view returns (uint) {... */\n    tag_23:\n      tag_123\n      0x04\n      dup1\n      calldatasize\n      sub\n      dup2\n      add\n      swap1\n      tag_124\n      swap2\n      swap1\n      tag_61\n      jump\t// in\n    tag_124:\n      tag_125\n      jump\t// in\n    tag_123:\n      mload(0x40)\n      tag_126\n      swap2\n      swap1\n      tag_84\n      jump\t// in\n    tag_126:\n      mload(0x40)\n      dup1\n      swap2\n      sub\n      swap1\n      return\n        /* \"my-hardhat-project/practice telegram module 1/Lesson15ResultsOfTheWeek.sol\":8563:8690  function compareAddresses(address _addressToCompare) public {... */\n    tag_24:\n      tag_127\n      0x04\n      dup1\n      calldatasize\n      sub\n      dup2\n      add\n      swap1\n      tag_128\n      swap2\n      swap1\n      tag_129\n      jump\t// in\n    tag_128:\n      tag_130\n      jump\t// in\n    tag_127:\n      stop\n        /* \"my-hardhat-project/practice telegram module 1/Lesson15ResultsOfTheWeek.sol\":7199:7259  function resetEnum() public {... */\n    tag_25:\n      tag_131\n      tag_132\n      jump\t// in\n    tag_131:\n      stop\n        /* \"my-hardhat-project/practice telegram module 1/Lesson15ResultsOfTheWeek.sol\":4108:4274  function setAddr (address _addr, uint _balance) public {... */\n    tag_26:\n      tag_133\n      0x04\n      dup1\n      calldatasize\n      sub\n      dup2\n      add\n      swap1\n      tag_134\n      swap2\n      swap1\n      tag_73\n      jump\t// in\n    tag_134:\n      tag_135\n      jump\t// in\n    tag_133:\n      stop\n        /* \"my-hardhat-project/practice telegram module 1/Lesson15ResultsOfTheWeek.sol\":1289:1348  mapping (address => mapping (uint => bool)) public payments */\n    tag_27:\n      tag_136\n      0x04\n      dup1\n      calldatasize\n      sub\n      dup2\n      add\n      swap1\n      tag_137\n      swap2\n      swap1\n      tag_73\n      jump\t// in\n    tag_137:\n      tag_138\n      jump\t// in\n    tag_136:\n      mload(0x40)\n      tag_139\n      swap2\n      swap1\n      tag_56\n      jump\t// in\n    tag_139:\n      mload(0x40)\n      dup1\n      swap2\n      sub\n      swap1\n      return\n        /* \"my-hardhat-project/practice telegram module 1/Lesson15ResultsOfTheWeek.sol\":3449:3524  function dec() external returns (uint256) {... */\n    tag_28:\n      tag_140\n      tag_141\n      jump\t// in\n    tag_140:\n      mload(0x40)\n      tag_142\n      swap2\n      swap1\n      tag_84\n      jump\t// in\n    tag_142:\n      mload(0x40)\n      dup1\n      swap2\n      sub\n      swap1\n      return\n        /* \"my-hardhat-project/practice telegram module 1/Lesson15ResultsOfTheWeek.sol\":3837:4099  function getAddr(address newAddr) public view returns (uint) {... */\n    tag_29:\n      tag_143\n      0x04\n      dup1\n      calldatasize\n      sub\n      dup2\n      add\n      swap1\n      tag_144\n      swap2\n      swap1\n      tag_129\n      jump\t// in\n    tag_144:\n      tag_145\n      jump\t// in\n    tag_143:\n      mload(0x40)\n      tag_146\n      swap2\n      swap1\n      tag_84\n      jump\t// in\n    tag_146:\n      mload(0x40)\n      dup1\n      swap2\n      sub\n      swap1\n      return\n        /* \"my-hardhat-project/practice telegram module 1/Lesson15ResultsOfTheWeek.sol\":6221:6563  function examplesArr() external pure {... */\n    tag_30:\n      tag_147\n      tag_148\n      jump\t// in\n    tag_147:\n      stop\n        /* \"my-hardhat-project/practice telegram module 1/Lesson15ResultsOfTheWeek.sol\":7267:7412  function testRequire(uint _i) public pure {... */\n    tag_31:\n      tag_149\n      0x04\n      dup1\n      calldatasize\n      sub\n      dup2\n      add\n      swap1\n      tag_150\n      swap2\n      swap1\n      tag_61\n      jump\t// in\n    tag_150:\n      tag_151\n      jump\t// in\n    tag_149:\n      stop\n        /* \"my-hardhat-project/practice telegram module 1/Lesson15ResultsOfTheWeek.sol\":613:633  uint256 public myVar */\n    tag_32:\n      tag_152\n      tag_153\n      jump\t// in\n    tag_152:\n      mload(0x40)\n      tag_154\n      swap2\n      swap1\n      tag_84\n      jump\t// in\n    tag_154:\n      mload(0x40)\n      dup1\n      swap2\n      sub\n      swap1\n      return\n        /* \"my-hardhat-project/practice telegram module 1/Lesson15ResultsOfTheWeek.sol\":3002:3126  function getBoolFour(bool _argBool) external view returns (bool) {... */\n    tag_33:\n      tag_155\n      0x04\n      dup1\n      calldatasize\n      sub\n      dup2\n      add\n      swap1\n      tag_156\n      swap2\n      swap1\n      tag_53\n      jump\t// in\n    tag_156:\n      tag_157\n      jump\t// in\n    tag_155:\n      mload(0x40)\n      tag_158\n      swap2\n      swap1\n      tag_56\n      jump\t// in\n    tag_158:\n      mload(0x40)\n      dup1\n      swap2\n      sub\n      swap1\n      return\n        /* \"my-hardhat-project/practice telegram module 1/Lesson15ResultsOfTheWeek.sol\":783:804  address public myAddr */\n    tag_34:\n      tag_159\n      tag_160\n      jump\t// in\n    tag_159:\n      mload(0x40)\n      tag_161\n      swap2\n      swap1\n      tag_162\n      jump\t// in\n    tag_161:\n      mload(0x40)\n      dup1\n      swap2\n      sub\n      swap1\n      return\n        /* \"my-hardhat-project/practice telegram module 1/Lesson15ResultsOfTheWeek.sol\":4282:4426  function delAddr(address _addr) public {... */\n    tag_35:\n      tag_163\n      0x04\n      dup1\n      calldatasize\n      sub\n      dup2\n      add\n      swap1\n      tag_164\n      swap2\n      swap1\n      tag_129\n      jump\t// in\n    tag_164:\n      tag_165\n      jump\t// in\n    tag_163:\n      stop\n        /* \"my-hardhat-project/practice telegram module 1/Lesson15ResultsOfTheWeek.sol\":7005:7077  function cancelEnum() public {... */\n    tag_36:\n      tag_166\n      tag_167\n      jump\t// in\n    tag_166:\n      stop\n        /* \"my-hardhat-project/practice telegram module 1/Lesson15ResultsOfTheWeek.sol\":6776:6916  function setEnum(Status _status) public {... */\n    tag_37:\n      tag_168\n      0x04\n      dup1\n      calldatasize\n      sub\n      dup2\n      add\n      swap1\n      tag_169\n      swap2\n      swap1\n      tag_170\n      jump\t// in\n    tag_169:\n      tag_171\n      jump\t// in\n    tag_168:\n      stop\n        /* \"my-hardhat-project/practice telegram module 1/Lesson15ResultsOfTheWeek.sol\":1438:1468  uint[] public arr2 = [1, 2, 3] */\n    tag_38:\n      tag_172\n      0x04\n      dup1\n      calldatasize\n      sub\n      dup2\n      add\n      swap1\n      tag_173\n      swap2\n      swap1\n      tag_61\n      jump\t// in\n    tag_173:\n      tag_174\n      jump\t// in\n    tag_172:\n      mload(0x40)\n      tag_175\n      swap2\n      swap1\n      tag_84\n      jump\t// in\n    tag_175:\n      mload(0x40)\n      dup1\n      swap2\n      sub\n      swap1\n      return\n        /* \"my-hardhat-project/practice telegram module 1/Lesson15ResultsOfTheWeek.sol\":6571:6719  function getEnum() public view returns (Status) {... */\n    tag_39:\n      tag_176\n      tag_177\n      jump\t// in\n    tag_176:\n      mload(0x40)\n      tag_178\n      swap2\n      swap1\n      tag_66\n      jump\t// in\n    tag_178:\n      mload(0x40)\n      dup1\n      swap2\n      sub\n      swap1\n      return\n        /* \"my-hardhat-project/practice telegram module 1/Lesson15ResultsOfTheWeek.sol\":1880:2042  function getBoolOne(bool _argBool) external view returns (bool) {... */\n    tag_40:\n      tag_179\n      0x04\n      dup1\n      calldatasize\n      sub\n      dup2\n      add\n      swap1\n      tag_180\n      swap2\n      swap1\n      tag_53\n      jump\t// in\n    tag_180:\n      tag_181\n      jump\t// in\n    tag_179:\n      mload(0x40)\n      tag_182\n      swap2\n      swap1\n      tag_56\n      jump\t// in\n    tag_182:\n      mload(0x40)\n      dup1\n      swap2\n      sub\n      swap1\n      return\n        /* \"my-hardhat-project/practice telegram module 1/Lesson15ResultsOfTheWeek.sol\":8419:8481  function incrementNimber() public {... */\n    tag_41:\n      tag_183\n      tag_184\n      jump\t// in\n    tag_183:\n      stop\n        /* \"my-hardhat-project/practice telegram module 1/Lesson15ResultsOfTheWeek.sol\":5915:6003  function getLengthArr() public  view returns (uint) {... */\n    tag_42:\n      tag_185\n      tag_186\n      jump\t// in\n    tag_185:\n      mload(0x40)\n      tag_187\n      swap2\n      swap1\n      tag_84\n      jump\t// in\n    tag_187:\n      mload(0x40)\n      dup1\n      swap2\n      sub\n      swap1\n      return\n        /* \"my-hardhat-project/practice telegram module 1/Lesson15ResultsOfTheWeek.sol\":5346:5429  function getArr() public view returns (uint[] memory) {... */\n    tag_43:\n      tag_188\n      tag_189\n      jump\t// in\n    tag_188:\n      mload(0x40)\n      tag_190\n      swap2\n      swap1\n      tag_191\n      jump\t// in\n    tag_190:\n      mload(0x40)\n      dup1\n      swap2\n      sub\n      swap1\n      return\n        /* \"my-hardhat-project/practice telegram module 1/Lesson15ResultsOfTheWeek.sol\":2298:2421  function getBoolTwo(bool _argBool) external view returns (bool) {... */\n    tag_54:\n        /* \"my-hardhat-project/practice telegram module 1/Lesson15ResultsOfTheWeek.sol\":2356:2360  bool */\n      0x00\n        /* \"my-hardhat-project/practice telegram module 1/Lesson15ResultsOfTheWeek.sol\":2390:2398  _argBool */\n      dup2\n        /* \"my-hardhat-project/practice telegram module 1/Lesson15ResultsOfTheWeek.sol\":2380:2398  myBool != _argBool */\n      iszero\n      iszero\n        /* \"my-hardhat-project/practice telegram module 1/Lesson15ResultsOfTheWeek.sol\":2380:2386  myBool */\n      0x09\n      0x14\n      swap1\n      sload\n      swap1\n      0x0100\n      exp\n      swap1\n      div\n      0xff\n      and\n        /* \"my-hardhat-project/practice telegram module 1/Lesson15ResultsOfTheWeek.sol\":2380:2398  myBool != _argBool */\n      iszero\n      iszero\n      sub\n        /* \"my-hardhat-project/practice telegram module 1/Lesson15ResultsOfTheWeek.sol\":2380:2413  myBool != _argBool ? true : false */\n      tag_193\n      jumpi\n        /* \"my-hardhat-project/practice telegram module 1/Lesson15ResultsOfTheWeek.sol\":2408:2413  false */\n      0x00\n        /* \"my-hardhat-project/practice telegram module 1/Lesson15ResultsOfTheWeek.sol\":2380:2413  myBool != _argBool ? true : false */\n      jump(tag_194)\n    tag_193:\n        /* \"my-hardhat-project/practice telegram module 1/Lesson15ResultsOfTheWeek.sol\":2401:2405  true */\n      0x01\n        /* \"my-hardhat-project/practice telegram module 1/Lesson15ResultsOfTheWeek.sol\":2380:2413  myBool != _argBool ? true : false */\n    tag_194:\n        /* \"my-hardhat-project/practice telegram module 1/Lesson15ResultsOfTheWeek.sol\":2373:2413  return myBool != _argBool ? true : false */\n      swap1\n      pop\n        /* \"my-hardhat-project/practice telegram module 1/Lesson15ResultsOfTheWeek.sol\":2298:2421  function getBoolTwo(bool _argBool) external view returns (bool) {... */\n      swap2\n      swap1\n      pop\n      jump\t// out\n        /* \"my-hardhat-project/practice telegram module 1/Lesson15ResultsOfTheWeek.sol\":5655:5855  function popArr() public {... */\n    tag_58:\n        /* \"my-hardhat-project/practice telegram module 1/Lesson15ResultsOfTheWeek.sol\":5838:5841  arr */\n      0x0c\n        /* \"my-hardhat-project/practice telegram module 1/Lesson15ResultsOfTheWeek.sol\":5838:5847  arr.pop() */\n      dup1\n      sload\n      dup1\n      tag_196\n      jumpi\n      tag_197\n      tag_198\n      jump\t// in\n    tag_197:\n    tag_196:\n      0x01\n      swap1\n      sub\n      dup2\n      dup2\n      swap1\n      0x00\n      mstore\n      keccak256(0x00, 0x20)\n      add\n      0x00\n      swap1\n      sstore\n      swap1\n      sstore\n        /* \"my-hardhat-project/practice telegram module 1/Lesson15ResultsOfTheWeek.sol\":5655:5855  function popArr() public {... */\n      jump\t// out\n        /* \"my-hardhat-project/practice telegram module 1/Lesson15ResultsOfTheWeek.sol\":6011:6213  function removeArr(uint index) public {... */\n    tag_62:\n        /* \"my-hardhat-project/practice telegram module 1/Lesson15ResultsOfTheWeek.sol\":6195:6198  arr */\n      0x0c\n        /* \"my-hardhat-project/practice telegram module 1/Lesson15ResultsOfTheWeek.sol\":6199:6204  index */\n      dup2\n        /* \"my-hardhat-project/practice telegram module 1/Lesson15ResultsOfTheWeek.sol\":6195:6205  arr[index] */\n      dup2\n      sload\n      dup2\n      lt\n      tag_201\n      jumpi\n      tag_202\n      tag_203\n      jump\t// in\n    tag_202:\n    tag_201:\n      swap1\n      0x00\n      mstore\n      keccak256(0x00, 0x20)\n      add\n        /* \"my-hardhat-project/practice telegram module 1/Lesson15ResultsOfTheWeek.sol\":6188:6205  delete arr[index] */\n      0x00\n      swap1\n      sstore\n        /* \"my-hardhat-project/practice telegram module 1/Lesson15ResultsOfTheWeek.sol\":6011:6213  function removeArr(uint index) public {... */\n      pop\n      jump\t// out\n        /* \"my-hardhat-project/practice telegram module 1/Lesson15ResultsOfTheWeek.sol\":424:444  Status public status */\n    tag_64:\n      0x00\n      dup1\n      sload\n      swap1\n      0x0100\n      exp\n      swap1\n      div\n      0xff\n      and\n      dup2\n      jump\t// out\n        /* \"my-hardhat-project/practice telegram module 1/Lesson15ResultsOfTheWeek.sol\":2642:2768  function getBoolThreee(bool _argBool) external view returns (bool) {... */\n    tag_69:\n        /* \"my-hardhat-project/practice telegram module 1/Lesson15ResultsOfTheWeek.sol\":2703:2707  bool */\n      0x00\n        /* \"my-hardhat-project/practice telegram module 1/Lesson15ResultsOfTheWeek.sol\":2727:2733  myBool */\n      0x09\n      0x14\n      swap1\n      sload\n      swap1\n      0x0100\n      exp\n      swap1\n      div\n      0xff\n      and\n        /* \"my-hardhat-project/practice telegram module 1/Lesson15ResultsOfTheWeek.sol\":2727:2745  myBool && _argBool */\n      dup1\n      iszero\n      tag_206\n      jumpi\n      pop\n        /* \"my-hardhat-project/practice telegram module 1/Lesson15ResultsOfTheWeek.sol\":2737:2745  _argBool */\n      dup2\n        /* \"my-hardhat-project/practice telegram module 1/Lesson15ResultsOfTheWeek.sol\":2727:2745  myBool && _argBool */\n    tag_206:\n        /* \"my-hardhat-project/practice telegram module 1/Lesson15ResultsOfTheWeek.sol\":2727:2760  myBool && _argBool ? true : false */\n      tag_207\n      jumpi\n        /* \"my-hardhat-project/practice telegram module 1/Lesson15ResultsOfTheWeek.sol\":2755:2760  false */\n      0x00\n        /* \"my-hardhat-project/practice telegram module 1/Lesson15ResultsOfTheWeek.sol\":2727:2760  myBool && _argBool ? true : false */\n      jump(tag_208)\n    tag_207:\n        /* \"my-hardhat-project/practice telegram module 1/Lesson15ResultsOfTheWeek.sol\":2748:2752  true */\n      0x01\n        /* \"my-hardhat-project/practice telegram module 1/Lesson15ResultsOfTheWeek.sol\":2727:2760  myBool && _argBool ? true : false */\n    tag_208:\n        /* \"my-hardhat-project/practice telegram module 1/Lesson15ResultsOfTheWeek.sol\":2720:2760  return myBool && _argBool ? true : false */\n      swap1\n      pop\n        /* \"my-hardhat-project/practice telegram module 1/Lesson15ResultsOfTheWeek.sol\":2642:2768  function getBoolThreee(bool _argBool) external view returns (bool) {... */\n      swap2\n      swap1\n      pop\n      jump\t// out\n        /* \"my-hardhat-project/practice telegram module 1/Lesson15ResultsOfTheWeek.sol\":4434:4720  function getPayments(address _addr, uint _balance) public view returns (bool) {... */\n    tag_74:\n        /* \"my-hardhat-project/practice telegram module 1/Lesson15ResultsOfTheWeek.sol\":4506:4510  bool */\n      0x00\n        /* \"my-hardhat-project/practice telegram module 1/Lesson15ResultsOfTheWeek.sol\":4687:4695  payments */\n      0x0b\n        /* \"my-hardhat-project/practice telegram module 1/Lesson15ResultsOfTheWeek.sol\":4687:4702  payments[_addr] */\n      0x00\n        /* \"my-hardhat-project/practice telegram module 1/Lesson15ResultsOfTheWeek.sol\":4696:4701  _addr */\n      dup5\n        /* \"my-hardhat-project/practice telegram module 1/Lesson15ResultsOfTheWeek.sol\":4687:4702  payments[_addr] */\n      0xffffffffffffffffffffffffffffffffffffffff\n      and\n      0xffffffffffffffffffffffffffffffffffffffff\n      and\n      dup2\n      mstore\n      0x20\n      add\n      swap1\n      dup2\n      mstore\n      0x20\n      add\n      0x00\n      keccak256\n        /* \"my-hardhat-project/practice telegram module 1/Lesson15ResultsOfTheWeek.sol\":4687:4712  payments[_addr][_balance] */\n      0x00\n        /* \"my-hardhat-project/practice telegram module 1/Lesson15ResultsOfTheWeek.sol\":4703:4711  _balance */\n      dup4\n        /* \"my-hardhat-project/practice telegram module 1/Lesson15ResultsOfTheWeek.sol\":4687:4712  payments[_addr][_balance] */\n      dup2\n      mstore\n      0x20\n      add\n      swap1\n      dup2\n      mstore\n      0x20\n      add\n      0x00\n      keccak256\n      0x00\n      swap1\n      sload\n      swap1\n      0x0100\n      exp\n      swap1\n      div\n      0xff\n      and\n        /* \"my-hardhat-project/practice telegram module 1/Lesson15ResultsOfTheWeek.sol\":4680:4712  return payments[_addr][_balance] */\n      swap1\n      pop\n        /* \"my-hardhat-project/practice telegram module 1/Lesson15ResultsOfTheWeek.sol\":4434:4720  function getPayments(address _addr, uint _balance) public view returns (bool) {... */\n      swap3\n      swap2\n      pop\n      pop\n      jump\t// out\n        /* \"my-hardhat-project/practice telegram module 1/Lesson15ResultsOfTheWeek.sol\":7567:7642  function testAssert() public  view  {... */\n    tag_77:\n        /* \"my-hardhat-project/practice telegram module 1/Lesson15ResultsOfTheWeek.sol\":7631:7632  0 */\n      0x00\n        /* \"my-hardhat-project/practice telegram module 1/Lesson15ResultsOfTheWeek.sol\":7622:7627  myVar */\n      sload(0x01)\n        /* \"my-hardhat-project/practice telegram module 1/Lesson15ResultsOfTheWeek.sol\":7622:7632  myVar == 0 */\n      eq\n        /* \"my-hardhat-project/practice telegram module 1/Lesson15ResultsOfTheWeek.sol\":7614:7634  assert((myVar == 0)) */\n      tag_211\n      jumpi\n      tag_212\n      tag_213\n      jump\t// in\n    tag_212:\n    tag_211:\n        /* \"my-hardhat-project/practice telegram module 1/Lesson15ResultsOfTheWeek.sol\":7567:7642  function testAssert() public  view  {... */\n      jump\t// out\n        /* \"my-hardhat-project/practice telegram module 1/Lesson15ResultsOfTheWeek.sol\":8793:8901  function ternarnyOperation(uint _i) public {... */\n    tag_80:\n        /* \"my-hardhat-project/practice telegram module 1/Lesson15ResultsOfTheWeek.sol\":8875:8877  _i */\n      dup1\n        /* \"my-hardhat-project/practice telegram module 1/Lesson15ResultsOfTheWeek.sol\":8867:8872  myVar */\n      sload(0x01)\n        /* \"my-hardhat-project/practice telegram module 1/Lesson15ResultsOfTheWeek.sol\":8867:8877  myVar > _i */\n      gt\n        /* \"my-hardhat-project/practice telegram module 1/Lesson15ResultsOfTheWeek.sol\":8867:8892  myVar > _i ? true : false */\n      tag_215\n      jumpi\n        /* \"my-hardhat-project/practice telegram module 1/Lesson15ResultsOfTheWeek.sol\":8887:8892  false */\n      0x00\n        /* \"my-hardhat-project/practice telegram module 1/Lesson15ResultsOfTheWeek.sol\":8867:8892  myVar > _i ? true : false */\n      jump(tag_216)\n    tag_215:\n        /* \"my-hardhat-project/practice telegram module 1/Lesson15ResultsOfTheWeek.sol\":8880:8884  true */\n      0x01\n        /* \"my-hardhat-project/practice telegram module 1/Lesson15ResultsOfTheWeek.sol\":8867:8892  myVar > _i ? true : false */\n    tag_216:\n        /* \"my-hardhat-project/practice telegram module 1/Lesson15ResultsOfTheWeek.sol\":8847:8863  comparisonResult */\n      0x09\n      0x17\n        /* \"my-hardhat-project/practice telegram module 1/Lesson15ResultsOfTheWeek.sol\":8847:8893  comparisonResult = (myVar > _i ? true : false) */\n      0x0100\n      exp\n      dup2\n      sload\n      dup2\n      0xff\n      mul\n      not\n      and\n      swap1\n      dup4\n      iszero\n      iszero\n      mul\n      or\n      swap1\n      sstore\n      pop\n        /* \"my-hardhat-project/practice telegram module 1/Lesson15ResultsOfTheWeek.sol\":8793:8901  function ternarnyOperation(uint _i) public {... */\n      pop\n      jump\t// out\n        /* \"my-hardhat-project/practice telegram module 1/Lesson15ResultsOfTheWeek.sol\":3274:3367  function inc() external view returns (uint256) {... */\n    tag_82:\n        /* \"my-hardhat-project/practice telegram module 1/Lesson15ResultsOfTheWeek.sol\":3312:3319  uint256 */\n      0x00\n        /* \"my-hardhat-project/practice telegram module 1/Lesson15ResultsOfTheWeek.sol\":3357:3359  10 */\n      0x0a\n        /* \"my-hardhat-project/practice telegram module 1/Lesson15ResultsOfTheWeek.sol\":1020:1022  57 */\n      0x39\n        /* \"my-hardhat-project/practice telegram module 1/Lesson15ResultsOfTheWeek.sol\":3340:3345  myVar */\n      sload(0x01)\n        /* \"my-hardhat-project/practice telegram module 1/Lesson15ResultsOfTheWeek.sol\":3340:3353  myVar + FIXED */\n      tag_218\n      swap2\n      swap1\n      tag_219\n      jump\t// in\n    tag_218:\n        /* \"my-hardhat-project/practice telegram module 1/Lesson15ResultsOfTheWeek.sol\":3339:3359  (myVar + FIXED) * 10 */\n      tag_220\n      swap2\n      swap1\n      tag_221\n      jump\t// in\n    tag_220:\n        /* \"my-hardhat-project/practice telegram module 1/Lesson15ResultsOfTheWeek.sol\":3332:3359  return (myVar + FIXED) * 10 */\n      swap1\n      pop\n        /* \"my-hardhat-project/practice telegram module 1/Lesson15ResultsOfTheWeek.sol\":3274:3367  function inc() external view returns (uint256) {... */\n      swap1\n      jump\t// out\n        /* \"my-hardhat-project/practice telegram module 1/Lesson15ResultsOfTheWeek.sol\":1577:1609  uint[10] public myFixedSizeArray */\n    tag_87:\n      0x0e\n      dup2\n      0x0a\n      dup2\n      lt\n      tag_222\n      jumpi\n      0x00\n      dup1\n      revert\n    tag_222:\n      add\n      0x00\n      swap2\n      pop\n      swap1\n      pop\n      sload\n      dup2\n      jump\t// out\n        /* \"my-hardhat-project/practice telegram module 1/Lesson15ResultsOfTheWeek.sol\":5437:5647  function pushArr(uint i) public {... */\n    tag_91:\n        /* \"my-hardhat-project/practice telegram module 1/Lesson15ResultsOfTheWeek.sol\":5628:5631  arr */\n      0x0c\n        /* \"my-hardhat-project/practice telegram module 1/Lesson15ResultsOfTheWeek.sol\":5637:5638  i */\n      dup2\n        /* \"my-hardhat-project/practice telegram module 1/Lesson15ResultsOfTheWeek.sol\":5628:5639  arr.push(i) */\n      swap1\n      dup1\n      0x01\n      dup2\n      sload\n      add\n      dup1\n      dup3\n      sstore\n      dup1\n      swap2\n      pop\n      pop\n      0x01\n      swap1\n      sub\n      swap1\n      0x00\n      mstore\n      keccak256(0x00, 0x20)\n      add\n      0x00\n      swap1\n      swap2\n      swap1\n      swap2\n      swap1\n      swap2\n      pop\n      sstore\n        /* \"my-hardhat-project/practice telegram module 1/Lesson15ResultsOfTheWeek.sol\":5437:5647  function pushArr(uint i) public {... */\n      pop\n      jump\t// out\n        /* \"my-hardhat-project/practice telegram module 1/Lesson15ResultsOfTheWeek.sol\":958:986  bool public comparisonResult */\n    tag_93:\n      0x09\n      0x17\n      swap1\n      sload\n      swap1\n      0x0100\n      exp\n      swap1\n      div\n      0xff\n      and\n      dup2\n      jump\t// out\n        /* \"my-hardhat-project/practice telegram module 1/Lesson15ResultsOfTheWeek.sol\":696:715  string public myStr */\n    tag_96:\n      0x04\n      dup1\n      sload\n      tag_226\n      swap1\n      tag_227\n      jump\t// in\n    tag_226:\n      dup1\n      0x1f\n      add\n      0x20\n      dup1\n      swap2\n      div\n      mul\n      0x20\n      add\n      mload(0x40)\n      swap1\n      dup2\n      add\n      0x40\n      mstore\n      dup1\n      swap3\n      swap2\n      swap1\n      dup2\n      dup2\n      mstore\n      0x20\n      add\n      dup3\n      dup1\n      sload\n      tag_228\n      swap1\n      tag_227\n      jump\t// in\n    tag_228:\n      dup1\n      iszero\n      tag_229\n      jumpi\n      dup1\n      0x1f\n      lt\n      tag_230\n      jumpi\n      0x0100\n      dup1\n      dup4\n      sload\n      div\n      mul\n      dup4\n      mstore\n      swap2\n      0x20\n      add\n      swap2\n      jump(tag_229)\n    tag_230:\n      dup3\n      add\n      swap2\n      swap1\n      0x00\n      mstore\n      keccak256(0x00, 0x20)\n      swap1\n    tag_231:\n      dup2\n      sload\n      dup2\n      mstore\n      swap1\n      0x01\n      add\n      swap1\n      0x20\n      add\n      dup1\n      dup4\n      gt\n      tag_231\n      jumpi\n      dup3\n      swap1\n      sub\n      0x1f\n      and\n      dup3\n      add\n      swap2\n    tag_229:\n      pop\n      pop\n      pop\n      pop\n      pop\n      dup2\n      jump\t// out\n        /* \"my-hardhat-project/practice telegram module 1/Lesson15ResultsOfTheWeek.sol\":875:893  bool public myBool */\n    tag_100:\n      0x09\n      0x14\n      swap1\n      sload\n      swap1\n      0x0100\n      exp\n      swap1\n      div\n      0xff\n      and\n      dup2\n      jump\t// out\n        /* \"my-hardhat-project/practice telegram module 1/Lesson15ResultsOfTheWeek.sol\":4728:4848  function setPayments(address _addr, uint _balance, bool _boo) public {... */\n    tag_105:\n        /* \"my-hardhat-project/practice telegram module 1/Lesson15ResultsOfTheWeek.sol\":4836:4840  _boo */\n      dup1\n        /* \"my-hardhat-project/practice telegram module 1/Lesson15ResultsOfTheWeek.sol\":4808:4816  payments */\n      0x0b\n        /* \"my-hardhat-project/practice telegram module 1/Lesson15ResultsOfTheWeek.sol\":4808:4823  payments[_addr] */\n      0x00\n        /* \"my-hardhat-project/practice telegram module 1/Lesson15ResultsOfTheWeek.sol\":4817:4822  _addr */\n      dup6\n        /* \"my-hardhat-project/practice telegram module 1/Lesson15ResultsOfTheWeek.sol\":4808:4823  payments[_addr] */\n      0xffffffffffffffffffffffffffffffffffffffff\n      and\n      0xffffffffffffffffffffffffffffffffffffffff\n      and\n      dup2\n      mstore\n      0x20\n      add\n      swap1\n      dup2\n      mstore\n      0x20\n      add\n      0x00\n      keccak256\n        /* \"my-hardhat-project/practice telegram module 1/Lesson15ResultsOfTheWeek.sol\":4808:4833  payments[_addr][_balance] */\n      0x00\n        /* \"my-hardhat-project/practice telegram module 1/Lesson15ResultsOfTheWeek.sol\":4824:4832  _balance */\n      dup5\n        /* \"my-hardhat-project/practice telegram module 1/Lesson15ResultsOfTheWeek.sol\":4808:4833  payments[_addr][_balance] */\n      dup2\n      mstore\n      0x20\n      add\n      swap1\n      dup2\n      mstore\n      0x20\n      add\n      0x00\n      keccak256\n      0x00\n        /* \"my-hardhat-project/practice telegram module 1/Lesson15ResultsOfTheWeek.sol\":4808:4840  payments[_addr][_balance] = _boo */\n      0x0100\n      exp\n      dup2\n      sload\n      dup2\n      0xff\n      mul\n      not\n      and\n      swap1\n      dup4\n      iszero\n      iszero\n      mul\n      or\n      swap1\n      sstore\n      pop\n        /* \"my-hardhat-project/practice telegram module 1/Lesson15ResultsOfTheWeek.sol\":4728:4848  function setPayments(address _addr, uint _balance, bool _boo) public {... */\n      pop\n      pop\n      pop\n      jump\t// out\n        /* \"my-hardhat-project/practice telegram module 1/Lesson15ResultsOfTheWeek.sol\":1414:1431  uint[] public arr */\n    tag_108:\n      0x0c\n      dup2\n      dup2\n      sload\n      dup2\n      lt\n      tag_233\n      jumpi\n      0x00\n      dup1\n      revert\n    tag_233:\n      swap1\n      0x00\n      mstore\n      keccak256(0x00, 0x20)\n      add\n      0x00\n      swap2\n      pop\n      swap1\n      pop\n      sload\n      dup2\n      jump\t// out\n        /* \"my-hardhat-project/practice telegram module 1/Lesson15ResultsOfTheWeek.sol\":7787:8113  function testCustomError(uint _withdrawAmmount) public view  {... */\n    tag_112:\n        /* \"my-hardhat-project/practice telegram module 1/Lesson15ResultsOfTheWeek.sol\":7859:7867  uint bal */\n      0x00\n        /* \"my-hardhat-project/practice telegram module 1/Lesson15ResultsOfTheWeek.sol\":7870:7891  address(this).balance */\n      selfbalance\n        /* \"my-hardhat-project/practice telegram module 1/Lesson15ResultsOfTheWeek.sol\":7859:7891  uint bal = address(this).balance */\n      swap1\n      pop\n        /* \"my-hardhat-project/practice telegram module 1/Lesson15ResultsOfTheWeek.sol\":7912:7928  _withdrawAmmount */\n      dup2\n        /* \"my-hardhat-project/practice telegram module 1/Lesson15ResultsOfTheWeek.sol\":7906:7909  bal */\n      dup2\n        /* \"my-hardhat-project/practice telegram module 1/Lesson15ResultsOfTheWeek.sol\":7906:7928  bal < _withdrawAmmount */\n      lt\n        /* \"my-hardhat-project/practice telegram module 1/Lesson15ResultsOfTheWeek.sol\":7902:8106  if (bal < _withdrawAmmount) {... */\n      iszero\n      tag_236\n      jumpi\n        /* \"my-hardhat-project/practice telegram module 1/Lesson15ResultsOfTheWeek.sol\":8054:8057  bal */\n      dup1\n        /* \"my-hardhat-project/practice telegram module 1/Lesson15ResultsOfTheWeek.sol\":8076:8092  _withdrawAmmount */\n      dup3\n        /* \"my-hardhat-project/practice telegram module 1/Lesson15ResultsOfTheWeek.sol\":8024:8094  InsufficientBalance({balance: bal, withdrawAmmount: _withdrawAmmount}) */\n      mload(0x40)\n      0xcf47918100000000000000000000000000000000000000000000000000000000\n      dup2\n      mstore\n      0x04\n      add\n      tag_237\n      swap3\n      swap2\n      swap1\n      tag_238\n      jump\t// in\n    tag_237:\n      mload(0x40)\n      dup1\n      swap2\n      sub\n      swap1\n      revert\n        /* \"my-hardhat-project/practice telegram module 1/Lesson15ResultsOfTheWeek.sol\":7902:8106  if (bal < _withdrawAmmount) {... */\n    tag_236:\n        /* \"my-hardhat-project/practice telegram module 1/Lesson15ResultsOfTheWeek.sol\":7848:8113  {... */\n      pop\n        /* \"my-hardhat-project/practice telegram module 1/Lesson15ResultsOfTheWeek.sol\":7787:8113  function testCustomError(uint _withdrawAmmount) public view  {... */\n      pop\n      jump\t// out\n        /* \"my-hardhat-project/practice telegram module 1/Lesson15ResultsOfTheWeek.sol\":3657:3748  function ovwerFlow() external returns (uint256) {... */\n    tag_114:\n        /* \"my-hardhat-project/practice telegram module 1/Lesson15ResultsOfTheWeek.sol\":3696:3703  uint256 */\n      0x00\n        /* \"my-hardhat-project/practice telegram module 1/Lesson15ResultsOfTheWeek.sol\":3739:3740  1 */\n      0x01\n        /* \"my-hardhat-project/practice telegram module 1/Lesson15ResultsOfTheWeek.sol\":3731:3736  myVar */\n      dup1\n      sload\n        /* \"my-hardhat-project/practice telegram module 1/Lesson15ResultsOfTheWeek.sol\":3731:3740  myVar + 1 */\n      tag_240\n      swap2\n      swap1\n      tag_219\n      jump\t// in\n    tag_240:\n        /* \"my-hardhat-project/practice telegram module 1/Lesson15ResultsOfTheWeek.sol\":3723:3728  myVar */\n      0x01\n        /* \"my-hardhat-project/practice telegram module 1/Lesson15ResultsOfTheWeek.sol\":3723:3740  myVar = myVar + 1 */\n      dup2\n      swap1\n      sstore\n        /* \"my-hardhat-project/practice telegram module 1/Lesson15ResultsOfTheWeek.sol\":3716:3740  return myVar = myVar + 1 */\n      swap1\n      pop\n        /* \"my-hardhat-project/practice telegram module 1/Lesson15ResultsOfTheWeek.sol\":3657:3748  function ovwerFlow() external returns (uint256) {... */\n      swap1\n      jump\t// out\n        /* \"my-hardhat-project/practice telegram module 1/Lesson15ResultsOfTheWeek.sol\":8227:8349  function iniziallize(uint _number, address _newAddr) public {... */\n    tag_119:\n        /* \"my-hardhat-project/practice telegram module 1/Lesson15ResultsOfTheWeek.sol\":8306:8313  _number */\n      dup2\n        /* \"my-hardhat-project/practice telegram module 1/Lesson15ResultsOfTheWeek.sol\":8298:8303  myVar */\n      0x01\n        /* \"my-hardhat-project/practice telegram module 1/Lesson15ResultsOfTheWeek.sol\":8298:8313  myVar = _number */\n      dup2\n      swap1\n      sstore\n      pop\n        /* \"my-hardhat-project/practice telegram module 1/Lesson15ResultsOfTheWeek.sol\":8333:8341  _newAddr */\n      dup1\n        /* \"my-hardhat-project/practice telegram module 1/Lesson15ResultsOfTheWeek.sol\":8324:8330  myAddr */\n      0x07\n      0x00\n        /* \"my-hardhat-project/practice telegram module 1/Lesson15ResultsOfTheWeek.sol\":8324:8341  myAddr = _newAddr */\n      0x0100\n      exp\n      dup2\n      sload\n      dup2\n      0xffffffffffffffffffffffffffffffffffffffff\n      mul\n      not\n      and\n      swap1\n      dup4\n      0xffffffffffffffffffffffffffffffffffffffff\n      and\n      mul\n      or\n      swap1\n      sstore\n      pop\n        /* \"my-hardhat-project/practice telegram module 1/Lesson15ResultsOfTheWeek.sol\":8227:8349  function iniziallize(uint _number, address _newAddr) public {... */\n      pop\n      pop\n      jump\t// out\n        /* \"my-hardhat-project/practice telegram module 1/Lesson15ResultsOfTheWeek.sol\":7420:7559  function testReveert(uint _i) public pure {... */\n    tag_122:\n        /* \"my-hardhat-project/practice telegram module 1/Lesson15ResultsOfTheWeek.sol\":7482:7484  10 */\n      0x0a\n        /* \"my-hardhat-project/practice telegram module 1/Lesson15ResultsOfTheWeek.sol\":7477:7479  _i */\n      dup2\n        /* \"my-hardhat-project/practice telegram module 1/Lesson15ResultsOfTheWeek.sol\":7477:7484  _i > 10 */\n      gt\n        /* \"my-hardhat-project/practice telegram module 1/Lesson15ResultsOfTheWeek.sol\":7473:7552  if (_i > 10) {... */\n      iszero\n      tag_243\n      jumpi\n        /* \"my-hardhat-project/practice telegram module 1/Lesson15ResultsOfTheWeek.sol\":7501:7540  revert(\"Input must be greater than 10\") */\n      mload(0x40)\n      0x08c379a000000000000000000000000000000000000000000000000000000000\n      dup2\n      mstore\n      0x04\n      add\n      tag_244\n      swap1\n      tag_245\n      jump\t// in\n    tag_244:\n      mload(0x40)\n      dup1\n      swap2\n      sub\n      swap1\n      revert\n        /* \"my-hardhat-project/practice telegram module 1/Lesson15ResultsOfTheWeek.sol\":7473:7552  if (_i > 10) {... */\n    tag_243:\n        /* \"my-hardhat-project/practice telegram module 1/Lesson15ResultsOfTheWeek.sol\":7420:7559  function testReveert(uint _i) public pure {... */\n      pop\n      jump\t// out\n        /* \"my-hardhat-project/practice telegram module 1/Lesson15ResultsOfTheWeek.sol\":4935:5015  function get(uint i) public view returns (uint) {... */\n    tag_125:\n        /* \"my-hardhat-project/practice telegram module 1/Lesson15ResultsOfTheWeek.sol\":4977:4981  uint */\n      0x00\n        /* \"my-hardhat-project/practice telegram module 1/Lesson15ResultsOfTheWeek.sol\":5001:5004  arr */\n      0x0c\n        /* \"my-hardhat-project/practice telegram module 1/Lesson15ResultsOfTheWeek.sol\":5005:5006  i */\n      dup3\n        /* \"my-hardhat-project/practice telegram module 1/Lesson15ResultsOfTheWeek.sol\":5001:5007  arr[i] */\n      dup2\n      sload\n      dup2\n      lt\n      tag_247\n      jumpi\n      tag_248\n      tag_203\n      jump\t// in\n    tag_248:\n    tag_247:\n      swap1\n      0x00\n      mstore\n      keccak256(0x00, 0x20)\n      add\n      sload\n        /* \"my-hardhat-project/practice telegram module 1/Lesson15ResultsOfTheWeek.sol\":4994:5007  return arr[i] */\n      swap1\n      pop\n        /* \"my-hardhat-project/practice telegram module 1/Lesson15ResultsOfTheWeek.sol\":4935:5015  function get(uint i) public view returns (uint) {... */\n      swap2\n      swap1\n      pop\n      jump\t// out\n        /* \"my-hardhat-project/practice telegram module 1/Lesson15ResultsOfTheWeek.sol\":8563:8690  function compareAddresses(address _addressToCompare) public {... */\n    tag_130:\n        /* \"my-hardhat-project/practice telegram module 1/Lesson15ResultsOfTheWeek.sol\":8664:8681  _addressToCompare */\n      dup1\n        /* \"my-hardhat-project/practice telegram module 1/Lesson15ResultsOfTheWeek.sol\":8654:8681  myAddr == _addressToCompare */\n      0xffffffffffffffffffffffffffffffffffffffff\n      and\n        /* \"my-hardhat-project/practice telegram module 1/Lesson15ResultsOfTheWeek.sol\":8654:8660  myAddr */\n      0x07\n      0x00\n      swap1\n      sload\n      swap1\n      0x0100\n      exp\n      swap1\n      div\n      0xffffffffffffffffffffffffffffffffffffffff\n      and\n        /* \"my-hardhat-project/practice telegram module 1/Lesson15ResultsOfTheWeek.sol\":8654:8681  myAddr == _addressToCompare */\n      0xffffffffffffffffffffffffffffffffffffffff\n      and\n      eq\n        /* \"my-hardhat-project/practice telegram module 1/Lesson15ResultsOfTheWeek.sol\":8634:8650  comparisonResult */\n      0x09\n      0x17\n        /* \"my-hardhat-project/practice telegram module 1/Lesson15ResultsOfTheWeek.sol\":8634:8682  comparisonResult = (myAddr == _addressToCompare) */\n      0x0100\n      exp\n      dup2\n      sload\n      dup2\n      0xff\n      mul\n      not\n      and\n      swap1\n      dup4\n      iszero\n      iszero\n      mul\n      or\n      swap1\n      sstore\n      pop\n        /* \"my-hardhat-project/practice telegram module 1/Lesson15ResultsOfTheWeek.sol\":8563:8690  function compareAddresses(address _addressToCompare) public {... */\n      pop\n      jump\t// out\n        /* \"my-hardhat-project/practice telegram module 1/Lesson15ResultsOfTheWeek.sol\":7199:7259  function resetEnum() public {... */\n    tag_132:\n        /* \"my-hardhat-project/practice telegram module 1/Lesson15ResultsOfTheWeek.sol\":7245:7251  status */\n      0x00\n      dup1\n        /* \"my-hardhat-project/practice telegram module 1/Lesson15ResultsOfTheWeek.sol\":7238:7251  delete status */\n      0x0100\n      exp\n      dup2\n      sload\n      swap1\n      0xff\n      mul\n      not\n      and\n      swap1\n      sstore\n        /* \"my-hardhat-project/practice telegram module 1/Lesson15ResultsOfTheWeek.sol\":7199:7259  function resetEnum() public {... */\n      jump\t// out\n        /* \"my-hardhat-project/practice telegram module 1/Lesson15ResultsOfTheWeek.sol\":4108:4274  function setAddr (address _addr, uint _balance) public {... */\n    tag_135:\n        /* \"my-hardhat-project/practice telegram module 1/Lesson15ResultsOfTheWeek.sol\":4258:4266  _balance */\n      dup1\n        /* \"my-hardhat-project/practice telegram module 1/Lesson15ResultsOfTheWeek.sol\":4240:4248  balances */\n      0x0a\n        /* \"my-hardhat-project/practice telegram module 1/Lesson15ResultsOfTheWeek.sol\":4240:4255  balances[_addr] */\n      0x00\n        /* \"my-hardhat-project/practice telegram module 1/Lesson15ResultsOfTheWeek.sol\":4249:4254  _addr */\n      dup5\n        /* \"my-hardhat-project/practice telegram module 1/Lesson15ResultsOfTheWeek.sol\":4240:4255  balances[_addr] */\n      0xffffffffffffffffffffffffffffffffffffffff\n      and\n      0xffffffffffffffffffffffffffffffffffffffff\n      and\n      dup2\n      mstore\n      0x20\n      add\n      swap1\n      dup2\n      mstore\n      0x20\n      add\n      0x00\n      keccak256\n        /* \"my-hardhat-project/practice telegram module 1/Lesson15ResultsOfTheWeek.sol\":4240:4266  balances[_addr] = _balance */\n      dup2\n      swap1\n      sstore\n      pop\n        /* \"my-hardhat-project/practice telegram module 1/Lesson15ResultsOfTheWeek.sol\":4108:4274  function setAddr (address _addr, uint _balance) public {... */\n      pop\n      pop\n      jump\t// out\n        /* \"my-hardhat-project/practice telegram module 1/Lesson15ResultsOfTheWeek.sol\":1289:1348  mapping (address => mapping (uint => bool)) public payments */\n    tag_138:\n      mstore(0x20, 0x0b)\n      dup2\n      0x00\n      mstore\n      mstore(0x20, keccak256(0x00, 0x40))\n      dup1\n      0x00\n      mstore\n      keccak256(0x00, 0x40)\n      0x00\n      swap2\n      pop\n      swap2\n      pop\n      swap1\n      sload\n      swap1\n      0x0100\n      exp\n      swap1\n      div\n      0xff\n      and\n      dup2\n      jump\t// out\n        /* \"my-hardhat-project/practice telegram module 1/Lesson15ResultsOfTheWeek.sol\":3449:3524  function dec() external returns (uint256) {... */\n    tag_141:\n        /* \"my-hardhat-project/practice telegram module 1/Lesson15ResultsOfTheWeek.sol\":3482:3489  uint256 */\n      0x00\n        /* \"my-hardhat-project/practice telegram module 1/Lesson15ResultsOfTheWeek.sol\":3511:3516  myVar */\n      0x01\n      0x00\n        /* \"my-hardhat-project/practice telegram module 1/Lesson15ResultsOfTheWeek.sol\":3509:3516  --myVar */\n      dup2\n      sload\n      tag_254\n      swap1\n      tag_255\n      jump\t// in\n    tag_254:\n      swap2\n      swap1\n      pop\n      dup2\n      swap1\n      sstore\n        /* \"my-hardhat-project/practice telegram module 1/Lesson15ResultsOfTheWeek.sol\":3502:3516  return --myVar */\n      swap1\n      pop\n        /* \"my-hardhat-project/practice telegram module 1/Lesson15ResultsOfTheWeek.sol\":3449:3524  function dec() external returns (uint256) {... */\n      swap1\n      jump\t// out\n        /* \"my-hardhat-project/practice telegram module 1/Lesson15ResultsOfTheWeek.sol\":3837:4099  function getAddr(address newAddr) public view returns (uint) {... */\n    tag_145:\n        /* \"my-hardhat-project/practice telegram module 1/Lesson15ResultsOfTheWeek.sol\":3892:3896  uint */\n      0x00\n        /* \"my-hardhat-project/practice telegram module 1/Lesson15ResultsOfTheWeek.sol\":4074:4082  balances */\n      0x0a\n        /* \"my-hardhat-project/practice telegram module 1/Lesson15ResultsOfTheWeek.sol\":4074:4091  balances[newAddr] */\n      0x00\n        /* \"my-hardhat-project/practice telegram module 1/Lesson15ResultsOfTheWeek.sol\":4083:4090  newAddr */\n      dup4\n        /* \"my-hardhat-project/practice telegram module 1/Lesson15ResultsOfTheWeek.sol\":4074:4091  balances[newAddr] */\n      0xffffffffffffffffffffffffffffffffffffffff\n      and\n      0xffffffffffffffffffffffffffffffffffffffff\n      and\n      dup2\n      mstore\n      0x20\n      add\n      swap1\n      dup2\n      mstore\n      0x20\n      add\n      0x00\n      keccak256\n      sload\n        /* \"my-hardhat-project/practice telegram module 1/Lesson15ResultsOfTheWeek.sol\":4067:4091  return balances[newAddr] */\n      swap1\n      pop\n        /* \"my-hardhat-project/practice telegram module 1/Lesson15ResultsOfTheWeek.sol\":3837:4099  function getAddr(address newAddr) public view returns (uint) {... */\n      swap2\n      swap1\n      pop\n      jump\t// out\n        /* \"my-hardhat-project/practice telegram module 1/Lesson15ResultsOfTheWeek.sol\":6221:6563  function examplesArr() external pure {... */\n    tag_148:\n        /* \"my-hardhat-project/practice telegram module 1/Lesson15ResultsOfTheWeek.sol\":6505:6520  uint[] memory a */\n      0x00\n        /* \"my-hardhat-project/practice telegram module 1/Lesson15ResultsOfTheWeek.sol\":6534:6535  5 */\n      0x05\n        /* \"my-hardhat-project/practice telegram module 1/Lesson15ResultsOfTheWeek.sol\":6523:6536  new uint[](5) */\n      0xffffffffffffffff\n      dup2\n      gt\n      iszero\n      tag_258\n      jumpi\n      tag_259\n      tag_260\n      jump\t// in\n    tag_259:\n    tag_258:\n      mload(0x40)\n      swap1\n      dup1\n      dup3\n      mstore\n      dup1\n      0x20\n      mul\n      0x20\n      add\n      dup3\n      add\n      0x40\n      mstore\n      dup1\n      iszero\n      tag_261\n      jumpi\n      dup2\n      0x20\n      add\n      0x20\n      dup3\n      mul\n      dup1\n      calldatasize\n      dup4\n      calldatacopy\n      dup1\n      dup3\n      add\n      swap2\n      pop\n      pop\n      swap1\n      pop\n    tag_261:\n      pop\n        /* \"my-hardhat-project/practice telegram module 1/Lesson15ResultsOfTheWeek.sol\":6505:6536  uint[] memory a = new uint[](5) */\n      swap1\n      pop\n        /* \"my-hardhat-project/practice telegram module 1/Lesson15ResultsOfTheWeek.sol\":6554:6555  1 */\n      0x01\n        /* \"my-hardhat-project/practice telegram module 1/Lesson15ResultsOfTheWeek.sol\":6547:6548  a */\n      dup2\n        /* \"my-hardhat-project/practice telegram module 1/Lesson15ResultsOfTheWeek.sol\":6549:6550  0 */\n      0x00\n        /* \"my-hardhat-project/practice telegram module 1/Lesson15ResultsOfTheWeek.sol\":6547:6551  a[0] */\n      dup2\n      mload\n      dup2\n      lt\n      tag_262\n      jumpi\n      tag_263\n      tag_203\n      jump\t// in\n    tag_263:\n    tag_262:\n      0x20\n      mul\n      0x20\n      add\n      add\n        /* \"my-hardhat-project/practice telegram module 1/Lesson15ResultsOfTheWeek.sol\":6547:6555  a[0] = 1 */\n      dup2\n      dup2\n      mstore\n      pop\n      pop\n        /* \"my-hardhat-project/practice telegram module 1/Lesson15ResultsOfTheWeek.sol\":6258:6563  {... */\n      pop\n        /* \"my-hardhat-project/practice telegram module 1/Lesson15ResultsOfTheWeek.sol\":6221:6563  function examplesArr() external pure {... */\n      jump\t// out\n        /* \"my-hardhat-project/practice telegram module 1/Lesson15ResultsOfTheWeek.sol\":7267:7412  function testRequire(uint _i) public pure {... */\n    tag_151:\n        /* \"my-hardhat-project/practice telegram module 1/Lesson15ResultsOfTheWeek.sol\":7368:7370  10 */\n      0x0a\n        /* \"my-hardhat-project/practice telegram module 1/Lesson15ResultsOfTheWeek.sol\":7363:7365  _i */\n      dup2\n        /* \"my-hardhat-project/practice telegram module 1/Lesson15ResultsOfTheWeek.sol\":7363:7370  _i > 10 */\n      gt\n        /* \"my-hardhat-project/practice telegram module 1/Lesson15ResultsOfTheWeek.sol\":7355:7404  require(_i > 10, \"Input must be greater than 10\") */\n      tag_265\n      jumpi\n      mload(0x40)\n      0x08c379a000000000000000000000000000000000000000000000000000000000\n      dup2\n      mstore\n      0x04\n      add\n      tag_266\n      swap1\n      tag_245\n      jump\t// in\n    tag_266:\n      mload(0x40)\n      dup1\n      swap2\n      sub\n      swap1\n      revert\n    tag_265:\n        /* \"my-hardhat-project/practice telegram module 1/Lesson15ResultsOfTheWeek.sol\":7267:7412  function testRequire(uint _i) public pure {... */\n      pop\n      jump\t// out\n        /* \"my-hardhat-project/practice telegram module 1/Lesson15ResultsOfTheWeek.sol\":613:633  uint256 public myVar */\n    tag_153:\n      sload(0x01)\n      dup2\n      jump\t// out\n        /* \"my-hardhat-project/practice telegram module 1/Lesson15ResultsOfTheWeek.sol\":3002:3126  function getBoolFour(bool _argBool) external view returns (bool) {... */\n    tag_157:\n        /* \"my-hardhat-project/practice telegram module 1/Lesson15ResultsOfTheWeek.sol\":3061:3065  bool */\n      0x00\n        /* \"my-hardhat-project/practice telegram module 1/Lesson15ResultsOfTheWeek.sol\":3085:3091  myBool */\n      0x09\n      0x14\n      swap1\n      sload\n      swap1\n      0x0100\n      exp\n      swap1\n      div\n      0xff\n      and\n        /* \"my-hardhat-project/practice telegram module 1/Lesson15ResultsOfTheWeek.sol\":3085:3103  myBool || _argBool */\n      dup1\n      tag_268\n      jumpi\n      pop\n        /* \"my-hardhat-project/practice telegram module 1/Lesson15ResultsOfTheWeek.sol\":3095:3103  _argBool */\n      dup2\n        /* \"my-hardhat-project/practice telegram module 1/Lesson15ResultsOfTheWeek.sol\":3085:3103  myBool || _argBool */\n    tag_268:\n        /* \"my-hardhat-project/practice telegram module 1/Lesson15ResultsOfTheWeek.sol\":3085:3118  myBool || _argBool ? true : false */\n      tag_269\n      jumpi\n        /* \"my-hardhat-project/practice telegram module 1/Lesson15ResultsOfTheWeek.sol\":3113:3118  false */\n      0x00\n        /* \"my-hardhat-project/practice telegram module 1/Lesson15ResultsOfTheWeek.sol\":3085:3118  myBool || _argBool ? true : false */\n      jump(tag_270)\n    tag_269:\n        /* \"my-hardhat-project/practice telegram module 1/Lesson15ResultsOfTheWeek.sol\":3106:3110  true */\n      0x01\n        /* \"my-hardhat-project/practice telegram module 1/Lesson15ResultsOfTheWeek.sol\":3085:3118  myBool || _argBool ? true : false */\n    tag_270:\n        /* \"my-hardhat-project/practice telegram module 1/Lesson15ResultsOfTheWeek.sol\":3078:3118  return myBool || _argBool ? true : false */\n      swap1\n      pop\n        /* \"my-hardhat-project/practice telegram module 1/Lesson15ResultsOfTheWeek.sol\":3002:3126  function getBoolFour(bool _argBool) external view returns (bool) {... */\n      swap2\n      swap1\n      pop\n      jump\t// out\n        /* \"my-hardhat-project/practice telegram module 1/Lesson15ResultsOfTheWeek.sol\":783:804  address public myAddr */\n    tag_160:\n      0x07\n      0x00\n      swap1\n      sload\n      swap1\n      0x0100\n      exp\n      swap1\n      div\n      0xffffffffffffffffffffffffffffffffffffffff\n      and\n      dup2\n      jump\t// out\n        /* \"my-hardhat-project/practice telegram module 1/Lesson15ResultsOfTheWeek.sol\":4282:4426  function delAddr(address _addr) public {... */\n    tag_165:\n        /* \"my-hardhat-project/practice telegram module 1/Lesson15ResultsOfTheWeek.sol\":4403:4411  balances */\n      0x0a\n        /* \"my-hardhat-project/practice telegram module 1/Lesson15ResultsOfTheWeek.sol\":4403:4418  balances[_addr] */\n      0x00\n        /* \"my-hardhat-project/practice telegram module 1/Lesson15ResultsOfTheWeek.sol\":4412:4417  _addr */\n      dup3\n        /* \"my-hardhat-project/practice telegram module 1/Lesson15ResultsOfTheWeek.sol\":4403:4418  balances[_addr] */\n      0xffffffffffffffffffffffffffffffffffffffff\n      and\n      0xffffffffffffffffffffffffffffffffffffffff\n      and\n      dup2\n      mstore\n      0x20\n      add\n      swap1\n      dup2\n      mstore\n      0x20\n      add\n      0x00\n      keccak256\n        /* \"my-hardhat-project/practice telegram module 1/Lesson15ResultsOfTheWeek.sol\":4396:4418  delete balances[_addr] */\n      0x00\n      swap1\n      sstore\n        /* \"my-hardhat-project/practice telegram module 1/Lesson15ResultsOfTheWeek.sol\":4282:4426  function delAddr(address _addr) public {... */\n      pop\n      jump\t// out\n        /* \"my-hardhat-project/practice telegram module 1/Lesson15ResultsOfTheWeek.sol\":7005:7077  function cancelEnum() public {... */\n    tag_167:\n        /* \"my-hardhat-project/practice telegram module 1/Lesson15ResultsOfTheWeek.sol\":7054:7069  Status.Canceled */\n      0x04\n        /* \"my-hardhat-project/practice telegram module 1/Lesson15ResultsOfTheWeek.sol\":7045:7051  status */\n      0x00\n      dup1\n        /* \"my-hardhat-project/practice telegram module 1/Lesson15ResultsOfTheWeek.sol\":7045:7069  status = Status.Canceled */\n      0x0100\n      exp\n      dup2\n      sload\n      dup2\n      0xff\n      mul\n      not\n      and\n      swap1\n      dup4\n      0x04\n      dup2\n      gt\n      iszero\n      tag_273\n      jumpi\n      tag_274\n      tag_275\n      jump\t// in\n    tag_274:\n    tag_273:\n      mul\n      or\n      swap1\n      sstore\n      pop\n        /* \"my-hardhat-project/practice telegram module 1/Lesson15ResultsOfTheWeek.sol\":7005:7077  function cancelEnum() public {... */\n      jump\t// out\n        /* \"my-hardhat-project/practice telegram module 1/Lesson15ResultsOfTheWeek.sol\":6776:6916  function setEnum(Status _status) public {... */\n    tag_171:\n        /* \"my-hardhat-project/practice telegram module 1/Lesson15ResultsOfTheWeek.sol\":6901:6908  _status */\n      dup1\n        /* \"my-hardhat-project/practice telegram module 1/Lesson15ResultsOfTheWeek.sol\":6892:6898  status */\n      0x00\n      dup1\n        /* \"my-hardhat-project/practice telegram module 1/Lesson15ResultsOfTheWeek.sol\":6892:6908  status = _status */\n      0x0100\n      exp\n      dup2\n      sload\n      dup2\n      0xff\n      mul\n      not\n      and\n      swap1\n      dup4\n      0x04\n      dup2\n      gt\n      iszero\n      tag_277\n      jumpi\n      tag_278\n      tag_275\n      jump\t// in\n    tag_278:\n    tag_277:\n      mul\n      or\n      swap1\n      sstore\n      pop\n        /* \"my-hardhat-project/practice telegram module 1/Lesson15ResultsOfTheWeek.sol\":6776:6916  function setEnum(Status _status) public {... */\n      pop\n      jump\t// out\n        /* \"my-hardhat-project/practice telegram module 1/Lesson15ResultsOfTheWeek.sol\":1438:1468  uint[] public arr2 = [1, 2, 3] */\n    tag_174:\n      0x0d\n      dup2\n      dup2\n      sload\n      dup2\n      lt\n      tag_279\n      jumpi\n      0x00\n      dup1\n      revert\n    tag_279:\n      swap1\n      0x00\n      mstore\n      keccak256(0x00, 0x20)\n      add\n      0x00\n      swap2\n      pop\n      swap1\n      pop\n      sload\n      dup2\n      jump\t// out\n        /* \"my-hardhat-project/practice telegram module 1/Lesson15ResultsOfTheWeek.sol\":6571:6719  function getEnum() public view returns (Status) {... */\n    tag_177:\n        /* \"my-hardhat-project/practice telegram module 1/Lesson15ResultsOfTheWeek.sol\":6611:6617  Status */\n      0x00\n        /* \"my-hardhat-project/practice telegram module 1/Lesson15ResultsOfTheWeek.sol\":6705:6711  status */\n      dup1\n      0x00\n      swap1\n      sload\n      swap1\n      0x0100\n      exp\n      swap1\n      div\n      0xff\n      and\n        /* \"my-hardhat-project/practice telegram module 1/Lesson15ResultsOfTheWeek.sol\":6698:6711  return status */\n      swap1\n      pop\n        /* \"my-hardhat-project/practice telegram module 1/Lesson15ResultsOfTheWeek.sol\":6571:6719  function getEnum() public view returns (Status) {... */\n      swap1\n      jump\t// out\n        /* \"my-hardhat-project/practice telegram module 1/Lesson15ResultsOfTheWeek.sol\":1880:2042  function getBoolOne(bool _argBool) external view returns (bool) {... */\n    tag_181:\n        /* \"my-hardhat-project/practice telegram module 1/Lesson15ResultsOfTheWeek.sol\":1938:1942  bool */\n      0x00\n        /* \"my-hardhat-project/practice telegram module 1/Lesson15ResultsOfTheWeek.sol\":1972:1980  _argBool */\n      dup2\n        /* \"my-hardhat-project/practice telegram module 1/Lesson15ResultsOfTheWeek.sol\":1962:1980  myBool == _argBool */\n      iszero\n      iszero\n        /* \"my-hardhat-project/practice telegram module 1/Lesson15ResultsOfTheWeek.sol\":1962:1968  myBool */\n      0x09\n      0x14\n      swap1\n      sload\n      swap1\n      0x0100\n      exp\n      swap1\n      div\n      0xff\n      and\n        /* \"my-hardhat-project/practice telegram module 1/Lesson15ResultsOfTheWeek.sol\":1962:1980  myBool == _argBool */\n      iszero\n      iszero\n      eq\n        /* \"my-hardhat-project/practice telegram module 1/Lesson15ResultsOfTheWeek.sol\":1962:1995  myBool == _argBool ? true : false */\n      tag_283\n      jumpi\n        /* \"my-hardhat-project/practice telegram module 1/Lesson15ResultsOfTheWeek.sol\":1990:1995  false */\n      0x00\n        /* \"my-hardhat-project/practice telegram module 1/Lesson15ResultsOfTheWeek.sol\":1962:1995  myBool == _argBool ? true : false */\n      jump(tag_284)\n    tag_283:\n        /* \"my-hardhat-project/practice telegram module 1/Lesson15ResultsOfTheWeek.sol\":1983:1987  true */\n      0x01\n        /* \"my-hardhat-project/practice telegram module 1/Lesson15ResultsOfTheWeek.sol\":1962:1995  myBool == _argBool ? true : false */\n    tag_284:\n        /* \"my-hardhat-project/practice telegram module 1/Lesson15ResultsOfTheWeek.sol\":1955:1995  return myBool == _argBool ? true : false */\n      swap1\n      pop\n        /* \"my-hardhat-project/practice telegram module 1/Lesson15ResultsOfTheWeek.sol\":1880:2042  function getBoolOne(bool _argBool) external view returns (bool) {... */\n      swap2\n      swap1\n      pop\n      jump\t// out\n        /* \"my-hardhat-project/practice telegram module 1/Lesson15ResultsOfTheWeek.sol\":8419:8481  function incrementNimber() public {... */\n    tag_184:\n        /* \"my-hardhat-project/practice telegram module 1/Lesson15ResultsOfTheWeek.sol\":8472:8473  1 */\n      0x01\n        /* \"my-hardhat-project/practice telegram module 1/Lesson15ResultsOfTheWeek.sol\":8464:8469  myVar */\n      dup1\n      0x00\n        /* \"my-hardhat-project/practice telegram module 1/Lesson15ResultsOfTheWeek.sol\":8464:8473  myVar +=1 */\n      dup3\n      dup3\n      sload\n      tag_286\n      swap2\n      swap1\n      tag_219\n      jump\t// in\n    tag_286:\n      swap3\n      pop\n      pop\n      dup2\n      swap1\n      sstore\n      pop\n        /* \"my-hardhat-project/practice telegram module 1/Lesson15ResultsOfTheWeek.sol\":8419:8481  function incrementNimber() public {... */\n      jump\t// out\n        /* \"my-hardhat-project/practice telegram module 1/Lesson15ResultsOfTheWeek.sol\":5915:6003  function getLengthArr() public  view returns (uint) {... */\n    tag_186:\n        /* \"my-hardhat-project/practice telegram module 1/Lesson15ResultsOfTheWeek.sol\":5961:5965  uint */\n      0x00\n        /* \"my-hardhat-project/practice telegram module 1/Lesson15ResultsOfTheWeek.sol\":5985:5988  arr */\n      0x0c\n        /* \"my-hardhat-project/practice telegram module 1/Lesson15ResultsOfTheWeek.sol\":5985:5995  arr.length */\n      dup1\n      sload\n      swap1\n      pop\n        /* \"my-hardhat-project/practice telegram module 1/Lesson15ResultsOfTheWeek.sol\":5978:5995  return arr.length */\n      swap1\n      pop\n        /* \"my-hardhat-project/practice telegram module 1/Lesson15ResultsOfTheWeek.sol\":5915:6003  function getLengthArr() public  view returns (uint) {... */\n      swap1\n      jump\t// out\n        /* \"my-hardhat-project/practice telegram module 1/Lesson15ResultsOfTheWeek.sol\":5346:5429  function getArr() public view returns (uint[] memory) {... */\n    tag_189:\n        /* \"my-hardhat-project/practice telegram module 1/Lesson15ResultsOfTheWeek.sol\":5385:5398  uint[] memory */\n      0x60\n        /* \"my-hardhat-project/practice telegram module 1/Lesson15ResultsOfTheWeek.sol\":5418:5421  arr */\n      0x0c\n        /* \"my-hardhat-project/practice telegram module 1/Lesson15ResultsOfTheWeek.sol\":5411:5421  return arr */\n      dup1\n      sload\n      dup1\n      0x20\n      mul\n      0x20\n      add\n      mload(0x40)\n      swap1\n      dup2\n      add\n      0x40\n      mstore\n      dup1\n      swap3\n      swap2\n      swap1\n      dup2\n      dup2\n      mstore\n      0x20\n      add\n      dup3\n      dup1\n      sload\n      dup1\n      iszero\n      tag_289\n      jumpi\n      0x20\n      mul\n      dup3\n      add\n      swap2\n      swap1\n      0x00\n      mstore\n      keccak256(0x00, 0x20)\n      swap1\n    tag_290:\n      dup2\n      sload\n      dup2\n      mstore\n      0x20\n      add\n      swap1\n      0x01\n      add\n      swap1\n      dup1\n      dup4\n      gt\n      tag_290\n      jumpi\n    tag_289:\n      pop\n      pop\n      pop\n      pop\n      pop\n      swap1\n      pop\n        /* \"my-hardhat-project/practice telegram module 1/Lesson15ResultsOfTheWeek.sol\":5346:5429  function getArr() public view returns (uint[] memory) {... */\n      swap1\n      jump\t// out\n        /* \"#utility.yul\":88:205   */\n    tag_292:\n        /* \"#utility.yul\":197:198   */\n      0x00\n        /* \"#utility.yul\":194:195   */\n      dup1\n        /* \"#utility.yul\":187:199   */\n      revert\n        /* \"#utility.yul\":334:424   */\n    tag_294:\n        /* \"#utility.yul\":368:375   */\n      0x00\n        /* \"#utility.yul\":411:416   */\n      dup2\n        /* \"#utility.yul\":404:417   */\n      iszero\n        /* \"#utility.yul\":397:418   */\n      iszero\n        /* \"#utility.yul\":386:418   */\n      swap1\n      pop\n        /* \"#utility.yul\":334:424   */\n      swap2\n      swap1\n      pop\n      jump\t// out\n        /* \"#utility.yul\":430:546   */\n    tag_295:\n        /* \"#utility.yul\":500:521   */\n      tag_335\n        /* \"#utility.yul\":515:520   */\n      dup2\n        /* \"#utility.yul\":500:521   */\n      tag_294\n      jump\t// in\n    tag_335:\n        /* \"#utility.yul\":493:498   */\n      dup2\n        /* \"#utility.yul\":490:522   */\n      eq\n        /* \"#utility.yul\":480:540   */\n      tag_336\n      jumpi\n        /* \"#utility.yul\":536:537   */\n      0x00\n        /* \"#utility.yul\":533:534   */\n      dup1\n        /* \"#utility.yul\":526:538   */\n      revert\n        /* \"#utility.yul\":480:540   */\n    tag_336:\n        /* \"#utility.yul\":430:546   */\n      pop\n      jump\t// out\n        /* \"#utility.yul\":552:685   */\n    tag_296:\n        /* \"#utility.yul\":595:600   */\n      0x00\n        /* \"#utility.yul\":633:639   */\n      dup2\n        /* \"#utility.yul\":620:640   */\n      calldataload\n        /* \"#utility.yul\":611:640   */\n      swap1\n      pop\n        /* \"#utility.yul\":649:679   */\n      tag_338\n        /* \"#utility.yul\":673:678   */\n      dup2\n        /* \"#utility.yul\":649:679   */\n      tag_295\n      jump\t// in\n    tag_338:\n        /* \"#utility.yul\":552:685   */\n      swap3\n      swap2\n      pop\n      pop\n      jump\t// out\n        /* \"#utility.yul\":691:1014   */\n    tag_53:\n        /* \"#utility.yul\":747:753   */\n      0x00\n        /* \"#utility.yul\":796:798   */\n      0x20\n        /* \"#utility.yul\":784:793   */\n      dup3\n        /* \"#utility.yul\":775:782   */\n      dup5\n        /* \"#utility.yul\":771:794   */\n      sub\n        /* \"#utility.yul\":767:799   */\n      slt\n        /* \"#utility.yul\":764:883   */\n      iszero\n      tag_340\n      jumpi\n        /* \"#utility.yul\":802:881   */\n      tag_341\n      tag_292\n      jump\t// in\n    tag_341:\n        /* \"#utility.yul\":764:883   */\n    tag_340:\n        /* \"#utility.yul\":922:923   */\n      0x00\n        /* \"#utility.yul\":947:997   */\n      tag_342\n        /* \"#utility.yul\":989:996   */\n      dup5\n        /* \"#utility.yul\":980:986   */\n      dup3\n        /* \"#utility.yul\":969:978   */\n      dup6\n        /* \"#utility.yul\":965:987   */\n      add\n        /* \"#utility.yul\":947:997   */\n      tag_296\n      jump\t// in\n    tag_342:\n        /* \"#utility.yul\":937:997   */\n      swap2\n      pop\n        /* \"#utility.yul\":893:1007   */\n      pop\n        /* \"#utility.yul\":691:1014   */\n      swap3\n      swap2\n      pop\n      pop\n      jump\t// out\n        /* \"#utility.yul\":1020:1129   */\n    tag_297:\n        /* \"#utility.yul\":1101:1122   */\n      tag_344\n        /* \"#utility.yul\":1116:1121   */\n      dup2\n        /* \"#utility.yul\":1101:1122   */\n      tag_294\n      jump\t// in\n    tag_344:\n        /* \"#utility.yul\":1096:1099   */\n      dup3\n        /* \"#utility.yul\":1089:1123   */\n      mstore\n        /* \"#utility.yul\":1020:1129   */\n      pop\n      pop\n      jump\t// out\n        /* \"#utility.yul\":1135:1345   */\n    tag_56:\n        /* \"#utility.yul\":1222:1226   */\n      0x00\n        /* \"#utility.yul\":1260:1262   */\n      0x20\n        /* \"#utility.yul\":1249:1258   */\n      dup3\n        /* \"#utility.yul\":1245:1263   */\n      add\n        /* \"#utility.yul\":1237:1263   */\n      swap1\n      pop\n        /* \"#utility.yul\":1273:1338   */\n      tag_346\n        /* \"#utility.yul\":1335:1336   */\n      0x00\n        /* \"#utility.yul\":1324:1333   */\n      dup4\n        /* \"#utility.yul\":1320:1337   */\n      add\n        /* \"#utility.yul\":1311:1317   */\n      dup5\n        /* \"#utility.yul\":1273:1338   */\n      tag_297\n      jump\t// in\n    tag_346:\n        /* \"#utility.yul\":1135:1345   */\n      swap3\n      swap2\n      pop\n      pop\n      jump\t// out\n        /* \"#utility.yul\":1351:1428   */\n    tag_298:\n        /* \"#utility.yul\":1388:1395   */\n      0x00\n        /* \"#utility.yul\":1417:1422   */\n      dup2\n        /* \"#utility.yul\":1406:1422   */\n      swap1\n      pop\n        /* \"#utility.yul\":1351:1428   */\n      swap2\n      swap1\n      pop\n      jump\t// out\n        /* \"#utility.yul\":1434:1556   */\n    tag_299:\n        /* \"#utility.yul\":1507:1531   */\n      tag_349\n        /* \"#utility.yul\":1525:1530   */\n      dup2\n        /* \"#utility.yul\":1507:1531   */\n      tag_298\n      jump\t// in\n    tag_349:\n        /* \"#utility.yul\":1500:1505   */\n      dup2\n        /* \"#utility.yul\":1497:1532   */\n      eq\n        /* \"#utility.yul\":1487:1550   */\n      tag_350\n      jumpi\n        /* \"#utility.yul\":1546:1547   */\n      0x00\n        /* \"#utility.yul\":1543:1544   */\n      dup1\n        /* \"#utility.yul\":1536:1548   */\n      revert\n        /* \"#utility.yul\":1487:1550   */\n    tag_350:\n        /* \"#utility.yul\":1434:1556   */\n      pop\n      jump\t// out\n        /* \"#utility.yul\":1562:1701   */\n    tag_300:\n        /* \"#utility.yul\":1608:1613   */\n      0x00\n        /* \"#utility.yul\":1646:1652   */\n      dup2\n        /* \"#utility.yul\":1633:1653   */\n      calldataload\n        /* \"#utility.yul\":1624:1653   */\n      swap1\n      pop\n        /* \"#utility.yul\":1662:1695   */\n      tag_352\n        /* \"#utility.yul\":1689:1694   */\n      dup2\n        /* \"#utility.yul\":1662:1695   */\n      tag_299\n      jump\t// in\n    tag_352:\n        /* \"#utility.yul\":1562:1701   */\n      swap3\n      swap2\n      pop\n      pop\n      jump\t// out\n        /* \"#utility.yul\":1707:2036   */\n    tag_61:\n        /* \"#utility.yul\":1766:1772   */\n      0x00\n        /* \"#utility.yul\":1815:1817   */\n      0x20\n        /* \"#utility.yul\":1803:1812   */\n      dup3\n        /* \"#utility.yul\":1794:1801   */\n      dup5\n        /* \"#utility.yul\":1790:1813   */\n      sub\n        /* \"#utility.yul\":1786:1818   */\n      slt\n        /* \"#utility.yul\":1783:1902   */\n      iszero\n      tag_354\n      jumpi\n        /* \"#utility.yul\":1821:1900   */\n      tag_355\n      tag_292\n      jump\t// in\n    tag_355:\n        /* \"#utility.yul\":1783:1902   */\n    tag_354:\n        /* \"#utility.yul\":1941:1942   */\n      0x00\n        /* \"#utility.yul\":1966:2019   */\n      tag_356\n        /* \"#utility.yul\":2011:2018   */\n      dup5\n        /* \"#utility.yul\":2002:2008   */\n      dup3\n        /* \"#utility.yul\":1991:2000   */\n      dup6\n        /* \"#utility.yul\":1987:2009   */\n      add\n        /* \"#utility.yul\":1966:2019   */\n      tag_300\n      jump\t// in\n    tag_356:\n        /* \"#utility.yul\":1956:2019   */\n      swap2\n      pop\n        /* \"#utility.yul\":1912:2029   */\n      pop\n        /* \"#utility.yul\":1707:2036   */\n      swap3\n      swap2\n      pop\n      pop\n      jump\t// out\n        /* \"#utility.yul\":2042:2222   */\n    tag_275:\n        /* \"#utility.yul\":2090:2167   */\n      0x4e487b7100000000000000000000000000000000000000000000000000000000\n        /* \"#utility.yul\":2087:2088   */\n      0x00\n        /* \"#utility.yul\":2080:2168   */\n      mstore\n        /* \"#utility.yul\":2187:2191   */\n      0x21\n        /* \"#utility.yul\":2184:2185   */\n      0x04\n        /* \"#utility.yul\":2177:2192   */\n      mstore\n        /* \"#utility.yul\":2211:2215   */\n      0x24\n        /* \"#utility.yul\":2208:2209   */\n      0x00\n        /* \"#utility.yul\":2201:2216   */\n      revert\n        /* \"#utility.yul\":2228:2341   */\n    tag_301:\n        /* \"#utility.yul\":2309:2310   */\n      0x05\n        /* \"#utility.yul\":2302:2307   */\n      dup2\n        /* \"#utility.yul\":2299:2311   */\n      lt\n        /* \"#utility.yul\":2289:2335   */\n      tag_359\n      jumpi\n        /* \"#utility.yul\":2315:2333   */\n      tag_360\n      tag_275\n      jump\t// in\n    tag_360:\n        /* \"#utility.yul\":2289:2335   */\n    tag_359:\n        /* \"#utility.yul\":2228:2341   */\n      pop\n      jump\t// out\n        /* \"#utility.yul\":2347:2474   */\n    tag_302:\n        /* \"#utility.yul\":2392:2399   */\n      0x00\n        /* \"#utility.yul\":2421:2426   */\n      dup2\n        /* \"#utility.yul\":2410:2426   */\n      swap1\n      pop\n        /* \"#utility.yul\":2427:2468   */\n      tag_362\n        /* \"#utility.yul\":2462:2467   */\n      dup3\n        /* \"#utility.yul\":2427:2468   */\n      tag_301\n      jump\t// in\n    tag_362:\n        /* \"#utility.yul\":2347:2474   */\n      swap2\n      swap1\n      pop\n      jump\t// out\n        /* \"#utility.yul\":2480:2607   */\n    tag_303:\n        /* \"#utility.yul\":2536:2545   */\n      0x00\n        /* \"#utility.yul\":2569:2601   */\n      tag_364\n        /* \"#utility.yul\":2595:2600   */\n      dup3\n        /* \"#utility.yul\":2569:2601   */\n      tag_302\n      jump\t// in\n    tag_364:\n        /* \"#utility.yul\":2556:2601   */\n      swap1\n      pop\n        /* \"#utility.yul\":2480:2607   */\n      swap2\n      swap1\n      pop\n      jump\t// out\n        /* \"#utility.yul\":2613:2756   */\n    tag_304:\n        /* \"#utility.yul\":2706:2749   */\n      tag_366\n        /* \"#utility.yul\":2743:2748   */\n      dup2\n        /* \"#utility.yul\":2706:2749   */\n      tag_303\n      jump\t// in\n    tag_366:\n        /* \"#utility.yul\":2701:2704   */\n      dup3\n        /* \"#utility.yul\":2694:2750   */\n      mstore\n        /* \"#utility.yul\":2613:2756   */\n      pop\n      pop\n      jump\t// out\n        /* \"#utility.yul\":2762:2996   */\n    tag_66:\n        /* \"#utility.yul\":2861:2865   */\n      0x00\n        /* \"#utility.yul\":2899:2901   */\n      0x20\n        /* \"#utility.yul\":2888:2897   */\n      dup3\n        /* \"#utility.yul\":2884:2902   */\n      add\n        /* \"#utility.yul\":2876:2902   */\n      swap1\n      pop\n        /* \"#utility.yul\":2912:2989   */\n      tag_368\n        /* \"#utility.yul\":2986:2987   */\n      0x00\n        /* \"#utility.yul\":2975:2984   */\n      dup4\n        /* \"#utility.yul\":2971:2988   */\n      add\n        /* \"#utility.yul\":2962:2968   */\n      dup5\n        /* \"#utility.yul\":2912:2989   */\n      tag_304\n      jump\t// in\n    tag_368:\n        /* \"#utility.yul\":2762:2996   */\n      swap3\n      swap2\n      pop\n      pop\n      jump\t// out\n        /* \"#utility.yul\":3002:3128   */\n    tag_305:\n        /* \"#utility.yul\":3039:3046   */\n      0x00\n        /* \"#utility.yul\":3079:3121   */\n      0xffffffffffffffffffffffffffffffffffffffff\n        /* \"#utility.yul\":3072:3077   */\n      dup3\n        /* \"#utility.yul\":3068:3122   */\n      and\n        /* \"#utility.yul\":3057:3122   */\n      swap1\n      pop\n        /* \"#utility.yul\":3002:3128   */\n      swap2\n      swap1\n      pop\n      jump\t// out\n        /* \"#utility.yul\":3134:3230   */\n    tag_306:\n        /* \"#utility.yul\":3171:3178   */\n      0x00\n        /* \"#utility.yul\":3200:3224   */\n      tag_371\n        /* \"#utility.yul\":3218:3223   */\n      dup3\n        /* \"#utility.yul\":3200:3224   */\n      tag_305\n      jump\t// in\n    tag_371:\n        /* \"#utility.yul\":3189:3224   */\n      swap1\n      pop\n        /* \"#utility.yul\":3134:3230   */\n      swap2\n      swap1\n      pop\n      jump\t// out\n        /* \"#utility.yul\":3236:3358   */\n    tag_307:\n        /* \"#utility.yul\":3309:3333   */\n      tag_373\n        /* \"#utility.yul\":3327:3332   */\n      dup2\n        /* \"#utility.yul\":3309:3333   */\n      tag_306\n      jump\t// in\n    tag_373:\n        /* \"#utility.yul\":3302:3307   */\n      dup2\n        /* \"#utility.yul\":3299:3334   */\n      eq\n        /* \"#utility.yul\":3289:3352   */\n      tag_374\n      jumpi\n        /* \"#utility.yul\":3348:3349   */\n      0x00\n        /* \"#utility.yul\":3345:3346   */\n      dup1\n        /* \"#utility.yul\":3338:3350   */\n      revert\n        /* \"#utility.yul\":3289:3352   */\n    tag_374:\n        /* \"#utility.yul\":3236:3358   */\n      pop\n      jump\t// out\n        /* \"#utility.yul\":3364:3503   */\n    tag_308:\n        /* \"#utility.yul\":3410:3415   */\n      0x00\n        /* \"#utility.yul\":3448:3454   */\n      dup2\n        /* \"#utility.yul\":3435:3455   */\n      calldataload\n        /* \"#utility.yul\":3426:3455   */\n      swap1\n      pop\n        /* \"#utility.yul\":3464:3497   */\n      tag_376\n        /* \"#utility.yul\":3491:3496   */\n      dup2\n        /* \"#utility.yul\":3464:3497   */\n      tag_307\n      jump\t// in\n    tag_376:\n        /* \"#utility.yul\":3364:3503   */\n      swap3\n      swap2\n      pop\n      pop\n      jump\t// out\n        /* \"#utility.yul\":3509:3983   */\n    tag_73:\n        /* \"#utility.yul\":3577:3583   */\n      0x00\n        /* \"#utility.yul\":3585:3591   */\n      dup1\n        /* \"#utility.yul\":3634:3636   */\n      0x40\n        /* \"#utility.yul\":3622:3631   */\n      dup4\n        /* \"#utility.yul\":3613:3620   */\n      dup6\n        /* \"#utility.yul\":3609:3632   */\n      sub\n        /* \"#utility.yul\":3605:3637   */\n      slt\n        /* \"#utility.yul\":3602:3721   */\n      iszero\n      tag_378\n      jumpi\n        /* \"#utility.yul\":3640:3719   */\n      tag_379\n      tag_292\n      jump\t// in\n    tag_379:\n        /* \"#utility.yul\":3602:3721   */\n    tag_378:\n        /* \"#utility.yul\":3760:3761   */\n      0x00\n        /* \"#utility.yul\":3785:3838   */\n      tag_380\n        /* \"#utility.yul\":3830:3837   */\n      dup6\n        /* \"#utility.yul\":3821:3827   */\n      dup3\n        /* \"#utility.yul\":3810:3819   */\n      dup7\n        /* \"#utility.yul\":3806:3828   */\n      add\n        /* \"#utility.yul\":3785:3838   */\n      tag_308\n      jump\t// in\n    tag_380:\n        /* \"#utility.yul\":3775:3838   */\n      swap3\n      pop\n        /* \"#utility.yul\":3731:3848   */\n      pop\n        /* \"#utility.yul\":3887:3889   */\n      0x20\n        /* \"#utility.yul\":3913:3966   */\n      tag_381\n        /* \"#utility.yul\":3958:3965   */\n      dup6\n        /* \"#utility.yul\":3949:3955   */\n      dup3\n        /* \"#utility.yul\":3938:3947   */\n      dup7\n        /* \"#utility.yul\":3934:3956   */\n      add\n        /* \"#utility.yul\":3913:3966   */\n      tag_300\n      jump\t// in\n    tag_381:\n        /* \"#utility.yul\":3903:3966   */\n      swap2\n      pop\n        /* \"#utility.yul\":3858:3976   */\n      pop\n        /* \"#utility.yul\":3509:3983   */\n      swap3\n      pop\n      swap3\n      swap1\n      pop\n      jump\t// out\n        /* \"#utility.yul\":3989:4107   */\n    tag_309:\n        /* \"#utility.yul\":4076:4100   */\n      tag_383\n        /* \"#utility.yul\":4094:4099   */\n      dup2\n        /* \"#utility.yul\":4076:4100   */\n      tag_298\n      jump\t// in\n    tag_383:\n        /* \"#utility.yul\":4071:4074   */\n      dup3\n        /* \"#utility.yul\":4064:4101   */\n      mstore\n        /* \"#utility.yul\":3989:4107   */\n      pop\n      pop\n      jump\t// out\n        /* \"#utility.yul\":4113:4335   */\n    tag_84:\n        /* \"#utility.yul\":4206:4210   */\n      0x00\n        /* \"#utility.yul\":4244:4246   */\n      0x20\n        /* \"#utility.yul\":4233:4242   */\n      dup3\n        /* \"#utility.yul\":4229:4247   */\n      add\n        /* \"#utility.yul\":4221:4247   */\n      swap1\n      pop\n        /* \"#utility.yul\":4257:4328   */\n      tag_385\n        /* \"#utility.yul\":4325:4326   */\n      0x00\n        /* \"#utility.yul\":4314:4323   */\n      dup4\n        /* \"#utility.yul\":4310:4327   */\n      add\n        /* \"#utility.yul\":4301:4307   */\n      dup5\n        /* \"#utility.yul\":4257:4328   */\n      tag_309\n      jump\t// in\n    tag_385:\n        /* \"#utility.yul\":4113:4335   */\n      swap3\n      swap2\n      pop\n      pop\n      jump\t// out\n        /* \"#utility.yul\":4341:4440   */\n    tag_310:\n        /* \"#utility.yul\":4393:4399   */\n      0x00\n        /* \"#utility.yul\":4427:4432   */\n      dup2\n        /* \"#utility.yul\":4421:4433   */\n      mload\n        /* \"#utility.yul\":4411:4433   */\n      swap1\n      pop\n        /* \"#utility.yul\":4341:4440   */\n      swap2\n      swap1\n      pop\n      jump\t// out\n        /* \"#utility.yul\":4446:4615   */\n    tag_311:\n        /* \"#utility.yul\":4530:4541   */\n      0x00\n        /* \"#utility.yul\":4564:4570   */\n      dup3\n        /* \"#utility.yul\":4559:4562   */\n      dup3\n        /* \"#utility.yul\":4552:4571   */\n      mstore\n        /* \"#utility.yul\":4604:4608   */\n      0x20\n        /* \"#utility.yul\":4599:4602   */\n      dup3\n        /* \"#utility.yul\":4595:4609   */\n      add\n        /* \"#utility.yul\":4580:4609   */\n      swap1\n      pop\n        /* \"#utility.yul\":4446:4615   */\n      swap3\n      swap2\n      pop\n      pop\n      jump\t// out\n        /* \"#utility.yul\":4621:4867   */\n    tag_312:\n        /* \"#utility.yul\":4702:4703   */\n      0x00\n        /* \"#utility.yul\":4712:4825   */\n    tag_389:\n        /* \"#utility.yul\":4726:4732   */\n      dup4\n        /* \"#utility.yul\":4723:4724   */\n      dup2\n        /* \"#utility.yul\":4720:4733   */\n      lt\n        /* \"#utility.yul\":4712:4825   */\n      iszero\n      tag_391\n      jumpi\n        /* \"#utility.yul\":4811:4812   */\n      dup1\n        /* \"#utility.yul\":4806:4809   */\n      dup3\n        /* \"#utility.yul\":4802:4813   */\n      add\n        /* \"#utility.yul\":4796:4814   */\n      mload\n        /* \"#utility.yul\":4792:4793   */\n      dup2\n        /* \"#utility.yul\":4787:4790   */\n      dup5\n        /* \"#utility.yul\":4783:4794   */\n      add\n        /* \"#utility.yul\":4776:4815   */\n      mstore\n        /* \"#utility.yul\":4748:4750   */\n      0x20\n        /* \"#utility.yul\":4745:4746   */\n      dup2\n        /* \"#utility.yul\":4741:4751   */\n      add\n        /* \"#utility.yul\":4736:4751   */\n      swap1\n      pop\n        /* \"#utility.yul\":4712:4825   */\n      jump(tag_389)\n    tag_391:\n        /* \"#utility.yul\":4859:4860   */\n      0x00\n        /* \"#utility.yul\":4850:4856   */\n      dup5\n        /* \"#utility.yul\":4845:4848   */\n      dup5\n        /* \"#utility.yul\":4841:4857   */\n      add\n        /* \"#utility.yul\":4834:4861   */\n      mstore\n        /* \"#utility.yul\":4683:4867   */\n      pop\n        /* \"#utility.yul\":4621:4867   */\n      pop\n      pop\n      pop\n      jump\t// out\n        /* \"#utility.yul\":4873:4975   */\n    tag_313:\n        /* \"#utility.yul\":4914:4920   */\n      0x00\n        /* \"#utility.yul\":4965:4967   */\n      0x1f\n        /* \"#utility.yul\":4961:4968   */\n      not\n        /* \"#utility.yul\":4956:4958   */\n      0x1f\n        /* \"#utility.yul\":4949:4954   */\n      dup4\n        /* \"#utility.yul\":4945:4959   */\n      add\n        /* \"#utility.yul\":4941:4969   */\n      and\n        /* \"#utility.yul\":4931:4969   */\n      swap1\n      pop\n        /* \"#utility.yul\":4873:4975   */\n      swap2\n      swap1\n      pop\n      jump\t// out\n        /* \"#utility.yul\":4981:5358   */\n    tag_314:\n        /* \"#utility.yul\":5069:5072   */\n      0x00\n        /* \"#utility.yul\":5097:5136   */\n      tag_394\n        /* \"#utility.yul\":5130:5135   */\n      dup3\n        /* \"#utility.yul\":5097:5136   */\n      tag_310\n      jump\t// in\n    tag_394:\n        /* \"#utility.yul\":5152:5223   */\n      tag_395\n        /* \"#utility.yul\":5216:5222   */\n      dup2\n        /* \"#utility.yul\":5211:5214   */\n      dup6\n        /* \"#utility.yul\":5152:5223   */\n      tag_311\n      jump\t// in\n    tag_395:\n        /* \"#utility.yul\":5145:5223   */\n      swap4\n      pop\n        /* \"#utility.yul\":5232:5297   */\n      tag_396\n        /* \"#utility.yul\":5290:5296   */\n      dup2\n        /* \"#utility.yul\":5285:5288   */\n      dup6\n        /* \"#utility.yul\":5278:5282   */\n      0x20\n        /* \"#utility.yul\":5271:5276   */\n      dup7\n        /* \"#utility.yul\":5267:5283   */\n      add\n        /* \"#utility.yul\":5232:5297   */\n      tag_312\n      jump\t// in\n    tag_396:\n        /* \"#utility.yul\":5322:5351   */\n      tag_397\n        /* \"#utility.yul\":5344:5350   */\n      dup2\n        /* \"#utility.yul\":5322:5351   */\n      tag_313\n      jump\t// in\n    tag_397:\n        /* \"#utility.yul\":5317:5320   */\n      dup5\n        /* \"#utility.yul\":5313:5352   */\n      add\n        /* \"#utility.yul\":5306:5352   */\n      swap2\n      pop\n        /* \"#utility.yul\":5073:5358   */\n      pop\n        /* \"#utility.yul\":4981:5358   */\n      swap3\n      swap2\n      pop\n      pop\n      jump\t// out\n        /* \"#utility.yul\":5364:5677   */\n    tag_98:\n        /* \"#utility.yul\":5477:5481   */\n      0x00\n        /* \"#utility.yul\":5515:5517   */\n      0x20\n        /* \"#utility.yul\":5504:5513   */\n      dup3\n        /* \"#utility.yul\":5500:5518   */\n      add\n        /* \"#utility.yul\":5492:5518   */\n      swap1\n      pop\n        /* \"#utility.yul\":5564:5573   */\n      dup2\n        /* \"#utility.yul\":5558:5562   */\n      dup2\n        /* \"#utility.yul\":5554:5574   */\n      sub\n        /* \"#utility.yul\":5550:5551   */\n      0x00\n        /* \"#utility.yul\":5539:5548   */\n      dup4\n        /* \"#utility.yul\":5535:5552   */\n      add\n        /* \"#utility.yul\":5528:5575   */\n      mstore\n        /* \"#utility.yul\":5592:5670   */\n      tag_399\n        /* \"#utility.yul\":5665:5669   */\n      dup2\n        /* \"#utility.yul\":5656:5662   */\n      dup5\n        /* \"#utility.yul\":5592:5670   */\n      tag_314\n      jump\t// in\n    tag_399:\n        /* \"#utility.yul\":5584:5670   */\n      swap1\n      pop\n        /* \"#utility.yul\":5364:5677   */\n      swap3\n      swap2\n      pop\n      pop\n      jump\t// out\n        /* \"#utility.yul\":5683:6296   */\n    tag_104:\n        /* \"#utility.yul\":5757:5763   */\n      0x00\n        /* \"#utility.yul\":5765:5771   */\n      dup1\n        /* \"#utility.yul\":5773:5779   */\n      0x00\n        /* \"#utility.yul\":5822:5824   */\n      0x60\n        /* \"#utility.yul\":5810:5819   */\n      dup5\n        /* \"#utility.yul\":5801:5808   */\n      dup7\n        /* \"#utility.yul\":5797:5820   */\n      sub\n        /* \"#utility.yul\":5793:5825   */\n      slt\n        /* \"#utility.yul\":5790:5909   */\n      iszero\n      tag_401\n      jumpi\n        /* \"#utility.yul\":5828:5907   */\n      tag_402\n      tag_292\n      jump\t// in\n    tag_402:\n        /* \"#utility.yul\":5790:5909   */\n    tag_401:\n        /* \"#utility.yul\":5948:5949   */\n      0x00\n        /* \"#utility.yul\":5973:6026   */\n      tag_403\n        /* \"#utility.yul\":6018:6025   */\n      dup7\n        /* \"#utility.yul\":6009:6015   */\n      dup3\n        /* \"#utility.yul\":5998:6007   */\n      dup8\n        /* \"#utility.yul\":5994:6016   */\n      add\n        /* \"#utility.yul\":5973:6026   */\n      tag_308\n      jump\t// in\n    tag_403:\n        /* \"#utility.yul\":5963:6026   */\n      swap4\n      pop\n        /* \"#utility.yul\":5919:6036   */\n      pop\n        /* \"#utility.yul\":6075:6077   */\n      0x20\n        /* \"#utility.yul\":6101:6154   */\n      tag_404\n        /* \"#utility.yul\":6146:6153   */\n      dup7\n        /* \"#utility.yul\":6137:6143   */\n      dup3\n        /* \"#utility.yul\":6126:6135   */\n      dup8\n        /* \"#utility.yul\":6122:6144   */\n      add\n        /* \"#utility.yul\":6101:6154   */\n      tag_300\n      jump\t// in\n    tag_404:\n        /* \"#utility.yul\":6091:6154   */\n      swap3\n      pop\n        /* \"#utility.yul\":6046:6164   */\n      pop\n        /* \"#utility.yul\":6203:6205   */\n      0x40\n        /* \"#utility.yul\":6229:6279   */\n      tag_405\n        /* \"#utility.yul\":6271:6278   */\n      dup7\n        /* \"#utility.yul\":6262:6268   */\n      dup3\n        /* \"#utility.yul\":6251:6260   */\n      dup8\n        /* \"#utility.yul\":6247:6269   */\n      add\n        /* \"#utility.yul\":6229:6279   */\n      tag_296\n      jump\t// in\n    tag_405:\n        /* \"#utility.yul\":6219:6279   */\n      swap2\n      pop\n        /* \"#utility.yul\":6174:6289   */\n      pop\n        /* \"#utility.yul\":5683:6296   */\n      swap3\n      pop\n      swap3\n      pop\n      swap3\n      jump\t// out\n        /* \"#utility.yul\":6302:6776   */\n    tag_118:\n        /* \"#utility.yul\":6370:6376   */\n      0x00\n        /* \"#utility.yul\":6378:6384   */\n      dup1\n        /* \"#utility.yul\":6427:6429   */\n      0x40\n        /* \"#utility.yul\":6415:6424   */\n      dup4\n        /* \"#utility.yul\":6406:6413   */\n      dup6\n        /* \"#utility.yul\":6402:6425   */\n      sub\n        /* \"#utility.yul\":6398:6430   */\n      slt\n        /* \"#utility.yul\":6395:6514   */\n      iszero\n      tag_407\n      jumpi\n        /* \"#utility.yul\":6433:6512   */\n      tag_408\n      tag_292\n      jump\t// in\n    tag_408:\n        /* \"#utility.yul\":6395:6514   */\n    tag_407:\n        /* \"#utility.yul\":6553:6554   */\n      0x00\n        /* \"#utility.yul\":6578:6631   */\n      tag_409\n        /* \"#utility.yul\":6623:6630   */\n      dup6\n        /* \"#utility.yul\":6614:6620   */\n      dup3\n        /* \"#utility.yul\":6603:6612   */\n      dup7\n        /* \"#utility.yul\":6599:6621   */\n      add\n        /* \"#utility.yul\":6578:6631   */\n      tag_300\n      jump\t// in\n    tag_409:\n        /* \"#utility.yul\":6568:6631   */\n      swap3\n      pop\n        /* \"#utility.yul\":6524:6641   */\n      pop\n        /* \"#utility.yul\":6680:6682   */\n      0x20\n        /* \"#utility.yul\":6706:6759   */\n      tag_410\n        /* \"#utility.yul\":6751:6758   */\n      dup6\n        /* \"#utility.yul\":6742:6748   */\n      dup3\n        /* \"#utility.yul\":6731:6740   */\n      dup7\n        /* \"#utility.yul\":6727:6749   */\n      add\n        /* \"#utility.yul\":6706:6759   */\n      tag_308\n      jump\t// in\n    tag_410:\n        /* \"#utility.yul\":6696:6759   */\n      swap2\n      pop\n        /* \"#utility.yul\":6651:6769   */\n      pop\n        /* \"#utility.yul\":6302:6776   */\n      swap3\n      pop\n      swap3\n      swap1\n      pop\n      jump\t// out\n        /* \"#utility.yul\":6782:7111   */\n    tag_129:\n        /* \"#utility.yul\":6841:6847   */\n      0x00\n        /* \"#utility.yul\":6890:6892   */\n      0x20\n        /* \"#utility.yul\":6878:6887   */\n      dup3\n        /* \"#utility.yul\":6869:6876   */\n      dup5\n        /* \"#utility.yul\":6865:6888   */\n      sub\n        /* \"#utility.yul\":6861:6893   */\n      slt\n        /* \"#utility.yul\":6858:6977   */\n      iszero\n      tag_412\n      jumpi\n        /* \"#utility.yul\":6896:6975   */\n      tag_413\n      tag_292\n      jump\t// in\n    tag_413:\n        /* \"#utility.yul\":6858:6977   */\n    tag_412:\n        /* \"#utility.yul\":7016:7017   */\n      0x00\n        /* \"#utility.yul\":7041:7094   */\n      tag_414\n        /* \"#utility.yul\":7086:7093   */\n      dup5\n        /* \"#utility.yul\":7077:7083   */\n      dup3\n        /* \"#utility.yul\":7066:7075   */\n      dup6\n        /* \"#utility.yul\":7062:7084   */\n      add\n        /* \"#utility.yul\":7041:7094   */\n      tag_308\n      jump\t// in\n    tag_414:\n        /* \"#utility.yul\":7031:7094   */\n      swap2\n      pop\n        /* \"#utility.yul\":6987:7104   */\n      pop\n        /* \"#utility.yul\":6782:7111   */\n      swap3\n      swap2\n      pop\n      pop\n      jump\t// out\n        /* \"#utility.yul\":7117:7235   */\n    tag_315:\n        /* \"#utility.yul\":7204:7228   */\n      tag_416\n        /* \"#utility.yul\":7222:7227   */\n      dup2\n        /* \"#utility.yul\":7204:7228   */\n      tag_306\n      jump\t// in\n    tag_416:\n        /* \"#utility.yul\":7199:7202   */\n      dup3\n        /* \"#utility.yul\":7192:7229   */\n      mstore\n        /* \"#utility.yul\":7117:7235   */\n      pop\n      pop\n      jump\t// out\n        /* \"#utility.yul\":7241:7463   */\n    tag_162:\n        /* \"#utility.yul\":7334:7338   */\n      0x00\n        /* \"#utility.yul\":7372:7374   */\n      0x20\n        /* \"#utility.yul\":7361:7370   */\n      dup3\n        /* \"#utility.yul\":7357:7375   */\n      add\n        /* \"#utility.yul\":7349:7375   */\n      swap1\n      pop\n        /* \"#utility.yul\":7385:7456   */\n      tag_418\n        /* \"#utility.yul\":7453:7454   */\n      0x00\n        /* \"#utility.yul\":7442:7451   */\n      dup4\n        /* \"#utility.yul\":7438:7455   */\n      add\n        /* \"#utility.yul\":7429:7435   */\n      dup5\n        /* \"#utility.yul\":7385:7456   */\n      tag_315\n      jump\t// in\n    tag_418:\n        /* \"#utility.yul\":7241:7463   */\n      swap3\n      swap2\n      pop\n      pop\n      jump\t// out\n        /* \"#utility.yul\":7469:7576   */\n    tag_316:\n        /* \"#utility.yul\":7550:7551   */\n      0x05\n        /* \"#utility.yul\":7543:7548   */\n      dup2\n        /* \"#utility.yul\":7540:7552   */\n      lt\n        /* \"#utility.yul\":7530:7570   */\n      tag_420\n      jumpi\n        /* \"#utility.yul\":7566:7567   */\n      0x00\n        /* \"#utility.yul\":7563:7564   */\n      dup1\n        /* \"#utility.yul\":7556:7568   */\n      revert\n        /* \"#utility.yul\":7530:7570   */\n    tag_420:\n        /* \"#utility.yul\":7469:7576   */\n      pop\n      jump\t// out\n        /* \"#utility.yul\":7582:7737   */\n    tag_317:\n        /* \"#utility.yul\":7636:7641   */\n      0x00\n        /* \"#utility.yul\":7674:7680   */\n      dup2\n        /* \"#utility.yul\":7661:7681   */\n      calldataload\n        /* \"#utility.yul\":7652:7681   */\n      swap1\n      pop\n        /* \"#utility.yul\":7690:7731   */\n      tag_422\n        /* \"#utility.yul\":7725:7730   */\n      dup2\n        /* \"#utility.yul\":7690:7731   */\n      tag_316\n      jump\t// in\n    tag_422:\n        /* \"#utility.yul\":7582:7737   */\n      swap3\n      swap2\n      pop\n      pop\n      jump\t// out\n        /* \"#utility.yul\":7743:8088   */\n    tag_170:\n        /* \"#utility.yul\":7810:7816   */\n      0x00\n        /* \"#utility.yul\":7859:7861   */\n      0x20\n        /* \"#utility.yul\":7847:7856   */\n      dup3\n        /* \"#utility.yul\":7838:7845   */\n      dup5\n        /* \"#utility.yul\":7834:7857   */\n      sub\n        /* \"#utility.yul\":7830:7862   */\n      slt\n        /* \"#utility.yul\":7827:7946   */\n      iszero\n      tag_424\n      jumpi\n        /* \"#utility.yul\":7865:7944   */\n      tag_425\n      tag_292\n      jump\t// in\n    tag_425:\n        /* \"#utility.yul\":7827:7946   */\n    tag_424:\n        /* \"#utility.yul\":7985:7986   */\n      0x00\n        /* \"#utility.yul\":8010:8071   */\n      tag_426\n        /* \"#utility.yul\":8063:8070   */\n      dup5\n        /* \"#utility.yul\":8054:8060   */\n      dup3\n        /* \"#utility.yul\":8043:8052   */\n      dup6\n        /* \"#utility.yul\":8039:8061   */\n      add\n        /* \"#utility.yul\":8010:8071   */\n      tag_317\n      jump\t// in\n    tag_426:\n        /* \"#utility.yul\":8000:8071   */\n      swap2\n      pop\n        /* \"#utility.yul\":7956:8081   */\n      pop\n        /* \"#utility.yul\":7743:8088   */\n      swap3\n      swap2\n      pop\n      pop\n      jump\t// out\n        /* \"#utility.yul\":8094:8208   */\n    tag_318:\n        /* \"#utility.yul\":8161:8167   */\n      0x00\n        /* \"#utility.yul\":8195:8200   */\n      dup2\n        /* \"#utility.yul\":8189:8201   */\n      mload\n        /* \"#utility.yul\":8179:8201   */\n      swap1\n      pop\n        /* \"#utility.yul\":8094:8208   */\n      swap2\n      swap1\n      pop\n      jump\t// out\n        /* \"#utility.yul\":8214:8398   */\n    tag_319:\n        /* \"#utility.yul\":8313:8324   */\n      0x00\n        /* \"#utility.yul\":8347:8353   */\n      dup3\n        /* \"#utility.yul\":8342:8345   */\n      dup3\n        /* \"#utility.yul\":8335:8354   */\n      mstore\n        /* \"#utility.yul\":8387:8391   */\n      0x20\n        /* \"#utility.yul\":8382:8385   */\n      dup3\n        /* \"#utility.yul\":8378:8392   */\n      add\n        /* \"#utility.yul\":8363:8392   */\n      swap1\n      pop\n        /* \"#utility.yul\":8214:8398   */\n      swap3\n      swap2\n      pop\n      pop\n      jump\t// out\n        /* \"#utility.yul\":8404:8536   */\n    tag_320:\n        /* \"#utility.yul\":8471:8475   */\n      0x00\n        /* \"#utility.yul\":8494:8497   */\n      dup2\n        /* \"#utility.yul\":8486:8497   */\n      swap1\n      pop\n        /* \"#utility.yul\":8524:8528   */\n      0x20\n        /* \"#utility.yul\":8519:8522   */\n      dup3\n        /* \"#utility.yul\":8515:8529   */\n      add\n        /* \"#utility.yul\":8507:8529   */\n      swap1\n      pop\n        /* \"#utility.yul\":8404:8536   */\n      swap2\n      swap1\n      pop\n      jump\t// out\n        /* \"#utility.yul\":8542:8650   */\n    tag_321:\n        /* \"#utility.yul\":8619:8643   */\n      tag_431\n        /* \"#utility.yul\":8637:8642   */\n      dup2\n        /* \"#utility.yul\":8619:8643   */\n      tag_298\n      jump\t// in\n    tag_431:\n        /* \"#utility.yul\":8614:8617   */\n      dup3\n        /* \"#utility.yul\":8607:8644   */\n      mstore\n        /* \"#utility.yul\":8542:8650   */\n      pop\n      pop\n      jump\t// out\n        /* \"#utility.yul\":8656:8835   */\n    tag_322:\n        /* \"#utility.yul\":8725:8735   */\n      0x00\n        /* \"#utility.yul\":8746:8792   */\n      tag_433\n        /* \"#utility.yul\":8788:8791   */\n      dup4\n        /* \"#utility.yul\":8780:8786   */\n      dup4\n        /* \"#utility.yul\":8746:8792   */\n      tag_321\n      jump\t// in\n    tag_433:\n        /* \"#utility.yul\":8824:8828   */\n      0x20\n        /* \"#utility.yul\":8819:8822   */\n      dup4\n        /* \"#utility.yul\":8815:8829   */\n      add\n        /* \"#utility.yul\":8801:8829   */\n      swap1\n      pop\n        /* \"#utility.yul\":8656:8835   */\n      swap3\n      swap2\n      pop\n      pop\n      jump\t// out\n        /* \"#utility.yul\":8841:8954   */\n    tag_323:\n        /* \"#utility.yul\":8911:8915   */\n      0x00\n        /* \"#utility.yul\":8943:8947   */\n      0x20\n        /* \"#utility.yul\":8938:8941   */\n      dup3\n        /* \"#utility.yul\":8934:8948   */\n      add\n        /* \"#utility.yul\":8926:8948   */\n      swap1\n      pop\n        /* \"#utility.yul\":8841:8954   */\n      swap2\n      swap1\n      pop\n      jump\t// out\n        /* \"#utility.yul\":8990:9722   */\n    tag_324:\n        /* \"#utility.yul\":9109:9112   */\n      0x00\n        /* \"#utility.yul\":9138:9192   */\n      tag_436\n        /* \"#utility.yul\":9186:9191   */\n      dup3\n        /* \"#utility.yul\":9138:9192   */\n      tag_318\n      jump\t// in\n    tag_436:\n        /* \"#utility.yul\":9208:9294   */\n      tag_437\n        /* \"#utility.yul\":9287:9293   */\n      dup2\n        /* \"#utility.yul\":9282:9285   */\n      dup6\n        /* \"#utility.yul\":9208:9294   */\n      tag_319\n      jump\t// in\n    tag_437:\n        /* \"#utility.yul\":9201:9294   */\n      swap4\n      pop\n        /* \"#utility.yul\":9318:9374   */\n      tag_438\n        /* \"#utility.yul\":9368:9373   */\n      dup4\n        /* \"#utility.yul\":9318:9374   */\n      tag_320\n      jump\t// in\n    tag_438:\n        /* \"#utility.yul\":9397:9404   */\n      dup1\n        /* \"#utility.yul\":9428:9429   */\n      0x00\n        /* \"#utility.yul\":9413:9697   */\n    tag_439:\n        /* \"#utility.yul\":9438:9444   */\n      dup4\n        /* \"#utility.yul\":9435:9436   */\n      dup2\n        /* \"#utility.yul\":9432:9445   */\n      lt\n        /* \"#utility.yul\":9413:9697   */\n      iszero\n      tag_441\n      jumpi\n        /* \"#utility.yul\":9514:9520   */\n      dup2\n        /* \"#utility.yul\":9508:9521   */\n      mload\n        /* \"#utility.yul\":9541:9604   */\n      tag_442\n        /* \"#utility.yul\":9600:9603   */\n      dup9\n        /* \"#utility.yul\":9585:9598   */\n      dup3\n        /* \"#utility.yul\":9541:9604   */\n      tag_322\n      jump\t// in\n    tag_442:\n        /* \"#utility.yul\":9534:9604   */\n      swap8\n      pop\n        /* \"#utility.yul\":9627:9687   */\n      tag_443\n        /* \"#utility.yul\":9680:9686   */\n      dup4\n        /* \"#utility.yul\":9627:9687   */\n      tag_323\n      jump\t// in\n    tag_443:\n        /* \"#utility.yul\":9617:9687   */\n      swap3\n      pop\n        /* \"#utility.yul\":9473:9697   */\n      pop\n        /* \"#utility.yul\":9460:9461   */\n      0x01\n        /* \"#utility.yul\":9457:9458   */\n      dup2\n        /* \"#utility.yul\":9453:9462   */\n      add\n        /* \"#utility.yul\":9448:9462   */\n      swap1\n      pop\n        /* \"#utility.yul\":9413:9697   */\n      jump(tag_439)\n    tag_441:\n        /* \"#utility.yul\":9417:9431   */\n      pop\n        /* \"#utility.yul\":9713:9716   */\n      dup6\n        /* \"#utility.yul\":9706:9716   */\n      swap4\n      pop\n        /* \"#utility.yul\":9114:9722   */\n      pop\n      pop\n      pop\n        /* \"#utility.yul\":8990:9722   */\n      swap3\n      swap2\n      pop\n      pop\n      jump\t// out\n        /* \"#utility.yul\":9728:10101   */\n    tag_191:\n        /* \"#utility.yul\":9871:9875   */\n      0x00\n        /* \"#utility.yul\":9909:9911   */\n      0x20\n        /* \"#utility.yul\":9898:9907   */\n      dup3\n        /* \"#utility.yul\":9894:9912   */\n      add\n        /* \"#utility.yul\":9886:9912   */\n      swap1\n      pop\n        /* \"#utility.yul\":9958:9967   */\n      dup2\n        /* \"#utility.yul\":9952:9956   */\n      dup2\n        /* \"#utility.yul\":9948:9968   */\n      sub\n        /* \"#utility.yul\":9944:9945   */\n      0x00\n        /* \"#utility.yul\":9933:9942   */\n      dup4\n        /* \"#utility.yul\":9929:9946   */\n      add\n        /* \"#utility.yul\":9922:9969   */\n      mstore\n        /* \"#utility.yul\":9986:10094   */\n      tag_445\n        /* \"#utility.yul\":10089:10093   */\n      dup2\n        /* \"#utility.yul\":10080:10086   */\n      dup5\n        /* \"#utility.yul\":9986:10094   */\n      tag_324\n      jump\t// in\n    tag_445:\n        /* \"#utility.yul\":9978:10094   */\n      swap1\n      pop\n        /* \"#utility.yul\":9728:10101   */\n      swap3\n      swap2\n      pop\n      pop\n      jump\t// out\n        /* \"#utility.yul\":10107:10287   */\n    tag_198:\n        /* \"#utility.yul\":10155:10232   */\n      0x4e487b7100000000000000000000000000000000000000000000000000000000\n        /* \"#utility.yul\":10152:10153   */\n      0x00\n        /* \"#utility.yul\":10145:10233   */\n      mstore\n        /* \"#utility.yul\":10252:10256   */\n      0x31\n        /* \"#utility.yul\":10249:10250   */\n      0x04\n        /* \"#utility.yul\":10242:10257   */\n      mstore\n        /* \"#utility.yul\":10276:10280   */\n      0x24\n        /* \"#utility.yul\":10273:10274   */\n      0x00\n        /* \"#utility.yul\":10266:10281   */\n      revert\n        /* \"#utility.yul\":10293:10473   */\n    tag_203:\n        /* \"#utility.yul\":10341:10418   */\n      0x4e487b7100000000000000000000000000000000000000000000000000000000\n        /* \"#utility.yul\":10338:10339   */\n      0x00\n        /* \"#utility.yul\":10331:10419   */\n      mstore\n        /* \"#utility.yul\":10438:10442   */\n      0x32\n        /* \"#utility.yul\":10435:10436   */\n      0x04\n        /* \"#utility.yul\":10428:10443   */\n      mstore\n        /* \"#utility.yul\":10462:10466   */\n      0x24\n        /* \"#utility.yul\":10459:10460   */\n      0x00\n        /* \"#utility.yul\":10452:10467   */\n      revert\n        /* \"#utility.yul\":10479:10659   */\n    tag_213:\n        /* \"#utility.yul\":10527:10604   */\n      0x4e487b7100000000000000000000000000000000000000000000000000000000\n        /* \"#utility.yul\":10524:10525   */\n      0x00\n        /* \"#utility.yul\":10517:10605   */\n      mstore\n        /* \"#utility.yul\":10624:10628   */\n      0x01\n        /* \"#utility.yul\":10621:10622   */\n      0x04\n        /* \"#utility.yul\":10614:10629   */\n      mstore\n        /* \"#utility.yul\":10648:10652   */\n      0x24\n        /* \"#utility.yul\":10645:10646   */\n      0x00\n        /* \"#utility.yul\":10638:10653   */\n      revert\n        /* \"#utility.yul\":10665:10845   */\n    tag_325:\n        /* \"#utility.yul\":10713:10790   */\n      0x4e487b7100000000000000000000000000000000000000000000000000000000\n        /* \"#utility.yul\":10710:10711   */\n      0x00\n        /* \"#utility.yul\":10703:10791   */\n      mstore\n        /* \"#utility.yul\":10810:10814   */\n      0x11\n        /* \"#utility.yul\":10807:10808   */\n      0x04\n        /* \"#utility.yul\":10800:10815   */\n      mstore\n        /* \"#utility.yul\":10834:10838   */\n      0x24\n        /* \"#utility.yul\":10831:10832   */\n      0x00\n        /* \"#utility.yul\":10824:10839   */\n      revert\n        /* \"#utility.yul\":10851:11042   */\n    tag_219:\n        /* \"#utility.yul\":10891:10894   */\n      0x00\n        /* \"#utility.yul\":10910:10930   */\n      tag_451\n        /* \"#utility.yul\":10928:10929   */\n      dup3\n        /* \"#utility.yul\":10910:10930   */\n      tag_298\n      jump\t// in\n    tag_451:\n        /* \"#utility.yul\":10905:10930   */\n      swap2\n      pop\n        /* \"#utility.yul\":10944:10964   */\n      tag_452\n        /* \"#utility.yul\":10962:10963   */\n      dup4\n        /* \"#utility.yul\":10944:10964   */\n      tag_298\n      jump\t// in\n    tag_452:\n        /* \"#utility.yul\":10939:10964   */\n      swap3\n      pop\n        /* \"#utility.yul\":10987:10988   */\n      dup3\n        /* \"#utility.yul\":10984:10985   */\n      dup3\n        /* \"#utility.yul\":10980:10989   */\n      add\n        /* \"#utility.yul\":10973:10989   */\n      swap1\n      pop\n        /* \"#utility.yul\":11008:11011   */\n      dup1\n        /* \"#utility.yul\":11005:11006   */\n      dup3\n        /* \"#utility.yul\":11002:11012   */\n      gt\n        /* \"#utility.yul\":10999:11035   */\n      iszero\n      tag_453\n      jumpi\n        /* \"#utility.yul\":11015:11033   */\n      tag_454\n      tag_325\n      jump\t// in\n    tag_454:\n        /* \"#utility.yul\":10999:11035   */\n    tag_453:\n        /* \"#utility.yul\":10851:11042   */\n      swap3\n      swap2\n      pop\n      pop\n      jump\t// out\n        /* \"#utility.yul\":11048:11458   */\n    tag_221:\n        /* \"#utility.yul\":11088:11095   */\n      0x00\n        /* \"#utility.yul\":11111:11131   */\n      tag_456\n        /* \"#utility.yul\":11129:11130   */\n      dup3\n        /* \"#utility.yul\":11111:11131   */\n      tag_298\n      jump\t// in\n    tag_456:\n        /* \"#utility.yul\":11106:11131   */\n      swap2\n      pop\n        /* \"#utility.yul\":11145:11165   */\n      tag_457\n        /* \"#utility.yul\":11163:11164   */\n      dup4\n        /* \"#utility.yul\":11145:11165   */\n      tag_298\n      jump\t// in\n    tag_457:\n        /* \"#utility.yul\":11140:11165   */\n      swap3\n      pop\n        /* \"#utility.yul\":11200:11201   */\n      dup3\n        /* \"#utility.yul\":11197:11198   */\n      dup3\n        /* \"#utility.yul\":11193:11202   */\n      mul\n        /* \"#utility.yul\":11222:11252   */\n      tag_458\n        /* \"#utility.yul\":11240:11251   */\n      dup2\n        /* \"#utility.yul\":11222:11252   */\n      tag_298\n      jump\t// in\n    tag_458:\n        /* \"#utility.yul\":11211:11252   */\n      swap2\n      pop\n        /* \"#utility.yul\":11401:11402   */\n      dup3\n        /* \"#utility.yul\":11392:11399   */\n      dup3\n        /* \"#utility.yul\":11388:11403   */\n      div\n        /* \"#utility.yul\":11385:11386   */\n      dup5\n        /* \"#utility.yul\":11382:11404   */\n      eq\n        /* \"#utility.yul\":11362:11363   */\n      dup4\n        /* \"#utility.yul\":11355:11364   */\n      iszero\n        /* \"#utility.yul\":11335:11418   */\n      or\n        /* \"#utility.yul\":11312:11451   */\n      tag_459\n      jumpi\n        /* \"#utility.yul\":11431:11449   */\n      tag_460\n      tag_325\n      jump\t// in\n    tag_460:\n        /* \"#utility.yul\":11312:11451   */\n    tag_459:\n        /* \"#utility.yul\":11096:11458   */\n      pop\n        /* \"#utility.yul\":11048:11458   */\n      swap3\n      swap2\n      pop\n      pop\n      jump\t// out\n        /* \"#utility.yul\":11464:11644   */\n    tag_326:\n        /* \"#utility.yul\":11512:11589   */\n      0x4e487b7100000000000000000000000000000000000000000000000000000000\n        /* \"#utility.yul\":11509:11510   */\n      0x00\n        /* \"#utility.yul\":11502:11590   */\n      mstore\n        /* \"#utility.yul\":11609:11613   */\n      0x22\n        /* \"#utility.yul\":11606:11607   */\n      0x04\n        /* \"#utility.yul\":11599:11614   */\n      mstore\n        /* \"#utility.yul\":11633:11637   */\n      0x24\n        /* \"#utility.yul\":11630:11631   */\n      0x00\n        /* \"#utility.yul\":11623:11638   */\n      revert\n        /* \"#utility.yul\":11650:11970   */\n    tag_227:\n        /* \"#utility.yul\":11694:11700   */\n      0x00\n        /* \"#utility.yul\":11731:11732   */\n      0x02\n        /* \"#utility.yul\":11725:11729   */\n      dup3\n        /* \"#utility.yul\":11721:11733   */\n      div\n        /* \"#utility.yul\":11711:11733   */\n      swap1\n      pop\n        /* \"#utility.yul\":11778:11779   */\n      0x01\n        /* \"#utility.yul\":11772:11776   */\n      dup3\n        /* \"#utility.yul\":11768:11780   */\n      and\n        /* \"#utility.yul\":11799:11817   */\n      dup1\n        /* \"#utility.yul\":11789:11870   */\n      tag_463\n      jumpi\n        /* \"#utility.yul\":11855:11859   */\n      0x7f\n        /* \"#utility.yul\":11847:11853   */\n      dup3\n        /* \"#utility.yul\":11843:11860   */\n      and\n        /* \"#utility.yul\":11833:11860   */\n      swap2\n      pop\n        /* \"#utility.yul\":11789:11870   */\n    tag_463:\n        /* \"#utility.yul\":11917:11919   */\n      0x20\n        /* \"#utility.yul\":11909:11915   */\n      dup3\n        /* \"#utility.yul\":11906:11920   */\n      lt\n        /* \"#utility.yul\":11886:11904   */\n      dup2\n        /* \"#utility.yul\":11883:11921   */\n      sub\n        /* \"#utility.yul\":11880:11964   */\n      tag_464\n      jumpi\n        /* \"#utility.yul\":11936:11954   */\n      tag_465\n      tag_326\n      jump\t// in\n    tag_465:\n        /* \"#utility.yul\":11880:11964   */\n    tag_464:\n        /* \"#utility.yul\":11701:11970   */\n      pop\n        /* \"#utility.yul\":11650:11970   */\n      swap2\n      swap1\n      pop\n      jump\t// out\n        /* \"#utility.yul\":11976:12308   */\n    tag_238:\n        /* \"#utility.yul\":12097:12101   */\n      0x00\n        /* \"#utility.yul\":12135:12137   */\n      0x40\n        /* \"#utility.yul\":12124:12133   */\n      dup3\n        /* \"#utility.yul\":12120:12138   */\n      add\n        /* \"#utility.yul\":12112:12138   */\n      swap1\n      pop\n        /* \"#utility.yul\":12148:12219   */\n      tag_467\n        /* \"#utility.yul\":12216:12217   */\n      0x00\n        /* \"#utility.yul\":12205:12214   */\n      dup4\n        /* \"#utility.yul\":12201:12218   */\n      add\n        /* \"#utility.yul\":12192:12198   */\n      dup6\n        /* \"#utility.yul\":12148:12219   */\n      tag_309\n      jump\t// in\n    tag_467:\n        /* \"#utility.yul\":12229:12301   */\n      tag_468\n        /* \"#utility.yul\":12297:12299   */\n      0x20\n        /* \"#utility.yul\":12286:12295   */\n      dup4\n        /* \"#utility.yul\":12282:12300   */\n      add\n        /* \"#utility.yul\":12273:12279   */\n      dup5\n        /* \"#utility.yul\":12229:12301   */\n      tag_309\n      jump\t// in\n    tag_468:\n        /* \"#utility.yul\":11976:12308   */\n      swap4\n      swap3\n      pop\n      pop\n      pop\n      jump\t// out\n        /* \"#utility.yul\":12314:12493   */\n    tag_327:\n        /* \"#utility.yul\":12454:12485   */\n      0x496e707574206d7573742062652067726561746572207468616e203130000000\n        /* \"#utility.yul\":12450:12451   */\n      0x00\n        /* \"#utility.yul\":12442:12448   */\n      dup3\n        /* \"#utility.yul\":12438:12452   */\n      add\n        /* \"#utility.yul\":12431:12486   */\n      mstore\n        /* \"#utility.yul\":12314:12493   */\n      pop\n      jump\t// out\n        /* \"#utility.yul\":12499:12865   */\n    tag_328:\n        /* \"#utility.yul\":12641:12644   */\n      0x00\n        /* \"#utility.yul\":12662:12729   */\n      tag_471\n        /* \"#utility.yul\":12726:12728   */\n      0x1d\n        /* \"#utility.yul\":12721:12724   */\n      dup4\n        /* \"#utility.yul\":12662:12729   */\n      tag_311\n      jump\t// in\n    tag_471:\n        /* \"#utility.yul\":12655:12729   */\n      swap2\n      pop\n        /* \"#utility.yul\":12738:12831   */\n      tag_472\n        /* \"#utility.yul\":12827:12830   */\n      dup3\n        /* \"#utility.yul\":12738:12831   */\n      tag_327\n      jump\t// in\n    tag_472:\n        /* \"#utility.yul\":12856:12858   */\n      0x20\n        /* \"#utility.yul\":12851:12854   */\n      dup3\n        /* \"#utility.yul\":12847:12859   */\n      add\n        /* \"#utility.yul\":12840:12859   */\n      swap1\n      pop\n        /* \"#utility.yul\":12499:12865   */\n      swap2\n      swap1\n      pop\n      jump\t// out\n        /* \"#utility.yul\":12871:13290   */\n    tag_245:\n        /* \"#utility.yul\":13037:13041   */\n      0x00\n        /* \"#utility.yul\":13075:13077   */\n      0x20\n        /* \"#utility.yul\":13064:13073   */\n      dup3\n        /* \"#utility.yul\":13060:13078   */\n      add\n        /* \"#utility.yul\":13052:13078   */\n      swap1\n      pop\n        /* \"#utility.yul\":13124:13133   */\n      dup2\n        /* \"#utility.yul\":13118:13122   */\n      dup2\n        /* \"#utility.yul\":13114:13134   */\n      sub\n        /* \"#utility.yul\":13110:13111   */\n      0x00\n        /* \"#utility.yul\":13099:13108   */\n      dup4\n        /* \"#utility.yul\":13095:13112   */\n      add\n        /* \"#utility.yul\":13088:13135   */\n      mstore\n        /* \"#utility.yul\":13152:13283   */\n      tag_474\n        /* \"#utility.yul\":13278:13282   */\n      dup2\n        /* \"#utility.yul\":13152:13283   */\n      tag_328\n      jump\t// in\n    tag_474:\n        /* \"#utility.yul\":13144:13283   */\n      swap1\n      pop\n        /* \"#utility.yul\":12871:13290   */\n      swap2\n      swap1\n      pop\n      jump\t// out\n        /* \"#utility.yul\":13296:13467   */\n    tag_255:\n        /* \"#utility.yul\":13335:13338   */\n      0x00\n        /* \"#utility.yul\":13358:13382   */\n      tag_476\n        /* \"#utility.yul\":13376:13381   */\n      dup3\n        /* \"#utility.yul\":13358:13382   */\n      tag_298\n      jump\t// in\n    tag_476:\n        /* \"#utility.yul\":13349:13382   */\n      swap2\n      pop\n        /* \"#utility.yul\":13404:13408   */\n      0x00\n        /* \"#utility.yul\":13397:13402   */\n      dup3\n        /* \"#utility.yul\":13394:13409   */\n      sub\n        /* \"#utility.yul\":13391:13432   */\n      tag_477\n      jumpi\n        /* \"#utility.yul\":13412:13430   */\n      tag_478\n      tag_325\n      jump\t// in\n    tag_478:\n        /* \"#utility.yul\":13391:13432   */\n    tag_477:\n        /* \"#utility.yul\":13459:13460   */\n      0x01\n        /* \"#utility.yul\":13452:13457   */\n      dup3\n        /* \"#utility.yul\":13448:13461   */\n      sub\n        /* \"#utility.yul\":13441:13461   */\n      swap1\n      pop\n        /* \"#utility.yul\":13296:13467   */\n      swap2\n      swap1\n      pop\n      jump\t// out\n        /* \"#utility.yul\":13473:13653   */\n    tag_260:\n        /* \"#utility.yul\":13521:13598   */\n      0x4e487b7100000000000000000000000000000000000000000000000000000000\n        /* \"#utility.yul\":13518:13519   */\n      0x00\n        /* \"#utility.yul\":13511:13599   */\n      mstore\n        /* \"#utility.yul\":13618:13622   */\n      0x41\n        /* \"#utility.yul\":13615:13616   */\n      0x04\n        /* \"#utility.yul\":13608:13623   */\n      mstore\n        /* \"#utility.yul\":13642:13646   */\n      0x24\n        /* \"#utility.yul\":13639:13640   */\n      0x00\n        /* \"#utility.yul\":13632:13647   */\n      revert\n\n    auxdata: 0xa26469706673582212209abd6f4d29a09c6d5479c6a3b078a2783ceaa545bbfccc42ae144d0f17c32f9a64736f6c63430008160033\n}\n",
				"bytecode": {
					"linkReferences": {},
					"object": "60806040526040518060600160405280600160ff168152602001600260ff168152602001600360ff16815250600d9060036200003d92919062000051565b503480156200004a575f80fd5b50620000c3565b828054828255905f5260205f2090810192821562000093579160200282015b8281111562000092578251829060ff1690559160200191906001019062000070565b5b509050620000a29190620000a6565b5090565b5b80821115620000bf575f815f905550600101620000a7565b5090565b6116bf80620000d15f395ff3fe608060405234801561000f575f80fd5b5060043610610250575f3560e01c80639507d39a11610144578063e5860d12116100c1578063edf0099b11610085578063edf0099b14610694578063f0ebce5a146106c4578063f10a31a1146106e2578063f91562fe14610712578063faf264bb1461071c578063fb8cbced1461073a57610250565b8063e5860d1214610604578063e665b26614610634578063e784f5b114610652578063e867ec261461066e578063ec1dfc7b1461067857610250565b8063b3bcfa8211610108578063b3bcfa8214610572578063b4108a9414610590578063b620df2a146105c0578063b8bd717f146105ca578063c6b91540146105e657610250565b80639507d39a146104d057806398ccfa54146105005780639b37ec4d1461051c578063a4d396ca14610526578063ab63385c1461054257610250565b80634bfec157116101d257806371e5ee5f1161019657806371e5ee5f1461042e57806375f7286c1461045e5780637a9632a81461047a5780638dca72c7146104985780639305e917146104b457610250565b80634bfec1571461039c57806350bdd16c146103b85780635a455c1c146103d65780636deecdbe146103f4578063701b33051461041257610250565b806328f2d6cd1161021957806328f2d6cd146102f85780632b813bc0146103285780632cc0ad3114610332578063371303c01461034e5780634620b0231461036c57610250565b8062d77e891461025457806302899203146102845780631c6570431461028e578063200d2ed2146102aa578063235211f1146102c8575b5f80fd5b61026e60048036038101906102699190610f74565b610758565b60405161027b9190610fae565b60405180910390f35b61028c610783565b005b6102a860048036038101906102a39190610ffa565b6107aa565b005b6102b26107cc565b6040516102bf9190611098565b60405180910390f35b6102e260048036038101906102dd9190610f74565b6107dc565b6040516102ef9190610fae565b60405180910390f35b610312600480360381019061030d919061110b565b61080a565b60405161031f9190610fae565b60405180910390f35b61033061086c565b005b61034c60048036038101906103479190610ffa565b610880565b005b6103566108ae565b6040516103639190611158565b60405180910390f35b61038660048036038101906103819190610ffa565b6108cf565b6040516103939190611158565b60405180910390f35b6103b660048036038101906103b19190610ffa565b6108e8565b005b6103c0610911565b6040516103cd9190610fae565b60405180910390f35b6103de610924565b6040516103eb91906111fb565b60405180910390f35b6103fc6109b0565b6040516104099190610fae565b60405180910390f35b61042c6004803603810190610427919061121b565b6109c3565b005b61044860048036038101906104439190610ffa565b610a2b565b6040516104559190611158565b60405180910390f35b61047860048036038101906104739190610ffa565b610a4b565b005b610482610a9a565b60405161048f9190611158565b60405180910390f35b6104b260048036038101906104ad919061126b565b610ab3565b005b6104ce60048036038101906104c99190610ffa565b610afe565b005b6104ea60048036038101906104e59190610ffa565b610b45565b6040516104f79190611158565b60405180910390f35b61051a600480360381019061051591906112a9565b610b6a565b005b610524610bd6565b005b610540600480360381019061053b919061110b565b610be8565b005b61055c6004803603810190610557919061110b565b610c2e565b6040516105699190610fae565b60405180910390f35b61057a610c58565b6040516105879190611158565b60405180910390f35b6105aa60048036038101906105a591906112a9565b610c72565b6040516105b79190611158565b60405180910390f35b6105c8610cb8565b005b6105e460048036038101906105df9190610ffa565b610d29565b005b6105ee610d6f565b6040516105fb9190611158565b60405180910390f35b61061e60048036038101906106199190610f74565b610d75565b60405161062b9190610fae565b60405180910390f35b61063c610da2565b60405161064991906112e3565b60405180910390f35b61066c600480360381019061066791906112a9565b610dc7565b005b610676610e0a565b005b610692600480360381019061068d919061131f565b610e35565b005b6106ae60048036038101906106a99190610ffa565b610e60565b6040516106bb9190611158565b60405180910390f35b6106cc610e80565b6040516106d99190611098565b60405180910390f35b6106fc60048036038101906106f79190610f74565b610e94565b6040516107099190610fae565b60405180910390f35b61071a610ebf565b005b610724610ed9565b6040516107319190611158565b60405180910390f35b610742610ee5565b60405161074f9190611401565b60405180910390f35b5f811515600960149054906101000a900460ff16151503610779575f61077c565b60015b9050919050565b600c80548061079557610794611421565b5b600190038181905f5260205f20015f90559055565b600c81815481106107be576107bd61144e565b5b905f5260205f20015f905550565b5f8054906101000a900460ff1681565b5f600960149054906101000a900460ff1680156107f65750815b610800575f610803565b60015b9050919050565b5f600b5f8473ffffffffffffffffffffffffffffffffffffffff1673ffffffffffffffffffffffffffffffffffffffff1681526020019081526020015f205f8381526020019081526020015f205f9054906101000a900460ff16905092915050565b5f6001541461087e5761087d61147b565b5b565b806001541161088f575f610892565b60015b600960176101000a81548160ff02191690831515021790555050565b5f600a60396001546108c091906114d5565b6108ca9190611508565b905090565b600e81600a81106108de575f80fd5b015f915090505481565b600c81908060018154018082558091505060019003905f5260205f20015f909190919091505550565b600960179054906101000a900460ff1681565b6004805461093190611576565b80601f016020809104026020016040519081016040528092919081815260200182805461095d90611576565b80156109a85780601f1061097f576101008083540402835291602001916109a8565b820191905f5260205f20905b81548152906001019060200180831161098b57829003601f168201915b505050505081565b600960149054906101000a900460ff1681565b80600b5f8573ffffffffffffffffffffffffffffffffffffffff1673ffffffffffffffffffffffffffffffffffffffff1681526020019081526020015f205f8481526020019081526020015f205f6101000a81548160ff021916908315150217905550505050565b600c8181548110610a3a575f80fd5b905f5260205f20015f915090505481565b5f47905081811015610a965780826040517fcf479181000000000000000000000000000000000000000000000000000000008152600401610a8d9291906115a6565b60405180910390fd5b5050565b5f60018054610aa991906114d5565b6001819055905090565b816001819055508060075f6101000a81548173ffffffffffffffffffffffffffffffffffffffff021916908373ffffffffffffffffffffffffffffffffffffffff1602179055505050565b600a811115610b42576040517f08c379a0000000000000000000000000000000000000000000000000000000008152600401610b3990611617565b60405180910390fd5b50565b5f600c8281548110610b5a57610b5961144e565b5b905f5260205f2001549050919050565b8073ffffffffffffffffffffffffffffffffffffffff1660075f9054906101000a900473ffffffffffffffffffffffffffffffffffffffff1673ffffffffffffffffffffffffffffffffffffffff1614600960176101000a81548160ff02191690831515021790555050565b5f806101000a81549060ff0219169055565b80600a5f8473ffffffffffffffffffffffffffffffffffffffff1673ffffffffffffffffffffffffffffffffffffffff1681526020019081526020015f20819055505050565b600b602052815f5260405f20602052805f5260405f205f915091509054906101000a900460ff1681565b5f60015f8154610c6790611635565b919050819055905090565b5f600a5f8373ffffffffffffffffffffffffffffffffffffffff1673ffffffffffffffffffffffffffffffffffffffff1681526020019081526020015f20549050919050565b5f600567ffffffffffffffff811115610cd457610cd361165c565b5b604051908082528060200260200182016040528015610d025781602001602082028036833780820191505090505b5090506001815f81518110610d1a57610d1961144e565b5b60200260200101818152505050565b600a8111610d6c576040517f08c379a0000000000000000000000000000000000000000000000000000000008152600401610d6390611617565b60405180910390fd5b50565b60015481565b5f600960149054906101000a900460ff1680610d8e5750815b610d98575f610d9b565b60015b9050919050565b60075f9054906101000a900473ffffffffffffffffffffffffffffffffffffffff1681565b600a5f8273ffffffffffffffffffffffffffffffffffffffff1673ffffffffffffffffffffffffffffffffffffffff1681526020019081526020015f205f905550565b60045f806101000a81548160ff02191690836004811115610e2e57610e2d611025565b5b0217905550565b805f806101000a81548160ff02191690836004811115610e5857610e57611025565b5b021790555050565b600d8181548110610e6f575f80fd5b905f5260205f20015f915090505481565b5f805f9054906101000a900460ff16905090565b5f811515600960149054906101000a900460ff16151514610eb5575f610eb8565b60015b9050919050565b6001805f828254610ed091906114d5565b92505081905550565b5f600c80549050905090565b6060600c805480602002602001604051908101604052809291908181526020018280548015610f3157602002820191905f5260205f20905b815481526020019060010190808311610f1d575b5050505050905090565b5f80fd5b5f8115159050919050565b610f5381610f3f565b8114610f5d575f80fd5b50565b5f81359050610f6e81610f4a565b92915050565b5f60208284031215610f8957610f88610f3b565b5b5f610f9684828501610f60565b91505092915050565b610fa881610f3f565b82525050565b5f602082019050610fc15f830184610f9f565b92915050565b5f819050919050565b610fd981610fc7565b8114610fe3575f80fd5b50565b5f81359050610ff481610fd0565b92915050565b5f6020828403121561100f5761100e610f3b565b5b5f61101c84828501610fe6565b91505092915050565b7f4e487b71000000000000000000000000000000000000000000000000000000005f52602160045260245ffd5b6005811061106357611062611025565b5b50565b5f81905061107382611052565b919050565b5f61108282611066565b9050919050565b61109281611078565b82525050565b5f6020820190506110ab5f830184611089565b92915050565b5f73ffffffffffffffffffffffffffffffffffffffff82169050919050565b5f6110da826110b1565b9050919050565b6110ea816110d0565b81146110f4575f80fd5b50565b5f81359050611105816110e1565b92915050565b5f806040838503121561112157611120610f3b565b5b5f61112e858286016110f7565b925050602061113f85828601610fe6565b9150509250929050565b61115281610fc7565b82525050565b5f60208201905061116b5f830184611149565b92915050565b5f81519050919050565b5f82825260208201905092915050565b5f5b838110156111a857808201518184015260208101905061118d565b5f8484015250505050565b5f601f19601f8301169050919050565b5f6111cd82611171565b6111d7818561117b565b93506111e781856020860161118b565b6111f0816111b3565b840191505092915050565b5f6020820190508181035f83015261121381846111c3565b905092915050565b5f805f6060848603121561123257611231610f3b565b5b5f61123f868287016110f7565b935050602061125086828701610fe6565b925050604061126186828701610f60565b9150509250925092565b5f806040838503121561128157611280610f3b565b5b5f61128e85828601610fe6565b925050602061129f858286016110f7565b9150509250929050565b5f602082840312156112be576112bd610f3b565b5b5f6112cb848285016110f7565b91505092915050565b6112dd816110d0565b82525050565b5f6020820190506112f65f8301846112d4565b92915050565b60058110611308575f80fd5b50565b5f81359050611319816112fc565b92915050565b5f6020828403121561133457611333610f3b565b5b5f6113418482850161130b565b91505092915050565b5f81519050919050565b5f82825260208201905092915050565b5f819050602082019050919050565b61137c81610fc7565b82525050565b5f61138d8383611373565b60208301905092915050565b5f602082019050919050565b5f6113af8261134a565b6113b98185611354565b93506113c483611364565b805f5b838110156113f45781516113db8882611382565b97506113e683611399565b9250506001810190506113c7565b5085935050505092915050565b5f6020820190508181035f83015261141981846113a5565b905092915050565b7f4e487b71000000000000000000000000000000000000000000000000000000005f52603160045260245ffd5b7f4e487b71000000000000000000000000000000000000000000000000000000005f52603260045260245ffd5b7f4e487b71000000000000000000000000000000000000000000000000000000005f52600160045260245ffd5b7f4e487b71000000000000000000000000000000000000000000000000000000005f52601160045260245ffd5b5f6114df82610fc7565b91506114ea83610fc7565b9250828201905080821115611502576115016114a8565b5b92915050565b5f61151282610fc7565b915061151d83610fc7565b925082820261152b81610fc7565b91508282048414831517611542576115416114a8565b5b5092915050565b7f4e487b71000000000000000000000000000000000000000000000000000000005f52602260045260245ffd5b5f600282049050600182168061158d57607f821691505b6020821081036115a05761159f611549565b5b50919050565b5f6040820190506115b95f830185611149565b6115c66020830184611149565b9392505050565b7f496e707574206d7573742062652067726561746572207468616e2031300000005f82015250565b5f611601601d8361117b565b915061160c826115cd565b602082019050919050565b5f6020820190508181035f83015261162e816115f5565b9050919050565b5f61163f82610fc7565b91505f8203611651576116506114a8565b5b600182039050919050565b7f4e487b71000000000000000000000000000000000000000000000000000000005f52604160045260245ffdfea26469706673582212209abd6f4d29a09c6d5479c6a3b078a2783ceaa545bbfccc42ae144d0f17c32f9a64736f6c63430008160033",
					"opcodes": "PUSH1 0x80 PUSH1 0x40 MSTORE PUSH1 0x40 MLOAD DUP1 PUSH1 0x60 ADD PUSH1 0x40 MSTORE DUP1 PUSH1 0x1 PUSH1 0xFF AND DUP2 MSTORE PUSH1 0x20 ADD PUSH1 0x2 PUSH1 0xFF AND DUP2 MSTORE PUSH1 0x20 ADD PUSH1 0x3 PUSH1 0xFF AND DUP2 MSTORE POP PUSH1 0xD SWAP1 PUSH1 0x3 PUSH3 0x3D SWAP3 SWAP2 SWAP1 PUSH3 0x51 JUMP JUMPDEST POP CALLVALUE DUP1 ISZERO PUSH3 0x4A JUMPI PUSH0 DUP1 REVERT JUMPDEST POP PUSH3 0xC3 JUMP JUMPDEST DUP3 DUP1 SLOAD DUP3 DUP3 SSTORE SWAP1 PUSH0 MSTORE PUSH1 0x20 PUSH0 KECCAK256 SWAP1 DUP2 ADD SWAP3 DUP3 ISZERO PUSH3 0x93 JUMPI SWAP2 PUSH1 0x20 MUL DUP3 ADD JUMPDEST DUP3 DUP2 GT ISZERO PUSH3 0x92 JUMPI DUP3 MLOAD DUP3 SWAP1 PUSH1 0xFF AND SWAP1 SSTORE SWAP2 PUSH1 0x20 ADD SWAP2 SWAP1 PUSH1 0x1 ADD SWAP1 PUSH3 0x70 JUMP JUMPDEST JUMPDEST POP SWAP1 POP PUSH3 0xA2 SWAP2 SWAP1 PUSH3 0xA6 JUMP JUMPDEST POP SWAP1 JUMP JUMPDEST JUMPDEST DUP1 DUP3 GT ISZERO PUSH3 0xBF JUMPI PUSH0 DUP2 PUSH0 SWAP1 SSTORE POP PUSH1 0x1 ADD PUSH3 0xA7 JUMP JUMPDEST POP SWAP1 JUMP JUMPDEST PUSH2 0x16BF DUP1 PUSH3 0xD1 PUSH0 CODECOPY PUSH0 RETURN INVALID PUSH1 0x80 PUSH1 0x40 MSTORE CALLVALUE DUP1 ISZERO PUSH2 0xF JUMPI PUSH0 DUP1 REVERT JUMPDEST POP PUSH1 0x4 CALLDATASIZE LT PUSH2 0x250 JUMPI PUSH0 CALLDATALOAD PUSH1 0xE0 SHR DUP1 PUSH4 0x9507D39A GT PUSH2 0x144 JUMPI DUP1 PUSH4 0xE5860D12 GT PUSH2 0xC1 JUMPI DUP1 PUSH4 0xEDF0099B GT PUSH2 0x85 JUMPI DUP1 PUSH4 0xEDF0099B EQ PUSH2 0x694 JUMPI DUP1 PUSH4 0xF0EBCE5A EQ PUSH2 0x6C4 JUMPI DUP1 PUSH4 0xF10A31A1 EQ PUSH2 0x6E2 JUMPI DUP1 PUSH4 0xF91562FE EQ PUSH2 0x712 JUMPI DUP1 PUSH4 0xFAF264BB EQ PUSH2 0x71C JUMPI DUP1 PUSH4 0xFB8CBCED EQ PUSH2 0x73A JUMPI PUSH2 0x250 JUMP JUMPDEST DUP1 PUSH4 0xE5860D12 EQ PUSH2 0x604 JUMPI DUP1 PUSH4 0xE665B266 EQ PUSH2 0x634 JUMPI DUP1 PUSH4 0xE784F5B1 EQ PUSH2 0x652 JUMPI DUP1 PUSH4 0xE867EC26 EQ PUSH2 0x66E JUMPI DUP1 PUSH4 0xEC1DFC7B EQ PUSH2 0x678 JUMPI PUSH2 0x250 JUMP JUMPDEST DUP1 PUSH4 0xB3BCFA82 GT PUSH2 0x108 JUMPI DUP1 PUSH4 0xB3BCFA82 EQ PUSH2 0x572 JUMPI DUP1 PUSH4 0xB4108A94 EQ PUSH2 0x590 JUMPI DUP1 PUSH4 0xB620DF2A EQ PUSH2 0x5C0 JUMPI DUP1 PUSH4 0xB8BD717F EQ PUSH2 0x5CA JUMPI DUP1 PUSH4 0xC6B91540 EQ PUSH2 0x5E6 JUMPI PUSH2 0x250 JUMP JUMPDEST DUP1 PUSH4 0x9507D39A EQ PUSH2 0x4D0 JUMPI DUP1 PUSH4 0x98CCFA54 EQ PUSH2 0x500 JUMPI DUP1 PUSH4 0x9B37EC4D EQ PUSH2 0x51C JUMPI DUP1 PUSH4 0xA4D396CA EQ PUSH2 0x526 JUMPI DUP1 PUSH4 0xAB63385C EQ PUSH2 0x542 JUMPI PUSH2 0x250 JUMP JUMPDEST DUP1 PUSH4 0x4BFEC157 GT PUSH2 0x1D2 JUMPI DUP1 PUSH4 0x71E5EE5F GT PUSH2 0x196 JUMPI DUP1 PUSH4 0x71E5EE5F EQ PUSH2 0x42E JUMPI DUP1 PUSH4 0x75F7286C EQ PUSH2 0x45E JUMPI DUP1 PUSH4 0x7A9632A8 EQ PUSH2 0x47A JUMPI DUP1 PUSH4 0x8DCA72C7 EQ PUSH2 0x498 JUMPI DUP1 PUSH4 0x9305E917 EQ PUSH2 0x4B4 JUMPI PUSH2 0x250 JUMP JUMPDEST DUP1 PUSH4 0x4BFEC157 EQ PUSH2 0x39C JUMPI DUP1 PUSH4 0x50BDD16C EQ PUSH2 0x3B8 JUMPI DUP1 PUSH4 0x5A455C1C EQ PUSH2 0x3D6 JUMPI DUP1 PUSH4 0x6DEECDBE EQ PUSH2 0x3F4 JUMPI DUP1 PUSH4 0x701B3305 EQ PUSH2 0x412 JUMPI PUSH2 0x250 JUMP JUMPDEST DUP1 PUSH4 0x28F2D6CD GT PUSH2 0x219 JUMPI DUP1 PUSH4 0x28F2D6CD EQ PUSH2 0x2F8 JUMPI DUP1 PUSH4 0x2B813BC0 EQ PUSH2 0x328 JUMPI DUP1 PUSH4 0x2CC0AD31 EQ PUSH2 0x332 JUMPI DUP1 PUSH4 0x371303C0 EQ PUSH2 0x34E JUMPI DUP1 PUSH4 0x4620B023 EQ PUSH2 0x36C JUMPI PUSH2 0x250 JUMP JUMPDEST DUP1 PUSH3 0xD77E89 EQ PUSH2 0x254 JUMPI DUP1 PUSH4 0x2899203 EQ PUSH2 0x284 JUMPI DUP1 PUSH4 0x1C657043 EQ PUSH2 0x28E JUMPI DUP1 PUSH4 0x200D2ED2 EQ PUSH2 0x2AA JUMPI DUP1 PUSH4 0x235211F1 EQ PUSH2 0x2C8 JUMPI JUMPDEST PUSH0 DUP1 REVERT JUMPDEST PUSH2 0x26E PUSH1 0x4 DUP1 CALLDATASIZE SUB DUP2 ADD SWAP1 PUSH2 0x269 SWAP2 SWAP1 PUSH2 0xF74 JUMP JUMPDEST PUSH2 0x758 JUMP JUMPDEST PUSH1 0x40 MLOAD PUSH2 0x27B SWAP2 SWAP1 PUSH2 0xFAE JUMP JUMPDEST PUSH1 0x40 MLOAD DUP1 SWAP2 SUB SWAP1 RETURN JUMPDEST PUSH2 0x28C PUSH2 0x783 JUMP JUMPDEST STOP JUMPDEST PUSH2 0x2A8 PUSH1 0x4 DUP1 CALLDATASIZE SUB DUP2 ADD SWAP1 PUSH2 0x2A3 SWAP2 SWAP1 PUSH2 0xFFA JUMP JUMPDEST PUSH2 0x7AA JUMP JUMPDEST STOP JUMPDEST PUSH2 0x2B2 PUSH2 0x7CC JUMP JUMPDEST PUSH1 0x40 MLOAD PUSH2 0x2BF SWAP2 SWAP1 PUSH2 0x1098 JUMP JUMPDEST PUSH1 0x40 MLOAD DUP1 SWAP2 SUB SWAP1 RETURN JUMPDEST PUSH2 0x2E2 PUSH1 0x4 DUP1 CALLDATASIZE SUB DUP2 ADD SWAP1 PUSH2 0x2DD SWAP2 SWAP1 PUSH2 0xF74 JUMP JUMPDEST PUSH2 0x7DC JUMP JUMPDEST PUSH1 0x40 MLOAD PUSH2 0x2EF SWAP2 SWAP1 PUSH2 0xFAE JUMP JUMPDEST PUSH1 0x40 MLOAD DUP1 SWAP2 SUB SWAP1 RETURN JUMPDEST PUSH2 0x312 PUSH1 0x4 DUP1 CALLDATASIZE SUB DUP2 ADD SWAP1 PUSH2 0x30D SWAP2 SWAP1 PUSH2 0x110B JUMP JUMPDEST PUSH2 0x80A JUMP JUMPDEST PUSH1 0x40 MLOAD PUSH2 0x31F SWAP2 SWAP1 PUSH2 0xFAE JUMP JUMPDEST PUSH1 0x40 MLOAD DUP1 SWAP2 SUB SWAP1 RETURN JUMPDEST PUSH2 0x330 PUSH2 0x86C JUMP JUMPDEST STOP JUMPDEST PUSH2 0x34C PUSH1 0x4 DUP1 CALLDATASIZE SUB DUP2 ADD SWAP1 PUSH2 0x347 SWAP2 SWAP1 PUSH2 0xFFA JUMP JUMPDEST PUSH2 0x880 JUMP JUMPDEST STOP JUMPDEST PUSH2 0x356 PUSH2 0x8AE JUMP JUMPDEST PUSH1 0x40 MLOAD PUSH2 0x363 SWAP2 SWAP1 PUSH2 0x1158 JUMP JUMPDEST PUSH1 0x40 MLOAD DUP1 SWAP2 SUB SWAP1 RETURN JUMPDEST PUSH2 0x386 PUSH1 0x4 DUP1 CALLDATASIZE SUB DUP2 ADD SWAP1 PUSH2 0x381 SWAP2 SWAP1 PUSH2 0xFFA JUMP JUMPDEST PUSH2 0x8CF JUMP JUMPDEST PUSH1 0x40 MLOAD PUSH2 0x393 SWAP2 SWAP1 PUSH2 0x1158 JUMP JUMPDEST PUSH1 0x40 MLOAD DUP1 SWAP2 SUB SWAP1 RETURN JUMPDEST PUSH2 0x3B6 PUSH1 0x4 DUP1 CALLDATASIZE SUB DUP2 ADD SWAP1 PUSH2 0x3B1 SWAP2 SWAP1 PUSH2 0xFFA JUMP JUMPDEST PUSH2 0x8E8 JUMP JUMPDEST STOP JUMPDEST PUSH2 0x3C0 PUSH2 0x911 JUMP JUMPDEST PUSH1 0x40 MLOAD PUSH2 0x3CD SWAP2 SWAP1 PUSH2 0xFAE JUMP JUMPDEST PUSH1 0x40 MLOAD DUP1 SWAP2 SUB SWAP1 RETURN JUMPDEST PUSH2 0x3DE PUSH2 0x924 JUMP JUMPDEST PUSH1 0x40 MLOAD PUSH2 0x3EB SWAP2 SWAP1 PUSH2 0x11FB JUMP JUMPDEST PUSH1 0x40 MLOAD DUP1 SWAP2 SUB SWAP1 RETURN JUMPDEST PUSH2 0x3FC PUSH2 0x9B0 JUMP JUMPDEST PUSH1 0x40 MLOAD PUSH2 0x409 SWAP2 SWAP1 PUSH2 0xFAE JUMP JUMPDEST PUSH1 0x40 MLOAD DUP1 SWAP2 SUB SWAP1 RETURN JUMPDEST PUSH2 0x42C PUSH1 0x4 DUP1 CALLDATASIZE SUB DUP2 ADD SWAP1 PUSH2 0x427 SWAP2 SWAP1 PUSH2 0x121B JUMP JUMPDEST PUSH2 0x9C3 JUMP JUMPDEST STOP JUMPDEST PUSH2 0x448 PUSH1 0x4 DUP1 CALLDATASIZE SUB DUP2 ADD SWAP1 PUSH2 0x443 SWAP2 SWAP1 PUSH2 0xFFA JUMP JUMPDEST PUSH2 0xA2B JUMP JUMPDEST PUSH1 0x40 MLOAD PUSH2 0x455 SWAP2 SWAP1 PUSH2 0x1158 JUMP JUMPDEST PUSH1 0x40 MLOAD DUP1 SWAP2 SUB SWAP1 RETURN JUMPDEST PUSH2 0x478 PUSH1 0x4 DUP1 CALLDATASIZE SUB DUP2 ADD SWAP1 PUSH2 0x473 SWAP2 SWAP1 PUSH2 0xFFA JUMP JUMPDEST PUSH2 0xA4B JUMP JUMPDEST STOP JUMPDEST PUSH2 0x482 PUSH2 0xA9A JUMP JUMPDEST PUSH1 0x40 MLOAD PUSH2 0x48F SWAP2 SWAP1 PUSH2 0x1158 JUMP JUMPDEST PUSH1 0x40 MLOAD DUP1 SWAP2 SUB SWAP1 RETURN JUMPDEST PUSH2 0x4B2 PUSH1 0x4 DUP1 CALLDATASIZE SUB DUP2 ADD SWAP1 PUSH2 0x4AD SWAP2 SWAP1 PUSH2 0x126B JUMP JUMPDEST PUSH2 0xAB3 JUMP JUMPDEST STOP JUMPDEST PUSH2 0x4CE PUSH1 0x4 DUP1 CALLDATASIZE SUB DUP2 ADD SWAP1 PUSH2 0x4C9 SWAP2 SWAP1 PUSH2 0xFFA JUMP JUMPDEST PUSH2 0xAFE JUMP JUMPDEST STOP JUMPDEST PUSH2 0x4EA PUSH1 0x4 DUP1 CALLDATASIZE SUB DUP2 ADD SWAP1 PUSH2 0x4E5 SWAP2 SWAP1 PUSH2 0xFFA JUMP JUMPDEST PUSH2 0xB45 JUMP JUMPDEST PUSH1 0x40 MLOAD PUSH2 0x4F7 SWAP2 SWAP1 PUSH2 0x1158 JUMP JUMPDEST PUSH1 0x40 MLOAD DUP1 SWAP2 SUB SWAP1 RETURN JUMPDEST PUSH2 0x51A PUSH1 0x4 DUP1 CALLDATASIZE SUB DUP2 ADD SWAP1 PUSH2 0x515 SWAP2 SWAP1 PUSH2 0x12A9 JUMP JUMPDEST PUSH2 0xB6A JUMP JUMPDEST STOP JUMPDEST PUSH2 0x524 PUSH2 0xBD6 JUMP JUMPDEST STOP JUMPDEST PUSH2 0x540 PUSH1 0x4 DUP1 CALLDATASIZE SUB DUP2 ADD SWAP1 PUSH2 0x53B SWAP2 SWAP1 PUSH2 0x110B JUMP JUMPDEST PUSH2 0xBE8 JUMP JUMPDEST STOP JUMPDEST PUSH2 0x55C PUSH1 0x4 DUP1 CALLDATASIZE SUB DUP2 ADD SWAP1 PUSH2 0x557 SWAP2 SWAP1 PUSH2 0x110B JUMP JUMPDEST PUSH2 0xC2E JUMP JUMPDEST PUSH1 0x40 MLOAD PUSH2 0x569 SWAP2 SWAP1 PUSH2 0xFAE JUMP JUMPDEST PUSH1 0x40 MLOAD DUP1 SWAP2 SUB SWAP1 RETURN JUMPDEST PUSH2 0x57A PUSH2 0xC58 JUMP JUMPDEST PUSH1 0x40 MLOAD PUSH2 0x587 SWAP2 SWAP1 PUSH2 0x1158 JUMP JUMPDEST PUSH1 0x40 MLOAD DUP1 SWAP2 SUB SWAP1 RETURN JUMPDEST PUSH2 0x5AA PUSH1 0x4 DUP1 CALLDATASIZE SUB DUP2 ADD SWAP1 PUSH2 0x5A5 SWAP2 SWAP1 PUSH2 0x12A9 JUMP JUMPDEST PUSH2 0xC72 JUMP JUMPDEST PUSH1 0x40 MLOAD PUSH2 0x5B7 SWAP2 SWAP1 PUSH2 0x1158 JUMP JUMPDEST PUSH1 0x40 MLOAD DUP1 SWAP2 SUB SWAP1 RETURN JUMPDEST PUSH2 0x5C8 PUSH2 0xCB8 JUMP JUMPDEST STOP JUMPDEST PUSH2 0x5E4 PUSH1 0x4 DUP1 CALLDATASIZE SUB DUP2 ADD SWAP1 PUSH2 0x5DF SWAP2 SWAP1 PUSH2 0xFFA JUMP JUMPDEST PUSH2 0xD29 JUMP JUMPDEST STOP JUMPDEST PUSH2 0x5EE PUSH2 0xD6F JUMP JUMPDEST PUSH1 0x40 MLOAD PUSH2 0x5FB SWAP2 SWAP1 PUSH2 0x1158 JUMP JUMPDEST PUSH1 0x40 MLOAD DUP1 SWAP2 SUB SWAP1 RETURN JUMPDEST PUSH2 0x61E PUSH1 0x4 DUP1 CALLDATASIZE SUB DUP2 ADD SWAP1 PUSH2 0x619 SWAP2 SWAP1 PUSH2 0xF74 JUMP JUMPDEST PUSH2 0xD75 JUMP JUMPDEST PUSH1 0x40 MLOAD PUSH2 0x62B SWAP2 SWAP1 PUSH2 0xFAE JUMP JUMPDEST PUSH1 0x40 MLOAD DUP1 SWAP2 SUB SWAP1 RETURN JUMPDEST PUSH2 0x63C PUSH2 0xDA2 JUMP JUMPDEST PUSH1 0x40 MLOAD PUSH2 0x649 SWAP2 SWAP1 PUSH2 0x12E3 JUMP JUMPDEST PUSH1 0x40 MLOAD DUP1 SWAP2 SUB SWAP1 RETURN JUMPDEST PUSH2 0x66C PUSH1 0x4 DUP1 CALLDATASIZE SUB DUP2 ADD SWAP1 PUSH2 0x667 SWAP2 SWAP1 PUSH2 0x12A9 JUMP JUMPDEST PUSH2 0xDC7 JUMP JUMPDEST STOP JUMPDEST PUSH2 0x676 PUSH2 0xE0A JUMP JUMPDEST STOP JUMPDEST PUSH2 0x692 PUSH1 0x4 DUP1 CALLDATASIZE SUB DUP2 ADD SWAP1 PUSH2 0x68D SWAP2 SWAP1 PUSH2 0x131F JUMP JUMPDEST PUSH2 0xE35 JUMP JUMPDEST STOP JUMPDEST PUSH2 0x6AE PUSH1 0x4 DUP1 CALLDATASIZE SUB DUP2 ADD SWAP1 PUSH2 0x6A9 SWAP2 SWAP1 PUSH2 0xFFA JUMP JUMPDEST PUSH2 0xE60 JUMP JUMPDEST PUSH1 0x40 MLOAD PUSH2 0x6BB SWAP2 SWAP1 PUSH2 0x1158 JUMP JUMPDEST PUSH1 0x40 MLOAD DUP1 SWAP2 SUB SWAP1 RETURN JUMPDEST PUSH2 0x6CC PUSH2 0xE80 JUMP JUMPDEST PUSH1 0x40 MLOAD PUSH2 0x6D9 SWAP2 SWAP1 PUSH2 0x1098 JUMP JUMPDEST PUSH1 0x40 MLOAD DUP1 SWAP2 SUB SWAP1 RETURN JUMPDEST PUSH2 0x6FC PUSH1 0x4 DUP1 CALLDATASIZE SUB DUP2 ADD SWAP1 PUSH2 0x6F7 SWAP2 SWAP1 PUSH2 0xF74 JUMP JUMPDEST PUSH2 0xE94 JUMP JUMPDEST PUSH1 0x40 MLOAD PUSH2 0x709 SWAP2 SWAP1 PUSH2 0xFAE JUMP JUMPDEST PUSH1 0x40 MLOAD DUP1 SWAP2 SUB SWAP1 RETURN JUMPDEST PUSH2 0x71A PUSH2 0xEBF JUMP JUMPDEST STOP JUMPDEST PUSH2 0x724 PUSH2 0xED9 JUMP JUMPDEST PUSH1 0x40 MLOAD PUSH2 0x731 SWAP2 SWAP1 PUSH2 0x1158 JUMP JUMPDEST PUSH1 0x40 MLOAD DUP1 SWAP2 SUB SWAP1 RETURN JUMPDEST PUSH2 0x742 PUSH2 0xEE5 JUMP JUMPDEST PUSH1 0x40 MLOAD PUSH2 0x74F SWAP2 SWAP1 PUSH2 0x1401 JUMP JUMPDEST PUSH1 0x40 MLOAD DUP1 SWAP2 SUB SWAP1 RETURN JUMPDEST PUSH0 DUP2 ISZERO ISZERO PUSH1 0x9 PUSH1 0x14 SWAP1 SLOAD SWAP1 PUSH2 0x100 EXP SWAP1 DIV PUSH1 0xFF AND ISZERO ISZERO SUB PUSH2 0x779 JUMPI PUSH0 PUSH2 0x77C JUMP JUMPDEST PUSH1 0x1 JUMPDEST SWAP1 POP SWAP2 SWAP1 POP JUMP JUMPDEST PUSH1 0xC DUP1 SLOAD DUP1 PUSH2 0x795 JUMPI PUSH2 0x794 PUSH2 0x1421 JUMP JUMPDEST JUMPDEST PUSH1 0x1 SWAP1 SUB DUP2 DUP2 SWAP1 PUSH0 MSTORE PUSH1 0x20 PUSH0 KECCAK256 ADD PUSH0 SWAP1 SSTORE SWAP1 SSTORE JUMP JUMPDEST PUSH1 0xC DUP2 DUP2 SLOAD DUP2 LT PUSH2 0x7BE JUMPI PUSH2 0x7BD PUSH2 0x144E JUMP JUMPDEST JUMPDEST SWAP1 PUSH0 MSTORE PUSH1 0x20 PUSH0 KECCAK256 ADD PUSH0 SWAP1 SSTORE POP JUMP JUMPDEST PUSH0 DUP1 SLOAD SWAP1 PUSH2 0x100 EXP SWAP1 DIV PUSH1 0xFF AND DUP2 JUMP JUMPDEST PUSH0 PUSH1 0x9 PUSH1 0x14 SWAP1 SLOAD SWAP1 PUSH2 0x100 EXP SWAP1 DIV PUSH1 0xFF AND DUP1 ISZERO PUSH2 0x7F6 JUMPI POP DUP2 JUMPDEST PUSH2 0x800 JUMPI PUSH0 PUSH2 0x803 JUMP JUMPDEST PUSH1 0x1 JUMPDEST SWAP1 POP SWAP2 SWAP1 POP JUMP JUMPDEST PUSH0 PUSH1 0xB PUSH0 DUP5 PUSH20 0xFFFFFFFFFFFFFFFFFFFFFFFFFFFFFFFFFFFFFFFF AND PUSH20 0xFFFFFFFFFFFFFFFFFFFFFFFFFFFFFFFFFFFFFFFF AND DUP2 MSTORE PUSH1 0x20 ADD SWAP1 DUP2 MSTORE PUSH1 0x20 ADD PUSH0 KECCAK256 PUSH0 DUP4 DUP2 MSTORE PUSH1 0x20 ADD SWAP1 DUP2 MSTORE PUSH1 0x20 ADD PUSH0 KECCAK256 PUSH0 SWAP1 SLOAD SWAP1 PUSH2 0x100 EXP SWAP1 DIV PUSH1 0xFF AND SWAP1 POP SWAP3 SWAP2 POP POP JUMP JUMPDEST PUSH0 PUSH1 0x1 SLOAD EQ PUSH2 0x87E JUMPI PUSH2 0x87D PUSH2 0x147B JUMP JUMPDEST JUMPDEST JUMP JUMPDEST DUP1 PUSH1 0x1 SLOAD GT PUSH2 0x88F JUMPI PUSH0 PUSH2 0x892 JUMP JUMPDEST PUSH1 0x1 JUMPDEST PUSH1 0x9 PUSH1 0x17 PUSH2 0x100 EXP DUP2 SLOAD DUP2 PUSH1 0xFF MUL NOT AND SWAP1 DUP4 ISZERO ISZERO MUL OR SWAP1 SSTORE POP POP JUMP JUMPDEST PUSH0 PUSH1 0xA PUSH1 0x39 PUSH1 0x1 SLOAD PUSH2 0x8C0 SWAP2 SWAP1 PUSH2 0x14D5 JUMP JUMPDEST PUSH2 0x8CA SWAP2 SWAP1 PUSH2 0x1508 JUMP JUMPDEST SWAP1 POP SWAP1 JUMP JUMPDEST PUSH1 0xE DUP2 PUSH1 0xA DUP2 LT PUSH2 0x8DE JUMPI PUSH0 DUP1 REVERT JUMPDEST ADD PUSH0 SWAP2 POP SWAP1 POP SLOAD DUP2 JUMP JUMPDEST PUSH1 0xC DUP2 SWAP1 DUP1 PUSH1 0x1 DUP2 SLOAD ADD DUP1 DUP3 SSTORE DUP1 SWAP2 POP POP PUSH1 0x1 SWAP1 SUB SWAP1 PUSH0 MSTORE PUSH1 0x20 PUSH0 KECCAK256 ADD PUSH0 SWAP1 SWAP2 SWAP1 SWAP2 SWAP1 SWAP2 POP SSTORE POP JUMP JUMPDEST PUSH1 0x9 PUSH1 0x17 SWAP1 SLOAD SWAP1 PUSH2 0x100 EXP SWAP1 DIV PUSH1 0xFF AND DUP2 JUMP JUMPDEST PUSH1 0x4 DUP1 SLOAD PUSH2 0x931 SWAP1 PUSH2 0x1576 JUMP JUMPDEST DUP1 PUSH1 0x1F ADD PUSH1 0x20 DUP1 SWAP2 DIV MUL PUSH1 0x20 ADD PUSH1 0x40 MLOAD SWAP1 DUP2 ADD PUSH1 0x40 MSTORE DUP1 SWAP3 SWAP2 SWAP1 DUP2 DUP2 MSTORE PUSH1 0x20 ADD DUP3 DUP1 SLOAD PUSH2 0x95D SWAP1 PUSH2 0x1576 JUMP JUMPDEST DUP1 ISZERO PUSH2 0x9A8 JUMPI DUP1 PUSH1 0x1F LT PUSH2 0x97F JUMPI PUSH2 0x100 DUP1 DUP4 SLOAD DIV MUL DUP4 MSTORE SWAP2 PUSH1 0x20 ADD SWAP2 PUSH2 0x9A8 JUMP JUMPDEST DUP3 ADD SWAP2 SWAP1 PUSH0 MSTORE PUSH1 0x20 PUSH0 KECCAK256 SWAP1 JUMPDEST DUP2 SLOAD DUP2 MSTORE SWAP1 PUSH1 0x1 ADD SWAP1 PUSH1 0x20 ADD DUP1 DUP4 GT PUSH2 0x98B JUMPI DUP3 SWAP1 SUB PUSH1 0x1F AND DUP3 ADD SWAP2 JUMPDEST POP POP POP POP POP DUP2 JUMP JUMPDEST PUSH1 0x9 PUSH1 0x14 SWAP1 SLOAD SWAP1 PUSH2 0x100 EXP SWAP1 DIV PUSH1 0xFF AND DUP2 JUMP JUMPDEST DUP1 PUSH1 0xB PUSH0 DUP6 PUSH20 0xFFFFFFFFFFFFFFFFFFFFFFFFFFFFFFFFFFFFFFFF AND PUSH20 0xFFFFFFFFFFFFFFFFFFFFFFFFFFFFFFFFFFFFFFFF AND DUP2 MSTORE PUSH1 0x20 ADD SWAP1 DUP2 MSTORE PUSH1 0x20 ADD PUSH0 KECCAK256 PUSH0 DUP5 DUP2 MSTORE PUSH1 0x20 ADD SWAP1 DUP2 MSTORE PUSH1 0x20 ADD PUSH0 KECCAK256 PUSH0 PUSH2 0x100 EXP DUP2 SLOAD DUP2 PUSH1 0xFF MUL NOT AND SWAP1 DUP4 ISZERO ISZERO MUL OR SWAP1 SSTORE POP POP POP POP JUMP JUMPDEST PUSH1 0xC DUP2 DUP2 SLOAD DUP2 LT PUSH2 0xA3A JUMPI PUSH0 DUP1 REVERT JUMPDEST SWAP1 PUSH0 MSTORE PUSH1 0x20 PUSH0 KECCAK256 ADD PUSH0 SWAP2 POP SWAP1 POP SLOAD DUP2 JUMP JUMPDEST PUSH0 SELFBALANCE SWAP1 POP DUP2 DUP2 LT ISZERO PUSH2 0xA96 JUMPI DUP1 DUP3 PUSH1 0x40 MLOAD PUSH32 0xCF47918100000000000000000000000000000000000000000000000000000000 DUP2 MSTORE PUSH1 0x4 ADD PUSH2 0xA8D SWAP3 SWAP2 SWAP1 PUSH2 0x15A6 JUMP JUMPDEST PUSH1 0x40 MLOAD DUP1 SWAP2 SUB SWAP1 REVERT JUMPDEST POP POP JUMP JUMPDEST PUSH0 PUSH1 0x1 DUP1 SLOAD PUSH2 0xAA9 SWAP2 SWAP1 PUSH2 0x14D5 JUMP JUMPDEST PUSH1 0x1 DUP2 SWAP1 SSTORE SWAP1 POP SWAP1 JUMP JUMPDEST DUP2 PUSH1 0x1 DUP2 SWAP1 SSTORE POP DUP1 PUSH1 0x7 PUSH0 PUSH2 0x100 EXP DUP2 SLOAD DUP2 PUSH20 0xFFFFFFFFFFFFFFFFFFFFFFFFFFFFFFFFFFFFFFFF MUL NOT AND SWAP1 DUP4 PUSH20 0xFFFFFFFFFFFFFFFFFFFFFFFFFFFFFFFFFFFFFFFF AND MUL OR SWAP1 SSTORE POP POP POP JUMP JUMPDEST PUSH1 0xA DUP2 GT ISZERO PUSH2 0xB42 JUMPI PUSH1 0x40 MLOAD PUSH32 0x8C379A000000000000000000000000000000000000000000000000000000000 DUP2 MSTORE PUSH1 0x4 ADD PUSH2 0xB39 SWAP1 PUSH2 0x1617 JUMP JUMPDEST PUSH1 0x40 MLOAD DUP1 SWAP2 SUB SWAP1 REVERT JUMPDEST POP JUMP JUMPDEST PUSH0 PUSH1 0xC DUP3 DUP2 SLOAD DUP2 LT PUSH2 0xB5A JUMPI PUSH2 0xB59 PUSH2 0x144E JUMP JUMPDEST JUMPDEST SWAP1 PUSH0 MSTORE PUSH1 0x20 PUSH0 KECCAK256 ADD SLOAD SWAP1 POP SWAP2 SWAP1 POP JUMP JUMPDEST DUP1 PUSH20 0xFFFFFFFFFFFFFFFFFFFFFFFFFFFFFFFFFFFFFFFF AND PUSH1 0x7 PUSH0 SWAP1 SLOAD SWAP1 PUSH2 0x100 EXP SWAP1 DIV PUSH20 0xFFFFFFFFFFFFFFFFFFFFFFFFFFFFFFFFFFFFFFFF AND PUSH20 0xFFFFFFFFFFFFFFFFFFFFFFFFFFFFFFFFFFFFFFFF AND EQ PUSH1 0x9 PUSH1 0x17 PUSH2 0x100 EXP DUP2 SLOAD DUP2 PUSH1 0xFF MUL NOT AND SWAP1 DUP4 ISZERO ISZERO MUL OR SWAP1 SSTORE POP POP JUMP JUMPDEST PUSH0 DUP1 PUSH2 0x100 EXP DUP2 SLOAD SWAP1 PUSH1 0xFF MUL NOT AND SWAP1 SSTORE JUMP JUMPDEST DUP1 PUSH1 0xA PUSH0 DUP5 PUSH20 0xFFFFFFFFFFFFFFFFFFFFFFFFFFFFFFFFFFFFFFFF AND PUSH20 0xFFFFFFFFFFFFFFFFFFFFFFFFFFFFFFFFFFFFFFFF AND DUP2 MSTORE PUSH1 0x20 ADD SWAP1 DUP2 MSTORE PUSH1 0x20 ADD PUSH0 KECCAK256 DUP2 SWAP1 SSTORE POP POP POP JUMP JUMPDEST PUSH1 0xB PUSH1 0x20 MSTORE DUP2 PUSH0 MSTORE PUSH1 0x40 PUSH0 KECCAK256 PUSH1 0x20 MSTORE DUP1 PUSH0 MSTORE PUSH1 0x40 PUSH0 KECCAK256 PUSH0 SWAP2 POP SWAP2 POP SWAP1 SLOAD SWAP1 PUSH2 0x100 EXP SWAP1 DIV PUSH1 0xFF AND DUP2 JUMP JUMPDEST PUSH0 PUSH1 0x1 PUSH0 DUP2 SLOAD PUSH2 0xC67 SWAP1 PUSH2 0x1635 JUMP JUMPDEST SWAP2 SWAP1 POP DUP2 SWAP1 SSTORE SWAP1 POP SWAP1 JUMP JUMPDEST PUSH0 PUSH1 0xA PUSH0 DUP4 PUSH20 0xFFFFFFFFFFFFFFFFFFFFFFFFFFFFFFFFFFFFFFFF AND PUSH20 0xFFFFFFFFFFFFFFFFFFFFFFFFFFFFFFFFFFFFFFFF AND DUP2 MSTORE PUSH1 0x20 ADD SWAP1 DUP2 MSTORE PUSH1 0x20 ADD PUSH0 KECCAK256 SLOAD SWAP1 POP SWAP2 SWAP1 POP JUMP JUMPDEST PUSH0 PUSH1 0x5 PUSH8 0xFFFFFFFFFFFFFFFF DUP2 GT ISZERO PUSH2 0xCD4 JUMPI PUSH2 0xCD3 PUSH2 0x165C JUMP JUMPDEST JUMPDEST PUSH1 0x40 MLOAD SWAP1 DUP1 DUP3 MSTORE DUP1 PUSH1 0x20 MUL PUSH1 0x20 ADD DUP3 ADD PUSH1 0x40 MSTORE DUP1 ISZERO PUSH2 0xD02 JUMPI DUP2 PUSH1 0x20 ADD PUSH1 0x20 DUP3 MUL DUP1 CALLDATASIZE DUP4 CALLDATACOPY DUP1 DUP3 ADD SWAP2 POP POP SWAP1 POP JUMPDEST POP SWAP1 POP PUSH1 0x1 DUP2 PUSH0 DUP2 MLOAD DUP2 LT PUSH2 0xD1A JUMPI PUSH2 0xD19 PUSH2 0x144E JUMP JUMPDEST JUMPDEST PUSH1 0x20 MUL PUSH1 0x20 ADD ADD DUP2 DUP2 MSTORE POP POP POP JUMP JUMPDEST PUSH1 0xA DUP2 GT PUSH2 0xD6C JUMPI PUSH1 0x40 MLOAD PUSH32 0x8C379A000000000000000000000000000000000000000000000000000000000 DUP2 MSTORE PUSH1 0x4 ADD PUSH2 0xD63 SWAP1 PUSH2 0x1617 JUMP JUMPDEST PUSH1 0x40 MLOAD DUP1 SWAP2 SUB SWAP1 REVERT JUMPDEST POP JUMP JUMPDEST PUSH1 0x1 SLOAD DUP2 JUMP JUMPDEST PUSH0 PUSH1 0x9 PUSH1 0x14 SWAP1 SLOAD SWAP1 PUSH2 0x100 EXP SWAP1 DIV PUSH1 0xFF AND DUP1 PUSH2 0xD8E JUMPI POP DUP2 JUMPDEST PUSH2 0xD98 JUMPI PUSH0 PUSH2 0xD9B JUMP JUMPDEST PUSH1 0x1 JUMPDEST SWAP1 POP SWAP2 SWAP1 POP JUMP JUMPDEST PUSH1 0x7 PUSH0 SWAP1 SLOAD SWAP1 PUSH2 0x100 EXP SWAP1 DIV PUSH20 0xFFFFFFFFFFFFFFFFFFFFFFFFFFFFFFFFFFFFFFFF AND DUP2 JUMP JUMPDEST PUSH1 0xA PUSH0 DUP3 PUSH20 0xFFFFFFFFFFFFFFFFFFFFFFFFFFFFFFFFFFFFFFFF AND PUSH20 0xFFFFFFFFFFFFFFFFFFFFFFFFFFFFFFFFFFFFFFFF AND DUP2 MSTORE PUSH1 0x20 ADD SWAP1 DUP2 MSTORE PUSH1 0x20 ADD PUSH0 KECCAK256 PUSH0 SWAP1 SSTORE POP JUMP JUMPDEST PUSH1 0x4 PUSH0 DUP1 PUSH2 0x100 EXP DUP2 SLOAD DUP2 PUSH1 0xFF MUL NOT AND SWAP1 DUP4 PUSH1 0x4 DUP2 GT ISZERO PUSH2 0xE2E JUMPI PUSH2 0xE2D PUSH2 0x1025 JUMP JUMPDEST JUMPDEST MUL OR SWAP1 SSTORE POP JUMP JUMPDEST DUP1 PUSH0 DUP1 PUSH2 0x100 EXP DUP2 SLOAD DUP2 PUSH1 0xFF MUL NOT AND SWAP1 DUP4 PUSH1 0x4 DUP2 GT ISZERO PUSH2 0xE58 JUMPI PUSH2 0xE57 PUSH2 0x1025 JUMP JUMPDEST JUMPDEST MUL OR SWAP1 SSTORE POP POP JUMP JUMPDEST PUSH1 0xD DUP2 DUP2 SLOAD DUP2 LT PUSH2 0xE6F JUMPI PUSH0 DUP1 REVERT JUMPDEST SWAP1 PUSH0 MSTORE PUSH1 0x20 PUSH0 KECCAK256 ADD PUSH0 SWAP2 POP SWAP1 POP SLOAD DUP2 JUMP JUMPDEST PUSH0 DUP1 PUSH0 SWAP1 SLOAD SWAP1 PUSH2 0x100 EXP SWAP1 DIV PUSH1 0xFF AND SWAP1 POP SWAP1 JUMP JUMPDEST PUSH0 DUP2 ISZERO ISZERO PUSH1 0x9 PUSH1 0x14 SWAP1 SLOAD SWAP1 PUSH2 0x100 EXP SWAP1 DIV PUSH1 0xFF AND ISZERO ISZERO EQ PUSH2 0xEB5 JUMPI PUSH0 PUSH2 0xEB8 JUMP JUMPDEST PUSH1 0x1 JUMPDEST SWAP1 POP SWAP2 SWAP1 POP JUMP JUMPDEST PUSH1 0x1 DUP1 PUSH0 DUP3 DUP3 SLOAD PUSH2 0xED0 SWAP2 SWAP1 PUSH2 0x14D5 JUMP JUMPDEST SWAP3 POP POP DUP2 SWAP1 SSTORE POP JUMP JUMPDEST PUSH0 PUSH1 0xC DUP1 SLOAD SWAP1 POP SWAP1 POP SWAP1 JUMP JUMPDEST PUSH1 0x60 PUSH1 0xC DUP1 SLOAD DUP1 PUSH1 0x20 MUL PUSH1 0x20 ADD PUSH1 0x40 MLOAD SWAP1 DUP2 ADD PUSH1 0x40 MSTORE DUP1 SWAP3 SWAP2 SWAP1 DUP2 DUP2 MSTORE PUSH1 0x20 ADD DUP3 DUP1 SLOAD DUP1 ISZERO PUSH2 0xF31 JUMPI PUSH1 0x20 MUL DUP3 ADD SWAP2 SWAP1 PUSH0 MSTORE PUSH1 0x20 PUSH0 KECCAK256 SWAP1 JUMPDEST DUP2 SLOAD DUP2 MSTORE PUSH1 0x20 ADD SWAP1 PUSH1 0x1 ADD SWAP1 DUP1 DUP4 GT PUSH2 0xF1D JUMPI JUMPDEST POP POP POP POP POP SWAP1 POP SWAP1 JUMP JUMPDEST PUSH0 DUP1 REVERT JUMPDEST PUSH0 DUP2 ISZERO ISZERO SWAP1 POP SWAP2 SWAP1 POP JUMP JUMPDEST PUSH2 0xF53 DUP2 PUSH2 0xF3F JUMP JUMPDEST DUP2 EQ PUSH2 0xF5D JUMPI PUSH0 DUP1 REVERT JUMPDEST POP JUMP JUMPDEST PUSH0 DUP2 CALLDATALOAD SWAP1 POP PUSH2 0xF6E DUP2 PUSH2 0xF4A JUMP JUMPDEST SWAP3 SWAP2 POP POP JUMP JUMPDEST PUSH0 PUSH1 0x20 DUP3 DUP5 SUB SLT ISZERO PUSH2 0xF89 JUMPI PUSH2 0xF88 PUSH2 0xF3B JUMP JUMPDEST JUMPDEST PUSH0 PUSH2 0xF96 DUP5 DUP3 DUP6 ADD PUSH2 0xF60 JUMP JUMPDEST SWAP2 POP POP SWAP3 SWAP2 POP POP JUMP JUMPDEST PUSH2 0xFA8 DUP2 PUSH2 0xF3F JUMP JUMPDEST DUP3 MSTORE POP POP JUMP JUMPDEST PUSH0 PUSH1 0x20 DUP3 ADD SWAP1 POP PUSH2 0xFC1 PUSH0 DUP4 ADD DUP5 PUSH2 0xF9F JUMP JUMPDEST SWAP3 SWAP2 POP POP JUMP JUMPDEST PUSH0 DUP2 SWAP1 POP SWAP2 SWAP1 POP JUMP JUMPDEST PUSH2 0xFD9 DUP2 PUSH2 0xFC7 JUMP JUMPDEST DUP2 EQ PUSH2 0xFE3 JUMPI PUSH0 DUP1 REVERT JUMPDEST POP JUMP JUMPDEST PUSH0 DUP2 CALLDATALOAD SWAP1 POP PUSH2 0xFF4 DUP2 PUSH2 0xFD0 JUMP JUMPDEST SWAP3 SWAP2 POP POP JUMP JUMPDEST PUSH0 PUSH1 0x20 DUP3 DUP5 SUB SLT ISZERO PUSH2 0x100F JUMPI PUSH2 0x100E PUSH2 0xF3B JUMP JUMPDEST JUMPDEST PUSH0 PUSH2 0x101C DUP5 DUP3 DUP6 ADD PUSH2 0xFE6 JUMP JUMPDEST SWAP2 POP POP SWAP3 SWAP2 POP POP JUMP JUMPDEST PUSH32 0x4E487B7100000000000000000000000000000000000000000000000000000000 PUSH0 MSTORE PUSH1 0x21 PUSH1 0x4 MSTORE PUSH1 0x24 PUSH0 REVERT JUMPDEST PUSH1 0x5 DUP2 LT PUSH2 0x1063 JUMPI PUSH2 0x1062 PUSH2 0x1025 JUMP JUMPDEST JUMPDEST POP JUMP JUMPDEST PUSH0 DUP2 SWAP1 POP PUSH2 0x1073 DUP3 PUSH2 0x1052 JUMP JUMPDEST SWAP2 SWAP1 POP JUMP JUMPDEST PUSH0 PUSH2 0x1082 DUP3 PUSH2 0x1066 JUMP JUMPDEST SWAP1 POP SWAP2 SWAP1 POP JUMP JUMPDEST PUSH2 0x1092 DUP2 PUSH2 0x1078 JUMP JUMPDEST DUP3 MSTORE POP POP JUMP JUMPDEST PUSH0 PUSH1 0x20 DUP3 ADD SWAP1 POP PUSH2 0x10AB PUSH0 DUP4 ADD DUP5 PUSH2 0x1089 JUMP JUMPDEST SWAP3 SWAP2 POP POP JUMP JUMPDEST PUSH0 PUSH20 0xFFFFFFFFFFFFFFFFFFFFFFFFFFFFFFFFFFFFFFFF DUP3 AND SWAP1 POP SWAP2 SWAP1 POP JUMP JUMPDEST PUSH0 PUSH2 0x10DA DUP3 PUSH2 0x10B1 JUMP JUMPDEST SWAP1 POP SWAP2 SWAP1 POP JUMP JUMPDEST PUSH2 0x10EA DUP2 PUSH2 0x10D0 JUMP JUMPDEST DUP2 EQ PUSH2 0x10F4 JUMPI PUSH0 DUP1 REVERT JUMPDEST POP JUMP JUMPDEST PUSH0 DUP2 CALLDATALOAD SWAP1 POP PUSH2 0x1105 DUP2 PUSH2 0x10E1 JUMP JUMPDEST SWAP3 SWAP2 POP POP JUMP JUMPDEST PUSH0 DUP1 PUSH1 0x40 DUP4 DUP6 SUB SLT ISZERO PUSH2 0x1121 JUMPI PUSH2 0x1120 PUSH2 0xF3B JUMP JUMPDEST JUMPDEST PUSH0 PUSH2 0x112E DUP6 DUP3 DUP7 ADD PUSH2 0x10F7 JUMP JUMPDEST SWAP3 POP POP PUSH1 0x20 PUSH2 0x113F DUP6 DUP3 DUP7 ADD PUSH2 0xFE6 JUMP JUMPDEST SWAP2 POP POP SWAP3 POP SWAP3 SWAP1 POP JUMP JUMPDEST PUSH2 0x1152 DUP2 PUSH2 0xFC7 JUMP JUMPDEST DUP3 MSTORE POP POP JUMP JUMPDEST PUSH0 PUSH1 0x20 DUP3 ADD SWAP1 POP PUSH2 0x116B PUSH0 DUP4 ADD DUP5 PUSH2 0x1149 JUMP JUMPDEST SWAP3 SWAP2 POP POP JUMP JUMPDEST PUSH0 DUP2 MLOAD SWAP1 POP SWAP2 SWAP1 POP JUMP JUMPDEST PUSH0 DUP3 DUP3 MSTORE PUSH1 0x20 DUP3 ADD SWAP1 POP SWAP3 SWAP2 POP POP JUMP JUMPDEST PUSH0 JUMPDEST DUP4 DUP2 LT ISZERO PUSH2 0x11A8 JUMPI DUP1 DUP3 ADD MLOAD DUP2 DUP5 ADD MSTORE PUSH1 0x20 DUP2 ADD SWAP1 POP PUSH2 0x118D JUMP JUMPDEST PUSH0 DUP5 DUP5 ADD MSTORE POP POP POP POP JUMP JUMPDEST PUSH0 PUSH1 0x1F NOT PUSH1 0x1F DUP4 ADD AND SWAP1 POP SWAP2 SWAP1 POP JUMP JUMPDEST PUSH0 PUSH2 0x11CD DUP3 PUSH2 0x1171 JUMP JUMPDEST PUSH2 0x11D7 DUP2 DUP6 PUSH2 0x117B JUMP JUMPDEST SWAP4 POP PUSH2 0x11E7 DUP2 DUP6 PUSH1 0x20 DUP7 ADD PUSH2 0x118B JUMP JUMPDEST PUSH2 0x11F0 DUP2 PUSH2 0x11B3 JUMP JUMPDEST DUP5 ADD SWAP2 POP POP SWAP3 SWAP2 POP POP JUMP JUMPDEST PUSH0 PUSH1 0x20 DUP3 ADD SWAP1 POP DUP2 DUP2 SUB PUSH0 DUP4 ADD MSTORE PUSH2 0x1213 DUP2 DUP5 PUSH2 0x11C3 JUMP JUMPDEST SWAP1 POP SWAP3 SWAP2 POP POP JUMP JUMPDEST PUSH0 DUP1 PUSH0 PUSH1 0x60 DUP5 DUP7 SUB SLT ISZERO PUSH2 0x1232 JUMPI PUSH2 0x1231 PUSH2 0xF3B JUMP JUMPDEST JUMPDEST PUSH0 PUSH2 0x123F DUP7 DUP3 DUP8 ADD PUSH2 0x10F7 JUMP JUMPDEST SWAP4 POP POP PUSH1 0x20 PUSH2 0x1250 DUP7 DUP3 DUP8 ADD PUSH2 0xFE6 JUMP JUMPDEST SWAP3 POP POP PUSH1 0x40 PUSH2 0x1261 DUP7 DUP3 DUP8 ADD PUSH2 0xF60 JUMP JUMPDEST SWAP2 POP POP SWAP3 POP SWAP3 POP SWAP3 JUMP JUMPDEST PUSH0 DUP1 PUSH1 0x40 DUP4 DUP6 SUB SLT ISZERO PUSH2 0x1281 JUMPI PUSH2 0x1280 PUSH2 0xF3B JUMP JUMPDEST JUMPDEST PUSH0 PUSH2 0x128E DUP6 DUP3 DUP7 ADD PUSH2 0xFE6 JUMP JUMPDEST SWAP3 POP POP PUSH1 0x20 PUSH2 0x129F DUP6 DUP3 DUP7 ADD PUSH2 0x10F7 JUMP JUMPDEST SWAP2 POP POP SWAP3 POP SWAP3 SWAP1 POP JUMP JUMPDEST PUSH0 PUSH1 0x20 DUP3 DUP5 SUB SLT ISZERO PUSH2 0x12BE JUMPI PUSH2 0x12BD PUSH2 0xF3B JUMP JUMPDEST JUMPDEST PUSH0 PUSH2 0x12CB DUP5 DUP3 DUP6 ADD PUSH2 0x10F7 JUMP JUMPDEST SWAP2 POP POP SWAP3 SWAP2 POP POP JUMP JUMPDEST PUSH2 0x12DD DUP2 PUSH2 0x10D0 JUMP JUMPDEST DUP3 MSTORE POP POP JUMP JUMPDEST PUSH0 PUSH1 0x20 DUP3 ADD SWAP1 POP PUSH2 0x12F6 PUSH0 DUP4 ADD DUP5 PUSH2 0x12D4 JUMP JUMPDEST SWAP3 SWAP2 POP POP JUMP JUMPDEST PUSH1 0x5 DUP2 LT PUSH2 0x1308 JUMPI PUSH0 DUP1 REVERT JUMPDEST POP JUMP JUMPDEST PUSH0 DUP2 CALLDATALOAD SWAP1 POP PUSH2 0x1319 DUP2 PUSH2 0x12FC JUMP JUMPDEST SWAP3 SWAP2 POP POP JUMP JUMPDEST PUSH0 PUSH1 0x20 DUP3 DUP5 SUB SLT ISZERO PUSH2 0x1334 JUMPI PUSH2 0x1333 PUSH2 0xF3B JUMP JUMPDEST JUMPDEST PUSH0 PUSH2 0x1341 DUP5 DUP3 DUP6 ADD PUSH2 0x130B JUMP JUMPDEST SWAP2 POP POP SWAP3 SWAP2 POP POP JUMP JUMPDEST PUSH0 DUP2 MLOAD SWAP1 POP SWAP2 SWAP1 POP JUMP JUMPDEST PUSH0 DUP3 DUP3 MSTORE PUSH1 0x20 DUP3 ADD SWAP1 POP SWAP3 SWAP2 POP POP JUMP JUMPDEST PUSH0 DUP2 SWAP1 POP PUSH1 0x20 DUP3 ADD SWAP1 POP SWAP2 SWAP1 POP JUMP JUMPDEST PUSH2 0x137C DUP2 PUSH2 0xFC7 JUMP JUMPDEST DUP3 MSTORE POP POP JUMP JUMPDEST PUSH0 PUSH2 0x138D DUP4 DUP4 PUSH2 0x1373 JUMP JUMPDEST PUSH1 0x20 DUP4 ADD SWAP1 POP SWAP3 SWAP2 POP POP JUMP JUMPDEST PUSH0 PUSH1 0x20 DUP3 ADD SWAP1 POP SWAP2 SWAP1 POP JUMP JUMPDEST PUSH0 PUSH2 0x13AF DUP3 PUSH2 0x134A JUMP JUMPDEST PUSH2 0x13B9 DUP2 DUP6 PUSH2 0x1354 JUMP JUMPDEST SWAP4 POP PUSH2 0x13C4 DUP4 PUSH2 0x1364 JUMP JUMPDEST DUP1 PUSH0 JUMPDEST DUP4 DUP2 LT ISZERO PUSH2 0x13F4 JUMPI DUP2 MLOAD PUSH2 0x13DB DUP9 DUP3 PUSH2 0x1382 JUMP JUMPDEST SWAP8 POP PUSH2 0x13E6 DUP4 PUSH2 0x1399 JUMP JUMPDEST SWAP3 POP POP PUSH1 0x1 DUP2 ADD SWAP1 POP PUSH2 0x13C7 JUMP JUMPDEST POP DUP6 SWAP4 POP POP POP POP SWAP3 SWAP2 POP POP JUMP JUMPDEST PUSH0 PUSH1 0x20 DUP3 ADD SWAP1 POP DUP2 DUP2 SUB PUSH0 DUP4 ADD MSTORE PUSH2 0x1419 DUP2 DUP5 PUSH2 0x13A5 JUMP JUMPDEST SWAP1 POP SWAP3 SWAP2 POP POP JUMP JUMPDEST PUSH32 0x4E487B7100000000000000000000000000000000000000000000000000000000 PUSH0 MSTORE PUSH1 0x31 PUSH1 0x4 MSTORE PUSH1 0x24 PUSH0 REVERT JUMPDEST PUSH32 0x4E487B7100000000000000000000000000000000000000000000000000000000 PUSH0 MSTORE PUSH1 0x32 PUSH1 0x4 MSTORE PUSH1 0x24 PUSH0 REVERT JUMPDEST PUSH32 0x4E487B7100000000000000000000000000000000000000000000000000000000 PUSH0 MSTORE PUSH1 0x1 PUSH1 0x4 MSTORE PUSH1 0x24 PUSH0 REVERT JUMPDEST PUSH32 0x4E487B7100000000000000000000000000000000000000000000000000000000 PUSH0 MSTORE PUSH1 0x11 PUSH1 0x4 MSTORE PUSH1 0x24 PUSH0 REVERT JUMPDEST PUSH0 PUSH2 0x14DF DUP3 PUSH2 0xFC7 JUMP JUMPDEST SWAP2 POP PUSH2 0x14EA DUP4 PUSH2 0xFC7 JUMP JUMPDEST SWAP3 POP DUP3 DUP3 ADD SWAP1 POP DUP1 DUP3 GT ISZERO PUSH2 0x1502 JUMPI PUSH2 0x1501 PUSH2 0x14A8 JUMP JUMPDEST JUMPDEST SWAP3 SWAP2 POP POP JUMP JUMPDEST PUSH0 PUSH2 0x1512 DUP3 PUSH2 0xFC7 JUMP JUMPDEST SWAP2 POP PUSH2 0x151D DUP4 PUSH2 0xFC7 JUMP JUMPDEST SWAP3 POP DUP3 DUP3 MUL PUSH2 0x152B DUP2 PUSH2 0xFC7 JUMP JUMPDEST SWAP2 POP DUP3 DUP3 DIV DUP5 EQ DUP4 ISZERO OR PUSH2 0x1542 JUMPI PUSH2 0x1541 PUSH2 0x14A8 JUMP JUMPDEST JUMPDEST POP SWAP3 SWAP2 POP POP JUMP JUMPDEST PUSH32 0x4E487B7100000000000000000000000000000000000000000000000000000000 PUSH0 MSTORE PUSH1 0x22 PUSH1 0x4 MSTORE PUSH1 0x24 PUSH0 REVERT JUMPDEST PUSH0 PUSH1 0x2 DUP3 DIV SWAP1 POP PUSH1 0x1 DUP3 AND DUP1 PUSH2 0x158D JUMPI PUSH1 0x7F DUP3 AND SWAP2 POP JUMPDEST PUSH1 0x20 DUP3 LT DUP2 SUB PUSH2 0x15A0 JUMPI PUSH2 0x159F PUSH2 0x1549 JUMP JUMPDEST JUMPDEST POP SWAP2 SWAP1 POP JUMP JUMPDEST PUSH0 PUSH1 0x40 DUP3 ADD SWAP1 POP PUSH2 0x15B9 PUSH0 DUP4 ADD DUP6 PUSH2 0x1149 JUMP JUMPDEST PUSH2 0x15C6 PUSH1 0x20 DUP4 ADD DUP5 PUSH2 0x1149 JUMP JUMPDEST SWAP4 SWAP3 POP POP POP JUMP JUMPDEST PUSH32 0x496E707574206D7573742062652067726561746572207468616E203130000000 PUSH0 DUP3 ADD MSTORE POP JUMP JUMPDEST PUSH0 PUSH2 0x1601 PUSH1 0x1D DUP4 PUSH2 0x117B JUMP JUMPDEST SWAP2 POP PUSH2 0x160C DUP3 PUSH2 0x15CD JUMP JUMPDEST PUSH1 0x20 DUP3 ADD SWAP1 POP SWAP2 SWAP1 POP JUMP JUMPDEST PUSH0 PUSH1 0x20 DUP3 ADD SWAP1 POP DUP2 DUP2 SUB PUSH0 DUP4 ADD MSTORE PUSH2 0x162E DUP2 PUSH2 0x15F5 JUMP JUMPDEST SWAP1 POP SWAP2 SWAP1 POP JUMP JUMPDEST PUSH0 PUSH2 0x163F DUP3 PUSH2 0xFC7 JUMP JUMPDEST SWAP2 POP PUSH0 DUP3 SUB PUSH2 0x1651 JUMPI PUSH2 0x1650 PUSH2 0x14A8 JUMP JUMPDEST JUMPDEST PUSH1 0x1 DUP3 SUB SWAP1 POP SWAP2 SWAP1 POP JUMP JUMPDEST PUSH32 0x4E487B7100000000000000000000000000000000000000000000000000000000 PUSH0 MSTORE PUSH1 0x41 PUSH1 0x4 MSTORE PUSH1 0x24 PUSH0 REVERT INVALID LOG2 PUSH5 0x6970667358 0x22 SLT KECCAK256 SWAP11 0xBD PUSH16 0x4D29A09C6D5479C6A3B078A2783CEAA5 GASLIMIT 0xBB 0xFC 0xCC TIMESTAMP 0xAE EQ 0x4D 0xF OR 0xC3 0x2F SWAP11 PUSH5 0x736F6C6343 STOP ADDMOD AND STOP CALLER "
				},
				"gasEstimates": {
					"creation": {
						"codeDepositCost": "1164600",
						"executionCost": "infinite",
						"totalCost": "infinite"
					},
					"external": {
						"arr(uint256)": "infinite",
						"arr2(uint256)": "infinite",
						"cancelEnum()": "24540",
						"compareAddresses(address)": "26987",
						"comparisonResult()": "2585",
						"dec()": "infinite",
						"delAddr(address)": "5634",
						"examplesArr()": "491",
						"get(uint256)": "infinite",
						"getAddr(address)": "2896",
						"getArr()": "infinite",
						"getBoolFour(bool)": "infinite",
						"getBoolOne(bool)": "infinite",
						"getBoolThreee(bool)": "infinite",
						"getBoolTwo(bool)": "infinite",
						"getEnum()": "2627",
						"getLengthArr()": "2572",
						"getPayments(address,uint256)": "3163",
						"inc()": "infinite",
						"incrementNimber()": "infinite",
						"iniziallize(uint256,address)": "47111",
						"myAddr()": "2575",
						"myBool()": "2629",
						"myFixedSizeArray(uint256)": "infinite",
						"myStr()": "infinite",
						"myVar()": "2558",
						"ovwerFlow()": "infinite",
						"payments(address,uint256)": "3205",
						"popArr()": "29510",
						"pushArr(uint256)": "46867",
						"removeArr(uint256)": "7678",
						"resetEnum()": "24474",
						"setAddr(address,uint256)": "22934",
						"setEnum(uint8)": "24778",
						"setPayments(address,uint256,bool)": "25357",
						"status()": "2664",
						"ternarnyOperation(uint256)": "26941",
						"testAssert()": "2360",
						"testCustomError(uint256)": "infinite",
						"testRequire(uint256)": "817",
						"testReveert(uint256)": "842"
					}
				},
				"methodIdentifiers": {
					"arr(uint256)": "71e5ee5f",
					"arr2(uint256)": "edf0099b",
					"cancelEnum()": "e867ec26",
					"compareAddresses(address)": "98ccfa54",
					"comparisonResult()": "50bdd16c",
					"dec()": "b3bcfa82",
					"delAddr(address)": "e784f5b1",
					"examplesArr()": "b620df2a",
					"get(uint256)": "9507d39a",
					"getAddr(address)": "b4108a94",
					"getArr()": "fb8cbced",
					"getBoolFour(bool)": "e5860d12",
					"getBoolOne(bool)": "f10a31a1",
					"getBoolThreee(bool)": "235211f1",
					"getBoolTwo(bool)": "00d77e89",
					"getEnum()": "f0ebce5a",
					"getLengthArr()": "faf264bb",
					"getPayments(address,uint256)": "28f2d6cd",
					"inc()": "371303c0",
					"incrementNimber()": "f91562fe",
					"iniziallize(uint256,address)": "8dca72c7",
					"myAddr()": "e665b266",
					"myBool()": "6deecdbe",
					"myFixedSizeArray(uint256)": "4620b023",
					"myStr()": "5a455c1c",
					"myVar()": "c6b91540",
					"ovwerFlow()": "7a9632a8",
					"payments(address,uint256)": "ab63385c",
					"popArr()": "02899203",
					"pushArr(uint256)": "4bfec157",
					"removeArr(uint256)": "1c657043",
					"resetEnum()": "9b37ec4d",
					"setAddr(address,uint256)": "a4d396ca",
					"setEnum(uint8)": "ec1dfc7b",
					"setPayments(address,uint256,bool)": "701b3305",
					"status()": "200d2ed2",
					"ternarnyOperation(uint256)": "2cc0ad31",
					"testAssert()": "2b813bc0",
					"testCustomError(uint256)": "75f7286c",
					"testRequire(uint256)": "b8bd717f",
					"testReveert(uint256)": "9305e917"
				}
			},
			"storageLayout": {
				"storage": [
					{
						"astId": 10,
						"contract": "my-hardhat-project/practice telegram module 1/Lesson15ResultsOfTheWeek.sol:Lesson15",
						"label": "status",
						"offset": 0,
						"slot": "0",
						"type": "t_enum(Status)7"
					},
					{
						"astId": 12,
						"contract": "my-hardhat-project/practice telegram module 1/Lesson15ResultsOfTheWeek.sol:Lesson15",
						"label": "myVar",
						"offset": 0,
						"slot": "1",
						"type": "t_uint256"
					},
					{
						"astId": 14,
						"contract": "my-hardhat-project/practice telegram module 1/Lesson15ResultsOfTheWeek.sol:Lesson15",
						"label": "secVar",
						"offset": 0,
						"slot": "2",
						"type": "t_uint256"
					},
					{
						"astId": 16,
						"contract": "my-hardhat-project/practice telegram module 1/Lesson15ResultsOfTheWeek.sol:Lesson15",
						"label": "threeVar",
						"offset": 0,
						"slot": "3",
						"type": "t_int256"
					},
					{
						"astId": 18,
						"contract": "my-hardhat-project/practice telegram module 1/Lesson15ResultsOfTheWeek.sol:Lesson15",
						"label": "myStr",
						"offset": 0,
						"slot": "4",
						"type": "t_string_storage"
					},
					{
						"astId": 20,
						"contract": "my-hardhat-project/practice telegram module 1/Lesson15ResultsOfTheWeek.sol:Lesson15",
						"label": "secStr",
						"offset": 0,
						"slot": "5",
						"type": "t_string_storage"
					},
					{
						"astId": 22,
						"contract": "my-hardhat-project/practice telegram module 1/Lesson15ResultsOfTheWeek.sol:Lesson15",
						"label": "threeStr",
						"offset": 0,
						"slot": "6",
						"type": "t_string_storage"
					},
					{
						"astId": 24,
						"contract": "my-hardhat-project/practice telegram module 1/Lesson15ResultsOfTheWeek.sol:Lesson15",
						"label": "myAddr",
						"offset": 0,
						"slot": "7",
						"type": "t_address"
					},
					{
						"astId": 26,
						"contract": "my-hardhat-project/practice telegram module 1/Lesson15ResultsOfTheWeek.sol:Lesson15",
						"label": "secAddr",
						"offset": 0,
						"slot": "8",
						"type": "t_address"
					},
					{
						"astId": 28,
						"contract": "my-hardhat-project/practice telegram module 1/Lesson15ResultsOfTheWeek.sol:Lesson15",
						"label": "threeAddr",
						"offset": 0,
						"slot": "9",
						"type": "t_address_payable"
					},
					{
						"astId": 30,
						"contract": "my-hardhat-project/practice telegram module 1/Lesson15ResultsOfTheWeek.sol:Lesson15",
						"label": "myBool",
						"offset": 20,
						"slot": "9",
						"type": "t_bool"
					},
					{
						"astId": 32,
						"contract": "my-hardhat-project/practice telegram module 1/Lesson15ResultsOfTheWeek.sol:Lesson15",
						"label": "secBiool",
						"offset": 21,
						"slot": "9",
						"type": "t_bool"
					},
					{
						"astId": 34,
						"contract": "my-hardhat-project/practice telegram module 1/Lesson15ResultsOfTheWeek.sol:Lesson15",
						"label": "threeBool",
						"offset": 22,
						"slot": "9",
						"type": "t_bool"
					},
					{
						"astId": 36,
						"contract": "my-hardhat-project/practice telegram module 1/Lesson15ResultsOfTheWeek.sol:Lesson15",
						"label": "comparisonResult",
						"offset": 23,
						"slot": "9",
						"type": "t_bool"
					},
					{
						"astId": 46,
						"contract": "my-hardhat-project/practice telegram module 1/Lesson15ResultsOfTheWeek.sol:Lesson15",
						"label": "balances",
						"offset": 0,
						"slot": "10",
						"type": "t_mapping(t_address,t_uint256)"
					},
					{
						"astId": 52,
						"contract": "my-hardhat-project/practice telegram module 1/Lesson15ResultsOfTheWeek.sol:Lesson15",
						"label": "payments",
						"offset": 0,
						"slot": "11",
						"type": "t_mapping(t_address,t_mapping(t_uint256,t_bool))"
					},
					{
						"astId": 55,
						"contract": "my-hardhat-project/practice telegram module 1/Lesson15ResultsOfTheWeek.sol:Lesson15",
						"label": "arr",
						"offset": 0,
						"slot": "12",
						"type": "t_array(t_uint256)dyn_storage"
					},
					{
						"astId": 62,
						"contract": "my-hardhat-project/practice telegram module 1/Lesson15ResultsOfTheWeek.sol:Lesson15",
						"label": "arr2",
						"offset": 0,
						"slot": "13",
						"type": "t_array(t_uint256)dyn_storage"
					},
					{
						"astId": 66,
						"contract": "my-hardhat-project/practice telegram module 1/Lesson15ResultsOfTheWeek.sol:Lesson15",
						"label": "myFixedSizeArray",
						"offset": 0,
						"slot": "14",
						"type": "t_array(t_uint256)10_storage"
					}
				],
				"types": {
					"t_address": {
						"encoding": "inplace",
						"label": "address",
						"numberOfBytes": "20"
					},
					"t_address_payable": {
						"encoding": "inplace",
						"label": "address payable",
						"numberOfBytes": "20"
					},
					"t_array(t_uint256)10_storage": {
						"base": "t_uint256",
						"encoding": "inplace",
						"label": "uint256[10]",
						"numberOfBytes": "320"
					},
					"t_array(t_uint256)dyn_storage": {
						"base": "t_uint256",
						"encoding": "dynamic_array",
						"label": "uint256[]",
						"numberOfBytes": "32"
					},
					"t_bool": {
						"encoding": "inplace",
						"label": "bool",
						"numberOfBytes": "1"
					},
					"t_enum(Status)7": {
						"encoding": "inplace",
						"label": "enum Lesson15.Status",
						"numberOfBytes": "1"
					},
					"t_int256": {
						"encoding": "inplace",
						"label": "int256",
						"numberOfBytes": "32"
					},
					"t_mapping(t_address,t_mapping(t_uint256,t_bool))": {
						"encoding": "mapping",
						"key": "t_address",
						"label": "mapping(address => mapping(uint256 => bool))",
						"numberOfBytes": "32",
						"value": "t_mapping(t_uint256,t_bool)"
					},
					"t_mapping(t_address,t_uint256)": {
						"encoding": "mapping",
						"key": "t_address",
						"label": "mapping(address => uint256)",
						"numberOfBytes": "32",
						"value": "t_uint256"
					},
					"t_mapping(t_uint256,t_bool)": {
						"encoding": "mapping",
						"key": "t_uint256",
						"label": "mapping(uint256 => bool)",
						"numberOfBytes": "32",
						"value": "t_bool"
					},
					"t_string_storage": {
						"encoding": "bytes",
						"label": "string",
						"numberOfBytes": "32"
					},
					"t_uint256": {
						"encoding": "inplace",
						"label": "uint256",
						"numberOfBytes": "32"
					}
				}
			},
			"userdoc": {
				"kind": "user",
				"methods": {},
				"version": 1
			}
		}
	}
}