{
	"LessonUint.sol": {
		"LessonUint": {
			"abi": [
				{
					"inputs": [],
					"name": "cast",
					"outputs": [
						{
							"internalType": "uint112",
							"name": "",
							"type": "uint112"
						}
					],
					"stateMutability": "view",
					"type": "function"
				},
				{
					"inputs": [],
					"name": "dec",
					"outputs": [
						{
							"internalType": "uint256",
							"name": "",
							"type": "uint256"
						}
					],
					"stateMutability": "nonpayable",
					"type": "function"
				},
				{
					"inputs": [],
					"name": "firstBool",
					"outputs": [
						{
							"internalType": "bool",
							"name": "",
							"type": "bool"
						}
					],
					"stateMutability": "view",
					"type": "function"
				},
				{
					"inputs": [],
					"name": "inc",
					"outputs": [
						{
							"internalType": "uint256",
							"name": "",
							"type": "uint256"
						}
					],
					"stateMutability": "view",
					"type": "function"
				},
				{
					"inputs": [],
					"name": "maxVal",
					"outputs": [
						{
							"internalType": "uint8",
							"name": "",
							"type": "uint8"
						}
					],
					"stateMutability": "view",
					"type": "function"
				},
				{
					"inputs": [],
					"name": "myEther",
					"outputs": [
						{
							"internalType": "uint256",
							"name": "",
							"type": "uint256"
						}
					],
					"stateMutability": "view",
					"type": "function"
				},
				{
					"inputs": [],
					"name": "myNum",
					"outputs": [
						{
							"internalType": "uint256",
							"name": "",
							"type": "uint256"
						}
					],
					"stateMutability": "view",
					"type": "function"
				},
				{
					"inputs": [],
					"name": "notOverFlow",
					"outputs": [
						{
							"internalType": "uint256",
							"name": "",
							"type": "uint256"
						}
					],
					"stateMutability": "nonpayable",
					"type": "function"
				},
				{
					"inputs": [],
					"name": "overFlow",
					"outputs": [
						{
							"internalType": "uint256",
							"name": "",
							"type": "uint256"
						}
					],
					"stateMutability": "nonpayable",
					"type": "function"
				}
			],
			"devdoc": {
				"kind": "dev",
				"methods": {},
				"version": 1
			},
			"evm": {
				"assembly": "    /* \"LessonUint.sol\":61:1401  contract LessonUint{... */\n  mstore(0x40, 0x80)\n    /* \"LessonUint.sol\":175:178  255 */\n  0xff\n    /* \"LessonUint.sol\":153:178  uint8 public maxVal = 255 */\n  0x00\n  exp(0x0100, 0x01)\n  dup2\n  sload\n  dup2\n  0xff\n  mul\n  not\n  and\n  swap1\n  dup4\n  0xff\n  and\n  mul\n  or\n  swap1\n  sstore\n  pop\n    /* \"LessonUint.sol\":237:246  100 ether */\n  0x056bc75e2d63100000\n    /* \"LessonUint.sol\":212:246  uint256 public myEther = 100 ether */\n  0x02\n  sstore\n    /* \"LessonUint.sol\":61:1401  contract LessonUint{... */\n  callvalue\n  dup1\n  iszero\n  tag_1\n  jumpi\n  0x00\n  dup1\n  revert\ntag_1:\n  pop\n  dataSize(sub_0)\n  dup1\n  dataOffset(sub_0)\n  0x00\n  codecopy\n  0x00\n  return\nstop\n\nsub_0: assembly {\n        /* \"LessonUint.sol\":61:1401  contract LessonUint{... */\n      mstore(0x40, 0x80)\n      callvalue\n      dup1\n      iszero\n      tag_1\n      jumpi\n      0x00\n      dup1\n      revert\n    tag_1:\n      pop\n      jumpi(tag_2, lt(calldatasize, 0x04))\n      shr(0xe0, calldataload(0x00))\n      dup1\n      0x96d373e5\n      gt\n      tag_12\n      jumpi\n      dup1\n      0x96d373e5\n      eq\n      tag_7\n      jumpi\n      dup1\n      0xb3bcfa82\n      eq\n      tag_8\n      jumpi\n      dup1\n      0xc1ab4443\n      eq\n      tag_9\n      jumpi\n      dup1\n      0xd4da005a\n      eq\n      tag_10\n      jumpi\n      dup1\n      0xd62a1209\n      eq\n      tag_11\n      jumpi\n      jump(tag_2)\n    tag_12:\n      dup1\n      0x169b32c3\n      eq\n      tag_3\n      jumpi\n      dup1\n      0x371303c0\n      eq\n      tag_4\n      jumpi\n      dup1\n      0x836dea0b\n      eq\n      tag_5\n      jumpi\n      dup1\n      0x88fc1738\n      eq\n      tag_6\n      jumpi\n    tag_2:\n      0x00\n      dup1\n      revert\n        /* \"LessonUint.sol\":93:114  bool public firstBool */\n    tag_3:\n      tag_13\n      tag_14\n      jump\t// in\n    tag_13:\n      mload(0x40)\n      tag_15\n      swap2\n      swap1\n      tag_16\n      jump\t// in\n    tag_15:\n      mload(0x40)\n      dup1\n      swap2\n      sub\n      swap1\n      return\n        /* \"LessonUint.sol\":323:418  function inc() external view returns (uint256) {     ... */\n    tag_4:\n      tag_17\n      tag_18\n      jump\t// in\n    tag_17:\n      mload(0x40)\n      tag_19\n      swap2\n      swap1\n      tag_20\n      jump\t// in\n    tag_19:\n      mload(0x40)\n      dup1\n      swap2\n      sub\n      swap1\n      return\n        /* \"LessonUint.sol\":212:246  uint256 public myEther = 100 ether */\n    tag_5:\n      tag_21\n      tag_22\n      jump\t// in\n    tag_21:\n      mload(0x40)\n      tag_23\n      swap2\n      swap1\n      tag_20\n      jump\t// in\n    tag_23:\n      mload(0x40)\n      dup1\n      swap2\n      sub\n      swap1\n      return\n        /* \"LessonUint.sol\":713:809  function overFlow() external returns (uint256) {     ... */\n    tag_6:\n      tag_24\n      tag_25\n      jump\t// in\n    tag_24:\n      mload(0x40)\n      tag_26\n      swap2\n      swap1\n      tag_20\n      jump\t// in\n    tag_26:\n      mload(0x40)\n      dup1\n      swap2\n      sub\n      swap1\n      return\n        /* \"LessonUint.sol\":1303:1396  function cast() external view returns (uint112) {     ... */\n    tag_7:\n      tag_27\n      tag_28\n      jump\t// in\n    tag_27:\n      mload(0x40)\n      tag_29\n      swap2\n      swap1\n      tag_30\n      jump\t// in\n    tag_29:\n      mload(0x40)\n      dup1\n      swap2\n      sub\n      swap1\n      return\n        /* \"LessonUint.sol\":500:580  function dec() external returns (uint256) {     ... */\n    tag_8:\n      tag_31\n      tag_32\n      jump\t// in\n    tag_31:\n      mload(0x40)\n      tag_33\n      swap2\n      swap1\n      tag_20\n      jump\t// in\n    tag_33:\n      mload(0x40)\n      dup1\n      swap2\n      sub\n      swap1\n      return\n        /* \"LessonUint.sol\":925:1055  function notOverFlow() external returns (uint256) {     ... */\n    tag_9:\n      tag_34\n      tag_35\n      jump\t// in\n    tag_34:\n      mload(0x40)\n      tag_36\n      swap2\n      swap1\n      tag_20\n      jump\t// in\n    tag_36:\n      mload(0x40)\n      dup1\n      swap2\n      sub\n      swap1\n      return\n        /* \"LessonUint.sol\":185:205  uint256 public myNum */\n    tag_10:\n      tag_37\n      tag_38\n      jump\t// in\n    tag_37:\n      mload(0x40)\n      tag_39\n      swap2\n      swap1\n      tag_20\n      jump\t// in\n    tag_39:\n      mload(0x40)\n      dup1\n      swap2\n      sub\n      swap1\n      return\n        /* \"LessonUint.sol\":153:178  uint8 public maxVal = 255 */\n    tag_11:\n      tag_40\n      tag_41\n      jump\t// in\n    tag_40:\n      mload(0x40)\n      tag_42\n      swap2\n      swap1\n      tag_43\n      jump\t// in\n    tag_42:\n      mload(0x40)\n      dup1\n      swap2\n      sub\n      swap1\n      return\n        /* \"LessonUint.sol\":93:114  bool public firstBool */\n    tag_14:\n      0x00\n      dup1\n      sload\n      swap1\n      0x0100\n      exp\n      swap1\n      div\n      0xff\n      and\n      dup2\n      jump\t// out\n        /* \"LessonUint.sol\":323:418  function inc() external view returns (uint256) {     ... */\n    tag_18:\n        /* \"LessonUint.sol\":361:368  uint256 */\n      0x00\n        /* \"LessonUint.sol\":408:410  10 */\n      0x0a\n        /* \"LessonUint.sol\":144:146  32 */\n      0x20\n        /* \"LessonUint.sol\":393:404  myNum+FIXED */\n      0xff\n      and\n        /* \"LessonUint.sol\":393:398  myNum */\n      sload(0x01)\n        /* \"LessonUint.sol\":393:404  myNum+FIXED */\n      tag_45\n      swap2\n      swap1\n      tag_46\n      jump\t// in\n    tag_45:\n        /* \"LessonUint.sol\":392:410  (myNum+FIXED) * 10 */\n      tag_47\n      swap2\n      swap1\n      tag_48\n      jump\t// in\n    tag_47:\n        /* \"LessonUint.sol\":385:410  return (myNum+FIXED) * 10 */\n      swap1\n      pop\n        /* \"LessonUint.sol\":323:418  function inc() external view returns (uint256) {     ... */\n      swap1\n      jump\t// out\n        /* \"LessonUint.sol\":212:246  uint256 public myEther = 100 ether */\n    tag_22:\n      sload(0x02)\n      dup2\n      jump\t// out\n        /* \"LessonUint.sol\":713:809  function overFlow() external returns (uint256) {     ... */\n    tag_25:\n        /* \"LessonUint.sol\":751:758  uint256 */\n      0x00\n        /* \"LessonUint.sol\":800:801  1 */\n      0x01\n        /* \"LessonUint.sol\":791:797  maxVal */\n      0x00\n      0x01\n      swap1\n      sload\n      swap1\n      0x0100\n      exp\n      swap1\n      div\n      0xff\n      and\n        /* \"LessonUint.sol\":791:801  maxVal + 1 */\n      tag_50\n      swap2\n      swap1\n      tag_51\n      jump\t// in\n    tag_50:\n        /* \"LessonUint.sol\":782:788  maxVal */\n      0x00\n      0x01\n        /* \"LessonUint.sol\":782:801  maxVal = maxVal + 1 */\n      0x0100\n      exp\n      dup2\n      sload\n      dup2\n      0xff\n      mul\n      not\n      and\n      swap1\n      dup4\n      0xff\n      and\n      mul\n      or\n      swap1\n      sstore\n        /* \"LessonUint.sol\":775:801  return maxVal = maxVal + 1 */\n      0xff\n      and\n      swap1\n      pop\n        /* \"LessonUint.sol\":713:809  function overFlow() external returns (uint256) {     ... */\n      swap1\n      jump\t// out\n        /* \"LessonUint.sol\":1303:1396  function cast() external view returns (uint112) {     ... */\n    tag_28:\n        /* \"LessonUint.sol\":1342:1349  uint112 */\n      0x00\n        /* \"LessonUint.sol\":1380:1387  myEther */\n      sload(0x02)\n        /* \"LessonUint.sol\":1366:1388  return uint64(myEther) */\n      0xffffffffffffffff\n      and\n      swap1\n      pop\n        /* \"LessonUint.sol\":1303:1396  function cast() external view returns (uint112) {     ... */\n      swap1\n      jump\t// out\n        /* \"LessonUint.sol\":500:580  function dec() external returns (uint256) {     ... */\n    tag_32:\n        /* \"LessonUint.sol\":533:540  uint256 */\n      0x00\n        /* \"LessonUint.sol\":566:572  maxVal */\n      dup1\n      0x01\n        /* \"LessonUint.sol\":564:572  --maxVal */\n      dup2\n      dup2\n      swap1\n      sload\n      swap1\n      0x0100\n      exp\n      swap1\n      div\n      0xff\n      and\n      tag_54\n      swap1\n      tag_55\n      jump\t// in\n    tag_54:\n      swap2\n      swap1\n      0x0100\n      exp\n      dup2\n      sload\n      dup2\n      0xff\n      mul\n      not\n      and\n      swap1\n      dup4\n      0xff\n      and\n      mul\n      or\n      swap1\n      sstore\n        /* \"LessonUint.sol\":557:572  return --maxVal */\n      0xff\n      and\n      swap1\n      pop\n        /* \"LessonUint.sol\":500:580  function dec() external returns (uint256) {     ... */\n      swap1\n      jump\t// out\n        /* \"LessonUint.sol\":925:1055  function notOverFlow() external returns (uint256) {     ... */\n    tag_35:\n        /* \"LessonUint.sol\":966:973  uint256 */\n      0x00\n        /* \"LessonUint.sol\":1036:1037  1 */\n      0x01\n        /* \"LessonUint.sol\":1027:1033  maxVal */\n      0x00\n      0x01\n      swap1\n      sload\n      swap1\n      0x0100\n      exp\n      swap1\n      div\n      0xff\n      and\n        /* \"LessonUint.sol\":1027:1037  maxVal + 1 */\n      add\n        /* \"LessonUint.sol\":1018:1024  maxVal */\n      0x00\n      0x01\n        /* \"LessonUint.sol\":1018:1037  maxVal = maxVal + 1 */\n      0x0100\n      exp\n      dup2\n      sload\n      dup2\n      0xff\n      mul\n      not\n      and\n      swap1\n      dup4\n      0xff\n      and\n      mul\n      or\n      swap1\n      sstore\n        /* \"LessonUint.sol\":1011:1037  return maxVal = maxVal + 1 */\n      0xff\n      and\n      swap1\n      pop\n        /* \"LessonUint.sol\":925:1055  function notOverFlow() external returns (uint256) {     ... */\n      swap1\n      jump\t// out\n        /* \"LessonUint.sol\":185:205  uint256 public myNum */\n    tag_38:\n      sload(0x01)\n      dup2\n      jump\t// out\n        /* \"LessonUint.sol\":153:178  uint8 public maxVal = 255 */\n    tag_41:\n      0x00\n      0x01\n      swap1\n      sload\n      swap1\n      0x0100\n      exp\n      swap1\n      div\n      0xff\n      and\n      dup2\n      jump\t// out\n        /* \"#utility.yul\":7:97   */\n    tag_57:\n        /* \"#utility.yul\":41:48   */\n      0x00\n        /* \"#utility.yul\":84:89   */\n      dup2\n        /* \"#utility.yul\":77:90   */\n      iszero\n        /* \"#utility.yul\":70:91   */\n      iszero\n        /* \"#utility.yul\":59:91   */\n      swap1\n      pop\n        /* \"#utility.yul\":7:97   */\n      swap2\n      swap1\n      pop\n      jump\t// out\n        /* \"#utility.yul\":103:212   */\n    tag_58:\n        /* \"#utility.yul\":184:205   */\n      tag_69\n        /* \"#utility.yul\":199:204   */\n      dup2\n        /* \"#utility.yul\":184:205   */\n      tag_57\n      jump\t// in\n    tag_69:\n        /* \"#utility.yul\":179:182   */\n      dup3\n        /* \"#utility.yul\":172:206   */\n      mstore\n        /* \"#utility.yul\":103:212   */\n      pop\n      pop\n      jump\t// out\n        /* \"#utility.yul\":218:428   */\n    tag_16:\n        /* \"#utility.yul\":305:309   */\n      0x00\n        /* \"#utility.yul\":343:345   */\n      0x20\n        /* \"#utility.yul\":332:341   */\n      dup3\n        /* \"#utility.yul\":328:346   */\n      add\n        /* \"#utility.yul\":320:346   */\n      swap1\n      pop\n        /* \"#utility.yul\":356:421   */\n      tag_71\n        /* \"#utility.yul\":418:419   */\n      0x00\n        /* \"#utility.yul\":407:416   */\n      dup4\n        /* \"#utility.yul\":403:420   */\n      add\n        /* \"#utility.yul\":394:400   */\n      dup5\n        /* \"#utility.yul\":356:421   */\n      tag_58\n      jump\t// in\n    tag_71:\n        /* \"#utility.yul\":218:428   */\n      swap3\n      swap2\n      pop\n      pop\n      jump\t// out\n        /* \"#utility.yul\":434:511   */\n    tag_59:\n        /* \"#utility.yul\":471:478   */\n      0x00\n        /* \"#utility.yul\":500:505   */\n      dup2\n        /* \"#utility.yul\":489:505   */\n      swap1\n      pop\n        /* \"#utility.yul\":434:511   */\n      swap2\n      swap1\n      pop\n      jump\t// out\n        /* \"#utility.yul\":517:635   */\n    tag_60:\n        /* \"#utility.yul\":604:628   */\n      tag_74\n        /* \"#utility.yul\":622:627   */\n      dup2\n        /* \"#utility.yul\":604:628   */\n      tag_59\n      jump\t// in\n    tag_74:\n        /* \"#utility.yul\":599:602   */\n      dup3\n        /* \"#utility.yul\":592:629   */\n      mstore\n        /* \"#utility.yul\":517:635   */\n      pop\n      pop\n      jump\t// out\n        /* \"#utility.yul\":641:863   */\n    tag_20:\n        /* \"#utility.yul\":734:738   */\n      0x00\n        /* \"#utility.yul\":772:774   */\n      0x20\n        /* \"#utility.yul\":761:770   */\n      dup3\n        /* \"#utility.yul\":757:775   */\n      add\n        /* \"#utility.yul\":749:775   */\n      swap1\n      pop\n        /* \"#utility.yul\":785:856   */\n      tag_76\n        /* \"#utility.yul\":853:854   */\n      0x00\n        /* \"#utility.yul\":842:851   */\n      dup4\n        /* \"#utility.yul\":838:855   */\n      add\n        /* \"#utility.yul\":829:835   */\n      dup5\n        /* \"#utility.yul\":785:856   */\n      tag_60\n      jump\t// in\n    tag_76:\n        /* \"#utility.yul\":641:863   */\n      swap3\n      swap2\n      pop\n      pop\n      jump\t// out\n        /* \"#utility.yul\":869:983   */\n    tag_61:\n        /* \"#utility.yul\":906:913   */\n      0x00\n        /* \"#utility.yul\":946:976   */\n      0xffffffffffffffffffffffffffff\n        /* \"#utility.yul\":939:944   */\n      dup3\n        /* \"#utility.yul\":935:977   */\n      and\n        /* \"#utility.yul\":924:977   */\n      swap1\n      pop\n        /* \"#utility.yul\":869:983   */\n      swap2\n      swap1\n      pop\n      jump\t// out\n        /* \"#utility.yul\":989:1107   */\n    tag_62:\n        /* \"#utility.yul\":1076:1100   */\n      tag_79\n        /* \"#utility.yul\":1094:1099   */\n      dup2\n        /* \"#utility.yul\":1076:1100   */\n      tag_61\n      jump\t// in\n    tag_79:\n        /* \"#utility.yul\":1071:1074   */\n      dup3\n        /* \"#utility.yul\":1064:1101   */\n      mstore\n        /* \"#utility.yul\":989:1107   */\n      pop\n      pop\n      jump\t// out\n        /* \"#utility.yul\":1113:1335   */\n    tag_30:\n        /* \"#utility.yul\":1206:1210   */\n      0x00\n        /* \"#utility.yul\":1244:1246   */\n      0x20\n        /* \"#utility.yul\":1233:1242   */\n      dup3\n        /* \"#utility.yul\":1229:1247   */\n      add\n        /* \"#utility.yul\":1221:1247   */\n      swap1\n      pop\n        /* \"#utility.yul\":1257:1328   */\n      tag_81\n        /* \"#utility.yul\":1325:1326   */\n      0x00\n        /* \"#utility.yul\":1314:1323   */\n      dup4\n        /* \"#utility.yul\":1310:1327   */\n      add\n        /* \"#utility.yul\":1301:1307   */\n      dup5\n        /* \"#utility.yul\":1257:1328   */\n      tag_62\n      jump\t// in\n    tag_81:\n        /* \"#utility.yul\":1113:1335   */\n      swap3\n      swap2\n      pop\n      pop\n      jump\t// out\n        /* \"#utility.yul\":1341:1427   */\n    tag_63:\n        /* \"#utility.yul\":1376:1383   */\n      0x00\n        /* \"#utility.yul\":1416:1420   */\n      0xff\n        /* \"#utility.yul\":1409:1414   */\n      dup3\n        /* \"#utility.yul\":1405:1421   */\n      and\n        /* \"#utility.yul\":1394:1421   */\n      swap1\n      pop\n        /* \"#utility.yul\":1341:1427   */\n      swap2\n      swap1\n      pop\n      jump\t// out\n        /* \"#utility.yul\":1433:1545   */\n    tag_64:\n        /* \"#utility.yul\":1516:1538   */\n      tag_84\n        /* \"#utility.yul\":1532:1537   */\n      dup2\n        /* \"#utility.yul\":1516:1538   */\n      tag_63\n      jump\t// in\n    tag_84:\n        /* \"#utility.yul\":1511:1514   */\n      dup3\n        /* \"#utility.yul\":1504:1539   */\n      mstore\n        /* \"#utility.yul\":1433:1545   */\n      pop\n      pop\n      jump\t// out\n        /* \"#utility.yul\":1551:1765   */\n    tag_43:\n        /* \"#utility.yul\":1640:1644   */\n      0x00\n        /* \"#utility.yul\":1678:1680   */\n      0x20\n        /* \"#utility.yul\":1667:1676   */\n      dup3\n        /* \"#utility.yul\":1663:1681   */\n      add\n        /* \"#utility.yul\":1655:1681   */\n      swap1\n      pop\n        /* \"#utility.yul\":1691:1758   */\n      tag_86\n        /* \"#utility.yul\":1755:1756   */\n      0x00\n        /* \"#utility.yul\":1744:1753   */\n      dup4\n        /* \"#utility.yul\":1740:1757   */\n      add\n        /* \"#utility.yul\":1731:1737   */\n      dup5\n        /* \"#utility.yul\":1691:1758   */\n      tag_64\n      jump\t// in\n    tag_86:\n        /* \"#utility.yul\":1551:1765   */\n      swap3\n      swap2\n      pop\n      pop\n      jump\t// out\n        /* \"#utility.yul\":1771:1951   */\n    tag_65:\n        /* \"#utility.yul\":1819:1896   */\n      0x4e487b7100000000000000000000000000000000000000000000000000000000\n        /* \"#utility.yul\":1816:1817   */\n      0x00\n        /* \"#utility.yul\":1809:1897   */\n      mstore\n        /* \"#utility.yul\":1916:1920   */\n      0x11\n        /* \"#utility.yul\":1913:1914   */\n      0x04\n        /* \"#utility.yul\":1906:1921   */\n      mstore\n        /* \"#utility.yul\":1940:1944   */\n      0x24\n        /* \"#utility.yul\":1937:1938   */\n      0x00\n        /* \"#utility.yul\":1930:1945   */\n      revert\n        /* \"#utility.yul\":1957:2148   */\n    tag_46:\n        /* \"#utility.yul\":1997:2000   */\n      0x00\n        /* \"#utility.yul\":2016:2036   */\n      tag_89\n        /* \"#utility.yul\":2034:2035   */\n      dup3\n        /* \"#utility.yul\":2016:2036   */\n      tag_59\n      jump\t// in\n    tag_89:\n        /* \"#utility.yul\":2011:2036   */\n      swap2\n      pop\n        /* \"#utility.yul\":2050:2070   */\n      tag_90\n        /* \"#utility.yul\":2068:2069   */\n      dup4\n        /* \"#utility.yul\":2050:2070   */\n      tag_59\n      jump\t// in\n    tag_90:\n        /* \"#utility.yul\":2045:2070   */\n      swap3\n      pop\n        /* \"#utility.yul\":2093:2094   */\n      dup3\n        /* \"#utility.yul\":2090:2091   */\n      dup3\n        /* \"#utility.yul\":2086:2095   */\n      add\n        /* \"#utility.yul\":2079:2095   */\n      swap1\n      pop\n        /* \"#utility.yul\":2114:2117   */\n      dup1\n        /* \"#utility.yul\":2111:2112   */\n      dup3\n        /* \"#utility.yul\":2108:2118   */\n      gt\n        /* \"#utility.yul\":2105:2141   */\n      iszero\n      tag_91\n      jumpi\n        /* \"#utility.yul\":2121:2139   */\n      tag_92\n      tag_65\n      jump\t// in\n    tag_92:\n        /* \"#utility.yul\":2105:2141   */\n    tag_91:\n        /* \"#utility.yul\":1957:2148   */\n      swap3\n      swap2\n      pop\n      pop\n      jump\t// out\n        /* \"#utility.yul\":2154:2564   */\n    tag_48:\n        /* \"#utility.yul\":2194:2201   */\n      0x00\n        /* \"#utility.yul\":2217:2237   */\n      tag_94\n        /* \"#utility.yul\":2235:2236   */\n      dup3\n        /* \"#utility.yul\":2217:2237   */\n      tag_59\n      jump\t// in\n    tag_94:\n        /* \"#utility.yul\":2212:2237   */\n      swap2\n      pop\n        /* \"#utility.yul\":2251:2271   */\n      tag_95\n        /* \"#utility.yul\":2269:2270   */\n      dup4\n        /* \"#utility.yul\":2251:2271   */\n      tag_59\n      jump\t// in\n    tag_95:\n        /* \"#utility.yul\":2246:2271   */\n      swap3\n      pop\n        /* \"#utility.yul\":2306:2307   */\n      dup3\n        /* \"#utility.yul\":2303:2304   */\n      dup3\n        /* \"#utility.yul\":2299:2308   */\n      mul\n        /* \"#utility.yul\":2328:2358   */\n      tag_96\n        /* \"#utility.yul\":2346:2357   */\n      dup2\n        /* \"#utility.yul\":2328:2358   */\n      tag_59\n      jump\t// in\n    tag_96:\n        /* \"#utility.yul\":2317:2358   */\n      swap2\n      pop\n        /* \"#utility.yul\":2507:2508   */\n      dup3\n        /* \"#utility.yul\":2498:2505   */\n      dup3\n        /* \"#utility.yul\":2494:2509   */\n      div\n        /* \"#utility.yul\":2491:2492   */\n      dup5\n        /* \"#utility.yul\":2488:2510   */\n      eq\n        /* \"#utility.yul\":2468:2469   */\n      dup4\n        /* \"#utility.yul\":2461:2470   */\n      iszero\n        /* \"#utility.yul\":2441:2524   */\n      or\n        /* \"#utility.yul\":2418:2557   */\n      tag_97\n      jumpi\n        /* \"#utility.yul\":2537:2555   */\n      tag_98\n      tag_65\n      jump\t// in\n    tag_98:\n        /* \"#utility.yul\":2418:2557   */\n    tag_97:\n        /* \"#utility.yul\":2202:2564   */\n      pop\n        /* \"#utility.yul\":2154:2564   */\n      swap3\n      swap2\n      pop\n      pop\n      jump\t// out\n        /* \"#utility.yul\":2570:2758   */\n    tag_51:\n        /* \"#utility.yul\":2608:2611   */\n      0x00\n        /* \"#utility.yul\":2627:2645   */\n      tag_100\n        /* \"#utility.yul\":2643:2644   */\n      dup3\n        /* \"#utility.yul\":2627:2645   */\n      tag_63\n      jump\t// in\n    tag_100:\n        /* \"#utility.yul\":2622:2645   */\n      swap2\n      pop\n        /* \"#utility.yul\":2659:2677   */\n      tag_101\n        /* \"#utility.yul\":2675:2676   */\n      dup4\n        /* \"#utility.yul\":2659:2677   */\n      tag_63\n      jump\t// in\n    tag_101:\n        /* \"#utility.yul\":2654:2677   */\n      swap3\n      pop\n        /* \"#utility.yul\":2700:2701   */\n      dup3\n        /* \"#utility.yul\":2697:2698   */\n      dup3\n        /* \"#utility.yul\":2693:2702   */\n      add\n        /* \"#utility.yul\":2686:2702   */\n      swap1\n      pop\n        /* \"#utility.yul\":2723:2727   */\n      0xff\n        /* \"#utility.yul\":2718:2721   */\n      dup2\n        /* \"#utility.yul\":2715:2728   */\n      gt\n        /* \"#utility.yul\":2712:2751   */\n      iszero\n      tag_102\n      jumpi\n        /* \"#utility.yul\":2731:2749   */\n      tag_103\n      tag_65\n      jump\t// in\n    tag_103:\n        /* \"#utility.yul\":2712:2751   */\n    tag_102:\n        /* \"#utility.yul\":2570:2758   */\n      swap3\n      swap2\n      pop\n      pop\n      jump\t// out\n        /* \"#utility.yul\":2764:2931   */\n    tag_55:\n        /* \"#utility.yul\":2801:2804   */\n      0x00\n        /* \"#utility.yul\":2824:2846   */\n      tag_105\n        /* \"#utility.yul\":2840:2845   */\n      dup3\n        /* \"#utility.yul\":2824:2846   */\n      tag_63\n      jump\t// in\n    tag_105:\n        /* \"#utility.yul\":2815:2846   */\n      swap2\n      pop\n        /* \"#utility.yul\":2868:2872   */\n      0x00\n        /* \"#utility.yul\":2861:2866   */\n      dup3\n        /* \"#utility.yul\":2858:2873   */\n      sub\n        /* \"#utility.yul\":2855:2896   */\n      tag_106\n      jumpi\n        /* \"#utility.yul\":2876:2894   */\n      tag_107\n      tag_65\n      jump\t// in\n    tag_107:\n        /* \"#utility.yul\":2855:2896   */\n    tag_106:\n        /* \"#utility.yul\":2923:2924   */\n      0x01\n        /* \"#utility.yul\":2916:2921   */\n      dup3\n        /* \"#utility.yul\":2912:2925   */\n      sub\n        /* \"#utility.yul\":2905:2925   */\n      swap1\n      pop\n        /* \"#utility.yul\":2764:2931   */\n      swap2\n      swap1\n      pop\n      jump\t// out\n\n    auxdata: 0xa2646970667358221220ff56ca1f1e2da1e91b70db66de36444952ff8ad08882dd1d80a66b0a38f3b17964736f6c63430008160033\n}\n",
				"bytecode": {
					"linkReferences": {},
					"object": "608060405260ff5f60016101000a81548160ff021916908360ff16021790555068056bc75e2d63100000600255348015610037575f80fd5b506104bc806100455f395ff3fe608060405234801561000f575f80fd5b5060043610610091575f3560e01c806396d373e51161006457806396d373e51461010d578063b3bcfa821461012b578063c1ab444314610149578063d4da005a14610167578063d62a12091461018557610091565b8063169b32c314610095578063371303c0146100b3578063836dea0b146100d157806388fc1738146100ef575b5f80fd5b61009d6101a3565b6040516100aa91906102cb565b60405180910390f35b6100bb6101b3565b6040516100c891906102fc565b60405180910390f35b6100d96101d7565b6040516100e691906102fc565b60405180910390f35b6100f76101dd565b60405161010491906102fc565b60405180910390f35b610115610219565b604051610122919061033d565b60405180910390f35b61013361022c565b60405161014091906102fc565b60405180910390f35b610151610266565b60405161015e91906102fc565b60405180910390f35b61016f610299565b60405161017c91906102fc565b60405180910390f35b61018d61029f565b60405161019a9190610371565b60405180910390f35b5f8054906101000a900460ff1681565b5f600a602060ff166001546101c891906103b7565b6101d291906103ea565b905090565b60025481565b5f60015f60019054906101000a900460ff166101f9919061042b565b5f60016101000a81548160ff021916908360ff160217905560ff16905090565b5f60025467ffffffffffffffff16905090565b5f80600181819054906101000a900460ff166102479061045f565b91906101000a81548160ff021916908360ff160217905560ff16905090565b5f60015f60019054906101000a900460ff16015f60016101000a81548160ff021916908360ff160217905560ff16905090565b60015481565b5f60019054906101000a900460ff1681565b5f8115159050919050565b6102c5816102b1565b82525050565b5f6020820190506102de5f8301846102bc565b92915050565b5f819050919050565b6102f6816102e4565b82525050565b5f60208201905061030f5f8301846102ed565b92915050565b5f6dffffffffffffffffffffffffffff82169050919050565b61033781610315565b82525050565b5f6020820190506103505f83018461032e565b92915050565b5f60ff82169050919050565b61036b81610356565b82525050565b5f6020820190506103845f830184610362565b92915050565b7f4e487b71000000000000000000000000000000000000000000000000000000005f52601160045260245ffd5b5f6103c1826102e4565b91506103cc836102e4565b92508282019050808211156103e4576103e361038a565b5b92915050565b5f6103f4826102e4565b91506103ff836102e4565b925082820261040d816102e4565b915082820484148315176104245761042361038a565b5b5092915050565b5f61043582610356565b915061044083610356565b9250828201905060ff8111156104595761045861038a565b5b92915050565b5f61046982610356565b91505f820361047b5761047a61038a565b5b60018203905091905056fea2646970667358221220ff56ca1f1e2da1e91b70db66de36444952ff8ad08882dd1d80a66b0a38f3b17964736f6c63430008160033",
					"opcodes": "PUSH1 0x80 PUSH1 0x40 MSTORE PUSH1 0xFF PUSH0 PUSH1 0x1 PUSH2 0x100 EXP DUP2 SLOAD DUP2 PUSH1 0xFF MUL NOT AND SWAP1 DUP4 PUSH1 0xFF AND MUL OR SWAP1 SSTORE POP PUSH9 0x56BC75E2D63100000 PUSH1 0x2 SSTORE CALLVALUE DUP1 ISZERO PUSH2 0x37 JUMPI PUSH0 DUP1 REVERT JUMPDEST POP PUSH2 0x4BC DUP1 PUSH2 0x45 PUSH0 CODECOPY PUSH0 RETURN INVALID PUSH1 0x80 PUSH1 0x40 MSTORE CALLVALUE DUP1 ISZERO PUSH2 0xF JUMPI PUSH0 DUP1 REVERT JUMPDEST POP PUSH1 0x4 CALLDATASIZE LT PUSH2 0x91 JUMPI PUSH0 CALLDATALOAD PUSH1 0xE0 SHR DUP1 PUSH4 0x96D373E5 GT PUSH2 0x64 JUMPI DUP1 PUSH4 0x96D373E5 EQ PUSH2 0x10D JUMPI DUP1 PUSH4 0xB3BCFA82 EQ PUSH2 0x12B JUMPI DUP1 PUSH4 0xC1AB4443 EQ PUSH2 0x149 JUMPI DUP1 PUSH4 0xD4DA005A EQ PUSH2 0x167 JUMPI DUP1 PUSH4 0xD62A1209 EQ PUSH2 0x185 JUMPI PUSH2 0x91 JUMP JUMPDEST DUP1 PUSH4 0x169B32C3 EQ PUSH2 0x95 JUMPI DUP1 PUSH4 0x371303C0 EQ PUSH2 0xB3 JUMPI DUP1 PUSH4 0x836DEA0B EQ PUSH2 0xD1 JUMPI DUP1 PUSH4 0x88FC1738 EQ PUSH2 0xEF JUMPI JUMPDEST PUSH0 DUP1 REVERT JUMPDEST PUSH2 0x9D PUSH2 0x1A3 JUMP JUMPDEST PUSH1 0x40 MLOAD PUSH2 0xAA SWAP2 SWAP1 PUSH2 0x2CB JUMP JUMPDEST PUSH1 0x40 MLOAD DUP1 SWAP2 SUB SWAP1 RETURN JUMPDEST PUSH2 0xBB PUSH2 0x1B3 JUMP JUMPDEST PUSH1 0x40 MLOAD PUSH2 0xC8 SWAP2 SWAP1 PUSH2 0x2FC JUMP JUMPDEST PUSH1 0x40 MLOAD DUP1 SWAP2 SUB SWAP1 RETURN JUMPDEST PUSH2 0xD9 PUSH2 0x1D7 JUMP JUMPDEST PUSH1 0x40 MLOAD PUSH2 0xE6 SWAP2 SWAP1 PUSH2 0x2FC JUMP JUMPDEST PUSH1 0x40 MLOAD DUP1 SWAP2 SUB SWAP1 RETURN JUMPDEST PUSH2 0xF7 PUSH2 0x1DD JUMP JUMPDEST PUSH1 0x40 MLOAD PUSH2 0x104 SWAP2 SWAP1 PUSH2 0x2FC JUMP JUMPDEST PUSH1 0x40 MLOAD DUP1 SWAP2 SUB SWAP1 RETURN JUMPDEST PUSH2 0x115 PUSH2 0x219 JUMP JUMPDEST PUSH1 0x40 MLOAD PUSH2 0x122 SWAP2 SWAP1 PUSH2 0x33D JUMP JUMPDEST PUSH1 0x40 MLOAD DUP1 SWAP2 SUB SWAP1 RETURN JUMPDEST PUSH2 0x133 PUSH2 0x22C JUMP JUMPDEST PUSH1 0x40 MLOAD PUSH2 0x140 SWAP2 SWAP1 PUSH2 0x2FC JUMP JUMPDEST PUSH1 0x40 MLOAD DUP1 SWAP2 SUB SWAP1 RETURN JUMPDEST PUSH2 0x151 PUSH2 0x266 JUMP JUMPDEST PUSH1 0x40 MLOAD PUSH2 0x15E SWAP2 SWAP1 PUSH2 0x2FC JUMP JUMPDEST PUSH1 0x40 MLOAD DUP1 SWAP2 SUB SWAP1 RETURN JUMPDEST PUSH2 0x16F PUSH2 0x299 JUMP JUMPDEST PUSH1 0x40 MLOAD PUSH2 0x17C SWAP2 SWAP1 PUSH2 0x2FC JUMP JUMPDEST PUSH1 0x40 MLOAD DUP1 SWAP2 SUB SWAP1 RETURN JUMPDEST PUSH2 0x18D PUSH2 0x29F JUMP JUMPDEST PUSH1 0x40 MLOAD PUSH2 0x19A SWAP2 SWAP1 PUSH2 0x371 JUMP JUMPDEST PUSH1 0x40 MLOAD DUP1 SWAP2 SUB SWAP1 RETURN JUMPDEST PUSH0 DUP1 SLOAD SWAP1 PUSH2 0x100 EXP SWAP1 DIV PUSH1 0xFF AND DUP2 JUMP JUMPDEST PUSH0 PUSH1 0xA PUSH1 0x20 PUSH1 0xFF AND PUSH1 0x1 SLOAD PUSH2 0x1C8 SWAP2 SWAP1 PUSH2 0x3B7 JUMP JUMPDEST PUSH2 0x1D2 SWAP2 SWAP1 PUSH2 0x3EA JUMP JUMPDEST SWAP1 POP SWAP1 JUMP JUMPDEST PUSH1 0x2 SLOAD DUP2 JUMP JUMPDEST PUSH0 PUSH1 0x1 PUSH0 PUSH1 0x1 SWAP1 SLOAD SWAP1 PUSH2 0x100 EXP SWAP1 DIV PUSH1 0xFF AND PUSH2 0x1F9 SWAP2 SWAP1 PUSH2 0x42B JUMP JUMPDEST PUSH0 PUSH1 0x1 PUSH2 0x100 EXP DUP2 SLOAD DUP2 PUSH1 0xFF MUL NOT AND SWAP1 DUP4 PUSH1 0xFF AND MUL OR SWAP1 SSTORE PUSH1 0xFF AND SWAP1 POP SWAP1 JUMP JUMPDEST PUSH0 PUSH1 0x2 SLOAD PUSH8 0xFFFFFFFFFFFFFFFF AND SWAP1 POP SWAP1 JUMP JUMPDEST PUSH0 DUP1 PUSH1 0x1 DUP2 DUP2 SWAP1 SLOAD SWAP1 PUSH2 0x100 EXP SWAP1 DIV PUSH1 0xFF AND PUSH2 0x247 SWAP1 PUSH2 0x45F JUMP JUMPDEST SWAP2 SWAP1 PUSH2 0x100 EXP DUP2 SLOAD DUP2 PUSH1 0xFF MUL NOT AND SWAP1 DUP4 PUSH1 0xFF AND MUL OR SWAP1 SSTORE PUSH1 0xFF AND SWAP1 POP SWAP1 JUMP JUMPDEST PUSH0 PUSH1 0x1 PUSH0 PUSH1 0x1 SWAP1 SLOAD SWAP1 PUSH2 0x100 EXP SWAP1 DIV PUSH1 0xFF AND ADD PUSH0 PUSH1 0x1 PUSH2 0x100 EXP DUP2 SLOAD DUP2 PUSH1 0xFF MUL NOT AND SWAP1 DUP4 PUSH1 0xFF AND MUL OR SWAP1 SSTORE PUSH1 0xFF AND SWAP1 POP SWAP1 JUMP JUMPDEST PUSH1 0x1 SLOAD DUP2 JUMP JUMPDEST PUSH0 PUSH1 0x1 SWAP1 SLOAD SWAP1 PUSH2 0x100 EXP SWAP1 DIV PUSH1 0xFF AND DUP2 JUMP JUMPDEST PUSH0 DUP2 ISZERO ISZERO SWAP1 POP SWAP2 SWAP1 POP JUMP JUMPDEST PUSH2 0x2C5 DUP2 PUSH2 0x2B1 JUMP JUMPDEST DUP3 MSTORE POP POP JUMP JUMPDEST PUSH0 PUSH1 0x20 DUP3 ADD SWAP1 POP PUSH2 0x2DE PUSH0 DUP4 ADD DUP5 PUSH2 0x2BC JUMP JUMPDEST SWAP3 SWAP2 POP POP JUMP JUMPDEST PUSH0 DUP2 SWAP1 POP SWAP2 SWAP1 POP JUMP JUMPDEST PUSH2 0x2F6 DUP2 PUSH2 0x2E4 JUMP JUMPDEST DUP3 MSTORE POP POP JUMP JUMPDEST PUSH0 PUSH1 0x20 DUP3 ADD SWAP1 POP PUSH2 0x30F PUSH0 DUP4 ADD DUP5 PUSH2 0x2ED JUMP JUMPDEST SWAP3 SWAP2 POP POP JUMP JUMPDEST PUSH0 PUSH14 0xFFFFFFFFFFFFFFFFFFFFFFFFFFFF DUP3 AND SWAP1 POP SWAP2 SWAP1 POP JUMP JUMPDEST PUSH2 0x337 DUP2 PUSH2 0x315 JUMP JUMPDEST DUP3 MSTORE POP POP JUMP JUMPDEST PUSH0 PUSH1 0x20 DUP3 ADD SWAP1 POP PUSH2 0x350 PUSH0 DUP4 ADD DUP5 PUSH2 0x32E JUMP JUMPDEST SWAP3 SWAP2 POP POP JUMP JUMPDEST PUSH0 PUSH1 0xFF DUP3 AND SWAP1 POP SWAP2 SWAP1 POP JUMP JUMPDEST PUSH2 0x36B DUP2 PUSH2 0x356 JUMP JUMPDEST DUP3 MSTORE POP POP JUMP JUMPDEST PUSH0 PUSH1 0x20 DUP3 ADD SWAP1 POP PUSH2 0x384 PUSH0 DUP4 ADD DUP5 PUSH2 0x362 JUMP JUMPDEST SWAP3 SWAP2 POP POP JUMP JUMPDEST PUSH32 0x4E487B7100000000000000000000000000000000000000000000000000000000 PUSH0 MSTORE PUSH1 0x11 PUSH1 0x4 MSTORE PUSH1 0x24 PUSH0 REVERT JUMPDEST PUSH0 PUSH2 0x3C1 DUP3 PUSH2 0x2E4 JUMP JUMPDEST SWAP2 POP PUSH2 0x3CC DUP4 PUSH2 0x2E4 JUMP JUMPDEST SWAP3 POP DUP3 DUP3 ADD SWAP1 POP DUP1 DUP3 GT ISZERO PUSH2 0x3E4 JUMPI PUSH2 0x3E3 PUSH2 0x38A JUMP JUMPDEST JUMPDEST SWAP3 SWAP2 POP POP JUMP JUMPDEST PUSH0 PUSH2 0x3F4 DUP3 PUSH2 0x2E4 JUMP JUMPDEST SWAP2 POP PUSH2 0x3FF DUP4 PUSH2 0x2E4 JUMP JUMPDEST SWAP3 POP DUP3 DUP3 MUL PUSH2 0x40D DUP2 PUSH2 0x2E4 JUMP JUMPDEST SWAP2 POP DUP3 DUP3 DIV DUP5 EQ DUP4 ISZERO OR PUSH2 0x424 JUMPI PUSH2 0x423 PUSH2 0x38A JUMP JUMPDEST JUMPDEST POP SWAP3 SWAP2 POP POP JUMP JUMPDEST PUSH0 PUSH2 0x435 DUP3 PUSH2 0x356 JUMP JUMPDEST SWAP2 POP PUSH2 0x440 DUP4 PUSH2 0x356 JUMP JUMPDEST SWAP3 POP DUP3 DUP3 ADD SWAP1 POP PUSH1 0xFF DUP2 GT ISZERO PUSH2 0x459 JUMPI PUSH2 0x458 PUSH2 0x38A JUMP JUMPDEST JUMPDEST SWAP3 SWAP2 POP POP JUMP JUMPDEST PUSH0 PUSH2 0x469 DUP3 PUSH2 0x356 JUMP JUMPDEST SWAP2 POP PUSH0 DUP3 SUB PUSH2 0x47B JUMPI PUSH2 0x47A PUSH2 0x38A JUMP JUMPDEST JUMPDEST PUSH1 0x1 DUP3 SUB SWAP1 POP SWAP2 SWAP1 POP JUMP INVALID LOG2 PUSH5 0x6970667358 0x22 SLT KECCAK256 SELFDESTRUCT JUMP 0xCA 0x1F 0x1E 0x2D LOG1 0xE9 SHL PUSH17 0xDB66DE36444952FF8AD08882DD1D80A66B EXP CODESIZE RETURN 0xB1 PUSH26 0x64736F6C63430008160033000000000000000000000000000000 "
				},
				"gasEstimates": {
					"creation": {
						"codeDepositCost": "242400",
						"executionCost": "46701",
						"totalCost": "289101"
					},
					"external": {
						"cast()": "2444",
						"dec()": "26993",
						"firstBool()": "2464",
						"inc()": "infinite",
						"maxVal()": "2604",
						"myEther()": "2470",
						"myNum()": "2491",
						"notOverFlow()": "26884",
						"overFlow()": "infinite"
					}
				},
				"methodIdentifiers": {
					"cast()": "96d373e5",
					"dec()": "b3bcfa82",
					"firstBool()": "169b32c3",
					"inc()": "371303c0",
					"maxVal()": "d62a1209",
					"myEther()": "836dea0b",
					"myNum()": "d4da005a",
					"notOverFlow()": "c1ab4443",
					"overFlow()": "88fc1738"
				}
			},
			"storageLayout": {
				"storage": [
					{
						"astId": 3,
						"contract": "LessonUint.sol:LessonUint",
						"label": "firstBool",
						"offset": 0,
						"slot": "0",
						"type": "t_bool"
					},
					{
						"astId": 9,
						"contract": "LessonUint.sol:LessonUint",
						"label": "maxVal",
						"offset": 1,
						"slot": "0",
						"type": "t_uint8"
					},
					{
						"astId": 11,
						"contract": "LessonUint.sol:LessonUint",
						"label": "myNum",
						"offset": 0,
						"slot": "1",
						"type": "t_uint256"
					},
					{
						"astId": 14,
						"contract": "LessonUint.sol:LessonUint",
						"label": "myEther",
						"offset": 0,
						"slot": "2",
						"type": "t_uint256"
					}
				],
				"types": {
					"t_bool": {
						"encoding": "inplace",
						"label": "bool",
						"numberOfBytes": "1"
					},
					"t_uint256": {
						"encoding": "inplace",
						"label": "uint256",
						"numberOfBytes": "32"
					},
					"t_uint8": {
						"encoding": "inplace",
						"label": "uint8",
						"numberOfBytes": "1"
					}
				}
			},
			"userdoc": {
				"kind": "user",
				"methods": {},
				"version": 1
			}
		}
	}
}