{
	"Practicum1.sol": {
		"Practicum": {
			"abi": [
				{
					"inputs": [],
					"stateMutability": "nonpayable",
					"type": "constructor"
				},
				{
					"inputs": [],
					"name": "Unauthorized",
					"type": "error"
				},
				{
					"anonymous": false,
					"inputs": [
						{
							"indexed": false,
							"internalType": "address",
							"name": "newOwner",
							"type": "address"
						}
					],
					"name": "OwnerChanged",
					"type": "event"
				},
				{
					"anonymous": false,
					"inputs": [
						{
							"indexed": false,
							"internalType": "uint256",
							"name": "newValue",
							"type": "uint256"
						}
					],
					"name": "ValueChanged",
					"type": "event"
				},
				{
					"inputs": [
						{
							"internalType": "uint256",
							"name": "_value1",
							"type": "uint256"
						},
						{
							"internalType": "uint256",
							"name": "_value2",
							"type": "uint256"
						},
						{
							"internalType": "uint256",
							"name": "_value3",
							"type": "uint256"
						}
					],
					"name": "addToFixedArray",
					"outputs": [],
					"stateMutability": "nonpayable",
					"type": "function"
				},
				{
					"inputs": [
						{
							"internalType": "uint256",
							"name": "_value",
							"type": "uint256"
						}
					],
					"name": "addToFixedArrayAndEmit",
					"outputs": [],
					"stateMutability": "nonpayable",
					"type": "function"
				},
				{
					"inputs": [
						{
							"internalType": "address",
							"name": "",
							"type": "address"
						}
					],
					"name": "addressToUintMapping",
					"outputs": [
						{
							"internalType": "uint256",
							"name": "",
							"type": "uint256"
						}
					],
					"stateMutability": "view",
					"type": "function"
				},
				{
					"inputs": [
						{
							"internalType": "uint256",
							"name": "_value",
							"type": "uint256"
						}
					],
					"name": "assWithArguvents",
					"outputs": [
						{
							"internalType": "uint256",
							"name": "",
							"type": "uint256"
						}
					],
					"stateMutability": "view",
					"type": "function"
				},
				{
					"inputs": [],
					"name": "boolVariable",
					"outputs": [
						{
							"internalType": "bool",
							"name": "",
							"type": "bool"
						}
					],
					"stateMutability": "view",
					"type": "function"
				},
				{
					"inputs": [
						{
							"internalType": "address",
							"name": "_newOwner",
							"type": "address"
						}
					],
					"name": "changeOwner",
					"outputs": [],
					"stateMutability": "nonpayable",
					"type": "function"
				},
				{
					"inputs": [],
					"name": "decrementByConstant",
					"outputs": [],
					"stateMutability": "nonpayable",
					"type": "function"
				},
				{
					"inputs": [
						{
							"internalType": "uint256",
							"name": "index",
							"type": "uint256"
						}
					],
					"name": "deleteFromFixedArray",
					"outputs": [],
					"stateMutability": "nonpayable",
					"type": "function"
				},
				{
					"inputs": [
						{
							"internalType": "uint256",
							"name": "index",
							"type": "uint256"
						}
					],
					"name": "deleteFrovDynamicArray",
					"outputs": [],
					"stateMutability": "nonpayable",
					"type": "function"
				},
				{
					"inputs": [
						{
							"internalType": "uint256",
							"name": "",
							"type": "uint256"
						}
					],
					"name": "dynamicArray",
					"outputs": [
						{
							"internalType": "uint256",
							"name": "",
							"type": "uint256"
						}
					],
					"stateMutability": "view",
					"type": "function"
				},
				{
					"inputs": [
						{
							"internalType": "uint256",
							"name": "",
							"type": "uint256"
						}
					],
					"name": "fixedArray",
					"outputs": [
						{
							"internalType": "uint256",
							"name": "",
							"type": "uint256"
						}
					],
					"stateMutability": "view",
					"type": "function"
				},
				{
					"inputs": [
						{
							"internalType": "uint256",
							"name": "index",
							"type": "uint256"
						}
					],
					"name": "getArrayValue",
					"outputs": [
						{
							"internalType": "uint256",
							"name": "",
							"type": "uint256"
						}
					],
					"stateMutability": "view",
					"type": "function"
				},
				{
					"inputs": [],
					"name": "getDynamicArrayLength",
					"outputs": [
						{
							"internalType": "uint256",
							"name": "",
							"type": "uint256"
						}
					],
					"stateMutability": "view",
					"type": "function"
				},
				{
					"inputs": [],
					"name": "incrementUint",
					"outputs": [],
					"stateMutability": "nonpayable",
					"type": "function"
				},
				{
					"inputs": [],
					"name": "owner",
					"outputs": [
						{
							"internalType": "address",
							"name": "",
							"type": "address"
						}
					],
					"stateMutability": "view",
					"type": "function"
				},
				{
					"inputs": [],
					"name": "populateArray",
					"outputs": [],
					"stateMutability": "nonpayable",
					"type": "function"
				},
				{
					"inputs": [
						{
							"internalType": "address",
							"name": "_addr",
							"type": "address"
						}
					],
					"name": "resetMappingAndSetStatus",
					"outputs": [],
					"stateMutability": "nonpayable",
					"type": "function"
				},
				{
					"inputs": [
						{
							"internalType": "address",
							"name": "_addr",
							"type": "address"
						},
						{
							"internalType": "uint256",
							"name": "_value",
							"type": "uint256"
						}
					],
					"name": "revertOnMappingChange",
					"outputs": [],
					"stateMutability": "nonpayable",
					"type": "function"
				},
				{
					"inputs": [
						{
							"internalType": "uint256",
							"name": "_a",
							"type": "uint256"
						},
						{
							"internalType": "uint256",
							"name": "_b",
							"type": "uint256"
						}
					],
					"name": "safeAddition",
					"outputs": [
						{
							"internalType": "uint256",
							"name": "",
							"type": "uint256"
						}
					],
					"stateMutability": "pure",
					"type": "function"
				},
				{
					"inputs": [
						{
							"internalType": "address",
							"name": "_addr",
							"type": "address"
						},
						{
							"internalType": "uint256",
							"name": "_value",
							"type": "uint256"
						}
					],
					"name": "setMappingValue",
					"outputs": [],
					"stateMutability": "nonpayable",
					"type": "function"
				},
				{
					"inputs": [],
					"name": "status",
					"outputs": [
						{
							"internalType": "enum Practicum.Status",
							"name": "",
							"type": "uint8"
						}
					],
					"stateMutability": "view",
					"type": "function"
				},
				{
					"inputs": [],
					"name": "stringVariablr",
					"outputs": [
						{
							"internalType": "string",
							"name": "",
							"type": "string"
						}
					],
					"stateMutability": "view",
					"type": "function"
				},
				{
					"inputs": [
						{
							"internalType": "uint256",
							"name": "_value",
							"type": "uint256"
						}
					],
					"name": "ternarnyCheck",
					"outputs": [
						{
							"internalType": "uint256",
							"name": "",
							"type": "uint256"
						}
					],
					"stateMutability": "pure",
					"type": "function"
				},
				{
					"inputs": [],
					"name": "uintVariable",
					"outputs": [
						{
							"internalType": "uint256",
							"name": "",
							"type": "uint256"
						}
					],
					"stateMutability": "view",
					"type": "function"
				}
			],
			"devdoc": {
				"kind": "dev",
				"methods": {},
				"version": 1
			},
			"evm": {
				"assembly": "    /* \"Practicum1.sol\":60:5355  contract Practicum {... */\n  mstore(0x40, 0x80)\n    /* \"Practicum1.sol\":1250:1301  constructor() {... */\n  callvalue\n  dup1\n  iszero\n  tag_1\n  jumpi\n  0x00\n  dup1\n  revert\ntag_1:\n  pop\n    /* \"Practicum1.sol\":1283:1293  msg.sender */\n  caller\n    /* \"Practicum1.sol\":1275:1280  owner */\n  0x02\n  0x00\n    /* \"Practicum1.sol\":1275:1293  owner = msg.sender */\n  0x0100\n  exp\n  dup2\n  sload\n  dup2\n  0xffffffffffffffffffffffffffffffffffffffff\n  mul\n  not\n  and\n  swap1\n  dup4\n  0xffffffffffffffffffffffffffffffffffffffff\n  and\n  mul\n  or\n  swap1\n  sstore\n  pop\n    /* \"Practicum1.sol\":60:5355  contract Practicum {... */\n  dataSize(sub_0)\n  dup1\n  dataOffset(sub_0)\n  0x00\n  codecopy\n  0x00\n  return\nstop\n\nsub_0: assembly {\n        /* \"Practicum1.sol\":60:5355  contract Practicum {... */\n      mstore(0x40, 0x80)\n      callvalue\n      dup1\n      iszero\n      tag_1\n      jumpi\n      0x00\n      dup1\n      revert\n    tag_1:\n      pop\n      jumpi(tag_2, lt(calldatasize, 0x04))\n      shr(0xe0, calldataload(0x00))\n      dup1\n      0x8da5cb5b\n      gt\n      tag_27\n      jumpi\n      dup1\n      0xadef6ca8\n      gt\n      tag_28\n      jumpi\n      dup1\n      0xadef6ca8\n      eq\n      tag_21\n      jumpi\n      dup1\n      0xaf1b73c2\n      eq\n      tag_22\n      jumpi\n      dup1\n      0xd5d6393b\n      eq\n      tag_23\n      jumpi\n      dup1\n      0xd7e6b100\n      eq\n      tag_24\n      jumpi\n      dup1\n      0xf519960d\n      eq\n      tag_25\n      jumpi\n      dup1\n      0xf98c893a\n      eq\n      tag_26\n      jumpi\n      jump(tag_2)\n    tag_28:\n      dup1\n      0x8da5cb5b\n      eq\n      tag_15\n      jumpi\n      dup1\n      0x905496f0\n      eq\n      tag_16\n      jumpi\n      dup1\n      0x93a35560\n      eq\n      tag_17\n      jumpi\n      dup1\n      0x9a5009ac\n      eq\n      tag_18\n      jumpi\n      dup1\n      0x9a9bdca7\n      eq\n      tag_19\n      jumpi\n      dup1\n      0xa6f9dae1\n      eq\n      tag_20\n      jumpi\n      jump(tag_2)\n    tag_27:\n      dup1\n      0x359e1e94\n      gt\n      tag_29\n      jumpi\n      dup1\n      0x359e1e94\n      eq\n      tag_9\n      jumpi\n      dup1\n      0x4acee15c\n      eq\n      tag_10\n      jumpi\n      dup1\n      0x4f97c529\n      eq\n      tag_11\n      jumpi\n      dup1\n      0x5d1bd962\n      eq\n      tag_12\n      jumpi\n      dup1\n      0x74fc41b7\n      eq\n      tag_13\n      jumpi\n      dup1\n      0x750eaf99\n      eq\n      tag_14\n      jumpi\n      jump(tag_2)\n    tag_29:\n      dup1\n      0x0e3ccbe1\n      eq\n      tag_3\n      jumpi\n      dup1\n      0x14bf43bd\n      eq\n      tag_4\n      jumpi\n      dup1\n      0x16e6e3bf\n      eq\n      tag_5\n      jumpi\n      dup1\n      0x200d2ed2\n      eq\n      tag_6\n      jumpi\n      dup1\n      0x2653fa2d\n      eq\n      tag_7\n      jumpi\n      dup1\n      0x302c3cfa\n      eq\n      tag_8\n      jumpi\n    tag_2:\n      0x00\n      dup1\n      revert\n        /* \"Practicum1.sol\":1943:2058  function setMappingValue(address _addr, uint _value) public {... */\n    tag_3:\n      tag_30\n      0x04\n      dup1\n      calldatasize\n      sub\n      dup2\n      add\n      swap1\n      tag_31\n      swap2\n      swap1\n      tag_32\n      jump\t// in\n    tag_31:\n      tag_33\n      jump\t// in\n    tag_30:\n      stop\n        /* \"Practicum1.sol\":1376:1442  function incrementUint() public {... */\n    tag_4:\n      tag_34\n      tag_35\n      jump\t// in\n    tag_34:\n      stop\n        /* \"Practicum1.sol\":281:309  string public stringVariablr */\n    tag_5:\n      tag_36\n      tag_37\n      jump\t// in\n    tag_36:\n      mload(0x40)\n      tag_38\n      swap2\n      swap1\n      tag_39\n      jump\t// in\n    tag_38:\n      mload(0x40)\n      dup1\n      swap2\n      sub\n      swap1\n      return\n        /* \"Practicum1.sol\":626:646  Status public status */\n    tag_6:\n      tag_40\n      tag_41\n      jump\t// in\n    tag_40:\n      mload(0x40)\n      tag_42\n      swap2\n      swap1\n      tag_43\n      jump\t// in\n    tag_42:\n      mload(0x40)\n      dup1\n      swap2\n      sub\n      swap1\n      return\n        /* \"Practicum1.sol\":104:128  uint public uintVariable */\n    tag_7:\n      tag_44\n      tag_45\n      jump\t// in\n    tag_44:\n      mload(0x40)\n      tag_46\n      swap2\n      swap1\n      tag_47\n      jump\t// in\n    tag_46:\n      mload(0x40)\n      dup1\n      swap2\n      sub\n      swap1\n      return\n        /* \"Practicum1.sol\":3071:3176  function getDynamicArrayLength() public view returns (uint) {... */\n    tag_8:\n      tag_48\n      tag_49\n      jump\t// in\n    tag_48:\n      mload(0x40)\n      tag_50\n      swap2\n      swap1\n      tag_47\n      jump\t// in\n    tag_50:\n      mload(0x40)\n      dup1\n      swap2\n      sub\n      swap1\n      return\n        /* \"Practicum1.sol\":4313:4476  function safeAddition(uint _a, uint _b) public pure returns (uint) {... */\n    tag_9:\n      tag_51\n      0x04\n      dup1\n      calldatasize\n      sub\n      dup2\n      add\n      swap1\n      tag_52\n      swap2\n      swap1\n      tag_53\n      jump\t// in\n    tag_52:\n      tag_54\n      jump\t// in\n    tag_51:\n      mload(0x40)\n      tag_55\n      swap2\n      swap1\n      tag_47\n      jump\t// in\n    tag_55:\n      mload(0x40)\n      dup1\n      swap2\n      sub\n      swap1\n      return\n        /* \"Practicum1.sol\":2471:2631  function deleteFromFixedArray(uint index) public {... */\n    tag_10:\n      tag_56\n      0x04\n      dup1\n      calldatasize\n      sub\n      dup2\n      add\n      swap1\n      tag_57\n      swap2\n      swap1\n      tag_58\n      jump\t// in\n    tag_57:\n      tag_59\n      jump\t// in\n    tag_56:\n      stop\n        /* \"Practicum1.sol\":3547:3674  function populateArray() public {... */\n    tag_11:\n      tag_60\n      tag_61\n      jump\t// in\n    tag_60:\n      stop\n        /* \"Practicum1.sol\":5169:5346  function getArrayValue(uint index) public view returns (uint) {... */\n    tag_12:\n      tag_62\n      0x04\n      dup1\n      calldatasize\n      sub\n      dup2\n      add\n      swap1\n      tag_63\n      swap2\n      swap1\n      tag_58\n      jump\t// in\n    tag_63:\n      tag_64\n      jump\t// in\n    tag_62:\n      mload(0x40)\n      tag_65\n      swap2\n      swap1\n      tag_47\n      jump\t// in\n    tag_65:\n      mload(0x40)\n      dup1\n      swap2\n      sub\n      swap1\n      return\n        /* \"Practicum1.sol\":4552:4666  function ternarnyCheck(uint _value) public pure returns (uint) {... */\n    tag_13:\n      tag_66\n      0x04\n      dup1\n      calldatasize\n      sub\n      dup2\n      add\n      swap1\n      tag_67\n      swap2\n      swap1\n      tag_58\n      jump\t// in\n    tag_67:\n      tag_68\n      jump\t// in\n    tag_66:\n      mload(0x40)\n      tag_69\n      swap2\n      swap1\n      tag_47\n      jump\t// in\n    tag_69:\n      mload(0x40)\n      dup1\n      swap2\n      sub\n      swap1\n      return\n        /* \"Practicum1.sol\":424:476  mapping(address => uint) public addressToUintMapping */\n    tag_14:\n      tag_70\n      0x04\n      dup1\n      calldatasize\n      sub\n      dup2\n      add\n      swap1\n      tag_71\n      swap2\n      swap1\n      tag_72\n      jump\t// in\n    tag_71:\n      tag_73\n      jump\t// in\n    tag_70:\n      mload(0x40)\n      tag_74\n      swap2\n      swap1\n      tag_47\n      jump\t// in\n    tag_74:\n      mload(0x40)\n      dup1\n      swap2\n      sub\n      swap1\n      return\n        /* \"Practicum1.sol\":168:188  address public owner */\n    tag_15:\n      tag_75\n      tag_76\n      jump\t// in\n    tag_75:\n      mload(0x40)\n      tag_77\n      swap2\n      swap1\n      tag_78\n      jump\t// in\n    tag_77:\n      mload(0x40)\n      dup1\n      swap2\n      sub\n      swap1\n      return\n        /* \"Practicum1.sol\":2129:2380  function addToFixedArray(uint _value1, uint _value2, uint _value3) public {... */\n    tag_16:\n      tag_79\n      0x04\n      dup1\n      calldatasize\n      sub\n      dup2\n      add\n      swap1\n      tag_80\n      swap2\n      swap1\n      tag_81\n      jump\t// in\n    tag_80:\n      tag_82\n      jump\t// in\n    tag_79:\n      stop\n        /* \"Practicum1.sol\":4004:4200  function addToFixedArrayAndEmit(uint _value) public {... */\n    tag_17:\n      tag_83\n      0x04\n      dup1\n      calldatasize\n      sub\n      dup2\n      add\n      swap1\n      tag_84\n      swap2\n      swap1\n      tag_58\n      jump\t// in\n    tag_84:\n      tag_85\n      jump\t// in\n    tag_83:\n      stop\n        /* \"Practicum1.sol\":500:525  uint[3] public fixedArray */\n    tag_18:\n      tag_86\n      0x04\n      dup1\n      calldatasize\n      sub\n      dup2\n      add\n      swap1\n      tag_87\n      swap2\n      swap1\n      tag_58\n      jump\t// in\n    tag_87:\n      tag_88\n      jump\t// in\n    tag_86:\n      mload(0x40)\n      tag_89\n      swap2\n      swap1\n      tag_47\n      jump\t// in\n    tag_89:\n      mload(0x40)\n      dup1\n      swap2\n      sub\n      swap1\n      return\n        /* \"Practicum1.sol\":532:558  uint[] public dynamicArray */\n    tag_19:\n      tag_90\n      0x04\n      dup1\n      calldatasize\n      sub\n      dup2\n      add\n      swap1\n      tag_91\n      swap2\n      swap1\n      tag_58\n      jump\t// in\n    tag_91:\n      tag_92\n      jump\t// in\n    tag_90:\n      mload(0x40)\n      tag_93\n      swap2\n      swap1\n      tag_47\n      jump\t// in\n    tag_93:\n      mload(0x40)\n      dup1\n      swap2\n      sub\n      swap1\n      return\n        /* \"Practicum1.sol\":3306:3464  function changeOwner(address _newOwner) public onlyOwner nonZeroAddress(_newOwner) {... */\n    tag_20:\n      tag_94\n      0x04\n      dup1\n      calldatasize\n      sub\n      dup2\n      add\n      swap1\n      tag_95\n      swap2\n      swap1\n      tag_72\n      jump\t// in\n    tag_95:\n      tag_96\n      jump\t// in\n    tag_94:\n      stop\n        /* \"Practicum1.sol\":224:248  bool public boolVariable */\n    tag_21:\n      tag_97\n      tag_98\n      jump\t// in\n    tag_97:\n      mload(0x40)\n      tag_99\n      swap2\n      swap1\n      tag_100\n      jump\t// in\n    tag_99:\n      mload(0x40)\n      dup1\n      swap2\n      sub\n      swap1\n      return\n        /* \"Practicum1.sol\":3770:3910  function resetMappingAndSetStatus(address _addr) public {... */\n    tag_22:\n      tag_101\n      0x04\n      dup1\n      calldatasize\n      sub\n      dup2\n      add\n      swap1\n      tag_102\n      swap2\n      swap1\n      tag_72\n      jump\t// in\n    tag_102:\n      tag_103\n      jump\t// in\n    tag_101:\n      stop\n        /* \"Practicum1.sol\":2719:3006  function deleteFrovDynamicArray(uint index) public {... */\n    tag_23:\n      tag_104\n      0x04\n      dup1\n      calldatasize\n      sub\n      dup2\n      add\n      swap1\n      tag_105\n      swap2\n      swap1\n      tag_58\n      jump\t// in\n    tag_105:\n      tag_106\n      jump\t// in\n    tag_104:\n      stop\n        /* \"Practicum1.sol\":1503:1656  function decrementByConstant() public {... */\n    tag_24:\n      tag_107\n      tag_108\n      jump\t// in\n    tag_107:\n      stop\n        /* \"Practicum1.sol\":1756:1884  function assWithArguvents(uint _value) public view returns (uint) {... */\n    tag_25:\n      tag_109\n      0x04\n      dup1\n      calldatasize\n      sub\n      dup2\n      add\n      swap1\n      tag_110\n      swap2\n      swap1\n      tag_58\n      jump\t// in\n    tag_110:\n      tag_111\n      jump\t// in\n    tag_109:\n      mload(0x40)\n      tag_112\n      swap2\n      swap1\n      tag_47\n      jump\t// in\n    tag_112:\n      mload(0x40)\n      dup1\n      swap2\n      sub\n      swap1\n      return\n        /* \"Practicum1.sol\":4754:5099  function revertOnMappingChange(address _addr, uint _value) public {... */\n    tag_26:\n      tag_113\n      0x04\n      dup1\n      calldatasize\n      sub\n      dup2\n      add\n      swap1\n      tag_114\n      swap2\n      swap1\n      tag_32\n      jump\t// in\n    tag_114:\n      tag_115\n      jump\t// in\n    tag_113:\n      stop\n        /* \"Practicum1.sol\":1943:2058  function setMappingValue(address _addr, uint _value) public {... */\n    tag_33:\n        /* \"Practicum1.sol\":2044:2050  _value */\n      dup1\n        /* \"Practicum1.sol\":2014:2034  addressToUintMapping */\n      0x06\n        /* \"Practicum1.sol\":2014:2041  addressToUintMapping[_addr] */\n      0x00\n        /* \"Practicum1.sol\":2035:2040  _addr */\n      dup5\n        /* \"Practicum1.sol\":2014:2041  addressToUintMapping[_addr] */\n      0xffffffffffffffffffffffffffffffffffffffff\n      and\n      0xffffffffffffffffffffffffffffffffffffffff\n      and\n      dup2\n      mstore\n      0x20\n      add\n      swap1\n      dup2\n      mstore\n      0x20\n      add\n      0x00\n      keccak256\n        /* \"Practicum1.sol\":2014:2050  addressToUintMapping[_addr] = _value */\n      dup2\n      swap1\n      sstore\n      pop\n        /* \"Practicum1.sol\":1943:2058  function setMappingValue(address _addr, uint _value) public {... */\n      pop\n      pop\n      jump\t// out\n        /* \"Practicum1.sol\":1376:1442  function incrementUint() public {... */\n    tag_35:\n        /* \"Practicum1.sol\":1419:1431  uintVariable */\n      0x00\n      dup1\n        /* \"Practicum1.sol\":1419:1434  uintVariable ++ */\n      dup2\n      sload\n      dup1\n      swap3\n      swap2\n      swap1\n      tag_118\n      swap1\n      tag_119\n      jump\t// in\n    tag_118:\n      swap2\n      swap1\n      pop\n      sstore\n      pop\n        /* \"Practicum1.sol\":1376:1442  function incrementUint() public {... */\n      jump\t// out\n        /* \"Practicum1.sol\":281:309  string public stringVariablr */\n    tag_37:\n      0x04\n      dup1\n      sload\n      tag_120\n      swap1\n      tag_121\n      jump\t// in\n    tag_120:\n      dup1\n      0x1f\n      add\n      0x20\n      dup1\n      swap2\n      div\n      mul\n      0x20\n      add\n      mload(0x40)\n      swap1\n      dup2\n      add\n      0x40\n      mstore\n      dup1\n      swap3\n      swap2\n      swap1\n      dup2\n      dup2\n      mstore\n      0x20\n      add\n      dup3\n      dup1\n      sload\n      tag_122\n      swap1\n      tag_121\n      jump\t// in\n    tag_122:\n      dup1\n      iszero\n      tag_123\n      jumpi\n      dup1\n      0x1f\n      lt\n      tag_124\n      jumpi\n      0x0100\n      dup1\n      dup4\n      sload\n      div\n      mul\n      dup4\n      mstore\n      swap2\n      0x20\n      add\n      swap2\n      jump(tag_123)\n    tag_124:\n      dup3\n      add\n      swap2\n      swap1\n      0x00\n      mstore\n      keccak256(0x00, 0x20)\n      swap1\n    tag_125:\n      dup2\n      sload\n      dup2\n      mstore\n      swap1\n      0x01\n      add\n      swap1\n      0x20\n      add\n      dup1\n      dup4\n      gt\n      tag_125\n      jumpi\n      dup3\n      swap1\n      sub\n      0x1f\n      and\n      dup3\n      add\n      swap2\n    tag_123:\n      pop\n      pop\n      pop\n      pop\n      pop\n      dup2\n      jump\t// out\n        /* \"Practicum1.sol\":626:646  Status public status */\n    tag_41:\n      0x0b\n      0x00\n      swap1\n      sload\n      swap1\n      0x0100\n      exp\n      swap1\n      div\n      0xff\n      and\n      dup2\n      jump\t// out\n        /* \"Practicum1.sol\":104:128  uint public uintVariable */\n    tag_45:\n      sload(0x00)\n      dup2\n      jump\t// out\n        /* \"Practicum1.sol\":3071:3176  function getDynamicArrayLength() public view returns (uint) {... */\n    tag_49:\n        /* \"Practicum1.sol\":3125:3129  uint */\n      0x00\n        /* \"Practicum1.sol\":3149:3161  dynamicArray */\n      0x0a\n        /* \"Practicum1.sol\":3149:3168  dynamicArray.length */\n      dup1\n      sload\n      swap1\n      pop\n        /* \"Practicum1.sol\":3142:3168  return dynamicArray.length */\n      swap1\n      pop\n        /* \"Practicum1.sol\":3071:3176  function getDynamicArrayLength() public view returns (uint) {... */\n      swap1\n      jump\t// out\n        /* \"Practicum1.sol\":4313:4476  function safeAddition(uint _a, uint _b) public pure returns (uint) {... */\n    tag_54:\n        /* \"Practicum1.sol\":4374:4378  uint */\n      0x00\n        /* \"Practicum1.sol\":4410:4412  10 */\n      0x0a\n        /* \"Practicum1.sol\":4404:4406  _b */\n      dup3\n        /* \"Practicum1.sol\":4399:4401  _a */\n      dup5\n        /* \"Practicum1.sol\":4399:4406  _a + _b */\n      tag_128\n      swap2\n      swap1\n      tag_129\n      jump\t// in\n    tag_128:\n        /* \"Practicum1.sol\":4399:4412  _a + _b >= 10 */\n      lt\n      iszero\n        /* \"Practicum1.sol\":4391:4443  require(_a + _b >= 10, \"Result must be at least 10\") */\n      tag_130\n      jumpi\n      mload(0x40)\n      0x08c379a000000000000000000000000000000000000000000000000000000000\n      dup2\n      mstore\n      0x04\n      add\n      tag_131\n      swap1\n      tag_132\n      jump\t// in\n    tag_131:\n      mload(0x40)\n      dup1\n      swap2\n      sub\n      swap1\n      revert\n    tag_130:\n        /* \"Practicum1.sol\":4466:4468  _b */\n      dup2\n        /* \"Practicum1.sol\":4461:4463  _a */\n      dup4\n        /* \"Practicum1.sol\":4461:4468  _a + _b */\n      tag_133\n      swap2\n      swap1\n      tag_129\n      jump\t// in\n    tag_133:\n        /* \"Practicum1.sol\":4454:4468  return _a + _b */\n      swap1\n      pop\n        /* \"Practicum1.sol\":4313:4476  function safeAddition(uint _a, uint _b) public pure returns (uint) {... */\n      swap3\n      swap2\n      pop\n      pop\n      jump\t// out\n        /* \"Practicum1.sol\":2471:2631  function deleteFromFixedArray(uint index) public {... */\n    tag_59:\n        /* \"Practicum1.sol\":2547:2564  fixedArray.length */\n      0x03\n        /* \"Practicum1.sol\":2539:2544  index */\n      dup2\n        /* \"Practicum1.sol\":2539:2564  index < fixedArray.length */\n      lt\n        /* \"Practicum1.sol\":2531:2588  require(index < fixedArray.length, \"Index out of bounds\") */\n      tag_135\n      jumpi\n      mload(0x40)\n      0x08c379a000000000000000000000000000000000000000000000000000000000\n      dup2\n      mstore\n      0x04\n      add\n      tag_136\n      swap1\n      tag_137\n      jump\t// in\n    tag_136:\n      mload(0x40)\n      dup1\n      swap2\n      sub\n      swap1\n      revert\n    tag_135:\n        /* \"Practicum1.sol\":2606:2616  fixedArray */\n      0x07\n        /* \"Practicum1.sol\":2617:2622  index */\n      dup2\n        /* \"Practicum1.sol\":2606:2623  fixedArray[index] */\n      0x03\n      dup2\n      lt\n      tag_138\n      jumpi\n      tag_139\n      tag_140\n      jump\t// in\n    tag_139:\n    tag_138:\n      add\n        /* \"Practicum1.sol\":2599:2623  delete fixedArray[index] */\n      0x00\n      swap1\n      sstore\n        /* \"Practicum1.sol\":2471:2631  function deleteFromFixedArray(uint index) public {... */\n      pop\n      jump\t// out\n        /* \"Practicum1.sol\":3547:3674  function populateArray() public {... */\n    tag_61:\n        /* \"Practicum1.sol\":3595:3601  uint i */\n      0x00\n        /* \"Practicum1.sol\":3590:3667  for (uint i = 0; i < 10; i++) {... */\n    tag_143:\n        /* \"Practicum1.sol\":3611:3613  10 */\n      0x0a\n        /* \"Practicum1.sol\":3607:3608  i */\n      dup2\n        /* \"Practicum1.sol\":3607:3613  i < 10 */\n      lt\n        /* \"Practicum1.sol\":3590:3667  for (uint i = 0; i < 10; i++) {... */\n      iszero\n      tag_144\n      jumpi\n        /* \"Practicum1.sol\":3635:3647  dynamicArray */\n      0x0a\n        /* \"Practicum1.sol\":3653:3654  i */\n      dup2\n        /* \"Practicum1.sol\":3635:3655  dynamicArray.push(i) */\n      swap1\n      dup1\n      0x01\n      dup2\n      sload\n      add\n      dup1\n      dup3\n      sstore\n      dup1\n      swap2\n      pop\n      pop\n      0x01\n      swap1\n      sub\n      swap1\n      0x00\n      mstore\n      keccak256(0x00, 0x20)\n      add\n      0x00\n      swap1\n      swap2\n      swap1\n      swap2\n      swap1\n      swap2\n      pop\n      sstore\n        /* \"Practicum1.sol\":3615:3618  i++ */\n      dup1\n      dup1\n      0x01\n      add\n      swap2\n      pop\n      pop\n        /* \"Practicum1.sol\":3590:3667  for (uint i = 0; i < 10; i++) {... */\n      jump(tag_143)\n    tag_144:\n      pop\n        /* \"Practicum1.sol\":3547:3674  function populateArray() public {... */\n      jump\t// out\n        /* \"Practicum1.sol\":5169:5346  function getArrayValue(uint index) public view returns (uint) {... */\n    tag_64:\n        /* \"Practicum1.sol\":5225:5229  uint */\n      0x00\n        /* \"Practicum1.sol\":5258:5270  dynamicArray */\n      0x0a\n        /* \"Practicum1.sol\":5258:5277  dynamicArray.length */\n      dup1\n      sload\n      swap1\n      pop\n        /* \"Practicum1.sol\":5250:5255  index */\n      dup3\n        /* \"Practicum1.sol\":5250:5277  index < dynamicArray.length */\n      lt\n        /* \"Practicum1.sol\":5242:5301  require(index < dynamicArray.length, \"Index out of bounds\") */\n      tag_148\n      jumpi\n      mload(0x40)\n      0x08c379a000000000000000000000000000000000000000000000000000000000\n      dup2\n      mstore\n      0x04\n      add\n      tag_149\n      swap1\n      tag_137\n      jump\t// in\n    tag_149:\n      mload(0x40)\n      dup1\n      swap2\n      sub\n      swap1\n      revert\n    tag_148:\n        /* \"Practicum1.sol\":5319:5331  dynamicArray */\n      0x0a\n        /* \"Practicum1.sol\":5332:5337  index */\n      dup3\n        /* \"Practicum1.sol\":5319:5338  dynamicArray[index] */\n      dup2\n      sload\n      dup2\n      lt\n      tag_150\n      jumpi\n      tag_151\n      tag_140\n      jump\t// in\n    tag_151:\n    tag_150:\n      swap1\n      0x00\n      mstore\n      keccak256(0x00, 0x20)\n      add\n      sload\n        /* \"Practicum1.sol\":5312:5338  return dynamicArray[index] */\n      swap1\n      pop\n        /* \"Practicum1.sol\":5169:5346  function getArrayValue(uint index) public view returns (uint) {... */\n      swap2\n      swap1\n      pop\n      jump\t// out\n        /* \"Practicum1.sol\":4552:4666  function ternarnyCheck(uint _value) public pure returns (uint) {... */\n    tag_68:\n        /* \"Practicum1.sol\":4609:4613  uint */\n      0x00\n        /* \"Practicum1.sol\":4642:4644  10 */\n      0x0a\n        /* \"Practicum1.sol\":4633:4639  _value */\n      dup3\n        /* \"Practicum1.sol\":4633:4644  _value > 10 */\n      gt\n        /* \"Practicum1.sol\":4633:4658  _value > 10 ? _value : 10 */\n      tag_154\n      jumpi\n        /* \"Practicum1.sol\":4656:4658  10 */\n      0x0a\n        /* \"Practicum1.sol\":4633:4658  _value > 10 ? _value : 10 */\n      jump(tag_155)\n    tag_154:\n        /* \"Practicum1.sol\":4647:4653  _value */\n      dup2\n        /* \"Practicum1.sol\":4633:4658  _value > 10 ? _value : 10 */\n    tag_155:\n        /* \"Practicum1.sol\":4626:4658  return _value > 10 ? _value : 10 */\n      swap1\n      pop\n        /* \"Practicum1.sol\":4552:4666  function ternarnyCheck(uint _value) public pure returns (uint) {... */\n      swap2\n      swap1\n      pop\n      jump\t// out\n        /* \"Practicum1.sol\":424:476  mapping(address => uint) public addressToUintMapping */\n    tag_73:\n      mstore(0x20, 0x06)\n      dup1\n      0x00\n      mstore\n      keccak256(0x00, 0x40)\n      0x00\n      swap2\n      pop\n      swap1\n      pop\n      sload\n      dup2\n      jump\t// out\n        /* \"Practicum1.sol\":168:188  address public owner */\n    tag_76:\n      0x02\n      0x00\n      swap1\n      sload\n      swap1\n      0x0100\n      exp\n      swap1\n      div\n      0xffffffffffffffffffffffffffffffffffffffff\n      and\n      dup2\n      jump\t// out\n        /* \"Practicum1.sol\":2129:2380  function addToFixedArray(uint _value1, uint _value2, uint _value3) public {... */\n    tag_82:\n        /* \"Practicum1.sol\":2243:2244  3 */\n      0x03\n        /* \"Practicum1.sol\":2222:2239  fixedArray.length */\n      dup1\n        /* \"Practicum1.sol\":2222:2244  fixedArray.length == 3 */\n      eq\n        /* \"Practicum1.sol\":2214:2270  require(fixedArray.length == 3, \"Array length mismatch\") */\n      tag_157\n      jumpi\n      mload(0x40)\n      0x08c379a000000000000000000000000000000000000000000000000000000000\n      dup2\n      mstore\n      0x04\n      add\n      tag_158\n      swap1\n      tag_159\n      jump\t// in\n    tag_158:\n      mload(0x40)\n      dup1\n      swap2\n      sub\n      swap1\n      revert\n    tag_157:\n        /* \"Practicum1.sol\":2297:2304  _value1 */\n      dup3\n        /* \"Practicum1.sol\":2281:2291  fixedArray */\n      0x07\n        /* \"Practicum1.sol\":2292:2293  0 */\n      0x00\n        /* \"Practicum1.sol\":2281:2294  fixedArray[0] */\n      0x03\n      dup2\n      lt\n      tag_160\n      jumpi\n      tag_161\n      tag_140\n      jump\t// in\n    tag_161:\n    tag_160:\n      add\n        /* \"Practicum1.sol\":2281:2304  fixedArray[0] = _value1 */\n      dup2\n      swap1\n      sstore\n      pop\n        /* \"Practicum1.sol\":2331:2338  _value2 */\n      dup2\n        /* \"Practicum1.sol\":2315:2325  fixedArray */\n      0x07\n        /* \"Practicum1.sol\":2326:2327  1 */\n      0x01\n        /* \"Practicum1.sol\":2315:2328  fixedArray[1] */\n      0x03\n      dup2\n      lt\n      tag_163\n      jumpi\n      tag_164\n      tag_140\n      jump\t// in\n    tag_164:\n    tag_163:\n      add\n        /* \"Practicum1.sol\":2315:2338  fixedArray[1] = _value2 */\n      dup2\n      swap1\n      sstore\n      pop\n        /* \"Practicum1.sol\":2365:2372  _value3 */\n      dup1\n        /* \"Practicum1.sol\":2349:2359  fixedArray */\n      0x07\n        /* \"Practicum1.sol\":2360:2361  2 */\n      0x02\n        /* \"Practicum1.sol\":2349:2362  fixedArray[2] */\n      0x03\n      dup2\n      lt\n      tag_166\n      jumpi\n      tag_167\n      tag_140\n      jump\t// in\n    tag_167:\n    tag_166:\n      add\n        /* \"Practicum1.sol\":2349:2372  fixedArray[2] = _value3 */\n      dup2\n      swap1\n      sstore\n      pop\n        /* \"Practicum1.sol\":2129:2380  function addToFixedArray(uint _value1, uint _value2, uint _value3) public {... */\n      pop\n      pop\n      pop\n      jump\t// out\n        /* \"Practicum1.sol\":4004:4200  function addToFixedArrayAndEmit(uint _value) public {... */\n    tag_85:\n        /* \"Practicum1.sol\":4096:4097  3 */\n      0x03\n        /* \"Practicum1.sol\":4075:4092  fixedArray.length */\n      dup1\n        /* \"Practicum1.sol\":4075:4097  fixedArray.length == 3 */\n      eq\n        /* \"Practicum1.sol\":4067:4123  require(fixedArray.length == 3, \"Array length mismatch\") */\n      tag_170\n      jumpi\n      mload(0x40)\n      0x08c379a000000000000000000000000000000000000000000000000000000000\n      dup2\n      mstore\n      0x04\n      add\n      tag_171\n      swap1\n      tag_159\n      jump\t// in\n    tag_171:\n      mload(0x40)\n      dup1\n      swap2\n      sub\n      swap1\n      revert\n    tag_170:\n        /* \"Practicum1.sol\":4150:4156  _value */\n      dup1\n        /* \"Practicum1.sol\":4134:4144  fixedArray */\n      0x07\n        /* \"Practicum1.sol\":4145:4146  2 */\n      0x02\n        /* \"Practicum1.sol\":4134:4147  fixedArray[2] */\n      0x03\n      dup2\n      lt\n      tag_172\n      jumpi\n      tag_173\n      tag_140\n      jump\t// in\n    tag_173:\n    tag_172:\n      add\n        /* \"Practicum1.sol\":4134:4156  fixedArray[2] = _value */\n      dup2\n      swap1\n      sstore\n      pop\n        /* \"Practicum1.sol\":4172:4192  ValueChanged(_value) */\n      0x93fe6d397c74fdf1402a8b72e47b68512f0510d7b98a4bc4cbdf6ac7108b3c59\n        /* \"Practicum1.sol\":4185:4191  _value */\n      dup2\n        /* \"Practicum1.sol\":4172:4192  ValueChanged(_value) */\n      mload(0x40)\n      tag_175\n      swap2\n      swap1\n      tag_47\n      jump\t// in\n    tag_175:\n      mload(0x40)\n      dup1\n      swap2\n      sub\n      swap1\n      log1\n        /* \"Practicum1.sol\":4004:4200  function addToFixedArrayAndEmit(uint _value) public {... */\n      pop\n      jump\t// out\n        /* \"Practicum1.sol\":500:525  uint[3] public fixedArray */\n    tag_88:\n      0x07\n      dup2\n      0x03\n      dup2\n      lt\n      tag_176\n      jumpi\n      0x00\n      dup1\n      revert\n    tag_176:\n      add\n      0x00\n      swap2\n      pop\n      swap1\n      pop\n      sload\n      dup2\n      jump\t// out\n        /* \"Practicum1.sol\":532:558  uint[] public dynamicArray */\n    tag_92:\n      0x0a\n      dup2\n      dup2\n      sload\n      dup2\n      lt\n      tag_178\n      jumpi\n      0x00\n      dup1\n      revert\n    tag_178:\n      swap1\n      0x00\n      mstore\n      keccak256(0x00, 0x20)\n      add\n      0x00\n      swap2\n      pop\n      swap1\n      pop\n      sload\n      dup2\n      jump\t// out\n        /* \"Practicum1.sol\":3306:3464  function changeOwner(address _newOwner) public onlyOwner nonZeroAddress(_newOwner) {... */\n    tag_96:\n        /* \"Practicum1.sol\":760:770  msg.sender */\n      caller\n        /* \"Practicum1.sol\":751:770  owner == msg.sender */\n      0xffffffffffffffffffffffffffffffffffffffff\n      and\n        /* \"Practicum1.sol\":751:756  owner */\n      0x02\n      0x00\n      swap1\n      sload\n      swap1\n      0x0100\n      exp\n      swap1\n      div\n      0xffffffffffffffffffffffffffffffffffffffff\n      and\n        /* \"Practicum1.sol\":751:770  owner == msg.sender */\n      0xffffffffffffffffffffffffffffffffffffffff\n      and\n      eq\n        /* \"Practicum1.sol\":743:788  require(owner == msg.sender, \"Not the owner\") */\n      tag_181\n      jumpi\n      mload(0x40)\n      0x08c379a000000000000000000000000000000000000000000000000000000000\n      dup2\n      mstore\n      0x04\n      add\n      tag_182\n      swap1\n      tag_183\n      jump\t// in\n    tag_182:\n      mload(0x40)\n      dup1\n      swap2\n      sub\n      swap1\n      revert\n    tag_181:\n        /* \"Practicum1.sol\":3378:3387  _newOwner */\n      dup1\n        /* \"Practicum1.sol\":935:936  0 */\n      0x00\n        /* \"Practicum1.sol\":918:937  _addr != address(0) */\n      0xffffffffffffffffffffffffffffffffffffffff\n      and\n        /* \"Practicum1.sol\":918:923  _addr */\n      dup2\n        /* \"Practicum1.sol\":918:937  _addr != address(0) */\n      0xffffffffffffffffffffffffffffffffffffffff\n      and\n      sub\n        /* \"Practicum1.sol\":910:954  require(_addr != address(0), \"Zero address\") */\n      tag_185\n      jumpi\n      mload(0x40)\n      0x08c379a000000000000000000000000000000000000000000000000000000000\n      dup2\n      mstore\n      0x04\n      add\n      tag_186\n      swap1\n      tag_187\n      jump\t// in\n    tag_186:\n      mload(0x40)\n      dup1\n      swap2\n      sub\n      swap1\n      revert\n    tag_185:\n        /* \"Practicum1.sol\":3408:3417  _newOwner */\n      dup2\n        /* \"Practicum1.sol\":3400:3405  owner */\n      0x02\n      0x00\n        /* \"Practicum1.sol\":3400:3417  owner = _newOwner */\n      0x0100\n      exp\n      dup2\n      sload\n      dup2\n      0xffffffffffffffffffffffffffffffffffffffff\n      mul\n      not\n      and\n      swap1\n      dup4\n      0xffffffffffffffffffffffffffffffffffffffff\n      and\n      mul\n      or\n      swap1\n      sstore\n      pop\n        /* \"Practicum1.sol\":3433:3456  OwnerChanged(_newOwner) */\n      0xa2ea9883a321a3e97b8266c2b078bfeec6d50c711ed71f874a90d500ae2eaf36\n        /* \"Practicum1.sol\":3446:3455  _newOwner */\n      dup3\n        /* \"Practicum1.sol\":3433:3456  OwnerChanged(_newOwner) */\n      mload(0x40)\n      tag_189\n      swap2\n      swap1\n      tag_78\n      jump\t// in\n    tag_189:\n      mload(0x40)\n      dup1\n      swap2\n      sub\n      swap1\n      log1\n        /* \"Practicum1.sol\":799:800  _ */\n      pop\n        /* \"Practicum1.sol\":3306:3464  function changeOwner(address _newOwner) public onlyOwner nonZeroAddress(_newOwner) {... */\n      pop\n      jump\t// out\n        /* \"Practicum1.sol\":224:248  bool public boolVariable */\n    tag_98:\n      0x03\n      0x14\n      swap1\n      sload\n      swap1\n      0x0100\n      exp\n      swap1\n      div\n      0xff\n      and\n      dup2\n      jump\t// out\n        /* \"Practicum1.sol\":3770:3910  function resetMappingAndSetStatus(address _addr) public {... */\n    tag_103:\n        /* \"Practicum1.sol\":3867:3868  0 */\n      0x00\n        /* \"Practicum1.sol\":3837:3857  addressToUintMapping */\n      0x06\n        /* \"Practicum1.sol\":3837:3864  addressToUintMapping[_addr] */\n      0x00\n        /* \"Practicum1.sol\":3858:3863  _addr */\n      dup4\n        /* \"Practicum1.sol\":3837:3864  addressToUintMapping[_addr] */\n      0xffffffffffffffffffffffffffffffffffffffff\n      and\n      0xffffffffffffffffffffffffffffffffffffffff\n      and\n      dup2\n      mstore\n      0x20\n      add\n      swap1\n      dup2\n      mstore\n      0x20\n      add\n      0x00\n      keccak256\n        /* \"Practicum1.sol\":3837:3868  addressToUintMapping[_addr] = 0 */\n      dup2\n      swap1\n      sstore\n      pop\n        /* \"Practicum1.sol\":3888:3902  Status.Option2 */\n      0x01\n        /* \"Practicum1.sol\":3879:3885  status */\n      0x0b\n      0x00\n        /* \"Practicum1.sol\":3879:3902  status = Status.Option2 */\n      0x0100\n      exp\n      dup2\n      sload\n      dup2\n      0xff\n      mul\n      not\n      and\n      swap1\n      dup4\n      0x02\n      dup2\n      gt\n      iszero\n      tag_191\n      jumpi\n      tag_192\n      tag_193\n      jump\t// in\n    tag_192:\n    tag_191:\n      mul\n      or\n      swap1\n      sstore\n      pop\n        /* \"Practicum1.sol\":3770:3910  function resetMappingAndSetStatus(address _addr) public {... */\n      pop\n      jump\t// out\n        /* \"Practicum1.sol\":2719:3006  function deleteFrovDynamicArray(uint index) public {... */\n    tag_106:\n        /* \"Practicum1.sol\":2797:2809  dynamicArray */\n      0x0a\n        /* \"Practicum1.sol\":2797:2816  dynamicArray.length */\n      dup1\n      sload\n      swap1\n      pop\n        /* \"Practicum1.sol\":2789:2794  index */\n      dup2\n        /* \"Practicum1.sol\":2789:2816  index < dynamicArray.length */\n      lt\n        /* \"Practicum1.sol\":2781:2840  require(index < dynamicArray.length, \"Index out of bounds\") */\n      tag_195\n      jumpi\n      mload(0x40)\n      0x08c379a000000000000000000000000000000000000000000000000000000000\n      dup2\n      mstore\n      0x04\n      add\n      tag_196\n      swap1\n      tag_137\n      jump\t// in\n    tag_196:\n      mload(0x40)\n      dup1\n      swap2\n      sub\n      swap1\n      revert\n    tag_195:\n        /* \"Practicum1.sol\":2856:2862  uint i */\n      0x00\n        /* \"Practicum1.sol\":2865:2870  index */\n      dup2\n        /* \"Practicum1.sol\":2856:2870  uint i = index */\n      swap1\n      pop\n        /* \"Practicum1.sol\":2851:2968  for (uint i = index; i < dynamicArray.length - 1; i++) {... */\n    tag_197:\n        /* \"Practicum1.sol\":2898:2899  1 */\n      0x01\n        /* \"Practicum1.sol\":2876:2888  dynamicArray */\n      0x0a\n        /* \"Practicum1.sol\":2876:2895  dynamicArray.length */\n      dup1\n      sload\n      swap1\n      pop\n        /* \"Practicum1.sol\":2876:2899  dynamicArray.length - 1 */\n      tag_200\n      swap2\n      swap1\n      tag_201\n      jump\t// in\n    tag_200:\n        /* \"Practicum1.sol\":2872:2873  i */\n      dup2\n        /* \"Practicum1.sol\":2872:2899  i < dynamicArray.length - 1 */\n      lt\n        /* \"Practicum1.sol\":2851:2968  for (uint i = index; i < dynamicArray.length - 1; i++) {... */\n      iszero\n      tag_198\n      jumpi\n        /* \"Practicum1.sol\":2939:2951  dynamicArray */\n      0x0a\n        /* \"Practicum1.sol\":2954:2955  1 */\n      0x01\n        /* \"Practicum1.sol\":2952:2953  i */\n      dup3\n        /* \"Practicum1.sol\":2952:2955  i+1 */\n      tag_202\n      swap2\n      swap1\n      tag_129\n      jump\t// in\n    tag_202:\n        /* \"Practicum1.sol\":2939:2956  dynamicArray[i+1] */\n      dup2\n      sload\n      dup2\n      lt\n      tag_203\n      jumpi\n      tag_204\n      tag_140\n      jump\t// in\n    tag_204:\n    tag_203:\n      swap1\n      0x00\n      mstore\n      keccak256(0x00, 0x20)\n      add\n      sload\n        /* \"Practicum1.sol\":2921:2933  dynamicArray */\n      0x0a\n        /* \"Practicum1.sol\":2934:2935  i */\n      dup3\n        /* \"Practicum1.sol\":2921:2936  dynamicArray[i] */\n      dup2\n      sload\n      dup2\n      lt\n      tag_206\n      jumpi\n      tag_207\n      tag_140\n      jump\t// in\n    tag_207:\n    tag_206:\n      swap1\n      0x00\n      mstore\n      keccak256(0x00, 0x20)\n      add\n        /* \"Practicum1.sol\":2921:2956  dynamicArray[i] = dynamicArray[i+1] */\n      dup2\n      swap1\n      sstore\n      pop\n        /* \"Practicum1.sol\":2901:2904  i++ */\n      dup1\n      dup1\n      0x01\n      add\n      swap2\n      pop\n      pop\n        /* \"Practicum1.sol\":2851:2968  for (uint i = index; i < dynamicArray.length - 1; i++) {... */\n      jump(tag_197)\n    tag_198:\n      pop\n        /* \"Practicum1.sol\":2980:2992  dynamicArray */\n      0x0a\n        /* \"Practicum1.sol\":2980:2998  dynamicArray.pop() */\n      dup1\n      sload\n      dup1\n      tag_209\n      jumpi\n      tag_210\n      tag_211\n      jump\t// in\n    tag_210:\n    tag_209:\n      0x01\n      swap1\n      sub\n      dup2\n      dup2\n      swap1\n      0x00\n      mstore\n      keccak256(0x00, 0x20)\n      add\n      0x00\n      swap1\n      sstore\n      swap1\n      sstore\n        /* \"Practicum1.sol\":2719:3006  function deleteFrovDynamicArray(uint index) public {... */\n      pop\n      jump\t// out\n        /* \"Practicum1.sol\":1503:1656  function decrementByConstant() public {... */\n    tag_108:\n        /* \"Practicum1.sol\":396:399  100 */\n      0x64\n        /* \"Practicum1.sol\":1560:1573  uintVariable2 */\n      sload(0x01)\n        /* \"Practicum1.sol\":1560:1589  uintVariable2 <= uintConstant */\n      gt\n      iszero\n        /* \"Practicum1.sol\":1552:1608  require(uintVariable2 <= uintConstant, \"Underflow risk\") */\n      tag_214\n      jumpi\n      mload(0x40)\n      0x08c379a000000000000000000000000000000000000000000000000000000000\n      dup2\n      mstore\n      0x04\n      add\n      tag_215\n      swap1\n      tag_216\n      jump\t// in\n    tag_215:\n      mload(0x40)\n      dup1\n      swap2\n      sub\n      swap1\n      revert\n    tag_214:\n        /* \"Practicum1.sol\":396:399  100 */\n      0x64\n        /* \"Practicum1.sol\":1619:1632  uintVariable2 */\n      0x01\n      0x00\n        /* \"Practicum1.sol\":1619:1648  uintVariable2 -= uintConstant */\n      dup3\n      dup3\n      sload\n      tag_217\n      swap2\n      swap1\n      tag_201\n      jump\t// in\n    tag_217:\n      swap3\n      pop\n      pop\n      dup2\n      swap1\n      sstore\n      pop\n        /* \"Practicum1.sol\":1503:1656  function decrementByConstant() public {... */\n      jump\t// out\n        /* \"Practicum1.sol\":1756:1884  function assWithArguvents(uint _value) public view returns (uint) {... */\n    tag_111:\n        /* \"Practicum1.sol\":1816:1820  uint */\n      0x00\n        /* \"Practicum1.sol\":1864:1876  uintVariable */\n      dup1\n      sload\n        /* \"Practicum1.sol\":396:399  100 */\n      0x64\n        /* \"Practicum1.sol\":1840:1846  _value */\n      dup4\n        /* \"Practicum1.sol\":1840:1861  _value + uintConstant */\n      tag_219\n      swap2\n      swap1\n      tag_129\n      jump\t// in\n    tag_219:\n        /* \"Practicum1.sol\":1840:1876  _value + uintConstant + uintVariable */\n      tag_220\n      swap2\n      swap1\n      tag_129\n      jump\t// in\n    tag_220:\n        /* \"Practicum1.sol\":1833:1876  return _value + uintConstant + uintVariable */\n      swap1\n      pop\n        /* \"Practicum1.sol\":1756:1884  function assWithArguvents(uint _value) public view returns (uint) {... */\n      swap2\n      swap1\n      pop\n      jump\t// out\n        /* \"Practicum1.sol\":4754:5099  function revertOnMappingChange(address _addr, uint _value) public {... */\n    tag_115:\n        /* \"Practicum1.sol\":4898:4899  0 */\n      0x00\n        /* \"Practicum1.sol\":4867:4887  addressToUintMapping */\n      0x06\n        /* \"Practicum1.sol\":4867:4894  addressToUintMapping[_addr] */\n      0x00\n        /* \"Practicum1.sol\":4888:4893  _addr */\n      dup5\n        /* \"Practicum1.sol\":4867:4894  addressToUintMapping[_addr] */\n      0xffffffffffffffffffffffffffffffffffffffff\n      and\n      0xffffffffffffffffffffffffffffffffffffffff\n      and\n      dup2\n      mstore\n      0x20\n      add\n      swap1\n      dup2\n      mstore\n      0x20\n      add\n      0x00\n      keccak256\n      sload\n        /* \"Practicum1.sol\":4867:4899  addressToUintMapping[_addr] != 0 */\n      eq\n        /* \"Practicum1.sol\":4863:5017  if (addressToUintMapping[_addr] != 0) {... */\n      tag_222\n      jumpi\n        /* \"Practicum1.sol\":4968:5005  revert(\"Cannot change mapping value\") */\n      mload(0x40)\n      0x08c379a000000000000000000000000000000000000000000000000000000000\n      dup2\n      mstore\n      0x04\n      add\n      tag_223\n      swap1\n      tag_224\n      jump\t// in\n    tag_223:\n      mload(0x40)\n      dup1\n      swap2\n      sub\n      swap1\n      revert\n        /* \"Practicum1.sol\":4863:5017  if (addressToUintMapping[_addr] != 0) {... */\n    tag_222:\n        /* \"Practicum1.sol\":5085:5091  _value */\n      dup1\n        /* \"Practicum1.sol\":5055:5075  addressToUintMapping */\n      0x06\n        /* \"Practicum1.sol\":5055:5082  addressToUintMapping[_addr] */\n      0x00\n        /* \"Practicum1.sol\":5076:5081  _addr */\n      dup5\n        /* \"Practicum1.sol\":5055:5082  addressToUintMapping[_addr] */\n      0xffffffffffffffffffffffffffffffffffffffff\n      and\n      0xffffffffffffffffffffffffffffffffffffffff\n      and\n      dup2\n      mstore\n      0x20\n      add\n      swap1\n      dup2\n      mstore\n      0x20\n      add\n      0x00\n      keccak256\n        /* \"Practicum1.sol\":5055:5091  addressToUintMapping[_addr] = _value */\n      dup2\n      swap1\n      sstore\n      pop\n        /* \"Practicum1.sol\":4754:5099  function revertOnMappingChange(address _addr, uint _value) public {... */\n      pop\n      pop\n      jump\t// out\n        /* \"#utility.yul\":88:205   */\n    tag_226:\n        /* \"#utility.yul\":197:198   */\n      0x00\n        /* \"#utility.yul\":194:195   */\n      dup1\n        /* \"#utility.yul\":187:199   */\n      revert\n        /* \"#utility.yul\":334:460   */\n    tag_228:\n        /* \"#utility.yul\":371:378   */\n      0x00\n        /* \"#utility.yul\":411:453   */\n      0xffffffffffffffffffffffffffffffffffffffff\n        /* \"#utility.yul\":404:409   */\n      dup3\n        /* \"#utility.yul\":400:454   */\n      and\n        /* \"#utility.yul\":389:454   */\n      swap1\n      pop\n        /* \"#utility.yul\":334:460   */\n      swap2\n      swap1\n      pop\n      jump\t// out\n        /* \"#utility.yul\":466:562   */\n    tag_229:\n        /* \"#utility.yul\":503:510   */\n      0x00\n        /* \"#utility.yul\":532:556   */\n      tag_270\n        /* \"#utility.yul\":550:555   */\n      dup3\n        /* \"#utility.yul\":532:556   */\n      tag_228\n      jump\t// in\n    tag_270:\n        /* \"#utility.yul\":521:556   */\n      swap1\n      pop\n        /* \"#utility.yul\":466:562   */\n      swap2\n      swap1\n      pop\n      jump\t// out\n        /* \"#utility.yul\":568:690   */\n    tag_230:\n        /* \"#utility.yul\":641:665   */\n      tag_272\n        /* \"#utility.yul\":659:664   */\n      dup2\n        /* \"#utility.yul\":641:665   */\n      tag_229\n      jump\t// in\n    tag_272:\n        /* \"#utility.yul\":634:639   */\n      dup2\n        /* \"#utility.yul\":631:666   */\n      eq\n        /* \"#utility.yul\":621:684   */\n      tag_273\n      jumpi\n        /* \"#utility.yul\":680:681   */\n      0x00\n        /* \"#utility.yul\":677:678   */\n      dup1\n        /* \"#utility.yul\":670:682   */\n      revert\n        /* \"#utility.yul\":621:684   */\n    tag_273:\n        /* \"#utility.yul\":568:690   */\n      pop\n      jump\t// out\n        /* \"#utility.yul\":696:835   */\n    tag_231:\n        /* \"#utility.yul\":742:747   */\n      0x00\n        /* \"#utility.yul\":780:786   */\n      dup2\n        /* \"#utility.yul\":767:787   */\n      calldataload\n        /* \"#utility.yul\":758:787   */\n      swap1\n      pop\n        /* \"#utility.yul\":796:829   */\n      tag_275\n        /* \"#utility.yul\":823:828   */\n      dup2\n        /* \"#utility.yul\":796:829   */\n      tag_230\n      jump\t// in\n    tag_275:\n        /* \"#utility.yul\":696:835   */\n      swap3\n      swap2\n      pop\n      pop\n      jump\t// out\n        /* \"#utility.yul\":841:918   */\n    tag_232:\n        /* \"#utility.yul\":878:885   */\n      0x00\n        /* \"#utility.yul\":907:912   */\n      dup2\n        /* \"#utility.yul\":896:912   */\n      swap1\n      pop\n        /* \"#utility.yul\":841:918   */\n      swap2\n      swap1\n      pop\n      jump\t// out\n        /* \"#utility.yul\":924:1046   */\n    tag_233:\n        /* \"#utility.yul\":997:1021   */\n      tag_278\n        /* \"#utility.yul\":1015:1020   */\n      dup2\n        /* \"#utility.yul\":997:1021   */\n      tag_232\n      jump\t// in\n    tag_278:\n        /* \"#utility.yul\":990:995   */\n      dup2\n        /* \"#utility.yul\":987:1022   */\n      eq\n        /* \"#utility.yul\":977:1040   */\n      tag_279\n      jumpi\n        /* \"#utility.yul\":1036:1037   */\n      0x00\n        /* \"#utility.yul\":1033:1034   */\n      dup1\n        /* \"#utility.yul\":1026:1038   */\n      revert\n        /* \"#utility.yul\":977:1040   */\n    tag_279:\n        /* \"#utility.yul\":924:1046   */\n      pop\n      jump\t// out\n        /* \"#utility.yul\":1052:1191   */\n    tag_234:\n        /* \"#utility.yul\":1098:1103   */\n      0x00\n        /* \"#utility.yul\":1136:1142   */\n      dup2\n        /* \"#utility.yul\":1123:1143   */\n      calldataload\n        /* \"#utility.yul\":1114:1143   */\n      swap1\n      pop\n        /* \"#utility.yul\":1152:1185   */\n      tag_281\n        /* \"#utility.yul\":1179:1184   */\n      dup2\n        /* \"#utility.yul\":1152:1185   */\n      tag_233\n      jump\t// in\n    tag_281:\n        /* \"#utility.yul\":1052:1191   */\n      swap3\n      swap2\n      pop\n      pop\n      jump\t// out\n        /* \"#utility.yul\":1197:1671   */\n    tag_32:\n        /* \"#utility.yul\":1265:1271   */\n      0x00\n        /* \"#utility.yul\":1273:1279   */\n      dup1\n        /* \"#utility.yul\":1322:1324   */\n      0x40\n        /* \"#utility.yul\":1310:1319   */\n      dup4\n        /* \"#utility.yul\":1301:1308   */\n      dup6\n        /* \"#utility.yul\":1297:1320   */\n      sub\n        /* \"#utility.yul\":1293:1325   */\n      slt\n        /* \"#utility.yul\":1290:1409   */\n      iszero\n      tag_283\n      jumpi\n        /* \"#utility.yul\":1328:1407   */\n      tag_284\n      tag_226\n      jump\t// in\n    tag_284:\n        /* \"#utility.yul\":1290:1409   */\n    tag_283:\n        /* \"#utility.yul\":1448:1449   */\n      0x00\n        /* \"#utility.yul\":1473:1526   */\n      tag_285\n        /* \"#utility.yul\":1518:1525   */\n      dup6\n        /* \"#utility.yul\":1509:1515   */\n      dup3\n        /* \"#utility.yul\":1498:1507   */\n      dup7\n        /* \"#utility.yul\":1494:1516   */\n      add\n        /* \"#utility.yul\":1473:1526   */\n      tag_231\n      jump\t// in\n    tag_285:\n        /* \"#utility.yul\":1463:1526   */\n      swap3\n      pop\n        /* \"#utility.yul\":1419:1536   */\n      pop\n        /* \"#utility.yul\":1575:1577   */\n      0x20\n        /* \"#utility.yul\":1601:1654   */\n      tag_286\n        /* \"#utility.yul\":1646:1653   */\n      dup6\n        /* \"#utility.yul\":1637:1643   */\n      dup3\n        /* \"#utility.yul\":1626:1635   */\n      dup7\n        /* \"#utility.yul\":1622:1644   */\n      add\n        /* \"#utility.yul\":1601:1654   */\n      tag_234\n      jump\t// in\n    tag_286:\n        /* \"#utility.yul\":1591:1654   */\n      swap2\n      pop\n        /* \"#utility.yul\":1546:1664   */\n      pop\n        /* \"#utility.yul\":1197:1671   */\n      swap3\n      pop\n      swap3\n      swap1\n      pop\n      jump\t// out\n        /* \"#utility.yul\":1677:1776   */\n    tag_235:\n        /* \"#utility.yul\":1729:1735   */\n      0x00\n        /* \"#utility.yul\":1763:1768   */\n      dup2\n        /* \"#utility.yul\":1757:1769   */\n      mload\n        /* \"#utility.yul\":1747:1769   */\n      swap1\n      pop\n        /* \"#utility.yul\":1677:1776   */\n      swap2\n      swap1\n      pop\n      jump\t// out\n        /* \"#utility.yul\":1782:1951   */\n    tag_236:\n        /* \"#utility.yul\":1866:1877   */\n      0x00\n        /* \"#utility.yul\":1900:1906   */\n      dup3\n        /* \"#utility.yul\":1895:1898   */\n      dup3\n        /* \"#utility.yul\":1888:1907   */\n      mstore\n        /* \"#utility.yul\":1940:1944   */\n      0x20\n        /* \"#utility.yul\":1935:1938   */\n      dup3\n        /* \"#utility.yul\":1931:1945   */\n      add\n        /* \"#utility.yul\":1916:1945   */\n      swap1\n      pop\n        /* \"#utility.yul\":1782:1951   */\n      swap3\n      swap2\n      pop\n      pop\n      jump\t// out\n        /* \"#utility.yul\":1957:2203   */\n    tag_237:\n        /* \"#utility.yul\":2038:2039   */\n      0x00\n        /* \"#utility.yul\":2048:2161   */\n    tag_290:\n        /* \"#utility.yul\":2062:2068   */\n      dup4\n        /* \"#utility.yul\":2059:2060   */\n      dup2\n        /* \"#utility.yul\":2056:2069   */\n      lt\n        /* \"#utility.yul\":2048:2161   */\n      iszero\n      tag_292\n      jumpi\n        /* \"#utility.yul\":2147:2148   */\n      dup1\n        /* \"#utility.yul\":2142:2145   */\n      dup3\n        /* \"#utility.yul\":2138:2149   */\n      add\n        /* \"#utility.yul\":2132:2150   */\n      mload\n        /* \"#utility.yul\":2128:2129   */\n      dup2\n        /* \"#utility.yul\":2123:2126   */\n      dup5\n        /* \"#utility.yul\":2119:2130   */\n      add\n        /* \"#utility.yul\":2112:2151   */\n      mstore\n        /* \"#utility.yul\":2084:2086   */\n      0x20\n        /* \"#utility.yul\":2081:2082   */\n      dup2\n        /* \"#utility.yul\":2077:2087   */\n      add\n        /* \"#utility.yul\":2072:2087   */\n      swap1\n      pop\n        /* \"#utility.yul\":2048:2161   */\n      jump(tag_290)\n    tag_292:\n        /* \"#utility.yul\":2195:2196   */\n      0x00\n        /* \"#utility.yul\":2186:2192   */\n      dup5\n        /* \"#utility.yul\":2181:2184   */\n      dup5\n        /* \"#utility.yul\":2177:2193   */\n      add\n        /* \"#utility.yul\":2170:2197   */\n      mstore\n        /* \"#utility.yul\":2019:2203   */\n      pop\n        /* \"#utility.yul\":1957:2203   */\n      pop\n      pop\n      pop\n      jump\t// out\n        /* \"#utility.yul\":2209:2311   */\n    tag_238:\n        /* \"#utility.yul\":2250:2256   */\n      0x00\n        /* \"#utility.yul\":2301:2303   */\n      0x1f\n        /* \"#utility.yul\":2297:2304   */\n      not\n        /* \"#utility.yul\":2292:2294   */\n      0x1f\n        /* \"#utility.yul\":2285:2290   */\n      dup4\n        /* \"#utility.yul\":2281:2295   */\n      add\n        /* \"#utility.yul\":2277:2305   */\n      and\n        /* \"#utility.yul\":2267:2305   */\n      swap1\n      pop\n        /* \"#utility.yul\":2209:2311   */\n      swap2\n      swap1\n      pop\n      jump\t// out\n        /* \"#utility.yul\":2317:2694   */\n    tag_239:\n        /* \"#utility.yul\":2405:2408   */\n      0x00\n        /* \"#utility.yul\":2433:2472   */\n      tag_295\n        /* \"#utility.yul\":2466:2471   */\n      dup3\n        /* \"#utility.yul\":2433:2472   */\n      tag_235\n      jump\t// in\n    tag_295:\n        /* \"#utility.yul\":2488:2559   */\n      tag_296\n        /* \"#utility.yul\":2552:2558   */\n      dup2\n        /* \"#utility.yul\":2547:2550   */\n      dup6\n        /* \"#utility.yul\":2488:2559   */\n      tag_236\n      jump\t// in\n    tag_296:\n        /* \"#utility.yul\":2481:2559   */\n      swap4\n      pop\n        /* \"#utility.yul\":2568:2633   */\n      tag_297\n        /* \"#utility.yul\":2626:2632   */\n      dup2\n        /* \"#utility.yul\":2621:2624   */\n      dup6\n        /* \"#utility.yul\":2614:2618   */\n      0x20\n        /* \"#utility.yul\":2607:2612   */\n      dup7\n        /* \"#utility.yul\":2603:2619   */\n      add\n        /* \"#utility.yul\":2568:2633   */\n      tag_237\n      jump\t// in\n    tag_297:\n        /* \"#utility.yul\":2658:2687   */\n      tag_298\n        /* \"#utility.yul\":2680:2686   */\n      dup2\n        /* \"#utility.yul\":2658:2687   */\n      tag_238\n      jump\t// in\n    tag_298:\n        /* \"#utility.yul\":2653:2656   */\n      dup5\n        /* \"#utility.yul\":2649:2688   */\n      add\n        /* \"#utility.yul\":2642:2688   */\n      swap2\n      pop\n        /* \"#utility.yul\":2409:2694   */\n      pop\n        /* \"#utility.yul\":2317:2694   */\n      swap3\n      swap2\n      pop\n      pop\n      jump\t// out\n        /* \"#utility.yul\":2700:3013   */\n    tag_39:\n        /* \"#utility.yul\":2813:2817   */\n      0x00\n        /* \"#utility.yul\":2851:2853   */\n      0x20\n        /* \"#utility.yul\":2840:2849   */\n      dup3\n        /* \"#utility.yul\":2836:2854   */\n      add\n        /* \"#utility.yul\":2828:2854   */\n      swap1\n      pop\n        /* \"#utility.yul\":2900:2909   */\n      dup2\n        /* \"#utility.yul\":2894:2898   */\n      dup2\n        /* \"#utility.yul\":2890:2910   */\n      sub\n        /* \"#utility.yul\":2886:2887   */\n      0x00\n        /* \"#utility.yul\":2875:2884   */\n      dup4\n        /* \"#utility.yul\":2871:2888   */\n      add\n        /* \"#utility.yul\":2864:2911   */\n      mstore\n        /* \"#utility.yul\":2928:3006   */\n      tag_300\n        /* \"#utility.yul\":3001:3005   */\n      dup2\n        /* \"#utility.yul\":2992:2998   */\n      dup5\n        /* \"#utility.yul\":2928:3006   */\n      tag_239\n      jump\t// in\n    tag_300:\n        /* \"#utility.yul\":2920:3006   */\n      swap1\n      pop\n        /* \"#utility.yul\":2700:3013   */\n      swap3\n      swap2\n      pop\n      pop\n      jump\t// out\n        /* \"#utility.yul\":3019:3199   */\n    tag_193:\n        /* \"#utility.yul\":3067:3144   */\n      0x4e487b7100000000000000000000000000000000000000000000000000000000\n        /* \"#utility.yul\":3064:3065   */\n      0x00\n        /* \"#utility.yul\":3057:3145   */\n      mstore\n        /* \"#utility.yul\":3164:3168   */\n      0x21\n        /* \"#utility.yul\":3161:3162   */\n      0x04\n        /* \"#utility.yul\":3154:3169   */\n      mstore\n        /* \"#utility.yul\":3188:3192   */\n      0x24\n        /* \"#utility.yul\":3185:3186   */\n      0x00\n        /* \"#utility.yul\":3178:3193   */\n      revert\n        /* \"#utility.yul\":3205:3319   */\n    tag_240:\n        /* \"#utility.yul\":3287:3288   */\n      0x03\n        /* \"#utility.yul\":3280:3285   */\n      dup2\n        /* \"#utility.yul\":3277:3289   */\n      lt\n        /* \"#utility.yul\":3267:3313   */\n      tag_303\n      jumpi\n        /* \"#utility.yul\":3293:3311   */\n      tag_304\n      tag_193\n      jump\t// in\n    tag_304:\n        /* \"#utility.yul\":3267:3313   */\n    tag_303:\n        /* \"#utility.yul\":3205:3319   */\n      pop\n      jump\t// out\n        /* \"#utility.yul\":3325:3454   */\n    tag_241:\n        /* \"#utility.yul\":3371:3378   */\n      0x00\n        /* \"#utility.yul\":3400:3405   */\n      dup2\n        /* \"#utility.yul\":3389:3405   */\n      swap1\n      pop\n        /* \"#utility.yul\":3406:3448   */\n      tag_306\n        /* \"#utility.yul\":3442:3447   */\n      dup3\n        /* \"#utility.yul\":3406:3448   */\n      tag_240\n      jump\t// in\n    tag_306:\n        /* \"#utility.yul\":3325:3454   */\n      swap2\n      swap1\n      pop\n      jump\t// out\n        /* \"#utility.yul\":3460:3589   */\n    tag_242:\n        /* \"#utility.yul\":3517:3526   */\n      0x00\n        /* \"#utility.yul\":3550:3583   */\n      tag_308\n        /* \"#utility.yul\":3577:3582   */\n      dup3\n        /* \"#utility.yul\":3550:3583   */\n      tag_241\n      jump\t// in\n    tag_308:\n        /* \"#utility.yul\":3537:3583   */\n      swap1\n      pop\n        /* \"#utility.yul\":3460:3589   */\n      swap2\n      swap1\n      pop\n      jump\t// out\n        /* \"#utility.yul\":3595:3740   */\n    tag_243:\n        /* \"#utility.yul\":3689:3733   */\n      tag_310\n        /* \"#utility.yul\":3727:3732   */\n      dup2\n        /* \"#utility.yul\":3689:3733   */\n      tag_242\n      jump\t// in\n    tag_310:\n        /* \"#utility.yul\":3684:3687   */\n      dup3\n        /* \"#utility.yul\":3677:3734   */\n      mstore\n        /* \"#utility.yul\":3595:3740   */\n      pop\n      pop\n      jump\t// out\n        /* \"#utility.yul\":3746:3982   */\n    tag_43:\n        /* \"#utility.yul\":3846:3850   */\n      0x00\n        /* \"#utility.yul\":3884:3886   */\n      0x20\n        /* \"#utility.yul\":3873:3882   */\n      dup3\n        /* \"#utility.yul\":3869:3887   */\n      add\n        /* \"#utility.yul\":3861:3887   */\n      swap1\n      pop\n        /* \"#utility.yul\":3897:3975   */\n      tag_312\n        /* \"#utility.yul\":3972:3973   */\n      0x00\n        /* \"#utility.yul\":3961:3970   */\n      dup4\n        /* \"#utility.yul\":3957:3974   */\n      add\n        /* \"#utility.yul\":3948:3954   */\n      dup5\n        /* \"#utility.yul\":3897:3975   */\n      tag_243\n      jump\t// in\n    tag_312:\n        /* \"#utility.yul\":3746:3982   */\n      swap3\n      swap2\n      pop\n      pop\n      jump\t// out\n        /* \"#utility.yul\":3988:4106   */\n    tag_244:\n        /* \"#utility.yul\":4075:4099   */\n      tag_314\n        /* \"#utility.yul\":4093:4098   */\n      dup2\n        /* \"#utility.yul\":4075:4099   */\n      tag_232\n      jump\t// in\n    tag_314:\n        /* \"#utility.yul\":4070:4073   */\n      dup3\n        /* \"#utility.yul\":4063:4100   */\n      mstore\n        /* \"#utility.yul\":3988:4106   */\n      pop\n      pop\n      jump\t// out\n        /* \"#utility.yul\":4112:4334   */\n    tag_47:\n        /* \"#utility.yul\":4205:4209   */\n      0x00\n        /* \"#utility.yul\":4243:4245   */\n      0x20\n        /* \"#utility.yul\":4232:4241   */\n      dup3\n        /* \"#utility.yul\":4228:4246   */\n      add\n        /* \"#utility.yul\":4220:4246   */\n      swap1\n      pop\n        /* \"#utility.yul\":4256:4327   */\n      tag_316\n        /* \"#utility.yul\":4324:4325   */\n      0x00\n        /* \"#utility.yul\":4313:4322   */\n      dup4\n        /* \"#utility.yul\":4309:4326   */\n      add\n        /* \"#utility.yul\":4300:4306   */\n      dup5\n        /* \"#utility.yul\":4256:4327   */\n      tag_244\n      jump\t// in\n    tag_316:\n        /* \"#utility.yul\":4112:4334   */\n      swap3\n      swap2\n      pop\n      pop\n      jump\t// out\n        /* \"#utility.yul\":4340:4814   */\n    tag_53:\n        /* \"#utility.yul\":4408:4414   */\n      0x00\n        /* \"#utility.yul\":4416:4422   */\n      dup1\n        /* \"#utility.yul\":4465:4467   */\n      0x40\n        /* \"#utility.yul\":4453:4462   */\n      dup4\n        /* \"#utility.yul\":4444:4451   */\n      dup6\n        /* \"#utility.yul\":4440:4463   */\n      sub\n        /* \"#utility.yul\":4436:4468   */\n      slt\n        /* \"#utility.yul\":4433:4552   */\n      iszero\n      tag_318\n      jumpi\n        /* \"#utility.yul\":4471:4550   */\n      tag_319\n      tag_226\n      jump\t// in\n    tag_319:\n        /* \"#utility.yul\":4433:4552   */\n    tag_318:\n        /* \"#utility.yul\":4591:4592   */\n      0x00\n        /* \"#utility.yul\":4616:4669   */\n      tag_320\n        /* \"#utility.yul\":4661:4668   */\n      dup6\n        /* \"#utility.yul\":4652:4658   */\n      dup3\n        /* \"#utility.yul\":4641:4650   */\n      dup7\n        /* \"#utility.yul\":4637:4659   */\n      add\n        /* \"#utility.yul\":4616:4669   */\n      tag_234\n      jump\t// in\n    tag_320:\n        /* \"#utility.yul\":4606:4669   */\n      swap3\n      pop\n        /* \"#utility.yul\":4562:4679   */\n      pop\n        /* \"#utility.yul\":4718:4720   */\n      0x20\n        /* \"#utility.yul\":4744:4797   */\n      tag_321\n        /* \"#utility.yul\":4789:4796   */\n      dup6\n        /* \"#utility.yul\":4780:4786   */\n      dup3\n        /* \"#utility.yul\":4769:4778   */\n      dup7\n        /* \"#utility.yul\":4765:4787   */\n      add\n        /* \"#utility.yul\":4744:4797   */\n      tag_234\n      jump\t// in\n    tag_321:\n        /* \"#utility.yul\":4734:4797   */\n      swap2\n      pop\n        /* \"#utility.yul\":4689:4807   */\n      pop\n        /* \"#utility.yul\":4340:4814   */\n      swap3\n      pop\n      swap3\n      swap1\n      pop\n      jump\t// out\n        /* \"#utility.yul\":4820:5149   */\n    tag_58:\n        /* \"#utility.yul\":4879:4885   */\n      0x00\n        /* \"#utility.yul\":4928:4930   */\n      0x20\n        /* \"#utility.yul\":4916:4925   */\n      dup3\n        /* \"#utility.yul\":4907:4914   */\n      dup5\n        /* \"#utility.yul\":4903:4926   */\n      sub\n        /* \"#utility.yul\":4899:4931   */\n      slt\n        /* \"#utility.yul\":4896:5015   */\n      iszero\n      tag_323\n      jumpi\n        /* \"#utility.yul\":4934:5013   */\n      tag_324\n      tag_226\n      jump\t// in\n    tag_324:\n        /* \"#utility.yul\":4896:5015   */\n    tag_323:\n        /* \"#utility.yul\":5054:5055   */\n      0x00\n        /* \"#utility.yul\":5079:5132   */\n      tag_325\n        /* \"#utility.yul\":5124:5131   */\n      dup5\n        /* \"#utility.yul\":5115:5121   */\n      dup3\n        /* \"#utility.yul\":5104:5113   */\n      dup6\n        /* \"#utility.yul\":5100:5122   */\n      add\n        /* \"#utility.yul\":5079:5132   */\n      tag_234\n      jump\t// in\n    tag_325:\n        /* \"#utility.yul\":5069:5132   */\n      swap2\n      pop\n        /* \"#utility.yul\":5025:5142   */\n      pop\n        /* \"#utility.yul\":4820:5149   */\n      swap3\n      swap2\n      pop\n      pop\n      jump\t// out\n        /* \"#utility.yul\":5155:5484   */\n    tag_72:\n        /* \"#utility.yul\":5214:5220   */\n      0x00\n        /* \"#utility.yul\":5263:5265   */\n      0x20\n        /* \"#utility.yul\":5251:5260   */\n      dup3\n        /* \"#utility.yul\":5242:5249   */\n      dup5\n        /* \"#utility.yul\":5238:5261   */\n      sub\n        /* \"#utility.yul\":5234:5266   */\n      slt\n        /* \"#utility.yul\":5231:5350   */\n      iszero\n      tag_327\n      jumpi\n        /* \"#utility.yul\":5269:5348   */\n      tag_328\n      tag_226\n      jump\t// in\n    tag_328:\n        /* \"#utility.yul\":5231:5350   */\n    tag_327:\n        /* \"#utility.yul\":5389:5390   */\n      0x00\n        /* \"#utility.yul\":5414:5467   */\n      tag_329\n        /* \"#utility.yul\":5459:5466   */\n      dup5\n        /* \"#utility.yul\":5450:5456   */\n      dup3\n        /* \"#utility.yul\":5439:5448   */\n      dup6\n        /* \"#utility.yul\":5435:5457   */\n      add\n        /* \"#utility.yul\":5414:5467   */\n      tag_231\n      jump\t// in\n    tag_329:\n        /* \"#utility.yul\":5404:5467   */\n      swap2\n      pop\n        /* \"#utility.yul\":5360:5477   */\n      pop\n        /* \"#utility.yul\":5155:5484   */\n      swap3\n      swap2\n      pop\n      pop\n      jump\t// out\n        /* \"#utility.yul\":5490:5608   */\n    tag_245:\n        /* \"#utility.yul\":5577:5601   */\n      tag_331\n        /* \"#utility.yul\":5595:5600   */\n      dup2\n        /* \"#utility.yul\":5577:5601   */\n      tag_229\n      jump\t// in\n    tag_331:\n        /* \"#utility.yul\":5572:5575   */\n      dup3\n        /* \"#utility.yul\":5565:5602   */\n      mstore\n        /* \"#utility.yul\":5490:5608   */\n      pop\n      pop\n      jump\t// out\n        /* \"#utility.yul\":5614:5836   */\n    tag_78:\n        /* \"#utility.yul\":5707:5711   */\n      0x00\n        /* \"#utility.yul\":5745:5747   */\n      0x20\n        /* \"#utility.yul\":5734:5743   */\n      dup3\n        /* \"#utility.yul\":5730:5748   */\n      add\n        /* \"#utility.yul\":5722:5748   */\n      swap1\n      pop\n        /* \"#utility.yul\":5758:5829   */\n      tag_333\n        /* \"#utility.yul\":5826:5827   */\n      0x00\n        /* \"#utility.yul\":5815:5824   */\n      dup4\n        /* \"#utility.yul\":5811:5828   */\n      add\n        /* \"#utility.yul\":5802:5808   */\n      dup5\n        /* \"#utility.yul\":5758:5829   */\n      tag_245\n      jump\t// in\n    tag_333:\n        /* \"#utility.yul\":5614:5836   */\n      swap3\n      swap2\n      pop\n      pop\n      jump\t// out\n        /* \"#utility.yul\":5842:6461   */\n    tag_81:\n        /* \"#utility.yul\":5919:5925   */\n      0x00\n        /* \"#utility.yul\":5927:5933   */\n      dup1\n        /* \"#utility.yul\":5935:5941   */\n      0x00\n        /* \"#utility.yul\":5984:5986   */\n      0x60\n        /* \"#utility.yul\":5972:5981   */\n      dup5\n        /* \"#utility.yul\":5963:5970   */\n      dup7\n        /* \"#utility.yul\":5959:5982   */\n      sub\n        /* \"#utility.yul\":5955:5987   */\n      slt\n        /* \"#utility.yul\":5952:6071   */\n      iszero\n      tag_335\n      jumpi\n        /* \"#utility.yul\":5990:6069   */\n      tag_336\n      tag_226\n      jump\t// in\n    tag_336:\n        /* \"#utility.yul\":5952:6071   */\n    tag_335:\n        /* \"#utility.yul\":6110:6111   */\n      0x00\n        /* \"#utility.yul\":6135:6188   */\n      tag_337\n        /* \"#utility.yul\":6180:6187   */\n      dup7\n        /* \"#utility.yul\":6171:6177   */\n      dup3\n        /* \"#utility.yul\":6160:6169   */\n      dup8\n        /* \"#utility.yul\":6156:6178   */\n      add\n        /* \"#utility.yul\":6135:6188   */\n      tag_234\n      jump\t// in\n    tag_337:\n        /* \"#utility.yul\":6125:6188   */\n      swap4\n      pop\n        /* \"#utility.yul\":6081:6198   */\n      pop\n        /* \"#utility.yul\":6237:6239   */\n      0x20\n        /* \"#utility.yul\":6263:6316   */\n      tag_338\n        /* \"#utility.yul\":6308:6315   */\n      dup7\n        /* \"#utility.yul\":6299:6305   */\n      dup3\n        /* \"#utility.yul\":6288:6297   */\n      dup8\n        /* \"#utility.yul\":6284:6306   */\n      add\n        /* \"#utility.yul\":6263:6316   */\n      tag_234\n      jump\t// in\n    tag_338:\n        /* \"#utility.yul\":6253:6316   */\n      swap3\n      pop\n        /* \"#utility.yul\":6208:6326   */\n      pop\n        /* \"#utility.yul\":6365:6367   */\n      0x40\n        /* \"#utility.yul\":6391:6444   */\n      tag_339\n        /* \"#utility.yul\":6436:6443   */\n      dup7\n        /* \"#utility.yul\":6427:6433   */\n      dup3\n        /* \"#utility.yul\":6416:6425   */\n      dup8\n        /* \"#utility.yul\":6412:6434   */\n      add\n        /* \"#utility.yul\":6391:6444   */\n      tag_234\n      jump\t// in\n    tag_339:\n        /* \"#utility.yul\":6381:6444   */\n      swap2\n      pop\n        /* \"#utility.yul\":6336:6454   */\n      pop\n        /* \"#utility.yul\":5842:6461   */\n      swap3\n      pop\n      swap3\n      pop\n      swap3\n      jump\t// out\n        /* \"#utility.yul\":6467:6557   */\n    tag_246:\n        /* \"#utility.yul\":6501:6508   */\n      0x00\n        /* \"#utility.yul\":6544:6549   */\n      dup2\n        /* \"#utility.yul\":6537:6550   */\n      iszero\n        /* \"#utility.yul\":6530:6551   */\n      iszero\n        /* \"#utility.yul\":6519:6551   */\n      swap1\n      pop\n        /* \"#utility.yul\":6467:6557   */\n      swap2\n      swap1\n      pop\n      jump\t// out\n        /* \"#utility.yul\":6563:6672   */\n    tag_247:\n        /* \"#utility.yul\":6644:6665   */\n      tag_342\n        /* \"#utility.yul\":6659:6664   */\n      dup2\n        /* \"#utility.yul\":6644:6665   */\n      tag_246\n      jump\t// in\n    tag_342:\n        /* \"#utility.yul\":6639:6642   */\n      dup3\n        /* \"#utility.yul\":6632:6666   */\n      mstore\n        /* \"#utility.yul\":6563:6672   */\n      pop\n      pop\n      jump\t// out\n        /* \"#utility.yul\":6678:6888   */\n    tag_100:\n        /* \"#utility.yul\":6765:6769   */\n      0x00\n        /* \"#utility.yul\":6803:6805   */\n      0x20\n        /* \"#utility.yul\":6792:6801   */\n      dup3\n        /* \"#utility.yul\":6788:6806   */\n      add\n        /* \"#utility.yul\":6780:6806   */\n      swap1\n      pop\n        /* \"#utility.yul\":6816:6881   */\n      tag_344\n        /* \"#utility.yul\":6878:6879   */\n      0x00\n        /* \"#utility.yul\":6867:6876   */\n      dup4\n        /* \"#utility.yul\":6863:6880   */\n      add\n        /* \"#utility.yul\":6854:6860   */\n      dup5\n        /* \"#utility.yul\":6816:6881   */\n      tag_247\n      jump\t// in\n    tag_344:\n        /* \"#utility.yul\":6678:6888   */\n      swap3\n      swap2\n      pop\n      pop\n      jump\t// out\n        /* \"#utility.yul\":6894:7074   */\n    tag_248:\n        /* \"#utility.yul\":6942:7019   */\n      0x4e487b7100000000000000000000000000000000000000000000000000000000\n        /* \"#utility.yul\":6939:6940   */\n      0x00\n        /* \"#utility.yul\":6932:7020   */\n      mstore\n        /* \"#utility.yul\":7039:7043   */\n      0x11\n        /* \"#utility.yul\":7036:7037   */\n      0x04\n        /* \"#utility.yul\":7029:7044   */\n      mstore\n        /* \"#utility.yul\":7063:7067   */\n      0x24\n        /* \"#utility.yul\":7060:7061   */\n      0x00\n        /* \"#utility.yul\":7053:7068   */\n      revert\n        /* \"#utility.yul\":7080:7313   */\n    tag_119:\n        /* \"#utility.yul\":7119:7122   */\n      0x00\n        /* \"#utility.yul\":7142:7166   */\n      tag_347\n        /* \"#utility.yul\":7160:7165   */\n      dup3\n        /* \"#utility.yul\":7142:7166   */\n      tag_232\n      jump\t// in\n    tag_347:\n        /* \"#utility.yul\":7133:7166   */\n      swap2\n      pop\n        /* \"#utility.yul\":7188:7254   */\n      0xffffffffffffffffffffffffffffffffffffffffffffffffffffffffffffffff\n        /* \"#utility.yul\":7181:7186   */\n      dup3\n        /* \"#utility.yul\":7178:7255   */\n      sub\n        /* \"#utility.yul\":7175:7278   */\n      tag_348\n      jumpi\n        /* \"#utility.yul\":7258:7276   */\n      tag_349\n      tag_248\n      jump\t// in\n    tag_349:\n        /* \"#utility.yul\":7175:7278   */\n    tag_348:\n        /* \"#utility.yul\":7305:7306   */\n      0x01\n        /* \"#utility.yul\":7298:7303   */\n      dup3\n        /* \"#utility.yul\":7294:7307   */\n      add\n        /* \"#utility.yul\":7287:7307   */\n      swap1\n      pop\n        /* \"#utility.yul\":7080:7313   */\n      swap2\n      swap1\n      pop\n      jump\t// out\n        /* \"#utility.yul\":7319:7499   */\n    tag_249:\n        /* \"#utility.yul\":7367:7444   */\n      0x4e487b7100000000000000000000000000000000000000000000000000000000\n        /* \"#utility.yul\":7364:7365   */\n      0x00\n        /* \"#utility.yul\":7357:7445   */\n      mstore\n        /* \"#utility.yul\":7464:7468   */\n      0x22\n        /* \"#utility.yul\":7461:7462   */\n      0x04\n        /* \"#utility.yul\":7454:7469   */\n      mstore\n        /* \"#utility.yul\":7488:7492   */\n      0x24\n        /* \"#utility.yul\":7485:7486   */\n      0x00\n        /* \"#utility.yul\":7478:7493   */\n      revert\n        /* \"#utility.yul\":7505:7825   */\n    tag_121:\n        /* \"#utility.yul\":7549:7555   */\n      0x00\n        /* \"#utility.yul\":7586:7587   */\n      0x02\n        /* \"#utility.yul\":7580:7584   */\n      dup3\n        /* \"#utility.yul\":7576:7588   */\n      div\n        /* \"#utility.yul\":7566:7588   */\n      swap1\n      pop\n        /* \"#utility.yul\":7633:7634   */\n      0x01\n        /* \"#utility.yul\":7627:7631   */\n      dup3\n        /* \"#utility.yul\":7623:7635   */\n      and\n        /* \"#utility.yul\":7654:7672   */\n      dup1\n        /* \"#utility.yul\":7644:7725   */\n      tag_352\n      jumpi\n        /* \"#utility.yul\":7710:7714   */\n      0x7f\n        /* \"#utility.yul\":7702:7708   */\n      dup3\n        /* \"#utility.yul\":7698:7715   */\n      and\n        /* \"#utility.yul\":7688:7715   */\n      swap2\n      pop\n        /* \"#utility.yul\":7644:7725   */\n    tag_352:\n        /* \"#utility.yul\":7772:7774   */\n      0x20\n        /* \"#utility.yul\":7764:7770   */\n      dup3\n        /* \"#utility.yul\":7761:7775   */\n      lt\n        /* \"#utility.yul\":7741:7759   */\n      dup2\n        /* \"#utility.yul\":7738:7776   */\n      sub\n        /* \"#utility.yul\":7735:7819   */\n      tag_353\n      jumpi\n        /* \"#utility.yul\":7791:7809   */\n      tag_354\n      tag_249\n      jump\t// in\n    tag_354:\n        /* \"#utility.yul\":7735:7819   */\n    tag_353:\n        /* \"#utility.yul\":7556:7825   */\n      pop\n        /* \"#utility.yul\":7505:7825   */\n      swap2\n      swap1\n      pop\n      jump\t// out\n        /* \"#utility.yul\":7831:8022   */\n    tag_129:\n        /* \"#utility.yul\":7871:7874   */\n      0x00\n        /* \"#utility.yul\":7890:7910   */\n      tag_356\n        /* \"#utility.yul\":7908:7909   */\n      dup3\n        /* \"#utility.yul\":7890:7910   */\n      tag_232\n      jump\t// in\n    tag_356:\n        /* \"#utility.yul\":7885:7910   */\n      swap2\n      pop\n        /* \"#utility.yul\":7924:7944   */\n      tag_357\n        /* \"#utility.yul\":7942:7943   */\n      dup4\n        /* \"#utility.yul\":7924:7944   */\n      tag_232\n      jump\t// in\n    tag_357:\n        /* \"#utility.yul\":7919:7944   */\n      swap3\n      pop\n        /* \"#utility.yul\":7967:7968   */\n      dup3\n        /* \"#utility.yul\":7964:7965   */\n      dup3\n        /* \"#utility.yul\":7960:7969   */\n      add\n        /* \"#utility.yul\":7953:7969   */\n      swap1\n      pop\n        /* \"#utility.yul\":7988:7991   */\n      dup1\n        /* \"#utility.yul\":7985:7986   */\n      dup3\n        /* \"#utility.yul\":7982:7992   */\n      gt\n        /* \"#utility.yul\":7979:8015   */\n      iszero\n      tag_358\n      jumpi\n        /* \"#utility.yul\":7995:8013   */\n      tag_359\n      tag_248\n      jump\t// in\n    tag_359:\n        /* \"#utility.yul\":7979:8015   */\n    tag_358:\n        /* \"#utility.yul\":7831:8022   */\n      swap3\n      swap2\n      pop\n      pop\n      jump\t// out\n        /* \"#utility.yul\":8028:8204   */\n    tag_250:\n        /* \"#utility.yul\":8168:8196   */\n      0x526573756c74206d757374206265206174206c65617374203130000000000000\n        /* \"#utility.yul\":8164:8165   */\n      0x00\n        /* \"#utility.yul\":8156:8162   */\n      dup3\n        /* \"#utility.yul\":8152:8166   */\n      add\n        /* \"#utility.yul\":8145:8197   */\n      mstore\n        /* \"#utility.yul\":8028:8204   */\n      pop\n      jump\t// out\n        /* \"#utility.yul\":8210:8576   */\n    tag_251:\n        /* \"#utility.yul\":8352:8355   */\n      0x00\n        /* \"#utility.yul\":8373:8440   */\n      tag_362\n        /* \"#utility.yul\":8437:8439   */\n      0x1a\n        /* \"#utility.yul\":8432:8435   */\n      dup4\n        /* \"#utility.yul\":8373:8440   */\n      tag_236\n      jump\t// in\n    tag_362:\n        /* \"#utility.yul\":8366:8440   */\n      swap2\n      pop\n        /* \"#utility.yul\":8449:8542   */\n      tag_363\n        /* \"#utility.yul\":8538:8541   */\n      dup3\n        /* \"#utility.yul\":8449:8542   */\n      tag_250\n      jump\t// in\n    tag_363:\n        /* \"#utility.yul\":8567:8569   */\n      0x20\n        /* \"#utility.yul\":8562:8565   */\n      dup3\n        /* \"#utility.yul\":8558:8570   */\n      add\n        /* \"#utility.yul\":8551:8570   */\n      swap1\n      pop\n        /* \"#utility.yul\":8210:8576   */\n      swap2\n      swap1\n      pop\n      jump\t// out\n        /* \"#utility.yul\":8582:9001   */\n    tag_132:\n        /* \"#utility.yul\":8748:8752   */\n      0x00\n        /* \"#utility.yul\":8786:8788   */\n      0x20\n        /* \"#utility.yul\":8775:8784   */\n      dup3\n        /* \"#utility.yul\":8771:8789   */\n      add\n        /* \"#utility.yul\":8763:8789   */\n      swap1\n      pop\n        /* \"#utility.yul\":8835:8844   */\n      dup2\n        /* \"#utility.yul\":8829:8833   */\n      dup2\n        /* \"#utility.yul\":8825:8845   */\n      sub\n        /* \"#utility.yul\":8821:8822   */\n      0x00\n        /* \"#utility.yul\":8810:8819   */\n      dup4\n        /* \"#utility.yul\":8806:8823   */\n      add\n        /* \"#utility.yul\":8799:8846   */\n      mstore\n        /* \"#utility.yul\":8863:8994   */\n      tag_365\n        /* \"#utility.yul\":8989:8993   */\n      dup2\n        /* \"#utility.yul\":8863:8994   */\n      tag_251\n      jump\t// in\n    tag_365:\n        /* \"#utility.yul\":8855:8994   */\n      swap1\n      pop\n        /* \"#utility.yul\":8582:9001   */\n      swap2\n      swap1\n      pop\n      jump\t// out\n        /* \"#utility.yul\":9007:9176   */\n    tag_252:\n        /* \"#utility.yul\":9147:9168   */\n      0x496e646578206f7574206f6620626f756e647300000000000000000000000000\n        /* \"#utility.yul\":9143:9144   */\n      0x00\n        /* \"#utility.yul\":9135:9141   */\n      dup3\n        /* \"#utility.yul\":9131:9145   */\n      add\n        /* \"#utility.yul\":9124:9169   */\n      mstore\n        /* \"#utility.yul\":9007:9176   */\n      pop\n      jump\t// out\n        /* \"#utility.yul\":9182:9548   */\n    tag_253:\n        /* \"#utility.yul\":9324:9327   */\n      0x00\n        /* \"#utility.yul\":9345:9412   */\n      tag_368\n        /* \"#utility.yul\":9409:9411   */\n      0x13\n        /* \"#utility.yul\":9404:9407   */\n      dup4\n        /* \"#utility.yul\":9345:9412   */\n      tag_236\n      jump\t// in\n    tag_368:\n        /* \"#utility.yul\":9338:9412   */\n      swap2\n      pop\n        /* \"#utility.yul\":9421:9514   */\n      tag_369\n        /* \"#utility.yul\":9510:9513   */\n      dup3\n        /* \"#utility.yul\":9421:9514   */\n      tag_252\n      jump\t// in\n    tag_369:\n        /* \"#utility.yul\":9539:9541   */\n      0x20\n        /* \"#utility.yul\":9534:9537   */\n      dup3\n        /* \"#utility.yul\":9530:9542   */\n      add\n        /* \"#utility.yul\":9523:9542   */\n      swap1\n      pop\n        /* \"#utility.yul\":9182:9548   */\n      swap2\n      swap1\n      pop\n      jump\t// out\n        /* \"#utility.yul\":9554:9973   */\n    tag_137:\n        /* \"#utility.yul\":9720:9724   */\n      0x00\n        /* \"#utility.yul\":9758:9760   */\n      0x20\n        /* \"#utility.yul\":9747:9756   */\n      dup3\n        /* \"#utility.yul\":9743:9761   */\n      add\n        /* \"#utility.yul\":9735:9761   */\n      swap1\n      pop\n        /* \"#utility.yul\":9807:9816   */\n      dup2\n        /* \"#utility.yul\":9801:9805   */\n      dup2\n        /* \"#utility.yul\":9797:9817   */\n      sub\n        /* \"#utility.yul\":9793:9794   */\n      0x00\n        /* \"#utility.yul\":9782:9791   */\n      dup4\n        /* \"#utility.yul\":9778:9795   */\n      add\n        /* \"#utility.yul\":9771:9818   */\n      mstore\n        /* \"#utility.yul\":9835:9966   */\n      tag_371\n        /* \"#utility.yul\":9961:9965   */\n      dup2\n        /* \"#utility.yul\":9835:9966   */\n      tag_253\n      jump\t// in\n    tag_371:\n        /* \"#utility.yul\":9827:9966   */\n      swap1\n      pop\n        /* \"#utility.yul\":9554:9973   */\n      swap2\n      swap1\n      pop\n      jump\t// out\n        /* \"#utility.yul\":9979:10159   */\n    tag_140:\n        /* \"#utility.yul\":10027:10104   */\n      0x4e487b7100000000000000000000000000000000000000000000000000000000\n        /* \"#utility.yul\":10024:10025   */\n      0x00\n        /* \"#utility.yul\":10017:10105   */\n      mstore\n        /* \"#utility.yul\":10124:10128   */\n      0x32\n        /* \"#utility.yul\":10121:10122   */\n      0x04\n        /* \"#utility.yul\":10114:10129   */\n      mstore\n        /* \"#utility.yul\":10148:10152   */\n      0x24\n        /* \"#utility.yul\":10145:10146   */\n      0x00\n        /* \"#utility.yul\":10138:10153   */\n      revert\n        /* \"#utility.yul\":10165:10336   */\n    tag_254:\n        /* \"#utility.yul\":10305:10328   */\n      0x4172726179206c656e677468206d69736d617463680000000000000000000000\n        /* \"#utility.yul\":10301:10302   */\n      0x00\n        /* \"#utility.yul\":10293:10299   */\n      dup3\n        /* \"#utility.yul\":10289:10303   */\n      add\n        /* \"#utility.yul\":10282:10329   */\n      mstore\n        /* \"#utility.yul\":10165:10336   */\n      pop\n      jump\t// out\n        /* \"#utility.yul\":10342:10708   */\n    tag_255:\n        /* \"#utility.yul\":10484:10487   */\n      0x00\n        /* \"#utility.yul\":10505:10572   */\n      tag_375\n        /* \"#utility.yul\":10569:10571   */\n      0x15\n        /* \"#utility.yul\":10564:10567   */\n      dup4\n        /* \"#utility.yul\":10505:10572   */\n      tag_236\n      jump\t// in\n    tag_375:\n        /* \"#utility.yul\":10498:10572   */\n      swap2\n      pop\n        /* \"#utility.yul\":10581:10674   */\n      tag_376\n        /* \"#utility.yul\":10670:10673   */\n      dup3\n        /* \"#utility.yul\":10581:10674   */\n      tag_254\n      jump\t// in\n    tag_376:\n        /* \"#utility.yul\":10699:10701   */\n      0x20\n        /* \"#utility.yul\":10694:10697   */\n      dup3\n        /* \"#utility.yul\":10690:10702   */\n      add\n        /* \"#utility.yul\":10683:10702   */\n      swap1\n      pop\n        /* \"#utility.yul\":10342:10708   */\n      swap2\n      swap1\n      pop\n      jump\t// out\n        /* \"#utility.yul\":10714:11133   */\n    tag_159:\n        /* \"#utility.yul\":10880:10884   */\n      0x00\n        /* \"#utility.yul\":10918:10920   */\n      0x20\n        /* \"#utility.yul\":10907:10916   */\n      dup3\n        /* \"#utility.yul\":10903:10921   */\n      add\n        /* \"#utility.yul\":10895:10921   */\n      swap1\n      pop\n        /* \"#utility.yul\":10967:10976   */\n      dup2\n        /* \"#utility.yul\":10961:10965   */\n      dup2\n        /* \"#utility.yul\":10957:10977   */\n      sub\n        /* \"#utility.yul\":10953:10954   */\n      0x00\n        /* \"#utility.yul\":10942:10951   */\n      dup4\n        /* \"#utility.yul\":10938:10955   */\n      add\n        /* \"#utility.yul\":10931:10978   */\n      mstore\n        /* \"#utility.yul\":10995:11126   */\n      tag_378\n        /* \"#utility.yul\":11121:11125   */\n      dup2\n        /* \"#utility.yul\":10995:11126   */\n      tag_255\n      jump\t// in\n    tag_378:\n        /* \"#utility.yul\":10987:11126   */\n      swap1\n      pop\n        /* \"#utility.yul\":10714:11133   */\n      swap2\n      swap1\n      pop\n      jump\t// out\n        /* \"#utility.yul\":11139:11302   */\n    tag_256:\n        /* \"#utility.yul\":11279:11294   */\n      0x4e6f7420746865206f776e657200000000000000000000000000000000000000\n        /* \"#utility.yul\":11275:11276   */\n      0x00\n        /* \"#utility.yul\":11267:11273   */\n      dup3\n        /* \"#utility.yul\":11263:11277   */\n      add\n        /* \"#utility.yul\":11256:11295   */\n      mstore\n        /* \"#utility.yul\":11139:11302   */\n      pop\n      jump\t// out\n        /* \"#utility.yul\":11308:11674   */\n    tag_257:\n        /* \"#utility.yul\":11450:11453   */\n      0x00\n        /* \"#utility.yul\":11471:11538   */\n      tag_381\n        /* \"#utility.yul\":11535:11537   */\n      0x0d\n        /* \"#utility.yul\":11530:11533   */\n      dup4\n        /* \"#utility.yul\":11471:11538   */\n      tag_236\n      jump\t// in\n    tag_381:\n        /* \"#utility.yul\":11464:11538   */\n      swap2\n      pop\n        /* \"#utility.yul\":11547:11640   */\n      tag_382\n        /* \"#utility.yul\":11636:11639   */\n      dup3\n        /* \"#utility.yul\":11547:11640   */\n      tag_256\n      jump\t// in\n    tag_382:\n        /* \"#utility.yul\":11665:11667   */\n      0x20\n        /* \"#utility.yul\":11660:11663   */\n      dup3\n        /* \"#utility.yul\":11656:11668   */\n      add\n        /* \"#utility.yul\":11649:11668   */\n      swap1\n      pop\n        /* \"#utility.yul\":11308:11674   */\n      swap2\n      swap1\n      pop\n      jump\t// out\n        /* \"#utility.yul\":11680:12099   */\n    tag_183:\n        /* \"#utility.yul\":11846:11850   */\n      0x00\n        /* \"#utility.yul\":11884:11886   */\n      0x20\n        /* \"#utility.yul\":11873:11882   */\n      dup3\n        /* \"#utility.yul\":11869:11887   */\n      add\n        /* \"#utility.yul\":11861:11887   */\n      swap1\n      pop\n        /* \"#utility.yul\":11933:11942   */\n      dup2\n        /* \"#utility.yul\":11927:11931   */\n      dup2\n        /* \"#utility.yul\":11923:11943   */\n      sub\n        /* \"#utility.yul\":11919:11920   */\n      0x00\n        /* \"#utility.yul\":11908:11917   */\n      dup4\n        /* \"#utility.yul\":11904:11921   */\n      add\n        /* \"#utility.yul\":11897:11944   */\n      mstore\n        /* \"#utility.yul\":11961:12092   */\n      tag_384\n        /* \"#utility.yul\":12087:12091   */\n      dup2\n        /* \"#utility.yul\":11961:12092   */\n      tag_257\n      jump\t// in\n    tag_384:\n        /* \"#utility.yul\":11953:12092   */\n      swap1\n      pop\n        /* \"#utility.yul\":11680:12099   */\n      swap2\n      swap1\n      pop\n      jump\t// out\n        /* \"#utility.yul\":12105:12267   */\n    tag_258:\n        /* \"#utility.yul\":12245:12259   */\n      0x5a65726f20616464726573730000000000000000000000000000000000000000\n        /* \"#utility.yul\":12241:12242   */\n      0x00\n        /* \"#utility.yul\":12233:12239   */\n      dup3\n        /* \"#utility.yul\":12229:12243   */\n      add\n        /* \"#utility.yul\":12222:12260   */\n      mstore\n        /* \"#utility.yul\":12105:12267   */\n      pop\n      jump\t// out\n        /* \"#utility.yul\":12273:12639   */\n    tag_259:\n        /* \"#utility.yul\":12415:12418   */\n      0x00\n        /* \"#utility.yul\":12436:12503   */\n      tag_387\n        /* \"#utility.yul\":12500:12502   */\n      0x0c\n        /* \"#utility.yul\":12495:12498   */\n      dup4\n        /* \"#utility.yul\":12436:12503   */\n      tag_236\n      jump\t// in\n    tag_387:\n        /* \"#utility.yul\":12429:12503   */\n      swap2\n      pop\n        /* \"#utility.yul\":12512:12605   */\n      tag_388\n        /* \"#utility.yul\":12601:12604   */\n      dup3\n        /* \"#utility.yul\":12512:12605   */\n      tag_258\n      jump\t// in\n    tag_388:\n        /* \"#utility.yul\":12630:12632   */\n      0x20\n        /* \"#utility.yul\":12625:12628   */\n      dup3\n        /* \"#utility.yul\":12621:12633   */\n      add\n        /* \"#utility.yul\":12614:12633   */\n      swap1\n      pop\n        /* \"#utility.yul\":12273:12639   */\n      swap2\n      swap1\n      pop\n      jump\t// out\n        /* \"#utility.yul\":12645:13064   */\n    tag_187:\n        /* \"#utility.yul\":12811:12815   */\n      0x00\n        /* \"#utility.yul\":12849:12851   */\n      0x20\n        /* \"#utility.yul\":12838:12847   */\n      dup3\n        /* \"#utility.yul\":12834:12852   */\n      add\n        /* \"#utility.yul\":12826:12852   */\n      swap1\n      pop\n        /* \"#utility.yul\":12898:12907   */\n      dup2\n        /* \"#utility.yul\":12892:12896   */\n      dup2\n        /* \"#utility.yul\":12888:12908   */\n      sub\n        /* \"#utility.yul\":12884:12885   */\n      0x00\n        /* \"#utility.yul\":12873:12882   */\n      dup4\n        /* \"#utility.yul\":12869:12886   */\n      add\n        /* \"#utility.yul\":12862:12909   */\n      mstore\n        /* \"#utility.yul\":12926:13057   */\n      tag_390\n        /* \"#utility.yul\":13052:13056   */\n      dup2\n        /* \"#utility.yul\":12926:13057   */\n      tag_259\n      jump\t// in\n    tag_390:\n        /* \"#utility.yul\":12918:13057   */\n      swap1\n      pop\n        /* \"#utility.yul\":12645:13064   */\n      swap2\n      swap1\n      pop\n      jump\t// out\n        /* \"#utility.yul\":13070:13264   */\n    tag_201:\n        /* \"#utility.yul\":13110:13114   */\n      0x00\n        /* \"#utility.yul\":13130:13150   */\n      tag_392\n        /* \"#utility.yul\":13148:13149   */\n      dup3\n        /* \"#utility.yul\":13130:13150   */\n      tag_232\n      jump\t// in\n    tag_392:\n        /* \"#utility.yul\":13125:13150   */\n      swap2\n      pop\n        /* \"#utility.yul\":13164:13184   */\n      tag_393\n        /* \"#utility.yul\":13182:13183   */\n      dup4\n        /* \"#utility.yul\":13164:13184   */\n      tag_232\n      jump\t// in\n    tag_393:\n        /* \"#utility.yul\":13159:13184   */\n      swap3\n      pop\n        /* \"#utility.yul\":13208:13209   */\n      dup3\n        /* \"#utility.yul\":13205:13206   */\n      dup3\n        /* \"#utility.yul\":13201:13210   */\n      sub\n        /* \"#utility.yul\":13193:13210   */\n      swap1\n      pop\n        /* \"#utility.yul\":13232:13233   */\n      dup2\n        /* \"#utility.yul\":13226:13230   */\n      dup2\n        /* \"#utility.yul\":13223:13234   */\n      gt\n        /* \"#utility.yul\":13220:13257   */\n      iszero\n      tag_394\n      jumpi\n        /* \"#utility.yul\":13237:13255   */\n      tag_395\n      tag_248\n      jump\t// in\n    tag_395:\n        /* \"#utility.yul\":13220:13257   */\n    tag_394:\n        /* \"#utility.yul\":13070:13264   */\n      swap3\n      swap2\n      pop\n      pop\n      jump\t// out\n        /* \"#utility.yul\":13270:13450   */\n    tag_211:\n        /* \"#utility.yul\":13318:13395   */\n      0x4e487b7100000000000000000000000000000000000000000000000000000000\n        /* \"#utility.yul\":13315:13316   */\n      0x00\n        /* \"#utility.yul\":13308:13396   */\n      mstore\n        /* \"#utility.yul\":13415:13419   */\n      0x31\n        /* \"#utility.yul\":13412:13413   */\n      0x04\n        /* \"#utility.yul\":13405:13420   */\n      mstore\n        /* \"#utility.yul\":13439:13443   */\n      0x24\n        /* \"#utility.yul\":13436:13437   */\n      0x00\n        /* \"#utility.yul\":13429:13444   */\n      revert\n        /* \"#utility.yul\":13456:13620   */\n    tag_260:\n        /* \"#utility.yul\":13596:13612   */\n      0x556e646572666c6f77207269736b000000000000000000000000000000000000\n        /* \"#utility.yul\":13592:13593   */\n      0x00\n        /* \"#utility.yul\":13584:13590   */\n      dup3\n        /* \"#utility.yul\":13580:13594   */\n      add\n        /* \"#utility.yul\":13573:13613   */\n      mstore\n        /* \"#utility.yul\":13456:13620   */\n      pop\n      jump\t// out\n        /* \"#utility.yul\":13626:13992   */\n    tag_261:\n        /* \"#utility.yul\":13768:13771   */\n      0x00\n        /* \"#utility.yul\":13789:13856   */\n      tag_399\n        /* \"#utility.yul\":13853:13855   */\n      0x0e\n        /* \"#utility.yul\":13848:13851   */\n      dup4\n        /* \"#utility.yul\":13789:13856   */\n      tag_236\n      jump\t// in\n    tag_399:\n        /* \"#utility.yul\":13782:13856   */\n      swap2\n      pop\n        /* \"#utility.yul\":13865:13958   */\n      tag_400\n        /* \"#utility.yul\":13954:13957   */\n      dup3\n        /* \"#utility.yul\":13865:13958   */\n      tag_260\n      jump\t// in\n    tag_400:\n        /* \"#utility.yul\":13983:13985   */\n      0x20\n        /* \"#utility.yul\":13978:13981   */\n      dup3\n        /* \"#utility.yul\":13974:13986   */\n      add\n        /* \"#utility.yul\":13967:13986   */\n      swap1\n      pop\n        /* \"#utility.yul\":13626:13992   */\n      swap2\n      swap1\n      pop\n      jump\t// out\n        /* \"#utility.yul\":13998:14417   */\n    tag_216:\n        /* \"#utility.yul\":14164:14168   */\n      0x00\n        /* \"#utility.yul\":14202:14204   */\n      0x20\n        /* \"#utility.yul\":14191:14200   */\n      dup3\n        /* \"#utility.yul\":14187:14205   */\n      add\n        /* \"#utility.yul\":14179:14205   */\n      swap1\n      pop\n        /* \"#utility.yul\":14251:14260   */\n      dup2\n        /* \"#utility.yul\":14245:14249   */\n      dup2\n        /* \"#utility.yul\":14241:14261   */\n      sub\n        /* \"#utility.yul\":14237:14238   */\n      0x00\n        /* \"#utility.yul\":14226:14235   */\n      dup4\n        /* \"#utility.yul\":14222:14239   */\n      add\n        /* \"#utility.yul\":14215:14262   */\n      mstore\n        /* \"#utility.yul\":14279:14410   */\n      tag_402\n        /* \"#utility.yul\":14405:14409   */\n      dup2\n        /* \"#utility.yul\":14279:14410   */\n      tag_261\n      jump\t// in\n    tag_402:\n        /* \"#utility.yul\":14271:14410   */\n      swap1\n      pop\n        /* \"#utility.yul\":13998:14417   */\n      swap2\n      swap1\n      pop\n      jump\t// out\n        /* \"#utility.yul\":14423:14600   */\n    tag_262:\n        /* \"#utility.yul\":14563:14592   */\n      0x43616e6e6f74206368616e6765206d617070696e672076616c75650000000000\n        /* \"#utility.yul\":14559:14560   */\n      0x00\n        /* \"#utility.yul\":14551:14557   */\n      dup3\n        /* \"#utility.yul\":14547:14561   */\n      add\n        /* \"#utility.yul\":14540:14593   */\n      mstore\n        /* \"#utility.yul\":14423:14600   */\n      pop\n      jump\t// out\n        /* \"#utility.yul\":14606:14972   */\n    tag_263:\n        /* \"#utility.yul\":14748:14751   */\n      0x00\n        /* \"#utility.yul\":14769:14836   */\n      tag_405\n        /* \"#utility.yul\":14833:14835   */\n      0x1b\n        /* \"#utility.yul\":14828:14831   */\n      dup4\n        /* \"#utility.yul\":14769:14836   */\n      tag_236\n      jump\t// in\n    tag_405:\n        /* \"#utility.yul\":14762:14836   */\n      swap2\n      pop\n        /* \"#utility.yul\":14845:14938   */\n      tag_406\n        /* \"#utility.yul\":14934:14937   */\n      dup3\n        /* \"#utility.yul\":14845:14938   */\n      tag_262\n      jump\t// in\n    tag_406:\n        /* \"#utility.yul\":14963:14965   */\n      0x20\n        /* \"#utility.yul\":14958:14961   */\n      dup3\n        /* \"#utility.yul\":14954:14966   */\n      add\n        /* \"#utility.yul\":14947:14966   */\n      swap1\n      pop\n        /* \"#utility.yul\":14606:14972   */\n      swap2\n      swap1\n      pop\n      jump\t// out\n        /* \"#utility.yul\":14978:15397   */\n    tag_224:\n        /* \"#utility.yul\":15144:15148   */\n      0x00\n        /* \"#utility.yul\":15182:15184   */\n      0x20\n        /* \"#utility.yul\":15171:15180   */\n      dup3\n        /* \"#utility.yul\":15167:15185   */\n      add\n        /* \"#utility.yul\":15159:15185   */\n      swap1\n      pop\n        /* \"#utility.yul\":15231:15240   */\n      dup2\n        /* \"#utility.yul\":15225:15229   */\n      dup2\n        /* \"#utility.yul\":15221:15241   */\n      sub\n        /* \"#utility.yul\":15217:15218   */\n      0x00\n        /* \"#utility.yul\":15206:15215   */\n      dup4\n        /* \"#utility.yul\":15202:15219   */\n      add\n        /* \"#utility.yul\":15195:15242   */\n      mstore\n        /* \"#utility.yul\":15259:15390   */\n      tag_408\n        /* \"#utility.yul\":15385:15389   */\n      dup2\n        /* \"#utility.yul\":15259:15390   */\n      tag_263\n      jump\t// in\n    tag_408:\n        /* \"#utility.yul\":15251:15390   */\n      swap1\n      pop\n        /* \"#utility.yul\":14978:15397   */\n      swap2\n      swap1\n      pop\n      jump\t// out\n\n    auxdata: 0xa2646970667358221220dd8f43930b6f6e61a69da3cc3c00685c41f212f1749f1784b8561a3fced6b66564736f6c63430008160033\n}\n",
				"bytecode": {
					"linkReferences": {},
					"object": "608060405234801561000f575f80fd5b503360025f6101000a81548173ffffffffffffffffffffffffffffffffffffffff021916908373ffffffffffffffffffffffffffffffffffffffff1602179055506114c58061005d5f395ff3fe608060405234801561000f575f80fd5b5060043610610156575f3560e01c80638da5cb5b116100c1578063adef6ca81161007a578063adef6ca8146103b0578063af1b73c2146103ce578063d5d6393b146103ea578063d7e6b10014610406578063f519960d14610410578063f98c893a1461044057610156565b80638da5cb5b146102de578063905496f0146102fc57806393a35560146103185780639a5009ac146103345780639a9bdca714610364578063a6f9dae11461039457610156565b8063359e1e9411610113578063359e1e94146101f85780634acee15c146102285780634f97c529146102445780635d1bd9621461024e57806374fc41b71461027e578063750eaf99146102ae57610156565b80630e3ccbe11461015a57806314bf43bd1461017657806316e6e3bf14610180578063200d2ed21461019e5780632653fa2d146101bc578063302c3cfa146101da575b5f80fd5b610174600480360381019061016f9190610d4b565b61045c565b005b61017e6104a2565b005b6101886104ba565b6040516101959190610e13565b60405180910390f35b6101a6610546565b6040516101b39190610ea6565b60405180910390f35b6101c4610558565b6040516101d19190610ece565b60405180910390f35b6101e261055d565b6040516101ef9190610ece565b60405180910390f35b610212600480360381019061020d9190610ee7565b610569565b60405161021f9190610ece565b60405180910390f35b610242600480360381019061023d9190610f25565b6105cd565b005b61024c61062b565b005b61026860048036038101906102639190610f25565b61066c565b6040516102759190610ece565b60405180910390f35b61029860048036038101906102939190610f25565b6106d8565b6040516102a59190610ece565b60405180910390f35b6102c860048036038101906102c39190610f50565b6106f1565b6040516102d59190610ece565b60405180910390f35b6102e6610706565b6040516102f39190610f8a565b60405180910390f35b61031660048036038101906103119190610fa3565b61072b565b005b610332600480360381019061032d9190610f25565b6107c3565b005b61034e60048036038101906103499190610f25565b61085b565b60405161035b9190610ece565b60405180910390f35b61037e60048036038101906103799190610f25565b610874565b60405161038b9190610ece565b60405180910390f35b6103ae60048036038101906103a99190610f50565b610894565b005b6103b8610a0d565b6040516103c5919061100d565b60405180910390f35b6103e860048036038101906103e39190610f50565b610a20565b005b61040460048036038101906103ff9190610f25565b610a8f565b005b61040e610b73565b005b61042a60048036038101906104259190610f25565b610bd4565b6040516104379190610ece565b60405180910390f35b61045a60048036038101906104559190610d4b565b610bf5565b005b8060065f8473ffffffffffffffffffffffffffffffffffffffff1673ffffffffffffffffffffffffffffffffffffffff1681526020019081526020015f20819055505050565b5f808154809291906104b390611053565b9190505550565b600480546104c7906110c7565b80601f01602080910402602001604051908101604052809291908181526020018280546104f3906110c7565b801561053e5780601f106105155761010080835404028352916020019161053e565b820191905f5260205f20905b81548152906001019060200180831161052157829003601f168201915b505050505081565b600b5f9054906101000a900460ff1681565b5f5481565b5f600a80549050905090565b5f600a828461057891906110f7565b10156105b9576040517f08c379a00000000000000000000000000000000000000000000000000000000081526004016105b090611174565b60405180910390fd5b81836105c591906110f7565b905092915050565b60038110610610576040517f08c379a0000000000000000000000000000000000000000000000000000000008152600401610607906111dc565b60405180910390fd5b60078160038110610624576106236111fa565b5b015f905550565b5f5b600a81101561066957600a81908060018154018082558091505060019003905f5260205f20015f9091909190915055808060010191505061062d565b50565b5f600a8054905082106106b4576040517f08c379a00000000000000000000000000000000000000000000000000000000081526004016106ab906111dc565b60405180910390fd5b600a82815481106106c8576106c76111fa565b5b905f5260205f2001549050919050565b5f600a82116106e857600a6106ea565b815b9050919050565b6006602052805f5260405f205f915090505481565b60025f9054906101000a900473ffffffffffffffffffffffffffffffffffffffff1681565b6003801461076e576040517f08c379a000000000000000000000000000000000000000000000000000000000815260040161076590611271565b60405180910390fd5b8260075f60038110610783576107826111fa565b5b018190555081600760016003811061079e5761079d6111fa565b5b01819055508060076002600381106107b9576107b86111fa565b5b0181905550505050565b60038014610806576040517f08c379a00000000000000000000000000000000000000000000000000000000081526004016107fd90611271565b60405180910390fd5b80600760026003811061081c5761081b6111fa565b5b01819055507f93fe6d397c74fdf1402a8b72e47b68512f0510d7b98a4bc4cbdf6ac7108b3c59816040516108509190610ece565b60405180910390a150565b6007816003811061086a575f80fd5b015f915090505481565b600a8181548110610883575f80fd5b905f5260205f20015f915090505481565b3373ffffffffffffffffffffffffffffffffffffffff1660025f9054906101000a900473ffffffffffffffffffffffffffffffffffffffff1673ffffffffffffffffffffffffffffffffffffffff1614610923576040517f08c379a000000000000000000000000000000000000000000000000000000000815260040161091a906112d9565b60405180910390fd5b805f73ffffffffffffffffffffffffffffffffffffffff168173ffffffffffffffffffffffffffffffffffffffff1603610992576040517f08c379a000000000000000000000000000000000000000000000000000000000815260040161098990611341565b60405180910390fd5b8160025f6101000a81548173ffffffffffffffffffffffffffffffffffffffff021916908373ffffffffffffffffffffffffffffffffffffffff1602179055507fa2ea9883a321a3e97b8266c2b078bfeec6d50c711ed71f874a90d500ae2eaf3682604051610a019190610f8a565b60405180910390a15050565b600360149054906101000a900460ff1681565b5f60065f8373ffffffffffffffffffffffffffffffffffffffff1673ffffffffffffffffffffffffffffffffffffffff1681526020019081526020015f20819055506001600b5f6101000a81548160ff02191690836002811115610a8757610a86610e33565b5b021790555050565b600a805490508110610ad6576040517f08c379a0000000000000000000000000000000000000000000000000000000008152600401610acd906111dc565b60405180910390fd5b5f8190505b6001600a80549050610aed919061135f565b811015610b4a57600a600182610b0391906110f7565b81548110610b1457610b136111fa565b5b905f5260205f200154600a8281548110610b3157610b306111fa565b5b905f5260205f2001819055508080600101915050610adb565b50600a805480610b5d57610b5c611392565b5b600190038181905f5260205f20015f9055905550565b60646001541115610bb9576040517f08c379a0000000000000000000000000000000000000000000000000000000008152600401610bb090611409565b60405180910390fd5b606460015f828254610bcb919061135f565b92505081905550565b5f8054606483610be491906110f7565b610bee91906110f7565b9050919050565b5f60065f8473ffffffffffffffffffffffffffffffffffffffff1673ffffffffffffffffffffffffffffffffffffffff1681526020019081526020015f205414610c74576040517f08c379a0000000000000000000000000000000000000000000000000000000008152600401610c6b90611471565b60405180910390fd5b8060065f8473ffffffffffffffffffffffffffffffffffffffff1673ffffffffffffffffffffffffffffffffffffffff1681526020019081526020015f20819055505050565b5f80fd5b5f73ffffffffffffffffffffffffffffffffffffffff82169050919050565b5f610ce782610cbe565b9050919050565b610cf781610cdd565b8114610d01575f80fd5b50565b5f81359050610d1281610cee565b92915050565b5f819050919050565b610d2a81610d18565b8114610d34575f80fd5b50565b5f81359050610d4581610d21565b92915050565b5f8060408385031215610d6157610d60610cba565b5b5f610d6e85828601610d04565b9250506020610d7f85828601610d37565b9150509250929050565b5f81519050919050565b5f82825260208201905092915050565b5f5b83811015610dc0578082015181840152602081019050610da5565b5f8484015250505050565b5f601f19601f8301169050919050565b5f610de582610d89565b610def8185610d93565b9350610dff818560208601610da3565b610e0881610dcb565b840191505092915050565b5f6020820190508181035f830152610e2b8184610ddb565b905092915050565b7f4e487b71000000000000000000000000000000000000000000000000000000005f52602160045260245ffd5b60038110610e7157610e70610e33565b5b50565b5f819050610e8182610e60565b919050565b5f610e9082610e74565b9050919050565b610ea081610e86565b82525050565b5f602082019050610eb95f830184610e97565b92915050565b610ec881610d18565b82525050565b5f602082019050610ee15f830184610ebf565b92915050565b5f8060408385031215610efd57610efc610cba565b5b5f610f0a85828601610d37565b9250506020610f1b85828601610d37565b9150509250929050565b5f60208284031215610f3a57610f39610cba565b5b5f610f4784828501610d37565b91505092915050565b5f60208284031215610f6557610f64610cba565b5b5f610f7284828501610d04565b91505092915050565b610f8481610cdd565b82525050565b5f602082019050610f9d5f830184610f7b565b92915050565b5f805f60608486031215610fba57610fb9610cba565b5b5f610fc786828701610d37565b9350506020610fd886828701610d37565b9250506040610fe986828701610d37565b9150509250925092565b5f8115159050919050565b61100781610ff3565b82525050565b5f6020820190506110205f830184610ffe565b92915050565b7f4e487b71000000000000000000000000000000000000000000000000000000005f52601160045260245ffd5b5f61105d82610d18565b91507fffffffffffffffffffffffffffffffffffffffffffffffffffffffffffffffff820361108f5761108e611026565b5b600182019050919050565b7f4e487b71000000000000000000000000000000000000000000000000000000005f52602260045260245ffd5b5f60028204905060018216806110de57607f821691505b6020821081036110f1576110f061109a565b5b50919050565b5f61110182610d18565b915061110c83610d18565b925082820190508082111561112457611123611026565b5b92915050565b7f526573756c74206d757374206265206174206c656173742031300000000000005f82015250565b5f61115e601a83610d93565b91506111698261112a565b602082019050919050565b5f6020820190508181035f83015261118b81611152565b9050919050565b7f496e646578206f7574206f6620626f756e6473000000000000000000000000005f82015250565b5f6111c6601383610d93565b91506111d182611192565b602082019050919050565b5f6020820190508181035f8301526111f3816111ba565b9050919050565b7f4e487b71000000000000000000000000000000000000000000000000000000005f52603260045260245ffd5b7f4172726179206c656e677468206d69736d6174636800000000000000000000005f82015250565b5f61125b601583610d93565b915061126682611227565b602082019050919050565b5f6020820190508181035f8301526112888161124f565b9050919050565b7f4e6f7420746865206f776e6572000000000000000000000000000000000000005f82015250565b5f6112c3600d83610d93565b91506112ce8261128f565b602082019050919050565b5f6020820190508181035f8301526112f0816112b7565b9050919050565b7f5a65726f206164647265737300000000000000000000000000000000000000005f82015250565b5f61132b600c83610d93565b9150611336826112f7565b602082019050919050565b5f6020820190508181035f8301526113588161131f565b9050919050565b5f61136982610d18565b915061137483610d18565b925082820390508181111561138c5761138b611026565b5b92915050565b7f4e487b71000000000000000000000000000000000000000000000000000000005f52603160045260245ffd5b7f556e646572666c6f77207269736b0000000000000000000000000000000000005f82015250565b5f6113f3600e83610d93565b91506113fe826113bf565b602082019050919050565b5f6020820190508181035f830152611420816113e7565b9050919050565b7f43616e6e6f74206368616e6765206d617070696e672076616c756500000000005f82015250565b5f61145b601b83610d93565b915061146682611427565b602082019050919050565b5f6020820190508181035f8301526114888161144f565b905091905056fea2646970667358221220dd8f43930b6f6e61a69da3cc3c00685c41f212f1749f1784b8561a3fced6b66564736f6c63430008160033",
					"opcodes": "PUSH1 0x80 PUSH1 0x40 MSTORE CALLVALUE DUP1 ISZERO PUSH2 0xF JUMPI PUSH0 DUP1 REVERT JUMPDEST POP CALLER PUSH1 0x2 PUSH0 PUSH2 0x100 EXP DUP2 SLOAD DUP2 PUSH20 0xFFFFFFFFFFFFFFFFFFFFFFFFFFFFFFFFFFFFFFFF MUL NOT AND SWAP1 DUP4 PUSH20 0xFFFFFFFFFFFFFFFFFFFFFFFFFFFFFFFFFFFFFFFF AND MUL OR SWAP1 SSTORE POP PUSH2 0x14C5 DUP1 PUSH2 0x5D PUSH0 CODECOPY PUSH0 RETURN INVALID PUSH1 0x80 PUSH1 0x40 MSTORE CALLVALUE DUP1 ISZERO PUSH2 0xF JUMPI PUSH0 DUP1 REVERT JUMPDEST POP PUSH1 0x4 CALLDATASIZE LT PUSH2 0x156 JUMPI PUSH0 CALLDATALOAD PUSH1 0xE0 SHR DUP1 PUSH4 0x8DA5CB5B GT PUSH2 0xC1 JUMPI DUP1 PUSH4 0xADEF6CA8 GT PUSH2 0x7A JUMPI DUP1 PUSH4 0xADEF6CA8 EQ PUSH2 0x3B0 JUMPI DUP1 PUSH4 0xAF1B73C2 EQ PUSH2 0x3CE JUMPI DUP1 PUSH4 0xD5D6393B EQ PUSH2 0x3EA JUMPI DUP1 PUSH4 0xD7E6B100 EQ PUSH2 0x406 JUMPI DUP1 PUSH4 0xF519960D EQ PUSH2 0x410 JUMPI DUP1 PUSH4 0xF98C893A EQ PUSH2 0x440 JUMPI PUSH2 0x156 JUMP JUMPDEST DUP1 PUSH4 0x8DA5CB5B EQ PUSH2 0x2DE JUMPI DUP1 PUSH4 0x905496F0 EQ PUSH2 0x2FC JUMPI DUP1 PUSH4 0x93A35560 EQ PUSH2 0x318 JUMPI DUP1 PUSH4 0x9A5009AC EQ PUSH2 0x334 JUMPI DUP1 PUSH4 0x9A9BDCA7 EQ PUSH2 0x364 JUMPI DUP1 PUSH4 0xA6F9DAE1 EQ PUSH2 0x394 JUMPI PUSH2 0x156 JUMP JUMPDEST DUP1 PUSH4 0x359E1E94 GT PUSH2 0x113 JUMPI DUP1 PUSH4 0x359E1E94 EQ PUSH2 0x1F8 JUMPI DUP1 PUSH4 0x4ACEE15C EQ PUSH2 0x228 JUMPI DUP1 PUSH4 0x4F97C529 EQ PUSH2 0x244 JUMPI DUP1 PUSH4 0x5D1BD962 EQ PUSH2 0x24E JUMPI DUP1 PUSH4 0x74FC41B7 EQ PUSH2 0x27E JUMPI DUP1 PUSH4 0x750EAF99 EQ PUSH2 0x2AE JUMPI PUSH2 0x156 JUMP JUMPDEST DUP1 PUSH4 0xE3CCBE1 EQ PUSH2 0x15A JUMPI DUP1 PUSH4 0x14BF43BD EQ PUSH2 0x176 JUMPI DUP1 PUSH4 0x16E6E3BF EQ PUSH2 0x180 JUMPI DUP1 PUSH4 0x200D2ED2 EQ PUSH2 0x19E JUMPI DUP1 PUSH4 0x2653FA2D EQ PUSH2 0x1BC JUMPI DUP1 PUSH4 0x302C3CFA EQ PUSH2 0x1DA JUMPI JUMPDEST PUSH0 DUP1 REVERT JUMPDEST PUSH2 0x174 PUSH1 0x4 DUP1 CALLDATASIZE SUB DUP2 ADD SWAP1 PUSH2 0x16F SWAP2 SWAP1 PUSH2 0xD4B JUMP JUMPDEST PUSH2 0x45C JUMP JUMPDEST STOP JUMPDEST PUSH2 0x17E PUSH2 0x4A2 JUMP JUMPDEST STOP JUMPDEST PUSH2 0x188 PUSH2 0x4BA JUMP JUMPDEST PUSH1 0x40 MLOAD PUSH2 0x195 SWAP2 SWAP1 PUSH2 0xE13 JUMP JUMPDEST PUSH1 0x40 MLOAD DUP1 SWAP2 SUB SWAP1 RETURN JUMPDEST PUSH2 0x1A6 PUSH2 0x546 JUMP JUMPDEST PUSH1 0x40 MLOAD PUSH2 0x1B3 SWAP2 SWAP1 PUSH2 0xEA6 JUMP JUMPDEST PUSH1 0x40 MLOAD DUP1 SWAP2 SUB SWAP1 RETURN JUMPDEST PUSH2 0x1C4 PUSH2 0x558 JUMP JUMPDEST PUSH1 0x40 MLOAD PUSH2 0x1D1 SWAP2 SWAP1 PUSH2 0xECE JUMP JUMPDEST PUSH1 0x40 MLOAD DUP1 SWAP2 SUB SWAP1 RETURN JUMPDEST PUSH2 0x1E2 PUSH2 0x55D JUMP JUMPDEST PUSH1 0x40 MLOAD PUSH2 0x1EF SWAP2 SWAP1 PUSH2 0xECE JUMP JUMPDEST PUSH1 0x40 MLOAD DUP1 SWAP2 SUB SWAP1 RETURN JUMPDEST PUSH2 0x212 PUSH1 0x4 DUP1 CALLDATASIZE SUB DUP2 ADD SWAP1 PUSH2 0x20D SWAP2 SWAP1 PUSH2 0xEE7 JUMP JUMPDEST PUSH2 0x569 JUMP JUMPDEST PUSH1 0x40 MLOAD PUSH2 0x21F SWAP2 SWAP1 PUSH2 0xECE JUMP JUMPDEST PUSH1 0x40 MLOAD DUP1 SWAP2 SUB SWAP1 RETURN JUMPDEST PUSH2 0x242 PUSH1 0x4 DUP1 CALLDATASIZE SUB DUP2 ADD SWAP1 PUSH2 0x23D SWAP2 SWAP1 PUSH2 0xF25 JUMP JUMPDEST PUSH2 0x5CD JUMP JUMPDEST STOP JUMPDEST PUSH2 0x24C PUSH2 0x62B JUMP JUMPDEST STOP JUMPDEST PUSH2 0x268 PUSH1 0x4 DUP1 CALLDATASIZE SUB DUP2 ADD SWAP1 PUSH2 0x263 SWAP2 SWAP1 PUSH2 0xF25 JUMP JUMPDEST PUSH2 0x66C JUMP JUMPDEST PUSH1 0x40 MLOAD PUSH2 0x275 SWAP2 SWAP1 PUSH2 0xECE JUMP JUMPDEST PUSH1 0x40 MLOAD DUP1 SWAP2 SUB SWAP1 RETURN JUMPDEST PUSH2 0x298 PUSH1 0x4 DUP1 CALLDATASIZE SUB DUP2 ADD SWAP1 PUSH2 0x293 SWAP2 SWAP1 PUSH2 0xF25 JUMP JUMPDEST PUSH2 0x6D8 JUMP JUMPDEST PUSH1 0x40 MLOAD PUSH2 0x2A5 SWAP2 SWAP1 PUSH2 0xECE JUMP JUMPDEST PUSH1 0x40 MLOAD DUP1 SWAP2 SUB SWAP1 RETURN JUMPDEST PUSH2 0x2C8 PUSH1 0x4 DUP1 CALLDATASIZE SUB DUP2 ADD SWAP1 PUSH2 0x2C3 SWAP2 SWAP1 PUSH2 0xF50 JUMP JUMPDEST PUSH2 0x6F1 JUMP JUMPDEST PUSH1 0x40 MLOAD PUSH2 0x2D5 SWAP2 SWAP1 PUSH2 0xECE JUMP JUMPDEST PUSH1 0x40 MLOAD DUP1 SWAP2 SUB SWAP1 RETURN JUMPDEST PUSH2 0x2E6 PUSH2 0x706 JUMP JUMPDEST PUSH1 0x40 MLOAD PUSH2 0x2F3 SWAP2 SWAP1 PUSH2 0xF8A JUMP JUMPDEST PUSH1 0x40 MLOAD DUP1 SWAP2 SUB SWAP1 RETURN JUMPDEST PUSH2 0x316 PUSH1 0x4 DUP1 CALLDATASIZE SUB DUP2 ADD SWAP1 PUSH2 0x311 SWAP2 SWAP1 PUSH2 0xFA3 JUMP JUMPDEST PUSH2 0x72B JUMP JUMPDEST STOP JUMPDEST PUSH2 0x332 PUSH1 0x4 DUP1 CALLDATASIZE SUB DUP2 ADD SWAP1 PUSH2 0x32D SWAP2 SWAP1 PUSH2 0xF25 JUMP JUMPDEST PUSH2 0x7C3 JUMP JUMPDEST STOP JUMPDEST PUSH2 0x34E PUSH1 0x4 DUP1 CALLDATASIZE SUB DUP2 ADD SWAP1 PUSH2 0x349 SWAP2 SWAP1 PUSH2 0xF25 JUMP JUMPDEST PUSH2 0x85B JUMP JUMPDEST PUSH1 0x40 MLOAD PUSH2 0x35B SWAP2 SWAP1 PUSH2 0xECE JUMP JUMPDEST PUSH1 0x40 MLOAD DUP1 SWAP2 SUB SWAP1 RETURN JUMPDEST PUSH2 0x37E PUSH1 0x4 DUP1 CALLDATASIZE SUB DUP2 ADD SWAP1 PUSH2 0x379 SWAP2 SWAP1 PUSH2 0xF25 JUMP JUMPDEST PUSH2 0x874 JUMP JUMPDEST PUSH1 0x40 MLOAD PUSH2 0x38B SWAP2 SWAP1 PUSH2 0xECE JUMP JUMPDEST PUSH1 0x40 MLOAD DUP1 SWAP2 SUB SWAP1 RETURN JUMPDEST PUSH2 0x3AE PUSH1 0x4 DUP1 CALLDATASIZE SUB DUP2 ADD SWAP1 PUSH2 0x3A9 SWAP2 SWAP1 PUSH2 0xF50 JUMP JUMPDEST PUSH2 0x894 JUMP JUMPDEST STOP JUMPDEST PUSH2 0x3B8 PUSH2 0xA0D JUMP JUMPDEST PUSH1 0x40 MLOAD PUSH2 0x3C5 SWAP2 SWAP1 PUSH2 0x100D JUMP JUMPDEST PUSH1 0x40 MLOAD DUP1 SWAP2 SUB SWAP1 RETURN JUMPDEST PUSH2 0x3E8 PUSH1 0x4 DUP1 CALLDATASIZE SUB DUP2 ADD SWAP1 PUSH2 0x3E3 SWAP2 SWAP1 PUSH2 0xF50 JUMP JUMPDEST PUSH2 0xA20 JUMP JUMPDEST STOP JUMPDEST PUSH2 0x404 PUSH1 0x4 DUP1 CALLDATASIZE SUB DUP2 ADD SWAP1 PUSH2 0x3FF SWAP2 SWAP1 PUSH2 0xF25 JUMP JUMPDEST PUSH2 0xA8F JUMP JUMPDEST STOP JUMPDEST PUSH2 0x40E PUSH2 0xB73 JUMP JUMPDEST STOP JUMPDEST PUSH2 0x42A PUSH1 0x4 DUP1 CALLDATASIZE SUB DUP2 ADD SWAP1 PUSH2 0x425 SWAP2 SWAP1 PUSH2 0xF25 JUMP JUMPDEST PUSH2 0xBD4 JUMP JUMPDEST PUSH1 0x40 MLOAD PUSH2 0x437 SWAP2 SWAP1 PUSH2 0xECE JUMP JUMPDEST PUSH1 0x40 MLOAD DUP1 SWAP2 SUB SWAP1 RETURN JUMPDEST PUSH2 0x45A PUSH1 0x4 DUP1 CALLDATASIZE SUB DUP2 ADD SWAP1 PUSH2 0x455 SWAP2 SWAP1 PUSH2 0xD4B JUMP JUMPDEST PUSH2 0xBF5 JUMP JUMPDEST STOP JUMPDEST DUP1 PUSH1 0x6 PUSH0 DUP5 PUSH20 0xFFFFFFFFFFFFFFFFFFFFFFFFFFFFFFFFFFFFFFFF AND PUSH20 0xFFFFFFFFFFFFFFFFFFFFFFFFFFFFFFFFFFFFFFFF AND DUP2 MSTORE PUSH1 0x20 ADD SWAP1 DUP2 MSTORE PUSH1 0x20 ADD PUSH0 KECCAK256 DUP2 SWAP1 SSTORE POP POP POP JUMP JUMPDEST PUSH0 DUP1 DUP2 SLOAD DUP1 SWAP3 SWAP2 SWAP1 PUSH2 0x4B3 SWAP1 PUSH2 0x1053 JUMP JUMPDEST SWAP2 SWAP1 POP SSTORE POP JUMP JUMPDEST PUSH1 0x4 DUP1 SLOAD PUSH2 0x4C7 SWAP1 PUSH2 0x10C7 JUMP JUMPDEST DUP1 PUSH1 0x1F ADD PUSH1 0x20 DUP1 SWAP2 DIV MUL PUSH1 0x20 ADD PUSH1 0x40 MLOAD SWAP1 DUP2 ADD PUSH1 0x40 MSTORE DUP1 SWAP3 SWAP2 SWAP1 DUP2 DUP2 MSTORE PUSH1 0x20 ADD DUP3 DUP1 SLOAD PUSH2 0x4F3 SWAP1 PUSH2 0x10C7 JUMP JUMPDEST DUP1 ISZERO PUSH2 0x53E JUMPI DUP1 PUSH1 0x1F LT PUSH2 0x515 JUMPI PUSH2 0x100 DUP1 DUP4 SLOAD DIV MUL DUP4 MSTORE SWAP2 PUSH1 0x20 ADD SWAP2 PUSH2 0x53E JUMP JUMPDEST DUP3 ADD SWAP2 SWAP1 PUSH0 MSTORE PUSH1 0x20 PUSH0 KECCAK256 SWAP1 JUMPDEST DUP2 SLOAD DUP2 MSTORE SWAP1 PUSH1 0x1 ADD SWAP1 PUSH1 0x20 ADD DUP1 DUP4 GT PUSH2 0x521 JUMPI DUP3 SWAP1 SUB PUSH1 0x1F AND DUP3 ADD SWAP2 JUMPDEST POP POP POP POP POP DUP2 JUMP JUMPDEST PUSH1 0xB PUSH0 SWAP1 SLOAD SWAP1 PUSH2 0x100 EXP SWAP1 DIV PUSH1 0xFF AND DUP2 JUMP JUMPDEST PUSH0 SLOAD DUP2 JUMP JUMPDEST PUSH0 PUSH1 0xA DUP1 SLOAD SWAP1 POP SWAP1 POP SWAP1 JUMP JUMPDEST PUSH0 PUSH1 0xA DUP3 DUP5 PUSH2 0x578 SWAP2 SWAP1 PUSH2 0x10F7 JUMP JUMPDEST LT ISZERO PUSH2 0x5B9 JUMPI PUSH1 0x40 MLOAD PUSH32 0x8C379A000000000000000000000000000000000000000000000000000000000 DUP2 MSTORE PUSH1 0x4 ADD PUSH2 0x5B0 SWAP1 PUSH2 0x1174 JUMP JUMPDEST PUSH1 0x40 MLOAD DUP1 SWAP2 SUB SWAP1 REVERT JUMPDEST DUP2 DUP4 PUSH2 0x5C5 SWAP2 SWAP1 PUSH2 0x10F7 JUMP JUMPDEST SWAP1 POP SWAP3 SWAP2 POP POP JUMP JUMPDEST PUSH1 0x3 DUP2 LT PUSH2 0x610 JUMPI PUSH1 0x40 MLOAD PUSH32 0x8C379A000000000000000000000000000000000000000000000000000000000 DUP2 MSTORE PUSH1 0x4 ADD PUSH2 0x607 SWAP1 PUSH2 0x11DC JUMP JUMPDEST PUSH1 0x40 MLOAD DUP1 SWAP2 SUB SWAP1 REVERT JUMPDEST PUSH1 0x7 DUP2 PUSH1 0x3 DUP2 LT PUSH2 0x624 JUMPI PUSH2 0x623 PUSH2 0x11FA JUMP JUMPDEST JUMPDEST ADD PUSH0 SWAP1 SSTORE POP JUMP JUMPDEST PUSH0 JUMPDEST PUSH1 0xA DUP2 LT ISZERO PUSH2 0x669 JUMPI PUSH1 0xA DUP2 SWAP1 DUP1 PUSH1 0x1 DUP2 SLOAD ADD DUP1 DUP3 SSTORE DUP1 SWAP2 POP POP PUSH1 0x1 SWAP1 SUB SWAP1 PUSH0 MSTORE PUSH1 0x20 PUSH0 KECCAK256 ADD PUSH0 SWAP1 SWAP2 SWAP1 SWAP2 SWAP1 SWAP2 POP SSTORE DUP1 DUP1 PUSH1 0x1 ADD SWAP2 POP POP PUSH2 0x62D JUMP JUMPDEST POP JUMP JUMPDEST PUSH0 PUSH1 0xA DUP1 SLOAD SWAP1 POP DUP3 LT PUSH2 0x6B4 JUMPI PUSH1 0x40 MLOAD PUSH32 0x8C379A000000000000000000000000000000000000000000000000000000000 DUP2 MSTORE PUSH1 0x4 ADD PUSH2 0x6AB SWAP1 PUSH2 0x11DC JUMP JUMPDEST PUSH1 0x40 MLOAD DUP1 SWAP2 SUB SWAP1 REVERT JUMPDEST PUSH1 0xA DUP3 DUP2 SLOAD DUP2 LT PUSH2 0x6C8 JUMPI PUSH2 0x6C7 PUSH2 0x11FA JUMP JUMPDEST JUMPDEST SWAP1 PUSH0 MSTORE PUSH1 0x20 PUSH0 KECCAK256 ADD SLOAD SWAP1 POP SWAP2 SWAP1 POP JUMP JUMPDEST PUSH0 PUSH1 0xA DUP3 GT PUSH2 0x6E8 JUMPI PUSH1 0xA PUSH2 0x6EA JUMP JUMPDEST DUP2 JUMPDEST SWAP1 POP SWAP2 SWAP1 POP JUMP JUMPDEST PUSH1 0x6 PUSH1 0x20 MSTORE DUP1 PUSH0 MSTORE PUSH1 0x40 PUSH0 KECCAK256 PUSH0 SWAP2 POP SWAP1 POP SLOAD DUP2 JUMP JUMPDEST PUSH1 0x2 PUSH0 SWAP1 SLOAD SWAP1 PUSH2 0x100 EXP SWAP1 DIV PUSH20 0xFFFFFFFFFFFFFFFFFFFFFFFFFFFFFFFFFFFFFFFF AND DUP2 JUMP JUMPDEST PUSH1 0x3 DUP1 EQ PUSH2 0x76E JUMPI PUSH1 0x40 MLOAD PUSH32 0x8C379A000000000000000000000000000000000000000000000000000000000 DUP2 MSTORE PUSH1 0x4 ADD PUSH2 0x765 SWAP1 PUSH2 0x1271 JUMP JUMPDEST PUSH1 0x40 MLOAD DUP1 SWAP2 SUB SWAP1 REVERT JUMPDEST DUP3 PUSH1 0x7 PUSH0 PUSH1 0x3 DUP2 LT PUSH2 0x783 JUMPI PUSH2 0x782 PUSH2 0x11FA JUMP JUMPDEST JUMPDEST ADD DUP2 SWAP1 SSTORE POP DUP2 PUSH1 0x7 PUSH1 0x1 PUSH1 0x3 DUP2 LT PUSH2 0x79E JUMPI PUSH2 0x79D PUSH2 0x11FA JUMP JUMPDEST JUMPDEST ADD DUP2 SWAP1 SSTORE POP DUP1 PUSH1 0x7 PUSH1 0x2 PUSH1 0x3 DUP2 LT PUSH2 0x7B9 JUMPI PUSH2 0x7B8 PUSH2 0x11FA JUMP JUMPDEST JUMPDEST ADD DUP2 SWAP1 SSTORE POP POP POP POP JUMP JUMPDEST PUSH1 0x3 DUP1 EQ PUSH2 0x806 JUMPI PUSH1 0x40 MLOAD PUSH32 0x8C379A000000000000000000000000000000000000000000000000000000000 DUP2 MSTORE PUSH1 0x4 ADD PUSH2 0x7FD SWAP1 PUSH2 0x1271 JUMP JUMPDEST PUSH1 0x40 MLOAD DUP1 SWAP2 SUB SWAP1 REVERT JUMPDEST DUP1 PUSH1 0x7 PUSH1 0x2 PUSH1 0x3 DUP2 LT PUSH2 0x81C JUMPI PUSH2 0x81B PUSH2 0x11FA JUMP JUMPDEST JUMPDEST ADD DUP2 SWAP1 SSTORE POP PUSH32 0x93FE6D397C74FDF1402A8B72E47B68512F0510D7B98A4BC4CBDF6AC7108B3C59 DUP2 PUSH1 0x40 MLOAD PUSH2 0x850 SWAP2 SWAP1 PUSH2 0xECE JUMP JUMPDEST PUSH1 0x40 MLOAD DUP1 SWAP2 SUB SWAP1 LOG1 POP JUMP JUMPDEST PUSH1 0x7 DUP2 PUSH1 0x3 DUP2 LT PUSH2 0x86A JUMPI PUSH0 DUP1 REVERT JUMPDEST ADD PUSH0 SWAP2 POP SWAP1 POP SLOAD DUP2 JUMP JUMPDEST PUSH1 0xA DUP2 DUP2 SLOAD DUP2 LT PUSH2 0x883 JUMPI PUSH0 DUP1 REVERT JUMPDEST SWAP1 PUSH0 MSTORE PUSH1 0x20 PUSH0 KECCAK256 ADD PUSH0 SWAP2 POP SWAP1 POP SLOAD DUP2 JUMP JUMPDEST CALLER PUSH20 0xFFFFFFFFFFFFFFFFFFFFFFFFFFFFFFFFFFFFFFFF AND PUSH1 0x2 PUSH0 SWAP1 SLOAD SWAP1 PUSH2 0x100 EXP SWAP1 DIV PUSH20 0xFFFFFFFFFFFFFFFFFFFFFFFFFFFFFFFFFFFFFFFF AND PUSH20 0xFFFFFFFFFFFFFFFFFFFFFFFFFFFFFFFFFFFFFFFF AND EQ PUSH2 0x923 JUMPI PUSH1 0x40 MLOAD PUSH32 0x8C379A000000000000000000000000000000000000000000000000000000000 DUP2 MSTORE PUSH1 0x4 ADD PUSH2 0x91A SWAP1 PUSH2 0x12D9 JUMP JUMPDEST PUSH1 0x40 MLOAD DUP1 SWAP2 SUB SWAP1 REVERT JUMPDEST DUP1 PUSH0 PUSH20 0xFFFFFFFFFFFFFFFFFFFFFFFFFFFFFFFFFFFFFFFF AND DUP2 PUSH20 0xFFFFFFFFFFFFFFFFFFFFFFFFFFFFFFFFFFFFFFFF AND SUB PUSH2 0x992 JUMPI PUSH1 0x40 MLOAD PUSH32 0x8C379A000000000000000000000000000000000000000000000000000000000 DUP2 MSTORE PUSH1 0x4 ADD PUSH2 0x989 SWAP1 PUSH2 0x1341 JUMP JUMPDEST PUSH1 0x40 MLOAD DUP1 SWAP2 SUB SWAP1 REVERT JUMPDEST DUP2 PUSH1 0x2 PUSH0 PUSH2 0x100 EXP DUP2 SLOAD DUP2 PUSH20 0xFFFFFFFFFFFFFFFFFFFFFFFFFFFFFFFFFFFFFFFF MUL NOT AND SWAP1 DUP4 PUSH20 0xFFFFFFFFFFFFFFFFFFFFFFFFFFFFFFFFFFFFFFFF AND MUL OR SWAP1 SSTORE POP PUSH32 0xA2EA9883A321A3E97B8266C2B078BFEEC6D50C711ED71F874A90D500AE2EAF36 DUP3 PUSH1 0x40 MLOAD PUSH2 0xA01 SWAP2 SWAP1 PUSH2 0xF8A JUMP JUMPDEST PUSH1 0x40 MLOAD DUP1 SWAP2 SUB SWAP1 LOG1 POP POP JUMP JUMPDEST PUSH1 0x3 PUSH1 0x14 SWAP1 SLOAD SWAP1 PUSH2 0x100 EXP SWAP1 DIV PUSH1 0xFF AND DUP2 JUMP JUMPDEST PUSH0 PUSH1 0x6 PUSH0 DUP4 PUSH20 0xFFFFFFFFFFFFFFFFFFFFFFFFFFFFFFFFFFFFFFFF AND PUSH20 0xFFFFFFFFFFFFFFFFFFFFFFFFFFFFFFFFFFFFFFFF AND DUP2 MSTORE PUSH1 0x20 ADD SWAP1 DUP2 MSTORE PUSH1 0x20 ADD PUSH0 KECCAK256 DUP2 SWAP1 SSTORE POP PUSH1 0x1 PUSH1 0xB PUSH0 PUSH2 0x100 EXP DUP2 SLOAD DUP2 PUSH1 0xFF MUL NOT AND SWAP1 DUP4 PUSH1 0x2 DUP2 GT ISZERO PUSH2 0xA87 JUMPI PUSH2 0xA86 PUSH2 0xE33 JUMP JUMPDEST JUMPDEST MUL OR SWAP1 SSTORE POP POP JUMP JUMPDEST PUSH1 0xA DUP1 SLOAD SWAP1 POP DUP2 LT PUSH2 0xAD6 JUMPI PUSH1 0x40 MLOAD PUSH32 0x8C379A000000000000000000000000000000000000000000000000000000000 DUP2 MSTORE PUSH1 0x4 ADD PUSH2 0xACD SWAP1 PUSH2 0x11DC JUMP JUMPDEST PUSH1 0x40 MLOAD DUP1 SWAP2 SUB SWAP1 REVERT JUMPDEST PUSH0 DUP2 SWAP1 POP JUMPDEST PUSH1 0x1 PUSH1 0xA DUP1 SLOAD SWAP1 POP PUSH2 0xAED SWAP2 SWAP1 PUSH2 0x135F JUMP JUMPDEST DUP2 LT ISZERO PUSH2 0xB4A JUMPI PUSH1 0xA PUSH1 0x1 DUP3 PUSH2 0xB03 SWAP2 SWAP1 PUSH2 0x10F7 JUMP JUMPDEST DUP2 SLOAD DUP2 LT PUSH2 0xB14 JUMPI PUSH2 0xB13 PUSH2 0x11FA JUMP JUMPDEST JUMPDEST SWAP1 PUSH0 MSTORE PUSH1 0x20 PUSH0 KECCAK256 ADD SLOAD PUSH1 0xA DUP3 DUP2 SLOAD DUP2 LT PUSH2 0xB31 JUMPI PUSH2 0xB30 PUSH2 0x11FA JUMP JUMPDEST JUMPDEST SWAP1 PUSH0 MSTORE PUSH1 0x20 PUSH0 KECCAK256 ADD DUP2 SWAP1 SSTORE POP DUP1 DUP1 PUSH1 0x1 ADD SWAP2 POP POP PUSH2 0xADB JUMP JUMPDEST POP PUSH1 0xA DUP1 SLOAD DUP1 PUSH2 0xB5D JUMPI PUSH2 0xB5C PUSH2 0x1392 JUMP JUMPDEST JUMPDEST PUSH1 0x1 SWAP1 SUB DUP2 DUP2 SWAP1 PUSH0 MSTORE PUSH1 0x20 PUSH0 KECCAK256 ADD PUSH0 SWAP1 SSTORE SWAP1 SSTORE POP JUMP JUMPDEST PUSH1 0x64 PUSH1 0x1 SLOAD GT ISZERO PUSH2 0xBB9 JUMPI PUSH1 0x40 MLOAD PUSH32 0x8C379A000000000000000000000000000000000000000000000000000000000 DUP2 MSTORE PUSH1 0x4 ADD PUSH2 0xBB0 SWAP1 PUSH2 0x1409 JUMP JUMPDEST PUSH1 0x40 MLOAD DUP1 SWAP2 SUB SWAP1 REVERT JUMPDEST PUSH1 0x64 PUSH1 0x1 PUSH0 DUP3 DUP3 SLOAD PUSH2 0xBCB SWAP2 SWAP1 PUSH2 0x135F JUMP JUMPDEST SWAP3 POP POP DUP2 SWAP1 SSTORE POP JUMP JUMPDEST PUSH0 DUP1 SLOAD PUSH1 0x64 DUP4 PUSH2 0xBE4 SWAP2 SWAP1 PUSH2 0x10F7 JUMP JUMPDEST PUSH2 0xBEE SWAP2 SWAP1 PUSH2 0x10F7 JUMP JUMPDEST SWAP1 POP SWAP2 SWAP1 POP JUMP JUMPDEST PUSH0 PUSH1 0x6 PUSH0 DUP5 PUSH20 0xFFFFFFFFFFFFFFFFFFFFFFFFFFFFFFFFFFFFFFFF AND PUSH20 0xFFFFFFFFFFFFFFFFFFFFFFFFFFFFFFFFFFFFFFFF AND DUP2 MSTORE PUSH1 0x20 ADD SWAP1 DUP2 MSTORE PUSH1 0x20 ADD PUSH0 KECCAK256 SLOAD EQ PUSH2 0xC74 JUMPI PUSH1 0x40 MLOAD PUSH32 0x8C379A000000000000000000000000000000000000000000000000000000000 DUP2 MSTORE PUSH1 0x4 ADD PUSH2 0xC6B SWAP1 PUSH2 0x1471 JUMP JUMPDEST PUSH1 0x40 MLOAD DUP1 SWAP2 SUB SWAP1 REVERT JUMPDEST DUP1 PUSH1 0x6 PUSH0 DUP5 PUSH20 0xFFFFFFFFFFFFFFFFFFFFFFFFFFFFFFFFFFFFFFFF AND PUSH20 0xFFFFFFFFFFFFFFFFFFFFFFFFFFFFFFFFFFFFFFFF AND DUP2 MSTORE PUSH1 0x20 ADD SWAP1 DUP2 MSTORE PUSH1 0x20 ADD PUSH0 KECCAK256 DUP2 SWAP1 SSTORE POP POP POP JUMP JUMPDEST PUSH0 DUP1 REVERT JUMPDEST PUSH0 PUSH20 0xFFFFFFFFFFFFFFFFFFFFFFFFFFFFFFFFFFFFFFFF DUP3 AND SWAP1 POP SWAP2 SWAP1 POP JUMP JUMPDEST PUSH0 PUSH2 0xCE7 DUP3 PUSH2 0xCBE JUMP JUMPDEST SWAP1 POP SWAP2 SWAP1 POP JUMP JUMPDEST PUSH2 0xCF7 DUP2 PUSH2 0xCDD JUMP JUMPDEST DUP2 EQ PUSH2 0xD01 JUMPI PUSH0 DUP1 REVERT JUMPDEST POP JUMP JUMPDEST PUSH0 DUP2 CALLDATALOAD SWAP1 POP PUSH2 0xD12 DUP2 PUSH2 0xCEE JUMP JUMPDEST SWAP3 SWAP2 POP POP JUMP JUMPDEST PUSH0 DUP2 SWAP1 POP SWAP2 SWAP1 POP JUMP JUMPDEST PUSH2 0xD2A DUP2 PUSH2 0xD18 JUMP JUMPDEST DUP2 EQ PUSH2 0xD34 JUMPI PUSH0 DUP1 REVERT JUMPDEST POP JUMP JUMPDEST PUSH0 DUP2 CALLDATALOAD SWAP1 POP PUSH2 0xD45 DUP2 PUSH2 0xD21 JUMP JUMPDEST SWAP3 SWAP2 POP POP JUMP JUMPDEST PUSH0 DUP1 PUSH1 0x40 DUP4 DUP6 SUB SLT ISZERO PUSH2 0xD61 JUMPI PUSH2 0xD60 PUSH2 0xCBA JUMP JUMPDEST JUMPDEST PUSH0 PUSH2 0xD6E DUP6 DUP3 DUP7 ADD PUSH2 0xD04 JUMP JUMPDEST SWAP3 POP POP PUSH1 0x20 PUSH2 0xD7F DUP6 DUP3 DUP7 ADD PUSH2 0xD37 JUMP JUMPDEST SWAP2 POP POP SWAP3 POP SWAP3 SWAP1 POP JUMP JUMPDEST PUSH0 DUP2 MLOAD SWAP1 POP SWAP2 SWAP1 POP JUMP JUMPDEST PUSH0 DUP3 DUP3 MSTORE PUSH1 0x20 DUP3 ADD SWAP1 POP SWAP3 SWAP2 POP POP JUMP JUMPDEST PUSH0 JUMPDEST DUP4 DUP2 LT ISZERO PUSH2 0xDC0 JUMPI DUP1 DUP3 ADD MLOAD DUP2 DUP5 ADD MSTORE PUSH1 0x20 DUP2 ADD SWAP1 POP PUSH2 0xDA5 JUMP JUMPDEST PUSH0 DUP5 DUP5 ADD MSTORE POP POP POP POP JUMP JUMPDEST PUSH0 PUSH1 0x1F NOT PUSH1 0x1F DUP4 ADD AND SWAP1 POP SWAP2 SWAP1 POP JUMP JUMPDEST PUSH0 PUSH2 0xDE5 DUP3 PUSH2 0xD89 JUMP JUMPDEST PUSH2 0xDEF DUP2 DUP6 PUSH2 0xD93 JUMP JUMPDEST SWAP4 POP PUSH2 0xDFF DUP2 DUP6 PUSH1 0x20 DUP7 ADD PUSH2 0xDA3 JUMP JUMPDEST PUSH2 0xE08 DUP2 PUSH2 0xDCB JUMP JUMPDEST DUP5 ADD SWAP2 POP POP SWAP3 SWAP2 POP POP JUMP JUMPDEST PUSH0 PUSH1 0x20 DUP3 ADD SWAP1 POP DUP2 DUP2 SUB PUSH0 DUP4 ADD MSTORE PUSH2 0xE2B DUP2 DUP5 PUSH2 0xDDB JUMP JUMPDEST SWAP1 POP SWAP3 SWAP2 POP POP JUMP JUMPDEST PUSH32 0x4E487B7100000000000000000000000000000000000000000000000000000000 PUSH0 MSTORE PUSH1 0x21 PUSH1 0x4 MSTORE PUSH1 0x24 PUSH0 REVERT JUMPDEST PUSH1 0x3 DUP2 LT PUSH2 0xE71 JUMPI PUSH2 0xE70 PUSH2 0xE33 JUMP JUMPDEST JUMPDEST POP JUMP JUMPDEST PUSH0 DUP2 SWAP1 POP PUSH2 0xE81 DUP3 PUSH2 0xE60 JUMP JUMPDEST SWAP2 SWAP1 POP JUMP JUMPDEST PUSH0 PUSH2 0xE90 DUP3 PUSH2 0xE74 JUMP JUMPDEST SWAP1 POP SWAP2 SWAP1 POP JUMP JUMPDEST PUSH2 0xEA0 DUP2 PUSH2 0xE86 JUMP JUMPDEST DUP3 MSTORE POP POP JUMP JUMPDEST PUSH0 PUSH1 0x20 DUP3 ADD SWAP1 POP PUSH2 0xEB9 PUSH0 DUP4 ADD DUP5 PUSH2 0xE97 JUMP JUMPDEST SWAP3 SWAP2 POP POP JUMP JUMPDEST PUSH2 0xEC8 DUP2 PUSH2 0xD18 JUMP JUMPDEST DUP3 MSTORE POP POP JUMP JUMPDEST PUSH0 PUSH1 0x20 DUP3 ADD SWAP1 POP PUSH2 0xEE1 PUSH0 DUP4 ADD DUP5 PUSH2 0xEBF JUMP JUMPDEST SWAP3 SWAP2 POP POP JUMP JUMPDEST PUSH0 DUP1 PUSH1 0x40 DUP4 DUP6 SUB SLT ISZERO PUSH2 0xEFD JUMPI PUSH2 0xEFC PUSH2 0xCBA JUMP JUMPDEST JUMPDEST PUSH0 PUSH2 0xF0A DUP6 DUP3 DUP7 ADD PUSH2 0xD37 JUMP JUMPDEST SWAP3 POP POP PUSH1 0x20 PUSH2 0xF1B DUP6 DUP3 DUP7 ADD PUSH2 0xD37 JUMP JUMPDEST SWAP2 POP POP SWAP3 POP SWAP3 SWAP1 POP JUMP JUMPDEST PUSH0 PUSH1 0x20 DUP3 DUP5 SUB SLT ISZERO PUSH2 0xF3A JUMPI PUSH2 0xF39 PUSH2 0xCBA JUMP JUMPDEST JUMPDEST PUSH0 PUSH2 0xF47 DUP5 DUP3 DUP6 ADD PUSH2 0xD37 JUMP JUMPDEST SWAP2 POP POP SWAP3 SWAP2 POP POP JUMP JUMPDEST PUSH0 PUSH1 0x20 DUP3 DUP5 SUB SLT ISZERO PUSH2 0xF65 JUMPI PUSH2 0xF64 PUSH2 0xCBA JUMP JUMPDEST JUMPDEST PUSH0 PUSH2 0xF72 DUP5 DUP3 DUP6 ADD PUSH2 0xD04 JUMP JUMPDEST SWAP2 POP POP SWAP3 SWAP2 POP POP JUMP JUMPDEST PUSH2 0xF84 DUP2 PUSH2 0xCDD JUMP JUMPDEST DUP3 MSTORE POP POP JUMP JUMPDEST PUSH0 PUSH1 0x20 DUP3 ADD SWAP1 POP PUSH2 0xF9D PUSH0 DUP4 ADD DUP5 PUSH2 0xF7B JUMP JUMPDEST SWAP3 SWAP2 POP POP JUMP JUMPDEST PUSH0 DUP1 PUSH0 PUSH1 0x60 DUP5 DUP7 SUB SLT ISZERO PUSH2 0xFBA JUMPI PUSH2 0xFB9 PUSH2 0xCBA JUMP JUMPDEST JUMPDEST PUSH0 PUSH2 0xFC7 DUP7 DUP3 DUP8 ADD PUSH2 0xD37 JUMP JUMPDEST SWAP4 POP POP PUSH1 0x20 PUSH2 0xFD8 DUP7 DUP3 DUP8 ADD PUSH2 0xD37 JUMP JUMPDEST SWAP3 POP POP PUSH1 0x40 PUSH2 0xFE9 DUP7 DUP3 DUP8 ADD PUSH2 0xD37 JUMP JUMPDEST SWAP2 POP POP SWAP3 POP SWAP3 POP SWAP3 JUMP JUMPDEST PUSH0 DUP2 ISZERO ISZERO SWAP1 POP SWAP2 SWAP1 POP JUMP JUMPDEST PUSH2 0x1007 DUP2 PUSH2 0xFF3 JUMP JUMPDEST DUP3 MSTORE POP POP JUMP JUMPDEST PUSH0 PUSH1 0x20 DUP3 ADD SWAP1 POP PUSH2 0x1020 PUSH0 DUP4 ADD DUP5 PUSH2 0xFFE JUMP JUMPDEST SWAP3 SWAP2 POP POP JUMP JUMPDEST PUSH32 0x4E487B7100000000000000000000000000000000000000000000000000000000 PUSH0 MSTORE PUSH1 0x11 PUSH1 0x4 MSTORE PUSH1 0x24 PUSH0 REVERT JUMPDEST PUSH0 PUSH2 0x105D DUP3 PUSH2 0xD18 JUMP JUMPDEST SWAP2 POP PUSH32 0xFFFFFFFFFFFFFFFFFFFFFFFFFFFFFFFFFFFFFFFFFFFFFFFFFFFFFFFFFFFFFFFF DUP3 SUB PUSH2 0x108F JUMPI PUSH2 0x108E PUSH2 0x1026 JUMP JUMPDEST JUMPDEST PUSH1 0x1 DUP3 ADD SWAP1 POP SWAP2 SWAP1 POP JUMP JUMPDEST PUSH32 0x4E487B7100000000000000000000000000000000000000000000000000000000 PUSH0 MSTORE PUSH1 0x22 PUSH1 0x4 MSTORE PUSH1 0x24 PUSH0 REVERT JUMPDEST PUSH0 PUSH1 0x2 DUP3 DIV SWAP1 POP PUSH1 0x1 DUP3 AND DUP1 PUSH2 0x10DE JUMPI PUSH1 0x7F DUP3 AND SWAP2 POP JUMPDEST PUSH1 0x20 DUP3 LT DUP2 SUB PUSH2 0x10F1 JUMPI PUSH2 0x10F0 PUSH2 0x109A JUMP JUMPDEST JUMPDEST POP SWAP2 SWAP1 POP JUMP JUMPDEST PUSH0 PUSH2 0x1101 DUP3 PUSH2 0xD18 JUMP JUMPDEST SWAP2 POP PUSH2 0x110C DUP4 PUSH2 0xD18 JUMP JUMPDEST SWAP3 POP DUP3 DUP3 ADD SWAP1 POP DUP1 DUP3 GT ISZERO PUSH2 0x1124 JUMPI PUSH2 0x1123 PUSH2 0x1026 JUMP JUMPDEST JUMPDEST SWAP3 SWAP2 POP POP JUMP JUMPDEST PUSH32 0x526573756C74206D757374206265206174206C65617374203130000000000000 PUSH0 DUP3 ADD MSTORE POP JUMP JUMPDEST PUSH0 PUSH2 0x115E PUSH1 0x1A DUP4 PUSH2 0xD93 JUMP JUMPDEST SWAP2 POP PUSH2 0x1169 DUP3 PUSH2 0x112A JUMP JUMPDEST PUSH1 0x20 DUP3 ADD SWAP1 POP SWAP2 SWAP1 POP JUMP JUMPDEST PUSH0 PUSH1 0x20 DUP3 ADD SWAP1 POP DUP2 DUP2 SUB PUSH0 DUP4 ADD MSTORE PUSH2 0x118B DUP2 PUSH2 0x1152 JUMP JUMPDEST SWAP1 POP SWAP2 SWAP1 POP JUMP JUMPDEST PUSH32 0x496E646578206F7574206F6620626F756E647300000000000000000000000000 PUSH0 DUP3 ADD MSTORE POP JUMP JUMPDEST PUSH0 PUSH2 0x11C6 PUSH1 0x13 DUP4 PUSH2 0xD93 JUMP JUMPDEST SWAP2 POP PUSH2 0x11D1 DUP3 PUSH2 0x1192 JUMP JUMPDEST PUSH1 0x20 DUP3 ADD SWAP1 POP SWAP2 SWAP1 POP JUMP JUMPDEST PUSH0 PUSH1 0x20 DUP3 ADD SWAP1 POP DUP2 DUP2 SUB PUSH0 DUP4 ADD MSTORE PUSH2 0x11F3 DUP2 PUSH2 0x11BA JUMP JUMPDEST SWAP1 POP SWAP2 SWAP1 POP JUMP JUMPDEST PUSH32 0x4E487B7100000000000000000000000000000000000000000000000000000000 PUSH0 MSTORE PUSH1 0x32 PUSH1 0x4 MSTORE PUSH1 0x24 PUSH0 REVERT JUMPDEST PUSH32 0x4172726179206C656E677468206D69736D617463680000000000000000000000 PUSH0 DUP3 ADD MSTORE POP JUMP JUMPDEST PUSH0 PUSH2 0x125B PUSH1 0x15 DUP4 PUSH2 0xD93 JUMP JUMPDEST SWAP2 POP PUSH2 0x1266 DUP3 PUSH2 0x1227 JUMP JUMPDEST PUSH1 0x20 DUP3 ADD SWAP1 POP SWAP2 SWAP1 POP JUMP JUMPDEST PUSH0 PUSH1 0x20 DUP3 ADD SWAP1 POP DUP2 DUP2 SUB PUSH0 DUP4 ADD MSTORE PUSH2 0x1288 DUP2 PUSH2 0x124F JUMP JUMPDEST SWAP1 POP SWAP2 SWAP1 POP JUMP JUMPDEST PUSH32 0x4E6F7420746865206F776E657200000000000000000000000000000000000000 PUSH0 DUP3 ADD MSTORE POP JUMP JUMPDEST PUSH0 PUSH2 0x12C3 PUSH1 0xD DUP4 PUSH2 0xD93 JUMP JUMPDEST SWAP2 POP PUSH2 0x12CE DUP3 PUSH2 0x128F JUMP JUMPDEST PUSH1 0x20 DUP3 ADD SWAP1 POP SWAP2 SWAP1 POP JUMP JUMPDEST PUSH0 PUSH1 0x20 DUP3 ADD SWAP1 POP DUP2 DUP2 SUB PUSH0 DUP4 ADD MSTORE PUSH2 0x12F0 DUP2 PUSH2 0x12B7 JUMP JUMPDEST SWAP1 POP SWAP2 SWAP1 POP JUMP JUMPDEST PUSH32 0x5A65726F20616464726573730000000000000000000000000000000000000000 PUSH0 DUP3 ADD MSTORE POP JUMP JUMPDEST PUSH0 PUSH2 0x132B PUSH1 0xC DUP4 PUSH2 0xD93 JUMP JUMPDEST SWAP2 POP PUSH2 0x1336 DUP3 PUSH2 0x12F7 JUMP JUMPDEST PUSH1 0x20 DUP3 ADD SWAP1 POP SWAP2 SWAP1 POP JUMP JUMPDEST PUSH0 PUSH1 0x20 DUP3 ADD SWAP1 POP DUP2 DUP2 SUB PUSH0 DUP4 ADD MSTORE PUSH2 0x1358 DUP2 PUSH2 0x131F JUMP JUMPDEST SWAP1 POP SWAP2 SWAP1 POP JUMP JUMPDEST PUSH0 PUSH2 0x1369 DUP3 PUSH2 0xD18 JUMP JUMPDEST SWAP2 POP PUSH2 0x1374 DUP4 PUSH2 0xD18 JUMP JUMPDEST SWAP3 POP DUP3 DUP3 SUB SWAP1 POP DUP2 DUP2 GT ISZERO PUSH2 0x138C JUMPI PUSH2 0x138B PUSH2 0x1026 JUMP JUMPDEST JUMPDEST SWAP3 SWAP2 POP POP JUMP JUMPDEST PUSH32 0x4E487B7100000000000000000000000000000000000000000000000000000000 PUSH0 MSTORE PUSH1 0x31 PUSH1 0x4 MSTORE PUSH1 0x24 PUSH0 REVERT JUMPDEST PUSH32 0x556E646572666C6F77207269736B000000000000000000000000000000000000 PUSH0 DUP3 ADD MSTORE POP JUMP JUMPDEST PUSH0 PUSH2 0x13F3 PUSH1 0xE DUP4 PUSH2 0xD93 JUMP JUMPDEST SWAP2 POP PUSH2 0x13FE DUP3 PUSH2 0x13BF JUMP JUMPDEST PUSH1 0x20 DUP3 ADD SWAP1 POP SWAP2 SWAP1 POP JUMP JUMPDEST PUSH0 PUSH1 0x20 DUP3 ADD SWAP1 POP DUP2 DUP2 SUB PUSH0 DUP4 ADD MSTORE PUSH2 0x1420 DUP2 PUSH2 0x13E7 JUMP JUMPDEST SWAP1 POP SWAP2 SWAP1 POP JUMP JUMPDEST PUSH32 0x43616E6E6F74206368616E6765206D617070696E672076616C75650000000000 PUSH0 DUP3 ADD MSTORE POP JUMP JUMPDEST PUSH0 PUSH2 0x145B PUSH1 0x1B DUP4 PUSH2 0xD93 JUMP JUMPDEST SWAP2 POP PUSH2 0x1466 DUP3 PUSH2 0x1427 JUMP JUMPDEST PUSH1 0x20 DUP3 ADD SWAP1 POP SWAP2 SWAP1 POP JUMP JUMPDEST PUSH0 PUSH1 0x20 DUP3 ADD SWAP1 POP DUP2 DUP2 SUB PUSH0 DUP4 ADD MSTORE PUSH2 0x1488 DUP2 PUSH2 0x144F JUMP JUMPDEST SWAP1 POP SWAP2 SWAP1 POP JUMP INVALID LOG2 PUSH5 0x6970667358 0x22 SLT KECCAK256 0xDD DUP16 NUMBER SWAP4 SIGNEXTEND PUSH16 0x6E61A69DA3CC3C00685C41F212F1749F OR DUP5 0xB8 JUMP BYTE EXTCODEHASH 0xCE 0xD6 0xB6 PUSH6 0x64736F6C6343 STOP ADDMOD AND STOP CALLER "
				},
				"gasEstimates": {
					"creation": {
						"codeDepositCost": "1063400",
						"executionCost": "25370",
						"totalCost": "1088770"
					},
					"external": {
						"addToFixedArray(uint256,uint256,uint256)": "infinite",
						"addToFixedArrayAndEmit(uint256)": "infinite",
						"addressToUintMapping(address)": "2935",
						"assWithArguvents(uint256)": "infinite",
						"boolVariable()": "2539",
						"changeOwner(address)": "infinite",
						"decrementByConstant()": "infinite",
						"deleteFromFixedArray(uint256)": "5506",
						"deleteFrovDynamicArray(uint256)": "infinite",
						"dynamicArray(uint256)": "infinite",
						"fixedArray(uint256)": "infinite",
						"getArrayValue(uint256)": "infinite",
						"getDynamicArrayLength()": "2574",
						"incrementUint()": "24543",
						"owner()": "2531",
						"populateArray()": "infinite",
						"resetMappingAndSetStatus(address)": "29880",
						"revertOnMappingChange(address,uint256)": "25164",
						"safeAddition(uint256,uint256)": "infinite",
						"setMappingValue(address,uint256)": "22846",
						"status()": "2644",
						"stringVariablr()": "infinite",
						"ternarnyCheck(uint256)": "infinite",
						"uintVariable()": "2536"
					}
				},
				"methodIdentifiers": {
					"addToFixedArray(uint256,uint256,uint256)": "905496f0",
					"addToFixedArrayAndEmit(uint256)": "93a35560",
					"addressToUintMapping(address)": "750eaf99",
					"assWithArguvents(uint256)": "f519960d",
					"boolVariable()": "adef6ca8",
					"changeOwner(address)": "a6f9dae1",
					"decrementByConstant()": "d7e6b100",
					"deleteFromFixedArray(uint256)": "4acee15c",
					"deleteFrovDynamicArray(uint256)": "d5d6393b",
					"dynamicArray(uint256)": "9a9bdca7",
					"fixedArray(uint256)": "9a5009ac",
					"getArrayValue(uint256)": "5d1bd962",
					"getDynamicArrayLength()": "302c3cfa",
					"incrementUint()": "14bf43bd",
					"owner()": "8da5cb5b",
					"populateArray()": "4f97c529",
					"resetMappingAndSetStatus(address)": "af1b73c2",
					"revertOnMappingChange(address,uint256)": "f98c893a",
					"safeAddition(uint256,uint256)": "359e1e94",
					"setMappingValue(address,uint256)": "0e3ccbe1",
					"status()": "200d2ed2",
					"stringVariablr()": "16e6e3bf",
					"ternarnyCheck(uint256)": "74fc41b7",
					"uintVariable()": "2653fa2d"
				}
			},
			"storageLayout": {
				"storage": [
					{
						"astId": 3,
						"contract": "Practicum1.sol:Practicum",
						"label": "uintVariable",
						"offset": 0,
						"slot": "0",
						"type": "t_uint256"
					},
					{
						"astId": 5,
						"contract": "Practicum1.sol:Practicum",
						"label": "uintVariable2",
						"offset": 0,
						"slot": "1",
						"type": "t_uint256"
					},
					{
						"astId": 7,
						"contract": "Practicum1.sol:Practicum",
						"label": "owner",
						"offset": 0,
						"slot": "2",
						"type": "t_address"
					},
					{
						"astId": 9,
						"contract": "Practicum1.sol:Practicum",
						"label": "myAddr",
						"offset": 0,
						"slot": "3",
						"type": "t_address"
					},
					{
						"astId": 11,
						"contract": "Practicum1.sol:Practicum",
						"label": "boolVariable",
						"offset": 20,
						"slot": "3",
						"type": "t_bool"
					},
					{
						"astId": 13,
						"contract": "Practicum1.sol:Practicum",
						"label": "myBool",
						"offset": 21,
						"slot": "3",
						"type": "t_bool"
					},
					{
						"astId": 15,
						"contract": "Practicum1.sol:Practicum",
						"label": "stringVariablr",
						"offset": 0,
						"slot": "4",
						"type": "t_string_storage"
					},
					{
						"astId": 17,
						"contract": "Practicum1.sol:Practicum",
						"label": "myString",
						"offset": 0,
						"slot": "5",
						"type": "t_string_storage"
					},
					{
						"astId": 24,
						"contract": "Practicum1.sol:Practicum",
						"label": "addressToUintMapping",
						"offset": 0,
						"slot": "6",
						"type": "t_mapping(t_address,t_uint256)"
					},
					{
						"astId": 28,
						"contract": "Practicum1.sol:Practicum",
						"label": "fixedArray",
						"offset": 0,
						"slot": "7",
						"type": "t_array(t_uint256)3_storage"
					},
					{
						"astId": 31,
						"contract": "Practicum1.sol:Practicum",
						"label": "dynamicArray",
						"offset": 0,
						"slot": "10",
						"type": "t_array(t_uint256)dyn_storage"
					},
					{
						"astId": 38,
						"contract": "Practicum1.sol:Practicum",
						"label": "status",
						"offset": 0,
						"slot": "11",
						"type": "t_enum(Status)35"
					}
				],
				"types": {
					"t_address": {
						"encoding": "inplace",
						"label": "address",
						"numberOfBytes": "20"
					},
					"t_array(t_uint256)3_storage": {
						"base": "t_uint256",
						"encoding": "inplace",
						"label": "uint256[3]",
						"numberOfBytes": "96"
					},
					"t_array(t_uint256)dyn_storage": {
						"base": "t_uint256",
						"encoding": "dynamic_array",
						"label": "uint256[]",
						"numberOfBytes": "32"
					},
					"t_bool": {
						"encoding": "inplace",
						"label": "bool",
						"numberOfBytes": "1"
					},
					"t_enum(Status)35": {
						"encoding": "inplace",
						"label": "enum Practicum.Status",
						"numberOfBytes": "1"
					},
					"t_mapping(t_address,t_uint256)": {
						"encoding": "mapping",
						"key": "t_address",
						"label": "mapping(address => uint256)",
						"numberOfBytes": "32",
						"value": "t_uint256"
					},
					"t_string_storage": {
						"encoding": "bytes",
						"label": "string",
						"numberOfBytes": "32"
					},
					"t_uint256": {
						"encoding": "inplace",
						"label": "uint256",
						"numberOfBytes": "32"
					}
				}
			},
			"userdoc": {
				"kind": "user",
				"methods": {},
				"version": 1
			}
		}
	}
}