{
  "_format": "hh-sol-artifact-1",
  "contractName": "FundsDemo",
  "sourceName": "contracts/PracticeGuideDAO/FundsDemo.sol",
  "abi": [
    {
      "inputs": [],
      "name": "balanceReceied",
      "outputs": [
        {
          "internalType": "uint256",
          "name": "",
          "type": "uint256"
        }
      ],
      "stateMutability": "view",
      "type": "function"
    },
    {
      "inputs": [],
      "name": "getBalance",
      "outputs": [
        {
          "internalType": "uint256",
          "name": "",
          "type": "uint256"
        }
      ],
      "stateMutability": "view",
      "type": "function"
    },
    {
      "inputs": [],
      "name": "receiveMoney",
      "outputs": [],
      "stateMutability": "payable",
      "type": "function"
    },
    {
      "inputs": [],
      "name": "withdrawMoney",
      "outputs": [],
      "stateMutability": "nonpayable",
      "type": "function"
    }
  ],
  "bytecode": "0x6080604052348015600e575f80fd5b506101ea8061001c5f395ff3fe60806040526004361061003e575f3560e01c806312065fe01461004257806316372646146100625780636d26ec1814610076578063ac44600214610080575b5f80fd5b34801561004d575f80fd5b50475b60405190815260200160405180910390f35b34801561006d575f80fd5b506100505f5481565b61007e610094565b005b34801561008b575f80fd5b5061007e6100ab565b345f808282546100a4919061015f565b9091555050565b5f3390508073ffffffffffffffffffffffffffffffffffffffff166108fc3073ffffffffffffffffffffffffffffffffffffffff166312065fe06040518163ffffffff1660e01b8152600401602060405180830381865afa158015610112573d5f803e3d5ffd5b505050506040513d601f19601f82011682018060405250810190610136919061019d565b6040518115909202915f818181858888f1935050505015801561015b573d5f803e3d5ffd5b5050565b80820180821115610197577f4e487b71000000000000000000000000000000000000000000000000000000005f52601160045260245ffd5b92915050565b5f602082840312156101ad575f80fd5b505191905056fea26469706673582212203b46310319da6f28fdd7f31fe0a9db21b4a1fbe7b860988e6a081382baf6641564736f6c634300081a0033",
  "linkReferences": {},
  "deployedLinkReferences": {}
}