{
  "_format": "hh-sol-artifact-1",
  "contractName": "Adder",
  "sourceName": "contracts/PracticeJunior/Adder.sol",
  "abi": [
    {
      "inputs": [
        {
          "internalType": "uint256",
          "name": "a",
          "type": "uint256"
        },
        {
          "internalType": "uint256",
          "name": "b",
          "type": "uint256"
        }
      ],
      "name": "add",
      "outputs": [
        {
          "internalType": "uint256",
          "name": "",
          "type": "uint256"
        }
      ],
      "stateMutability": "pure",
      "type": "function"
    }
  ],
  "bytecode": "0x6080604052348015600e575f80fd5b5060e98061001b5f395ff3fe6080604052348015600e575f80fd5b50600436106026575f3560e01c8063771602f714602a575b5f80fd5b60396035366004605d565b604b565b60405190815260200160405180910390f35b5f60548284607c565b90505b92915050565b5f8060408385031215606d575f80fd5b50508035926020909101359150565b808201808211156057577f4e487b71000000000000000000000000000000000000000000000000000000005f52601160045260245ffdfea26469706673582212205931882f3ffe3a9deb95df89eb62a5e44b36e58d1d52fc76d37b968df1a907be64736f6c634300081a0033",
  "linkReferences": {},
  "deployedLinkReferences": {}
}