{
  "_format": "hh-sol-artifact-1",
  "contractName": "RestrictedAccess",
  "sourceName": "contracts/PracticeJunior/RestrictedAccess.sol",
  "abi": [
    {
      "inputs": [
        {
          "internalType": "address",
          "name": "_allowedAddress",
          "type": "address"
        }
      ],
      "stateMutability": "nonpayable",
      "type": "constructor"
    },
    {
      "inputs": [],
      "name": "allowedAddress",
      "outputs": [
        {
          "internalType": "address",
          "name": "",
          "type": "address"
        }
      ],
      "stateMutability": "view",
      "type": "function"
    },
    {
      "inputs": [],
      "name": "restrictedFucnion",
      "outputs": [],
      "stateMutability": "nonpayable",
      "type": "function"
    }
  ],
  "bytecode": "0x6080604052348015600e575f80fd5b506040516101cc3803806101cc833981016040819052602b91604e565b5f80546001600160a01b0319166001600160a01b03929092169190911790556079565b5f60208284031215605d575f80fd5b81516001600160a01b03811681146072575f80fd5b9392505050565b610146806100865f395ff3fe608060405234801561000f575f80fd5b5060043610610034575f3560e01c80634cf7817014610038578063adcd064514610080575b5f80fd5b5f546100579073ffffffffffffffffffffffffffffffffffffffff1681565b60405173ffffffffffffffffffffffffffffffffffffffff909116815260200160405180910390f35b61008861008a565b005b5f5473ffffffffffffffffffffffffffffffffffffffff16331461010e576040517f08c379a000000000000000000000000000000000000000000000000000000000815260206004820152600d60248201527f4163636573732064656e69656400000000000000000000000000000000000000604482015260640160405180910390fd5b56fea26469706673582212206fb68306d97b465b9f8bf12fd52f0fb55a69b1677f7a82424545f8b49eae087e64736f6c634300081a0033",
  "linkReferences": {},
  "deployedLinkReferences": {}
}