{
  "_format": "hh-sol-artifact-1",
  "contractName": "DataProvider",
  "sourceName": "contracts/PracticeMiddle/DataProvider.sol",
  "abi": [
    {
      "inputs": [
        {
          "internalType": "uint256",
          "name": "_initialData",
          "type": "uint256"
        }
      ],
      "stateMutability": "nonpayable",
      "type": "constructor"
    },
    {
      "inputs": [],
      "name": "getData",
      "outputs": [
        {
          "internalType": "uint256",
          "name": "",
          "type": "uint256"
        }
      ],
      "stateMutability": "view",
      "type": "function"
    },
    {
      "inputs": [
        {
          "internalType": "uint256",
          "name": "_newData",
          "type": "uint256"
        }
      ],
      "name": "setData",
      "outputs": [],
      "stateMutability": "nonpayable",
      "type": "function"
    }
  ],
  "bytecode": "0x608060405234801561001057600080fd5b5060405161010a38038061010a83398101604081905261002f91610037565b600055610050565b60006020828403121561004957600080fd5b5051919050565b60ac8061005e6000396000f3fe6080604052348015600f57600080fd5b506004361060325760003560e01c80633bc5de301460375780635b4b73a914604c575b600080fd5b60005460405190815260200160405180910390f35b605c6057366004605e565b600055565b005b600060208284031215606f57600080fd5b503591905056fea2646970667358221220a0d855cc022cf5eea9dd0a08bcff91ff94c35254b444ae7ef0e805422988ea3664736f6c63430008140033",
  "linkReferences": {},
  "deployedLinkReferences": {}
}