{
  "_format": "hh-sol-artifact-1",
  "contractName": "DataProvider",
  "sourceName": "contracts/PracticeMiddle/DataProvider.sol",
  "abi": [
    {
      "inputs": [
        {
          "internalType": "uint256",
          "name": "_initialData",
          "type": "uint256"
        }
      ],
      "stateMutability": "nonpayable",
      "type": "constructor"
    },
    {
      "inputs": [],
      "name": "getData",
      "outputs": [
        {
          "internalType": "uint256",
          "name": "",
          "type": "uint256"
        }
      ],
      "stateMutability": "view",
      "type": "function"
    },
    {
      "inputs": [
        {
          "internalType": "uint256",
          "name": "_newData",
          "type": "uint256"
        }
      ],
      "name": "setData",
      "outputs": [],
      "stateMutability": "nonpayable",
      "type": "function"
    }
  ],
  "bytecode": "0x6080604052348015600e575f80fd5b506040516100f83803806100f8833981016040819052602b916031565b5f556047565b5f602082840312156040575f80fd5b5051919050565b60a5806100535f395ff3fe6080604052348015600e575f80fd5b50600436106030575f3560e01c80633bc5de301460345780635b4b73a9146048575b5f80fd5b5f5460405190815260200160405180910390f35b605760533660046059565b5f55565b005b5f602082840312156068575f80fd5b503591905056fea2646970667358221220a7d71adeb7afa5517858cf9804d46368cbfb915b13ee97ced9e47dd944c6835964736f6c634300081a0033",
  "linkReferences": {},
  "deployedLinkReferences": {}
}