{
  "_format": "hh-sol-artifact-1",
  "contractName": "TimestampRecorder",
  "sourceName": "contracts/PracticeJunior/TimestampRecorder.sol",
  "abi": [
    {
      "inputs": [],
      "name": "getLustUpdated",
      "outputs": [
        {
          "internalType": "uint256",
          "name": "",
          "type": "uint256"
        }
      ],
      "stateMutability": "view",
      "type": "function"
    },
    {
      "inputs": [],
      "name": "lustUpdated",
      "outputs": [
        {
          "internalType": "uint256",
          "name": "",
          "type": "uint256"
        }
      ],
      "stateMutability": "view",
      "type": "function"
    },
    {
      "inputs": [],
      "name": "updateTimestamp",
      "outputs": [],
      "stateMutability": "nonpayable",
      "type": "function"
    }
  ],
  "bytecode": "0x6080604052348015600f57600080fd5b50609f8061001e6000396000f3fe6080604052348015600f57600080fd5b5060043610603c5760003560e01c80631c5be3d71460415780632f5e7d8514604b57806342a2ef26146061575b600080fd5b604942600055565b005b6000545b60405190815260200160405180910390f35b604f6000548156fea2646970667358221220385102e56dc88dcc598f6fdb059b3eeea6dc155df357d9c69dd155e8f6842d1664736f6c63430008140033",
  "linkReferences": {},
  "deployedLinkReferences": {}
}