{
  "_format": "hh-sol-artifact-1",
  "contractName": "Array",
  "sourceName": "contracts/PracticeModule1/LessonArray.sol",
  "abi": [
    {
      "inputs": [
        {
          "internalType": "uint256",
          "name": "",
          "type": "uint256"
        }
      ],
      "name": "arr",
      "outputs": [
        {
          "internalType": "uint256",
          "name": "",
          "type": "uint256"
        }
      ],
      "stateMutability": "view",
      "type": "function"
    },
    {
      "inputs": [
        {
          "internalType": "uint256",
          "name": "",
          "type": "uint256"
        }
      ],
      "name": "arr2",
      "outputs": [
        {
          "internalType": "uint256",
          "name": "",
          "type": "uint256"
        }
      ],
      "stateMutability": "view",
      "type": "function"
    },
    {
      "inputs": [],
      "name": "examples",
      "outputs": [],
      "stateMutability": "pure",
      "type": "function"
    },
    {
      "inputs": [
        {
          "internalType": "uint256",
          "name": "i",
          "type": "uint256"
        }
      ],
      "name": "get",
      "outputs": [
        {
          "internalType": "uint256",
          "name": "",
          "type": "uint256"
        }
      ],
      "stateMutability": "view",
      "type": "function"
    },
    {
      "inputs": [],
      "name": "getArr",
      "outputs": [
        {
          "internalType": "uint256[]",
          "name": "",
          "type": "uint256[]"
        }
      ],
      "stateMutability": "view",
      "type": "function"
    },
    {
      "inputs": [],
      "name": "getLength",
      "outputs": [
        {
          "internalType": "uint256",
          "name": "",
          "type": "uint256"
        }
      ],
      "stateMutability": "view",
      "type": "function"
    },
    {
      "inputs": [
        {
          "internalType": "uint256",
          "name": "",
          "type": "uint256"
        }
      ],
      "name": "myFixedSizeArr",
      "outputs": [
        {
          "internalType": "uint256",
          "name": "",
          "type": "uint256"
        }
      ],
      "stateMutability": "view",
      "type": "function"
    },
    {
      "inputs": [],
      "name": "pop",
      "outputs": [],
      "stateMutability": "nonpayable",
      "type": "function"
    },
    {
      "inputs": [
        {
          "internalType": "uint256",
          "name": "i",
          "type": "uint256"
        }
      ],
      "name": "push",
      "outputs": [],
      "stateMutability": "nonpayable",
      "type": "function"
    },
    {
      "inputs": [
        {
          "internalType": "uint256",
          "name": "index",
          "type": "uint256"
        }
      ],
      "name": "remove",
      "outputs": [],
      "stateMutability": "nonpayable",
      "type": "function"
    }
  ],
  "bytecode": "0x60e060405260016080818152600260a052600360c0819052610022929190610035565b5034801561002f57600080fd5b5061009a565b828054828255906000526020600020908101928215610075579160200282015b82811115610075578251829060ff16905591602001919060010190610055565b50610081929150610085565b5090565b5b808211156100815760008155600101610086565b6103ec806100a96000396000f3fe608060405234801561001057600080fd5b50600436106100be5760003560e01c8063959ac48411610076578063be1c766b1161005b578063be1c766b14610174578063edf0099b1461017c578063fb8cbced1461018f57600080fd5b8063959ac4841461012c578063a4ece52c1461016c57600080fd5b80634cc82215116100a75780634cc82215146100f357806371e5ee5f146101065780639507d39a1461011957600080fd5b8063335d00c2146100c357806338a067ce146100cd575b600080fd5b6100cb6101a4565b005b6100e06100db3660046102fb565b6101eb565b6040519081526020015b60405180910390f35b6100cb6101013660046102fb565b610202565b6100e06101143660046102fb565b610223565b6100e06101273660046102fb565b610244565b6100cb61013a3660046102fb565b600080546001810182559080527f290decd9548b62a8d60345a988386fc84ba6bc95484008f6362f93160ef3e5630155565b6100cb61026a565b6000546100e0565b6100e061018a3660046102fb565b610293565b6101976102a3565b6040516100ea9190610314565b60408051600580825260c082019092526000916020820160a0803683370190505090506001816000815181106101dc576101dc610358565b60200260200101818152505050565b600281600a81106101fb57600080fd5b0154905081565b6000818154811061021557610215610358565b600091825260208220015550565b6000818154811061023357600080fd5b600091825260209091200154905081565b600080828154811061025857610258610358565b90600052602060002001549050919050565b600080548061027b5761027b610387565b60019003818190600052602060002001600090559055565b6001818154811061023357600080fd5b606060008054806020026020016040519081016040528092919081815260200182805480156102f157602002820191906000526020600020905b8154815260200190600101908083116102dd575b5050505050905090565b60006020828403121561030d57600080fd5b5035919050565b6020808252825182820181905260009190848201906040850190845b8181101561034c57835183529284019291840191600101610330565b50909695505050505050565b7f4e487b7100000000000000000000000000000000000000000000000000000000600052603260045260246000fd5b7f4e487b7100000000000000000000000000000000000000000000000000000000600052603160045260246000fdfea2646970667358221220fbc96ea3bd9940a3f9625c8bebe5823be9b92c05c683869feddd5bedf1f14ed564736f6c63430008140033",
  "linkReferences": {},
  "deployedLinkReferences": {}
}