{
  "_format": "hh-sol-artifact-1",
  "contractName": "Practicum",
  "sourceName": "contracts/practice-module-1/Module1Practicum2.sol",
  "abi": [
    {
      "inputs": [
        {
          "internalType": "uint256",
          "name": "_groupId",
          "type": "uint256"
        },
        {
          "internalType": "address",
          "name": "_memberAddress",
          "type": "address"
        },
        {
          "internalType": "string",
          "name": "_name",
          "type": "string"
        },
        {
          "internalType": "uint256",
          "name": "_age",
          "type": "uint256"
        }
      ],
      "name": "addToGroup",
      "outputs": [],
      "stateMutability": "nonpayable",
      "type": "function"
    },
    {
      "inputs": [
        {
          "internalType": "address",
          "name": "_key1",
          "type": "address"
        },
        {
          "internalType": "uint256",
          "name": "_key2",
          "type": "uint256"
        },
        {
          "internalType": "uint256",
          "name": "_value",
          "type": "uint256"
        }
      ],
      "name": "addToNestedMapping",
      "outputs": [],
      "stateMutability": "nonpayable",
      "type": "function"
    },
    {
      "inputs": [
        {
          "internalType": "address",
          "name": "_key",
          "type": "address"
        },
        {
          "internalType": "string",
          "name": "_name",
          "type": "string"
        },
        {
          "internalType": "uint256",
          "name": "_age",
          "type": "uint256"
        }
      ],
      "name": "addToPersonArrayMapping",
      "outputs": [],
      "stateMutability": "nonpayable",
      "type": "function"
    },
    {
      "inputs": [
        {
          "internalType": "address",
          "name": "_key",
          "type": "address"
        },
        {
          "internalType": "string",
          "name": "_name",
          "type": "string"
        },
        {
          "internalType": "uint256",
          "name": "_age",
          "type": "uint256"
        }
      ],
      "name": "addToPersonMapping",
      "outputs": [],
      "stateMutability": "nonpayable",
      "type": "function"
    },
    {
      "inputs": [
        {
          "internalType": "address",
          "name": "_key1",
          "type": "address"
        },
        {
          "internalType": "uint256",
          "name": "_key2",
          "type": "uint256"
        },
        {
          "internalType": "uint256",
          "name": "_value",
          "type": "uint256"
        }
      ],
      "name": "computeSumFromNestedMapping",
      "outputs": [
        {
          "internalType": "uint256",
          "name": "",
          "type": "uint256"
        }
      ],
      "stateMutability": "view",
      "type": "function"
    },
    {
      "inputs": [
        {
          "internalType": "address",
          "name": "_key1",
          "type": "address"
        },
        {
          "internalType": "uint256",
          "name": "_key2",
          "type": "uint256"
        }
      ],
      "name": "getNestedMappingValue",
      "outputs": [
        {
          "internalType": "uint256",
          "name": "",
          "type": "uint256"
        }
      ],
      "stateMutability": "view",
      "type": "function"
    },
    {
      "inputs": [
        {
          "internalType": "uint256",
          "name": "",
          "type": "uint256"
        }
      ],
      "name": "groups",
      "outputs": [
        {
          "internalType": "string",
          "name": "groupName",
          "type": "string"
        }
      ],
      "stateMutability": "view",
      "type": "function"
    },
    {
      "inputs": [
        {
          "internalType": "address",
          "name": "",
          "type": "address"
        },
        {
          "internalType": "uint256",
          "name": "",
          "type": "uint256"
        }
      ],
      "name": "nestedMapping",
      "outputs": [
        {
          "internalType": "uint256",
          "name": "",
          "type": "uint256"
        }
      ],
      "stateMutability": "view",
      "type": "function"
    },
    {
      "inputs": [
        {
          "internalType": "address",
          "name": "",
          "type": "address"
        },
        {
          "internalType": "uint256",
          "name": "",
          "type": "uint256"
        }
      ],
      "name": "personArrayMapping",
      "outputs": [
        {
          "internalType": "string",
          "name": "name",
          "type": "string"
        },
        {
          "internalType": "uint256",
          "name": "age",
          "type": "uint256"
        }
      ],
      "stateMutability": "view",
      "type": "function"
    },
    {
      "inputs": [
        {
          "internalType": "address",
          "name": "",
          "type": "address"
        }
      ],
      "name": "personMapping",
      "outputs": [
        {
          "internalType": "string",
          "name": "name",
          "type": "string"
        },
        {
          "internalType": "uint256",
          "name": "age",
          "type": "uint256"
        }
      ],
      "stateMutability": "view",
      "type": "function"
    },
    {
      "inputs": [
        {
          "internalType": "uint256",
          "name": "",
          "type": "uint256"
        }
      ],
      "name": "personsArray",
      "outputs": [
        {
          "internalType": "string",
          "name": "name",
          "type": "string"
        },
        {
          "internalType": "uint256",
          "name": "age",
          "type": "uint256"
        }
      ],
      "stateMutability": "view",
      "type": "function"
    },
    {
      "inputs": [
        {
          "internalType": "address",
          "name": "_key1",
          "type": "address"
        },
        {
          "internalType": "uint256",
          "name": "_key2",
          "type": "uint256"
        }
      ],
      "name": "removeFromNestedMapping",
      "outputs": [],
      "stateMutability": "nonpayable",
      "type": "function"
    },
    {
      "inputs": [
        {
          "internalType": "address",
          "name": "_key",
          "type": "address"
        },
        {
          "internalType": "uint256",
          "name": "_index",
          "type": "uint256"
        }
      ],
      "name": "removeFromPersonArrayMapping",
      "outputs": [],
      "stateMutability": "nonpayable",
      "type": "function"
    }
  ],
  "bytecode": "0x6080604052348015600e575f80fd5b50610c418061001c5f395ff3fe608060405234801561000f575f80fd5b50600436106100da575f3560e01c806396324bd411610088578063c14101c011610063578063c14101c0146101dd578063c4a1f323146101f0578063d802904614610203578063e69a7b8b1461022a575f80fd5b806396324bd4146101975780639e1a5be0146101b7578063bae82c9b146101ca575f80fd5b806326a1a0c8116100b857806326a1a0c814610150578063451aa2471461016357806362d57b8d14610176575f80fd5b80630f130e24146100de5780630f5d19fb14610113578063147b28851461013d575b5f80fd5b6101116100ec36600461075b565b6001600160a01b039091165f9081526020818152604080832093835292905290812055565b005b610126610121366004610783565b61025b565b6040516101349291906107c8565b60405180910390f35b61012661014b36600461075b565b610310565b61012661015e3660046107e9565b610349565b6101116101713660046108a9565b610363565b61018961018436600461075b565b6103bb565b604051908152602001610134565b6101aa6101a5366004610783565b6103e3565b6040516101349190610904565b6101896101c5366004610916565b61047e565b6101116101d836600461075b565b61049f565b6101116101eb366004610946565b610641565b6101116101fe366004610946565b61068d565b61018961021136600461075b565b5f60208181529281526040808220909352908152205481565b610111610238366004610916565b6001600160a01b039092165f908152602081815260408083209383529290522055565b6003818154811061026a575f80fd5b905f5260205f2090600202015f91509050805f0180546102899061099a565b80601f01602080910402602001604051908101604052809291908181526020018280546102b59061099a565b80156103005780601f106102d757610100808354040283529160200191610300565b820191905f5260205f20905b8154815290600101906020018083116102e357829003601f168201915b5050505050908060010154905082565b6004602052815f5260405f208181548110610329575f80fd5b905f5260205f2090600202015f9150915050805f0180546102899061099a565b60016020525f90815260409020805481906102899061099a565b5f848152600260209081526040808320815180830183528681528084018690526001600160a01b0388168552600182019093529220815181906103a69082610a1e565b50602082015181600101559050505050505050565b6001600160a01b0382165f908152602081815260408083208484529091529020545b92915050565b60026020525f90815260409020805481906103fd9061099a565b80601f01602080910402602001604051908101604052809291908181526020018280546104299061099a565b80156104745780601f1061044b57610100808354040283529160200191610474565b820191905f5260205f20905b81548152906001019060200180831161045757829003601f168201915b5050505050905081565b5f8061048a85856103bb565b90506104968382610af0565b95945050505050565b6001600160a01b0382165f908152600460205260409020548110610523576040517f08c379a000000000000000000000000000000000000000000000000000000000815260206004820152601360248201527f496e646578206f7574206f6620626f756e647300000000000000000000000000604482015260640160405180910390fd5b805b6001600160a01b0383165f9081526004602052604090205461054990600190610b03565b8110156105ed576001600160a01b0383165f908152600460205260409020610572826001610af0565b8154811061058257610582610b16565b905f5260205f20906002020160045f856001600160a01b03166001600160a01b031681526020019081526020015f2082815481106105c2576105c2610b16565b5f9182526020909120600290910201806105dc8382610b2a565b506001918201549082015501610525565b506001600160a01b0382165f90815260046020526040902080548061061457610614610bf7565b5f828152602081205f199092019160028302019061063282826106ee565b600182015f9055505090555050565b60408051808201825283815260208082018490526001600160a01b0386165f9081526001909152919091208151819061067a9082610a1e565b5060208201518160010155905050505050565b6001600160a01b0383165f908152600460209081526040808320815180830190925285825281830185905280546001810182559084529190922082516002909202019081906106dc9082610a1e565b50602082015181600101555050505050565b5080546106fa9061099a565b5f825580601f10610709575050565b601f0160209004905f5260205f20908101906107259190610728565b50565b5b8082111561073c575f8155600101610729565b5090565b80356001600160a01b0381168114610756575f80fd5b919050565b5f806040838503121561076c575f80fd5b61077583610740565b946020939093013593505050565b5f60208284031215610793575f80fd5b5035919050565b5f81518084528060208401602086015e5f602082860101526020601f19601f83011685010191505092915050565b604081525f6107da604083018561079a565b90508260208301529392505050565b5f602082840312156107f9575f80fd5b61080282610740565b9392505050565b634e487b7160e01b5f52604160045260245ffd5b5f82601f83011261082c575f80fd5b813567ffffffffffffffff81111561084657610846610809565b604051601f19603f601f19601f8501160116810181811067ffffffffffffffff8211171561087657610876610809565b60405281815283820160200185101561088d575f80fd5b816020850160208301375f918101602001919091529392505050565b5f805f80608085870312156108bc575f80fd5b843593506108cc60208601610740565b9250604085013567ffffffffffffffff8111156108e7575f80fd5b6108f38782880161081d565b949793965093946060013593505050565b602081525f610802602083018461079a565b5f805f60608486031215610928575f80fd5b61093184610740565b95602085013595506040909401359392505050565b5f805f60608486031215610958575f80fd5b61096184610740565b9250602084013567ffffffffffffffff81111561097c575f80fd5b6109888682870161081d565b93969395505050506040919091013590565b600181811c908216806109ae57607f821691505b6020821081036109cc57634e487b7160e01b5f52602260045260245ffd5b50919050565b601f821115610a1957805f5260205f20601f840160051c810160208510156109f75750805b601f840160051c820191505b81811015610a16575f8155600101610a03565b50505b505050565b815167ffffffffffffffff811115610a3857610a38610809565b610a4c81610a46845461099a565b846109d2565b6020601f821160018114610a81575f8315610a675750848201515b600184901b5f19600386901b1c198216175b855550610a16565b5f84815260208120601f198516915b82811015610ab05787850151825560209485019460019092019101610a90565b5084821015610acd57868401515f19600387901b60f8161c191681555b50505050600190811b01905550565b634e487b7160e01b5f52601160045260245ffd5b808201808211156103dd576103dd610adc565b818103818111156103dd576103dd610adc565b634e487b7160e01b5f52603260045260245ffd5b818103610b35575050565b610b3f825461099a565b67ffffffffffffffff811115610b5757610b57610809565b610b6581610a46845461099a565b5f601f821160018114610b94575f8315610a67575081850154600184901b5f19600386901b1c19821617610a79565b5f8581526020808220868352908220601f198616925b83811015610bca5782860154825560019586019590910190602001610baa565b5085831015610be757818501545f19600388901b60f8161c191681555b5050505050600190811b01905550565b634e487b7160e01b5f52603160045260245ffdfea2646970667358221220054a966d6b4a49f80f7663c4d873a54a22a19734d0e8f921d0b028024a9f7e5064736f6c634300081a0033",
  "linkReferences": {},
  "deployedLinkReferences": {}
}