{
  "_format": "hh-sol-artifact-1",
  "contractName": "LessonGlobalVariablesAndConstructor",
  "sourceName": "contracts/PracticeModule1/LessonGlobalVariablesAndConstructor.sol",
  "abi": [
    {
      "inputs": [],
      "stateMutability": "nonpayable",
      "type": "constructor"
    },
    {
      "inputs": [],
      "name": "THREE_DAYS",
      "outputs": [
        {
          "internalType": "uint256",
          "name": "",
          "type": "uint256"
        }
      ],
      "stateMutability": "view",
      "type": "function"
    },
    {
      "inputs": [],
      "name": "TWO_WEEKS",
      "outputs": [
        {
          "internalType": "uint256",
          "name": "",
          "type": "uint256"
        }
      ],
      "stateMutability": "view",
      "type": "function"
    },
    {
      "inputs": [
        {
          "internalType": "address",
          "name": "_newAddr",
          "type": "address"
        }
      ],
      "name": "changeOwner",
      "outputs": [],
      "stateMutability": "nonpayable",
      "type": "function"
    },
    {
      "inputs": [],
      "name": "checkAndUpdateTimestamp",
      "outputs": [],
      "stateMutability": "nonpayable",
      "type": "function"
    },
    {
      "inputs": [],
      "name": "owner",
      "outputs": [
        {
          "internalType": "address",
          "name": "",
          "type": "address"
        }
      ],
      "stateMutability": "view",
      "type": "function"
    },
    {
      "inputs": [],
      "name": "timestamp",
      "outputs": [
        {
          "internalType": "uint256",
          "name": "",
          "type": "uint256"
        }
      ],
      "stateMutability": "view",
      "type": "function"
    }
  ],
  "bytecode": "0x608060405234801561001057600080fd5b50600080546001600160a01b031916331790554260015561033c806100366000396000f3fe608060405234801561001057600080fd5b50600436106100725760003560e01c8063b80777ea11610050578063b80777ea146100ee578063be4e694e146100f7578063c3cecf101461010157600080fd5b80638da5cb5b14610077578063934d1fa4146100c1578063a6f9dae1146100d9575b600080fd5b6000546100979073ffffffffffffffffffffffffffffffffffffffff1681565b60405173ffffffffffffffffffffffffffffffffffffffff90911681526020015b60405180910390f35b6100cb6212750081565b6040519081526020016100b8565b6100ec6100e7366004610289565b610109565b005b6100cb60015481565b6100cb6203f48081565b6100ec610255565b8073ffffffffffffffffffffffffffffffffffffffff811661018c576040517f08c379a000000000000000000000000000000000000000000000000000000000815260206004820152600f60248201527f496e76616c69642061646472657373000000000000000000000000000000000060448201526064015b60405180910390fd5b60005473ffffffffffffffffffffffffffffffffffffffff16331461020d576040517f08c379a000000000000000000000000000000000000000000000000000000000815260206004820152600d60248201527f4e6f7420746865206f776e6572000000000000000000000000000000000000006044820152606401610183565b50600080547fffffffffffffffffffffffff00000000000000000000000000000000000000001673ffffffffffffffffffffffffffffffffffffffff92909216919091179055565b6203f48060015461026691906102c6565b421061028757621275006001600082825461028191906102c6565b90915550505b565b60006020828403121561029b57600080fd5b813573ffffffffffffffffffffffffffffffffffffffff811681146102bf57600080fd5b9392505050565b80820180821115610300577f4e487b7100000000000000000000000000000000000000000000000000000000600052601160045260246000fd5b9291505056fea26469706673582212200bfb2be0c75e3d60ff1c1cea6dbfeaab8940d35782507f5bd06092c54f4a145864736f6c63430008140033",
  "linkReferences": {},
  "deployedLinkReferences": {}
}