{
  "_format": "hh-sol-artifact-1",
  "contractName": "Divider",
  "sourceName": "contracts/practice-junior/Divider.sol",
  "abi": [
    {
      "inputs": [
        {
          "internalType": "uint256",
          "name": "x",
          "type": "uint256"
        },
        {
          "internalType": "uint256",
          "name": "y",
          "type": "uint256"
        }
      ],
      "name": "divide",
      "outputs": [
        {
          "internalType": "uint256",
          "name": "",
          "type": "uint256"
        }
      ],
      "stateMutability": "pure",
      "type": "function"
    }
  ],
  "bytecode": "0x6080604052348015600e575f80fd5b5061015f8061001c5f395ff3fe608060405234801561000f575f80fd5b5060043610610029575f3560e01c8063f88e9fbf1461002d575b5f80fd5b61004061003b3660046100d1565b610052565b60405190815260200160405180910390f35b5f8082116100c0576040517f08c379a000000000000000000000000000000000000000000000000000000000815260206004820152601060248201527f4469766973696f6e206279207a65726f00000000000000000000000000000000604482015260640160405180910390fd5b6100ca82846100f1565b9392505050565b5f80604083850312156100e2575f80fd5b50508035926020909101359150565b5f82610124577f4e487b71000000000000000000000000000000000000000000000000000000005f52601260045260245ffd5b50049056fea26469706673582212201e7fd61e3724425f68924887633ae78928e01b5b5b60f1640fb790ae2af256fc64736f6c634300081a0033",
  "linkReferences": {},
  "deployedLinkReferences": {}
}