{
  "_format": "hh-sol-artifact-1",
  "contractName": "Multiplier",
  "sourceName": "contracts/practice-junior/Multiplier.sol",
  "abi": [
    {
      "inputs": [
        {
          "internalType": "uint256",
          "name": "a",
          "type": "uint256"
        },
        {
          "internalType": "uint256",
          "name": "b",
          "type": "uint256"
        }
      ],
      "name": "multiply",
      "outputs": [
        {
          "internalType": "uint256",
          "name": "",
          "type": "uint256"
        }
      ],
      "stateMutability": "pure",
      "type": "function"
    }
  ],
  "bytecode": "0x6080604052348015600e575f80fd5b5060ed8061001b5f395ff3fe6080604052348015600e575f80fd5b50600436106026575f3560e01c8063165c4a1614602a575b5f80fd5b60396035366004605d565b604b565b60405190815260200160405180910390f35b5f60548284607c565b90505b92915050565b5f8060408385031215606d575f80fd5b50508035926020909101359150565b80820281158282048414176057577f4e487b71000000000000000000000000000000000000000000000000000000005f52601160045260245ffdfea26469706673582212209a8f2787b844b72c7c6b8e00f57bbbdc308128025c03699a11c2bfa1676e2c5164736f6c634300081a0033",
  "linkReferences": {},
  "deployedLinkReferences": {}
}