{
	"Solidity/my-hardhat-project/practice junior/Task4.sol": {
		"Task4": {
			"abi": [
				{
					"inputs": [
						{
							"internalType": "uint256",
							"name": "number",
							"type": "uint256"
						}
					],
					"name": "addNumber",
					"outputs": [],
					"stateMutability": "nonpayable",
					"type": "function"
				},
				{
					"inputs": [
						{
							"internalType": "uint256",
							"name": "index",
							"type": "uint256"
						}
					],
					"name": "getNumber",
					"outputs": [
						{
							"internalType": "uint256",
							"name": "",
							"type": "uint256"
						}
					],
					"stateMutability": "view",
					"type": "function"
				},
				{
					"inputs": [
						{
							"internalType": "uint256",
							"name": "",
							"type": "uint256"
						}
					],
					"name": "numbers",
					"outputs": [
						{
							"internalType": "uint256",
							"name": "",
							"type": "uint256"
						}
					],
					"stateMutability": "view",
					"type": "function"
				}
			],
			"devdoc": {
				"kind": "dev",
				"methods": {},
				"version": 1
			},
			"evm": {
				"assembly": "    /* \"Solidity/my-hardhat-project/practice junior/Task4.sol\":264:720  contract Task4 {... */\n  mstore(0x40, 0x80)\n  callvalue\n  dup1\n  iszero\n  tag_1\n  jumpi\n  0x00\n  dup1\n  revert\ntag_1:\n  pop\n  dataSize(sub_0)\n  dup1\n  dataOffset(sub_0)\n  0x00\n  codecopy\n  0x00\n  return\nstop\n\nsub_0: assembly {\n        /* \"Solidity/my-hardhat-project/practice junior/Task4.sol\":264:720  contract Task4 {... */\n      mstore(0x40, 0x80)\n      callvalue\n      dup1\n      iszero\n      tag_1\n      jumpi\n      0x00\n      dup1\n      revert\n    tag_1:\n      pop\n      jumpi(tag_2, lt(calldatasize, 0x04))\n      shr(0xe0, calldataload(0x00))\n      dup1\n      0xd39fa233\n      eq\n      tag_3\n      jumpi\n      dup1\n      0xfc563658\n      eq\n      tag_4\n      jumpi\n      dup1\n      0xfce68023\n      eq\n      tag_5\n      jumpi\n    tag_2:\n      0x00\n      dup1\n      revert\n        /* \"Solidity/my-hardhat-project/practice junior/Task4.sol\":320:344  uint256[] public numbers */\n    tag_3:\n      tag_6\n      0x04\n      dup1\n      calldatasize\n      sub\n      dup2\n      add\n      swap1\n      tag_7\n      swap2\n      swap1\n      tag_8\n      jump\t// in\n    tag_7:\n      tag_9\n      jump\t// in\n    tag_6:\n      mload(0x40)\n      tag_10\n      swap2\n      swap1\n      tag_11\n      jump\t// in\n    tag_10:\n      mload(0x40)\n      dup1\n      swap2\n      sub\n      swap1\n      return\n        /* \"Solidity/my-hardhat-project/practice junior/Task4.sol\":549:717  function getNumber(uint256 index) public view returns(uint256) {... */\n    tag_4:\n      tag_12\n      0x04\n      dup1\n      calldatasize\n      sub\n      dup2\n      add\n      swap1\n      tag_13\n      swap2\n      swap1\n      tag_8\n      jump\t// in\n    tag_13:\n      tag_14\n      jump\t// in\n    tag_12:\n      mload(0x40)\n      tag_15\n      swap2\n      swap1\n      tag_11\n      jump\t// in\n    tag_15:\n      mload(0x40)\n      dup1\n      swap2\n      sub\n      swap1\n      return\n        /* \"Solidity/my-hardhat-project/practice junior/Task4.sol\":403:484  function addNumber(uint256 number) public {... */\n    tag_5:\n      tag_16\n      0x04\n      dup1\n      calldatasize\n      sub\n      dup2\n      add\n      swap1\n      tag_17\n      swap2\n      swap1\n      tag_8\n      jump\t// in\n    tag_17:\n      tag_18\n      jump\t// in\n    tag_16:\n      stop\n        /* \"Solidity/my-hardhat-project/practice junior/Task4.sol\":320:344  uint256[] public numbers */\n    tag_9:\n      0x00\n      dup2\n      dup2\n      sload\n      dup2\n      lt\n      tag_19\n      jumpi\n      0x00\n      dup1\n      revert\n    tag_19:\n      swap1\n      0x00\n      mstore\n      keccak256(0x00, 0x20)\n      add\n      0x00\n      swap2\n      pop\n      swap1\n      pop\n      sload\n      dup2\n      jump\t// out\n        /* \"Solidity/my-hardhat-project/practice junior/Task4.sol\":549:717  function getNumber(uint256 index) public view returns(uint256) {... */\n    tag_14:\n        /* \"Solidity/my-hardhat-project/practice junior/Task4.sol\":603:610  uint256 */\n      0x00\n        /* \"Solidity/my-hardhat-project/practice junior/Task4.sol\":639:646  numbers */\n      dup1\n        /* \"Solidity/my-hardhat-project/practice junior/Task4.sol\":639:653  numbers.length */\n      dup1\n      sload\n      swap1\n      pop\n        /* \"Solidity/my-hardhat-project/practice junior/Task4.sol\":631:636  index */\n      dup3\n        /* \"Solidity/my-hardhat-project/practice junior/Task4.sol\":631:653  index < numbers.length */\n      lt\n        /* \"Solidity/my-hardhat-project/practice junior/Task4.sol\":623:677  require(index < numbers.length, \"Index out of bounds\") */\n      tag_22\n      jumpi\n      mload(0x40)\n      0x08c379a000000000000000000000000000000000000000000000000000000000\n      dup2\n      mstore\n      0x04\n      add\n      tag_23\n      swap1\n      tag_24\n      jump\t// in\n    tag_23:\n      mload(0x40)\n      dup1\n      swap2\n      sub\n      swap1\n      revert\n    tag_22:\n        /* \"Solidity/my-hardhat-project/practice junior/Task4.sol\":695:702  numbers */\n      0x00\n        /* \"Solidity/my-hardhat-project/practice junior/Task4.sol\":703:708  index */\n      dup3\n        /* \"Solidity/my-hardhat-project/practice junior/Task4.sol\":695:709  numbers[index] */\n      dup2\n      sload\n      dup2\n      lt\n      tag_25\n      jumpi\n      tag_26\n      tag_27\n      jump\t// in\n    tag_26:\n    tag_25:\n      swap1\n      0x00\n      mstore\n      keccak256(0x00, 0x20)\n      add\n      sload\n        /* \"Solidity/my-hardhat-project/practice junior/Task4.sol\":688:709  return numbers[index] */\n      swap1\n      pop\n        /* \"Solidity/my-hardhat-project/practice junior/Task4.sol\":549:717  function getNumber(uint256 index) public view returns(uint256) {... */\n      swap2\n      swap1\n      pop\n      jump\t// out\n        /* \"Solidity/my-hardhat-project/practice junior/Task4.sol\":403:484  function addNumber(uint256 number) public {... */\n    tag_18:\n        /* \"Solidity/my-hardhat-project/practice junior/Task4.sol\":456:463  numbers */\n      0x00\n        /* \"Solidity/my-hardhat-project/practice junior/Task4.sol\":469:475  number */\n      dup2\n        /* \"Solidity/my-hardhat-project/practice junior/Task4.sol\":456:476  numbers.push(number) */\n      swap1\n      dup1\n      0x01\n      dup2\n      sload\n      add\n      dup1\n      dup3\n      sstore\n      dup1\n      swap2\n      pop\n      pop\n      0x01\n      swap1\n      sub\n      swap1\n      0x00\n      mstore\n      keccak256(0x00, 0x20)\n      add\n      0x00\n      swap1\n      swap2\n      swap1\n      swap2\n      swap1\n      swap2\n      pop\n      sstore\n        /* \"Solidity/my-hardhat-project/practice junior/Task4.sol\":403:484  function addNumber(uint256 number) public {... */\n      pop\n      jump\t// out\n        /* \"#utility.yul\":88:205   */\n    tag_32:\n        /* \"#utility.yul\":197:198   */\n      0x00\n        /* \"#utility.yul\":194:195   */\n      dup1\n        /* \"#utility.yul\":187:199   */\n      revert\n        /* \"#utility.yul\":334:411   */\n    tag_34:\n        /* \"#utility.yul\":371:378   */\n      0x00\n        /* \"#utility.yul\":400:405   */\n      dup2\n        /* \"#utility.yul\":389:405   */\n      swap1\n      pop\n        /* \"#utility.yul\":334:411   */\n      swap2\n      swap1\n      pop\n      jump\t// out\n        /* \"#utility.yul\":417:539   */\n    tag_35:\n        /* \"#utility.yul\":490:514   */\n      tag_47\n        /* \"#utility.yul\":508:513   */\n      dup2\n        /* \"#utility.yul\":490:514   */\n      tag_34\n      jump\t// in\n    tag_47:\n        /* \"#utility.yul\":483:488   */\n      dup2\n        /* \"#utility.yul\":480:515   */\n      eq\n        /* \"#utility.yul\":470:533   */\n      tag_48\n      jumpi\n        /* \"#utility.yul\":529:530   */\n      0x00\n        /* \"#utility.yul\":526:527   */\n      dup1\n        /* \"#utility.yul\":519:531   */\n      revert\n        /* \"#utility.yul\":470:533   */\n    tag_48:\n        /* \"#utility.yul\":417:539   */\n      pop\n      jump\t// out\n        /* \"#utility.yul\":545:684   */\n    tag_36:\n        /* \"#utility.yul\":591:596   */\n      0x00\n        /* \"#utility.yul\":629:635   */\n      dup2\n        /* \"#utility.yul\":616:636   */\n      calldataload\n        /* \"#utility.yul\":607:636   */\n      swap1\n      pop\n        /* \"#utility.yul\":645:678   */\n      tag_50\n        /* \"#utility.yul\":672:677   */\n      dup2\n        /* \"#utility.yul\":645:678   */\n      tag_35\n      jump\t// in\n    tag_50:\n        /* \"#utility.yul\":545:684   */\n      swap3\n      swap2\n      pop\n      pop\n      jump\t// out\n        /* \"#utility.yul\":690:1019   */\n    tag_8:\n        /* \"#utility.yul\":749:755   */\n      0x00\n        /* \"#utility.yul\":798:800   */\n      0x20\n        /* \"#utility.yul\":786:795   */\n      dup3\n        /* \"#utility.yul\":777:784   */\n      dup5\n        /* \"#utility.yul\":773:796   */\n      sub\n        /* \"#utility.yul\":769:801   */\n      slt\n        /* \"#utility.yul\":766:885   */\n      iszero\n      tag_52\n      jumpi\n        /* \"#utility.yul\":804:883   */\n      tag_53\n      tag_32\n      jump\t// in\n    tag_53:\n        /* \"#utility.yul\":766:885   */\n    tag_52:\n        /* \"#utility.yul\":924:925   */\n      0x00\n        /* \"#utility.yul\":949:1002   */\n      tag_54\n        /* \"#utility.yul\":994:1001   */\n      dup5\n        /* \"#utility.yul\":985:991   */\n      dup3\n        /* \"#utility.yul\":974:983   */\n      dup6\n        /* \"#utility.yul\":970:992   */\n      add\n        /* \"#utility.yul\":949:1002   */\n      tag_36\n      jump\t// in\n    tag_54:\n        /* \"#utility.yul\":939:1002   */\n      swap2\n      pop\n        /* \"#utility.yul\":895:1012   */\n      pop\n        /* \"#utility.yul\":690:1019   */\n      swap3\n      swap2\n      pop\n      pop\n      jump\t// out\n        /* \"#utility.yul\":1025:1143   */\n    tag_37:\n        /* \"#utility.yul\":1112:1136   */\n      tag_56\n        /* \"#utility.yul\":1130:1135   */\n      dup2\n        /* \"#utility.yul\":1112:1136   */\n      tag_34\n      jump\t// in\n    tag_56:\n        /* \"#utility.yul\":1107:1110   */\n      dup3\n        /* \"#utility.yul\":1100:1137   */\n      mstore\n        /* \"#utility.yul\":1025:1143   */\n      pop\n      pop\n      jump\t// out\n        /* \"#utility.yul\":1149:1371   */\n    tag_11:\n        /* \"#utility.yul\":1242:1246   */\n      0x00\n        /* \"#utility.yul\":1280:1282   */\n      0x20\n        /* \"#utility.yul\":1269:1278   */\n      dup3\n        /* \"#utility.yul\":1265:1283   */\n      add\n        /* \"#utility.yul\":1257:1283   */\n      swap1\n      pop\n        /* \"#utility.yul\":1293:1364   */\n      tag_58\n        /* \"#utility.yul\":1361:1362   */\n      0x00\n        /* \"#utility.yul\":1350:1359   */\n      dup4\n        /* \"#utility.yul\":1346:1363   */\n      add\n        /* \"#utility.yul\":1337:1343   */\n      dup5\n        /* \"#utility.yul\":1293:1364   */\n      tag_37\n      jump\t// in\n    tag_58:\n        /* \"#utility.yul\":1149:1371   */\n      swap3\n      swap2\n      pop\n      pop\n      jump\t// out\n        /* \"#utility.yul\":1377:1546   */\n    tag_38:\n        /* \"#utility.yul\":1461:1472   */\n      0x00\n        /* \"#utility.yul\":1495:1501   */\n      dup3\n        /* \"#utility.yul\":1490:1493   */\n      dup3\n        /* \"#utility.yul\":1483:1502   */\n      mstore\n        /* \"#utility.yul\":1535:1539   */\n      0x20\n        /* \"#utility.yul\":1530:1533   */\n      dup3\n        /* \"#utility.yul\":1526:1540   */\n      add\n        /* \"#utility.yul\":1511:1540   */\n      swap1\n      pop\n        /* \"#utility.yul\":1377:1546   */\n      swap3\n      swap2\n      pop\n      pop\n      jump\t// out\n        /* \"#utility.yul\":1552:1721   */\n    tag_39:\n        /* \"#utility.yul\":1692:1713   */\n      0x496e646578206f7574206f6620626f756e647300000000000000000000000000\n        /* \"#utility.yul\":1688:1689   */\n      0x00\n        /* \"#utility.yul\":1680:1686   */\n      dup3\n        /* \"#utility.yul\":1676:1690   */\n      add\n        /* \"#utility.yul\":1669:1714   */\n      mstore\n        /* \"#utility.yul\":1552:1721   */\n      pop\n      jump\t// out\n        /* \"#utility.yul\":1727:2093   */\n    tag_40:\n        /* \"#utility.yul\":1869:1872   */\n      0x00\n        /* \"#utility.yul\":1890:1957   */\n      tag_62\n        /* \"#utility.yul\":1954:1956   */\n      0x13\n        /* \"#utility.yul\":1949:1952   */\n      dup4\n        /* \"#utility.yul\":1890:1957   */\n      tag_38\n      jump\t// in\n    tag_62:\n        /* \"#utility.yul\":1883:1957   */\n      swap2\n      pop\n        /* \"#utility.yul\":1966:2059   */\n      tag_63\n        /* \"#utility.yul\":2055:2058   */\n      dup3\n        /* \"#utility.yul\":1966:2059   */\n      tag_39\n      jump\t// in\n    tag_63:\n        /* \"#utility.yul\":2084:2086   */\n      0x20\n        /* \"#utility.yul\":2079:2082   */\n      dup3\n        /* \"#utility.yul\":2075:2087   */\n      add\n        /* \"#utility.yul\":2068:2087   */\n      swap1\n      pop\n        /* \"#utility.yul\":1727:2093   */\n      swap2\n      swap1\n      pop\n      jump\t// out\n        /* \"#utility.yul\":2099:2518   */\n    tag_24:\n        /* \"#utility.yul\":2265:2269   */\n      0x00\n        /* \"#utility.yul\":2303:2305   */\n      0x20\n        /* \"#utility.yul\":2292:2301   */\n      dup3\n        /* \"#utility.yul\":2288:2306   */\n      add\n        /* \"#utility.yul\":2280:2306   */\n      swap1\n      pop\n        /* \"#utility.yul\":2352:2361   */\n      dup2\n        /* \"#utility.yul\":2346:2350   */\n      dup2\n        /* \"#utility.yul\":2342:2362   */\n      sub\n        /* \"#utility.yul\":2338:2339   */\n      0x00\n        /* \"#utility.yul\":2327:2336   */\n      dup4\n        /* \"#utility.yul\":2323:2340   */\n      add\n        /* \"#utility.yul\":2316:2363   */\n      mstore\n        /* \"#utility.yul\":2380:2511   */\n      tag_65\n        /* \"#utility.yul\":2506:2510   */\n      dup2\n        /* \"#utility.yul\":2380:2511   */\n      tag_40\n      jump\t// in\n    tag_65:\n        /* \"#utility.yul\":2372:2511   */\n      swap1\n      pop\n        /* \"#utility.yul\":2099:2518   */\n      swap2\n      swap1\n      pop\n      jump\t// out\n        /* \"#utility.yul\":2524:2704   */\n    tag_27:\n        /* \"#utility.yul\":2572:2649   */\n      0x4e487b7100000000000000000000000000000000000000000000000000000000\n        /* \"#utility.yul\":2569:2570   */\n      0x00\n        /* \"#utility.yul\":2562:2650   */\n      mstore\n        /* \"#utility.yul\":2669:2673   */\n      0x32\n        /* \"#utility.yul\":2666:2667   */\n      0x04\n        /* \"#utility.yul\":2659:2674   */\n      mstore\n        /* \"#utility.yul\":2693:2697   */\n      0x24\n        /* \"#utility.yul\":2690:2691   */\n      0x00\n        /* \"#utility.yul\":2683:2698   */\n      revert\n\n    auxdata: 0xa2646970667358221220ee52724737d4c22434ba4d2f21d9de7dbc31b96b613fbf83b79da0c18171da1e64736f6c63430008160033\n}\n",
				"bytecode": {
					"linkReferences": {},
					"object": "608060405234801561000f575f80fd5b506102d58061001d5f395ff3fe608060405234801561000f575f80fd5b506004361061003f575f3560e01c8063d39fa23314610043578063fc56365814610073578063fce68023146100a3575b5f80fd5b61005d600480360381019061005891906101a7565b6100bf565b60405161006a91906101e1565b60405180910390f35b61008d600480360381019061008891906101a7565b6100de565b60405161009a91906101e1565b60405180910390f35b6100bd60048036038101906100b891906101a7565b610148565b005b5f81815481106100cd575f80fd5b905f5260205f20015f915090505481565b5f80805490508210610125576040517f08c379a000000000000000000000000000000000000000000000000000000000815260040161011c90610254565b60405180910390fd5b5f828154811061013857610137610272565b5b905f5260205f2001549050919050565b5f81908060018154018082558091505060019003905f5260205f20015f909190919091505550565b5f80fd5b5f819050919050565b61018681610174565b8114610190575f80fd5b50565b5f813590506101a18161017d565b92915050565b5f602082840312156101bc576101bb610170565b5b5f6101c984828501610193565b91505092915050565b6101db81610174565b82525050565b5f6020820190506101f45f8301846101d2565b92915050565b5f82825260208201905092915050565b7f496e646578206f7574206f6620626f756e6473000000000000000000000000005f82015250565b5f61023e6013836101fa565b91506102498261020a565b602082019050919050565b5f6020820190508181035f83015261026b81610232565b9050919050565b7f4e487b71000000000000000000000000000000000000000000000000000000005f52603260045260245ffdfea2646970667358221220ee52724737d4c22434ba4d2f21d9de7dbc31b96b613fbf83b79da0c18171da1e64736f6c63430008160033",
					"opcodes": "PUSH1 0x80 PUSH1 0x40 MSTORE CALLVALUE DUP1 ISZERO PUSH2 0xF JUMPI PUSH0 DUP1 REVERT JUMPDEST POP PUSH2 0x2D5 DUP1 PUSH2 0x1D PUSH0 CODECOPY PUSH0 RETURN INVALID PUSH1 0x80 PUSH1 0x40 MSTORE CALLVALUE DUP1 ISZERO PUSH2 0xF JUMPI PUSH0 DUP1 REVERT JUMPDEST POP PUSH1 0x4 CALLDATASIZE LT PUSH2 0x3F JUMPI PUSH0 CALLDATALOAD PUSH1 0xE0 SHR DUP1 PUSH4 0xD39FA233 EQ PUSH2 0x43 JUMPI DUP1 PUSH4 0xFC563658 EQ PUSH2 0x73 JUMPI DUP1 PUSH4 0xFCE68023 EQ PUSH2 0xA3 JUMPI JUMPDEST PUSH0 DUP1 REVERT JUMPDEST PUSH2 0x5D PUSH1 0x4 DUP1 CALLDATASIZE SUB DUP2 ADD SWAP1 PUSH2 0x58 SWAP2 SWAP1 PUSH2 0x1A7 JUMP JUMPDEST PUSH2 0xBF JUMP JUMPDEST PUSH1 0x40 MLOAD PUSH2 0x6A SWAP2 SWAP1 PUSH2 0x1E1 JUMP JUMPDEST PUSH1 0x40 MLOAD DUP1 SWAP2 SUB SWAP1 RETURN JUMPDEST PUSH2 0x8D PUSH1 0x4 DUP1 CALLDATASIZE SUB DUP2 ADD SWAP1 PUSH2 0x88 SWAP2 SWAP1 PUSH2 0x1A7 JUMP JUMPDEST PUSH2 0xDE JUMP JUMPDEST PUSH1 0x40 MLOAD PUSH2 0x9A SWAP2 SWAP1 PUSH2 0x1E1 JUMP JUMPDEST PUSH1 0x40 MLOAD DUP1 SWAP2 SUB SWAP1 RETURN JUMPDEST PUSH2 0xBD PUSH1 0x4 DUP1 CALLDATASIZE SUB DUP2 ADD SWAP1 PUSH2 0xB8 SWAP2 SWAP1 PUSH2 0x1A7 JUMP JUMPDEST PUSH2 0x148 JUMP JUMPDEST STOP JUMPDEST PUSH0 DUP2 DUP2 SLOAD DUP2 LT PUSH2 0xCD JUMPI PUSH0 DUP1 REVERT JUMPDEST SWAP1 PUSH0 MSTORE PUSH1 0x20 PUSH0 KECCAK256 ADD PUSH0 SWAP2 POP SWAP1 POP SLOAD DUP2 JUMP JUMPDEST PUSH0 DUP1 DUP1 SLOAD SWAP1 POP DUP3 LT PUSH2 0x125 JUMPI PUSH1 0x40 MLOAD PUSH32 0x8C379A000000000000000000000000000000000000000000000000000000000 DUP2 MSTORE PUSH1 0x4 ADD PUSH2 0x11C SWAP1 PUSH2 0x254 JUMP JUMPDEST PUSH1 0x40 MLOAD DUP1 SWAP2 SUB SWAP1 REVERT JUMPDEST PUSH0 DUP3 DUP2 SLOAD DUP2 LT PUSH2 0x138 JUMPI PUSH2 0x137 PUSH2 0x272 JUMP JUMPDEST JUMPDEST SWAP1 PUSH0 MSTORE PUSH1 0x20 PUSH0 KECCAK256 ADD SLOAD SWAP1 POP SWAP2 SWAP1 POP JUMP JUMPDEST PUSH0 DUP2 SWAP1 DUP1 PUSH1 0x1 DUP2 SLOAD ADD DUP1 DUP3 SSTORE DUP1 SWAP2 POP POP PUSH1 0x1 SWAP1 SUB SWAP1 PUSH0 MSTORE PUSH1 0x20 PUSH0 KECCAK256 ADD PUSH0 SWAP1 SWAP2 SWAP1 SWAP2 SWAP1 SWAP2 POP SSTORE POP JUMP JUMPDEST PUSH0 DUP1 REVERT JUMPDEST PUSH0 DUP2 SWAP1 POP SWAP2 SWAP1 POP JUMP JUMPDEST PUSH2 0x186 DUP2 PUSH2 0x174 JUMP JUMPDEST DUP2 EQ PUSH2 0x190 JUMPI PUSH0 DUP1 REVERT JUMPDEST POP JUMP JUMPDEST PUSH0 DUP2 CALLDATALOAD SWAP1 POP PUSH2 0x1A1 DUP2 PUSH2 0x17D JUMP JUMPDEST SWAP3 SWAP2 POP POP JUMP JUMPDEST PUSH0 PUSH1 0x20 DUP3 DUP5 SUB SLT ISZERO PUSH2 0x1BC JUMPI PUSH2 0x1BB PUSH2 0x170 JUMP JUMPDEST JUMPDEST PUSH0 PUSH2 0x1C9 DUP5 DUP3 DUP6 ADD PUSH2 0x193 JUMP JUMPDEST SWAP2 POP POP SWAP3 SWAP2 POP POP JUMP JUMPDEST PUSH2 0x1DB DUP2 PUSH2 0x174 JUMP JUMPDEST DUP3 MSTORE POP POP JUMP JUMPDEST PUSH0 PUSH1 0x20 DUP3 ADD SWAP1 POP PUSH2 0x1F4 PUSH0 DUP4 ADD DUP5 PUSH2 0x1D2 JUMP JUMPDEST SWAP3 SWAP2 POP POP JUMP JUMPDEST PUSH0 DUP3 DUP3 MSTORE PUSH1 0x20 DUP3 ADD SWAP1 POP SWAP3 SWAP2 POP POP JUMP JUMPDEST PUSH32 0x496E646578206F7574206F6620626F756E647300000000000000000000000000 PUSH0 DUP3 ADD MSTORE POP JUMP JUMPDEST PUSH0 PUSH2 0x23E PUSH1 0x13 DUP4 PUSH2 0x1FA JUMP JUMPDEST SWAP2 POP PUSH2 0x249 DUP3 PUSH2 0x20A JUMP JUMPDEST PUSH1 0x20 DUP3 ADD SWAP1 POP SWAP2 SWAP1 POP JUMP JUMPDEST PUSH0 PUSH1 0x20 DUP3 ADD SWAP1 POP DUP2 DUP2 SUB PUSH0 DUP4 ADD MSTORE PUSH2 0x26B DUP2 PUSH2 0x232 JUMP JUMPDEST SWAP1 POP SWAP2 SWAP1 POP JUMP JUMPDEST PUSH32 0x4E487B7100000000000000000000000000000000000000000000000000000000 PUSH0 MSTORE PUSH1 0x32 PUSH1 0x4 MSTORE PUSH1 0x24 PUSH0 REVERT INVALID LOG2 PUSH5 0x6970667358 0x22 SLT KECCAK256 0xEE MSTORE PUSH19 0x4737D4C22434BA4D2F21D9DE7DBC31B96B613F 0xBF DUP4 0xB7 SWAP14 LOG0 0xC1 DUP2 PUSH18 0xDA1E64736F6C634300081600330000000000 "
				},
				"gasEstimates": {
					"creation": {
						"codeDepositCost": "145000",
						"executionCost": "188",
						"totalCost": "145188"
					},
					"external": {
						"addNumber(uint256)": "46842",
						"getNumber(uint256)": "infinite",
						"numbers(uint256)": "infinite"
					}
				},
				"methodIdentifiers": {
					"addNumber(uint256)": "fce68023",
					"getNumber(uint256)": "fc563658",
					"numbers(uint256)": "d39fa233"
				}
			},
			"storageLayout": {
				"storage": [
					{
						"astId": 4,
						"contract": "Solidity/my-hardhat-project/practice junior/Task4.sol:Task4",
						"label": "numbers",
						"offset": 0,
						"slot": "0",
						"type": "t_array(t_uint256)dyn_storage"
					}
				],
				"types": {
					"t_array(t_uint256)dyn_storage": {
						"base": "t_uint256",
						"encoding": "dynamic_array",
						"label": "uint256[]",
						"numberOfBytes": "32"
					},
					"t_uint256": {
						"encoding": "inplace",
						"label": "uint256",
						"numberOfBytes": "32"
					}
				}
			},
			"userdoc": {
				"kind": "user",
				"methods": {},
				"version": 1
			}
		}
	}
}