{
  "_format": "hh-sol-artifact-1",
  "contractName": "Sender",
  "sourceName": "contracts/PracticeModule1/LessonCall.sol",
  "abi": [
    {
      "inputs": [],
      "stateMutability": "nonpayable",
      "type": "constructor"
    },
    {
      "inputs": [
        {
          "internalType": "address",
          "name": "owner",
          "type": "address"
        }
      ],
      "name": "OwnableInvalidOwner",
      "type": "error"
    },
    {
      "inputs": [
        {
          "internalType": "address",
          "name": "account",
          "type": "address"
        }
      ],
      "name": "OwnableUnauthorizedAccount",
      "type": "error"
    },
    {
      "anonymous": false,
      "inputs": [
        {
          "indexed": true,
          "internalType": "address",
          "name": "previousOwner",
          "type": "address"
        },
        {
          "indexed": true,
          "internalType": "address",
          "name": "newOwner",
          "type": "address"
        }
      ],
      "name": "OwnershipTransferred",
      "type": "event"
    },
    {
      "inputs": [
        {
          "internalType": "address",
          "name": "target",
          "type": "address"
        },
        {
          "internalType": "uint256",
          "name": "method",
          "type": "uint256"
        }
      ],
      "name": "callOtherContract",
      "outputs": [],
      "stateMutability": "payable",
      "type": "function"
    },
    {
      "inputs": [],
      "name": "owner",
      "outputs": [
        {
          "internalType": "address",
          "name": "",
          "type": "address"
        }
      ],
      "stateMutability": "view",
      "type": "function"
    },
    {
      "inputs": [],
      "name": "renounceOwnership",
      "outputs": [],
      "stateMutability": "nonpayable",
      "type": "function"
    },
    {
      "inputs": [
        {
          "internalType": "address payable",
          "name": "recipient",
          "type": "address"
        },
        {
          "internalType": "uint256",
          "name": "amount",
          "type": "uint256"
        }
      ],
      "name": "sendEther",
      "outputs": [],
      "stateMutability": "nonpayable",
      "type": "function"
    },
    {
      "inputs": [
        {
          "internalType": "address",
          "name": "newOwner",
          "type": "address"
        }
      ],
      "name": "transferOwnership",
      "outputs": [],
      "stateMutability": "nonpayable",
      "type": "function"
    },
    {
      "stateMutability": "payable",
      "type": "receive"
    }
  ],
  "bytecode": "0x608060405234801561001057600080fd5b50338061003757604051631e4fbdf760e01b81526000600482015260240160405180910390fd5b61004081610046565b50610096565b600080546001600160a01b038381166001600160a01b0319831681178455604051919092169283917f8be0079c531659141344cd1fd0a4f28419497f9722a3daafe3b4186f6b6457e09190a35050565b61077f806100a56000396000f3fe60806040526004361061005e5760003560e01c80638da5cb5b116100435780638da5cb5b14610094578063c1756a2c146100cd578063f2fde38b146100ed57600080fd5b80633b111c251461006a578063715018a61461007f57600080fd5b3661006557005b600080fd5b61007d6100783660046106ca565b61010d565b005b34801561008b57600080fd5b5061007d6104cd565b3480156100a057600080fd5b506000546040805173ffffffffffffffffffffffffffffffffffffffff9092168252519081900360200190f35b3480156100d957600080fd5b5061007d6100e83660046106ca565b6104e1565b3480156100f957600080fd5b5061007d6101083660046106f6565b61057c565b344710156101625760405162461bcd60e51b815260206004820152601c60248201527f496e73756666696369656e742062616c616e636520746f2073656e640000000060448201526064015b60405180910390fd5b806001036102805760408051600481526024810182526020810180517bffffffffffffffffffffffffffffffffffffffffffffffffffffffff167f391bf32d00000000000000000000000000000000000000000000000000000000179052905160009173ffffffffffffffffffffffffffffffffffffffff85169134916101e89161071a565b60006040518083038185875af1925050503d8060008114610225576040519150601f19603f3d011682016040523d82523d6000602084013e61022a565b606091505b505090508061027b5760405162461bcd60e51b815260206004820152601c60248201527f43616c6c20746f2072656365697665457468657231206661696c6564000000006044820152606401610159565b505050565b806002036103995760408051600481526024810182526020810180517bffffffffffffffffffffffffffffffffffffffffffffffffffffffff167ff37cd2e500000000000000000000000000000000000000000000000000000000179052905160009173ffffffffffffffffffffffffffffffffffffffff85169134916103069161071a565b60006040518083038185875af1925050503d8060008114610343576040519150601f19603f3d011682016040523d82523d6000602084013e610348565b606091505b505090508061027b5760405162461bcd60e51b815260206004820152601c60248201527f43616c6c20746f2072656365697665457468657232206661696c6564000000006044820152606401610159565b806003036104c95760408051607b60248083019190915282518083039091018152604490910182526020810180517bffffffffffffffffffffffffffffffffffffffffffffffffffffffff167f82d5dacd00000000000000000000000000000000000000000000000000000000179052905160009073ffffffffffffffffffffffffffffffffffffffff851690349061043390859061071a565b60006040518083038185875af1925050503d8060008114610470576040519150601f19603f3d011682016040523d82523d6000602084013e610475565b606091505b50509050806104c65760405162461bcd60e51b815260206004820152601c60248201527f43616c6c20746f2072656365697665457468657233206661696c6564000000006044820152606401610159565b50505b5050565b6104d56105e0565b6104df6000610633565b565b6104e96105e0565b804710156105395760405162461bcd60e51b815260206004820152601460248201527f496e73756666696369656e742062616c616e63650000000000000000000000006044820152606401610159565b60405173ffffffffffffffffffffffffffffffffffffffff83169082156108fc029083906000818181858888f1935050505015801561027b573d6000803e3d6000fd5b6105846105e0565b73ffffffffffffffffffffffffffffffffffffffff81166105d4576040517f1e4fbdf700000000000000000000000000000000000000000000000000000000815260006004820152602401610159565b6105dd81610633565b50565b60005473ffffffffffffffffffffffffffffffffffffffff1633146104df576040517f118cdaa7000000000000000000000000000000000000000000000000000000008152336004820152602401610159565b6000805473ffffffffffffffffffffffffffffffffffffffff8381167fffffffffffffffffffffffff0000000000000000000000000000000000000000831681178455604051919092169283917f8be0079c531659141344cd1fd0a4f28419497f9722a3daafe3b4186f6b6457e09190a35050565b73ffffffffffffffffffffffffffffffffffffffff811681146105dd57600080fd5b600080604083850312156106dd57600080fd5b82356106e8816106a8565b946020939093013593505050565b60006020828403121561070857600080fd5b8135610713816106a8565b9392505050565b6000825160005b8181101561073b5760208186018101518583015201610721565b50600092019182525091905056fea2646970667358221220cafdfa547594fd810225b25e87fbebd7adf56889bba4f3b708376b20bc7ae5a264736f6c63430008140033",
  "linkReferences": {},
  "deployedLinkReferences": {}
}