{
  "_format": "hh-sol-artifact-1",
  "contractName": "Overflow",
  "sourceName": "contracts/PracticeGuideDAO/Overflow.sol",
  "abi": [
    {
      "inputs": [],
      "name": "decrement",
      "outputs": [],
      "stateMutability": "nonpayable",
      "type": "function"
    },
    {
      "inputs": [],
      "name": "increment",
      "outputs": [],
      "stateMutability": "nonpayable",
      "type": "function"
    },
    {
      "inputs": [],
      "name": "myUint8",
      "outputs": [
        {
          "internalType": "uint8",
          "name": "",
          "type": "uint8"
        }
      ],
      "stateMutability": "view",
      "type": "function"
    },
    {
      "inputs": [
        {
          "internalType": "uint8",
          "name": "_newVal",
          "type": "uint8"
        }
      ],
      "name": "setMyUint",
      "outputs": [],
      "stateMutability": "nonpayable",
      "type": "function"
    }
  ],
  "bytecode": "0x608060405234801561001057600080fd5b5061014d806100206000396000f3fe608060405234801561001057600080fd5b506004361061004c5760003560e01c80632baeceb714610051578063866515fc1461008b578063d09de08a146100af578063e2a4b2af146100ca575b600080fd5b6000805460ff19811660ff9182167fffffffffffffffffffffffffffffffffffffffffffffffffffffffffffffffff01909116179055005b005b6100896100993660046100ed565b6000805460ff191660ff92909216919091179055565b6100896000805460ff8082166001011660ff19909116179055565b6000546100d79060ff1681565b60405160ff909116815260200160405180910390f35b6000602082840312156100ff57600080fd5b813560ff8116811461011057600080fd5b939250505056fea2646970667358221220de76670a6a0a42be97e8b5332e0508a0bbf159e07fa66df79a4c6c648e6c115b64736f6c63430008140033",
  "linkReferences": {},
  "deployedLinkReferences": {}
}