{
  "_format": "hh-sol-artifact-1",
  "contractName": "BooleanStorage",
  "sourceName": "contracts/practice-junior/BooleanStorage.sol",
  "abi": [
    {
      "inputs": [],
      "name": "get",
      "outputs": [
        {
          "internalType": "bool",
          "name": "",
          "type": "bool"
        }
      ],
      "stateMutability": "view",
      "type": "function"
    },
    {
      "inputs": [
        {
          "internalType": "bool",
          "name": "x",
          "type": "bool"
        }
      ],
      "name": "set",
      "outputs": [],
      "stateMutability": "nonpayable",
      "type": "function"
    },
    {
      "inputs": [],
      "name": "storedBoolean",
      "outputs": [
        {
          "internalType": "bool",
          "name": "",
          "type": "bool"
        }
      ],
      "stateMutability": "view",
      "type": "function"
    }
  ],
  "bytecode": "0x6080604052348015600e575f80fd5b5060fd8061001b5f395ff3fe6080604052348015600e575f80fd5b5060043610603a575f3560e01c80635c7ad84614603e5780635f76f6ab14605d5780636d4ce63c14609a575b5f80fd5b5f5460499060ff1681565b604051901515815260200160405180910390f35b6098606836600460a3565b5f80547fffffffffffffffffffffffffffffffffffffffffffffffffffffffffffffff0016911515919091179055565b005b5f5460ff166049565b5f6020828403121560b2575f80fd5b8135801515811460c0575f80fd5b939250505056fea2646970667358221220fb493b2a7b8dc861fdd2f074092d519747dfb1c900333b944bc67a5819899bd764736f6c634300081a0033",
  "linkReferences": {},
  "deployedLinkReferences": {}
}