{
  "_format": "hh-sol-artifact-1",
  "contractName": "Practicum",
  "sourceName": "contracts/PracticeModule1/Module1Practicum1.sol",
  "abi": [
    {
      "inputs": [],
      "stateMutability": "nonpayable",
      "type": "constructor"
    },
    {
      "inputs": [],
      "name": "Unauthorized",
      "type": "error"
    },
    {
      "anonymous": false,
      "inputs": [
        {
          "indexed": false,
          "internalType": "address",
          "name": "newOwner",
          "type": "address"
        }
      ],
      "name": "OwnerChanged",
      "type": "event"
    },
    {
      "anonymous": false,
      "inputs": [
        {
          "indexed": false,
          "internalType": "uint256",
          "name": "newValue",
          "type": "uint256"
        }
      ],
      "name": "ValueChanged",
      "type": "event"
    },
    {
      "inputs": [
        {
          "internalType": "uint256",
          "name": "_value1",
          "type": "uint256"
        },
        {
          "internalType": "uint256",
          "name": "_value2",
          "type": "uint256"
        },
        {
          "internalType": "uint256",
          "name": "_value3",
          "type": "uint256"
        }
      ],
      "name": "addToFixedArray",
      "outputs": [],
      "stateMutability": "nonpayable",
      "type": "function"
    },
    {
      "inputs": [
        {
          "internalType": "uint256",
          "name": "_value",
          "type": "uint256"
        }
      ],
      "name": "addToFixedArrayAndEmit",
      "outputs": [],
      "stateMutability": "nonpayable",
      "type": "function"
    },
    {
      "inputs": [
        {
          "internalType": "address",
          "name": "",
          "type": "address"
        }
      ],
      "name": "addressToUintMapping",
      "outputs": [
        {
          "internalType": "uint256",
          "name": "",
          "type": "uint256"
        }
      ],
      "stateMutability": "view",
      "type": "function"
    },
    {
      "inputs": [
        {
          "internalType": "uint256",
          "name": "_value",
          "type": "uint256"
        }
      ],
      "name": "assWithArguvents",
      "outputs": [
        {
          "internalType": "uint256",
          "name": "",
          "type": "uint256"
        }
      ],
      "stateMutability": "view",
      "type": "function"
    },
    {
      "inputs": [],
      "name": "boolVariable",
      "outputs": [
        {
          "internalType": "bool",
          "name": "",
          "type": "bool"
        }
      ],
      "stateMutability": "view",
      "type": "function"
    },
    {
      "inputs": [
        {
          "internalType": "address",
          "name": "_newOwner",
          "type": "address"
        }
      ],
      "name": "changeOwner",
      "outputs": [],
      "stateMutability": "nonpayable",
      "type": "function"
    },
    {
      "inputs": [],
      "name": "decrementByConstant",
      "outputs": [],
      "stateMutability": "nonpayable",
      "type": "function"
    },
    {
      "inputs": [
        {
          "internalType": "uint256",
          "name": "index",
          "type": "uint256"
        }
      ],
      "name": "deleteFromFixedArray",
      "outputs": [],
      "stateMutability": "nonpayable",
      "type": "function"
    },
    {
      "inputs": [
        {
          "internalType": "uint256",
          "name": "index",
          "type": "uint256"
        }
      ],
      "name": "deleteFrovDynamicArray",
      "outputs": [],
      "stateMutability": "nonpayable",
      "type": "function"
    },
    {
      "inputs": [
        {
          "internalType": "uint256",
          "name": "",
          "type": "uint256"
        }
      ],
      "name": "dynamicArray",
      "outputs": [
        {
          "internalType": "uint256",
          "name": "",
          "type": "uint256"
        }
      ],
      "stateMutability": "view",
      "type": "function"
    },
    {
      "inputs": [
        {
          "internalType": "uint256",
          "name": "",
          "type": "uint256"
        }
      ],
      "name": "fixedArray",
      "outputs": [
        {
          "internalType": "uint256",
          "name": "",
          "type": "uint256"
        }
      ],
      "stateMutability": "view",
      "type": "function"
    },
    {
      "inputs": [
        {
          "internalType": "uint256",
          "name": "index",
          "type": "uint256"
        }
      ],
      "name": "getArrayValue",
      "outputs": [
        {
          "internalType": "uint256",
          "name": "",
          "type": "uint256"
        }
      ],
      "stateMutability": "view",
      "type": "function"
    },
    {
      "inputs": [],
      "name": "getDynamicArrayLength",
      "outputs": [
        {
          "internalType": "uint256",
          "name": "",
          "type": "uint256"
        }
      ],
      "stateMutability": "view",
      "type": "function"
    },
    {
      "inputs": [],
      "name": "incrementUint",
      "outputs": [],
      "stateMutability": "nonpayable",
      "type": "function"
    },
    {
      "inputs": [],
      "name": "owner",
      "outputs": [
        {
          "internalType": "address",
          "name": "",
          "type": "address"
        }
      ],
      "stateMutability": "view",
      "type": "function"
    },
    {
      "inputs": [],
      "name": "populateArray",
      "outputs": [],
      "stateMutability": "nonpayable",
      "type": "function"
    },
    {
      "inputs": [
        {
          "internalType": "address",
          "name": "_addr",
          "type": "address"
        }
      ],
      "name": "resetMappingAndSetStatus",
      "outputs": [],
      "stateMutability": "nonpayable",
      "type": "function"
    },
    {
      "inputs": [
        {
          "internalType": "address",
          "name": "_addr",
          "type": "address"
        },
        {
          "internalType": "uint256",
          "name": "_value",
          "type": "uint256"
        }
      ],
      "name": "revertOnMappingChange",
      "outputs": [],
      "stateMutability": "nonpayable",
      "type": "function"
    },
    {
      "inputs": [
        {
          "internalType": "uint256",
          "name": "_a",
          "type": "uint256"
        },
        {
          "internalType": "uint256",
          "name": "_b",
          "type": "uint256"
        }
      ],
      "name": "safeAddition",
      "outputs": [
        {
          "internalType": "uint256",
          "name": "",
          "type": "uint256"
        }
      ],
      "stateMutability": "pure",
      "type": "function"
    },
    {
      "inputs": [
        {
          "internalType": "address",
          "name": "_addr",
          "type": "address"
        },
        {
          "internalType": "uint256",
          "name": "_value",
          "type": "uint256"
        }
      ],
      "name": "setMappingValue",
      "outputs": [],
      "stateMutability": "nonpayable",
      "type": "function"
    },
    {
      "inputs": [],
      "name": "status",
      "outputs": [
        {
          "internalType": "enum Practicum.Status",
          "name": "",
          "type": "uint8"
        }
      ],
      "stateMutability": "view",
      "type": "function"
    },
    {
      "inputs": [],
      "name": "stringVariablr",
      "outputs": [
        {
          "internalType": "string",
          "name": "",
          "type": "string"
        }
      ],
      "stateMutability": "view",
      "type": "function"
    },
    {
      "inputs": [
        {
          "internalType": "uint256",
          "name": "_value",
          "type": "uint256"
        }
      ],
      "name": "ternarnyCheck",
      "outputs": [
        {
          "internalType": "uint256",
          "name": "",
          "type": "uint256"
        }
      ],
      "stateMutability": "pure",
      "type": "function"
    },
    {
      "inputs": [],
      "name": "uintVariable",
      "outputs": [
        {
          "internalType": "uint256",
          "name": "",
          "type": "uint256"
        }
      ],
      "stateMutability": "view",
      "type": "function"
    }
  ],
  "bytecode": "0x608060405234801561001057600080fd5b50600280546001600160a01b03191633179055610caa806100326000396000f3fe608060405234801561001057600080fd5b50600436106101985760003560e01c80638da5cb5b116100e3578063adef6ca81161008c578063d7e6b10011610066578063d7e6b100146103fe578063f519960d14610406578063f98c893a1461041957600080fd5b8063adef6ca814610356578063af1b73c21461038b578063d5d6393b146103eb57600080fd5b80639a5009ac116100bd5780639a5009ac1461031d5780639a9bdca714610330578063a6f9dae11461034357600080fd5b80638da5cb5b146102a9578063905496f0146102ee57806393a355601461030a57600080fd5b8063359e1e94116101455780635d1bd9621161011f5780635d1bd9621461026357806374fc41b714610276578063750eaf991461028957600080fd5b8063359e1e94146102355780634acee15c146102485780634f97c5291461025b57600080fd5b8063200d2ed211610176578063200d2ed2146101fc5780632653fa2d14610216578063302c3cfa1461022d57600080fd5b80630e3ccbe11461019d57806314bf43bd146101d657806316e6e3bf146101de575b600080fd5b6101d46101ab366004610a5a565b73ffffffffffffffffffffffffffffffffffffffff909116600090815260066020526040902055565b005b6101d461042c565b6101e6610442565b6040516101f39190610a84565b60405180910390f35b600b546102099060ff1681565b6040516101f39190610af0565b61021f60005481565b6040519081526020016101f3565b600a5461021f565b61021f610243366004610b18565b6104d0565b6101d4610256366004610b3a565b610544565b6101d46105af565b61021f610271366004610b3a565b610605565b61021f610284366004610b3a565b61067e565b61021f610297366004610b53565b60066020526000908152604090205481565b6002546102c99073ffffffffffffffffffffffffffffffffffffffff1681565b60405173ffffffffffffffffffffffffffffffffffffffff90911681526020016101f3565b6101d46102fc366004610b6e565b600792909255600855600955565b6101d4610318366004610b3a565b610693565b61021f61032b366004610b3a565b6106ce565b61021f61033e366004610b3a565b6106e5565b6101d4610351366004610b53565b610706565b60035461037b9074010000000000000000000000000000000000000000900460ff1681565b60405190151581526020016101f3565b6101d4610399366004610b53565b73ffffffffffffffffffffffffffffffffffffffff16600090815260066020526040812055600b80547fffffffffffffffffffffffffffffffffffffffffffffffffffffffffffffff00166001179055565b6101d46103f9366004610b3a565b61084b565b6101d4610938565b61021f610414366004610b3a565b6109a5565b6101d4610427366004610a5a565b6109be565b60008054908061043b83610bb0565b9190505550565b6004805461044f90610be8565b80601f016020809104026020016040519081016040528092919081815260200182805461047b90610be8565b80156104c85780601f1061049d576101008083540402835291602001916104c8565b820191906000526020600020905b8154815290600101906020018083116104ab57829003601f168201915b505050505081565b6000600a6104de8385610c22565b10156105315760405162461bcd60e51b815260206004820152601a60248201527f526573756c74206d757374206265206174206c6561737420313000000000000060448201526064015b60405180910390fd5b61053b8284610c22565b90505b92915050565b600381106105945760405162461bcd60e51b815260206004820152601360248201527f496e646578206f7574206f6620626f756e6473000000000000000000000000006044820152606401610528565b600781600381106105a7576105a7610c35565b016000905550565b60005b600a81101561060257600a80546001810182556000919091527fc65a7bb8d6351c1cf70c95a316cc6a92839c986682d98bc35f958f4883f9d2a801819055806105fa81610bb0565b9150506105b2565b50565b600a5460009082106106595760405162461bcd60e51b815260206004820152601360248201527f496e646578206f7574206f6620626f756e6473000000000000000000000000006044820152606401610528565b600a828154811061066c5761066c610c35565b90600052602060002001549050919050565b6000600a821161068f57600a61053e565b5090565b60098190556040518181527f93fe6d397c74fdf1402a8b72e47b68512f0510d7b98a4bc4cbdf6ac7108b3c599060200160405180910390a150565b600781600381106106de57600080fd5b0154905081565b600a81815481106106f557600080fd5b600091825260209091200154905081565b60025473ffffffffffffffffffffffffffffffffffffffff16331461076d5760405162461bcd60e51b815260206004820152600d60248201527f4e6f7420746865206f776e6572000000000000000000000000000000000000006044820152606401610528565b8073ffffffffffffffffffffffffffffffffffffffff81166107d15760405162461bcd60e51b815260206004820152600c60248201527f5a65726f206164647265737300000000000000000000000000000000000000006044820152606401610528565b600280547fffffffffffffffffffffffff00000000000000000000000000000000000000001673ffffffffffffffffffffffffffffffffffffffff84169081179091556040519081527fa2ea9883a321a3e97b8266c2b078bfeec6d50c711ed71f874a90d500ae2eaf369060200160405180910390a15050565b600a54811061089c5760405162461bcd60e51b815260206004820152601360248201527f496e646578206f7574206f6620626f756e6473000000000000000000000000006044820152606401610528565b805b600a546108ad90600190610c4b565b81101561090d57600a6108c1826001610c22565b815481106108d1576108d1610c35565b9060005260206000200154600a82815481106108ef576108ef610c35565b6000918252602090912001558061090581610bb0565b91505061089e565b50600a80548061091f5761091f610c5e565b6001900381819060005260206000200160009055905550565b6064600154111561098b5760405162461bcd60e51b815260206004820152600e60248201527f556e646572666c6f77207269736b0000000000000000000000000000000000006044820152606401610528565b60646001600082825461099e9190610c4b565b9091555050565b600080546109b4606484610c22565b61053e9190610c22565b73ffffffffffffffffffffffffffffffffffffffff8216600090815260066020526040902054156101ab5760405162461bcd60e51b815260206004820152601b60248201527f43616e6e6f74206368616e6765206d617070696e672076616c756500000000006044820152606401610528565b803573ffffffffffffffffffffffffffffffffffffffff81168114610a5557600080fd5b919050565b60008060408385031215610a6d57600080fd5b610a7683610a31565b946020939093013593505050565b600060208083528351808285015260005b81811015610ab157858101830151858201604001528201610a95565b5060006040828601015260407fffffffffffffffffffffffffffffffffffffffffffffffffffffffffffffffe0601f8301168501019250505092915050565b6020810160038310610b1257634e487b7160e01b600052602160045260246000fd5b91905290565b60008060408385031215610b2b57600080fd5b50508035926020909101359150565b600060208284031215610b4c57600080fd5b5035919050565b600060208284031215610b6557600080fd5b61053b82610a31565b600080600060608486031215610b8357600080fd5b505081359360208301359350604090920135919050565b634e487b7160e01b600052601160045260246000fd5b60007fffffffffffffffffffffffffffffffffffffffffffffffffffffffffffffffff8203610be157610be1610b9a565b5060010190565b600181811c90821680610bfc57607f821691505b602082108103610c1c57634e487b7160e01b600052602260045260246000fd5b50919050565b8082018082111561053e5761053e610b9a565b634e487b7160e01b600052603260045260246000fd5b8181038181111561053e5761053e610b9a565b634e487b7160e01b600052603160045260246000fdfea2646970667358221220421b46820f1203062ad629c066c6ad029584a7eb84e12cd849f740be3100e2fa64736f6c63430008140033",
  "linkReferences": {},
  "deployedLinkReferences": {}
}