{
  "_format": "hh-sol-artifact-1",
  "contractName": "Cycles",
  "sourceName": "contracts/practice-module-1/LessonCycles.sol",
  "abi": [
    {
      "inputs": [],
      "name": "i",
      "outputs": [
        {
          "internalType": "uint256",
          "name": "",
          "type": "uint256"
        }
      ],
      "stateMutability": "view",
      "type": "function"
    },
    {
      "inputs": [],
      "name": "setNumber",
      "outputs": [],
      "stateMutability": "pure",
      "type": "function"
    }
  ],
  "bytecode": "0x6080604052348015600e575f80fd5b506101238061001c5f395ff3fe6080604052348015600e575f80fd5b50600436106030575f3560e01c80634154b243146034578063e5aa3d5814603c575b5f80fd5b603a6055565b005b60435f5481565b60405190815260200160405180910390f35b5f5b600a81101560755760038114606e57600581146075575b6001016057565b505f5b600a811015608f57806088816092565b9150506078565b50565b5f7fffffffffffffffffffffffffffffffffffffffffffffffffffffffffffffffff820360e6577f4e487b71000000000000000000000000000000000000000000000000000000005f52601160045260245ffd5b506001019056fea2646970667358221220cbb98c41ea11abec19d95940853912a271feb4e404c175d5d28d1c7a0242738b64736f6c634300081a0033",
  "linkReferences": {},
  "deployedLinkReferences": {}
}