{
	"data": {
		"bytecode": {
			"linkReferences": {},
			"object": "608060405234801562000010575f80fd5b5060405162000e5c38038062000e5c833981810160405281019062000036919062000215565b81805f819055505080600190816200004f9190620004a7565b5050506200058b565b5f604051905090565b5f80fd5b5f80fd5b5f819050919050565b6200007d8162000069565b811462000088575f80fd5b50565b5f815190506200009b8162000072565b92915050565b5f80fd5b5f80fd5b5f601f19601f8301169050919050565b7f4e487b71000000000000000000000000000000000000000000000000000000005f52604160045260245ffd5b620000f182620000a9565b810181811067ffffffffffffffff82111715620001135762000112620000b9565b5b80604052505050565b5f6200012762000058565b9050620001358282620000e6565b919050565b5f67ffffffffffffffff821115620001575762000156620000b9565b5b6200016282620000a9565b9050602081019050919050565b5f5b838110156200018e57808201518184015260208101905062000171565b5f8484015250505050565b5f620001af620001a9846200013a565b6200011c565b905082815260208101848484011115620001ce57620001cd620000a5565b5b620001db8482856200016f565b509392505050565b5f82601f830112620001fa57620001f9620000a1565b5b81516200020c84826020860162000199565b91505092915050565b5f80604083850312156200022e576200022d62000061565b5b5f6200023d858286016200008b565b925050602083015167ffffffffffffffff81111562000261576200026062000065565b5b6200026f85828601620001e3565b9150509250929050565b5f81519050919050565b7f4e487b71000000000000000000000000000000000000000000000000000000005f52602260045260245ffd5b5f6002820490506001821680620002c857607f821691505b602082108103620002de57620002dd62000283565b5b50919050565b5f819050815f5260205f209050919050565b5f6020601f8301049050919050565b5f82821b905092915050565b5f60088302620003427fffffffffffffffffffffffffffffffffffffffffffffffffffffffffffffffff8262000305565b6200034e868362000305565b95508019841693508086168417925050509392505050565b5f819050919050565b5f6200038f62000389620003838462000069565b62000366565b62000069565b9050919050565b5f819050919050565b620003aa836200036f565b620003c2620003b98262000396565b84845462000311565b825550505050565b5f90565b620003d8620003ca565b620003e58184846200039f565b505050565b5b818110156200040c57620004005f82620003ce565b600181019050620003eb565b5050565b601f8211156200045b576200042581620002e4565b6200043084620002f6565b8101602085101562000440578190505b620004586200044f85620002f6565b830182620003ea565b50505b505050565b5f82821c905092915050565b5f6200047d5f198460080262000460565b1980831691505092915050565b5f6200049783836200046c565b9150826002028217905092915050565b620004b28262000279565b67ffffffffffffffff811115620004ce57620004cd620000b9565b5b620004da8254620002b0565b620004e782828562000410565b5f60209050601f8311600181146200051d575f841562000508578287015190505b6200051485826200048a565b86555062000583565b601f1984166200052d86620002e4565b5f5b8281101562000556578489015182556001820191506020850194506020810190506200052f565b8683101562000576578489015162000572601f8916826200046c565b8355505b6001600288020188555050505b505050505050565b6108c380620005995f395ff3fe608060405234801561000f575f80fd5b5060043610610060575f3560e01c80631f1bd6921461006457806320965255146100825780633fa4f245146100a057806355241077146100be5780635d3a1f9d146100da578063e00fe2eb146100f6575b5f80fd5b61006c610114565b6040516100799190610332565b60405180910390f35b61008a6101a0565b604051610097919061036a565b60405180910390f35b6100a86101a8565b6040516100b5919061036a565b60405180910390f35b6100d860048036038101906100d391906103be565b6101ad565b005b6100f460048036038101906100ef9190610515565b6101fc565b005b6100fe61020f565b60405161010b9190610332565b60405180910390f35b6001805461012190610589565b80601f016020809104026020016040519081016040528092919081815260200182805461014d90610589565b80156101985780601f1061016f57610100808354040283529160200191610198565b820191905f5260205f20905b81548152906001019060200180831161017b57829003601f168201915b505050505081565b5f8054905090565b5f5481565b600a81116101f0576040517f08c379a00000000000000000000000000000000000000000000000000000000081526004016101e790610603565b60405180910390fd5b6101f98161029f565b50565b806001908161020b91906107be565b5050565b60606001805461021e90610589565b80601f016020809104026020016040519081016040528092919081815260200182805461024a90610589565b80156102955780601f1061026c57610100808354040283529160200191610295565b820191905f5260205f20905b81548152906001019060200180831161027857829003601f168201915b5050505050905090565b805f8190555050565b5f81519050919050565b5f82825260208201905092915050565b5f5b838110156102df5780820151818401526020810190506102c4565b5f8484015250505050565b5f601f19601f8301169050919050565b5f610304826102a8565b61030e81856102b2565b935061031e8185602086016102c2565b610327816102ea565b840191505092915050565b5f6020820190508181035f83015261034a81846102fa565b905092915050565b5f819050919050565b61036481610352565b82525050565b5f60208201905061037d5f83018461035b565b92915050565b5f604051905090565b5f80fd5b5f80fd5b61039d81610352565b81146103a7575f80fd5b50565b5f813590506103b881610394565b92915050565b5f602082840312156103d3576103d261038c565b5b5f6103e0848285016103aa565b91505092915050565b5f80fd5b5f80fd5b7f4e487b71000000000000000000000000000000000000000000000000000000005f52604160045260245ffd5b610427826102ea565b810181811067ffffffffffffffff82111715610446576104456103f1565b5b80604052505050565b5f610458610383565b9050610464828261041e565b919050565b5f67ffffffffffffffff821115610483576104826103f1565b5b61048c826102ea565b9050602081019050919050565b828183375f83830152505050565b5f6104b96104b484610469565b61044f565b9050828152602081018484840111156104d5576104d46103ed565b5b6104e0848285610499565b509392505050565b5f82601f8301126104fc576104fb6103e9565b5b813561050c8482602086016104a7565b91505092915050565b5f6020828403121561052a5761052961038c565b5b5f82013567ffffffffffffffff81111561054757610546610390565b5b610553848285016104e8565b91505092915050565b7f4e487b71000000000000000000000000000000000000000000000000000000005f52602260045260245ffd5b5f60028204905060018216806105a057607f821691505b6020821081036105b3576105b261055c565b5b50919050565b7f56616c7565206d7573742062652067726561746572207468616e2031300000005f82015250565b5f6105ed601d836102b2565b91506105f8826105b9565b602082019050919050565b5f6020820190508181035f83015261061a816105e1565b9050919050565b5f819050815f5260205f209050919050565b5f6020601f8301049050919050565b5f82821b905092915050565b5f6008830261067d7fffffffffffffffffffffffffffffffffffffffffffffffffffffffffffffffff82610642565b6106878683610642565b95508019841693508086168417925050509392505050565b5f819050919050565b5f6106c26106bd6106b884610352565b61069f565b610352565b9050919050565b5f819050919050565b6106db836106a8565b6106ef6106e7826106c9565b84845461064e565b825550505050565b5f90565b6107036106f7565b61070e8184846106d2565b505050565b5b81811015610731576107265f826106fb565b600181019050610714565b5050565b601f8211156107765761074781610621565b61075084610633565b8101602085101561075f578190505b61077361076b85610633565b830182610713565b50505b505050565b5f82821c905092915050565b5f6107965f198460080261077b565b1980831691505092915050565b5f6107ae8383610787565b9150826002028217905092915050565b6107c7826102a8565b67ffffffffffffffff8111156107e0576107df6103f1565b5b6107ea8254610589565b6107f5828285610735565b5f60209050601f831160018114610826575f8415610814578287015190505b61081e85826107a3565b865550610885565b601f19841661083486610621565b5f5b8281101561085b57848901518255600182019150602085019450602081019050610836565b868310156108785784890151610874601f891682610787565b8355505b6001600288020188555050505b50505050505056fea26469706673582212208f245e5d2bf722882bc53edb1b5ed35863038e0aedccbff102364fe7130c32a964736f6c63430008160033",
			"opcodes": "PUSH1 0x80 PUSH1 0x40 MSTORE CALLVALUE DUP1 ISZERO PUSH3 0x10 JUMPI PUSH0 DUP1 REVERT JUMPDEST POP PUSH1 0x40 MLOAD PUSH3 0xE5C CODESIZE SUB DUP1 PUSH3 0xE5C DUP4 CODECOPY DUP2 DUP2 ADD PUSH1 0x40 MSTORE DUP2 ADD SWAP1 PUSH3 0x36 SWAP2 SWAP1 PUSH3 0x215 JUMP JUMPDEST DUP2 DUP1 PUSH0 DUP2 SWAP1 SSTORE POP POP DUP1 PUSH1 0x1 SWAP1 DUP2 PUSH3 0x4F SWAP2 SWAP1 PUSH3 0x4A7 JUMP JUMPDEST POP POP POP PUSH3 0x58B JUMP JUMPDEST PUSH0 PUSH1 0x40 MLOAD SWAP1 POP SWAP1 JUMP JUMPDEST PUSH0 DUP1 REVERT JUMPDEST PUSH0 DUP1 REVERT JUMPDEST PUSH0 DUP2 SWAP1 POP SWAP2 SWAP1 POP JUMP JUMPDEST PUSH3 0x7D DUP2 PUSH3 0x69 JUMP JUMPDEST DUP2 EQ PUSH3 0x88 JUMPI PUSH0 DUP1 REVERT JUMPDEST POP JUMP JUMPDEST PUSH0 DUP2 MLOAD SWAP1 POP PUSH3 0x9B DUP2 PUSH3 0x72 JUMP JUMPDEST SWAP3 SWAP2 POP POP JUMP JUMPDEST PUSH0 DUP1 REVERT JUMPDEST PUSH0 DUP1 REVERT JUMPDEST PUSH0 PUSH1 0x1F NOT PUSH1 0x1F DUP4 ADD AND SWAP1 POP SWAP2 SWAP1 POP JUMP JUMPDEST PUSH32 0x4E487B7100000000000000000000000000000000000000000000000000000000 PUSH0 MSTORE PUSH1 0x41 PUSH1 0x4 MSTORE PUSH1 0x24 PUSH0 REVERT JUMPDEST PUSH3 0xF1 DUP3 PUSH3 0xA9 JUMP JUMPDEST DUP2 ADD DUP2 DUP2 LT PUSH8 0xFFFFFFFFFFFFFFFF DUP3 GT OR ISZERO PUSH3 0x113 JUMPI PUSH3 0x112 PUSH3 0xB9 JUMP JUMPDEST JUMPDEST DUP1 PUSH1 0x40 MSTORE POP POP POP JUMP JUMPDEST PUSH0 PUSH3 0x127 PUSH3 0x58 JUMP JUMPDEST SWAP1 POP PUSH3 0x135 DUP3 DUP3 PUSH3 0xE6 JUMP JUMPDEST SWAP2 SWAP1 POP JUMP JUMPDEST PUSH0 PUSH8 0xFFFFFFFFFFFFFFFF DUP3 GT ISZERO PUSH3 0x157 JUMPI PUSH3 0x156 PUSH3 0xB9 JUMP JUMPDEST JUMPDEST PUSH3 0x162 DUP3 PUSH3 0xA9 JUMP JUMPDEST SWAP1 POP PUSH1 0x20 DUP2 ADD SWAP1 POP SWAP2 SWAP1 POP JUMP JUMPDEST PUSH0 JUMPDEST DUP4 DUP2 LT ISZERO PUSH3 0x18E JUMPI DUP1 DUP3 ADD MLOAD DUP2 DUP5 ADD MSTORE PUSH1 0x20 DUP2 ADD SWAP1 POP PUSH3 0x171 JUMP JUMPDEST PUSH0 DUP5 DUP5 ADD MSTORE POP POP POP POP JUMP JUMPDEST PUSH0 PUSH3 0x1AF PUSH3 0x1A9 DUP5 PUSH3 0x13A JUMP JUMPDEST PUSH3 0x11C JUMP JUMPDEST SWAP1 POP DUP3 DUP2 MSTORE PUSH1 0x20 DUP2 ADD DUP5 DUP5 DUP5 ADD GT ISZERO PUSH3 0x1CE JUMPI PUSH3 0x1CD PUSH3 0xA5 JUMP JUMPDEST JUMPDEST PUSH3 0x1DB DUP5 DUP3 DUP6 PUSH3 0x16F JUMP JUMPDEST POP SWAP4 SWAP3 POP POP POP JUMP JUMPDEST PUSH0 DUP3 PUSH1 0x1F DUP4 ADD SLT PUSH3 0x1FA JUMPI PUSH3 0x1F9 PUSH3 0xA1 JUMP JUMPDEST JUMPDEST DUP2 MLOAD PUSH3 0x20C DUP5 DUP3 PUSH1 0x20 DUP7 ADD PUSH3 0x199 JUMP JUMPDEST SWAP2 POP POP SWAP3 SWAP2 POP POP JUMP JUMPDEST PUSH0 DUP1 PUSH1 0x40 DUP4 DUP6 SUB SLT ISZERO PUSH3 0x22E JUMPI PUSH3 0x22D PUSH3 0x61 JUMP JUMPDEST JUMPDEST PUSH0 PUSH3 0x23D DUP6 DUP3 DUP7 ADD PUSH3 0x8B JUMP JUMPDEST SWAP3 POP POP PUSH1 0x20 DUP4 ADD MLOAD PUSH8 0xFFFFFFFFFFFFFFFF DUP2 GT ISZERO PUSH3 0x261 JUMPI PUSH3 0x260 PUSH3 0x65 JUMP JUMPDEST JUMPDEST PUSH3 0x26F DUP6 DUP3 DUP7 ADD PUSH3 0x1E3 JUMP JUMPDEST SWAP2 POP POP SWAP3 POP SWAP3 SWAP1 POP JUMP JUMPDEST PUSH0 DUP2 MLOAD SWAP1 POP SWAP2 SWAP1 POP JUMP JUMPDEST PUSH32 0x4E487B7100000000000000000000000000000000000000000000000000000000 PUSH0 MSTORE PUSH1 0x22 PUSH1 0x4 MSTORE PUSH1 0x24 PUSH0 REVERT JUMPDEST PUSH0 PUSH1 0x2 DUP3 DIV SWAP1 POP PUSH1 0x1 DUP3 AND DUP1 PUSH3 0x2C8 JUMPI PUSH1 0x7F DUP3 AND SWAP2 POP JUMPDEST PUSH1 0x20 DUP3 LT DUP2 SUB PUSH3 0x2DE JUMPI PUSH3 0x2DD PUSH3 0x283 JUMP JUMPDEST JUMPDEST POP SWAP2 SWAP1 POP JUMP JUMPDEST PUSH0 DUP2 SWAP1 POP DUP2 PUSH0 MSTORE PUSH1 0x20 PUSH0 KECCAK256 SWAP1 POP SWAP2 SWAP1 POP JUMP JUMPDEST PUSH0 PUSH1 0x20 PUSH1 0x1F DUP4 ADD DIV SWAP1 POP SWAP2 SWAP1 POP JUMP JUMPDEST PUSH0 DUP3 DUP3 SHL SWAP1 POP SWAP3 SWAP2 POP POP JUMP JUMPDEST PUSH0 PUSH1 0x8 DUP4 MUL PUSH3 0x342 PUSH32 0xFFFFFFFFFFFFFFFFFFFFFFFFFFFFFFFFFFFFFFFFFFFFFFFFFFFFFFFFFFFFFFFF DUP3 PUSH3 0x305 JUMP JUMPDEST PUSH3 0x34E DUP7 DUP4 PUSH3 0x305 JUMP JUMPDEST SWAP6 POP DUP1 NOT DUP5 AND SWAP4 POP DUP1 DUP7 AND DUP5 OR SWAP3 POP POP POP SWAP4 SWAP3 POP POP POP JUMP JUMPDEST PUSH0 DUP2 SWAP1 POP SWAP2 SWAP1 POP JUMP JUMPDEST PUSH0 PUSH3 0x38F PUSH3 0x389 PUSH3 0x383 DUP5 PUSH3 0x69 JUMP JUMPDEST PUSH3 0x366 JUMP JUMPDEST PUSH3 0x69 JUMP JUMPDEST SWAP1 POP SWAP2 SWAP1 POP JUMP JUMPDEST PUSH0 DUP2 SWAP1 POP SWAP2 SWAP1 POP JUMP JUMPDEST PUSH3 0x3AA DUP4 PUSH3 0x36F JUMP JUMPDEST PUSH3 0x3C2 PUSH3 0x3B9 DUP3 PUSH3 0x396 JUMP JUMPDEST DUP5 DUP5 SLOAD PUSH3 0x311 JUMP JUMPDEST DUP3 SSTORE POP POP POP POP JUMP JUMPDEST PUSH0 SWAP1 JUMP JUMPDEST PUSH3 0x3D8 PUSH3 0x3CA JUMP JUMPDEST PUSH3 0x3E5 DUP2 DUP5 DUP5 PUSH3 0x39F JUMP JUMPDEST POP POP POP JUMP JUMPDEST JUMPDEST DUP2 DUP2 LT ISZERO PUSH3 0x40C JUMPI PUSH3 0x400 PUSH0 DUP3 PUSH3 0x3CE JUMP JUMPDEST PUSH1 0x1 DUP2 ADD SWAP1 POP PUSH3 0x3EB JUMP JUMPDEST POP POP JUMP JUMPDEST PUSH1 0x1F DUP3 GT ISZERO PUSH3 0x45B JUMPI PUSH3 0x425 DUP2 PUSH3 0x2E4 JUMP JUMPDEST PUSH3 0x430 DUP5 PUSH3 0x2F6 JUMP JUMPDEST DUP2 ADD PUSH1 0x20 DUP6 LT ISZERO PUSH3 0x440 JUMPI DUP2 SWAP1 POP JUMPDEST PUSH3 0x458 PUSH3 0x44F DUP6 PUSH3 0x2F6 JUMP JUMPDEST DUP4 ADD DUP3 PUSH3 0x3EA JUMP JUMPDEST POP POP JUMPDEST POP POP POP JUMP JUMPDEST PUSH0 DUP3 DUP3 SHR SWAP1 POP SWAP3 SWAP2 POP POP JUMP JUMPDEST PUSH0 PUSH3 0x47D PUSH0 NOT DUP5 PUSH1 0x8 MUL PUSH3 0x460 JUMP JUMPDEST NOT DUP1 DUP4 AND SWAP2 POP POP SWAP3 SWAP2 POP POP JUMP JUMPDEST PUSH0 PUSH3 0x497 DUP4 DUP4 PUSH3 0x46C JUMP JUMPDEST SWAP2 POP DUP3 PUSH1 0x2 MUL DUP3 OR SWAP1 POP SWAP3 SWAP2 POP POP JUMP JUMPDEST PUSH3 0x4B2 DUP3 PUSH3 0x279 JUMP JUMPDEST PUSH8 0xFFFFFFFFFFFFFFFF DUP2 GT ISZERO PUSH3 0x4CE JUMPI PUSH3 0x4CD PUSH3 0xB9 JUMP JUMPDEST JUMPDEST PUSH3 0x4DA DUP3 SLOAD PUSH3 0x2B0 JUMP JUMPDEST PUSH3 0x4E7 DUP3 DUP3 DUP6 PUSH3 0x410 JUMP JUMPDEST PUSH0 PUSH1 0x20 SWAP1 POP PUSH1 0x1F DUP4 GT PUSH1 0x1 DUP2 EQ PUSH3 0x51D JUMPI PUSH0 DUP5 ISZERO PUSH3 0x508 JUMPI DUP3 DUP8 ADD MLOAD SWAP1 POP JUMPDEST PUSH3 0x514 DUP6 DUP3 PUSH3 0x48A JUMP JUMPDEST DUP7 SSTORE POP PUSH3 0x583 JUMP JUMPDEST PUSH1 0x1F NOT DUP5 AND PUSH3 0x52D DUP7 PUSH3 0x2E4 JUMP JUMPDEST PUSH0 JUMPDEST DUP3 DUP2 LT ISZERO PUSH3 0x556 JUMPI DUP5 DUP10 ADD MLOAD DUP3 SSTORE PUSH1 0x1 DUP3 ADD SWAP2 POP PUSH1 0x20 DUP6 ADD SWAP5 POP PUSH1 0x20 DUP2 ADD SWAP1 POP PUSH3 0x52F JUMP JUMPDEST DUP7 DUP4 LT ISZERO PUSH3 0x576 JUMPI DUP5 DUP10 ADD MLOAD PUSH3 0x572 PUSH1 0x1F DUP10 AND DUP3 PUSH3 0x46C JUMP JUMPDEST DUP4 SSTORE POP JUMPDEST PUSH1 0x1 PUSH1 0x2 DUP9 MUL ADD DUP9 SSTORE POP POP POP JUMPDEST POP POP POP POP POP POP JUMP JUMPDEST PUSH2 0x8C3 DUP1 PUSH3 0x599 PUSH0 CODECOPY PUSH0 RETURN INVALID PUSH1 0x80 PUSH1 0x40 MSTORE CALLVALUE DUP1 ISZERO PUSH2 0xF JUMPI PUSH0 DUP1 REVERT JUMPDEST POP PUSH1 0x4 CALLDATASIZE LT PUSH2 0x60 JUMPI PUSH0 CALLDATALOAD PUSH1 0xE0 SHR DUP1 PUSH4 0x1F1BD692 EQ PUSH2 0x64 JUMPI DUP1 PUSH4 0x20965255 EQ PUSH2 0x82 JUMPI DUP1 PUSH4 0x3FA4F245 EQ PUSH2 0xA0 JUMPI DUP1 PUSH4 0x55241077 EQ PUSH2 0xBE JUMPI DUP1 PUSH4 0x5D3A1F9D EQ PUSH2 0xDA JUMPI DUP1 PUSH4 0xE00FE2EB EQ PUSH2 0xF6 JUMPI JUMPDEST PUSH0 DUP1 REVERT JUMPDEST PUSH2 0x6C PUSH2 0x114 JUMP JUMPDEST PUSH1 0x40 MLOAD PUSH2 0x79 SWAP2 SWAP1 PUSH2 0x332 JUMP JUMPDEST PUSH1 0x40 MLOAD DUP1 SWAP2 SUB SWAP1 RETURN JUMPDEST PUSH2 0x8A PUSH2 0x1A0 JUMP JUMPDEST PUSH1 0x40 MLOAD PUSH2 0x97 SWAP2 SWAP1 PUSH2 0x36A JUMP JUMPDEST PUSH1 0x40 MLOAD DUP1 SWAP2 SUB SWAP1 RETURN JUMPDEST PUSH2 0xA8 PUSH2 0x1A8 JUMP JUMPDEST PUSH1 0x40 MLOAD PUSH2 0xB5 SWAP2 SWAP1 PUSH2 0x36A JUMP JUMPDEST PUSH1 0x40 MLOAD DUP1 SWAP2 SUB SWAP1 RETURN JUMPDEST PUSH2 0xD8 PUSH1 0x4 DUP1 CALLDATASIZE SUB DUP2 ADD SWAP1 PUSH2 0xD3 SWAP2 SWAP1 PUSH2 0x3BE JUMP JUMPDEST PUSH2 0x1AD JUMP JUMPDEST STOP JUMPDEST PUSH2 0xF4 PUSH1 0x4 DUP1 CALLDATASIZE SUB DUP2 ADD SWAP1 PUSH2 0xEF SWAP2 SWAP1 PUSH2 0x515 JUMP JUMPDEST PUSH2 0x1FC JUMP JUMPDEST STOP JUMPDEST PUSH2 0xFE PUSH2 0x20F JUMP JUMPDEST PUSH1 0x40 MLOAD PUSH2 0x10B SWAP2 SWAP1 PUSH2 0x332 JUMP JUMPDEST PUSH1 0x40 MLOAD DUP1 SWAP2 SUB SWAP1 RETURN JUMPDEST PUSH1 0x1 DUP1 SLOAD PUSH2 0x121 SWAP1 PUSH2 0x589 JUMP JUMPDEST DUP1 PUSH1 0x1F ADD PUSH1 0x20 DUP1 SWAP2 DIV MUL PUSH1 0x20 ADD PUSH1 0x40 MLOAD SWAP1 DUP2 ADD PUSH1 0x40 MSTORE DUP1 SWAP3 SWAP2 SWAP1 DUP2 DUP2 MSTORE PUSH1 0x20 ADD DUP3 DUP1 SLOAD PUSH2 0x14D SWAP1 PUSH2 0x589 JUMP JUMPDEST DUP1 ISZERO PUSH2 0x198 JUMPI DUP1 PUSH1 0x1F LT PUSH2 0x16F JUMPI PUSH2 0x100 DUP1 DUP4 SLOAD DIV MUL DUP4 MSTORE SWAP2 PUSH1 0x20 ADD SWAP2 PUSH2 0x198 JUMP JUMPDEST DUP3 ADD SWAP2 SWAP1 PUSH0 MSTORE PUSH1 0x20 PUSH0 KECCAK256 SWAP1 JUMPDEST DUP2 SLOAD DUP2 MSTORE SWAP1 PUSH1 0x1 ADD SWAP1 PUSH1 0x20 ADD DUP1 DUP4 GT PUSH2 0x17B JUMPI DUP3 SWAP1 SUB PUSH1 0x1F AND DUP3 ADD SWAP2 JUMPDEST POP POP POP POP POP DUP2 JUMP JUMPDEST PUSH0 DUP1 SLOAD SWAP1 POP SWAP1 JUMP JUMPDEST PUSH0 SLOAD DUP2 JUMP JUMPDEST PUSH1 0xA DUP2 GT PUSH2 0x1F0 JUMPI PUSH1 0x40 MLOAD PUSH32 0x8C379A000000000000000000000000000000000000000000000000000000000 DUP2 MSTORE PUSH1 0x4 ADD PUSH2 0x1E7 SWAP1 PUSH2 0x603 JUMP JUMPDEST PUSH1 0x40 MLOAD DUP1 SWAP2 SUB SWAP1 REVERT JUMPDEST PUSH2 0x1F9 DUP2 PUSH2 0x29F JUMP JUMPDEST POP JUMP JUMPDEST DUP1 PUSH1 0x1 SWAP1 DUP2 PUSH2 0x20B SWAP2 SWAP1 PUSH2 0x7BE JUMP JUMPDEST POP POP JUMP JUMPDEST PUSH1 0x60 PUSH1 0x1 DUP1 SLOAD PUSH2 0x21E SWAP1 PUSH2 0x589 JUMP JUMPDEST DUP1 PUSH1 0x1F ADD PUSH1 0x20 DUP1 SWAP2 DIV MUL PUSH1 0x20 ADD PUSH1 0x40 MLOAD SWAP1 DUP2 ADD PUSH1 0x40 MSTORE DUP1 SWAP3 SWAP2 SWAP1 DUP2 DUP2 MSTORE PUSH1 0x20 ADD DUP3 DUP1 SLOAD PUSH2 0x24A SWAP1 PUSH2 0x589 JUMP JUMPDEST DUP1 ISZERO PUSH2 0x295 JUMPI DUP1 PUSH1 0x1F LT PUSH2 0x26C JUMPI PUSH2 0x100 DUP1 DUP4 SLOAD DIV MUL DUP4 MSTORE SWAP2 PUSH1 0x20 ADD SWAP2 PUSH2 0x295 JUMP JUMPDEST DUP3 ADD SWAP2 SWAP1 PUSH0 MSTORE PUSH1 0x20 PUSH0 KECCAK256 SWAP1 JUMPDEST DUP2 SLOAD DUP2 MSTORE SWAP1 PUSH1 0x1 ADD SWAP1 PUSH1 0x20 ADD DUP1 DUP4 GT PUSH2 0x278 JUMPI DUP3 SWAP1 SUB PUSH1 0x1F AND DUP3 ADD SWAP2 JUMPDEST POP POP POP POP POP SWAP1 POP SWAP1 JUMP JUMPDEST DUP1 PUSH0 DUP2 SWAP1 SSTORE POP POP JUMP JUMPDEST PUSH0 DUP2 MLOAD SWAP1 POP SWAP2 SWAP1 POP JUMP JUMPDEST PUSH0 DUP3 DUP3 MSTORE PUSH1 0x20 DUP3 ADD SWAP1 POP SWAP3 SWAP2 POP POP JUMP JUMPDEST PUSH0 JUMPDEST DUP4 DUP2 LT ISZERO PUSH2 0x2DF JUMPI DUP1 DUP3 ADD MLOAD DUP2 DUP5 ADD MSTORE PUSH1 0x20 DUP2 ADD SWAP1 POP PUSH2 0x2C4 JUMP JUMPDEST PUSH0 DUP5 DUP5 ADD MSTORE POP POP POP POP JUMP JUMPDEST PUSH0 PUSH1 0x1F NOT PUSH1 0x1F DUP4 ADD AND SWAP1 POP SWAP2 SWAP1 POP JUMP JUMPDEST PUSH0 PUSH2 0x304 DUP3 PUSH2 0x2A8 JUMP JUMPDEST PUSH2 0x30E DUP2 DUP6 PUSH2 0x2B2 JUMP JUMPDEST SWAP4 POP PUSH2 0x31E DUP2 DUP6 PUSH1 0x20 DUP7 ADD PUSH2 0x2C2 JUMP JUMPDEST PUSH2 0x327 DUP2 PUSH2 0x2EA JUMP JUMPDEST DUP5 ADD SWAP2 POP POP SWAP3 SWAP2 POP POP JUMP JUMPDEST PUSH0 PUSH1 0x20 DUP3 ADD SWAP1 POP DUP2 DUP2 SUB PUSH0 DUP4 ADD MSTORE PUSH2 0x34A DUP2 DUP5 PUSH2 0x2FA JUMP JUMPDEST SWAP1 POP SWAP3 SWAP2 POP POP JUMP JUMPDEST PUSH0 DUP2 SWAP1 POP SWAP2 SWAP1 POP JUMP JUMPDEST PUSH2 0x364 DUP2 PUSH2 0x352 JUMP JUMPDEST DUP3 MSTORE POP POP JUMP JUMPDEST PUSH0 PUSH1 0x20 DUP3 ADD SWAP1 POP PUSH2 0x37D PUSH0 DUP4 ADD DUP5 PUSH2 0x35B JUMP JUMPDEST SWAP3 SWAP2 POP POP JUMP JUMPDEST PUSH0 PUSH1 0x40 MLOAD SWAP1 POP SWAP1 JUMP JUMPDEST PUSH0 DUP1 REVERT JUMPDEST PUSH0 DUP1 REVERT JUMPDEST PUSH2 0x39D DUP2 PUSH2 0x352 JUMP JUMPDEST DUP2 EQ PUSH2 0x3A7 JUMPI PUSH0 DUP1 REVERT JUMPDEST POP JUMP JUMPDEST PUSH0 DUP2 CALLDATALOAD SWAP1 POP PUSH2 0x3B8 DUP2 PUSH2 0x394 JUMP JUMPDEST SWAP3 SWAP2 POP POP JUMP JUMPDEST PUSH0 PUSH1 0x20 DUP3 DUP5 SUB SLT ISZERO PUSH2 0x3D3 JUMPI PUSH2 0x3D2 PUSH2 0x38C JUMP JUMPDEST JUMPDEST PUSH0 PUSH2 0x3E0 DUP5 DUP3 DUP6 ADD PUSH2 0x3AA JUMP JUMPDEST SWAP2 POP POP SWAP3 SWAP2 POP POP JUMP JUMPDEST PUSH0 DUP1 REVERT JUMPDEST PUSH0 DUP1 REVERT JUMPDEST PUSH32 0x4E487B7100000000000000000000000000000000000000000000000000000000 PUSH0 MSTORE PUSH1 0x41 PUSH1 0x4 MSTORE PUSH1 0x24 PUSH0 REVERT JUMPDEST PUSH2 0x427 DUP3 PUSH2 0x2EA JUMP JUMPDEST DUP2 ADD DUP2 DUP2 LT PUSH8 0xFFFFFFFFFFFFFFFF DUP3 GT OR ISZERO PUSH2 0x446 JUMPI PUSH2 0x445 PUSH2 0x3F1 JUMP JUMPDEST JUMPDEST DUP1 PUSH1 0x40 MSTORE POP POP POP JUMP JUMPDEST PUSH0 PUSH2 0x458 PUSH2 0x383 JUMP JUMPDEST SWAP1 POP PUSH2 0x464 DUP3 DUP3 PUSH2 0x41E JUMP JUMPDEST SWAP2 SWAP1 POP JUMP JUMPDEST PUSH0 PUSH8 0xFFFFFFFFFFFFFFFF DUP3 GT ISZERO PUSH2 0x483 JUMPI PUSH2 0x482 PUSH2 0x3F1 JUMP JUMPDEST JUMPDEST PUSH2 0x48C DUP3 PUSH2 0x2EA JUMP JUMPDEST SWAP1 POP PUSH1 0x20 DUP2 ADD SWAP1 POP SWAP2 SWAP1 POP JUMP JUMPDEST DUP3 DUP2 DUP4 CALLDATACOPY PUSH0 DUP4 DUP4 ADD MSTORE POP POP POP JUMP JUMPDEST PUSH0 PUSH2 0x4B9 PUSH2 0x4B4 DUP5 PUSH2 0x469 JUMP JUMPDEST PUSH2 0x44F JUMP JUMPDEST SWAP1 POP DUP3 DUP2 MSTORE PUSH1 0x20 DUP2 ADD DUP5 DUP5 DUP5 ADD GT ISZERO PUSH2 0x4D5 JUMPI PUSH2 0x4D4 PUSH2 0x3ED JUMP JUMPDEST JUMPDEST PUSH2 0x4E0 DUP5 DUP3 DUP6 PUSH2 0x499 JUMP JUMPDEST POP SWAP4 SWAP3 POP POP POP JUMP JUMPDEST PUSH0 DUP3 PUSH1 0x1F DUP4 ADD SLT PUSH2 0x4FC JUMPI PUSH2 0x4FB PUSH2 0x3E9 JUMP JUMPDEST JUMPDEST DUP2 CALLDATALOAD PUSH2 0x50C DUP5 DUP3 PUSH1 0x20 DUP7 ADD PUSH2 0x4A7 JUMP JUMPDEST SWAP2 POP POP SWAP3 SWAP2 POP POP JUMP JUMPDEST PUSH0 PUSH1 0x20 DUP3 DUP5 SUB SLT ISZERO PUSH2 0x52A JUMPI PUSH2 0x529 PUSH2 0x38C JUMP JUMPDEST JUMPDEST PUSH0 DUP3 ADD CALLDATALOAD PUSH8 0xFFFFFFFFFFFFFFFF DUP2 GT ISZERO PUSH2 0x547 JUMPI PUSH2 0x546 PUSH2 0x390 JUMP JUMPDEST JUMPDEST PUSH2 0x553 DUP5 DUP3 DUP6 ADD PUSH2 0x4E8 JUMP JUMPDEST SWAP2 POP POP SWAP3 SWAP2 POP POP JUMP JUMPDEST PUSH32 0x4E487B7100000000000000000000000000000000000000000000000000000000 PUSH0 MSTORE PUSH1 0x22 PUSH1 0x4 MSTORE PUSH1 0x24 PUSH0 REVERT JUMPDEST PUSH0 PUSH1 0x2 DUP3 DIV SWAP1 POP PUSH1 0x1 DUP3 AND DUP1 PUSH2 0x5A0 JUMPI PUSH1 0x7F DUP3 AND SWAP2 POP JUMPDEST PUSH1 0x20 DUP3 LT DUP2 SUB PUSH2 0x5B3 JUMPI PUSH2 0x5B2 PUSH2 0x55C JUMP JUMPDEST JUMPDEST POP SWAP2 SWAP1 POP JUMP JUMPDEST PUSH32 0x56616C7565206D7573742062652067726561746572207468616E203130000000 PUSH0 DUP3 ADD MSTORE POP JUMP JUMPDEST PUSH0 PUSH2 0x5ED PUSH1 0x1D DUP4 PUSH2 0x2B2 JUMP JUMPDEST SWAP2 POP PUSH2 0x5F8 DUP3 PUSH2 0x5B9 JUMP JUMPDEST PUSH1 0x20 DUP3 ADD SWAP1 POP SWAP2 SWAP1 POP JUMP JUMPDEST PUSH0 PUSH1 0x20 DUP3 ADD SWAP1 POP DUP2 DUP2 SUB PUSH0 DUP4 ADD MSTORE PUSH2 0x61A DUP2 PUSH2 0x5E1 JUMP JUMPDEST SWAP1 POP SWAP2 SWAP1 POP JUMP JUMPDEST PUSH0 DUP2 SWAP1 POP DUP2 PUSH0 MSTORE PUSH1 0x20 PUSH0 KECCAK256 SWAP1 POP SWAP2 SWAP1 POP JUMP JUMPDEST PUSH0 PUSH1 0x20 PUSH1 0x1F DUP4 ADD DIV SWAP1 POP SWAP2 SWAP1 POP JUMP JUMPDEST PUSH0 DUP3 DUP3 SHL SWAP1 POP SWAP3 SWAP2 POP POP JUMP JUMPDEST PUSH0 PUSH1 0x8 DUP4 MUL PUSH2 0x67D PUSH32 0xFFFFFFFFFFFFFFFFFFFFFFFFFFFFFFFFFFFFFFFFFFFFFFFFFFFFFFFFFFFFFFFF DUP3 PUSH2 0x642 JUMP JUMPDEST PUSH2 0x687 DUP7 DUP4 PUSH2 0x642 JUMP JUMPDEST SWAP6 POP DUP1 NOT DUP5 AND SWAP4 POP DUP1 DUP7 AND DUP5 OR SWAP3 POP POP POP SWAP4 SWAP3 POP POP POP JUMP JUMPDEST PUSH0 DUP2 SWAP1 POP SWAP2 SWAP1 POP JUMP JUMPDEST PUSH0 PUSH2 0x6C2 PUSH2 0x6BD PUSH2 0x6B8 DUP5 PUSH2 0x352 JUMP JUMPDEST PUSH2 0x69F JUMP JUMPDEST PUSH2 0x352 JUMP JUMPDEST SWAP1 POP SWAP2 SWAP1 POP JUMP JUMPDEST PUSH0 DUP2 SWAP1 POP SWAP2 SWAP1 POP JUMP JUMPDEST PUSH2 0x6DB DUP4 PUSH2 0x6A8 JUMP JUMPDEST PUSH2 0x6EF PUSH2 0x6E7 DUP3 PUSH2 0x6C9 JUMP JUMPDEST DUP5 DUP5 SLOAD PUSH2 0x64E JUMP JUMPDEST DUP3 SSTORE POP POP POP POP JUMP JUMPDEST PUSH0 SWAP1 JUMP JUMPDEST PUSH2 0x703 PUSH2 0x6F7 JUMP JUMPDEST PUSH2 0x70E DUP2 DUP5 DUP5 PUSH2 0x6D2 JUMP JUMPDEST POP POP POP JUMP JUMPDEST JUMPDEST DUP2 DUP2 LT ISZERO PUSH2 0x731 JUMPI PUSH2 0x726 PUSH0 DUP3 PUSH2 0x6FB JUMP JUMPDEST PUSH1 0x1 DUP2 ADD SWAP1 POP PUSH2 0x714 JUMP JUMPDEST POP POP JUMP JUMPDEST PUSH1 0x1F DUP3 GT ISZERO PUSH2 0x776 JUMPI PUSH2 0x747 DUP2 PUSH2 0x621 JUMP JUMPDEST PUSH2 0x750 DUP5 PUSH2 0x633 JUMP JUMPDEST DUP2 ADD PUSH1 0x20 DUP6 LT ISZERO PUSH2 0x75F JUMPI DUP2 SWAP1 POP JUMPDEST PUSH2 0x773 PUSH2 0x76B DUP6 PUSH2 0x633 JUMP JUMPDEST DUP4 ADD DUP3 PUSH2 0x713 JUMP JUMPDEST POP POP JUMPDEST POP POP POP JUMP JUMPDEST PUSH0 DUP3 DUP3 SHR SWAP1 POP SWAP3 SWAP2 POP POP JUMP JUMPDEST PUSH0 PUSH2 0x796 PUSH0 NOT DUP5 PUSH1 0x8 MUL PUSH2 0x77B JUMP JUMPDEST NOT DUP1 DUP4 AND SWAP2 POP POP SWAP3 SWAP2 POP POP JUMP JUMPDEST PUSH0 PUSH2 0x7AE DUP4 DUP4 PUSH2 0x787 JUMP JUMPDEST SWAP2 POP DUP3 PUSH1 0x2 MUL DUP3 OR SWAP1 POP SWAP3 SWAP2 POP POP JUMP JUMPDEST PUSH2 0x7C7 DUP3 PUSH2 0x2A8 JUMP JUMPDEST PUSH8 0xFFFFFFFFFFFFFFFF DUP2 GT ISZERO PUSH2 0x7E0 JUMPI PUSH2 0x7DF PUSH2 0x3F1 JUMP JUMPDEST JUMPDEST PUSH2 0x7EA DUP3 SLOAD PUSH2 0x589 JUMP JUMPDEST PUSH2 0x7F5 DUP3 DUP3 DUP6 PUSH2 0x735 JUMP JUMPDEST PUSH0 PUSH1 0x20 SWAP1 POP PUSH1 0x1F DUP4 GT PUSH1 0x1 DUP2 EQ PUSH2 0x826 JUMPI PUSH0 DUP5 ISZERO PUSH2 0x814 JUMPI DUP3 DUP8 ADD MLOAD SWAP1 POP JUMPDEST PUSH2 0x81E DUP6 DUP3 PUSH2 0x7A3 JUMP JUMPDEST DUP7 SSTORE POP PUSH2 0x885 JUMP JUMPDEST PUSH1 0x1F NOT DUP5 AND PUSH2 0x834 DUP7 PUSH2 0x621 JUMP JUMPDEST PUSH0 JUMPDEST DUP3 DUP2 LT ISZERO PUSH2 0x85B JUMPI DUP5 DUP10 ADD MLOAD DUP3 SSTORE PUSH1 0x1 DUP3 ADD SWAP2 POP PUSH1 0x20 DUP6 ADD SWAP5 POP PUSH1 0x20 DUP2 ADD SWAP1 POP PUSH2 0x836 JUMP JUMPDEST DUP7 DUP4 LT ISZERO PUSH2 0x878 JUMPI DUP5 DUP10 ADD MLOAD PUSH2 0x874 PUSH1 0x1F DUP10 AND DUP3 PUSH2 0x787 JUMP JUMPDEST DUP4 SSTORE POP JUMPDEST PUSH1 0x1 PUSH1 0x2 DUP9 MUL ADD DUP9 SSTORE POP POP POP JUMPDEST POP POP POP POP POP POP JUMP INVALID LOG2 PUSH5 0x6970667358 0x22 SLT KECCAK256 DUP16 0x24 0x5E 0x5D 0x2B 0xF7 0x22 DUP9 0x2B 0xC5 RETURNDATACOPY 0xDB SHL 0x5E 0xD3 PC PUSH4 0x38E0AED 0xCC 0xBF CALL MUL CALLDATASIZE 0x4F 0xE7 SGT 0xC ORIGIN 0xA9 PUSH5 0x736F6C6343 STOP ADDMOD AND STOP CALLER "
		},
		"gasEstimates": {
			"creation": {
				"codeDepositCost": "448600",
				"executionCost": "infinite",
				"totalCost": "infinite"
			},
			"external": {
				"getText()": "infinite",
				"getValue()": "2432",
				"setText(string)": "infinite",
				"setValue(uint256)": "22610",
				"text()": "infinite",
				"value()": "2446"
			}
		},
		"methodIdentifiers": {
			"getText()": "e00fe2eb",
			"getValue()": "20965255",
			"setText(string)": "5d3a1f9d",
			"setValue(uint256)": "55241077",
			"text()": "1f1bd692",
			"value()": "3fa4f245"
		}
	},
	"abi": [
		{
			"inputs": [
				{
					"internalType": "uint256",
					"name": "_initialValue",
					"type": "uint256"
				},
				{
					"internalType": "string",
					"name": "_initialText",
					"type": "string"
				}
			],
			"stateMutability": "nonpayable",
			"type": "constructor"
		},
		{
			"inputs": [],
			"name": "getText",
			"outputs": [
				{
					"internalType": "string",
					"name": "",
					"type": "string"
				}
			],
			"stateMutability": "view",
			"type": "function"
		},
		{
			"inputs": [],
			"name": "getValue",
			"outputs": [
				{
					"internalType": "uint256",
					"name": "",
					"type": "uint256"
				}
			],
			"stateMutability": "view",
			"type": "function"
		},
		{
			"inputs": [
				{
					"internalType": "string",
					"name": "_newText",
					"type": "string"
				}
			],
			"name": "setText",
			"outputs": [],
			"stateMutability": "nonpayable",
			"type": "function"
		},
		{
			"inputs": [
				{
					"internalType": "uint256",
					"name": "_newValue",
					"type": "uint256"
				}
			],
			"name": "setValue",
			"outputs": [],
			"stateMutability": "nonpayable",
			"type": "function"
		},
		{
			"inputs": [],
			"name": "text",
			"outputs": [
				{
					"internalType": "string",
					"name": "",
					"type": "string"
				}
			],
			"stateMutability": "view",
			"type": "function"
		},
		{
			"inputs": [],
			"name": "value",
			"outputs": [
				{
					"internalType": "uint256",
					"name": "",
					"type": "uint256"
				}
			],
			"stateMutability": "view",
			"type": "function"
		}
	]
}