{
  "_format": "hh-sol-artifact-1",
  "contractName": "DataStorage",
  "sourceName": "contracts/PracticeJunior/DataStorage.sol",
  "abi": [
    {
      "anonymous": false,
      "inputs": [
        {
          "indexed": false,
          "internalType": "string",
          "name": "oldData",
          "type": "string"
        },
        {
          "indexed": false,
          "internalType": "string",
          "name": "newData",
          "type": "string"
        }
      ],
      "name": "DataUpdated",
      "type": "event"
    },
    {
      "inputs": [],
      "name": "data",
      "outputs": [
        {
          "internalType": "string",
          "name": "",
          "type": "string"
        }
      ],
      "stateMutability": "view",
      "type": "function"
    },
    {
      "inputs": [],
      "name": "getData",
      "outputs": [
        {
          "internalType": "string",
          "name": "",
          "type": "string"
        }
      ],
      "stateMutability": "view",
      "type": "function"
    },
    {
      "inputs": [
        {
          "internalType": "string",
          "name": "newData",
          "type": "string"
        }
      ],
      "name": "setData",
      "outputs": [],
      "stateMutability": "nonpayable",
      "type": "function"
    }
  ],
  "bytecode": "0x608060405234801561001057600080fd5b50610582806100206000396000f3fe608060405234801561001057600080fd5b50600436106100415760003560e01c80633bc5de301461004657806347064d6a1461006457806373d4a13a14610079575b600080fd5b61004e610081565b60405161005b91906102c2565b60405180910390f35b61007761007236600461030b565b610113565b005b61004e6101ee565b606060008054610090906103bc565b80601f01602080910402602001604051908101604052809291908181526020018280546100bc906103bc565b80156101095780601f106100de57610100808354040283529160200191610109565b820191906000526020600020905b8154815290600101906020018083116100ec57829003601f168201915b5050505050905090565b6000808054610121906103bc565b80601f016020809104026020016040519081016040528092919081815260200182805461014d906103bc565b801561019a5780601f1061016f5761010080835404028352916020019161019a565b820191906000526020600020905b81548152906001019060200180831161017d57829003601f168201915b5050505050905081600090816101b0919061045e565b507fee986145c636aca5c6c0b4ce0e9d371e77ab30b3e28fe5c3a8d977f05fc8cf2481836040516101e292919061051e565b60405180910390a15050565b600080546101fb906103bc565b80601f0160208091040260200160405190810160405280929190818152602001828054610227906103bc565b80156102745780601f1061024957610100808354040283529160200191610274565b820191906000526020600020905b81548152906001019060200180831161025757829003601f168201915b505050505081565b6000815180845260005b818110156102a257602081850181015186830182015201610286565b506000602082860101526020601f19601f83011685010191505092915050565b6020815260006102d5602083018461027c565b9392505050565b7f4e487b7100000000000000000000000000000000000000000000000000000000600052604160045260246000fd5b60006020828403121561031d57600080fd5b813567ffffffffffffffff8082111561033557600080fd5b818401915084601f83011261034957600080fd5b81358181111561035b5761035b6102dc565b604051601f8201601f19908116603f01168101908382118183101715610383576103836102dc565b8160405282815287602084870101111561039c57600080fd5b826020860160208301376000928101602001929092525095945050505050565b600181811c908216806103d057607f821691505b602082108103610409577f4e487b7100000000000000000000000000000000000000000000000000000000600052602260045260246000fd5b50919050565b601f82111561045957600081815260208120601f850160051c810160208610156104365750805b601f850160051c820191505b8181101561045557828155600101610442565b5050505b505050565b815167ffffffffffffffff811115610478576104786102dc565b61048c8161048684546103bc565b8461040f565b602080601f8311600181146104c157600084156104a95750858301515b600019600386901b1c1916600185901b178555610455565b600085815260208120601f198616915b828110156104f0578886015182559484019460019091019084016104d1565b508582101561050e5787850151600019600388901b60f8161c191681555b5050505050600190811b01905550565b604081526000610531604083018561027c565b8281036020840152610543818561027c565b9594505050505056fea2646970667358221220cafbba6b998c1ae167eeeafa08b20ddbbe0d510a90bc5db1f853decb84c0fdf564736f6c63430008140033",
  "linkReferences": {},
  "deployedLinkReferences": {}
}