{
  "_format": "hh-sol-artifact-1",
  "contractName": "First",
  "sourceName": "contracts\\PracticeGuideDAO\\СontractsSeveral.sol",
  "abi": [
    {
      "inputs": [
        {
          "internalType": "address payable",
          "name": "_to",
          "type": "address"
        }
      ],
      "name": "sendMoney",
      "outputs": [],
      "stateMutability": "payable",
      "type": "function"
    }
  ],
  "bytecode": "0x6080604052348015600e575f80fd5b5060e08061001b5f395ff3fe608060405260043610601b575f3560e01c8063338ccd7814601f575b5f80fd5b602e602a3660046072565b6030565b005b60405173ffffffffffffffffffffffffffffffffffffffff8216903480156108fc02915f818181858888f19350505050158015606e573d5f803e3d5ffd5b5050565b5f602082840312156081575f80fd5b813573ffffffffffffffffffffffffffffffffffffffff8116811460a3575f80fd5b939250505056fea2646970667358221220b2e5f5c621182af047604b1bf9de963aa6dd97903f2f9c908e5e18d7705902ac64736f6c634300081a0033",
  "linkReferences": {},
  "deployedLinkReferences": {}
}