{
  "_format": "hh-sol-artifact-1",
  "contractName": "First",
  "sourceName": "contracts\\PracticeGuideDAO\\СontractsSeveral.sol",
  "abi": [
    {
      "inputs": [
        {
          "internalType": "address payable",
          "name": "_to",
          "type": "address"
        }
      ],
      "name": "sendMoney",
      "outputs": [],
      "stateMutability": "payable",
      "type": "function"
    }
  ],
  "bytecode": "0x608060405234801561001057600080fd5b5060e88061001f6000396000f3fe608060405260043610601c5760003560e01c8063338ccd78146021575b600080fd5b6030602c3660046077565b6032565b005b60405173ffffffffffffffffffffffffffffffffffffffff8216903480156108fc02916000818181858888f193505050501580156073573d6000803e3d6000fd5b5050565b600060208284031215608857600080fd5b813573ffffffffffffffffffffffffffffffffffffffff8116811460ab57600080fd5b939250505056fea2646970667358221220f281f0e5e4b3f205bcc09bafd0c55c84aaed016a35cefe60c79081b34863053064736f6c63430008140033",
  "linkReferences": {},
  "deployedLinkReferences": {}
}