{
	"data": {
		"bytecode": {
			"linkReferences": {},
			"object": "608060405234801561000f575f80fd5b506103f28061001d5f395ff3fe608060405260043610610085575f3560e01c8063853255cc11610058578063853255cc14610111578063a035b1fe1461013b578063a4d66daf14610165578063b69ef8a81461018f578063b80777ea146101b957610085565b806301725a0b1461008957806315a5d9d81461009357806367e404ce146100bd5780638381f58a146100e7575b5f80fd5b6100916101e3565b005b34801561009e575f80fd5b506100a76102c6565b6040516100b49190610372565b60405180910390f35b3480156100c8575f80fd5b506100d16102eb565b6040516100de9190610372565b60405180910390f35b3480156100f2575f80fd5b506100fb610310565b60405161010891906103a3565b60405180910390f35b34801561011c575f80fd5b50610125610316565b60405161013291906103a3565b60405180910390f35b348015610146575f80fd5b5061014f61031b565b60405161015c91906103a3565b60405180910390f35b348015610170575f80fd5b50610179610321565b60405161018691906103a3565b60405180910390f35b34801561019a575f80fd5b506101a3610327565b6040516101b091906103a3565b60405180910390f35b3480156101c4575f80fd5b506101cd61032d565b6040516101da91906103a3565b60405180910390f35b345f819055503360015f6101000a81548173ffffffffffffffffffffffffffffffffffffffff021916908373ffffffffffffffffffffffffffffffffffffffff1602179055504260028190555043600381905550456004819055503a6005819055503060065f6101000a81548173ffffffffffffffffffffffffffffffffffffffff021916908373ffffffffffffffffffffffffffffffffffffffff16021790555060065f9054906101000a900473ffffffffffffffffffffffffffffffffffffffff1673ffffffffffffffffffffffffffffffffffffffff1631600781905550565b60065f9054906101000a900473ffffffffffffffffffffffffffffffffffffffff1681565b60015f9054906101000a900473ffffffffffffffffffffffffffffffffffffffff1681565b60035481565b5f5481565b60055481565b60045481565b60075481565b60025481565b5f73ffffffffffffffffffffffffffffffffffffffff82169050919050565b5f61035c82610333565b9050919050565b61036c81610352565b82525050565b5f6020820190506103855f830184610363565b92915050565b5f819050919050565b61039d8161038b565b82525050565b5f6020820190506103b65f830184610394565b9291505056fea2646970667358221220fa589e054f6e6a0abc6745ac607828a6c81462fd10a055b67c13f08a9ebd6c2664736f6c63430008160033",
			"opcodes": "PUSH1 0x80 PUSH1 0x40 MSTORE CALLVALUE DUP1 ISZERO PUSH2 0xF JUMPI PUSH0 DUP1 REVERT JUMPDEST POP PUSH2 0x3F2 DUP1 PUSH2 0x1D PUSH0 CODECOPY PUSH0 RETURN INVALID PUSH1 0x80 PUSH1 0x40 MSTORE PUSH1 0x4 CALLDATASIZE LT PUSH2 0x85 JUMPI PUSH0 CALLDATALOAD PUSH1 0xE0 SHR DUP1 PUSH4 0x853255CC GT PUSH2 0x58 JUMPI DUP1 PUSH4 0x853255CC EQ PUSH2 0x111 JUMPI DUP1 PUSH4 0xA035B1FE EQ PUSH2 0x13B JUMPI DUP1 PUSH4 0xA4D66DAF EQ PUSH2 0x165 JUMPI DUP1 PUSH4 0xB69EF8A8 EQ PUSH2 0x18F JUMPI DUP1 PUSH4 0xB80777EA EQ PUSH2 0x1B9 JUMPI PUSH2 0x85 JUMP JUMPDEST DUP1 PUSH4 0x1725A0B EQ PUSH2 0x89 JUMPI DUP1 PUSH4 0x15A5D9D8 EQ PUSH2 0x93 JUMPI DUP1 PUSH4 0x67E404CE EQ PUSH2 0xBD JUMPI DUP1 PUSH4 0x8381F58A EQ PUSH2 0xE7 JUMPI JUMPDEST PUSH0 DUP1 REVERT JUMPDEST PUSH2 0x91 PUSH2 0x1E3 JUMP JUMPDEST STOP JUMPDEST CALLVALUE DUP1 ISZERO PUSH2 0x9E JUMPI PUSH0 DUP1 REVERT JUMPDEST POP PUSH2 0xA7 PUSH2 0x2C6 JUMP JUMPDEST PUSH1 0x40 MLOAD PUSH2 0xB4 SWAP2 SWAP1 PUSH2 0x372 JUMP JUMPDEST PUSH1 0x40 MLOAD DUP1 SWAP2 SUB SWAP1 RETURN JUMPDEST CALLVALUE DUP1 ISZERO PUSH2 0xC8 JUMPI PUSH0 DUP1 REVERT JUMPDEST POP PUSH2 0xD1 PUSH2 0x2EB JUMP JUMPDEST PUSH1 0x40 MLOAD PUSH2 0xDE SWAP2 SWAP1 PUSH2 0x372 JUMP JUMPDEST PUSH1 0x40 MLOAD DUP1 SWAP2 SUB SWAP1 RETURN JUMPDEST CALLVALUE DUP1 ISZERO PUSH2 0xF2 JUMPI PUSH0 DUP1 REVERT JUMPDEST POP PUSH2 0xFB PUSH2 0x310 JUMP JUMPDEST PUSH1 0x40 MLOAD PUSH2 0x108 SWAP2 SWAP1 PUSH2 0x3A3 JUMP JUMPDEST PUSH1 0x40 MLOAD DUP1 SWAP2 SUB SWAP1 RETURN JUMPDEST CALLVALUE DUP1 ISZERO PUSH2 0x11C JUMPI PUSH0 DUP1 REVERT JUMPDEST POP PUSH2 0x125 PUSH2 0x316 JUMP JUMPDEST PUSH1 0x40 MLOAD PUSH2 0x132 SWAP2 SWAP1 PUSH2 0x3A3 JUMP JUMPDEST PUSH1 0x40 MLOAD DUP1 SWAP2 SUB SWAP1 RETURN JUMPDEST CALLVALUE DUP1 ISZERO PUSH2 0x146 JUMPI PUSH0 DUP1 REVERT JUMPDEST POP PUSH2 0x14F PUSH2 0x31B JUMP JUMPDEST PUSH1 0x40 MLOAD PUSH2 0x15C SWAP2 SWAP1 PUSH2 0x3A3 JUMP JUMPDEST PUSH1 0x40 MLOAD DUP1 SWAP2 SUB SWAP1 RETURN JUMPDEST CALLVALUE DUP1 ISZERO PUSH2 0x170 JUMPI PUSH0 DUP1 REVERT JUMPDEST POP PUSH2 0x179 PUSH2 0x321 JUMP JUMPDEST PUSH1 0x40 MLOAD PUSH2 0x186 SWAP2 SWAP1 PUSH2 0x3A3 JUMP JUMPDEST PUSH1 0x40 MLOAD DUP1 SWAP2 SUB SWAP1 RETURN JUMPDEST CALLVALUE DUP1 ISZERO PUSH2 0x19A JUMPI PUSH0 DUP1 REVERT JUMPDEST POP PUSH2 0x1A3 PUSH2 0x327 JUMP JUMPDEST PUSH1 0x40 MLOAD PUSH2 0x1B0 SWAP2 SWAP1 PUSH2 0x3A3 JUMP JUMPDEST PUSH1 0x40 MLOAD DUP1 SWAP2 SUB SWAP1 RETURN JUMPDEST CALLVALUE DUP1 ISZERO PUSH2 0x1C4 JUMPI PUSH0 DUP1 REVERT JUMPDEST POP PUSH2 0x1CD PUSH2 0x32D JUMP JUMPDEST PUSH1 0x40 MLOAD PUSH2 0x1DA SWAP2 SWAP1 PUSH2 0x3A3 JUMP JUMPDEST PUSH1 0x40 MLOAD DUP1 SWAP2 SUB SWAP1 RETURN JUMPDEST CALLVALUE PUSH0 DUP2 SWAP1 SSTORE POP CALLER PUSH1 0x1 PUSH0 PUSH2 0x100 EXP DUP2 SLOAD DUP2 PUSH20 0xFFFFFFFFFFFFFFFFFFFFFFFFFFFFFFFFFFFFFFFF MUL NOT AND SWAP1 DUP4 PUSH20 0xFFFFFFFFFFFFFFFFFFFFFFFFFFFFFFFFFFFFFFFF AND MUL OR SWAP1 SSTORE POP TIMESTAMP PUSH1 0x2 DUP2 SWAP1 SSTORE POP NUMBER PUSH1 0x3 DUP2 SWAP1 SSTORE POP GASLIMIT PUSH1 0x4 DUP2 SWAP1 SSTORE POP GASPRICE PUSH1 0x5 DUP2 SWAP1 SSTORE POP ADDRESS PUSH1 0x6 PUSH0 PUSH2 0x100 EXP DUP2 SLOAD DUP2 PUSH20 0xFFFFFFFFFFFFFFFFFFFFFFFFFFFFFFFFFFFFFFFF MUL NOT AND SWAP1 DUP4 PUSH20 0xFFFFFFFFFFFFFFFFFFFFFFFFFFFFFFFFFFFFFFFF AND MUL OR SWAP1 SSTORE POP PUSH1 0x6 PUSH0 SWAP1 SLOAD SWAP1 PUSH2 0x100 EXP SWAP1 DIV PUSH20 0xFFFFFFFFFFFFFFFFFFFFFFFFFFFFFFFFFFFFFFFF AND PUSH20 0xFFFFFFFFFFFFFFFFFFFFFFFFFFFFFFFFFFFFFFFF AND BALANCE PUSH1 0x7 DUP2 SWAP1 SSTORE POP JUMP JUMPDEST PUSH1 0x6 PUSH0 SWAP1 SLOAD SWAP1 PUSH2 0x100 EXP SWAP1 DIV PUSH20 0xFFFFFFFFFFFFFFFFFFFFFFFFFFFFFFFFFFFFFFFF AND DUP2 JUMP JUMPDEST PUSH1 0x1 PUSH0 SWAP1 SLOAD SWAP1 PUSH2 0x100 EXP SWAP1 DIV PUSH20 0xFFFFFFFFFFFFFFFFFFFFFFFFFFFFFFFFFFFFFFFF AND DUP2 JUMP JUMPDEST PUSH1 0x3 SLOAD DUP2 JUMP JUMPDEST PUSH0 SLOAD DUP2 JUMP JUMPDEST PUSH1 0x5 SLOAD DUP2 JUMP JUMPDEST PUSH1 0x4 SLOAD DUP2 JUMP JUMPDEST PUSH1 0x7 SLOAD DUP2 JUMP JUMPDEST PUSH1 0x2 SLOAD DUP2 JUMP JUMPDEST PUSH0 PUSH20 0xFFFFFFFFFFFFFFFFFFFFFFFFFFFFFFFFFFFFFFFF DUP3 AND SWAP1 POP SWAP2 SWAP1 POP JUMP JUMPDEST PUSH0 PUSH2 0x35C DUP3 PUSH2 0x333 JUMP JUMPDEST SWAP1 POP SWAP2 SWAP1 POP JUMP JUMPDEST PUSH2 0x36C DUP2 PUSH2 0x352 JUMP JUMPDEST DUP3 MSTORE POP POP JUMP JUMPDEST PUSH0 PUSH1 0x20 DUP3 ADD SWAP1 POP PUSH2 0x385 PUSH0 DUP4 ADD DUP5 PUSH2 0x363 JUMP JUMPDEST SWAP3 SWAP2 POP POP JUMP JUMPDEST PUSH0 DUP2 SWAP1 POP SWAP2 SWAP1 POP JUMP JUMPDEST PUSH2 0x39D DUP2 PUSH2 0x38B JUMP JUMPDEST DUP3 MSTORE POP POP JUMP JUMPDEST PUSH0 PUSH1 0x20 DUP3 ADD SWAP1 POP PUSH2 0x3B6 PUSH0 DUP4 ADD DUP5 PUSH2 0x394 JUMP JUMPDEST SWAP3 SWAP2 POP POP JUMP INVALID LOG2 PUSH5 0x6970667358 0x22 SLT KECCAK256 STATICCALL PC SWAP15 SDIV 0x4F PUSH15 0x6A0ABC6745AC607828A6C81462FD10 LOG0 SSTORE 0xB6 PUSH29 0x13F08A9EBD6C2664736F6C634300081600330000000000000000000000 "
		},
		"gasEstimates": {
			"creation": {
				"codeDepositCost": "202000",
				"executionCost": "243",
				"totalCost": "202243"
			},
			"external": {
				"balance()": "2491",
				"contractAddr()": "2531",
				"demo()": "186069",
				"limit()": "2469",
				"number()": "2492",
				"price()": "2447",
				"sender()": "2553",
				"sum()": "2424",
				"timestamp()": "2513"
			}
		},
		"methodIdentifiers": {
			"balance()": "b69ef8a8",
			"contractAddr()": "15a5d9d8",
			"demo()": "01725a0b",
			"limit()": "a4d66daf",
			"number()": "8381f58a",
			"price()": "a035b1fe",
			"sender()": "67e404ce",
			"sum()": "853255cc",
			"timestamp()": "b80777ea"
		}
	},
	"abi": [
		{
			"inputs": [],
			"name": "balance",
			"outputs": [
				{
					"internalType": "uint256",
					"name": "",
					"type": "uint256"
				}
			],
			"stateMutability": "view",
			"type": "function"
		},
		{
			"inputs": [],
			"name": "contractAddr",
			"outputs": [
				{
					"internalType": "address",
					"name": "",
					"type": "address"
				}
			],
			"stateMutability": "view",
			"type": "function"
		},
		{
			"inputs": [],
			"name": "demo",
			"outputs": [],
			"stateMutability": "payable",
			"type": "function"
		},
		{
			"inputs": [],
			"name": "limit",
			"outputs": [
				{
					"internalType": "uint256",
					"name": "",
					"type": "uint256"
				}
			],
			"stateMutability": "view",
			"type": "function"
		},
		{
			"inputs": [],
			"name": "number",
			"outputs": [
				{
					"internalType": "uint256",
					"name": "",
					"type": "uint256"
				}
			],
			"stateMutability": "view",
			"type": "function"
		},
		{
			"inputs": [],
			"name": "price",
			"outputs": [
				{
					"internalType": "uint256",
					"name": "",
					"type": "uint256"
				}
			],
			"stateMutability": "view",
			"type": "function"
		},
		{
			"inputs": [],
			"name": "sender",
			"outputs": [
				{
					"internalType": "address",
					"name": "",
					"type": "address"
				}
			],
			"stateMutability": "view",
			"type": "function"
		},
		{
			"inputs": [],
			"name": "sum",
			"outputs": [
				{
					"internalType": "uint256",
					"name": "",
					"type": "uint256"
				}
			],
			"stateMutability": "view",
			"type": "function"
		},
		{
			"inputs": [],
			"name": "timestamp",
			"outputs": [
				{
					"internalType": "uint256",
					"name": "",
					"type": "uint256"
				}
			],
			"stateMutability": "view",
			"type": "function"
		}
	]
}