{
	"BaseContract.sol": {
		"BaseContract": {
			"abi": [
				{
					"inputs": [],
					"name": "count",
					"outputs": [
						{
							"internalType": "int256",
							"name": "",
							"type": "int256"
						}
					],
					"stateMutability": "view",
					"type": "function"
				},
				{
					"inputs": [],
					"name": "increment",
					"outputs": [],
					"stateMutability": "nonpayable",
					"type": "function"
				},
				{
					"inputs": [
						{
							"internalType": "address",
							"name": "_ownerContract",
							"type": "address"
						},
						{
							"internalType": "address",
							"name": "_newOwner",
							"type": "address"
						}
					],
					"name": "updateOwner",
					"outputs": [],
					"stateMutability": "nonpayable",
					"type": "function"
				}
			],
			"devdoc": {
				"kind": "dev",
				"methods": {},
				"version": 1
			},
			"evm": {
				"assembly": "    /* \"BaseContract.sol\":96:913  contract BaseContract {... */\n  mstore(0x40, 0x80)\n  callvalue\n  dup1\n  iszero\n  tag_1\n  jumpi\n  0x00\n  dup1\n  revert\ntag_1:\n  pop\n  dataSize(sub_0)\n  dup1\n  dataOffset(sub_0)\n  0x00\n  codecopy\n  0x00\n  return\nstop\n\nsub_0: assembly {\n        /* \"BaseContract.sol\":96:913  contract BaseContract {... */\n      mstore(0x40, 0x80)\n      callvalue\n      dup1\n      iszero\n      tag_1\n      jumpi\n      0x00\n      dup1\n      revert\n    tag_1:\n      pop\n      jumpi(tag_2, lt(calldatasize, 0x04))\n      shr(0xe0, calldataload(0x00))\n      dup1\n      0x06661abd\n      eq\n      tag_3\n      jumpi\n      dup1\n      0xa6348c80\n      eq\n      tag_4\n      jumpi\n      dup1\n      0xd09de08a\n      eq\n      tag_5\n      jumpi\n    tag_2:\n      0x00\n      dup1\n      revert\n        /* \"BaseContract.sol\":125:141  int public count */\n    tag_3:\n      tag_6\n      tag_7\n      jump\t// in\n    tag_6:\n      mload(0x40)\n      tag_8\n      swap2\n      swap1\n      tag_9\n      jump\t// in\n    tag_8:\n      mload(0x40)\n      dup1\n      swap2\n      sub\n      swap1\n      return\n        /* \"BaseContract.sol\":442:910  function updateOwner(address _ownerContract, address _newOwner) public {... */\n    tag_4:\n      tag_10\n      0x04\n      dup1\n      calldatasize\n      sub\n      dup2\n      add\n      swap1\n      tag_11\n      swap2\n      swap1\n      tag_12\n      jump\t// in\n    tag_11:\n      tag_13\n      jump\t// in\n    tag_10:\n      stop\n        /* \"BaseContract.sol\":245:310  function increment() public virtual {... */\n    tag_5:\n      tag_14\n      tag_15\n      jump\t// in\n    tag_14:\n      stop\n        /* \"BaseContract.sol\":125:141  int public count */\n    tag_7:\n      sload(0x00)\n      dup2\n      jump\t// out\n        /* \"BaseContract.sol\":442:910  function updateOwner(address _ownerContract, address _newOwner) public {... */\n    tag_13:\n        /* \"BaseContract.sol\":634:654  bytes memory payload */\n      0x00\n        /* \"BaseContract.sol\":702:711  _newOwner */\n      dup2\n        /* \"BaseContract.sol\":657:712  abi.encodeWithSignature(\"setOwner(address)\", _newOwner) */\n      add(0x24, mload(0x40))\n      tag_17\n      swap2\n      swap1\n      tag_18\n      jump\t// in\n    tag_17:\n      mload(0x40)\n      0x20\n      dup2\n      dup4\n      sub\n      sub\n      dup2\n      mstore\n      swap1\n      0x40\n      mstore\n      and(not(0xffffffffffffffffffffffffffffffffffffffffffffffffffffffff), 0x13af403500000000000000000000000000000000000000000000000000000000)\n      0x20\n      dup3\n      add\n      dup1\n      mload\n      0xffffffffffffffffffffffffffffffffffffffffffffffffffffffff\n      dup4\n      dup2\n      dup4\n      and\n      or\n      dup4\n      mstore\n      pop\n      pop\n      pop\n      pop\n        /* \"BaseContract.sol\":634:712  bytes memory payload = abi.encodeWithSignature(\"setOwner(address)\", _newOwner) */\n      swap1\n      pop\n        /* \"BaseContract.sol\":797:809  bool success */\n      0x00\n        /* \"BaseContract.sol\":815:829  _ownerContract */\n      dup4\n        /* \"BaseContract.sol\":815:834  _ownerContract.call */\n      0xffffffffffffffffffffffffffffffffffffffff\n      and\n        /* \"BaseContract.sol\":835:842  payload */\n      dup3\n        /* \"BaseContract.sol\":815:843  _ownerContract.call(payload) */\n      mload(0x40)\n      tag_19\n      swap2\n      swap1\n      tag_20\n      jump\t// in\n    tag_19:\n      0x00\n      mload(0x40)\n      dup1\n      dup4\n      sub\n      dup2\n      0x00\n      dup7\n      gas\n      call\n      swap2\n      pop\n      pop\n      returndatasize\n      dup1\n      0x00\n      dup2\n      eq\n      tag_23\n      jumpi\n      mload(0x40)\n      swap2\n      pop\n      and(add(returndatasize, 0x3f), not(0x1f))\n      dup3\n      add\n      0x40\n      mstore\n      returndatasize\n      dup3\n      mstore\n      returndatasize\n      0x00\n      0x20\n      dup5\n      add\n      returndatacopy\n      jump(tag_22)\n    tag_23:\n      0x60\n      swap2\n      pop\n    tag_22:\n      pop\n        /* \"BaseContract.sol\":796:843  (bool success, ) = _ownerContract.call(payload) */\n      pop\n      swap1\n      pop\n        /* \"BaseContract.sol\":862:869  success */\n      dup1\n        /* \"BaseContract.sol\":854:902  require(success, \"Call to OwnerContract failed\") */\n      tag_24\n      jumpi\n      mload(0x40)\n      0x08c379a000000000000000000000000000000000000000000000000000000000\n      dup2\n      mstore\n      0x04\n      add\n      tag_25\n      swap1\n      tag_26\n      jump\t// in\n    tag_25:\n      mload(0x40)\n      dup1\n      swap2\n      sub\n      swap1\n      revert\n    tag_24:\n        /* \"BaseContract.sol\":513:910  {... */\n      pop\n      pop\n        /* \"BaseContract.sol\":442:910  function updateOwner(address _ownerContract, address _newOwner) public {... */\n      pop\n      pop\n      jump\t// out\n        /* \"BaseContract.sol\":245:310  function increment() public virtual {... */\n    tag_15:\n        /* \"BaseContract.sol\":301:302  1 */\n      0x01\n        /* \"BaseContract.sol\":292:297  count */\n      0x00\n      dup1\n        /* \"BaseContract.sol\":292:302  count += 1 */\n      dup3\n      dup3\n      sload\n      tag_28\n      swap2\n      swap1\n      tag_29\n      jump\t// in\n    tag_28:\n      swap3\n      pop\n      pop\n      dup2\n      swap1\n      sstore\n      pop\n        /* \"BaseContract.sol\":245:310  function increment() public virtual {... */\n      jump\t// out\n        /* \"#utility.yul\":7:83   */\n    tag_30:\n        /* \"#utility.yul\":43:50   */\n      0x00\n        /* \"#utility.yul\":72:77   */\n      dup2\n        /* \"#utility.yul\":61:77   */\n      swap1\n      pop\n        /* \"#utility.yul\":7:83   */\n      swap2\n      swap1\n      pop\n      jump\t// out\n        /* \"#utility.yul\":89:204   */\n    tag_31:\n        /* \"#utility.yul\":174:197   */\n      tag_51\n        /* \"#utility.yul\":191:196   */\n      dup2\n        /* \"#utility.yul\":174:197   */\n      tag_30\n      jump\t// in\n    tag_51:\n        /* \"#utility.yul\":169:172   */\n      dup3\n        /* \"#utility.yul\":162:198   */\n      mstore\n        /* \"#utility.yul\":89:204   */\n      pop\n      pop\n      jump\t// out\n        /* \"#utility.yul\":210:428   */\n    tag_9:\n        /* \"#utility.yul\":301:305   */\n      0x00\n        /* \"#utility.yul\":339:341   */\n      0x20\n        /* \"#utility.yul\":328:337   */\n      dup3\n        /* \"#utility.yul\":324:342   */\n      add\n        /* \"#utility.yul\":316:342   */\n      swap1\n      pop\n        /* \"#utility.yul\":352:421   */\n      tag_53\n        /* \"#utility.yul\":418:419   */\n      0x00\n        /* \"#utility.yul\":407:416   */\n      dup4\n        /* \"#utility.yul\":403:420   */\n      add\n        /* \"#utility.yul\":394:400   */\n      dup5\n        /* \"#utility.yul\":352:421   */\n      tag_31\n      jump\t// in\n    tag_53:\n        /* \"#utility.yul\":210:428   */\n      swap3\n      swap2\n      pop\n      pop\n      jump\t// out\n        /* \"#utility.yul\":515:632   */\n    tag_33:\n        /* \"#utility.yul\":624:625   */\n      0x00\n        /* \"#utility.yul\":621:622   */\n      dup1\n        /* \"#utility.yul\":614:626   */\n      revert\n        /* \"#utility.yul\":761:887   */\n    tag_35:\n        /* \"#utility.yul\":798:805   */\n      0x00\n        /* \"#utility.yul\":838:880   */\n      0xffffffffffffffffffffffffffffffffffffffff\n        /* \"#utility.yul\":831:836   */\n      dup3\n        /* \"#utility.yul\":827:881   */\n      and\n        /* \"#utility.yul\":816:881   */\n      swap1\n      pop\n        /* \"#utility.yul\":761:887   */\n      swap2\n      swap1\n      pop\n      jump\t// out\n        /* \"#utility.yul\":893:989   */\n    tag_36:\n        /* \"#utility.yul\":930:937   */\n      0x00\n        /* \"#utility.yul\":959:983   */\n      tag_59\n        /* \"#utility.yul\":977:982   */\n      dup3\n        /* \"#utility.yul\":959:983   */\n      tag_35\n      jump\t// in\n    tag_59:\n        /* \"#utility.yul\":948:983   */\n      swap1\n      pop\n        /* \"#utility.yul\":893:989   */\n      swap2\n      swap1\n      pop\n      jump\t// out\n        /* \"#utility.yul\":995:1117   */\n    tag_37:\n        /* \"#utility.yul\":1068:1092   */\n      tag_61\n        /* \"#utility.yul\":1086:1091   */\n      dup2\n        /* \"#utility.yul\":1068:1092   */\n      tag_36\n      jump\t// in\n    tag_61:\n        /* \"#utility.yul\":1061:1066   */\n      dup2\n        /* \"#utility.yul\":1058:1093   */\n      eq\n        /* \"#utility.yul\":1048:1111   */\n      tag_62\n      jumpi\n        /* \"#utility.yul\":1107:1108   */\n      0x00\n        /* \"#utility.yul\":1104:1105   */\n      dup1\n        /* \"#utility.yul\":1097:1109   */\n      revert\n        /* \"#utility.yul\":1048:1111   */\n    tag_62:\n        /* \"#utility.yul\":995:1117   */\n      pop\n      jump\t// out\n        /* \"#utility.yul\":1123:1262   */\n    tag_38:\n        /* \"#utility.yul\":1169:1174   */\n      0x00\n        /* \"#utility.yul\":1207:1213   */\n      dup2\n        /* \"#utility.yul\":1194:1214   */\n      calldataload\n        /* \"#utility.yul\":1185:1214   */\n      swap1\n      pop\n        /* \"#utility.yul\":1223:1256   */\n      tag_64\n        /* \"#utility.yul\":1250:1255   */\n      dup2\n        /* \"#utility.yul\":1223:1256   */\n      tag_37\n      jump\t// in\n    tag_64:\n        /* \"#utility.yul\":1123:1262   */\n      swap3\n      swap2\n      pop\n      pop\n      jump\t// out\n        /* \"#utility.yul\":1268:1742   */\n    tag_12:\n        /* \"#utility.yul\":1336:1342   */\n      0x00\n        /* \"#utility.yul\":1344:1350   */\n      dup1\n        /* \"#utility.yul\":1393:1395   */\n      0x40\n        /* \"#utility.yul\":1381:1390   */\n      dup4\n        /* \"#utility.yul\":1372:1379   */\n      dup6\n        /* \"#utility.yul\":1368:1391   */\n      sub\n        /* \"#utility.yul\":1364:1396   */\n      slt\n        /* \"#utility.yul\":1361:1480   */\n      iszero\n      tag_66\n      jumpi\n        /* \"#utility.yul\":1399:1478   */\n      tag_67\n      tag_33\n      jump\t// in\n    tag_67:\n        /* \"#utility.yul\":1361:1480   */\n    tag_66:\n        /* \"#utility.yul\":1519:1520   */\n      0x00\n        /* \"#utility.yul\":1544:1597   */\n      tag_68\n        /* \"#utility.yul\":1589:1596   */\n      dup6\n        /* \"#utility.yul\":1580:1586   */\n      dup3\n        /* \"#utility.yul\":1569:1578   */\n      dup7\n        /* \"#utility.yul\":1565:1587   */\n      add\n        /* \"#utility.yul\":1544:1597   */\n      tag_38\n      jump\t// in\n    tag_68:\n        /* \"#utility.yul\":1534:1597   */\n      swap3\n      pop\n        /* \"#utility.yul\":1490:1607   */\n      pop\n        /* \"#utility.yul\":1646:1648   */\n      0x20\n        /* \"#utility.yul\":1672:1725   */\n      tag_69\n        /* \"#utility.yul\":1717:1724   */\n      dup6\n        /* \"#utility.yul\":1708:1714   */\n      dup3\n        /* \"#utility.yul\":1697:1706   */\n      dup7\n        /* \"#utility.yul\":1693:1715   */\n      add\n        /* \"#utility.yul\":1672:1725   */\n      tag_38\n      jump\t// in\n    tag_69:\n        /* \"#utility.yul\":1662:1725   */\n      swap2\n      pop\n        /* \"#utility.yul\":1617:1735   */\n      pop\n        /* \"#utility.yul\":1268:1742   */\n      swap3\n      pop\n      swap3\n      swap1\n      pop\n      jump\t// out\n        /* \"#utility.yul\":1748:1866   */\n    tag_39:\n        /* \"#utility.yul\":1835:1859   */\n      tag_71\n        /* \"#utility.yul\":1853:1858   */\n      dup2\n        /* \"#utility.yul\":1835:1859   */\n      tag_36\n      jump\t// in\n    tag_71:\n        /* \"#utility.yul\":1830:1833   */\n      dup3\n        /* \"#utility.yul\":1823:1860   */\n      mstore\n        /* \"#utility.yul\":1748:1866   */\n      pop\n      pop\n      jump\t// out\n        /* \"#utility.yul\":1872:2094   */\n    tag_18:\n        /* \"#utility.yul\":1965:1969   */\n      0x00\n        /* \"#utility.yul\":2003:2005   */\n      0x20\n        /* \"#utility.yul\":1992:2001   */\n      dup3\n        /* \"#utility.yul\":1988:2006   */\n      add\n        /* \"#utility.yul\":1980:2006   */\n      swap1\n      pop\n        /* \"#utility.yul\":2016:2087   */\n      tag_73\n        /* \"#utility.yul\":2084:2085   */\n      0x00\n        /* \"#utility.yul\":2073:2082   */\n      dup4\n        /* \"#utility.yul\":2069:2086   */\n      add\n        /* \"#utility.yul\":2060:2066   */\n      dup5\n        /* \"#utility.yul\":2016:2087   */\n      tag_39\n      jump\t// in\n    tag_73:\n        /* \"#utility.yul\":1872:2094   */\n      swap3\n      swap2\n      pop\n      pop\n      jump\t// out\n        /* \"#utility.yul\":2100:2198   */\n    tag_40:\n        /* \"#utility.yul\":2151:2157   */\n      0x00\n        /* \"#utility.yul\":2185:2190   */\n      dup2\n        /* \"#utility.yul\":2179:2191   */\n      mload\n        /* \"#utility.yul\":2169:2191   */\n      swap1\n      pop\n        /* \"#utility.yul\":2100:2198   */\n      swap2\n      swap1\n      pop\n      jump\t// out\n        /* \"#utility.yul\":2204:2351   */\n    tag_41:\n        /* \"#utility.yul\":2305:2316   */\n      0x00\n        /* \"#utility.yul\":2342:2345   */\n      dup2\n        /* \"#utility.yul\":2327:2345   */\n      swap1\n      pop\n        /* \"#utility.yul\":2204:2351   */\n      swap3\n      swap2\n      pop\n      pop\n      jump\t// out\n        /* \"#utility.yul\":2357:2603   */\n    tag_42:\n        /* \"#utility.yul\":2438:2439   */\n      0x00\n        /* \"#utility.yul\":2448:2561   */\n    tag_77:\n        /* \"#utility.yul\":2462:2468   */\n      dup4\n        /* \"#utility.yul\":2459:2460   */\n      dup2\n        /* \"#utility.yul\":2456:2469   */\n      lt\n        /* \"#utility.yul\":2448:2561   */\n      iszero\n      tag_79\n      jumpi\n        /* \"#utility.yul\":2547:2548   */\n      dup1\n        /* \"#utility.yul\":2542:2545   */\n      dup3\n        /* \"#utility.yul\":2538:2549   */\n      add\n        /* \"#utility.yul\":2532:2550   */\n      mload\n        /* \"#utility.yul\":2528:2529   */\n      dup2\n        /* \"#utility.yul\":2523:2526   */\n      dup5\n        /* \"#utility.yul\":2519:2530   */\n      add\n        /* \"#utility.yul\":2512:2551   */\n      mstore\n        /* \"#utility.yul\":2484:2486   */\n      0x20\n        /* \"#utility.yul\":2481:2482   */\n      dup2\n        /* \"#utility.yul\":2477:2487   */\n      add\n        /* \"#utility.yul\":2472:2487   */\n      swap1\n      pop\n        /* \"#utility.yul\":2448:2561   */\n      jump(tag_77)\n    tag_79:\n        /* \"#utility.yul\":2595:2596   */\n      0x00\n        /* \"#utility.yul\":2586:2592   */\n      dup5\n        /* \"#utility.yul\":2581:2584   */\n      dup5\n        /* \"#utility.yul\":2577:2593   */\n      add\n        /* \"#utility.yul\":2570:2597   */\n      mstore\n        /* \"#utility.yul\":2419:2603   */\n      pop\n        /* \"#utility.yul\":2357:2603   */\n      pop\n      pop\n      pop\n      jump\t// out\n        /* \"#utility.yul\":2609:2995   */\n    tag_43:\n        /* \"#utility.yul\":2713:2716   */\n      0x00\n        /* \"#utility.yul\":2741:2779   */\n      tag_81\n        /* \"#utility.yul\":2773:2778   */\n      dup3\n        /* \"#utility.yul\":2741:2779   */\n      tag_40\n      jump\t// in\n    tag_81:\n        /* \"#utility.yul\":2795:2883   */\n      tag_82\n        /* \"#utility.yul\":2876:2882   */\n      dup2\n        /* \"#utility.yul\":2871:2874   */\n      dup6\n        /* \"#utility.yul\":2795:2883   */\n      tag_41\n      jump\t// in\n    tag_82:\n        /* \"#utility.yul\":2788:2883   */\n      swap4\n      pop\n        /* \"#utility.yul\":2892:2957   */\n      tag_83\n        /* \"#utility.yul\":2950:2956   */\n      dup2\n        /* \"#utility.yul\":2945:2948   */\n      dup6\n        /* \"#utility.yul\":2938:2942   */\n      0x20\n        /* \"#utility.yul\":2931:2936   */\n      dup7\n        /* \"#utility.yul\":2927:2943   */\n      add\n        /* \"#utility.yul\":2892:2957   */\n      tag_42\n      jump\t// in\n    tag_83:\n        /* \"#utility.yul\":2982:2988   */\n      dup1\n        /* \"#utility.yul\":2977:2980   */\n      dup5\n        /* \"#utility.yul\":2973:2989   */\n      add\n        /* \"#utility.yul\":2966:2989   */\n      swap2\n      pop\n        /* \"#utility.yul\":2717:2995   */\n      pop\n        /* \"#utility.yul\":2609:2995   */\n      swap3\n      swap2\n      pop\n      pop\n      jump\t// out\n        /* \"#utility.yul\":3001:3272   */\n    tag_20:\n        /* \"#utility.yul\":3131:3134   */\n      0x00\n        /* \"#utility.yul\":3153:3246   */\n      tag_85\n        /* \"#utility.yul\":3242:3245   */\n      dup3\n        /* \"#utility.yul\":3233:3239   */\n      dup5\n        /* \"#utility.yul\":3153:3246   */\n      tag_43\n      jump\t// in\n    tag_85:\n        /* \"#utility.yul\":3146:3246   */\n      swap2\n      pop\n        /* \"#utility.yul\":3263:3266   */\n      dup2\n        /* \"#utility.yul\":3256:3266   */\n      swap1\n      pop\n        /* \"#utility.yul\":3001:3272   */\n      swap3\n      swap2\n      pop\n      pop\n      jump\t// out\n        /* \"#utility.yul\":3278:3447   */\n    tag_44:\n        /* \"#utility.yul\":3362:3373   */\n      0x00\n        /* \"#utility.yul\":3396:3402   */\n      dup3\n        /* \"#utility.yul\":3391:3394   */\n      dup3\n        /* \"#utility.yul\":3384:3403   */\n      mstore\n        /* \"#utility.yul\":3436:3440   */\n      0x20\n        /* \"#utility.yul\":3431:3434   */\n      dup3\n        /* \"#utility.yul\":3427:3441   */\n      add\n        /* \"#utility.yul\":3412:3441   */\n      swap1\n      pop\n        /* \"#utility.yul\":3278:3447   */\n      swap3\n      swap2\n      pop\n      pop\n      jump\t// out\n        /* \"#utility.yul\":3453:3631   */\n    tag_45:\n        /* \"#utility.yul\":3593:3623   */\n      0x43616c6c20746f204f776e6572436f6e7472616374206661696c656400000000\n        /* \"#utility.yul\":3589:3590   */\n      0x00\n        /* \"#utility.yul\":3581:3587   */\n      dup3\n        /* \"#utility.yul\":3577:3591   */\n      add\n        /* \"#utility.yul\":3570:3624   */\n      mstore\n        /* \"#utility.yul\":3453:3631   */\n      pop\n      jump\t// out\n        /* \"#utility.yul\":3637:4003   */\n    tag_46:\n        /* \"#utility.yul\":3779:3782   */\n      0x00\n        /* \"#utility.yul\":3800:3867   */\n      tag_89\n        /* \"#utility.yul\":3864:3866   */\n      0x1c\n        /* \"#utility.yul\":3859:3862   */\n      dup4\n        /* \"#utility.yul\":3800:3867   */\n      tag_44\n      jump\t// in\n    tag_89:\n        /* \"#utility.yul\":3793:3867   */\n      swap2\n      pop\n        /* \"#utility.yul\":3876:3969   */\n      tag_90\n        /* \"#utility.yul\":3965:3968   */\n      dup3\n        /* \"#utility.yul\":3876:3969   */\n      tag_45\n      jump\t// in\n    tag_90:\n        /* \"#utility.yul\":3994:3996   */\n      0x20\n        /* \"#utility.yul\":3989:3992   */\n      dup3\n        /* \"#utility.yul\":3985:3997   */\n      add\n        /* \"#utility.yul\":3978:3997   */\n      swap1\n      pop\n        /* \"#utility.yul\":3637:4003   */\n      swap2\n      swap1\n      pop\n      jump\t// out\n        /* \"#utility.yul\":4009:4428   */\n    tag_26:\n        /* \"#utility.yul\":4175:4179   */\n      0x00\n        /* \"#utility.yul\":4213:4215   */\n      0x20\n        /* \"#utility.yul\":4202:4211   */\n      dup3\n        /* \"#utility.yul\":4198:4216   */\n      add\n        /* \"#utility.yul\":4190:4216   */\n      swap1\n      pop\n        /* \"#utility.yul\":4262:4271   */\n      dup2\n        /* \"#utility.yul\":4256:4260   */\n      dup2\n        /* \"#utility.yul\":4252:4272   */\n      sub\n        /* \"#utility.yul\":4248:4249   */\n      0x00\n        /* \"#utility.yul\":4237:4246   */\n      dup4\n        /* \"#utility.yul\":4233:4250   */\n      add\n        /* \"#utility.yul\":4226:4273   */\n      mstore\n        /* \"#utility.yul\":4290:4421   */\n      tag_92\n        /* \"#utility.yul\":4416:4420   */\n      dup2\n        /* \"#utility.yul\":4290:4421   */\n      tag_46\n      jump\t// in\n    tag_92:\n        /* \"#utility.yul\":4282:4421   */\n      swap1\n      pop\n        /* \"#utility.yul\":4009:4428   */\n      swap2\n      swap1\n      pop\n      jump\t// out\n        /* \"#utility.yul\":4434:4614   */\n    tag_47:\n        /* \"#utility.yul\":4482:4559   */\n      0x4e487b7100000000000000000000000000000000000000000000000000000000\n        /* \"#utility.yul\":4479:4480   */\n      0x00\n        /* \"#utility.yul\":4472:4560   */\n      mstore\n        /* \"#utility.yul\":4579:4583   */\n      0x11\n        /* \"#utility.yul\":4576:4577   */\n      0x04\n        /* \"#utility.yul\":4569:4584   */\n      mstore\n        /* \"#utility.yul\":4603:4607   */\n      0x24\n        /* \"#utility.yul\":4600:4601   */\n      0x00\n        /* \"#utility.yul\":4593:4608   */\n      revert\n        /* \"#utility.yul\":4620:4995   */\n    tag_29:\n        /* \"#utility.yul\":4659:4662   */\n      0x00\n        /* \"#utility.yul\":4678:4697   */\n      tag_95\n        /* \"#utility.yul\":4695:4696   */\n      dup3\n        /* \"#utility.yul\":4678:4697   */\n      tag_30\n      jump\t// in\n    tag_95:\n        /* \"#utility.yul\":4673:4697   */\n      swap2\n      pop\n        /* \"#utility.yul\":4711:4730   */\n      tag_96\n        /* \"#utility.yul\":4728:4729   */\n      dup4\n        /* \"#utility.yul\":4711:4730   */\n      tag_30\n      jump\t// in\n    tag_96:\n        /* \"#utility.yul\":4706:4730   */\n      swap3\n      pop\n        /* \"#utility.yul\":4753:4754   */\n      dup3\n        /* \"#utility.yul\":4750:4751   */\n      dup3\n        /* \"#utility.yul\":4746:4755   */\n      add\n        /* \"#utility.yul\":4739:4755   */\n      swap1\n      pop\n        /* \"#utility.yul\":4951:4952   */\n      dup3\n        /* \"#utility.yul\":4946:4949   */\n      dup2\n        /* \"#utility.yul\":4942:4953   */\n      slt\n        /* \"#utility.yul\":4935:4954   */\n      iszero\n        /* \"#utility.yul\":4931:4932   */\n      0x00\n        /* \"#utility.yul\":4928:4929   */\n      dup4\n        /* \"#utility.yul\":4924:4933   */\n      slt\n        /* \"#utility.yul\":4920:4955   */\n      and\n        /* \"#utility.yul\":4903:4904   */\n      dup4\n        /* \"#utility.yul\":4898:4901   */\n      dup3\n        /* \"#utility.yul\":4894:4905   */\n      slt\n        /* \"#utility.yul\":4889:4890   */\n      0x00\n        /* \"#utility.yul\":4886:4887   */\n      dup5\n        /* \"#utility.yul\":4882:4891   */\n      slt\n        /* \"#utility.yul\":4875:4892   */\n      iszero\n        /* \"#utility.yul\":4871:4906   */\n      and\n        /* \"#utility.yul\":4855:4965   */\n      or\n        /* \"#utility.yul\":4852:4988   */\n      iszero\n      tag_97\n      jumpi\n        /* \"#utility.yul\":4968:4986   */\n      tag_98\n      tag_47\n      jump\t// in\n    tag_98:\n        /* \"#utility.yul\":4852:4988   */\n    tag_97:\n        /* \"#utility.yul\":4620:4995   */\n      swap3\n      swap2\n      pop\n      pop\n      jump\t// out\n\n    auxdata: 0xa2646970667358221220626f2c788cabfaab6adc610b1f146b871b38ad702f930583cc4896e138b51fde64736f6c63430008160033\n}\n",
				"bytecode": {
					"linkReferences": {},
					"object": "608060405234801561000f575f80fd5b506104788061001d5f395ff3fe608060405234801561000f575f80fd5b506004361061003f575f3560e01c806306661abd14610043578063a6348c8014610061578063d09de08a1461007d575b5f80fd5b61004b610087565b60405161005891906101fd565b60405180910390f35b61007b60048036038101906100769190610274565b61008c565b005b6100856101cb565b005b5f5481565b5f8160405160240161009e91906102c1565b6040516020818303038152906040527f13af4035000000000000000000000000000000000000000000000000000000007bffffffffffffffffffffffffffffffffffffffffffffffffffffffff19166020820180517bffffffffffffffffffffffffffffffffffffffffffffffffffffffff838183161783525050505090505f8373ffffffffffffffffffffffffffffffffffffffff16826040516101439190610346565b5f604051808303815f865af19150503d805f811461017c576040519150601f19603f3d011682016040523d82523d5f602084013e610181565b606091505b50509050806101c5576040517f08c379a00000000000000000000000000000000000000000000000000000000081526004016101bc906103b6565b60405180910390fd5b50505050565b60015f808282546101dc9190610401565b92505081905550565b5f819050919050565b6101f7816101e5565b82525050565b5f6020820190506102105f8301846101ee565b92915050565b5f80fd5b5f73ffffffffffffffffffffffffffffffffffffffff82169050919050565b5f6102438261021a565b9050919050565b61025381610239565b811461025d575f80fd5b50565b5f8135905061026e8161024a565b92915050565b5f806040838503121561028a57610289610216565b5b5f61029785828601610260565b92505060206102a885828601610260565b9150509250929050565b6102bb81610239565b82525050565b5f6020820190506102d45f8301846102b2565b92915050565b5f81519050919050565b5f81905092915050565b5f5b8381101561030b5780820151818401526020810190506102f0565b5f8484015250505050565b5f610320826102da565b61032a81856102e4565b935061033a8185602086016102ee565b80840191505092915050565b5f6103518284610316565b915081905092915050565b5f82825260208201905092915050565b7f43616c6c20746f204f776e6572436f6e7472616374206661696c6564000000005f82015250565b5f6103a0601c8361035c565b91506103ab8261036c565b602082019050919050565b5f6020820190508181035f8301526103cd81610394565b9050919050565b7f4e487b71000000000000000000000000000000000000000000000000000000005f52601160045260245ffd5b5f61040b826101e5565b9150610416836101e5565b92508282019050828112155f8312168382125f84121516171561043c5761043b6103d4565b5b9291505056fea2646970667358221220626f2c788cabfaab6adc610b1f146b871b38ad702f930583cc4896e138b51fde64736f6c63430008160033",
					"opcodes": "PUSH1 0x80 PUSH1 0x40 MSTORE CALLVALUE DUP1 ISZERO PUSH2 0xF JUMPI PUSH0 DUP1 REVERT JUMPDEST POP PUSH2 0x478 DUP1 PUSH2 0x1D PUSH0 CODECOPY PUSH0 RETURN INVALID PUSH1 0x80 PUSH1 0x40 MSTORE CALLVALUE DUP1 ISZERO PUSH2 0xF JUMPI PUSH0 DUP1 REVERT JUMPDEST POP PUSH1 0x4 CALLDATASIZE LT PUSH2 0x3F JUMPI PUSH0 CALLDATALOAD PUSH1 0xE0 SHR DUP1 PUSH4 0x6661ABD EQ PUSH2 0x43 JUMPI DUP1 PUSH4 0xA6348C80 EQ PUSH2 0x61 JUMPI DUP1 PUSH4 0xD09DE08A EQ PUSH2 0x7D JUMPI JUMPDEST PUSH0 DUP1 REVERT JUMPDEST PUSH2 0x4B PUSH2 0x87 JUMP JUMPDEST PUSH1 0x40 MLOAD PUSH2 0x58 SWAP2 SWAP1 PUSH2 0x1FD JUMP JUMPDEST PUSH1 0x40 MLOAD DUP1 SWAP2 SUB SWAP1 RETURN JUMPDEST PUSH2 0x7B PUSH1 0x4 DUP1 CALLDATASIZE SUB DUP2 ADD SWAP1 PUSH2 0x76 SWAP2 SWAP1 PUSH2 0x274 JUMP JUMPDEST PUSH2 0x8C JUMP JUMPDEST STOP JUMPDEST PUSH2 0x85 PUSH2 0x1CB JUMP JUMPDEST STOP JUMPDEST PUSH0 SLOAD DUP2 JUMP JUMPDEST PUSH0 DUP2 PUSH1 0x40 MLOAD PUSH1 0x24 ADD PUSH2 0x9E SWAP2 SWAP1 PUSH2 0x2C1 JUMP JUMPDEST PUSH1 0x40 MLOAD PUSH1 0x20 DUP2 DUP4 SUB SUB DUP2 MSTORE SWAP1 PUSH1 0x40 MSTORE PUSH32 0x13AF403500000000000000000000000000000000000000000000000000000000 PUSH28 0xFFFFFFFFFFFFFFFFFFFFFFFFFFFFFFFFFFFFFFFFFFFFFFFFFFFFFFFF NOT AND PUSH1 0x20 DUP3 ADD DUP1 MLOAD PUSH28 0xFFFFFFFFFFFFFFFFFFFFFFFFFFFFFFFFFFFFFFFFFFFFFFFFFFFFFFFF DUP4 DUP2 DUP4 AND OR DUP4 MSTORE POP POP POP POP SWAP1 POP PUSH0 DUP4 PUSH20 0xFFFFFFFFFFFFFFFFFFFFFFFFFFFFFFFFFFFFFFFF AND DUP3 PUSH1 0x40 MLOAD PUSH2 0x143 SWAP2 SWAP1 PUSH2 0x346 JUMP JUMPDEST PUSH0 PUSH1 0x40 MLOAD DUP1 DUP4 SUB DUP2 PUSH0 DUP7 GAS CALL SWAP2 POP POP RETURNDATASIZE DUP1 PUSH0 DUP2 EQ PUSH2 0x17C JUMPI PUSH1 0x40 MLOAD SWAP2 POP PUSH1 0x1F NOT PUSH1 0x3F RETURNDATASIZE ADD AND DUP3 ADD PUSH1 0x40 MSTORE RETURNDATASIZE DUP3 MSTORE RETURNDATASIZE PUSH0 PUSH1 0x20 DUP5 ADD RETURNDATACOPY PUSH2 0x181 JUMP JUMPDEST PUSH1 0x60 SWAP2 POP JUMPDEST POP POP SWAP1 POP DUP1 PUSH2 0x1C5 JUMPI PUSH1 0x40 MLOAD PUSH32 0x8C379A000000000000000000000000000000000000000000000000000000000 DUP2 MSTORE PUSH1 0x4 ADD PUSH2 0x1BC SWAP1 PUSH2 0x3B6 JUMP JUMPDEST PUSH1 0x40 MLOAD DUP1 SWAP2 SUB SWAP1 REVERT JUMPDEST POP POP POP POP JUMP JUMPDEST PUSH1 0x1 PUSH0 DUP1 DUP3 DUP3 SLOAD PUSH2 0x1DC SWAP2 SWAP1 PUSH2 0x401 JUMP JUMPDEST SWAP3 POP POP DUP2 SWAP1 SSTORE POP JUMP JUMPDEST PUSH0 DUP2 SWAP1 POP SWAP2 SWAP1 POP JUMP JUMPDEST PUSH2 0x1F7 DUP2 PUSH2 0x1E5 JUMP JUMPDEST DUP3 MSTORE POP POP JUMP JUMPDEST PUSH0 PUSH1 0x20 DUP3 ADD SWAP1 POP PUSH2 0x210 PUSH0 DUP4 ADD DUP5 PUSH2 0x1EE JUMP JUMPDEST SWAP3 SWAP2 POP POP JUMP JUMPDEST PUSH0 DUP1 REVERT JUMPDEST PUSH0 PUSH20 0xFFFFFFFFFFFFFFFFFFFFFFFFFFFFFFFFFFFFFFFF DUP3 AND SWAP1 POP SWAP2 SWAP1 POP JUMP JUMPDEST PUSH0 PUSH2 0x243 DUP3 PUSH2 0x21A JUMP JUMPDEST SWAP1 POP SWAP2 SWAP1 POP JUMP JUMPDEST PUSH2 0x253 DUP2 PUSH2 0x239 JUMP JUMPDEST DUP2 EQ PUSH2 0x25D JUMPI PUSH0 DUP1 REVERT JUMPDEST POP JUMP JUMPDEST PUSH0 DUP2 CALLDATALOAD SWAP1 POP PUSH2 0x26E DUP2 PUSH2 0x24A JUMP JUMPDEST SWAP3 SWAP2 POP POP JUMP JUMPDEST PUSH0 DUP1 PUSH1 0x40 DUP4 DUP6 SUB SLT ISZERO PUSH2 0x28A JUMPI PUSH2 0x289 PUSH2 0x216 JUMP JUMPDEST JUMPDEST PUSH0 PUSH2 0x297 DUP6 DUP3 DUP7 ADD PUSH2 0x260 JUMP JUMPDEST SWAP3 POP POP PUSH1 0x20 PUSH2 0x2A8 DUP6 DUP3 DUP7 ADD PUSH2 0x260 JUMP JUMPDEST SWAP2 POP POP SWAP3 POP SWAP3 SWAP1 POP JUMP JUMPDEST PUSH2 0x2BB DUP2 PUSH2 0x239 JUMP JUMPDEST DUP3 MSTORE POP POP JUMP JUMPDEST PUSH0 PUSH1 0x20 DUP3 ADD SWAP1 POP PUSH2 0x2D4 PUSH0 DUP4 ADD DUP5 PUSH2 0x2B2 JUMP JUMPDEST SWAP3 SWAP2 POP POP JUMP JUMPDEST PUSH0 DUP2 MLOAD SWAP1 POP SWAP2 SWAP1 POP JUMP JUMPDEST PUSH0 DUP2 SWAP1 POP SWAP3 SWAP2 POP POP JUMP JUMPDEST PUSH0 JUMPDEST DUP4 DUP2 LT ISZERO PUSH2 0x30B JUMPI DUP1 DUP3 ADD MLOAD DUP2 DUP5 ADD MSTORE PUSH1 0x20 DUP2 ADD SWAP1 POP PUSH2 0x2F0 JUMP JUMPDEST PUSH0 DUP5 DUP5 ADD MSTORE POP POP POP POP JUMP JUMPDEST PUSH0 PUSH2 0x320 DUP3 PUSH2 0x2DA JUMP JUMPDEST PUSH2 0x32A DUP2 DUP6 PUSH2 0x2E4 JUMP JUMPDEST SWAP4 POP PUSH2 0x33A DUP2 DUP6 PUSH1 0x20 DUP7 ADD PUSH2 0x2EE JUMP JUMPDEST DUP1 DUP5 ADD SWAP2 POP POP SWAP3 SWAP2 POP POP JUMP JUMPDEST PUSH0 PUSH2 0x351 DUP3 DUP5 PUSH2 0x316 JUMP JUMPDEST SWAP2 POP DUP2 SWAP1 POP SWAP3 SWAP2 POP POP JUMP JUMPDEST PUSH0 DUP3 DUP3 MSTORE PUSH1 0x20 DUP3 ADD SWAP1 POP SWAP3 SWAP2 POP POP JUMP JUMPDEST PUSH32 0x43616C6C20746F204F776E6572436F6E7472616374206661696C656400000000 PUSH0 DUP3 ADD MSTORE POP JUMP JUMPDEST PUSH0 PUSH2 0x3A0 PUSH1 0x1C DUP4 PUSH2 0x35C JUMP JUMPDEST SWAP2 POP PUSH2 0x3AB DUP3 PUSH2 0x36C JUMP JUMPDEST PUSH1 0x20 DUP3 ADD SWAP1 POP SWAP2 SWAP1 POP JUMP JUMPDEST PUSH0 PUSH1 0x20 DUP3 ADD SWAP1 POP DUP2 DUP2 SUB PUSH0 DUP4 ADD MSTORE PUSH2 0x3CD DUP2 PUSH2 0x394 JUMP JUMPDEST SWAP1 POP SWAP2 SWAP1 POP JUMP JUMPDEST PUSH32 0x4E487B7100000000000000000000000000000000000000000000000000000000 PUSH0 MSTORE PUSH1 0x11 PUSH1 0x4 MSTORE PUSH1 0x24 PUSH0 REVERT JUMPDEST PUSH0 PUSH2 0x40B DUP3 PUSH2 0x1E5 JUMP JUMPDEST SWAP2 POP PUSH2 0x416 DUP4 PUSH2 0x1E5 JUMP JUMPDEST SWAP3 POP DUP3 DUP3 ADD SWAP1 POP DUP3 DUP2 SLT ISZERO PUSH0 DUP4 SLT AND DUP4 DUP3 SLT PUSH0 DUP5 SLT ISZERO AND OR ISZERO PUSH2 0x43C JUMPI PUSH2 0x43B PUSH2 0x3D4 JUMP JUMPDEST JUMPDEST SWAP3 SWAP2 POP POP JUMP INVALID LOG2 PUSH5 0x6970667358 0x22 SLT KECCAK256 PUSH3 0x6F2C78 DUP13 0xAB STATICCALL 0xAB PUSH11 0xDC610B1F146B871B38AD70 0x2F SWAP4 SDIV DUP4 0xCC BASEFEE SWAP7 0xE1 CODESIZE 0xB5 0x1F 0xDE PUSH5 0x736F6C6343 STOP ADDMOD AND STOP CALLER "
				},
				"gasEstimates": {
					"creation": {
						"codeDepositCost": "228800",
						"executionCost": "267",
						"totalCost": "229067"
					},
					"external": {
						"count()": "2402",
						"increment()": "infinite",
						"updateOwner(address,address)": "infinite"
					}
				},
				"methodIdentifiers": {
					"count()": "06661abd",
					"increment()": "d09de08a",
					"updateOwner(address,address)": "a6348c80"
				}
			},
			"storageLayout": {
				"storage": [
					{
						"astId": 3,
						"contract": "BaseContract.sol:BaseContract",
						"label": "count",
						"offset": 0,
						"slot": "0",
						"type": "t_int256"
					}
				],
				"types": {
					"t_int256": {
						"encoding": "inplace",
						"label": "int256",
						"numberOfBytes": "32"
					}
				}
			},
			"userdoc": {
				"kind": "user",
				"methods": {},
				"version": 1
			}
		}
	}
}