{
  "_format": "hh-sol-artifact-1",
  "contractName": "MyOZToken",
  "sourceName": "contracts/practice-module-2/MyOZToken.sol",
  "abi": [
    {
      "inputs": [],
      "stateMutability": "nonpayable",
      "type": "constructor"
    },
    {
      "inputs": [
        {
          "internalType": "address",
          "name": "spender",
          "type": "address"
        },
        {
          "internalType": "uint256",
          "name": "allowance",
          "type": "uint256"
        },
        {
          "internalType": "uint256",
          "name": "needed",
          "type": "uint256"
        }
      ],
      "name": "ERC20InsufficientAllowance",
      "type": "error"
    },
    {
      "inputs": [
        {
          "internalType": "address",
          "name": "sender",
          "type": "address"
        },
        {
          "internalType": "uint256",
          "name": "balance",
          "type": "uint256"
        },
        {
          "internalType": "uint256",
          "name": "needed",
          "type": "uint256"
        }
      ],
      "name": "ERC20InsufficientBalance",
      "type": "error"
    },
    {
      "inputs": [
        {
          "internalType": "address",
          "name": "approver",
          "type": "address"
        }
      ],
      "name": "ERC20InvalidApprover",
      "type": "error"
    },
    {
      "inputs": [
        {
          "internalType": "address",
          "name": "receiver",
          "type": "address"
        }
      ],
      "name": "ERC20InvalidReceiver",
      "type": "error"
    },
    {
      "inputs": [
        {
          "internalType": "address",
          "name": "sender",
          "type": "address"
        }
      ],
      "name": "ERC20InvalidSender",
      "type": "error"
    },
    {
      "inputs": [
        {
          "internalType": "address",
          "name": "spender",
          "type": "address"
        }
      ],
      "name": "ERC20InvalidSpender",
      "type": "error"
    },
    {
      "inputs": [
        {
          "internalType": "address",
          "name": "owner",
          "type": "address"
        }
      ],
      "name": "OwnableInvalidOwner",
      "type": "error"
    },
    {
      "inputs": [
        {
          "internalType": "address",
          "name": "account",
          "type": "address"
        }
      ],
      "name": "OwnableUnauthorizedAccount",
      "type": "error"
    },
    {
      "anonymous": false,
      "inputs": [
        {
          "indexed": true,
          "internalType": "address",
          "name": "owner",
          "type": "address"
        },
        {
          "indexed": true,
          "internalType": "address",
          "name": "spender",
          "type": "address"
        },
        {
          "indexed": false,
          "internalType": "uint256",
          "name": "value",
          "type": "uint256"
        }
      ],
      "name": "Approval",
      "type": "event"
    },
    {
      "anonymous": false,
      "inputs": [
        {
          "indexed": true,
          "internalType": "address",
          "name": "previousOwner",
          "type": "address"
        },
        {
          "indexed": true,
          "internalType": "address",
          "name": "newOwner",
          "type": "address"
        }
      ],
      "name": "OwnershipTransferred",
      "type": "event"
    },
    {
      "anonymous": false,
      "inputs": [
        {
          "indexed": true,
          "internalType": "address",
          "name": "from",
          "type": "address"
        },
        {
          "indexed": true,
          "internalType": "address",
          "name": "to",
          "type": "address"
        },
        {
          "indexed": false,
          "internalType": "uint256",
          "name": "value",
          "type": "uint256"
        }
      ],
      "name": "Transfer",
      "type": "event"
    },
    {
      "inputs": [
        {
          "internalType": "address",
          "name": "owner",
          "type": "address"
        },
        {
          "internalType": "address",
          "name": "spender",
          "type": "address"
        }
      ],
      "name": "allowance",
      "outputs": [
        {
          "internalType": "uint256",
          "name": "",
          "type": "uint256"
        }
      ],
      "stateMutability": "view",
      "type": "function"
    },
    {
      "inputs": [
        {
          "internalType": "address",
          "name": "spender",
          "type": "address"
        },
        {
          "internalType": "uint256",
          "name": "value",
          "type": "uint256"
        }
      ],
      "name": "approve",
      "outputs": [
        {
          "internalType": "bool",
          "name": "",
          "type": "bool"
        }
      ],
      "stateMutability": "nonpayable",
      "type": "function"
    },
    {
      "inputs": [
        {
          "internalType": "address",
          "name": "account",
          "type": "address"
        }
      ],
      "name": "balanceOf",
      "outputs": [
        {
          "internalType": "uint256",
          "name": "",
          "type": "uint256"
        }
      ],
      "stateMutability": "view",
      "type": "function"
    },
    {
      "inputs": [],
      "name": "burnTokens",
      "outputs": [],
      "stateMutability": "nonpayable",
      "type": "function"
    },
    {
      "inputs": [],
      "name": "decimals",
      "outputs": [
        {
          "internalType": "uint8",
          "name": "",
          "type": "uint8"
        }
      ],
      "stateMutability": "view",
      "type": "function"
    },
    {
      "inputs": [],
      "name": "name",
      "outputs": [
        {
          "internalType": "string",
          "name": "",
          "type": "string"
        }
      ],
      "stateMutability": "view",
      "type": "function"
    },
    {
      "inputs": [],
      "name": "owner",
      "outputs": [
        {
          "internalType": "address",
          "name": "",
          "type": "address"
        }
      ],
      "stateMutability": "view",
      "type": "function"
    },
    {
      "inputs": [],
      "name": "renounceOwnership",
      "outputs": [],
      "stateMutability": "nonpayable",
      "type": "function"
    },
    {
      "inputs": [],
      "name": "symbol",
      "outputs": [
        {
          "internalType": "string",
          "name": "",
          "type": "string"
        }
      ],
      "stateMutability": "view",
      "type": "function"
    },
    {
      "inputs": [],
      "name": "totalSupply",
      "outputs": [
        {
          "internalType": "uint256",
          "name": "",
          "type": "uint256"
        }
      ],
      "stateMutability": "view",
      "type": "function"
    },
    {
      "inputs": [
        {
          "internalType": "address",
          "name": "to",
          "type": "address"
        },
        {
          "internalType": "uint256",
          "name": "value",
          "type": "uint256"
        }
      ],
      "name": "transfer",
      "outputs": [
        {
          "internalType": "bool",
          "name": "",
          "type": "bool"
        }
      ],
      "stateMutability": "nonpayable",
      "type": "function"
    },
    {
      "inputs": [
        {
          "internalType": "address",
          "name": "from",
          "type": "address"
        },
        {
          "internalType": "address",
          "name": "to",
          "type": "address"
        },
        {
          "internalType": "uint256",
          "name": "value",
          "type": "uint256"
        }
      ],
      "name": "transferFrom",
      "outputs": [
        {
          "internalType": "bool",
          "name": "",
          "type": "bool"
        }
      ],
      "stateMutability": "nonpayable",
      "type": "function"
    },
    {
      "inputs": [
        {
          "internalType": "address",
          "name": "newOwner",
          "type": "address"
        }
      ],
      "name": "transferOwnership",
      "outputs": [],
      "stateMutability": "nonpayable",
      "type": "function"
    }
  ],
  "bytecode": "0x608060405234801561000f575f80fd5b50336040518060400160405280600881526020016726bc902a37b5b2b760c11b8152506040518060400160405280600381526020016213565560ea1b815250816003908161005d9190610305565b50600461006a8282610305565b5050506001600160a01b03811661009b57604051631e4fbdf760e01b81525f60048201526024015b60405180910390fd5b6100a4816100be565b506100b93369d3c21bcecceda100000061010f565b6103e4565b600580546001600160a01b038381166001600160a01b0319831681179093556040519116919082907f8be0079c531659141344cd1fd0a4f28419497f9722a3daafe3b4186f6b6457e0905f90a35050565b6001600160a01b0382166101385760405163ec442f0560e01b81525f6004820152602401610092565b6101435f8383610147565b5050565b6001600160a01b038316610171578060025f82825461016691906103bf565b909155506101e19050565b6001600160a01b0383165f90815260208190526040902054818110156101c35760405163391434e360e21b81526001600160a01b03851660048201526024810182905260448101839052606401610092565b6001600160a01b0384165f9081526020819052604090209082900390555b6001600160a01b0382166101fd5760028054829003905561021b565b6001600160a01b0382165f9081526020819052604090208054820190555b816001600160a01b0316836001600160a01b03167fddf252ad1be2c89b69c2b068fc378daa952ba7f163c4a11628f55a4df523b3ef8360405161026091815260200190565b60405180910390a3505050565b634e487b7160e01b5f52604160045260245ffd5b600181811c9082168061029557607f821691505b6020821081036102b357634e487b7160e01b5f52602260045260245ffd5b50919050565b601f82111561030057805f5260205f20601f840160051c810160208510156102de5750805b601f840160051c820191505b818110156102fd575f81556001016102ea565b50505b505050565b81516001600160401b0381111561031e5761031e61026d565b6103328161032c8454610281565b846102b9565b6020601f821160018114610364575f831561034d5750848201515b5f19600385901b1c1916600184901b1784556102fd565b5f84815260208120601f198516915b828110156103935787850151825560209485019460019092019101610373565b50848210156103b057868401515f19600387901b60f8161c191681555b50505050600190811b01905550565b808201808211156103de57634e487b7160e01b5f52601160045260245ffd5b92915050565b6109f7806103f15f395ff3fe608060405234801561000f575f80fd5b50600436106100da575f3560e01c806370a082311161008857806395d89b411161006357806395d89b41146101a8578063a9059cbb146101b0578063dd62ed3e146101c3578063f2fde38b146101fb575f80fd5b806370a082311461015d578063715018a6146101855780638da5cb5b1461018d575f80fd5b806318160ddd116100b857806318160ddd1461012957806323b872dd1461013b578063313ce5671461014e575f80fd5b806306fdde03146100de57806308003f78146100fc578063095ea7b314610106575b5f80fd5b6100e661020e565b6040516100f39190610817565b60405180910390f35b61010461029e565b005b610119610114366004610885565b6102bc565b60405190151581526020016100f3565b6002545b6040519081526020016100f3565b6101196101493660046108ad565b6102d5565b604051601281526020016100f3565b61012d61016b3660046108e7565b6001600160a01b03165f9081526020819052604090205490565b6101046102f8565b6005546040516001600160a01b0390911681526020016100f3565b6100e6610309565b6101196101be366004610885565b610318565b61012d6101d1366004610907565b6001600160a01b039182165f90815260016020908152604080832093909416825291909152205490565b6101046102093660046108e7565b610325565b60606003805461021d90610938565b80601f016020809104026020016040519081016040528092919081815260200182805461024990610938565b80156102945780601f1061026b57610100808354040283529160200191610294565b820191905f5260205f20905b81548152906001019060200180831161027757829003601f168201915b5050505050905090565b6102a6610380565b6102ba336969e10de76676d08000006103c6565b565b5f336102c9818585610417565b60019150505b92915050565b5f336102e2858285610429565b6102ed8585856104dc565b506001949350505050565b610300610380565b6102ba5f61056b565b60606004805461021d90610938565b5f336102c98185856104dc565b61032d610380565b6001600160a01b038116610374576040517f1e4fbdf70000000000000000000000000000000000000000000000000000000081525f60048201526024015b60405180910390fd5b61037d8161056b565b50565b6005546001600160a01b031633146102ba576040517f118cdaa700000000000000000000000000000000000000000000000000000000815233600482015260240161036b565b6001600160a01b038216610408576040517f96c6fd1e0000000000000000000000000000000000000000000000000000000081525f600482015260240161036b565b610413825f836105d4565b5050565b6104248383836001610713565b505050565b6001600160a01b038381165f908152600160209081526040808320938616835292905220547fffffffffffffffffffffffffffffffffffffffffffffffffffffffffffffffff81146104d657818110156104c8576040517ffb8f41b20000000000000000000000000000000000000000000000000000000081526001600160a01b0384166004820152602481018290526044810183905260640161036b565b6104d684848484035f610713565b50505050565b6001600160a01b03831661051e576040517f96c6fd1e0000000000000000000000000000000000000000000000000000000081525f600482015260240161036b565b6001600160a01b038216610560576040517fec442f050000000000000000000000000000000000000000000000000000000081525f600482015260240161036b565b6104248383836105d4565b600580546001600160a01b038381167fffffffffffffffffffffffff0000000000000000000000000000000000000000831681179093556040519116919082907f8be0079c531659141344cd1fd0a4f28419497f9722a3daafe3b4186f6b6457e0905f90a35050565b6001600160a01b0383166105fe578060025f8282546105f39190610989565b909155506106879050565b6001600160a01b0383165f9081526020819052604090205481811015610669576040517fe450d38c0000000000000000000000000000000000000000000000000000000081526001600160a01b0385166004820152602481018290526044810183905260640161036b565b6001600160a01b0384165f9081526020819052604090209082900390555b6001600160a01b0382166106a3576002805482900390556106c1565b6001600160a01b0382165f9081526020819052604090208054820190555b816001600160a01b0316836001600160a01b03167fddf252ad1be2c89b69c2b068fc378daa952ba7f163c4a11628f55a4df523b3ef8360405161070691815260200190565b60405180910390a3505050565b6001600160a01b038416610755576040517fe602df050000000000000000000000000000000000000000000000000000000081525f600482015260240161036b565b6001600160a01b038316610797576040517f94280d620000000000000000000000000000000000000000000000000000000081525f600482015260240161036b565b6001600160a01b038085165f90815260016020908152604080832093871683529290522082905580156104d657826001600160a01b0316846001600160a01b03167f8c5be1e5ebec7d5bd14f71427d1e84f3dd0314c0f7b2291e5b200ac8c7c3b9258460405161080991815260200190565b60405180910390a350505050565b602081525f82518060208401528060208501604085015e5f6040828501015260407fffffffffffffffffffffffffffffffffffffffffffffffffffffffffffffffe0601f83011684010191505092915050565b80356001600160a01b0381168114610880575f80fd5b919050565b5f8060408385031215610896575f80fd5b61089f8361086a565b946020939093013593505050565b5f805f606084860312156108bf575f80fd5b6108c88461086a565b92506108d66020850161086a565b929592945050506040919091013590565b5f602082840312156108f7575f80fd5b6109008261086a565b9392505050565b5f8060408385031215610918575f80fd5b6109218361086a565b915061092f6020840161086a565b90509250929050565b600181811c9082168061094c57607f821691505b602082108103610983577f4e487b71000000000000000000000000000000000000000000000000000000005f52602260045260245ffd5b50919050565b808201808211156102cf577f4e487b71000000000000000000000000000000000000000000000000000000005f52601160045260245ffdfea2646970667358221220efc06864ccd55d4a585a1e12e08279f05185b53fb87b4b5a0cd5eb7ad299902664736f6c634300081a0033",
  "linkReferences": {},
  "deployedLinkReferences": {}
}