{
  "_format": "hh-sol-artifact-1",
  "contractName": "IncrementWithThreshold",
  "sourceName": "contracts/PracticeJunior/IncrementWithThreshold.sol",
  "abi": [
    {
      "inputs": [
        {
          "internalType": "uint256",
          "name": "_value",
          "type": "uint256"
        },
        {
          "internalType": "uint256",
          "name": "_threshold",
          "type": "uint256"
        }
      ],
      "stateMutability": "nonpayable",
      "type": "constructor"
    },
    {
      "anonymous": false,
      "inputs": [
        {
          "indexed": false,
          "internalType": "uint256",
          "name": "newValue",
          "type": "uint256"
        }
      ],
      "name": "ValueIncremented",
      "type": "event"
    },
    {
      "inputs": [],
      "name": "getValue",
      "outputs": [
        {
          "internalType": "uint256",
          "name": "",
          "type": "uint256"
        }
      ],
      "stateMutability": "view",
      "type": "function"
    },
    {
      "inputs": [],
      "name": "increment",
      "outputs": [],
      "stateMutability": "nonpayable",
      "type": "function"
    },
    {
      "inputs": [
        {
          "internalType": "uint256",
          "name": "newThreshold",
          "type": "uint256"
        }
      ],
      "name": "setNewThreshold",
      "outputs": [],
      "stateMutability": "nonpayable",
      "type": "function"
    },
    {
      "inputs": [],
      "name": "threshold",
      "outputs": [
        {
          "internalType": "uint256",
          "name": "",
          "type": "uint256"
        }
      ],
      "stateMutability": "view",
      "type": "function"
    }
  ],
  "bytecode": "0x608060405234801561001057600080fd5b5060405161026d38038061026d83398101604081905261002f9161003d565b600091909155600155610061565b6000806040838503121561005057600080fd5b505080516020909101519092909150565b6101fd806100706000396000f3fe608060405234801561001057600080fd5b506004361061004c5760003560e01c8063209652551461005157806342cde4e814610067578063d09de08a14610070578063e077f6561461007a575b600080fd5b6000545b60405190815260200160405180910390f35b61005560015481565b61007861008d565b005b61007861008836600461014f565b600155565b600154600054106100fe576040517f08c379a000000000000000000000000000000000000000000000000000000000815260206004820152601f60248201527f56616c756520686173207265616368656420746865207468726573686f6c6400604482015260640160405180910390fd5b60008054908061010d83610168565b91905055507fc8a7fc4cfa989096cf36e066e6c623624d76311b81dfc4cb4729dcaa383512de60005460405161014591815260200190565b60405180910390a1565b60006020828403121561016157600080fd5b5035919050565b60007fffffffffffffffffffffffffffffffffffffffffffffffffffffffffffffffff82036101c0577f4e487b7100000000000000000000000000000000000000000000000000000000600052601160045260246000fd5b506001019056fea264697066735822122004bf9bde819c261e5771d64d956485f9e6f54c5338cfdc93621c5299bb9bce6a64736f6c63430008140033",
  "linkReferences": {},
  "deployedLinkReferences": {}
}