{
  "_format": "hh-sol-artifact-1",
  "contractName": "LessonExternalLibrary",
  "sourceName": "contracts/PracticeModule1/LessonExternalLibrary.sol",
  "abi": [
    {
      "inputs": [
        {
          "internalType": "uint256",
          "name": "a",
          "type": "uint256"
        },
        {
          "internalType": "uint256",
          "name": "b",
          "type": "uint256"
        }
      ],
      "name": "substract",
      "outputs": [
        {
          "internalType": "uint256",
          "name": "",
          "type": "uint256"
        }
      ],
      "stateMutability": "pure",
      "type": "function"
    }
  ],
  "bytecode": "0x61016c610034600b8282823980515f1a607314602857634e487b7160e01b5f525f60045260245ffd5b305f52607381538281f3fe7300000000000000000000000000000000000000003014608060405260043610610034575f3560e01c80635d4e1e5c14610038575b5f80fd5b61004b6100463660046100de565b61005d565b60405190815260200160405180910390f35b5f8183116100cb576040517f08c379a000000000000000000000000000000000000000000000000000000000815260206004820152601560248201527f5375627472616374696f6e20756e646572666c6f770000000000000000000000604482015260640160405180910390fd5b6100d582846100fe565b90505b92915050565b5f80604083850312156100ef575f80fd5b50508035926020909101359150565b818103818111156100d8577f4e487b71000000000000000000000000000000000000000000000000000000005f52601160045260245ffdfea264697066735822122064738cd4c2c35bdacc7db2cee7e2dd906a2b052499ba29d0e680c74c557427d064736f6c634300081a0033",
  "linkReferences": {},
  "deployedLinkReferences": {}
}