{
  "_format": "hh-sol-artifact-1",
  "contractName": "Error",
  "sourceName": "contracts/practice-module-1/LessonError.sol",
  "abi": [
    {
      "inputs": [
        {
          "internalType": "uint256",
          "name": "balance",
          "type": "uint256"
        },
        {
          "internalType": "uint256",
          "name": "withdrawAmount",
          "type": "uint256"
        }
      ],
      "name": "InsufficientBalance",
      "type": "error"
    },
    {
      "inputs": [],
      "name": "num",
      "outputs": [
        {
          "internalType": "uint256",
          "name": "",
          "type": "uint256"
        }
      ],
      "stateMutability": "view",
      "type": "function"
    },
    {
      "inputs": [],
      "name": "testAssert",
      "outputs": [],
      "stateMutability": "view",
      "type": "function"
    },
    {
      "inputs": [
        {
          "internalType": "uint256",
          "name": "_withdrawAmount",
          "type": "uint256"
        }
      ],
      "name": "testCustomError",
      "outputs": [],
      "stateMutability": "view",
      "type": "function"
    },
    {
      "inputs": [
        {
          "internalType": "uint256",
          "name": "_i",
          "type": "uint256"
        }
      ],
      "name": "testRequire",
      "outputs": [],
      "stateMutability": "pure",
      "type": "function"
    },
    {
      "inputs": [
        {
          "internalType": "uint256",
          "name": "_i",
          "type": "uint256"
        }
      ],
      "name": "testRevert",
      "outputs": [],
      "stateMutability": "pure",
      "type": "function"
    }
  ],
  "bytecode": "0x6080604052348015600e575f80fd5b506101f88061001c5f395ff3fe608060405234801561000f575f80fd5b5060043610610064575f3560e01c80634e70b1dc1161004d5780634e70b1dc1461008557806375f7286c1461009f578063b8bd717f14610068575f80fd5b806320987767146100685780632b813bc01461007d575b5f80fd5b61007b61007636600461017e565b6100b2565b005b61007b610124565b61008d5f5481565b60405190815260200160405180910390f35b61007b6100ad36600461017e565b610135565b600a8111610121576040517f08c379a000000000000000000000000000000000000000000000000000000000815260206004820152601d60248201527f496e707574206d7573742062652067726561746572207468616e20313000000060448201526064015b60405180910390fd5b50565b5f541561013357610133610195565b565b478181101561017a576040517fcf4791810000000000000000000000000000000000000000000000000000000081526004810182905260248101839052604401610118565b5050565b5f6020828403121561018e575f80fd5b5035919050565b7f4e487b71000000000000000000000000000000000000000000000000000000005f52600160045260245ffdfea2646970667358221220018d7c95496bf9c72a9e5a18839feb1a5784b2eedb6b480c7a69101bdde54d1d64736f6c634300081a0033",
  "linkReferences": {},
  "deployedLinkReferences": {}
}