{
  "_format": "hh-sol-artifact-1",
  "contractName": "Delegate",
  "sourceName": "contracts/PracticeModule1/LessonDelegateCall.sol",
  "abi": [
    {
      "inputs": [],
      "name": "delegate",
      "outputs": [
        {
          "internalType": "address",
          "name": "",
          "type": "address"
        }
      ],
      "stateMutability": "view",
      "type": "function"
    },
    {
      "inputs": [],
      "name": "num",
      "outputs": [
        {
          "internalType": "uint256",
          "name": "",
          "type": "uint256"
        }
      ],
      "stateMutability": "view",
      "type": "function"
    },
    {
      "inputs": [],
      "name": "seneder",
      "outputs": [
        {
          "internalType": "address",
          "name": "",
          "type": "address"
        }
      ],
      "stateMutability": "view",
      "type": "function"
    },
    {
      "inputs": [
        {
          "internalType": "uint256",
          "name": "_num",
          "type": "uint256"
        }
      ],
      "name": "setVars",
      "outputs": [],
      "stateMutability": "nonpayable",
      "type": "function"
    }
  ],
  "bytecode": "0x6080604052348015600e575f80fd5b506101598061001c5f395ff3fe608060405234801561000f575f80fd5b506004361061004a575f3560e01c80634e70b1dc1461004e5780636466414b14610069578063c89e4361146100a7578063f2c8c9ec146100ec575b5f80fd5b6100565f5481565b6040519081526020015b60405180910390f35b6100a561007736600461010c565b5f55600180547fffffffffffffffffffffffff00000000000000000000000000000000000000001633179055565b005b6002546100c79073ffffffffffffffffffffffffffffffffffffffff1681565b60405173ffffffffffffffffffffffffffffffffffffffff9091168152602001610060565b6001546100c79073ffffffffffffffffffffffffffffffffffffffff1681565b5f6020828403121561011c575f80fd5b503591905056fea2646970667358221220759597edc16a6318395e7ff5c82c124ccb4ede89a34ea8410fc6379a1d0b26a364736f6c634300081a0033",
  "linkReferences": {},
  "deployedLinkReferences": {}
}