{
  "_format": "hh-sol-artifact-1",
  "contractName": "Delegate",
  "sourceName": "contracts/PracticeModule1/LessonDelegateCall.sol",
  "abi": [
    {
      "inputs": [],
      "name": "delegate",
      "outputs": [
        {
          "internalType": "address",
          "name": "",
          "type": "address"
        }
      ],
      "stateMutability": "view",
      "type": "function"
    },
    {
      "inputs": [],
      "name": "num",
      "outputs": [
        {
          "internalType": "uint256",
          "name": "",
          "type": "uint256"
        }
      ],
      "stateMutability": "view",
      "type": "function"
    },
    {
      "inputs": [],
      "name": "seneder",
      "outputs": [
        {
          "internalType": "address",
          "name": "",
          "type": "address"
        }
      ],
      "stateMutability": "view",
      "type": "function"
    },
    {
      "inputs": [
        {
          "internalType": "uint256",
          "name": "_num",
          "type": "uint256"
        }
      ],
      "name": "setVars",
      "outputs": [],
      "stateMutability": "nonpayable",
      "type": "function"
    }
  ],
  "bytecode": "0x608060405234801561001057600080fd5b50610160806100206000396000f3fe608060405234801561001057600080fd5b506004361061004c5760003560e01c80634e70b1dc146100515780636466414b1461006d578063c89e4361146100ac578063f2c8c9ec146100f1575b600080fd5b61005a60005481565b6040519081526020015b60405180910390f35b6100aa61007b366004610111565b600055600180547fffffffffffffffffffffffff00000000000000000000000000000000000000001633179055565b005b6002546100cc9073ffffffffffffffffffffffffffffffffffffffff1681565b60405173ffffffffffffffffffffffffffffffffffffffff9091168152602001610064565b6001546100cc9073ffffffffffffffffffffffffffffffffffffffff1681565b60006020828403121561012357600080fd5b503591905056fea264697066735822122007160dca00690cb872d2c0a8165ce7d4d8f31b9b8638b4b69fc9935a6a80edde64736f6c63430008140033",
  "linkReferences": {},
  "deployedLinkReferences": {}
}