{
  "_format": "hh-sol-artifact-1",
  "contractName": "Receiver",
  "sourceName": "contracts/PracticeModule1/LessonDelegateCall.sol",
  "abi": [
    {
      "anonymous": false,
      "inputs": [
        {
          "indexed": false,
          "internalType": "address",
          "name": "sender",
          "type": "address"
        },
        {
          "indexed": false,
          "internalType": "uint256",
          "name": "amount",
          "type": "uint256"
        },
        {
          "indexed": false,
          "internalType": "string",
          "name": "method",
          "type": "string"
        }
      ],
      "name": "EtherReceived",
      "type": "event"
    },
    {
      "inputs": [],
      "name": "receiveEther1",
      "outputs": [],
      "stateMutability": "payable",
      "type": "function"
    },
    {
      "inputs": [],
      "name": "receiveEther2",
      "outputs": [],
      "stateMutability": "payable",
      "type": "function"
    },
    {
      "inputs": [
        {
          "internalType": "uint256",
          "name": "param",
          "type": "uint256"
        }
      ],
      "name": "receiveEther3",
      "outputs": [],
      "stateMutability": "payable",
      "type": "function"
    },
    {
      "stateMutability": "payable",
      "type": "receive"
    }
  ],
  "bytecode": "0x608060405234801561001057600080fd5b506102fa806100206000396000f3fe6080604052600436106100385760003560e01c8063391bf32d146100b157806382d5dacd146100bb578063f37cd2e5146100ce57600080fd5b366100ac576040805133815234602082015260608183018190526008908201527f66616c6c6261636b000000000000000000000000000000000000000000000000608082015290517fa96d1d4035c8de267bed2a5d5ecb7c5bbf440670e6c7d9a912af1c5762a1f9bb9181900360a00190a1005b600080fd5b6100b96100d6565b005b6100b96100c9366004610238565b61014a565b6100b96101ca565b604080513381523460208201526060918101829052600d918101919091527f726563656976654574686572310000000000000000000000000000000000000060808201527fa96d1d4035c8de267bed2a5d5ecb7c5bbf440670e6c7d9a912af1c5762a1f9bb9060a0015b60405180910390a1565b6040517f726563656976654574686572333a2000000000000000000000000000000000006020820152602f81018290527fa96d1d4035c8de267bed2a5d5ecb7c5bbf440670e6c7d9a912af1c5762a1f9bb9033903490604f0160408051601f19818403018152908290526101bf939291610251565b60405180910390a150565b604080513381523460208201526060918101829052600d918101919091527f726563656976654574686572320000000000000000000000000000000000000060808201527fa96d1d4035c8de267bed2a5d5ecb7c5bbf440670e6c7d9a912af1c5762a1f9bb9060a001610140565b60006020828403121561024a57600080fd5b5035919050565b73ffffffffffffffffffffffffffffffffffffffff8416815260006020848184015260606040840152835180606085015260005b818110156102a157858101830151858201608001528201610285565b506000608082860101526080601f19601f8301168501019250505094935050505056fea2646970667358221220ad7952e163b812e944cef8b5abf36d43e4ab59a4b42da98b0aca836f32be71f064736f6c63430008140033",
  "linkReferences": {},
  "deployedLinkReferences": {}
}