{
  "_format": "hh-sol-artifact-1",
  "contractName": "Sender",
  "sourceName": "contracts/PracticeModule1/LessonDelegateCall.sol",
  "abi": [
    {
      "inputs": [
        {
          "internalType": "address",
          "name": "_delegate",
          "type": "address"
        }
      ],
      "stateMutability": "nonpayable",
      "type": "constructor"
    },
    {
      "inputs": [
        {
          "internalType": "address",
          "name": "owner",
          "type": "address"
        }
      ],
      "name": "OwnableInvalidOwner",
      "type": "error"
    },
    {
      "inputs": [
        {
          "internalType": "address",
          "name": "account",
          "type": "address"
        }
      ],
      "name": "OwnableUnauthorizedAccount",
      "type": "error"
    },
    {
      "anonymous": false,
      "inputs": [
        {
          "indexed": true,
          "internalType": "address",
          "name": "previousOwner",
          "type": "address"
        },
        {
          "indexed": true,
          "internalType": "address",
          "name": "newOwner",
          "type": "address"
        }
      ],
      "name": "OwnershipTransferred",
      "type": "event"
    },
    {
      "inputs": [
        {
          "internalType": "address",
          "name": "target",
          "type": "address"
        },
        {
          "internalType": "uint256",
          "name": "method",
          "type": "uint256"
        }
      ],
      "name": "callOtherContract",
      "outputs": [],
      "stateMutability": "payable",
      "type": "function"
    },
    {
      "inputs": [],
      "name": "delegate",
      "outputs": [
        {
          "internalType": "address",
          "name": "",
          "type": "address"
        }
      ],
      "stateMutability": "view",
      "type": "function"
    },
    {
      "inputs": [
        {
          "internalType": "uint256",
          "name": "_num",
          "type": "uint256"
        }
      ],
      "name": "delegateCallSetVars",
      "outputs": [],
      "stateMutability": "nonpayable",
      "type": "function"
    },
    {
      "inputs": [],
      "name": "num",
      "outputs": [
        {
          "internalType": "uint256",
          "name": "",
          "type": "uint256"
        }
      ],
      "stateMutability": "view",
      "type": "function"
    },
    {
      "inputs": [],
      "name": "owner",
      "outputs": [
        {
          "internalType": "address",
          "name": "",
          "type": "address"
        }
      ],
      "stateMutability": "view",
      "type": "function"
    },
    {
      "inputs": [],
      "name": "renounceOwnership",
      "outputs": [],
      "stateMutability": "nonpayable",
      "type": "function"
    },
    {
      "inputs": [
        {
          "internalType": "address payable",
          "name": "recipient",
          "type": "address"
        },
        {
          "internalType": "uint256",
          "name": "amount",
          "type": "uint256"
        }
      ],
      "name": "sendEther",
      "outputs": [],
      "stateMutability": "nonpayable",
      "type": "function"
    },
    {
      "inputs": [],
      "name": "sender",
      "outputs": [
        {
          "internalType": "address",
          "name": "",
          "type": "address"
        }
      ],
      "stateMutability": "view",
      "type": "function"
    },
    {
      "inputs": [
        {
          "internalType": "address",
          "name": "newOwner",
          "type": "address"
        }
      ],
      "name": "transferOwnership",
      "outputs": [],
      "stateMutability": "nonpayable",
      "type": "function"
    },
    {
      "stateMutability": "payable",
      "type": "receive"
    }
  ],
  "bytecode": "0x608060405234801561001057600080fd5b50604051610a3d380380610a3d83398101604081905261002f916100dd565b806001600160a01b03811661005e57604051631e4fbdf760e01b81526000600482015260240160405180910390fd5b6100678161008d565b50600380546001600160a01b0319166001600160a01b039290921691909117905561010d565b600080546001600160a01b038381166001600160a01b0319831681178455604051919092169283917f8be0079c531659141344cd1fd0a4f28419497f9722a3daafe3b4186f6b6457e09190a35050565b6000602082840312156100ef57600080fd5b81516001600160a01b038116811461010657600080fd5b9392505050565b6109218061011c6000396000f3fe60806040526004361061009a5760003560e01c806372c86d2811610069578063c1756a2c1161004e578063c1756a2c1461016f578063c89e43611461018f578063f2fde38b146101af57600080fd5b806372c86d28146101315780638da5cb5b1461015157600080fd5b80633b111c25146100a65780634e70b1dc146100bb57806367e404ce146100e4578063715018a61461011c57600080fd5b366100a157005b600080fd5b6100b96100b4366004610853565b6101cf565b005b3480156100c757600080fd5b506100d160015481565b6040519081526020015b60405180910390f35b3480156100f057600080fd5b50600254610104906001600160a01b031681565b6040516001600160a01b0390911681526020016100db565b34801561012857600080fd5b506100b9610568565b34801561013d57600080fd5b506100b961014c36600461087f565b61057c565b34801561015d57600080fd5b506000546001600160a01b0316610104565b34801561017b57600080fd5b506100b961018a366004610853565b6106ab565b34801561019b57600080fd5b50600354610104906001600160a01b031681565b3480156101bb57600080fd5b506100b96101ca366004610898565b610739565b344710156102245760405162461bcd60e51b815260206004820152601c60248201527f496e73756666696369656e742062616c616e636520746f2073656e640000000060448201526064015b60405180910390fd5b806001036103355760408051600481526024810182526020810180517bffffffffffffffffffffffffffffffffffffffffffffffffffffffff167f391bf32d0000000000000000000000000000000000000000000000000000000017905290516000916001600160a01b03851691349161029d916108bc565b60006040518083038185875af1925050503d80600081146102da576040519150601f19603f3d011682016040523d82523d6000602084013e6102df565b606091505b50509050806103305760405162461bcd60e51b815260206004820152601c60248201527f43616c6c20746f2072656365697665457468657231206661696c656400000000604482015260640161021b565b505050565b806002036104415760408051600481526024810182526020810180517bffffffffffffffffffffffffffffffffffffffffffffffffffffffff167ff37cd2e50000000000000000000000000000000000000000000000000000000017905290516000916001600160a01b0385169134916103ae916108bc565b60006040518083038185875af1925050503d80600081146103eb576040519150601f19603f3d011682016040523d82523d6000602084013e6103f0565b606091505b50509050806103305760405162461bcd60e51b815260206004820152601c60248201527f43616c6c20746f2072656365697665457468657232206661696c656400000000604482015260640161021b565b806003036105645760408051607b60248083019190915282518083039091018152604490910182526020810180517bffffffffffffffffffffffffffffffffffffffffffffffffffffffff167f82d5dacd0000000000000000000000000000000000000000000000000000000017905290516000906001600160a01b0385169034906104ce9085906108bc565b60006040518083038185875af1925050503d806000811461050b576040519150601f19603f3d011682016040523d82523d6000602084013e610510565b606091505b50509050806105615760405162461bcd60e51b815260206004820152601c60248201527f43616c6c20746f2072656365697665457468657233206661696c656400000000604482015260640161021b565b50505b5050565b610570610790565b61057a60006107d6565b565b600354604051602481018390526000916001600160a01b031690604401604080517fffffffffffffffffffffffffffffffffffffffffffffffffffffffffffffffe08184030181529181526020820180517bffffffffffffffffffffffffffffffffffffffffffffffffffffffff167f6466414b000000000000000000000000000000000000000000000000000000001790525161061a91906108bc565b600060405180830381855af49150503d8060008114610655576040519150601f19603f3d011682016040523d82523d6000602084013e61065a565b606091505b50509050806105645760405162461bcd60e51b815260206004820152601360248201527f64656c656761746563616c6c206661696c656400000000000000000000000000604482015260640161021b565b6106b3610790565b804710156107035760405162461bcd60e51b815260206004820152601460248201527f496e73756666696369656e742062616c616e6365000000000000000000000000604482015260640161021b565b6040516001600160a01b0383169082156108fc029083906000818181858888f19350505050158015610330573d6000803e3d6000fd5b610741610790565b6001600160a01b038116610784576040517f1e4fbdf70000000000000000000000000000000000000000000000000000000081526000600482015260240161021b565b61078d816107d6565b50565b6000546001600160a01b0316331461057a576040517f118cdaa700000000000000000000000000000000000000000000000000000000815233600482015260240161021b565b600080546001600160a01b038381167fffffffffffffffffffffffff0000000000000000000000000000000000000000831681178455604051919092169283917f8be0079c531659141344cd1fd0a4f28419497f9722a3daafe3b4186f6b6457e09190a35050565b6001600160a01b038116811461078d57600080fd5b6000806040838503121561086657600080fd5b82356108718161083e565b946020939093013593505050565b60006020828403121561089157600080fd5b5035919050565b6000602082840312156108aa57600080fd5b81356108b58161083e565b9392505050565b6000825160005b818110156108dd57602081860181015185830152016108c3565b50600092019182525091905056fea26469706673582212209491488dfe6ae8e72cec9e1b760e0285758e6376e1c5835514b50eff3ac00d2964736f6c63430008140033",
  "linkReferences": {},
  "deployedLinkReferences": {}
}