{
  "_format": "hh-sol-artifact-1",
  "contractName": "Subtracter",
  "sourceName": "contracts/PracticeJunior/Subtracter.sol",
  "abi": [
    {
      "inputs": [
        {
          "internalType": "uint256",
          "name": "x",
          "type": "uint256"
        },
        {
          "internalType": "uint256",
          "name": "y",
          "type": "uint256"
        }
      ],
      "name": "subtract",
      "outputs": [
        {
          "internalType": "uint256",
          "name": "",
          "type": "uint256"
        }
      ],
      "stateMutability": "pure",
      "type": "function"
    }
  ],
  "bytecode": "0x6080604052348015600e575f80fd5b5060e98061001b5f395ff3fe6080604052348015600e575f80fd5b50600436106026575f3560e01c80633ef5e44514602a575b5f80fd5b60396035366004605d565b604b565b60405190815260200160405180910390f35b5f60548284607c565b90505b92915050565b5f8060408385031215606d575f80fd5b50508035926020909101359150565b818103818111156057577f4e487b71000000000000000000000000000000000000000000000000000000005f52601160045260245ffdfea264697066735822122007d40f96ee0c673dc29076b2c8da896d8f1e21a130fd163b073147b144bdf9bb64736f6c634300081a0033",
  "linkReferences": {},
  "deployedLinkReferences": {}
}