{
  "_format": "hh-sol-artifact-1",
  "contractName": "Mapping",
  "sourceName": "contracts/PracticeModule1/LessonMapping.sol",
  "abi": [
    {
      "inputs": [
        {
          "internalType": "address",
          "name": "_addr",
          "type": "address"
        }
      ],
      "name": "get",
      "outputs": [
        {
          "internalType": "uint256",
          "name": "",
          "type": "uint256"
        }
      ],
      "stateMutability": "view",
      "type": "function"
    },
    {
      "inputs": [
        {
          "internalType": "address",
          "name": "",
          "type": "address"
        }
      ],
      "name": "myMap",
      "outputs": [
        {
          "internalType": "uint256",
          "name": "",
          "type": "uint256"
        }
      ],
      "stateMutability": "view",
      "type": "function"
    },
    {
      "inputs": [
        {
          "internalType": "address",
          "name": "_addr",
          "type": "address"
        }
      ],
      "name": "remove",
      "outputs": [],
      "stateMutability": "nonpayable",
      "type": "function"
    },
    {
      "inputs": [
        {
          "internalType": "address",
          "name": "_addr",
          "type": "address"
        },
        {
          "internalType": "uint256",
          "name": "_i",
          "type": "uint256"
        }
      ],
      "name": "set",
      "outputs": [],
      "stateMutability": "nonpayable",
      "type": "function"
    }
  ],
  "bytecode": "0x608060405234801561001057600080fd5b506101d2806100206000396000f3fe608060405234801561001057600080fd5b506004361061004c5760003560e01c806327cbd5291461005157806329092d0e146100835780633825d828146100ba578063c2bc2efc146100f1575b600080fd5b61007161005f366004610150565b60006020819052908152604090205481565b60405190815260200160405180910390f35b6100b8610091366004610150565b73ffffffffffffffffffffffffffffffffffffffff16600090815260208190526040812055565b005b6100b86100c8366004610172565b73ffffffffffffffffffffffffffffffffffffffff909116600090815260208190526040902055565b6100716100ff366004610150565b73ffffffffffffffffffffffffffffffffffffffff1660009081526020819052604090205490565b803573ffffffffffffffffffffffffffffffffffffffff8116811461014b57600080fd5b919050565b60006020828403121561016257600080fd5b61016b82610127565b9392505050565b6000806040838503121561018557600080fd5b61018e83610127565b94602093909301359350505056fea264697066735822122024a448f4cb82f2833d8253158a4c5e04471f4e1e605bcc114f0eea4a2593e91564736f6c63430008140033",
  "linkReferences": {},
  "deployedLinkReferences": {}
}