{
  "_format": "hh-sol-artifact-1",
  "contractName": "NestedMapping",
  "sourceName": "contracts/PracticeModule1/LessonMapping.sol",
  "abi": [
    {
      "inputs": [
        {
          "internalType": "address",
          "name": "_addr1",
          "type": "address"
        },
        {
          "internalType": "uint256",
          "name": "_i",
          "type": "uint256"
        }
      ],
      "name": "get",
      "outputs": [
        {
          "internalType": "bool",
          "name": "",
          "type": "bool"
        }
      ],
      "stateMutability": "view",
      "type": "function"
    },
    {
      "inputs": [
        {
          "internalType": "address",
          "name": "",
          "type": "address"
        },
        {
          "internalType": "uint256",
          "name": "",
          "type": "uint256"
        }
      ],
      "name": "nested",
      "outputs": [
        {
          "internalType": "bool",
          "name": "",
          "type": "bool"
        }
      ],
      "stateMutability": "view",
      "type": "function"
    },
    {
      "inputs": [
        {
          "internalType": "address",
          "name": "_addr1",
          "type": "address"
        },
        {
          "internalType": "uint256",
          "name": "_i",
          "type": "uint256"
        }
      ],
      "name": "remove",
      "outputs": [],
      "stateMutability": "nonpayable",
      "type": "function"
    },
    {
      "inputs": [
        {
          "internalType": "address",
          "name": "_addr1",
          "type": "address"
        },
        {
          "internalType": "uint256",
          "name": "_i",
          "type": "uint256"
        },
        {
          "internalType": "bool",
          "name": "_boo",
          "type": "bool"
        }
      ],
      "name": "set",
      "outputs": [],
      "stateMutability": "nonpayable",
      "type": "function"
    }
  ],
  "bytecode": "0x608060405234801561001057600080fd5b50610238806100206000396000f3fe608060405234801561001057600080fd5b506004361061004c5760003560e01c80630b1391941461005157806314bd0a7b146100a1578063abe7f1ab146100e0578063b464631b14610126575b600080fd5b61009f61005f366004610193565b73ffffffffffffffffffffffffffffffffffffffff9290921660009081526020818152604080832093835292905220805460ff1916911515919091179055565b005b6100cc6100af3660046101d8565b600060208181529281526040808220909352908152205460ff1681565b604051901515815260200160405180910390f35b61009f6100ee3660046101d8565b73ffffffffffffffffffffffffffffffffffffffff90911660009081526020818152604080832093835292905220805460ff19169055565b6100cc6101343660046101d8565b73ffffffffffffffffffffffffffffffffffffffff91909116600090815260208181526040808320938352929052205460ff1690565b803573ffffffffffffffffffffffffffffffffffffffff8116811461018e57600080fd5b919050565b6000806000606084860312156101a857600080fd5b6101b18461016a565b925060208401359150604084013580151581146101cd57600080fd5b809150509250925092565b600080604083850312156101eb57600080fd5b6101f48361016a565b94602093909301359350505056fea26469706673582212200f595f244509ead225c7db9c3c5672c9c59c898eeabd299127ac4e9dd4ed5b1d64736f6c63430008140033",
  "linkReferences": {},
  "deployedLinkReferences": {}
}