{
  "_format": "hh-sol-artifact-1",
  "contractName": "AddressMap",
  "sourceName": "contracts/practice-junior/AddressMap.sol",
  "abi": [
    {
      "inputs": [
        {
          "internalType": "address",
          "name": "",
          "type": "address"
        }
      ],
      "name": "balances",
      "outputs": [
        {
          "internalType": "uint256",
          "name": "",
          "type": "uint256"
        }
      ],
      "stateMutability": "view",
      "type": "function"
    },
    {
      "inputs": [
        {
          "internalType": "address",
          "name": "addr",
          "type": "address"
        }
      ],
      "name": "getBalance",
      "outputs": [
        {
          "internalType": "uint256",
          "name": "",
          "type": "uint256"
        }
      ],
      "stateMutability": "view",
      "type": "function"
    },
    {
      "inputs": [
        {
          "internalType": "address",
          "name": "addr",
          "type": "address"
        },
        {
          "internalType": "uint256",
          "name": "balance",
          "type": "uint256"
        }
      ],
      "name": "setBalance",
      "outputs": [],
      "stateMutability": "nonpayable",
      "type": "function"
    }
  ],
  "bytecode": "0x6080604052348015600e575f80fd5b506101878061001c5f395ff3fe608060405234801561000f575f80fd5b506004361061003f575f3560e01c806327e235e314610043578063e30443bc14610074578063f8b2cb4f146100ac575b5f80fd5b610062610051366004610109565b5f6020819052908152604090205481565b60405190815260200160405180910390f35b6100aa610082366004610129565b73ffffffffffffffffffffffffffffffffffffffff9091165f90815260208190526040902055565b005b6100626100ba366004610109565b73ffffffffffffffffffffffffffffffffffffffff165f9081526020819052604090205490565b803573ffffffffffffffffffffffffffffffffffffffff81168114610104575f80fd5b919050565b5f60208284031215610119575f80fd5b610122826100e1565b9392505050565b5f806040838503121561013a575f80fd5b610143836100e1565b94602093909301359350505056fea2646970667358221220a79c1509a417f659a7dbd844e09b9af10f802c4b901ec70a2c51c1ed803857ce64736f6c634300081a0033",
  "linkReferences": {},
  "deployedLinkReferences": {}
}