{
  "_format": "hh-sol-artifact-1",
  "contractName": "InputValidation",
  "sourceName": "contracts/PracticeJunior/InputValidation.sol",
  "abi": [
    {
      "inputs": [
        {
          "internalType": "uint256",
          "name": "value",
          "type": "uint256"
        }
      ],
      "name": "validation",
      "outputs": [
        {
          "internalType": "string",
          "name": "",
          "type": "string"
        }
      ],
      "stateMutability": "pure",
      "type": "function"
    }
  ],
  "bytecode": "0x6080604052348015600e575f80fd5b5061019e8061001c5f395ff3fe608060405234801561000f575f80fd5b5060043610610029575f3560e01c8063b72bedd01461002d575b5f80fd5b61004061003b3660046100fe565b610056565b60405161004d9190610115565b60405180910390f35b6060815f036100c5576040517f08c379a000000000000000000000000000000000000000000000000000000000815260206004820152601660248201527f56616c7565206d757374206265206e6f6e2d7a65726f00000000000000000000604482015260640160405180910390fd5b505060408051808201909152600b81527f56616c696420696e707574000000000000000000000000000000000000000000602082015290565b5f6020828403121561010e575f80fd5b5035919050565b602081525f82518060208401528060208501604085015e5f6040828501015260407fffffffffffffffffffffffffffffffffffffffffffffffffffffffffffffffe0601f8301168401019150509291505056fea26469706673582212202e48fb7972cd353f72ae9ddf43e0fbce6e6a97637800c7b4384d917664e1e40b64736f6c634300081a0033",
  "linkReferences": {},
  "deployedLinkReferences": {}
}