{
  "_format": "hh-sol-artifact-1",
  "contractName": "MappingDemo",
  "sourceName": "contracts/PracticeGuideDAO/MappingDemo.sol",
  "abi": [
    {
      "inputs": [],
      "name": "addAddress",
      "outputs": [],
      "stateMutability": "nonpayable",
      "type": "function"
    },
    {
      "inputs": [
        {
          "internalType": "address",
          "name": "",
          "type": "address"
        }
      ],
      "name": "addrMap",
      "outputs": [
        {
          "internalType": "bool",
          "name": "",
          "type": "bool"
        }
      ],
      "stateMutability": "view",
      "type": "function"
    }
  ],
  "bytecode": "0x6080604052348015600e575f80fd5b506101128061001c5f395ff3fe6080604052348015600e575f80fd5b50600436106030575f3560e01c80630ee969531460345780631f095aad146071575b5f80fd5b606f335f90815260208190526040902080547fffffffffffffffffffffffffffffffffffffffffffffffffffffffffffffff00166001179055565b005b6090607c36600460a4565b5f6020819052908152604090205460ff1681565b604051901515815260200160405180910390f35b5f6020828403121560b3575f80fd5b813573ffffffffffffffffffffffffffffffffffffffff8116811460d5575f80fd5b939250505056fea2646970667358221220751c9d348505273016516603e865c4603fff34b1181f801a96676c89e7b1419a64736f6c634300081a0033",
  "linkReferences": {},
  "deployedLinkReferences": {}
}