{
  "_format": "hh-sol-artifact-1",
  "contractName": "BaseContract",
  "sourceName": "contracts/practice-module-2/BaseContract.sol",
  "abi": [
    {
      "inputs": [],
      "name": "count",
      "outputs": [
        {
          "internalType": "int256",
          "name": "",
          "type": "int256"
        }
      ],
      "stateMutability": "view",
      "type": "function"
    },
    {
      "inputs": [],
      "name": "increment",
      "outputs": [],
      "stateMutability": "nonpayable",
      "type": "function"
    },
    {
      "inputs": [
        {
          "internalType": "address",
          "name": "_ownerContract",
          "type": "address"
        },
        {
          "internalType": "address",
          "name": "_newOwner",
          "type": "address"
        }
      ],
      "name": "updateOwner",
      "outputs": [],
      "stateMutability": "nonpayable",
      "type": "function"
    }
  ],
  "bytecode": "0x6080604052348015600e575f80fd5b506102f98061001c5f395ff3fe608060405234801561000f575f80fd5b506004361061003f575f3560e01c806306661abd14610043578063a6348c801461005d578063d09de08a14610072575b5f80fd5b61004b5f5481565b60405190815260200160405180910390f35b61007061006b366004610230565b61007a565b005b6100706101f0565b60405173ffffffffffffffffffffffffffffffffffffffff821660248201525f90604401604080517fffffffffffffffffffffffffffffffffffffffffffffffffffffffffffffffe08184030181529181526020820180517bffffffffffffffffffffffffffffffffffffffffffffffffffffffff167f13af403500000000000000000000000000000000000000000000000000000000179052519091505f9073ffffffffffffffffffffffffffffffffffffffff85169061013d908490610261565b5f604051808303815f865af19150503d805f8114610176576040519150601f19603f3d011682016040523d82523d5f602084013e61017b565b606091505b50509050806101ea576040517f08c379a000000000000000000000000000000000000000000000000000000000815260206004820152601c60248201527f43616c6c20746f204f776e6572436f6e7472616374206661696c656400000000604482015260640160405180910390fd5b50505050565b60015f808282546102019190610277565b9091555050565b803573ffffffffffffffffffffffffffffffffffffffff8116811461022b575f80fd5b919050565b5f8060408385031215610241575f80fd5b61024a83610208565b915061025860208401610208565b90509250929050565b5f82518060208501845e5f920191825250919050565b8082018281125f8312801582168215821617156102bb577f4e487b71000000000000000000000000000000000000000000000000000000005f52601160045260245ffd5b50509291505056fea26469706673582212203b45b1a724473f3efdafce38ebdf3b5a62f7c4b660ea6fbf52946957f092669864736f6c634300081a0033",
  "linkReferences": {},
  "deployedLinkReferences": {}
}