{
  "_format": "hh-sol-artifact-1",
  "contractName": "AddressRecordFactory",
  "sourceName": "contracts/practice-GuideDAO/RecordFactoryENS.sol",
  "abi": [
    {
      "inputs": [
        {
          "internalType": "address",
          "name": "_recordsStorage",
          "type": "address"
        }
      ],
      "stateMutability": "nonpayable",
      "type": "constructor"
    },
    {
      "inputs": [
        {
          "internalType": "address",
          "name": "_record",
          "type": "address"
        }
      ],
      "name": "addAddressRecord",
      "outputs": [],
      "stateMutability": "nonpayable",
      "type": "function"
    },
    {
      "inputs": [],
      "name": "recordsStorage",
      "outputs": [
        {
          "internalType": "contract IRecordStorage",
          "name": "",
          "type": "address"
        }
      ],
      "stateMutability": "view",
      "type": "function"
    }
  ],
  "bytecode": "0x6080604052348015600e575f80fd5b50604051610503380380610503833981016040819052602b91604e565b5f80546001600160a01b0319166001600160a01b03929092169190911790556079565b5f60208284031215605d575f80fd5b81516001600160a01b03811681146072575f80fd5b9392505050565b61047d806100865f395ff3fe608060405234801561000f575f80fd5b5060043610610034575f3560e01c8063acd1a33e14610038578063bb2ab9fa14610080575b5f80fd5b5f546100579073ffffffffffffffffffffffffffffffffffffffff1681565b60405173ffffffffffffffffffffffffffffffffffffffff909116815260200160405180910390f35b61009361008e366004610178565b610095565b005b5f816040516100a39061016b565b73ffffffffffffffffffffffffffffffffffffffff9091168152602001604051809103905ff0801580156100d9573d5f803e3d5ffd5b5090506100e5816100e9565b5050565b5f546040517f99b5346300000000000000000000000000000000000000000000000000000000815273ffffffffffffffffffffffffffffffffffffffff8381166004830152909116906399b53463906024015f604051808303815f87803b158015610152575f80fd5b505af1158015610164573d5f803e3d5ffd5b5050505050565b610295806101b383390190565b5f60208284031215610188575f80fd5b813573ffffffffffffffffffffffffffffffffffffffff811681146101ab575f80fd5b939250505056fe6080604052348015600e575f80fd5b50604051610295380380610295833981016040819052602b916052565b425f55600180546001600160a01b0319166001600160a01b0392909216919091179055607d565b5f602082840312156061575f80fd5b81516001600160a01b03811681146076575f80fd5b9392505050565b61020b8061008a5f395ff3fe608060405234801561000f575f80fd5b506004361061004a575f3560e01c80630781f5c91461004e5780631dcd69ec14610096578063266cf109146100ac578063c37787d9146100f1575b5f80fd5b604080518082018252600781527f61646472657373000000000000000000000000000000000000000000000000006020820152905161008d9190610148565b60405180910390f35b61009e5f5481565b60405190815260200161008d565b6001546100cc9073ffffffffffffffffffffffffffffffffffffffff1681565b60405173ffffffffffffffffffffffffffffffffffffffff909116815260200161008d565b6101466100ff36600461019b565b600180547fffffffffffffffffffffffff00000000000000000000000000000000000000001673ffffffffffffffffffffffffffffffffffffffff92909216919091179055565b005b602081525f82518060208401528060208501604085015e5f6040828501015260407fffffffffffffffffffffffffffffffffffffffffffffffffffffffffffffffe0601f83011684010191505092915050565b5f602082840312156101ab575f80fd5b813573ffffffffffffffffffffffffffffffffffffffff811681146101ce575f80fd5b939250505056fea26469706673582212207e44781aa87b7c17ed7309b471c84d6ed9f928c7822569ba3c04ce787369f8db64736f6c634300081a0033a264697066735822122027dd4eb17a714cbb5b2f3f53f5c7629119003780dd8aeb0e9232a2f7448b84de64736f6c634300081a0033",
  "linkReferences": {},
  "deployedLinkReferences": {}
}