{
  "_format": "hh-sol-artifact-1",
  "contractName": "EnsRecordFactory",
  "sourceName": "contracts/practice-GuideDAO/RecordFactoryENS.sol",
  "abi": [
    {
      "inputs": [
        {
          "internalType": "address",
          "name": "_recordsStorage",
          "type": "address"
        }
      ],
      "stateMutability": "nonpayable",
      "type": "constructor"
    },
    {
      "inputs": [
        {
          "internalType": "string",
          "name": "_domain",
          "type": "string"
        },
        {
          "internalType": "address",
          "name": "_owner",
          "type": "address"
        }
      ],
      "name": "addEnsRecord",
      "outputs": [],
      "stateMutability": "nonpayable",
      "type": "function"
    },
    {
      "inputs": [],
      "name": "recordsStorage",
      "outputs": [
        {
          "internalType": "contract IRecordStorage",
          "name": "",
          "type": "address"
        }
      ],
      "stateMutability": "view",
      "type": "function"
    }
  ],
  "bytecode": "0x6080604052348015600e575f80fd5b50604051610937380380610937833981016040819052602b91604e565b5f80546001600160a01b0319166001600160a01b03929092169190911790556079565b5f60208284031215605d575f80fd5b81516001600160a01b03811681146072575f80fd5b9392505050565b6108b1806100865f395ff3fe608060405234801561000f575f80fd5b5060043610610034575f3560e01c8063acd1a33e14610038578063fc761bbe14610080575b5f80fd5b5f546100579073ffffffffffffffffffffffffffffffffffffffff1681565b60405173ffffffffffffffffffffffffffffffffffffffff909116815260200160405180910390f35b61009361008e3660046101bd565b610095565b005b5f82826040516100a49061015b565b6100af929190610282565b604051809103905ff0801580156100c8573d5f803e3d5ffd5b5090506100d4816100d9565b505050565b5f546040517f99b5346300000000000000000000000000000000000000000000000000000000815273ffffffffffffffffffffffffffffffffffffffff8381166004830152909116906399b53463906024015f604051808303815f87803b158015610142575f80fd5b505af1158015610154573d5f803e3d5ffd5b5050505050565b6105a7806102d583390190565b7f4e487b71000000000000000000000000000000000000000000000000000000005f52604160045260245ffd5b803573ffffffffffffffffffffffffffffffffffffffff811681146101b8575f80fd5b919050565b5f80604083850312156101ce575f80fd5b823567ffffffffffffffff8111156101e4575f80fd5b8301601f810185136101f4575f80fd5b803567ffffffffffffffff81111561020e5761020e610168565b604051601f19603f601f19601f8501160116810181811067ffffffffffffffff8211171561023e5761023e610168565b604052818152828201602001871015610255575f80fd5b816020840160208301375f6020838301015280945050505061027960208401610195565b90509250929050565b604081525f83518060408401528060208601606085015e5f606082850101526060601f19601f83011684010191505073ffffffffffffffffffffffffffffffffffffffff83166020830152939250505056fe608060405234801561000f575f80fd5b506040516105a73803806105a783398101604081905261002e91610093565b425f55600161003d83826101d8565b50600280546001600160a01b0319166001600160a01b039290921691909117905550610292565b634e487b7160e01b5f52604160045260245ffd5b80516001600160a01b038116811461008e575f80fd5b919050565b5f80604083850312156100a4575f80fd5b82516001600160401b038111156100b9575f80fd5b8301601f810185136100c9575f80fd5b80516001600160401b038111156100e2576100e2610064565b604051601f8201601f19908116603f011681016001600160401b038111828210171561011057610110610064565b604052818152828201602001871015610127575f80fd5b8160208401602083015e5f6020838301015280945050505061014b60208401610078565b90509250929050565b600181811c9082168061016857607f821691505b60208210810361018657634e487b7160e01b5f52602260045260245ffd5b50919050565b601f8211156101d357805f5260205f20601f840160051c810160208510156101b15750805b601f840160051c820191505b818110156101d0575f81556001016101bd565b50505b505050565b81516001600160401b038111156101f1576101f1610064565b610205816101ff8454610154565b8461018c565b6020601f821160018114610237575f83156102205750848201515b5f19600385901b1c1916600184901b1784556101d0565b5f84815260208120601f198516915b828110156102665787850151825560209485019460019092019101610246565b508482101561028357868401515f19600387901b60f8161c191681555b50505050600190811b01905550565b6103088061029f5f395ff3fe608060405234801561000f575f80fd5b5060043610610064575f3560e01c80631dcd69ec1161004d5780631dcd69ec1461010a5780638da5cb5b14610120578063c2fb26a614610165575f80fd5b80630781f5c91461006857806313af4035146100b3575b5f80fd5b60408051808201909152600381527f656e73000000000000000000000000000000000000000000000000000000000060208201525b6040516100aa91906101f4565b60405180910390f35b6101086100c1366004610247565b600280547fffffffffffffffffffffffff00000000000000000000000000000000000000001673ffffffffffffffffffffffffffffffffffffffff92909216919091179055565b005b6101125f5481565b6040519081526020016100aa565b6002546101409073ffffffffffffffffffffffffffffffffffffffff1681565b60405173ffffffffffffffffffffffffffffffffffffffff90911681526020016100aa565b61009d6001805461017590610281565b80601f01602080910402602001604051908101604052809291908181526020018280546101a190610281565b80156101ec5780601f106101c3576101008083540402835291602001916101ec565b820191905f5260205f20905b8154815290600101906020018083116101cf57829003601f168201915b505050505081565b602081525f82518060208401528060208501604085015e5f6040828501015260407fffffffffffffffffffffffffffffffffffffffffffffffffffffffffffffffe0601f83011684010191505092915050565b5f60208284031215610257575f80fd5b813573ffffffffffffffffffffffffffffffffffffffff8116811461027a575f80fd5b9392505050565b600181811c9082168061029557607f821691505b6020821081036102cc577f4e487b71000000000000000000000000000000000000000000000000000000005f52602260045260245ffd5b5091905056fea2646970667358221220fdd7e46a4af1e9007fe70a6d70508e952a4406fbcac6cc5461773eec1c3fc27b64736f6c634300081a0033a26469706673582212209dd037d4bbe89fe93d5b26fb9bd0b6262fb6fc2edbcd996e9e70d57bb0305df464736f6c634300081a0033",
  "linkReferences": {},
  "deployedLinkReferences": {}
}