{
  "_format": "hh-sol-artifact-1",
  "contractName": "Todos",
  "sourceName": "contracts/PracticeModule1/LessonStruct.sol",
  "abi": [
    {
      "inputs": [
        {
          "internalType": "string",
          "name": "_text",
          "type": "string"
        }
      ],
      "name": "create",
      "outputs": [],
      "stateMutability": "nonpayable",
      "type": "function"
    },
    {
      "inputs": [
        {
          "internalType": "uint256",
          "name": "",
          "type": "uint256"
        }
      ],
      "name": "todos",
      "outputs": [
        {
          "internalType": "string",
          "name": "text",
          "type": "string"
        },
        {
          "internalType": "bool",
          "name": "completed",
          "type": "bool"
        }
      ],
      "stateMutability": "view",
      "type": "function"
    },
    {
      "inputs": [
        {
          "internalType": "uint256",
          "name": "_index",
          "type": "uint256"
        }
      ],
      "name": "toggleCompleted",
      "outputs": [],
      "stateMutability": "nonpayable",
      "type": "function"
    },
    {
      "inputs": [
        {
          "internalType": "uint256",
          "name": "_index",
          "type": "uint256"
        },
        {
          "internalType": "string",
          "name": "_text",
          "type": "string"
        }
      ],
      "name": "updateText",
      "outputs": [],
      "stateMutability": "nonpayable",
      "type": "function"
    }
  ],
  "bytecode": "0x608060405234801561001057600080fd5b50610749806100206000396000f3fe608060405234801561001057600080fd5b506004361061004c5760003560e01c8063455f502414610051578063b6a46b3b14610066578063bc8bc2b414610079578063cd111614146100a3575b600080fd5b61006461005f366004610397565b6100b6565b005b6100646100743660046103f9565b6100f1565b61008c610087366004610397565b61029f565b60405161009a92919061043b565b60405180910390f35b6100646100b1366004610492565b61035e565b60008082815481106100ca576100ca6104de565b60009182526020909120600160029092020101805460ff19811660ff909116151790555050565b6040805160606020601f85018190040282018101835291810183815260009282919086908690819085018382808284376000920182905250938552505050602091820181905283546001810185559381522081519192600202019081906101589082610593565b506020918201516001909101805491151560ff19909216919091179055604080516060601f850184900490930281018301825290810183815260009282919086908690819085018382808284376000920182905250938552505050602091820181905283546001810185559381522081519192600202019081906101dc9082610593565b50602091820151600191909101805460ff1916911515919091179055604080518082018252606081526000818401528151601f850184900484028101840190925283825291849084908190840183828082843760009201829052509385525050815460018101835591805250815182916002027f290decd9548b62a8d60345a988386fc84ba6bc95484008f6362f93160ef3e5630190819061027e9082610593565b50602091909101516001909101805460ff1916911515919091179055505050565b600081815481106102af57600080fd5b90600052602060002090600202016000915090508060000180546102d29061050a565b80601f01602080910402602001604051908101604052809291908181526020018280546102fe9061050a565b801561034b5780601f106103205761010080835404028352916020019161034b565b820191906000526020600020905b81548152906001019060200180831161032e57829003601f168201915b5050506001909301549192505060ff1682565b6000808481548110610372576103726104de565b60009182526020909120600290910201905080610390838583610653565b5050505050565b6000602082840312156103a957600080fd5b5035919050565b60008083601f8401126103c257600080fd5b50813567ffffffffffffffff8111156103da57600080fd5b6020830191508360208285010111156103f257600080fd5b9250929050565b6000806020838503121561040c57600080fd5b823567ffffffffffffffff81111561042357600080fd5b61042f858286016103b0565b90969095509350505050565b604081526000835180604084015260005b81811015610469576020818701810151606086840101520161044c565b506000606082850101526060601f19601f83011684010191505082151560208301529392505050565b6000806000604084860312156104a757600080fd5b83359250602084013567ffffffffffffffff8111156104c557600080fd5b6104d1868287016103b0565b9497909650939450505050565b634e487b7160e01b600052603260045260246000fd5b634e487b7160e01b600052604160045260246000fd5b600181811c9082168061051e57607f821691505b60208210810361053e57634e487b7160e01b600052602260045260246000fd5b50919050565b601f82111561058e57600081815260208120601f850160051c8101602086101561056b5750805b601f850160051c820191505b8181101561058a57828155600101610577565b5050505b505050565b815167ffffffffffffffff8111156105ad576105ad6104f4565b6105c1816105bb845461050a565b84610544565b602080601f8311600181146105f657600084156105de5750858301515b600019600386901b1c1916600185901b17855561058a565b600085815260208120601f198616915b8281101561062557888601518255948401946001909101908401610606565b50858210156106435787850151600019600388901b60f8161c191681555b5050505050600190811b01905550565b67ffffffffffffffff83111561066b5761066b6104f4565b61067f83610679835461050a565b83610544565b6000601f8411600181146106b3576000851561069b5750838201355b600019600387901b1c1916600186901b178355610390565b600083815260209020601f19861690835b828110156106e457868501358255602094850194600190920191016106c4565b50868210156107015760001960f88860031b161c19848701351681555b505060018560011b018355505050505056fea2646970667358221220dbd39f6f012bebc1183a62cd688726bf1bc3c1da642fa4bed6ffd36284bc7c2664736f6c63430008140033",
  "linkReferences": {},
  "deployedLinkReferences": {}
}