{
  "_format": "hh-sol-artifact-1",
  "contractName": "DemoNew",
  "sourceName": "contracts/PracticeGuideDAO/DemoNew.sol",
  "abi": [
    {
      "inputs": [],
      "name": "balance",
      "outputs": [
        {
          "internalType": "uint256",
          "name": "",
          "type": "uint256"
        }
      ],
      "stateMutability": "view",
      "type": "function"
    },
    {
      "inputs": [],
      "name": "contractAddr",
      "outputs": [
        {
          "internalType": "address",
          "name": "",
          "type": "address"
        }
      ],
      "stateMutability": "view",
      "type": "function"
    },
    {
      "inputs": [],
      "name": "demo",
      "outputs": [],
      "stateMutability": "payable",
      "type": "function"
    },
    {
      "inputs": [],
      "name": "limit",
      "outputs": [
        {
          "internalType": "uint256",
          "name": "",
          "type": "uint256"
        }
      ],
      "stateMutability": "view",
      "type": "function"
    },
    {
      "inputs": [],
      "name": "number",
      "outputs": [
        {
          "internalType": "uint256",
          "name": "",
          "type": "uint256"
        }
      ],
      "stateMutability": "view",
      "type": "function"
    },
    {
      "inputs": [],
      "name": "price",
      "outputs": [
        {
          "internalType": "uint256",
          "name": "",
          "type": "uint256"
        }
      ],
      "stateMutability": "view",
      "type": "function"
    },
    {
      "inputs": [],
      "name": "sender",
      "outputs": [
        {
          "internalType": "address",
          "name": "",
          "type": "address"
        }
      ],
      "stateMutability": "view",
      "type": "function"
    },
    {
      "inputs": [],
      "name": "sum",
      "outputs": [
        {
          "internalType": "uint256",
          "name": "",
          "type": "uint256"
        }
      ],
      "stateMutability": "view",
      "type": "function"
    },
    {
      "inputs": [],
      "name": "timestamp",
      "outputs": [
        {
          "internalType": "uint256",
          "name": "",
          "type": "uint256"
        }
      ],
      "stateMutability": "view",
      "type": "function"
    }
  ],
  "bytecode": "0x6080604052348015600e575f80fd5b5061022b8061001c5f395ff3fe608060405260043610610093575f3560e01c8063853255cc11610066578063a4d66daf1161004c578063a4d66daf146101b6578063b69ef8a8146101cb578063b80777ea146101e0575f80fd5b8063853255cc1461018d578063a035b1fe146101a1575f80fd5b806301725a0b1461009757806315a5d9d8146100e857806367e404ce1461013e5780638381f58a1461016a575b5f80fd5b345f5560018054337fffffffffffffffffffffffff0000000000000000000000000000000000000000918216179091554260025543600355456004553a600555600680543092168217905531600755005b3480156100f3575f80fd5b506006546101149073ffffffffffffffffffffffffffffffffffffffff1681565b60405173ffffffffffffffffffffffffffffffffffffffff90911681526020015b60405180910390f35b348015610149575f80fd5b506001546101149073ffffffffffffffffffffffffffffffffffffffff1681565b348015610175575f80fd5b5061017f60035481565b604051908152602001610135565b348015610198575f80fd5b5061017f5f5481565b3480156101ac575f80fd5b5061017f60055481565b3480156101c1575f80fd5b5061017f60045481565b3480156101d6575f80fd5b5061017f60075481565b3480156101eb575f80fd5b5061017f6002548156fea264697066735822122057b5afd98c9edcd0459e52c05ea04084a5b4088a352e0d15cb1e428b1b4476b364736f6c634300081a0033",
  "linkReferences": {},
  "deployedLinkReferences": {}
}