{
  "_format": "hh-sol-artifact-1",
  "contractName": "AddressMap",
  "sourceName": "contracts/PracticeJunior/AddressMap.sol",
  "abi": [
    {
      "inputs": [
        {
          "internalType": "address",
          "name": "",
          "type": "address"
        }
      ],
      "name": "balances",
      "outputs": [
        {
          "internalType": "uint256",
          "name": "",
          "type": "uint256"
        }
      ],
      "stateMutability": "view",
      "type": "function"
    },
    {
      "inputs": [
        {
          "internalType": "address",
          "name": "addr",
          "type": "address"
        }
      ],
      "name": "getBalance",
      "outputs": [
        {
          "internalType": "uint256",
          "name": "",
          "type": "uint256"
        }
      ],
      "stateMutability": "view",
      "type": "function"
    },
    {
      "inputs": [
        {
          "internalType": "address",
          "name": "addr",
          "type": "address"
        },
        {
          "internalType": "uint256",
          "name": "balance",
          "type": "uint256"
        }
      ],
      "name": "setBalance",
      "outputs": [],
      "stateMutability": "nonpayable",
      "type": "function"
    }
  ],
  "bytecode": "0x608060405234801561001057600080fd5b50610192806100206000396000f3fe608060405234801561001057600080fd5b50600436106100415760003560e01c806327e235e314610046578063e30443bc14610078578063f8b2cb4f146100b1575b600080fd5b610066610054366004610110565b60006020819052908152604090205481565b60405190815260200160405180910390f35b6100af610086366004610132565b73ffffffffffffffffffffffffffffffffffffffff909116600090815260208190526040902055565b005b6100666100bf366004610110565b73ffffffffffffffffffffffffffffffffffffffff1660009081526020819052604090205490565b803573ffffffffffffffffffffffffffffffffffffffff8116811461010b57600080fd5b919050565b60006020828403121561012257600080fd5b61012b826100e7565b9392505050565b6000806040838503121561014557600080fd5b61014e836100e7565b94602093909301359350505056fea264697066735822122093d2b19ac955a03323a5ee3d4902fad14597e91ea40d9475531978f39602412d64736f6c63430008140033",
  "linkReferences": {},
  "deployedLinkReferences": {}
}