{
  "_format": "hh-sol-artifact-1",
  "contractName": "MyToken",
  "sourceName": "contracts/practice-GuideDAO/ERC2612/MyToken.sol",
  "abi": [
    {
      "inputs": [],
      "stateMutability": "nonpayable",
      "type": "constructor"
    },
    {
      "inputs": [],
      "name": "InvalidShortString",
      "type": "error"
    },
    {
      "inputs": [
        {
          "internalType": "string",
          "name": "str",
          "type": "string"
        }
      ],
      "name": "StringTooLong",
      "type": "error"
    },
    {
      "anonymous": false,
      "inputs": [
        {
          "indexed": true,
          "internalType": "address",
          "name": "owner",
          "type": "address"
        },
        {
          "indexed": true,
          "internalType": "address",
          "name": "spender",
          "type": "address"
        },
        {
          "indexed": false,
          "internalType": "uint256",
          "name": "value",
          "type": "uint256"
        }
      ],
      "name": "Approval",
      "type": "event"
    },
    {
      "anonymous": false,
      "inputs": [],
      "name": "EIP712DomainChanged",
      "type": "event"
    },
    {
      "anonymous": false,
      "inputs": [
        {
          "indexed": true,
          "internalType": "address",
          "name": "from",
          "type": "address"
        },
        {
          "indexed": true,
          "internalType": "address",
          "name": "to",
          "type": "address"
        },
        {
          "indexed": false,
          "internalType": "uint256",
          "name": "value",
          "type": "uint256"
        }
      ],
      "name": "Transfer",
      "type": "event"
    },
    {
      "inputs": [],
      "name": "DOMAIN_SEPARATOR",
      "outputs": [
        {
          "internalType": "bytes32",
          "name": "",
          "type": "bytes32"
        }
      ],
      "stateMutability": "view",
      "type": "function"
    },
    {
      "inputs": [],
      "name": "_cachedChainId",
      "outputs": [
        {
          "internalType": "uint256",
          "name": "",
          "type": "uint256"
        }
      ],
      "stateMutability": "view",
      "type": "function"
    },
    {
      "inputs": [],
      "name": "_name",
      "outputs": [
        {
          "internalType": "ShortString",
          "name": "",
          "type": "bytes32"
        }
      ],
      "stateMutability": "view",
      "type": "function"
    },
    {
      "inputs": [
        {
          "internalType": "address",
          "name": "owner",
          "type": "address"
        },
        {
          "internalType": "address",
          "name": "spender",
          "type": "address"
        }
      ],
      "name": "allowance",
      "outputs": [
        {
          "internalType": "uint256",
          "name": "",
          "type": "uint256"
        }
      ],
      "stateMutability": "view",
      "type": "function"
    },
    {
      "inputs": [
        {
          "internalType": "address",
          "name": "spender",
          "type": "address"
        },
        {
          "internalType": "uint256",
          "name": "amount",
          "type": "uint256"
        }
      ],
      "name": "approve",
      "outputs": [
        {
          "internalType": "bool",
          "name": "",
          "type": "bool"
        }
      ],
      "stateMutability": "nonpayable",
      "type": "function"
    },
    {
      "inputs": [
        {
          "internalType": "address",
          "name": "account",
          "type": "address"
        }
      ],
      "name": "balanceOf",
      "outputs": [
        {
          "internalType": "uint256",
          "name": "",
          "type": "uint256"
        }
      ],
      "stateMutability": "view",
      "type": "function"
    },
    {
      "inputs": [],
      "name": "decimals",
      "outputs": [
        {
          "internalType": "uint8",
          "name": "",
          "type": "uint8"
        }
      ],
      "stateMutability": "pure",
      "type": "function"
    },
    {
      "inputs": [
        {
          "internalType": "address",
          "name": "spender",
          "type": "address"
        },
        {
          "internalType": "uint256",
          "name": "subValue",
          "type": "uint256"
        }
      ],
      "name": "decreaseAllowance",
      "outputs": [
        {
          "internalType": "bool",
          "name": "",
          "type": "bool"
        }
      ],
      "stateMutability": "nonpayable",
      "type": "function"
    },
    {
      "inputs": [],
      "name": "eip712Domain",
      "outputs": [
        {
          "internalType": "bytes1",
          "name": "fields",
          "type": "bytes1"
        },
        {
          "internalType": "string",
          "name": "name",
          "type": "string"
        },
        {
          "internalType": "string",
          "name": "version",
          "type": "string"
        },
        {
          "internalType": "uint256",
          "name": "chainId",
          "type": "uint256"
        },
        {
          "internalType": "address",
          "name": "verifyingContract",
          "type": "address"
        },
        {
          "internalType": "bytes32",
          "name": "salt",
          "type": "bytes32"
        },
        {
          "internalType": "uint256[]",
          "name": "extensions",
          "type": "uint256[]"
        }
      ],
      "stateMutability": "view",
      "type": "function"
    },
    {
      "inputs": [
        {
          "internalType": "address",
          "name": "spender",
          "type": "address"
        },
        {
          "internalType": "uint256",
          "name": "addedValue",
          "type": "uint256"
        }
      ],
      "name": "increaseAllowance",
      "outputs": [
        {
          "internalType": "bool",
          "name": "",
          "type": "bool"
        }
      ],
      "stateMutability": "nonpayable",
      "type": "function"
    },
    {
      "inputs": [
        {
          "internalType": "address",
          "name": "to",
          "type": "address"
        },
        {
          "internalType": "uint256",
          "name": "amount",
          "type": "uint256"
        }
      ],
      "name": "mint",
      "outputs": [],
      "stateMutability": "nonpayable",
      "type": "function"
    },
    {
      "inputs": [],
      "name": "name",
      "outputs": [
        {
          "internalType": "string",
          "name": "",
          "type": "string"
        }
      ],
      "stateMutability": "view",
      "type": "function"
    },
    {
      "inputs": [
        {
          "internalType": "address",
          "name": "owner",
          "type": "address"
        }
      ],
      "name": "nonces",
      "outputs": [
        {
          "internalType": "uint256",
          "name": "",
          "type": "uint256"
        }
      ],
      "stateMutability": "view",
      "type": "function"
    },
    {
      "inputs": [
        {
          "internalType": "address",
          "name": "owner",
          "type": "address"
        },
        {
          "internalType": "address",
          "name": "spender",
          "type": "address"
        },
        {
          "internalType": "uint256",
          "name": "value",
          "type": "uint256"
        },
        {
          "internalType": "uint256",
          "name": "deadline",
          "type": "uint256"
        },
        {
          "internalType": "uint8",
          "name": "v",
          "type": "uint8"
        },
        {
          "internalType": "bytes32",
          "name": "r",
          "type": "bytes32"
        },
        {
          "internalType": "bytes32",
          "name": "s",
          "type": "bytes32"
        }
      ],
      "name": "permit",
      "outputs": [],
      "stateMutability": "nonpayable",
      "type": "function"
    },
    {
      "inputs": [],
      "name": "symbol",
      "outputs": [
        {
          "internalType": "string",
          "name": "",
          "type": "string"
        }
      ],
      "stateMutability": "view",
      "type": "function"
    },
    {
      "inputs": [],
      "name": "totalSupply",
      "outputs": [
        {
          "internalType": "uint256",
          "name": "",
          "type": "uint256"
        }
      ],
      "stateMutability": "view",
      "type": "function"
    },
    {
      "inputs": [
        {
          "internalType": "address",
          "name": "to",
          "type": "address"
        },
        {
          "internalType": "uint256",
          "name": "amount",
          "type": "uint256"
        }
      ],
      "name": "transfer",
      "outputs": [
        {
          "internalType": "bool",
          "name": "",
          "type": "bool"
        }
      ],
      "stateMutability": "nonpayable",
      "type": "function"
    },
    {
      "inputs": [
        {
          "internalType": "address",
          "name": "from",
          "type": "address"
        },
        {
          "internalType": "address",
          "name": "to",
          "type": "address"
        },
        {
          "internalType": "uint256",
          "name": "amount",
          "type": "uint256"
        }
      ],
      "name": "transferFrom",
      "outputs": [
        {
          "internalType": "bool",
          "name": "",
          "type": "bool"
        }
      ],
      "stateMutability": "nonpayable",
      "type": "function"
    }
  ],
  "bytecode": "0x610160604052348015610010575f80fd5b506040518060400160405280600781526020016626bcaa37b5b2b760c91b81525080604051806040016040528060018152602001603160f81b8152506040518060400160405280600781526020016626bcaa37b5b2b760c91b815250604051806040016040528060038152602001624d544b60e81b81525081600390816100979190610367565b5060046100a48282610367565b506100b49150839050600561019a565b60e0526100c281600661019a565b61010052815160208084019190912061012052815190820120610140524660a0526101506101205161014051604080517f8b73c3c69bb8fe3d512ecc4cf759cc79239f7b179b0ffacaa9a75d522b39400f60208201529081019290925260608201524660808201523060a08201525f9060c00160405160208183030381529060405280519060200120905090565b60805250503060c05250600880546001600160a01b031916339081179091556101959061017a5f90565b61018590600a610518565b61019090606461052d565b6101cc565b6105af565b5f6020835110156101b5576101ae8361028e565b90506101c6565b816101c08482610367565b5060ff90505b92915050565b6001600160a01b0382166102275760405162461bcd60e51b815260206004820152601760248201527f4163636f756e742063616e6e6f74206265207a65726f2100000000000000000060448201526064015b60405180910390fd5b8060025f8282546102389190610544565b90915550506001600160a01b0382165f81815260208181526040808320805486019055518481527fddf252ad1be2c89b69c2b068fc378daa952ba7f163c4a11628f55a4df523b3ef910160405180910390a35050565b5f80829050601f815111156102b8578260405163305a27a960e01b815260040161021e9190610557565b80516102c38261058c565b179392505050565b505050565b634e487b7160e01b5f52604160045260245ffd5b600181811c908216806102f857607f821691505b60208210810361031657634e487b7160e01b5f52602260045260245ffd5b50919050565b601f8211156102cb57805f5260205f20601f840160051c810160208510156103415750805b601f840160051c820191505b81811015610360575f815560010161034d565b5050505050565b81516001600160401b03811115610380576103806102d0565b6103948161038e84546102e4565b8461031c565b6020601f8211600181146103c6575f83156103af5750848201515b5f19600385901b1c1916600184901b178455610360565b5f84815260208120601f198516915b828110156103f557878501518255602094850194600190920191016103d5565b508482101561041257868401515f19600387901b60f8161c191681555b50505050600190811b01905550565b634e487b7160e01b5f52601160045260245ffd5b6001815b60018411156104705780850481111561045457610454610421565b600184161561046257908102905b60019390931c928002610439565b935093915050565b5f82610486575060016101c6565b8161049257505f6101c6565b81600181146104a857600281146104b2576104ce565b60019150506101c6565b60ff8411156104c3576104c3610421565b50506001821b6101c6565b5060208310610133831016604e8410600b84101617156104f1575081810a6101c6565b6104fd5f198484610435565b805f190482111561051057610510610421565b029392505050565b5f61052660ff841683610478565b9392505050565b80820281158282048414176101c6576101c6610421565b808201808211156101c6576101c6610421565b602081525f82518060208401528060208501604085015e5f604082850101526040601f19601f83011684010191505092915050565b80516020808301519190811015610316575f1960209190910360031b1b16919050565b60805160a05160c05160e0516101005161012051610140516112fd61060e5f395f610b4a01525f610b2201525f6104d201525f818161028b01526104a701525f610a7d01525f81816101790152610aa701525f610ad101526112fd5ff3fe608060405234801561000f575f80fd5b506004361061012f575f3560e01c806370a08231116100ad578063a457c2d71161007d578063d28d885211610063578063d28d885214610286578063d505accf146102ad578063dd62ed3e146102c0575f80fd5b8063a457c2d714610260578063a9059cbb14610273575f80fd5b806370a08231146102025780637ecebe001461022a57806384b0196e1461023d57806395d89b4114610258575f80fd5b806323b872dd116101025780633644e515116100e85780633644e515146101d257806339509351146101da57806340c10f19146101ed575f80fd5b806323b872dd146101b1578063313ce567146101c4575f80fd5b806306fdde0314610133578063095ea7b31461015157806315b980781461017457806318160ddd146101a9575b5f80fd5b61013b6102f8565b6040516101489190611063565b60405180910390f35b61016461015f366004611097565b610388565b6040519015158152602001610148565b61019b7f000000000000000000000000000000000000000000000000000000000000000081565b604051908152602001610148565b60025461019b565b6101646101bf3660046110bf565b6103a1565b6040515f8152602001610148565b61019b6103c4565b6101646101e8366004611097565b6103d2565b6102006101fb366004611097565b610410565b005b61019b6102103660046110f9565b6001600160a01b03165f9081526020819052604090205490565b61019b6102383660046110f9565b61047d565b61024561049a565b6040516101489796959493929190611112565b61013b61053d565b61016461026e366004611097565b61054c565b610164610281366004611097565b6105cf565b61019b7f000000000000000000000000000000000000000000000000000000000000000081565b6102006102bb3660046111c4565b6105dc565b61019b6102ce366004611231565b6001600160a01b039182165f90815260016020908152604080832093909416825291909152205490565b60606003805461030790611262565b80601f016020809104026020016040519081016040528092919081815260200182805461033390611262565b801561037e5780601f106103555761010080835404028352916020019161037e565b820191905f5260205f20905b81548152906001019060200180831161036157829003601f168201915b5050505050905090565b5f3361039581858561073d565b60019150505b92915050565b5f336103ae858285610849565b6103b98585856108f8565b506001949350505050565b5f6103cd610a71565b905090565b335f8181526001602090815260408083206001600160a01b0387168452909152812054909190610395908290869061040b908790611294565b61073d565b6008546001600160a01b0316331461046f5760405162461bcd60e51b815260206004820152601760248201527f43616c6c6572206973206e6f7420746865206f776e657200000000000000000060448201526064015b60405180910390fd5b6104798282610b9a565b5050565b6001600160a01b0381165f9081526007602052604081205461039b565b5f606080828080836104cd7f00000000000000000000000000000000000000000000000000000000000000006005610c57565b6104f87f00000000000000000000000000000000000000000000000000000000000000006006610c57565b604080515f808252602082019092527f0f000000000000000000000000000000000000000000000000000000000000009b939a50919850469750309650945092509050565b60606004805461030790611262565b335f8181526001602090815260408083206001600160a01b0387168452909152812054909190838110156105c25760405162461bcd60e51b815260206004820152601f60248201527f616c6c6f77616e63652073686f756c64206265203e3d2073756256616c7565006044820152606401610466565b6103b9828686840361073d565b5f336103958185856108f8565b8342111561062c5760405162461bcd60e51b815260206004820152600760248201527f65787069726564000000000000000000000000000000000000000000000000006044820152606401610466565b5f7f6e71edae12b1b97f4d1f60370fef10105fa2faae0126114a169c64845d6126c988888861065a8c610d00565b6040805160208101969096526001600160a01b0394851690860152929091166060840152608083015260a082015260c0810186905260e0016040516020818303038152906040528051906020012090505f6106b482610d27565b90505f6106c382878787610d6e565b9050896001600160a01b0316816001600160a01b0316146107265760405162461bcd60e51b815260206004820152600c60248201527f6e6f7420616e206f776e657200000000000000000000000000000000000000006044820152606401610466565b6107318a8a8a61073d565b50505050505050505050565b6001600160a01b0383166107935760405162461bcd60e51b815260206004820152601560248201527f4f776e65722063616e6e6f74206265207a65726f2100000000000000000000006044820152606401610466565b6001600160a01b0382166107e95760405162461bcd60e51b815260206004820152601760248201527f5370656e6465722063616e6e6f74206265207a65726f210000000000000000006044820152606401610466565b6001600160a01b038381165f8181526001602090815260408083209487168084529482529182902085905590518481527f8c5be1e5ebec7d5bd14f71427d1e84f3dd0314c0f7b2291e5b200ac8c7c3b925910160405180910390a3505050565b6001600160a01b038381165f908152600160209081526040808320938616835292905220547fffffffffffffffffffffffffffffffffffffffffffffffffffffffffffffffff81146108f257818110156108e55760405162461bcd60e51b815260206004820152601660248201527f696e73756666696369656e7420616c6c6f77616e6365000000000000000000006044820152606401610466565b6108f2848484840361073d565b50505050565b6001600160a01b03831661094e5760405162461bcd60e51b815260206004820152601960248201527f46726f6d2063616e6e6f74206265207a65726f206164647221000000000000006044820152606401610466565b6001600160a01b0382166109a45760405162461bcd60e51b815260206004820152601760248201527f546f2063616e6e6f74206265207a65726f2061646472210000000000000000006044820152606401610466565b6001600160a01b0383165f9081526020819052604090205481811015610a0c5760405162461bcd60e51b815260206004820152601360248201527f696e73756666696369656e742066756e647321000000000000000000000000006044820152606401610466565b6001600160a01b038481165f81815260208181526040808320878703905593871680835291849020805487019055925185815290927fddf252ad1be2c89b69c2b068fc378daa952ba7f163c4a11628f55a4df523b3ef910160405180910390a36108f2565b5f306001600160a01b037f000000000000000000000000000000000000000000000000000000000000000016148015610ac957507f000000000000000000000000000000000000000000000000000000000000000046145b15610af357507f000000000000000000000000000000000000000000000000000000000000000090565b6103cd604080517f8b73c3c69bb8fe3d512ecc4cf759cc79239f7b179b0ffacaa9a75d522b39400f60208201527f0000000000000000000000000000000000000000000000000000000000000000918101919091527f000000000000000000000000000000000000000000000000000000000000000060608201524660808201523060a08201525f9060c00160405160208183030381529060405280519060200120905090565b6001600160a01b038216610bf05760405162461bcd60e51b815260206004820152601760248201527f4163636f756e742063616e6e6f74206265207a65726f210000000000000000006044820152606401610466565b8060025f828254610c019190611294565b90915550506001600160a01b0382165f81815260208181526040808320805486019055518481527fddf252ad1be2c89b69c2b068fc378daa952ba7f163c4a11628f55a4df523b3ef910160405180910390a35050565b606060ff8314610c7157610c6a83610d94565b905061039b565b818054610c7d90611262565b80601f0160208091040260200160405190810160405280929190818152602001828054610ca990611262565b8015610cf45780601f10610ccb57610100808354040283529160200191610cf4565b820191905f5260205f20905b815481529060010190602001808311610cd757829003601f168201915b5050505050905061039b565b6001600160a01b0381165f9081526007602052604090208054600181018255905b50919050565b5f61039b610d33610a71565b836040517f19010000000000000000000000000000000000000000000000000000000000008152600281019290925260228201526042902090565b5f805f610d7d87878787610dd1565b91509150610d8a81610e8e565b5095945050505050565b60605f610da083610ff5565b6040805160208082528183019092529192505f91906020820181803683375050509182525060208101929092525090565b5f807f7fffffffffffffffffffffffffffffff5d576e7357a4501ddfe92f46681b20a0831115610e0657505f90506003610e85565b604080515f8082526020820180845289905260ff881692820192909252606081018690526080810185905260019060a0016020604051602081039080840390855afa158015610e57573d5f803e3d5ffd5b5050604051601f1901519150506001600160a01b038116610e7f575f60019250925050610e85565b91505f90505b94509492505050565b5f816004811115610ea157610ea16112b3565b03610ea95750565b6001816004811115610ebd57610ebd6112b3565b03610f0a5760405162461bcd60e51b815260206004820152601860248201527f45434453413a20696e76616c6964207369676e617475726500000000000000006044820152606401610466565b6002816004811115610f1e57610f1e6112b3565b03610f6b5760405162461bcd60e51b815260206004820152601f60248201527f45434453413a20696e76616c6964207369676e6174757265206c656e677468006044820152606401610466565b6003816004811115610f7f57610f7f6112b3565b03610ff25760405162461bcd60e51b815260206004820152602260248201527f45434453413a20696e76616c6964207369676e6174757265202773272076616c60448201527f75650000000000000000000000000000000000000000000000000000000000006064820152608401610466565b50565b5f60ff8216601f81111561039b576040517fb3512b0c00000000000000000000000000000000000000000000000000000000815260040160405180910390fd5b5f81518084528060208401602086015e5f602082860101526020601f19601f83011685010191505092915050565b602081525f6110756020830184611035565b9392505050565b80356001600160a01b0381168114611092575f80fd5b919050565b5f80604083850312156110a8575f80fd5b6110b18361107c565b946020939093013593505050565b5f805f606084860312156110d1575f80fd5b6110da8461107c565b92506110e86020850161107c565b929592945050506040919091013590565b5f60208284031215611109575f80fd5b6110758261107c565b7fff000000000000000000000000000000000000000000000000000000000000008816815260e060208201525f61114c60e0830189611035565b828103604084015261115e8189611035565b606084018890526001600160a01b038716608085015260a0840186905283810360c0850152845180825260208087019350909101905f5b818110156111b3578351835260209384019390920191600101611195565b50909b9a5050505050505050505050565b5f805f805f805f60e0888a0312156111da575f80fd5b6111e38861107c565b96506111f16020890161107c565b95506040880135945060608801359350608088013560ff81168114611214575f80fd5b9699959850939692959460a0840135945060c09093013592915050565b5f8060408385031215611242575f80fd5b61124b8361107c565b91506112596020840161107c565b90509250929050565b600181811c9082168061127657607f821691505b602082108103610d2157634e487b7160e01b5f52602260045260245ffd5b8082018082111561039b57634e487b7160e01b5f52601160045260245ffd5b634e487b7160e01b5f52602160045260245ffdfea2646970667358221220ceb858b89e41aa1fa51f1a2d14c4256f2f5fd52bcaa5b7f67bd50d77fcf8998764736f6c634300081a0033",
  "linkReferences": {},
  "deployedLinkReferences": {}
}